{
	"data": {
		"bytecode": {
			"linkReferences": {},
			"object": "608060405234801561001057600080fd5b5061254e806100206000396000f3fe608060405234801561001057600080fd5b506004361061009e5760003560e01c8063a786509011610066578063a786509014610145578063af91549814610163578063d0bccea11461017f578063f04420f11461019b578063fec5c09a146101cb5761009e565b806301ffc9a7146100a357806306e82383146100d3578063286936bb146100f157806387f949b41461010d57806394c4395b14610129575b600080fd5b6100bd60048036038101906100b89190611418565b6101e9565b6040516100ca9190611460565b60405180910390f35b6100db61026a565b6040516100e89190611494565b60405180910390f35b61010b60048036038101906101069190611596565b61027d565b005b6101276004803603810190610122919061162b565b6103fc565b005b610143600480360381019061013e91906116fd565b6105a6565b005b61014d610781565b60405161015a9190611494565b60405180910390f35b61017d600480360381019061017891906117c7565b610794565b005b61019960048036038101906101949190611890565b610933565b005b6101b560048036038101906101b09190611918565b610b96565b6040516101c29190611494565b60405180910390f35b6101d3610be8565b6040516101e09190611460565b60405180910390f35b60007f6a01f9c1000000000000000000000000000000000000000000000000000000007bffffffffffffffffffffffffffffffffffffffffffffffffffffffff1916827bffffffffffffffffffffffffffffffffffffffffffffffffffffffff1916036102595760019050610265565b61026282610bf1565b90505b919050565b6000610274610c72565b60010154905090565b848484466040516020016102949493929190611a08565b6040516020818303038152906040528051906020012082826000806102c5858585906102c09190611c3c565b610c9f565b9150915081819061030c576040517f08c379a00000000000000000000000000000000000000000000000000000000081526004016103039190611cd0565b60405180910390fd5b5060005b8484905081101561039d576001610325610c72565b600301600087878581811061033d5761033c611cf2565b5b905060200281019061034f9190611d30565b60405161035d929190611dc3565b6040518091039020815260200190815260200160002060006101000a81548160ff021916908315150217905550808061039590611e0b565b915050610310565b5060005b8a8a90508110156103ef576103dc8b8b838181106103c2576103c1611cf2565b5b90506020020160208101906103d79190611918565b610e8f565b80806103e790611e0b565b9150506103a1565b5050505050505050505050565b83834660405160200161041193929190611e53565b6040516020818303038152906040528051906020012082826000806104428585859061043d9190611c3c565b610c9f565b91509150818190610489576040517f08c379a00000000000000000000000000000000000000000000000000000000081526004016104809190611cd0565b60405180910390fd5b5060005b8484905081101561051a5760016104a2610c72565b60030160008787858181106104ba576104b9611cf2565b5b90506020028101906104cc9190611d30565b6040516104da929190611dc3565b6040518091039020815260200190815260200160002060006101000a81548160ff021916908315150217905550808061051290611e0b565b91505061048d565b506000610525610c72565b6000015411801561054c5750610539610c72565b60010154610545610c72565b6000015411155b61058b576040517f08c379a000000000000000000000000000000000000000000000000000000000815260040161058290611ed6565b60405180910390fd5b88610594610c72565b60000181905550505050505050505050565b8383466040516020016105bb93929190611f05565b6040516020818303038152906040528051906020012082826000806105ec858585906105e79190611c3c565b610c9f565b91509150818190610633576040517f08c379a000000000000000000000000000000000000000000000000000000000815260040161062a9190611cd0565b60405180910390fd5b5060005b848490508110156106c457600161064c610c72565b600301600087878581811061066457610663611cf2565b5b90506020028101906106769190611d30565b604051610684929190611dc3565b6040518091039020815260200190815260200160002060006101000a81548160ff02191690831515021790555080806106bc90611e0b565b915050610637565b508873ffffffffffffffffffffffffffffffffffffffff1663fec5c09a6040518163ffffffff1660e01b8152600401602060405180830381865afa158015610710573d6000803e3d6000fd5b505050506040513d601f19601f820116820180604052508101906107349190611f68565b610773576040517f08c379a000000000000000000000000000000000000000000000000000000000815260040161076a90611fe1565b60405180910390fd5b883055505050505050505050565b600061078b610c72565b60000154905090565b8686868686466040516020016107af9695949392919061207c565b6040516020818303038152906040528051906020012082826000806107e0858585906107db9190611c3c565b610c9f565b91509150818190610827576040517f08c379a000000000000000000000000000000000000000000000000000000000815260040161081e9190611cd0565b60405180910390fd5b5060005b848490508110156108b8576001610840610c72565b600301600087878581811061085857610857611cf2565b5b905060200281019061086a9190611d30565b604051610878929190611dc3565b6040518091039020815260200190815260200160002060006101000a81548160ff02191690831515021790555080806108b090611e0b565b91505061082b565b5060005b8c8c9050811015610924576109118d8d838181106108dd576108dc611cf2565b5b90506020020160208101906108f29190611918565b8c8c8481811061090557610904611cf2565b5b90506020020135610fba565b808061091c90611e0b565b9150506108bc565b50505050505050505050505050565b8484844660405160200161094a94939291906120d3565b60405160208183030381529060405280519060200120828260008061097b858585906109769190611c3c565b610c9f565b915091508181906109c2576040517f08c379a00000000000000000000000000000000000000000000000000000000081526004016109b99190611cd0565b60405180910390fd5b5060005b84849050811015610a535760016109db610c72565b60030160008787858181106109f3576109f2611cf2565b5b9050602002810190610a059190611d30565b604051610a13929190611dc3565b6040518091039020815260200190815260200160002060006101000a81548160ff0219169083151502179055508080610a4b90611e0b565b9150506109c6565b5088610a5d610c72565b60020160008c73ffffffffffffffffffffffffffffffffffffffff1673ffffffffffffffffffffffffffffffffffffffff16815260200190815260200160002054610aa6610c72565b60010154610ab49190612118565b610abe919061214c565b610ac6610c72565b600101819055506000610ad7610c72565b60010154118015610afe5750610aeb610c72565b60000154610af7610c72565b6001015410155b610b3d576040517f08c379a0000000000000000000000000000000000000000000000000000000008152600401610b34906121cc565b60405180910390fd5b88610b46610c72565b60020160008c73ffffffffffffffffffffffffffffffffffffffff1673ffffffffffffffffffffffffffffffffffffffff1681526020019081526020016000208190555050505050505050505050565b6000610ba0610c72565b60020160008373ffffffffffffffffffffffffffffffffffffffff1673ffffffffffffffffffffffffffffffffffffffff168152602001908152602001600020549050919050565b60006001905090565b60007f8197b6d4000000000000000000000000000000000000000000000000000000007bffffffffffffffffffffffffffffffffffffffffffffffffffffffff1916827bffffffffffffffffffffffffffffffffffffffffffffffffffffffff191603610c615760019050610c6d565b610c6a8261102d565b90505b919050565b6000807f255f4a56bd3ad76424e31ed8855ef9ad14a0ce4e67508c76ff082e5c1466b12f90508091505090565b600060606000805b8451811015610e37576000610cd687878481518110610cc957610cc8611cf2565b5b6020026020010151611097565b90506000610ce2610c72565b60020160008373ffffffffffffffffffffffffffffffffffffffff1673ffffffffffffffffffffffffffffffffffffffff1681526020019081526020016000205403610d4f5760006040518060600160405280603281526020016124c46032913994509450505050610e88565b6000868381518110610d6457610d63611cf2565b5b6020026020010151805190602001209050610d7d610c72565b600301600082815260200190815260200160002060009054906101000a900460ff1615610dcc5760006040518060600160405280602381526020016124f6602391399550955050505050610e88565b610dd4610c72565b60020160008373ffffffffffffffffffffffffffffffffffffffff1673ffffffffffffffffffffffffffffffffffffffff1681526020019081526020016000205484610e20919061214c565b935050508080610e2f90611e0b565b915050610ca7565b50610e40610c72565b60000154811015610e7057600060405180606001604052806026815260200161249e602691399250925050610e88565b60016040518060200160405280600081525092509250505b9250929050565b610e97610c72565b60020160008273ffffffffffffffffffffffffffffffffffffffff1673ffffffffffffffffffffffffffffffffffffffff16815260200190815260200160002054610ee0610c72565b6001016000828254610ef29190612118565b925050819055506000610f03610c72565b60010154118015610f2a5750610f17610c72565b60000154610f23610c72565b6001015410155b610f69576040517f08c379a0000000000000000000000000000000000000000000000000000000008152600401610f60906121cc565b60405180910390fd5b6000610f73610c72565b60020160008373ffffffffffffffffffffffffffffffffffffffff1673ffffffffffffffffffffffffffffffffffffffff1681526020019081526020016000208190555050565b80610fc3610c72565b6001016000828254610fd5919061214c565b9250508190555080610fe5610c72565b60020160008473ffffffffffffffffffffffffffffffffffffffff1673ffffffffffffffffffffffffffffffffffffffff168152602001908152602001600020819055505050565b60007f01ffc9a7000000000000000000000000000000000000000000000000000000007bffffffffffffffffffffffffffffffffffffffffffffffffffffffff1916827bffffffffffffffffffffffffffffffffffffffffffffffffffffffff1916149050919050565b60006110b4826110a6856110bc565b6110ec90919063ffffffff16565b905092915050565b6000816040516020016110cf919061226e565b604051602081830303815290604052805190602001209050919050565b60008060006110fb8585611113565b9150915061110881611164565b819250505092915050565b60008060418351036111545760008060006020860151925060408601519150606086015160001a9050611148878285856112ca565b9450945050505061115d565b60006002915091505b9250929050565b6000600481111561117857611177612294565b5b81600481111561118b5761118a612294565b5b03156112c757600160048111156111a5576111a4612294565b5b8160048111156111b8576111b7612294565b5b036111f8576040517f08c379a00000000000000000000000000000000000000000000000000000000081526004016111ef9061230f565b60405180910390fd5b6002600481111561120c5761120b612294565b5b81600481111561121f5761121e612294565b5b0361125f576040517f08c379a00000000000000000000000000000000000000000000000000000000081526004016112569061237b565b60405180910390fd5b6003600481111561127357611272612294565b5b81600481111561128657611285612294565b5b036112c6576040517f08c379a00000000000000000000000000000000000000000000000000000000081526004016112bd9061240d565b60405180910390fd5b5b50565b6000807f7fffffffffffffffffffffffffffffff5d576e7357a4501ddfe92f46681b20a08360001c11156113055760006003915091506113a3565b60006001878787876040516000815260200160405260405161132a9493929190612458565b6020604051602081039080840390855afa15801561134c573d6000803e3d6000fd5b505050602060405103519050600073ffffffffffffffffffffffffffffffffffffffff168173ffffffffffffffffffffffffffffffffffffffff160361139a576000600192509250506113a3565b80600092509250505b94509492505050565b6000604051905090565b600080fd5b600080fd5b60007fffffffff0000000000000000000000000000000000000000000000000000000082169050919050565b6113f5816113c0565b811461140057600080fd5b50565b600081359050611412816113ec565b92915050565b60006020828403121561142e5761142d6113b6565b5b600061143c84828501611403565b91505092915050565b60008115159050919050565b61145a81611445565b82525050565b60006020820190506114756000830184611451565b92915050565b6000819050919050565b61148e8161147b565b82525050565b60006020820190506114a96000830184611485565b92915050565b600080fd5b600080fd5b600080fd5b60008083601f8401126114d4576114d36114af565b5b8235905067ffffffffffffffff8111156114f1576114f06114b4565b5b60208301915083602082028301111561150d5761150c6114b9565b5b9250929050565b61151d8161147b565b811461152857600080fd5b50565b60008135905061153a81611514565b92915050565b60008083601f840112611556576115556114af565b5b8235905067ffffffffffffffff811115611573576115726114b4565b5b60208301915083602082028301111561158f5761158e6114b9565b5b9250929050565b6000806000806000606086880312156115b2576115b16113b6565b5b600086013567ffffffffffffffff8111156115d0576115cf6113bb565b5b6115dc888289016114be565b955095505060206115ef8882890161152b565b935050604086013567ffffffffffffffff8111156116105761160f6113bb565b5b61161c88828901611540565b92509250509295509295909350565b60008060008060608587031215611645576116446113b6565b5b60006116538782880161152b565b94505060206116648782880161152b565b935050604085013567ffffffffffffffff811115611685576116846113bb565b5b61169187828801611540565b925092505092959194509250565b600073ffffffffffffffffffffffffffffffffffffffff82169050919050565b60006116ca8261169f565b9050919050565b6116da816116bf565b81146116e557600080fd5b50565b6000813590506116f7816116d1565b92915050565b60008060008060608587031215611717576117166113b6565b5b6000611725878288016116e8565b94505060206117368782880161152b565b935050604085013567ffffffffffffffff811115611757576117566113bb565b5b61176387828801611540565b925092505092959194509250565b60008083601f840112611787576117866114af565b5b8235905067ffffffffffffffff8111156117a4576117a36114b4565b5b6020830191508360208202830111156117c0576117bf6114b9565b5b9250929050565b60008060008060008060006080888a0312156117e6576117e56113b6565b5b600088013567ffffffffffffffff811115611804576118036113bb565b5b6118108a828b016114be565b9750975050602088013567ffffffffffffffff811115611833576118326113bb565b5b61183f8a828b01611771565b955095505060406118528a828b0161152b565b935050606088013567ffffffffffffffff811115611873576118726113bb565b5b61187f8a828b01611540565b925092505092959891949750929550565b6000806000806000608086880312156118ac576118ab6113b6565b5b60006118ba888289016116e8565b95505060206118cb8882890161152b565b94505060406118dc8882890161152b565b935050606086013567ffffffffffffffff8111156118fd576118fc6113bb565b5b61190988828901611540565b92509250509295509295909350565b60006020828403121561192e5761192d6113b6565b5b600061193c848285016116e8565b91505092915050565b600082825260208201905092915050565b6000819050919050565b611969816116bf565b82525050565b600061197b8383611960565b60208301905092915050565b600061199660208401846116e8565b905092915050565b6000602082019050919050565b60006119b78385611945565b93506119c282611956565b8060005b858110156119fb576119d88284611987565b6119e2888261196f565b97506119ed8361199e565b9250506001810190506119c6565b5085925050509392505050565b60006060820190508181036000830152611a238186886119ab565b9050611a326020830185611485565b611a3f6040830184611485565b95945050505050565b6000601f19601f8301169050919050565b7f4e487b7100000000000000000000000000000000000000000000000000000000600052604160045260246000fd5b611a9182611a48565b810181811067ffffffffffffffff82111715611ab057611aaf611a59565b5b80604052505050565b6000611ac36113ac565b9050611acf8282611a88565b919050565b600067ffffffffffffffff821115611aef57611aee611a59565b5b602082029050602081019050919050565b600080fd5b600067ffffffffffffffff821115611b2057611b1f611a59565b5b611b2982611a48565b9050602081019050919050565b82818337600083830152505050565b6000611b58611b5384611b05565b611ab9565b905082815260208101848484011115611b7457611b73611b00565b5b611b7f848285611b36565b509392505050565b600082601f830112611b9c57611b9b6114af565b5b8135611bac848260208601611b45565b91505092915050565b6000611bc8611bc384611ad4565b611ab9565b90508083825260208201905060208402830185811115611beb57611bea6114b9565b5b835b81811015611c3257803567ffffffffffffffff811115611c1057611c0f6114af565b5b808601611c1d8982611b87565b85526020850194505050602081019050611bed565b5050509392505050565b6000611c49368484611bb5565b905092915050565b600081519050919050565b600082825260208201905092915050565b60005b83811015611c8b578082015181840152602081019050611c70565b60008484015250505050565b6000611ca282611c51565b611cac8185611c5c565b9350611cbc818560208601611c6d565b611cc581611a48565b840191505092915050565b60006020820190508181036000830152611cea8184611c97565b905092915050565b7f4e487b7100000000000000000000000000000000000000000000000000000000600052603260045260246000fd5b600080fd5b600080fd5b600080fd5b60008083356001602003843603038112611d4d57611d4c611d21565b5b80840192508235915067ffffffffffffffff821115611d6f57611d6e611d26565b5b602083019250600182023603831315611d8b57611d8a611d2b565b5b509250929050565b600081905092915050565b6000611daa8385611d93565b9350611db7838584611b36565b82840190509392505050565b6000611dd0828486611d9e565b91508190509392505050565b7f4e487b7100000000000000000000000000000000000000000000000000000000600052601160045260246000fd5b6000611e168261147b565b91507fffffffffffffffffffffffffffffffffffffffffffffffffffffffffffffffff8203611e4857611e47611ddc565b5b600182019050919050565b6000606082019050611e686000830186611485565b611e756020830185611485565b611e826040830184611485565b949350505050565b7f496e76616c6964207468726573686f6c64000000000000000000000000000000600082015250565b6000611ec0601183611c5c565b9150611ecb82611e8a565b602082019050919050565b60006020820190508181036000830152611eef81611eb3565b9050919050565b611eff816116bf565b82525050565b6000606082019050611f1a6000830186611ef6565b611f276020830185611485565b611f346040830184611485565b949350505050565b611f4581611445565b8114611f5057600080fd5b50565b600081519050611f6281611f3c565b92915050565b600060208284031215611f7e57611f7d6113b6565b5b6000611f8c84828501611f53565b91505092915050565b7f496e76616c696420696d706c656d656e746174696f6e00000000000000000000600082015250565b6000611fcb601683611c5c565b9150611fd682611f95565b602082019050919050565b60006020820190508181036000830152611ffa81611fbe565b9050919050565b600082825260208201905092915050565b600080fd5b82818337505050565b600061202c8385612001565b93507f07ffffffffffffffffffffffffffffffffffffffffffffffffffffffffffffff83111561205f5761205e612012565b5b602083029250612070838584612017565b82840190509392505050565b6000608082019050818103600083015261209781888a6119ab565b905081810360208301526120ac818688612020565b90506120bb6040830185611485565b6120c86060830184611485565b979650505050505050565b60006080820190506120e86000830187611ef6565b6120f56020830186611485565b6121026040830185611485565b61210f6060830184611485565b95945050505050565b60006121238261147b565b915061212e8361147b565b925082820390508181111561214657612145611ddc565b5b92915050565b60006121578261147b565b91506121628361147b565b925082820190508082111561217a57612179611ddc565b5b92915050565b7f5468726573686f6c6420776f756c6420626520696d706f737369626c65000000600082015250565b60006121b6601d83611c5c565b91506121c182612180565b602082019050919050565b600060208201905081810360008301526121e5816121a9565b9050919050565b600081905092915050565b7f19457468657265756d205369676e6564204d6573736167653a0a333200000000600082015250565b600061222d601c836121ec565b9150612238826121f7565b601c82019050919050565b6000819050919050565b6000819050919050565b61226861226382612243565b61224d565b82525050565b600061227982612220565b91506122858284612257565b60208201915081905092915050565b7f4e487b7100000000000000000000000000000000000000000000000000000000600052602160045260246000fd5b7f45434453413a20696e76616c6964207369676e61747572650000000000000000600082015250565b60006122f9601883611c5c565b9150612304826122c3565b602082019050919050565b60006020820190508181036000830152612328816122ec565b9050919050565b7f45434453413a20696e76616c6964207369676e6174757265206c656e67746800600082015250565b6000612365601f83611c5c565b91506123708261232f565b602082019050919050565b6000602082019050818103600083015261239481612358565b9050919050565b7f45434453413a20696e76616c6964207369676e6174757265202773272076616c60008201527f7565000000000000000000000000000000000000000000000000000000000000602082015250565b60006123f7602283611c5c565b91506124028261239b565b604082019050919050565b60006020820190508181036000830152612426816123ea565b9050919050565b61243681612243565b82525050565b600060ff82169050919050565b6124528161243c565b82525050565b600060808201905061246d600083018761242d565b61247a6020830186612449565b612487604083018561242d565b612494606083018461242d565b9594505050505056fe5369676e6572207765696768747320646f6573206e6f74206d656574207468726573686f6c644174206c65617374206f6e65207369676e6174757265206e6f742066726f6d2061206b6e6f776e20636f6e74726f6c6c65724174206c65617374206f6e65207369676e617475726520616c72656164792075736564a2646970667358221220835b1a9b02444c089995ccfdff05830d803761088fa3849ec272dbeb9f6abc9c64736f6c63430008120033",
			"opcodes": "PUSH1 0x80 PUSH1 0x40 MSTORE CALLVALUE DUP1 ISZERO PUSH2 0x10 JUMPI PUSH1 0x0 DUP1 REVERT JUMPDEST POP PUSH2 0x254E DUP1 PUSH2 0x20 PUSH1 0x0 CODECOPY PUSH1 0x0 RETURN INVALID PUSH1 0x80 PUSH1 0x40 MSTORE CALLVALUE DUP1 ISZERO PUSH2 0x10 JUMPI PUSH1 0x0 DUP1 REVERT JUMPDEST POP PUSH1 0x4 CALLDATASIZE LT PUSH2 0x9E JUMPI PUSH1 0x0 CALLDATALOAD PUSH1 0xE0 SHR DUP1 PUSH4 0xA7865090 GT PUSH2 0x66 JUMPI DUP1 PUSH4 0xA7865090 EQ PUSH2 0x145 JUMPI DUP1 PUSH4 0xAF915498 EQ PUSH2 0x163 JUMPI DUP1 PUSH4 0xD0BCCEA1 EQ PUSH2 0x17F JUMPI DUP1 PUSH4 0xF04420F1 EQ PUSH2 0x19B JUMPI DUP1 PUSH4 0xFEC5C09A EQ PUSH2 0x1CB JUMPI PUSH2 0x9E JUMP JUMPDEST DUP1 PUSH4 0x1FFC9A7 EQ PUSH2 0xA3 JUMPI DUP1 PUSH4 0x6E82383 EQ PUSH2 0xD3 JUMPI DUP1 PUSH4 0x286936BB EQ PUSH2 0xF1 JUMPI DUP1 PUSH4 0x87F949B4 EQ PUSH2 0x10D JUMPI DUP1 PUSH4 0x94C4395B EQ PUSH2 0x129 JUMPI JUMPDEST PUSH1 0x0 DUP1 REVERT JUMPDEST PUSH2 0xBD PUSH1 0x4 DUP1 CALLDATASIZE SUB DUP2 ADD SWAP1 PUSH2 0xB8 SWAP2 SWAP1 PUSH2 0x1418 JUMP JUMPDEST PUSH2 0x1E9 JUMP JUMPDEST PUSH1 0x40 MLOAD PUSH2 0xCA SWAP2 SWAP1 PUSH2 0x1460 JUMP JUMPDEST PUSH1 0x40 MLOAD DUP1 SWAP2 SUB SWAP1 RETURN JUMPDEST PUSH2 0xDB PUSH2 0x26A JUMP JUMPDEST PUSH1 0x40 MLOAD PUSH2 0xE8 SWAP2 SWAP1 PUSH2 0x1494 JUMP JUMPDEST PUSH1 0x40 MLOAD DUP1 SWAP2 SUB SWAP1 RETURN JUMPDEST PUSH2 0x10B PUSH1 0x4 DUP1 CALLDATASIZE SUB DUP2 ADD SWAP1 PUSH2 0x106 SWAP2 SWAP1 PUSH2 0x1596 JUMP JUMPDEST PUSH2 0x27D JUMP JUMPDEST STOP JUMPDEST PUSH2 0x127 PUSH1 0x4 DUP1 CALLDATASIZE SUB DUP2 ADD SWAP1 PUSH2 0x122 SWAP2 SWAP1 PUSH2 0x162B JUMP JUMPDEST PUSH2 0x3FC JUMP JUMPDEST STOP JUMPDEST PUSH2 0x143 PUSH1 0x4 DUP1 CALLDATASIZE SUB DUP2 ADD SWAP1 PUSH2 0x13E SWAP2 SWAP1 PUSH2 0x16FD JUMP JUMPDEST PUSH2 0x5A6 JUMP JUMPDEST STOP JUMPDEST PUSH2 0x14D PUSH2 0x781 JUMP JUMPDEST PUSH1 0x40 MLOAD PUSH2 0x15A SWAP2 SWAP1 PUSH2 0x1494 JUMP JUMPDEST PUSH1 0x40 MLOAD DUP1 SWAP2 SUB SWAP1 RETURN JUMPDEST PUSH2 0x17D PUSH1 0x4 DUP1 CALLDATASIZE SUB DUP2 ADD SWAP1 PUSH2 0x178 SWAP2 SWAP1 PUSH2 0x17C7 JUMP JUMPDEST PUSH2 0x794 JUMP JUMPDEST STOP JUMPDEST PUSH2 0x199 PUSH1 0x4 DUP1 CALLDATASIZE SUB DUP2 ADD SWAP1 PUSH2 0x194 SWAP2 SWAP1 PUSH2 0x1890 JUMP JUMPDEST PUSH2 0x933 JUMP JUMPDEST STOP JUMPDEST PUSH2 0x1B5 PUSH1 0x4 DUP1 CALLDATASIZE SUB DUP2 ADD SWAP1 PUSH2 0x1B0 SWAP2 SWAP1 PUSH2 0x1918 JUMP JUMPDEST PUSH2 0xB96 JUMP JUMPDEST PUSH1 0x40 MLOAD PUSH2 0x1C2 SWAP2 SWAP1 PUSH2 0x1494 JUMP JUMPDEST PUSH1 0x40 MLOAD DUP1 SWAP2 SUB SWAP1 RETURN JUMPDEST PUSH2 0x1D3 PUSH2 0xBE8 JUMP JUMPDEST PUSH1 0x40 MLOAD PUSH2 0x1E0 SWAP2 SWAP1 PUSH2 0x1460 JUMP JUMPDEST PUSH1 0x40 MLOAD DUP1 SWAP2 SUB SWAP1 RETURN JUMPDEST PUSH1 0x0 PUSH32 0x6A01F9C100000000000000000000000000000000000000000000000000000000 PUSH28 0xFFFFFFFFFFFFFFFFFFFFFFFFFFFFFFFFFFFFFFFFFFFFFFFFFFFFFFFF NOT AND DUP3 PUSH28 0xFFFFFFFFFFFFFFFFFFFFFFFFFFFFFFFFFFFFFFFFFFFFFFFFFFFFFFFF NOT AND SUB PUSH2 0x259 JUMPI PUSH1 0x1 SWAP1 POP PUSH2 0x265 JUMP JUMPDEST PUSH2 0x262 DUP3 PUSH2 0xBF1 JUMP JUMPDEST SWAP1 POP JUMPDEST SWAP2 SWAP1 POP JUMP JUMPDEST PUSH1 0x0 PUSH2 0x274 PUSH2 0xC72 JUMP JUMPDEST PUSH1 0x1 ADD SLOAD SWAP1 POP SWAP1 JUMP JUMPDEST DUP5 DUP5 DUP5 CHAINID PUSH1 0x40 MLOAD PUSH1 0x20 ADD PUSH2 0x294 SWAP5 SWAP4 SWAP3 SWAP2 SWAP1 PUSH2 0x1A08 JUMP JUMPDEST PUSH1 0x40 MLOAD PUSH1 0x20 DUP2 DUP4 SUB SUB DUP2 MSTORE SWAP1 PUSH1 0x40 MSTORE DUP1 MLOAD SWAP1 PUSH1 0x20 ADD KECCAK256 DUP3 DUP3 PUSH1 0x0 DUP1 PUSH2 0x2C5 DUP6 DUP6 DUP6 SWAP1 PUSH2 0x2C0 SWAP2 SWAP1 PUSH2 0x1C3C JUMP JUMPDEST PUSH2 0xC9F JUMP JUMPDEST SWAP2 POP SWAP2 POP DUP2 DUP2 SWAP1 PUSH2 0x30C JUMPI PUSH1 0x40 MLOAD PUSH32 0x8C379A000000000000000000000000000000000000000000000000000000000 DUP2 MSTORE PUSH1 0x4 ADD PUSH2 0x303 SWAP2 SWAP1 PUSH2 0x1CD0 JUMP JUMPDEST PUSH1 0x40 MLOAD DUP1 SWAP2 SUB SWAP1 REVERT JUMPDEST POP PUSH1 0x0 JUMPDEST DUP5 DUP5 SWAP1 POP DUP2 LT ISZERO PUSH2 0x39D JUMPI PUSH1 0x1 PUSH2 0x325 PUSH2 0xC72 JUMP JUMPDEST PUSH1 0x3 ADD PUSH1 0x0 DUP8 DUP8 DUP6 DUP2 DUP2 LT PUSH2 0x33D JUMPI PUSH2 0x33C PUSH2 0x1CF2 JUMP JUMPDEST JUMPDEST SWAP1 POP PUSH1 0x20 MUL DUP2 ADD SWAP1 PUSH2 0x34F SWAP2 SWAP1 PUSH2 0x1D30 JUMP JUMPDEST PUSH1 0x40 MLOAD PUSH2 0x35D SWAP3 SWAP2 SWAP1 PUSH2 0x1DC3 JUMP JUMPDEST PUSH1 0x40 MLOAD DUP1 SWAP2 SUB SWAP1 KECCAK256 DUP2 MSTORE PUSH1 0x20 ADD SWAP1 DUP2 MSTORE PUSH1 0x20 ADD PUSH1 0x0 KECCAK256 PUSH1 0x0 PUSH2 0x100 EXP DUP2 SLOAD DUP2 PUSH1 0xFF MUL NOT AND SWAP1 DUP4 ISZERO ISZERO MUL OR SWAP1 SSTORE POP DUP1 DUP1 PUSH2 0x395 SWAP1 PUSH2 0x1E0B JUMP JUMPDEST SWAP2 POP POP PUSH2 0x310 JUMP JUMPDEST POP PUSH1 0x0 JUMPDEST DUP11 DUP11 SWAP1 POP DUP2 LT ISZERO PUSH2 0x3EF JUMPI PUSH2 0x3DC DUP12 DUP12 DUP4 DUP2 DUP2 LT PUSH2 0x3C2 JUMPI PUSH2 0x3C1 PUSH2 0x1CF2 JUMP JUMPDEST JUMPDEST SWAP1 POP PUSH1 0x20 MUL ADD PUSH1 0x20 DUP2 ADD SWAP1 PUSH2 0x3D7 SWAP2 SWAP1 PUSH2 0x1918 JUMP JUMPDEST PUSH2 0xE8F JUMP JUMPDEST DUP1 DUP1 PUSH2 0x3E7 SWAP1 PUSH2 0x1E0B JUMP JUMPDEST SWAP2 POP POP PUSH2 0x3A1 JUMP JUMPDEST POP POP POP POP POP POP POP POP POP POP POP JUMP JUMPDEST DUP4 DUP4 CHAINID PUSH1 0x40 MLOAD PUSH1 0x20 ADD PUSH2 0x411 SWAP4 SWAP3 SWAP2 SWAP1 PUSH2 0x1E53 JUMP JUMPDEST PUSH1 0x40 MLOAD PUSH1 0x20 DUP2 DUP4 SUB SUB DUP2 MSTORE SWAP1 PUSH1 0x40 MSTORE DUP1 MLOAD SWAP1 PUSH1 0x20 ADD KECCAK256 DUP3 DUP3 PUSH1 0x0 DUP1 PUSH2 0x442 DUP6 DUP6 DUP6 SWAP1 PUSH2 0x43D SWAP2 SWAP1 PUSH2 0x1C3C JUMP JUMPDEST PUSH2 0xC9F JUMP JUMPDEST SWAP2 POP SWAP2 POP DUP2 DUP2 SWAP1 PUSH2 0x489 JUMPI PUSH1 0x40 MLOAD PUSH32 0x8C379A000000000000000000000000000000000000000000000000000000000 DUP2 MSTORE PUSH1 0x4 ADD PUSH2 0x480 SWAP2 SWAP1 PUSH2 0x1CD0 JUMP JUMPDEST PUSH1 0x40 MLOAD DUP1 SWAP2 SUB SWAP1 REVERT JUMPDEST POP PUSH1 0x0 JUMPDEST DUP5 DUP5 SWAP1 POP DUP2 LT ISZERO PUSH2 0x51A JUMPI PUSH1 0x1 PUSH2 0x4A2 PUSH2 0xC72 JUMP JUMPDEST PUSH1 0x3 ADD PUSH1 0x0 DUP8 DUP8 DUP6 DUP2 DUP2 LT PUSH2 0x4BA JUMPI PUSH2 0x4B9 PUSH2 0x1CF2 JUMP JUMPDEST JUMPDEST SWAP1 POP PUSH1 0x20 MUL DUP2 ADD SWAP1 PUSH2 0x4CC SWAP2 SWAP1 PUSH2 0x1D30 JUMP JUMPDEST PUSH1 0x40 MLOAD PUSH2 0x4DA SWAP3 SWAP2 SWAP1 PUSH2 0x1DC3 JUMP JUMPDEST PUSH1 0x40 MLOAD DUP1 SWAP2 SUB SWAP1 KECCAK256 DUP2 MSTORE PUSH1 0x20 ADD SWAP1 DUP2 MSTORE PUSH1 0x20 ADD PUSH1 0x0 KECCAK256 PUSH1 0x0 PUSH2 0x100 EXP DUP2 SLOAD DUP2 PUSH1 0xFF MUL NOT AND SWAP1 DUP4 ISZERO ISZERO MUL OR SWAP1 SSTORE POP DUP1 DUP1 PUSH2 0x512 SWAP1 PUSH2 0x1E0B JUMP JUMPDEST SWAP2 POP POP PUSH2 0x48D JUMP JUMPDEST POP PUSH1 0x0 PUSH2 0x525 PUSH2 0xC72 JUMP JUMPDEST PUSH1 0x0 ADD SLOAD GT DUP1 ISZERO PUSH2 0x54C JUMPI POP PUSH2 0x539 PUSH2 0xC72 JUMP JUMPDEST PUSH1 0x1 ADD SLOAD PUSH2 0x545 PUSH2 0xC72 JUMP JUMPDEST PUSH1 0x0 ADD SLOAD GT ISZERO JUMPDEST PUSH2 0x58B JUMPI PUSH1 0x40 MLOAD PUSH32 0x8C379A000000000000000000000000000000000000000000000000000000000 DUP2 MSTORE PUSH1 0x4 ADD PUSH2 0x582 SWAP1 PUSH2 0x1ED6 JUMP JUMPDEST PUSH1 0x40 MLOAD DUP1 SWAP2 SUB SWAP1 REVERT JUMPDEST DUP9 PUSH2 0x594 PUSH2 0xC72 JUMP JUMPDEST PUSH1 0x0 ADD DUP2 SWAP1 SSTORE POP POP POP POP POP POP POP POP POP POP JUMP JUMPDEST DUP4 DUP4 CHAINID PUSH1 0x40 MLOAD PUSH1 0x20 ADD PUSH2 0x5BB SWAP4 SWAP3 SWAP2 SWAP1 PUSH2 0x1F05 JUMP JUMPDEST PUSH1 0x40 MLOAD PUSH1 0x20 DUP2 DUP4 SUB SUB DUP2 MSTORE SWAP1 PUSH1 0x40 MSTORE DUP1 MLOAD SWAP1 PUSH1 0x20 ADD KECCAK256 DUP3 DUP3 PUSH1 0x0 DUP1 PUSH2 0x5EC DUP6 DUP6 DUP6 SWAP1 PUSH2 0x5E7 SWAP2 SWAP1 PUSH2 0x1C3C JUMP JUMPDEST PUSH2 0xC9F JUMP JUMPDEST SWAP2 POP SWAP2 POP DUP2 DUP2 SWAP1 PUSH2 0x633 JUMPI PUSH1 0x40 MLOAD PUSH32 0x8C379A000000000000000000000000000000000000000000000000000000000 DUP2 MSTORE PUSH1 0x4 ADD PUSH2 0x62A SWAP2 SWAP1 PUSH2 0x1CD0 JUMP JUMPDEST PUSH1 0x40 MLOAD DUP1 SWAP2 SUB SWAP1 REVERT JUMPDEST POP PUSH1 0x0 JUMPDEST DUP5 DUP5 SWAP1 POP DUP2 LT ISZERO PUSH2 0x6C4 JUMPI PUSH1 0x1 PUSH2 0x64C PUSH2 0xC72 JUMP JUMPDEST PUSH1 0x3 ADD PUSH1 0x0 DUP8 DUP8 DUP6 DUP2 DUP2 LT PUSH2 0x664 JUMPI PUSH2 0x663 PUSH2 0x1CF2 JUMP JUMPDEST JUMPDEST SWAP1 POP PUSH1 0x20 MUL DUP2 ADD SWAP1 PUSH2 0x676 SWAP2 SWAP1 PUSH2 0x1D30 JUMP JUMPDEST PUSH1 0x40 MLOAD PUSH2 0x684 SWAP3 SWAP2 SWAP1 PUSH2 0x1DC3 JUMP JUMPDEST PUSH1 0x40 MLOAD DUP1 SWAP2 SUB SWAP1 KECCAK256 DUP2 MSTORE PUSH1 0x20 ADD SWAP1 DUP2 MSTORE PUSH1 0x20 ADD PUSH1 0x0 KECCAK256 PUSH1 0x0 PUSH2 0x100 EXP DUP2 SLOAD DUP2 PUSH1 0xFF MUL NOT AND SWAP1 DUP4 ISZERO ISZERO MUL OR SWAP1 SSTORE POP DUP1 DUP1 PUSH2 0x6BC SWAP1 PUSH2 0x1E0B JUMP JUMPDEST SWAP2 POP POP PUSH2 0x637 JUMP JUMPDEST POP DUP9 PUSH20 0xFFFFFFFFFFFFFFFFFFFFFFFFFFFFFFFFFFFFFFFF AND PUSH4 0xFEC5C09A PUSH1 0x40 MLOAD DUP2 PUSH4 0xFFFFFFFF AND PUSH1 0xE0 SHL DUP2 MSTORE PUSH1 0x4 ADD PUSH1 0x20 PUSH1 0x40 MLOAD DUP1 DUP4 SUB DUP2 DUP7 GAS STATICCALL ISZERO DUP1 ISZERO PUSH2 0x710 JUMPI RETURNDATASIZE PUSH1 0x0 DUP1 RETURNDATACOPY RETURNDATASIZE PUSH1 0x0 REVERT JUMPDEST POP POP POP POP PUSH1 0x40 MLOAD RETURNDATASIZE PUSH1 0x1F NOT PUSH1 0x1F DUP3 ADD AND DUP3 ADD DUP1 PUSH1 0x40 MSTORE POP DUP2 ADD SWAP1 PUSH2 0x734 SWAP2 SWAP1 PUSH2 0x1F68 JUMP JUMPDEST PUSH2 0x773 JUMPI PUSH1 0x40 MLOAD PUSH32 0x8C379A000000000000000000000000000000000000000000000000000000000 DUP2 MSTORE PUSH1 0x4 ADD PUSH2 0x76A SWAP1 PUSH2 0x1FE1 JUMP JUMPDEST PUSH1 0x40 MLOAD DUP1 SWAP2 SUB SWAP1 REVERT JUMPDEST DUP9 ADDRESS SSTORE POP POP POP POP POP POP POP POP POP JUMP JUMPDEST PUSH1 0x0 PUSH2 0x78B PUSH2 0xC72 JUMP JUMPDEST PUSH1 0x0 ADD SLOAD SWAP1 POP SWAP1 JUMP JUMPDEST DUP7 DUP7 DUP7 DUP7 DUP7 CHAINID PUSH1 0x40 MLOAD PUSH1 0x20 ADD PUSH2 0x7AF SWAP7 SWAP6 SWAP5 SWAP4 SWAP3 SWAP2 SWAP1 PUSH2 0x207C JUMP JUMPDEST PUSH1 0x40 MLOAD PUSH1 0x20 DUP2 DUP4 SUB SUB DUP2 MSTORE SWAP1 PUSH1 0x40 MSTORE DUP1 MLOAD SWAP1 PUSH1 0x20 ADD KECCAK256 DUP3 DUP3 PUSH1 0x0 DUP1 PUSH2 0x7E0 DUP6 DUP6 DUP6 SWAP1 PUSH2 0x7DB SWAP2 SWAP1 PUSH2 0x1C3C JUMP JUMPDEST PUSH2 0xC9F JUMP JUMPDEST SWAP2 POP SWAP2 POP DUP2 DUP2 SWAP1 PUSH2 0x827 JUMPI PUSH1 0x40 MLOAD PUSH32 0x8C379A000000000000000000000000000000000000000000000000000000000 DUP2 MSTORE PUSH1 0x4 ADD PUSH2 0x81E SWAP2 SWAP1 PUSH2 0x1CD0 JUMP JUMPDEST PUSH1 0x40 MLOAD DUP1 SWAP2 SUB SWAP1 REVERT JUMPDEST POP PUSH1 0x0 JUMPDEST DUP5 DUP5 SWAP1 POP DUP2 LT ISZERO PUSH2 0x8B8 JUMPI PUSH1 0x1 PUSH2 0x840 PUSH2 0xC72 JUMP JUMPDEST PUSH1 0x3 ADD PUSH1 0x0 DUP8 DUP8 DUP6 DUP2 DUP2 LT PUSH2 0x858 JUMPI PUSH2 0x857 PUSH2 0x1CF2 JUMP JUMPDEST JUMPDEST SWAP1 POP PUSH1 0x20 MUL DUP2 ADD SWAP1 PUSH2 0x86A SWAP2 SWAP1 PUSH2 0x1D30 JUMP JUMPDEST PUSH1 0x40 MLOAD PUSH2 0x878 SWAP3 SWAP2 SWAP1 PUSH2 0x1DC3 JUMP JUMPDEST PUSH1 0x40 MLOAD DUP1 SWAP2 SUB SWAP1 KECCAK256 DUP2 MSTORE PUSH1 0x20 ADD SWAP1 DUP2 MSTORE PUSH1 0x20 ADD PUSH1 0x0 KECCAK256 PUSH1 0x0 PUSH2 0x100 EXP DUP2 SLOAD DUP2 PUSH1 0xFF MUL NOT AND SWAP1 DUP4 ISZERO ISZERO MUL OR SWAP1 SSTORE POP DUP1 DUP1 PUSH2 0x8B0 SWAP1 PUSH2 0x1E0B JUMP JUMPDEST SWAP2 POP POP PUSH2 0x82B JUMP JUMPDEST POP PUSH1 0x0 JUMPDEST DUP13 DUP13 SWAP1 POP DUP2 LT ISZERO PUSH2 0x924 JUMPI PUSH2 0x911 DUP14 DUP14 DUP4 DUP2 DUP2 LT PUSH2 0x8DD JUMPI PUSH2 0x8DC PUSH2 0x1CF2 JUMP JUMPDEST JUMPDEST SWAP1 POP PUSH1 0x20 MUL ADD PUSH1 0x20 DUP2 ADD SWAP1 PUSH2 0x8F2 SWAP2 SWAP1 PUSH2 0x1918 JUMP JUMPDEST DUP13 DUP13 DUP5 DUP2 DUP2 LT PUSH2 0x905 JUMPI PUSH2 0x904 PUSH2 0x1CF2 JUMP JUMPDEST JUMPDEST SWAP1 POP PUSH1 0x20 MUL ADD CALLDATALOAD PUSH2 0xFBA JUMP JUMPDEST DUP1 DUP1 PUSH2 0x91C SWAP1 PUSH2 0x1E0B JUMP JUMPDEST SWAP2 POP POP PUSH2 0x8BC JUMP JUMPDEST POP POP POP POP POP POP POP POP POP POP POP POP POP JUMP JUMPDEST DUP5 DUP5 DUP5 CHAINID PUSH1 0x40 MLOAD PUSH1 0x20 ADD PUSH2 0x94A SWAP5 SWAP4 SWAP3 SWAP2 SWAP1 PUSH2 0x20D3 JUMP JUMPDEST PUSH1 0x40 MLOAD PUSH1 0x20 DUP2 DUP4 SUB SUB DUP2 MSTORE SWAP1 PUSH1 0x40 MSTORE DUP1 MLOAD SWAP1 PUSH1 0x20 ADD KECCAK256 DUP3 DUP3 PUSH1 0x0 DUP1 PUSH2 0x97B DUP6 DUP6 DUP6 SWAP1 PUSH2 0x976 SWAP2 SWAP1 PUSH2 0x1C3C JUMP JUMPDEST PUSH2 0xC9F JUMP JUMPDEST SWAP2 POP SWAP2 POP DUP2 DUP2 SWAP1 PUSH2 0x9C2 JUMPI PUSH1 0x40 MLOAD PUSH32 0x8C379A000000000000000000000000000000000000000000000000000000000 DUP2 MSTORE PUSH1 0x4 ADD PUSH2 0x9B9 SWAP2 SWAP1 PUSH2 0x1CD0 JUMP JUMPDEST PUSH1 0x40 MLOAD DUP1 SWAP2 SUB SWAP1 REVERT JUMPDEST POP PUSH1 0x0 JUMPDEST DUP5 DUP5 SWAP1 POP DUP2 LT ISZERO PUSH2 0xA53 JUMPI PUSH1 0x1 PUSH2 0x9DB PUSH2 0xC72 JUMP JUMPDEST PUSH1 0x3 ADD PUSH1 0x0 DUP8 DUP8 DUP6 DUP2 DUP2 LT PUSH2 0x9F3 JUMPI PUSH2 0x9F2 PUSH2 0x1CF2 JUMP JUMPDEST JUMPDEST SWAP1 POP PUSH1 0x20 MUL DUP2 ADD SWAP1 PUSH2 0xA05 SWAP2 SWAP1 PUSH2 0x1D30 JUMP JUMPDEST PUSH1 0x40 MLOAD PUSH2 0xA13 SWAP3 SWAP2 SWAP1 PUSH2 0x1DC3 JUMP JUMPDEST PUSH1 0x40 MLOAD DUP1 SWAP2 SUB SWAP1 KECCAK256 DUP2 MSTORE PUSH1 0x20 ADD SWAP1 DUP2 MSTORE PUSH1 0x20 ADD PUSH1 0x0 KECCAK256 PUSH1 0x0 PUSH2 0x100 EXP DUP2 SLOAD DUP2 PUSH1 0xFF MUL NOT AND SWAP1 DUP4 ISZERO ISZERO MUL OR SWAP1 SSTORE POP DUP1 DUP1 PUSH2 0xA4B SWAP1 PUSH2 0x1E0B JUMP JUMPDEST SWAP2 POP POP PUSH2 0x9C6 JUMP JUMPDEST POP DUP9 PUSH2 0xA5D PUSH2 0xC72 JUMP JUMPDEST PUSH1 0x2 ADD PUSH1 0x0 DUP13 PUSH20 0xFFFFFFFFFFFFFFFFFFFFFFFFFFFFFFFFFFFFFFFF AND PUSH20 0xFFFFFFFFFFFFFFFFFFFFFFFFFFFFFFFFFFFFFFFF AND DUP2 MSTORE PUSH1 0x20 ADD SWAP1 DUP2 MSTORE PUSH1 0x20 ADD PUSH1 0x0 KECCAK256 SLOAD PUSH2 0xAA6 PUSH2 0xC72 JUMP JUMPDEST PUSH1 0x1 ADD SLOAD PUSH2 0xAB4 SWAP2 SWAP1 PUSH2 0x2118 JUMP JUMPDEST PUSH2 0xABE SWAP2 SWAP1 PUSH2 0x214C JUMP JUMPDEST PUSH2 0xAC6 PUSH2 0xC72 JUMP JUMPDEST PUSH1 0x1 ADD DUP2 SWAP1 SSTORE POP PUSH1 0x0 PUSH2 0xAD7 PUSH2 0xC72 JUMP JUMPDEST PUSH1 0x1 ADD SLOAD GT DUP1 ISZERO PUSH2 0xAFE JUMPI POP PUSH2 0xAEB PUSH2 0xC72 JUMP JUMPDEST PUSH1 0x0 ADD SLOAD PUSH2 0xAF7 PUSH2 0xC72 JUMP JUMPDEST PUSH1 0x1 ADD SLOAD LT ISZERO JUMPDEST PUSH2 0xB3D JUMPI PUSH1 0x40 MLOAD PUSH32 0x8C379A000000000000000000000000000000000000000000000000000000000 DUP2 MSTORE PUSH1 0x4 ADD PUSH2 0xB34 SWAP1 PUSH2 0x21CC JUMP JUMPDEST PUSH1 0x40 MLOAD DUP1 SWAP2 SUB SWAP1 REVERT JUMPDEST DUP9 PUSH2 0xB46 PUSH2 0xC72 JUMP JUMPDEST PUSH1 0x2 ADD PUSH1 0x0 DUP13 PUSH20 0xFFFFFFFFFFFFFFFFFFFFFFFFFFFFFFFFFFFFFFFF AND PUSH20 0xFFFFFFFFFFFFFFFFFFFFFFFFFFFFFFFFFFFFFFFF AND DUP2 MSTORE PUSH1 0x20 ADD SWAP1 DUP2 MSTORE PUSH1 0x20 ADD PUSH1 0x0 KECCAK256 DUP2 SWAP1 SSTORE POP POP POP POP POP POP POP POP POP POP POP JUMP JUMPDEST PUSH1 0x0 PUSH2 0xBA0 PUSH2 0xC72 JUMP JUMPDEST PUSH1 0x2 ADD PUSH1 0x0 DUP4 PUSH20 0xFFFFFFFFFFFFFFFFFFFFFFFFFFFFFFFFFFFFFFFF AND PUSH20 0xFFFFFFFFFFFFFFFFFFFFFFFFFFFFFFFFFFFFFFFF AND DUP2 MSTORE PUSH1 0x20 ADD SWAP1 DUP2 MSTORE PUSH1 0x20 ADD PUSH1 0x0 KECCAK256 SLOAD SWAP1 POP SWAP2 SWAP1 POP JUMP JUMPDEST PUSH1 0x0 PUSH1 0x1 SWAP1 POP SWAP1 JUMP JUMPDEST PUSH1 0x0 PUSH32 0x8197B6D400000000000000000000000000000000000000000000000000000000 PUSH28 0xFFFFFFFFFFFFFFFFFFFFFFFFFFFFFFFFFFFFFFFFFFFFFFFFFFFFFFFF NOT AND DUP3 PUSH28 0xFFFFFFFFFFFFFFFFFFFFFFFFFFFFFFFFFFFFFFFFFFFFFFFFFFFFFFFF NOT AND SUB PUSH2 0xC61 JUMPI PUSH1 0x1 SWAP1 POP PUSH2 0xC6D JUMP JUMPDEST PUSH2 0xC6A DUP3 PUSH2 0x102D JUMP JUMPDEST SWAP1 POP JUMPDEST SWAP2 SWAP1 POP JUMP JUMPDEST PUSH1 0x0 DUP1 PUSH32 0x255F4A56BD3AD76424E31ED8855EF9AD14A0CE4E67508C76FF082E5C1466B12F SWAP1 POP DUP1 SWAP2 POP POP SWAP1 JUMP JUMPDEST PUSH1 0x0 PUSH1 0x60 PUSH1 0x0 DUP1 JUMPDEST DUP5 MLOAD DUP2 LT ISZERO PUSH2 0xE37 JUMPI PUSH1 0x0 PUSH2 0xCD6 DUP8 DUP8 DUP5 DUP2 MLOAD DUP2 LT PUSH2 0xCC9 JUMPI PUSH2 0xCC8 PUSH2 0x1CF2 JUMP JUMPDEST JUMPDEST PUSH1 0x20 MUL PUSH1 0x20 ADD ADD MLOAD PUSH2 0x1097 JUMP JUMPDEST SWAP1 POP PUSH1 0x0 PUSH2 0xCE2 PUSH2 0xC72 JUMP JUMPDEST PUSH1 0x2 ADD PUSH1 0x0 DUP4 PUSH20 0xFFFFFFFFFFFFFFFFFFFFFFFFFFFFFFFFFFFFFFFF AND PUSH20 0xFFFFFFFFFFFFFFFFFFFFFFFFFFFFFFFFFFFFFFFF AND DUP2 MSTORE PUSH1 0x20 ADD SWAP1 DUP2 MSTORE PUSH1 0x20 ADD PUSH1 0x0 KECCAK256 SLOAD SUB PUSH2 0xD4F JUMPI PUSH1 0x0 PUSH1 0x40 MLOAD DUP1 PUSH1 0x60 ADD PUSH1 0x40 MSTORE DUP1 PUSH1 0x32 DUP2 MSTORE PUSH1 0x20 ADD PUSH2 0x24C4 PUSH1 0x32 SWAP2 CODECOPY SWAP5 POP SWAP5 POP POP POP POP PUSH2 0xE88 JUMP JUMPDEST PUSH1 0x0 DUP7 DUP4 DUP2 MLOAD DUP2 LT PUSH2 0xD64 JUMPI PUSH2 0xD63 PUSH2 0x1CF2 JUMP JUMPDEST JUMPDEST PUSH1 0x20 MUL PUSH1 0x20 ADD ADD MLOAD DUP1 MLOAD SWAP1 PUSH1 0x20 ADD KECCAK256 SWAP1 POP PUSH2 0xD7D PUSH2 0xC72 JUMP JUMPDEST PUSH1 0x3 ADD PUSH1 0x0 DUP3 DUP2 MSTORE PUSH1 0x20 ADD SWAP1 DUP2 MSTORE PUSH1 0x20 ADD PUSH1 0x0 KECCAK256 PUSH1 0x0 SWAP1 SLOAD SWAP1 PUSH2 0x100 EXP SWAP1 DIV PUSH1 0xFF AND ISZERO PUSH2 0xDCC JUMPI PUSH1 0x0 PUSH1 0x40 MLOAD DUP1 PUSH1 0x60 ADD PUSH1 0x40 MSTORE DUP1 PUSH1 0x23 DUP2 MSTORE PUSH1 0x20 ADD PUSH2 0x24F6 PUSH1 0x23 SWAP2 CODECOPY SWAP6 POP SWAP6 POP POP POP POP POP PUSH2 0xE88 JUMP JUMPDEST PUSH2 0xDD4 PUSH2 0xC72 JUMP JUMPDEST PUSH1 0x2 ADD PUSH1 0x0 DUP4 PUSH20 0xFFFFFFFFFFFFFFFFFFFFFFFFFFFFFFFFFFFFFFFF AND PUSH20 0xFFFFFFFFFFFFFFFFFFFFFFFFFFFFFFFFFFFFFFFF AND DUP2 MSTORE PUSH1 0x20 ADD SWAP1 DUP2 MSTORE PUSH1 0x20 ADD PUSH1 0x0 KECCAK256 SLOAD DUP5 PUSH2 0xE20 SWAP2 SWAP1 PUSH2 0x214C JUMP JUMPDEST SWAP4 POP POP POP DUP1 DUP1 PUSH2 0xE2F SWAP1 PUSH2 0x1E0B JUMP JUMPDEST SWAP2 POP POP PUSH2 0xCA7 JUMP JUMPDEST POP PUSH2 0xE40 PUSH2 0xC72 JUMP JUMPDEST PUSH1 0x0 ADD SLOAD DUP2 LT ISZERO PUSH2 0xE70 JUMPI PUSH1 0x0 PUSH1 0x40 MLOAD DUP1 PUSH1 0x60 ADD PUSH1 0x40 MSTORE DUP1 PUSH1 0x26 DUP2 MSTORE PUSH1 0x20 ADD PUSH2 0x249E PUSH1 0x26 SWAP2 CODECOPY SWAP3 POP SWAP3 POP POP PUSH2 0xE88 JUMP JUMPDEST PUSH1 0x1 PUSH1 0x40 MLOAD DUP1 PUSH1 0x20 ADD PUSH1 0x40 MSTORE DUP1 PUSH1 0x0 DUP2 MSTORE POP SWAP3 POP SWAP3 POP POP JUMPDEST SWAP3 POP SWAP3 SWAP1 POP JUMP JUMPDEST PUSH2 0xE97 PUSH2 0xC72 JUMP JUMPDEST PUSH1 0x2 ADD PUSH1 0x0 DUP3 PUSH20 0xFFFFFFFFFFFFFFFFFFFFFFFFFFFFFFFFFFFFFFFF AND PUSH20 0xFFFFFFFFFFFFFFFFFFFFFFFFFFFFFFFFFFFFFFFF AND DUP2 MSTORE PUSH1 0x20 ADD SWAP1 DUP2 MSTORE PUSH1 0x20 ADD PUSH1 0x0 KECCAK256 SLOAD PUSH2 0xEE0 PUSH2 0xC72 JUMP JUMPDEST PUSH1 0x1 ADD PUSH1 0x0 DUP3 DUP3 SLOAD PUSH2 0xEF2 SWAP2 SWAP1 PUSH2 0x2118 JUMP JUMPDEST SWAP3 POP POP DUP2 SWAP1 SSTORE POP PUSH1 0x0 PUSH2 0xF03 PUSH2 0xC72 JUMP JUMPDEST PUSH1 0x1 ADD SLOAD GT DUP1 ISZERO PUSH2 0xF2A JUMPI POP PUSH2 0xF17 PUSH2 0xC72 JUMP JUMPDEST PUSH1 0x0 ADD SLOAD PUSH2 0xF23 PUSH2 0xC72 JUMP JUMPDEST PUSH1 0x1 ADD SLOAD LT ISZERO JUMPDEST PUSH2 0xF69 JUMPI PUSH1 0x40 MLOAD PUSH32 0x8C379A000000000000000000000000000000000000000000000000000000000 DUP2 MSTORE PUSH1 0x4 ADD PUSH2 0xF60 SWAP1 PUSH2 0x21CC JUMP JUMPDEST PUSH1 0x40 MLOAD DUP1 SWAP2 SUB SWAP1 REVERT JUMPDEST PUSH1 0x0 PUSH2 0xF73 PUSH2 0xC72 JUMP JUMPDEST PUSH1 0x2 ADD PUSH1 0x0 DUP4 PUSH20 0xFFFFFFFFFFFFFFFFFFFFFFFFFFFFFFFFFFFFFFFF AND PUSH20 0xFFFFFFFFFFFFFFFFFFFFFFFFFFFFFFFFFFFFFFFF AND DUP2 MSTORE PUSH1 0x20 ADD SWAP1 DUP2 MSTORE PUSH1 0x20 ADD PUSH1 0x0 KECCAK256 DUP2 SWAP1 SSTORE POP POP JUMP JUMPDEST DUP1 PUSH2 0xFC3 PUSH2 0xC72 JUMP JUMPDEST PUSH1 0x1 ADD PUSH1 0x0 DUP3 DUP3 SLOAD PUSH2 0xFD5 SWAP2 SWAP1 PUSH2 0x214C JUMP JUMPDEST SWAP3 POP POP DUP2 SWAP1 SSTORE POP DUP1 PUSH2 0xFE5 PUSH2 0xC72 JUMP JUMPDEST PUSH1 0x2 ADD PUSH1 0x0 DUP5 PUSH20 0xFFFFFFFFFFFFFFFFFFFFFFFFFFFFFFFFFFFFFFFF AND PUSH20 0xFFFFFFFFFFFFFFFFFFFFFFFFFFFFFFFFFFFFFFFF AND DUP2 MSTORE PUSH1 0x20 ADD SWAP1 DUP2 MSTORE PUSH1 0x20 ADD PUSH1 0x0 KECCAK256 DUP2 SWAP1 SSTORE POP POP POP JUMP JUMPDEST PUSH1 0x0 PUSH32 0x1FFC9A700000000000000000000000000000000000000000000000000000000 PUSH28 0xFFFFFFFFFFFFFFFFFFFFFFFFFFFFFFFFFFFFFFFFFFFFFFFFFFFFFFFF NOT AND DUP3 PUSH28 0xFFFFFFFFFFFFFFFFFFFFFFFFFFFFFFFFFFFFFFFFFFFFFFFFFFFFFFFF NOT AND EQ SWAP1 POP SWAP2 SWAP1 POP JUMP JUMPDEST PUSH1 0x0 PUSH2 0x10B4 DUP3 PUSH2 0x10A6 DUP6 PUSH2 0x10BC JUMP JUMPDEST PUSH2 0x10EC SWAP1 SWAP2 SWAP1 PUSH4 0xFFFFFFFF AND JUMP JUMPDEST SWAP1 POP SWAP3 SWAP2 POP POP JUMP JUMPDEST PUSH1 0x0 DUP2 PUSH1 0x40 MLOAD PUSH1 0x20 ADD PUSH2 0x10CF SWAP2 SWAP1 PUSH2 0x226E JUMP JUMPDEST PUSH1 0x40 MLOAD PUSH1 0x20 DUP2 DUP4 SUB SUB DUP2 MSTORE SWAP1 PUSH1 0x40 MSTORE DUP1 MLOAD SWAP1 PUSH1 0x20 ADD KECCAK256 SWAP1 POP SWAP2 SWAP1 POP JUMP JUMPDEST PUSH1 0x0 DUP1 PUSH1 0x0 PUSH2 0x10FB DUP6 DUP6 PUSH2 0x1113 JUMP JUMPDEST SWAP2 POP SWAP2 POP PUSH2 0x1108 DUP2 PUSH2 0x1164 JUMP JUMPDEST DUP2 SWAP3 POP POP POP SWAP3 SWAP2 POP POP JUMP JUMPDEST PUSH1 0x0 DUP1 PUSH1 0x41 DUP4 MLOAD SUB PUSH2 0x1154 JUMPI PUSH1 0x0 DUP1 PUSH1 0x0 PUSH1 0x20 DUP7 ADD MLOAD SWAP3 POP PUSH1 0x40 DUP7 ADD MLOAD SWAP2 POP PUSH1 0x60 DUP7 ADD MLOAD PUSH1 0x0 BYTE SWAP1 POP PUSH2 0x1148 DUP8 DUP3 DUP6 DUP6 PUSH2 0x12CA JUMP JUMPDEST SWAP5 POP SWAP5 POP POP POP POP PUSH2 0x115D JUMP JUMPDEST PUSH1 0x0 PUSH1 0x2 SWAP2 POP SWAP2 POP JUMPDEST SWAP3 POP SWAP3 SWAP1 POP JUMP JUMPDEST PUSH1 0x0 PUSH1 0x4 DUP2 GT ISZERO PUSH2 0x1178 JUMPI PUSH2 0x1177 PUSH2 0x2294 JUMP JUMPDEST JUMPDEST DUP2 PUSH1 0x4 DUP2 GT ISZERO PUSH2 0x118B JUMPI PUSH2 0x118A PUSH2 0x2294 JUMP JUMPDEST JUMPDEST SUB ISZERO PUSH2 0x12C7 JUMPI PUSH1 0x1 PUSH1 0x4 DUP2 GT ISZERO PUSH2 0x11A5 JUMPI PUSH2 0x11A4 PUSH2 0x2294 JUMP JUMPDEST JUMPDEST DUP2 PUSH1 0x4 DUP2 GT ISZERO PUSH2 0x11B8 JUMPI PUSH2 0x11B7 PUSH2 0x2294 JUMP JUMPDEST JUMPDEST SUB PUSH2 0x11F8 JUMPI PUSH1 0x40 MLOAD PUSH32 0x8C379A000000000000000000000000000000000000000000000000000000000 DUP2 MSTORE PUSH1 0x4 ADD PUSH2 0x11EF SWAP1 PUSH2 0x230F JUMP JUMPDEST PUSH1 0x40 MLOAD DUP1 SWAP2 SUB SWAP1 REVERT JUMPDEST PUSH1 0x2 PUSH1 0x4 DUP2 GT ISZERO PUSH2 0x120C JUMPI PUSH2 0x120B PUSH2 0x2294 JUMP JUMPDEST JUMPDEST DUP2 PUSH1 0x4 DUP2 GT ISZERO PUSH2 0x121F JUMPI PUSH2 0x121E PUSH2 0x2294 JUMP JUMPDEST JUMPDEST SUB PUSH2 0x125F JUMPI PUSH1 0x40 MLOAD PUSH32 0x8C379A000000000000000000000000000000000000000000000000000000000 DUP2 MSTORE PUSH1 0x4 ADD PUSH2 0x1256 SWAP1 PUSH2 0x237B JUMP JUMPDEST PUSH1 0x40 MLOAD DUP1 SWAP2 SUB SWAP1 REVERT JUMPDEST PUSH1 0x3 PUSH1 0x4 DUP2 GT ISZERO PUSH2 0x1273 JUMPI PUSH2 0x1272 PUSH2 0x2294 JUMP JUMPDEST JUMPDEST DUP2 PUSH1 0x4 DUP2 GT ISZERO PUSH2 0x1286 JUMPI PUSH2 0x1285 PUSH2 0x2294 JUMP JUMPDEST JUMPDEST SUB PUSH2 0x12C6 JUMPI PUSH1 0x40 MLOAD PUSH32 0x8C379A000000000000000000000000000000000000000000000000000000000 DUP2 MSTORE PUSH1 0x4 ADD PUSH2 0x12BD SWAP1 PUSH2 0x240D JUMP JUMPDEST PUSH1 0x40 MLOAD DUP1 SWAP2 SUB SWAP1 REVERT JUMPDEST JUMPDEST POP JUMP JUMPDEST PUSH1 0x0 DUP1 PUSH32 0x7FFFFFFFFFFFFFFFFFFFFFFFFFFFFFFF5D576E7357A4501DDFE92F46681B20A0 DUP4 PUSH1 0x0 SHR GT ISZERO PUSH2 0x1305 JUMPI PUSH1 0x0 PUSH1 0x3 SWAP2 POP SWAP2 POP PUSH2 0x13A3 JUMP JUMPDEST PUSH1 0x0 PUSH1 0x1 DUP8 DUP8 DUP8 DUP8 PUSH1 0x40 MLOAD PUSH1 0x0 DUP2 MSTORE PUSH1 0x20 ADD PUSH1 0x40 MSTORE PUSH1 0x40 MLOAD PUSH2 0x132A SWAP5 SWAP4 SWAP3 SWAP2 SWAP1 PUSH2 0x2458 JUMP JUMPDEST PUSH1 0x20 PUSH1 0x40 MLOAD PUSH1 0x20 DUP2 SUB SWAP1 DUP1 DUP5 SUB SWAP1 DUP6 GAS STATICCALL ISZERO DUP1 ISZERO PUSH2 0x134C JUMPI RETURNDATASIZE PUSH1 0x0 DUP1 RETURNDATACOPY RETURNDATASIZE PUSH1 0x0 REVERT JUMPDEST POP POP POP PUSH1 0x20 PUSH1 0x40 MLOAD SUB MLOAD SWAP1 POP PUSH1 0x0 PUSH20 0xFFFFFFFFFFFFFFFFFFFFFFFFFFFFFFFFFFFFFFFF AND DUP2 PUSH20 0xFFFFFFFFFFFFFFFFFFFFFFFFFFFFFFFFFFFFFFFF AND SUB PUSH2 0x139A JUMPI PUSH1 0x0 PUSH1 0x1 SWAP3 POP SWAP3 POP POP PUSH2 0x13A3 JUMP JUMPDEST DUP1 PUSH1 0x0 SWAP3 POP SWAP3 POP POP JUMPDEST SWAP5 POP SWAP5 SWAP3 POP POP POP JUMP JUMPDEST PUSH1 0x0 PUSH1 0x40 MLOAD SWAP1 POP SWAP1 JUMP JUMPDEST PUSH1 0x0 DUP1 REVERT JUMPDEST PUSH1 0x0 DUP1 REVERT JUMPDEST PUSH1 0x0 PUSH32 0xFFFFFFFF00000000000000000000000000000000000000000000000000000000 DUP3 AND SWAP1 POP SWAP2 SWAP1 POP JUMP JUMPDEST PUSH2 0x13F5 DUP2 PUSH2 0x13C0 JUMP JUMPDEST DUP2 EQ PUSH2 0x1400 JUMPI PUSH1 0x0 DUP1 REVERT JUMPDEST POP JUMP JUMPDEST PUSH1 0x0 DUP2 CALLDATALOAD SWAP1 POP PUSH2 0x1412 DUP2 PUSH2 0x13EC JUMP JUMPDEST SWAP3 SWAP2 POP POP JUMP JUMPDEST PUSH1 0x0 PUSH1 0x20 DUP3 DUP5 SUB SLT ISZERO PUSH2 0x142E JUMPI PUSH2 0x142D PUSH2 0x13B6 JUMP JUMPDEST JUMPDEST PUSH1 0x0 PUSH2 0x143C DUP5 DUP3 DUP6 ADD PUSH2 0x1403 JUMP JUMPDEST SWAP2 POP POP SWAP3 SWAP2 POP POP JUMP JUMPDEST PUSH1 0x0 DUP2 ISZERO ISZERO SWAP1 POP SWAP2 SWAP1 POP JUMP JUMPDEST PUSH2 0x145A DUP2 PUSH2 0x1445 JUMP JUMPDEST DUP3 MSTORE POP POP JUMP JUMPDEST PUSH1 0x0 PUSH1 0x20 DUP3 ADD SWAP1 POP PUSH2 0x1475 PUSH1 0x0 DUP4 ADD DUP5 PUSH2 0x1451 JUMP JUMPDEST SWAP3 SWAP2 POP POP JUMP JUMPDEST PUSH1 0x0 DUP2 SWAP1 POP SWAP2 SWAP1 POP JUMP JUMPDEST PUSH2 0x148E DUP2 PUSH2 0x147B JUMP JUMPDEST DUP3 MSTORE POP POP JUMP JUMPDEST PUSH1 0x0 PUSH1 0x20 DUP3 ADD SWAP1 POP PUSH2 0x14A9 PUSH1 0x0 DUP4 ADD DUP5 PUSH2 0x1485 JUMP JUMPDEST SWAP3 SWAP2 POP POP JUMP JUMPDEST PUSH1 0x0 DUP1 REVERT JUMPDEST PUSH1 0x0 DUP1 REVERT JUMPDEST PUSH1 0x0 DUP1 REVERT JUMPDEST PUSH1 0x0 DUP1 DUP4 PUSH1 0x1F DUP5 ADD SLT PUSH2 0x14D4 JUMPI PUSH2 0x14D3 PUSH2 0x14AF JUMP JUMPDEST JUMPDEST DUP3 CALLDATALOAD SWAP1 POP PUSH8 0xFFFFFFFFFFFFFFFF DUP2 GT ISZERO PUSH2 0x14F1 JUMPI PUSH2 0x14F0 PUSH2 0x14B4 JUMP JUMPDEST JUMPDEST PUSH1 0x20 DUP4 ADD SWAP2 POP DUP4 PUSH1 0x20 DUP3 MUL DUP4 ADD GT ISZERO PUSH2 0x150D JUMPI PUSH2 0x150C PUSH2 0x14B9 JUMP JUMPDEST JUMPDEST SWAP3 POP SWAP3 SWAP1 POP JUMP JUMPDEST PUSH2 0x151D DUP2 PUSH2 0x147B JUMP JUMPDEST DUP2 EQ PUSH2 0x1528 JUMPI PUSH1 0x0 DUP1 REVERT JUMPDEST POP JUMP JUMPDEST PUSH1 0x0 DUP2 CALLDATALOAD SWAP1 POP PUSH2 0x153A DUP2 PUSH2 0x1514 JUMP JUMPDEST SWAP3 SWAP2 POP POP JUMP JUMPDEST PUSH1 0x0 DUP1 DUP4 PUSH1 0x1F DUP5 ADD SLT PUSH2 0x1556 JUMPI PUSH2 0x1555 PUSH2 0x14AF JUMP JUMPDEST JUMPDEST DUP3 CALLDATALOAD SWAP1 POP PUSH8 0xFFFFFFFFFFFFFFFF DUP2 GT ISZERO PUSH2 0x1573 JUMPI PUSH2 0x1572 PUSH2 0x14B4 JUMP JUMPDEST JUMPDEST PUSH1 0x20 DUP4 ADD SWAP2 POP DUP4 PUSH1 0x20 DUP3 MUL DUP4 ADD GT ISZERO PUSH2 0x158F JUMPI PUSH2 0x158E PUSH2 0x14B9 JUMP JUMPDEST JUMPDEST SWAP3 POP SWAP3 SWAP1 POP JUMP JUMPDEST PUSH1 0x0 DUP1 PUSH1 0x0 DUP1 PUSH1 0x0 PUSH1 0x60 DUP7 DUP9 SUB SLT ISZERO PUSH2 0x15B2 JUMPI PUSH2 0x15B1 PUSH2 0x13B6 JUMP JUMPDEST JUMPDEST PUSH1 0x0 DUP7 ADD CALLDATALOAD PUSH8 0xFFFFFFFFFFFFFFFF DUP2 GT ISZERO PUSH2 0x15D0 JUMPI PUSH2 0x15CF PUSH2 0x13BB JUMP JUMPDEST JUMPDEST PUSH2 0x15DC DUP9 DUP3 DUP10 ADD PUSH2 0x14BE JUMP JUMPDEST SWAP6 POP SWAP6 POP POP PUSH1 0x20 PUSH2 0x15EF DUP9 DUP3 DUP10 ADD PUSH2 0x152B JUMP JUMPDEST SWAP4 POP POP PUSH1 0x40 DUP7 ADD CALLDATALOAD PUSH8 0xFFFFFFFFFFFFFFFF DUP2 GT ISZERO PUSH2 0x1610 JUMPI PUSH2 0x160F PUSH2 0x13BB JUMP JUMPDEST JUMPDEST PUSH2 0x161C DUP9 DUP3 DUP10 ADD PUSH2 0x1540 JUMP JUMPDEST SWAP3 POP SWAP3 POP POP SWAP3 SWAP6 POP SWAP3 SWAP6 SWAP1 SWAP4 POP JUMP JUMPDEST PUSH1 0x0 DUP1 PUSH1 0x0 DUP1 PUSH1 0x60 DUP6 DUP8 SUB SLT ISZERO PUSH2 0x1645 JUMPI PUSH2 0x1644 PUSH2 0x13B6 JUMP JUMPDEST JUMPDEST PUSH1 0x0 PUSH2 0x1653 DUP8 DUP3 DUP9 ADD PUSH2 0x152B JUMP JUMPDEST SWAP5 POP POP PUSH1 0x20 PUSH2 0x1664 DUP8 DUP3 DUP9 ADD PUSH2 0x152B JUMP JUMPDEST SWAP4 POP POP PUSH1 0x40 DUP6 ADD CALLDATALOAD PUSH8 0xFFFFFFFFFFFFFFFF DUP2 GT ISZERO PUSH2 0x1685 JUMPI PUSH2 0x1684 PUSH2 0x13BB JUMP JUMPDEST JUMPDEST PUSH2 0x1691 DUP8 DUP3 DUP9 ADD PUSH2 0x1540 JUMP JUMPDEST SWAP3 POP SWAP3 POP POP SWAP3 SWAP6 SWAP2 SWAP5 POP SWAP3 POP JUMP JUMPDEST PUSH1 0x0 PUSH20 0xFFFFFFFFFFFFFFFFFFFFFFFFFFFFFFFFFFFFFFFF DUP3 AND SWAP1 POP SWAP2 SWAP1 POP JUMP JUMPDEST PUSH1 0x0 PUSH2 0x16CA DUP3 PUSH2 0x169F JUMP JUMPDEST SWAP1 POP SWAP2 SWAP1 POP JUMP JUMPDEST PUSH2 0x16DA DUP2 PUSH2 0x16BF JUMP JUMPDEST DUP2 EQ PUSH2 0x16E5 JUMPI PUSH1 0x0 DUP1 REVERT JUMPDEST POP JUMP JUMPDEST PUSH1 0x0 DUP2 CALLDATALOAD SWAP1 POP PUSH2 0x16F7 DUP2 PUSH2 0x16D1 JUMP JUMPDEST SWAP3 SWAP2 POP POP JUMP JUMPDEST PUSH1 0x0 DUP1 PUSH1 0x0 DUP1 PUSH1 0x60 DUP6 DUP8 SUB SLT ISZERO PUSH2 0x1717 JUMPI PUSH2 0x1716 PUSH2 0x13B6 JUMP JUMPDEST JUMPDEST PUSH1 0x0 PUSH2 0x1725 DUP8 DUP3 DUP9 ADD PUSH2 0x16E8 JUMP JUMPDEST SWAP5 POP POP PUSH1 0x20 PUSH2 0x1736 DUP8 DUP3 DUP9 ADD PUSH2 0x152B JUMP JUMPDEST SWAP4 POP POP PUSH1 0x40 DUP6 ADD CALLDATALOAD PUSH8 0xFFFFFFFFFFFFFFFF DUP2 GT ISZERO PUSH2 0x1757 JUMPI PUSH2 0x1756 PUSH2 0x13BB JUMP JUMPDEST JUMPDEST PUSH2 0x1763 DUP8 DUP3 DUP9 ADD PUSH2 0x1540 JUMP JUMPDEST SWAP3 POP SWAP3 POP POP SWAP3 SWAP6 SWAP2 SWAP5 POP SWAP3 POP JUMP JUMPDEST PUSH1 0x0 DUP1 DUP4 PUSH1 0x1F DUP5 ADD SLT PUSH2 0x1787 JUMPI PUSH2 0x1786 PUSH2 0x14AF JUMP JUMPDEST JUMPDEST DUP3 CALLDATALOAD SWAP1 POP PUSH8 0xFFFFFFFFFFFFFFFF DUP2 GT ISZERO PUSH2 0x17A4 JUMPI PUSH2 0x17A3 PUSH2 0x14B4 JUMP JUMPDEST JUMPDEST PUSH1 0x20 DUP4 ADD SWAP2 POP DUP4 PUSH1 0x20 DUP3 MUL DUP4 ADD GT ISZERO PUSH2 0x17C0 JUMPI PUSH2 0x17BF PUSH2 0x14B9 JUMP JUMPDEST JUMPDEST SWAP3 POP SWAP3 SWAP1 POP JUMP JUMPDEST PUSH1 0x0 DUP1 PUSH1 0x0 DUP1 PUSH1 0x0 DUP1 PUSH1 0x0 PUSH1 0x80 DUP9 DUP11 SUB SLT ISZERO PUSH2 0x17E6 JUMPI PUSH2 0x17E5 PUSH2 0x13B6 JUMP JUMPDEST JUMPDEST PUSH1 0x0 DUP9 ADD CALLDATALOAD PUSH8 0xFFFFFFFFFFFFFFFF DUP2 GT ISZERO PUSH2 0x1804 JUMPI PUSH2 0x1803 PUSH2 0x13BB JUMP JUMPDEST JUMPDEST PUSH2 0x1810 DUP11 DUP3 DUP12 ADD PUSH2 0x14BE JUMP JUMPDEST SWAP8 POP SWAP8 POP POP PUSH1 0x20 DUP9 ADD CALLDATALOAD PUSH8 0xFFFFFFFFFFFFFFFF DUP2 GT ISZERO PUSH2 0x1833 JUMPI PUSH2 0x1832 PUSH2 0x13BB JUMP JUMPDEST JUMPDEST PUSH2 0x183F DUP11 DUP3 DUP12 ADD PUSH2 0x1771 JUMP JUMPDEST SWAP6 POP SWAP6 POP POP PUSH1 0x40 PUSH2 0x1852 DUP11 DUP3 DUP12 ADD PUSH2 0x152B JUMP JUMPDEST SWAP4 POP POP PUSH1 0x60 DUP9 ADD CALLDATALOAD PUSH8 0xFFFFFFFFFFFFFFFF DUP2 GT ISZERO PUSH2 0x1873 JUMPI PUSH2 0x1872 PUSH2 0x13BB JUMP JUMPDEST JUMPDEST PUSH2 0x187F DUP11 DUP3 DUP12 ADD PUSH2 0x1540 JUMP JUMPDEST SWAP3 POP SWAP3 POP POP SWAP3 SWAP6 SWAP9 SWAP2 SWAP5 SWAP8 POP SWAP3 SWAP6 POP JUMP JUMPDEST PUSH1 0x0 DUP1 PUSH1 0x0 DUP1 PUSH1 0x0 PUSH1 0x80 DUP7 DUP9 SUB SLT ISZERO PUSH2 0x18AC JUMPI PUSH2 0x18AB PUSH2 0x13B6 JUMP JUMPDEST JUMPDEST PUSH1 0x0 PUSH2 0x18BA DUP9 DUP3 DUP10 ADD PUSH2 0x16E8 JUMP JUMPDEST SWAP6 POP POP PUSH1 0x20 PUSH2 0x18CB DUP9 DUP3 DUP10 ADD PUSH2 0x152B JUMP JUMPDEST SWAP5 POP POP PUSH1 0x40 PUSH2 0x18DC DUP9 DUP3 DUP10 ADD PUSH2 0x152B JUMP JUMPDEST SWAP4 POP POP PUSH1 0x60 DUP7 ADD CALLDATALOAD PUSH8 0xFFFFFFFFFFFFFFFF DUP2 GT ISZERO PUSH2 0x18FD JUMPI PUSH2 0x18FC PUSH2 0x13BB JUMP JUMPDEST JUMPDEST PUSH2 0x1909 DUP9 DUP3 DUP10 ADD PUSH2 0x1540 JUMP JUMPDEST SWAP3 POP SWAP3 POP POP SWAP3 SWAP6 POP SWAP3 SWAP6 SWAP1 SWAP4 POP JUMP JUMPDEST PUSH1 0x0 PUSH1 0x20 DUP3 DUP5 SUB SLT ISZERO PUSH2 0x192E JUMPI PUSH2 0x192D PUSH2 0x13B6 JUMP JUMPDEST JUMPDEST PUSH1 0x0 PUSH2 0x193C DUP5 DUP3 DUP6 ADD PUSH2 0x16E8 JUMP JUMPDEST SWAP2 POP POP SWAP3 SWAP2 POP POP JUMP JUMPDEST PUSH1 0x0 DUP3 DUP3 MSTORE PUSH1 0x20 DUP3 ADD SWAP1 POP SWAP3 SWAP2 POP POP JUMP JUMPDEST PUSH1 0x0 DUP2 SWAP1 POP SWAP2 SWAP1 POP JUMP JUMPDEST PUSH2 0x1969 DUP2 PUSH2 0x16BF JUMP JUMPDEST DUP3 MSTORE POP POP JUMP JUMPDEST PUSH1 0x0 PUSH2 0x197B DUP4 DUP4 PUSH2 0x1960 JUMP JUMPDEST PUSH1 0x20 DUP4 ADD SWAP1 POP SWAP3 SWAP2 POP POP JUMP JUMPDEST PUSH1 0x0 PUSH2 0x1996 PUSH1 0x20 DUP5 ADD DUP5 PUSH2 0x16E8 JUMP JUMPDEST SWAP1 POP SWAP3 SWAP2 POP POP JUMP JUMPDEST PUSH1 0x0 PUSH1 0x20 DUP3 ADD SWAP1 POP SWAP2 SWAP1 POP JUMP JUMPDEST PUSH1 0x0 PUSH2 0x19B7 DUP4 DUP6 PUSH2 0x1945 JUMP JUMPDEST SWAP4 POP PUSH2 0x19C2 DUP3 PUSH2 0x1956 JUMP JUMPDEST DUP1 PUSH1 0x0 JUMPDEST DUP6 DUP2 LT ISZERO PUSH2 0x19FB JUMPI PUSH2 0x19D8 DUP3 DUP5 PUSH2 0x1987 JUMP JUMPDEST PUSH2 0x19E2 DUP9 DUP3 PUSH2 0x196F JUMP JUMPDEST SWAP8 POP PUSH2 0x19ED DUP4 PUSH2 0x199E JUMP JUMPDEST SWAP3 POP POP PUSH1 0x1 DUP2 ADD SWAP1 POP PUSH2 0x19C6 JUMP JUMPDEST POP DUP6 SWAP3 POP POP POP SWAP4 SWAP3 POP POP POP JUMP JUMPDEST PUSH1 0x0 PUSH1 0x60 DUP3 ADD SWAP1 POP DUP2 DUP2 SUB PUSH1 0x0 DUP4 ADD MSTORE PUSH2 0x1A23 DUP2 DUP7 DUP9 PUSH2 0x19AB JUMP JUMPDEST SWAP1 POP PUSH2 0x1A32 PUSH1 0x20 DUP4 ADD DUP6 PUSH2 0x1485 JUMP JUMPDEST PUSH2 0x1A3F PUSH1 0x40 DUP4 ADD DUP5 PUSH2 0x1485 JUMP JUMPDEST SWAP6 SWAP5 POP POP POP POP POP JUMP JUMPDEST PUSH1 0x0 PUSH1 0x1F NOT PUSH1 0x1F DUP4 ADD AND SWAP1 POP SWAP2 SWAP1 POP JUMP JUMPDEST PUSH32 0x4E487B7100000000000000000000000000000000000000000000000000000000 PUSH1 0x0 MSTORE PUSH1 0x41 PUSH1 0x4 MSTORE PUSH1 0x24 PUSH1 0x0 REVERT JUMPDEST PUSH2 0x1A91 DUP3 PUSH2 0x1A48 JUMP JUMPDEST DUP2 ADD DUP2 DUP2 LT PUSH8 0xFFFFFFFFFFFFFFFF DUP3 GT OR ISZERO PUSH2 0x1AB0 JUMPI PUSH2 0x1AAF PUSH2 0x1A59 JUMP JUMPDEST JUMPDEST DUP1 PUSH1 0x40 MSTORE POP POP POP JUMP JUMPDEST PUSH1 0x0 PUSH2 0x1AC3 PUSH2 0x13AC JUMP JUMPDEST SWAP1 POP PUSH2 0x1ACF DUP3 DUP3 PUSH2 0x1A88 JUMP JUMPDEST SWAP2 SWAP1 POP JUMP JUMPDEST PUSH1 0x0 PUSH8 0xFFFFFFFFFFFFFFFF DUP3 GT ISZERO PUSH2 0x1AEF JUMPI PUSH2 0x1AEE PUSH2 0x1A59 JUMP JUMPDEST JUMPDEST PUSH1 0x20 DUP3 MUL SWAP1 POP PUSH1 0x20 DUP2 ADD SWAP1 POP SWAP2 SWAP1 POP JUMP JUMPDEST PUSH1 0x0 DUP1 REVERT JUMPDEST PUSH1 0x0 PUSH8 0xFFFFFFFFFFFFFFFF DUP3 GT ISZERO PUSH2 0x1B20 JUMPI PUSH2 0x1B1F PUSH2 0x1A59 JUMP JUMPDEST JUMPDEST PUSH2 0x1B29 DUP3 PUSH2 0x1A48 JUMP JUMPDEST SWAP1 POP PUSH1 0x20 DUP2 ADD SWAP1 POP SWAP2 SWAP1 POP JUMP JUMPDEST DUP3 DUP2 DUP4 CALLDATACOPY PUSH1 0x0 DUP4 DUP4 ADD MSTORE POP POP POP JUMP JUMPDEST PUSH1 0x0 PUSH2 0x1B58 PUSH2 0x1B53 DUP5 PUSH2 0x1B05 JUMP JUMPDEST PUSH2 0x1AB9 JUMP JUMPDEST SWAP1 POP DUP3 DUP2 MSTORE PUSH1 0x20 DUP2 ADD DUP5 DUP5 DUP5 ADD GT ISZERO PUSH2 0x1B74 JUMPI PUSH2 0x1B73 PUSH2 0x1B00 JUMP JUMPDEST JUMPDEST PUSH2 0x1B7F DUP5 DUP3 DUP6 PUSH2 0x1B36 JUMP JUMPDEST POP SWAP4 SWAP3 POP POP POP JUMP JUMPDEST PUSH1 0x0 DUP3 PUSH1 0x1F DUP4 ADD SLT PUSH2 0x1B9C JUMPI PUSH2 0x1B9B PUSH2 0x14AF JUMP JUMPDEST JUMPDEST DUP2 CALLDATALOAD PUSH2 0x1BAC DUP5 DUP3 PUSH1 0x20 DUP7 ADD PUSH2 0x1B45 JUMP JUMPDEST SWAP2 POP POP SWAP3 SWAP2 POP POP JUMP JUMPDEST PUSH1 0x0 PUSH2 0x1BC8 PUSH2 0x1BC3 DUP5 PUSH2 0x1AD4 JUMP JUMPDEST PUSH2 0x1AB9 JUMP JUMPDEST SWAP1 POP DUP1 DUP4 DUP3 MSTORE PUSH1 0x20 DUP3 ADD SWAP1 POP PUSH1 0x20 DUP5 MUL DUP4 ADD DUP6 DUP2 GT ISZERO PUSH2 0x1BEB JUMPI PUSH2 0x1BEA PUSH2 0x14B9 JUMP JUMPDEST JUMPDEST DUP4 JUMPDEST DUP2 DUP2 LT ISZERO PUSH2 0x1C32 JUMPI DUP1 CALLDATALOAD PUSH8 0xFFFFFFFFFFFFFFFF DUP2 GT ISZERO PUSH2 0x1C10 JUMPI PUSH2 0x1C0F PUSH2 0x14AF JUMP JUMPDEST JUMPDEST DUP1 DUP7 ADD PUSH2 0x1C1D DUP10 DUP3 PUSH2 0x1B87 JUMP JUMPDEST DUP6 MSTORE PUSH1 0x20 DUP6 ADD SWAP5 POP POP POP PUSH1 0x20 DUP2 ADD SWAP1 POP PUSH2 0x1BED JUMP JUMPDEST POP POP POP SWAP4 SWAP3 POP POP POP JUMP JUMPDEST PUSH1 0x0 PUSH2 0x1C49 CALLDATASIZE DUP5 DUP5 PUSH2 0x1BB5 JUMP JUMPDEST SWAP1 POP SWAP3 SWAP2 POP POP JUMP JUMPDEST PUSH1 0x0 DUP2 MLOAD SWAP1 POP SWAP2 SWAP1 POP JUMP JUMPDEST PUSH1 0x0 DUP3 DUP3 MSTORE PUSH1 0x20 DUP3 ADD SWAP1 POP SWAP3 SWAP2 POP POP JUMP JUMPDEST PUSH1 0x0 JUMPDEST DUP4 DUP2 LT ISZERO PUSH2 0x1C8B JUMPI DUP1 DUP3 ADD MLOAD DUP2 DUP5 ADD MSTORE PUSH1 0x20 DUP2 ADD SWAP1 POP PUSH2 0x1C70 JUMP JUMPDEST PUSH1 0x0 DUP5 DUP5 ADD MSTORE POP POP POP POP JUMP JUMPDEST PUSH1 0x0 PUSH2 0x1CA2 DUP3 PUSH2 0x1C51 JUMP JUMPDEST PUSH2 0x1CAC DUP2 DUP6 PUSH2 0x1C5C JUMP JUMPDEST SWAP4 POP PUSH2 0x1CBC DUP2 DUP6 PUSH1 0x20 DUP7 ADD PUSH2 0x1C6D JUMP JUMPDEST PUSH2 0x1CC5 DUP2 PUSH2 0x1A48 JUMP JUMPDEST DUP5 ADD SWAP2 POP POP SWAP3 SWAP2 POP POP JUMP JUMPDEST PUSH1 0x0 PUSH1 0x20 DUP3 ADD SWAP1 POP DUP2 DUP2 SUB PUSH1 0x0 DUP4 ADD MSTORE PUSH2 0x1CEA DUP2 DUP5 PUSH2 0x1C97 JUMP JUMPDEST SWAP1 POP SWAP3 SWAP2 POP POP JUMP JUMPDEST PUSH32 0x4E487B7100000000000000000000000000000000000000000000000000000000 PUSH1 0x0 MSTORE PUSH1 0x32 PUSH1 0x4 MSTORE PUSH1 0x24 PUSH1 0x0 REVERT JUMPDEST PUSH1 0x0 DUP1 REVERT JUMPDEST PUSH1 0x0 DUP1 REVERT JUMPDEST PUSH1 0x0 DUP1 REVERT JUMPDEST PUSH1 0x0 DUP1 DUP4 CALLDATALOAD PUSH1 0x1 PUSH1 0x20 SUB DUP5 CALLDATASIZE SUB SUB DUP2 SLT PUSH2 0x1D4D JUMPI PUSH2 0x1D4C PUSH2 0x1D21 JUMP JUMPDEST JUMPDEST DUP1 DUP5 ADD SWAP3 POP DUP3 CALLDATALOAD SWAP2 POP PUSH8 0xFFFFFFFFFFFFFFFF DUP3 GT ISZERO PUSH2 0x1D6F JUMPI PUSH2 0x1D6E PUSH2 0x1D26 JUMP JUMPDEST JUMPDEST PUSH1 0x20 DUP4 ADD SWAP3 POP PUSH1 0x1 DUP3 MUL CALLDATASIZE SUB DUP4 SGT ISZERO PUSH2 0x1D8B JUMPI PUSH2 0x1D8A PUSH2 0x1D2B JUMP JUMPDEST JUMPDEST POP SWAP3 POP SWAP3 SWAP1 POP JUMP JUMPDEST PUSH1 0x0 DUP2 SWAP1 POP SWAP3 SWAP2 POP POP JUMP JUMPDEST PUSH1 0x0 PUSH2 0x1DAA DUP4 DUP6 PUSH2 0x1D93 JUMP JUMPDEST SWAP4 POP PUSH2 0x1DB7 DUP4 DUP6 DUP5 PUSH2 0x1B36 JUMP JUMPDEST DUP3 DUP5 ADD SWAP1 POP SWAP4 SWAP3 POP POP POP JUMP JUMPDEST PUSH1 0x0 PUSH2 0x1DD0 DUP3 DUP5 DUP7 PUSH2 0x1D9E JUMP JUMPDEST SWAP2 POP DUP2 SWAP1 POP SWAP4 SWAP3 POP POP POP JUMP JUMPDEST PUSH32 0x4E487B7100000000000000000000000000000000000000000000000000000000 PUSH1 0x0 MSTORE PUSH1 0x11 PUSH1 0x4 MSTORE PUSH1 0x24 PUSH1 0x0 REVERT JUMPDEST PUSH1 0x0 PUSH2 0x1E16 DUP3 PUSH2 0x147B JUMP JUMPDEST SWAP2 POP PUSH32 0xFFFFFFFFFFFFFFFFFFFFFFFFFFFFFFFFFFFFFFFFFFFFFFFFFFFFFFFFFFFFFFFF DUP3 SUB PUSH2 0x1E48 JUMPI PUSH2 0x1E47 PUSH2 0x1DDC JUMP JUMPDEST JUMPDEST PUSH1 0x1 DUP3 ADD SWAP1 POP SWAP2 SWAP1 POP JUMP JUMPDEST PUSH1 0x0 PUSH1 0x60 DUP3 ADD SWAP1 POP PUSH2 0x1E68 PUSH1 0x0 DUP4 ADD DUP7 PUSH2 0x1485 JUMP JUMPDEST PUSH2 0x1E75 PUSH1 0x20 DUP4 ADD DUP6 PUSH2 0x1485 JUMP JUMPDEST PUSH2 0x1E82 PUSH1 0x40 DUP4 ADD DUP5 PUSH2 0x1485 JUMP JUMPDEST SWAP5 SWAP4 POP POP POP POP JUMP JUMPDEST PUSH32 0x496E76616C6964207468726573686F6C64000000000000000000000000000000 PUSH1 0x0 DUP3 ADD MSTORE POP JUMP JUMPDEST PUSH1 0x0 PUSH2 0x1EC0 PUSH1 0x11 DUP4 PUSH2 0x1C5C JUMP JUMPDEST SWAP2 POP PUSH2 0x1ECB DUP3 PUSH2 0x1E8A JUMP JUMPDEST PUSH1 0x20 DUP3 ADD SWAP1 POP SWAP2 SWAP1 POP JUMP JUMPDEST PUSH1 0x0 PUSH1 0x20 DUP3 ADD SWAP1 POP DUP2 DUP2 SUB PUSH1 0x0 DUP4 ADD MSTORE PUSH2 0x1EEF DUP2 PUSH2 0x1EB3 JUMP JUMPDEST SWAP1 POP SWAP2 SWAP1 POP JUMP JUMPDEST PUSH2 0x1EFF DUP2 PUSH2 0x16BF JUMP JUMPDEST DUP3 MSTORE POP POP JUMP JUMPDEST PUSH1 0x0 PUSH1 0x60 DUP3 ADD SWAP1 POP PUSH2 0x1F1A PUSH1 0x0 DUP4 ADD DUP7 PUSH2 0x1EF6 JUMP JUMPDEST PUSH2 0x1F27 PUSH1 0x20 DUP4 ADD DUP6 PUSH2 0x1485 JUMP JUMPDEST PUSH2 0x1F34 PUSH1 0x40 DUP4 ADD DUP5 PUSH2 0x1485 JUMP JUMPDEST SWAP5 SWAP4 POP POP POP POP JUMP JUMPDEST PUSH2 0x1F45 DUP2 PUSH2 0x1445 JUMP JUMPDEST DUP2 EQ PUSH2 0x1F50 JUMPI PUSH1 0x0 DUP1 REVERT JUMPDEST POP JUMP JUMPDEST PUSH1 0x0 DUP2 MLOAD SWAP1 POP PUSH2 0x1F62 DUP2 PUSH2 0x1F3C JUMP JUMPDEST SWAP3 SWAP2 POP POP JUMP JUMPDEST PUSH1 0x0 PUSH1 0x20 DUP3 DUP5 SUB SLT ISZERO PUSH2 0x1F7E JUMPI PUSH2 0x1F7D PUSH2 0x13B6 JUMP JUMPDEST JUMPDEST PUSH1 0x0 PUSH2 0x1F8C DUP5 DUP3 DUP6 ADD PUSH2 0x1F53 JUMP JUMPDEST SWAP2 POP POP SWAP3 SWAP2 POP POP JUMP JUMPDEST PUSH32 0x496E76616C696420696D706C656D656E746174696F6E00000000000000000000 PUSH1 0x0 DUP3 ADD MSTORE POP JUMP JUMPDEST PUSH1 0x0 PUSH2 0x1FCB PUSH1 0x16 DUP4 PUSH2 0x1C5C JUMP JUMPDEST SWAP2 POP PUSH2 0x1FD6 DUP3 PUSH2 0x1F95 JUMP JUMPDEST PUSH1 0x20 DUP3 ADD SWAP1 POP SWAP2 SWAP1 POP JUMP JUMPDEST PUSH1 0x0 PUSH1 0x20 DUP3 ADD SWAP1 POP DUP2 DUP2 SUB PUSH1 0x0 DUP4 ADD MSTORE PUSH2 0x1FFA DUP2 PUSH2 0x1FBE JUMP JUMPDEST SWAP1 POP SWAP2 SWAP1 POP JUMP JUMPDEST PUSH1 0x0 DUP3 DUP3 MSTORE PUSH1 0x20 DUP3 ADD SWAP1 POP SWAP3 SWAP2 POP POP JUMP JUMPDEST PUSH1 0x0 DUP1 REVERT JUMPDEST DUP3 DUP2 DUP4 CALLDATACOPY POP POP POP JUMP JUMPDEST PUSH1 0x0 PUSH2 0x202C DUP4 DUP6 PUSH2 0x2001 JUMP JUMPDEST SWAP4 POP PUSH32 0x7FFFFFFFFFFFFFFFFFFFFFFFFFFFFFFFFFFFFFFFFFFFFFFFFFFFFFFFFFFFFFF DUP4 GT ISZERO PUSH2 0x205F JUMPI PUSH2 0x205E PUSH2 0x2012 JUMP JUMPDEST JUMPDEST PUSH1 0x20 DUP4 MUL SWAP3 POP PUSH2 0x2070 DUP4 DUP6 DUP5 PUSH2 0x2017 JUMP JUMPDEST DUP3 DUP5 ADD SWAP1 POP SWAP4 SWAP3 POP POP POP JUMP JUMPDEST PUSH1 0x0 PUSH1 0x80 DUP3 ADD SWAP1 POP DUP2 DUP2 SUB PUSH1 0x0 DUP4 ADD MSTORE PUSH2 0x2097 DUP2 DUP9 DUP11 PUSH2 0x19AB JUMP JUMPDEST SWAP1 POP DUP2 DUP2 SUB PUSH1 0x20 DUP4 ADD MSTORE PUSH2 0x20AC DUP2 DUP7 DUP9 PUSH2 0x2020 JUMP JUMPDEST SWAP1 POP PUSH2 0x20BB PUSH1 0x40 DUP4 ADD DUP6 PUSH2 0x1485 JUMP JUMPDEST PUSH2 0x20C8 PUSH1 0x60 DUP4 ADD DUP5 PUSH2 0x1485 JUMP JUMPDEST SWAP8 SWAP7 POP POP POP POP POP POP POP JUMP JUMPDEST PUSH1 0x0 PUSH1 0x80 DUP3 ADD SWAP1 POP PUSH2 0x20E8 PUSH1 0x0 DUP4 ADD DUP8 PUSH2 0x1EF6 JUMP JUMPDEST PUSH2 0x20F5 PUSH1 0x20 DUP4 ADD DUP7 PUSH2 0x1485 JUMP JUMPDEST PUSH2 0x2102 PUSH1 0x40 DUP4 ADD DUP6 PUSH2 0x1485 JUMP JUMPDEST PUSH2 0x210F PUSH1 0x60 DUP4 ADD DUP5 PUSH2 0x1485 JUMP JUMPDEST SWAP6 SWAP5 POP POP POP POP POP JUMP JUMPDEST PUSH1 0x0 PUSH2 0x2123 DUP3 PUSH2 0x147B JUMP JUMPDEST SWAP2 POP PUSH2 0x212E DUP4 PUSH2 0x147B JUMP JUMPDEST SWAP3 POP DUP3 DUP3 SUB SWAP1 POP DUP2 DUP2 GT ISZERO PUSH2 0x2146 JUMPI PUSH2 0x2145 PUSH2 0x1DDC JUMP JUMPDEST JUMPDEST SWAP3 SWAP2 POP POP JUMP JUMPDEST PUSH1 0x0 PUSH2 0x2157 DUP3 PUSH2 0x147B JUMP JUMPDEST SWAP2 POP PUSH2 0x2162 DUP4 PUSH2 0x147B JUMP JUMPDEST SWAP3 POP DUP3 DUP3 ADD SWAP1 POP DUP1 DUP3 GT ISZERO PUSH2 0x217A JUMPI PUSH2 0x2179 PUSH2 0x1DDC JUMP JUMPDEST JUMPDEST SWAP3 SWAP2 POP POP JUMP JUMPDEST PUSH32 0x5468726573686F6C6420776F756C6420626520696D706F737369626C65000000 PUSH1 0x0 DUP3 ADD MSTORE POP JUMP JUMPDEST PUSH1 0x0 PUSH2 0x21B6 PUSH1 0x1D DUP4 PUSH2 0x1C5C JUMP JUMPDEST SWAP2 POP PUSH2 0x21C1 DUP3 PUSH2 0x2180 JUMP JUMPDEST PUSH1 0x20 DUP3 ADD SWAP1 POP SWAP2 SWAP1 POP JUMP JUMPDEST PUSH1 0x0 PUSH1 0x20 DUP3 ADD SWAP1 POP DUP2 DUP2 SUB PUSH1 0x0 DUP4 ADD MSTORE PUSH2 0x21E5 DUP2 PUSH2 0x21A9 JUMP JUMPDEST SWAP1 POP SWAP2 SWAP1 POP JUMP JUMPDEST PUSH1 0x0 DUP2 SWAP1 POP SWAP3 SWAP2 POP POP JUMP JUMPDEST PUSH32 0x19457468657265756D205369676E6564204D6573736167653A0A333200000000 PUSH1 0x0 DUP3 ADD MSTORE POP JUMP JUMPDEST PUSH1 0x0 PUSH2 0x222D PUSH1 0x1C DUP4 PUSH2 0x21EC JUMP JUMPDEST SWAP2 POP PUSH2 0x2238 DUP3 PUSH2 0x21F7 JUMP JUMPDEST PUSH1 0x1C DUP3 ADD SWAP1 POP SWAP2 SWAP1 POP JUMP JUMPDEST PUSH1 0x0 DUP2 SWAP1 POP SWAP2 SWAP1 POP JUMP JUMPDEST PUSH1 0x0 DUP2 SWAP1 POP SWAP2 SWAP1 POP JUMP JUMPDEST PUSH2 0x2268 PUSH2 0x2263 DUP3 PUSH2 0x2243 JUMP JUMPDEST PUSH2 0x224D JUMP JUMPDEST DUP3 MSTORE POP POP JUMP JUMPDEST PUSH1 0x0 PUSH2 0x2279 DUP3 PUSH2 0x2220 JUMP JUMPDEST SWAP2 POP PUSH2 0x2285 DUP3 DUP5 PUSH2 0x2257 JUMP JUMPDEST PUSH1 0x20 DUP3 ADD SWAP2 POP DUP2 SWAP1 POP SWAP3 SWAP2 POP POP JUMP JUMPDEST PUSH32 0x4E487B7100000000000000000000000000000000000000000000000000000000 PUSH1 0x0 MSTORE PUSH1 0x21 PUSH1 0x4 MSTORE PUSH1 0x24 PUSH1 0x0 REVERT JUMPDEST PUSH32 0x45434453413A20696E76616C6964207369676E61747572650000000000000000 PUSH1 0x0 DUP3 ADD MSTORE POP JUMP JUMPDEST PUSH1 0x0 PUSH2 0x22F9 PUSH1 0x18 DUP4 PUSH2 0x1C5C JUMP JUMPDEST SWAP2 POP PUSH2 0x2304 DUP3 PUSH2 0x22C3 JUMP JUMPDEST PUSH1 0x20 DUP3 ADD SWAP1 POP SWAP2 SWAP1 POP JUMP JUMPDEST PUSH1 0x0 PUSH1 0x20 DUP3 ADD SWAP1 POP DUP2 DUP2 SUB PUSH1 0x0 DUP4 ADD MSTORE PUSH2 0x2328 DUP2 PUSH2 0x22EC JUMP JUMPDEST SWAP1 POP SWAP2 SWAP1 POP JUMP JUMPDEST PUSH32 0x45434453413A20696E76616C6964207369676E6174757265206C656E67746800 PUSH1 0x0 DUP3 ADD MSTORE POP JUMP JUMPDEST PUSH1 0x0 PUSH2 0x2365 PUSH1 0x1F DUP4 PUSH2 0x1C5C JUMP JUMPDEST SWAP2 POP PUSH2 0x2370 DUP3 PUSH2 0x232F JUMP JUMPDEST PUSH1 0x20 DUP3 ADD SWAP1 POP SWAP2 SWAP1 POP JUMP JUMPDEST PUSH1 0x0 PUSH1 0x20 DUP3 ADD SWAP1 POP DUP2 DUP2 SUB PUSH1 0x0 DUP4 ADD MSTORE PUSH2 0x2394 DUP2 PUSH2 0x2358 JUMP JUMPDEST SWAP1 POP SWAP2 SWAP1 POP JUMP JUMPDEST PUSH32 0x45434453413A20696E76616C6964207369676E6174757265202773272076616C PUSH1 0x0 DUP3 ADD MSTORE PUSH32 0x7565000000000000000000000000000000000000000000000000000000000000 PUSH1 0x20 DUP3 ADD MSTORE POP JUMP JUMPDEST PUSH1 0x0 PUSH2 0x23F7 PUSH1 0x22 DUP4 PUSH2 0x1C5C JUMP JUMPDEST SWAP2 POP PUSH2 0x2402 DUP3 PUSH2 0x239B JUMP JUMPDEST PUSH1 0x40 DUP3 ADD SWAP1 POP SWAP2 SWAP1 POP JUMP JUMPDEST PUSH1 0x0 PUSH1 0x20 DUP3 ADD SWAP1 POP DUP2 DUP2 SUB PUSH1 0x0 DUP4 ADD MSTORE PUSH2 0x2426 DUP2 PUSH2 0x23EA JUMP JUMPDEST SWAP1 POP SWAP2 SWAP1 POP JUMP JUMPDEST PUSH2 0x2436 DUP2 PUSH2 0x2243 JUMP JUMPDEST DUP3 MSTORE POP POP JUMP JUMPDEST PUSH1 0x0 PUSH1 0xFF DUP3 AND SWAP1 POP SWAP2 SWAP1 POP JUMP JUMPDEST PUSH2 0x2452 DUP2 PUSH2 0x243C JUMP JUMPDEST DUP3 MSTORE POP POP JUMP JUMPDEST PUSH1 0x0 PUSH1 0x80 DUP3 ADD SWAP1 POP PUSH2 0x246D PUSH1 0x0 DUP4 ADD DUP8 PUSH2 0x242D JUMP JUMPDEST PUSH2 0x247A PUSH1 0x20 DUP4 ADD DUP7 PUSH2 0x2449 JUMP JUMPDEST PUSH2 0x2487 PUSH1 0x40 DUP4 ADD DUP6 PUSH2 0x242D JUMP JUMPDEST PUSH2 0x2494 PUSH1 0x60 DUP4 ADD DUP5 PUSH2 0x242D JUMP JUMPDEST SWAP6 SWAP5 POP POP POP POP POP JUMP INVALID MSTORE8 PUSH10 0x676E6572207765696768 PUSH21 0x7320646F6573206E6F74206D656574207468726573 PUSH9 0x6F6C644174206C6561 PUSH20 0x74206F6E65207369676E6174757265206E6F7420 PUSH7 0x726F6D2061206B PUSH15 0x6F776E20636F6E74726F6C6C657241 PUSH21 0x206C65617374206F6E65207369676E617475726520 PUSH2 0x6C72 PUSH6 0x616479207573 PUSH6 0x64A264697066 PUSH20 0x58221220835B1A9B02444C089995CCFDFF05830D DUP1 CALLDATACOPY PUSH2 0x88F LOG3 DUP5 SWAP15 0xC2 PUSH19 0xDBEB9F6ABC9C64736F6C634300081200330000 "
		},
		"gasEstimates": {
			"creation": {
				"codeDepositCost": "1910000",
				"executionCost": "2019",
				"totalCost": "1912019"
			},
			"external": {
				"addControllers(address[],uint256[],uint256,bytes[])": "infinite",
				"controlThreshold()": "2491",
				"controllerWeight(address)": "2961",
				"controllersTotalWeight()": "2514",
				"removeControllers(address[],uint256,bytes[])": "infinite",
				"supportsInterface(bytes4)": "809",
				"supportsUpgrades()": "431",
				"updateControlThreshold(uint256,uint256,bytes[])": "infinite",
				"updateControllerWeight(address,uint256,uint256,bytes[])": "infinite",
				"upgrade(address,uint256,bytes[])": "infinite"
			}
		},
		"methodIdentifiers": {
			"addControllers(address[],uint256[],uint256,bytes[])": "af915498",
			"controlThreshold()": "a7865090",
			"controllerWeight(address)": "f04420f1",
			"controllersTotalWeight()": "06e82383",
			"removeControllers(address[],uint256,bytes[])": "286936bb",
			"supportsInterface(bytes4)": "01ffc9a7",
			"supportsUpgrades()": "fec5c09a",
			"updateControlThreshold(uint256,uint256,bytes[])": "87f949b4",
			"updateControllerWeight(address,uint256,uint256,bytes[])": "d0bccea1",
			"upgrade(address,uint256,bytes[])": "94c4395b"
		}
	},
	"abi": [
		{
			"inputs": [
				{
					"internalType": "address[]",
					"name": "_controllers",
					"type": "address[]"
				},
				{
					"internalType": "uint256[]",
					"name": "_weights",
					"type": "uint256[]"
				},
				{
					"internalType": "uint256",
					"name": "_nonce",
					"type": "uint256"
				},
				{
					"internalType": "bytes[]",
					"name": "_signatures",
					"type": "bytes[]"
				}
			],
			"name": "addControllers",
			"outputs": [],
			"stateMutability": "nonpayable",
			"type": "function"
		},
		{
			"inputs": [],
			"name": "controlThreshold",
			"outputs": [
				{
					"internalType": "uint256",
					"name": "",
					"type": "uint256"
				}
			],
			"stateMutability": "view",
			"type": "function"
		},
		{
			"inputs": [
				{
					"internalType": "address",
					"name": "_controller",
					"type": "address"
				}
			],
			"name": "controllerWeight",
			"outputs": [
				{
					"internalType": "uint256",
					"name": "",
					"type": "uint256"
				}
			],
			"stateMutability": "view",
			"type": "function"
		},
		{
			"inputs": [],
			"name": "controllersTotalWeight",
			"outputs": [
				{
					"internalType": "uint256",
					"name": "",
					"type": "uint256"
				}
			],
			"stateMutability": "view",
			"type": "function"
		},
		{
			"inputs": [
				{
					"internalType": "address[]",
					"name": "_controllers",
					"type": "address[]"
				},
				{
					"internalType": "uint256",
					"name": "_nonce",
					"type": "uint256"
				},
				{
					"internalType": "bytes[]",
					"name": "_signatures",
					"type": "bytes[]"
				}
			],
			"name": "removeControllers",
			"outputs": [],
			"stateMutability": "nonpayable",
			"type": "function"
		},
		{
			"inputs": [
				{
					"internalType": "bytes4",
					"name": "interfaceId",
					"type": "bytes4"
				}
			],
			"name": "supportsInterface",
			"outputs": [
				{
					"internalType": "bool",
					"name": "",
					"type": "bool"
				}
			],
			"stateMutability": "view",
			"type": "function"
		},
		{
			"inputs": [],
			"name": "supportsUpgrades",
			"outputs": [
				{
					"internalType": "bool",
					"name": "",
					"type": "bool"
				}
			],
			"stateMutability": "pure",
			"type": "function"
		},
		{
			"inputs": [
				{
					"internalType": "uint256",
					"name": "_threshold",
					"type": "uint256"
				},
				{
					"internalType": "uint256",
					"name": "_nonce",
					"type": "uint256"
				},
				{
					"internalType": "bytes[]",
					"name": "_signatures",
					"type": "bytes[]"
				}
			],
			"name": "updateControlThreshold",
			"outputs": [],
			"stateMutability": "nonpayable",
			"type": "function"
		},
		{
			"inputs": [
				{
					"internalType": "address",
					"name": "_controller",
					"type": "address"
				},
				{
					"internalType": "uint256",
					"name": "_weight",
					"type": "uint256"
				},
				{
					"internalType": "uint256",
					"name": "_nonce",
					"type": "uint256"
				},
				{
					"internalType": "bytes[]",
					"name": "_signatures",
					"type": "bytes[]"
				}
			],
			"name": "updateControllerWeight",
			"outputs": [],
			"stateMutability": "nonpayable",
			"type": "function"
		},
		{
			"inputs": [
				{
					"internalType": "address",
					"name": "_implementation",
					"type": "address"
				},
				{
					"internalType": "uint256",
					"name": "_nonce",
					"type": "uint256"
				},
				{
					"internalType": "bytes[]",
					"name": "_signatures",
					"type": "bytes[]"
				}
			],
			"name": "upgrade",
			"outputs": [],
			"stateMutability": "nonpayable",
			"type": "function"
		}
	]
}