{
	"contracts/modules/Upgrades/Upgrades.sol": {
		"Upgrades": {
			"abi": [
				{
					"inputs": [
						{
							"internalType": "address[]",
							"name": "_controllers",
							"type": "address[]"
						},
						{
							"internalType": "uint256[]",
							"name": "_weights",
							"type": "uint256[]"
						},
						{
							"internalType": "uint256",
							"name": "_nonce",
							"type": "uint256"
						},
						{
							"internalType": "bytes[]",
							"name": "_signatures",
							"type": "bytes[]"
						}
					],
					"name": "addControllers",
					"outputs": [],
					"stateMutability": "nonpayable",
					"type": "function"
				},
				{
					"inputs": [],
					"name": "controlThreshold",
					"outputs": [
						{
							"internalType": "uint256",
							"name": "",
							"type": "uint256"
						}
					],
					"stateMutability": "view",
					"type": "function"
				},
				{
					"inputs": [
						{
							"internalType": "address",
							"name": "_controller",
							"type": "address"
						}
					],
					"name": "controllerWeight",
					"outputs": [
						{
							"internalType": "uint256",
							"name": "",
							"type": "uint256"
						}
					],
					"stateMutability": "view",
					"type": "function"
				},
				{
					"inputs": [],
					"name": "controllersTotalWeight",
					"outputs": [
						{
							"internalType": "uint256",
							"name": "",
							"type": "uint256"
						}
					],
					"stateMutability": "view",
					"type": "function"
				},
				{
					"inputs": [
						{
							"internalType": "address[]",
							"name": "_controllers",
							"type": "address[]"
						},
						{
							"internalType": "uint256",
							"name": "_nonce",
							"type": "uint256"
						},
						{
							"internalType": "bytes[]",
							"name": "_signatures",
							"type": "bytes[]"
						}
					],
					"name": "removeControllers",
					"outputs": [],
					"stateMutability": "nonpayable",
					"type": "function"
				},
				{
					"inputs": [
						{
							"internalType": "bytes4",
							"name": "interfaceId",
							"type": "bytes4"
						}
					],
					"name": "supportsInterface",
					"outputs": [
						{
							"internalType": "bool",
							"name": "",
							"type": "bool"
						}
					],
					"stateMutability": "view",
					"type": "function"
				},
				{
					"inputs": [],
					"name": "supportsUpgrades",
					"outputs": [
						{
							"internalType": "bool",
							"name": "",
							"type": "bool"
						}
					],
					"stateMutability": "pure",
					"type": "function"
				},
				{
					"inputs": [
						{
							"internalType": "uint256",
							"name": "_threshold",
							"type": "uint256"
						},
						{
							"internalType": "uint256",
							"name": "_nonce",
							"type": "uint256"
						},
						{
							"internalType": "bytes[]",
							"name": "_signatures",
							"type": "bytes[]"
						}
					],
					"name": "updateControlThreshold",
					"outputs": [],
					"stateMutability": "nonpayable",
					"type": "function"
				},
				{
					"inputs": [
						{
							"internalType": "address",
							"name": "_controller",
							"type": "address"
						},
						{
							"internalType": "uint256",
							"name": "_weight",
							"type": "uint256"
						},
						{
							"internalType": "uint256",
							"name": "_nonce",
							"type": "uint256"
						},
						{
							"internalType": "bytes[]",
							"name": "_signatures",
							"type": "bytes[]"
						}
					],
					"name": "updateControllerWeight",
					"outputs": [],
					"stateMutability": "nonpayable",
					"type": "function"
				},
				{
					"inputs": [
						{
							"internalType": "address",
							"name": "_implementation",
							"type": "address"
						},
						{
							"internalType": "uint256",
							"name": "_nonce",
							"type": "uint256"
						},
						{
							"internalType": "bytes[]",
							"name": "_signatures",
							"type": "bytes[]"
						}
					],
					"name": "upgrade",
					"outputs": [],
					"stateMutability": "nonpayable",
					"type": "function"
				}
			],
			"devdoc": {
				"kind": "dev",
				"methods": {
					"supportsInterface(bytes4)": {
						"details": "See {IERC165-supportsInterface}."
					}
				},
				"version": 1
			},
			"evm": {
				"assembly": "    /* \"contracts/modules/Upgrades/Upgrades.sol\":412:1171  contract Upgrades is IUpgrades, Controllers {... */\n  mstore(0x40, 0x80)\n  callvalue\n  dup1\n  iszero\n  tag_1\n  jumpi\n  0x00\n  dup1\n  revert\ntag_1:\n  pop\n  dataSize(sub_0)\n  dup1\n  dataOffset(sub_0)\n  0x00\n  codecopy\n  0x00\n  return\nstop\n\nsub_0: assembly {\n        /* \"contracts/modules/Upgrades/Upgrades.sol\":412:1171  contract Upgrades is IUpgrades, Controllers {... */\n      mstore(0x40, 0x80)\n      callvalue\n      dup1\n      iszero\n      tag_1\n      jumpi\n      0x00\n      dup1\n      revert\n    tag_1:\n      pop\n      jumpi(tag_2, lt(calldatasize, 0x04))\n      shr(0xe0, calldataload(0x00))\n      dup1\n      0xa7865090\n      gt\n      tag_13\n      jumpi\n      dup1\n      0xa7865090\n      eq\n      tag_8\n      jumpi\n      dup1\n      0xaf915498\n      eq\n      tag_9\n      jumpi\n      dup1\n      0xd0bccea1\n      eq\n      tag_10\n      jumpi\n      dup1\n      0xf04420f1\n      eq\n      tag_11\n      jumpi\n      dup1\n      0xfec5c09a\n      eq\n      tag_12\n      jumpi\n      jump(tag_2)\n    tag_13:\n      dup1\n      0x01ffc9a7\n      eq\n      tag_3\n      jumpi\n      dup1\n      0x06e82383\n      eq\n      tag_4\n      jumpi\n      dup1\n      0x286936bb\n      eq\n      tag_5\n      jumpi\n      dup1\n      0x87f949b4\n      eq\n      tag_6\n      jumpi\n      dup1\n      0x94c4395b\n      eq\n      tag_7\n      jumpi\n    tag_2:\n      0x00\n      dup1\n      revert\n        /* \"contracts/modules/Upgrades/Upgrades.sol\":931:1169  function supportsInterface(bytes4 interfaceId) public view virtual override(Controllers) returns (bool) {... */\n    tag_3:\n      tag_14\n      0x04\n      dup1\n      calldatasize\n      sub\n      dup2\n      add\n      swap1\n      tag_15\n      swap2\n      swap1\n      tag_16\n      jump\t// in\n    tag_15:\n      tag_17\n      jump\t// in\n    tag_14:\n      mload(0x40)\n      tag_18\n      swap2\n      swap1\n      tag_19\n      jump\t// in\n    tag_18:\n      mload(0x40)\n      dup1\n      swap2\n      sub\n      swap1\n      return\n        /* \"contracts/modules/Controllers/Controllers.sol\":3319:3443  function controllersTotalWeight() external view returns (uint256) {... */\n    tag_4:\n      tag_20\n      tag_21\n      jump\t// in\n    tag_20:\n      mload(0x40)\n      tag_22\n      swap2\n      swap1\n      tag_23\n      jump\t// in\n    tag_22:\n      mload(0x40)\n      dup1\n      swap2\n      sub\n      swap1\n      return\n        /* \"contracts/modules/Controllers/Controllers.sol\":1180:1529  function removeControllers(... */\n    tag_5:\n      tag_24\n      0x04\n      dup1\n      calldatasize\n      sub\n      dup2\n      add\n      swap1\n      tag_25\n      swap2\n      swap1\n      tag_26\n      jump\t// in\n    tag_25:\n      tag_27\n      jump\t// in\n    tag_24:\n      stop\n        /* \"contracts/modules/Controllers/Controllers.sol\":1932:2385  function updateControlThreshold(... */\n    tag_6:\n      tag_28\n      0x04\n      dup1\n      calldatasize\n      sub\n      dup2\n      add\n      swap1\n      tag_29\n      swap2\n      swap1\n      tag_30\n      jump\t// in\n    tag_29:\n      tag_31\n      jump\t// in\n    tag_28:\n      stop\n        /* \"contracts/modules/Upgrades/Upgrades.sol\":460:844  function upgrade(... */\n    tag_7:\n      tag_32\n      0x04\n      dup1\n      calldatasize\n      sub\n      dup2\n      add\n      swap1\n      tag_33\n      swap2\n      swap1\n      tag_34\n      jump\t// in\n    tag_33:\n      tag_35\n      jump\t// in\n    tag_32:\n      stop\n        /* \"contracts/modules/Controllers/Controllers.sol\":3052:3167  function controlThreshold() external view returns (uint256) {... */\n    tag_8:\n      tag_36\n      tag_37\n      jump\t// in\n    tag_36:\n      mload(0x40)\n      tag_38\n      swap2\n      swap1\n      tag_23\n      jump\t// in\n    tag_38:\n      mload(0x40)\n      dup1\n      swap2\n      sub\n      swap1\n      return\n        /* \"contracts/modules/Controllers/Controllers.sol\":569:971  function addControllers(... */\n    tag_9:\n      tag_39\n      0x04\n      dup1\n      calldatasize\n      sub\n      dup2\n      add\n      swap1\n      tag_40\n      swap2\n      swap1\n      tag_41\n      jump\t// in\n    tag_40:\n      tag_42\n      jump\t// in\n    tag_39:\n      stop\n        /* \"contracts/modules/Controllers/Controllers.sol\":2389:3048  function updateControllerWeight(... */\n    tag_10:\n      tag_43\n      0x04\n      dup1\n      calldatasize\n      sub\n      dup2\n      add\n      swap1\n      tag_44\n      swap2\n      swap1\n      tag_45\n      jump\t// in\n    tag_44:\n      tag_46\n      jump\t// in\n    tag_43:\n      stop\n        /* \"contracts/modules/Controllers/Controllers.sol\":3171:3315  function controllerWeight(address _controller) external view returns(uint256) {... */\n    tag_11:\n      tag_47\n      0x04\n      dup1\n      calldatasize\n      sub\n      dup2\n      add\n      swap1\n      tag_48\n      swap2\n      swap1\n      tag_49\n      jump\t// in\n    tag_48:\n      tag_50\n      jump\t// in\n    tag_47:\n      mload(0x40)\n      tag_51\n      swap2\n      swap1\n      tag_23\n      jump\t// in\n    tag_51:\n      mload(0x40)\n      dup1\n      swap2\n      sub\n      swap1\n      return\n        /* \"contracts/modules/Upgrades/Upgrades.sol\":848:927  function supportsUpgrades() external pure returns (bool) {... */\n    tag_12:\n      tag_52\n      tag_53\n      jump\t// in\n    tag_52:\n      mload(0x40)\n      tag_54\n      swap2\n      swap1\n      tag_19\n      jump\t// in\n    tag_54:\n      mload(0x40)\n      dup1\n      swap2\n      sub\n      swap1\n      return\n        /* \"contracts/modules/Upgrades/Upgrades.sol\":931:1169  function supportsInterface(bytes4 interfaceId) public view virtual override(Controllers) returns (bool) {... */\n    tag_17:\n        /* \"contracts/modules/Upgrades/Upgrades.sol\":1029:1033  bool */\n      0x00\n        /* \"contracts/modules/Upgrades/Upgrades.sol\":1060:1087  type(IUpgrades).interfaceId */\n      0x6a01f9c100000000000000000000000000000000000000000000000000000000\n        /* \"contracts/modules/Upgrades/Upgrades.sol\":1045:1087  interfaceId == type(IUpgrades).interfaceId */\n      not(0xffffffffffffffffffffffffffffffffffffffffffffffffffffffff)\n      and\n        /* \"contracts/modules/Upgrades/Upgrades.sol\":1045:1056  interfaceId */\n      dup3\n        /* \"contracts/modules/Upgrades/Upgrades.sol\":1045:1087  interfaceId == type(IUpgrades).interfaceId */\n      not(0xffffffffffffffffffffffffffffffffffffffffffffffffffffffff)\n      and\n      sub\n        /* \"contracts/modules/Upgrades/Upgrades.sol\":1041:1115  if (interfaceId == type(IUpgrades).interfaceId) {... */\n      tag_56\n      jumpi\n        /* \"contracts/modules/Upgrades/Upgrades.sol\":1104:1108  true */\n      0x01\n        /* \"contracts/modules/Upgrades/Upgrades.sol\":1097:1108  return true */\n      swap1\n      pop\n      jump(tag_55)\n        /* \"contracts/modules/Upgrades/Upgrades.sol\":1041:1115  if (interfaceId == type(IUpgrades).interfaceId) {... */\n    tag_56:\n        /* \"contracts/modules/Upgrades/Upgrades.sol\":1128:1164  super.supportsInterface(interfaceId) */\n      tag_57\n        /* \"contracts/modules/Upgrades/Upgrades.sol\":1152:1163  interfaceId */\n      dup3\n        /* \"contracts/modules/Upgrades/Upgrades.sol\":1128:1151  super.supportsInterface */\n      tag_58\n        /* \"contracts/modules/Upgrades/Upgrades.sol\":1128:1164  super.supportsInterface(interfaceId) */\n      jump\t// in\n    tag_57:\n        /* \"contracts/modules/Upgrades/Upgrades.sol\":1121:1164  return super.supportsInterface(interfaceId) */\n      swap1\n      pop\n        /* \"contracts/modules/Upgrades/Upgrades.sol\":931:1169  function supportsInterface(bytes4 interfaceId) public view virtual override(Controllers) returns (bool) {... */\n    tag_55:\n      swap2\n      swap1\n      pop\n      jump\t// out\n        /* \"contracts/modules/Controllers/Controllers.sol\":3319:3443  function controllersTotalWeight() external view returns (uint256) {... */\n    tag_21:\n        /* \"contracts/modules/Controllers/Controllers.sol\":3376:3383  uint256 */\n      0x00\n        /* \"contracts/modules/Controllers/Controllers.sol\":3398:3425  ControllersStorage.layout() */\n      tag_60\n        /* \"contracts/modules/Controllers/Controllers.sol\":3398:3423  ControllersStorage.layout */\n      tag_61\n        /* \"contracts/modules/Controllers/Controllers.sol\":3398:3425  ControllersStorage.layout() */\n      jump\t// in\n    tag_60:\n        /* \"contracts/modules/Controllers/Controllers.sol\":3398:3438  ControllersStorage.layout().totalWeights */\n      0x01\n      add\n      sload\n        /* \"contracts/modules/Controllers/Controllers.sol\":3391:3438  return ControllersStorage.layout().totalWeights */\n      swap1\n      pop\n        /* \"contracts/modules/Controllers/Controllers.sol\":3319:3443  function controllersTotalWeight() external view returns (uint256) {... */\n      swap1\n      jump\t// out\n        /* \"contracts/modules/Controllers/Controllers.sol\":1180:1529  function removeControllers(... */\n    tag_27:\n        /* \"contracts/modules/Controllers/Controllers.sol\":1366:1378  _controllers */\n      dup5\n      dup5\n        /* \"contracts/modules/Controllers/Controllers.sol\":1380:1386  _nonce */\n      dup5\n        /* \"contracts/modules/Controllers/Controllers.sol\":1388:1401  block.chainid */\n      chainid\n        /* \"contracts/modules/Controllers/Controllers.sol\":1355:1402  abi.encode(_controllers, _nonce, block.chainid) */\n      add(0x20, mload(0x40))\n      tag_62\n      swap5\n      swap4\n      swap3\n      swap2\n      swap1\n      tag_63\n      jump\t// in\n    tag_62:\n      mload(0x40)\n      0x20\n      dup2\n      dup4\n      sub\n      sub\n      dup2\n      mstore\n      swap1\n      0x40\n      mstore\n        /* \"contracts/modules/Controllers/Controllers.sol\":1345:1403  keccak256(abi.encode(_controllers, _nonce, block.chainid)) */\n      dup1\n      mload\n      swap1\n      0x20\n      add\n      keccak256\n        /* \"contracts/modules/Controllers/Controllers.sol\":1405:1416  _signatures */\n      dup3\n      dup3\n        /* \"contracts/modules/Controllers/Controllers.sol\":4470:4483  bool verified */\n      0x00\n        /* \"contracts/modules/Controllers/Controllers.sol\":4485:4504  string memory error */\n      dup1\n        /* \"contracts/modules/Controllers/Controllers.sol\":4508:4571  verifyControllersThresholdBySignatures(_inputHash, _signatures) */\n      tag_65\n        /* \"contracts/modules/Controllers/Controllers.sol\":4547:4557  _inputHash */\n      dup6\n        /* \"contracts/modules/Controllers/Controllers.sol\":4559:4570  _signatures */\n      dup6\n      dup6\n        /* \"contracts/modules/Controllers/Controllers.sol\":4508:4571  verifyControllersThresholdBySignatures(_inputHash, _signatures) */\n      swap1\n      tag_66\n      swap2\n      swap1\n      tag_67\n      jump\t// in\n    tag_66:\n        /* \"contracts/modules/Controllers/Controllers.sol\":4508:4546  verifyControllersThresholdBySignatures */\n      tag_68\n        /* \"contracts/modules/Controllers/Controllers.sol\":4508:4571  verifyControllersThresholdBySignatures(_inputHash, _signatures) */\n      jump\t// in\n    tag_65:\n        /* \"contracts/modules/Controllers/Controllers.sol\":4469:4571  (bool verified, string memory error) = verifyControllersThresholdBySignatures(_inputHash, _signatures) */\n      swap2\n      pop\n      swap2\n      pop\n        /* \"contracts/modules/Controllers/Controllers.sol\":4585:4593  verified */\n      dup2\n        /* \"contracts/modules/Controllers/Controllers.sol\":4595:4600  error */\n      dup2\n        /* \"contracts/modules/Controllers/Controllers.sol\":4577:4601  require(verified, error) */\n      swap1\n      tag_69\n      jumpi\n      mload(0x40)\n      0x08c379a000000000000000000000000000000000000000000000000000000000\n      dup2\n      mstore\n      0x04\n      add\n      tag_70\n      swap2\n      swap1\n      tag_71\n      jump\t// in\n    tag_70:\n      mload(0x40)\n      dup1\n      swap2\n      sub\n      swap1\n      revert\n    tag_69:\n      pop\n        /* \"contracts/modules/Controllers/Controllers.sol\":4617:4626  uint256 i */\n      0x00\n        /* \"contracts/modules/Controllers/Controllers.sol\":4612:4752  for (uint256 i = 0; i < _signatures.length; i++) {... */\n    tag_72:\n        /* \"contracts/modules/Controllers/Controllers.sol\":4636:4647  _signatures */\n      dup5\n      dup5\n        /* \"contracts/modules/Controllers/Controllers.sol\":4636:4654  _signatures.length */\n      swap1\n      pop\n        /* \"contracts/modules/Controllers/Controllers.sol\":4632:4633  i */\n      dup2\n        /* \"contracts/modules/Controllers/Controllers.sol\":4632:4654  i < _signatures.length */\n      lt\n        /* \"contracts/modules/Controllers/Controllers.sol\":4612:4752  for (uint256 i = 0; i < _signatures.length; i++) {... */\n      iszero\n      tag_73\n      jumpi\n        /* \"contracts/modules/Controllers/Controllers.sol\":4741:4745  true */\n      0x01\n        /* \"contracts/modules/Controllers/Controllers.sol\":4669:4696  ControllersStorage.layout() */\n      tag_75\n        /* \"contracts/modules/Controllers/Controllers.sol\":4669:4694  ControllersStorage.layout */\n      tag_61\n        /* \"contracts/modules/Controllers/Controllers.sol\":4669:4696  ControllersStorage.layout() */\n      jump\t// in\n    tag_75:\n        /* \"contracts/modules/Controllers/Controllers.sol\":4669:4711  ControllersStorage.layout().usedSignatures */\n      0x03\n      add\n        /* \"contracts/modules/Controllers/Controllers.sol\":4669:4738  ControllersStorage.layout().usedSignatures[keccak256(_signatures[i])] */\n      0x00\n        /* \"contracts/modules/Controllers/Controllers.sol\":4722:4733  _signatures */\n      dup8\n      dup8\n        /* \"contracts/modules/Controllers/Controllers.sol\":4734:4735  i */\n      dup6\n        /* \"contracts/modules/Controllers/Controllers.sol\":4722:4736  _signatures[i] */\n      dup2\n      dup2\n      lt\n      tag_76\n      jumpi\n      tag_77\n      tag_78\n      jump\t// in\n    tag_77:\n    tag_76:\n      swap1\n      pop\n      0x20\n      mul\n      dup2\n      add\n      swap1\n      tag_79\n      swap2\n      swap1\n      tag_80\n      jump\t// in\n    tag_79:\n        /* \"contracts/modules/Controllers/Controllers.sol\":4712:4737  keccak256(_signatures[i]) */\n      mload(0x40)\n      tag_81\n      swap3\n      swap2\n      swap1\n      tag_82\n      jump\t// in\n    tag_81:\n      mload(0x40)\n      dup1\n      swap2\n      sub\n      swap1\n      keccak256\n        /* \"contracts/modules/Controllers/Controllers.sol\":4669:4738  ControllersStorage.layout().usedSignatures[keccak256(_signatures[i])] */\n      dup2\n      mstore\n      0x20\n      add\n      swap1\n      dup2\n      mstore\n      0x20\n      add\n      0x00\n      keccak256\n      0x00\n        /* \"contracts/modules/Controllers/Controllers.sol\":4669:4745  ControllersStorage.layout().usedSignatures[keccak256(_signatures[i])] = true */\n      0x0100\n      exp\n      dup2\n      sload\n      dup2\n      0xff\n      mul\n      not\n      and\n      swap1\n      dup4\n      iszero\n      iszero\n      mul\n      or\n      swap1\n      sstore\n      pop\n        /* \"contracts/modules/Controllers/Controllers.sol\":4656:4659  i++ */\n      dup1\n      dup1\n      tag_83\n      swap1\n      tag_84\n      jump\t// in\n    tag_83:\n      swap2\n      pop\n      pop\n        /* \"contracts/modules/Controllers/Controllers.sol\":4612:4752  for (uint256 i = 0; i < _signatures.length; i++) {... */\n      jump(tag_72)\n    tag_73:\n      pop\n        /* \"contracts/modules/Controllers/Controllers.sol\":1431:1440  uint256 i */\n      0x00\n        /* \"contracts/modules/Controllers/Controllers.sol\":1426:1525  for (uint256 i = 0; i < _controllers.length; i++) {... */\n    tag_86:\n        /* \"contracts/modules/Controllers/Controllers.sol\":1450:1462  _controllers */\n      dup11\n      dup11\n        /* \"contracts/modules/Controllers/Controllers.sol\":1450:1469  _controllers.length */\n      swap1\n      pop\n        /* \"contracts/modules/Controllers/Controllers.sol\":1446:1447  i */\n      dup2\n        /* \"contracts/modules/Controllers/Controllers.sol\":1446:1469  i < _controllers.length */\n      lt\n        /* \"contracts/modules/Controllers/Controllers.sol\":1426:1525  for (uint256 i = 0; i < _controllers.length; i++) {... */\n      iszero\n      tag_87\n      jumpi\n        /* \"contracts/modules/Controllers/Controllers.sol\":1484:1518  _removeController(_controllers[i]) */\n      tag_89\n        /* \"contracts/modules/Controllers/Controllers.sol\":1502:1514  _controllers */\n      dup12\n      dup12\n        /* \"contracts/modules/Controllers/Controllers.sol\":1515:1516  i */\n      dup4\n        /* \"contracts/modules/Controllers/Controllers.sol\":1502:1517  _controllers[i] */\n      dup2\n      dup2\n      lt\n      tag_90\n      jumpi\n      tag_91\n      tag_78\n      jump\t// in\n    tag_91:\n    tag_90:\n      swap1\n      pop\n      0x20\n      mul\n      add\n      0x20\n      dup2\n      add\n      swap1\n      tag_92\n      swap2\n      swap1\n      tag_49\n      jump\t// in\n    tag_92:\n        /* \"contracts/modules/Controllers/Controllers.sol\":1484:1501  _removeController */\n      tag_93\n        /* \"contracts/modules/Controllers/Controllers.sol\":1484:1518  _removeController(_controllers[i]) */\n      jump\t// in\n    tag_89:\n        /* \"contracts/modules/Controllers/Controllers.sol\":1471:1474  i++ */\n      dup1\n      dup1\n      tag_94\n      swap1\n      tag_84\n      jump\t// in\n    tag_94:\n      swap2\n      pop\n      pop\n        /* \"contracts/modules/Controllers/Controllers.sol\":1426:1525  for (uint256 i = 0; i < _controllers.length; i++) {... */\n      jump(tag_86)\n    tag_87:\n      pop\n        /* \"contracts/modules/Controllers/Controllers.sol\":4463:4764  {... */\n      pop\n      pop\n        /* \"contracts/modules/Controllers/Controllers.sol\":1180:1529  function removeControllers(... */\n      pop\n      pop\n      pop\n      pop\n      pop\n      pop\n      pop\n      pop\n      jump\t// out\n        /* \"contracts/modules/Controllers/Controllers.sol\":1932:2385  function updateControlThreshold(... */\n    tag_31:\n        /* \"contracts/modules/Controllers/Controllers.sol\":2110:2120  _threshold */\n      dup4\n        /* \"contracts/modules/Controllers/Controllers.sol\":2122:2128  _nonce */\n      dup4\n        /* \"contracts/modules/Controllers/Controllers.sol\":2130:2143  block.chainid */\n      chainid\n        /* \"contracts/modules/Controllers/Controllers.sol\":2099:2144  abi.encode(_threshold, _nonce, block.chainid) */\n      add(0x20, mload(0x40))\n      tag_95\n      swap4\n      swap3\n      swap2\n      swap1\n      tag_96\n      jump\t// in\n    tag_95:\n      mload(0x40)\n      0x20\n      dup2\n      dup4\n      sub\n      sub\n      dup2\n      mstore\n      swap1\n      0x40\n      mstore\n        /* \"contracts/modules/Controllers/Controllers.sol\":2089:2145  keccak256(abi.encode(_threshold, _nonce, block.chainid)) */\n      dup1\n      mload\n      swap1\n      0x20\n      add\n      keccak256\n        /* \"contracts/modules/Controllers/Controllers.sol\":2147:2158  _signatures */\n      dup3\n      dup3\n        /* \"contracts/modules/Controllers/Controllers.sol\":4470:4483  bool verified */\n      0x00\n        /* \"contracts/modules/Controllers/Controllers.sol\":4485:4504  string memory error */\n      dup1\n        /* \"contracts/modules/Controllers/Controllers.sol\":4508:4571  verifyControllersThresholdBySignatures(_inputHash, _signatures) */\n      tag_98\n        /* \"contracts/modules/Controllers/Controllers.sol\":4547:4557  _inputHash */\n      dup6\n        /* \"contracts/modules/Controllers/Controllers.sol\":4559:4570  _signatures */\n      dup6\n      dup6\n        /* \"contracts/modules/Controllers/Controllers.sol\":4508:4571  verifyControllersThresholdBySignatures(_inputHash, _signatures) */\n      swap1\n      tag_99\n      swap2\n      swap1\n      tag_67\n      jump\t// in\n    tag_99:\n        /* \"contracts/modules/Controllers/Controllers.sol\":4508:4546  verifyControllersThresholdBySignatures */\n      tag_68\n        /* \"contracts/modules/Controllers/Controllers.sol\":4508:4571  verifyControllersThresholdBySignatures(_inputHash, _signatures) */\n      jump\t// in\n    tag_98:\n        /* \"contracts/modules/Controllers/Controllers.sol\":4469:4571  (bool verified, string memory error) = verifyControllersThresholdBySignatures(_inputHash, _signatures) */\n      swap2\n      pop\n      swap2\n      pop\n        /* \"contracts/modules/Controllers/Controllers.sol\":4585:4593  verified */\n      dup2\n        /* \"contracts/modules/Controllers/Controllers.sol\":4595:4600  error */\n      dup2\n        /* \"contracts/modules/Controllers/Controllers.sol\":4577:4601  require(verified, error) */\n      swap1\n      tag_100\n      jumpi\n      mload(0x40)\n      0x08c379a000000000000000000000000000000000000000000000000000000000\n      dup2\n      mstore\n      0x04\n      add\n      tag_101\n      swap2\n      swap1\n      tag_71\n      jump\t// in\n    tag_101:\n      mload(0x40)\n      dup1\n      swap2\n      sub\n      swap1\n      revert\n    tag_100:\n      pop\n        /* \"contracts/modules/Controllers/Controllers.sol\":4617:4626  uint256 i */\n      0x00\n        /* \"contracts/modules/Controllers/Controllers.sol\":4612:4752  for (uint256 i = 0; i < _signatures.length; i++) {... */\n    tag_102:\n        /* \"contracts/modules/Controllers/Controllers.sol\":4636:4647  _signatures */\n      dup5\n      dup5\n        /* \"contracts/modules/Controllers/Controllers.sol\":4636:4654  _signatures.length */\n      swap1\n      pop\n        /* \"contracts/modules/Controllers/Controllers.sol\":4632:4633  i */\n      dup2\n        /* \"contracts/modules/Controllers/Controllers.sol\":4632:4654  i < _signatures.length */\n      lt\n        /* \"contracts/modules/Controllers/Controllers.sol\":4612:4752  for (uint256 i = 0; i < _signatures.length; i++) {... */\n      iszero\n      tag_103\n      jumpi\n        /* \"contracts/modules/Controllers/Controllers.sol\":4741:4745  true */\n      0x01\n        /* \"contracts/modules/Controllers/Controllers.sol\":4669:4696  ControllersStorage.layout() */\n      tag_105\n        /* \"contracts/modules/Controllers/Controllers.sol\":4669:4694  ControllersStorage.layout */\n      tag_61\n        /* \"contracts/modules/Controllers/Controllers.sol\":4669:4696  ControllersStorage.layout() */\n      jump\t// in\n    tag_105:\n        /* \"contracts/modules/Controllers/Controllers.sol\":4669:4711  ControllersStorage.layout().usedSignatures */\n      0x03\n      add\n        /* \"contracts/modules/Controllers/Controllers.sol\":4669:4738  ControllersStorage.layout().usedSignatures[keccak256(_signatures[i])] */\n      0x00\n        /* \"contracts/modules/Controllers/Controllers.sol\":4722:4733  _signatures */\n      dup8\n      dup8\n        /* \"contracts/modules/Controllers/Controllers.sol\":4734:4735  i */\n      dup6\n        /* \"contracts/modules/Controllers/Controllers.sol\":4722:4736  _signatures[i] */\n      dup2\n      dup2\n      lt\n      tag_106\n      jumpi\n      tag_107\n      tag_78\n      jump\t// in\n    tag_107:\n    tag_106:\n      swap1\n      pop\n      0x20\n      mul\n      dup2\n      add\n      swap1\n      tag_108\n      swap2\n      swap1\n      tag_80\n      jump\t// in\n    tag_108:\n        /* \"contracts/modules/Controllers/Controllers.sol\":4712:4737  keccak256(_signatures[i]) */\n      mload(0x40)\n      tag_109\n      swap3\n      swap2\n      swap1\n      tag_82\n      jump\t// in\n    tag_109:\n      mload(0x40)\n      dup1\n      swap2\n      sub\n      swap1\n      keccak256\n        /* \"contracts/modules/Controllers/Controllers.sol\":4669:4738  ControllersStorage.layout().usedSignatures[keccak256(_signatures[i])] */\n      dup2\n      mstore\n      0x20\n      add\n      swap1\n      dup2\n      mstore\n      0x20\n      add\n      0x00\n      keccak256\n      0x00\n        /* \"contracts/modules/Controllers/Controllers.sol\":4669:4745  ControllersStorage.layout().usedSignatures[keccak256(_signatures[i])] = true */\n      0x0100\n      exp\n      dup2\n      sload\n      dup2\n      0xff\n      mul\n      not\n      and\n      swap1\n      dup4\n      iszero\n      iszero\n      mul\n      or\n      swap1\n      sstore\n      pop\n        /* \"contracts/modules/Controllers/Controllers.sol\":4656:4659  i++ */\n      dup1\n      dup1\n      tag_110\n      swap1\n      tag_84\n      jump\t// in\n    tag_110:\n      swap2\n      pop\n      pop\n        /* \"contracts/modules/Controllers/Controllers.sol\":4612:4752  for (uint256 i = 0; i < _signatures.length; i++) {... */\n      jump(tag_102)\n    tag_103:\n      pop\n        /* \"contracts/modules/Controllers/Controllers.sol\":2216:2217  0 */\n      0x00\n        /* \"contracts/modules/Controllers/Controllers.sol\":2176:2203  ControllersStorage.layout() */\n      tag_112\n        /* \"contracts/modules/Controllers/Controllers.sol\":2176:2201  ControllersStorage.layout */\n      tag_61\n        /* \"contracts/modules/Controllers/Controllers.sol\":2176:2203  ControllersStorage.layout() */\n      jump\t// in\n    tag_112:\n        /* \"contracts/modules/Controllers/Controllers.sol\":2176:2213  ControllersStorage.layout().threshold */\n      0x00\n      add\n      sload\n        /* \"contracts/modules/Controllers/Controllers.sol\":2176:2217  ControllersStorage.layout().threshold > 0 */\n      gt\n        /* \"contracts/modules/Controllers/Controllers.sol\":2176:2302  ControllersStorage.layout().threshold > 0 && ControllersStorage.layout().threshold <= ControllersStorage.layout().totalWeights */\n      dup1\n      iszero\n      tag_113\n      jumpi\n      pop\n        /* \"contracts/modules/Controllers/Controllers.sol\":2262:2289  ControllersStorage.layout() */\n      tag_114\n        /* \"contracts/modules/Controllers/Controllers.sol\":2262:2287  ControllersStorage.layout */\n      tag_61\n        /* \"contracts/modules/Controllers/Controllers.sol\":2262:2289  ControllersStorage.layout() */\n      jump\t// in\n    tag_114:\n        /* \"contracts/modules/Controllers/Controllers.sol\":2262:2302  ControllersStorage.layout().totalWeights */\n      0x01\n      add\n      sload\n        /* \"contracts/modules/Controllers/Controllers.sol\":2221:2248  ControllersStorage.layout() */\n      tag_115\n        /* \"contracts/modules/Controllers/Controllers.sol\":2221:2246  ControllersStorage.layout */\n      tag_61\n        /* \"contracts/modules/Controllers/Controllers.sol\":2221:2248  ControllersStorage.layout() */\n      jump\t// in\n    tag_115:\n        /* \"contracts/modules/Controllers/Controllers.sol\":2221:2258  ControllersStorage.layout().threshold */\n      0x00\n      add\n      sload\n        /* \"contracts/modules/Controllers/Controllers.sol\":2221:2302  ControllersStorage.layout().threshold <= ControllersStorage.layout().totalWeights */\n      gt\n      iszero\n        /* \"contracts/modules/Controllers/Controllers.sol\":2176:2302  ControllersStorage.layout().threshold > 0 && ControllersStorage.layout().threshold <= ControllersStorage.layout().totalWeights */\n    tag_113:\n        /* \"contracts/modules/Controllers/Controllers.sol\":2168:2324  require(ControllersStorage.layout().threshold > 0 && ControllersStorage.layout().threshold <= ControllersStorage.layout().totalWeights, \"Invalid threshold\") */\n      tag_116\n      jumpi\n      mload(0x40)\n      0x08c379a000000000000000000000000000000000000000000000000000000000\n      dup2\n      mstore\n      0x04\n      add\n      tag_117\n      swap1\n      tag_118\n      jump\t// in\n    tag_117:\n      mload(0x40)\n      dup1\n      swap2\n      sub\n      swap1\n      revert\n    tag_116:\n        /* \"contracts/modules/Controllers/Controllers.sol\":2370:2380  _threshold */\n      dup9\n        /* \"contracts/modules/Controllers/Controllers.sol\":2330:2357  ControllersStorage.layout() */\n      tag_119\n        /* \"contracts/modules/Controllers/Controllers.sol\":2330:2355  ControllersStorage.layout */\n      tag_61\n        /* \"contracts/modules/Controllers/Controllers.sol\":2330:2357  ControllersStorage.layout() */\n      jump\t// in\n    tag_119:\n        /* \"contracts/modules/Controllers/Controllers.sol\":2330:2367  ControllersStorage.layout().threshold */\n      0x00\n      add\n        /* \"contracts/modules/Controllers/Controllers.sol\":2330:2380  ControllersStorage.layout().threshold = _threshold */\n      dup2\n      swap1\n      sstore\n      pop\n        /* \"contracts/modules/Controllers/Controllers.sol\":4463:4764  {... */\n      pop\n      pop\n        /* \"contracts/modules/Controllers/Controllers.sol\":1932:2385  function updateControlThreshold(... */\n      pop\n      pop\n      pop\n      pop\n      pop\n      pop\n      pop\n      jump\t// out\n        /* \"contracts/modules/Upgrades/Upgrades.sol\":460:844  function upgrade(... */\n    tag_35:\n        /* \"contracts/modules/Upgrades/Upgrades.sol\":629:644  _implementation */\n      dup4\n        /* \"contracts/modules/Upgrades/Upgrades.sol\":646:652  _nonce */\n      dup4\n        /* \"contracts/modules/Upgrades/Upgrades.sol\":654:667  block.chainid */\n      chainid\n        /* \"contracts/modules/Upgrades/Upgrades.sol\":618:668  abi.encode(_implementation, _nonce, block.chainid) */\n      add(0x20, mload(0x40))\n      tag_120\n      swap4\n      swap3\n      swap2\n      swap1\n      tag_121\n      jump\t// in\n    tag_120:\n      mload(0x40)\n      0x20\n      dup2\n      dup4\n      sub\n      sub\n      dup2\n      mstore\n      swap1\n      0x40\n      mstore\n        /* \"contracts/modules/Upgrades/Upgrades.sol\":608:669  keccak256(abi.encode(_implementation, _nonce, block.chainid)) */\n      dup1\n      mload\n      swap1\n      0x20\n      add\n      keccak256\n        /* \"contracts/modules/Upgrades/Upgrades.sol\":671:682  _signatures */\n      dup3\n      dup3\n        /* \"contracts/modules/Controllers/Controllers.sol\":4470:4483  bool verified */\n      0x00\n        /* \"contracts/modules/Controllers/Controllers.sol\":4485:4504  string memory error */\n      dup1\n        /* \"contracts/modules/Controllers/Controllers.sol\":4508:4571  verifyControllersThresholdBySignatures(_inputHash, _signatures) */\n      tag_123\n        /* \"contracts/modules/Controllers/Controllers.sol\":4547:4557  _inputHash */\n      dup6\n        /* \"contracts/modules/Controllers/Controllers.sol\":4559:4570  _signatures */\n      dup6\n      dup6\n        /* \"contracts/modules/Controllers/Controllers.sol\":4508:4571  verifyControllersThresholdBySignatures(_inputHash, _signatures) */\n      swap1\n      tag_124\n      swap2\n      swap1\n      tag_67\n      jump\t// in\n    tag_124:\n        /* \"contracts/modules/Controllers/Controllers.sol\":4508:4546  verifyControllersThresholdBySignatures */\n      tag_68\n        /* \"contracts/modules/Controllers/Controllers.sol\":4508:4571  verifyControllersThresholdBySignatures(_inputHash, _signatures) */\n      jump\t// in\n    tag_123:\n        /* \"contracts/modules/Controllers/Controllers.sol\":4469:4571  (bool verified, string memory error) = verifyControllersThresholdBySignatures(_inputHash, _signatures) */\n      swap2\n      pop\n      swap2\n      pop\n        /* \"contracts/modules/Controllers/Controllers.sol\":4585:4593  verified */\n      dup2\n        /* \"contracts/modules/Controllers/Controllers.sol\":4595:4600  error */\n      dup2\n        /* \"contracts/modules/Controllers/Controllers.sol\":4577:4601  require(verified, error) */\n      swap1\n      tag_125\n      jumpi\n      mload(0x40)\n      0x08c379a000000000000000000000000000000000000000000000000000000000\n      dup2\n      mstore\n      0x04\n      add\n      tag_126\n      swap2\n      swap1\n      tag_71\n      jump\t// in\n    tag_126:\n      mload(0x40)\n      dup1\n      swap2\n      sub\n      swap1\n      revert\n    tag_125:\n      pop\n        /* \"contracts/modules/Controllers/Controllers.sol\":4617:4626  uint256 i */\n      0x00\n        /* \"contracts/modules/Controllers/Controllers.sol\":4612:4752  for (uint256 i = 0; i < _signatures.length; i++) {... */\n    tag_127:\n        /* \"contracts/modules/Controllers/Controllers.sol\":4636:4647  _signatures */\n      dup5\n      dup5\n        /* \"contracts/modules/Controllers/Controllers.sol\":4636:4654  _signatures.length */\n      swap1\n      pop\n        /* \"contracts/modules/Controllers/Controllers.sol\":4632:4633  i */\n      dup2\n        /* \"contracts/modules/Controllers/Controllers.sol\":4632:4654  i < _signatures.length */\n      lt\n        /* \"contracts/modules/Controllers/Controllers.sol\":4612:4752  for (uint256 i = 0; i < _signatures.length; i++) {... */\n      iszero\n      tag_128\n      jumpi\n        /* \"contracts/modules/Controllers/Controllers.sol\":4741:4745  true */\n      0x01\n        /* \"contracts/modules/Controllers/Controllers.sol\":4669:4696  ControllersStorage.layout() */\n      tag_130\n        /* \"contracts/modules/Controllers/Controllers.sol\":4669:4694  ControllersStorage.layout */\n      tag_61\n        /* \"contracts/modules/Controllers/Controllers.sol\":4669:4696  ControllersStorage.layout() */\n      jump\t// in\n    tag_130:\n        /* \"contracts/modules/Controllers/Controllers.sol\":4669:4711  ControllersStorage.layout().usedSignatures */\n      0x03\n      add\n        /* \"contracts/modules/Controllers/Controllers.sol\":4669:4738  ControllersStorage.layout().usedSignatures[keccak256(_signatures[i])] */\n      0x00\n        /* \"contracts/modules/Controllers/Controllers.sol\":4722:4733  _signatures */\n      dup8\n      dup8\n        /* \"contracts/modules/Controllers/Controllers.sol\":4734:4735  i */\n      dup6\n        /* \"contracts/modules/Controllers/Controllers.sol\":4722:4736  _signatures[i] */\n      dup2\n      dup2\n      lt\n      tag_131\n      jumpi\n      tag_132\n      tag_78\n      jump\t// in\n    tag_132:\n    tag_131:\n      swap1\n      pop\n      0x20\n      mul\n      dup2\n      add\n      swap1\n      tag_133\n      swap2\n      swap1\n      tag_80\n      jump\t// in\n    tag_133:\n        /* \"contracts/modules/Controllers/Controllers.sol\":4712:4737  keccak256(_signatures[i]) */\n      mload(0x40)\n      tag_134\n      swap3\n      swap2\n      swap1\n      tag_82\n      jump\t// in\n    tag_134:\n      mload(0x40)\n      dup1\n      swap2\n      sub\n      swap1\n      keccak256\n        /* \"contracts/modules/Controllers/Controllers.sol\":4669:4738  ControllersStorage.layout().usedSignatures[keccak256(_signatures[i])] */\n      dup2\n      mstore\n      0x20\n      add\n      swap1\n      dup2\n      mstore\n      0x20\n      add\n      0x00\n      keccak256\n      0x00\n        /* \"contracts/modules/Controllers/Controllers.sol\":4669:4745  ControllersStorage.layout().usedSignatures[keccak256(_signatures[i])] = true */\n      0x0100\n      exp\n      dup2\n      sload\n      dup2\n      0xff\n      mul\n      not\n      and\n      swap1\n      dup4\n      iszero\n      iszero\n      mul\n      or\n      swap1\n      sstore\n      pop\n        /* \"contracts/modules/Controllers/Controllers.sol\":4656:4659  i++ */\n      dup1\n      dup1\n      tag_135\n      swap1\n      tag_84\n      jump\t// in\n    tag_135:\n      swap2\n      pop\n      pop\n        /* \"contracts/modules/Controllers/Controllers.sol\":4612:4752  for (uint256 i = 0; i < _signatures.length; i++) {... */\n      jump(tag_127)\n    tag_128:\n      pop\n        /* \"contracts/modules/Upgrades/Upgrades.sol\":710:725  _implementation */\n      dup9\n        /* \"contracts/modules/Upgrades/Upgrades.sol\":700:743  IUpgrades(_implementation).supportsUpgrades */\n      0xffffffffffffffffffffffffffffffffffffffff\n      and\n      0xfec5c09a\n        /* \"contracts/modules/Upgrades/Upgrades.sol\":700:745  IUpgrades(_implementation).supportsUpgrades() */\n      mload(0x40)\n      dup2\n      0xffffffff\n      and\n      0xe0\n      shl\n      dup2\n      mstore\n      0x04\n      add\n      0x20\n      mload(0x40)\n      dup1\n      dup4\n      sub\n      dup2\n      dup7\n      gas\n      staticcall\n      iszero\n      dup1\n      iszero\n      tag_138\n      jumpi\n      returndatasize\n      0x00\n      dup1\n      returndatacopy\n      revert(0x00, returndatasize)\n    tag_138:\n      pop\n      pop\n      pop\n      pop\n      mload(0x40)\n      returndatasize\n      not(0x1f)\n      0x1f\n      dup3\n      add\n      and\n      dup3\n      add\n      dup1\n      0x40\n      mstore\n      pop\n      dup2\n      add\n      swap1\n      tag_139\n      swap2\n      swap1\n      tag_140\n      jump\t// in\n    tag_139:\n        /* \"contracts/modules/Upgrades/Upgrades.sol\":692:772  require(IUpgrades(_implementation).supportsUpgrades(), \"Invalid implementation\") */\n      tag_141\n      jumpi\n      mload(0x40)\n      0x08c379a000000000000000000000000000000000000000000000000000000000\n      dup2\n      mstore\n      0x04\n      add\n      tag_142\n      swap1\n      tag_143\n      jump\t// in\n    tag_142:\n      mload(0x40)\n      dup1\n      swap2\n      sub\n      swap1\n      revert\n    tag_141:\n        /* \"contracts/modules/Upgrades/Upgrades.sol\":818:833  _implementation */\n      dup9\n        /* \"contracts/modules/Upgrades/Upgrades.sol\":807:816  address() */\n      address\n        /* \"contracts/modules/Upgrades/Upgrades.sol\":800:834  sstore(address(), _implementation) */\n      sstore\n        /* \"contracts/modules/Controllers/Controllers.sol\":4463:4764  {... */\n      pop\n      pop\n        /* \"contracts/modules/Upgrades/Upgrades.sol\":460:844  function upgrade(... */\n      pop\n      pop\n      pop\n      pop\n      pop\n      pop\n      pop\n      jump\t// out\n        /* \"contracts/modules/Controllers/Controllers.sol\":3052:3167  function controlThreshold() external view returns (uint256) {... */\n    tag_37:\n        /* \"contracts/modules/Controllers/Controllers.sol\":3103:3110  uint256 */\n      0x00\n        /* \"contracts/modules/Controllers/Controllers.sol\":3125:3152  ControllersStorage.layout() */\n      tag_145\n        /* \"contracts/modules/Controllers/Controllers.sol\":3125:3150  ControllersStorage.layout */\n      tag_61\n        /* \"contracts/modules/Controllers/Controllers.sol\":3125:3152  ControllersStorage.layout() */\n      jump\t// in\n    tag_145:\n        /* \"contracts/modules/Controllers/Controllers.sol\":3125:3162  ControllersStorage.layout().threshold */\n      0x00\n      add\n      sload\n        /* \"contracts/modules/Controllers/Controllers.sol\":3118:3162  return ControllersStorage.layout().threshold */\n      swap1\n      pop\n        /* \"contracts/modules/Controllers/Controllers.sol\":3052:3167  function controlThreshold() external view returns (uint256) {... */\n      swap1\n      jump\t// out\n        /* \"contracts/modules/Controllers/Controllers.sol\":569:971  function addControllers(... */\n    tag_42:\n        /* \"contracts/modules/Controllers/Controllers.sol\":787:799  _controllers */\n      dup7\n      dup7\n        /* \"contracts/modules/Controllers/Controllers.sol\":801:809  _weights */\n      dup7\n      dup7\n        /* \"contracts/modules/Controllers/Controllers.sol\":811:817  _nonce */\n      dup7\n        /* \"contracts/modules/Controllers/Controllers.sol\":819:832  block.chainid */\n      chainid\n        /* \"contracts/modules/Controllers/Controllers.sol\":776:833  abi.encode(_controllers, _weights, _nonce, block.chainid) */\n      add(0x20, mload(0x40))\n      tag_146\n      swap7\n      swap6\n      swap5\n      swap4\n      swap3\n      swap2\n      swap1\n      tag_147\n      jump\t// in\n    tag_146:\n      mload(0x40)\n      0x20\n      dup2\n      dup4\n      sub\n      sub\n      dup2\n      mstore\n      swap1\n      0x40\n      mstore\n        /* \"contracts/modules/Controllers/Controllers.sol\":766:834  keccak256(abi.encode(_controllers, _weights, _nonce, block.chainid)) */\n      dup1\n      mload\n      swap1\n      0x20\n      add\n      keccak256\n        /* \"contracts/modules/Controllers/Controllers.sol\":836:847  _signatures */\n      dup3\n      dup3\n        /* \"contracts/modules/Controllers/Controllers.sol\":4470:4483  bool verified */\n      0x00\n        /* \"contracts/modules/Controllers/Controllers.sol\":4485:4504  string memory error */\n      dup1\n        /* \"contracts/modules/Controllers/Controllers.sol\":4508:4571  verifyControllersThresholdBySignatures(_inputHash, _signatures) */\n      tag_149\n        /* \"contracts/modules/Controllers/Controllers.sol\":4547:4557  _inputHash */\n      dup6\n        /* \"contracts/modules/Controllers/Controllers.sol\":4559:4570  _signatures */\n      dup6\n      dup6\n        /* \"contracts/modules/Controllers/Controllers.sol\":4508:4571  verifyControllersThresholdBySignatures(_inputHash, _signatures) */\n      swap1\n      tag_150\n      swap2\n      swap1\n      tag_67\n      jump\t// in\n    tag_150:\n        /* \"contracts/modules/Controllers/Controllers.sol\":4508:4546  verifyControllersThresholdBySignatures */\n      tag_68\n        /* \"contracts/modules/Controllers/Controllers.sol\":4508:4571  verifyControllersThresholdBySignatures(_inputHash, _signatures) */\n      jump\t// in\n    tag_149:\n        /* \"contracts/modules/Controllers/Controllers.sol\":4469:4571  (bool verified, string memory error) = verifyControllersThresholdBySignatures(_inputHash, _signatures) */\n      swap2\n      pop\n      swap2\n      pop\n        /* \"contracts/modules/Controllers/Controllers.sol\":4585:4593  verified */\n      dup2\n        /* \"contracts/modules/Controllers/Controllers.sol\":4595:4600  error */\n      dup2\n        /* \"contracts/modules/Controllers/Controllers.sol\":4577:4601  require(verified, error) */\n      swap1\n      tag_151\n      jumpi\n      mload(0x40)\n      0x08c379a000000000000000000000000000000000000000000000000000000000\n      dup2\n      mstore\n      0x04\n      add\n      tag_152\n      swap2\n      swap1\n      tag_71\n      jump\t// in\n    tag_152:\n      mload(0x40)\n      dup1\n      swap2\n      sub\n      swap1\n      revert\n    tag_151:\n      pop\n        /* \"contracts/modules/Controllers/Controllers.sol\":4617:4626  uint256 i */\n      0x00\n        /* \"contracts/modules/Controllers/Controllers.sol\":4612:4752  for (uint256 i = 0; i < _signatures.length; i++) {... */\n    tag_153:\n        /* \"contracts/modules/Controllers/Controllers.sol\":4636:4647  _signatures */\n      dup5\n      dup5\n        /* \"contracts/modules/Controllers/Controllers.sol\":4636:4654  _signatures.length */\n      swap1\n      pop\n        /* \"contracts/modules/Controllers/Controllers.sol\":4632:4633  i */\n      dup2\n        /* \"contracts/modules/Controllers/Controllers.sol\":4632:4654  i < _signatures.length */\n      lt\n        /* \"contracts/modules/Controllers/Controllers.sol\":4612:4752  for (uint256 i = 0; i < _signatures.length; i++) {... */\n      iszero\n      tag_154\n      jumpi\n        /* \"contracts/modules/Controllers/Controllers.sol\":4741:4745  true */\n      0x01\n        /* \"contracts/modules/Controllers/Controllers.sol\":4669:4696  ControllersStorage.layout() */\n      tag_156\n        /* \"contracts/modules/Controllers/Controllers.sol\":4669:4694  ControllersStorage.layout */\n      tag_61\n        /* \"contracts/modules/Controllers/Controllers.sol\":4669:4696  ControllersStorage.layout() */\n      jump\t// in\n    tag_156:\n        /* \"contracts/modules/Controllers/Controllers.sol\":4669:4711  ControllersStorage.layout().usedSignatures */\n      0x03\n      add\n        /* \"contracts/modules/Controllers/Controllers.sol\":4669:4738  ControllersStorage.layout().usedSignatures[keccak256(_signatures[i])] */\n      0x00\n        /* \"contracts/modules/Controllers/Controllers.sol\":4722:4733  _signatures */\n      dup8\n      dup8\n        /* \"contracts/modules/Controllers/Controllers.sol\":4734:4735  i */\n      dup6\n        /* \"contracts/modules/Controllers/Controllers.sol\":4722:4736  _signatures[i] */\n      dup2\n      dup2\n      lt\n      tag_157\n      jumpi\n      tag_158\n      tag_78\n      jump\t// in\n    tag_158:\n    tag_157:\n      swap1\n      pop\n      0x20\n      mul\n      dup2\n      add\n      swap1\n      tag_159\n      swap2\n      swap1\n      tag_80\n      jump\t// in\n    tag_159:\n        /* \"contracts/modules/Controllers/Controllers.sol\":4712:4737  keccak256(_signatures[i]) */\n      mload(0x40)\n      tag_160\n      swap3\n      swap2\n      swap1\n      tag_82\n      jump\t// in\n    tag_160:\n      mload(0x40)\n      dup1\n      swap2\n      sub\n      swap1\n      keccak256\n        /* \"contracts/modules/Controllers/Controllers.sol\":4669:4738  ControllersStorage.layout().usedSignatures[keccak256(_signatures[i])] */\n      dup2\n      mstore\n      0x20\n      add\n      swap1\n      dup2\n      mstore\n      0x20\n      add\n      0x00\n      keccak256\n      0x00\n        /* \"contracts/modules/Controllers/Controllers.sol\":4669:4745  ControllersStorage.layout().usedSignatures[keccak256(_signatures[i])] = true */\n      0x0100\n      exp\n      dup2\n      sload\n      dup2\n      0xff\n      mul\n      not\n      and\n      swap1\n      dup4\n      iszero\n      iszero\n      mul\n      or\n      swap1\n      sstore\n      pop\n        /* \"contracts/modules/Controllers/Controllers.sol\":4656:4659  i++ */\n      dup1\n      dup1\n      tag_161\n      swap1\n      tag_84\n      jump\t// in\n    tag_161:\n      swap2\n      pop\n      pop\n        /* \"contracts/modules/Controllers/Controllers.sol\":4612:4752  for (uint256 i = 0; i < _signatures.length; i++) {... */\n      jump(tag_153)\n    tag_154:\n      pop\n        /* \"contracts/modules/Controllers/Controllers.sol\":863:872  uint256 i */\n      0x00\n        /* \"contracts/modules/Controllers/Controllers.sol\":858:967  for (uint256 i = 0; i < _controllers.length; i++) {... */\n    tag_163:\n        /* \"contracts/modules/Controllers/Controllers.sol\":882:894  _controllers */\n      dup13\n      dup13\n        /* \"contracts/modules/Controllers/Controllers.sol\":882:901  _controllers.length */\n      swap1\n      pop\n        /* \"contracts/modules/Controllers/Controllers.sol\":878:879  i */\n      dup2\n        /* \"contracts/modules/Controllers/Controllers.sol\":878:901  i < _controllers.length */\n      lt\n        /* \"contracts/modules/Controllers/Controllers.sol\":858:967  for (uint256 i = 0; i < _controllers.length; i++) {... */\n      iszero\n      tag_164\n      jumpi\n        /* \"contracts/modules/Controllers/Controllers.sol\":916:960  _addController(_controllers[i], _weights[i]) */\n      tag_166\n        /* \"contracts/modules/Controllers/Controllers.sol\":931:943  _controllers */\n      dup14\n      dup14\n        /* \"contracts/modules/Controllers/Controllers.sol\":944:945  i */\n      dup4\n        /* \"contracts/modules/Controllers/Controllers.sol\":931:946  _controllers[i] */\n      dup2\n      dup2\n      lt\n      tag_167\n      jumpi\n      tag_168\n      tag_78\n      jump\t// in\n    tag_168:\n    tag_167:\n      swap1\n      pop\n      0x20\n      mul\n      add\n      0x20\n      dup2\n      add\n      swap1\n      tag_169\n      swap2\n      swap1\n      tag_49\n      jump\t// in\n    tag_169:\n        /* \"contracts/modules/Controllers/Controllers.sol\":948:956  _weights */\n      dup13\n      dup13\n        /* \"contracts/modules/Controllers/Controllers.sol\":957:958  i */\n      dup5\n        /* \"contracts/modules/Controllers/Controllers.sol\":948:959  _weights[i] */\n      dup2\n      dup2\n      lt\n      tag_170\n      jumpi\n      tag_171\n      tag_78\n      jump\t// in\n    tag_171:\n    tag_170:\n      swap1\n      pop\n      0x20\n      mul\n      add\n      calldataload\n        /* \"contracts/modules/Controllers/Controllers.sol\":916:930  _addController */\n      tag_172\n        /* \"contracts/modules/Controllers/Controllers.sol\":916:960  _addController(_controllers[i], _weights[i]) */\n      jump\t// in\n    tag_166:\n        /* \"contracts/modules/Controllers/Controllers.sol\":903:906  i++ */\n      dup1\n      dup1\n      tag_173\n      swap1\n      tag_84\n      jump\t// in\n    tag_173:\n      swap2\n      pop\n      pop\n        /* \"contracts/modules/Controllers/Controllers.sol\":858:967  for (uint256 i = 0; i < _controllers.length; i++) {... */\n      jump(tag_163)\n    tag_164:\n      pop\n        /* \"contracts/modules/Controllers/Controllers.sol\":4463:4764  {... */\n      pop\n      pop\n        /* \"contracts/modules/Controllers/Controllers.sol\":569:971  function addControllers(... */\n      pop\n      pop\n      pop\n      pop\n      pop\n      pop\n      pop\n      pop\n      pop\n      pop\n      jump\t// out\n        /* \"contracts/modules/Controllers/Controllers.sol\":2389:3048  function updateControllerWeight(... */\n    tag_46:\n        /* \"contracts/modules/Controllers/Controllers.sol\":2589:2600  _controller */\n      dup5\n        /* \"contracts/modules/Controllers/Controllers.sol\":2602:2609  _weight */\n      dup5\n        /* \"contracts/modules/Controllers/Controllers.sol\":2611:2617  _nonce */\n      dup5\n        /* \"contracts/modules/Controllers/Controllers.sol\":2619:2632  block.chainid */\n      chainid\n        /* \"contracts/modules/Controllers/Controllers.sol\":2578:2633  abi.encode(_controller, _weight, _nonce, block.chainid) */\n      add(0x20, mload(0x40))\n      tag_174\n      swap5\n      swap4\n      swap3\n      swap2\n      swap1\n      tag_175\n      jump\t// in\n    tag_174:\n      mload(0x40)\n      0x20\n      dup2\n      dup4\n      sub\n      sub\n      dup2\n      mstore\n      swap1\n      0x40\n      mstore\n        /* \"contracts/modules/Controllers/Controllers.sol\":2568:2634  keccak256(abi.encode(_controller, _weight, _nonce, block.chainid)) */\n      dup1\n      mload\n      swap1\n      0x20\n      add\n      keccak256\n        /* \"contracts/modules/Controllers/Controllers.sol\":2636:2647  _signatures */\n      dup3\n      dup3\n        /* \"contracts/modules/Controllers/Controllers.sol\":4470:4483  bool verified */\n      0x00\n        /* \"contracts/modules/Controllers/Controllers.sol\":4485:4504  string memory error */\n      dup1\n        /* \"contracts/modules/Controllers/Controllers.sol\":4508:4571  verifyControllersThresholdBySignatures(_inputHash, _signatures) */\n      tag_177\n        /* \"contracts/modules/Controllers/Controllers.sol\":4547:4557  _inputHash */\n      dup6\n        /* \"contracts/modules/Controllers/Controllers.sol\":4559:4570  _signatures */\n      dup6\n      dup6\n        /* \"contracts/modules/Controllers/Controllers.sol\":4508:4571  verifyControllersThresholdBySignatures(_inputHash, _signatures) */\n      swap1\n      tag_178\n      swap2\n      swap1\n      tag_67\n      jump\t// in\n    tag_178:\n        /* \"contracts/modules/Controllers/Controllers.sol\":4508:4546  verifyControllersThresholdBySignatures */\n      tag_68\n        /* \"contracts/modules/Controllers/Controllers.sol\":4508:4571  verifyControllersThresholdBySignatures(_inputHash, _signatures) */\n      jump\t// in\n    tag_177:\n        /* \"contracts/modules/Controllers/Controllers.sol\":4469:4571  (bool verified, string memory error) = verifyControllersThresholdBySignatures(_inputHash, _signatures) */\n      swap2\n      pop\n      swap2\n      pop\n        /* \"contracts/modules/Controllers/Controllers.sol\":4585:4593  verified */\n      dup2\n        /* \"contracts/modules/Controllers/Controllers.sol\":4595:4600  error */\n      dup2\n        /* \"contracts/modules/Controllers/Controllers.sol\":4577:4601  require(verified, error) */\n      swap1\n      tag_179\n      jumpi\n      mload(0x40)\n      0x08c379a000000000000000000000000000000000000000000000000000000000\n      dup2\n      mstore\n      0x04\n      add\n      tag_180\n      swap2\n      swap1\n      tag_71\n      jump\t// in\n    tag_180:\n      mload(0x40)\n      dup1\n      swap2\n      sub\n      swap1\n      revert\n    tag_179:\n      pop\n        /* \"contracts/modules/Controllers/Controllers.sol\":4617:4626  uint256 i */\n      0x00\n        /* \"contracts/modules/Controllers/Controllers.sol\":4612:4752  for (uint256 i = 0; i < _signatures.length; i++) {... */\n    tag_181:\n        /* \"contracts/modules/Controllers/Controllers.sol\":4636:4647  _signatures */\n      dup5\n      dup5\n        /* \"contracts/modules/Controllers/Controllers.sol\":4636:4654  _signatures.length */\n      swap1\n      pop\n        /* \"contracts/modules/Controllers/Controllers.sol\":4632:4633  i */\n      dup2\n        /* \"contracts/modules/Controllers/Controllers.sol\":4632:4654  i < _signatures.length */\n      lt\n        /* \"contracts/modules/Controllers/Controllers.sol\":4612:4752  for (uint256 i = 0; i < _signatures.length; i++) {... */\n      iszero\n      tag_182\n      jumpi\n        /* \"contracts/modules/Controllers/Controllers.sol\":4741:4745  true */\n      0x01\n        /* \"contracts/modules/Controllers/Controllers.sol\":4669:4696  ControllersStorage.layout() */\n      tag_184\n        /* \"contracts/modules/Controllers/Controllers.sol\":4669:4694  ControllersStorage.layout */\n      tag_61\n        /* \"contracts/modules/Controllers/Controllers.sol\":4669:4696  ControllersStorage.layout() */\n      jump\t// in\n    tag_184:\n        /* \"contracts/modules/Controllers/Controllers.sol\":4669:4711  ControllersStorage.layout().usedSignatures */\n      0x03\n      add\n        /* \"contracts/modules/Controllers/Controllers.sol\":4669:4738  ControllersStorage.layout().usedSignatures[keccak256(_signatures[i])] */\n      0x00\n        /* \"contracts/modules/Controllers/Controllers.sol\":4722:4733  _signatures */\n      dup8\n      dup8\n        /* \"contracts/modules/Controllers/Controllers.sol\":4734:4735  i */\n      dup6\n        /* \"contracts/modules/Controllers/Controllers.sol\":4722:4736  _signatures[i] */\n      dup2\n      dup2\n      lt\n      tag_185\n      jumpi\n      tag_186\n      tag_78\n      jump\t// in\n    tag_186:\n    tag_185:\n      swap1\n      pop\n      0x20\n      mul\n      dup2\n      add\n      swap1\n      tag_187\n      swap2\n      swap1\n      tag_80\n      jump\t// in\n    tag_187:\n        /* \"contracts/modules/Controllers/Controllers.sol\":4712:4737  keccak256(_signatures[i]) */\n      mload(0x40)\n      tag_188\n      swap3\n      swap2\n      swap1\n      tag_82\n      jump\t// in\n    tag_188:\n      mload(0x40)\n      dup1\n      swap2\n      sub\n      swap1\n      keccak256\n        /* \"contracts/modules/Controllers/Controllers.sol\":4669:4738  ControllersStorage.layout().usedSignatures[keccak256(_signatures[i])] */\n      dup2\n      mstore\n      0x20\n      add\n      swap1\n      dup2\n      mstore\n      0x20\n      add\n      0x00\n      keccak256\n      0x00\n        /* \"contracts/modules/Controllers/Controllers.sol\":4669:4745  ControllersStorage.layout().usedSignatures[keccak256(_signatures[i])] = true */\n      0x0100\n      exp\n      dup2\n      sload\n      dup2\n      0xff\n      mul\n      not\n      and\n      swap1\n      dup4\n      iszero\n      iszero\n      mul\n      or\n      swap1\n      sstore\n      pop\n        /* \"contracts/modules/Controllers/Controllers.sol\":4656:4659  i++ */\n      dup1\n      dup1\n      tag_189\n      swap1\n      tag_84\n      jump\t// in\n    tag_189:\n      swap2\n      pop\n      pop\n        /* \"contracts/modules/Controllers/Controllers.sol\":4612:4752  for (uint256 i = 0; i < _signatures.length; i++) {... */\n      jump(tag_181)\n    tag_182:\n      pop\n        /* \"contracts/modules/Controllers/Controllers.sol\":2795:2802  _weight */\n      dup9\n        /* \"contracts/modules/Controllers/Controllers.sol\":2744:2771  ControllersStorage.layout() */\n      tag_191\n        /* \"contracts/modules/Controllers/Controllers.sol\":2744:2769  ControllersStorage.layout */\n      tag_61\n        /* \"contracts/modules/Controllers/Controllers.sol\":2744:2771  ControllersStorage.layout() */\n      jump\t// in\n    tag_191:\n        /* \"contracts/modules/Controllers/Controllers.sol\":2744:2779  ControllersStorage.layout().weights */\n      0x02\n      add\n        /* \"contracts/modules/Controllers/Controllers.sol\":2744:2792  ControllersStorage.layout().weights[_controller] */\n      0x00\n        /* \"contracts/modules/Controllers/Controllers.sol\":2780:2791  _controller */\n      dup13\n        /* \"contracts/modules/Controllers/Controllers.sol\":2744:2792  ControllersStorage.layout().weights[_controller] */\n      0xffffffffffffffffffffffffffffffffffffffff\n      and\n      0xffffffffffffffffffffffffffffffffffffffff\n      and\n      dup2\n      mstore\n      0x20\n      add\n      swap1\n      dup2\n      mstore\n      0x20\n      add\n      0x00\n      keccak256\n      sload\n        /* \"contracts/modules/Controllers/Controllers.sol\":2701:2728  ControllersStorage.layout() */\n      tag_192\n        /* \"contracts/modules/Controllers/Controllers.sol\":2701:2726  ControllersStorage.layout */\n      tag_61\n        /* \"contracts/modules/Controllers/Controllers.sol\":2701:2728  ControllersStorage.layout() */\n      jump\t// in\n    tag_192:\n        /* \"contracts/modules/Controllers/Controllers.sol\":2701:2741  ControllersStorage.layout().totalWeights */\n      0x01\n      add\n      sload\n        /* \"contracts/modules/Controllers/Controllers.sol\":2701:2792  ControllersStorage.layout().totalWeights - ControllersStorage.layout().weights[_controller] */\n      tag_193\n      swap2\n      swap1\n      tag_194\n      jump\t// in\n    tag_193:\n        /* \"contracts/modules/Controllers/Controllers.sol\":2701:2802  ControllersStorage.layout().totalWeights - ControllersStorage.layout().weights[_controller] + _weight */\n      tag_195\n      swap2\n      swap1\n      tag_196\n      jump\t// in\n    tag_195:\n        /* \"contracts/modules/Controllers/Controllers.sol\":2658:2685  ControllersStorage.layout() */\n      tag_197\n        /* \"contracts/modules/Controllers/Controllers.sol\":2658:2683  ControllersStorage.layout */\n      tag_61\n        /* \"contracts/modules/Controllers/Controllers.sol\":2658:2685  ControllersStorage.layout() */\n      jump\t// in\n    tag_197:\n        /* \"contracts/modules/Controllers/Controllers.sol\":2658:2698  ControllersStorage.layout().totalWeights */\n      0x01\n      add\n        /* \"contracts/modules/Controllers/Controllers.sol\":2658:2802  ControllersStorage.layout().totalWeights = ControllersStorage.layout().totalWeights - ControllersStorage.layout().weights[_controller] + _weight */\n      dup2\n      swap1\n      sstore\n      pop\n        /* \"contracts/modules/Controllers/Controllers.sol\":2859:2860  0 */\n      0x00\n        /* \"contracts/modules/Controllers/Controllers.sol\":2816:2843  ControllersStorage.layout() */\n      tag_198\n        /* \"contracts/modules/Controllers/Controllers.sol\":2816:2841  ControllersStorage.layout */\n      tag_61\n        /* \"contracts/modules/Controllers/Controllers.sol\":2816:2843  ControllersStorage.layout() */\n      jump\t// in\n    tag_198:\n        /* \"contracts/modules/Controllers/Controllers.sol\":2816:2856  ControllersStorage.layout().totalWeights */\n      0x01\n      add\n      sload\n        /* \"contracts/modules/Controllers/Controllers.sol\":2816:2860  ControllersStorage.layout().totalWeights > 0 */\n      gt\n        /* \"contracts/modules/Controllers/Controllers.sol\":2816:2945  ControllersStorage.layout().totalWeights > 0 && ControllersStorage.layout().totalWeights >= ControllersStorage.layout().threshold */\n      dup1\n      iszero\n      tag_199\n      jumpi\n      pop\n        /* \"contracts/modules/Controllers/Controllers.sol\":2908:2935  ControllersStorage.layout() */\n      tag_200\n        /* \"contracts/modules/Controllers/Controllers.sol\":2908:2933  ControllersStorage.layout */\n      tag_61\n        /* \"contracts/modules/Controllers/Controllers.sol\":2908:2935  ControllersStorage.layout() */\n      jump\t// in\n    tag_200:\n        /* \"contracts/modules/Controllers/Controllers.sol\":2908:2945  ControllersStorage.layout().threshold */\n      0x00\n      add\n      sload\n        /* \"contracts/modules/Controllers/Controllers.sol\":2864:2891  ControllersStorage.layout() */\n      tag_201\n        /* \"contracts/modules/Controllers/Controllers.sol\":2864:2889  ControllersStorage.layout */\n      tag_61\n        /* \"contracts/modules/Controllers/Controllers.sol\":2864:2891  ControllersStorage.layout() */\n      jump\t// in\n    tag_201:\n        /* \"contracts/modules/Controllers/Controllers.sol\":2864:2904  ControllersStorage.layout().totalWeights */\n      0x01\n      add\n      sload\n        /* \"contracts/modules/Controllers/Controllers.sol\":2864:2945  ControllersStorage.layout().totalWeights >= ControllersStorage.layout().threshold */\n      lt\n      iszero\n        /* \"contracts/modules/Controllers/Controllers.sol\":2816:2945  ControllersStorage.layout().totalWeights > 0 && ControllersStorage.layout().totalWeights >= ControllersStorage.layout().threshold */\n    tag_199:\n        /* \"contracts/modules/Controllers/Controllers.sol\":2808:2979  require(ControllersStorage.layout().totalWeights > 0 && ControllersStorage.layout().totalWeights >= ControllersStorage.layout().threshold, \"Threshold would be impossible\") */\n      tag_202\n      jumpi\n      mload(0x40)\n      0x08c379a000000000000000000000000000000000000000000000000000000000\n      dup2\n      mstore\n      0x04\n      add\n      tag_203\n      swap1\n      tag_204\n      jump\t// in\n    tag_203:\n      mload(0x40)\n      dup1\n      swap2\n      sub\n      swap1\n      revert\n    tag_202:\n        /* \"contracts/modules/Controllers/Controllers.sol\":3036:3043  _weight */\n      dup9\n        /* \"contracts/modules/Controllers/Controllers.sol\":2985:3012  ControllersStorage.layout() */\n      tag_205\n        /* \"contracts/modules/Controllers/Controllers.sol\":2985:3010  ControllersStorage.layout */\n      tag_61\n        /* \"contracts/modules/Controllers/Controllers.sol\":2985:3012  ControllersStorage.layout() */\n      jump\t// in\n    tag_205:\n        /* \"contracts/modules/Controllers/Controllers.sol\":2985:3020  ControllersStorage.layout().weights */\n      0x02\n      add\n        /* \"contracts/modules/Controllers/Controllers.sol\":2985:3033  ControllersStorage.layout().weights[_controller] */\n      0x00\n        /* \"contracts/modules/Controllers/Controllers.sol\":3021:3032  _controller */\n      dup13\n        /* \"contracts/modules/Controllers/Controllers.sol\":2985:3033  ControllersStorage.layout().weights[_controller] */\n      0xffffffffffffffffffffffffffffffffffffffff\n      and\n      0xffffffffffffffffffffffffffffffffffffffff\n      and\n      dup2\n      mstore\n      0x20\n      add\n      swap1\n      dup2\n      mstore\n      0x20\n      add\n      0x00\n      keccak256\n        /* \"contracts/modules/Controllers/Controllers.sol\":2985:3043  ControllersStorage.layout().weights[_controller] = _weight */\n      dup2\n      swap1\n      sstore\n      pop\n        /* \"contracts/modules/Controllers/Controllers.sol\":4463:4764  {... */\n      pop\n      pop\n        /* \"contracts/modules/Controllers/Controllers.sol\":2389:3048  function updateControllerWeight(... */\n      pop\n      pop\n      pop\n      pop\n      pop\n      pop\n      pop\n      pop\n      jump\t// out\n        /* \"contracts/modules/Controllers/Controllers.sol\":3171:3315  function controllerWeight(address _controller) external view returns(uint256) {... */\n    tag_50:\n        /* \"contracts/modules/Controllers/Controllers.sol\":3240:3247  uint256 */\n      0x00\n        /* \"contracts/modules/Controllers/Controllers.sol\":3262:3289  ControllersStorage.layout() */\n      tag_207\n        /* \"contracts/modules/Controllers/Controllers.sol\":3262:3287  ControllersStorage.layout */\n      tag_61\n        /* \"contracts/modules/Controllers/Controllers.sol\":3262:3289  ControllersStorage.layout() */\n      jump\t// in\n    tag_207:\n        /* \"contracts/modules/Controllers/Controllers.sol\":3262:3297  ControllersStorage.layout().weights */\n      0x02\n      add\n        /* \"contracts/modules/Controllers/Controllers.sol\":3262:3310  ControllersStorage.layout().weights[_controller] */\n      0x00\n        /* \"contracts/modules/Controllers/Controllers.sol\":3298:3309  _controller */\n      dup4\n        /* \"contracts/modules/Controllers/Controllers.sol\":3262:3310  ControllersStorage.layout().weights[_controller] */\n      0xffffffffffffffffffffffffffffffffffffffff\n      and\n      0xffffffffffffffffffffffffffffffffffffffff\n      and\n      dup2\n      mstore\n      0x20\n      add\n      swap1\n      dup2\n      mstore\n      0x20\n      add\n      0x00\n      keccak256\n      sload\n        /* \"contracts/modules/Controllers/Controllers.sol\":3255:3310  return ControllersStorage.layout().weights[_controller] */\n      swap1\n      pop\n        /* \"contracts/modules/Controllers/Controllers.sol\":3171:3315  function controllerWeight(address _controller) external view returns(uint256) {... */\n      swap2\n      swap1\n      pop\n      jump\t// out\n        /* \"contracts/modules/Upgrades/Upgrades.sol\":848:927  function supportsUpgrades() external pure returns (bool) {... */\n    tag_53:\n        /* \"contracts/modules/Upgrades/Upgrades.sol\":899:903  bool */\n      0x00\n        /* \"contracts/modules/Upgrades/Upgrades.sol\":918:922  true */\n      0x01\n        /* \"contracts/modules/Upgrades/Upgrades.sol\":911:922  return true */\n      swap1\n      pop\n        /* \"contracts/modules/Upgrades/Upgrades.sol\":848:927  function supportsUpgrades() external pure returns (bool) {... */\n      swap1\n      jump\t// out\n        /* \"contracts/modules/Controllers/Controllers.sol\":4768:5004  function supportsInterface(bytes4 interfaceId) public view virtual override(ERC165) returns (bool) {... */\n    tag_58:\n        /* \"contracts/modules/Controllers/Controllers.sol\":4861:4865  bool */\n      0x00\n        /* \"contracts/modules/Controllers/Controllers.sol\":4892:4922  type(IControllers).interfaceId */\n      0x8197b6d400000000000000000000000000000000000000000000000000000000\n        /* \"contracts/modules/Controllers/Controllers.sol\":4877:4922  interfaceId == type(IControllers).interfaceId */\n      not(0xffffffffffffffffffffffffffffffffffffffffffffffffffffffff)\n      and\n        /* \"contracts/modules/Controllers/Controllers.sol\":4877:4888  interfaceId */\n      dup3\n        /* \"contracts/modules/Controllers/Controllers.sol\":4877:4922  interfaceId == type(IControllers).interfaceId */\n      not(0xffffffffffffffffffffffffffffffffffffffffffffffffffffffff)\n      and\n      sub\n        /* \"contracts/modules/Controllers/Controllers.sol\":4873:4950  if (interfaceId == type(IControllers).interfaceId) {... */\n      tag_210\n      jumpi\n        /* \"contracts/modules/Controllers/Controllers.sol\":4939:4943  true */\n      0x01\n        /* \"contracts/modules/Controllers/Controllers.sol\":4932:4943  return true */\n      swap1\n      pop\n      jump(tag_209)\n        /* \"contracts/modules/Controllers/Controllers.sol\":4873:4950  if (interfaceId == type(IControllers).interfaceId) {... */\n    tag_210:\n        /* \"contracts/modules/Controllers/Controllers.sol\":4963:4999  super.supportsInterface(interfaceId) */\n      tag_211\n        /* \"contracts/modules/Controllers/Controllers.sol\":4987:4998  interfaceId */\n      dup3\n        /* \"contracts/modules/Controllers/Controllers.sol\":4963:4986  super.supportsInterface */\n      tag_212\n        /* \"contracts/modules/Controllers/Controllers.sol\":4963:4999  super.supportsInterface(interfaceId) */\n      jump\t// in\n    tag_211:\n        /* \"contracts/modules/Controllers/Controllers.sol\":4956:4999  return super.supportsInterface(interfaceId) */\n      swap1\n      pop\n        /* \"contracts/modules/Controllers/Controllers.sol\":4768:5004  function supportsInterface(bytes4 interfaceId) public view virtual override(ERC165) returns (bool) {... */\n    tag_209:\n      swap2\n      swap1\n      pop\n      jump\t// out\n        /* \"contracts/modules/Controllers/ControllersStorage.sol\":624:776  function layout() internal pure returns (Layout storage _layout) {... */\n    tag_61:\n        /* \"contracts/modules/Controllers/ControllersStorage.sol\":665:687  Layout storage _layout */\n      0x00\n        /* \"contracts/modules/Controllers/ControllersStorage.sol\":695:707  bytes32 slot */\n      dup1\n        /* \"contracts/modules/Controllers/ControllersStorage.sol\":415:461  keccak256(\"com.trymetafab.wallet.Controllers\") */\n      0x255f4a56bd3ad76424e31ed8855ef9ad14a0ce4e67508c76ff082e5c1466b12f\n        /* \"contracts/modules/Controllers/ControllersStorage.sol\":695:722  bytes32 slot = STORAGE_SLOT */\n      swap1\n      pop\n        /* \"contracts/modules/Controllers/ControllersStorage.sol\":762:766  slot */\n      dup1\n        /* \"contracts/modules/Controllers/ControllersStorage.sol\":746:766  _layout.slot := slot */\n      swap2\n      pop\n        /* \"contracts/modules/Controllers/ControllersStorage.sol\":738:772  {... */\n      pop\n        /* \"contracts/modules/Controllers/ControllersStorage.sol\":624:776  function layout() internal pure returns (Layout storage _layout) {... */\n      swap1\n      jump\t// out\n        /* \"contracts/modules/Controllers/Controllers.sol\":3447:4374  function verifyControllersThresholdBySignatures(... */\n    tag_68:\n        /* \"contracts/modules/Controllers/Controllers.sol\":3594:3598  bool */\n      0x00\n        /* \"contracts/modules/Controllers/Controllers.sol\":3600:3613  string memory */\n      0x60\n        /* \"contracts/modules/Controllers/Controllers.sol\":3624:3645  uint256 signerWeights */\n      0x00\n        /* \"contracts/modules/Controllers/Controllers.sol\":3661:3670  uint256 i */\n      dup1\n        /* \"contracts/modules/Controllers/Controllers.sol\":3656:4210  for (uint256 i = 0; i < _signatures.length; i++) {... */\n    tag_215:\n        /* \"contracts/modules/Controllers/Controllers.sol\":3680:3691  _signatures */\n      dup5\n        /* \"contracts/modules/Controllers/Controllers.sol\":3680:3698  _signatures.length */\n      mload\n        /* \"contracts/modules/Controllers/Controllers.sol\":3676:3677  i */\n      dup2\n        /* \"contracts/modules/Controllers/Controllers.sol\":3676:3698  i < _signatures.length */\n      lt\n        /* \"contracts/modules/Controllers/Controllers.sol\":3656:4210  for (uint256 i = 0; i < _signatures.length; i++) {... */\n      iszero\n      tag_216\n      jumpi\n        /* \"contracts/modules/Controllers/Controllers.sol\":3713:3727  address signer */\n      0x00\n        /* \"contracts/modules/Controllers/Controllers.sol\":3730:3778  Signatures.getSigner(_inputHash, _signatures[i]) */\n      tag_218\n        /* \"contracts/modules/Controllers/Controllers.sol\":3751:3761  _inputHash */\n      dup8\n        /* \"contracts/modules/Controllers/Controllers.sol\":3763:3774  _signatures */\n      dup8\n        /* \"contracts/modules/Controllers/Controllers.sol\":3775:3776  i */\n      dup5\n        /* \"contracts/modules/Controllers/Controllers.sol\":3763:3777  _signatures[i] */\n      dup2\n      mload\n      dup2\n      lt\n      tag_219\n      jumpi\n      tag_220\n      tag_78\n      jump\t// in\n    tag_220:\n    tag_219:\n      0x20\n      mul\n      0x20\n      add\n      add\n      mload\n        /* \"contracts/modules/Controllers/Controllers.sol\":3730:3750  Signatures.getSigner */\n      tag_221\n        /* \"contracts/modules/Controllers/Controllers.sol\":3730:3778  Signatures.getSigner(_inputHash, _signatures[i]) */\n      jump\t// in\n    tag_218:\n        /* \"contracts/modules/Controllers/Controllers.sol\":3713:3778  address signer = Signatures.getSigner(_inputHash, _signatures[i]) */\n      swap1\n      pop\n        /* \"contracts/modules/Controllers/Controllers.sol\":3838:3839  0 */\n      0x00\n        /* \"contracts/modules/Controllers/Controllers.sol\":3791:3818  ControllersStorage.layout() */\n      tag_222\n        /* \"contracts/modules/Controllers/Controllers.sol\":3791:3816  ControllersStorage.layout */\n      tag_61\n        /* \"contracts/modules/Controllers/Controllers.sol\":3791:3818  ControllersStorage.layout() */\n      jump\t// in\n    tag_222:\n        /* \"contracts/modules/Controllers/Controllers.sol\":3791:3826  ControllersStorage.layout().weights */\n      0x02\n      add\n        /* \"contracts/modules/Controllers/Controllers.sol\":3791:3834  ControllersStorage.layout().weights[signer] */\n      0x00\n        /* \"contracts/modules/Controllers/Controllers.sol\":3827:3833  signer */\n      dup4\n        /* \"contracts/modules/Controllers/Controllers.sol\":3791:3834  ControllersStorage.layout().weights[signer] */\n      0xffffffffffffffffffffffffffffffffffffffff\n      and\n      0xffffffffffffffffffffffffffffffffffffffff\n      and\n      dup2\n      mstore\n      0x20\n      add\n      swap1\n      dup2\n      mstore\n      0x20\n      add\n      0x00\n      keccak256\n      sload\n        /* \"contracts/modules/Controllers/Controllers.sol\":3791:3839  ControllersStorage.layout().weights[signer] == 0 */\n      sub\n        /* \"contracts/modules/Controllers/Controllers.sol\":3787:3928  if (ControllersStorage.layout().weights[signer] == 0) {... */\n      tag_223\n      jumpi\n        /* \"contracts/modules/Controllers/Controllers.sol\":3859:3864  false */\n      0x00\n        /* \"contracts/modules/Controllers/Controllers.sol\":3851:3919  return (false, \"At least one signature not from a known controller\") */\n      mload(0x40)\n      dup1\n      0x60\n      add\n      0x40\n      mstore\n      dup1\n      0x32\n      dup2\n      mstore\n      0x20\n      add\n      data_785bc0b145e7feed7ceac2191d963af02addfd5fb4914d9f29f212008f60b7a9\n      0x32\n      swap2\n      codecopy\n      swap5\n      pop\n      swap5\n      pop\n      pop\n      pop\n      pop\n      jump(tag_214)\n        /* \"contracts/modules/Controllers/Controllers.sol\":3787:3928  if (ControllersStorage.layout().weights[signer] == 0) {... */\n    tag_223:\n        /* \"contracts/modules/Controllers/Controllers.sol\":3942:3963  bytes32 signatureHash */\n      0x00\n        /* \"contracts/modules/Controllers/Controllers.sol\":3976:3987  _signatures */\n      dup7\n        /* \"contracts/modules/Controllers/Controllers.sol\":3988:3989  i */\n      dup4\n        /* \"contracts/modules/Controllers/Controllers.sol\":3976:3990  _signatures[i] */\n      dup2\n      mload\n      dup2\n      lt\n      tag_224\n      jumpi\n      tag_225\n      tag_78\n      jump\t// in\n    tag_225:\n    tag_224:\n      0x20\n      mul\n      0x20\n      add\n      add\n      mload\n        /* \"contracts/modules/Controllers/Controllers.sol\":3966:3991  keccak256(_signatures[i]) */\n      dup1\n      mload\n      swap1\n      0x20\n      add\n      keccak256\n        /* \"contracts/modules/Controllers/Controllers.sol\":3942:3991  bytes32 signatureHash = keccak256(_signatures[i]) */\n      swap1\n      pop\n        /* \"contracts/modules/Controllers/Controllers.sol\":4004:4031  ControllersStorage.layout() */\n      tag_226\n        /* \"contracts/modules/Controllers/Controllers.sol\":4004:4029  ControllersStorage.layout */\n      tag_61\n        /* \"contracts/modules/Controllers/Controllers.sol\":4004:4031  ControllersStorage.layout() */\n      jump\t// in\n    tag_226:\n        /* \"contracts/modules/Controllers/Controllers.sol\":4004:4046  ControllersStorage.layout().usedSignatures */\n      0x03\n      add\n        /* \"contracts/modules/Controllers/Controllers.sol\":4004:4061  ControllersStorage.layout().usedSignatures[signatureHash] */\n      0x00\n        /* \"contracts/modules/Controllers/Controllers.sol\":4047:4060  signatureHash */\n      dup3\n        /* \"contracts/modules/Controllers/Controllers.sol\":4004:4061  ControllersStorage.layout().usedSignatures[signatureHash] */\n      dup2\n      mstore\n      0x20\n      add\n      swap1\n      dup2\n      mstore\n      0x20\n      add\n      0x00\n      keccak256\n      0x00\n      swap1\n      sload\n      swap1\n      0x0100\n      exp\n      swap1\n      div\n      0xff\n      and\n        /* \"contracts/modules/Controllers/Controllers.sol\":4000:4135  if (ControllersStorage.layout().usedSignatures[signatureHash]) {... */\n      iszero\n      tag_227\n      jumpi\n        /* \"contracts/modules/Controllers/Controllers.sol\":4081:4086  false */\n      0x00\n        /* \"contracts/modules/Controllers/Controllers.sol\":4073:4126  return (false, \"At least one signature already used\") */\n      mload(0x40)\n      dup1\n      0x60\n      add\n      0x40\n      mstore\n      dup1\n      0x23\n      dup2\n      mstore\n      0x20\n      add\n      data_a16b8e883356b25ba9a3764847759439ed808aa5ab1e4a5a4f8ee72d493c676d\n      0x23\n      swap2\n      codecopy\n      swap6\n      pop\n      swap6\n      pop\n      pop\n      pop\n      pop\n      pop\n      jump(tag_214)\n        /* \"contracts/modules/Controllers/Controllers.sol\":4000:4135  if (ControllersStorage.layout().usedSignatures[signatureHash]) {... */\n    tag_227:\n        /* \"contracts/modules/Controllers/Controllers.sol\":4160:4187  ControllersStorage.layout() */\n      tag_228\n        /* \"contracts/modules/Controllers/Controllers.sol\":4160:4185  ControllersStorage.layout */\n      tag_61\n        /* \"contracts/modules/Controllers/Controllers.sol\":4160:4187  ControllersStorage.layout() */\n      jump\t// in\n    tag_228:\n        /* \"contracts/modules/Controllers/Controllers.sol\":4160:4195  ControllersStorage.layout().weights */\n      0x02\n      add\n        /* \"contracts/modules/Controllers/Controllers.sol\":4160:4203  ControllersStorage.layout().weights[signer] */\n      0x00\n        /* \"contracts/modules/Controllers/Controllers.sol\":4196:4202  signer */\n      dup4\n        /* \"contracts/modules/Controllers/Controllers.sol\":4160:4203  ControllersStorage.layout().weights[signer] */\n      0xffffffffffffffffffffffffffffffffffffffff\n      and\n      0xffffffffffffffffffffffffffffffffffffffff\n      and\n      dup2\n      mstore\n      0x20\n      add\n      swap1\n      dup2\n      mstore\n      0x20\n      add\n      0x00\n      keccak256\n      sload\n        /* \"contracts/modules/Controllers/Controllers.sol\":4143:4203  signerWeights += ControllersStorage.layout().weights[signer] */\n      dup5\n      tag_229\n      swap2\n      swap1\n      tag_196\n      jump\t// in\n    tag_229:\n      swap4\n      pop\n        /* \"contracts/modules/Controllers/Controllers.sol\":3705:4210  {... */\n      pop\n      pop\n        /* \"contracts/modules/Controllers/Controllers.sol\":3700:3703  i++ */\n      dup1\n      dup1\n      tag_230\n      swap1\n      tag_84\n      jump\t// in\n    tag_230:\n      swap2\n      pop\n      pop\n        /* \"contracts/modules/Controllers/Controllers.sol\":3656:4210  for (uint256 i = 0; i < _signatures.length; i++) {... */\n      jump(tag_215)\n    tag_216:\n      pop\n        /* \"contracts/modules/Controllers/Controllers.sol\":4236:4263  ControllersStorage.layout() */\n      tag_231\n        /* \"contracts/modules/Controllers/Controllers.sol\":4236:4261  ControllersStorage.layout */\n      tag_61\n        /* \"contracts/modules/Controllers/Controllers.sol\":4236:4263  ControllersStorage.layout() */\n      jump\t// in\n    tag_231:\n        /* \"contracts/modules/Controllers/Controllers.sol\":4236:4273  ControllersStorage.layout().threshold */\n      0x00\n      add\n      sload\n        /* \"contracts/modules/Controllers/Controllers.sol\":4220:4233  signerWeights */\n      dup2\n        /* \"contracts/modules/Controllers/Controllers.sol\":4220:4273  signerWeights < ControllersStorage.layout().threshold */\n      lt\n        /* \"contracts/modules/Controllers/Controllers.sol\":4216:4346  if (signerWeights < ControllersStorage.layout().threshold) {... */\n      iszero\n      tag_232\n      jumpi\n        /* \"contracts/modules/Controllers/Controllers.sol\":4291:4296  false */\n      0x00\n        /* \"contracts/modules/Controllers/Controllers.sol\":4283:4339  return (false, \"Signer weights does not meet threshold\") */\n      mload(0x40)\n      dup1\n      0x60\n      add\n      0x40\n      mstore\n      dup1\n      0x26\n      dup2\n      mstore\n      0x20\n      add\n      data_72284c72650eb5f3095ffe3e95f497df8ba3ab16a33a5479ff4ed3ce4e760077\n      0x26\n      swap2\n      codecopy\n      swap3\n      pop\n      swap3\n      pop\n      pop\n      jump(tag_214)\n        /* \"contracts/modules/Controllers/Controllers.sol\":4216:4346  if (signerWeights < ControllersStorage.layout().threshold) {... */\n    tag_232:\n        /* \"contracts/modules/Controllers/Controllers.sol\":4360:4364  true */\n      0x01\n        /* \"contracts/modules/Controllers/Controllers.sol\":4352:4369  return (true, \"\") */\n      mload(0x40)\n      dup1\n      0x20\n      add\n      0x40\n      mstore\n      dup1\n      0x00\n      dup2\n      mstore\n      pop\n      swap3\n      pop\n      swap3\n      pop\n      pop\n        /* \"contracts/modules/Controllers/Controllers.sol\":3447:4374  function verifyControllersThresholdBySignatures(... */\n    tag_214:\n      swap3\n      pop\n      swap3\n      swap1\n      pop\n      jump\t// out\n        /* \"contracts/modules/Controllers/Controllers.sol\":1533:1928  function _removeController(address _controller) internal {... */\n    tag_93:\n        /* \"contracts/modules/Controllers/Controllers.sol\":1640:1667  ControllersStorage.layout() */\n      tag_234\n        /* \"contracts/modules/Controllers/Controllers.sol\":1640:1665  ControllersStorage.layout */\n      tag_61\n        /* \"contracts/modules/Controllers/Controllers.sol\":1640:1667  ControllersStorage.layout() */\n      jump\t// in\n    tag_234:\n        /* \"contracts/modules/Controllers/Controllers.sol\":1640:1675  ControllersStorage.layout().weights */\n      0x02\n      add\n        /* \"contracts/modules/Controllers/Controllers.sol\":1640:1688  ControllersStorage.layout().weights[_controller] */\n      0x00\n        /* \"contracts/modules/Controllers/Controllers.sol\":1676:1687  _controller */\n      dup3\n        /* \"contracts/modules/Controllers/Controllers.sol\":1640:1688  ControllersStorage.layout().weights[_controller] */\n      0xffffffffffffffffffffffffffffffffffffffff\n      and\n      0xffffffffffffffffffffffffffffffffffffffff\n      and\n      dup2\n      mstore\n      0x20\n      add\n      swap1\n      dup2\n      mstore\n      0x20\n      add\n      0x00\n      keccak256\n      sload\n        /* \"contracts/modules/Controllers/Controllers.sol\":1596:1623  ControllersStorage.layout() */\n      tag_235\n        /* \"contracts/modules/Controllers/Controllers.sol\":1596:1621  ControllersStorage.layout */\n      tag_61\n        /* \"contracts/modules/Controllers/Controllers.sol\":1596:1623  ControllersStorage.layout() */\n      jump\t// in\n    tag_235:\n        /* \"contracts/modules/Controllers/Controllers.sol\":1596:1636  ControllersStorage.layout().totalWeights */\n      0x01\n      add\n      0x00\n        /* \"contracts/modules/Controllers/Controllers.sol\":1596:1688  ControllersStorage.layout().totalWeights -= ControllersStorage.layout().weights[_controller] */\n      dup3\n      dup3\n      sload\n      tag_236\n      swap2\n      swap1\n      tag_194\n      jump\t// in\n    tag_236:\n      swap3\n      pop\n      pop\n      dup2\n      swap1\n      sstore\n      pop\n        /* \"contracts/modules/Controllers/Controllers.sol\":1745:1746  0 */\n      0x00\n        /* \"contracts/modules/Controllers/Controllers.sol\":1702:1729  ControllersStorage.layout() */\n      tag_237\n        /* \"contracts/modules/Controllers/Controllers.sol\":1702:1727  ControllersStorage.layout */\n      tag_61\n        /* \"contracts/modules/Controllers/Controllers.sol\":1702:1729  ControllersStorage.layout() */\n      jump\t// in\n    tag_237:\n        /* \"contracts/modules/Controllers/Controllers.sol\":1702:1742  ControllersStorage.layout().totalWeights */\n      0x01\n      add\n      sload\n        /* \"contracts/modules/Controllers/Controllers.sol\":1702:1746  ControllersStorage.layout().totalWeights > 0 */\n      gt\n        /* \"contracts/modules/Controllers/Controllers.sol\":1702:1831  ControllersStorage.layout().totalWeights > 0 && ControllersStorage.layout().totalWeights >= ControllersStorage.layout().threshold */\n      dup1\n      iszero\n      tag_238\n      jumpi\n      pop\n        /* \"contracts/modules/Controllers/Controllers.sol\":1794:1821  ControllersStorage.layout() */\n      tag_239\n        /* \"contracts/modules/Controllers/Controllers.sol\":1794:1819  ControllersStorage.layout */\n      tag_61\n        /* \"contracts/modules/Controllers/Controllers.sol\":1794:1821  ControllersStorage.layout() */\n      jump\t// in\n    tag_239:\n        /* \"contracts/modules/Controllers/Controllers.sol\":1794:1831  ControllersStorage.layout().threshold */\n      0x00\n      add\n      sload\n        /* \"contracts/modules/Controllers/Controllers.sol\":1750:1777  ControllersStorage.layout() */\n      tag_240\n        /* \"contracts/modules/Controllers/Controllers.sol\":1750:1775  ControllersStorage.layout */\n      tag_61\n        /* \"contracts/modules/Controllers/Controllers.sol\":1750:1777  ControllersStorage.layout() */\n      jump\t// in\n    tag_240:\n        /* \"contracts/modules/Controllers/Controllers.sol\":1750:1790  ControllersStorage.layout().totalWeights */\n      0x01\n      add\n      sload\n        /* \"contracts/modules/Controllers/Controllers.sol\":1750:1831  ControllersStorage.layout().totalWeights >= ControllersStorage.layout().threshold */\n      lt\n      iszero\n        /* \"contracts/modules/Controllers/Controllers.sol\":1702:1831  ControllersStorage.layout().totalWeights > 0 && ControllersStorage.layout().totalWeights >= ControllersStorage.layout().threshold */\n    tag_238:\n        /* \"contracts/modules/Controllers/Controllers.sol\":1694:1865  require(ControllersStorage.layout().totalWeights > 0 && ControllersStorage.layout().totalWeights >= ControllersStorage.layout().threshold, \"Threshold would be impossible\") */\n      tag_241\n      jumpi\n      mload(0x40)\n      0x08c379a000000000000000000000000000000000000000000000000000000000\n      dup2\n      mstore\n      0x04\n      add\n      tag_242\n      swap1\n      tag_204\n      jump\t// in\n    tag_242:\n      mload(0x40)\n      dup1\n      swap2\n      sub\n      swap1\n      revert\n    tag_241:\n        /* \"contracts/modules/Controllers/Controllers.sol\":1922:1923  0 */\n      0x00\n        /* \"contracts/modules/Controllers/Controllers.sol\":1871:1898  ControllersStorage.layout() */\n      tag_243\n        /* \"contracts/modules/Controllers/Controllers.sol\":1871:1896  ControllersStorage.layout */\n      tag_61\n        /* \"contracts/modules/Controllers/Controllers.sol\":1871:1898  ControllersStorage.layout() */\n      jump\t// in\n    tag_243:\n        /* \"contracts/modules/Controllers/Controllers.sol\":1871:1906  ControllersStorage.layout().weights */\n      0x02\n      add\n        /* \"contracts/modules/Controllers/Controllers.sol\":1871:1919  ControllersStorage.layout().weights[_controller] */\n      0x00\n        /* \"contracts/modules/Controllers/Controllers.sol\":1907:1918  _controller */\n      dup4\n        /* \"contracts/modules/Controllers/Controllers.sol\":1871:1919  ControllersStorage.layout().weights[_controller] */\n      0xffffffffffffffffffffffffffffffffffffffff\n      and\n      0xffffffffffffffffffffffffffffffffffffffff\n      and\n      dup2\n      mstore\n      0x20\n      add\n      swap1\n      dup2\n      mstore\n      0x20\n      add\n      0x00\n      keccak256\n        /* \"contracts/modules/Controllers/Controllers.sol\":1871:1923  ControllersStorage.layout().weights[_controller] = 0 */\n      dup2\n      swap1\n      sstore\n      pop\n        /* \"contracts/modules/Controllers/Controllers.sol\":1533:1928  function _removeController(address _controller) internal {... */\n      pop\n      jump\t// out\n        /* \"contracts/modules/Controllers/Controllers.sol\":975:1176  function _addController(address _controller, uint256 _weight) internal {... */\n    tag_172:\n        /* \"contracts/modules/Controllers/Controllers.sol\":1096:1103  _weight */\n      dup1\n        /* \"contracts/modules/Controllers/Controllers.sol\":1052:1079  ControllersStorage.layout() */\n      tag_245\n        /* \"contracts/modules/Controllers/Controllers.sol\":1052:1077  ControllersStorage.layout */\n      tag_61\n        /* \"contracts/modules/Controllers/Controllers.sol\":1052:1079  ControllersStorage.layout() */\n      jump\t// in\n    tag_245:\n        /* \"contracts/modules/Controllers/Controllers.sol\":1052:1092  ControllersStorage.layout().totalWeights */\n      0x01\n      add\n      0x00\n        /* \"contracts/modules/Controllers/Controllers.sol\":1052:1103  ControllersStorage.layout().totalWeights += _weight */\n      dup3\n      dup3\n      sload\n      tag_246\n      swap2\n      swap1\n      tag_196\n      jump\t// in\n    tag_246:\n      swap3\n      pop\n      pop\n      dup2\n      swap1\n      sstore\n      pop\n        /* \"contracts/modules/Controllers/Controllers.sol\":1160:1167  _weight */\n      dup1\n        /* \"contracts/modules/Controllers/Controllers.sol\":1109:1136  ControllersStorage.layout() */\n      tag_247\n        /* \"contracts/modules/Controllers/Controllers.sol\":1109:1134  ControllersStorage.layout */\n      tag_61\n        /* \"contracts/modules/Controllers/Controllers.sol\":1109:1136  ControllersStorage.layout() */\n      jump\t// in\n    tag_247:\n        /* \"contracts/modules/Controllers/Controllers.sol\":1109:1144  ControllersStorage.layout().weights */\n      0x02\n      add\n        /* \"contracts/modules/Controllers/Controllers.sol\":1109:1157  ControllersStorage.layout().weights[_controller] */\n      0x00\n        /* \"contracts/modules/Controllers/Controllers.sol\":1145:1156  _controller */\n      dup5\n        /* \"contracts/modules/Controllers/Controllers.sol\":1109:1157  ControllersStorage.layout().weights[_controller] */\n      0xffffffffffffffffffffffffffffffffffffffff\n      and\n      0xffffffffffffffffffffffffffffffffffffffff\n      and\n      dup2\n      mstore\n      0x20\n      add\n      swap1\n      dup2\n      mstore\n      0x20\n      add\n      0x00\n      keccak256\n        /* \"contracts/modules/Controllers/Controllers.sol\":1109:1167  ControllersStorage.layout().weights[_controller] = _weight */\n      dup2\n      swap1\n      sstore\n      pop\n        /* \"contracts/modules/Controllers/Controllers.sol\":975:1176  function _addController(address _controller, uint256 _weight) internal {... */\n      pop\n      pop\n      jump\t// out\n        /* \"@openzeppelin/contracts/utils/introspection/ERC165.sol\":829:984  function supportsInterface(bytes4 interfaceId) public view virtual override returns (bool) {... */\n    tag_212:\n        /* \"@openzeppelin/contracts/utils/introspection/ERC165.sol\":914:918  bool */\n      0x00\n        /* \"@openzeppelin/contracts/utils/introspection/ERC165.sol\":952:977  type(IERC165).interfaceId */\n      0x01ffc9a700000000000000000000000000000000000000000000000000000000\n        /* \"@openzeppelin/contracts/utils/introspection/ERC165.sol\":937:977  interfaceId == type(IERC165).interfaceId */\n      not(0xffffffffffffffffffffffffffffffffffffffffffffffffffffffff)\n      and\n        /* \"@openzeppelin/contracts/utils/introspection/ERC165.sol\":937:948  interfaceId */\n      dup3\n        /* \"@openzeppelin/contracts/utils/introspection/ERC165.sol\":937:977  interfaceId == type(IERC165).interfaceId */\n      not(0xffffffffffffffffffffffffffffffffffffffffffffffffffffffff)\n      and\n      eq\n        /* \"@openzeppelin/contracts/utils/introspection/ERC165.sol\":930:977  return interfaceId == type(IERC165).interfaceId */\n      swap1\n      pop\n        /* \"@openzeppelin/contracts/utils/introspection/ERC165.sol\":829:984  function supportsInterface(bytes4 interfaceId) public view virtual override returns (bool) {... */\n      swap2\n      swap1\n      pop\n      jump\t// out\n        /* \"contracts/utils/Signatures.sol\":187:356  function getSigner(bytes32 _inputHash, bytes memory _signature) internal pure returns (address) {... */\n    tag_221:\n        /* \"contracts/utils/Signatures.sol\":274:281  address */\n      0x00\n        /* \"contracts/utils/Signatures.sol\":296:351  _inputHash.toEthSignedMessageHash().recover(_signature) */\n      tag_250\n        /* \"contracts/utils/Signatures.sol\":340:350  _signature */\n      dup3\n        /* \"contracts/utils/Signatures.sol\":296:331  _inputHash.toEthSignedMessageHash() */\n      tag_251\n        /* \"contracts/utils/Signatures.sol\":296:306  _inputHash */\n      dup6\n        /* \"contracts/utils/Signatures.sol\":296:329  _inputHash.toEthSignedMessageHash */\n      tag_252\n        /* \"contracts/utils/Signatures.sol\":296:331  _inputHash.toEthSignedMessageHash() */\n      jump\t// in\n    tag_251:\n        /* \"contracts/utils/Signatures.sol\":296:339  _inputHash.toEthSignedMessageHash().recover */\n      tag_253\n      swap1\n        /* \"contracts/utils/Signatures.sol\":296:351  _inputHash.toEthSignedMessageHash().recover(_signature) */\n      swap2\n      swap1\n      0xffffffff\n      and\n      jump\t// in\n    tag_250:\n        /* \"contracts/utils/Signatures.sol\":289:351  return _inputHash.toEthSignedMessageHash().recover(_signature) */\n      swap1\n      pop\n        /* \"contracts/utils/Signatures.sol\":187:356  function getSigner(bytes32 _inputHash, bytes memory _signature) internal pure returns (address) {... */\n      swap3\n      swap2\n      pop\n      pop\n      jump\t// out\n        /* \"@openzeppelin/contracts/utils/cryptography/ECDSA.sol\":7256:7521  function toEthSignedMessageHash(bytes32 hash) internal pure returns (bytes32) {... */\n    tag_252:\n        /* \"@openzeppelin/contracts/utils/cryptography/ECDSA.sol\":7325:7332  bytes32 */\n      0x00\n        /* \"@openzeppelin/contracts/utils/cryptography/ECDSA.sol\":7508:7512  hash */\n      dup2\n        /* \"@openzeppelin/contracts/utils/cryptography/ECDSA.sol\":7455:7513  abi.encodePacked(\"\\x19Ethereum Signed Message:\\n32\", hash) */\n      add(0x20, mload(0x40))\n      tag_255\n      swap2\n      swap1\n      tag_256\n      jump\t// in\n    tag_255:\n      mload(0x40)\n      0x20\n      dup2\n      dup4\n      sub\n      sub\n      dup2\n      mstore\n      swap1\n      0x40\n      mstore\n        /* \"@openzeppelin/contracts/utils/cryptography/ECDSA.sol\":7445:7514  keccak256(abi.encodePacked(\"\\x19Ethereum Signed Message:\\n32\", hash)) */\n      dup1\n      mload\n      swap1\n      0x20\n      add\n      keccak256\n        /* \"@openzeppelin/contracts/utils/cryptography/ECDSA.sol\":7438:7514  return keccak256(abi.encodePacked(\"\\x19Ethereum Signed Message:\\n32\", hash)) */\n      swap1\n      pop\n        /* \"@openzeppelin/contracts/utils/cryptography/ECDSA.sol\":7256:7521  function toEthSignedMessageHash(bytes32 hash) internal pure returns (bytes32) {... */\n      swap2\n      swap1\n      pop\n      jump\t// out\n        /* \"@openzeppelin/contracts/utils/cryptography/ECDSA.sol\":3661:3888  function recover(bytes32 hash, bytes memory signature) internal pure returns (address) {... */\n    tag_253:\n        /* \"@openzeppelin/contracts/utils/cryptography/ECDSA.sol\":3739:3746  address */\n      0x00\n        /* \"@openzeppelin/contracts/utils/cryptography/ECDSA.sol\":3759:3776  address recovered */\n      dup1\n        /* \"@openzeppelin/contracts/utils/cryptography/ECDSA.sol\":3778:3796  RecoverError error */\n      0x00\n        /* \"@openzeppelin/contracts/utils/cryptography/ECDSA.sol\":3800:3827  tryRecover(hash, signature) */\n      tag_258\n        /* \"@openzeppelin/contracts/utils/cryptography/ECDSA.sol\":3811:3815  hash */\n      dup6\n        /* \"@openzeppelin/contracts/utils/cryptography/ECDSA.sol\":3817:3826  signature */\n      dup6\n        /* \"@openzeppelin/contracts/utils/cryptography/ECDSA.sol\":3800:3810  tryRecover */\n      tag_259\n        /* \"@openzeppelin/contracts/utils/cryptography/ECDSA.sol\":3800:3827  tryRecover(hash, signature) */\n      jump\t// in\n    tag_258:\n        /* \"@openzeppelin/contracts/utils/cryptography/ECDSA.sol\":3758:3827  (address recovered, RecoverError error) = tryRecover(hash, signature) */\n      swap2\n      pop\n      swap2\n      pop\n        /* \"@openzeppelin/contracts/utils/cryptography/ECDSA.sol\":3837:3855  _throwError(error) */\n      tag_260\n        /* \"@openzeppelin/contracts/utils/cryptography/ECDSA.sol\":3849:3854  error */\n      dup2\n        /* \"@openzeppelin/contracts/utils/cryptography/ECDSA.sol\":3837:3848  _throwError */\n      tag_261\n        /* \"@openzeppelin/contracts/utils/cryptography/ECDSA.sol\":3837:3855  _throwError(error) */\n      jump\t// in\n    tag_260:\n        /* \"@openzeppelin/contracts/utils/cryptography/ECDSA.sol\":3872:3881  recovered */\n      dup2\n        /* \"@openzeppelin/contracts/utils/cryptography/ECDSA.sol\":3865:3881  return recovered */\n      swap3\n      pop\n      pop\n      pop\n        /* \"@openzeppelin/contracts/utils/cryptography/ECDSA.sol\":3661:3888  function recover(bytes32 hash, bytes memory signature) internal pure returns (address) {... */\n      swap3\n      swap2\n      pop\n      pop\n      jump\t// out\n        /* \"@openzeppelin/contracts/utils/cryptography/ECDSA.sol\":2145:2875  function tryRecover(bytes32 hash, bytes memory signature) internal pure returns (address, RecoverError) {... */\n    tag_259:\n        /* \"@openzeppelin/contracts/utils/cryptography/ECDSA.sol\":2226:2233  address */\n      0x00\n        /* \"@openzeppelin/contracts/utils/cryptography/ECDSA.sol\":2235:2247  RecoverError */\n      dup1\n        /* \"@openzeppelin/contracts/utils/cryptography/ECDSA.sol\":2283:2285  65 */\n      0x41\n        /* \"@openzeppelin/contracts/utils/cryptography/ECDSA.sol\":2263:2272  signature */\n      dup4\n        /* \"@openzeppelin/contracts/utils/cryptography/ECDSA.sol\":2263:2279  signature.length */\n      mload\n        /* \"@openzeppelin/contracts/utils/cryptography/ECDSA.sol\":2263:2285  signature.length == 65 */\n      sub\n        /* \"@openzeppelin/contracts/utils/cryptography/ECDSA.sol\":2259:2869  if (signature.length == 65) {... */\n      tag_263\n      jumpi\n        /* \"@openzeppelin/contracts/utils/cryptography/ECDSA.sol\":2301:2310  bytes32 r */\n      0x00\n        /* \"@openzeppelin/contracts/utils/cryptography/ECDSA.sol\":2324:2333  bytes32 s */\n      dup1\n        /* \"@openzeppelin/contracts/utils/cryptography/ECDSA.sol\":2347:2354  uint8 v */\n      0x00\n        /* \"@openzeppelin/contracts/utils/cryptography/ECDSA.sol\":2599:2603  0x20 */\n      0x20\n        /* \"@openzeppelin/contracts/utils/cryptography/ECDSA.sol\":2588:2597  signature */\n      dup7\n        /* \"@openzeppelin/contracts/utils/cryptography/ECDSA.sol\":2584:2604  add(signature, 0x20) */\n      add\n        /* \"@openzeppelin/contracts/utils/cryptography/ECDSA.sol\":2578:2605  mload(add(signature, 0x20)) */\n      mload\n        /* \"@openzeppelin/contracts/utils/cryptography/ECDSA.sol\":2573:2605  r := mload(add(signature, 0x20)) */\n      swap3\n      pop\n        /* \"@openzeppelin/contracts/utils/cryptography/ECDSA.sol\":2648:2652  0x40 */\n      0x40\n        /* \"@openzeppelin/contracts/utils/cryptography/ECDSA.sol\":2637:2646  signature */\n      dup7\n        /* \"@openzeppelin/contracts/utils/cryptography/ECDSA.sol\":2633:2653  add(signature, 0x40) */\n      add\n        /* \"@openzeppelin/contracts/utils/cryptography/ECDSA.sol\":2627:2654  mload(add(signature, 0x40)) */\n      mload\n        /* \"@openzeppelin/contracts/utils/cryptography/ECDSA.sol\":2622:2654  s := mload(add(signature, 0x40)) */\n      swap2\n      pop\n        /* \"@openzeppelin/contracts/utils/cryptography/ECDSA.sol\":2705:2709  0x60 */\n      0x60\n        /* \"@openzeppelin/contracts/utils/cryptography/ECDSA.sol\":2694:2703  signature */\n      dup7\n        /* \"@openzeppelin/contracts/utils/cryptography/ECDSA.sol\":2690:2710  add(signature, 0x60) */\n      add\n        /* \"@openzeppelin/contracts/utils/cryptography/ECDSA.sol\":2684:2711  mload(add(signature, 0x60)) */\n      mload\n        /* \"@openzeppelin/contracts/utils/cryptography/ECDSA.sol\":2681:2682  0 */\n      0x00\n        /* \"@openzeppelin/contracts/utils/cryptography/ECDSA.sol\":2676:2712  byte(0, mload(add(signature, 0x60))) */\n      byte\n        /* \"@openzeppelin/contracts/utils/cryptography/ECDSA.sol\":2671:2712  v := byte(0, mload(add(signature, 0x60))) */\n      swap1\n      pop\n        /* \"@openzeppelin/contracts/utils/cryptography/ECDSA.sol\":2746:2771  tryRecover(hash, v, r, s) */\n      tag_264\n        /* \"@openzeppelin/contracts/utils/cryptography/ECDSA.sol\":2757:2761  hash */\n      dup8\n        /* \"@openzeppelin/contracts/utils/cryptography/ECDSA.sol\":2763:2764  v */\n      dup3\n        /* \"@openzeppelin/contracts/utils/cryptography/ECDSA.sol\":2766:2767  r */\n      dup6\n        /* \"@openzeppelin/contracts/utils/cryptography/ECDSA.sol\":2769:2770  s */\n      dup6\n        /* \"@openzeppelin/contracts/utils/cryptography/ECDSA.sol\":2746:2756  tryRecover */\n      tag_265\n        /* \"@openzeppelin/contracts/utils/cryptography/ECDSA.sol\":2746:2771  tryRecover(hash, v, r, s) */\n      jump\t// in\n    tag_264:\n        /* \"@openzeppelin/contracts/utils/cryptography/ECDSA.sol\":2739:2771  return tryRecover(hash, v, r, s) */\n      swap5\n      pop\n      swap5\n      pop\n      pop\n      pop\n      pop\n      jump(tag_262)\n        /* \"@openzeppelin/contracts/utils/cryptography/ECDSA.sol\":2259:2869  if (signature.length == 65) {... */\n    tag_263:\n        /* \"@openzeppelin/contracts/utils/cryptography/ECDSA.sol\":2818:2819  0 */\n      0x00\n        /* \"@openzeppelin/contracts/utils/cryptography/ECDSA.sol\":2822:2857  RecoverError.InvalidSignatureLength */\n      0x02\n        /* \"@openzeppelin/contracts/utils/cryptography/ECDSA.sol\":2802:2858  return (address(0), RecoverError.InvalidSignatureLength) */\n      swap2\n      pop\n      swap2\n      pop\n        /* \"@openzeppelin/contracts/utils/cryptography/ECDSA.sol\":2145:2875  function tryRecover(bytes32 hash, bytes memory signature) internal pure returns (address, RecoverError) {... */\n    tag_262:\n      swap3\n      pop\n      swap3\n      swap1\n      pop\n      jump\t// out\n        /* \"@openzeppelin/contracts/utils/cryptography/ECDSA.sol\":570:1081  function _throwError(RecoverError error) private pure {... */\n    tag_261:\n        /* \"@openzeppelin/contracts/utils/cryptography/ECDSA.sol\":647:667  RecoverError.NoError */\n      0x00\n        /* \"@openzeppelin/contracts/utils/cryptography/ECDSA.sol\":638:667  error == RecoverError.NoError */\n      0x04\n      dup2\n      gt\n      iszero\n      tag_268\n      jumpi\n      tag_269\n      tag_270\n      jump\t// in\n    tag_269:\n    tag_268:\n        /* \"@openzeppelin/contracts/utils/cryptography/ECDSA.sol\":638:643  error */\n      dup2\n        /* \"@openzeppelin/contracts/utils/cryptography/ECDSA.sol\":638:667  error == RecoverError.NoError */\n      0x04\n      dup2\n      gt\n      iszero\n      tag_271\n      jumpi\n      tag_272\n      tag_270\n      jump\t// in\n    tag_272:\n    tag_271:\n      sub\n        /* \"@openzeppelin/contracts/utils/cryptography/ECDSA.sol\":634:1075  if (error == RecoverError.NoError) {... */\n      iszero\n        /* \"@openzeppelin/contracts/utils/cryptography/ECDSA.sol\":683:690  return; */\n      tag_267\n        /* \"@openzeppelin/contracts/utils/cryptography/ECDSA.sol\":634:1075  if (error == RecoverError.NoError) {... */\n      jumpi\n        /* \"@openzeppelin/contracts/utils/cryptography/ECDSA.sol\":743:772  RecoverError.InvalidSignature */\n      0x01\n        /* \"@openzeppelin/contracts/utils/cryptography/ECDSA.sol\":734:772  error == RecoverError.InvalidSignature */\n      0x04\n      dup2\n      gt\n      iszero\n      tag_275\n      jumpi\n      tag_276\n      tag_270\n      jump\t// in\n    tag_276:\n    tag_275:\n        /* \"@openzeppelin/contracts/utils/cryptography/ECDSA.sol\":734:739  error */\n      dup2\n        /* \"@openzeppelin/contracts/utils/cryptography/ECDSA.sol\":734:772  error == RecoverError.InvalidSignature */\n      0x04\n      dup2\n      gt\n      iszero\n      tag_277\n      jumpi\n      tag_278\n      tag_270\n      jump\t// in\n    tag_278:\n    tag_277:\n      sub\n        /* \"@openzeppelin/contracts/utils/cryptography/ECDSA.sol\":730:1075  if (error == RecoverError.InvalidSignature) {... */\n      tag_279\n      jumpi\n        /* \"@openzeppelin/contracts/utils/cryptography/ECDSA.sol\":788:822  revert(\"ECDSA: invalid signature\") */\n      mload(0x40)\n      0x08c379a000000000000000000000000000000000000000000000000000000000\n      dup2\n      mstore\n      0x04\n      add\n      tag_280\n      swap1\n      tag_281\n      jump\t// in\n    tag_280:\n      mload(0x40)\n      dup1\n      swap2\n      sub\n      swap1\n      revert\n        /* \"@openzeppelin/contracts/utils/cryptography/ECDSA.sol\":730:1075  if (error == RecoverError.InvalidSignature) {... */\n    tag_279:\n        /* \"@openzeppelin/contracts/utils/cryptography/ECDSA.sol\":852:887  RecoverError.InvalidSignatureLength */\n      0x02\n        /* \"@openzeppelin/contracts/utils/cryptography/ECDSA.sol\":843:887  error == RecoverError.InvalidSignatureLength */\n      0x04\n      dup2\n      gt\n      iszero\n      tag_283\n      jumpi\n      tag_284\n      tag_270\n      jump\t// in\n    tag_284:\n    tag_283:\n        /* \"@openzeppelin/contracts/utils/cryptography/ECDSA.sol\":843:848  error */\n      dup2\n        /* \"@openzeppelin/contracts/utils/cryptography/ECDSA.sol\":843:887  error == RecoverError.InvalidSignatureLength */\n      0x04\n      dup2\n      gt\n      iszero\n      tag_285\n      jumpi\n      tag_286\n      tag_270\n      jump\t// in\n    tag_286:\n    tag_285:\n      sub\n        /* \"@openzeppelin/contracts/utils/cryptography/ECDSA.sol\":839:1075  if (error == RecoverError.InvalidSignatureLength) {... */\n      tag_287\n      jumpi\n        /* \"@openzeppelin/contracts/utils/cryptography/ECDSA.sol\":903:944  revert(\"ECDSA: invalid signature length\") */\n      mload(0x40)\n      0x08c379a000000000000000000000000000000000000000000000000000000000\n      dup2\n      mstore\n      0x04\n      add\n      tag_288\n      swap1\n      tag_289\n      jump\t// in\n    tag_288:\n      mload(0x40)\n      dup1\n      swap2\n      sub\n      swap1\n      revert\n        /* \"@openzeppelin/contracts/utils/cryptography/ECDSA.sol\":839:1075  if (error == RecoverError.InvalidSignatureLength) {... */\n    tag_287:\n        /* \"@openzeppelin/contracts/utils/cryptography/ECDSA.sol\":974:1004  RecoverError.InvalidSignatureS */\n      0x03\n        /* \"@openzeppelin/contracts/utils/cryptography/ECDSA.sol\":965:1004  error == RecoverError.InvalidSignatureS */\n      0x04\n      dup2\n      gt\n      iszero\n      tag_291\n      jumpi\n      tag_292\n      tag_270\n      jump\t// in\n    tag_292:\n    tag_291:\n        /* \"@openzeppelin/contracts/utils/cryptography/ECDSA.sol\":965:970  error */\n      dup2\n        /* \"@openzeppelin/contracts/utils/cryptography/ECDSA.sol\":965:1004  error == RecoverError.InvalidSignatureS */\n      0x04\n      dup2\n      gt\n      iszero\n      tag_293\n      jumpi\n      tag_294\n      tag_270\n      jump\t// in\n    tag_294:\n    tag_293:\n      sub\n        /* \"@openzeppelin/contracts/utils/cryptography/ECDSA.sol\":961:1075  if (error == RecoverError.InvalidSignatureS) {... */\n      tag_295\n      jumpi\n        /* \"@openzeppelin/contracts/utils/cryptography/ECDSA.sol\":1020:1064  revert(\"ECDSA: invalid signature 's' value\") */\n      mload(0x40)\n      0x08c379a000000000000000000000000000000000000000000000000000000000\n      dup2\n      mstore\n      0x04\n      add\n      tag_296\n      swap1\n      tag_297\n      jump\t// in\n    tag_296:\n      mload(0x40)\n      dup1\n      swap2\n      sub\n      swap1\n      revert\n        /* \"@openzeppelin/contracts/utils/cryptography/ECDSA.sol\":961:1075  if (error == RecoverError.InvalidSignatureS) {... */\n    tag_295:\n        /* \"@openzeppelin/contracts/utils/cryptography/ECDSA.sol\":570:1081  function _throwError(RecoverError error) private pure {... */\n    tag_267:\n      pop\n      jump\t// out\n        /* \"@openzeppelin/contracts/utils/cryptography/ECDSA.sol\":5069:6563  function tryRecover(... */\n    tag_265:\n        /* \"@openzeppelin/contracts/utils/cryptography/ECDSA.sol\":5195:5202  address */\n      0x00\n        /* \"@openzeppelin/contracts/utils/cryptography/ECDSA.sol\":5204:5216  RecoverError */\n      dup1\n        /* \"@openzeppelin/contracts/utils/cryptography/ECDSA.sol\":6119:6185  0x7FFFFFFFFFFFFFFFFFFFFFFFFFFFFFFF5D576E7357A4501DDFE92F46681B20A0 */\n      0x7fffffffffffffffffffffffffffffff5d576e7357a4501ddfe92f46681b20a0\n        /* \"@openzeppelin/contracts/utils/cryptography/ECDSA.sol\":6114:6115  s */\n      dup4\n        /* \"@openzeppelin/contracts/utils/cryptography/ECDSA.sol\":6106:6116  uint256(s) */\n      0x00\n      shr\n        /* \"@openzeppelin/contracts/utils/cryptography/ECDSA.sol\":6106:6185  uint256(s) > 0x7FFFFFFFFFFFFFFFFFFFFFFFFFFFFFFF5D576E7357A4501DDFE92F46681B20A0 */\n      gt\n        /* \"@openzeppelin/contracts/utils/cryptography/ECDSA.sol\":6102:6263  if (uint256(s) > 0x7FFFFFFFFFFFFFFFFFFFFFFFFFFFFFFF5D576E7357A4501DDFE92F46681B20A0) {... */\n      iszero\n      tag_299\n      jumpi\n        /* \"@openzeppelin/contracts/utils/cryptography/ECDSA.sol\":6217:6218  0 */\n      0x00\n        /* \"@openzeppelin/contracts/utils/cryptography/ECDSA.sol\":6221:6251  RecoverError.InvalidSignatureS */\n      0x03\n        /* \"@openzeppelin/contracts/utils/cryptography/ECDSA.sol\":6201:6252  return (address(0), RecoverError.InvalidSignatureS) */\n      swap2\n      pop\n      swap2\n      pop\n      jump(tag_298)\n        /* \"@openzeppelin/contracts/utils/cryptography/ECDSA.sol\":6102:6263  if (uint256(s) > 0x7FFFFFFFFFFFFFFFFFFFFFFFFFFFFFFF5D576E7357A4501DDFE92F46681B20A0) {... */\n    tag_299:\n        /* \"@openzeppelin/contracts/utils/cryptography/ECDSA.sol\":6357:6371  address signer */\n      0x00\n        /* \"@openzeppelin/contracts/utils/cryptography/ECDSA.sol\":6374:6398  ecrecover(hash, v, r, s) */\n      0x01\n        /* \"@openzeppelin/contracts/utils/cryptography/ECDSA.sol\":6384:6388  hash */\n      dup8\n        /* \"@openzeppelin/contracts/utils/cryptography/ECDSA.sol\":6390:6391  v */\n      dup8\n        /* \"@openzeppelin/contracts/utils/cryptography/ECDSA.sol\":6393:6394  r */\n      dup8\n        /* \"@openzeppelin/contracts/utils/cryptography/ECDSA.sol\":6396:6397  s */\n      dup8\n        /* \"@openzeppelin/contracts/utils/cryptography/ECDSA.sol\":6374:6398  ecrecover(hash, v, r, s) */\n      mload(0x40)\n      0x00\n      dup2\n      mstore\n      0x20\n      add\n      0x40\n      mstore\n      mload(0x40)\n      tag_300\n      swap5\n      swap4\n      swap3\n      swap2\n      swap1\n      tag_301\n      jump\t// in\n    tag_300:\n      0x20\n      mload(0x40)\n      0x20\n      dup2\n      sub\n      swap1\n      dup1\n      dup5\n      sub\n      swap1\n      dup6\n      gas\n      staticcall\n      iszero\n      dup1\n      iszero\n      tag_303\n      jumpi\n      returndatasize\n      0x00\n      dup1\n      returndatacopy\n      revert(0x00, returndatasize)\n    tag_303:\n      pop\n      pop\n      pop\n      mload(sub(mload(0x40), 0x20))\n        /* \"@openzeppelin/contracts/utils/cryptography/ECDSA.sol\":6357:6398  address signer = ecrecover(hash, v, r, s) */\n      swap1\n      pop\n        /* \"@openzeppelin/contracts/utils/cryptography/ECDSA.sol\":6430:6431  0 */\n      0x00\n        /* \"@openzeppelin/contracts/utils/cryptography/ECDSA.sol\":6412:6432  signer == address(0) */\n      0xffffffffffffffffffffffffffffffffffffffff\n      and\n        /* \"@openzeppelin/contracts/utils/cryptography/ECDSA.sol\":6412:6418  signer */\n      dup2\n        /* \"@openzeppelin/contracts/utils/cryptography/ECDSA.sol\":6412:6432  signer == address(0) */\n      0xffffffffffffffffffffffffffffffffffffffff\n      and\n      sub\n        /* \"@openzeppelin/contracts/utils/cryptography/ECDSA.sol\":6408:6509  if (signer == address(0)) {... */\n      tag_304\n      jumpi\n        /* \"@openzeppelin/contracts/utils/cryptography/ECDSA.sol\":6464:6465  0 */\n      0x00\n        /* \"@openzeppelin/contracts/utils/cryptography/ECDSA.sol\":6468:6497  RecoverError.InvalidSignature */\n      0x01\n        /* \"@openzeppelin/contracts/utils/cryptography/ECDSA.sol\":6448:6498  return (address(0), RecoverError.InvalidSignature) */\n      swap3\n      pop\n      swap3\n      pop\n      pop\n      jump(tag_298)\n        /* \"@openzeppelin/contracts/utils/cryptography/ECDSA.sol\":6408:6509  if (signer == address(0)) {... */\n    tag_304:\n        /* \"@openzeppelin/contracts/utils/cryptography/ECDSA.sol\":6527:6533  signer */\n      dup1\n        /* \"@openzeppelin/contracts/utils/cryptography/ECDSA.sol\":6535:6555  RecoverError.NoError */\n      0x00\n        /* \"@openzeppelin/contracts/utils/cryptography/ECDSA.sol\":6519:6556  return (signer, RecoverError.NoError) */\n      swap3\n      pop\n      swap3\n      pop\n      pop\n        /* \"@openzeppelin/contracts/utils/cryptography/ECDSA.sol\":5069:6563  function tryRecover(... */\n    tag_298:\n      swap5\n      pop\n      swap5\n      swap3\n      pop\n      pop\n      pop\n      jump\t// out\n        /* \"#utility.yul\":7:82   */\n    tag_305:\n        /* \"#utility.yul\":40:46   */\n      0x00\n        /* \"#utility.yul\":73:75   */\n      0x40\n        /* \"#utility.yul\":67:76   */\n      mload\n        /* \"#utility.yul\":57:76   */\n      swap1\n      pop\n        /* \"#utility.yul\":7:82   */\n      swap1\n      jump\t// out\n        /* \"#utility.yul\":88:205   */\n    tag_306:\n        /* \"#utility.yul\":197:198   */\n      0x00\n        /* \"#utility.yul\":194:195   */\n      dup1\n        /* \"#utility.yul\":187:199   */\n      revert\n        /* \"#utility.yul\":211:328   */\n    tag_307:\n        /* \"#utility.yul\":320:321   */\n      0x00\n        /* \"#utility.yul\":317:318   */\n      dup1\n        /* \"#utility.yul\":310:322   */\n      revert\n        /* \"#utility.yul\":334:483   */\n    tag_308:\n        /* \"#utility.yul\":370:377   */\n      0x00\n        /* \"#utility.yul\":410:476   */\n      0xffffffff00000000000000000000000000000000000000000000000000000000\n        /* \"#utility.yul\":403:408   */\n      dup3\n        /* \"#utility.yul\":399:477   */\n      and\n        /* \"#utility.yul\":388:477   */\n      swap1\n      pop\n        /* \"#utility.yul\":334:483   */\n      swap2\n      swap1\n      pop\n      jump\t// out\n        /* \"#utility.yul\":489:609   */\n    tag_309:\n        /* \"#utility.yul\":561:584   */\n      tag_389\n        /* \"#utility.yul\":578:583   */\n      dup2\n        /* \"#utility.yul\":561:584   */\n      tag_308\n      jump\t// in\n    tag_389:\n        /* \"#utility.yul\":554:559   */\n      dup2\n        /* \"#utility.yul\":551:585   */\n      eq\n        /* \"#utility.yul\":541:603   */\n      tag_390\n      jumpi\n        /* \"#utility.yul\":599:600   */\n      0x00\n        /* \"#utility.yul\":596:597   */\n      dup1\n        /* \"#utility.yul\":589:601   */\n      revert\n        /* \"#utility.yul\":541:603   */\n    tag_390:\n        /* \"#utility.yul\":489:609   */\n      pop\n      jump\t// out\n        /* \"#utility.yul\":615:752   */\n    tag_310:\n        /* \"#utility.yul\":660:665   */\n      0x00\n        /* \"#utility.yul\":698:704   */\n      dup2\n        /* \"#utility.yul\":685:705   */\n      calldataload\n        /* \"#utility.yul\":676:705   */\n      swap1\n      pop\n        /* \"#utility.yul\":714:746   */\n      tag_392\n        /* \"#utility.yul\":740:745   */\n      dup2\n        /* \"#utility.yul\":714:746   */\n      tag_309\n      jump\t// in\n    tag_392:\n        /* \"#utility.yul\":615:752   */\n      swap3\n      swap2\n      pop\n      pop\n      jump\t// out\n        /* \"#utility.yul\":758:1085   */\n    tag_16:\n        /* \"#utility.yul\":816:822   */\n      0x00\n        /* \"#utility.yul\":865:867   */\n      0x20\n        /* \"#utility.yul\":853:862   */\n      dup3\n        /* \"#utility.yul\":844:851   */\n      dup5\n        /* \"#utility.yul\":840:863   */\n      sub\n        /* \"#utility.yul\":836:868   */\n      slt\n        /* \"#utility.yul\":833:952   */\n      iszero\n      tag_394\n      jumpi\n        /* \"#utility.yul\":871:950   */\n      tag_395\n      tag_306\n      jump\t// in\n    tag_395:\n        /* \"#utility.yul\":833:952   */\n    tag_394:\n        /* \"#utility.yul\":991:992   */\n      0x00\n        /* \"#utility.yul\":1016:1068   */\n      tag_396\n        /* \"#utility.yul\":1060:1067   */\n      dup5\n        /* \"#utility.yul\":1051:1057   */\n      dup3\n        /* \"#utility.yul\":1040:1049   */\n      dup6\n        /* \"#utility.yul\":1036:1058   */\n      add\n        /* \"#utility.yul\":1016:1068   */\n      tag_310\n      jump\t// in\n    tag_396:\n        /* \"#utility.yul\":1006:1068   */\n      swap2\n      pop\n        /* \"#utility.yul\":962:1078   */\n      pop\n        /* \"#utility.yul\":758:1085   */\n      swap3\n      swap2\n      pop\n      pop\n      jump\t// out\n        /* \"#utility.yul\":1091:1181   */\n    tag_311:\n        /* \"#utility.yul\":1125:1132   */\n      0x00\n        /* \"#utility.yul\":1168:1173   */\n      dup2\n        /* \"#utility.yul\":1161:1174   */\n      iszero\n        /* \"#utility.yul\":1154:1175   */\n      iszero\n        /* \"#utility.yul\":1143:1175   */\n      swap1\n      pop\n        /* \"#utility.yul\":1091:1181   */\n      swap2\n      swap1\n      pop\n      jump\t// out\n        /* \"#utility.yul\":1187:1296   */\n    tag_312:\n        /* \"#utility.yul\":1268:1289   */\n      tag_399\n        /* \"#utility.yul\":1283:1288   */\n      dup2\n        /* \"#utility.yul\":1268:1289   */\n      tag_311\n      jump\t// in\n    tag_399:\n        /* \"#utility.yul\":1263:1266   */\n      dup3\n        /* \"#utility.yul\":1256:1290   */\n      mstore\n        /* \"#utility.yul\":1187:1296   */\n      pop\n      pop\n      jump\t// out\n        /* \"#utility.yul\":1302:1512   */\n    tag_19:\n        /* \"#utility.yul\":1389:1393   */\n      0x00\n        /* \"#utility.yul\":1427:1429   */\n      0x20\n        /* \"#utility.yul\":1416:1425   */\n      dup3\n        /* \"#utility.yul\":1412:1430   */\n      add\n        /* \"#utility.yul\":1404:1430   */\n      swap1\n      pop\n        /* \"#utility.yul\":1440:1505   */\n      tag_401\n        /* \"#utility.yul\":1502:1503   */\n      0x00\n        /* \"#utility.yul\":1491:1500   */\n      dup4\n        /* \"#utility.yul\":1487:1504   */\n      add\n        /* \"#utility.yul\":1478:1484   */\n      dup5\n        /* \"#utility.yul\":1440:1505   */\n      tag_312\n      jump\t// in\n    tag_401:\n        /* \"#utility.yul\":1302:1512   */\n      swap3\n      swap2\n      pop\n      pop\n      jump\t// out\n        /* \"#utility.yul\":1518:1595   */\n    tag_313:\n        /* \"#utility.yul\":1555:1562   */\n      0x00\n        /* \"#utility.yul\":1584:1589   */\n      dup2\n        /* \"#utility.yul\":1573:1589   */\n      swap1\n      pop\n        /* \"#utility.yul\":1518:1595   */\n      swap2\n      swap1\n      pop\n      jump\t// out\n        /* \"#utility.yul\":1601:1719   */\n    tag_314:\n        /* \"#utility.yul\":1688:1712   */\n      tag_404\n        /* \"#utility.yul\":1706:1711   */\n      dup2\n        /* \"#utility.yul\":1688:1712   */\n      tag_313\n      jump\t// in\n    tag_404:\n        /* \"#utility.yul\":1683:1686   */\n      dup3\n        /* \"#utility.yul\":1676:1713   */\n      mstore\n        /* \"#utility.yul\":1601:1719   */\n      pop\n      pop\n      jump\t// out\n        /* \"#utility.yul\":1725:1947   */\n    tag_23:\n        /* \"#utility.yul\":1818:1822   */\n      0x00\n        /* \"#utility.yul\":1856:1858   */\n      0x20\n        /* \"#utility.yul\":1845:1854   */\n      dup3\n        /* \"#utility.yul\":1841:1859   */\n      add\n        /* \"#utility.yul\":1833:1859   */\n      swap1\n      pop\n        /* \"#utility.yul\":1869:1940   */\n      tag_406\n        /* \"#utility.yul\":1937:1938   */\n      0x00\n        /* \"#utility.yul\":1926:1935   */\n      dup4\n        /* \"#utility.yul\":1922:1939   */\n      add\n        /* \"#utility.yul\":1913:1919   */\n      dup5\n        /* \"#utility.yul\":1869:1940   */\n      tag_314\n      jump\t// in\n    tag_406:\n        /* \"#utility.yul\":1725:1947   */\n      swap3\n      swap2\n      pop\n      pop\n      jump\t// out\n        /* \"#utility.yul\":1953:2070   */\n    tag_315:\n        /* \"#utility.yul\":2062:2063   */\n      0x00\n        /* \"#utility.yul\":2059:2060   */\n      dup1\n        /* \"#utility.yul\":2052:2064   */\n      revert\n        /* \"#utility.yul\":2076:2193   */\n    tag_316:\n        /* \"#utility.yul\":2185:2186   */\n      0x00\n        /* \"#utility.yul\":2182:2183   */\n      dup1\n        /* \"#utility.yul\":2175:2187   */\n      revert\n        /* \"#utility.yul\":2199:2316   */\n    tag_317:\n        /* \"#utility.yul\":2308:2309   */\n      0x00\n        /* \"#utility.yul\":2305:2306   */\n      dup1\n        /* \"#utility.yul\":2298:2310   */\n      revert\n        /* \"#utility.yul\":2339:2907   */\n    tag_318:\n        /* \"#utility.yul\":2412:2420   */\n      0x00\n        /* \"#utility.yul\":2422:2428   */\n      dup1\n        /* \"#utility.yul\":2472:2475   */\n      dup4\n        /* \"#utility.yul\":2465:2469   */\n      0x1f\n        /* \"#utility.yul\":2457:2463   */\n      dup5\n        /* \"#utility.yul\":2453:2470   */\n      add\n        /* \"#utility.yul\":2449:2476   */\n      slt\n        /* \"#utility.yul\":2439:2561   */\n      tag_411\n      jumpi\n        /* \"#utility.yul\":2480:2559   */\n      tag_412\n      tag_315\n      jump\t// in\n    tag_412:\n        /* \"#utility.yul\":2439:2561   */\n    tag_411:\n        /* \"#utility.yul\":2593:2599   */\n      dup3\n        /* \"#utility.yul\":2580:2600   */\n      calldataload\n        /* \"#utility.yul\":2570:2600   */\n      swap1\n      pop\n        /* \"#utility.yul\":2623:2641   */\n      0xffffffffffffffff\n        /* \"#utility.yul\":2615:2621   */\n      dup2\n        /* \"#utility.yul\":2612:2642   */\n      gt\n        /* \"#utility.yul\":2609:2726   */\n      iszero\n      tag_413\n      jumpi\n        /* \"#utility.yul\":2645:2724   */\n      tag_414\n      tag_316\n      jump\t// in\n    tag_414:\n        /* \"#utility.yul\":2609:2726   */\n    tag_413:\n        /* \"#utility.yul\":2759:2763   */\n      0x20\n        /* \"#utility.yul\":2751:2757   */\n      dup4\n        /* \"#utility.yul\":2747:2764   */\n      add\n        /* \"#utility.yul\":2735:2764   */\n      swap2\n      pop\n        /* \"#utility.yul\":2813:2816   */\n      dup4\n        /* \"#utility.yul\":2805:2809   */\n      0x20\n        /* \"#utility.yul\":2797:2803   */\n      dup3\n        /* \"#utility.yul\":2793:2810   */\n      mul\n        /* \"#utility.yul\":2783:2791   */\n      dup4\n        /* \"#utility.yul\":2779:2811   */\n      add\n        /* \"#utility.yul\":2776:2817   */\n      gt\n        /* \"#utility.yul\":2773:2901   */\n      iszero\n      tag_415\n      jumpi\n        /* \"#utility.yul\":2820:2899   */\n      tag_416\n      tag_317\n      jump\t// in\n    tag_416:\n        /* \"#utility.yul\":2773:2901   */\n    tag_415:\n        /* \"#utility.yul\":2339:2907   */\n      swap3\n      pop\n      swap3\n      swap1\n      pop\n      jump\t// out\n        /* \"#utility.yul\":2913:3035   */\n    tag_319:\n        /* \"#utility.yul\":2986:3010   */\n      tag_418\n        /* \"#utility.yul\":3004:3009   */\n      dup2\n        /* \"#utility.yul\":2986:3010   */\n      tag_313\n      jump\t// in\n    tag_418:\n        /* \"#utility.yul\":2979:2984   */\n      dup2\n        /* \"#utility.yul\":2976:3011   */\n      eq\n        /* \"#utility.yul\":2966:3029   */\n      tag_419\n      jumpi\n        /* \"#utility.yul\":3025:3026   */\n      0x00\n        /* \"#utility.yul\":3022:3023   */\n      dup1\n        /* \"#utility.yul\":3015:3027   */\n      revert\n        /* \"#utility.yul\":2966:3029   */\n    tag_419:\n        /* \"#utility.yul\":2913:3035   */\n      pop\n      jump\t// out\n        /* \"#utility.yul\":3041:3180   */\n    tag_320:\n        /* \"#utility.yul\":3087:3092   */\n      0x00\n        /* \"#utility.yul\":3125:3131   */\n      dup2\n        /* \"#utility.yul\":3112:3132   */\n      calldataload\n        /* \"#utility.yul\":3103:3132   */\n      swap1\n      pop\n        /* \"#utility.yul\":3141:3174   */\n      tag_421\n        /* \"#utility.yul\":3168:3173   */\n      dup2\n        /* \"#utility.yul\":3141:3174   */\n      tag_319\n      jump\t// in\n    tag_421:\n        /* \"#utility.yul\":3041:3180   */\n      swap3\n      swap2\n      pop\n      pop\n      jump\t// out\n        /* \"#utility.yul\":3201:3780   */\n    tag_321:\n        /* \"#utility.yul\":3285:3293   */\n      0x00\n        /* \"#utility.yul\":3295:3301   */\n      dup1\n        /* \"#utility.yul\":3345:3348   */\n      dup4\n        /* \"#utility.yul\":3338:3342   */\n      0x1f\n        /* \"#utility.yul\":3330:3336   */\n      dup5\n        /* \"#utility.yul\":3326:3343   */\n      add\n        /* \"#utility.yul\":3322:3349   */\n      slt\n        /* \"#utility.yul\":3312:3434   */\n      tag_423\n      jumpi\n        /* \"#utility.yul\":3353:3432   */\n      tag_424\n      tag_315\n      jump\t// in\n    tag_424:\n        /* \"#utility.yul\":3312:3434   */\n    tag_423:\n        /* \"#utility.yul\":3466:3472   */\n      dup3\n        /* \"#utility.yul\":3453:3473   */\n      calldataload\n        /* \"#utility.yul\":3443:3473   */\n      swap1\n      pop\n        /* \"#utility.yul\":3496:3514   */\n      0xffffffffffffffff\n        /* \"#utility.yul\":3488:3494   */\n      dup2\n        /* \"#utility.yul\":3485:3515   */\n      gt\n        /* \"#utility.yul\":3482:3599   */\n      iszero\n      tag_425\n      jumpi\n        /* \"#utility.yul\":3518:3597   */\n      tag_426\n      tag_316\n      jump\t// in\n    tag_426:\n        /* \"#utility.yul\":3482:3599   */\n    tag_425:\n        /* \"#utility.yul\":3632:3636   */\n      0x20\n        /* \"#utility.yul\":3624:3630   */\n      dup4\n        /* \"#utility.yul\":3620:3637   */\n      add\n        /* \"#utility.yul\":3608:3637   */\n      swap2\n      pop\n        /* \"#utility.yul\":3686:3689   */\n      dup4\n        /* \"#utility.yul\":3678:3682   */\n      0x20\n        /* \"#utility.yul\":3670:3676   */\n      dup3\n        /* \"#utility.yul\":3666:3683   */\n      mul\n        /* \"#utility.yul\":3656:3664   */\n      dup4\n        /* \"#utility.yul\":3652:3684   */\n      add\n        /* \"#utility.yul\":3649:3690   */\n      gt\n        /* \"#utility.yul\":3646:3774   */\n      iszero\n      tag_427\n      jumpi\n        /* \"#utility.yul\":3693:3772   */\n      tag_428\n      tag_317\n      jump\t// in\n    tag_428:\n        /* \"#utility.yul\":3646:3774   */\n    tag_427:\n        /* \"#utility.yul\":3201:3780   */\n      swap3\n      pop\n      swap3\n      swap1\n      pop\n      jump\t// out\n        /* \"#utility.yul\":3786:4887   */\n    tag_26:\n        /* \"#utility.yul\":3928:3934   */\n      0x00\n        /* \"#utility.yul\":3936:3942   */\n      dup1\n        /* \"#utility.yul\":3944:3950   */\n      0x00\n        /* \"#utility.yul\":3952:3958   */\n      dup1\n        /* \"#utility.yul\":3960:3966   */\n      0x00\n        /* \"#utility.yul\":4009:4011   */\n      0x60\n        /* \"#utility.yul\":3997:4006   */\n      dup7\n        /* \"#utility.yul\":3988:3995   */\n      dup9\n        /* \"#utility.yul\":3984:4007   */\n      sub\n        /* \"#utility.yul\":3980:4012   */\n      slt\n        /* \"#utility.yul\":3977:4096   */\n      iszero\n      tag_430\n      jumpi\n        /* \"#utility.yul\":4015:4094   */\n      tag_431\n      tag_306\n      jump\t// in\n    tag_431:\n        /* \"#utility.yul\":3977:4096   */\n    tag_430:\n        /* \"#utility.yul\":4163:4164   */\n      0x00\n        /* \"#utility.yul\":4152:4161   */\n      dup7\n        /* \"#utility.yul\":4148:4165   */\n      add\n        /* \"#utility.yul\":4135:4166   */\n      calldataload\n        /* \"#utility.yul\":4193:4211   */\n      0xffffffffffffffff\n        /* \"#utility.yul\":4185:4191   */\n      dup2\n        /* \"#utility.yul\":4182:4212   */\n      gt\n        /* \"#utility.yul\":4179:4296   */\n      iszero\n      tag_432\n      jumpi\n        /* \"#utility.yul\":4215:4294   */\n      tag_433\n      tag_307\n      jump\t// in\n    tag_433:\n        /* \"#utility.yul\":4179:4296   */\n    tag_432:\n        /* \"#utility.yul\":4328:4408   */\n      tag_434\n        /* \"#utility.yul\":4400:4407   */\n      dup9\n        /* \"#utility.yul\":4391:4397   */\n      dup3\n        /* \"#utility.yul\":4380:4389   */\n      dup10\n        /* \"#utility.yul\":4376:4398   */\n      add\n        /* \"#utility.yul\":4328:4408   */\n      tag_318\n      jump\t// in\n    tag_434:\n        /* \"#utility.yul\":4310:4408   */\n      swap6\n      pop\n      swap6\n      pop\n        /* \"#utility.yul\":4106:4418   */\n      pop\n        /* \"#utility.yul\":4457:4459   */\n      0x20\n        /* \"#utility.yul\":4483:4536   */\n      tag_435\n        /* \"#utility.yul\":4528:4535   */\n      dup9\n        /* \"#utility.yul\":4519:4525   */\n      dup3\n        /* \"#utility.yul\":4508:4517   */\n      dup10\n        /* \"#utility.yul\":4504:4526   */\n      add\n        /* \"#utility.yul\":4483:4536   */\n      tag_320\n      jump\t// in\n    tag_435:\n        /* \"#utility.yul\":4473:4536   */\n      swap4\n      pop\n        /* \"#utility.yul\":4428:4546   */\n      pop\n        /* \"#utility.yul\":4613:4615   */\n      0x40\n        /* \"#utility.yul\":4602:4611   */\n      dup7\n        /* \"#utility.yul\":4598:4616   */\n      add\n        /* \"#utility.yul\":4585:4617   */\n      calldataload\n        /* \"#utility.yul\":4644:4662   */\n      0xffffffffffffffff\n        /* \"#utility.yul\":4636:4642   */\n      dup2\n        /* \"#utility.yul\":4633:4663   */\n      gt\n        /* \"#utility.yul\":4630:4747   */\n      iszero\n      tag_436\n      jumpi\n        /* \"#utility.yul\":4666:4745   */\n      tag_437\n      tag_307\n      jump\t// in\n    tag_437:\n        /* \"#utility.yul\":4630:4747   */\n    tag_436:\n        /* \"#utility.yul\":4779:4870   */\n      tag_438\n        /* \"#utility.yul\":4862:4869   */\n      dup9\n        /* \"#utility.yul\":4853:4859   */\n      dup3\n        /* \"#utility.yul\":4842:4851   */\n      dup10\n        /* \"#utility.yul\":4838:4860   */\n      add\n        /* \"#utility.yul\":4779:4870   */\n      tag_321\n      jump\t// in\n    tag_438:\n        /* \"#utility.yul\":4761:4870   */\n      swap3\n      pop\n      swap3\n      pop\n        /* \"#utility.yul\":4556:4880   */\n      pop\n        /* \"#utility.yul\":3786:4887   */\n      swap3\n      swap6\n      pop\n      swap3\n      swap6\n      swap1\n      swap4\n      pop\n      jump\t// out\n        /* \"#utility.yul\":4893:5764   */\n    tag_30:\n        /* \"#utility.yul\":5008:5014   */\n      0x00\n        /* \"#utility.yul\":5016:5022   */\n      dup1\n        /* \"#utility.yul\":5024:5030   */\n      0x00\n        /* \"#utility.yul\":5032:5038   */\n      dup1\n        /* \"#utility.yul\":5081:5083   */\n      0x60\n        /* \"#utility.yul\":5069:5078   */\n      dup6\n        /* \"#utility.yul\":5060:5067   */\n      dup8\n        /* \"#utility.yul\":5056:5079   */\n      sub\n        /* \"#utility.yul\":5052:5084   */\n      slt\n        /* \"#utility.yul\":5049:5168   */\n      iszero\n      tag_440\n      jumpi\n        /* \"#utility.yul\":5087:5166   */\n      tag_441\n      tag_306\n      jump\t// in\n    tag_441:\n        /* \"#utility.yul\":5049:5168   */\n    tag_440:\n        /* \"#utility.yul\":5207:5208   */\n      0x00\n        /* \"#utility.yul\":5232:5285   */\n      tag_442\n        /* \"#utility.yul\":5277:5284   */\n      dup8\n        /* \"#utility.yul\":5268:5274   */\n      dup3\n        /* \"#utility.yul\":5257:5266   */\n      dup9\n        /* \"#utility.yul\":5253:5275   */\n      add\n        /* \"#utility.yul\":5232:5285   */\n      tag_320\n      jump\t// in\n    tag_442:\n        /* \"#utility.yul\":5222:5285   */\n      swap5\n      pop\n        /* \"#utility.yul\":5178:5295   */\n      pop\n        /* \"#utility.yul\":5334:5336   */\n      0x20\n        /* \"#utility.yul\":5360:5413   */\n      tag_443\n        /* \"#utility.yul\":5405:5412   */\n      dup8\n        /* \"#utility.yul\":5396:5402   */\n      dup3\n        /* \"#utility.yul\":5385:5394   */\n      dup9\n        /* \"#utility.yul\":5381:5403   */\n      add\n        /* \"#utility.yul\":5360:5413   */\n      tag_320\n      jump\t// in\n    tag_443:\n        /* \"#utility.yul\":5350:5413   */\n      swap4\n      pop\n        /* \"#utility.yul\":5305:5423   */\n      pop\n        /* \"#utility.yul\":5490:5492   */\n      0x40\n        /* \"#utility.yul\":5479:5488   */\n      dup6\n        /* \"#utility.yul\":5475:5493   */\n      add\n        /* \"#utility.yul\":5462:5494   */\n      calldataload\n        /* \"#utility.yul\":5521:5539   */\n      0xffffffffffffffff\n        /* \"#utility.yul\":5513:5519   */\n      dup2\n        /* \"#utility.yul\":5510:5540   */\n      gt\n        /* \"#utility.yul\":5507:5624   */\n      iszero\n      tag_444\n      jumpi\n        /* \"#utility.yul\":5543:5622   */\n      tag_445\n      tag_307\n      jump\t// in\n    tag_445:\n        /* \"#utility.yul\":5507:5624   */\n    tag_444:\n        /* \"#utility.yul\":5656:5747   */\n      tag_446\n        /* \"#utility.yul\":5739:5746   */\n      dup8\n        /* \"#utility.yul\":5730:5736   */\n      dup3\n        /* \"#utility.yul\":5719:5728   */\n      dup9\n        /* \"#utility.yul\":5715:5737   */\n      add\n        /* \"#utility.yul\":5656:5747   */\n      tag_321\n      jump\t// in\n    tag_446:\n        /* \"#utility.yul\":5638:5747   */\n      swap3\n      pop\n      swap3\n      pop\n        /* \"#utility.yul\":5433:5757   */\n      pop\n        /* \"#utility.yul\":4893:5764   */\n      swap3\n      swap6\n      swap2\n      swap5\n      pop\n      swap3\n      pop\n      jump\t// out\n        /* \"#utility.yul\":5770:5896   */\n    tag_322:\n        /* \"#utility.yul\":5807:5814   */\n      0x00\n        /* \"#utility.yul\":5847:5889   */\n      0xffffffffffffffffffffffffffffffffffffffff\n        /* \"#utility.yul\":5840:5845   */\n      dup3\n        /* \"#utility.yul\":5836:5890   */\n      and\n        /* \"#utility.yul\":5825:5890   */\n      swap1\n      pop\n        /* \"#utility.yul\":5770:5896   */\n      swap2\n      swap1\n      pop\n      jump\t// out\n        /* \"#utility.yul\":5902:5998   */\n    tag_323:\n        /* \"#utility.yul\":5939:5946   */\n      0x00\n        /* \"#utility.yul\":5968:5992   */\n      tag_449\n        /* \"#utility.yul\":5986:5991   */\n      dup3\n        /* \"#utility.yul\":5968:5992   */\n      tag_322\n      jump\t// in\n    tag_449:\n        /* \"#utility.yul\":5957:5992   */\n      swap1\n      pop\n        /* \"#utility.yul\":5902:5998   */\n      swap2\n      swap1\n      pop\n      jump\t// out\n        /* \"#utility.yul\":6004:6126   */\n    tag_324:\n        /* \"#utility.yul\":6077:6101   */\n      tag_451\n        /* \"#utility.yul\":6095:6100   */\n      dup2\n        /* \"#utility.yul\":6077:6101   */\n      tag_323\n      jump\t// in\n    tag_451:\n        /* \"#utility.yul\":6070:6075   */\n      dup2\n        /* \"#utility.yul\":6067:6102   */\n      eq\n        /* \"#utility.yul\":6057:6120   */\n      tag_452\n      jumpi\n        /* \"#utility.yul\":6116:6117   */\n      0x00\n        /* \"#utility.yul\":6113:6114   */\n      dup1\n        /* \"#utility.yul\":6106:6118   */\n      revert\n        /* \"#utility.yul\":6057:6120   */\n    tag_452:\n        /* \"#utility.yul\":6004:6126   */\n      pop\n      jump\t// out\n        /* \"#utility.yul\":6132:6271   */\n    tag_325:\n        /* \"#utility.yul\":6178:6183   */\n      0x00\n        /* \"#utility.yul\":6216:6222   */\n      dup2\n        /* \"#utility.yul\":6203:6223   */\n      calldataload\n        /* \"#utility.yul\":6194:6223   */\n      swap1\n      pop\n        /* \"#utility.yul\":6232:6265   */\n      tag_454\n        /* \"#utility.yul\":6259:6264   */\n      dup2\n        /* \"#utility.yul\":6232:6265   */\n      tag_324\n      jump\t// in\n    tag_454:\n        /* \"#utility.yul\":6132:6271   */\n      swap3\n      swap2\n      pop\n      pop\n      jump\t// out\n        /* \"#utility.yul\":6277:7148   */\n    tag_34:\n        /* \"#utility.yul\":6392:6398   */\n      0x00\n        /* \"#utility.yul\":6400:6406   */\n      dup1\n        /* \"#utility.yul\":6408:6414   */\n      0x00\n        /* \"#utility.yul\":6416:6422   */\n      dup1\n        /* \"#utility.yul\":6465:6467   */\n      0x60\n        /* \"#utility.yul\":6453:6462   */\n      dup6\n        /* \"#utility.yul\":6444:6451   */\n      dup8\n        /* \"#utility.yul\":6440:6463   */\n      sub\n        /* \"#utility.yul\":6436:6468   */\n      slt\n        /* \"#utility.yul\":6433:6552   */\n      iszero\n      tag_456\n      jumpi\n        /* \"#utility.yul\":6471:6550   */\n      tag_457\n      tag_306\n      jump\t// in\n    tag_457:\n        /* \"#utility.yul\":6433:6552   */\n    tag_456:\n        /* \"#utility.yul\":6591:6592   */\n      0x00\n        /* \"#utility.yul\":6616:6669   */\n      tag_458\n        /* \"#utility.yul\":6661:6668   */\n      dup8\n        /* \"#utility.yul\":6652:6658   */\n      dup3\n        /* \"#utility.yul\":6641:6650   */\n      dup9\n        /* \"#utility.yul\":6637:6659   */\n      add\n        /* \"#utility.yul\":6616:6669   */\n      tag_325\n      jump\t// in\n    tag_458:\n        /* \"#utility.yul\":6606:6669   */\n      swap5\n      pop\n        /* \"#utility.yul\":6562:6679   */\n      pop\n        /* \"#utility.yul\":6718:6720   */\n      0x20\n        /* \"#utility.yul\":6744:6797   */\n      tag_459\n        /* \"#utility.yul\":6789:6796   */\n      dup8\n        /* \"#utility.yul\":6780:6786   */\n      dup3\n        /* \"#utility.yul\":6769:6778   */\n      dup9\n        /* \"#utility.yul\":6765:6787   */\n      add\n        /* \"#utility.yul\":6744:6797   */\n      tag_320\n      jump\t// in\n    tag_459:\n        /* \"#utility.yul\":6734:6797   */\n      swap4\n      pop\n        /* \"#utility.yul\":6689:6807   */\n      pop\n        /* \"#utility.yul\":6874:6876   */\n      0x40\n        /* \"#utility.yul\":6863:6872   */\n      dup6\n        /* \"#utility.yul\":6859:6877   */\n      add\n        /* \"#utility.yul\":6846:6878   */\n      calldataload\n        /* \"#utility.yul\":6905:6923   */\n      0xffffffffffffffff\n        /* \"#utility.yul\":6897:6903   */\n      dup2\n        /* \"#utility.yul\":6894:6924   */\n      gt\n        /* \"#utility.yul\":6891:7008   */\n      iszero\n      tag_460\n      jumpi\n        /* \"#utility.yul\":6927:7006   */\n      tag_461\n      tag_307\n      jump\t// in\n    tag_461:\n        /* \"#utility.yul\":6891:7008   */\n    tag_460:\n        /* \"#utility.yul\":7040:7131   */\n      tag_462\n        /* \"#utility.yul\":7123:7130   */\n      dup8\n        /* \"#utility.yul\":7114:7120   */\n      dup3\n        /* \"#utility.yul\":7103:7112   */\n      dup9\n        /* \"#utility.yul\":7099:7121   */\n      add\n        /* \"#utility.yul\":7040:7131   */\n      tag_321\n      jump\t// in\n    tag_462:\n        /* \"#utility.yul\":7022:7131   */\n      swap3\n      pop\n      swap3\n      pop\n        /* \"#utility.yul\":6817:7141   */\n      pop\n        /* \"#utility.yul\":6277:7148   */\n      swap3\n      swap6\n      swap2\n      swap5\n      pop\n      swap3\n      pop\n      jump\t// out\n        /* \"#utility.yul\":7171:7739   */\n    tag_326:\n        /* \"#utility.yul\":7244:7252   */\n      0x00\n        /* \"#utility.yul\":7254:7260   */\n      dup1\n        /* \"#utility.yul\":7304:7307   */\n      dup4\n        /* \"#utility.yul\":7297:7301   */\n      0x1f\n        /* \"#utility.yul\":7289:7295   */\n      dup5\n        /* \"#utility.yul\":7285:7302   */\n      add\n        /* \"#utility.yul\":7281:7308   */\n      slt\n        /* \"#utility.yul\":7271:7393   */\n      tag_464\n      jumpi\n        /* \"#utility.yul\":7312:7391   */\n      tag_465\n      tag_315\n      jump\t// in\n    tag_465:\n        /* \"#utility.yul\":7271:7393   */\n    tag_464:\n        /* \"#utility.yul\":7425:7431   */\n      dup3\n        /* \"#utility.yul\":7412:7432   */\n      calldataload\n        /* \"#utility.yul\":7402:7432   */\n      swap1\n      pop\n        /* \"#utility.yul\":7455:7473   */\n      0xffffffffffffffff\n        /* \"#utility.yul\":7447:7453   */\n      dup2\n        /* \"#utility.yul\":7444:7474   */\n      gt\n        /* \"#utility.yul\":7441:7558   */\n      iszero\n      tag_466\n      jumpi\n        /* \"#utility.yul\":7477:7556   */\n      tag_467\n      tag_316\n      jump\t// in\n    tag_467:\n        /* \"#utility.yul\":7441:7558   */\n    tag_466:\n        /* \"#utility.yul\":7591:7595   */\n      0x20\n        /* \"#utility.yul\":7583:7589   */\n      dup4\n        /* \"#utility.yul\":7579:7596   */\n      add\n        /* \"#utility.yul\":7567:7596   */\n      swap2\n      pop\n        /* \"#utility.yul\":7645:7648   */\n      dup4\n        /* \"#utility.yul\":7637:7641   */\n      0x20\n        /* \"#utility.yul\":7629:7635   */\n      dup3\n        /* \"#utility.yul\":7625:7642   */\n      mul\n        /* \"#utility.yul\":7615:7623   */\n      dup4\n        /* \"#utility.yul\":7611:7643   */\n      add\n        /* \"#utility.yul\":7608:7649   */\n      gt\n        /* \"#utility.yul\":7605:7733   */\n      iszero\n      tag_468\n      jumpi\n        /* \"#utility.yul\":7652:7731   */\n      tag_469\n      tag_317\n      jump\t// in\n    tag_469:\n        /* \"#utility.yul\":7605:7733   */\n    tag_468:\n        /* \"#utility.yul\":7171:7739   */\n      swap3\n      pop\n      swap3\n      swap1\n      pop\n      jump\t// out\n        /* \"#utility.yul\":7745:9222   */\n    tag_41:\n        /* \"#utility.yul\":7923:7929   */\n      0x00\n        /* \"#utility.yul\":7931:7937   */\n      dup1\n        /* \"#utility.yul\":7939:7945   */\n      0x00\n        /* \"#utility.yul\":7947:7953   */\n      dup1\n        /* \"#utility.yul\":7955:7961   */\n      0x00\n        /* \"#utility.yul\":7963:7969   */\n      dup1\n        /* \"#utility.yul\":7971:7977   */\n      0x00\n        /* \"#utility.yul\":8020:8023   */\n      0x80\n        /* \"#utility.yul\":8008:8017   */\n      dup9\n        /* \"#utility.yul\":7999:8006   */\n      dup11\n        /* \"#utility.yul\":7995:8018   */\n      sub\n        /* \"#utility.yul\":7991:8024   */\n      slt\n        /* \"#utility.yul\":7988:8108   */\n      iszero\n      tag_471\n      jumpi\n        /* \"#utility.yul\":8027:8106   */\n      tag_472\n      tag_306\n      jump\t// in\n    tag_472:\n        /* \"#utility.yul\":7988:8108   */\n    tag_471:\n        /* \"#utility.yul\":8175:8176   */\n      0x00\n        /* \"#utility.yul\":8164:8173   */\n      dup9\n        /* \"#utility.yul\":8160:8177   */\n      add\n        /* \"#utility.yul\":8147:8178   */\n      calldataload\n        /* \"#utility.yul\":8205:8223   */\n      0xffffffffffffffff\n        /* \"#utility.yul\":8197:8203   */\n      dup2\n        /* \"#utility.yul\":8194:8224   */\n      gt\n        /* \"#utility.yul\":8191:8308   */\n      iszero\n      tag_473\n      jumpi\n        /* \"#utility.yul\":8227:8306   */\n      tag_474\n      tag_307\n      jump\t// in\n    tag_474:\n        /* \"#utility.yul\":8191:8308   */\n    tag_473:\n        /* \"#utility.yul\":8340:8420   */\n      tag_475\n        /* \"#utility.yul\":8412:8419   */\n      dup11\n        /* \"#utility.yul\":8403:8409   */\n      dup3\n        /* \"#utility.yul\":8392:8401   */\n      dup12\n        /* \"#utility.yul\":8388:8410   */\n      add\n        /* \"#utility.yul\":8340:8420   */\n      tag_318\n      jump\t// in\n    tag_475:\n        /* \"#utility.yul\":8322:8420   */\n      swap8\n      pop\n      swap8\n      pop\n        /* \"#utility.yul\":8118:8430   */\n      pop\n        /* \"#utility.yul\":8497:8499   */\n      0x20\n        /* \"#utility.yul\":8486:8495   */\n      dup9\n        /* \"#utility.yul\":8482:8500   */\n      add\n        /* \"#utility.yul\":8469:8501   */\n      calldataload\n        /* \"#utility.yul\":8528:8546   */\n      0xffffffffffffffff\n        /* \"#utility.yul\":8520:8526   */\n      dup2\n        /* \"#utility.yul\":8517:8547   */\n      gt\n        /* \"#utility.yul\":8514:8631   */\n      iszero\n      tag_476\n      jumpi\n        /* \"#utility.yul\":8550:8629   */\n      tag_477\n      tag_307\n      jump\t// in\n    tag_477:\n        /* \"#utility.yul\":8514:8631   */\n    tag_476:\n        /* \"#utility.yul\":8663:8743   */\n      tag_478\n        /* \"#utility.yul\":8735:8742   */\n      dup11\n        /* \"#utility.yul\":8726:8732   */\n      dup3\n        /* \"#utility.yul\":8715:8724   */\n      dup12\n        /* \"#utility.yul\":8711:8733   */\n      add\n        /* \"#utility.yul\":8663:8743   */\n      tag_326\n      jump\t// in\n    tag_478:\n        /* \"#utility.yul\":8645:8743   */\n      swap6\n      pop\n      swap6\n      pop\n        /* \"#utility.yul\":8440:8753   */\n      pop\n        /* \"#utility.yul\":8792:8794   */\n      0x40\n        /* \"#utility.yul\":8818:8871   */\n      tag_479\n        /* \"#utility.yul\":8863:8870   */\n      dup11\n        /* \"#utility.yul\":8854:8860   */\n      dup3\n        /* \"#utility.yul\":8843:8852   */\n      dup12\n        /* \"#utility.yul\":8839:8861   */\n      add\n        /* \"#utility.yul\":8818:8871   */\n      tag_320\n      jump\t// in\n    tag_479:\n        /* \"#utility.yul\":8808:8871   */\n      swap4\n      pop\n        /* \"#utility.yul\":8763:8881   */\n      pop\n        /* \"#utility.yul\":8948:8950   */\n      0x60\n        /* \"#utility.yul\":8937:8946   */\n      dup9\n        /* \"#utility.yul\":8933:8951   */\n      add\n        /* \"#utility.yul\":8920:8952   */\n      calldataload\n        /* \"#utility.yul\":8979:8997   */\n      0xffffffffffffffff\n        /* \"#utility.yul\":8971:8977   */\n      dup2\n        /* \"#utility.yul\":8968:8998   */\n      gt\n        /* \"#utility.yul\":8965:9082   */\n      iszero\n      tag_480\n      jumpi\n        /* \"#utility.yul\":9001:9080   */\n      tag_481\n      tag_307\n      jump\t// in\n    tag_481:\n        /* \"#utility.yul\":8965:9082   */\n    tag_480:\n        /* \"#utility.yul\":9114:9205   */\n      tag_482\n        /* \"#utility.yul\":9197:9204   */\n      dup11\n        /* \"#utility.yul\":9188:9194   */\n      dup3\n        /* \"#utility.yul\":9177:9186   */\n      dup12\n        /* \"#utility.yul\":9173:9195   */\n      add\n        /* \"#utility.yul\":9114:9205   */\n      tag_321\n      jump\t// in\n    tag_482:\n        /* \"#utility.yul\":9096:9205   */\n      swap3\n      pop\n      swap3\n      pop\n        /* \"#utility.yul\":8891:9215   */\n      pop\n        /* \"#utility.yul\":7745:9222   */\n      swap3\n      swap6\n      swap9\n      swap2\n      swap5\n      swap8\n      pop\n      swap3\n      swap6\n      pop\n      jump\t// out\n        /* \"#utility.yul\":9228:10245   */\n    tag_45:\n        /* \"#utility.yul\":9352:9358   */\n      0x00\n        /* \"#utility.yul\":9360:9366   */\n      dup1\n        /* \"#utility.yul\":9368:9374   */\n      0x00\n        /* \"#utility.yul\":9376:9382   */\n      dup1\n        /* \"#utility.yul\":9384:9390   */\n      0x00\n        /* \"#utility.yul\":9433:9436   */\n      0x80\n        /* \"#utility.yul\":9421:9430   */\n      dup7\n        /* \"#utility.yul\":9412:9419   */\n      dup9\n        /* \"#utility.yul\":9408:9431   */\n      sub\n        /* \"#utility.yul\":9404:9437   */\n      slt\n        /* \"#utility.yul\":9401:9521   */\n      iszero\n      tag_484\n      jumpi\n        /* \"#utility.yul\":9440:9519   */\n      tag_485\n      tag_306\n      jump\t// in\n    tag_485:\n        /* \"#utility.yul\":9401:9521   */\n    tag_484:\n        /* \"#utility.yul\":9560:9561   */\n      0x00\n        /* \"#utility.yul\":9585:9638   */\n      tag_486\n        /* \"#utility.yul\":9630:9637   */\n      dup9\n        /* \"#utility.yul\":9621:9627   */\n      dup3\n        /* \"#utility.yul\":9610:9619   */\n      dup10\n        /* \"#utility.yul\":9606:9628   */\n      add\n        /* \"#utility.yul\":9585:9638   */\n      tag_325\n      jump\t// in\n    tag_486:\n        /* \"#utility.yul\":9575:9638   */\n      swap6\n      pop\n        /* \"#utility.yul\":9531:9648   */\n      pop\n        /* \"#utility.yul\":9687:9689   */\n      0x20\n        /* \"#utility.yul\":9713:9766   */\n      tag_487\n        /* \"#utility.yul\":9758:9765   */\n      dup9\n        /* \"#utility.yul\":9749:9755   */\n      dup3\n        /* \"#utility.yul\":9738:9747   */\n      dup10\n        /* \"#utility.yul\":9734:9756   */\n      add\n        /* \"#utility.yul\":9713:9766   */\n      tag_320\n      jump\t// in\n    tag_487:\n        /* \"#utility.yul\":9703:9766   */\n      swap5\n      pop\n        /* \"#utility.yul\":9658:9776   */\n      pop\n        /* \"#utility.yul\":9815:9817   */\n      0x40\n        /* \"#utility.yul\":9841:9894   */\n      tag_488\n        /* \"#utility.yul\":9886:9893   */\n      dup9\n        /* \"#utility.yul\":9877:9883   */\n      dup3\n        /* \"#utility.yul\":9866:9875   */\n      dup10\n        /* \"#utility.yul\":9862:9884   */\n      add\n        /* \"#utility.yul\":9841:9894   */\n      tag_320\n      jump\t// in\n    tag_488:\n        /* \"#utility.yul\":9831:9894   */\n      swap4\n      pop\n        /* \"#utility.yul\":9786:9904   */\n      pop\n        /* \"#utility.yul\":9971:9973   */\n      0x60\n        /* \"#utility.yul\":9960:9969   */\n      dup7\n        /* \"#utility.yul\":9956:9974   */\n      add\n        /* \"#utility.yul\":9943:9975   */\n      calldataload\n        /* \"#utility.yul\":10002:10020   */\n      0xffffffffffffffff\n        /* \"#utility.yul\":9994:10000   */\n      dup2\n        /* \"#utility.yul\":9991:10021   */\n      gt\n        /* \"#utility.yul\":9988:10105   */\n      iszero\n      tag_489\n      jumpi\n        /* \"#utility.yul\":10024:10103   */\n      tag_490\n      tag_307\n      jump\t// in\n    tag_490:\n        /* \"#utility.yul\":9988:10105   */\n    tag_489:\n        /* \"#utility.yul\":10137:10228   */\n      tag_491\n        /* \"#utility.yul\":10220:10227   */\n      dup9\n        /* \"#utility.yul\":10211:10217   */\n      dup3\n        /* \"#utility.yul\":10200:10209   */\n      dup10\n        /* \"#utility.yul\":10196:10218   */\n      add\n        /* \"#utility.yul\":10137:10228   */\n      tag_321\n      jump\t// in\n    tag_491:\n        /* \"#utility.yul\":10119:10228   */\n      swap3\n      pop\n      swap3\n      pop\n        /* \"#utility.yul\":9914:10238   */\n      pop\n        /* \"#utility.yul\":9228:10245   */\n      swap3\n      swap6\n      pop\n      swap3\n      swap6\n      swap1\n      swap4\n      pop\n      jump\t// out\n        /* \"#utility.yul\":10251:10580   */\n    tag_49:\n        /* \"#utility.yul\":10310:10316   */\n      0x00\n        /* \"#utility.yul\":10359:10361   */\n      0x20\n        /* \"#utility.yul\":10347:10356   */\n      dup3\n        /* \"#utility.yul\":10338:10345   */\n      dup5\n        /* \"#utility.yul\":10334:10357   */\n      sub\n        /* \"#utility.yul\":10330:10362   */\n      slt\n        /* \"#utility.yul\":10327:10446   */\n      iszero\n      tag_493\n      jumpi\n        /* \"#utility.yul\":10365:10444   */\n      tag_494\n      tag_306\n      jump\t// in\n    tag_494:\n        /* \"#utility.yul\":10327:10446   */\n    tag_493:\n        /* \"#utility.yul\":10485:10486   */\n      0x00\n        /* \"#utility.yul\":10510:10563   */\n      tag_495\n        /* \"#utility.yul\":10555:10562   */\n      dup5\n        /* \"#utility.yul\":10546:10552   */\n      dup3\n        /* \"#utility.yul\":10535:10544   */\n      dup6\n        /* \"#utility.yul\":10531:10553   */\n      add\n        /* \"#utility.yul\":10510:10563   */\n      tag_325\n      jump\t// in\n    tag_495:\n        /* \"#utility.yul\":10500:10563   */\n      swap2\n      pop\n        /* \"#utility.yul\":10456:10573   */\n      pop\n        /* \"#utility.yul\":10251:10580   */\n      swap3\n      swap2\n      pop\n      pop\n      jump\t// out\n        /* \"#utility.yul\":10586:10770   */\n    tag_327:\n        /* \"#utility.yul\":10685:10696   */\n      0x00\n        /* \"#utility.yul\":10719:10725   */\n      dup3\n        /* \"#utility.yul\":10714:10717   */\n      dup3\n        /* \"#utility.yul\":10707:10726   */\n      mstore\n        /* \"#utility.yul\":10759:10763   */\n      0x20\n        /* \"#utility.yul\":10754:10757   */\n      dup3\n        /* \"#utility.yul\":10750:10764   */\n      add\n        /* \"#utility.yul\":10735:10764   */\n      swap1\n      pop\n        /* \"#utility.yul\":10586:10770   */\n      swap3\n      swap2\n      pop\n      pop\n      jump\t// out\n        /* \"#utility.yul\":10776:10878   */\n    tag_328:\n        /* \"#utility.yul\":10845:10849   */\n      0x00\n        /* \"#utility.yul\":10868:10871   */\n      dup2\n        /* \"#utility.yul\":10860:10871   */\n      swap1\n      pop\n        /* \"#utility.yul\":10776:10878   */\n      swap2\n      swap1\n      pop\n      jump\t// out\n        /* \"#utility.yul\":10884:10992   */\n    tag_329:\n        /* \"#utility.yul\":10961:10985   */\n      tag_499\n        /* \"#utility.yul\":10979:10984   */\n      dup2\n        /* \"#utility.yul\":10961:10985   */\n      tag_323\n      jump\t// in\n    tag_499:\n        /* \"#utility.yul\":10956:10959   */\n      dup3\n        /* \"#utility.yul\":10949:10986   */\n      mstore\n        /* \"#utility.yul\":10884:10992   */\n      pop\n      pop\n      jump\t// out\n        /* \"#utility.yul\":10998:11177   */\n    tag_330:\n        /* \"#utility.yul\":11067:11077   */\n      0x00\n        /* \"#utility.yul\":11088:11134   */\n      tag_501\n        /* \"#utility.yul\":11130:11133   */\n      dup4\n        /* \"#utility.yul\":11122:11128   */\n      dup4\n        /* \"#utility.yul\":11088:11134   */\n      tag_329\n      jump\t// in\n    tag_501:\n        /* \"#utility.yul\":11166:11170   */\n      0x20\n        /* \"#utility.yul\":11161:11164   */\n      dup4\n        /* \"#utility.yul\":11157:11171   */\n      add\n        /* \"#utility.yul\":11143:11171   */\n      swap1\n      pop\n        /* \"#utility.yul\":10998:11177   */\n      swap3\n      swap2\n      pop\n      pop\n      jump\t// out\n        /* \"#utility.yul\":11183:11305   */\n    tag_331:\n        /* \"#utility.yul\":11235:11240   */\n      0x00\n        /* \"#utility.yul\":11260:11299   */\n      tag_503\n        /* \"#utility.yul\":11295:11297   */\n      0x20\n        /* \"#utility.yul\":11290:11293   */\n      dup5\n        /* \"#utility.yul\":11286:11298   */\n      add\n        /* \"#utility.yul\":11281:11284   */\n      dup5\n        /* \"#utility.yul\":11260:11299   */\n      tag_325\n      jump\t// in\n    tag_503:\n        /* \"#utility.yul\":11251:11299   */\n      swap1\n      pop\n        /* \"#utility.yul\":11183:11305   */\n      swap3\n      swap2\n      pop\n      pop\n      jump\t// out\n        /* \"#utility.yul\":11311:11426   */\n    tag_332:\n        /* \"#utility.yul\":11383:11387   */\n      0x00\n        /* \"#utility.yul\":11415:11419   */\n      0x20\n        /* \"#utility.yul\":11410:11413   */\n      dup3\n        /* \"#utility.yul\":11406:11420   */\n      add\n        /* \"#utility.yul\":11398:11420   */\n      swap1\n      pop\n        /* \"#utility.yul\":11311:11426   */\n      swap2\n      swap1\n      pop\n      jump\t// out\n        /* \"#utility.yul\":11462:12161   */\n    tag_333:\n        /* \"#utility.yul\":11591:11594   */\n      0x00\n        /* \"#utility.yul\":11614:11700   */\n      tag_506\n        /* \"#utility.yul\":11693:11699   */\n      dup4\n        /* \"#utility.yul\":11688:11691   */\n      dup6\n        /* \"#utility.yul\":11614:11700   */\n      tag_327\n      jump\t// in\n    tag_506:\n        /* \"#utility.yul\":11607:11700   */\n      swap4\n      pop\n        /* \"#utility.yul\":11724:11782   */\n      tag_507\n        /* \"#utility.yul\":11776:11781   */\n      dup3\n        /* \"#utility.yul\":11724:11782   */\n      tag_328\n      jump\t// in\n    tag_507:\n        /* \"#utility.yul\":11805:11812   */\n      dup1\n        /* \"#utility.yul\":11836:11837   */\n      0x00\n        /* \"#utility.yul\":11821:12136   */\n    tag_508:\n        /* \"#utility.yul\":11846:11852   */\n      dup6\n        /* \"#utility.yul\":11843:11844   */\n      dup2\n        /* \"#utility.yul\":11840:11853   */\n      lt\n        /* \"#utility.yul\":11821:12136   */\n      iszero\n      tag_510\n      jumpi\n        /* \"#utility.yul\":11916:11958   */\n      tag_511\n        /* \"#utility.yul\":11951:11957   */\n      dup3\n        /* \"#utility.yul\":11942:11949   */\n      dup5\n        /* \"#utility.yul\":11916:11958   */\n      tag_331\n      jump\t// in\n    tag_511:\n        /* \"#utility.yul\":11978:12041   */\n      tag_512\n        /* \"#utility.yul\":12037:12040   */\n      dup9\n        /* \"#utility.yul\":12022:12035   */\n      dup3\n        /* \"#utility.yul\":11978:12041   */\n      tag_330\n      jump\t// in\n    tag_512:\n        /* \"#utility.yul\":11971:12041   */\n      swap8\n      pop\n        /* \"#utility.yul\":12064:12126   */\n      tag_513\n        /* \"#utility.yul\":12119:12125   */\n      dup4\n        /* \"#utility.yul\":12064:12126   */\n      tag_332\n      jump\t// in\n    tag_513:\n        /* \"#utility.yul\":12054:12126   */\n      swap3\n      pop\n        /* \"#utility.yul\":11881:12136   */\n      pop\n        /* \"#utility.yul\":11868:11869   */\n      0x01\n        /* \"#utility.yul\":11865:11866   */\n      dup2\n        /* \"#utility.yul\":11861:11870   */\n      add\n        /* \"#utility.yul\":11856:11870   */\n      swap1\n      pop\n        /* \"#utility.yul\":11821:12136   */\n      jump(tag_508)\n    tag_510:\n        /* \"#utility.yul\":11825:11839   */\n      pop\n        /* \"#utility.yul\":12152:12155   */\n      dup6\n        /* \"#utility.yul\":12145:12155   */\n      swap3\n      pop\n        /* \"#utility.yul\":11596:12161   */\n      pop\n      pop\n        /* \"#utility.yul\":11462:12161   */\n      swap4\n      swap3\n      pop\n      pop\n      pop\n      jump\t// out\n        /* \"#utility.yul\":12167:12780   */\n    tag_63:\n        /* \"#utility.yul\":12376:12380   */\n      0x00\n        /* \"#utility.yul\":12414:12416   */\n      0x60\n        /* \"#utility.yul\":12403:12412   */\n      dup3\n        /* \"#utility.yul\":12399:12417   */\n      add\n        /* \"#utility.yul\":12391:12417   */\n      swap1\n      pop\n        /* \"#utility.yul\":12463:12472   */\n      dup2\n        /* \"#utility.yul\":12457:12461   */\n      dup2\n        /* \"#utility.yul\":12453:12473   */\n      sub\n        /* \"#utility.yul\":12449:12450   */\n      0x00\n        /* \"#utility.yul\":12438:12447   */\n      dup4\n        /* \"#utility.yul\":12434:12451   */\n      add\n        /* \"#utility.yul\":12427:12474   */\n      mstore\n        /* \"#utility.yul\":12491:12609   */\n      tag_515\n        /* \"#utility.yul\":12604:12608   */\n      dup2\n        /* \"#utility.yul\":12595:12601   */\n      dup7\n        /* \"#utility.yul\":12587:12593   */\n      dup9\n        /* \"#utility.yul\":12491:12609   */\n      tag_333\n      jump\t// in\n    tag_515:\n        /* \"#utility.yul\":12483:12609   */\n      swap1\n      pop\n        /* \"#utility.yul\":12619:12691   */\n      tag_516\n        /* \"#utility.yul\":12687:12689   */\n      0x20\n        /* \"#utility.yul\":12676:12685   */\n      dup4\n        /* \"#utility.yul\":12672:12690   */\n      add\n        /* \"#utility.yul\":12663:12669   */\n      dup6\n        /* \"#utility.yul\":12619:12691   */\n      tag_314\n      jump\t// in\n    tag_516:\n        /* \"#utility.yul\":12701:12773   */\n      tag_517\n        /* \"#utility.yul\":12769:12771   */\n      0x40\n        /* \"#utility.yul\":12758:12767   */\n      dup4\n        /* \"#utility.yul\":12754:12772   */\n      add\n        /* \"#utility.yul\":12745:12751   */\n      dup5\n        /* \"#utility.yul\":12701:12773   */\n      tag_314\n      jump\t// in\n    tag_517:\n        /* \"#utility.yul\":12167:12780   */\n      swap6\n      swap5\n      pop\n      pop\n      pop\n      pop\n      pop\n      jump\t// out\n        /* \"#utility.yul\":12786:12888   */\n    tag_334:\n        /* \"#utility.yul\":12827:12833   */\n      0x00\n        /* \"#utility.yul\":12878:12880   */\n      0x1f\n        /* \"#utility.yul\":12874:12881   */\n      not\n        /* \"#utility.yul\":12869:12871   */\n      0x1f\n        /* \"#utility.yul\":12862:12867   */\n      dup4\n        /* \"#utility.yul\":12858:12872   */\n      add\n        /* \"#utility.yul\":12854:12882   */\n      and\n        /* \"#utility.yul\":12844:12882   */\n      swap1\n      pop\n        /* \"#utility.yul\":12786:12888   */\n      swap2\n      swap1\n      pop\n      jump\t// out\n        /* \"#utility.yul\":12894:13074   */\n    tag_335:\n        /* \"#utility.yul\":12942:13019   */\n      0x4e487b7100000000000000000000000000000000000000000000000000000000\n        /* \"#utility.yul\":12939:12940   */\n      0x00\n        /* \"#utility.yul\":12932:13020   */\n      mstore\n        /* \"#utility.yul\":13039:13043   */\n      0x41\n        /* \"#utility.yul\":13036:13037   */\n      0x04\n        /* \"#utility.yul\":13029:13044   */\n      mstore\n        /* \"#utility.yul\":13063:13067   */\n      0x24\n        /* \"#utility.yul\":13060:13061   */\n      0x00\n        /* \"#utility.yul\":13053:13068   */\n      revert\n        /* \"#utility.yul\":13080:13361   */\n    tag_336:\n        /* \"#utility.yul\":13163:13190   */\n      tag_521\n        /* \"#utility.yul\":13185:13189   */\n      dup3\n        /* \"#utility.yul\":13163:13190   */\n      tag_334\n      jump\t// in\n    tag_521:\n        /* \"#utility.yul\":13155:13161   */\n      dup2\n        /* \"#utility.yul\":13151:13191   */\n      add\n        /* \"#utility.yul\":13293:13299   */\n      dup2\n        /* \"#utility.yul\":13281:13291   */\n      dup2\n        /* \"#utility.yul\":13278:13300   */\n      lt\n        /* \"#utility.yul\":13257:13275   */\n      0xffffffffffffffff\n        /* \"#utility.yul\":13245:13255   */\n      dup3\n        /* \"#utility.yul\":13242:13276   */\n      gt\n        /* \"#utility.yul\":13239:13301   */\n      or\n        /* \"#utility.yul\":13236:13324   */\n      iszero\n      tag_522\n      jumpi\n        /* \"#utility.yul\":13304:13322   */\n      tag_523\n      tag_335\n      jump\t// in\n    tag_523:\n        /* \"#utility.yul\":13236:13324   */\n    tag_522:\n        /* \"#utility.yul\":13344:13354   */\n      dup1\n        /* \"#utility.yul\":13340:13342   */\n      0x40\n        /* \"#utility.yul\":13333:13355   */\n      mstore\n        /* \"#utility.yul\":13123:13361   */\n      pop\n        /* \"#utility.yul\":13080:13361   */\n      pop\n      pop\n      jump\t// out\n        /* \"#utility.yul\":13367:13496   */\n    tag_337:\n        /* \"#utility.yul\":13401:13407   */\n      0x00\n        /* \"#utility.yul\":13428:13448   */\n      tag_525\n      tag_305\n      jump\t// in\n    tag_525:\n        /* \"#utility.yul\":13418:13448   */\n      swap1\n      pop\n        /* \"#utility.yul\":13457:13490   */\n      tag_526\n        /* \"#utility.yul\":13485:13489   */\n      dup3\n        /* \"#utility.yul\":13477:13483   */\n      dup3\n        /* \"#utility.yul\":13457:13490   */\n      tag_336\n      jump\t// in\n    tag_526:\n        /* \"#utility.yul\":13367:13496   */\n      swap2\n      swap1\n      pop\n      jump\t// out\n        /* \"#utility.yul\":13502:13822   */\n    tag_338:\n        /* \"#utility.yul\":13588:13592   */\n      0x00\n        /* \"#utility.yul\":13678:13696   */\n      0xffffffffffffffff\n        /* \"#utility.yul\":13670:13676   */\n      dup3\n        /* \"#utility.yul\":13667:13697   */\n      gt\n        /* \"#utility.yul\":13664:13720   */\n      iszero\n      tag_528\n      jumpi\n        /* \"#utility.yul\":13700:13718   */\n      tag_529\n      tag_335\n      jump\t// in\n    tag_529:\n        /* \"#utility.yul\":13664:13720   */\n    tag_528:\n        /* \"#utility.yul\":13750:13754   */\n      0x20\n        /* \"#utility.yul\":13742:13748   */\n      dup3\n        /* \"#utility.yul\":13738:13755   */\n      mul\n        /* \"#utility.yul\":13730:13755   */\n      swap1\n      pop\n        /* \"#utility.yul\":13810:13814   */\n      0x20\n        /* \"#utility.yul\":13804:13808   */\n      dup2\n        /* \"#utility.yul\":13800:13815   */\n      add\n        /* \"#utility.yul\":13792:13815   */\n      swap1\n      pop\n        /* \"#utility.yul\":13502:13822   */\n      swap2\n      swap1\n      pop\n      jump\t// out\n        /* \"#utility.yul\":13828:13945   */\n    tag_339:\n        /* \"#utility.yul\":13937:13938   */\n      0x00\n        /* \"#utility.yul\":13934:13935   */\n      dup1\n        /* \"#utility.yul\":13927:13939   */\n      revert\n        /* \"#utility.yul\":13951:14258   */\n    tag_340:\n        /* \"#utility.yul\":14012:14016   */\n      0x00\n        /* \"#utility.yul\":14102:14120   */\n      0xffffffffffffffff\n        /* \"#utility.yul\":14094:14100   */\n      dup3\n        /* \"#utility.yul\":14091:14121   */\n      gt\n        /* \"#utility.yul\":14088:14144   */\n      iszero\n      tag_532\n      jumpi\n        /* \"#utility.yul\":14124:14142   */\n      tag_533\n      tag_335\n      jump\t// in\n    tag_533:\n        /* \"#utility.yul\":14088:14144   */\n    tag_532:\n        /* \"#utility.yul\":14162:14191   */\n      tag_534\n        /* \"#utility.yul\":14184:14190   */\n      dup3\n        /* \"#utility.yul\":14162:14191   */\n      tag_334\n      jump\t// in\n    tag_534:\n        /* \"#utility.yul\":14154:14191   */\n      swap1\n      pop\n        /* \"#utility.yul\":14246:14250   */\n      0x20\n        /* \"#utility.yul\":14240:14244   */\n      dup2\n        /* \"#utility.yul\":14236:14251   */\n      add\n        /* \"#utility.yul\":14228:14251   */\n      swap1\n      pop\n        /* \"#utility.yul\":13951:14258   */\n      swap2\n      swap1\n      pop\n      jump\t// out\n        /* \"#utility.yul\":14264:14410   */\n    tag_341:\n        /* \"#utility.yul\":14361:14367   */\n      dup3\n        /* \"#utility.yul\":14356:14359   */\n      dup2\n        /* \"#utility.yul\":14351:14354   */\n      dup4\n        /* \"#utility.yul\":14338:14368   */\n      calldatacopy\n        /* \"#utility.yul\":14402:14403   */\n      0x00\n        /* \"#utility.yul\":14393:14399   */\n      dup4\n        /* \"#utility.yul\":14388:14391   */\n      dup4\n        /* \"#utility.yul\":14384:14400   */\n      add\n        /* \"#utility.yul\":14377:14404   */\n      mstore\n        /* \"#utility.yul\":14264:14410   */\n      pop\n      pop\n      pop\n      jump\t// out\n        /* \"#utility.yul\":14416:14839   */\n    tag_342:\n        /* \"#utility.yul\":14493:14498   */\n      0x00\n        /* \"#utility.yul\":14518:14583   */\n      tag_537\n        /* \"#utility.yul\":14534:14582   */\n      tag_538\n        /* \"#utility.yul\":14575:14581   */\n      dup5\n        /* \"#utility.yul\":14534:14582   */\n      tag_340\n      jump\t// in\n    tag_538:\n        /* \"#utility.yul\":14518:14583   */\n      tag_337\n      jump\t// in\n    tag_537:\n        /* \"#utility.yul\":14509:14583   */\n      swap1\n      pop\n        /* \"#utility.yul\":14606:14612   */\n      dup3\n        /* \"#utility.yul\":14599:14604   */\n      dup2\n        /* \"#utility.yul\":14592:14613   */\n      mstore\n        /* \"#utility.yul\":14644:14648   */\n      0x20\n        /* \"#utility.yul\":14637:14642   */\n      dup2\n        /* \"#utility.yul\":14633:14649   */\n      add\n        /* \"#utility.yul\":14682:14685   */\n      dup5\n        /* \"#utility.yul\":14673:14679   */\n      dup5\n        /* \"#utility.yul\":14668:14671   */\n      dup5\n        /* \"#utility.yul\":14664:14680   */\n      add\n        /* \"#utility.yul\":14661:14686   */\n      gt\n        /* \"#utility.yul\":14658:14770   */\n      iszero\n      tag_539\n      jumpi\n        /* \"#utility.yul\":14689:14768   */\n      tag_540\n      tag_339\n      jump\t// in\n    tag_540:\n        /* \"#utility.yul\":14658:14770   */\n    tag_539:\n        /* \"#utility.yul\":14779:14833   */\n      tag_541\n        /* \"#utility.yul\":14826:14832   */\n      dup5\n        /* \"#utility.yul\":14821:14824   */\n      dup3\n        /* \"#utility.yul\":14816:14819   */\n      dup6\n        /* \"#utility.yul\":14779:14833   */\n      tag_341\n      jump\t// in\n    tag_541:\n        /* \"#utility.yul\":14499:14839   */\n      pop\n        /* \"#utility.yul\":14416:14839   */\n      swap4\n      swap3\n      pop\n      pop\n      pop\n      jump\t// out\n        /* \"#utility.yul\":14858:15196   */\n    tag_343:\n        /* \"#utility.yul\":14913:14918   */\n      0x00\n        /* \"#utility.yul\":14962:14965   */\n      dup3\n        /* \"#utility.yul\":14955:14959   */\n      0x1f\n        /* \"#utility.yul\":14947:14953   */\n      dup4\n        /* \"#utility.yul\":14943:14960   */\n      add\n        /* \"#utility.yul\":14939:14966   */\n      slt\n        /* \"#utility.yul\":14929:15051   */\n      tag_543\n      jumpi\n        /* \"#utility.yul\":14970:15049   */\n      tag_544\n      tag_315\n      jump\t// in\n    tag_544:\n        /* \"#utility.yul\":14929:15051   */\n    tag_543:\n        /* \"#utility.yul\":15087:15093   */\n      dup2\n        /* \"#utility.yul\":15074:15094   */\n      calldataload\n        /* \"#utility.yul\":15112:15190   */\n      tag_545\n        /* \"#utility.yul\":15186:15189   */\n      dup5\n        /* \"#utility.yul\":15178:15184   */\n      dup3\n        /* \"#utility.yul\":15171:15175   */\n      0x20\n        /* \"#utility.yul\":15163:15169   */\n      dup7\n        /* \"#utility.yul\":15159:15176   */\n      add\n        /* \"#utility.yul\":15112:15190   */\n      tag_342\n      jump\t// in\n    tag_545:\n        /* \"#utility.yul\":15103:15190   */\n      swap2\n      pop\n        /* \"#utility.yul\":14919:15196   */\n      pop\n        /* \"#utility.yul\":14858:15196   */\n      swap3\n      swap2\n      pop\n      pop\n      jump\t// out\n        /* \"#utility.yul\":15217:16159   */\n    tag_344:\n        /* \"#utility.yul\":15322:15327   */\n      0x00\n        /* \"#utility.yul\":15347:15437   */\n      tag_547\n        /* \"#utility.yul\":15363:15436   */\n      tag_548\n        /* \"#utility.yul\":15429:15435   */\n      dup5\n        /* \"#utility.yul\":15363:15436   */\n      tag_338\n      jump\t// in\n    tag_548:\n        /* \"#utility.yul\":15347:15437   */\n      tag_337\n      jump\t// in\n    tag_547:\n        /* \"#utility.yul\":15338:15437   */\n      swap1\n      pop\n        /* \"#utility.yul\":15457:15462   */\n      dup1\n        /* \"#utility.yul\":15486:15492   */\n      dup4\n        /* \"#utility.yul\":15479:15484   */\n      dup3\n        /* \"#utility.yul\":15472:15493   */\n      mstore\n        /* \"#utility.yul\":15520:15524   */\n      0x20\n        /* \"#utility.yul\":15513:15518   */\n      dup3\n        /* \"#utility.yul\":15509:15525   */\n      add\n        /* \"#utility.yul\":15502:15525   */\n      swap1\n      pop\n        /* \"#utility.yul\":15573:15577   */\n      0x20\n        /* \"#utility.yul\":15565:15571   */\n      dup5\n        /* \"#utility.yul\":15561:15578   */\n      mul\n        /* \"#utility.yul\":15553:15559   */\n      dup4\n        /* \"#utility.yul\":15549:15579   */\n      add\n        /* \"#utility.yul\":15602:15605   */\n      dup6\n        /* \"#utility.yul\":15594:15600   */\n      dup2\n        /* \"#utility.yul\":15591:15606   */\n      gt\n        /* \"#utility.yul\":15588:15710   */\n      iszero\n      tag_549\n      jumpi\n        /* \"#utility.yul\":15621:15700   */\n      tag_550\n      tag_317\n      jump\t// in\n    tag_550:\n        /* \"#utility.yul\":15588:15710   */\n    tag_549:\n        /* \"#utility.yul\":15736:15742   */\n      dup4\n        /* \"#utility.yul\":15719:16153   */\n    tag_551:\n        /* \"#utility.yul\":15753:15759   */\n      dup2\n        /* \"#utility.yul\":15748:15751   */\n      dup2\n        /* \"#utility.yul\":15745:15760   */\n      lt\n        /* \"#utility.yul\":15719:16153   */\n      iszero\n      tag_553\n      jumpi\n        /* \"#utility.yul\":15842:15845   */\n      dup1\n        /* \"#utility.yul\":15829:15846   */\n      calldataload\n        /* \"#utility.yul\":15878:15896   */\n      0xffffffffffffffff\n        /* \"#utility.yul\":15865:15876   */\n      dup2\n        /* \"#utility.yul\":15862:15897   */\n      gt\n        /* \"#utility.yul\":15859:15981   */\n      iszero\n      tag_554\n      jumpi\n        /* \"#utility.yul\":15900:15979   */\n      tag_555\n      tag_315\n      jump\t// in\n    tag_555:\n        /* \"#utility.yul\":15859:15981   */\n    tag_554:\n        /* \"#utility.yul\":16024:16035   */\n      dup1\n        /* \"#utility.yul\":16016:16022   */\n      dup7\n        /* \"#utility.yul\":16012:16036   */\n      add\n        /* \"#utility.yul\":16062:16108   */\n      tag_556\n        /* \"#utility.yul\":16104:16107   */\n      dup10\n        /* \"#utility.yul\":16092:16102   */\n      dup3\n        /* \"#utility.yul\":16062:16108   */\n      tag_343\n      jump\t// in\n    tag_556:\n        /* \"#utility.yul\":16057:16060   */\n      dup6\n        /* \"#utility.yul\":16050:16109   */\n      mstore\n        /* \"#utility.yul\":16138:16142   */\n      0x20\n        /* \"#utility.yul\":16133:16136   */\n      dup6\n        /* \"#utility.yul\":16129:16143   */\n      add\n        /* \"#utility.yul\":16122:16143   */\n      swap5\n      pop\n        /* \"#utility.yul\":15795:16153   */\n      pop\n      pop\n        /* \"#utility.yul\":15779:15783   */\n      0x20\n        /* \"#utility.yul\":15774:15777   */\n      dup2\n        /* \"#utility.yul\":15770:15784   */\n      add\n        /* \"#utility.yul\":15763:15784   */\n      swap1\n      pop\n        /* \"#utility.yul\":15719:16153   */\n      jump(tag_551)\n    tag_553:\n        /* \"#utility.yul\":15723:15744   */\n      pop\n        /* \"#utility.yul\":15328:16159   */\n      pop\n      pop\n        /* \"#utility.yul\":15217:16159   */\n      swap4\n      swap3\n      pop\n      pop\n      pop\n      jump\t// out\n        /* \"#utility.yul\":16165:16509   */\n    tag_67:\n        /* \"#utility.yul\":16301:16310   */\n      0x00\n        /* \"#utility.yul\":16400:16502   */\n      tag_558\n        /* \"#utility.yul\":16487:16501   */\n      calldatasize\n        /* \"#utility.yul\":16479:16485   */\n      dup5\n        /* \"#utility.yul\":16472:16477   */\n      dup5\n        /* \"#utility.yul\":16400:16502   */\n      tag_344\n      jump\t// in\n    tag_558:\n        /* \"#utility.yul\":16378:16502   */\n      swap1\n      pop\n        /* \"#utility.yul\":16165:16509   */\n      swap3\n      swap2\n      pop\n      pop\n      jump\t// out\n        /* \"#utility.yul\":16515:16614   */\n    tag_345:\n        /* \"#utility.yul\":16567:16573   */\n      0x00\n        /* \"#utility.yul\":16601:16606   */\n      dup2\n        /* \"#utility.yul\":16595:16607   */\n      mload\n        /* \"#utility.yul\":16585:16607   */\n      swap1\n      pop\n        /* \"#utility.yul\":16515:16614   */\n      swap2\n      swap1\n      pop\n      jump\t// out\n        /* \"#utility.yul\":16620:16789   */\n    tag_346:\n        /* \"#utility.yul\":16704:16715   */\n      0x00\n        /* \"#utility.yul\":16738:16744   */\n      dup3\n        /* \"#utility.yul\":16733:16736   */\n      dup3\n        /* \"#utility.yul\":16726:16745   */\n      mstore\n        /* \"#utility.yul\":16778:16782   */\n      0x20\n        /* \"#utility.yul\":16773:16776   */\n      dup3\n        /* \"#utility.yul\":16769:16783   */\n      add\n        /* \"#utility.yul\":16754:16783   */\n      swap1\n      pop\n        /* \"#utility.yul\":16620:16789   */\n      swap3\n      swap2\n      pop\n      pop\n      jump\t// out\n        /* \"#utility.yul\":16795:17041   */\n    tag_347:\n        /* \"#utility.yul\":16876:16877   */\n      0x00\n        /* \"#utility.yul\":16886:16999   */\n    tag_562:\n        /* \"#utility.yul\":16900:16906   */\n      dup4\n        /* \"#utility.yul\":16897:16898   */\n      dup2\n        /* \"#utility.yul\":16894:16907   */\n      lt\n        /* \"#utility.yul\":16886:16999   */\n      iszero\n      tag_564\n      jumpi\n        /* \"#utility.yul\":16985:16986   */\n      dup1\n        /* \"#utility.yul\":16980:16983   */\n      dup3\n        /* \"#utility.yul\":16976:16987   */\n      add\n        /* \"#utility.yul\":16970:16988   */\n      mload\n        /* \"#utility.yul\":16966:16967   */\n      dup2\n        /* \"#utility.yul\":16961:16964   */\n      dup5\n        /* \"#utility.yul\":16957:16968   */\n      add\n        /* \"#utility.yul\":16950:16989   */\n      mstore\n        /* \"#utility.yul\":16922:16924   */\n      0x20\n        /* \"#utility.yul\":16919:16920   */\n      dup2\n        /* \"#utility.yul\":16915:16925   */\n      add\n        /* \"#utility.yul\":16910:16925   */\n      swap1\n      pop\n        /* \"#utility.yul\":16886:16999   */\n      jump(tag_562)\n    tag_564:\n        /* \"#utility.yul\":17033:17034   */\n      0x00\n        /* \"#utility.yul\":17024:17030   */\n      dup5\n        /* \"#utility.yul\":17019:17022   */\n      dup5\n        /* \"#utility.yul\":17015:17031   */\n      add\n        /* \"#utility.yul\":17008:17035   */\n      mstore\n        /* \"#utility.yul\":16857:17041   */\n      pop\n        /* \"#utility.yul\":16795:17041   */\n      pop\n      pop\n      pop\n      jump\t// out\n        /* \"#utility.yul\":17047:17424   */\n    tag_348:\n        /* \"#utility.yul\":17135:17138   */\n      0x00\n        /* \"#utility.yul\":17163:17202   */\n      tag_566\n        /* \"#utility.yul\":17196:17201   */\n      dup3\n        /* \"#utility.yul\":17163:17202   */\n      tag_345\n      jump\t// in\n    tag_566:\n        /* \"#utility.yul\":17218:17289   */\n      tag_567\n        /* \"#utility.yul\":17282:17288   */\n      dup2\n        /* \"#utility.yul\":17277:17280   */\n      dup6\n        /* \"#utility.yul\":17218:17289   */\n      tag_346\n      jump\t// in\n    tag_567:\n        /* \"#utility.yul\":17211:17289   */\n      swap4\n      pop\n        /* \"#utility.yul\":17298:17363   */\n      tag_568\n        /* \"#utility.yul\":17356:17362   */\n      dup2\n        /* \"#utility.yul\":17351:17354   */\n      dup6\n        /* \"#utility.yul\":17344:17348   */\n      0x20\n        /* \"#utility.yul\":17337:17342   */\n      dup7\n        /* \"#utility.yul\":17333:17349   */\n      add\n        /* \"#utility.yul\":17298:17363   */\n      tag_347\n      jump\t// in\n    tag_568:\n        /* \"#utility.yul\":17388:17417   */\n      tag_569\n        /* \"#utility.yul\":17410:17416   */\n      dup2\n        /* \"#utility.yul\":17388:17417   */\n      tag_334\n      jump\t// in\n    tag_569:\n        /* \"#utility.yul\":17383:17386   */\n      dup5\n        /* \"#utility.yul\":17379:17418   */\n      add\n        /* \"#utility.yul\":17372:17418   */\n      swap2\n      pop\n        /* \"#utility.yul\":17139:17424   */\n      pop\n        /* \"#utility.yul\":17047:17424   */\n      swap3\n      swap2\n      pop\n      pop\n      jump\t// out\n        /* \"#utility.yul\":17430:17743   */\n    tag_71:\n        /* \"#utility.yul\":17543:17547   */\n      0x00\n        /* \"#utility.yul\":17581:17583   */\n      0x20\n        /* \"#utility.yul\":17570:17579   */\n      dup3\n        /* \"#utility.yul\":17566:17584   */\n      add\n        /* \"#utility.yul\":17558:17584   */\n      swap1\n      pop\n        /* \"#utility.yul\":17630:17639   */\n      dup2\n        /* \"#utility.yul\":17624:17628   */\n      dup2\n        /* \"#utility.yul\":17620:17640   */\n      sub\n        /* \"#utility.yul\":17616:17617   */\n      0x00\n        /* \"#utility.yul\":17605:17614   */\n      dup4\n        /* \"#utility.yul\":17601:17618   */\n      add\n        /* \"#utility.yul\":17594:17641   */\n      mstore\n        /* \"#utility.yul\":17658:17736   */\n      tag_571\n        /* \"#utility.yul\":17731:17735   */\n      dup2\n        /* \"#utility.yul\":17722:17728   */\n      dup5\n        /* \"#utility.yul\":17658:17736   */\n      tag_348\n      jump\t// in\n    tag_571:\n        /* \"#utility.yul\":17650:17736   */\n      swap1\n      pop\n        /* \"#utility.yul\":17430:17743   */\n      swap3\n      swap2\n      pop\n      pop\n      jump\t// out\n        /* \"#utility.yul\":17749:17929   */\n    tag_78:\n        /* \"#utility.yul\":17797:17874   */\n      0x4e487b7100000000000000000000000000000000000000000000000000000000\n        /* \"#utility.yul\":17794:17795   */\n      0x00\n        /* \"#utility.yul\":17787:17875   */\n      mstore\n        /* \"#utility.yul\":17894:17898   */\n      0x32\n        /* \"#utility.yul\":17891:17892   */\n      0x04\n        /* \"#utility.yul\":17884:17899   */\n      mstore\n        /* \"#utility.yul\":17918:17922   */\n      0x24\n        /* \"#utility.yul\":17915:17916   */\n      0x00\n        /* \"#utility.yul\":17908:17923   */\n      revert\n        /* \"#utility.yul\":17935:18052   */\n    tag_349:\n        /* \"#utility.yul\":18044:18045   */\n      0x00\n        /* \"#utility.yul\":18041:18042   */\n      dup1\n        /* \"#utility.yul\":18034:18046   */\n      revert\n        /* \"#utility.yul\":18058:18175   */\n    tag_350:\n        /* \"#utility.yul\":18167:18168   */\n      0x00\n        /* \"#utility.yul\":18164:18165   */\n      dup1\n        /* \"#utility.yul\":18157:18169   */\n      revert\n        /* \"#utility.yul\":18181:18298   */\n    tag_351:\n        /* \"#utility.yul\":18290:18291   */\n      0x00\n        /* \"#utility.yul\":18287:18288   */\n      dup1\n        /* \"#utility.yul\":18280:18292   */\n      revert\n        /* \"#utility.yul\":18304:19028   */\n    tag_80:\n        /* \"#utility.yul\":18381:18385   */\n      0x00\n        /* \"#utility.yul\":18387:18393   */\n      dup1\n        /* \"#utility.yul\":18443:18454   */\n      dup4\n        /* \"#utility.yul\":18430:18455   */\n      calldataload\n        /* \"#utility.yul\":18543:18544   */\n      0x01\n        /* \"#utility.yul\":18537:18541   */\n      0x20\n        /* \"#utility.yul\":18533:18545   */\n      sub\n        /* \"#utility.yul\":18522:18530   */\n      dup5\n        /* \"#utility.yul\":18506:18520   */\n      calldatasize\n        /* \"#utility.yul\":18502:18531   */\n      sub\n        /* \"#utility.yul\":18498:18546   */\n      sub\n        /* \"#utility.yul\":18478:18496   */\n      dup2\n        /* \"#utility.yul\":18474:18547   */\n      slt\n        /* \"#utility.yul\":18464:18632   */\n      tag_577\n      jumpi\n        /* \"#utility.yul\":18551:18630   */\n      tag_578\n      tag_349\n      jump\t// in\n    tag_578:\n        /* \"#utility.yul\":18464:18632   */\n    tag_577:\n        /* \"#utility.yul\":18663:18681   */\n      dup1\n        /* \"#utility.yul\":18653:18661   */\n      dup5\n        /* \"#utility.yul\":18649:18682   */\n      add\n        /* \"#utility.yul\":18641:18682   */\n      swap3\n      pop\n        /* \"#utility.yul\":18715:18719   */\n      dup3\n        /* \"#utility.yul\":18702:18720   */\n      calldataload\n        /* \"#utility.yul\":18692:18720   */\n      swap2\n      pop\n        /* \"#utility.yul\":18743:18761   */\n      0xffffffffffffffff\n        /* \"#utility.yul\":18735:18741   */\n      dup3\n        /* \"#utility.yul\":18732:18762   */\n      gt\n        /* \"#utility.yul\":18729:18846   */\n      iszero\n      tag_579\n      jumpi\n        /* \"#utility.yul\":18765:18844   */\n      tag_580\n      tag_350\n      jump\t// in\n    tag_580:\n        /* \"#utility.yul\":18729:18846   */\n    tag_579:\n        /* \"#utility.yul\":18873:18875   */\n      0x20\n        /* \"#utility.yul\":18867:18871   */\n      dup4\n        /* \"#utility.yul\":18863:18876   */\n      add\n        /* \"#utility.yul\":18855:18876   */\n      swap3\n      pop\n        /* \"#utility.yul\":18930:18934   */\n      0x01\n        /* \"#utility.yul\":18922:18928   */\n      dup3\n        /* \"#utility.yul\":18918:18935   */\n      mul\n        /* \"#utility.yul\":18902:18916   */\n      calldatasize\n        /* \"#utility.yul\":18898:18936   */\n      sub\n        /* \"#utility.yul\":18892:18896   */\n      dup4\n        /* \"#utility.yul\":18888:18937   */\n      sgt\n        /* \"#utility.yul\":18885:19021   */\n      iszero\n      tag_581\n      jumpi\n        /* \"#utility.yul\":18940:19019   */\n      tag_582\n      tag_351\n      jump\t// in\n    tag_582:\n        /* \"#utility.yul\":18885:19021   */\n    tag_581:\n        /* \"#utility.yul\":18394:19028   */\n      pop\n        /* \"#utility.yul\":18304:19028   */\n      swap3\n      pop\n      swap3\n      swap1\n      pop\n      jump\t// out\n        /* \"#utility.yul\":19034:19181   */\n    tag_352:\n        /* \"#utility.yul\":19135:19146   */\n      0x00\n        /* \"#utility.yul\":19172:19175   */\n      dup2\n        /* \"#utility.yul\":19157:19175   */\n      swap1\n      pop\n        /* \"#utility.yul\":19034:19181   */\n      swap3\n      swap2\n      pop\n      pop\n      jump\t// out\n        /* \"#utility.yul\":19209:19536   */\n    tag_353:\n        /* \"#utility.yul\":19323:19326   */\n      0x00\n        /* \"#utility.yul\":19344:19432   */\n      tag_585\n        /* \"#utility.yul\":19425:19431   */\n      dup4\n        /* \"#utility.yul\":19420:19423   */\n      dup6\n        /* \"#utility.yul\":19344:19432   */\n      tag_352\n      jump\t// in\n    tag_585:\n        /* \"#utility.yul\":19337:19432   */\n      swap4\n      pop\n        /* \"#utility.yul\":19442:19498   */\n      tag_586\n        /* \"#utility.yul\":19491:19497   */\n      dup4\n        /* \"#utility.yul\":19486:19489   */\n      dup6\n        /* \"#utility.yul\":19479:19484   */\n      dup5\n        /* \"#utility.yul\":19442:19498   */\n      tag_341\n      jump\t// in\n    tag_586:\n        /* \"#utility.yul\":19523:19529   */\n      dup3\n        /* \"#utility.yul\":19518:19521   */\n      dup5\n        /* \"#utility.yul\":19514:19530   */\n      add\n        /* \"#utility.yul\":19507:19530   */\n      swap1\n      pop\n        /* \"#utility.yul\":19209:19536   */\n      swap4\n      swap3\n      pop\n      pop\n      pop\n      jump\t// out\n        /* \"#utility.yul\":19542:19833   */\n    tag_82:\n        /* \"#utility.yul\":19682:19685   */\n      0x00\n        /* \"#utility.yul\":19704:19807   */\n      tag_588\n        /* \"#utility.yul\":19803:19806   */\n      dup3\n        /* \"#utility.yul\":19794:19800   */\n      dup5\n        /* \"#utility.yul\":19786:19792   */\n      dup7\n        /* \"#utility.yul\":19704:19807   */\n      tag_353\n      jump\t// in\n    tag_588:\n        /* \"#utility.yul\":19697:19807   */\n      swap2\n      pop\n        /* \"#utility.yul\":19824:19827   */\n      dup2\n        /* \"#utility.yul\":19817:19827   */\n      swap1\n      pop\n        /* \"#utility.yul\":19542:19833   */\n      swap4\n      swap3\n      pop\n      pop\n      pop\n      jump\t// out\n        /* \"#utility.yul\":19839:20019   */\n    tag_354:\n        /* \"#utility.yul\":19887:19964   */\n      0x4e487b7100000000000000000000000000000000000000000000000000000000\n        /* \"#utility.yul\":19884:19885   */\n      0x00\n        /* \"#utility.yul\":19877:19965   */\n      mstore\n        /* \"#utility.yul\":19984:19988   */\n      0x11\n        /* \"#utility.yul\":19981:19982   */\n      0x04\n        /* \"#utility.yul\":19974:19989   */\n      mstore\n        /* \"#utility.yul\":20008:20012   */\n      0x24\n        /* \"#utility.yul\":20005:20006   */\n      0x00\n        /* \"#utility.yul\":19998:20013   */\n      revert\n        /* \"#utility.yul\":20025:20258   */\n    tag_84:\n        /* \"#utility.yul\":20064:20067   */\n      0x00\n        /* \"#utility.yul\":20087:20111   */\n      tag_591\n        /* \"#utility.yul\":20105:20110   */\n      dup3\n        /* \"#utility.yul\":20087:20111   */\n      tag_313\n      jump\t// in\n    tag_591:\n        /* \"#utility.yul\":20078:20111   */\n      swap2\n      pop\n        /* \"#utility.yul\":20133:20199   */\n      0xffffffffffffffffffffffffffffffffffffffffffffffffffffffffffffffff\n        /* \"#utility.yul\":20126:20131   */\n      dup3\n        /* \"#utility.yul\":20123:20200   */\n      sub\n        /* \"#utility.yul\":20120:20223   */\n      tag_592\n      jumpi\n        /* \"#utility.yul\":20203:20221   */\n      tag_593\n      tag_354\n      jump\t// in\n    tag_593:\n        /* \"#utility.yul\":20120:20223   */\n    tag_592:\n        /* \"#utility.yul\":20250:20251   */\n      0x01\n        /* \"#utility.yul\":20243:20248   */\n      dup3\n        /* \"#utility.yul\":20239:20252   */\n      add\n        /* \"#utility.yul\":20232:20252   */\n      swap1\n      pop\n        /* \"#utility.yul\":20025:20258   */\n      swap2\n      swap1\n      pop\n      jump\t// out\n        /* \"#utility.yul\":20264:20706   */\n    tag_96:\n        /* \"#utility.yul\":20413:20417   */\n      0x00\n        /* \"#utility.yul\":20451:20453   */\n      0x60\n        /* \"#utility.yul\":20440:20449   */\n      dup3\n        /* \"#utility.yul\":20436:20454   */\n      add\n        /* \"#utility.yul\":20428:20454   */\n      swap1\n      pop\n        /* \"#utility.yul\":20464:20535   */\n      tag_595\n        /* \"#utility.yul\":20532:20533   */\n      0x00\n        /* \"#utility.yul\":20521:20530   */\n      dup4\n        /* \"#utility.yul\":20517:20534   */\n      add\n        /* \"#utility.yul\":20508:20514   */\n      dup7\n        /* \"#utility.yul\":20464:20535   */\n      tag_314\n      jump\t// in\n    tag_595:\n        /* \"#utility.yul\":20545:20617   */\n      tag_596\n        /* \"#utility.yul\":20613:20615   */\n      0x20\n        /* \"#utility.yul\":20602:20611   */\n      dup4\n        /* \"#utility.yul\":20598:20616   */\n      add\n        /* \"#utility.yul\":20589:20595   */\n      dup6\n        /* \"#utility.yul\":20545:20617   */\n      tag_314\n      jump\t// in\n    tag_596:\n        /* \"#utility.yul\":20627:20699   */\n      tag_597\n        /* \"#utility.yul\":20695:20697   */\n      0x40\n        /* \"#utility.yul\":20684:20693   */\n      dup4\n        /* \"#utility.yul\":20680:20698   */\n      add\n        /* \"#utility.yul\":20671:20677   */\n      dup5\n        /* \"#utility.yul\":20627:20699   */\n      tag_314\n      jump\t// in\n    tag_597:\n        /* \"#utility.yul\":20264:20706   */\n      swap5\n      swap4\n      pop\n      pop\n      pop\n      pop\n      jump\t// out\n        /* \"#utility.yul\":20712:20879   */\n    tag_355:\n        /* \"#utility.yul\":20852:20871   */\n      0x496e76616c6964207468726573686f6c64000000000000000000000000000000\n        /* \"#utility.yul\":20848:20849   */\n      0x00\n        /* \"#utility.yul\":20840:20846   */\n      dup3\n        /* \"#utility.yul\":20836:20850   */\n      add\n        /* \"#utility.yul\":20829:20872   */\n      mstore\n        /* \"#utility.yul\":20712:20879   */\n      pop\n      jump\t// out\n        /* \"#utility.yul\":20885:21251   */\n    tag_356:\n        /* \"#utility.yul\":21027:21030   */\n      0x00\n        /* \"#utility.yul\":21048:21115   */\n      tag_600\n        /* \"#utility.yul\":21112:21114   */\n      0x11\n        /* \"#utility.yul\":21107:21110   */\n      dup4\n        /* \"#utility.yul\":21048:21115   */\n      tag_346\n      jump\t// in\n    tag_600:\n        /* \"#utility.yul\":21041:21115   */\n      swap2\n      pop\n        /* \"#utility.yul\":21124:21217   */\n      tag_601\n        /* \"#utility.yul\":21213:21216   */\n      dup3\n        /* \"#utility.yul\":21124:21217   */\n      tag_355\n      jump\t// in\n    tag_601:\n        /* \"#utility.yul\":21242:21244   */\n      0x20\n        /* \"#utility.yul\":21237:21240   */\n      dup3\n        /* \"#utility.yul\":21233:21245   */\n      add\n        /* \"#utility.yul\":21226:21245   */\n      swap1\n      pop\n        /* \"#utility.yul\":20885:21251   */\n      swap2\n      swap1\n      pop\n      jump\t// out\n        /* \"#utility.yul\":21257:21676   */\n    tag_118:\n        /* \"#utility.yul\":21423:21427   */\n      0x00\n        /* \"#utility.yul\":21461:21463   */\n      0x20\n        /* \"#utility.yul\":21450:21459   */\n      dup3\n        /* \"#utility.yul\":21446:21464   */\n      add\n        /* \"#utility.yul\":21438:21464   */\n      swap1\n      pop\n        /* \"#utility.yul\":21510:21519   */\n      dup2\n        /* \"#utility.yul\":21504:21508   */\n      dup2\n        /* \"#utility.yul\":21500:21520   */\n      sub\n        /* \"#utility.yul\":21496:21497   */\n      0x00\n        /* \"#utility.yul\":21485:21494   */\n      dup4\n        /* \"#utility.yul\":21481:21498   */\n      add\n        /* \"#utility.yul\":21474:21521   */\n      mstore\n        /* \"#utility.yul\":21538:21669   */\n      tag_603\n        /* \"#utility.yul\":21664:21668   */\n      dup2\n        /* \"#utility.yul\":21538:21669   */\n      tag_356\n      jump\t// in\n    tag_603:\n        /* \"#utility.yul\":21530:21669   */\n      swap1\n      pop\n        /* \"#utility.yul\":21257:21676   */\n      swap2\n      swap1\n      pop\n      jump\t// out\n        /* \"#utility.yul\":21682:21800   */\n    tag_357:\n        /* \"#utility.yul\":21769:21793   */\n      tag_605\n        /* \"#utility.yul\":21787:21792   */\n      dup2\n        /* \"#utility.yul\":21769:21793   */\n      tag_323\n      jump\t// in\n    tag_605:\n        /* \"#utility.yul\":21764:21767   */\n      dup3\n        /* \"#utility.yul\":21757:21794   */\n      mstore\n        /* \"#utility.yul\":21682:21800   */\n      pop\n      pop\n      jump\t// out\n        /* \"#utility.yul\":21806:22248   */\n    tag_121:\n        /* \"#utility.yul\":21955:21959   */\n      0x00\n        /* \"#utility.yul\":21993:21995   */\n      0x60\n        /* \"#utility.yul\":21982:21991   */\n      dup3\n        /* \"#utility.yul\":21978:21996   */\n      add\n        /* \"#utility.yul\":21970:21996   */\n      swap1\n      pop\n        /* \"#utility.yul\":22006:22077   */\n      tag_607\n        /* \"#utility.yul\":22074:22075   */\n      0x00\n        /* \"#utility.yul\":22063:22072   */\n      dup4\n        /* \"#utility.yul\":22059:22076   */\n      add\n        /* \"#utility.yul\":22050:22056   */\n      dup7\n        /* \"#utility.yul\":22006:22077   */\n      tag_357\n      jump\t// in\n    tag_607:\n        /* \"#utility.yul\":22087:22159   */\n      tag_608\n        /* \"#utility.yul\":22155:22157   */\n      0x20\n        /* \"#utility.yul\":22144:22153   */\n      dup4\n        /* \"#utility.yul\":22140:22158   */\n      add\n        /* \"#utility.yul\":22131:22137   */\n      dup6\n        /* \"#utility.yul\":22087:22159   */\n      tag_314\n      jump\t// in\n    tag_608:\n        /* \"#utility.yul\":22169:22241   */\n      tag_609\n        /* \"#utility.yul\":22237:22239   */\n      0x40\n        /* \"#utility.yul\":22226:22235   */\n      dup4\n        /* \"#utility.yul\":22222:22240   */\n      add\n        /* \"#utility.yul\":22213:22219   */\n      dup5\n        /* \"#utility.yul\":22169:22241   */\n      tag_314\n      jump\t// in\n    tag_609:\n        /* \"#utility.yul\":21806:22248   */\n      swap5\n      swap4\n      pop\n      pop\n      pop\n      pop\n      jump\t// out\n        /* \"#utility.yul\":22254:22370   */\n    tag_358:\n        /* \"#utility.yul\":22324:22345   */\n      tag_611\n        /* \"#utility.yul\":22339:22344   */\n      dup2\n        /* \"#utility.yul\":22324:22345   */\n      tag_311\n      jump\t// in\n    tag_611:\n        /* \"#utility.yul\":22317:22322   */\n      dup2\n        /* \"#utility.yul\":22314:22346   */\n      eq\n        /* \"#utility.yul\":22304:22364   */\n      tag_612\n      jumpi\n        /* \"#utility.yul\":22360:22361   */\n      0x00\n        /* \"#utility.yul\":22357:22358   */\n      dup1\n        /* \"#utility.yul\":22350:22362   */\n      revert\n        /* \"#utility.yul\":22304:22364   */\n    tag_612:\n        /* \"#utility.yul\":22254:22370   */\n      pop\n      jump\t// out\n        /* \"#utility.yul\":22376:22513   */\n    tag_359:\n        /* \"#utility.yul\":22430:22435   */\n      0x00\n        /* \"#utility.yul\":22461:22467   */\n      dup2\n        /* \"#utility.yul\":22455:22468   */\n      mload\n        /* \"#utility.yul\":22446:22468   */\n      swap1\n      pop\n        /* \"#utility.yul\":22477:22507   */\n      tag_614\n        /* \"#utility.yul\":22501:22506   */\n      dup2\n        /* \"#utility.yul\":22477:22507   */\n      tag_358\n      jump\t// in\n    tag_614:\n        /* \"#utility.yul\":22376:22513   */\n      swap3\n      swap2\n      pop\n      pop\n      jump\t// out\n        /* \"#utility.yul\":22519:22864   */\n    tag_140:\n        /* \"#utility.yul\":22586:22592   */\n      0x00\n        /* \"#utility.yul\":22635:22637   */\n      0x20\n        /* \"#utility.yul\":22623:22632   */\n      dup3\n        /* \"#utility.yul\":22614:22621   */\n      dup5\n        /* \"#utility.yul\":22610:22633   */\n      sub\n        /* \"#utility.yul\":22606:22638   */\n      slt\n        /* \"#utility.yul\":22603:22722   */\n      iszero\n      tag_616\n      jumpi\n        /* \"#utility.yul\":22641:22720   */\n      tag_617\n      tag_306\n      jump\t// in\n    tag_617:\n        /* \"#utility.yul\":22603:22722   */\n    tag_616:\n        /* \"#utility.yul\":22761:22762   */\n      0x00\n        /* \"#utility.yul\":22786:22847   */\n      tag_618\n        /* \"#utility.yul\":22839:22846   */\n      dup5\n        /* \"#utility.yul\":22830:22836   */\n      dup3\n        /* \"#utility.yul\":22819:22828   */\n      dup6\n        /* \"#utility.yul\":22815:22837   */\n      add\n        /* \"#utility.yul\":22786:22847   */\n      tag_359\n      jump\t// in\n    tag_618:\n        /* \"#utility.yul\":22776:22847   */\n      swap2\n      pop\n        /* \"#utility.yul\":22732:22857   */\n      pop\n        /* \"#utility.yul\":22519:22864   */\n      swap3\n      swap2\n      pop\n      pop\n      jump\t// out\n        /* \"#utility.yul\":22870:23042   */\n    tag_360:\n        /* \"#utility.yul\":23010:23034   */\n      0x496e76616c696420696d706c656d656e746174696f6e00000000000000000000\n        /* \"#utility.yul\":23006:23007   */\n      0x00\n        /* \"#utility.yul\":22998:23004   */\n      dup3\n        /* \"#utility.yul\":22994:23008   */\n      add\n        /* \"#utility.yul\":22987:23035   */\n      mstore\n        /* \"#utility.yul\":22870:23042   */\n      pop\n      jump\t// out\n        /* \"#utility.yul\":23048:23414   */\n    tag_361:\n        /* \"#utility.yul\":23190:23193   */\n      0x00\n        /* \"#utility.yul\":23211:23278   */\n      tag_621\n        /* \"#utility.yul\":23275:23277   */\n      0x16\n        /* \"#utility.yul\":23270:23273   */\n      dup4\n        /* \"#utility.yul\":23211:23278   */\n      tag_346\n      jump\t// in\n    tag_621:\n        /* \"#utility.yul\":23204:23278   */\n      swap2\n      pop\n        /* \"#utility.yul\":23287:23380   */\n      tag_622\n        /* \"#utility.yul\":23376:23379   */\n      dup3\n        /* \"#utility.yul\":23287:23380   */\n      tag_360\n      jump\t// in\n    tag_622:\n        /* \"#utility.yul\":23405:23407   */\n      0x20\n        /* \"#utility.yul\":23400:23403   */\n      dup3\n        /* \"#utility.yul\":23396:23408   */\n      add\n        /* \"#utility.yul\":23389:23408   */\n      swap1\n      pop\n        /* \"#utility.yul\":23048:23414   */\n      swap2\n      swap1\n      pop\n      jump\t// out\n        /* \"#utility.yul\":23420:23839   */\n    tag_143:\n        /* \"#utility.yul\":23586:23590   */\n      0x00\n        /* \"#utility.yul\":23624:23626   */\n      0x20\n        /* \"#utility.yul\":23613:23622   */\n      dup3\n        /* \"#utility.yul\":23609:23627   */\n      add\n        /* \"#utility.yul\":23601:23627   */\n      swap1\n      pop\n        /* \"#utility.yul\":23673:23682   */\n      dup2\n        /* \"#utility.yul\":23667:23671   */\n      dup2\n        /* \"#utility.yul\":23663:23683   */\n      sub\n        /* \"#utility.yul\":23659:23660   */\n      0x00\n        /* \"#utility.yul\":23648:23657   */\n      dup4\n        /* \"#utility.yul\":23644:23661   */\n      add\n        /* \"#utility.yul\":23637:23684   */\n      mstore\n        /* \"#utility.yul\":23701:23832   */\n      tag_624\n        /* \"#utility.yul\":23827:23831   */\n      dup2\n        /* \"#utility.yul\":23701:23832   */\n      tag_361\n      jump\t// in\n    tag_624:\n        /* \"#utility.yul\":23693:23832   */\n      swap1\n      pop\n        /* \"#utility.yul\":23420:23839   */\n      swap2\n      swap1\n      pop\n      jump\t// out\n        /* \"#utility.yul\":23845:24029   */\n    tag_362:\n        /* \"#utility.yul\":23944:23955   */\n      0x00\n        /* \"#utility.yul\":23978:23984   */\n      dup3\n        /* \"#utility.yul\":23973:23976   */\n      dup3\n        /* \"#utility.yul\":23966:23985   */\n      mstore\n        /* \"#utility.yul\":24018:24022   */\n      0x20\n        /* \"#utility.yul\":24013:24016   */\n      dup3\n        /* \"#utility.yul\":24009:24023   */\n      add\n        /* \"#utility.yul\":23994:24023   */\n      swap1\n      pop\n        /* \"#utility.yul\":23845:24029   */\n      swap3\n      swap2\n      pop\n      pop\n      jump\t// out\n        /* \"#utility.yul\":24035:24152   */\n    tag_363:\n        /* \"#utility.yul\":24144:24145   */\n      0x00\n        /* \"#utility.yul\":24141:24142   */\n      dup1\n        /* \"#utility.yul\":24134:24146   */\n      revert\n        /* \"#utility.yul\":24158:24256   */\n    tag_364:\n        /* \"#utility.yul\":24242:24248   */\n      dup3\n        /* \"#utility.yul\":24237:24240   */\n      dup2\n        /* \"#utility.yul\":24232:24235   */\n      dup4\n        /* \"#utility.yul\":24219:24249   */\n      calldatacopy\n        /* \"#utility.yul\":24158:24256   */\n      pop\n      pop\n      pop\n      jump\t// out\n        /* \"#utility.yul\":24292:24829   */\n    tag_365:\n        /* \"#utility.yul\":24420:24423   */\n      0x00\n        /* \"#utility.yul\":24441:24527   */\n      tag_629\n        /* \"#utility.yul\":24520:24526   */\n      dup4\n        /* \"#utility.yul\":24515:24518   */\n      dup6\n        /* \"#utility.yul\":24441:24527   */\n      tag_362\n      jump\t// in\n    tag_629:\n        /* \"#utility.yul\":24434:24527   */\n      swap4\n      pop\n        /* \"#utility.yul\":24551:24617   */\n      0x07ffffffffffffffffffffffffffffffffffffffffffffffffffffffffffffff\n        /* \"#utility.yul\":24543:24549   */\n      dup4\n        /* \"#utility.yul\":24540:24618   */\n      gt\n        /* \"#utility.yul\":24537:24702   */\n      iszero\n      tag_630\n      jumpi\n        /* \"#utility.yul\":24621:24700   */\n      tag_631\n      tag_363\n      jump\t// in\n    tag_631:\n        /* \"#utility.yul\":24537:24702   */\n    tag_630:\n        /* \"#utility.yul\":24733:24737   */\n      0x20\n        /* \"#utility.yul\":24725:24731   */\n      dup4\n        /* \"#utility.yul\":24721:24738   */\n      mul\n        /* \"#utility.yul\":24711:24738   */\n      swap3\n      pop\n        /* \"#utility.yul\":24748:24791   */\n      tag_632\n        /* \"#utility.yul\":24784:24790   */\n      dup4\n        /* \"#utility.yul\":24779:24782   */\n      dup6\n        /* \"#utility.yul\":24772:24777   */\n      dup5\n        /* \"#utility.yul\":24748:24791   */\n      tag_364\n      jump\t// in\n    tag_632:\n        /* \"#utility.yul\":24816:24822   */\n      dup3\n        /* \"#utility.yul\":24811:24814   */\n      dup5\n        /* \"#utility.yul\":24807:24823   */\n      add\n        /* \"#utility.yul\":24800:24823   */\n      swap1\n      pop\n        /* \"#utility.yul\":24292:24829   */\n      swap4\n      swap3\n      pop\n      pop\n      pop\n      jump\t// out\n        /* \"#utility.yul\":24835:25730   */\n    tag_147:\n        /* \"#utility.yul\":25132:25136   */\n      0x00\n        /* \"#utility.yul\":25170:25173   */\n      0x80\n        /* \"#utility.yul\":25159:25168   */\n      dup3\n        /* \"#utility.yul\":25155:25174   */\n      add\n        /* \"#utility.yul\":25147:25174   */\n      swap1\n      pop\n        /* \"#utility.yul\":25220:25229   */\n      dup2\n        /* \"#utility.yul\":25214:25218   */\n      dup2\n        /* \"#utility.yul\":25210:25230   */\n      sub\n        /* \"#utility.yul\":25206:25207   */\n      0x00\n        /* \"#utility.yul\":25195:25204   */\n      dup4\n        /* \"#utility.yul\":25191:25208   */\n      add\n        /* \"#utility.yul\":25184:25231   */\n      mstore\n        /* \"#utility.yul\":25248:25366   */\n      tag_634\n        /* \"#utility.yul\":25361:25365   */\n      dup2\n        /* \"#utility.yul\":25352:25358   */\n      dup9\n        /* \"#utility.yul\":25344:25350   */\n      dup11\n        /* \"#utility.yul\":25248:25366   */\n      tag_333\n      jump\t// in\n    tag_634:\n        /* \"#utility.yul\":25240:25366   */\n      swap1\n      pop\n        /* \"#utility.yul\":25413:25422   */\n      dup2\n        /* \"#utility.yul\":25407:25411   */\n      dup2\n        /* \"#utility.yul\":25403:25423   */\n      sub\n        /* \"#utility.yul\":25398:25400   */\n      0x20\n        /* \"#utility.yul\":25387:25396   */\n      dup4\n        /* \"#utility.yul\":25383:25401   */\n      add\n        /* \"#utility.yul\":25376:25424   */\n      mstore\n        /* \"#utility.yul\":25441:25559   */\n      tag_635\n        /* \"#utility.yul\":25554:25558   */\n      dup2\n        /* \"#utility.yul\":25545:25551   */\n      dup7\n        /* \"#utility.yul\":25537:25543   */\n      dup9\n        /* \"#utility.yul\":25441:25559   */\n      tag_365\n      jump\t// in\n    tag_635:\n        /* \"#utility.yul\":25433:25559   */\n      swap1\n      pop\n        /* \"#utility.yul\":25569:25641   */\n      tag_636\n        /* \"#utility.yul\":25637:25639   */\n      0x40\n        /* \"#utility.yul\":25626:25635   */\n      dup4\n        /* \"#utility.yul\":25622:25640   */\n      add\n        /* \"#utility.yul\":25613:25619   */\n      dup6\n        /* \"#utility.yul\":25569:25641   */\n      tag_314\n      jump\t// in\n    tag_636:\n        /* \"#utility.yul\":25651:25723   */\n      tag_637\n        /* \"#utility.yul\":25719:25721   */\n      0x60\n        /* \"#utility.yul\":25708:25717   */\n      dup4\n        /* \"#utility.yul\":25704:25722   */\n      add\n        /* \"#utility.yul\":25695:25701   */\n      dup5\n        /* \"#utility.yul\":25651:25723   */\n      tag_314\n      jump\t// in\n    tag_637:\n        /* \"#utility.yul\":24835:25730   */\n      swap8\n      swap7\n      pop\n      pop\n      pop\n      pop\n      pop\n      pop\n      pop\n      jump\t// out\n        /* \"#utility.yul\":25736:26289   */\n    tag_175:\n        /* \"#utility.yul\":25913:25917   */\n      0x00\n        /* \"#utility.yul\":25951:25954   */\n      0x80\n        /* \"#utility.yul\":25940:25949   */\n      dup3\n        /* \"#utility.yul\":25936:25955   */\n      add\n        /* \"#utility.yul\":25928:25955   */\n      swap1\n      pop\n        /* \"#utility.yul\":25965:26036   */\n      tag_639\n        /* \"#utility.yul\":26033:26034   */\n      0x00\n        /* \"#utility.yul\":26022:26031   */\n      dup4\n        /* \"#utility.yul\":26018:26035   */\n      add\n        /* \"#utility.yul\":26009:26015   */\n      dup8\n        /* \"#utility.yul\":25965:26036   */\n      tag_357\n      jump\t// in\n    tag_639:\n        /* \"#utility.yul\":26046:26118   */\n      tag_640\n        /* \"#utility.yul\":26114:26116   */\n      0x20\n        /* \"#utility.yul\":26103:26112   */\n      dup4\n        /* \"#utility.yul\":26099:26117   */\n      add\n        /* \"#utility.yul\":26090:26096   */\n      dup7\n        /* \"#utility.yul\":26046:26118   */\n      tag_314\n      jump\t// in\n    tag_640:\n        /* \"#utility.yul\":26128:26200   */\n      tag_641\n        /* \"#utility.yul\":26196:26198   */\n      0x40\n        /* \"#utility.yul\":26185:26194   */\n      dup4\n        /* \"#utility.yul\":26181:26199   */\n      add\n        /* \"#utility.yul\":26172:26178   */\n      dup6\n        /* \"#utility.yul\":26128:26200   */\n      tag_314\n      jump\t// in\n    tag_641:\n        /* \"#utility.yul\":26210:26282   */\n      tag_642\n        /* \"#utility.yul\":26278:26280   */\n      0x60\n        /* \"#utility.yul\":26267:26276   */\n      dup4\n        /* \"#utility.yul\":26263:26281   */\n      add\n        /* \"#utility.yul\":26254:26260   */\n      dup5\n        /* \"#utility.yul\":26210:26282   */\n      tag_314\n      jump\t// in\n    tag_642:\n        /* \"#utility.yul\":25736:26289   */\n      swap6\n      swap5\n      pop\n      pop\n      pop\n      pop\n      pop\n      jump\t// out\n        /* \"#utility.yul\":26295:26489   */\n    tag_194:\n        /* \"#utility.yul\":26335:26339   */\n      0x00\n        /* \"#utility.yul\":26355:26375   */\n      tag_644\n        /* \"#utility.yul\":26373:26374   */\n      dup3\n        /* \"#utility.yul\":26355:26375   */\n      tag_313\n      jump\t// in\n    tag_644:\n        /* \"#utility.yul\":26350:26375   */\n      swap2\n      pop\n        /* \"#utility.yul\":26389:26409   */\n      tag_645\n        /* \"#utility.yul\":26407:26408   */\n      dup4\n        /* \"#utility.yul\":26389:26409   */\n      tag_313\n      jump\t// in\n    tag_645:\n        /* \"#utility.yul\":26384:26409   */\n      swap3\n      pop\n        /* \"#utility.yul\":26433:26434   */\n      dup3\n        /* \"#utility.yul\":26430:26431   */\n      dup3\n        /* \"#utility.yul\":26426:26435   */\n      sub\n        /* \"#utility.yul\":26418:26435   */\n      swap1\n      pop\n        /* \"#utility.yul\":26457:26458   */\n      dup2\n        /* \"#utility.yul\":26451:26455   */\n      dup2\n        /* \"#utility.yul\":26448:26459   */\n      gt\n        /* \"#utility.yul\":26445:26482   */\n      iszero\n      tag_646\n      jumpi\n        /* \"#utility.yul\":26462:26480   */\n      tag_647\n      tag_354\n      jump\t// in\n    tag_647:\n        /* \"#utility.yul\":26445:26482   */\n    tag_646:\n        /* \"#utility.yul\":26295:26489   */\n      swap3\n      swap2\n      pop\n      pop\n      jump\t// out\n        /* \"#utility.yul\":26495:26686   */\n    tag_196:\n        /* \"#utility.yul\":26535:26538   */\n      0x00\n        /* \"#utility.yul\":26554:26574   */\n      tag_649\n        /* \"#utility.yul\":26572:26573   */\n      dup3\n        /* \"#utility.yul\":26554:26574   */\n      tag_313\n      jump\t// in\n    tag_649:\n        /* \"#utility.yul\":26549:26574   */\n      swap2\n      pop\n        /* \"#utility.yul\":26588:26608   */\n      tag_650\n        /* \"#utility.yul\":26606:26607   */\n      dup4\n        /* \"#utility.yul\":26588:26608   */\n      tag_313\n      jump\t// in\n    tag_650:\n        /* \"#utility.yul\":26583:26608   */\n      swap3\n      pop\n        /* \"#utility.yul\":26631:26632   */\n      dup3\n        /* \"#utility.yul\":26628:26629   */\n      dup3\n        /* \"#utility.yul\":26624:26633   */\n      add\n        /* \"#utility.yul\":26617:26633   */\n      swap1\n      pop\n        /* \"#utility.yul\":26652:26655   */\n      dup1\n        /* \"#utility.yul\":26649:26650   */\n      dup3\n        /* \"#utility.yul\":26646:26656   */\n      gt\n        /* \"#utility.yul\":26643:26679   */\n      iszero\n      tag_651\n      jumpi\n        /* \"#utility.yul\":26659:26677   */\n      tag_652\n      tag_354\n      jump\t// in\n    tag_652:\n        /* \"#utility.yul\":26643:26679   */\n    tag_651:\n        /* \"#utility.yul\":26495:26686   */\n      swap3\n      swap2\n      pop\n      pop\n      jump\t// out\n        /* \"#utility.yul\":26692:26871   */\n    tag_366:\n        /* \"#utility.yul\":26832:26863   */\n      0x5468726573686f6c6420776f756c6420626520696d706f737369626c65000000\n        /* \"#utility.yul\":26828:26829   */\n      0x00\n        /* \"#utility.yul\":26820:26826   */\n      dup3\n        /* \"#utility.yul\":26816:26830   */\n      add\n        /* \"#utility.yul\":26809:26864   */\n      mstore\n        /* \"#utility.yul\":26692:26871   */\n      pop\n      jump\t// out\n        /* \"#utility.yul\":26877:27243   */\n    tag_367:\n        /* \"#utility.yul\":27019:27022   */\n      0x00\n        /* \"#utility.yul\":27040:27107   */\n      tag_655\n        /* \"#utility.yul\":27104:27106   */\n      0x1d\n        /* \"#utility.yul\":27099:27102   */\n      dup4\n        /* \"#utility.yul\":27040:27107   */\n      tag_346\n      jump\t// in\n    tag_655:\n        /* \"#utility.yul\":27033:27107   */\n      swap2\n      pop\n        /* \"#utility.yul\":27116:27209   */\n      tag_656\n        /* \"#utility.yul\":27205:27208   */\n      dup3\n        /* \"#utility.yul\":27116:27209   */\n      tag_366\n      jump\t// in\n    tag_656:\n        /* \"#utility.yul\":27234:27236   */\n      0x20\n        /* \"#utility.yul\":27229:27232   */\n      dup3\n        /* \"#utility.yul\":27225:27237   */\n      add\n        /* \"#utility.yul\":27218:27237   */\n      swap1\n      pop\n        /* \"#utility.yul\":26877:27243   */\n      swap2\n      swap1\n      pop\n      jump\t// out\n        /* \"#utility.yul\":27249:27668   */\n    tag_204:\n        /* \"#utility.yul\":27415:27419   */\n      0x00\n        /* \"#utility.yul\":27453:27455   */\n      0x20\n        /* \"#utility.yul\":27442:27451   */\n      dup3\n        /* \"#utility.yul\":27438:27456   */\n      add\n        /* \"#utility.yul\":27430:27456   */\n      swap1\n      pop\n        /* \"#utility.yul\":27502:27511   */\n      dup2\n        /* \"#utility.yul\":27496:27500   */\n      dup2\n        /* \"#utility.yul\":27492:27512   */\n      sub\n        /* \"#utility.yul\":27488:27489   */\n      0x00\n        /* \"#utility.yul\":27477:27486   */\n      dup4\n        /* \"#utility.yul\":27473:27490   */\n      add\n        /* \"#utility.yul\":27466:27513   */\n      mstore\n        /* \"#utility.yul\":27530:27661   */\n      tag_658\n        /* \"#utility.yul\":27656:27660   */\n      dup2\n        /* \"#utility.yul\":27530:27661   */\n      tag_367\n      jump\t// in\n    tag_658:\n        /* \"#utility.yul\":27522:27661   */\n      swap1\n      pop\n        /* \"#utility.yul\":27249:27668   */\n      swap2\n      swap1\n      pop\n      jump\t// out\n        /* \"#utility.yul\":27674:27822   */\n    tag_368:\n        /* \"#utility.yul\":27776:27787   */\n      0x00\n        /* \"#utility.yul\":27813:27816   */\n      dup2\n        /* \"#utility.yul\":27798:27816   */\n      swap1\n      pop\n        /* \"#utility.yul\":27674:27822   */\n      swap3\n      swap2\n      pop\n      pop\n      jump\t// out\n        /* \"#utility.yul\":27828:28042   */\n    tag_369:\n        /* \"#utility.yul\":27968:28034   */\n      0x19457468657265756d205369676e6564204d6573736167653a0a333200000000\n        /* \"#utility.yul\":27964:27965   */\n      0x00\n        /* \"#utility.yul\":27956:27962   */\n      dup3\n        /* \"#utility.yul\":27952:27966   */\n      add\n        /* \"#utility.yul\":27945:28035   */\n      mstore\n        /* \"#utility.yul\":27828:28042   */\n      pop\n      jump\t// out\n        /* \"#utility.yul\":28048:28450   */\n    tag_370:\n        /* \"#utility.yul\":28208:28211   */\n      0x00\n        /* \"#utility.yul\":28229:28314   */\n      tag_662\n        /* \"#utility.yul\":28311:28313   */\n      0x1c\n        /* \"#utility.yul\":28306:28309   */\n      dup4\n        /* \"#utility.yul\":28229:28314   */\n      tag_368\n      jump\t// in\n    tag_662:\n        /* \"#utility.yul\":28222:28314   */\n      swap2\n      pop\n        /* \"#utility.yul\":28323:28416   */\n      tag_663\n        /* \"#utility.yul\":28412:28415   */\n      dup3\n        /* \"#utility.yul\":28323:28416   */\n      tag_369\n      jump\t// in\n    tag_663:\n        /* \"#utility.yul\":28441:28443   */\n      0x1c\n        /* \"#utility.yul\":28436:28439   */\n      dup3\n        /* \"#utility.yul\":28432:28444   */\n      add\n        /* \"#utility.yul\":28425:28444   */\n      swap1\n      pop\n        /* \"#utility.yul\":28048:28450   */\n      swap2\n      swap1\n      pop\n      jump\t// out\n        /* \"#utility.yul\":28456:28533   */\n    tag_371:\n        /* \"#utility.yul\":28493:28500   */\n      0x00\n        /* \"#utility.yul\":28522:28527   */\n      dup2\n        /* \"#utility.yul\":28511:28527   */\n      swap1\n      pop\n        /* \"#utility.yul\":28456:28533   */\n      swap2\n      swap1\n      pop\n      jump\t// out\n        /* \"#utility.yul\":28539:28618   */\n    tag_372:\n        /* \"#utility.yul\":28578:28585   */\n      0x00\n        /* \"#utility.yul\":28607:28612   */\n      dup2\n        /* \"#utility.yul\":28596:28612   */\n      swap1\n      pop\n        /* \"#utility.yul\":28539:28618   */\n      swap2\n      swap1\n      pop\n      jump\t// out\n        /* \"#utility.yul\":28624:28781   */\n    tag_373:\n        /* \"#utility.yul\":28729:28774   */\n      tag_667\n        /* \"#utility.yul\":28749:28773   */\n      tag_668\n        /* \"#utility.yul\":28767:28772   */\n      dup3\n        /* \"#utility.yul\":28749:28773   */\n      tag_371\n      jump\t// in\n    tag_668:\n        /* \"#utility.yul\":28729:28774   */\n      tag_372\n      jump\t// in\n    tag_667:\n        /* \"#utility.yul\":28724:28727   */\n      dup3\n        /* \"#utility.yul\":28717:28775   */\n      mstore\n        /* \"#utility.yul\":28624:28781   */\n      pop\n      pop\n      jump\t// out\n        /* \"#utility.yul\":28787:29309   */\n    tag_256:\n        /* \"#utility.yul\":29000:29003   */\n      0x00\n        /* \"#utility.yul\":29022:29170   */\n      tag_670\n        /* \"#utility.yul\":29166:29169   */\n      dup3\n        /* \"#utility.yul\":29022:29170   */\n      tag_370\n      jump\t// in\n    tag_670:\n        /* \"#utility.yul\":29015:29170   */\n      swap2\n      pop\n        /* \"#utility.yul\":29180:29255   */\n      tag_671\n        /* \"#utility.yul\":29251:29254   */\n      dup3\n        /* \"#utility.yul\":29242:29248   */\n      dup5\n        /* \"#utility.yul\":29180:29255   */\n      tag_373\n      jump\t// in\n    tag_671:\n        /* \"#utility.yul\":29280:29282   */\n      0x20\n        /* \"#utility.yul\":29275:29278   */\n      dup3\n        /* \"#utility.yul\":29271:29283   */\n      add\n        /* \"#utility.yul\":29264:29283   */\n      swap2\n      pop\n        /* \"#utility.yul\":29300:29303   */\n      dup2\n        /* \"#utility.yul\":29293:29303   */\n      swap1\n      pop\n        /* \"#utility.yul\":28787:29309   */\n      swap3\n      swap2\n      pop\n      pop\n      jump\t// out\n        /* \"#utility.yul\":29315:29495   */\n    tag_270:\n        /* \"#utility.yul\":29363:29440   */\n      0x4e487b7100000000000000000000000000000000000000000000000000000000\n        /* \"#utility.yul\":29360:29361   */\n      0x00\n        /* \"#utility.yul\":29353:29441   */\n      mstore\n        /* \"#utility.yul\":29460:29464   */\n      0x21\n        /* \"#utility.yul\":29457:29458   */\n      0x04\n        /* \"#utility.yul\":29450:29465   */\n      mstore\n        /* \"#utility.yul\":29484:29488   */\n      0x24\n        /* \"#utility.yul\":29481:29482   */\n      0x00\n        /* \"#utility.yul\":29474:29489   */\n      revert\n        /* \"#utility.yul\":29501:29675   */\n    tag_374:\n        /* \"#utility.yul\":29641:29667   */\n      0x45434453413a20696e76616c6964207369676e61747572650000000000000000\n        /* \"#utility.yul\":29637:29638   */\n      0x00\n        /* \"#utility.yul\":29629:29635   */\n      dup3\n        /* \"#utility.yul\":29625:29639   */\n      add\n        /* \"#utility.yul\":29618:29668   */\n      mstore\n        /* \"#utility.yul\":29501:29675   */\n      pop\n      jump\t// out\n        /* \"#utility.yul\":29681:30047   */\n    tag_375:\n        /* \"#utility.yul\":29823:29826   */\n      0x00\n        /* \"#utility.yul\":29844:29911   */\n      tag_675\n        /* \"#utility.yul\":29908:29910   */\n      0x18\n        /* \"#utility.yul\":29903:29906   */\n      dup4\n        /* \"#utility.yul\":29844:29911   */\n      tag_346\n      jump\t// in\n    tag_675:\n        /* \"#utility.yul\":29837:29911   */\n      swap2\n      pop\n        /* \"#utility.yul\":29920:30013   */\n      tag_676\n        /* \"#utility.yul\":30009:30012   */\n      dup3\n        /* \"#utility.yul\":29920:30013   */\n      tag_374\n      jump\t// in\n    tag_676:\n        /* \"#utility.yul\":30038:30040   */\n      0x20\n        /* \"#utility.yul\":30033:30036   */\n      dup3\n        /* \"#utility.yul\":30029:30041   */\n      add\n        /* \"#utility.yul\":30022:30041   */\n      swap1\n      pop\n        /* \"#utility.yul\":29681:30047   */\n      swap2\n      swap1\n      pop\n      jump\t// out\n        /* \"#utility.yul\":30053:30472   */\n    tag_281:\n        /* \"#utility.yul\":30219:30223   */\n      0x00\n        /* \"#utility.yul\":30257:30259   */\n      0x20\n        /* \"#utility.yul\":30246:30255   */\n      dup3\n        /* \"#utility.yul\":30242:30260   */\n      add\n        /* \"#utility.yul\":30234:30260   */\n      swap1\n      pop\n        /* \"#utility.yul\":30306:30315   */\n      dup2\n        /* \"#utility.yul\":30300:30304   */\n      dup2\n        /* \"#utility.yul\":30296:30316   */\n      sub\n        /* \"#utility.yul\":30292:30293   */\n      0x00\n        /* \"#utility.yul\":30281:30290   */\n      dup4\n        /* \"#utility.yul\":30277:30294   */\n      add\n        /* \"#utility.yul\":30270:30317   */\n      mstore\n        /* \"#utility.yul\":30334:30465   */\n      tag_678\n        /* \"#utility.yul\":30460:30464   */\n      dup2\n        /* \"#utility.yul\":30334:30465   */\n      tag_375\n      jump\t// in\n    tag_678:\n        /* \"#utility.yul\":30326:30465   */\n      swap1\n      pop\n        /* \"#utility.yul\":30053:30472   */\n      swap2\n      swap1\n      pop\n      jump\t// out\n        /* \"#utility.yul\":30478:30659   */\n    tag_376:\n        /* \"#utility.yul\":30618:30651   */\n      0x45434453413a20696e76616c6964207369676e6174757265206c656e67746800\n        /* \"#utility.yul\":30614:30615   */\n      0x00\n        /* \"#utility.yul\":30606:30612   */\n      dup3\n        /* \"#utility.yul\":30602:30616   */\n      add\n        /* \"#utility.yul\":30595:30652   */\n      mstore\n        /* \"#utility.yul\":30478:30659   */\n      pop\n      jump\t// out\n        /* \"#utility.yul\":30665:31031   */\n    tag_377:\n        /* \"#utility.yul\":30807:30810   */\n      0x00\n        /* \"#utility.yul\":30828:30895   */\n      tag_681\n        /* \"#utility.yul\":30892:30894   */\n      0x1f\n        /* \"#utility.yul\":30887:30890   */\n      dup4\n        /* \"#utility.yul\":30828:30895   */\n      tag_346\n      jump\t// in\n    tag_681:\n        /* \"#utility.yul\":30821:30895   */\n      swap2\n      pop\n        /* \"#utility.yul\":30904:30997   */\n      tag_682\n        /* \"#utility.yul\":30993:30996   */\n      dup3\n        /* \"#utility.yul\":30904:30997   */\n      tag_376\n      jump\t// in\n    tag_682:\n        /* \"#utility.yul\":31022:31024   */\n      0x20\n        /* \"#utility.yul\":31017:31020   */\n      dup3\n        /* \"#utility.yul\":31013:31025   */\n      add\n        /* \"#utility.yul\":31006:31025   */\n      swap1\n      pop\n        /* \"#utility.yul\":30665:31031   */\n      swap2\n      swap1\n      pop\n      jump\t// out\n        /* \"#utility.yul\":31037:31456   */\n    tag_289:\n        /* \"#utility.yul\":31203:31207   */\n      0x00\n        /* \"#utility.yul\":31241:31243   */\n      0x20\n        /* \"#utility.yul\":31230:31239   */\n      dup3\n        /* \"#utility.yul\":31226:31244   */\n      add\n        /* \"#utility.yul\":31218:31244   */\n      swap1\n      pop\n        /* \"#utility.yul\":31290:31299   */\n      dup2\n        /* \"#utility.yul\":31284:31288   */\n      dup2\n        /* \"#utility.yul\":31280:31300   */\n      sub\n        /* \"#utility.yul\":31276:31277   */\n      0x00\n        /* \"#utility.yul\":31265:31274   */\n      dup4\n        /* \"#utility.yul\":31261:31278   */\n      add\n        /* \"#utility.yul\":31254:31301   */\n      mstore\n        /* \"#utility.yul\":31318:31449   */\n      tag_684\n        /* \"#utility.yul\":31444:31448   */\n      dup2\n        /* \"#utility.yul\":31318:31449   */\n      tag_377\n      jump\t// in\n    tag_684:\n        /* \"#utility.yul\":31310:31449   */\n      swap1\n      pop\n        /* \"#utility.yul\":31037:31456   */\n      swap2\n      swap1\n      pop\n      jump\t// out\n        /* \"#utility.yul\":31462:31683   */\n    tag_378:\n        /* \"#utility.yul\":31602:31636   */\n      0x45434453413a20696e76616c6964207369676e6174757265202773272076616c\n        /* \"#utility.yul\":31598:31599   */\n      0x00\n        /* \"#utility.yul\":31590:31596   */\n      dup3\n        /* \"#utility.yul\":31586:31600   */\n      add\n        /* \"#utility.yul\":31579:31637   */\n      mstore\n        /* \"#utility.yul\":31671:31675   */\n      0x7565000000000000000000000000000000000000000000000000000000000000\n        /* \"#utility.yul\":31666:31668   */\n      0x20\n        /* \"#utility.yul\":31658:31664   */\n      dup3\n        /* \"#utility.yul\":31654:31669   */\n      add\n        /* \"#utility.yul\":31647:31676   */\n      mstore\n        /* \"#utility.yul\":31462:31683   */\n      pop\n      jump\t// out\n        /* \"#utility.yul\":31689:32055   */\n    tag_379:\n        /* \"#utility.yul\":31831:31834   */\n      0x00\n        /* \"#utility.yul\":31852:31919   */\n      tag_687\n        /* \"#utility.yul\":31916:31918   */\n      0x22\n        /* \"#utility.yul\":31911:31914   */\n      dup4\n        /* \"#utility.yul\":31852:31919   */\n      tag_346\n      jump\t// in\n    tag_687:\n        /* \"#utility.yul\":31845:31919   */\n      swap2\n      pop\n        /* \"#utility.yul\":31928:32021   */\n      tag_688\n        /* \"#utility.yul\":32017:32020   */\n      dup3\n        /* \"#utility.yul\":31928:32021   */\n      tag_378\n      jump\t// in\n    tag_688:\n        /* \"#utility.yul\":32046:32048   */\n      0x40\n        /* \"#utility.yul\":32041:32044   */\n      dup3\n        /* \"#utility.yul\":32037:32049   */\n      add\n        /* \"#utility.yul\":32030:32049   */\n      swap1\n      pop\n        /* \"#utility.yul\":31689:32055   */\n      swap2\n      swap1\n      pop\n      jump\t// out\n        /* \"#utility.yul\":32061:32480   */\n    tag_297:\n        /* \"#utility.yul\":32227:32231   */\n      0x00\n        /* \"#utility.yul\":32265:32267   */\n      0x20\n        /* \"#utility.yul\":32254:32263   */\n      dup3\n        /* \"#utility.yul\":32250:32268   */\n      add\n        /* \"#utility.yul\":32242:32268   */\n      swap1\n      pop\n        /* \"#utility.yul\":32314:32323   */\n      dup2\n        /* \"#utility.yul\":32308:32312   */\n      dup2\n        /* \"#utility.yul\":32304:32324   */\n      sub\n        /* \"#utility.yul\":32300:32301   */\n      0x00\n        /* \"#utility.yul\":32289:32298   */\n      dup4\n        /* \"#utility.yul\":32285:32302   */\n      add\n        /* \"#utility.yul\":32278:32325   */\n      mstore\n        /* \"#utility.yul\":32342:32473   */\n      tag_690\n        /* \"#utility.yul\":32468:32472   */\n      dup2\n        /* \"#utility.yul\":32342:32473   */\n      tag_379\n      jump\t// in\n    tag_690:\n        /* \"#utility.yul\":32334:32473   */\n      swap1\n      pop\n        /* \"#utility.yul\":32061:32480   */\n      swap2\n      swap1\n      pop\n      jump\t// out\n        /* \"#utility.yul\":32486:32604   */\n    tag_380:\n        /* \"#utility.yul\":32573:32597   */\n      tag_692\n        /* \"#utility.yul\":32591:32596   */\n      dup2\n        /* \"#utility.yul\":32573:32597   */\n      tag_371\n      jump\t// in\n    tag_692:\n        /* \"#utility.yul\":32568:32571   */\n      dup3\n        /* \"#utility.yul\":32561:32598   */\n      mstore\n        /* \"#utility.yul\":32486:32604   */\n      pop\n      pop\n      jump\t// out\n        /* \"#utility.yul\":32610:32696   */\n    tag_381:\n        /* \"#utility.yul\":32645:32652   */\n      0x00\n        /* \"#utility.yul\":32685:32689   */\n      0xff\n        /* \"#utility.yul\":32678:32683   */\n      dup3\n        /* \"#utility.yul\":32674:32690   */\n      and\n        /* \"#utility.yul\":32663:32690   */\n      swap1\n      pop\n        /* \"#utility.yul\":32610:32696   */\n      swap2\n      swap1\n      pop\n      jump\t// out\n        /* \"#utility.yul\":32702:32814   */\n    tag_382:\n        /* \"#utility.yul\":32785:32807   */\n      tag_695\n        /* \"#utility.yul\":32801:32806   */\n      dup2\n        /* \"#utility.yul\":32785:32807   */\n      tag_381\n      jump\t// in\n    tag_695:\n        /* \"#utility.yul\":32780:32783   */\n      dup3\n        /* \"#utility.yul\":32773:32808   */\n      mstore\n        /* \"#utility.yul\":32702:32814   */\n      pop\n      pop\n      jump\t// out\n        /* \"#utility.yul\":32820:33365   */\n    tag_301:\n        /* \"#utility.yul\":32993:32997   */\n      0x00\n        /* \"#utility.yul\":33031:33034   */\n      0x80\n        /* \"#utility.yul\":33020:33029   */\n      dup3\n        /* \"#utility.yul\":33016:33035   */\n      add\n        /* \"#utility.yul\":33008:33035   */\n      swap1\n      pop\n        /* \"#utility.yul\":33045:33116   */\n      tag_697\n        /* \"#utility.yul\":33113:33114   */\n      0x00\n        /* \"#utility.yul\":33102:33111   */\n      dup4\n        /* \"#utility.yul\":33098:33115   */\n      add\n        /* \"#utility.yul\":33089:33095   */\n      dup8\n        /* \"#utility.yul\":33045:33116   */\n      tag_380\n      jump\t// in\n    tag_697:\n        /* \"#utility.yul\":33126:33194   */\n      tag_698\n        /* \"#utility.yul\":33190:33192   */\n      0x20\n        /* \"#utility.yul\":33179:33188   */\n      dup4\n        /* \"#utility.yul\":33175:33193   */\n      add\n        /* \"#utility.yul\":33166:33172   */\n      dup7\n        /* \"#utility.yul\":33126:33194   */\n      tag_382\n      jump\t// in\n    tag_698:\n        /* \"#utility.yul\":33204:33276   */\n      tag_699\n        /* \"#utility.yul\":33272:33274   */\n      0x40\n        /* \"#utility.yul\":33261:33270   */\n      dup4\n        /* \"#utility.yul\":33257:33275   */\n      add\n        /* \"#utility.yul\":33248:33254   */\n      dup6\n        /* \"#utility.yul\":33204:33276   */\n      tag_380\n      jump\t// in\n    tag_699:\n        /* \"#utility.yul\":33286:33358   */\n      tag_700\n        /* \"#utility.yul\":33354:33356   */\n      0x60\n        /* \"#utility.yul\":33343:33352   */\n      dup4\n        /* \"#utility.yul\":33339:33357   */\n      add\n        /* \"#utility.yul\":33330:33336   */\n      dup5\n        /* \"#utility.yul\":33286:33358   */\n      tag_380\n      jump\t// in\n    tag_700:\n        /* \"#utility.yul\":32820:33365   */\n      swap6\n      swap5\n      pop\n      pop\n      pop\n      pop\n      pop\n      jump\t// out\n    stop\n    data_72284c72650eb5f3095ffe3e95f497df8ba3ab16a33a5479ff4ed3ce4e760077 5369676e6572207765696768747320646f6573206e6f74206d656574207468726573686f6c64\n    data_785bc0b145e7feed7ceac2191d963af02addfd5fb4914d9f29f212008f60b7a9 4174206c65617374206f6e65207369676e6174757265206e6f742066726f6d2061206b6e6f776e20636f6e74726f6c6c6572\n    data_a16b8e883356b25ba9a3764847759439ed808aa5ab1e4a5a4f8ee72d493c676d 4174206c65617374206f6e65207369676e617475726520616c72656164792075736564\n\n    auxdata: 0xa2646970667358221220835b1a9b02444c089995ccfdff05830d803761088fa3849ec272dbeb9f6abc9c64736f6c63430008120033\n}\n",
				"bytecode": {
					"linkReferences": {},
					"object": "608060405234801561001057600080fd5b5061254e806100206000396000f3fe608060405234801561001057600080fd5b506004361061009e5760003560e01c8063a786509011610066578063a786509014610145578063af91549814610163578063d0bccea11461017f578063f04420f11461019b578063fec5c09a146101cb5761009e565b806301ffc9a7146100a357806306e82383146100d3578063286936bb146100f157806387f949b41461010d57806394c4395b14610129575b600080fd5b6100bd60048036038101906100b89190611418565b6101e9565b6040516100ca9190611460565b60405180910390f35b6100db61026a565b6040516100e89190611494565b60405180910390f35b61010b60048036038101906101069190611596565b61027d565b005b6101276004803603810190610122919061162b565b6103fc565b005b610143600480360381019061013e91906116fd565b6105a6565b005b61014d610781565b60405161015a9190611494565b60405180910390f35b61017d600480360381019061017891906117c7565b610794565b005b61019960048036038101906101949190611890565b610933565b005b6101b560048036038101906101b09190611918565b610b96565b6040516101c29190611494565b60405180910390f35b6101d3610be8565b6040516101e09190611460565b60405180910390f35b60007f6a01f9c1000000000000000000000000000000000000000000000000000000007bffffffffffffffffffffffffffffffffffffffffffffffffffffffff1916827bffffffffffffffffffffffffffffffffffffffffffffffffffffffff1916036102595760019050610265565b61026282610bf1565b90505b919050565b6000610274610c72565b60010154905090565b848484466040516020016102949493929190611a08565b6040516020818303038152906040528051906020012082826000806102c5858585906102c09190611c3c565b610c9f565b9150915081819061030c576040517f08c379a00000000000000000000000000000000000000000000000000000000081526004016103039190611cd0565b60405180910390fd5b5060005b8484905081101561039d576001610325610c72565b600301600087878581811061033d5761033c611cf2565b5b905060200281019061034f9190611d30565b60405161035d929190611dc3565b6040518091039020815260200190815260200160002060006101000a81548160ff021916908315150217905550808061039590611e0b565b915050610310565b5060005b8a8a90508110156103ef576103dc8b8b838181106103c2576103c1611cf2565b5b90506020020160208101906103d79190611918565b610e8f565b80806103e790611e0b565b9150506103a1565b5050505050505050505050565b83834660405160200161041193929190611e53565b6040516020818303038152906040528051906020012082826000806104428585859061043d9190611c3c565b610c9f565b91509150818190610489576040517f08c379a00000000000000000000000000000000000000000000000000000000081526004016104809190611cd0565b60405180910390fd5b5060005b8484905081101561051a5760016104a2610c72565b60030160008787858181106104ba576104b9611cf2565b5b90506020028101906104cc9190611d30565b6040516104da929190611dc3565b6040518091039020815260200190815260200160002060006101000a81548160ff021916908315150217905550808061051290611e0b565b91505061048d565b506000610525610c72565b6000015411801561054c5750610539610c72565b60010154610545610c72565b6000015411155b61058b576040517f08c379a000000000000000000000000000000000000000000000000000000000815260040161058290611ed6565b60405180910390fd5b88610594610c72565b60000181905550505050505050505050565b8383466040516020016105bb93929190611f05565b6040516020818303038152906040528051906020012082826000806105ec858585906105e79190611c3c565b610c9f565b91509150818190610633576040517f08c379a000000000000000000000000000000000000000000000000000000000815260040161062a9190611cd0565b60405180910390fd5b5060005b848490508110156106c457600161064c610c72565b600301600087878581811061066457610663611cf2565b5b90506020028101906106769190611d30565b604051610684929190611dc3565b6040518091039020815260200190815260200160002060006101000a81548160ff02191690831515021790555080806106bc90611e0b565b915050610637565b508873ffffffffffffffffffffffffffffffffffffffff1663fec5c09a6040518163ffffffff1660e01b8152600401602060405180830381865afa158015610710573d6000803e3d6000fd5b505050506040513d601f19601f820116820180604052508101906107349190611f68565b610773576040517f08c379a000000000000000000000000000000000000000000000000000000000815260040161076a90611fe1565b60405180910390fd5b883055505050505050505050565b600061078b610c72565b60000154905090565b8686868686466040516020016107af9695949392919061207c565b6040516020818303038152906040528051906020012082826000806107e0858585906107db9190611c3c565b610c9f565b91509150818190610827576040517f08c379a000000000000000000000000000000000000000000000000000000000815260040161081e9190611cd0565b60405180910390fd5b5060005b848490508110156108b8576001610840610c72565b600301600087878581811061085857610857611cf2565b5b905060200281019061086a9190611d30565b604051610878929190611dc3565b6040518091039020815260200190815260200160002060006101000a81548160ff02191690831515021790555080806108b090611e0b565b91505061082b565b5060005b8c8c9050811015610924576109118d8d838181106108dd576108dc611cf2565b5b90506020020160208101906108f29190611918565b8c8c8481811061090557610904611cf2565b5b90506020020135610fba565b808061091c90611e0b565b9150506108bc565b50505050505050505050505050565b8484844660405160200161094a94939291906120d3565b60405160208183030381529060405280519060200120828260008061097b858585906109769190611c3c565b610c9f565b915091508181906109c2576040517f08c379a00000000000000000000000000000000000000000000000000000000081526004016109b99190611cd0565b60405180910390fd5b5060005b84849050811015610a535760016109db610c72565b60030160008787858181106109f3576109f2611cf2565b5b9050602002810190610a059190611d30565b604051610a13929190611dc3565b6040518091039020815260200190815260200160002060006101000a81548160ff0219169083151502179055508080610a4b90611e0b565b9150506109c6565b5088610a5d610c72565b60020160008c73ffffffffffffffffffffffffffffffffffffffff1673ffffffffffffffffffffffffffffffffffffffff16815260200190815260200160002054610aa6610c72565b60010154610ab49190612118565b610abe919061214c565b610ac6610c72565b600101819055506000610ad7610c72565b60010154118015610afe5750610aeb610c72565b60000154610af7610c72565b6001015410155b610b3d576040517f08c379a0000000000000000000000000000000000000000000000000000000008152600401610b34906121cc565b60405180910390fd5b88610b46610c72565b60020160008c73ffffffffffffffffffffffffffffffffffffffff1673ffffffffffffffffffffffffffffffffffffffff1681526020019081526020016000208190555050505050505050505050565b6000610ba0610c72565b60020160008373ffffffffffffffffffffffffffffffffffffffff1673ffffffffffffffffffffffffffffffffffffffff168152602001908152602001600020549050919050565b60006001905090565b60007f8197b6d4000000000000000000000000000000000000000000000000000000007bffffffffffffffffffffffffffffffffffffffffffffffffffffffff1916827bffffffffffffffffffffffffffffffffffffffffffffffffffffffff191603610c615760019050610c6d565b610c6a8261102d565b90505b919050565b6000807f255f4a56bd3ad76424e31ed8855ef9ad14a0ce4e67508c76ff082e5c1466b12f90508091505090565b600060606000805b8451811015610e37576000610cd687878481518110610cc957610cc8611cf2565b5b6020026020010151611097565b90506000610ce2610c72565b60020160008373ffffffffffffffffffffffffffffffffffffffff1673ffffffffffffffffffffffffffffffffffffffff1681526020019081526020016000205403610d4f5760006040518060600160405280603281526020016124c46032913994509450505050610e88565b6000868381518110610d6457610d63611cf2565b5b6020026020010151805190602001209050610d7d610c72565b600301600082815260200190815260200160002060009054906101000a900460ff1615610dcc5760006040518060600160405280602381526020016124f6602391399550955050505050610e88565b610dd4610c72565b60020160008373ffffffffffffffffffffffffffffffffffffffff1673ffffffffffffffffffffffffffffffffffffffff1681526020019081526020016000205484610e20919061214c565b935050508080610e2f90611e0b565b915050610ca7565b50610e40610c72565b60000154811015610e7057600060405180606001604052806026815260200161249e602691399250925050610e88565b60016040518060200160405280600081525092509250505b9250929050565b610e97610c72565b60020160008273ffffffffffffffffffffffffffffffffffffffff1673ffffffffffffffffffffffffffffffffffffffff16815260200190815260200160002054610ee0610c72565b6001016000828254610ef29190612118565b925050819055506000610f03610c72565b60010154118015610f2a5750610f17610c72565b60000154610f23610c72565b6001015410155b610f69576040517f08c379a0000000000000000000000000000000000000000000000000000000008152600401610f60906121cc565b60405180910390fd5b6000610f73610c72565b60020160008373ffffffffffffffffffffffffffffffffffffffff1673ffffffffffffffffffffffffffffffffffffffff1681526020019081526020016000208190555050565b80610fc3610c72565b6001016000828254610fd5919061214c565b9250508190555080610fe5610c72565b60020160008473ffffffffffffffffffffffffffffffffffffffff1673ffffffffffffffffffffffffffffffffffffffff168152602001908152602001600020819055505050565b60007f01ffc9a7000000000000000000000000000000000000000000000000000000007bffffffffffffffffffffffffffffffffffffffffffffffffffffffff1916827bffffffffffffffffffffffffffffffffffffffffffffffffffffffff1916149050919050565b60006110b4826110a6856110bc565b6110ec90919063ffffffff16565b905092915050565b6000816040516020016110cf919061226e565b604051602081830303815290604052805190602001209050919050565b60008060006110fb8585611113565b9150915061110881611164565b819250505092915050565b60008060418351036111545760008060006020860151925060408601519150606086015160001a9050611148878285856112ca565b9450945050505061115d565b60006002915091505b9250929050565b6000600481111561117857611177612294565b5b81600481111561118b5761118a612294565b5b03156112c757600160048111156111a5576111a4612294565b5b8160048111156111b8576111b7612294565b5b036111f8576040517f08c379a00000000000000000000000000000000000000000000000000000000081526004016111ef9061230f565b60405180910390fd5b6002600481111561120c5761120b612294565b5b81600481111561121f5761121e612294565b5b0361125f576040517f08c379a00000000000000000000000000000000000000000000000000000000081526004016112569061237b565b60405180910390fd5b6003600481111561127357611272612294565b5b81600481111561128657611285612294565b5b036112c6576040517f08c379a00000000000000000000000000000000000000000000000000000000081526004016112bd9061240d565b60405180910390fd5b5b50565b6000807f7fffffffffffffffffffffffffffffff5d576e7357a4501ddfe92f46681b20a08360001c11156113055760006003915091506113a3565b60006001878787876040516000815260200160405260405161132a9493929190612458565b6020604051602081039080840390855afa15801561134c573d6000803e3d6000fd5b505050602060405103519050600073ffffffffffffffffffffffffffffffffffffffff168173ffffffffffffffffffffffffffffffffffffffff160361139a576000600192509250506113a3565b80600092509250505b94509492505050565b6000604051905090565b600080fd5b600080fd5b60007fffffffff0000000000000000000000000000000000000000000000000000000082169050919050565b6113f5816113c0565b811461140057600080fd5b50565b600081359050611412816113ec565b92915050565b60006020828403121561142e5761142d6113b6565b5b600061143c84828501611403565b91505092915050565b60008115159050919050565b61145a81611445565b82525050565b60006020820190506114756000830184611451565b92915050565b6000819050919050565b61148e8161147b565b82525050565b60006020820190506114a96000830184611485565b92915050565b600080fd5b600080fd5b600080fd5b60008083601f8401126114d4576114d36114af565b5b8235905067ffffffffffffffff8111156114f1576114f06114b4565b5b60208301915083602082028301111561150d5761150c6114b9565b5b9250929050565b61151d8161147b565b811461152857600080fd5b50565b60008135905061153a81611514565b92915050565b60008083601f840112611556576115556114af565b5b8235905067ffffffffffffffff811115611573576115726114b4565b5b60208301915083602082028301111561158f5761158e6114b9565b5b9250929050565b6000806000806000606086880312156115b2576115b16113b6565b5b600086013567ffffffffffffffff8111156115d0576115cf6113bb565b5b6115dc888289016114be565b955095505060206115ef8882890161152b565b935050604086013567ffffffffffffffff8111156116105761160f6113bb565b5b61161c88828901611540565b92509250509295509295909350565b60008060008060608587031215611645576116446113b6565b5b60006116538782880161152b565b94505060206116648782880161152b565b935050604085013567ffffffffffffffff811115611685576116846113bb565b5b61169187828801611540565b925092505092959194509250565b600073ffffffffffffffffffffffffffffffffffffffff82169050919050565b60006116ca8261169f565b9050919050565b6116da816116bf565b81146116e557600080fd5b50565b6000813590506116f7816116d1565b92915050565b60008060008060608587031215611717576117166113b6565b5b6000611725878288016116e8565b94505060206117368782880161152b565b935050604085013567ffffffffffffffff811115611757576117566113bb565b5b61176387828801611540565b925092505092959194509250565b60008083601f840112611787576117866114af565b5b8235905067ffffffffffffffff8111156117a4576117a36114b4565b5b6020830191508360208202830111156117c0576117bf6114b9565b5b9250929050565b60008060008060008060006080888a0312156117e6576117e56113b6565b5b600088013567ffffffffffffffff811115611804576118036113bb565b5b6118108a828b016114be565b9750975050602088013567ffffffffffffffff811115611833576118326113bb565b5b61183f8a828b01611771565b955095505060406118528a828b0161152b565b935050606088013567ffffffffffffffff811115611873576118726113bb565b5b61187f8a828b01611540565b925092505092959891949750929550565b6000806000806000608086880312156118ac576118ab6113b6565b5b60006118ba888289016116e8565b95505060206118cb8882890161152b565b94505060406118dc8882890161152b565b935050606086013567ffffffffffffffff8111156118fd576118fc6113bb565b5b61190988828901611540565b92509250509295509295909350565b60006020828403121561192e5761192d6113b6565b5b600061193c848285016116e8565b91505092915050565b600082825260208201905092915050565b6000819050919050565b611969816116bf565b82525050565b600061197b8383611960565b60208301905092915050565b600061199660208401846116e8565b905092915050565b6000602082019050919050565b60006119b78385611945565b93506119c282611956565b8060005b858110156119fb576119d88284611987565b6119e2888261196f565b97506119ed8361199e565b9250506001810190506119c6565b5085925050509392505050565b60006060820190508181036000830152611a238186886119ab565b9050611a326020830185611485565b611a3f6040830184611485565b95945050505050565b6000601f19601f8301169050919050565b7f4e487b7100000000000000000000000000000000000000000000000000000000600052604160045260246000fd5b611a9182611a48565b810181811067ffffffffffffffff82111715611ab057611aaf611a59565b5b80604052505050565b6000611ac36113ac565b9050611acf8282611a88565b919050565b600067ffffffffffffffff821115611aef57611aee611a59565b5b602082029050602081019050919050565b600080fd5b600067ffffffffffffffff821115611b2057611b1f611a59565b5b611b2982611a48565b9050602081019050919050565b82818337600083830152505050565b6000611b58611b5384611b05565b611ab9565b905082815260208101848484011115611b7457611b73611b00565b5b611b7f848285611b36565b509392505050565b600082601f830112611b9c57611b9b6114af565b5b8135611bac848260208601611b45565b91505092915050565b6000611bc8611bc384611ad4565b611ab9565b90508083825260208201905060208402830185811115611beb57611bea6114b9565b5b835b81811015611c3257803567ffffffffffffffff811115611c1057611c0f6114af565b5b808601611c1d8982611b87565b85526020850194505050602081019050611bed565b5050509392505050565b6000611c49368484611bb5565b905092915050565b600081519050919050565b600082825260208201905092915050565b60005b83811015611c8b578082015181840152602081019050611c70565b60008484015250505050565b6000611ca282611c51565b611cac8185611c5c565b9350611cbc818560208601611c6d565b611cc581611a48565b840191505092915050565b60006020820190508181036000830152611cea8184611c97565b905092915050565b7f4e487b7100000000000000000000000000000000000000000000000000000000600052603260045260246000fd5b600080fd5b600080fd5b600080fd5b60008083356001602003843603038112611d4d57611d4c611d21565b5b80840192508235915067ffffffffffffffff821115611d6f57611d6e611d26565b5b602083019250600182023603831315611d8b57611d8a611d2b565b5b509250929050565b600081905092915050565b6000611daa8385611d93565b9350611db7838584611b36565b82840190509392505050565b6000611dd0828486611d9e565b91508190509392505050565b7f4e487b7100000000000000000000000000000000000000000000000000000000600052601160045260246000fd5b6000611e168261147b565b91507fffffffffffffffffffffffffffffffffffffffffffffffffffffffffffffffff8203611e4857611e47611ddc565b5b600182019050919050565b6000606082019050611e686000830186611485565b611e756020830185611485565b611e826040830184611485565b949350505050565b7f496e76616c6964207468726573686f6c64000000000000000000000000000000600082015250565b6000611ec0601183611c5c565b9150611ecb82611e8a565b602082019050919050565b60006020820190508181036000830152611eef81611eb3565b9050919050565b611eff816116bf565b82525050565b6000606082019050611f1a6000830186611ef6565b611f276020830185611485565b611f346040830184611485565b949350505050565b611f4581611445565b8114611f5057600080fd5b50565b600081519050611f6281611f3c565b92915050565b600060208284031215611f7e57611f7d6113b6565b5b6000611f8c84828501611f53565b91505092915050565b7f496e76616c696420696d706c656d656e746174696f6e00000000000000000000600082015250565b6000611fcb601683611c5c565b9150611fd682611f95565b602082019050919050565b60006020820190508181036000830152611ffa81611fbe565b9050919050565b600082825260208201905092915050565b600080fd5b82818337505050565b600061202c8385612001565b93507f07ffffffffffffffffffffffffffffffffffffffffffffffffffffffffffffff83111561205f5761205e612012565b5b602083029250612070838584612017565b82840190509392505050565b6000608082019050818103600083015261209781888a6119ab565b905081810360208301526120ac818688612020565b90506120bb6040830185611485565b6120c86060830184611485565b979650505050505050565b60006080820190506120e86000830187611ef6565b6120f56020830186611485565b6121026040830185611485565b61210f6060830184611485565b95945050505050565b60006121238261147b565b915061212e8361147b565b925082820390508181111561214657612145611ddc565b5b92915050565b60006121578261147b565b91506121628361147b565b925082820190508082111561217a57612179611ddc565b5b92915050565b7f5468726573686f6c6420776f756c6420626520696d706f737369626c65000000600082015250565b60006121b6601d83611c5c565b91506121c182612180565b602082019050919050565b600060208201905081810360008301526121e5816121a9565b9050919050565b600081905092915050565b7f19457468657265756d205369676e6564204d6573736167653a0a333200000000600082015250565b600061222d601c836121ec565b9150612238826121f7565b601c82019050919050565b6000819050919050565b6000819050919050565b61226861226382612243565b61224d565b82525050565b600061227982612220565b91506122858284612257565b60208201915081905092915050565b7f4e487b7100000000000000000000000000000000000000000000000000000000600052602160045260246000fd5b7f45434453413a20696e76616c6964207369676e61747572650000000000000000600082015250565b60006122f9601883611c5c565b9150612304826122c3565b602082019050919050565b60006020820190508181036000830152612328816122ec565b9050919050565b7f45434453413a20696e76616c6964207369676e6174757265206c656e67746800600082015250565b6000612365601f83611c5c565b91506123708261232f565b602082019050919050565b6000602082019050818103600083015261239481612358565b9050919050565b7f45434453413a20696e76616c6964207369676e6174757265202773272076616c60008201527f7565000000000000000000000000000000000000000000000000000000000000602082015250565b60006123f7602283611c5c565b91506124028261239b565b604082019050919050565b60006020820190508181036000830152612426816123ea565b9050919050565b61243681612243565b82525050565b600060ff82169050919050565b6124528161243c565b82525050565b600060808201905061246d600083018761242d565b61247a6020830186612449565b612487604083018561242d565b612494606083018461242d565b9594505050505056fe5369676e6572207765696768747320646f6573206e6f74206d656574207468726573686f6c644174206c65617374206f6e65207369676e6174757265206e6f742066726f6d2061206b6e6f776e20636f6e74726f6c6c65724174206c65617374206f6e65207369676e617475726520616c72656164792075736564a2646970667358221220835b1a9b02444c089995ccfdff05830d803761088fa3849ec272dbeb9f6abc9c64736f6c63430008120033",
					"opcodes": "PUSH1 0x80 PUSH1 0x40 MSTORE CALLVALUE DUP1 ISZERO PUSH2 0x10 JUMPI PUSH1 0x0 DUP1 REVERT JUMPDEST POP PUSH2 0x254E DUP1 PUSH2 0x20 PUSH1 0x0 CODECOPY PUSH1 0x0 RETURN INVALID PUSH1 0x80 PUSH1 0x40 MSTORE CALLVALUE DUP1 ISZERO PUSH2 0x10 JUMPI PUSH1 0x0 DUP1 REVERT JUMPDEST POP PUSH1 0x4 CALLDATASIZE LT PUSH2 0x9E JUMPI PUSH1 0x0 CALLDATALOAD PUSH1 0xE0 SHR DUP1 PUSH4 0xA7865090 GT PUSH2 0x66 JUMPI DUP1 PUSH4 0xA7865090 EQ PUSH2 0x145 JUMPI DUP1 PUSH4 0xAF915498 EQ PUSH2 0x163 JUMPI DUP1 PUSH4 0xD0BCCEA1 EQ PUSH2 0x17F JUMPI DUP1 PUSH4 0xF04420F1 EQ PUSH2 0x19B JUMPI DUP1 PUSH4 0xFEC5C09A EQ PUSH2 0x1CB JUMPI PUSH2 0x9E JUMP JUMPDEST DUP1 PUSH4 0x1FFC9A7 EQ PUSH2 0xA3 JUMPI DUP1 PUSH4 0x6E82383 EQ PUSH2 0xD3 JUMPI DUP1 PUSH4 0x286936BB EQ PUSH2 0xF1 JUMPI DUP1 PUSH4 0x87F949B4 EQ PUSH2 0x10D JUMPI DUP1 PUSH4 0x94C4395B EQ PUSH2 0x129 JUMPI JUMPDEST PUSH1 0x0 DUP1 REVERT JUMPDEST PUSH2 0xBD PUSH1 0x4 DUP1 CALLDATASIZE SUB DUP2 ADD SWAP1 PUSH2 0xB8 SWAP2 SWAP1 PUSH2 0x1418 JUMP JUMPDEST PUSH2 0x1E9 JUMP JUMPDEST PUSH1 0x40 MLOAD PUSH2 0xCA SWAP2 SWAP1 PUSH2 0x1460 JUMP JUMPDEST PUSH1 0x40 MLOAD DUP1 SWAP2 SUB SWAP1 RETURN JUMPDEST PUSH2 0xDB PUSH2 0x26A JUMP JUMPDEST PUSH1 0x40 MLOAD PUSH2 0xE8 SWAP2 SWAP1 PUSH2 0x1494 JUMP JUMPDEST PUSH1 0x40 MLOAD DUP1 SWAP2 SUB SWAP1 RETURN JUMPDEST PUSH2 0x10B PUSH1 0x4 DUP1 CALLDATASIZE SUB DUP2 ADD SWAP1 PUSH2 0x106 SWAP2 SWAP1 PUSH2 0x1596 JUMP JUMPDEST PUSH2 0x27D JUMP JUMPDEST STOP JUMPDEST PUSH2 0x127 PUSH1 0x4 DUP1 CALLDATASIZE SUB DUP2 ADD SWAP1 PUSH2 0x122 SWAP2 SWAP1 PUSH2 0x162B JUMP JUMPDEST PUSH2 0x3FC JUMP JUMPDEST STOP JUMPDEST PUSH2 0x143 PUSH1 0x4 DUP1 CALLDATASIZE SUB DUP2 ADD SWAP1 PUSH2 0x13E SWAP2 SWAP1 PUSH2 0x16FD JUMP JUMPDEST PUSH2 0x5A6 JUMP JUMPDEST STOP JUMPDEST PUSH2 0x14D PUSH2 0x781 JUMP JUMPDEST PUSH1 0x40 MLOAD PUSH2 0x15A SWAP2 SWAP1 PUSH2 0x1494 JUMP JUMPDEST PUSH1 0x40 MLOAD DUP1 SWAP2 SUB SWAP1 RETURN JUMPDEST PUSH2 0x17D PUSH1 0x4 DUP1 CALLDATASIZE SUB DUP2 ADD SWAP1 PUSH2 0x178 SWAP2 SWAP1 PUSH2 0x17C7 JUMP JUMPDEST PUSH2 0x794 JUMP JUMPDEST STOP JUMPDEST PUSH2 0x199 PUSH1 0x4 DUP1 CALLDATASIZE SUB DUP2 ADD SWAP1 PUSH2 0x194 SWAP2 SWAP1 PUSH2 0x1890 JUMP JUMPDEST PUSH2 0x933 JUMP JUMPDEST STOP JUMPDEST PUSH2 0x1B5 PUSH1 0x4 DUP1 CALLDATASIZE SUB DUP2 ADD SWAP1 PUSH2 0x1B0 SWAP2 SWAP1 PUSH2 0x1918 JUMP JUMPDEST PUSH2 0xB96 JUMP JUMPDEST PUSH1 0x40 MLOAD PUSH2 0x1C2 SWAP2 SWAP1 PUSH2 0x1494 JUMP JUMPDEST PUSH1 0x40 MLOAD DUP1 SWAP2 SUB SWAP1 RETURN JUMPDEST PUSH2 0x1D3 PUSH2 0xBE8 JUMP JUMPDEST PUSH1 0x40 MLOAD PUSH2 0x1E0 SWAP2 SWAP1 PUSH2 0x1460 JUMP JUMPDEST PUSH1 0x40 MLOAD DUP1 SWAP2 SUB SWAP1 RETURN JUMPDEST PUSH1 0x0 PUSH32 0x6A01F9C100000000000000000000000000000000000000000000000000000000 PUSH28 0xFFFFFFFFFFFFFFFFFFFFFFFFFFFFFFFFFFFFFFFFFFFFFFFFFFFFFFFF NOT AND DUP3 PUSH28 0xFFFFFFFFFFFFFFFFFFFFFFFFFFFFFFFFFFFFFFFFFFFFFFFFFFFFFFFF NOT AND SUB PUSH2 0x259 JUMPI PUSH1 0x1 SWAP1 POP PUSH2 0x265 JUMP JUMPDEST PUSH2 0x262 DUP3 PUSH2 0xBF1 JUMP JUMPDEST SWAP1 POP JUMPDEST SWAP2 SWAP1 POP JUMP JUMPDEST PUSH1 0x0 PUSH2 0x274 PUSH2 0xC72 JUMP JUMPDEST PUSH1 0x1 ADD SLOAD SWAP1 POP SWAP1 JUMP JUMPDEST DUP5 DUP5 DUP5 CHAINID PUSH1 0x40 MLOAD PUSH1 0x20 ADD PUSH2 0x294 SWAP5 SWAP4 SWAP3 SWAP2 SWAP1 PUSH2 0x1A08 JUMP JUMPDEST PUSH1 0x40 MLOAD PUSH1 0x20 DUP2 DUP4 SUB SUB DUP2 MSTORE SWAP1 PUSH1 0x40 MSTORE DUP1 MLOAD SWAP1 PUSH1 0x20 ADD KECCAK256 DUP3 DUP3 PUSH1 0x0 DUP1 PUSH2 0x2C5 DUP6 DUP6 DUP6 SWAP1 PUSH2 0x2C0 SWAP2 SWAP1 PUSH2 0x1C3C JUMP JUMPDEST PUSH2 0xC9F JUMP JUMPDEST SWAP2 POP SWAP2 POP DUP2 DUP2 SWAP1 PUSH2 0x30C JUMPI PUSH1 0x40 MLOAD PUSH32 0x8C379A000000000000000000000000000000000000000000000000000000000 DUP2 MSTORE PUSH1 0x4 ADD PUSH2 0x303 SWAP2 SWAP1 PUSH2 0x1CD0 JUMP JUMPDEST PUSH1 0x40 MLOAD DUP1 SWAP2 SUB SWAP1 REVERT JUMPDEST POP PUSH1 0x0 JUMPDEST DUP5 DUP5 SWAP1 POP DUP2 LT ISZERO PUSH2 0x39D JUMPI PUSH1 0x1 PUSH2 0x325 PUSH2 0xC72 JUMP JUMPDEST PUSH1 0x3 ADD PUSH1 0x0 DUP8 DUP8 DUP6 DUP2 DUP2 LT PUSH2 0x33D JUMPI PUSH2 0x33C PUSH2 0x1CF2 JUMP JUMPDEST JUMPDEST SWAP1 POP PUSH1 0x20 MUL DUP2 ADD SWAP1 PUSH2 0x34F SWAP2 SWAP1 PUSH2 0x1D30 JUMP JUMPDEST PUSH1 0x40 MLOAD PUSH2 0x35D SWAP3 SWAP2 SWAP1 PUSH2 0x1DC3 JUMP JUMPDEST PUSH1 0x40 MLOAD DUP1 SWAP2 SUB SWAP1 KECCAK256 DUP2 MSTORE PUSH1 0x20 ADD SWAP1 DUP2 MSTORE PUSH1 0x20 ADD PUSH1 0x0 KECCAK256 PUSH1 0x0 PUSH2 0x100 EXP DUP2 SLOAD DUP2 PUSH1 0xFF MUL NOT AND SWAP1 DUP4 ISZERO ISZERO MUL OR SWAP1 SSTORE POP DUP1 DUP1 PUSH2 0x395 SWAP1 PUSH2 0x1E0B JUMP JUMPDEST SWAP2 POP POP PUSH2 0x310 JUMP JUMPDEST POP PUSH1 0x0 JUMPDEST DUP11 DUP11 SWAP1 POP DUP2 LT ISZERO PUSH2 0x3EF JUMPI PUSH2 0x3DC DUP12 DUP12 DUP4 DUP2 DUP2 LT PUSH2 0x3C2 JUMPI PUSH2 0x3C1 PUSH2 0x1CF2 JUMP JUMPDEST JUMPDEST SWAP1 POP PUSH1 0x20 MUL ADD PUSH1 0x20 DUP2 ADD SWAP1 PUSH2 0x3D7 SWAP2 SWAP1 PUSH2 0x1918 JUMP JUMPDEST PUSH2 0xE8F JUMP JUMPDEST DUP1 DUP1 PUSH2 0x3E7 SWAP1 PUSH2 0x1E0B JUMP JUMPDEST SWAP2 POP POP PUSH2 0x3A1 JUMP JUMPDEST POP POP POP POP POP POP POP POP POP POP POP JUMP JUMPDEST DUP4 DUP4 CHAINID PUSH1 0x40 MLOAD PUSH1 0x20 ADD PUSH2 0x411 SWAP4 SWAP3 SWAP2 SWAP1 PUSH2 0x1E53 JUMP JUMPDEST PUSH1 0x40 MLOAD PUSH1 0x20 DUP2 DUP4 SUB SUB DUP2 MSTORE SWAP1 PUSH1 0x40 MSTORE DUP1 MLOAD SWAP1 PUSH1 0x20 ADD KECCAK256 DUP3 DUP3 PUSH1 0x0 DUP1 PUSH2 0x442 DUP6 DUP6 DUP6 SWAP1 PUSH2 0x43D SWAP2 SWAP1 PUSH2 0x1C3C JUMP JUMPDEST PUSH2 0xC9F JUMP JUMPDEST SWAP2 POP SWAP2 POP DUP2 DUP2 SWAP1 PUSH2 0x489 JUMPI PUSH1 0x40 MLOAD PUSH32 0x8C379A000000000000000000000000000000000000000000000000000000000 DUP2 MSTORE PUSH1 0x4 ADD PUSH2 0x480 SWAP2 SWAP1 PUSH2 0x1CD0 JUMP JUMPDEST PUSH1 0x40 MLOAD DUP1 SWAP2 SUB SWAP1 REVERT JUMPDEST POP PUSH1 0x0 JUMPDEST DUP5 DUP5 SWAP1 POP DUP2 LT ISZERO PUSH2 0x51A JUMPI PUSH1 0x1 PUSH2 0x4A2 PUSH2 0xC72 JUMP JUMPDEST PUSH1 0x3 ADD PUSH1 0x0 DUP8 DUP8 DUP6 DUP2 DUP2 LT PUSH2 0x4BA JUMPI PUSH2 0x4B9 PUSH2 0x1CF2 JUMP JUMPDEST JUMPDEST SWAP1 POP PUSH1 0x20 MUL DUP2 ADD SWAP1 PUSH2 0x4CC SWAP2 SWAP1 PUSH2 0x1D30 JUMP JUMPDEST PUSH1 0x40 MLOAD PUSH2 0x4DA SWAP3 SWAP2 SWAP1 PUSH2 0x1DC3 JUMP JUMPDEST PUSH1 0x40 MLOAD DUP1 SWAP2 SUB SWAP1 KECCAK256 DUP2 MSTORE PUSH1 0x20 ADD SWAP1 DUP2 MSTORE PUSH1 0x20 ADD PUSH1 0x0 KECCAK256 PUSH1 0x0 PUSH2 0x100 EXP DUP2 SLOAD DUP2 PUSH1 0xFF MUL NOT AND SWAP1 DUP4 ISZERO ISZERO MUL OR SWAP1 SSTORE POP DUP1 DUP1 PUSH2 0x512 SWAP1 PUSH2 0x1E0B JUMP JUMPDEST SWAP2 POP POP PUSH2 0x48D JUMP JUMPDEST POP PUSH1 0x0 PUSH2 0x525 PUSH2 0xC72 JUMP JUMPDEST PUSH1 0x0 ADD SLOAD GT DUP1 ISZERO PUSH2 0x54C JUMPI POP PUSH2 0x539 PUSH2 0xC72 JUMP JUMPDEST PUSH1 0x1 ADD SLOAD PUSH2 0x545 PUSH2 0xC72 JUMP JUMPDEST PUSH1 0x0 ADD SLOAD GT ISZERO JUMPDEST PUSH2 0x58B JUMPI PUSH1 0x40 MLOAD PUSH32 0x8C379A000000000000000000000000000000000000000000000000000000000 DUP2 MSTORE PUSH1 0x4 ADD PUSH2 0x582 SWAP1 PUSH2 0x1ED6 JUMP JUMPDEST PUSH1 0x40 MLOAD DUP1 SWAP2 SUB SWAP1 REVERT JUMPDEST DUP9 PUSH2 0x594 PUSH2 0xC72 JUMP JUMPDEST PUSH1 0x0 ADD DUP2 SWAP1 SSTORE POP POP POP POP POP POP POP POP POP POP JUMP JUMPDEST DUP4 DUP4 CHAINID PUSH1 0x40 MLOAD PUSH1 0x20 ADD PUSH2 0x5BB SWAP4 SWAP3 SWAP2 SWAP1 PUSH2 0x1F05 JUMP JUMPDEST PUSH1 0x40 MLOAD PUSH1 0x20 DUP2 DUP4 SUB SUB DUP2 MSTORE SWAP1 PUSH1 0x40 MSTORE DUP1 MLOAD SWAP1 PUSH1 0x20 ADD KECCAK256 DUP3 DUP3 PUSH1 0x0 DUP1 PUSH2 0x5EC DUP6 DUP6 DUP6 SWAP1 PUSH2 0x5E7 SWAP2 SWAP1 PUSH2 0x1C3C JUMP JUMPDEST PUSH2 0xC9F JUMP JUMPDEST SWAP2 POP SWAP2 POP DUP2 DUP2 SWAP1 PUSH2 0x633 JUMPI PUSH1 0x40 MLOAD PUSH32 0x8C379A000000000000000000000000000000000000000000000000000000000 DUP2 MSTORE PUSH1 0x4 ADD PUSH2 0x62A SWAP2 SWAP1 PUSH2 0x1CD0 JUMP JUMPDEST PUSH1 0x40 MLOAD DUP1 SWAP2 SUB SWAP1 REVERT JUMPDEST POP PUSH1 0x0 JUMPDEST DUP5 DUP5 SWAP1 POP DUP2 LT ISZERO PUSH2 0x6C4 JUMPI PUSH1 0x1 PUSH2 0x64C PUSH2 0xC72 JUMP JUMPDEST PUSH1 0x3 ADD PUSH1 0x0 DUP8 DUP8 DUP6 DUP2 DUP2 LT PUSH2 0x664 JUMPI PUSH2 0x663 PUSH2 0x1CF2 JUMP JUMPDEST JUMPDEST SWAP1 POP PUSH1 0x20 MUL DUP2 ADD SWAP1 PUSH2 0x676 SWAP2 SWAP1 PUSH2 0x1D30 JUMP JUMPDEST PUSH1 0x40 MLOAD PUSH2 0x684 SWAP3 SWAP2 SWAP1 PUSH2 0x1DC3 JUMP JUMPDEST PUSH1 0x40 MLOAD DUP1 SWAP2 SUB SWAP1 KECCAK256 DUP2 MSTORE PUSH1 0x20 ADD SWAP1 DUP2 MSTORE PUSH1 0x20 ADD PUSH1 0x0 KECCAK256 PUSH1 0x0 PUSH2 0x100 EXP DUP2 SLOAD DUP2 PUSH1 0xFF MUL NOT AND SWAP1 DUP4 ISZERO ISZERO MUL OR SWAP1 SSTORE POP DUP1 DUP1 PUSH2 0x6BC SWAP1 PUSH2 0x1E0B JUMP JUMPDEST SWAP2 POP POP PUSH2 0x637 JUMP JUMPDEST POP DUP9 PUSH20 0xFFFFFFFFFFFFFFFFFFFFFFFFFFFFFFFFFFFFFFFF AND PUSH4 0xFEC5C09A PUSH1 0x40 MLOAD DUP2 PUSH4 0xFFFFFFFF AND PUSH1 0xE0 SHL DUP2 MSTORE PUSH1 0x4 ADD PUSH1 0x20 PUSH1 0x40 MLOAD DUP1 DUP4 SUB DUP2 DUP7 GAS STATICCALL ISZERO DUP1 ISZERO PUSH2 0x710 JUMPI RETURNDATASIZE PUSH1 0x0 DUP1 RETURNDATACOPY RETURNDATASIZE PUSH1 0x0 REVERT JUMPDEST POP POP POP POP PUSH1 0x40 MLOAD RETURNDATASIZE PUSH1 0x1F NOT PUSH1 0x1F DUP3 ADD AND DUP3 ADD DUP1 PUSH1 0x40 MSTORE POP DUP2 ADD SWAP1 PUSH2 0x734 SWAP2 SWAP1 PUSH2 0x1F68 JUMP JUMPDEST PUSH2 0x773 JUMPI PUSH1 0x40 MLOAD PUSH32 0x8C379A000000000000000000000000000000000000000000000000000000000 DUP2 MSTORE PUSH1 0x4 ADD PUSH2 0x76A SWAP1 PUSH2 0x1FE1 JUMP JUMPDEST PUSH1 0x40 MLOAD DUP1 SWAP2 SUB SWAP1 REVERT JUMPDEST DUP9 ADDRESS SSTORE POP POP POP POP POP POP POP POP POP JUMP JUMPDEST PUSH1 0x0 PUSH2 0x78B PUSH2 0xC72 JUMP JUMPDEST PUSH1 0x0 ADD SLOAD SWAP1 POP SWAP1 JUMP JUMPDEST DUP7 DUP7 DUP7 DUP7 DUP7 CHAINID PUSH1 0x40 MLOAD PUSH1 0x20 ADD PUSH2 0x7AF SWAP7 SWAP6 SWAP5 SWAP4 SWAP3 SWAP2 SWAP1 PUSH2 0x207C JUMP JUMPDEST PUSH1 0x40 MLOAD PUSH1 0x20 DUP2 DUP4 SUB SUB DUP2 MSTORE SWAP1 PUSH1 0x40 MSTORE DUP1 MLOAD SWAP1 PUSH1 0x20 ADD KECCAK256 DUP3 DUP3 PUSH1 0x0 DUP1 PUSH2 0x7E0 DUP6 DUP6 DUP6 SWAP1 PUSH2 0x7DB SWAP2 SWAP1 PUSH2 0x1C3C JUMP JUMPDEST PUSH2 0xC9F JUMP JUMPDEST SWAP2 POP SWAP2 POP DUP2 DUP2 SWAP1 PUSH2 0x827 JUMPI PUSH1 0x40 MLOAD PUSH32 0x8C379A000000000000000000000000000000000000000000000000000000000 DUP2 MSTORE PUSH1 0x4 ADD PUSH2 0x81E SWAP2 SWAP1 PUSH2 0x1CD0 JUMP JUMPDEST PUSH1 0x40 MLOAD DUP1 SWAP2 SUB SWAP1 REVERT JUMPDEST POP PUSH1 0x0 JUMPDEST DUP5 DUP5 SWAP1 POP DUP2 LT ISZERO PUSH2 0x8B8 JUMPI PUSH1 0x1 PUSH2 0x840 PUSH2 0xC72 JUMP JUMPDEST PUSH1 0x3 ADD PUSH1 0x0 DUP8 DUP8 DUP6 DUP2 DUP2 LT PUSH2 0x858 JUMPI PUSH2 0x857 PUSH2 0x1CF2 JUMP JUMPDEST JUMPDEST SWAP1 POP PUSH1 0x20 MUL DUP2 ADD SWAP1 PUSH2 0x86A SWAP2 SWAP1 PUSH2 0x1D30 JUMP JUMPDEST PUSH1 0x40 MLOAD PUSH2 0x878 SWAP3 SWAP2 SWAP1 PUSH2 0x1DC3 JUMP JUMPDEST PUSH1 0x40 MLOAD DUP1 SWAP2 SUB SWAP1 KECCAK256 DUP2 MSTORE PUSH1 0x20 ADD SWAP1 DUP2 MSTORE PUSH1 0x20 ADD PUSH1 0x0 KECCAK256 PUSH1 0x0 PUSH2 0x100 EXP DUP2 SLOAD DUP2 PUSH1 0xFF MUL NOT AND SWAP1 DUP4 ISZERO ISZERO MUL OR SWAP1 SSTORE POP DUP1 DUP1 PUSH2 0x8B0 SWAP1 PUSH2 0x1E0B JUMP JUMPDEST SWAP2 POP POP PUSH2 0x82B JUMP JUMPDEST POP PUSH1 0x0 JUMPDEST DUP13 DUP13 SWAP1 POP DUP2 LT ISZERO PUSH2 0x924 JUMPI PUSH2 0x911 DUP14 DUP14 DUP4 DUP2 DUP2 LT PUSH2 0x8DD JUMPI PUSH2 0x8DC PUSH2 0x1CF2 JUMP JUMPDEST JUMPDEST SWAP1 POP PUSH1 0x20 MUL ADD PUSH1 0x20 DUP2 ADD SWAP1 PUSH2 0x8F2 SWAP2 SWAP1 PUSH2 0x1918 JUMP JUMPDEST DUP13 DUP13 DUP5 DUP2 DUP2 LT PUSH2 0x905 JUMPI PUSH2 0x904 PUSH2 0x1CF2 JUMP JUMPDEST JUMPDEST SWAP1 POP PUSH1 0x20 MUL ADD CALLDATALOAD PUSH2 0xFBA JUMP JUMPDEST DUP1 DUP1 PUSH2 0x91C SWAP1 PUSH2 0x1E0B JUMP JUMPDEST SWAP2 POP POP PUSH2 0x8BC JUMP JUMPDEST POP POP POP POP POP POP POP POP POP POP POP POP POP JUMP JUMPDEST DUP5 DUP5 DUP5 CHAINID PUSH1 0x40 MLOAD PUSH1 0x20 ADD PUSH2 0x94A SWAP5 SWAP4 SWAP3 SWAP2 SWAP1 PUSH2 0x20D3 JUMP JUMPDEST PUSH1 0x40 MLOAD PUSH1 0x20 DUP2 DUP4 SUB SUB DUP2 MSTORE SWAP1 PUSH1 0x40 MSTORE DUP1 MLOAD SWAP1 PUSH1 0x20 ADD KECCAK256 DUP3 DUP3 PUSH1 0x0 DUP1 PUSH2 0x97B DUP6 DUP6 DUP6 SWAP1 PUSH2 0x976 SWAP2 SWAP1 PUSH2 0x1C3C JUMP JUMPDEST PUSH2 0xC9F JUMP JUMPDEST SWAP2 POP SWAP2 POP DUP2 DUP2 SWAP1 PUSH2 0x9C2 JUMPI PUSH1 0x40 MLOAD PUSH32 0x8C379A000000000000000000000000000000000000000000000000000000000 DUP2 MSTORE PUSH1 0x4 ADD PUSH2 0x9B9 SWAP2 SWAP1 PUSH2 0x1CD0 JUMP JUMPDEST PUSH1 0x40 MLOAD DUP1 SWAP2 SUB SWAP1 REVERT JUMPDEST POP PUSH1 0x0 JUMPDEST DUP5 DUP5 SWAP1 POP DUP2 LT ISZERO PUSH2 0xA53 JUMPI PUSH1 0x1 PUSH2 0x9DB PUSH2 0xC72 JUMP JUMPDEST PUSH1 0x3 ADD PUSH1 0x0 DUP8 DUP8 DUP6 DUP2 DUP2 LT PUSH2 0x9F3 JUMPI PUSH2 0x9F2 PUSH2 0x1CF2 JUMP JUMPDEST JUMPDEST SWAP1 POP PUSH1 0x20 MUL DUP2 ADD SWAP1 PUSH2 0xA05 SWAP2 SWAP1 PUSH2 0x1D30 JUMP JUMPDEST PUSH1 0x40 MLOAD PUSH2 0xA13 SWAP3 SWAP2 SWAP1 PUSH2 0x1DC3 JUMP JUMPDEST PUSH1 0x40 MLOAD DUP1 SWAP2 SUB SWAP1 KECCAK256 DUP2 MSTORE PUSH1 0x20 ADD SWAP1 DUP2 MSTORE PUSH1 0x20 ADD PUSH1 0x0 KECCAK256 PUSH1 0x0 PUSH2 0x100 EXP DUP2 SLOAD DUP2 PUSH1 0xFF MUL NOT AND SWAP1 DUP4 ISZERO ISZERO MUL OR SWAP1 SSTORE POP DUP1 DUP1 PUSH2 0xA4B SWAP1 PUSH2 0x1E0B JUMP JUMPDEST SWAP2 POP POP PUSH2 0x9C6 JUMP JUMPDEST POP DUP9 PUSH2 0xA5D PUSH2 0xC72 JUMP JUMPDEST PUSH1 0x2 ADD PUSH1 0x0 DUP13 PUSH20 0xFFFFFFFFFFFFFFFFFFFFFFFFFFFFFFFFFFFFFFFF AND PUSH20 0xFFFFFFFFFFFFFFFFFFFFFFFFFFFFFFFFFFFFFFFF AND DUP2 MSTORE PUSH1 0x20 ADD SWAP1 DUP2 MSTORE PUSH1 0x20 ADD PUSH1 0x0 KECCAK256 SLOAD PUSH2 0xAA6 PUSH2 0xC72 JUMP JUMPDEST PUSH1 0x1 ADD SLOAD PUSH2 0xAB4 SWAP2 SWAP1 PUSH2 0x2118 JUMP JUMPDEST PUSH2 0xABE SWAP2 SWAP1 PUSH2 0x214C JUMP JUMPDEST PUSH2 0xAC6 PUSH2 0xC72 JUMP JUMPDEST PUSH1 0x1 ADD DUP2 SWAP1 SSTORE POP PUSH1 0x0 PUSH2 0xAD7 PUSH2 0xC72 JUMP JUMPDEST PUSH1 0x1 ADD SLOAD GT DUP1 ISZERO PUSH2 0xAFE JUMPI POP PUSH2 0xAEB PUSH2 0xC72 JUMP JUMPDEST PUSH1 0x0 ADD SLOAD PUSH2 0xAF7 PUSH2 0xC72 JUMP JUMPDEST PUSH1 0x1 ADD SLOAD LT ISZERO JUMPDEST PUSH2 0xB3D JUMPI PUSH1 0x40 MLOAD PUSH32 0x8C379A000000000000000000000000000000000000000000000000000000000 DUP2 MSTORE PUSH1 0x4 ADD PUSH2 0xB34 SWAP1 PUSH2 0x21CC JUMP JUMPDEST PUSH1 0x40 MLOAD DUP1 SWAP2 SUB SWAP1 REVERT JUMPDEST DUP9 PUSH2 0xB46 PUSH2 0xC72 JUMP JUMPDEST PUSH1 0x2 ADD PUSH1 0x0 DUP13 PUSH20 0xFFFFFFFFFFFFFFFFFFFFFFFFFFFFFFFFFFFFFFFF AND PUSH20 0xFFFFFFFFFFFFFFFFFFFFFFFFFFFFFFFFFFFFFFFF AND DUP2 MSTORE PUSH1 0x20 ADD SWAP1 DUP2 MSTORE PUSH1 0x20 ADD PUSH1 0x0 KECCAK256 DUP2 SWAP1 SSTORE POP POP POP POP POP POP POP POP POP POP POP JUMP JUMPDEST PUSH1 0x0 PUSH2 0xBA0 PUSH2 0xC72 JUMP JUMPDEST PUSH1 0x2 ADD PUSH1 0x0 DUP4 PUSH20 0xFFFFFFFFFFFFFFFFFFFFFFFFFFFFFFFFFFFFFFFF AND PUSH20 0xFFFFFFFFFFFFFFFFFFFFFFFFFFFFFFFFFFFFFFFF AND DUP2 MSTORE PUSH1 0x20 ADD SWAP1 DUP2 MSTORE PUSH1 0x20 ADD PUSH1 0x0 KECCAK256 SLOAD SWAP1 POP SWAP2 SWAP1 POP JUMP JUMPDEST PUSH1 0x0 PUSH1 0x1 SWAP1 POP SWAP1 JUMP JUMPDEST PUSH1 0x0 PUSH32 0x8197B6D400000000000000000000000000000000000000000000000000000000 PUSH28 0xFFFFFFFFFFFFFFFFFFFFFFFFFFFFFFFFFFFFFFFFFFFFFFFFFFFFFFFF NOT AND DUP3 PUSH28 0xFFFFFFFFFFFFFFFFFFFFFFFFFFFFFFFFFFFFFFFFFFFFFFFFFFFFFFFF NOT AND SUB PUSH2 0xC61 JUMPI PUSH1 0x1 SWAP1 POP PUSH2 0xC6D JUMP JUMPDEST PUSH2 0xC6A DUP3 PUSH2 0x102D JUMP JUMPDEST SWAP1 POP JUMPDEST SWAP2 SWAP1 POP JUMP JUMPDEST PUSH1 0x0 DUP1 PUSH32 0x255F4A56BD3AD76424E31ED8855EF9AD14A0CE4E67508C76FF082E5C1466B12F SWAP1 POP DUP1 SWAP2 POP POP SWAP1 JUMP JUMPDEST PUSH1 0x0 PUSH1 0x60 PUSH1 0x0 DUP1 JUMPDEST DUP5 MLOAD DUP2 LT ISZERO PUSH2 0xE37 JUMPI PUSH1 0x0 PUSH2 0xCD6 DUP8 DUP8 DUP5 DUP2 MLOAD DUP2 LT PUSH2 0xCC9 JUMPI PUSH2 0xCC8 PUSH2 0x1CF2 JUMP JUMPDEST JUMPDEST PUSH1 0x20 MUL PUSH1 0x20 ADD ADD MLOAD PUSH2 0x1097 JUMP JUMPDEST SWAP1 POP PUSH1 0x0 PUSH2 0xCE2 PUSH2 0xC72 JUMP JUMPDEST PUSH1 0x2 ADD PUSH1 0x0 DUP4 PUSH20 0xFFFFFFFFFFFFFFFFFFFFFFFFFFFFFFFFFFFFFFFF AND PUSH20 0xFFFFFFFFFFFFFFFFFFFFFFFFFFFFFFFFFFFFFFFF AND DUP2 MSTORE PUSH1 0x20 ADD SWAP1 DUP2 MSTORE PUSH1 0x20 ADD PUSH1 0x0 KECCAK256 SLOAD SUB PUSH2 0xD4F JUMPI PUSH1 0x0 PUSH1 0x40 MLOAD DUP1 PUSH1 0x60 ADD PUSH1 0x40 MSTORE DUP1 PUSH1 0x32 DUP2 MSTORE PUSH1 0x20 ADD PUSH2 0x24C4 PUSH1 0x32 SWAP2 CODECOPY SWAP5 POP SWAP5 POP POP POP POP PUSH2 0xE88 JUMP JUMPDEST PUSH1 0x0 DUP7 DUP4 DUP2 MLOAD DUP2 LT PUSH2 0xD64 JUMPI PUSH2 0xD63 PUSH2 0x1CF2 JUMP JUMPDEST JUMPDEST PUSH1 0x20 MUL PUSH1 0x20 ADD ADD MLOAD DUP1 MLOAD SWAP1 PUSH1 0x20 ADD KECCAK256 SWAP1 POP PUSH2 0xD7D PUSH2 0xC72 JUMP JUMPDEST PUSH1 0x3 ADD PUSH1 0x0 DUP3 DUP2 MSTORE PUSH1 0x20 ADD SWAP1 DUP2 MSTORE PUSH1 0x20 ADD PUSH1 0x0 KECCAK256 PUSH1 0x0 SWAP1 SLOAD SWAP1 PUSH2 0x100 EXP SWAP1 DIV PUSH1 0xFF AND ISZERO PUSH2 0xDCC JUMPI PUSH1 0x0 PUSH1 0x40 MLOAD DUP1 PUSH1 0x60 ADD PUSH1 0x40 MSTORE DUP1 PUSH1 0x23 DUP2 MSTORE PUSH1 0x20 ADD PUSH2 0x24F6 PUSH1 0x23 SWAP2 CODECOPY SWAP6 POP SWAP6 POP POP POP POP POP PUSH2 0xE88 JUMP JUMPDEST PUSH2 0xDD4 PUSH2 0xC72 JUMP JUMPDEST PUSH1 0x2 ADD PUSH1 0x0 DUP4 PUSH20 0xFFFFFFFFFFFFFFFFFFFFFFFFFFFFFFFFFFFFFFFF AND PUSH20 0xFFFFFFFFFFFFFFFFFFFFFFFFFFFFFFFFFFFFFFFF AND DUP2 MSTORE PUSH1 0x20 ADD SWAP1 DUP2 MSTORE PUSH1 0x20 ADD PUSH1 0x0 KECCAK256 SLOAD DUP5 PUSH2 0xE20 SWAP2 SWAP1 PUSH2 0x214C JUMP JUMPDEST SWAP4 POP POP POP DUP1 DUP1 PUSH2 0xE2F SWAP1 PUSH2 0x1E0B JUMP JUMPDEST SWAP2 POP POP PUSH2 0xCA7 JUMP JUMPDEST POP PUSH2 0xE40 PUSH2 0xC72 JUMP JUMPDEST PUSH1 0x0 ADD SLOAD DUP2 LT ISZERO PUSH2 0xE70 JUMPI PUSH1 0x0 PUSH1 0x40 MLOAD DUP1 PUSH1 0x60 ADD PUSH1 0x40 MSTORE DUP1 PUSH1 0x26 DUP2 MSTORE PUSH1 0x20 ADD PUSH2 0x249E PUSH1 0x26 SWAP2 CODECOPY SWAP3 POP SWAP3 POP POP PUSH2 0xE88 JUMP JUMPDEST PUSH1 0x1 PUSH1 0x40 MLOAD DUP1 PUSH1 0x20 ADD PUSH1 0x40 MSTORE DUP1 PUSH1 0x0 DUP2 MSTORE POP SWAP3 POP SWAP3 POP POP JUMPDEST SWAP3 POP SWAP3 SWAP1 POP JUMP JUMPDEST PUSH2 0xE97 PUSH2 0xC72 JUMP JUMPDEST PUSH1 0x2 ADD PUSH1 0x0 DUP3 PUSH20 0xFFFFFFFFFFFFFFFFFFFFFFFFFFFFFFFFFFFFFFFF AND PUSH20 0xFFFFFFFFFFFFFFFFFFFFFFFFFFFFFFFFFFFFFFFF AND DUP2 MSTORE PUSH1 0x20 ADD SWAP1 DUP2 MSTORE PUSH1 0x20 ADD PUSH1 0x0 KECCAK256 SLOAD PUSH2 0xEE0 PUSH2 0xC72 JUMP JUMPDEST PUSH1 0x1 ADD PUSH1 0x0 DUP3 DUP3 SLOAD PUSH2 0xEF2 SWAP2 SWAP1 PUSH2 0x2118 JUMP JUMPDEST SWAP3 POP POP DUP2 SWAP1 SSTORE POP PUSH1 0x0 PUSH2 0xF03 PUSH2 0xC72 JUMP JUMPDEST PUSH1 0x1 ADD SLOAD GT DUP1 ISZERO PUSH2 0xF2A JUMPI POP PUSH2 0xF17 PUSH2 0xC72 JUMP JUMPDEST PUSH1 0x0 ADD SLOAD PUSH2 0xF23 PUSH2 0xC72 JUMP JUMPDEST PUSH1 0x1 ADD SLOAD LT ISZERO JUMPDEST PUSH2 0xF69 JUMPI PUSH1 0x40 MLOAD PUSH32 0x8C379A000000000000000000000000000000000000000000000000000000000 DUP2 MSTORE PUSH1 0x4 ADD PUSH2 0xF60 SWAP1 PUSH2 0x21CC JUMP JUMPDEST PUSH1 0x40 MLOAD DUP1 SWAP2 SUB SWAP1 REVERT JUMPDEST PUSH1 0x0 PUSH2 0xF73 PUSH2 0xC72 JUMP JUMPDEST PUSH1 0x2 ADD PUSH1 0x0 DUP4 PUSH20 0xFFFFFFFFFFFFFFFFFFFFFFFFFFFFFFFFFFFFFFFF AND PUSH20 0xFFFFFFFFFFFFFFFFFFFFFFFFFFFFFFFFFFFFFFFF AND DUP2 MSTORE PUSH1 0x20 ADD SWAP1 DUP2 MSTORE PUSH1 0x20 ADD PUSH1 0x0 KECCAK256 DUP2 SWAP1 SSTORE POP POP JUMP JUMPDEST DUP1 PUSH2 0xFC3 PUSH2 0xC72 JUMP JUMPDEST PUSH1 0x1 ADD PUSH1 0x0 DUP3 DUP3 SLOAD PUSH2 0xFD5 SWAP2 SWAP1 PUSH2 0x214C JUMP JUMPDEST SWAP3 POP POP DUP2 SWAP1 SSTORE POP DUP1 PUSH2 0xFE5 PUSH2 0xC72 JUMP JUMPDEST PUSH1 0x2 ADD PUSH1 0x0 DUP5 PUSH20 0xFFFFFFFFFFFFFFFFFFFFFFFFFFFFFFFFFFFFFFFF AND PUSH20 0xFFFFFFFFFFFFFFFFFFFFFFFFFFFFFFFFFFFFFFFF AND DUP2 MSTORE PUSH1 0x20 ADD SWAP1 DUP2 MSTORE PUSH1 0x20 ADD PUSH1 0x0 KECCAK256 DUP2 SWAP1 SSTORE POP POP POP JUMP JUMPDEST PUSH1 0x0 PUSH32 0x1FFC9A700000000000000000000000000000000000000000000000000000000 PUSH28 0xFFFFFFFFFFFFFFFFFFFFFFFFFFFFFFFFFFFFFFFFFFFFFFFFFFFFFFFF NOT AND DUP3 PUSH28 0xFFFFFFFFFFFFFFFFFFFFFFFFFFFFFFFFFFFFFFFFFFFFFFFFFFFFFFFF NOT AND EQ SWAP1 POP SWAP2 SWAP1 POP JUMP JUMPDEST PUSH1 0x0 PUSH2 0x10B4 DUP3 PUSH2 0x10A6 DUP6 PUSH2 0x10BC JUMP JUMPDEST PUSH2 0x10EC SWAP1 SWAP2 SWAP1 PUSH4 0xFFFFFFFF AND JUMP JUMPDEST SWAP1 POP SWAP3 SWAP2 POP POP JUMP JUMPDEST PUSH1 0x0 DUP2 PUSH1 0x40 MLOAD PUSH1 0x20 ADD PUSH2 0x10CF SWAP2 SWAP1 PUSH2 0x226E JUMP JUMPDEST PUSH1 0x40 MLOAD PUSH1 0x20 DUP2 DUP4 SUB SUB DUP2 MSTORE SWAP1 PUSH1 0x40 MSTORE DUP1 MLOAD SWAP1 PUSH1 0x20 ADD KECCAK256 SWAP1 POP SWAP2 SWAP1 POP JUMP JUMPDEST PUSH1 0x0 DUP1 PUSH1 0x0 PUSH2 0x10FB DUP6 DUP6 PUSH2 0x1113 JUMP JUMPDEST SWAP2 POP SWAP2 POP PUSH2 0x1108 DUP2 PUSH2 0x1164 JUMP JUMPDEST DUP2 SWAP3 POP POP POP SWAP3 SWAP2 POP POP JUMP JUMPDEST PUSH1 0x0 DUP1 PUSH1 0x41 DUP4 MLOAD SUB PUSH2 0x1154 JUMPI PUSH1 0x0 DUP1 PUSH1 0x0 PUSH1 0x20 DUP7 ADD MLOAD SWAP3 POP PUSH1 0x40 DUP7 ADD MLOAD SWAP2 POP PUSH1 0x60 DUP7 ADD MLOAD PUSH1 0x0 BYTE SWAP1 POP PUSH2 0x1148 DUP8 DUP3 DUP6 DUP6 PUSH2 0x12CA JUMP JUMPDEST SWAP5 POP SWAP5 POP POP POP POP PUSH2 0x115D JUMP JUMPDEST PUSH1 0x0 PUSH1 0x2 SWAP2 POP SWAP2 POP JUMPDEST SWAP3 POP SWAP3 SWAP1 POP JUMP JUMPDEST PUSH1 0x0 PUSH1 0x4 DUP2 GT ISZERO PUSH2 0x1178 JUMPI PUSH2 0x1177 PUSH2 0x2294 JUMP JUMPDEST JUMPDEST DUP2 PUSH1 0x4 DUP2 GT ISZERO PUSH2 0x118B JUMPI PUSH2 0x118A PUSH2 0x2294 JUMP JUMPDEST JUMPDEST SUB ISZERO PUSH2 0x12C7 JUMPI PUSH1 0x1 PUSH1 0x4 DUP2 GT ISZERO PUSH2 0x11A5 JUMPI PUSH2 0x11A4 PUSH2 0x2294 JUMP JUMPDEST JUMPDEST DUP2 PUSH1 0x4 DUP2 GT ISZERO PUSH2 0x11B8 JUMPI PUSH2 0x11B7 PUSH2 0x2294 JUMP JUMPDEST JUMPDEST SUB PUSH2 0x11F8 JUMPI PUSH1 0x40 MLOAD PUSH32 0x8C379A000000000000000000000000000000000000000000000000000000000 DUP2 MSTORE PUSH1 0x4 ADD PUSH2 0x11EF SWAP1 PUSH2 0x230F JUMP JUMPDEST PUSH1 0x40 MLOAD DUP1 SWAP2 SUB SWAP1 REVERT JUMPDEST PUSH1 0x2 PUSH1 0x4 DUP2 GT ISZERO PUSH2 0x120C JUMPI PUSH2 0x120B PUSH2 0x2294 JUMP JUMPDEST JUMPDEST DUP2 PUSH1 0x4 DUP2 GT ISZERO PUSH2 0x121F JUMPI PUSH2 0x121E PUSH2 0x2294 JUMP JUMPDEST JUMPDEST SUB PUSH2 0x125F JUMPI PUSH1 0x40 MLOAD PUSH32 0x8C379A000000000000000000000000000000000000000000000000000000000 DUP2 MSTORE PUSH1 0x4 ADD PUSH2 0x1256 SWAP1 PUSH2 0x237B JUMP JUMPDEST PUSH1 0x40 MLOAD DUP1 SWAP2 SUB SWAP1 REVERT JUMPDEST PUSH1 0x3 PUSH1 0x4 DUP2 GT ISZERO PUSH2 0x1273 JUMPI PUSH2 0x1272 PUSH2 0x2294 JUMP JUMPDEST JUMPDEST DUP2 PUSH1 0x4 DUP2 GT ISZERO PUSH2 0x1286 JUMPI PUSH2 0x1285 PUSH2 0x2294 JUMP JUMPDEST JUMPDEST SUB PUSH2 0x12C6 JUMPI PUSH1 0x40 MLOAD PUSH32 0x8C379A000000000000000000000000000000000000000000000000000000000 DUP2 MSTORE PUSH1 0x4 ADD PUSH2 0x12BD SWAP1 PUSH2 0x240D JUMP JUMPDEST PUSH1 0x40 MLOAD DUP1 SWAP2 SUB SWAP1 REVERT JUMPDEST JUMPDEST POP JUMP JUMPDEST PUSH1 0x0 DUP1 PUSH32 0x7FFFFFFFFFFFFFFFFFFFFFFFFFFFFFFF5D576E7357A4501DDFE92F46681B20A0 DUP4 PUSH1 0x0 SHR GT ISZERO PUSH2 0x1305 JUMPI PUSH1 0x0 PUSH1 0x3 SWAP2 POP SWAP2 POP PUSH2 0x13A3 JUMP JUMPDEST PUSH1 0x0 PUSH1 0x1 DUP8 DUP8 DUP8 DUP8 PUSH1 0x40 MLOAD PUSH1 0x0 DUP2 MSTORE PUSH1 0x20 ADD PUSH1 0x40 MSTORE PUSH1 0x40 MLOAD PUSH2 0x132A SWAP5 SWAP4 SWAP3 SWAP2 SWAP1 PUSH2 0x2458 JUMP JUMPDEST PUSH1 0x20 PUSH1 0x40 MLOAD PUSH1 0x20 DUP2 SUB SWAP1 DUP1 DUP5 SUB SWAP1 DUP6 GAS STATICCALL ISZERO DUP1 ISZERO PUSH2 0x134C JUMPI RETURNDATASIZE PUSH1 0x0 DUP1 RETURNDATACOPY RETURNDATASIZE PUSH1 0x0 REVERT JUMPDEST POP POP POP PUSH1 0x20 PUSH1 0x40 MLOAD SUB MLOAD SWAP1 POP PUSH1 0x0 PUSH20 0xFFFFFFFFFFFFFFFFFFFFFFFFFFFFFFFFFFFFFFFF AND DUP2 PUSH20 0xFFFFFFFFFFFFFFFFFFFFFFFFFFFFFFFFFFFFFFFF AND SUB PUSH2 0x139A JUMPI PUSH1 0x0 PUSH1 0x1 SWAP3 POP SWAP3 POP POP PUSH2 0x13A3 JUMP JUMPDEST DUP1 PUSH1 0x0 SWAP3 POP SWAP3 POP POP JUMPDEST SWAP5 POP SWAP5 SWAP3 POP POP POP JUMP JUMPDEST PUSH1 0x0 PUSH1 0x40 MLOAD SWAP1 POP SWAP1 JUMP JUMPDEST PUSH1 0x0 DUP1 REVERT JUMPDEST PUSH1 0x0 DUP1 REVERT JUMPDEST PUSH1 0x0 PUSH32 0xFFFFFFFF00000000000000000000000000000000000000000000000000000000 DUP3 AND SWAP1 POP SWAP2 SWAP1 POP JUMP JUMPDEST PUSH2 0x13F5 DUP2 PUSH2 0x13C0 JUMP JUMPDEST DUP2 EQ PUSH2 0x1400 JUMPI PUSH1 0x0 DUP1 REVERT JUMPDEST POP JUMP JUMPDEST PUSH1 0x0 DUP2 CALLDATALOAD SWAP1 POP PUSH2 0x1412 DUP2 PUSH2 0x13EC JUMP JUMPDEST SWAP3 SWAP2 POP POP JUMP JUMPDEST PUSH1 0x0 PUSH1 0x20 DUP3 DUP5 SUB SLT ISZERO PUSH2 0x142E JUMPI PUSH2 0x142D PUSH2 0x13B6 JUMP JUMPDEST JUMPDEST PUSH1 0x0 PUSH2 0x143C DUP5 DUP3 DUP6 ADD PUSH2 0x1403 JUMP JUMPDEST SWAP2 POP POP SWAP3 SWAP2 POP POP JUMP JUMPDEST PUSH1 0x0 DUP2 ISZERO ISZERO SWAP1 POP SWAP2 SWAP1 POP JUMP JUMPDEST PUSH2 0x145A DUP2 PUSH2 0x1445 JUMP JUMPDEST DUP3 MSTORE POP POP JUMP JUMPDEST PUSH1 0x0 PUSH1 0x20 DUP3 ADD SWAP1 POP PUSH2 0x1475 PUSH1 0x0 DUP4 ADD DUP5 PUSH2 0x1451 JUMP JUMPDEST SWAP3 SWAP2 POP POP JUMP JUMPDEST PUSH1 0x0 DUP2 SWAP1 POP SWAP2 SWAP1 POP JUMP JUMPDEST PUSH2 0x148E DUP2 PUSH2 0x147B JUMP JUMPDEST DUP3 MSTORE POP POP JUMP JUMPDEST PUSH1 0x0 PUSH1 0x20 DUP3 ADD SWAP1 POP PUSH2 0x14A9 PUSH1 0x0 DUP4 ADD DUP5 PUSH2 0x1485 JUMP JUMPDEST SWAP3 SWAP2 POP POP JUMP JUMPDEST PUSH1 0x0 DUP1 REVERT JUMPDEST PUSH1 0x0 DUP1 REVERT JUMPDEST PUSH1 0x0 DUP1 REVERT JUMPDEST PUSH1 0x0 DUP1 DUP4 PUSH1 0x1F DUP5 ADD SLT PUSH2 0x14D4 JUMPI PUSH2 0x14D3 PUSH2 0x14AF JUMP JUMPDEST JUMPDEST DUP3 CALLDATALOAD SWAP1 POP PUSH8 0xFFFFFFFFFFFFFFFF DUP2 GT ISZERO PUSH2 0x14F1 JUMPI PUSH2 0x14F0 PUSH2 0x14B4 JUMP JUMPDEST JUMPDEST PUSH1 0x20 DUP4 ADD SWAP2 POP DUP4 PUSH1 0x20 DUP3 MUL DUP4 ADD GT ISZERO PUSH2 0x150D JUMPI PUSH2 0x150C PUSH2 0x14B9 JUMP JUMPDEST JUMPDEST SWAP3 POP SWAP3 SWAP1 POP JUMP JUMPDEST PUSH2 0x151D DUP2 PUSH2 0x147B JUMP JUMPDEST DUP2 EQ PUSH2 0x1528 JUMPI PUSH1 0x0 DUP1 REVERT JUMPDEST POP JUMP JUMPDEST PUSH1 0x0 DUP2 CALLDATALOAD SWAP1 POP PUSH2 0x153A DUP2 PUSH2 0x1514 JUMP JUMPDEST SWAP3 SWAP2 POP POP JUMP JUMPDEST PUSH1 0x0 DUP1 DUP4 PUSH1 0x1F DUP5 ADD SLT PUSH2 0x1556 JUMPI PUSH2 0x1555 PUSH2 0x14AF JUMP JUMPDEST JUMPDEST DUP3 CALLDATALOAD SWAP1 POP PUSH8 0xFFFFFFFFFFFFFFFF DUP2 GT ISZERO PUSH2 0x1573 JUMPI PUSH2 0x1572 PUSH2 0x14B4 JUMP JUMPDEST JUMPDEST PUSH1 0x20 DUP4 ADD SWAP2 POP DUP4 PUSH1 0x20 DUP3 MUL DUP4 ADD GT ISZERO PUSH2 0x158F JUMPI PUSH2 0x158E PUSH2 0x14B9 JUMP JUMPDEST JUMPDEST SWAP3 POP SWAP3 SWAP1 POP JUMP JUMPDEST PUSH1 0x0 DUP1 PUSH1 0x0 DUP1 PUSH1 0x0 PUSH1 0x60 DUP7 DUP9 SUB SLT ISZERO PUSH2 0x15B2 JUMPI PUSH2 0x15B1 PUSH2 0x13B6 JUMP JUMPDEST JUMPDEST PUSH1 0x0 DUP7 ADD CALLDATALOAD PUSH8 0xFFFFFFFFFFFFFFFF DUP2 GT ISZERO PUSH2 0x15D0 JUMPI PUSH2 0x15CF PUSH2 0x13BB JUMP JUMPDEST JUMPDEST PUSH2 0x15DC DUP9 DUP3 DUP10 ADD PUSH2 0x14BE JUMP JUMPDEST SWAP6 POP SWAP6 POP POP PUSH1 0x20 PUSH2 0x15EF DUP9 DUP3 DUP10 ADD PUSH2 0x152B JUMP JUMPDEST SWAP4 POP POP PUSH1 0x40 DUP7 ADD CALLDATALOAD PUSH8 0xFFFFFFFFFFFFFFFF DUP2 GT ISZERO PUSH2 0x1610 JUMPI PUSH2 0x160F PUSH2 0x13BB JUMP JUMPDEST JUMPDEST PUSH2 0x161C DUP9 DUP3 DUP10 ADD PUSH2 0x1540 JUMP JUMPDEST SWAP3 POP SWAP3 POP POP SWAP3 SWAP6 POP SWAP3 SWAP6 SWAP1 SWAP4 POP JUMP JUMPDEST PUSH1 0x0 DUP1 PUSH1 0x0 DUP1 PUSH1 0x60 DUP6 DUP8 SUB SLT ISZERO PUSH2 0x1645 JUMPI PUSH2 0x1644 PUSH2 0x13B6 JUMP JUMPDEST JUMPDEST PUSH1 0x0 PUSH2 0x1653 DUP8 DUP3 DUP9 ADD PUSH2 0x152B JUMP JUMPDEST SWAP5 POP POP PUSH1 0x20 PUSH2 0x1664 DUP8 DUP3 DUP9 ADD PUSH2 0x152B JUMP JUMPDEST SWAP4 POP POP PUSH1 0x40 DUP6 ADD CALLDATALOAD PUSH8 0xFFFFFFFFFFFFFFFF DUP2 GT ISZERO PUSH2 0x1685 JUMPI PUSH2 0x1684 PUSH2 0x13BB JUMP JUMPDEST JUMPDEST PUSH2 0x1691 DUP8 DUP3 DUP9 ADD PUSH2 0x1540 JUMP JUMPDEST SWAP3 POP SWAP3 POP POP SWAP3 SWAP6 SWAP2 SWAP5 POP SWAP3 POP JUMP JUMPDEST PUSH1 0x0 PUSH20 0xFFFFFFFFFFFFFFFFFFFFFFFFFFFFFFFFFFFFFFFF DUP3 AND SWAP1 POP SWAP2 SWAP1 POP JUMP JUMPDEST PUSH1 0x0 PUSH2 0x16CA DUP3 PUSH2 0x169F JUMP JUMPDEST SWAP1 POP SWAP2 SWAP1 POP JUMP JUMPDEST PUSH2 0x16DA DUP2 PUSH2 0x16BF JUMP JUMPDEST DUP2 EQ PUSH2 0x16E5 JUMPI PUSH1 0x0 DUP1 REVERT JUMPDEST POP JUMP JUMPDEST PUSH1 0x0 DUP2 CALLDATALOAD SWAP1 POP PUSH2 0x16F7 DUP2 PUSH2 0x16D1 JUMP JUMPDEST SWAP3 SWAP2 POP POP JUMP JUMPDEST PUSH1 0x0 DUP1 PUSH1 0x0 DUP1 PUSH1 0x60 DUP6 DUP8 SUB SLT ISZERO PUSH2 0x1717 JUMPI PUSH2 0x1716 PUSH2 0x13B6 JUMP JUMPDEST JUMPDEST PUSH1 0x0 PUSH2 0x1725 DUP8 DUP3 DUP9 ADD PUSH2 0x16E8 JUMP JUMPDEST SWAP5 POP POP PUSH1 0x20 PUSH2 0x1736 DUP8 DUP3 DUP9 ADD PUSH2 0x152B JUMP JUMPDEST SWAP4 POP POP PUSH1 0x40 DUP6 ADD CALLDATALOAD PUSH8 0xFFFFFFFFFFFFFFFF DUP2 GT ISZERO PUSH2 0x1757 JUMPI PUSH2 0x1756 PUSH2 0x13BB JUMP JUMPDEST JUMPDEST PUSH2 0x1763 DUP8 DUP3 DUP9 ADD PUSH2 0x1540 JUMP JUMPDEST SWAP3 POP SWAP3 POP POP SWAP3 SWAP6 SWAP2 SWAP5 POP SWAP3 POP JUMP JUMPDEST PUSH1 0x0 DUP1 DUP4 PUSH1 0x1F DUP5 ADD SLT PUSH2 0x1787 JUMPI PUSH2 0x1786 PUSH2 0x14AF JUMP JUMPDEST JUMPDEST DUP3 CALLDATALOAD SWAP1 POP PUSH8 0xFFFFFFFFFFFFFFFF DUP2 GT ISZERO PUSH2 0x17A4 JUMPI PUSH2 0x17A3 PUSH2 0x14B4 JUMP JUMPDEST JUMPDEST PUSH1 0x20 DUP4 ADD SWAP2 POP DUP4 PUSH1 0x20 DUP3 MUL DUP4 ADD GT ISZERO PUSH2 0x17C0 JUMPI PUSH2 0x17BF PUSH2 0x14B9 JUMP JUMPDEST JUMPDEST SWAP3 POP SWAP3 SWAP1 POP JUMP JUMPDEST PUSH1 0x0 DUP1 PUSH1 0x0 DUP1 PUSH1 0x0 DUP1 PUSH1 0x0 PUSH1 0x80 DUP9 DUP11 SUB SLT ISZERO PUSH2 0x17E6 JUMPI PUSH2 0x17E5 PUSH2 0x13B6 JUMP JUMPDEST JUMPDEST PUSH1 0x0 DUP9 ADD CALLDATALOAD PUSH8 0xFFFFFFFFFFFFFFFF DUP2 GT ISZERO PUSH2 0x1804 JUMPI PUSH2 0x1803 PUSH2 0x13BB JUMP JUMPDEST JUMPDEST PUSH2 0x1810 DUP11 DUP3 DUP12 ADD PUSH2 0x14BE JUMP JUMPDEST SWAP8 POP SWAP8 POP POP PUSH1 0x20 DUP9 ADD CALLDATALOAD PUSH8 0xFFFFFFFFFFFFFFFF DUP2 GT ISZERO PUSH2 0x1833 JUMPI PUSH2 0x1832 PUSH2 0x13BB JUMP JUMPDEST JUMPDEST PUSH2 0x183F DUP11 DUP3 DUP12 ADD PUSH2 0x1771 JUMP JUMPDEST SWAP6 POP SWAP6 POP POP PUSH1 0x40 PUSH2 0x1852 DUP11 DUP3 DUP12 ADD PUSH2 0x152B JUMP JUMPDEST SWAP4 POP POP PUSH1 0x60 DUP9 ADD CALLDATALOAD PUSH8 0xFFFFFFFFFFFFFFFF DUP2 GT ISZERO PUSH2 0x1873 JUMPI PUSH2 0x1872 PUSH2 0x13BB JUMP JUMPDEST JUMPDEST PUSH2 0x187F DUP11 DUP3 DUP12 ADD PUSH2 0x1540 JUMP JUMPDEST SWAP3 POP SWAP3 POP POP SWAP3 SWAP6 SWAP9 SWAP2 SWAP5 SWAP8 POP SWAP3 SWAP6 POP JUMP JUMPDEST PUSH1 0x0 DUP1 PUSH1 0x0 DUP1 PUSH1 0x0 PUSH1 0x80 DUP7 DUP9 SUB SLT ISZERO PUSH2 0x18AC JUMPI PUSH2 0x18AB PUSH2 0x13B6 JUMP JUMPDEST JUMPDEST PUSH1 0x0 PUSH2 0x18BA DUP9 DUP3 DUP10 ADD PUSH2 0x16E8 JUMP JUMPDEST SWAP6 POP POP PUSH1 0x20 PUSH2 0x18CB DUP9 DUP3 DUP10 ADD PUSH2 0x152B JUMP JUMPDEST SWAP5 POP POP PUSH1 0x40 PUSH2 0x18DC DUP9 DUP3 DUP10 ADD PUSH2 0x152B JUMP JUMPDEST SWAP4 POP POP PUSH1 0x60 DUP7 ADD CALLDATALOAD PUSH8 0xFFFFFFFFFFFFFFFF DUP2 GT ISZERO PUSH2 0x18FD JUMPI PUSH2 0x18FC PUSH2 0x13BB JUMP JUMPDEST JUMPDEST PUSH2 0x1909 DUP9 DUP3 DUP10 ADD PUSH2 0x1540 JUMP JUMPDEST SWAP3 POP SWAP3 POP POP SWAP3 SWAP6 POP SWAP3 SWAP6 SWAP1 SWAP4 POP JUMP JUMPDEST PUSH1 0x0 PUSH1 0x20 DUP3 DUP5 SUB SLT ISZERO PUSH2 0x192E JUMPI PUSH2 0x192D PUSH2 0x13B6 JUMP JUMPDEST JUMPDEST PUSH1 0x0 PUSH2 0x193C DUP5 DUP3 DUP6 ADD PUSH2 0x16E8 JUMP JUMPDEST SWAP2 POP POP SWAP3 SWAP2 POP POP JUMP JUMPDEST PUSH1 0x0 DUP3 DUP3 MSTORE PUSH1 0x20 DUP3 ADD SWAP1 POP SWAP3 SWAP2 POP POP JUMP JUMPDEST PUSH1 0x0 DUP2 SWAP1 POP SWAP2 SWAP1 POP JUMP JUMPDEST PUSH2 0x1969 DUP2 PUSH2 0x16BF JUMP JUMPDEST DUP3 MSTORE POP POP JUMP JUMPDEST PUSH1 0x0 PUSH2 0x197B DUP4 DUP4 PUSH2 0x1960 JUMP JUMPDEST PUSH1 0x20 DUP4 ADD SWAP1 POP SWAP3 SWAP2 POP POP JUMP JUMPDEST PUSH1 0x0 PUSH2 0x1996 PUSH1 0x20 DUP5 ADD DUP5 PUSH2 0x16E8 JUMP JUMPDEST SWAP1 POP SWAP3 SWAP2 POP POP JUMP JUMPDEST PUSH1 0x0 PUSH1 0x20 DUP3 ADD SWAP1 POP SWAP2 SWAP1 POP JUMP JUMPDEST PUSH1 0x0 PUSH2 0x19B7 DUP4 DUP6 PUSH2 0x1945 JUMP JUMPDEST SWAP4 POP PUSH2 0x19C2 DUP3 PUSH2 0x1956 JUMP JUMPDEST DUP1 PUSH1 0x0 JUMPDEST DUP6 DUP2 LT ISZERO PUSH2 0x19FB JUMPI PUSH2 0x19D8 DUP3 DUP5 PUSH2 0x1987 JUMP JUMPDEST PUSH2 0x19E2 DUP9 DUP3 PUSH2 0x196F JUMP JUMPDEST SWAP8 POP PUSH2 0x19ED DUP4 PUSH2 0x199E JUMP JUMPDEST SWAP3 POP POP PUSH1 0x1 DUP2 ADD SWAP1 POP PUSH2 0x19C6 JUMP JUMPDEST POP DUP6 SWAP3 POP POP POP SWAP4 SWAP3 POP POP POP JUMP JUMPDEST PUSH1 0x0 PUSH1 0x60 DUP3 ADD SWAP1 POP DUP2 DUP2 SUB PUSH1 0x0 DUP4 ADD MSTORE PUSH2 0x1A23 DUP2 DUP7 DUP9 PUSH2 0x19AB JUMP JUMPDEST SWAP1 POP PUSH2 0x1A32 PUSH1 0x20 DUP4 ADD DUP6 PUSH2 0x1485 JUMP JUMPDEST PUSH2 0x1A3F PUSH1 0x40 DUP4 ADD DUP5 PUSH2 0x1485 JUMP JUMPDEST SWAP6 SWAP5 POP POP POP POP POP JUMP JUMPDEST PUSH1 0x0 PUSH1 0x1F NOT PUSH1 0x1F DUP4 ADD AND SWAP1 POP SWAP2 SWAP1 POP JUMP JUMPDEST PUSH32 0x4E487B7100000000000000000000000000000000000000000000000000000000 PUSH1 0x0 MSTORE PUSH1 0x41 PUSH1 0x4 MSTORE PUSH1 0x24 PUSH1 0x0 REVERT JUMPDEST PUSH2 0x1A91 DUP3 PUSH2 0x1A48 JUMP JUMPDEST DUP2 ADD DUP2 DUP2 LT PUSH8 0xFFFFFFFFFFFFFFFF DUP3 GT OR ISZERO PUSH2 0x1AB0 JUMPI PUSH2 0x1AAF PUSH2 0x1A59 JUMP JUMPDEST JUMPDEST DUP1 PUSH1 0x40 MSTORE POP POP POP JUMP JUMPDEST PUSH1 0x0 PUSH2 0x1AC3 PUSH2 0x13AC JUMP JUMPDEST SWAP1 POP PUSH2 0x1ACF DUP3 DUP3 PUSH2 0x1A88 JUMP JUMPDEST SWAP2 SWAP1 POP JUMP JUMPDEST PUSH1 0x0 PUSH8 0xFFFFFFFFFFFFFFFF DUP3 GT ISZERO PUSH2 0x1AEF JUMPI PUSH2 0x1AEE PUSH2 0x1A59 JUMP JUMPDEST JUMPDEST PUSH1 0x20 DUP3 MUL SWAP1 POP PUSH1 0x20 DUP2 ADD SWAP1 POP SWAP2 SWAP1 POP JUMP JUMPDEST PUSH1 0x0 DUP1 REVERT JUMPDEST PUSH1 0x0 PUSH8 0xFFFFFFFFFFFFFFFF DUP3 GT ISZERO PUSH2 0x1B20 JUMPI PUSH2 0x1B1F PUSH2 0x1A59 JUMP JUMPDEST JUMPDEST PUSH2 0x1B29 DUP3 PUSH2 0x1A48 JUMP JUMPDEST SWAP1 POP PUSH1 0x20 DUP2 ADD SWAP1 POP SWAP2 SWAP1 POP JUMP JUMPDEST DUP3 DUP2 DUP4 CALLDATACOPY PUSH1 0x0 DUP4 DUP4 ADD MSTORE POP POP POP JUMP JUMPDEST PUSH1 0x0 PUSH2 0x1B58 PUSH2 0x1B53 DUP5 PUSH2 0x1B05 JUMP JUMPDEST PUSH2 0x1AB9 JUMP JUMPDEST SWAP1 POP DUP3 DUP2 MSTORE PUSH1 0x20 DUP2 ADD DUP5 DUP5 DUP5 ADD GT ISZERO PUSH2 0x1B74 JUMPI PUSH2 0x1B73 PUSH2 0x1B00 JUMP JUMPDEST JUMPDEST PUSH2 0x1B7F DUP5 DUP3 DUP6 PUSH2 0x1B36 JUMP JUMPDEST POP SWAP4 SWAP3 POP POP POP JUMP JUMPDEST PUSH1 0x0 DUP3 PUSH1 0x1F DUP4 ADD SLT PUSH2 0x1B9C JUMPI PUSH2 0x1B9B PUSH2 0x14AF JUMP JUMPDEST JUMPDEST DUP2 CALLDATALOAD PUSH2 0x1BAC DUP5 DUP3 PUSH1 0x20 DUP7 ADD PUSH2 0x1B45 JUMP JUMPDEST SWAP2 POP POP SWAP3 SWAP2 POP POP JUMP JUMPDEST PUSH1 0x0 PUSH2 0x1BC8 PUSH2 0x1BC3 DUP5 PUSH2 0x1AD4 JUMP JUMPDEST PUSH2 0x1AB9 JUMP JUMPDEST SWAP1 POP DUP1 DUP4 DUP3 MSTORE PUSH1 0x20 DUP3 ADD SWAP1 POP PUSH1 0x20 DUP5 MUL DUP4 ADD DUP6 DUP2 GT ISZERO PUSH2 0x1BEB JUMPI PUSH2 0x1BEA PUSH2 0x14B9 JUMP JUMPDEST JUMPDEST DUP4 JUMPDEST DUP2 DUP2 LT ISZERO PUSH2 0x1C32 JUMPI DUP1 CALLDATALOAD PUSH8 0xFFFFFFFFFFFFFFFF DUP2 GT ISZERO PUSH2 0x1C10 JUMPI PUSH2 0x1C0F PUSH2 0x14AF JUMP JUMPDEST JUMPDEST DUP1 DUP7 ADD PUSH2 0x1C1D DUP10 DUP3 PUSH2 0x1B87 JUMP JUMPDEST DUP6 MSTORE PUSH1 0x20 DUP6 ADD SWAP5 POP POP POP PUSH1 0x20 DUP2 ADD SWAP1 POP PUSH2 0x1BED JUMP JUMPDEST POP POP POP SWAP4 SWAP3 POP POP POP JUMP JUMPDEST PUSH1 0x0 PUSH2 0x1C49 CALLDATASIZE DUP5 DUP5 PUSH2 0x1BB5 JUMP JUMPDEST SWAP1 POP SWAP3 SWAP2 POP POP JUMP JUMPDEST PUSH1 0x0 DUP2 MLOAD SWAP1 POP SWAP2 SWAP1 POP JUMP JUMPDEST PUSH1 0x0 DUP3 DUP3 MSTORE PUSH1 0x20 DUP3 ADD SWAP1 POP SWAP3 SWAP2 POP POP JUMP JUMPDEST PUSH1 0x0 JUMPDEST DUP4 DUP2 LT ISZERO PUSH2 0x1C8B JUMPI DUP1 DUP3 ADD MLOAD DUP2 DUP5 ADD MSTORE PUSH1 0x20 DUP2 ADD SWAP1 POP PUSH2 0x1C70 JUMP JUMPDEST PUSH1 0x0 DUP5 DUP5 ADD MSTORE POP POP POP POP JUMP JUMPDEST PUSH1 0x0 PUSH2 0x1CA2 DUP3 PUSH2 0x1C51 JUMP JUMPDEST PUSH2 0x1CAC DUP2 DUP6 PUSH2 0x1C5C JUMP JUMPDEST SWAP4 POP PUSH2 0x1CBC DUP2 DUP6 PUSH1 0x20 DUP7 ADD PUSH2 0x1C6D JUMP JUMPDEST PUSH2 0x1CC5 DUP2 PUSH2 0x1A48 JUMP JUMPDEST DUP5 ADD SWAP2 POP POP SWAP3 SWAP2 POP POP JUMP JUMPDEST PUSH1 0x0 PUSH1 0x20 DUP3 ADD SWAP1 POP DUP2 DUP2 SUB PUSH1 0x0 DUP4 ADD MSTORE PUSH2 0x1CEA DUP2 DUP5 PUSH2 0x1C97 JUMP JUMPDEST SWAP1 POP SWAP3 SWAP2 POP POP JUMP JUMPDEST PUSH32 0x4E487B7100000000000000000000000000000000000000000000000000000000 PUSH1 0x0 MSTORE PUSH1 0x32 PUSH1 0x4 MSTORE PUSH1 0x24 PUSH1 0x0 REVERT JUMPDEST PUSH1 0x0 DUP1 REVERT JUMPDEST PUSH1 0x0 DUP1 REVERT JUMPDEST PUSH1 0x0 DUP1 REVERT JUMPDEST PUSH1 0x0 DUP1 DUP4 CALLDATALOAD PUSH1 0x1 PUSH1 0x20 SUB DUP5 CALLDATASIZE SUB SUB DUP2 SLT PUSH2 0x1D4D JUMPI PUSH2 0x1D4C PUSH2 0x1D21 JUMP JUMPDEST JUMPDEST DUP1 DUP5 ADD SWAP3 POP DUP3 CALLDATALOAD SWAP2 POP PUSH8 0xFFFFFFFFFFFFFFFF DUP3 GT ISZERO PUSH2 0x1D6F JUMPI PUSH2 0x1D6E PUSH2 0x1D26 JUMP JUMPDEST JUMPDEST PUSH1 0x20 DUP4 ADD SWAP3 POP PUSH1 0x1 DUP3 MUL CALLDATASIZE SUB DUP4 SGT ISZERO PUSH2 0x1D8B JUMPI PUSH2 0x1D8A PUSH2 0x1D2B JUMP JUMPDEST JUMPDEST POP SWAP3 POP SWAP3 SWAP1 POP JUMP JUMPDEST PUSH1 0x0 DUP2 SWAP1 POP SWAP3 SWAP2 POP POP JUMP JUMPDEST PUSH1 0x0 PUSH2 0x1DAA DUP4 DUP6 PUSH2 0x1D93 JUMP JUMPDEST SWAP4 POP PUSH2 0x1DB7 DUP4 DUP6 DUP5 PUSH2 0x1B36 JUMP JUMPDEST DUP3 DUP5 ADD SWAP1 POP SWAP4 SWAP3 POP POP POP JUMP JUMPDEST PUSH1 0x0 PUSH2 0x1DD0 DUP3 DUP5 DUP7 PUSH2 0x1D9E JUMP JUMPDEST SWAP2 POP DUP2 SWAP1 POP SWAP4 SWAP3 POP POP POP JUMP JUMPDEST PUSH32 0x4E487B7100000000000000000000000000000000000000000000000000000000 PUSH1 0x0 MSTORE PUSH1 0x11 PUSH1 0x4 MSTORE PUSH1 0x24 PUSH1 0x0 REVERT JUMPDEST PUSH1 0x0 PUSH2 0x1E16 DUP3 PUSH2 0x147B JUMP JUMPDEST SWAP2 POP PUSH32 0xFFFFFFFFFFFFFFFFFFFFFFFFFFFFFFFFFFFFFFFFFFFFFFFFFFFFFFFFFFFFFFFF DUP3 SUB PUSH2 0x1E48 JUMPI PUSH2 0x1E47 PUSH2 0x1DDC JUMP JUMPDEST JUMPDEST PUSH1 0x1 DUP3 ADD SWAP1 POP SWAP2 SWAP1 POP JUMP JUMPDEST PUSH1 0x0 PUSH1 0x60 DUP3 ADD SWAP1 POP PUSH2 0x1E68 PUSH1 0x0 DUP4 ADD DUP7 PUSH2 0x1485 JUMP JUMPDEST PUSH2 0x1E75 PUSH1 0x20 DUP4 ADD DUP6 PUSH2 0x1485 JUMP JUMPDEST PUSH2 0x1E82 PUSH1 0x40 DUP4 ADD DUP5 PUSH2 0x1485 JUMP JUMPDEST SWAP5 SWAP4 POP POP POP POP JUMP JUMPDEST PUSH32 0x496E76616C6964207468726573686F6C64000000000000000000000000000000 PUSH1 0x0 DUP3 ADD MSTORE POP JUMP JUMPDEST PUSH1 0x0 PUSH2 0x1EC0 PUSH1 0x11 DUP4 PUSH2 0x1C5C JUMP JUMPDEST SWAP2 POP PUSH2 0x1ECB DUP3 PUSH2 0x1E8A JUMP JUMPDEST PUSH1 0x20 DUP3 ADD SWAP1 POP SWAP2 SWAP1 POP JUMP JUMPDEST PUSH1 0x0 PUSH1 0x20 DUP3 ADD SWAP1 POP DUP2 DUP2 SUB PUSH1 0x0 DUP4 ADD MSTORE PUSH2 0x1EEF DUP2 PUSH2 0x1EB3 JUMP JUMPDEST SWAP1 POP SWAP2 SWAP1 POP JUMP JUMPDEST PUSH2 0x1EFF DUP2 PUSH2 0x16BF JUMP JUMPDEST DUP3 MSTORE POP POP JUMP JUMPDEST PUSH1 0x0 PUSH1 0x60 DUP3 ADD SWAP1 POP PUSH2 0x1F1A PUSH1 0x0 DUP4 ADD DUP7 PUSH2 0x1EF6 JUMP JUMPDEST PUSH2 0x1F27 PUSH1 0x20 DUP4 ADD DUP6 PUSH2 0x1485 JUMP JUMPDEST PUSH2 0x1F34 PUSH1 0x40 DUP4 ADD DUP5 PUSH2 0x1485 JUMP JUMPDEST SWAP5 SWAP4 POP POP POP POP JUMP JUMPDEST PUSH2 0x1F45 DUP2 PUSH2 0x1445 JUMP JUMPDEST DUP2 EQ PUSH2 0x1F50 JUMPI PUSH1 0x0 DUP1 REVERT JUMPDEST POP JUMP JUMPDEST PUSH1 0x0 DUP2 MLOAD SWAP1 POP PUSH2 0x1F62 DUP2 PUSH2 0x1F3C JUMP JUMPDEST SWAP3 SWAP2 POP POP JUMP JUMPDEST PUSH1 0x0 PUSH1 0x20 DUP3 DUP5 SUB SLT ISZERO PUSH2 0x1F7E JUMPI PUSH2 0x1F7D PUSH2 0x13B6 JUMP JUMPDEST JUMPDEST PUSH1 0x0 PUSH2 0x1F8C DUP5 DUP3 DUP6 ADD PUSH2 0x1F53 JUMP JUMPDEST SWAP2 POP POP SWAP3 SWAP2 POP POP JUMP JUMPDEST PUSH32 0x496E76616C696420696D706C656D656E746174696F6E00000000000000000000 PUSH1 0x0 DUP3 ADD MSTORE POP JUMP JUMPDEST PUSH1 0x0 PUSH2 0x1FCB PUSH1 0x16 DUP4 PUSH2 0x1C5C JUMP JUMPDEST SWAP2 POP PUSH2 0x1FD6 DUP3 PUSH2 0x1F95 JUMP JUMPDEST PUSH1 0x20 DUP3 ADD SWAP1 POP SWAP2 SWAP1 POP JUMP JUMPDEST PUSH1 0x0 PUSH1 0x20 DUP3 ADD SWAP1 POP DUP2 DUP2 SUB PUSH1 0x0 DUP4 ADD MSTORE PUSH2 0x1FFA DUP2 PUSH2 0x1FBE JUMP JUMPDEST SWAP1 POP SWAP2 SWAP1 POP JUMP JUMPDEST PUSH1 0x0 DUP3 DUP3 MSTORE PUSH1 0x20 DUP3 ADD SWAP1 POP SWAP3 SWAP2 POP POP JUMP JUMPDEST PUSH1 0x0 DUP1 REVERT JUMPDEST DUP3 DUP2 DUP4 CALLDATACOPY POP POP POP JUMP JUMPDEST PUSH1 0x0 PUSH2 0x202C DUP4 DUP6 PUSH2 0x2001 JUMP JUMPDEST SWAP4 POP PUSH32 0x7FFFFFFFFFFFFFFFFFFFFFFFFFFFFFFFFFFFFFFFFFFFFFFFFFFFFFFFFFFFFFF DUP4 GT ISZERO PUSH2 0x205F JUMPI PUSH2 0x205E PUSH2 0x2012 JUMP JUMPDEST JUMPDEST PUSH1 0x20 DUP4 MUL SWAP3 POP PUSH2 0x2070 DUP4 DUP6 DUP5 PUSH2 0x2017 JUMP JUMPDEST DUP3 DUP5 ADD SWAP1 POP SWAP4 SWAP3 POP POP POP JUMP JUMPDEST PUSH1 0x0 PUSH1 0x80 DUP3 ADD SWAP1 POP DUP2 DUP2 SUB PUSH1 0x0 DUP4 ADD MSTORE PUSH2 0x2097 DUP2 DUP9 DUP11 PUSH2 0x19AB JUMP JUMPDEST SWAP1 POP DUP2 DUP2 SUB PUSH1 0x20 DUP4 ADD MSTORE PUSH2 0x20AC DUP2 DUP7 DUP9 PUSH2 0x2020 JUMP JUMPDEST SWAP1 POP PUSH2 0x20BB PUSH1 0x40 DUP4 ADD DUP6 PUSH2 0x1485 JUMP JUMPDEST PUSH2 0x20C8 PUSH1 0x60 DUP4 ADD DUP5 PUSH2 0x1485 JUMP JUMPDEST SWAP8 SWAP7 POP POP POP POP POP POP POP JUMP JUMPDEST PUSH1 0x0 PUSH1 0x80 DUP3 ADD SWAP1 POP PUSH2 0x20E8 PUSH1 0x0 DUP4 ADD DUP8 PUSH2 0x1EF6 JUMP JUMPDEST PUSH2 0x20F5 PUSH1 0x20 DUP4 ADD DUP7 PUSH2 0x1485 JUMP JUMPDEST PUSH2 0x2102 PUSH1 0x40 DUP4 ADD DUP6 PUSH2 0x1485 JUMP JUMPDEST PUSH2 0x210F PUSH1 0x60 DUP4 ADD DUP5 PUSH2 0x1485 JUMP JUMPDEST SWAP6 SWAP5 POP POP POP POP POP JUMP JUMPDEST PUSH1 0x0 PUSH2 0x2123 DUP3 PUSH2 0x147B JUMP JUMPDEST SWAP2 POP PUSH2 0x212E DUP4 PUSH2 0x147B JUMP JUMPDEST SWAP3 POP DUP3 DUP3 SUB SWAP1 POP DUP2 DUP2 GT ISZERO PUSH2 0x2146 JUMPI PUSH2 0x2145 PUSH2 0x1DDC JUMP JUMPDEST JUMPDEST SWAP3 SWAP2 POP POP JUMP JUMPDEST PUSH1 0x0 PUSH2 0x2157 DUP3 PUSH2 0x147B JUMP JUMPDEST SWAP2 POP PUSH2 0x2162 DUP4 PUSH2 0x147B JUMP JUMPDEST SWAP3 POP DUP3 DUP3 ADD SWAP1 POP DUP1 DUP3 GT ISZERO PUSH2 0x217A JUMPI PUSH2 0x2179 PUSH2 0x1DDC JUMP JUMPDEST JUMPDEST SWAP3 SWAP2 POP POP JUMP JUMPDEST PUSH32 0x5468726573686F6C6420776F756C6420626520696D706F737369626C65000000 PUSH1 0x0 DUP3 ADD MSTORE POP JUMP JUMPDEST PUSH1 0x0 PUSH2 0x21B6 PUSH1 0x1D DUP4 PUSH2 0x1C5C JUMP JUMPDEST SWAP2 POP PUSH2 0x21C1 DUP3 PUSH2 0x2180 JUMP JUMPDEST PUSH1 0x20 DUP3 ADD SWAP1 POP SWAP2 SWAP1 POP JUMP JUMPDEST PUSH1 0x0 PUSH1 0x20 DUP3 ADD SWAP1 POP DUP2 DUP2 SUB PUSH1 0x0 DUP4 ADD MSTORE PUSH2 0x21E5 DUP2 PUSH2 0x21A9 JUMP JUMPDEST SWAP1 POP SWAP2 SWAP1 POP JUMP JUMPDEST PUSH1 0x0 DUP2 SWAP1 POP SWAP3 SWAP2 POP POP JUMP JUMPDEST PUSH32 0x19457468657265756D205369676E6564204D6573736167653A0A333200000000 PUSH1 0x0 DUP3 ADD MSTORE POP JUMP JUMPDEST PUSH1 0x0 PUSH2 0x222D PUSH1 0x1C DUP4 PUSH2 0x21EC JUMP JUMPDEST SWAP2 POP PUSH2 0x2238 DUP3 PUSH2 0x21F7 JUMP JUMPDEST PUSH1 0x1C DUP3 ADD SWAP1 POP SWAP2 SWAP1 POP JUMP JUMPDEST PUSH1 0x0 DUP2 SWAP1 POP SWAP2 SWAP1 POP JUMP JUMPDEST PUSH1 0x0 DUP2 SWAP1 POP SWAP2 SWAP1 POP JUMP JUMPDEST PUSH2 0x2268 PUSH2 0x2263 DUP3 PUSH2 0x2243 JUMP JUMPDEST PUSH2 0x224D JUMP JUMPDEST DUP3 MSTORE POP POP JUMP JUMPDEST PUSH1 0x0 PUSH2 0x2279 DUP3 PUSH2 0x2220 JUMP JUMPDEST SWAP2 POP PUSH2 0x2285 DUP3 DUP5 PUSH2 0x2257 JUMP JUMPDEST PUSH1 0x20 DUP3 ADD SWAP2 POP DUP2 SWAP1 POP SWAP3 SWAP2 POP POP JUMP JUMPDEST PUSH32 0x4E487B7100000000000000000000000000000000000000000000000000000000 PUSH1 0x0 MSTORE PUSH1 0x21 PUSH1 0x4 MSTORE PUSH1 0x24 PUSH1 0x0 REVERT JUMPDEST PUSH32 0x45434453413A20696E76616C6964207369676E61747572650000000000000000 PUSH1 0x0 DUP3 ADD MSTORE POP JUMP JUMPDEST PUSH1 0x0 PUSH2 0x22F9 PUSH1 0x18 DUP4 PUSH2 0x1C5C JUMP JUMPDEST SWAP2 POP PUSH2 0x2304 DUP3 PUSH2 0x22C3 JUMP JUMPDEST PUSH1 0x20 DUP3 ADD SWAP1 POP SWAP2 SWAP1 POP JUMP JUMPDEST PUSH1 0x0 PUSH1 0x20 DUP3 ADD SWAP1 POP DUP2 DUP2 SUB PUSH1 0x0 DUP4 ADD MSTORE PUSH2 0x2328 DUP2 PUSH2 0x22EC JUMP JUMPDEST SWAP1 POP SWAP2 SWAP1 POP JUMP JUMPDEST PUSH32 0x45434453413A20696E76616C6964207369676E6174757265206C656E67746800 PUSH1 0x0 DUP3 ADD MSTORE POP JUMP JUMPDEST PUSH1 0x0 PUSH2 0x2365 PUSH1 0x1F DUP4 PUSH2 0x1C5C JUMP JUMPDEST SWAP2 POP PUSH2 0x2370 DUP3 PUSH2 0x232F JUMP JUMPDEST PUSH1 0x20 DUP3 ADD SWAP1 POP SWAP2 SWAP1 POP JUMP JUMPDEST PUSH1 0x0 PUSH1 0x20 DUP3 ADD SWAP1 POP DUP2 DUP2 SUB PUSH1 0x0 DUP4 ADD MSTORE PUSH2 0x2394 DUP2 PUSH2 0x2358 JUMP JUMPDEST SWAP1 POP SWAP2 SWAP1 POP JUMP JUMPDEST PUSH32 0x45434453413A20696E76616C6964207369676E6174757265202773272076616C PUSH1 0x0 DUP3 ADD MSTORE PUSH32 0x7565000000000000000000000000000000000000000000000000000000000000 PUSH1 0x20 DUP3 ADD MSTORE POP JUMP JUMPDEST PUSH1 0x0 PUSH2 0x23F7 PUSH1 0x22 DUP4 PUSH2 0x1C5C JUMP JUMPDEST SWAP2 POP PUSH2 0x2402 DUP3 PUSH2 0x239B JUMP JUMPDEST PUSH1 0x40 DUP3 ADD SWAP1 POP SWAP2 SWAP1 POP JUMP JUMPDEST PUSH1 0x0 PUSH1 0x20 DUP3 ADD SWAP1 POP DUP2 DUP2 SUB PUSH1 0x0 DUP4 ADD MSTORE PUSH2 0x2426 DUP2 PUSH2 0x23EA JUMP JUMPDEST SWAP1 POP SWAP2 SWAP1 POP JUMP JUMPDEST PUSH2 0x2436 DUP2 PUSH2 0x2243 JUMP JUMPDEST DUP3 MSTORE POP POP JUMP JUMPDEST PUSH1 0x0 PUSH1 0xFF DUP3 AND SWAP1 POP SWAP2 SWAP1 POP JUMP JUMPDEST PUSH2 0x2452 DUP2 PUSH2 0x243C JUMP JUMPDEST DUP3 MSTORE POP POP JUMP JUMPDEST PUSH1 0x0 PUSH1 0x80 DUP3 ADD SWAP1 POP PUSH2 0x246D PUSH1 0x0 DUP4 ADD DUP8 PUSH2 0x242D JUMP JUMPDEST PUSH2 0x247A PUSH1 0x20 DUP4 ADD DUP7 PUSH2 0x2449 JUMP JUMPDEST PUSH2 0x2487 PUSH1 0x40 DUP4 ADD DUP6 PUSH2 0x242D JUMP JUMPDEST PUSH2 0x2494 PUSH1 0x60 DUP4 ADD DUP5 PUSH2 0x242D JUMP JUMPDEST SWAP6 SWAP5 POP POP POP POP POP JUMP INVALID MSTORE8 PUSH10 0x676E6572207765696768 PUSH21 0x7320646F6573206E6F74206D656574207468726573 PUSH9 0x6F6C644174206C6561 PUSH20 0x74206F6E65207369676E6174757265206E6F7420 PUSH7 0x726F6D2061206B PUSH15 0x6F776E20636F6E74726F6C6C657241 PUSH21 0x206C65617374206F6E65207369676E617475726520 PUSH2 0x6C72 PUSH6 0x616479207573 PUSH6 0x64A264697066 PUSH20 0x58221220835B1A9B02444C089995CCFDFF05830D DUP1 CALLDATACOPY PUSH2 0x88F LOG3 DUP5 SWAP15 0xC2 PUSH19 0xDBEB9F6ABC9C64736F6C634300081200330000 "
				},
				"gasEstimates": {
					"creation": {
						"codeDepositCost": "1910000",
						"executionCost": "2019",
						"totalCost": "1912019"
					},
					"external": {
						"addControllers(address[],uint256[],uint256,bytes[])": "infinite",
						"controlThreshold()": "2491",
						"controllerWeight(address)": "2961",
						"controllersTotalWeight()": "2514",
						"removeControllers(address[],uint256,bytes[])": "infinite",
						"supportsInterface(bytes4)": "809",
						"supportsUpgrades()": "431",
						"updateControlThreshold(uint256,uint256,bytes[])": "infinite",
						"updateControllerWeight(address,uint256,uint256,bytes[])": "infinite",
						"upgrade(address,uint256,bytes[])": "infinite"
					}
				},
				"methodIdentifiers": {
					"addControllers(address[],uint256[],uint256,bytes[])": "af915498",
					"controlThreshold()": "a7865090",
					"controllerWeight(address)": "f04420f1",
					"controllersTotalWeight()": "06e82383",
					"removeControllers(address[],uint256,bytes[])": "286936bb",
					"supportsInterface(bytes4)": "01ffc9a7",
					"supportsUpgrades()": "fec5c09a",
					"updateControlThreshold(uint256,uint256,bytes[])": "87f949b4",
					"updateControllerWeight(address,uint256,uint256,bytes[])": "d0bccea1",
					"upgrade(address,uint256,bytes[])": "94c4395b"
				}
			},
			"storageLayout": {
				"storage": [],
				"types": null
			},
			"userdoc": {
				"kind": "user",
				"methods": {},
				"version": 1
			}
		}
	}
}