{"contracts/modules/Main/Main.sol":{"Main":{"abi":[{"inputs":[{"internalType":"address[]","name":"_controllers","type":"address[]"},{"internalType":"uint256[]","name":"_weights","type":"uint256[]"},{"internalType":"uint256","name":"_nonce","type":"uint256"},{"internalType":"bytes[]","name":"_signatures","type":"bytes[]"}],"name":"addControllers","outputs":[],"stateMutability":"nonpayable","type":"function"},{"inputs":[],"name":"controlThreshold","outputs":[{"internalType":"uint256","name":"","type":"uint256"}],"stateMutability":"view","type":"function"},{"inputs":[{"internalType":"address","name":"_controller","type":"address"}],"name":"controllerWeight","outputs":[{"internalType":"uint256","name":"","type":"uint256"}],"stateMutability":"view","type":"function"},{"inputs":[],"name":"controllersTotalWeight","outputs":[{"internalType":"uint256","name":"","type":"uint256"}],"stateMutability":"view","type":"function"},{"inputs":[{"components":[{"internalType":"address","name":"target","type":"address"},{"internalType":"uint256","name":"value","type":"uint256"},{"internalType":"uint256","name":"nonce","type":"uint256"},{"internalType":"bytes","name":"data","type":"bytes"}],"internalType":"struct CallsStructs.ExecuteRequest","name":"_executeRequest","type":"tuple"},{"internalType":"bytes[]","name":"_signatures","type":"bytes[]"}],"name":"execute","outputs":[{"internalType":"bytes","name":"","type":"bytes"}],"stateMutability":"nonpayable","type":"function"},{"inputs":[{"internalType":"address","name":"_controller","type":"address"}],"name":"initialize","outputs":[],"stateMutability":"nonpayable","type":"function"},{"inputs":[{"internalType":"bytes32","name":"_hash","type":"bytes32"},{"internalType":"bytes","name":"_signature","type":"bytes"}],"name":"isValidSignature","outputs":[{"internalType":"bytes4","name":"magicValue","type":"bytes4"}],"stateMutability":"view","type":"function"},{"inputs":[{"internalType":"bytes","name":"_data","type":"bytes"},{"internalType":"bytes","name":"_signature","type":"bytes"}],"name":"isValidSignature","outputs":[{"internalType":"bytes4","name":"magicValue","type":"bytes4"}],"stateMutability":"view","type":"function"},{"inputs":[{"components":[{"internalType":"address","name":"target","type":"address"},{"internalType":"uint256","name":"value","type":"uint256"},{"internalType":"uint256","name":"nonce","type":"uint256"},{"internalType":"bytes","name":"data","type":"bytes"}],"internalType":"struct CallsStructs.ExecuteRequest[]","name":"_executeRequests","type":"tuple[]"},{"internalType":"bytes[]","name":"_signatures","type":"bytes[]"}],"name":"multiExecute","outputs":[{"internalType":"bytes[]","name":"","type":"bytes[]"}],"stateMutability":"nonpayable","type":"function"},{"inputs":[{"components":[{"internalType":"address","name":"target","type":"address"},{"internalType":"uint256","name":"value","type":"uint256"},{"internalType":"uint256","name":"nonce","type":"uint256"},{"internalType":"bytes","name":"data","type":"bytes"}],"internalType":"struct CallsStructs.ExecuteRequest[]","name":"_executeRequests","type":"tuple[]"}],"name":"multiPermittedExecute","outputs":[{"internalType":"bytes[]","name":"","type":"bytes[]"}],"stateMutability":"nonpayable","type":"function"},{"inputs":[{"internalType":"address","name":"","type":"address"},{"internalType":"address","name":"","type":"address"},{"internalType":"uint256[]","name":"","type":"uint256[]"},{"internalType":"uint256[]","name":"","type":"uint256[]"},{"internalType":"bytes","name":"","type":"bytes"}],"name":"onERC1155BatchReceived","outputs":[{"internalType":"bytes4","name":"","type":"bytes4"}],"stateMutability":"pure","type":"function"},{"inputs":[{"internalType":"address","name":"","type":"address"},{"internalType":"address","name":"","type":"address"},{"internalType":"uint256","name":"","type":"uint256"},{"internalType":"uint256","name":"","type":"uint256"},{"internalType":"bytes","name":"","type":"bytes"}],"name":"onERC1155Received","outputs":[{"internalType":"bytes4","name":"","type":"bytes4"}],"stateMutability":"pure","type":"function"},{"inputs":[{"internalType":"address","name":"","type":"address"},{"internalType":"address","name":"","type":"address"},{"internalType":"uint256","name":"","type":"uint256"},{"internalType":"bytes","name":"","type":"bytes"}],"name":"onERC721Received","outputs":[{"internalType":"bytes4","name":"","type":"bytes4"}],"stateMutability":"pure","type":"function"},{"inputs":[{"components":[{"internalType":"address","name":"executor","type":"address"},{"internalType":"address","name":"target","type":"address"},{"internalType":"uint256","name":"value","type":"uint256"},{"internalType":"bytes","name":"data","type":"bytes"}],"internalType":"struct PermissionedCallsStructs.ExecuteRequestPermitted","name":"_executeRequestPermitted","type":"tuple"},{"components":[{"internalType":"uint64","name":"unlockTimestamp","type":"uint64"},{"internalType":"uint64","name":"lastExecuteTimestamp","type":"uint64"},{"internalType":"uint32","name":"minExecuteInterval","type":"uint32"},{"internalType":"uint32","name":"executeCount","type":"uint32"},{"internalType":"uint32","name":"maxExecutes","type":"uint32"}],"internalType":"struct PermissionedCallsStructs.ExecuteRequestPermission","name":"_executeRequestPermission","type":"tuple"},{"internalType":"uint256","name":"_nonce","type":"uint256"},{"internalType":"bytes[]","name":"_signatures","type":"bytes[]"}],"name":"permitExecute","outputs":[],"stateMutability":"nonpayable","type":"function"},{"inputs":[{"components":[{"internalType":"address","name":"target","type":"address"},{"internalType":"uint256","name":"value","type":"uint256"},{"internalType":"uint256","name":"nonce","type":"uint256"},{"internalType":"bytes","name":"data","type":"bytes"}],"internalType":"struct CallsStructs.ExecuteRequest","name":"_executeRequest","type":"tuple"}],"name":"permittedExecute","outputs":[{"internalType":"bytes","name":"","type":"bytes"}],"stateMutability":"nonpayable","type":"function"},{"inputs":[{"internalType":"address[]","name":"_controllers","type":"address[]"},{"internalType":"uint256","name":"_nonce","type":"uint256"},{"internalType":"bytes[]","name":"_signatures","type":"bytes[]"}],"name":"removeControllers","outputs":[],"stateMutability":"nonpayable","type":"function"},{"inputs":[{"internalType":"bytes4","name":"interfaceId","type":"bytes4"}],"name":"supportsInterface","outputs":[{"internalType":"bool","name":"","type":"bool"}],"stateMutability":"view","type":"function"},{"inputs":[],"name":"supportsUpgrades","outputs":[{"internalType":"bool","name":"","type":"bool"}],"stateMutability":"pure","type":"function"},{"inputs":[{"components":[{"internalType":"address","name":"executor","type":"address"},{"internalType":"address","name":"target","type":"address"},{"internalType":"uint256","name":"value","type":"uint256"},{"internalType":"bytes","name":"data","type":"bytes"}],"internalType":"struct PermissionedCallsStructs.ExecuteRequestPermitted","name":"_executeRequestPermitted","type":"tuple"},{"internalType":"uint256","name":"_nonce","type":"uint256"},{"internalType":"bytes[]","name":"_signatures","type":"bytes[]"}],"name":"unpermitExecute","outputs":[],"stateMutability":"nonpayable","type":"function"},{"inputs":[{"internalType":"uint256","name":"_threshold","type":"uint256"},{"internalType":"uint256","name":"_nonce","type":"uint256"},{"internalType":"bytes[]","name":"_signatures","type":"bytes[]"}],"name":"updateControlThreshold","outputs":[],"stateMutability":"nonpayable","type":"function"},{"inputs":[{"internalType":"address","name":"_controller","type":"address"},{"internalType":"uint256","name":"_weight","type":"uint256"},{"internalType":"uint256","name":"_nonce","type":"uint256"},{"internalType":"bytes[]","name":"_signatures","type":"bytes[]"}],"name":"updateControllerWeight","outputs":[],"stateMutability":"nonpayable","type":"function"},{"inputs":[{"internalType":"address","name":"_implementation","type":"address"},{"internalType":"uint256","name":"_nonce","type":"uint256"},{"internalType":"bytes[]","name":"_signatures","type":"bytes[]"}],"name":"upgrade","outputs":[],"stateMutability":"nonpayable","type":"function"},{"inputs":[],"name":"version","outputs":[{"internalType":"string","name":"","type":"string"}],"stateMutability":"view","type":"function"},{"stateMutability":"payable","type":"receive"}],"evm":{"bytecode":{"linkReferences":{},"object":"608060405234801561001057600080fd5b50613ed1806100206000396000f3fe6080604052600436106101845760003560e01c806387f949b4116100d6578063c4d66de81161007f578063f04420f111610059578063f04420f11461055c578063f23a6e61146105be578063fec5c09a1461060457600080fd5b8063c4d66de8146104fc578063d0bccea11461051c578063e57db71e1461053c57600080fd5b8063a7865090116100b0578063a786509014610460578063af91549814610494578063bc197c81146104b457600080fd5b806387f949b41461040057806394c4395b14610420578063a3e8d51e1461044057600080fd5b80631ab08563116101385780632a365cbd116101125780632a365cbd1461036a578063524886d21461038a57806354fd4d50146103aa57600080fd5b80631ab085631461030857806320c13b0b1461032a578063286936bb1461034a57600080fd5b80630d992b2b116101695780630d992b2b14610245578063150b7a02146102725780631626ba7e146102e857600080fd5b806301ffc9a71461019057806306e823831461020757600080fd5b3661018b57005b600080fd5b34801561019c57600080fd5b506101f26101ab366004612b89565b7fffffffff00000000000000000000000000000000000000000000000000000000167f01ffc9a7000000000000000000000000000000000000000000000000000000001490565b60405190151581526020015b60405180910390f35b34801561021357600080fd5b507f255f4a56bd3ad76424e31ed8855ef9ad14a0ce4e67508c76ff082e5c1466b130545b6040519081526020016101fe565b34801561025157600080fd5b50610265610260366004612c10565b610618565b6040516101fe9190612ce0565b34801561027e57600080fd5b506102b761028d366004612dcb565b7f150b7a020000000000000000000000000000000000000000000000000000000095945050505050565b6040517fffffffff0000000000000000000000000000000000000000000000000000000090911681526020016101fe565b3480156102f457600080fd5b506102b7610303366004612e3a565b610847565b34801561031457600080fd5b50610328610323366004612e9e565b61088b565b005b34801561033657600080fd5b506102b7610345366004612ef5565b610abd565b34801561035657600080fd5b50610328610365366004612f55565b610b19565b34801561037657600080fd5b50610328610385366004612fbe565b610ccc565b34801561039657600080fd5b506102656103a536600461305d565b610f76565b3480156103b657600080fd5b506103f36040518060400160405280600b81526020017f616c7068612d312e302e3000000000000000000000000000000000000000000081525081565b6040516101fe919061309f565b34801561040c57600080fd5b5061032861041b3660046130b2565b611035565b34801561042c57600080fd5b5061032861043b3660046130f9565b611299565b34801561044c57600080fd5b506103f361045b36600461313b565b6114ee565b34801561046c57600080fd5b507f255f4a56bd3ad76424e31ed8855ef9ad14a0ce4e67508c76ff082e5c1466b12f54610237565b3480156104a057600080fd5b506103286104af366004613197565b61165c565b3480156104c057600080fd5b506102b76104cf36600461323b565b7fbc197c810000000000000000000000000000000000000000000000000000000098975050505050505050565b34801561050857600080fd5b506103286105173660046132f6565b61182e565b34801561052857600080fd5b50610328610537366004613311565b611912565b34801561054857600080fd5b506103f3610557366004613368565b611c35565b34801561056857600080fd5b506102376105773660046132f6565b73ffffffffffffffffffffffffffffffffffffffff1660009081527f255f4a56bd3ad76424e31ed8855ef9ad14a0ce4e67508c76ff082e5c1466b131602052604090205490565b3480156105ca57600080fd5b506102b76105d936600461339d565b7ff23a6e61000000000000000000000000000000000000000000000000000000009695505050505050565b34801561061057600080fd5b5060016101f2565b606084844660405160200161062f93929190613524565b604080517fffffffffffffffffffffffffffffffffffffffffffffffffffffffffffffffe08184030181529190528051602090910120838360008061067d856106788587613657565b611fc5565b915091508181906106c4576040517f08c379a00000000000000000000000000000000000000000000000000000000081526004016106bb919061309f565b60405180910390fd5b5060005b8381101561077f5760017f255f4a56bd3ad76424e31ed8855ef9ad14a0ce4e67508c76ff082e5c1466b13260008787858181106107075761070761373e565b9050602002810190610719919061376d565b6040516107279291906137d2565b6040805191829003909120825260208201929092520160002080547fffffffffffffffffffffffffffffffffffffffffffffffffffffffffffffff00169115159190911790558061077781613811565b9150506106c8565b5060008967ffffffffffffffff81111561079b5761079b6135d9565b6040519080825280602002602001820160405280156107ce57816020015b60608152602001906001900390816107b95790505b50905060005b8a811015610838576108088c8c838181106107f1576107f161373e565b90506020028101906108039190613849565b6121d0565b82828151811061081a5761081a61373e565b6020026020010181905250808061083090613811565b9150506107d4565b509a9950505050505050505050565b600061085484848461226c565b1561088057507f1626ba7e00000000000000000000000000000000000000000000000000000000610884565b5060005b9392505050565b8383466040516020016108a0939291906138d6565b604080517fffffffffffffffffffffffffffffffffffffffffffffffffffffffffffffffe0818403018152919052805160209091012082826000806108e9856106788587613657565b91509150818190610927576040517f08c379a00000000000000000000000000000000000000000000000000000000081526004016106bb919061309f565b5060005b838110156109e25760017f255f4a56bd3ad76424e31ed8855ef9ad14a0ce4e67508c76ff082e5c1466b132600087878581811061096a5761096a61373e565b905060200281019061097c919061376d565b60405161098a9291906137d2565b6040805191829003909120825260208201929092520160002080547fffffffffffffffffffffffffffffffffffffffffffffffffffffffffffffff0016911515919091179055806109da81613811565b91505061092b565b507fa7c6065f73528a079b6bd396854cfc70d8b5a045d4821e6db173081678a527656000610a1360208c018c6132f6565b610a2360408d0160208e016132f6565b60408d0135610a3560608f018f61376d565b604051602001610a499594939291906138fb565b604080517fffffffffffffffffffffffffffffffffffffffffffffffffffffffffffffffe081840301815291815281516020928301208352908201929092520160002080547fffffffff00000000000000000000000000000000000000000000000000000000169055505050505050505050565b6000610ae18585604051610ad29291906137d2565b6040518091039020848461226c565b15610b0d57507f20c13b0b00000000000000000000000000000000000000000000000000000000610b11565b5060005b949350505050565b84848446604051602001610b30949392919061399a565b604080517fffffffffffffffffffffffffffffffffffffffffffffffffffffffffffffffe081840301815291905280516020909101208282600080610b79856106788587613657565b91509150818190610bb7576040517f08c379a00000000000000000000000000000000000000000000000000000000081526004016106bb919061309f565b5060005b83811015610c725760017f255f4a56bd3ad76424e31ed8855ef9ad14a0ce4e67508c76ff082e5c1466b1326000878785818110610bfa57610bfa61373e565b9050602002810190610c0c919061376d565b604051610c1a9291906137d2565b6040805191829003909120825260208201929092520160002080547fffffffffffffffffffffffffffffffffffffffffffffffffffffffffffffff001691151591909117905580610c6a81613811565b915050610bbb565b5060005b89811015610cbf57610cad8b8b83818110610c9357610c9361373e565b9050602002016020810190610ca891906132f6565b612408565b80610cb781613811565b915050610c76565b5050505050505050505050565b84848446604051602001610ce394939291906139e9565b604080517fffffffffffffffffffffffffffffffffffffffffffffffffffffffffffffffe081840301815291905280516020909101208282600080610d2c856106788587613657565b91509150818190610d6a576040517f08c379a00000000000000000000000000000000000000000000000000000000081526004016106bb919061309f565b5060005b83811015610e255760017f255f4a56bd3ad76424e31ed8855ef9ad14a0ce4e67508c76ff082e5c1466b1326000878785818110610dad57610dad61373e565b9050602002810190610dbf919061376d565b604051610dcd9291906137d2565b6040805191829003909120825260208201929092520160002080547fffffffffffffffffffffffffffffffffffffffffffffffffffffffffffffff001691151591909117905580610e1d81613811565b915050610d6e565b506000610e3860a08b0160808c01613a8f565b63ffffffff1611610ecb576040517f08c379a000000000000000000000000000000000000000000000000000000000815260206004820152603260248201527f45786563757465526571756573745065726d697373696f6e2e6d61784578656360448201527f75746573206d757374206e6f742062652030000000000000000000000000000060648201526084016106bb565b887fa7c6065f73528a079b6bd396854cfc70d8b5a045d4821e6db173081678a527656000610efc60208e018e6132f6565b8d6020016020810190610f0f91906132f6565b8e604001358f8060600190610f24919061376d565b604051602001610f389594939291906138fb565b6040516020818303038152906040528051906020012081526020019081526020016000208181610f689190613ab9565b505050505050505050505050565b606060008267ffffffffffffffff811115610f9357610f936135d9565b604051908082528060200260200182016040528015610fc657816020015b6060815260200190600190039081610fb15790505b50905060005b8381101561102b57610ffb858583818110610fe957610fe961373e565b90506020028101906105579190613849565b82828151811061100d5761100d61373e565b6020026020010181905250808061102390613811565b915050610fcc565b5090505b92915050565b6040805160208101869052908101849052466060820152608001604080517fffffffffffffffffffffffffffffffffffffffffffffffffffffffffffffffe081840301815291905280516020909101208282600080611098856106788587613657565b915091508181906110d6576040517f08c379a00000000000000000000000000000000000000000000000000000000081526004016106bb919061309f565b5060005b838110156111915760017f255f4a56bd3ad76424e31ed8855ef9ad14a0ce4e67508c76ff082e5c1466b13260008787858181106111195761111961373e565b905060200281019061112b919061376d565b6040516111399291906137d2565b6040805191829003909120825260208201929092520160002080547fffffffffffffffffffffffffffffffffffffffffffffffffffffffffffffff00169115159190911790558061118981613811565b9150506110da565b5060007f255f4a56bd3ad76424e31ed8855ef9ad14a0ce4e67508c76ff082e5c1466b12f5411801561120557507f255f4a56bd3ad76424e31ed8855ef9ad14a0ce4e67508c76ff082e5c1466b130547f255f4a56bd3ad76424e31ed8855ef9ad14a0ce4e67508c76ff082e5c1466b12f5411155b61126b576040517f08c379a000000000000000000000000000000000000000000000000000000000815260206004820152601160248201527f496e76616c6964207468726573686f6c6400000000000000000000000000000060448201526064016106bb565b887f255f4a56bd3ad76424e31ed8855ef9ad14a0ce4e67508c76ff082e5c1466b12f55505050505050505050565b6040805173ffffffffffffffffffffffffffffffffffffffff86166020820152908101849052466060820152608001604080517fffffffffffffffffffffffffffffffffffffffffffffffffffffffffffffffe081840301815291905280516020909101208282600080611311856106788587613657565b9150915081819061134f576040517f08c379a00000000000000000000000000000000000000000000000000000000081526004016106bb919061309f565b5060005b8381101561140a5760017f255f4a56bd3ad76424e31ed8855ef9ad14a0ce4e67508c76ff082e5c1466b13260008787858181106113925761139261373e565b90506020028101906113a4919061376d565b6040516113b29291906137d2565b6040805191829003909120825260208201929092520160002080547fffffffffffffffffffffffffffffffffffffffffffffffffffffffffffffff00169115159190911790558061140281613811565b915050611353565b508873ffffffffffffffffffffffffffffffffffffffff1663fec5c09a6040518163ffffffff1660e01b8152600401602060405180830381865afa158015611456573d6000803e3d6000fd5b505050506040513d601f19601f8201168201806040525081019061147a9190613c5d565b6114e0576040517f08c379a000000000000000000000000000000000000000000000000000000000815260206004820152601660248201527f496e76616c696420696d706c656d656e746174696f6e0000000000000000000060448201526064016106bb565b883055505050505050505050565b60608346604051602001611503929190613c7f565b604080517fffffffffffffffffffffffffffffffffffffffffffffffffffffffffffffffe08184030181529190528051602090910120838360008061154c856106788587613657565b9150915081819061158a576040517f08c379a00000000000000000000000000000000000000000000000000000000081526004016106bb919061309f565b5060005b838110156116455760017f255f4a56bd3ad76424e31ed8855ef9ad14a0ce4e67508c76ff082e5c1466b13260008787858181106115cd576115cd61373e565b90506020028101906115df919061376d565b6040516115ed9291906137d2565b6040805191829003909120825260208201929092520160002080547fffffffffffffffffffffffffffffffffffffffffffffffffffffffffffffff00169115159190911790558061163d81613811565b91505061158e565b5061164f896121d0565b9998505050505050505050565b86868686864660405160200161167796959493929190613ca1565b604080517fffffffffffffffffffffffffffffffffffffffffffffffffffffffffffffffe0818403018152919052805160209091012082826000806116c0856106788587613657565b915091508181906116fe576040517f08c379a00000000000000000000000000000000000000000000000000000000081526004016106bb919061309f565b5060005b838110156117b95760017f255f4a56bd3ad76424e31ed8855ef9ad14a0ce4e67508c76ff082e5c1466b13260008787858181106117415761174161373e565b9050602002810190611753919061376d565b6040516117619291906137d2565b6040805191829003909120825260208201929092520160002080547fffffffffffffffffffffffffffffffffffffffffffffffffffffffffffffff0016911515919091179055806117b181613811565b915050611702565b5060005b8b81101561181f5761180d8d8d838181106117da576117da61373e565b90506020020160208101906117ef91906132f6565b8c8c848181106118015761180161373e565b905060200201356125a2565b8061181781613811565b9150506117bd565b50505050505050505050505050565b7f8480f6681de262f06542a42e126de05ebaca6a167394778f7693338ddb42e1b45460ff16156118ba576040517f08c379a000000000000000000000000000000000000000000000000000000000815260206004820152601360248201527f416c726561647920696e697469616c697a65640000000000000000000000000060448201526064016106bb565b6118c58160016125a2565b507f8480f6681de262f06542a42e126de05ebaca6a167394778f7693338ddb42e1b480547fffffffffffffffffffffffffffffffffffffffffffffffffffffffffffffff00166001179055565b6040805173ffffffffffffffffffffffffffffffffffffffff871660208201529081018590526060810184905246608082015260a001604080517fffffffffffffffffffffffffffffffffffffffffffffffffffffffffffffffe081840301815291905280516020909101208282600080611991856106788587613657565b915091508181906119cf576040517f08c379a00000000000000000000000000000000000000000000000000000000081526004016106bb919061309f565b5060005b83811015611a8a5760017f255f4a56bd3ad76424e31ed8855ef9ad14a0ce4e67508c76ff082e5c1466b1326000878785818110611a1257611a1261373e565b9050602002810190611a24919061376d565b604051611a329291906137d2565b6040805191829003909120825260208201929092520160002080547fffffffffffffffffffffffffffffffffffffffffffffffffffffffffffffff001691151591909117905580611a8281613811565b9150506119d3565b5073ffffffffffffffffffffffffffffffffffffffff8a1660009081527f255f4a56bd3ad76424e31ed8855ef9ad14a0ce4e67508c76ff082e5c1466b13160205260409020547f255f4a56bd3ad76424e31ed8855ef9ad14a0ce4e67508c76ff082e5c1466b130548a91611afd91613d18565b611b079190613d2b565b7f255f4a56bd3ad76424e31ed8855ef9ad14a0ce4e67508c76ff082e5c1466b13081905515801590611b7b57507f255f4a56bd3ad76424e31ed8855ef9ad14a0ce4e67508c76ff082e5c1466b12f547f255f4a56bd3ad76424e31ed8855ef9ad14a0ce4e67508c76ff082e5c1466b1305410155b611be1576040517f08c379a000000000000000000000000000000000000000000000000000000000815260206004820152601d60248201527f5468726573686f6c6420776f756c6420626520696d706f737369626c6500000060448201526064016106bb565b5050505073ffffffffffffffffffffffffffffffffffffffff9590951660009081527f255f4a56bd3ad76424e31ed8855ef9ad14a0ce4e67508c76ff082e5c1466b131602052604090209390935550505050565b60606000611c433384612624565b80549091507801000000000000000000000000000000000000000000000000900463ffffffff16600003611c7f57611c7c600084612624565b90505b80547801000000000000000000000000000000000000000000000000900463ffffffff16611d09576040517f08c379a000000000000000000000000000000000000000000000000000000000815260206004820152601760248201527f457865637574696f6e206e6f74207065726d697474656400000000000000000060448201526064016106bb565b805467ffffffffffffffff161580611d2c5750805467ffffffffffffffff164210155b611d92576040517f08c379a000000000000000000000000000000000000000000000000000000000815260206004820152601460248201527f457865637574696f6e2074696d656c6f636b656400000000000000000000000060448201526064016106bb565b805468010000000000000000900467ffffffffffffffff161580611dcf57508054700100000000000000000000000000000000900463ffffffff16155b80611e1f57508054611e1190700100000000000000000000000000000000810463ffffffff169068010000000000000000900467ffffffffffffffff16613d3e565b67ffffffffffffffff164210155b611e85576040517f08c379a000000000000000000000000000000000000000000000000000000000815260206004820152601860248201527f457865637574696f6e20696e74657276616c20756e6d6574000000000000000060448201526064016106bb565b805463ffffffff780100000000000000000000000000000000000000000000000082048116740100000000000000000000000000000000000000009092041610611f2b576040517f08c379a000000000000000000000000000000000000000000000000000000000815260206004820152601660248201527f4d617820657865637574696f6e7320726561636865640000000000000000000060448201526064016106bb565b80546001908290601490611f5e90849074010000000000000000000000000000000000000000900463ffffffff16613d66565b82546101009290920a63ffffffff8181021990931691909216919091021790555080547fffffffffffffffffffffffffffffffff0000000000000000ffffffffffffffff16680100000000000000004267ffffffffffffffff1602178155610884836121d0565b600060606000805b8451811015612164576000611ffb87878481518110611fee57611fee61373e565b60200260200101516126a9565b73ffffffffffffffffffffffffffffffffffffffff811660009081527f255f4a56bd3ad76424e31ed8855ef9ad14a0ce4e67508c76ff082e5c1466b13160205260408120549192500361206f576000604051806060016040528060328152602001613e4760329139945094505050506121c9565b60008683815181106120835761208361373e565b60200260200101518051906020012090506120bb7f255f4a56bd3ad76424e31ed8855ef9ad14a0ce4e67508c76ff082e5c1466b12f90565b6000828152600391909101602052604090205460ff16156120fe576000604051806060016040528060238152602001613e796023913995509550505050506121c9565b73ffffffffffffffffffffffffffffffffffffffff821660009081527f255f4a56bd3ad76424e31ed8855ef9ad14a0ce4e67508c76ff082e5c1466b131602052604090205461214d9085613d2b565b93505050808061215c90613811565b915050611fcd565b507f255f4a56bd3ad76424e31ed8855ef9ad14a0ce4e67508c76ff082e5c1466b12f548110156121b3576000604051806060016040528060268152602001613e216026913992509250506121c9565b5050604080516020810190915260008152600191505b9250929050565b60606000806121e260208501856132f6565b73ffffffffffffffffffffffffffffffffffffffff16602085013561220a606087018761376d565b6040516122189291906137d2565b60006040518083038185875af1925050503d8060008114612255576040519150601f19603f3d011682016040523d82523d6000602084013e61225a565b606091505b50915091508161088457805160208201fd5b6000612279604183613db2565b15612306576040517f08c379a000000000000000000000000000000000000000000000000000000000815260206004820152602960248201527f556e6578706563746564207061636b61676564207369676e617475726520627960448201527f7465206c656e677468000000000000000000000000000000000000000000000060648201526084016106bb565b6000612313604184613dc6565b905060008167ffffffffffffffff811115612330576123306135d9565b60405190808252806020026020018201604052801561236357816020015b606081526020019060019003908161234e5790505b50905060005b828110156123ef576123bf61237f604183613dda565b604080516020601f8a018190048102820181019092528881526041918a908a908190840183828082843760009201919091525092949392505061270c9050565b8282815181106123d1576123d161373e565b602002602001018190525080806123e790613811565b915050612369565b5060006123fc8783611fc5565b50979650505050505050565b73ffffffffffffffffffffffffffffffffffffffff811660009081527f255f4a56bd3ad76424e31ed8855ef9ad14a0ce4e67508c76ff082e5c1466b13160205260408120547f255f4a56bd3ad76424e31ed8855ef9ad14a0ce4e67508c76ff082e5c1466b13080549192909161247f908490613d18565b90915550507f255f4a56bd3ad76424e31ed8855ef9ad14a0ce4e67508c76ff082e5c1466b13054158015906124f657507f255f4a56bd3ad76424e31ed8855ef9ad14a0ce4e67508c76ff082e5c1466b12f547f255f4a56bd3ad76424e31ed8855ef9ad14a0ce4e67508c76ff082e5c1466b1305410155b61255c576040517f08c379a000000000000000000000000000000000000000000000000000000000815260206004820152601d60248201527f5468726573686f6c6420776f756c6420626520696d706f737369626c6500000060448201526064016106bb565b73ffffffffffffffffffffffffffffffffffffffff1660009081527f255f4a56bd3ad76424e31ed8855ef9ad14a0ce4e67508c76ff082e5c1466b1316020526040812055565b807f255f4a56bd3ad76424e31ed8855ef9ad14a0ce4e67508c76ff082e5c1466b12f60010160008282546125d69190613d2b565b909155505073ffffffffffffffffffffffffffffffffffffffff9190911660009081527f255f4a56bd3ad76424e31ed8855ef9ad14a0ce4e67508c76ff082e5c1466b1316020526040902055565b60007fa7c6065f73528a079b6bd396854cfc70d8b5a045d4821e6db173081678a5276560008461265760208601866132f6565b6020860135612669606088018861376d565b60405160200161267d9594939291906138fb565b604051602081830303815290604052805190602001208152602001908152602001600020905092915050565b600061088482612706856040517f19457468657265756d205369676e6564204d6573736167653a0a3332000000006020820152603c8101829052600090605c01604051602081830303815290604052805190602001209050919050565b90612886565b60608161271a81601f613d2b565b1015612782576040517f08c379a000000000000000000000000000000000000000000000000000000000815260206004820152600e60248201527f736c6963655f6f766572666c6f7700000000000000000000000000000000000060448201526064016106bb565b61278c8284613d2b565b845110156127f6576040517f08c379a000000000000000000000000000000000000000000000000000000000815260206004820152601160248201527f736c6963655f6f75744f66426f756e647300000000000000000000000000000060448201526064016106bb565b606082158015612815576040519150600082526020820160405261287d565b6040519150601f8416801560200281840101858101878315602002848b0101015b8183101561284e578051835260209283019201612836565b5050858452601f017fffffffffffffffffffffffffffffffffffffffffffffffffffffffffffffffe016604052505b50949350505050565b600080600061289585856128a2565b9150915061102b816128e4565b60008082516041036128d85760208301516040840151606085015160001a6128cc87828585612a9a565b945094505050506121c9565b506000905060026121c9565b60008160048111156128f8576128f8613df1565b036129005750565b600181600481111561291457612914613df1565b0361297b576040517f08c379a000000000000000000000000000000000000000000000000000000000815260206004820152601860248201527f45434453413a20696e76616c6964207369676e6174757265000000000000000060448201526064016106bb565b600281600481111561298f5761298f613df1565b036129f6576040517f08c379a000000000000000000000000000000000000000000000000000000000815260206004820152601f60248201527f45434453413a20696e76616c6964207369676e6174757265206c656e6774680060448201526064016106bb565b6003816004811115612a0a57612a0a613df1565b03612a97576040517f08c379a000000000000000000000000000000000000000000000000000000000815260206004820152602260248201527f45434453413a20696e76616c6964207369676e6174757265202773272076616c60448201527f756500000000000000000000000000000000000000000000000000000000000060648201526084016106bb565b50565b6000807f7fffffffffffffffffffffffffffffff5d576e7357a4501ddfe92f46681b20a0831115612ad15750600090506003612b80565b6040805160008082526020820180845289905260ff881692820192909252606081018690526080810185905260019060a0016020604051602081039080840390855afa158015612b25573d6000803e3d6000fd5b50506040517fffffffffffffffffffffffffffffffffffffffffffffffffffffffffffffffe0015191505073ffffffffffffffffffffffffffffffffffffffff8116612b7957600060019250925050612b80565b9150600090505b94509492505050565b600060208284031215612b9b57600080fd5b81357fffffffff000000000000000000000000000000000000000000000000000000008116811461088457600080fd5b60008083601f840112612bdd57600080fd5b50813567ffffffffffffffff811115612bf557600080fd5b6020830191508360208260051b85010111156121c957600080fd5b60008060008060408587031215612c2657600080fd5b843567ffffffffffffffff80821115612c3e57600080fd5b612c4a88838901612bcb565b90965094506020870135915080821115612c6357600080fd5b50612c7087828801612bcb565b95989497509550505050565b6000815180845260005b81811015612ca257602081850181015186830182015201612c86565b5060006020828601015260207fffffffffffffffffffffffffffffffffffffffffffffffffffffffffffffffe0601f83011685010191505092915050565b6000602080830181845280855180835260408601915060408160051b870101925083870160005b82811015612d53577fffffffffffffffffffffffffffffffffffffffffffffffffffffffffffffffc0888603018452612d41858351612c7c565b94509285019290850190600101612d07565b5092979650505050505050565b803573ffffffffffffffffffffffffffffffffffffffff81168114612d8457600080fd5b919050565b60008083601f840112612d9b57600080fd5b50813567ffffffffffffffff811115612db357600080fd5b6020830191508360208285010111156121c957600080fd5b600080600080600060808688031215612de357600080fd5b612dec86612d60565b9450612dfa60208701612d60565b935060408601359250606086013567ffffffffffffffff811115612e1d57600080fd5b612e2988828901612d89565b969995985093965092949392505050565b600080600060408486031215612e4f57600080fd5b83359250602084013567ffffffffffffffff811115612e6d57600080fd5b612e7986828701612d89565b9497909650939450505050565b600060808284031215612e9857600080fd5b50919050565b60008060008060608587031215612eb457600080fd5b843567ffffffffffffffff80821115612ecc57600080fd5b612ed888838901612e86565b9550602087013594506040870135915080821115612c6357600080fd5b60008060008060408587031215612f0b57600080fd5b843567ffffffffffffffff80821115612f2357600080fd5b612f2f88838901612d89565b90965094506020870135915080821115612f4857600080fd5b50612c7087828801612d89565b600080600080600060608688031215612f6d57600080fd5b853567ffffffffffffffff80821115612f8557600080fd5b612f9189838a01612bcb565b9097509550602088013594506040880135915080821115612fb157600080fd5b50612e2988828901612bcb565b6000806000806000858703610100811215612fd857600080fd5b863567ffffffffffffffff80821115612ff057600080fd5b612ffc8a838b01612e86565b975060a07fffffffffffffffffffffffffffffffffffffffffffffffffffffffffffffffe08401121561302e57600080fd5b60208901965060c0890135955060e089013592508083111561304f57600080fd5b5050612e2988828901612bcb565b6000806020838503121561307057600080fd5b823567ffffffffffffffff81111561308757600080fd5b61309385828601612bcb565b90969095509350505050565b6020815260006108846020830184612c7c565b600080600080606085870312156130c857600080fd5b8435935060208501359250604085013567ffffffffffffffff8111156130ed57600080fd5b612c7087828801612bcb565b6000806000806060858703121561310f57600080fd5b61311885612d60565b935060208501359250604085013567ffffffffffffffff8111156130ed57600080fd5b60008060006040848603121561315057600080fd5b833567ffffffffffffffff8082111561316857600080fd5b61317487838801612e86565b9450602086013591508082111561318a57600080fd5b50612e7986828701612bcb565b60008060008060008060006080888a0312156131b257600080fd5b873567ffffffffffffffff808211156131ca57600080fd5b6131d68b838c01612bcb565b909950975060208a01359150808211156131ef57600080fd5b6131fb8b838c01612bcb565b909750955060408a0135945060608a013591508082111561321b57600080fd5b506132288a828b01612bcb565b989b979a50959850939692959293505050565b60008060008060008060008060a0898b03121561325757600080fd5b61326089612d60565b975061326e60208a01612d60565b9650604089013567ffffffffffffffff8082111561328b57600080fd5b6132978c838d01612bcb565b909850965060608b01359150808211156132b057600080fd5b6132bc8c838d01612bcb565b909650945060808b01359150808211156132d557600080fd5b506132e28b828c01612d89565b999c989b5096995094979396929594505050565b60006020828403121561330857600080fd5b61088482612d60565b60008060008060006080868803121561332957600080fd5b61333286612d60565b94506020860135935060408601359250606086013567ffffffffffffffff81111561335c57600080fd5b612e2988828901612bcb565b60006020828403121561337a57600080fd5b813567ffffffffffffffff81111561339157600080fd5b610b1184828501612e86565b60008060008060008060a087890312156133b657600080fd5b6133bf87612d60565b95506133cd60208801612d60565b94506040870135935060608701359250608087013567ffffffffffffffff8111156133f757600080fd5b61340389828a01612d89565b979a9699509497509295939492505050565b60008083357fffffffffffffffffffffffffffffffffffffffffffffffffffffffffffffffe184360301811261344a57600080fd5b830160208101925035905067ffffffffffffffff81111561346a57600080fd5b8036038213156121c957600080fd5b8183528181602085013750600060208284010152600060207fffffffffffffffffffffffffffffffffffffffffffffffffffffffffffffffe0601f840116840101905092915050565b73ffffffffffffffffffffffffffffffffffffffff6134e082612d60565b168252602081013560208301526040810135604083015260006135066060830183613415565b6080606086015261351b608086018284613479565b95945050505050565b6040808252810183905260006060600585901b830181019083018683805b888110156135c4577fffffffffffffffffffffffffffffffffffffffffffffffffffffffffffffffa087860301845282357fffffffffffffffffffffffffffffffffffffffffffffffffffffffffffffff818b36030181126135a2578283fd5b6135ae868c83016134c2565b9550506020938401939290920191600101613542565b50505050602092909201929092529392505050565b7f4e487b7100000000000000000000000000000000000000000000000000000000600052604160045260246000fd5b604051601f82017fffffffffffffffffffffffffffffffffffffffffffffffffffffffffffffffe016810167ffffffffffffffff8111828210171561364f5761364f6135d9565b604052919050565b600067ffffffffffffffff80841115613672576136726135d9565b8360051b6020613683818301613608565b86815291850191818101903684111561369b57600080fd5b865b848110156123fc578035868111156136b55760008081fd5b8801601f36818301126136c85760008081fd5b8135888111156136da576136da6135d9565b613709877fffffffffffffffffffffffffffffffffffffffffffffffffffffffffffffffe08484011601613608565b915080825236878285010111156137205760008081fd5b8087840188840137600090820187015284525091830191830161369d565b7f4e487b7100000000000000000000000000000000000000000000000000000000600052603260045260246000fd5b60008083357fffffffffffffffffffffffffffffffffffffffffffffffffffffffffffffffe18436030181126137a257600080fd5b83018035915067ffffffffffffffff8211156137bd57600080fd5b6020019150368190038213156121c957600080fd5b8183823760009101908152919050565b7f4e487b7100000000000000000000000000000000000000000000000000000000600052601160045260246000fd5b60007fffffffffffffffffffffffffffffffffffffffffffffffffffffffffffffffff8203613842576138426137e2565b5060010190565b600082357fffffffffffffffffffffffffffffffffffffffffffffffffffffffffffffff8183360301811261387d57600080fd5b9190910192915050565b600073ffffffffffffffffffffffffffffffffffffffff806138a884612d60565b168452806138b860208501612d60565b16602085015250604082013560408401526135066060830183613415565b6060815260006138e96060830186613887565b60208301949094525060400152919050565b600073ffffffffffffffffffffffffffffffffffffffff80881683528087166020840152508460408301526080606083015261393b608083018486613479565b979650505050505050565b8183526000602080850194508260005b8581101561398f5773ffffffffffffffffffffffffffffffffffffffff61397c83612d60565b1687529582019590820190600101613956565b509495945050505050565b6060815260006139ae606083018688613946565b6020830194909452506040015292915050565b67ffffffffffffffff81168114612a9757600080fd5b63ffffffff81168114612a9757600080fd5b60006101008083526139fd81840188613887565b9150508435613a0b816139c1565b67ffffffffffffffff808216602085015260208701359150613a2c826139c1565b16604083810191909152850135613a42816139d7565b63ffffffff808216606085015260608701359150613a5f826139d7565b808216608085015260808701359150613a77826139d7565b1660a083015260c082019390935260e0015292915050565b600060208284031215613aa157600080fd5b8135610884816139d7565b6000813561102f816139d7565b8135613ac4816139c1565b67ffffffffffffffff811690508154817fffffffffffffffffffffffffffffffffffffffffffffffff000000000000000082161783556020840135613b08816139c1565b6fffffffffffffffff00000000000000008160401b16905080837fffffffffffffffffffffffffffffffff000000000000000000000000000000008416171784556040850135613b57816139d7565b73ffffffff000000000000000000000000000000008160801b169050837fffffffffffffffffffffffff000000000000000000000000000000000000000084161793508084831717855560608601359250613bb1836139d7565b77ffffffff00000000000000000000000000000000000000008360a01b167fffffffffffffffff00000000ffffffffffffffffffffffffffffffffffffffff85168317821717855550505050613c59613c0c60808401613aac565b82547fffffffff00000000ffffffffffffffffffffffffffffffffffffffffffffffff1660c09190911b7bffffffff00000000000000000000000000000000000000000000000016178255565b5050565b600060208284031215613c6f57600080fd5b8151801515811461088457600080fd5b604081526000613c9260408301856134c2565b90508260208301529392505050565b608081526000613cb560808301888a613946565b82810360208401528581527f07ffffffffffffffffffffffffffffffffffffffffffffffffffffffffffffff861115613ced57600080fd5b8560051b80886020840137604084019590955260609092019290925290910160200195945050505050565b8181038181111561102f5761102f6137e2565b8082018082111561102f5761102f6137e2565b67ffffffffffffffff818116838216019080821115613d5f57613d5f6137e2565b5092915050565b63ffffffff818116838216019080821115613d5f57613d5f6137e2565b7f4e487b7100000000000000000000000000000000000000000000000000000000600052601260045260246000fd5b600082613dc157613dc1613d83565b500690565b600082613dd557613dd5613d83565b500490565b808202811582820484141761102f5761102f6137e2565b7f4e487b7100000000000000000000000000000000000000000000000000000000600052602160045260246000fdfe5369676e6572207765696768747320646f6573206e6f74206d656574207468726573686f6c644174206c65617374206f6e65207369676e6174757265206e6f742066726f6d2061206b6e6f776e20636f6e74726f6c6c65724174206c65617374206f6e65207369676e617475726520616c72656164792075736564a2646970667358221220509cd376c058a9bdd0deea199c8b50675293b24eb8ef5a1e84abcf5d26f9d22664736f6c63430008120033","opcodes":"PUSH1 0x80 PUSH1 0x40 MSTORE CALLVALUE DUP1 ISZERO PUSH2 0x10 JUMPI PUSH1 0x0 DUP1 REVERT JUMPDEST POP PUSH2 0x3ED1 DUP1 PUSH2 0x20 PUSH1 0x0 CODECOPY PUSH1 0x0 RETURN INVALID PUSH1 0x80 PUSH1 0x40 MSTORE PUSH1 0x4 CALLDATASIZE LT PUSH2 0x184 JUMPI PUSH1 0x0 CALLDATALOAD PUSH1 0xE0 SHR DUP1 PUSH4 0x87F949B4 GT PUSH2 0xD6 JUMPI DUP1 PUSH4 0xC4D66DE8 GT PUSH2 0x7F JUMPI DUP1 PUSH4 0xF04420F1 GT PUSH2 0x59 JUMPI DUP1 PUSH4 0xF04420F1 EQ PUSH2 0x55C JUMPI DUP1 PUSH4 0xF23A6E61 EQ PUSH2 0x5BE JUMPI DUP1 PUSH4 0xFEC5C09A EQ PUSH2 0x604 JUMPI PUSH1 0x0 DUP1 REVERT JUMPDEST DUP1 PUSH4 0xC4D66DE8 EQ PUSH2 0x4FC JUMPI DUP1 PUSH4 0xD0BCCEA1 EQ PUSH2 0x51C JUMPI DUP1 PUSH4 0xE57DB71E EQ PUSH2 0x53C JUMPI PUSH1 0x0 DUP1 REVERT JUMPDEST DUP1 PUSH4 0xA7865090 GT PUSH2 0xB0 JUMPI DUP1 PUSH4 0xA7865090 EQ PUSH2 0x460 JUMPI DUP1 PUSH4 0xAF915498 EQ PUSH2 0x494 JUMPI DUP1 PUSH4 0xBC197C81 EQ PUSH2 0x4B4 JUMPI PUSH1 0x0 DUP1 REVERT JUMPDEST DUP1 PUSH4 0x87F949B4 EQ PUSH2 0x400 JUMPI DUP1 PUSH4 0x94C4395B EQ PUSH2 0x420 JUMPI DUP1 PUSH4 0xA3E8D51E EQ PUSH2 0x440 JUMPI PUSH1 0x0 DUP1 REVERT JUMPDEST DUP1 PUSH4 0x1AB08563 GT PUSH2 0x138 JUMPI DUP1 PUSH4 0x2A365CBD GT PUSH2 0x112 JUMPI DUP1 PUSH4 0x2A365CBD EQ PUSH2 0x36A JUMPI DUP1 PUSH4 0x524886D2 EQ PUSH2 0x38A JUMPI DUP1 PUSH4 0x54FD4D50 EQ PUSH2 0x3AA JUMPI PUSH1 0x0 DUP1 REVERT JUMPDEST DUP1 PUSH4 0x1AB08563 EQ PUSH2 0x308 JUMPI DUP1 PUSH4 0x20C13B0B EQ PUSH2 0x32A JUMPI DUP1 PUSH4 0x286936BB EQ PUSH2 0x34A JUMPI PUSH1 0x0 DUP1 REVERT JUMPDEST DUP1 PUSH4 0xD992B2B GT PUSH2 0x169 JUMPI DUP1 PUSH4 0xD992B2B EQ PUSH2 0x245 JUMPI DUP1 PUSH4 0x150B7A02 EQ PUSH2 0x272 JUMPI DUP1 PUSH4 0x1626BA7E EQ PUSH2 0x2E8 JUMPI PUSH1 0x0 DUP1 REVERT JUMPDEST DUP1 PUSH4 0x1FFC9A7 EQ PUSH2 0x190 JUMPI DUP1 PUSH4 0x6E82383 EQ PUSH2 0x207 JUMPI PUSH1 0x0 DUP1 REVERT JUMPDEST CALLDATASIZE PUSH2 0x18B JUMPI STOP JUMPDEST PUSH1 0x0 DUP1 REVERT JUMPDEST CALLVALUE DUP1 ISZERO PUSH2 0x19C JUMPI PUSH1 0x0 DUP1 REVERT JUMPDEST POP PUSH2 0x1F2 PUSH2 0x1AB CALLDATASIZE PUSH1 0x4 PUSH2 0x2B89 JUMP JUMPDEST PUSH32 0xFFFFFFFF00000000000000000000000000000000000000000000000000000000 AND PUSH32 0x1FFC9A700000000000000000000000000000000000000000000000000000000 EQ SWAP1 JUMP JUMPDEST PUSH1 0x40 MLOAD SWAP1 ISZERO ISZERO DUP2 MSTORE PUSH1 0x20 ADD JUMPDEST PUSH1 0x40 MLOAD DUP1 SWAP2 SUB SWAP1 RETURN JUMPDEST CALLVALUE DUP1 ISZERO PUSH2 0x213 JUMPI PUSH1 0x0 DUP1 REVERT JUMPDEST POP PUSH32 0x255F4A56BD3AD76424E31ED8855EF9AD14A0CE4E67508C76FF082E5C1466B130 SLOAD JUMPDEST PUSH1 0x40 MLOAD SWAP1 DUP2 MSTORE PUSH1 0x20 ADD PUSH2 0x1FE JUMP JUMPDEST CALLVALUE DUP1 ISZERO PUSH2 0x251 JUMPI PUSH1 0x0 DUP1 REVERT JUMPDEST POP PUSH2 0x265 PUSH2 0x260 CALLDATASIZE PUSH1 0x4 PUSH2 0x2C10 JUMP JUMPDEST PUSH2 0x618 JUMP JUMPDEST PUSH1 0x40 MLOAD PUSH2 0x1FE SWAP2 SWAP1 PUSH2 0x2CE0 JUMP JUMPDEST CALLVALUE DUP1 ISZERO PUSH2 0x27E JUMPI PUSH1 0x0 DUP1 REVERT JUMPDEST POP PUSH2 0x2B7 PUSH2 0x28D CALLDATASIZE PUSH1 0x4 PUSH2 0x2DCB JUMP JUMPDEST PUSH32 0x150B7A0200000000000000000000000000000000000000000000000000000000 SWAP6 SWAP5 POP POP POP POP POP JUMP JUMPDEST PUSH1 0x40 MLOAD PUSH32 0xFFFFFFFF00000000000000000000000000000000000000000000000000000000 SWAP1 SWAP2 AND DUP2 MSTORE PUSH1 0x20 ADD PUSH2 0x1FE JUMP JUMPDEST CALLVALUE DUP1 ISZERO PUSH2 0x2F4 JUMPI PUSH1 0x0 DUP1 REVERT JUMPDEST POP PUSH2 0x2B7 PUSH2 0x303 CALLDATASIZE PUSH1 0x4 PUSH2 0x2E3A JUMP JUMPDEST PUSH2 0x847 JUMP JUMPDEST CALLVALUE DUP1 ISZERO PUSH2 0x314 JUMPI PUSH1 0x0 DUP1 REVERT JUMPDEST POP PUSH2 0x328 PUSH2 0x323 CALLDATASIZE PUSH1 0x4 PUSH2 0x2E9E JUMP JUMPDEST PUSH2 0x88B JUMP JUMPDEST STOP JUMPDEST CALLVALUE DUP1 ISZERO PUSH2 0x336 JUMPI PUSH1 0x0 DUP1 REVERT JUMPDEST POP PUSH2 0x2B7 PUSH2 0x345 CALLDATASIZE PUSH1 0x4 PUSH2 0x2EF5 JUMP JUMPDEST PUSH2 0xABD JUMP JUMPDEST CALLVALUE DUP1 ISZERO PUSH2 0x356 JUMPI PUSH1 0x0 DUP1 REVERT JUMPDEST POP PUSH2 0x328 PUSH2 0x365 CALLDATASIZE PUSH1 0x4 PUSH2 0x2F55 JUMP JUMPDEST PUSH2 0xB19 JUMP JUMPDEST CALLVALUE DUP1 ISZERO PUSH2 0x376 JUMPI PUSH1 0x0 DUP1 REVERT JUMPDEST POP PUSH2 0x328 PUSH2 0x385 CALLDATASIZE PUSH1 0x4 PUSH2 0x2FBE JUMP JUMPDEST PUSH2 0xCCC JUMP JUMPDEST CALLVALUE DUP1 ISZERO PUSH2 0x396 JUMPI PUSH1 0x0 DUP1 REVERT JUMPDEST POP PUSH2 0x265 PUSH2 0x3A5 CALLDATASIZE PUSH1 0x4 PUSH2 0x305D JUMP JUMPDEST PUSH2 0xF76 JUMP JUMPDEST CALLVALUE DUP1 ISZERO PUSH2 0x3B6 JUMPI PUSH1 0x0 DUP1 REVERT JUMPDEST POP PUSH2 0x3F3 PUSH1 0x40 MLOAD DUP1 PUSH1 0x40 ADD PUSH1 0x40 MSTORE DUP1 PUSH1 0xB DUP2 MSTORE PUSH1 0x20 ADD PUSH32 0x616C7068612D312E302E30000000000000000000000000000000000000000000 DUP2 MSTORE POP DUP2 JUMP JUMPDEST PUSH1 0x40 MLOAD PUSH2 0x1FE SWAP2 SWAP1 PUSH2 0x309F JUMP JUMPDEST CALLVALUE DUP1 ISZERO PUSH2 0x40C JUMPI PUSH1 0x0 DUP1 REVERT JUMPDEST POP PUSH2 0x328 PUSH2 0x41B CALLDATASIZE PUSH1 0x4 PUSH2 0x30B2 JUMP JUMPDEST PUSH2 0x1035 JUMP JUMPDEST CALLVALUE DUP1 ISZERO PUSH2 0x42C JUMPI PUSH1 0x0 DUP1 REVERT JUMPDEST POP PUSH2 0x328 PUSH2 0x43B CALLDATASIZE PUSH1 0x4 PUSH2 0x30F9 JUMP JUMPDEST PUSH2 0x1299 JUMP JUMPDEST CALLVALUE DUP1 ISZERO PUSH2 0x44C JUMPI PUSH1 0x0 DUP1 REVERT JUMPDEST POP PUSH2 0x3F3 PUSH2 0x45B CALLDATASIZE PUSH1 0x4 PUSH2 0x313B JUMP JUMPDEST PUSH2 0x14EE JUMP JUMPDEST CALLVALUE DUP1 ISZERO PUSH2 0x46C JUMPI PUSH1 0x0 DUP1 REVERT JUMPDEST POP PUSH32 0x255F4A56BD3AD76424E31ED8855EF9AD14A0CE4E67508C76FF082E5C1466B12F SLOAD PUSH2 0x237 JUMP JUMPDEST CALLVALUE DUP1 ISZERO PUSH2 0x4A0 JUMPI PUSH1 0x0 DUP1 REVERT JUMPDEST POP PUSH2 0x328 PUSH2 0x4AF CALLDATASIZE PUSH1 0x4 PUSH2 0x3197 JUMP JUMPDEST PUSH2 0x165C JUMP JUMPDEST CALLVALUE DUP1 ISZERO PUSH2 0x4C0 JUMPI PUSH1 0x0 DUP1 REVERT JUMPDEST POP PUSH2 0x2B7 PUSH2 0x4CF CALLDATASIZE PUSH1 0x4 PUSH2 0x323B JUMP JUMPDEST PUSH32 0xBC197C8100000000000000000000000000000000000000000000000000000000 SWAP9 SWAP8 POP POP POP POP POP POP POP POP JUMP JUMPDEST CALLVALUE DUP1 ISZERO PUSH2 0x508 JUMPI PUSH1 0x0 DUP1 REVERT JUMPDEST POP PUSH2 0x328 PUSH2 0x517 CALLDATASIZE PUSH1 0x4 PUSH2 0x32F6 JUMP JUMPDEST PUSH2 0x182E JUMP JUMPDEST CALLVALUE DUP1 ISZERO PUSH2 0x528 JUMPI PUSH1 0x0 DUP1 REVERT JUMPDEST POP PUSH2 0x328 PUSH2 0x537 CALLDATASIZE PUSH1 0x4 PUSH2 0x3311 JUMP JUMPDEST PUSH2 0x1912 JUMP JUMPDEST CALLVALUE DUP1 ISZERO PUSH2 0x548 JUMPI PUSH1 0x0 DUP1 REVERT JUMPDEST POP PUSH2 0x3F3 PUSH2 0x557 CALLDATASIZE PUSH1 0x4 PUSH2 0x3368 JUMP JUMPDEST PUSH2 0x1C35 JUMP JUMPDEST CALLVALUE DUP1 ISZERO PUSH2 0x568 JUMPI PUSH1 0x0 DUP1 REVERT JUMPDEST POP PUSH2 0x237 PUSH2 0x577 CALLDATASIZE PUSH1 0x4 PUSH2 0x32F6 JUMP JUMPDEST PUSH20 0xFFFFFFFFFFFFFFFFFFFFFFFFFFFFFFFFFFFFFFFF AND PUSH1 0x0 SWAP1 DUP2 MSTORE PUSH32 0x255F4A56BD3AD76424E31ED8855EF9AD14A0CE4E67508C76FF082E5C1466B131 PUSH1 0x20 MSTORE PUSH1 0x40 SWAP1 KECCAK256 SLOAD SWAP1 JUMP JUMPDEST CALLVALUE DUP1 ISZERO PUSH2 0x5CA JUMPI PUSH1 0x0 DUP1 REVERT JUMPDEST POP PUSH2 0x2B7 PUSH2 0x5D9 CALLDATASIZE PUSH1 0x4 PUSH2 0x339D JUMP JUMPDEST PUSH32 0xF23A6E6100000000000000000000000000000000000000000000000000000000 SWAP7 SWAP6 POP POP POP POP POP POP JUMP JUMPDEST CALLVALUE DUP1 ISZERO PUSH2 0x610 JUMPI PUSH1 0x0 DUP1 REVERT JUMPDEST POP PUSH1 0x1 PUSH2 0x1F2 JUMP JUMPDEST PUSH1 0x60 DUP5 DUP5 CHAINID PUSH1 0x40 MLOAD PUSH1 0x20 ADD PUSH2 0x62F SWAP4 SWAP3 SWAP2 SWAP1 PUSH2 0x3524 JUMP JUMPDEST PUSH1 0x40 DUP1 MLOAD PUSH32 0xFFFFFFFFFFFFFFFFFFFFFFFFFFFFFFFFFFFFFFFFFFFFFFFFFFFFFFFFFFFFFFE0 DUP2 DUP5 SUB ADD DUP2 MSTORE SWAP2 SWAP1 MSTORE DUP1 MLOAD PUSH1 0x20 SWAP1 SWAP2 ADD KECCAK256 DUP4 DUP4 PUSH1 0x0 DUP1 PUSH2 0x67D DUP6 PUSH2 0x678 DUP6 DUP8 PUSH2 0x3657 JUMP JUMPDEST PUSH2 0x1FC5 JUMP JUMPDEST SWAP2 POP SWAP2 POP DUP2 DUP2 SWAP1 PUSH2 0x6C4 JUMPI PUSH1 0x40 MLOAD PUSH32 0x8C379A000000000000000000000000000000000000000000000000000000000 DUP2 MSTORE PUSH1 0x4 ADD PUSH2 0x6BB SWAP2 SWAP1 PUSH2 0x309F JUMP JUMPDEST PUSH1 0x40 MLOAD DUP1 SWAP2 SUB SWAP1 REVERT JUMPDEST POP PUSH1 0x0 JUMPDEST DUP4 DUP2 LT ISZERO PUSH2 0x77F JUMPI PUSH1 0x1 PUSH32 0x255F4A56BD3AD76424E31ED8855EF9AD14A0CE4E67508C76FF082E5C1466B132 PUSH1 0x0 DUP8 DUP8 DUP6 DUP2 DUP2 LT PUSH2 0x707 JUMPI PUSH2 0x707 PUSH2 0x373E JUMP JUMPDEST SWAP1 POP PUSH1 0x20 MUL DUP2 ADD SWAP1 PUSH2 0x719 SWAP2 SWAP1 PUSH2 0x376D JUMP JUMPDEST PUSH1 0x40 MLOAD PUSH2 0x727 SWAP3 SWAP2 SWAP1 PUSH2 0x37D2 JUMP JUMPDEST PUSH1 0x40 DUP1 MLOAD SWAP2 DUP3 SWAP1 SUB SWAP1 SWAP2 KECCAK256 DUP3 MSTORE PUSH1 0x20 DUP3 ADD SWAP3 SWAP1 SWAP3 MSTORE ADD PUSH1 0x0 KECCAK256 DUP1 SLOAD PUSH32 0xFFFFFFFFFFFFFFFFFFFFFFFFFFFFFFFFFFFFFFFFFFFFFFFFFFFFFFFFFFFFFF00 AND SWAP2 ISZERO ISZERO SWAP2 SWAP1 SWAP2 OR SWAP1 SSTORE DUP1 PUSH2 0x777 DUP2 PUSH2 0x3811 JUMP JUMPDEST SWAP2 POP POP PUSH2 0x6C8 JUMP JUMPDEST POP PUSH1 0x0 DUP10 PUSH8 0xFFFFFFFFFFFFFFFF DUP2 GT ISZERO PUSH2 0x79B JUMPI PUSH2 0x79B PUSH2 0x35D9 JUMP JUMPDEST PUSH1 0x40 MLOAD SWAP1 DUP1 DUP3 MSTORE DUP1 PUSH1 0x20 MUL PUSH1 0x20 ADD DUP3 ADD PUSH1 0x40 MSTORE DUP1 ISZERO PUSH2 0x7CE JUMPI DUP2 PUSH1 0x20 ADD JUMPDEST PUSH1 0x60 DUP2 MSTORE PUSH1 0x20 ADD SWAP1 PUSH1 0x1 SWAP1 SUB SWAP1 DUP2 PUSH2 0x7B9 JUMPI SWAP1 POP JUMPDEST POP SWAP1 POP PUSH1 0x0 JUMPDEST DUP11 DUP2 LT ISZERO PUSH2 0x838 JUMPI PUSH2 0x808 DUP13 DUP13 DUP4 DUP2 DUP2 LT PUSH2 0x7F1 JUMPI PUSH2 0x7F1 PUSH2 0x373E JUMP JUMPDEST SWAP1 POP PUSH1 0x20 MUL DUP2 ADD SWAP1 PUSH2 0x803 SWAP2 SWAP1 PUSH2 0x3849 JUMP JUMPDEST PUSH2 0x21D0 JUMP JUMPDEST DUP3 DUP3 DUP2 MLOAD DUP2 LT PUSH2 0x81A JUMPI PUSH2 0x81A PUSH2 0x373E JUMP JUMPDEST PUSH1 0x20 MUL PUSH1 0x20 ADD ADD DUP2 SWAP1 MSTORE POP DUP1 DUP1 PUSH2 0x830 SWAP1 PUSH2 0x3811 JUMP JUMPDEST SWAP2 POP POP PUSH2 0x7D4 JUMP JUMPDEST POP SWAP11 SWAP10 POP POP POP POP POP POP POP POP POP POP JUMP JUMPDEST PUSH1 0x0 PUSH2 0x854 DUP5 DUP5 DUP5 PUSH2 0x226C JUMP JUMPDEST ISZERO PUSH2 0x880 JUMPI POP PUSH32 0x1626BA7E00000000000000000000000000000000000000000000000000000000 PUSH2 0x884 JUMP JUMPDEST POP PUSH1 0x0 JUMPDEST SWAP4 SWAP3 POP POP POP JUMP JUMPDEST DUP4 DUP4 CHAINID PUSH1 0x40 MLOAD PUSH1 0x20 ADD PUSH2 0x8A0 SWAP4 SWAP3 SWAP2 SWAP1 PUSH2 0x38D6 JUMP JUMPDEST PUSH1 0x40 DUP1 MLOAD PUSH32 0xFFFFFFFFFFFFFFFFFFFFFFFFFFFFFFFFFFFFFFFFFFFFFFFFFFFFFFFFFFFFFFE0 DUP2 DUP5 SUB ADD DUP2 MSTORE SWAP2 SWAP1 MSTORE DUP1 MLOAD PUSH1 0x20 SWAP1 SWAP2 ADD KECCAK256 DUP3 DUP3 PUSH1 0x0 DUP1 PUSH2 0x8E9 DUP6 PUSH2 0x678 DUP6 DUP8 PUSH2 0x3657 JUMP JUMPDEST SWAP2 POP SWAP2 POP DUP2 DUP2 SWAP1 PUSH2 0x927 JUMPI PUSH1 0x40 MLOAD PUSH32 0x8C379A000000000000000000000000000000000000000000000000000000000 DUP2 MSTORE PUSH1 0x4 ADD PUSH2 0x6BB SWAP2 SWAP1 PUSH2 0x309F JUMP JUMPDEST POP PUSH1 0x0 JUMPDEST DUP4 DUP2 LT ISZERO PUSH2 0x9E2 JUMPI PUSH1 0x1 PUSH32 0x255F4A56BD3AD76424E31ED8855EF9AD14A0CE4E67508C76FF082E5C1466B132 PUSH1 0x0 DUP8 DUP8 DUP6 DUP2 DUP2 LT PUSH2 0x96A JUMPI PUSH2 0x96A PUSH2 0x373E JUMP JUMPDEST SWAP1 POP PUSH1 0x20 MUL DUP2 ADD SWAP1 PUSH2 0x97C SWAP2 SWAP1 PUSH2 0x376D JUMP JUMPDEST PUSH1 0x40 MLOAD PUSH2 0x98A SWAP3 SWAP2 SWAP1 PUSH2 0x37D2 JUMP JUMPDEST PUSH1 0x40 DUP1 MLOAD SWAP2 DUP3 SWAP1 SUB SWAP1 SWAP2 KECCAK256 DUP3 MSTORE PUSH1 0x20 DUP3 ADD SWAP3 SWAP1 SWAP3 MSTORE ADD PUSH1 0x0 KECCAK256 DUP1 SLOAD PUSH32 0xFFFFFFFFFFFFFFFFFFFFFFFFFFFFFFFFFFFFFFFFFFFFFFFFFFFFFFFFFFFFFF00 AND SWAP2 ISZERO ISZERO SWAP2 SWAP1 SWAP2 OR SWAP1 SSTORE DUP1 PUSH2 0x9DA DUP2 PUSH2 0x3811 JUMP JUMPDEST SWAP2 POP POP PUSH2 0x92B JUMP JUMPDEST POP PUSH32 0xA7C6065F73528A079B6BD396854CFC70D8B5A045D4821E6DB173081678A52765 PUSH1 0x0 PUSH2 0xA13 PUSH1 0x20 DUP13 ADD DUP13 PUSH2 0x32F6 JUMP JUMPDEST PUSH2 0xA23 PUSH1 0x40 DUP14 ADD PUSH1 0x20 DUP15 ADD PUSH2 0x32F6 JUMP JUMPDEST PUSH1 0x40 DUP14 ADD CALLDATALOAD PUSH2 0xA35 PUSH1 0x60 DUP16 ADD DUP16 PUSH2 0x376D JUMP JUMPDEST PUSH1 0x40 MLOAD PUSH1 0x20 ADD PUSH2 0xA49 SWAP6 SWAP5 SWAP4 SWAP3 SWAP2 SWAP1 PUSH2 0x38FB JUMP JUMPDEST PUSH1 0x40 DUP1 MLOAD PUSH32 0xFFFFFFFFFFFFFFFFFFFFFFFFFFFFFFFFFFFFFFFFFFFFFFFFFFFFFFFFFFFFFFE0 DUP2 DUP5 SUB ADD DUP2 MSTORE SWAP2 DUP2 MSTORE DUP2 MLOAD PUSH1 0x20 SWAP3 DUP4 ADD KECCAK256 DUP4 MSTORE SWAP1 DUP3 ADD SWAP3 SWAP1 SWAP3 MSTORE ADD PUSH1 0x0 KECCAK256 DUP1 SLOAD PUSH32 0xFFFFFFFF00000000000000000000000000000000000000000000000000000000 AND SWAP1 SSTORE POP POP POP POP POP POP POP POP POP JUMP JUMPDEST PUSH1 0x0 PUSH2 0xAE1 DUP6 DUP6 PUSH1 0x40 MLOAD PUSH2 0xAD2 SWAP3 SWAP2 SWAP1 PUSH2 0x37D2 JUMP JUMPDEST PUSH1 0x40 MLOAD DUP1 SWAP2 SUB SWAP1 KECCAK256 DUP5 DUP5 PUSH2 0x226C JUMP JUMPDEST ISZERO PUSH2 0xB0D JUMPI POP PUSH32 0x20C13B0B00000000000000000000000000000000000000000000000000000000 PUSH2 0xB11 JUMP JUMPDEST POP PUSH1 0x0 JUMPDEST SWAP5 SWAP4 POP POP POP POP JUMP JUMPDEST DUP5 DUP5 DUP5 CHAINID PUSH1 0x40 MLOAD PUSH1 0x20 ADD PUSH2 0xB30 SWAP5 SWAP4 SWAP3 SWAP2 SWAP1 PUSH2 0x399A JUMP JUMPDEST PUSH1 0x40 DUP1 MLOAD PUSH32 0xFFFFFFFFFFFFFFFFFFFFFFFFFFFFFFFFFFFFFFFFFFFFFFFFFFFFFFFFFFFFFFE0 DUP2 DUP5 SUB ADD DUP2 MSTORE SWAP2 SWAP1 MSTORE DUP1 MLOAD PUSH1 0x20 SWAP1 SWAP2 ADD KECCAK256 DUP3 DUP3 PUSH1 0x0 DUP1 PUSH2 0xB79 DUP6 PUSH2 0x678 DUP6 DUP8 PUSH2 0x3657 JUMP JUMPDEST SWAP2 POP SWAP2 POP DUP2 DUP2 SWAP1 PUSH2 0xBB7 JUMPI PUSH1 0x40 MLOAD PUSH32 0x8C379A000000000000000000000000000000000000000000000000000000000 DUP2 MSTORE PUSH1 0x4 ADD PUSH2 0x6BB SWAP2 SWAP1 PUSH2 0x309F JUMP JUMPDEST POP PUSH1 0x0 JUMPDEST DUP4 DUP2 LT ISZERO PUSH2 0xC72 JUMPI PUSH1 0x1 PUSH32 0x255F4A56BD3AD76424E31ED8855EF9AD14A0CE4E67508C76FF082E5C1466B132 PUSH1 0x0 DUP8 DUP8 DUP6 DUP2 DUP2 LT PUSH2 0xBFA JUMPI PUSH2 0xBFA PUSH2 0x373E JUMP JUMPDEST SWAP1 POP PUSH1 0x20 MUL DUP2 ADD SWAP1 PUSH2 0xC0C SWAP2 SWAP1 PUSH2 0x376D JUMP JUMPDEST PUSH1 0x40 MLOAD PUSH2 0xC1A SWAP3 SWAP2 SWAP1 PUSH2 0x37D2 JUMP JUMPDEST PUSH1 0x40 DUP1 MLOAD SWAP2 DUP3 SWAP1 SUB SWAP1 SWAP2 KECCAK256 DUP3 MSTORE PUSH1 0x20 DUP3 ADD SWAP3 SWAP1 SWAP3 MSTORE ADD PUSH1 0x0 KECCAK256 DUP1 SLOAD PUSH32 0xFFFFFFFFFFFFFFFFFFFFFFFFFFFFFFFFFFFFFFFFFFFFFFFFFFFFFFFFFFFFFF00 AND SWAP2 ISZERO ISZERO SWAP2 SWAP1 SWAP2 OR SWAP1 SSTORE DUP1 PUSH2 0xC6A DUP2 PUSH2 0x3811 JUMP JUMPDEST SWAP2 POP POP PUSH2 0xBBB JUMP JUMPDEST POP PUSH1 0x0 JUMPDEST DUP10 DUP2 LT ISZERO PUSH2 0xCBF JUMPI PUSH2 0xCAD DUP12 DUP12 DUP4 DUP2 DUP2 LT PUSH2 0xC93 JUMPI PUSH2 0xC93 PUSH2 0x373E JUMP JUMPDEST SWAP1 POP PUSH1 0x20 MUL ADD PUSH1 0x20 DUP2 ADD SWAP1 PUSH2 0xCA8 SWAP2 SWAP1 PUSH2 0x32F6 JUMP JUMPDEST PUSH2 0x2408 JUMP JUMPDEST DUP1 PUSH2 0xCB7 DUP2 PUSH2 0x3811 JUMP JUMPDEST SWAP2 POP POP PUSH2 0xC76 JUMP JUMPDEST POP POP POP POP POP POP POP POP POP POP POP JUMP JUMPDEST DUP5 DUP5 DUP5 CHAINID PUSH1 0x40 MLOAD PUSH1 0x20 ADD PUSH2 0xCE3 SWAP5 SWAP4 SWAP3 SWAP2 SWAP1 PUSH2 0x39E9 JUMP JUMPDEST PUSH1 0x40 DUP1 MLOAD PUSH32 0xFFFFFFFFFFFFFFFFFFFFFFFFFFFFFFFFFFFFFFFFFFFFFFFFFFFFFFFFFFFFFFE0 DUP2 DUP5 SUB ADD DUP2 MSTORE SWAP2 SWAP1 MSTORE DUP1 MLOAD PUSH1 0x20 SWAP1 SWAP2 ADD KECCAK256 DUP3 DUP3 PUSH1 0x0 DUP1 PUSH2 0xD2C DUP6 PUSH2 0x678 DUP6 DUP8 PUSH2 0x3657 JUMP JUMPDEST SWAP2 POP SWAP2 POP DUP2 DUP2 SWAP1 PUSH2 0xD6A JUMPI PUSH1 0x40 MLOAD PUSH32 0x8C379A000000000000000000000000000000000000000000000000000000000 DUP2 MSTORE PUSH1 0x4 ADD PUSH2 0x6BB SWAP2 SWAP1 PUSH2 0x309F JUMP JUMPDEST POP PUSH1 0x0 JUMPDEST DUP4 DUP2 LT ISZERO PUSH2 0xE25 JUMPI PUSH1 0x1 PUSH32 0x255F4A56BD3AD76424E31ED8855EF9AD14A0CE4E67508C76FF082E5C1466B132 PUSH1 0x0 DUP8 DUP8 DUP6 DUP2 DUP2 LT PUSH2 0xDAD JUMPI PUSH2 0xDAD PUSH2 0x373E JUMP JUMPDEST SWAP1 POP PUSH1 0x20 MUL DUP2 ADD SWAP1 PUSH2 0xDBF SWAP2 SWAP1 PUSH2 0x376D JUMP JUMPDEST PUSH1 0x40 MLOAD PUSH2 0xDCD SWAP3 SWAP2 SWAP1 PUSH2 0x37D2 JUMP JUMPDEST PUSH1 0x40 DUP1 MLOAD SWAP2 DUP3 SWAP1 SUB SWAP1 SWAP2 KECCAK256 DUP3 MSTORE PUSH1 0x20 DUP3 ADD SWAP3 SWAP1 SWAP3 MSTORE ADD PUSH1 0x0 KECCAK256 DUP1 SLOAD PUSH32 0xFFFFFFFFFFFFFFFFFFFFFFFFFFFFFFFFFFFFFFFFFFFFFFFFFFFFFFFFFFFFFF00 AND SWAP2 ISZERO ISZERO SWAP2 SWAP1 SWAP2 OR SWAP1 SSTORE DUP1 PUSH2 0xE1D DUP2 PUSH2 0x3811 JUMP JUMPDEST SWAP2 POP POP PUSH2 0xD6E JUMP JUMPDEST POP PUSH1 0x0 PUSH2 0xE38 PUSH1 0xA0 DUP12 ADD PUSH1 0x80 DUP13 ADD PUSH2 0x3A8F JUMP JUMPDEST PUSH4 0xFFFFFFFF AND GT PUSH2 0xECB JUMPI PUSH1 0x40 MLOAD PUSH32 0x8C379A000000000000000000000000000000000000000000000000000000000 DUP2 MSTORE PUSH1 0x20 PUSH1 0x4 DUP3 ADD MSTORE PUSH1 0x32 PUSH1 0x24 DUP3 ADD MSTORE PUSH32 0x45786563757465526571756573745065726D697373696F6E2E6D617845786563 PUSH1 0x44 DUP3 ADD MSTORE PUSH32 0x75746573206D757374206E6F7420626520300000000000000000000000000000 PUSH1 0x64 DUP3 ADD MSTORE PUSH1 0x84 ADD PUSH2 0x6BB JUMP JUMPDEST DUP9 PUSH32 0xA7C6065F73528A079B6BD396854CFC70D8B5A045D4821E6DB173081678A52765 PUSH1 0x0 PUSH2 0xEFC PUSH1 0x20 DUP15 ADD DUP15 PUSH2 0x32F6 JUMP JUMPDEST DUP14 PUSH1 0x20 ADD PUSH1 0x20 DUP2 ADD SWAP1 PUSH2 0xF0F SWAP2 SWAP1 PUSH2 0x32F6 JUMP JUMPDEST DUP15 PUSH1 0x40 ADD CALLDATALOAD DUP16 DUP1 PUSH1 0x60 ADD SWAP1 PUSH2 0xF24 SWAP2 SWAP1 PUSH2 0x376D JUMP JUMPDEST PUSH1 0x40 MLOAD PUSH1 0x20 ADD PUSH2 0xF38 SWAP6 SWAP5 SWAP4 SWAP3 SWAP2 SWAP1 PUSH2 0x38FB JUMP JUMPDEST PUSH1 0x40 MLOAD PUSH1 0x20 DUP2 DUP4 SUB SUB DUP2 MSTORE SWAP1 PUSH1 0x40 MSTORE DUP1 MLOAD SWAP1 PUSH1 0x20 ADD KECCAK256 DUP2 MSTORE PUSH1 0x20 ADD SWAP1 DUP2 MSTORE PUSH1 0x20 ADD PUSH1 0x0 KECCAK256 DUP2 DUP2 PUSH2 0xF68 SWAP2 SWAP1 PUSH2 0x3AB9 JUMP JUMPDEST POP POP POP POP POP POP POP POP POP POP POP POP JUMP JUMPDEST PUSH1 0x60 PUSH1 0x0 DUP3 PUSH8 0xFFFFFFFFFFFFFFFF DUP2 GT ISZERO PUSH2 0xF93 JUMPI PUSH2 0xF93 PUSH2 0x35D9 JUMP JUMPDEST PUSH1 0x40 MLOAD SWAP1 DUP1 DUP3 MSTORE DUP1 PUSH1 0x20 MUL PUSH1 0x20 ADD DUP3 ADD PUSH1 0x40 MSTORE DUP1 ISZERO PUSH2 0xFC6 JUMPI DUP2 PUSH1 0x20 ADD JUMPDEST PUSH1 0x60 DUP2 MSTORE PUSH1 0x20 ADD SWAP1 PUSH1 0x1 SWAP1 SUB SWAP1 DUP2 PUSH2 0xFB1 JUMPI SWAP1 POP JUMPDEST POP SWAP1 POP PUSH1 0x0 JUMPDEST DUP4 DUP2 LT ISZERO PUSH2 0x102B JUMPI PUSH2 0xFFB DUP6 DUP6 DUP4 DUP2 DUP2 LT PUSH2 0xFE9 JUMPI PUSH2 0xFE9 PUSH2 0x373E JUMP JUMPDEST SWAP1 POP PUSH1 0x20 MUL DUP2 ADD SWAP1 PUSH2 0x557 SWAP2 SWAP1 PUSH2 0x3849 JUMP JUMPDEST DUP3 DUP3 DUP2 MLOAD DUP2 LT PUSH2 0x100D JUMPI PUSH2 0x100D PUSH2 0x373E JUMP JUMPDEST PUSH1 0x20 MUL PUSH1 0x20 ADD ADD DUP2 SWAP1 MSTORE POP DUP1 DUP1 PUSH2 0x1023 SWAP1 PUSH2 0x3811 JUMP JUMPDEST SWAP2 POP POP PUSH2 0xFCC JUMP JUMPDEST POP SWAP1 POP JUMPDEST SWAP3 SWAP2 POP POP JUMP JUMPDEST PUSH1 0x40 DUP1 MLOAD PUSH1 0x20 DUP2 ADD DUP7 SWAP1 MSTORE SWAP1 DUP2 ADD DUP5 SWAP1 MSTORE CHAINID PUSH1 0x60 DUP3 ADD MSTORE PUSH1 0x80 ADD PUSH1 0x40 DUP1 MLOAD PUSH32 0xFFFFFFFFFFFFFFFFFFFFFFFFFFFFFFFFFFFFFFFFFFFFFFFFFFFFFFFFFFFFFFE0 DUP2 DUP5 SUB ADD DUP2 MSTORE SWAP2 SWAP1 MSTORE DUP1 MLOAD PUSH1 0x20 SWAP1 SWAP2 ADD KECCAK256 DUP3 DUP3 PUSH1 0x0 DUP1 PUSH2 0x1098 DUP6 PUSH2 0x678 DUP6 DUP8 PUSH2 0x3657 JUMP JUMPDEST SWAP2 POP SWAP2 POP DUP2 DUP2 SWAP1 PUSH2 0x10D6 JUMPI PUSH1 0x40 MLOAD PUSH32 0x8C379A000000000000000000000000000000000000000000000000000000000 DUP2 MSTORE PUSH1 0x4 ADD PUSH2 0x6BB SWAP2 SWAP1 PUSH2 0x309F JUMP JUMPDEST POP PUSH1 0x0 JUMPDEST DUP4 DUP2 LT ISZERO PUSH2 0x1191 JUMPI PUSH1 0x1 PUSH32 0x255F4A56BD3AD76424E31ED8855EF9AD14A0CE4E67508C76FF082E5C1466B132 PUSH1 0x0 DUP8 DUP8 DUP6 DUP2 DUP2 LT PUSH2 0x1119 JUMPI PUSH2 0x1119 PUSH2 0x373E JUMP JUMPDEST SWAP1 POP PUSH1 0x20 MUL DUP2 ADD SWAP1 PUSH2 0x112B SWAP2 SWAP1 PUSH2 0x376D JUMP JUMPDEST PUSH1 0x40 MLOAD PUSH2 0x1139 SWAP3 SWAP2 SWAP1 PUSH2 0x37D2 JUMP JUMPDEST PUSH1 0x40 DUP1 MLOAD SWAP2 DUP3 SWAP1 SUB SWAP1 SWAP2 KECCAK256 DUP3 MSTORE PUSH1 0x20 DUP3 ADD SWAP3 SWAP1 SWAP3 MSTORE ADD PUSH1 0x0 KECCAK256 DUP1 SLOAD PUSH32 0xFFFFFFFFFFFFFFFFFFFFFFFFFFFFFFFFFFFFFFFFFFFFFFFFFFFFFFFFFFFFFF00 AND SWAP2 ISZERO ISZERO SWAP2 SWAP1 SWAP2 OR SWAP1 SSTORE DUP1 PUSH2 0x1189 DUP2 PUSH2 0x3811 JUMP JUMPDEST SWAP2 POP POP PUSH2 0x10DA JUMP JUMPDEST POP PUSH1 0x0 PUSH32 0x255F4A56BD3AD76424E31ED8855EF9AD14A0CE4E67508C76FF082E5C1466B12F SLOAD GT DUP1 ISZERO PUSH2 0x1205 JUMPI POP PUSH32 0x255F4A56BD3AD76424E31ED8855EF9AD14A0CE4E67508C76FF082E5C1466B130 SLOAD PUSH32 0x255F4A56BD3AD76424E31ED8855EF9AD14A0CE4E67508C76FF082E5C1466B12F SLOAD GT ISZERO JUMPDEST PUSH2 0x126B JUMPI PUSH1 0x40 MLOAD PUSH32 0x8C379A000000000000000000000000000000000000000000000000000000000 DUP2 MSTORE PUSH1 0x20 PUSH1 0x4 DUP3 ADD MSTORE PUSH1 0x11 PUSH1 0x24 DUP3 ADD MSTORE PUSH32 0x496E76616C6964207468726573686F6C64000000000000000000000000000000 PUSH1 0x44 DUP3 ADD MSTORE PUSH1 0x64 ADD PUSH2 0x6BB JUMP JUMPDEST DUP9 PUSH32 0x255F4A56BD3AD76424E31ED8855EF9AD14A0CE4E67508C76FF082E5C1466B12F SSTORE POP POP POP POP POP POP POP POP POP JUMP JUMPDEST PUSH1 0x40 DUP1 MLOAD PUSH20 0xFFFFFFFFFFFFFFFFFFFFFFFFFFFFFFFFFFFFFFFF DUP7 AND PUSH1 0x20 DUP3 ADD MSTORE SWAP1 DUP2 ADD DUP5 SWAP1 MSTORE CHAINID PUSH1 0x60 DUP3 ADD MSTORE PUSH1 0x80 ADD PUSH1 0x40 DUP1 MLOAD PUSH32 0xFFFFFFFFFFFFFFFFFFFFFFFFFFFFFFFFFFFFFFFFFFFFFFFFFFFFFFFFFFFFFFE0 DUP2 DUP5 SUB ADD DUP2 MSTORE SWAP2 SWAP1 MSTORE DUP1 MLOAD PUSH1 0x20 SWAP1 SWAP2 ADD KECCAK256 DUP3 DUP3 PUSH1 0x0 DUP1 PUSH2 0x1311 DUP6 PUSH2 0x678 DUP6 DUP8 PUSH2 0x3657 JUMP JUMPDEST SWAP2 POP SWAP2 POP DUP2 DUP2 SWAP1 PUSH2 0x134F JUMPI PUSH1 0x40 MLOAD PUSH32 0x8C379A000000000000000000000000000000000000000000000000000000000 DUP2 MSTORE PUSH1 0x4 ADD PUSH2 0x6BB SWAP2 SWAP1 PUSH2 0x309F JUMP JUMPDEST POP PUSH1 0x0 JUMPDEST DUP4 DUP2 LT ISZERO PUSH2 0x140A JUMPI PUSH1 0x1 PUSH32 0x255F4A56BD3AD76424E31ED8855EF9AD14A0CE4E67508C76FF082E5C1466B132 PUSH1 0x0 DUP8 DUP8 DUP6 DUP2 DUP2 LT PUSH2 0x1392 JUMPI PUSH2 0x1392 PUSH2 0x373E JUMP JUMPDEST SWAP1 POP PUSH1 0x20 MUL DUP2 ADD SWAP1 PUSH2 0x13A4 SWAP2 SWAP1 PUSH2 0x376D JUMP JUMPDEST PUSH1 0x40 MLOAD PUSH2 0x13B2 SWAP3 SWAP2 SWAP1 PUSH2 0x37D2 JUMP JUMPDEST PUSH1 0x40 DUP1 MLOAD SWAP2 DUP3 SWAP1 SUB SWAP1 SWAP2 KECCAK256 DUP3 MSTORE PUSH1 0x20 DUP3 ADD SWAP3 SWAP1 SWAP3 MSTORE ADD PUSH1 0x0 KECCAK256 DUP1 SLOAD PUSH32 0xFFFFFFFFFFFFFFFFFFFFFFFFFFFFFFFFFFFFFFFFFFFFFFFFFFFFFFFFFFFFFF00 AND SWAP2 ISZERO ISZERO SWAP2 SWAP1 SWAP2 OR SWAP1 SSTORE DUP1 PUSH2 0x1402 DUP2 PUSH2 0x3811 JUMP JUMPDEST SWAP2 POP POP PUSH2 0x1353 JUMP JUMPDEST POP DUP9 PUSH20 0xFFFFFFFFFFFFFFFFFFFFFFFFFFFFFFFFFFFFFFFF AND PUSH4 0xFEC5C09A PUSH1 0x40 MLOAD DUP2 PUSH4 0xFFFFFFFF AND PUSH1 0xE0 SHL DUP2 MSTORE PUSH1 0x4 ADD PUSH1 0x20 PUSH1 0x40 MLOAD DUP1 DUP4 SUB DUP2 DUP7 GAS STATICCALL ISZERO DUP1 ISZERO PUSH2 0x1456 JUMPI RETURNDATASIZE PUSH1 0x0 DUP1 RETURNDATACOPY RETURNDATASIZE PUSH1 0x0 REVERT JUMPDEST POP POP POP POP PUSH1 0x40 MLOAD RETURNDATASIZE PUSH1 0x1F NOT PUSH1 0x1F DUP3 ADD AND DUP3 ADD DUP1 PUSH1 0x40 MSTORE POP DUP2 ADD SWAP1 PUSH2 0x147A SWAP2 SWAP1 PUSH2 0x3C5D JUMP JUMPDEST PUSH2 0x14E0 JUMPI PUSH1 0x40 MLOAD PUSH32 0x8C379A000000000000000000000000000000000000000000000000000000000 DUP2 MSTORE PUSH1 0x20 PUSH1 0x4 DUP3 ADD MSTORE PUSH1 0x16 PUSH1 0x24 DUP3 ADD MSTORE PUSH32 0x496E76616C696420696D706C656D656E746174696F6E00000000000000000000 PUSH1 0x44 DUP3 ADD MSTORE PUSH1 0x64 ADD PUSH2 0x6BB JUMP JUMPDEST DUP9 ADDRESS SSTORE POP POP POP POP POP POP POP POP POP JUMP JUMPDEST PUSH1 0x60 DUP4 CHAINID PUSH1 0x40 MLOAD PUSH1 0x20 ADD PUSH2 0x1503 SWAP3 SWAP2 SWAP1 PUSH2 0x3C7F JUMP JUMPDEST PUSH1 0x40 DUP1 MLOAD PUSH32 0xFFFFFFFFFFFFFFFFFFFFFFFFFFFFFFFFFFFFFFFFFFFFFFFFFFFFFFFFFFFFFFE0 DUP2 DUP5 SUB ADD DUP2 MSTORE SWAP2 SWAP1 MSTORE DUP1 MLOAD PUSH1 0x20 SWAP1 SWAP2 ADD KECCAK256 DUP4 DUP4 PUSH1 0x0 DUP1 PUSH2 0x154C DUP6 PUSH2 0x678 DUP6 DUP8 PUSH2 0x3657 JUMP JUMPDEST SWAP2 POP SWAP2 POP DUP2 DUP2 SWAP1 PUSH2 0x158A JUMPI PUSH1 0x40 MLOAD PUSH32 0x8C379A000000000000000000000000000000000000000000000000000000000 DUP2 MSTORE PUSH1 0x4 ADD PUSH2 0x6BB SWAP2 SWAP1 PUSH2 0x309F JUMP JUMPDEST POP PUSH1 0x0 JUMPDEST DUP4 DUP2 LT ISZERO PUSH2 0x1645 JUMPI PUSH1 0x1 PUSH32 0x255F4A56BD3AD76424E31ED8855EF9AD14A0CE4E67508C76FF082E5C1466B132 PUSH1 0x0 DUP8 DUP8 DUP6 DUP2 DUP2 LT PUSH2 0x15CD JUMPI PUSH2 0x15CD PUSH2 0x373E JUMP JUMPDEST SWAP1 POP PUSH1 0x20 MUL DUP2 ADD SWAP1 PUSH2 0x15DF SWAP2 SWAP1 PUSH2 0x376D JUMP JUMPDEST PUSH1 0x40 MLOAD PUSH2 0x15ED SWAP3 SWAP2 SWAP1 PUSH2 0x37D2 JUMP JUMPDEST PUSH1 0x40 DUP1 MLOAD SWAP2 DUP3 SWAP1 SUB SWAP1 SWAP2 KECCAK256 DUP3 MSTORE PUSH1 0x20 DUP3 ADD SWAP3 SWAP1 SWAP3 MSTORE ADD PUSH1 0x0 KECCAK256 DUP1 SLOAD PUSH32 0xFFFFFFFFFFFFFFFFFFFFFFFFFFFFFFFFFFFFFFFFFFFFFFFFFFFFFFFFFFFFFF00 AND SWAP2 ISZERO ISZERO SWAP2 SWAP1 SWAP2 OR SWAP1 SSTORE DUP1 PUSH2 0x163D DUP2 PUSH2 0x3811 JUMP JUMPDEST SWAP2 POP POP PUSH2 0x158E JUMP JUMPDEST POP PUSH2 0x164F DUP10 PUSH2 0x21D0 JUMP JUMPDEST SWAP10 SWAP9 POP POP POP POP POP POP POP POP POP JUMP JUMPDEST DUP7 DUP7 DUP7 DUP7 DUP7 CHAINID PUSH1 0x40 MLOAD PUSH1 0x20 ADD PUSH2 0x1677 SWAP7 SWAP6 SWAP5 SWAP4 SWAP3 SWAP2 SWAP1 PUSH2 0x3CA1 JUMP JUMPDEST PUSH1 0x40 DUP1 MLOAD PUSH32 0xFFFFFFFFFFFFFFFFFFFFFFFFFFFFFFFFFFFFFFFFFFFFFFFFFFFFFFFFFFFFFFE0 DUP2 DUP5 SUB ADD DUP2 MSTORE SWAP2 SWAP1 MSTORE DUP1 MLOAD PUSH1 0x20 SWAP1 SWAP2 ADD KECCAK256 DUP3 DUP3 PUSH1 0x0 DUP1 PUSH2 0x16C0 DUP6 PUSH2 0x678 DUP6 DUP8 PUSH2 0x3657 JUMP JUMPDEST SWAP2 POP SWAP2 POP DUP2 DUP2 SWAP1 PUSH2 0x16FE JUMPI PUSH1 0x40 MLOAD PUSH32 0x8C379A000000000000000000000000000000000000000000000000000000000 DUP2 MSTORE PUSH1 0x4 ADD PUSH2 0x6BB SWAP2 SWAP1 PUSH2 0x309F JUMP JUMPDEST POP PUSH1 0x0 JUMPDEST DUP4 DUP2 LT ISZERO PUSH2 0x17B9 JUMPI PUSH1 0x1 PUSH32 0x255F4A56BD3AD76424E31ED8855EF9AD14A0CE4E67508C76FF082E5C1466B132 PUSH1 0x0 DUP8 DUP8 DUP6 DUP2 DUP2 LT PUSH2 0x1741 JUMPI PUSH2 0x1741 PUSH2 0x373E JUMP JUMPDEST SWAP1 POP PUSH1 0x20 MUL DUP2 ADD SWAP1 PUSH2 0x1753 SWAP2 SWAP1 PUSH2 0x376D JUMP JUMPDEST PUSH1 0x40 MLOAD PUSH2 0x1761 SWAP3 SWAP2 SWAP1 PUSH2 0x37D2 JUMP JUMPDEST PUSH1 0x40 DUP1 MLOAD SWAP2 DUP3 SWAP1 SUB SWAP1 SWAP2 KECCAK256 DUP3 MSTORE PUSH1 0x20 DUP3 ADD SWAP3 SWAP1 SWAP3 MSTORE ADD PUSH1 0x0 KECCAK256 DUP1 SLOAD PUSH32 0xFFFFFFFFFFFFFFFFFFFFFFFFFFFFFFFFFFFFFFFFFFFFFFFFFFFFFFFFFFFFFF00 AND SWAP2 ISZERO ISZERO SWAP2 SWAP1 SWAP2 OR SWAP1 SSTORE DUP1 PUSH2 0x17B1 DUP2 PUSH2 0x3811 JUMP JUMPDEST SWAP2 POP POP PUSH2 0x1702 JUMP JUMPDEST POP PUSH1 0x0 JUMPDEST DUP12 DUP2 LT ISZERO PUSH2 0x181F JUMPI PUSH2 0x180D DUP14 DUP14 DUP4 DUP2 DUP2 LT PUSH2 0x17DA JUMPI PUSH2 0x17DA PUSH2 0x373E JUMP JUMPDEST SWAP1 POP PUSH1 0x20 MUL ADD PUSH1 0x20 DUP2 ADD SWAP1 PUSH2 0x17EF SWAP2 SWAP1 PUSH2 0x32F6 JUMP JUMPDEST DUP13 DUP13 DUP5 DUP2 DUP2 LT PUSH2 0x1801 JUMPI PUSH2 0x1801 PUSH2 0x373E JUMP JUMPDEST SWAP1 POP PUSH1 0x20 MUL ADD CALLDATALOAD PUSH2 0x25A2 JUMP JUMPDEST DUP1 PUSH2 0x1817 DUP2 PUSH2 0x3811 JUMP JUMPDEST SWAP2 POP POP PUSH2 0x17BD JUMP JUMPDEST POP POP POP POP POP POP POP POP POP POP POP POP POP JUMP JUMPDEST PUSH32 0x8480F6681DE262F06542A42E126DE05EBACA6A167394778F7693338DDB42E1B4 SLOAD PUSH1 0xFF AND ISZERO PUSH2 0x18BA JUMPI PUSH1 0x40 MLOAD PUSH32 0x8C379A000000000000000000000000000000000000000000000000000000000 DUP2 MSTORE PUSH1 0x20 PUSH1 0x4 DUP3 ADD MSTORE PUSH1 0x13 PUSH1 0x24 DUP3 ADD MSTORE PUSH32 0x416C726561647920696E697469616C697A656400000000000000000000000000 PUSH1 0x44 DUP3 ADD MSTORE PUSH1 0x64 ADD PUSH2 0x6BB JUMP JUMPDEST PUSH2 0x18C5 DUP2 PUSH1 0x1 PUSH2 0x25A2 JUMP JUMPDEST POP PUSH32 0x8480F6681DE262F06542A42E126DE05EBACA6A167394778F7693338DDB42E1B4 DUP1 SLOAD PUSH32 0xFFFFFFFFFFFFFFFFFFFFFFFFFFFFFFFFFFFFFFFFFFFFFFFFFFFFFFFFFFFFFF00 AND PUSH1 0x1 OR SWAP1 SSTORE JUMP JUMPDEST PUSH1 0x40 DUP1 MLOAD PUSH20 0xFFFFFFFFFFFFFFFFFFFFFFFFFFFFFFFFFFFFFFFF DUP8 AND PUSH1 0x20 DUP3 ADD MSTORE SWAP1 DUP2 ADD DUP6 SWAP1 MSTORE PUSH1 0x60 DUP2 ADD DUP5 SWAP1 MSTORE CHAINID PUSH1 0x80 DUP3 ADD MSTORE PUSH1 0xA0 ADD PUSH1 0x40 DUP1 MLOAD PUSH32 0xFFFFFFFFFFFFFFFFFFFFFFFFFFFFFFFFFFFFFFFFFFFFFFFFFFFFFFFFFFFFFFE0 DUP2 DUP5 SUB ADD DUP2 MSTORE SWAP2 SWAP1 MSTORE DUP1 MLOAD PUSH1 0x20 SWAP1 SWAP2 ADD KECCAK256 DUP3 DUP3 PUSH1 0x0 DUP1 PUSH2 0x1991 DUP6 PUSH2 0x678 DUP6 DUP8 PUSH2 0x3657 JUMP JUMPDEST SWAP2 POP SWAP2 POP DUP2 DUP2 SWAP1 PUSH2 0x19CF JUMPI PUSH1 0x40 MLOAD PUSH32 0x8C379A000000000000000000000000000000000000000000000000000000000 DUP2 MSTORE PUSH1 0x4 ADD PUSH2 0x6BB SWAP2 SWAP1 PUSH2 0x309F JUMP JUMPDEST POP PUSH1 0x0 JUMPDEST DUP4 DUP2 LT ISZERO PUSH2 0x1A8A JUMPI PUSH1 0x1 PUSH32 0x255F4A56BD3AD76424E31ED8855EF9AD14A0CE4E67508C76FF082E5C1466B132 PUSH1 0x0 DUP8 DUP8 DUP6 DUP2 DUP2 LT PUSH2 0x1A12 JUMPI PUSH2 0x1A12 PUSH2 0x373E JUMP JUMPDEST SWAP1 POP PUSH1 0x20 MUL DUP2 ADD SWAP1 PUSH2 0x1A24 SWAP2 SWAP1 PUSH2 0x376D JUMP JUMPDEST PUSH1 0x40 MLOAD PUSH2 0x1A32 SWAP3 SWAP2 SWAP1 PUSH2 0x37D2 JUMP JUMPDEST PUSH1 0x40 DUP1 MLOAD SWAP2 DUP3 SWAP1 SUB SWAP1 SWAP2 KECCAK256 DUP3 MSTORE PUSH1 0x20 DUP3 ADD SWAP3 SWAP1 SWAP3 MSTORE ADD PUSH1 0x0 KECCAK256 DUP1 SLOAD PUSH32 0xFFFFFFFFFFFFFFFFFFFFFFFFFFFFFFFFFFFFFFFFFFFFFFFFFFFFFFFFFFFFFF00 AND SWAP2 ISZERO ISZERO SWAP2 SWAP1 SWAP2 OR SWAP1 SSTORE DUP1 PUSH2 0x1A82 DUP2 PUSH2 0x3811 JUMP JUMPDEST SWAP2 POP POP PUSH2 0x19D3 JUMP JUMPDEST POP PUSH20 0xFFFFFFFFFFFFFFFFFFFFFFFFFFFFFFFFFFFFFFFF DUP11 AND PUSH1 0x0 SWAP1 DUP2 MSTORE PUSH32 0x255F4A56BD3AD76424E31ED8855EF9AD14A0CE4E67508C76FF082E5C1466B131 PUSH1 0x20 MSTORE PUSH1 0x40 SWAP1 KECCAK256 SLOAD PUSH32 0x255F4A56BD3AD76424E31ED8855EF9AD14A0CE4E67508C76FF082E5C1466B130 SLOAD DUP11 SWAP2 PUSH2 0x1AFD SWAP2 PUSH2 0x3D18 JUMP JUMPDEST PUSH2 0x1B07 SWAP2 SWAP1 PUSH2 0x3D2B JUMP JUMPDEST PUSH32 0x255F4A56BD3AD76424E31ED8855EF9AD14A0CE4E67508C76FF082E5C1466B130 DUP2 SWAP1 SSTORE ISZERO DUP1 ISZERO SWAP1 PUSH2 0x1B7B JUMPI POP PUSH32 0x255F4A56BD3AD76424E31ED8855EF9AD14A0CE4E67508C76FF082E5C1466B12F SLOAD PUSH32 0x255F4A56BD3AD76424E31ED8855EF9AD14A0CE4E67508C76FF082E5C1466B130 SLOAD LT ISZERO JUMPDEST PUSH2 0x1BE1 JUMPI PUSH1 0x40 MLOAD PUSH32 0x8C379A000000000000000000000000000000000000000000000000000000000 DUP2 MSTORE PUSH1 0x20 PUSH1 0x4 DUP3 ADD MSTORE PUSH1 0x1D PUSH1 0x24 DUP3 ADD MSTORE PUSH32 0x5468726573686F6C6420776F756C6420626520696D706F737369626C65000000 PUSH1 0x44 DUP3 ADD MSTORE PUSH1 0x64 ADD PUSH2 0x6BB JUMP JUMPDEST POP POP POP POP PUSH20 0xFFFFFFFFFFFFFFFFFFFFFFFFFFFFFFFFFFFFFFFF SWAP6 SWAP1 SWAP6 AND PUSH1 0x0 SWAP1 DUP2 MSTORE PUSH32 0x255F4A56BD3AD76424E31ED8855EF9AD14A0CE4E67508C76FF082E5C1466B131 PUSH1 0x20 MSTORE PUSH1 0x40 SWAP1 KECCAK256 SWAP4 SWAP1 SWAP4 SSTORE POP POP POP POP JUMP JUMPDEST PUSH1 0x60 PUSH1 0x0 PUSH2 0x1C43 CALLER DUP5 PUSH2 0x2624 JUMP JUMPDEST DUP1 SLOAD SWAP1 SWAP2 POP PUSH25 0x1000000000000000000000000000000000000000000000000 SWAP1 DIV PUSH4 0xFFFFFFFF AND PUSH1 0x0 SUB PUSH2 0x1C7F JUMPI PUSH2 0x1C7C PUSH1 0x0 DUP5 PUSH2 0x2624 JUMP JUMPDEST SWAP1 POP JUMPDEST DUP1 SLOAD PUSH25 0x1000000000000000000000000000000000000000000000000 SWAP1 DIV PUSH4 0xFFFFFFFF AND PUSH2 0x1D09 JUMPI PUSH1 0x40 MLOAD PUSH32 0x8C379A000000000000000000000000000000000000000000000000000000000 DUP2 MSTORE PUSH1 0x20 PUSH1 0x4 DUP3 ADD MSTORE PUSH1 0x17 PUSH1 0x24 DUP3 ADD MSTORE PUSH32 0x457865637574696F6E206E6F74207065726D6974746564000000000000000000 PUSH1 0x44 DUP3 ADD MSTORE PUSH1 0x64 ADD PUSH2 0x6BB JUMP JUMPDEST DUP1 SLOAD PUSH8 0xFFFFFFFFFFFFFFFF AND ISZERO DUP1 PUSH2 0x1D2C JUMPI POP DUP1 SLOAD PUSH8 0xFFFFFFFFFFFFFFFF AND TIMESTAMP LT ISZERO JUMPDEST PUSH2 0x1D92 JUMPI PUSH1 0x40 MLOAD PUSH32 0x8C379A000000000000000000000000000000000000000000000000000000000 DUP2 MSTORE PUSH1 0x20 PUSH1 0x4 DUP3 ADD MSTORE PUSH1 0x14 PUSH1 0x24 DUP3 ADD MSTORE PUSH32 0x457865637574696F6E2074696D656C6F636B6564000000000000000000000000 PUSH1 0x44 DUP3 ADD MSTORE PUSH1 0x64 ADD PUSH2 0x6BB JUMP JUMPDEST DUP1 SLOAD PUSH9 0x10000000000000000 SWAP1 DIV PUSH8 0xFFFFFFFFFFFFFFFF AND ISZERO DUP1 PUSH2 0x1DCF JUMPI POP DUP1 SLOAD PUSH17 0x100000000000000000000000000000000 SWAP1 DIV PUSH4 0xFFFFFFFF AND ISZERO JUMPDEST DUP1 PUSH2 0x1E1F JUMPI POP DUP1 SLOAD PUSH2 0x1E11 SWAP1 PUSH17 0x100000000000000000000000000000000 DUP2 DIV PUSH4 0xFFFFFFFF AND SWAP1 PUSH9 0x10000000000000000 SWAP1 DIV PUSH8 0xFFFFFFFFFFFFFFFF AND PUSH2 0x3D3E JUMP JUMPDEST PUSH8 0xFFFFFFFFFFFFFFFF AND TIMESTAMP LT ISZERO JUMPDEST PUSH2 0x1E85 JUMPI PUSH1 0x40 MLOAD PUSH32 0x8C379A000000000000000000000000000000000000000000000000000000000 DUP2 MSTORE PUSH1 0x20 PUSH1 0x4 DUP3 ADD MSTORE PUSH1 0x18 PUSH1 0x24 DUP3 ADD MSTORE PUSH32 0x457865637574696F6E20696E74657276616C20756E6D65740000000000000000 PUSH1 0x44 DUP3 ADD MSTORE PUSH1 0x64 ADD PUSH2 0x6BB JUMP JUMPDEST DUP1 SLOAD PUSH4 0xFFFFFFFF PUSH25 0x1000000000000000000000000000000000000000000000000 DUP3 DIV DUP2 AND PUSH21 0x10000000000000000000000000000000000000000 SWAP1 SWAP3 DIV AND LT PUSH2 0x1F2B JUMPI PUSH1 0x40 MLOAD PUSH32 0x8C379A000000000000000000000000000000000000000000000000000000000 DUP2 MSTORE PUSH1 0x20 PUSH1 0x4 DUP3 ADD MSTORE PUSH1 0x16 PUSH1 0x24 DUP3 ADD MSTORE PUSH32 0x4D617820657865637574696F6E73207265616368656400000000000000000000 PUSH1 0x44 DUP3 ADD MSTORE PUSH1 0x64 ADD PUSH2 0x6BB JUMP JUMPDEST DUP1 SLOAD PUSH1 0x1 SWAP1 DUP3 SWAP1 PUSH1 0x14 SWAP1 PUSH2 0x1F5E SWAP1 DUP5 SWAP1 PUSH21 0x10000000000000000000000000000000000000000 SWAP1 DIV PUSH4 0xFFFFFFFF AND PUSH2 0x3D66 JUMP JUMPDEST DUP3 SLOAD PUSH2 0x100 SWAP3 SWAP1 SWAP3 EXP PUSH4 0xFFFFFFFF DUP2 DUP2 MUL NOT SWAP1 SWAP4 AND SWAP2 SWAP1 SWAP3 AND SWAP2 SWAP1 SWAP2 MUL OR SWAP1 SSTORE POP DUP1 SLOAD PUSH32 0xFFFFFFFFFFFFFFFFFFFFFFFFFFFFFFFF0000000000000000FFFFFFFFFFFFFFFF AND PUSH9 0x10000000000000000 TIMESTAMP PUSH8 0xFFFFFFFFFFFFFFFF AND MUL OR DUP2 SSTORE PUSH2 0x884 DUP4 PUSH2 0x21D0 JUMP JUMPDEST PUSH1 0x0 PUSH1 0x60 PUSH1 0x0 DUP1 JUMPDEST DUP5 MLOAD DUP2 LT ISZERO PUSH2 0x2164 JUMPI PUSH1 0x0 PUSH2 0x1FFB DUP8 DUP8 DUP5 DUP2 MLOAD DUP2 LT PUSH2 0x1FEE JUMPI PUSH2 0x1FEE PUSH2 0x373E JUMP JUMPDEST PUSH1 0x20 MUL PUSH1 0x20 ADD ADD MLOAD PUSH2 0x26A9 JUMP JUMPDEST PUSH20 0xFFFFFFFFFFFFFFFFFFFFFFFFFFFFFFFFFFFFFFFF DUP2 AND PUSH1 0x0 SWAP1 DUP2 MSTORE PUSH32 0x255F4A56BD3AD76424E31ED8855EF9AD14A0CE4E67508C76FF082E5C1466B131 PUSH1 0x20 MSTORE PUSH1 0x40 DUP2 KECCAK256 SLOAD SWAP2 SWAP3 POP SUB PUSH2 0x206F JUMPI PUSH1 0x0 PUSH1 0x40 MLOAD DUP1 PUSH1 0x60 ADD PUSH1 0x40 MSTORE DUP1 PUSH1 0x32 DUP2 MSTORE PUSH1 0x20 ADD PUSH2 0x3E47 PUSH1 0x32 SWAP2 CODECOPY SWAP5 POP SWAP5 POP POP POP POP PUSH2 0x21C9 JUMP JUMPDEST PUSH1 0x0 DUP7 DUP4 DUP2 MLOAD DUP2 LT PUSH2 0x2083 JUMPI PUSH2 0x2083 PUSH2 0x373E JUMP JUMPDEST PUSH1 0x20 MUL PUSH1 0x20 ADD ADD MLOAD DUP1 MLOAD SWAP1 PUSH1 0x20 ADD KECCAK256 SWAP1 POP PUSH2 0x20BB PUSH32 0x255F4A56BD3AD76424E31ED8855EF9AD14A0CE4E67508C76FF082E5C1466B12F SWAP1 JUMP JUMPDEST PUSH1 0x0 DUP3 DUP2 MSTORE PUSH1 0x3 SWAP2 SWAP1 SWAP2 ADD PUSH1 0x20 MSTORE PUSH1 0x40 SWAP1 KECCAK256 SLOAD PUSH1 0xFF AND ISZERO PUSH2 0x20FE JUMPI PUSH1 0x0 PUSH1 0x40 MLOAD DUP1 PUSH1 0x60 ADD PUSH1 0x40 MSTORE DUP1 PUSH1 0x23 DUP2 MSTORE PUSH1 0x20 ADD PUSH2 0x3E79 PUSH1 0x23 SWAP2 CODECOPY SWAP6 POP SWAP6 POP POP POP POP POP PUSH2 0x21C9 JUMP JUMPDEST PUSH20 0xFFFFFFFFFFFFFFFFFFFFFFFFFFFFFFFFFFFFFFFF DUP3 AND PUSH1 0x0 SWAP1 DUP2 MSTORE PUSH32 0x255F4A56BD3AD76424E31ED8855EF9AD14A0CE4E67508C76FF082E5C1466B131 PUSH1 0x20 MSTORE PUSH1 0x40 SWAP1 KECCAK256 SLOAD PUSH2 0x214D SWAP1 DUP6 PUSH2 0x3D2B JUMP JUMPDEST SWAP4 POP POP POP DUP1 DUP1 PUSH2 0x215C SWAP1 PUSH2 0x3811 JUMP JUMPDEST SWAP2 POP POP PUSH2 0x1FCD JUMP JUMPDEST POP PUSH32 0x255F4A56BD3AD76424E31ED8855EF9AD14A0CE4E67508C76FF082E5C1466B12F SLOAD DUP2 LT ISZERO PUSH2 0x21B3 JUMPI PUSH1 0x0 PUSH1 0x40 MLOAD DUP1 PUSH1 0x60 ADD PUSH1 0x40 MSTORE DUP1 PUSH1 0x26 DUP2 MSTORE PUSH1 0x20 ADD PUSH2 0x3E21 PUSH1 0x26 SWAP2 CODECOPY SWAP3 POP SWAP3 POP POP PUSH2 0x21C9 JUMP JUMPDEST POP POP PUSH1 0x40 DUP1 MLOAD PUSH1 0x20 DUP2 ADD SWAP1 SWAP2 MSTORE PUSH1 0x0 DUP2 MSTORE PUSH1 0x1 SWAP2 POP JUMPDEST SWAP3 POP SWAP3 SWAP1 POP JUMP JUMPDEST PUSH1 0x60 PUSH1 0x0 DUP1 PUSH2 0x21E2 PUSH1 0x20 DUP6 ADD DUP6 PUSH2 0x32F6 JUMP JUMPDEST PUSH20 0xFFFFFFFFFFFFFFFFFFFFFFFFFFFFFFFFFFFFFFFF AND PUSH1 0x20 DUP6 ADD CALLDATALOAD PUSH2 0x220A PUSH1 0x60 DUP8 ADD DUP8 PUSH2 0x376D JUMP JUMPDEST PUSH1 0x40 MLOAD PUSH2 0x2218 SWAP3 SWAP2 SWAP1 PUSH2 0x37D2 JUMP JUMPDEST PUSH1 0x0 PUSH1 0x40 MLOAD DUP1 DUP4 SUB DUP2 DUP6 DUP8 GAS CALL SWAP3 POP POP POP RETURNDATASIZE DUP1 PUSH1 0x0 DUP2 EQ PUSH2 0x2255 JUMPI PUSH1 0x40 MLOAD SWAP2 POP PUSH1 0x1F NOT PUSH1 0x3F RETURNDATASIZE ADD AND DUP3 ADD PUSH1 0x40 MSTORE RETURNDATASIZE DUP3 MSTORE RETURNDATASIZE PUSH1 0x0 PUSH1 0x20 DUP5 ADD RETURNDATACOPY PUSH2 0x225A JUMP JUMPDEST PUSH1 0x60 SWAP2 POP JUMPDEST POP SWAP2 POP SWAP2 POP DUP2 PUSH2 0x884 JUMPI DUP1 MLOAD PUSH1 0x20 DUP3 ADD REVERT JUMPDEST PUSH1 0x0 PUSH2 0x2279 PUSH1 0x41 DUP4 PUSH2 0x3DB2 JUMP JUMPDEST ISZERO PUSH2 0x2306 JUMPI PUSH1 0x40 MLOAD PUSH32 0x8C379A000000000000000000000000000000000000000000000000000000000 DUP2 MSTORE PUSH1 0x20 PUSH1 0x4 DUP3 ADD MSTORE PUSH1 0x29 PUSH1 0x24 DUP3 ADD MSTORE PUSH32 0x556E6578706563746564207061636B61676564207369676E6174757265206279 PUSH1 0x44 DUP3 ADD MSTORE PUSH32 0x7465206C656E6774680000000000000000000000000000000000000000000000 PUSH1 0x64 DUP3 ADD MSTORE PUSH1 0x84 ADD PUSH2 0x6BB JUMP JUMPDEST PUSH1 0x0 PUSH2 0x2313 PUSH1 0x41 DUP5 PUSH2 0x3DC6 JUMP JUMPDEST SWAP1 POP PUSH1 0x0 DUP2 PUSH8 0xFFFFFFFFFFFFFFFF DUP2 GT ISZERO PUSH2 0x2330 JUMPI PUSH2 0x2330 PUSH2 0x35D9 JUMP JUMPDEST PUSH1 0x40 MLOAD SWAP1 DUP1 DUP3 MSTORE DUP1 PUSH1 0x20 MUL PUSH1 0x20 ADD DUP3 ADD PUSH1 0x40 MSTORE DUP1 ISZERO PUSH2 0x2363 JUMPI DUP2 PUSH1 0x20 ADD JUMPDEST PUSH1 0x60 DUP2 MSTORE PUSH1 0x20 ADD SWAP1 PUSH1 0x1 SWAP1 SUB SWAP1 DUP2 PUSH2 0x234E JUMPI SWAP1 POP JUMPDEST POP SWAP1 POP PUSH1 0x0 JUMPDEST DUP3 DUP2 LT ISZERO PUSH2 0x23EF JUMPI PUSH2 0x23BF PUSH2 0x237F PUSH1 0x41 DUP4 PUSH2 0x3DDA JUMP JUMPDEST PUSH1 0x40 DUP1 MLOAD PUSH1 0x20 PUSH1 0x1F DUP11 ADD DUP2 SWAP1 DIV DUP2 MUL DUP3 ADD DUP2 ADD SWAP1 SWAP3 MSTORE DUP9 DUP2 MSTORE PUSH1 0x41 SWAP2 DUP11 SWAP1 DUP11 SWAP1 DUP2 SWAP1 DUP5 ADD DUP4 DUP3 DUP1 DUP3 DUP5 CALLDATACOPY PUSH1 0x0 SWAP3 ADD SWAP2 SWAP1 SWAP2 MSTORE POP SWAP3 SWAP5 SWAP4 SWAP3 POP POP PUSH2 0x270C SWAP1 POP JUMP JUMPDEST DUP3 DUP3 DUP2 MLOAD DUP2 LT PUSH2 0x23D1 JUMPI PUSH2 0x23D1 PUSH2 0x373E JUMP JUMPDEST PUSH1 0x20 MUL PUSH1 0x20 ADD ADD DUP2 SWAP1 MSTORE POP DUP1 DUP1 PUSH2 0x23E7 SWAP1 PUSH2 0x3811 JUMP JUMPDEST SWAP2 POP POP PUSH2 0x2369 JUMP JUMPDEST POP PUSH1 0x0 PUSH2 0x23FC DUP8 DUP4 PUSH2 0x1FC5 JUMP JUMPDEST POP SWAP8 SWAP7 POP POP POP POP POP POP POP JUMP JUMPDEST PUSH20 0xFFFFFFFFFFFFFFFFFFFFFFFFFFFFFFFFFFFFFFFF DUP2 AND PUSH1 0x0 SWAP1 DUP2 MSTORE PUSH32 0x255F4A56BD3AD76424E31ED8855EF9AD14A0CE4E67508C76FF082E5C1466B131 PUSH1 0x20 MSTORE PUSH1 0x40 DUP2 KECCAK256 SLOAD PUSH32 0x255F4A56BD3AD76424E31ED8855EF9AD14A0CE4E67508C76FF082E5C1466B130 DUP1 SLOAD SWAP2 SWAP3 SWAP1 SWAP2 PUSH2 0x247F SWAP1 DUP5 SWAP1 PUSH2 0x3D18 JUMP JUMPDEST SWAP1 SWAP2 SSTORE POP POP PUSH32 0x255F4A56BD3AD76424E31ED8855EF9AD14A0CE4E67508C76FF082E5C1466B130 SLOAD ISZERO DUP1 ISZERO SWAP1 PUSH2 0x24F6 JUMPI POP PUSH32 0x255F4A56BD3AD76424E31ED8855EF9AD14A0CE4E67508C76FF082E5C1466B12F SLOAD PUSH32 0x255F4A56BD3AD76424E31ED8855EF9AD14A0CE4E67508C76FF082E5C1466B130 SLOAD LT ISZERO JUMPDEST PUSH2 0x255C JUMPI PUSH1 0x40 MLOAD PUSH32 0x8C379A000000000000000000000000000000000000000000000000000000000 DUP2 MSTORE PUSH1 0x20 PUSH1 0x4 DUP3 ADD MSTORE PUSH1 0x1D PUSH1 0x24 DUP3 ADD MSTORE PUSH32 0x5468726573686F6C6420776F756C6420626520696D706F737369626C65000000 PUSH1 0x44 DUP3 ADD MSTORE PUSH1 0x64 ADD PUSH2 0x6BB JUMP JUMPDEST PUSH20 0xFFFFFFFFFFFFFFFFFFFFFFFFFFFFFFFFFFFFFFFF AND PUSH1 0x0 SWAP1 DUP2 MSTORE PUSH32 0x255F4A56BD3AD76424E31ED8855EF9AD14A0CE4E67508C76FF082E5C1466B131 PUSH1 0x20 MSTORE PUSH1 0x40 DUP2 KECCAK256 SSTORE JUMP JUMPDEST DUP1 PUSH32 0x255F4A56BD3AD76424E31ED8855EF9AD14A0CE4E67508C76FF082E5C1466B12F PUSH1 0x1 ADD PUSH1 0x0 DUP3 DUP3 SLOAD PUSH2 0x25D6 SWAP2 SWAP1 PUSH2 0x3D2B JUMP JUMPDEST SWAP1 SWAP2 SSTORE POP POP PUSH20 0xFFFFFFFFFFFFFFFFFFFFFFFFFFFFFFFFFFFFFFFF SWAP2 SWAP1 SWAP2 AND PUSH1 0x0 SWAP1 DUP2 MSTORE PUSH32 0x255F4A56BD3AD76424E31ED8855EF9AD14A0CE4E67508C76FF082E5C1466B131 PUSH1 0x20 MSTORE PUSH1 0x40 SWAP1 KECCAK256 SSTORE JUMP JUMPDEST PUSH1 0x0 PUSH32 0xA7C6065F73528A079B6BD396854CFC70D8B5A045D4821E6DB173081678A52765 PUSH1 0x0 DUP5 PUSH2 0x2657 PUSH1 0x20 DUP7 ADD DUP7 PUSH2 0x32F6 JUMP JUMPDEST PUSH1 0x20 DUP7 ADD CALLDATALOAD PUSH2 0x2669 PUSH1 0x60 DUP9 ADD DUP9 PUSH2 0x376D JUMP JUMPDEST PUSH1 0x40 MLOAD PUSH1 0x20 ADD PUSH2 0x267D SWAP6 SWAP5 SWAP4 SWAP3 SWAP2 SWAP1 PUSH2 0x38FB JUMP JUMPDEST PUSH1 0x40 MLOAD PUSH1 0x20 DUP2 DUP4 SUB SUB DUP2 MSTORE SWAP1 PUSH1 0x40 MSTORE DUP1 MLOAD SWAP1 PUSH1 0x20 ADD KECCAK256 DUP2 MSTORE PUSH1 0x20 ADD SWAP1 DUP2 MSTORE PUSH1 0x20 ADD PUSH1 0x0 KECCAK256 SWAP1 POP SWAP3 SWAP2 POP POP JUMP JUMPDEST PUSH1 0x0 PUSH2 0x884 DUP3 PUSH2 0x2706 DUP6 PUSH1 0x40 MLOAD PUSH32 0x19457468657265756D205369676E6564204D6573736167653A0A333200000000 PUSH1 0x20 DUP3 ADD MSTORE PUSH1 0x3C DUP2 ADD DUP3 SWAP1 MSTORE PUSH1 0x0 SWAP1 PUSH1 0x5C ADD PUSH1 0x40 MLOAD PUSH1 0x20 DUP2 DUP4 SUB SUB DUP2 MSTORE SWAP1 PUSH1 0x40 MSTORE DUP1 MLOAD SWAP1 PUSH1 0x20 ADD KECCAK256 SWAP1 POP SWAP2 SWAP1 POP JUMP JUMPDEST SWAP1 PUSH2 0x2886 JUMP JUMPDEST PUSH1 0x60 DUP2 PUSH2 0x271A DUP2 PUSH1 0x1F PUSH2 0x3D2B JUMP JUMPDEST LT ISZERO PUSH2 0x2782 JUMPI PUSH1 0x40 MLOAD PUSH32 0x8C379A000000000000000000000000000000000000000000000000000000000 DUP2 MSTORE PUSH1 0x20 PUSH1 0x4 DUP3 ADD MSTORE PUSH1 0xE PUSH1 0x24 DUP3 ADD MSTORE PUSH32 0x736C6963655F6F766572666C6F77000000000000000000000000000000000000 PUSH1 0x44 DUP3 ADD MSTORE PUSH1 0x64 ADD PUSH2 0x6BB JUMP JUMPDEST PUSH2 0x278C DUP3 DUP5 PUSH2 0x3D2B JUMP JUMPDEST DUP5 MLOAD LT ISZERO PUSH2 0x27F6 JUMPI PUSH1 0x40 MLOAD PUSH32 0x8C379A000000000000000000000000000000000000000000000000000000000 DUP2 MSTORE PUSH1 0x20 PUSH1 0x4 DUP3 ADD MSTORE PUSH1 0x11 PUSH1 0x24 DUP3 ADD MSTORE PUSH32 0x736C6963655F6F75744F66426F756E6473000000000000000000000000000000 PUSH1 0x44 DUP3 ADD MSTORE PUSH1 0x64 ADD PUSH2 0x6BB JUMP JUMPDEST PUSH1 0x60 DUP3 ISZERO DUP1 ISZERO PUSH2 0x2815 JUMPI PUSH1 0x40 MLOAD SWAP2 POP PUSH1 0x0 DUP3 MSTORE PUSH1 0x20 DUP3 ADD PUSH1 0x40 MSTORE PUSH2 0x287D JUMP JUMPDEST PUSH1 0x40 MLOAD SWAP2 POP PUSH1 0x1F DUP5 AND DUP1 ISZERO PUSH1 0x20 MUL DUP2 DUP5 ADD ADD DUP6 DUP2 ADD DUP8 DUP4 ISZERO PUSH1 0x20 MUL DUP5 DUP12 ADD ADD ADD JUMPDEST DUP2 DUP4 LT ISZERO PUSH2 0x284E JUMPI DUP1 MLOAD DUP4 MSTORE PUSH1 0x20 SWAP3 DUP4 ADD SWAP3 ADD PUSH2 0x2836 JUMP JUMPDEST POP POP DUP6 DUP5 MSTORE PUSH1 0x1F ADD PUSH32 0xFFFFFFFFFFFFFFFFFFFFFFFFFFFFFFFFFFFFFFFFFFFFFFFFFFFFFFFFFFFFFFE0 AND PUSH1 0x40 MSTORE POP JUMPDEST POP SWAP5 SWAP4 POP POP POP POP JUMP JUMPDEST PUSH1 0x0 DUP1 PUSH1 0x0 PUSH2 0x2895 DUP6 DUP6 PUSH2 0x28A2 JUMP JUMPDEST SWAP2 POP SWAP2 POP PUSH2 0x102B DUP2 PUSH2 0x28E4 JUMP JUMPDEST PUSH1 0x0 DUP1 DUP3 MLOAD PUSH1 0x41 SUB PUSH2 0x28D8 JUMPI PUSH1 0x20 DUP4 ADD MLOAD PUSH1 0x40 DUP5 ADD MLOAD PUSH1 0x60 DUP6 ADD MLOAD PUSH1 0x0 BYTE PUSH2 0x28CC DUP8 DUP3 DUP6 DUP6 PUSH2 0x2A9A JUMP JUMPDEST SWAP5 POP SWAP5 POP POP POP POP PUSH2 0x21C9 JUMP JUMPDEST POP PUSH1 0x0 SWAP1 POP PUSH1 0x2 PUSH2 0x21C9 JUMP JUMPDEST PUSH1 0x0 DUP2 PUSH1 0x4 DUP2 GT ISZERO PUSH2 0x28F8 JUMPI PUSH2 0x28F8 PUSH2 0x3DF1 JUMP JUMPDEST SUB PUSH2 0x2900 JUMPI POP JUMP JUMPDEST PUSH1 0x1 DUP2 PUSH1 0x4 DUP2 GT ISZERO PUSH2 0x2914 JUMPI PUSH2 0x2914 PUSH2 0x3DF1 JUMP JUMPDEST SUB PUSH2 0x297B JUMPI PUSH1 0x40 MLOAD PUSH32 0x8C379A000000000000000000000000000000000000000000000000000000000 DUP2 MSTORE PUSH1 0x20 PUSH1 0x4 DUP3 ADD MSTORE PUSH1 0x18 PUSH1 0x24 DUP3 ADD MSTORE PUSH32 0x45434453413A20696E76616C6964207369676E61747572650000000000000000 PUSH1 0x44 DUP3 ADD MSTORE PUSH1 0x64 ADD PUSH2 0x6BB JUMP JUMPDEST PUSH1 0x2 DUP2 PUSH1 0x4 DUP2 GT ISZERO PUSH2 0x298F JUMPI PUSH2 0x298F PUSH2 0x3DF1 JUMP JUMPDEST SUB PUSH2 0x29F6 JUMPI PUSH1 0x40 MLOAD PUSH32 0x8C379A000000000000000000000000000000000000000000000000000000000 DUP2 MSTORE PUSH1 0x20 PUSH1 0x4 DUP3 ADD MSTORE PUSH1 0x1F PUSH1 0x24 DUP3 ADD MSTORE PUSH32 0x45434453413A20696E76616C6964207369676E6174757265206C656E67746800 PUSH1 0x44 DUP3 ADD MSTORE PUSH1 0x64 ADD PUSH2 0x6BB JUMP JUMPDEST PUSH1 0x3 DUP2 PUSH1 0x4 DUP2 GT ISZERO PUSH2 0x2A0A JUMPI PUSH2 0x2A0A PUSH2 0x3DF1 JUMP JUMPDEST SUB PUSH2 0x2A97 JUMPI PUSH1 0x40 MLOAD PUSH32 0x8C379A000000000000000000000000000000000000000000000000000000000 DUP2 MSTORE PUSH1 0x20 PUSH1 0x4 DUP3 ADD MSTORE PUSH1 0x22 PUSH1 0x24 DUP3 ADD MSTORE PUSH32 0x45434453413A20696E76616C6964207369676E6174757265202773272076616C PUSH1 0x44 DUP3 ADD MSTORE PUSH32 0x7565000000000000000000000000000000000000000000000000000000000000 PUSH1 0x64 DUP3 ADD MSTORE PUSH1 0x84 ADD PUSH2 0x6BB JUMP JUMPDEST POP JUMP JUMPDEST PUSH1 0x0 DUP1 PUSH32 0x7FFFFFFFFFFFFFFFFFFFFFFFFFFFFFFF5D576E7357A4501DDFE92F46681B20A0 DUP4 GT ISZERO PUSH2 0x2AD1 JUMPI POP PUSH1 0x0 SWAP1 POP PUSH1 0x3 PUSH2 0x2B80 JUMP JUMPDEST PUSH1 0x40 DUP1 MLOAD PUSH1 0x0 DUP1 DUP3 MSTORE PUSH1 0x20 DUP3 ADD DUP1 DUP5 MSTORE DUP10 SWAP1 MSTORE PUSH1 0xFF DUP9 AND SWAP3 DUP3 ADD SWAP3 SWAP1 SWAP3 MSTORE PUSH1 0x60 DUP2 ADD DUP7 SWAP1 MSTORE PUSH1 0x80 DUP2 ADD DUP6 SWAP1 MSTORE PUSH1 0x1 SWAP1 PUSH1 0xA0 ADD PUSH1 0x20 PUSH1 0x40 MLOAD PUSH1 0x20 DUP2 SUB SWAP1 DUP1 DUP5 SUB SWAP1 DUP6 GAS STATICCALL ISZERO DUP1 ISZERO PUSH2 0x2B25 JUMPI RETURNDATASIZE PUSH1 0x0 DUP1 RETURNDATACOPY RETURNDATASIZE PUSH1 0x0 REVERT JUMPDEST POP POP PUSH1 0x40 MLOAD PUSH32 0xFFFFFFFFFFFFFFFFFFFFFFFFFFFFFFFFFFFFFFFFFFFFFFFFFFFFFFFFFFFFFFE0 ADD MLOAD SWAP2 POP POP PUSH20 0xFFFFFFFFFFFFFFFFFFFFFFFFFFFFFFFFFFFFFFFF DUP2 AND PUSH2 0x2B79 JUMPI PUSH1 0x0 PUSH1 0x1 SWAP3 POP SWAP3 POP POP PUSH2 0x2B80 JUMP JUMPDEST SWAP2 POP PUSH1 0x0 SWAP1 POP JUMPDEST SWAP5 POP SWAP5 SWAP3 POP POP POP JUMP JUMPDEST PUSH1 0x0 PUSH1 0x20 DUP3 DUP5 SUB SLT ISZERO PUSH2 0x2B9B JUMPI PUSH1 0x0 DUP1 REVERT JUMPDEST DUP2 CALLDATALOAD PUSH32 0xFFFFFFFF00000000000000000000000000000000000000000000000000000000 DUP2 AND DUP2 EQ PUSH2 0x884 JUMPI PUSH1 0x0 DUP1 REVERT JUMPDEST PUSH1 0x0 DUP1 DUP4 PUSH1 0x1F DUP5 ADD SLT PUSH2 0x2BDD JUMPI PUSH1 0x0 DUP1 REVERT JUMPDEST POP DUP2 CALLDATALOAD PUSH8 0xFFFFFFFFFFFFFFFF DUP2 GT ISZERO PUSH2 0x2BF5 JUMPI PUSH1 0x0 DUP1 REVERT JUMPDEST PUSH1 0x20 DUP4 ADD SWAP2 POP DUP4 PUSH1 0x20 DUP3 PUSH1 0x5 SHL DUP6 ADD ADD GT ISZERO PUSH2 0x21C9 JUMPI PUSH1 0x0 DUP1 REVERT JUMPDEST PUSH1 0x0 DUP1 PUSH1 0x0 DUP1 PUSH1 0x40 DUP6 DUP8 SUB SLT ISZERO PUSH2 0x2C26 JUMPI PUSH1 0x0 DUP1 REVERT JUMPDEST DUP5 CALLDATALOAD PUSH8 0xFFFFFFFFFFFFFFFF DUP1 DUP3 GT ISZERO PUSH2 0x2C3E JUMPI PUSH1 0x0 DUP1 REVERT JUMPDEST PUSH2 0x2C4A DUP9 DUP4 DUP10 ADD PUSH2 0x2BCB JUMP JUMPDEST SWAP1 SWAP7 POP SWAP5 POP PUSH1 0x20 DUP8 ADD CALLDATALOAD SWAP2 POP DUP1 DUP3 GT ISZERO PUSH2 0x2C63 JUMPI PUSH1 0x0 DUP1 REVERT JUMPDEST POP PUSH2 0x2C70 DUP8 DUP3 DUP9 ADD PUSH2 0x2BCB JUMP JUMPDEST SWAP6 SWAP9 SWAP5 SWAP8 POP SWAP6 POP POP POP POP JUMP JUMPDEST PUSH1 0x0 DUP2 MLOAD DUP1 DUP5 MSTORE PUSH1 0x0 JUMPDEST DUP2 DUP2 LT ISZERO PUSH2 0x2CA2 JUMPI PUSH1 0x20 DUP2 DUP6 ADD DUP2 ADD MLOAD DUP7 DUP4 ADD DUP3 ADD MSTORE ADD PUSH2 0x2C86 JUMP JUMPDEST POP PUSH1 0x0 PUSH1 0x20 DUP3 DUP7 ADD ADD MSTORE PUSH1 0x20 PUSH32 0xFFFFFFFFFFFFFFFFFFFFFFFFFFFFFFFFFFFFFFFFFFFFFFFFFFFFFFFFFFFFFFE0 PUSH1 0x1F DUP4 ADD AND DUP6 ADD ADD SWAP2 POP POP SWAP3 SWAP2 POP POP JUMP JUMPDEST PUSH1 0x0 PUSH1 0x20 DUP1 DUP4 ADD DUP2 DUP5 MSTORE DUP1 DUP6 MLOAD DUP1 DUP4 MSTORE PUSH1 0x40 DUP7 ADD SWAP2 POP PUSH1 0x40 DUP2 PUSH1 0x5 SHL DUP8 ADD ADD SWAP3 POP DUP4 DUP8 ADD PUSH1 0x0 JUMPDEST DUP3 DUP2 LT ISZERO PUSH2 0x2D53 JUMPI PUSH32 0xFFFFFFFFFFFFFFFFFFFFFFFFFFFFFFFFFFFFFFFFFFFFFFFFFFFFFFFFFFFFFFC0 DUP9 DUP7 SUB ADD DUP5 MSTORE PUSH2 0x2D41 DUP6 DUP4 MLOAD PUSH2 0x2C7C JUMP JUMPDEST SWAP5 POP SWAP3 DUP6 ADD SWAP3 SWAP1 DUP6 ADD SWAP1 PUSH1 0x1 ADD PUSH2 0x2D07 JUMP JUMPDEST POP SWAP3 SWAP8 SWAP7 POP POP POP POP POP POP POP JUMP JUMPDEST DUP1 CALLDATALOAD PUSH20 0xFFFFFFFFFFFFFFFFFFFFFFFFFFFFFFFFFFFFFFFF DUP2 AND DUP2 EQ PUSH2 0x2D84 JUMPI PUSH1 0x0 DUP1 REVERT JUMPDEST SWAP2 SWAP1 POP JUMP JUMPDEST PUSH1 0x0 DUP1 DUP4 PUSH1 0x1F DUP5 ADD SLT PUSH2 0x2D9B JUMPI PUSH1 0x0 DUP1 REVERT JUMPDEST POP DUP2 CALLDATALOAD PUSH8 0xFFFFFFFFFFFFFFFF DUP2 GT ISZERO PUSH2 0x2DB3 JUMPI PUSH1 0x0 DUP1 REVERT JUMPDEST PUSH1 0x20 DUP4 ADD SWAP2 POP DUP4 PUSH1 0x20 DUP3 DUP6 ADD ADD GT ISZERO PUSH2 0x21C9 JUMPI PUSH1 0x0 DUP1 REVERT JUMPDEST PUSH1 0x0 DUP1 PUSH1 0x0 DUP1 PUSH1 0x0 PUSH1 0x80 DUP7 DUP9 SUB SLT ISZERO PUSH2 0x2DE3 JUMPI PUSH1 0x0 DUP1 REVERT JUMPDEST PUSH2 0x2DEC DUP7 PUSH2 0x2D60 JUMP JUMPDEST SWAP5 POP PUSH2 0x2DFA PUSH1 0x20 DUP8 ADD PUSH2 0x2D60 JUMP JUMPDEST SWAP4 POP PUSH1 0x40 DUP7 ADD CALLDATALOAD SWAP3 POP PUSH1 0x60 DUP7 ADD CALLDATALOAD PUSH8 0xFFFFFFFFFFFFFFFF DUP2 GT ISZERO PUSH2 0x2E1D JUMPI PUSH1 0x0 DUP1 REVERT JUMPDEST PUSH2 0x2E29 DUP9 DUP3 DUP10 ADD PUSH2 0x2D89 JUMP JUMPDEST SWAP7 SWAP10 SWAP6 SWAP9 POP SWAP4 SWAP7 POP SWAP3 SWAP5 SWAP4 SWAP3 POP POP POP JUMP JUMPDEST PUSH1 0x0 DUP1 PUSH1 0x0 PUSH1 0x40 DUP5 DUP7 SUB SLT ISZERO PUSH2 0x2E4F JUMPI PUSH1 0x0 DUP1 REVERT JUMPDEST DUP4 CALLDATALOAD SWAP3 POP PUSH1 0x20 DUP5 ADD CALLDATALOAD PUSH8 0xFFFFFFFFFFFFFFFF DUP2 GT ISZERO PUSH2 0x2E6D JUMPI PUSH1 0x0 DUP1 REVERT JUMPDEST PUSH2 0x2E79 DUP7 DUP3 DUP8 ADD PUSH2 0x2D89 JUMP JUMPDEST SWAP5 SWAP8 SWAP1 SWAP7 POP SWAP4 SWAP5 POP POP POP POP JUMP JUMPDEST PUSH1 0x0 PUSH1 0x80 DUP3 DUP5 SUB SLT ISZERO PUSH2 0x2E98 JUMPI PUSH1 0x0 DUP1 REVERT JUMPDEST POP SWAP2 SWAP1 POP JUMP JUMPDEST PUSH1 0x0 DUP1 PUSH1 0x0 DUP1 PUSH1 0x60 DUP6 DUP8 SUB SLT ISZERO PUSH2 0x2EB4 JUMPI PUSH1 0x0 DUP1 REVERT JUMPDEST DUP5 CALLDATALOAD PUSH8 0xFFFFFFFFFFFFFFFF DUP1 DUP3 GT ISZERO PUSH2 0x2ECC JUMPI PUSH1 0x0 DUP1 REVERT JUMPDEST PUSH2 0x2ED8 DUP9 DUP4 DUP10 ADD PUSH2 0x2E86 JUMP JUMPDEST SWAP6 POP PUSH1 0x20 DUP8 ADD CALLDATALOAD SWAP5 POP PUSH1 0x40 DUP8 ADD CALLDATALOAD SWAP2 POP DUP1 DUP3 GT ISZERO PUSH2 0x2C63 JUMPI PUSH1 0x0 DUP1 REVERT JUMPDEST PUSH1 0x0 DUP1 PUSH1 0x0 DUP1 PUSH1 0x40 DUP6 DUP8 SUB SLT ISZERO PUSH2 0x2F0B JUMPI PUSH1 0x0 DUP1 REVERT JUMPDEST DUP5 CALLDATALOAD PUSH8 0xFFFFFFFFFFFFFFFF DUP1 DUP3 GT ISZERO PUSH2 0x2F23 JUMPI PUSH1 0x0 DUP1 REVERT JUMPDEST PUSH2 0x2F2F DUP9 DUP4 DUP10 ADD PUSH2 0x2D89 JUMP JUMPDEST SWAP1 SWAP7 POP SWAP5 POP PUSH1 0x20 DUP8 ADD CALLDATALOAD SWAP2 POP DUP1 DUP3 GT ISZERO PUSH2 0x2F48 JUMPI PUSH1 0x0 DUP1 REVERT JUMPDEST POP PUSH2 0x2C70 DUP8 DUP3 DUP9 ADD PUSH2 0x2D89 JUMP JUMPDEST PUSH1 0x0 DUP1 PUSH1 0x0 DUP1 PUSH1 0x0 PUSH1 0x60 DUP7 DUP9 SUB SLT ISZERO PUSH2 0x2F6D JUMPI PUSH1 0x0 DUP1 REVERT JUMPDEST DUP6 CALLDATALOAD PUSH8 0xFFFFFFFFFFFFFFFF DUP1 DUP3 GT ISZERO PUSH2 0x2F85 JUMPI PUSH1 0x0 DUP1 REVERT JUMPDEST PUSH2 0x2F91 DUP10 DUP4 DUP11 ADD PUSH2 0x2BCB JUMP JUMPDEST SWAP1 SWAP8 POP SWAP6 POP PUSH1 0x20 DUP9 ADD CALLDATALOAD SWAP5 POP PUSH1 0x40 DUP9 ADD CALLDATALOAD SWAP2 POP DUP1 DUP3 GT ISZERO PUSH2 0x2FB1 JUMPI PUSH1 0x0 DUP1 REVERT JUMPDEST POP PUSH2 0x2E29 DUP9 DUP3 DUP10 ADD PUSH2 0x2BCB JUMP JUMPDEST PUSH1 0x0 DUP1 PUSH1 0x0 DUP1 PUSH1 0x0 DUP6 DUP8 SUB PUSH2 0x100 DUP2 SLT ISZERO PUSH2 0x2FD8 JUMPI PUSH1 0x0 DUP1 REVERT JUMPDEST DUP7 CALLDATALOAD PUSH8 0xFFFFFFFFFFFFFFFF DUP1 DUP3 GT ISZERO PUSH2 0x2FF0 JUMPI PUSH1 0x0 DUP1 REVERT JUMPDEST PUSH2 0x2FFC DUP11 DUP4 DUP12 ADD PUSH2 0x2E86 JUMP JUMPDEST SWAP8 POP PUSH1 0xA0 PUSH32 0xFFFFFFFFFFFFFFFFFFFFFFFFFFFFFFFFFFFFFFFFFFFFFFFFFFFFFFFFFFFFFFE0 DUP5 ADD SLT ISZERO PUSH2 0x302E JUMPI PUSH1 0x0 DUP1 REVERT JUMPDEST PUSH1 0x20 DUP10 ADD SWAP7 POP PUSH1 0xC0 DUP10 ADD CALLDATALOAD SWAP6 POP PUSH1 0xE0 DUP10 ADD CALLDATALOAD SWAP3 POP DUP1 DUP4 GT ISZERO PUSH2 0x304F JUMPI PUSH1 0x0 DUP1 REVERT JUMPDEST POP POP PUSH2 0x2E29 DUP9 DUP3 DUP10 ADD PUSH2 0x2BCB JUMP JUMPDEST PUSH1 0x0 DUP1 PUSH1 0x20 DUP4 DUP6 SUB SLT ISZERO PUSH2 0x3070 JUMPI PUSH1 0x0 DUP1 REVERT JUMPDEST DUP3 CALLDATALOAD PUSH8 0xFFFFFFFFFFFFFFFF DUP2 GT ISZERO PUSH2 0x3087 JUMPI PUSH1 0x0 DUP1 REVERT JUMPDEST PUSH2 0x3093 DUP6 DUP3 DUP7 ADD PUSH2 0x2BCB JUMP JUMPDEST SWAP1 SWAP7 SWAP1 SWAP6 POP SWAP4 POP POP POP POP JUMP JUMPDEST PUSH1 0x20 DUP2 MSTORE PUSH1 0x0 PUSH2 0x884 PUSH1 0x20 DUP4 ADD DUP5 PUSH2 0x2C7C JUMP JUMPDEST PUSH1 0x0 DUP1 PUSH1 0x0 DUP1 PUSH1 0x60 DUP6 DUP8 SUB SLT ISZERO PUSH2 0x30C8 JUMPI PUSH1 0x0 DUP1 REVERT JUMPDEST DUP5 CALLDATALOAD SWAP4 POP PUSH1 0x20 DUP6 ADD CALLDATALOAD SWAP3 POP PUSH1 0x40 DUP6 ADD CALLDATALOAD PUSH8 0xFFFFFFFFFFFFFFFF DUP2 GT ISZERO PUSH2 0x30ED JUMPI PUSH1 0x0 DUP1 REVERT JUMPDEST PUSH2 0x2C70 DUP8 DUP3 DUP9 ADD PUSH2 0x2BCB JUMP JUMPDEST PUSH1 0x0 DUP1 PUSH1 0x0 DUP1 PUSH1 0x60 DUP6 DUP8 SUB SLT ISZERO PUSH2 0x310F JUMPI PUSH1 0x0 DUP1 REVERT JUMPDEST PUSH2 0x3118 DUP6 PUSH2 0x2D60 JUMP JUMPDEST SWAP4 POP PUSH1 0x20 DUP6 ADD CALLDATALOAD SWAP3 POP PUSH1 0x40 DUP6 ADD CALLDATALOAD PUSH8 0xFFFFFFFFFFFFFFFF DUP2 GT ISZERO PUSH2 0x30ED JUMPI PUSH1 0x0 DUP1 REVERT JUMPDEST PUSH1 0x0 DUP1 PUSH1 0x0 PUSH1 0x40 DUP5 DUP7 SUB SLT ISZERO PUSH2 0x3150 JUMPI PUSH1 0x0 DUP1 REVERT JUMPDEST DUP4 CALLDATALOAD PUSH8 0xFFFFFFFFFFFFFFFF DUP1 DUP3 GT ISZERO PUSH2 0x3168 JUMPI PUSH1 0x0 DUP1 REVERT JUMPDEST PUSH2 0x3174 DUP8 DUP4 DUP9 ADD PUSH2 0x2E86 JUMP JUMPDEST SWAP5 POP PUSH1 0x20 DUP7 ADD CALLDATALOAD SWAP2 POP DUP1 DUP3 GT ISZERO PUSH2 0x318A JUMPI PUSH1 0x0 DUP1 REVERT JUMPDEST POP PUSH2 0x2E79 DUP7 DUP3 DUP8 ADD PUSH2 0x2BCB JUMP JUMPDEST PUSH1 0x0 DUP1 PUSH1 0x0 DUP1 PUSH1 0x0 DUP1 PUSH1 0x0 PUSH1 0x80 DUP9 DUP11 SUB SLT ISZERO PUSH2 0x31B2 JUMPI PUSH1 0x0 DUP1 REVERT JUMPDEST DUP8 CALLDATALOAD PUSH8 0xFFFFFFFFFFFFFFFF DUP1 DUP3 GT ISZERO PUSH2 0x31CA JUMPI PUSH1 0x0 DUP1 REVERT JUMPDEST PUSH2 0x31D6 DUP12 DUP4 DUP13 ADD PUSH2 0x2BCB JUMP JUMPDEST SWAP1 SWAP10 POP SWAP8 POP PUSH1 0x20 DUP11 ADD CALLDATALOAD SWAP2 POP DUP1 DUP3 GT ISZERO PUSH2 0x31EF JUMPI PUSH1 0x0 DUP1 REVERT JUMPDEST PUSH2 0x31FB DUP12 DUP4 DUP13 ADD PUSH2 0x2BCB JUMP JUMPDEST SWAP1 SWAP8 POP SWAP6 POP PUSH1 0x40 DUP11 ADD CALLDATALOAD SWAP5 POP PUSH1 0x60 DUP11 ADD CALLDATALOAD SWAP2 POP DUP1 DUP3 GT ISZERO PUSH2 0x321B JUMPI PUSH1 0x0 DUP1 REVERT JUMPDEST POP PUSH2 0x3228 DUP11 DUP3 DUP12 ADD PUSH2 0x2BCB JUMP JUMPDEST SWAP9 SWAP12 SWAP8 SWAP11 POP SWAP6 SWAP9 POP SWAP4 SWAP7 SWAP3 SWAP6 SWAP3 SWAP4 POP POP POP JUMP JUMPDEST PUSH1 0x0 DUP1 PUSH1 0x0 DUP1 PUSH1 0x0 DUP1 PUSH1 0x0 DUP1 PUSH1 0xA0 DUP10 DUP12 SUB SLT ISZERO PUSH2 0x3257 JUMPI PUSH1 0x0 DUP1 REVERT JUMPDEST PUSH2 0x3260 DUP10 PUSH2 0x2D60 JUMP JUMPDEST SWAP8 POP PUSH2 0x326E PUSH1 0x20 DUP11 ADD PUSH2 0x2D60 JUMP JUMPDEST SWAP7 POP PUSH1 0x40 DUP10 ADD CALLDATALOAD PUSH8 0xFFFFFFFFFFFFFFFF DUP1 DUP3 GT ISZERO PUSH2 0x328B JUMPI PUSH1 0x0 DUP1 REVERT JUMPDEST PUSH2 0x3297 DUP13 DUP4 DUP14 ADD PUSH2 0x2BCB JUMP JUMPDEST SWAP1 SWAP9 POP SWAP7 POP PUSH1 0x60 DUP12 ADD CALLDATALOAD SWAP2 POP DUP1 DUP3 GT ISZERO PUSH2 0x32B0 JUMPI PUSH1 0x0 DUP1 REVERT JUMPDEST PUSH2 0x32BC DUP13 DUP4 DUP14 ADD PUSH2 0x2BCB JUMP JUMPDEST SWAP1 SWAP7 POP SWAP5 POP PUSH1 0x80 DUP12 ADD CALLDATALOAD SWAP2 POP DUP1 DUP3 GT ISZERO PUSH2 0x32D5 JUMPI PUSH1 0x0 DUP1 REVERT JUMPDEST POP PUSH2 0x32E2 DUP12 DUP3 DUP13 ADD PUSH2 0x2D89 JUMP JUMPDEST SWAP10 SWAP13 SWAP9 SWAP12 POP SWAP7 SWAP10 POP SWAP5 SWAP8 SWAP4 SWAP7 SWAP3 SWAP6 SWAP5 POP POP POP JUMP JUMPDEST PUSH1 0x0 PUSH1 0x20 DUP3 DUP5 SUB SLT ISZERO PUSH2 0x3308 JUMPI PUSH1 0x0 DUP1 REVERT JUMPDEST PUSH2 0x884 DUP3 PUSH2 0x2D60 JUMP JUMPDEST PUSH1 0x0 DUP1 PUSH1 0x0 DUP1 PUSH1 0x0 PUSH1 0x80 DUP7 DUP9 SUB SLT ISZERO PUSH2 0x3329 JUMPI PUSH1 0x0 DUP1 REVERT JUMPDEST PUSH2 0x3332 DUP7 PUSH2 0x2D60 JUMP JUMPDEST SWAP5 POP PUSH1 0x20 DUP7 ADD CALLDATALOAD SWAP4 POP PUSH1 0x40 DUP7 ADD CALLDATALOAD SWAP3 POP PUSH1 0x60 DUP7 ADD CALLDATALOAD PUSH8 0xFFFFFFFFFFFFFFFF DUP2 GT ISZERO PUSH2 0x335C JUMPI PUSH1 0x0 DUP1 REVERT JUMPDEST PUSH2 0x2E29 DUP9 DUP3 DUP10 ADD PUSH2 0x2BCB JUMP JUMPDEST PUSH1 0x0 PUSH1 0x20 DUP3 DUP5 SUB SLT ISZERO PUSH2 0x337A JUMPI PUSH1 0x0 DUP1 REVERT JUMPDEST DUP2 CALLDATALOAD PUSH8 0xFFFFFFFFFFFFFFFF DUP2 GT ISZERO PUSH2 0x3391 JUMPI PUSH1 0x0 DUP1 REVERT JUMPDEST PUSH2 0xB11 DUP5 DUP3 DUP6 ADD PUSH2 0x2E86 JUMP JUMPDEST PUSH1 0x0 DUP1 PUSH1 0x0 DUP1 PUSH1 0x0 DUP1 PUSH1 0xA0 DUP8 DUP10 SUB SLT ISZERO PUSH2 0x33B6 JUMPI PUSH1 0x0 DUP1 REVERT JUMPDEST PUSH2 0x33BF DUP8 PUSH2 0x2D60 JUMP JUMPDEST SWAP6 POP PUSH2 0x33CD PUSH1 0x20 DUP9 ADD PUSH2 0x2D60 JUMP JUMPDEST SWAP5 POP PUSH1 0x40 DUP8 ADD CALLDATALOAD SWAP4 POP PUSH1 0x60 DUP8 ADD CALLDATALOAD SWAP3 POP PUSH1 0x80 DUP8 ADD CALLDATALOAD PUSH8 0xFFFFFFFFFFFFFFFF DUP2 GT ISZERO PUSH2 0x33F7 JUMPI PUSH1 0x0 DUP1 REVERT JUMPDEST PUSH2 0x3403 DUP10 DUP3 DUP11 ADD PUSH2 0x2D89 JUMP JUMPDEST SWAP8 SWAP11 SWAP7 SWAP10 POP SWAP5 SWAP8 POP SWAP3 SWAP6 SWAP4 SWAP5 SWAP3 POP POP POP JUMP JUMPDEST PUSH1 0x0 DUP1 DUP4 CALLDATALOAD PUSH32 0xFFFFFFFFFFFFFFFFFFFFFFFFFFFFFFFFFFFFFFFFFFFFFFFFFFFFFFFFFFFFFFE1 DUP5 CALLDATASIZE SUB ADD DUP2 SLT PUSH2 0x344A JUMPI PUSH1 0x0 DUP1 REVERT JUMPDEST DUP4 ADD PUSH1 0x20 DUP2 ADD SWAP3 POP CALLDATALOAD SWAP1 POP PUSH8 0xFFFFFFFFFFFFFFFF DUP2 GT ISZERO PUSH2 0x346A JUMPI PUSH1 0x0 DUP1 REVERT JUMPDEST DUP1 CALLDATASIZE SUB DUP3 SGT ISZERO PUSH2 0x21C9 JUMPI PUSH1 0x0 DUP1 REVERT JUMPDEST DUP2 DUP4 MSTORE DUP2 DUP2 PUSH1 0x20 DUP6 ADD CALLDATACOPY POP PUSH1 0x0 PUSH1 0x20 DUP3 DUP5 ADD ADD MSTORE PUSH1 0x0 PUSH1 0x20 PUSH32 0xFFFFFFFFFFFFFFFFFFFFFFFFFFFFFFFFFFFFFFFFFFFFFFFFFFFFFFFFFFFFFFE0 PUSH1 0x1F DUP5 ADD AND DUP5 ADD ADD SWAP1 POP SWAP3 SWAP2 POP POP JUMP JUMPDEST PUSH20 0xFFFFFFFFFFFFFFFFFFFFFFFFFFFFFFFFFFFFFFFF PUSH2 0x34E0 DUP3 PUSH2 0x2D60 JUMP JUMPDEST AND DUP3 MSTORE PUSH1 0x20 DUP2 ADD CALLDATALOAD PUSH1 0x20 DUP4 ADD MSTORE PUSH1 0x40 DUP2 ADD CALLDATALOAD PUSH1 0x40 DUP4 ADD MSTORE PUSH1 0x0 PUSH2 0x3506 PUSH1 0x60 DUP4 ADD DUP4 PUSH2 0x3415 JUMP JUMPDEST PUSH1 0x80 PUSH1 0x60 DUP7 ADD MSTORE PUSH2 0x351B PUSH1 0x80 DUP7 ADD DUP3 DUP5 PUSH2 0x3479 JUMP JUMPDEST SWAP6 SWAP5 POP POP POP POP POP JUMP JUMPDEST PUSH1 0x40 DUP1 DUP3 MSTORE DUP2 ADD DUP4 SWAP1 MSTORE PUSH1 0x0 PUSH1 0x60 PUSH1 0x5 DUP6 SWAP1 SHL DUP4 ADD DUP2 ADD SWAP1 DUP4 ADD DUP7 DUP4 DUP1 JUMPDEST DUP9 DUP2 LT ISZERO PUSH2 0x35C4 JUMPI PUSH32 0xFFFFFFFFFFFFFFFFFFFFFFFFFFFFFFFFFFFFFFFFFFFFFFFFFFFFFFFFFFFFFFA0 DUP8 DUP7 SUB ADD DUP5 MSTORE DUP3 CALLDATALOAD PUSH32 0xFFFFFFFFFFFFFFFFFFFFFFFFFFFFFFFFFFFFFFFFFFFFFFFFFFFFFFFFFFFFFF81 DUP12 CALLDATASIZE SUB ADD DUP2 SLT PUSH2 0x35A2 JUMPI DUP3 DUP4 REVERT JUMPDEST PUSH2 0x35AE DUP7 DUP13 DUP4 ADD PUSH2 0x34C2 JUMP JUMPDEST SWAP6 POP POP PUSH1 0x20 SWAP4 DUP5 ADD SWAP4 SWAP3 SWAP1 SWAP3 ADD SWAP2 PUSH1 0x1 ADD PUSH2 0x3542 JUMP JUMPDEST POP POP POP POP PUSH1 0x20 SWAP3 SWAP1 SWAP3 ADD SWAP3 SWAP1 SWAP3 MSTORE SWAP4 SWAP3 POP POP POP JUMP JUMPDEST PUSH32 0x4E487B7100000000000000000000000000000000000000000000000000000000 PUSH1 0x0 MSTORE PUSH1 0x41 PUSH1 0x4 MSTORE PUSH1 0x24 PUSH1 0x0 REVERT JUMPDEST PUSH1 0x40 MLOAD PUSH1 0x1F DUP3 ADD PUSH32 0xFFFFFFFFFFFFFFFFFFFFFFFFFFFFFFFFFFFFFFFFFFFFFFFFFFFFFFFFFFFFFFE0 AND DUP2 ADD PUSH8 0xFFFFFFFFFFFFFFFF DUP2 GT DUP3 DUP3 LT OR ISZERO PUSH2 0x364F JUMPI PUSH2 0x364F PUSH2 0x35D9 JUMP JUMPDEST PUSH1 0x40 MSTORE SWAP2 SWAP1 POP JUMP JUMPDEST PUSH1 0x0 PUSH8 0xFFFFFFFFFFFFFFFF DUP1 DUP5 GT ISZERO PUSH2 0x3672 JUMPI PUSH2 0x3672 PUSH2 0x35D9 JUMP JUMPDEST DUP4 PUSH1 0x5 SHL PUSH1 0x20 PUSH2 0x3683 DUP2 DUP4 ADD PUSH2 0x3608 JUMP JUMPDEST DUP7 DUP2 MSTORE SWAP2 DUP6 ADD SWAP2 DUP2 DUP2 ADD SWAP1 CALLDATASIZE DUP5 GT ISZERO PUSH2 0x369B JUMPI PUSH1 0x0 DUP1 REVERT JUMPDEST DUP7 JUMPDEST DUP5 DUP2 LT ISZERO PUSH2 0x23FC JUMPI DUP1 CALLDATALOAD DUP7 DUP2 GT ISZERO PUSH2 0x36B5 JUMPI PUSH1 0x0 DUP1 DUP2 REVERT JUMPDEST DUP9 ADD PUSH1 0x1F CALLDATASIZE DUP2 DUP4 ADD SLT PUSH2 0x36C8 JUMPI PUSH1 0x0 DUP1 DUP2 REVERT JUMPDEST DUP2 CALLDATALOAD DUP9 DUP2 GT ISZERO PUSH2 0x36DA JUMPI PUSH2 0x36DA PUSH2 0x35D9 JUMP JUMPDEST PUSH2 0x3709 DUP8 PUSH32 0xFFFFFFFFFFFFFFFFFFFFFFFFFFFFFFFFFFFFFFFFFFFFFFFFFFFFFFFFFFFFFFE0 DUP5 DUP5 ADD AND ADD PUSH2 0x3608 JUMP JUMPDEST SWAP2 POP DUP1 DUP3 MSTORE CALLDATASIZE DUP8 DUP3 DUP6 ADD ADD GT ISZERO PUSH2 0x3720 JUMPI PUSH1 0x0 DUP1 DUP2 REVERT JUMPDEST DUP1 DUP8 DUP5 ADD DUP9 DUP5 ADD CALLDATACOPY PUSH1 0x0 SWAP1 DUP3 ADD DUP8 ADD MSTORE DUP5 MSTORE POP SWAP2 DUP4 ADD SWAP2 DUP4 ADD PUSH2 0x369D JUMP JUMPDEST PUSH32 0x4E487B7100000000000000000000000000000000000000000000000000000000 PUSH1 0x0 MSTORE PUSH1 0x32 PUSH1 0x4 MSTORE PUSH1 0x24 PUSH1 0x0 REVERT JUMPDEST PUSH1 0x0 DUP1 DUP4 CALLDATALOAD PUSH32 0xFFFFFFFFFFFFFFFFFFFFFFFFFFFFFFFFFFFFFFFFFFFFFFFFFFFFFFFFFFFFFFE1 DUP5 CALLDATASIZE SUB ADD DUP2 SLT PUSH2 0x37A2 JUMPI PUSH1 0x0 DUP1 REVERT JUMPDEST DUP4 ADD DUP1 CALLDATALOAD SWAP2 POP PUSH8 0xFFFFFFFFFFFFFFFF DUP3 GT ISZERO PUSH2 0x37BD JUMPI PUSH1 0x0 DUP1 REVERT JUMPDEST PUSH1 0x20 ADD SWAP2 POP CALLDATASIZE DUP2 SWAP1 SUB DUP3 SGT ISZERO PUSH2 0x21C9 JUMPI PUSH1 0x0 DUP1 REVERT JUMPDEST DUP2 DUP4 DUP3 CALLDATACOPY PUSH1 0x0 SWAP2 ADD SWAP1 DUP2 MSTORE SWAP2 SWAP1 POP JUMP JUMPDEST PUSH32 0x4E487B7100000000000000000000000000000000000000000000000000000000 PUSH1 0x0 MSTORE PUSH1 0x11 PUSH1 0x4 MSTORE PUSH1 0x24 PUSH1 0x0 REVERT JUMPDEST PUSH1 0x0 PUSH32 0xFFFFFFFFFFFFFFFFFFFFFFFFFFFFFFFFFFFFFFFFFFFFFFFFFFFFFFFFFFFFFFFF DUP3 SUB PUSH2 0x3842 JUMPI PUSH2 0x3842 PUSH2 0x37E2 JUMP JUMPDEST POP PUSH1 0x1 ADD SWAP1 JUMP JUMPDEST PUSH1 0x0 DUP3 CALLDATALOAD PUSH32 0xFFFFFFFFFFFFFFFFFFFFFFFFFFFFFFFFFFFFFFFFFFFFFFFFFFFFFFFFFFFFFF81 DUP4 CALLDATASIZE SUB ADD DUP2 SLT PUSH2 0x387D JUMPI PUSH1 0x0 DUP1 REVERT JUMPDEST SWAP2 SWAP1 SWAP2 ADD SWAP3 SWAP2 POP POP JUMP JUMPDEST PUSH1 0x0 PUSH20 0xFFFFFFFFFFFFFFFFFFFFFFFFFFFFFFFFFFFFFFFF DUP1 PUSH2 0x38A8 DUP5 PUSH2 0x2D60 JUMP JUMPDEST AND DUP5 MSTORE DUP1 PUSH2 0x38B8 PUSH1 0x20 DUP6 ADD PUSH2 0x2D60 JUMP JUMPDEST AND PUSH1 0x20 DUP6 ADD MSTORE POP PUSH1 0x40 DUP3 ADD CALLDATALOAD PUSH1 0x40 DUP5 ADD MSTORE PUSH2 0x3506 PUSH1 0x60 DUP4 ADD DUP4 PUSH2 0x3415 JUMP JUMPDEST PUSH1 0x60 DUP2 MSTORE PUSH1 0x0 PUSH2 0x38E9 PUSH1 0x60 DUP4 ADD DUP7 PUSH2 0x3887 JUMP JUMPDEST PUSH1 0x20 DUP4 ADD SWAP5 SWAP1 SWAP5 MSTORE POP PUSH1 0x40 ADD MSTORE SWAP2 SWAP1 POP JUMP JUMPDEST PUSH1 0x0 PUSH20 0xFFFFFFFFFFFFFFFFFFFFFFFFFFFFFFFFFFFFFFFF DUP1 DUP9 AND DUP4 MSTORE DUP1 DUP8 AND PUSH1 0x20 DUP5 ADD MSTORE POP DUP5 PUSH1 0x40 DUP4 ADD MSTORE PUSH1 0x80 PUSH1 0x60 DUP4 ADD MSTORE PUSH2 0x393B PUSH1 0x80 DUP4 ADD DUP5 DUP7 PUSH2 0x3479 JUMP JUMPDEST SWAP8 SWAP7 POP POP POP POP POP POP POP JUMP JUMPDEST DUP2 DUP4 MSTORE PUSH1 0x0 PUSH1 0x20 DUP1 DUP6 ADD SWAP5 POP DUP3 PUSH1 0x0 JUMPDEST DUP6 DUP2 LT ISZERO PUSH2 0x398F JUMPI PUSH20 0xFFFFFFFFFFFFFFFFFFFFFFFFFFFFFFFFFFFFFFFF PUSH2 0x397C DUP4 PUSH2 0x2D60 JUMP JUMPDEST AND DUP8 MSTORE SWAP6 DUP3 ADD SWAP6 SWAP1 DUP3 ADD SWAP1 PUSH1 0x1 ADD PUSH2 0x3956 JUMP JUMPDEST POP SWAP5 SWAP6 SWAP5 POP POP POP POP POP JUMP JUMPDEST PUSH1 0x60 DUP2 MSTORE PUSH1 0x0 PUSH2 0x39AE PUSH1 0x60 DUP4 ADD DUP7 DUP9 PUSH2 0x3946 JUMP JUMPDEST PUSH1 0x20 DUP4 ADD SWAP5 SWAP1 SWAP5 MSTORE POP PUSH1 0x40 ADD MSTORE SWAP3 SWAP2 POP POP JUMP JUMPDEST PUSH8 0xFFFFFFFFFFFFFFFF DUP2 AND DUP2 EQ PUSH2 0x2A97 JUMPI PUSH1 0x0 DUP1 REVERT JUMPDEST PUSH4 0xFFFFFFFF DUP2 AND DUP2 EQ PUSH2 0x2A97 JUMPI PUSH1 0x0 DUP1 REVERT JUMPDEST PUSH1 0x0 PUSH2 0x100 DUP1 DUP4 MSTORE PUSH2 0x39FD DUP2 DUP5 ADD DUP9 PUSH2 0x3887 JUMP JUMPDEST SWAP2 POP POP DUP5 CALLDATALOAD PUSH2 0x3A0B DUP2 PUSH2 0x39C1 JUMP JUMPDEST PUSH8 0xFFFFFFFFFFFFFFFF DUP1 DUP3 AND PUSH1 0x20 DUP6 ADD MSTORE PUSH1 0x20 DUP8 ADD CALLDATALOAD SWAP2 POP PUSH2 0x3A2C DUP3 PUSH2 0x39C1 JUMP JUMPDEST AND PUSH1 0x40 DUP4 DUP2 ADD SWAP2 SWAP1 SWAP2 MSTORE DUP6 ADD CALLDATALOAD PUSH2 0x3A42 DUP2 PUSH2 0x39D7 JUMP JUMPDEST PUSH4 0xFFFFFFFF DUP1 DUP3 AND PUSH1 0x60 DUP6 ADD MSTORE PUSH1 0x60 DUP8 ADD CALLDATALOAD SWAP2 POP PUSH2 0x3A5F DUP3 PUSH2 0x39D7 JUMP JUMPDEST DUP1 DUP3 AND PUSH1 0x80 DUP6 ADD MSTORE PUSH1 0x80 DUP8 ADD CALLDATALOAD SWAP2 POP PUSH2 0x3A77 DUP3 PUSH2 0x39D7 JUMP JUMPDEST AND PUSH1 0xA0 DUP4 ADD MSTORE PUSH1 0xC0 DUP3 ADD SWAP4 SWAP1 SWAP4 MSTORE PUSH1 0xE0 ADD MSTORE SWAP3 SWAP2 POP POP JUMP JUMPDEST PUSH1 0x0 PUSH1 0x20 DUP3 DUP5 SUB SLT ISZERO PUSH2 0x3AA1 JUMPI PUSH1 0x0 DUP1 REVERT JUMPDEST DUP2 CALLDATALOAD PUSH2 0x884 DUP2 PUSH2 0x39D7 JUMP JUMPDEST PUSH1 0x0 DUP2 CALLDATALOAD PUSH2 0x102F DUP2 PUSH2 0x39D7 JUMP JUMPDEST DUP2 CALLDATALOAD PUSH2 0x3AC4 DUP2 PUSH2 0x39C1 JUMP JUMPDEST PUSH8 0xFFFFFFFFFFFFFFFF DUP2 AND SWAP1 POP DUP2 SLOAD DUP2 PUSH32 0xFFFFFFFFFFFFFFFFFFFFFFFFFFFFFFFFFFFFFFFFFFFFFFFF0000000000000000 DUP3 AND OR DUP4 SSTORE PUSH1 0x20 DUP5 ADD CALLDATALOAD PUSH2 0x3B08 DUP2 PUSH2 0x39C1 JUMP JUMPDEST PUSH16 0xFFFFFFFFFFFFFFFF0000000000000000 DUP2 PUSH1 0x40 SHL AND SWAP1 POP DUP1 DUP4 PUSH32 0xFFFFFFFFFFFFFFFFFFFFFFFFFFFFFFFF00000000000000000000000000000000 DUP5 AND OR OR DUP5 SSTORE PUSH1 0x40 DUP6 ADD CALLDATALOAD PUSH2 0x3B57 DUP2 PUSH2 0x39D7 JUMP JUMPDEST PUSH20 0xFFFFFFFF00000000000000000000000000000000 DUP2 PUSH1 0x80 SHL AND SWAP1 POP DUP4 PUSH32 0xFFFFFFFFFFFFFFFFFFFFFFFF0000000000000000000000000000000000000000 DUP5 AND OR SWAP4 POP DUP1 DUP5 DUP4 OR OR DUP6 SSTORE PUSH1 0x60 DUP7 ADD CALLDATALOAD SWAP3 POP PUSH2 0x3BB1 DUP4 PUSH2 0x39D7 JUMP JUMPDEST PUSH24 0xFFFFFFFF0000000000000000000000000000000000000000 DUP4 PUSH1 0xA0 SHL AND PUSH32 0xFFFFFFFFFFFFFFFF00000000FFFFFFFFFFFFFFFFFFFFFFFFFFFFFFFFFFFFFFFF DUP6 AND DUP4 OR DUP3 OR OR DUP6 SSTORE POP POP POP POP PUSH2 0x3C59 PUSH2 0x3C0C PUSH1 0x80 DUP5 ADD PUSH2 0x3AAC JUMP JUMPDEST DUP3 SLOAD PUSH32 0xFFFFFFFF00000000FFFFFFFFFFFFFFFFFFFFFFFFFFFFFFFFFFFFFFFFFFFFFFFF AND PUSH1 0xC0 SWAP2 SWAP1 SWAP2 SHL PUSH28 0xFFFFFFFF000000000000000000000000000000000000000000000000 AND OR DUP3 SSTORE JUMP JUMPDEST POP POP JUMP JUMPDEST PUSH1 0x0 PUSH1 0x20 DUP3 DUP5 SUB SLT ISZERO PUSH2 0x3C6F JUMPI PUSH1 0x0 DUP1 REVERT JUMPDEST DUP2 MLOAD DUP1 ISZERO ISZERO DUP2 EQ PUSH2 0x884 JUMPI PUSH1 0x0 DUP1 REVERT JUMPDEST PUSH1 0x40 DUP2 MSTORE PUSH1 0x0 PUSH2 0x3C92 PUSH1 0x40 DUP4 ADD DUP6 PUSH2 0x34C2 JUMP JUMPDEST SWAP1 POP DUP3 PUSH1 0x20 DUP4 ADD MSTORE SWAP4 SWAP3 POP POP POP JUMP JUMPDEST PUSH1 0x80 DUP2 MSTORE PUSH1 0x0 PUSH2 0x3CB5 PUSH1 0x80 DUP4 ADD DUP9 DUP11 PUSH2 0x3946 JUMP JUMPDEST DUP3 DUP2 SUB PUSH1 0x20 DUP5 ADD MSTORE DUP6 DUP2 MSTORE PUSH32 0x7FFFFFFFFFFFFFFFFFFFFFFFFFFFFFFFFFFFFFFFFFFFFFFFFFFFFFFFFFFFFFF DUP7 GT ISZERO PUSH2 0x3CED JUMPI PUSH1 0x0 DUP1 REVERT JUMPDEST DUP6 PUSH1 0x5 SHL DUP1 DUP9 PUSH1 0x20 DUP5 ADD CALLDATACOPY PUSH1 0x40 DUP5 ADD SWAP6 SWAP1 SWAP6 MSTORE PUSH1 0x60 SWAP1 SWAP3 ADD SWAP3 SWAP1 SWAP3 MSTORE SWAP1 SWAP2 ADD PUSH1 0x20 ADD SWAP6 SWAP5 POP POP POP POP POP JUMP JUMPDEST DUP2 DUP2 SUB DUP2 DUP2 GT ISZERO PUSH2 0x102F JUMPI PUSH2 0x102F PUSH2 0x37E2 JUMP JUMPDEST DUP1 DUP3 ADD DUP1 DUP3 GT ISZERO PUSH2 0x102F JUMPI PUSH2 0x102F PUSH2 0x37E2 JUMP JUMPDEST PUSH8 0xFFFFFFFFFFFFFFFF DUP2 DUP2 AND DUP4 DUP3 AND ADD SWAP1 DUP1 DUP3 GT ISZERO PUSH2 0x3D5F JUMPI PUSH2 0x3D5F PUSH2 0x37E2 JUMP JUMPDEST POP SWAP3 SWAP2 POP POP JUMP JUMPDEST PUSH4 0xFFFFFFFF DUP2 DUP2 AND DUP4 DUP3 AND ADD SWAP1 DUP1 DUP3 GT ISZERO PUSH2 0x3D5F JUMPI PUSH2 0x3D5F PUSH2 0x37E2 JUMP JUMPDEST PUSH32 0x4E487B7100000000000000000000000000000000000000000000000000000000 PUSH1 0x0 MSTORE PUSH1 0x12 PUSH1 0x4 MSTORE PUSH1 0x24 PUSH1 0x0 REVERT JUMPDEST PUSH1 0x0 DUP3 PUSH2 0x3DC1 JUMPI PUSH2 0x3DC1 PUSH2 0x3D83 JUMP JUMPDEST POP MOD SWAP1 JUMP JUMPDEST PUSH1 0x0 DUP3 PUSH2 0x3DD5 JUMPI PUSH2 0x3DD5 PUSH2 0x3D83 JUMP JUMPDEST POP DIV SWAP1 JUMP JUMPDEST DUP1 DUP3 MUL DUP2 ISZERO DUP3 DUP3 DIV DUP5 EQ OR PUSH2 0x102F JUMPI PUSH2 0x102F PUSH2 0x37E2 JUMP JUMPDEST PUSH32 0x4E487B7100000000000000000000000000000000000000000000000000000000 PUSH1 0x0 MSTORE PUSH1 0x21 PUSH1 0x4 MSTORE PUSH1 0x24 PUSH1 0x0 REVERT INVALID MSTORE8 PUSH10 0x676E6572207765696768 PUSH21 0x7320646F6573206E6F74206D656574207468726573 PUSH9 0x6F6C644174206C6561 PUSH20 0x74206F6E65207369676E6174757265206E6F7420 PUSH7 0x726F6D2061206B PUSH15 0x6F776E20636F6E74726F6C6C657241 PUSH21 0x206C65617374206F6E65207369676E617475726520 PUSH2 0x6C72 PUSH6 0x616479207573 PUSH6 0x64A264697066 PUSH20 0x58221220509CD376C058A9BDD0DEEA199C8B5067 MSTORE SWAP4 0xB2 0x4E 0xB8 0xEF GAS 0x1E DUP5 0xAB 0xCF 0x5D 0x26 0xF9 0xD2 0x26 PUSH5 0x736F6C6343 STOP ADDMOD SLT STOP CALLER "},"methodIdentifiers":{"addControllers(address[],uint256[],uint256,bytes[])":"af915498","controlThreshold()":"a7865090","controllerWeight(address)":"f04420f1","controllersTotalWeight()":"06e82383","execute((address,uint256,uint256,bytes),bytes[])":"a3e8d51e","initialize(address)":"c4d66de8","isValidSignature(bytes,bytes)":"20c13b0b","isValidSignature(bytes32,bytes)":"1626ba7e","multiExecute((address,uint256,uint256,bytes)[],bytes[])":"0d992b2b","multiPermittedExecute((address,uint256,uint256,bytes)[])":"524886d2","onERC1155BatchReceived(address,address,uint256[],uint256[],bytes)":"bc197c81","onERC1155Received(address,address,uint256,uint256,bytes)":"f23a6e61","onERC721Received(address,address,uint256,bytes)":"150b7a02","permitExecute((address,address,uint256,bytes),(uint64,uint64,uint32,uint32,uint32),uint256,bytes[])":"2a365cbd","permittedExecute((address,uint256,uint256,bytes))":"e57db71e","removeControllers(address[],uint256,bytes[])":"286936bb","supportsInterface(bytes4)":"01ffc9a7","supportsUpgrades()":"fec5c09a","unpermitExecute((address,address,uint256,bytes),uint256,bytes[])":"1ab08563","updateControlThreshold(uint256,uint256,bytes[])":"87f949b4","updateControllerWeight(address,uint256,uint256,bytes[])":"d0bccea1","upgrade(address,uint256,bytes[])":"94c4395b","version()":"54fd4d50"}}}}}