{"contracts/modules/Upgrades/Upgrades.sol":{"Upgrades":{"abi":[{"inputs":[{"internalType":"address[]","name":"_controllers","type":"address[]"},{"internalType":"uint256[]","name":"_weights","type":"uint256[]"},{"internalType":"uint256","name":"_nonce","type":"uint256"},{"internalType":"bytes[]","name":"_signatures","type":"bytes[]"}],"name":"addControllers","outputs":[],"stateMutability":"nonpayable","type":"function"},{"inputs":[],"name":"controlThreshold","outputs":[{"internalType":"uint256","name":"","type":"uint256"}],"stateMutability":"view","type":"function"},{"inputs":[{"internalType":"address","name":"_controller","type":"address"}],"name":"controllerWeight","outputs":[{"internalType":"uint256","name":"","type":"uint256"}],"stateMutability":"view","type":"function"},{"inputs":[],"name":"controllersTotalWeight","outputs":[{"internalType":"uint256","name":"","type":"uint256"}],"stateMutability":"view","type":"function"},{"inputs":[{"internalType":"address[]","name":"_controllers","type":"address[]"},{"internalType":"uint256","name":"_nonce","type":"uint256"},{"internalType":"bytes[]","name":"_signatures","type":"bytes[]"}],"name":"removeControllers","outputs":[],"stateMutability":"nonpayable","type":"function"},{"inputs":[],"name":"supportsUpgrades","outputs":[{"internalType":"bool","name":"","type":"bool"}],"stateMutability":"pure","type":"function"},{"inputs":[{"internalType":"uint256","name":"_threshold","type":"uint256"},{"internalType":"uint256","name":"_nonce","type":"uint256"},{"internalType":"bytes[]","name":"_signatures","type":"bytes[]"}],"name":"updateControlThreshold","outputs":[],"stateMutability":"nonpayable","type":"function"},{"inputs":[{"internalType":"address","name":"_controller","type":"address"},{"internalType":"uint256","name":"_weight","type":"uint256"},{"internalType":"uint256","name":"_nonce","type":"uint256"},{"internalType":"bytes[]","name":"_signatures","type":"bytes[]"}],"name":"updateControllerWeight","outputs":[],"stateMutability":"nonpayable","type":"function"},{"inputs":[{"internalType":"address","name":"_implementation","type":"address"},{"internalType":"uint256","name":"_nonce","type":"uint256"},{"internalType":"bytes[]","name":"_signatures","type":"bytes[]"}],"name":"upgrade","outputs":[],"stateMutability":"nonpayable","type":"function"}],"evm":{"bytecode":{"linkReferences":{},"object":"608060405234801561001057600080fd5b50611c73806100206000396000f3fe608060405234801561001057600080fd5b50600436106100a35760003560e01c8063a786509011610076578063d0bccea11161005b578063d0bccea114610153578063f04420f114610166578063fec5c09a146101bb57600080fd5b8063a786509014610119578063af9154981461014057600080fd5b806306e82383146100a8578063286936bb146100de57806387f949b4146100f357806394c4395b14610106575b600080fd5b7f255f4a56bd3ad76424e31ed8855ef9ad14a0ce4e67508c76ff082e5c1466b130545b6040519081526020015b60405180910390f35b6100f16100ec36600461151c565b6101ca565b005b6100f1610101366004611596565b61038b565b6100f1610114366004611612565b6105ef565b7f255f4a56bd3ad76424e31ed8855ef9ad14a0ce4e67508c76ff082e5c1466b12f546100cb565b6100f161014e366004611654565b610844565b6100f16101613660046116f8565b610a16565b6100cb61017436600461174f565b73ffffffffffffffffffffffffffffffffffffffff1660009081527f255f4a56bd3ad76424e31ed8855ef9ad14a0ce4e67508c76ff082e5c1466b131602052604090205490565b604051600181526020016100d5565b848484466040516020016101e194939291906117be565b604080517fffffffffffffffffffffffffffffffffffffffffffffffffffffffffffffffe08184030181529190528051602090910120828260008061022f8561022a8587611863565b610d39565b91509150818190610276576040517f08c379a000000000000000000000000000000000000000000000000000000000815260040161026d9190611956565b60405180910390fd5b5060005b838110156103315760017f255f4a56bd3ad76424e31ed8855ef9ad14a0ce4e67508c76ff082e5c1466b13260008787858181106102b9576102b96119c2565b90506020028101906102cb91906119f1565b6040516102d9929190611a56565b6040805191829003909120825260208201929092520160002080547fffffffffffffffffffffffffffffffffffffffffffffffffffffffffffffff00169115159190911790558061032981611a95565b91505061027a565b5060005b8981101561037e5761036c8b8b83818110610352576103526119c2565b9050602002016020810190610367919061174f565b610f44565b8061037681611a95565b915050610335565b5050505050505050505050565b6040805160208101869052908101849052466060820152608001604080517fffffffffffffffffffffffffffffffffffffffffffffffffffffffffffffffe0818403018152919052805160209091012082826000806103ee8561022a8587611863565b9150915081819061042c576040517f08c379a000000000000000000000000000000000000000000000000000000000815260040161026d9190611956565b5060005b838110156104e75760017f255f4a56bd3ad76424e31ed8855ef9ad14a0ce4e67508c76ff082e5c1466b132600087878581811061046f5761046f6119c2565b905060200281019061048191906119f1565b60405161048f929190611a56565b6040805191829003909120825260208201929092520160002080547fffffffffffffffffffffffffffffffffffffffffffffffffffffffffffffff0016911515919091179055806104df81611a95565b915050610430565b5060007f255f4a56bd3ad76424e31ed8855ef9ad14a0ce4e67508c76ff082e5c1466b12f5411801561055b57507f255f4a56bd3ad76424e31ed8855ef9ad14a0ce4e67508c76ff082e5c1466b130547f255f4a56bd3ad76424e31ed8855ef9ad14a0ce4e67508c76ff082e5c1466b12f5411155b6105c1576040517f08c379a000000000000000000000000000000000000000000000000000000000815260206004820152601160248201527f496e76616c6964207468726573686f6c64000000000000000000000000000000604482015260640161026d565b887f255f4a56bd3ad76424e31ed8855ef9ad14a0ce4e67508c76ff082e5c1466b12f55505050505050505050565b6040805173ffffffffffffffffffffffffffffffffffffffff86166020820152908101849052466060820152608001604080517fffffffffffffffffffffffffffffffffffffffffffffffffffffffffffffffe0818403018152919052805160209091012082826000806106678561022a8587611863565b915091508181906106a5576040517f08c379a000000000000000000000000000000000000000000000000000000000815260040161026d9190611956565b5060005b838110156107605760017f255f4a56bd3ad76424e31ed8855ef9ad14a0ce4e67508c76ff082e5c1466b13260008787858181106106e8576106e86119c2565b90506020028101906106fa91906119f1565b604051610708929190611a56565b6040805191829003909120825260208201929092520160002080547fffffffffffffffffffffffffffffffffffffffffffffffffffffffffffffff00169115159190911790558061075881611a95565b9150506106a9565b508873ffffffffffffffffffffffffffffffffffffffff1663fec5c09a6040518163ffffffff1660e01b8152600401602060405180830381865afa1580156107ac573d6000803e3d6000fd5b505050506040513d601f19601f820116820180604052508101906107d09190611acd565b610836576040517f08c379a000000000000000000000000000000000000000000000000000000000815260206004820152601660248201527f496e76616c696420696d706c656d656e746174696f6e00000000000000000000604482015260640161026d565b883055505050505050505050565b86868686864660405160200161085f96959493929190611af6565b604080517fffffffffffffffffffffffffffffffffffffffffffffffffffffffffffffffe0818403018152919052805160209091012082826000806108a88561022a8587611863565b915091508181906108e6576040517f08c379a000000000000000000000000000000000000000000000000000000000815260040161026d9190611956565b5060005b838110156109a15760017f255f4a56bd3ad76424e31ed8855ef9ad14a0ce4e67508c76ff082e5c1466b1326000878785818110610929576109296119c2565b905060200281019061093b91906119f1565b604051610949929190611a56565b6040805191829003909120825260208201929092520160002080547fffffffffffffffffffffffffffffffffffffffffffffffffffffffffffffff00169115159190911790558061099981611a95565b9150506108ea565b5060005b8b811015610a07576109f58d8d838181106109c2576109c26119c2565b90506020020160208101906109d7919061174f565b8c8c848181106109e9576109e96119c2565b905060200201356110de565b806109ff81611a95565b9150506109a5565b50505050505050505050505050565b6040805173ffffffffffffffffffffffffffffffffffffffff871660208201529081018590526060810184905246608082015260a001604080517fffffffffffffffffffffffffffffffffffffffffffffffffffffffffffffffe081840301815291905280516020909101208282600080610a958561022a8587611863565b91509150818190610ad3576040517f08c379a000000000000000000000000000000000000000000000000000000000815260040161026d9190611956565b5060005b83811015610b8e5760017f255f4a56bd3ad76424e31ed8855ef9ad14a0ce4e67508c76ff082e5c1466b1326000878785818110610b1657610b166119c2565b9050602002810190610b2891906119f1565b604051610b36929190611a56565b6040805191829003909120825260208201929092520160002080547fffffffffffffffffffffffffffffffffffffffffffffffffffffffffffffff001691151591909117905580610b8681611a95565b915050610ad7565b5073ffffffffffffffffffffffffffffffffffffffff8a1660009081527f255f4a56bd3ad76424e31ed8855ef9ad14a0ce4e67508c76ff082e5c1466b13160205260409020547f255f4a56bd3ad76424e31ed8855ef9ad14a0ce4e67508c76ff082e5c1466b130548a91610c0191611b6d565b610c0b9190611b80565b7f255f4a56bd3ad76424e31ed8855ef9ad14a0ce4e67508c76ff082e5c1466b13081905515801590610c7f57507f255f4a56bd3ad76424e31ed8855ef9ad14a0ce4e67508c76ff082e5c1466b12f547f255f4a56bd3ad76424e31ed8855ef9ad14a0ce4e67508c76ff082e5c1466b1305410155b610ce5576040517f08c379a000000000000000000000000000000000000000000000000000000000815260206004820152601d60248201527f5468726573686f6c6420776f756c6420626520696d706f737369626c65000000604482015260640161026d565b5050505073ffffffffffffffffffffffffffffffffffffffff9590951660009081527f255f4a56bd3ad76424e31ed8855ef9ad14a0ce4e67508c76ff082e5c1466b131602052604090209390935550505050565b600060606000805b8451811015610ed8576000610d6f87878481518110610d6257610d626119c2565b6020026020010151611160565b73ffffffffffffffffffffffffffffffffffffffff811660009081527f255f4a56bd3ad76424e31ed8855ef9ad14a0ce4e67508c76ff082e5c1466b131602052604081205491925003610de3576000604051806060016040528060328152602001611be96032913994509450505050610f3d565b6000868381518110610df757610df76119c2565b6020026020010151805190602001209050610e2f7f255f4a56bd3ad76424e31ed8855ef9ad14a0ce4e67508c76ff082e5c1466b12f90565b6000828152600391909101602052604090205460ff1615610e72576000604051806060016040528060238152602001611c1b602391399550955050505050610f3d565b73ffffffffffffffffffffffffffffffffffffffff821660009081527f255f4a56bd3ad76424e31ed8855ef9ad14a0ce4e67508c76ff082e5c1466b1316020526040902054610ec19085611b80565b935050508080610ed090611a95565b915050610d41565b507f255f4a56bd3ad76424e31ed8855ef9ad14a0ce4e67508c76ff082e5c1466b12f54811015610f27576000604051806060016040528060268152602001611bc3602691399250925050610f3d565b5050604080516020810190915260008152600191505b9250929050565b73ffffffffffffffffffffffffffffffffffffffff811660009081527f255f4a56bd3ad76424e31ed8855ef9ad14a0ce4e67508c76ff082e5c1466b13160205260408120547f255f4a56bd3ad76424e31ed8855ef9ad14a0ce4e67508c76ff082e5c1466b130805491929091610fbb908490611b6d565b90915550507f255f4a56bd3ad76424e31ed8855ef9ad14a0ce4e67508c76ff082e5c1466b130541580159061103257507f255f4a56bd3ad76424e31ed8855ef9ad14a0ce4e67508c76ff082e5c1466b12f547f255f4a56bd3ad76424e31ed8855ef9ad14a0ce4e67508c76ff082e5c1466b1305410155b611098576040517f08c379a000000000000000000000000000000000000000000000000000000000815260206004820152601d60248201527f5468726573686f6c6420776f756c6420626520696d706f737369626c65000000604482015260640161026d565b73ffffffffffffffffffffffffffffffffffffffff1660009081527f255f4a56bd3ad76424e31ed8855ef9ad14a0ce4e67508c76ff082e5c1466b1316020526040812055565b807f255f4a56bd3ad76424e31ed8855ef9ad14a0ce4e67508c76ff082e5c1466b12f60010160008282546111129190611b80565b909155505073ffffffffffffffffffffffffffffffffffffffff9190911660009081527f255f4a56bd3ad76424e31ed8855ef9ad14a0ce4e67508c76ff082e5c1466b1316020526040902055565b60006111c3826111bd856040517f19457468657265756d205369676e6564204d6573736167653a0a3332000000006020820152603c8101829052600090605c01604051602081830303815290604052805190602001209050919050565b906111cc565b90505b92915050565b60008060006111db85856111f0565b915091506111e881611232565b509392505050565b60008082516041036112265760208301516040840151606085015160001a61121a878285856113e8565b94509450505050610f3d565b50600090506002610f3d565b600081600481111561124657611246611b93565b0361124e5750565b600181600481111561126257611262611b93565b036112c9576040517f08c379a000000000000000000000000000000000000000000000000000000000815260206004820152601860248201527f45434453413a20696e76616c6964207369676e61747572650000000000000000604482015260640161026d565b60028160048111156112dd576112dd611b93565b03611344576040517f08c379a000000000000000000000000000000000000000000000000000000000815260206004820152601f60248201527f45434453413a20696e76616c6964207369676e6174757265206c656e67746800604482015260640161026d565b600381600481111561135857611358611b93565b036113e5576040517f08c379a000000000000000000000000000000000000000000000000000000000815260206004820152602260248201527f45434453413a20696e76616c6964207369676e6174757265202773272076616c60448201527f7565000000000000000000000000000000000000000000000000000000000000606482015260840161026d565b50565b6000807f7fffffffffffffffffffffffffffffff5d576e7357a4501ddfe92f46681b20a083111561141f57506000905060036114ce565b6040805160008082526020820180845289905260ff881692820192909252606081018690526080810185905260019060a0016020604051602081039080840390855afa158015611473573d6000803e3d6000fd5b50506040517fffffffffffffffffffffffffffffffffffffffffffffffffffffffffffffffe0015191505073ffffffffffffffffffffffffffffffffffffffff81166114c7576000600192509250506114ce565b9150600090505b94509492505050565b60008083601f8401126114e957600080fd5b50813567ffffffffffffffff81111561150157600080fd5b6020830191508360208260051b8501011115610f3d57600080fd5b60008060008060006060868803121561153457600080fd5b853567ffffffffffffffff8082111561154c57600080fd5b61155889838a016114d7565b909750955060208801359450604088013591508082111561157857600080fd5b50611585888289016114d7565b969995985093965092949392505050565b600080600080606085870312156115ac57600080fd5b8435935060208501359250604085013567ffffffffffffffff8111156115d157600080fd5b6115dd878288016114d7565b95989497509550505050565b803573ffffffffffffffffffffffffffffffffffffffff8116811461160d57600080fd5b919050565b6000806000806060858703121561162857600080fd5b611631856115e9565b935060208501359250604085013567ffffffffffffffff8111156115d157600080fd5b60008060008060008060006080888a03121561166f57600080fd5b873567ffffffffffffffff8082111561168757600080fd5b6116938b838c016114d7565b909950975060208a01359150808211156116ac57600080fd5b6116b88b838c016114d7565b909750955060408a0135945060608a01359150808211156116d857600080fd5b506116e58a828b016114d7565b989b979a50959850939692959293505050565b60008060008060006080868803121561171057600080fd5b611719866115e9565b94506020860135935060408601359250606086013567ffffffffffffffff81111561174357600080fd5b611585888289016114d7565b60006020828403121561176157600080fd5b6111c3826115e9565b8183526000602080850194508260005b858110156117b35773ffffffffffffffffffffffffffffffffffffffff6117a0836115e9565b168752958201959082019060010161177a565b509495945050505050565b6060815260006117d260608301868861176a565b6020830194909452506040015292915050565b7f4e487b7100000000000000000000000000000000000000000000000000000000600052604160045260246000fd5b604051601f82017fffffffffffffffffffffffffffffffffffffffffffffffffffffffffffffffe016810167ffffffffffffffff8111828210171561185b5761185b6117e5565b604052919050565b600067ffffffffffffffff8084111561187e5761187e6117e5565b8360051b602061188f818301611814565b8681529185019181810190368411156118a757600080fd5b865b8481101561194a578035868111156118c15760008081fd5b8801601f36818301126118d45760008081fd5b8135888111156118e6576118e66117e5565b611915877fffffffffffffffffffffffffffffffffffffffffffffffffffffffffffffffe08484011601611814565b9150808252368782850101111561192c5760008081fd5b808784018884013760009082018701528452509183019183016118a9565b50979650505050505050565b600060208083528351808285015260005b8181101561198357858101830151858201604001528201611967565b5060006040828601015260407fffffffffffffffffffffffffffffffffffffffffffffffffffffffffffffffe0601f8301168501019250505092915050565b7f4e487b7100000000000000000000000000000000000000000000000000000000600052603260045260246000fd5b60008083357fffffffffffffffffffffffffffffffffffffffffffffffffffffffffffffffe1843603018112611a2657600080fd5b83018035915067ffffffffffffffff821115611a4157600080fd5b602001915036819003821315610f3d57600080fd5b8183823760009101908152919050565b7f4e487b7100000000000000000000000000000000000000000000000000000000600052601160045260246000fd5b60007fffffffffffffffffffffffffffffffffffffffffffffffffffffffffffffffff8203611ac657611ac6611a66565b5060010190565b600060208284031215611adf57600080fd5b81518015158114611aef57600080fd5b9392505050565b608081526000611b0a60808301888a61176a565b82810360208401528581527f07ffffffffffffffffffffffffffffffffffffffffffffffffffffffffffffff861115611b4257600080fd5b8560051b80886020840137604084019590955260609092019290925290910160200195945050505050565b818103818111156111c6576111c6611a66565b808201808211156111c6576111c6611a66565b7f4e487b7100000000000000000000000000000000000000000000000000000000600052602160045260246000fdfe5369676e6572207765696768747320646f6573206e6f74206d656574207468726573686f6c644174206c65617374206f6e65207369676e6174757265206e6f742066726f6d2061206b6e6f776e20636f6e74726f6c6c65724174206c65617374206f6e65207369676e617475726520616c72656164792075736564a264697066735822122048178c2d1e6a289f4f99b5efd67df8c9c54a4f6e727078b8691d314c1854cba964736f6c63430008120033","opcodes":"PUSH1 0x80 PUSH1 0x40 MSTORE CALLVALUE DUP1 ISZERO PUSH2 0x10 JUMPI PUSH1 0x0 DUP1 REVERT JUMPDEST POP PUSH2 0x1C73 DUP1 PUSH2 0x20 PUSH1 0x0 CODECOPY PUSH1 0x0 RETURN INVALID PUSH1 0x80 PUSH1 0x40 MSTORE CALLVALUE DUP1 ISZERO PUSH2 0x10 JUMPI PUSH1 0x0 DUP1 REVERT JUMPDEST POP PUSH1 0x4 CALLDATASIZE LT PUSH2 0xA3 JUMPI PUSH1 0x0 CALLDATALOAD PUSH1 0xE0 SHR DUP1 PUSH4 0xA7865090 GT PUSH2 0x76 JUMPI DUP1 PUSH4 0xD0BCCEA1 GT PUSH2 0x5B JUMPI DUP1 PUSH4 0xD0BCCEA1 EQ PUSH2 0x153 JUMPI DUP1 PUSH4 0xF04420F1 EQ PUSH2 0x166 JUMPI DUP1 PUSH4 0xFEC5C09A EQ PUSH2 0x1BB JUMPI PUSH1 0x0 DUP1 REVERT JUMPDEST DUP1 PUSH4 0xA7865090 EQ PUSH2 0x119 JUMPI DUP1 PUSH4 0xAF915498 EQ PUSH2 0x140 JUMPI PUSH1 0x0 DUP1 REVERT JUMPDEST DUP1 PUSH4 0x6E82383 EQ PUSH2 0xA8 JUMPI DUP1 PUSH4 0x286936BB EQ PUSH2 0xDE JUMPI DUP1 PUSH4 0x87F949B4 EQ PUSH2 0xF3 JUMPI DUP1 PUSH4 0x94C4395B EQ PUSH2 0x106 JUMPI JUMPDEST PUSH1 0x0 DUP1 REVERT JUMPDEST PUSH32 0x255F4A56BD3AD76424E31ED8855EF9AD14A0CE4E67508C76FF082E5C1466B130 SLOAD JUMPDEST PUSH1 0x40 MLOAD SWAP1 DUP2 MSTORE PUSH1 0x20 ADD JUMPDEST PUSH1 0x40 MLOAD DUP1 SWAP2 SUB SWAP1 RETURN JUMPDEST PUSH2 0xF1 PUSH2 0xEC CALLDATASIZE PUSH1 0x4 PUSH2 0x151C JUMP JUMPDEST PUSH2 0x1CA JUMP JUMPDEST STOP JUMPDEST PUSH2 0xF1 PUSH2 0x101 CALLDATASIZE PUSH1 0x4 PUSH2 0x1596 JUMP JUMPDEST PUSH2 0x38B JUMP JUMPDEST PUSH2 0xF1 PUSH2 0x114 CALLDATASIZE PUSH1 0x4 PUSH2 0x1612 JUMP JUMPDEST PUSH2 0x5EF JUMP JUMPDEST PUSH32 0x255F4A56BD3AD76424E31ED8855EF9AD14A0CE4E67508C76FF082E5C1466B12F SLOAD PUSH2 0xCB JUMP JUMPDEST PUSH2 0xF1 PUSH2 0x14E CALLDATASIZE PUSH1 0x4 PUSH2 0x1654 JUMP JUMPDEST PUSH2 0x844 JUMP JUMPDEST PUSH2 0xF1 PUSH2 0x161 CALLDATASIZE PUSH1 0x4 PUSH2 0x16F8 JUMP JUMPDEST PUSH2 0xA16 JUMP JUMPDEST PUSH2 0xCB PUSH2 0x174 CALLDATASIZE PUSH1 0x4 PUSH2 0x174F JUMP JUMPDEST PUSH20 0xFFFFFFFFFFFFFFFFFFFFFFFFFFFFFFFFFFFFFFFF AND PUSH1 0x0 SWAP1 DUP2 MSTORE PUSH32 0x255F4A56BD3AD76424E31ED8855EF9AD14A0CE4E67508C76FF082E5C1466B131 PUSH1 0x20 MSTORE PUSH1 0x40 SWAP1 KECCAK256 SLOAD SWAP1 JUMP JUMPDEST PUSH1 0x40 MLOAD PUSH1 0x1 DUP2 MSTORE PUSH1 0x20 ADD PUSH2 0xD5 JUMP JUMPDEST DUP5 DUP5 DUP5 CHAINID PUSH1 0x40 MLOAD PUSH1 0x20 ADD PUSH2 0x1E1 SWAP5 SWAP4 SWAP3 SWAP2 SWAP1 PUSH2 0x17BE JUMP JUMPDEST PUSH1 0x40 DUP1 MLOAD PUSH32 0xFFFFFFFFFFFFFFFFFFFFFFFFFFFFFFFFFFFFFFFFFFFFFFFFFFFFFFFFFFFFFFE0 DUP2 DUP5 SUB ADD DUP2 MSTORE SWAP2 SWAP1 MSTORE DUP1 MLOAD PUSH1 0x20 SWAP1 SWAP2 ADD KECCAK256 DUP3 DUP3 PUSH1 0x0 DUP1 PUSH2 0x22F DUP6 PUSH2 0x22A DUP6 DUP8 PUSH2 0x1863 JUMP JUMPDEST PUSH2 0xD39 JUMP JUMPDEST SWAP2 POP SWAP2 POP DUP2 DUP2 SWAP1 PUSH2 0x276 JUMPI PUSH1 0x40 MLOAD PUSH32 0x8C379A000000000000000000000000000000000000000000000000000000000 DUP2 MSTORE PUSH1 0x4 ADD PUSH2 0x26D SWAP2 SWAP1 PUSH2 0x1956 JUMP JUMPDEST PUSH1 0x40 MLOAD DUP1 SWAP2 SUB SWAP1 REVERT JUMPDEST POP PUSH1 0x0 JUMPDEST DUP4 DUP2 LT ISZERO PUSH2 0x331 JUMPI PUSH1 0x1 PUSH32 0x255F4A56BD3AD76424E31ED8855EF9AD14A0CE4E67508C76FF082E5C1466B132 PUSH1 0x0 DUP8 DUP8 DUP6 DUP2 DUP2 LT PUSH2 0x2B9 JUMPI PUSH2 0x2B9 PUSH2 0x19C2 JUMP JUMPDEST SWAP1 POP PUSH1 0x20 MUL DUP2 ADD SWAP1 PUSH2 0x2CB SWAP2 SWAP1 PUSH2 0x19F1 JUMP JUMPDEST PUSH1 0x40 MLOAD PUSH2 0x2D9 SWAP3 SWAP2 SWAP1 PUSH2 0x1A56 JUMP JUMPDEST PUSH1 0x40 DUP1 MLOAD SWAP2 DUP3 SWAP1 SUB SWAP1 SWAP2 KECCAK256 DUP3 MSTORE PUSH1 0x20 DUP3 ADD SWAP3 SWAP1 SWAP3 MSTORE ADD PUSH1 0x0 KECCAK256 DUP1 SLOAD PUSH32 0xFFFFFFFFFFFFFFFFFFFFFFFFFFFFFFFFFFFFFFFFFFFFFFFFFFFFFFFFFFFFFF00 AND SWAP2 ISZERO ISZERO SWAP2 SWAP1 SWAP2 OR SWAP1 SSTORE DUP1 PUSH2 0x329 DUP2 PUSH2 0x1A95 JUMP JUMPDEST SWAP2 POP POP PUSH2 0x27A JUMP JUMPDEST POP PUSH1 0x0 JUMPDEST DUP10 DUP2 LT ISZERO PUSH2 0x37E JUMPI PUSH2 0x36C DUP12 DUP12 DUP4 DUP2 DUP2 LT PUSH2 0x352 JUMPI PUSH2 0x352 PUSH2 0x19C2 JUMP JUMPDEST SWAP1 POP PUSH1 0x20 MUL ADD PUSH1 0x20 DUP2 ADD SWAP1 PUSH2 0x367 SWAP2 SWAP1 PUSH2 0x174F JUMP JUMPDEST PUSH2 0xF44 JUMP JUMPDEST DUP1 PUSH2 0x376 DUP2 PUSH2 0x1A95 JUMP JUMPDEST SWAP2 POP POP PUSH2 0x335 JUMP JUMPDEST POP POP POP POP POP POP POP POP POP POP POP JUMP JUMPDEST PUSH1 0x40 DUP1 MLOAD PUSH1 0x20 DUP2 ADD DUP7 SWAP1 MSTORE SWAP1 DUP2 ADD DUP5 SWAP1 MSTORE CHAINID PUSH1 0x60 DUP3 ADD MSTORE PUSH1 0x80 ADD PUSH1 0x40 DUP1 MLOAD PUSH32 0xFFFFFFFFFFFFFFFFFFFFFFFFFFFFFFFFFFFFFFFFFFFFFFFFFFFFFFFFFFFFFFE0 DUP2 DUP5 SUB ADD DUP2 MSTORE SWAP2 SWAP1 MSTORE DUP1 MLOAD PUSH1 0x20 SWAP1 SWAP2 ADD KECCAK256 DUP3 DUP3 PUSH1 0x0 DUP1 PUSH2 0x3EE DUP6 PUSH2 0x22A DUP6 DUP8 PUSH2 0x1863 JUMP JUMPDEST SWAP2 POP SWAP2 POP DUP2 DUP2 SWAP1 PUSH2 0x42C JUMPI PUSH1 0x40 MLOAD PUSH32 0x8C379A000000000000000000000000000000000000000000000000000000000 DUP2 MSTORE PUSH1 0x4 ADD PUSH2 0x26D SWAP2 SWAP1 PUSH2 0x1956 JUMP JUMPDEST POP PUSH1 0x0 JUMPDEST DUP4 DUP2 LT ISZERO PUSH2 0x4E7 JUMPI PUSH1 0x1 PUSH32 0x255F4A56BD3AD76424E31ED8855EF9AD14A0CE4E67508C76FF082E5C1466B132 PUSH1 0x0 DUP8 DUP8 DUP6 DUP2 DUP2 LT PUSH2 0x46F JUMPI PUSH2 0x46F PUSH2 0x19C2 JUMP JUMPDEST SWAP1 POP PUSH1 0x20 MUL DUP2 ADD SWAP1 PUSH2 0x481 SWAP2 SWAP1 PUSH2 0x19F1 JUMP JUMPDEST PUSH1 0x40 MLOAD PUSH2 0x48F SWAP3 SWAP2 SWAP1 PUSH2 0x1A56 JUMP JUMPDEST PUSH1 0x40 DUP1 MLOAD SWAP2 DUP3 SWAP1 SUB SWAP1 SWAP2 KECCAK256 DUP3 MSTORE PUSH1 0x20 DUP3 ADD SWAP3 SWAP1 SWAP3 MSTORE ADD PUSH1 0x0 KECCAK256 DUP1 SLOAD PUSH32 0xFFFFFFFFFFFFFFFFFFFFFFFFFFFFFFFFFFFFFFFFFFFFFFFFFFFFFFFFFFFFFF00 AND SWAP2 ISZERO ISZERO SWAP2 SWAP1 SWAP2 OR SWAP1 SSTORE DUP1 PUSH2 0x4DF DUP2 PUSH2 0x1A95 JUMP JUMPDEST SWAP2 POP POP PUSH2 0x430 JUMP JUMPDEST POP PUSH1 0x0 PUSH32 0x255F4A56BD3AD76424E31ED8855EF9AD14A0CE4E67508C76FF082E5C1466B12F SLOAD GT DUP1 ISZERO PUSH2 0x55B JUMPI POP PUSH32 0x255F4A56BD3AD76424E31ED8855EF9AD14A0CE4E67508C76FF082E5C1466B130 SLOAD PUSH32 0x255F4A56BD3AD76424E31ED8855EF9AD14A0CE4E67508C76FF082E5C1466B12F SLOAD GT ISZERO JUMPDEST PUSH2 0x5C1 JUMPI PUSH1 0x40 MLOAD PUSH32 0x8C379A000000000000000000000000000000000000000000000000000000000 DUP2 MSTORE PUSH1 0x20 PUSH1 0x4 DUP3 ADD MSTORE PUSH1 0x11 PUSH1 0x24 DUP3 ADD MSTORE PUSH32 0x496E76616C6964207468726573686F6C64000000000000000000000000000000 PUSH1 0x44 DUP3 ADD MSTORE PUSH1 0x64 ADD PUSH2 0x26D JUMP JUMPDEST DUP9 PUSH32 0x255F4A56BD3AD76424E31ED8855EF9AD14A0CE4E67508C76FF082E5C1466B12F SSTORE POP POP POP POP POP POP POP POP POP JUMP JUMPDEST PUSH1 0x40 DUP1 MLOAD PUSH20 0xFFFFFFFFFFFFFFFFFFFFFFFFFFFFFFFFFFFFFFFF DUP7 AND PUSH1 0x20 DUP3 ADD MSTORE SWAP1 DUP2 ADD DUP5 SWAP1 MSTORE CHAINID PUSH1 0x60 DUP3 ADD MSTORE PUSH1 0x80 ADD PUSH1 0x40 DUP1 MLOAD PUSH32 0xFFFFFFFFFFFFFFFFFFFFFFFFFFFFFFFFFFFFFFFFFFFFFFFFFFFFFFFFFFFFFFE0 DUP2 DUP5 SUB ADD DUP2 MSTORE SWAP2 SWAP1 MSTORE DUP1 MLOAD PUSH1 0x20 SWAP1 SWAP2 ADD KECCAK256 DUP3 DUP3 PUSH1 0x0 DUP1 PUSH2 0x667 DUP6 PUSH2 0x22A DUP6 DUP8 PUSH2 0x1863 JUMP JUMPDEST SWAP2 POP SWAP2 POP DUP2 DUP2 SWAP1 PUSH2 0x6A5 JUMPI PUSH1 0x40 MLOAD PUSH32 0x8C379A000000000000000000000000000000000000000000000000000000000 DUP2 MSTORE PUSH1 0x4 ADD PUSH2 0x26D SWAP2 SWAP1 PUSH2 0x1956 JUMP JUMPDEST POP PUSH1 0x0 JUMPDEST DUP4 DUP2 LT ISZERO PUSH2 0x760 JUMPI PUSH1 0x1 PUSH32 0x255F4A56BD3AD76424E31ED8855EF9AD14A0CE4E67508C76FF082E5C1466B132 PUSH1 0x0 DUP8 DUP8 DUP6 DUP2 DUP2 LT PUSH2 0x6E8 JUMPI PUSH2 0x6E8 PUSH2 0x19C2 JUMP JUMPDEST SWAP1 POP PUSH1 0x20 MUL DUP2 ADD SWAP1 PUSH2 0x6FA SWAP2 SWAP1 PUSH2 0x19F1 JUMP JUMPDEST PUSH1 0x40 MLOAD PUSH2 0x708 SWAP3 SWAP2 SWAP1 PUSH2 0x1A56 JUMP JUMPDEST PUSH1 0x40 DUP1 MLOAD SWAP2 DUP3 SWAP1 SUB SWAP1 SWAP2 KECCAK256 DUP3 MSTORE PUSH1 0x20 DUP3 ADD SWAP3 SWAP1 SWAP3 MSTORE ADD PUSH1 0x0 KECCAK256 DUP1 SLOAD PUSH32 0xFFFFFFFFFFFFFFFFFFFFFFFFFFFFFFFFFFFFFFFFFFFFFFFFFFFFFFFFFFFFFF00 AND SWAP2 ISZERO ISZERO SWAP2 SWAP1 SWAP2 OR SWAP1 SSTORE DUP1 PUSH2 0x758 DUP2 PUSH2 0x1A95 JUMP JUMPDEST SWAP2 POP POP PUSH2 0x6A9 JUMP JUMPDEST POP DUP9 PUSH20 0xFFFFFFFFFFFFFFFFFFFFFFFFFFFFFFFFFFFFFFFF AND PUSH4 0xFEC5C09A PUSH1 0x40 MLOAD DUP2 PUSH4 0xFFFFFFFF AND PUSH1 0xE0 SHL DUP2 MSTORE PUSH1 0x4 ADD PUSH1 0x20 PUSH1 0x40 MLOAD DUP1 DUP4 SUB DUP2 DUP7 GAS STATICCALL ISZERO DUP1 ISZERO PUSH2 0x7AC JUMPI RETURNDATASIZE PUSH1 0x0 DUP1 RETURNDATACOPY RETURNDATASIZE PUSH1 0x0 REVERT JUMPDEST POP POP POP POP PUSH1 0x40 MLOAD RETURNDATASIZE PUSH1 0x1F NOT PUSH1 0x1F DUP3 ADD AND DUP3 ADD DUP1 PUSH1 0x40 MSTORE POP DUP2 ADD SWAP1 PUSH2 0x7D0 SWAP2 SWAP1 PUSH2 0x1ACD JUMP JUMPDEST PUSH2 0x836 JUMPI PUSH1 0x40 MLOAD PUSH32 0x8C379A000000000000000000000000000000000000000000000000000000000 DUP2 MSTORE PUSH1 0x20 PUSH1 0x4 DUP3 ADD MSTORE PUSH1 0x16 PUSH1 0x24 DUP3 ADD MSTORE PUSH32 0x496E76616C696420696D706C656D656E746174696F6E00000000000000000000 PUSH1 0x44 DUP3 ADD MSTORE PUSH1 0x64 ADD PUSH2 0x26D JUMP JUMPDEST DUP9 ADDRESS SSTORE POP POP POP POP POP POP POP POP POP JUMP JUMPDEST DUP7 DUP7 DUP7 DUP7 DUP7 CHAINID PUSH1 0x40 MLOAD PUSH1 0x20 ADD PUSH2 0x85F SWAP7 SWAP6 SWAP5 SWAP4 SWAP3 SWAP2 SWAP1 PUSH2 0x1AF6 JUMP JUMPDEST PUSH1 0x40 DUP1 MLOAD PUSH32 0xFFFFFFFFFFFFFFFFFFFFFFFFFFFFFFFFFFFFFFFFFFFFFFFFFFFFFFFFFFFFFFE0 DUP2 DUP5 SUB ADD DUP2 MSTORE SWAP2 SWAP1 MSTORE DUP1 MLOAD PUSH1 0x20 SWAP1 SWAP2 ADD KECCAK256 DUP3 DUP3 PUSH1 0x0 DUP1 PUSH2 0x8A8 DUP6 PUSH2 0x22A DUP6 DUP8 PUSH2 0x1863 JUMP JUMPDEST SWAP2 POP SWAP2 POP DUP2 DUP2 SWAP1 PUSH2 0x8E6 JUMPI PUSH1 0x40 MLOAD PUSH32 0x8C379A000000000000000000000000000000000000000000000000000000000 DUP2 MSTORE PUSH1 0x4 ADD PUSH2 0x26D SWAP2 SWAP1 PUSH2 0x1956 JUMP JUMPDEST POP PUSH1 0x0 JUMPDEST DUP4 DUP2 LT ISZERO PUSH2 0x9A1 JUMPI PUSH1 0x1 PUSH32 0x255F4A56BD3AD76424E31ED8855EF9AD14A0CE4E67508C76FF082E5C1466B132 PUSH1 0x0 DUP8 DUP8 DUP6 DUP2 DUP2 LT PUSH2 0x929 JUMPI PUSH2 0x929 PUSH2 0x19C2 JUMP JUMPDEST SWAP1 POP PUSH1 0x20 MUL DUP2 ADD SWAP1 PUSH2 0x93B SWAP2 SWAP1 PUSH2 0x19F1 JUMP JUMPDEST PUSH1 0x40 MLOAD PUSH2 0x949 SWAP3 SWAP2 SWAP1 PUSH2 0x1A56 JUMP JUMPDEST PUSH1 0x40 DUP1 MLOAD SWAP2 DUP3 SWAP1 SUB SWAP1 SWAP2 KECCAK256 DUP3 MSTORE PUSH1 0x20 DUP3 ADD SWAP3 SWAP1 SWAP3 MSTORE ADD PUSH1 0x0 KECCAK256 DUP1 SLOAD PUSH32 0xFFFFFFFFFFFFFFFFFFFFFFFFFFFFFFFFFFFFFFFFFFFFFFFFFFFFFFFFFFFFFF00 AND SWAP2 ISZERO ISZERO SWAP2 SWAP1 SWAP2 OR SWAP1 SSTORE DUP1 PUSH2 0x999 DUP2 PUSH2 0x1A95 JUMP JUMPDEST SWAP2 POP POP PUSH2 0x8EA JUMP JUMPDEST POP PUSH1 0x0 JUMPDEST DUP12 DUP2 LT ISZERO PUSH2 0xA07 JUMPI PUSH2 0x9F5 DUP14 DUP14 DUP4 DUP2 DUP2 LT PUSH2 0x9C2 JUMPI PUSH2 0x9C2 PUSH2 0x19C2 JUMP JUMPDEST SWAP1 POP PUSH1 0x20 MUL ADD PUSH1 0x20 DUP2 ADD SWAP1 PUSH2 0x9D7 SWAP2 SWAP1 PUSH2 0x174F JUMP JUMPDEST DUP13 DUP13 DUP5 DUP2 DUP2 LT PUSH2 0x9E9 JUMPI PUSH2 0x9E9 PUSH2 0x19C2 JUMP JUMPDEST SWAP1 POP PUSH1 0x20 MUL ADD CALLDATALOAD PUSH2 0x10DE JUMP JUMPDEST DUP1 PUSH2 0x9FF DUP2 PUSH2 0x1A95 JUMP JUMPDEST SWAP2 POP POP PUSH2 0x9A5 JUMP JUMPDEST POP POP POP POP POP POP POP POP POP POP POP POP POP JUMP JUMPDEST PUSH1 0x40 DUP1 MLOAD PUSH20 0xFFFFFFFFFFFFFFFFFFFFFFFFFFFFFFFFFFFFFFFF DUP8 AND PUSH1 0x20 DUP3 ADD MSTORE SWAP1 DUP2 ADD DUP6 SWAP1 MSTORE PUSH1 0x60 DUP2 ADD DUP5 SWAP1 MSTORE CHAINID PUSH1 0x80 DUP3 ADD MSTORE PUSH1 0xA0 ADD PUSH1 0x40 DUP1 MLOAD PUSH32 0xFFFFFFFFFFFFFFFFFFFFFFFFFFFFFFFFFFFFFFFFFFFFFFFFFFFFFFFFFFFFFFE0 DUP2 DUP5 SUB ADD DUP2 MSTORE SWAP2 SWAP1 MSTORE DUP1 MLOAD PUSH1 0x20 SWAP1 SWAP2 ADD KECCAK256 DUP3 DUP3 PUSH1 0x0 DUP1 PUSH2 0xA95 DUP6 PUSH2 0x22A DUP6 DUP8 PUSH2 0x1863 JUMP JUMPDEST SWAP2 POP SWAP2 POP DUP2 DUP2 SWAP1 PUSH2 0xAD3 JUMPI PUSH1 0x40 MLOAD PUSH32 0x8C379A000000000000000000000000000000000000000000000000000000000 DUP2 MSTORE PUSH1 0x4 ADD PUSH2 0x26D SWAP2 SWAP1 PUSH2 0x1956 JUMP JUMPDEST POP PUSH1 0x0 JUMPDEST DUP4 DUP2 LT ISZERO PUSH2 0xB8E JUMPI PUSH1 0x1 PUSH32 0x255F4A56BD3AD76424E31ED8855EF9AD14A0CE4E67508C76FF082E5C1466B132 PUSH1 0x0 DUP8 DUP8 DUP6 DUP2 DUP2 LT PUSH2 0xB16 JUMPI PUSH2 0xB16 PUSH2 0x19C2 JUMP JUMPDEST SWAP1 POP PUSH1 0x20 MUL DUP2 ADD SWAP1 PUSH2 0xB28 SWAP2 SWAP1 PUSH2 0x19F1 JUMP JUMPDEST PUSH1 0x40 MLOAD PUSH2 0xB36 SWAP3 SWAP2 SWAP1 PUSH2 0x1A56 JUMP JUMPDEST PUSH1 0x40 DUP1 MLOAD SWAP2 DUP3 SWAP1 SUB SWAP1 SWAP2 KECCAK256 DUP3 MSTORE PUSH1 0x20 DUP3 ADD SWAP3 SWAP1 SWAP3 MSTORE ADD PUSH1 0x0 KECCAK256 DUP1 SLOAD PUSH32 0xFFFFFFFFFFFFFFFFFFFFFFFFFFFFFFFFFFFFFFFFFFFFFFFFFFFFFFFFFFFFFF00 AND SWAP2 ISZERO ISZERO SWAP2 SWAP1 SWAP2 OR SWAP1 SSTORE DUP1 PUSH2 0xB86 DUP2 PUSH2 0x1A95 JUMP JUMPDEST SWAP2 POP POP PUSH2 0xAD7 JUMP JUMPDEST POP PUSH20 0xFFFFFFFFFFFFFFFFFFFFFFFFFFFFFFFFFFFFFFFF DUP11 AND PUSH1 0x0 SWAP1 DUP2 MSTORE PUSH32 0x255F4A56BD3AD76424E31ED8855EF9AD14A0CE4E67508C76FF082E5C1466B131 PUSH1 0x20 MSTORE PUSH1 0x40 SWAP1 KECCAK256 SLOAD PUSH32 0x255F4A56BD3AD76424E31ED8855EF9AD14A0CE4E67508C76FF082E5C1466B130 SLOAD DUP11 SWAP2 PUSH2 0xC01 SWAP2 PUSH2 0x1B6D JUMP JUMPDEST PUSH2 0xC0B SWAP2 SWAP1 PUSH2 0x1B80 JUMP JUMPDEST PUSH32 0x255F4A56BD3AD76424E31ED8855EF9AD14A0CE4E67508C76FF082E5C1466B130 DUP2 SWAP1 SSTORE ISZERO DUP1 ISZERO SWAP1 PUSH2 0xC7F JUMPI POP PUSH32 0x255F4A56BD3AD76424E31ED8855EF9AD14A0CE4E67508C76FF082E5C1466B12F SLOAD PUSH32 0x255F4A56BD3AD76424E31ED8855EF9AD14A0CE4E67508C76FF082E5C1466B130 SLOAD LT ISZERO JUMPDEST PUSH2 0xCE5 JUMPI PUSH1 0x40 MLOAD PUSH32 0x8C379A000000000000000000000000000000000000000000000000000000000 DUP2 MSTORE PUSH1 0x20 PUSH1 0x4 DUP3 ADD MSTORE PUSH1 0x1D PUSH1 0x24 DUP3 ADD MSTORE PUSH32 0x5468726573686F6C6420776F756C6420626520696D706F737369626C65000000 PUSH1 0x44 DUP3 ADD MSTORE PUSH1 0x64 ADD PUSH2 0x26D JUMP JUMPDEST POP POP POP POP PUSH20 0xFFFFFFFFFFFFFFFFFFFFFFFFFFFFFFFFFFFFFFFF SWAP6 SWAP1 SWAP6 AND PUSH1 0x0 SWAP1 DUP2 MSTORE PUSH32 0x255F4A56BD3AD76424E31ED8855EF9AD14A0CE4E67508C76FF082E5C1466B131 PUSH1 0x20 MSTORE PUSH1 0x40 SWAP1 KECCAK256 SWAP4 SWAP1 SWAP4 SSTORE POP POP POP POP JUMP JUMPDEST PUSH1 0x0 PUSH1 0x60 PUSH1 0x0 DUP1 JUMPDEST DUP5 MLOAD DUP2 LT ISZERO PUSH2 0xED8 JUMPI PUSH1 0x0 PUSH2 0xD6F DUP8 DUP8 DUP5 DUP2 MLOAD DUP2 LT PUSH2 0xD62 JUMPI PUSH2 0xD62 PUSH2 0x19C2 JUMP JUMPDEST PUSH1 0x20 MUL PUSH1 0x20 ADD ADD MLOAD PUSH2 0x1160 JUMP JUMPDEST PUSH20 0xFFFFFFFFFFFFFFFFFFFFFFFFFFFFFFFFFFFFFFFF DUP2 AND PUSH1 0x0 SWAP1 DUP2 MSTORE PUSH32 0x255F4A56BD3AD76424E31ED8855EF9AD14A0CE4E67508C76FF082E5C1466B131 PUSH1 0x20 MSTORE PUSH1 0x40 DUP2 KECCAK256 SLOAD SWAP2 SWAP3 POP SUB PUSH2 0xDE3 JUMPI PUSH1 0x0 PUSH1 0x40 MLOAD DUP1 PUSH1 0x60 ADD PUSH1 0x40 MSTORE DUP1 PUSH1 0x32 DUP2 MSTORE PUSH1 0x20 ADD PUSH2 0x1BE9 PUSH1 0x32 SWAP2 CODECOPY SWAP5 POP SWAP5 POP POP POP POP PUSH2 0xF3D JUMP JUMPDEST PUSH1 0x0 DUP7 DUP4 DUP2 MLOAD DUP2 LT PUSH2 0xDF7 JUMPI PUSH2 0xDF7 PUSH2 0x19C2 JUMP JUMPDEST PUSH1 0x20 MUL PUSH1 0x20 ADD ADD MLOAD DUP1 MLOAD SWAP1 PUSH1 0x20 ADD KECCAK256 SWAP1 POP PUSH2 0xE2F PUSH32 0x255F4A56BD3AD76424E31ED8855EF9AD14A0CE4E67508C76FF082E5C1466B12F SWAP1 JUMP JUMPDEST PUSH1 0x0 DUP3 DUP2 MSTORE PUSH1 0x3 SWAP2 SWAP1 SWAP2 ADD PUSH1 0x20 MSTORE PUSH1 0x40 SWAP1 KECCAK256 SLOAD PUSH1 0xFF AND ISZERO PUSH2 0xE72 JUMPI PUSH1 0x0 PUSH1 0x40 MLOAD DUP1 PUSH1 0x60 ADD PUSH1 0x40 MSTORE DUP1 PUSH1 0x23 DUP2 MSTORE PUSH1 0x20 ADD PUSH2 0x1C1B PUSH1 0x23 SWAP2 CODECOPY SWAP6 POP SWAP6 POP POP POP POP POP PUSH2 0xF3D JUMP JUMPDEST PUSH20 0xFFFFFFFFFFFFFFFFFFFFFFFFFFFFFFFFFFFFFFFF DUP3 AND PUSH1 0x0 SWAP1 DUP2 MSTORE PUSH32 0x255F4A56BD3AD76424E31ED8855EF9AD14A0CE4E67508C76FF082E5C1466B131 PUSH1 0x20 MSTORE PUSH1 0x40 SWAP1 KECCAK256 SLOAD PUSH2 0xEC1 SWAP1 DUP6 PUSH2 0x1B80 JUMP JUMPDEST SWAP4 POP POP POP DUP1 DUP1 PUSH2 0xED0 SWAP1 PUSH2 0x1A95 JUMP JUMPDEST SWAP2 POP POP PUSH2 0xD41 JUMP JUMPDEST POP PUSH32 0x255F4A56BD3AD76424E31ED8855EF9AD14A0CE4E67508C76FF082E5C1466B12F SLOAD DUP2 LT ISZERO PUSH2 0xF27 JUMPI PUSH1 0x0 PUSH1 0x40 MLOAD DUP1 PUSH1 0x60 ADD PUSH1 0x40 MSTORE DUP1 PUSH1 0x26 DUP2 MSTORE PUSH1 0x20 ADD PUSH2 0x1BC3 PUSH1 0x26 SWAP2 CODECOPY SWAP3 POP SWAP3 POP POP PUSH2 0xF3D JUMP JUMPDEST POP POP PUSH1 0x40 DUP1 MLOAD PUSH1 0x20 DUP2 ADD SWAP1 SWAP2 MSTORE PUSH1 0x0 DUP2 MSTORE PUSH1 0x1 SWAP2 POP JUMPDEST SWAP3 POP SWAP3 SWAP1 POP JUMP JUMPDEST PUSH20 0xFFFFFFFFFFFFFFFFFFFFFFFFFFFFFFFFFFFFFFFF DUP2 AND PUSH1 0x0 SWAP1 DUP2 MSTORE PUSH32 0x255F4A56BD3AD76424E31ED8855EF9AD14A0CE4E67508C76FF082E5C1466B131 PUSH1 0x20 MSTORE PUSH1 0x40 DUP2 KECCAK256 SLOAD PUSH32 0x255F4A56BD3AD76424E31ED8855EF9AD14A0CE4E67508C76FF082E5C1466B130 DUP1 SLOAD SWAP2 SWAP3 SWAP1 SWAP2 PUSH2 0xFBB SWAP1 DUP5 SWAP1 PUSH2 0x1B6D JUMP JUMPDEST SWAP1 SWAP2 SSTORE POP POP PUSH32 0x255F4A56BD3AD76424E31ED8855EF9AD14A0CE4E67508C76FF082E5C1466B130 SLOAD ISZERO DUP1 ISZERO SWAP1 PUSH2 0x1032 JUMPI POP PUSH32 0x255F4A56BD3AD76424E31ED8855EF9AD14A0CE4E67508C76FF082E5C1466B12F SLOAD PUSH32 0x255F4A56BD3AD76424E31ED8855EF9AD14A0CE4E67508C76FF082E5C1466B130 SLOAD LT ISZERO JUMPDEST PUSH2 0x1098 JUMPI PUSH1 0x40 MLOAD PUSH32 0x8C379A000000000000000000000000000000000000000000000000000000000 DUP2 MSTORE PUSH1 0x20 PUSH1 0x4 DUP3 ADD MSTORE PUSH1 0x1D PUSH1 0x24 DUP3 ADD MSTORE PUSH32 0x5468726573686F6C6420776F756C6420626520696D706F737369626C65000000 PUSH1 0x44 DUP3 ADD MSTORE PUSH1 0x64 ADD PUSH2 0x26D JUMP JUMPDEST PUSH20 0xFFFFFFFFFFFFFFFFFFFFFFFFFFFFFFFFFFFFFFFF AND PUSH1 0x0 SWAP1 DUP2 MSTORE PUSH32 0x255F4A56BD3AD76424E31ED8855EF9AD14A0CE4E67508C76FF082E5C1466B131 PUSH1 0x20 MSTORE PUSH1 0x40 DUP2 KECCAK256 SSTORE JUMP JUMPDEST DUP1 PUSH32 0x255F4A56BD3AD76424E31ED8855EF9AD14A0CE4E67508C76FF082E5C1466B12F PUSH1 0x1 ADD PUSH1 0x0 DUP3 DUP3 SLOAD PUSH2 0x1112 SWAP2 SWAP1 PUSH2 0x1B80 JUMP JUMPDEST SWAP1 SWAP2 SSTORE POP POP PUSH20 0xFFFFFFFFFFFFFFFFFFFFFFFFFFFFFFFFFFFFFFFF SWAP2 SWAP1 SWAP2 AND PUSH1 0x0 SWAP1 DUP2 MSTORE PUSH32 0x255F4A56BD3AD76424E31ED8855EF9AD14A0CE4E67508C76FF082E5C1466B131 PUSH1 0x20 MSTORE PUSH1 0x40 SWAP1 KECCAK256 SSTORE JUMP JUMPDEST PUSH1 0x0 PUSH2 0x11C3 DUP3 PUSH2 0x11BD DUP6 PUSH1 0x40 MLOAD PUSH32 0x19457468657265756D205369676E6564204D6573736167653A0A333200000000 PUSH1 0x20 DUP3 ADD MSTORE PUSH1 0x3C DUP2 ADD DUP3 SWAP1 MSTORE PUSH1 0x0 SWAP1 PUSH1 0x5C ADD PUSH1 0x40 MLOAD PUSH1 0x20 DUP2 DUP4 SUB SUB DUP2 MSTORE SWAP1 PUSH1 0x40 MSTORE DUP1 MLOAD SWAP1 PUSH1 0x20 ADD KECCAK256 SWAP1 POP SWAP2 SWAP1 POP JUMP JUMPDEST SWAP1 PUSH2 0x11CC JUMP JUMPDEST SWAP1 POP JUMPDEST SWAP3 SWAP2 POP POP JUMP JUMPDEST PUSH1 0x0 DUP1 PUSH1 0x0 PUSH2 0x11DB DUP6 DUP6 PUSH2 0x11F0 JUMP JUMPDEST SWAP2 POP SWAP2 POP PUSH2 0x11E8 DUP2 PUSH2 0x1232 JUMP JUMPDEST POP SWAP4 SWAP3 POP POP POP JUMP JUMPDEST PUSH1 0x0 DUP1 DUP3 MLOAD PUSH1 0x41 SUB PUSH2 0x1226 JUMPI PUSH1 0x20 DUP4 ADD MLOAD PUSH1 0x40 DUP5 ADD MLOAD PUSH1 0x60 DUP6 ADD MLOAD PUSH1 0x0 BYTE PUSH2 0x121A DUP8 DUP3 DUP6 DUP6 PUSH2 0x13E8 JUMP JUMPDEST SWAP5 POP SWAP5 POP POP POP POP PUSH2 0xF3D JUMP JUMPDEST POP PUSH1 0x0 SWAP1 POP PUSH1 0x2 PUSH2 0xF3D JUMP JUMPDEST PUSH1 0x0 DUP2 PUSH1 0x4 DUP2 GT ISZERO PUSH2 0x1246 JUMPI PUSH2 0x1246 PUSH2 0x1B93 JUMP JUMPDEST SUB PUSH2 0x124E JUMPI POP JUMP JUMPDEST PUSH1 0x1 DUP2 PUSH1 0x4 DUP2 GT ISZERO PUSH2 0x1262 JUMPI PUSH2 0x1262 PUSH2 0x1B93 JUMP JUMPDEST SUB PUSH2 0x12C9 JUMPI PUSH1 0x40 MLOAD PUSH32 0x8C379A000000000000000000000000000000000000000000000000000000000 DUP2 MSTORE PUSH1 0x20 PUSH1 0x4 DUP3 ADD MSTORE PUSH1 0x18 PUSH1 0x24 DUP3 ADD MSTORE PUSH32 0x45434453413A20696E76616C6964207369676E61747572650000000000000000 PUSH1 0x44 DUP3 ADD MSTORE PUSH1 0x64 ADD PUSH2 0x26D JUMP JUMPDEST PUSH1 0x2 DUP2 PUSH1 0x4 DUP2 GT ISZERO PUSH2 0x12DD JUMPI PUSH2 0x12DD PUSH2 0x1B93 JUMP JUMPDEST SUB PUSH2 0x1344 JUMPI PUSH1 0x40 MLOAD PUSH32 0x8C379A000000000000000000000000000000000000000000000000000000000 DUP2 MSTORE PUSH1 0x20 PUSH1 0x4 DUP3 ADD MSTORE PUSH1 0x1F PUSH1 0x24 DUP3 ADD MSTORE PUSH32 0x45434453413A20696E76616C6964207369676E6174757265206C656E67746800 PUSH1 0x44 DUP3 ADD MSTORE PUSH1 0x64 ADD PUSH2 0x26D JUMP JUMPDEST PUSH1 0x3 DUP2 PUSH1 0x4 DUP2 GT ISZERO PUSH2 0x1358 JUMPI PUSH2 0x1358 PUSH2 0x1B93 JUMP JUMPDEST SUB PUSH2 0x13E5 JUMPI PUSH1 0x40 MLOAD PUSH32 0x8C379A000000000000000000000000000000000000000000000000000000000 DUP2 MSTORE PUSH1 0x20 PUSH1 0x4 DUP3 ADD MSTORE PUSH1 0x22 PUSH1 0x24 DUP3 ADD MSTORE PUSH32 0x45434453413A20696E76616C6964207369676E6174757265202773272076616C PUSH1 0x44 DUP3 ADD MSTORE PUSH32 0x7565000000000000000000000000000000000000000000000000000000000000 PUSH1 0x64 DUP3 ADD MSTORE PUSH1 0x84 ADD PUSH2 0x26D JUMP JUMPDEST POP JUMP JUMPDEST PUSH1 0x0 DUP1 PUSH32 0x7FFFFFFFFFFFFFFFFFFFFFFFFFFFFFFF5D576E7357A4501DDFE92F46681B20A0 DUP4 GT ISZERO PUSH2 0x141F JUMPI POP PUSH1 0x0 SWAP1 POP PUSH1 0x3 PUSH2 0x14CE JUMP JUMPDEST PUSH1 0x40 DUP1 MLOAD PUSH1 0x0 DUP1 DUP3 MSTORE PUSH1 0x20 DUP3 ADD DUP1 DUP5 MSTORE DUP10 SWAP1 MSTORE PUSH1 0xFF DUP9 AND SWAP3 DUP3 ADD SWAP3 SWAP1 SWAP3 MSTORE PUSH1 0x60 DUP2 ADD DUP7 SWAP1 MSTORE PUSH1 0x80 DUP2 ADD DUP6 SWAP1 MSTORE PUSH1 0x1 SWAP1 PUSH1 0xA0 ADD PUSH1 0x20 PUSH1 0x40 MLOAD PUSH1 0x20 DUP2 SUB SWAP1 DUP1 DUP5 SUB SWAP1 DUP6 GAS STATICCALL ISZERO DUP1 ISZERO PUSH2 0x1473 JUMPI RETURNDATASIZE PUSH1 0x0 DUP1 RETURNDATACOPY RETURNDATASIZE PUSH1 0x0 REVERT JUMPDEST POP POP PUSH1 0x40 MLOAD PUSH32 0xFFFFFFFFFFFFFFFFFFFFFFFFFFFFFFFFFFFFFFFFFFFFFFFFFFFFFFFFFFFFFFE0 ADD MLOAD SWAP2 POP POP PUSH20 0xFFFFFFFFFFFFFFFFFFFFFFFFFFFFFFFFFFFFFFFF DUP2 AND PUSH2 0x14C7 JUMPI PUSH1 0x0 PUSH1 0x1 SWAP3 POP SWAP3 POP POP PUSH2 0x14CE JUMP JUMPDEST SWAP2 POP PUSH1 0x0 SWAP1 POP JUMPDEST SWAP5 POP SWAP5 SWAP3 POP POP POP JUMP JUMPDEST PUSH1 0x0 DUP1 DUP4 PUSH1 0x1F DUP5 ADD SLT PUSH2 0x14E9 JUMPI PUSH1 0x0 DUP1 REVERT JUMPDEST POP DUP2 CALLDATALOAD PUSH8 0xFFFFFFFFFFFFFFFF DUP2 GT ISZERO PUSH2 0x1501 JUMPI PUSH1 0x0 DUP1 REVERT JUMPDEST PUSH1 0x20 DUP4 ADD SWAP2 POP DUP4 PUSH1 0x20 DUP3 PUSH1 0x5 SHL DUP6 ADD ADD GT ISZERO PUSH2 0xF3D JUMPI PUSH1 0x0 DUP1 REVERT JUMPDEST PUSH1 0x0 DUP1 PUSH1 0x0 DUP1 PUSH1 0x0 PUSH1 0x60 DUP7 DUP9 SUB SLT ISZERO PUSH2 0x1534 JUMPI PUSH1 0x0 DUP1 REVERT JUMPDEST DUP6 CALLDATALOAD PUSH8 0xFFFFFFFFFFFFFFFF DUP1 DUP3 GT ISZERO PUSH2 0x154C JUMPI PUSH1 0x0 DUP1 REVERT JUMPDEST PUSH2 0x1558 DUP10 DUP4 DUP11 ADD PUSH2 0x14D7 JUMP JUMPDEST SWAP1 SWAP8 POP SWAP6 POP PUSH1 0x20 DUP9 ADD CALLDATALOAD SWAP5 POP PUSH1 0x40 DUP9 ADD CALLDATALOAD SWAP2 POP DUP1 DUP3 GT ISZERO PUSH2 0x1578 JUMPI PUSH1 0x0 DUP1 REVERT JUMPDEST POP PUSH2 0x1585 DUP9 DUP3 DUP10 ADD PUSH2 0x14D7 JUMP JUMPDEST SWAP7 SWAP10 SWAP6 SWAP9 POP SWAP4 SWAP7 POP SWAP3 SWAP5 SWAP4 SWAP3 POP POP POP JUMP JUMPDEST PUSH1 0x0 DUP1 PUSH1 0x0 DUP1 PUSH1 0x60 DUP6 DUP8 SUB SLT ISZERO PUSH2 0x15AC JUMPI PUSH1 0x0 DUP1 REVERT JUMPDEST DUP5 CALLDATALOAD SWAP4 POP PUSH1 0x20 DUP6 ADD CALLDATALOAD SWAP3 POP PUSH1 0x40 DUP6 ADD CALLDATALOAD PUSH8 0xFFFFFFFFFFFFFFFF DUP2 GT ISZERO PUSH2 0x15D1 JUMPI PUSH1 0x0 DUP1 REVERT JUMPDEST PUSH2 0x15DD DUP8 DUP3 DUP9 ADD PUSH2 0x14D7 JUMP JUMPDEST SWAP6 SWAP9 SWAP5 SWAP8 POP SWAP6 POP POP POP POP JUMP JUMPDEST DUP1 CALLDATALOAD PUSH20 0xFFFFFFFFFFFFFFFFFFFFFFFFFFFFFFFFFFFFFFFF DUP2 AND DUP2 EQ PUSH2 0x160D JUMPI PUSH1 0x0 DUP1 REVERT JUMPDEST SWAP2 SWAP1 POP JUMP JUMPDEST PUSH1 0x0 DUP1 PUSH1 0x0 DUP1 PUSH1 0x60 DUP6 DUP8 SUB SLT ISZERO PUSH2 0x1628 JUMPI PUSH1 0x0 DUP1 REVERT JUMPDEST PUSH2 0x1631 DUP6 PUSH2 0x15E9 JUMP JUMPDEST SWAP4 POP PUSH1 0x20 DUP6 ADD CALLDATALOAD SWAP3 POP PUSH1 0x40 DUP6 ADD CALLDATALOAD PUSH8 0xFFFFFFFFFFFFFFFF DUP2 GT ISZERO PUSH2 0x15D1 JUMPI PUSH1 0x0 DUP1 REVERT JUMPDEST PUSH1 0x0 DUP1 PUSH1 0x0 DUP1 PUSH1 0x0 DUP1 PUSH1 0x0 PUSH1 0x80 DUP9 DUP11 SUB SLT ISZERO PUSH2 0x166F JUMPI PUSH1 0x0 DUP1 REVERT JUMPDEST DUP8 CALLDATALOAD PUSH8 0xFFFFFFFFFFFFFFFF DUP1 DUP3 GT ISZERO PUSH2 0x1687 JUMPI PUSH1 0x0 DUP1 REVERT JUMPDEST PUSH2 0x1693 DUP12 DUP4 DUP13 ADD PUSH2 0x14D7 JUMP JUMPDEST SWAP1 SWAP10 POP SWAP8 POP PUSH1 0x20 DUP11 ADD CALLDATALOAD SWAP2 POP DUP1 DUP3 GT ISZERO PUSH2 0x16AC JUMPI PUSH1 0x0 DUP1 REVERT JUMPDEST PUSH2 0x16B8 DUP12 DUP4 DUP13 ADD PUSH2 0x14D7 JUMP JUMPDEST SWAP1 SWAP8 POP SWAP6 POP PUSH1 0x40 DUP11 ADD CALLDATALOAD SWAP5 POP PUSH1 0x60 DUP11 ADD CALLDATALOAD SWAP2 POP DUP1 DUP3 GT ISZERO PUSH2 0x16D8 JUMPI PUSH1 0x0 DUP1 REVERT JUMPDEST POP PUSH2 0x16E5 DUP11 DUP3 DUP12 ADD PUSH2 0x14D7 JUMP JUMPDEST SWAP9 SWAP12 SWAP8 SWAP11 POP SWAP6 SWAP9 POP SWAP4 SWAP7 SWAP3 SWAP6 SWAP3 SWAP4 POP POP POP JUMP JUMPDEST PUSH1 0x0 DUP1 PUSH1 0x0 DUP1 PUSH1 0x0 PUSH1 0x80 DUP7 DUP9 SUB SLT ISZERO PUSH2 0x1710 JUMPI PUSH1 0x0 DUP1 REVERT JUMPDEST PUSH2 0x1719 DUP7 PUSH2 0x15E9 JUMP JUMPDEST SWAP5 POP PUSH1 0x20 DUP7 ADD CALLDATALOAD SWAP4 POP PUSH1 0x40 DUP7 ADD CALLDATALOAD SWAP3 POP PUSH1 0x60 DUP7 ADD CALLDATALOAD PUSH8 0xFFFFFFFFFFFFFFFF DUP2 GT ISZERO PUSH2 0x1743 JUMPI PUSH1 0x0 DUP1 REVERT JUMPDEST PUSH2 0x1585 DUP9 DUP3 DUP10 ADD PUSH2 0x14D7 JUMP JUMPDEST PUSH1 0x0 PUSH1 0x20 DUP3 DUP5 SUB SLT ISZERO PUSH2 0x1761 JUMPI PUSH1 0x0 DUP1 REVERT JUMPDEST PUSH2 0x11C3 DUP3 PUSH2 0x15E9 JUMP JUMPDEST DUP2 DUP4 MSTORE PUSH1 0x0 PUSH1 0x20 DUP1 DUP6 ADD SWAP5 POP DUP3 PUSH1 0x0 JUMPDEST DUP6 DUP2 LT ISZERO PUSH2 0x17B3 JUMPI PUSH20 0xFFFFFFFFFFFFFFFFFFFFFFFFFFFFFFFFFFFFFFFF PUSH2 0x17A0 DUP4 PUSH2 0x15E9 JUMP JUMPDEST AND DUP8 MSTORE SWAP6 DUP3 ADD SWAP6 SWAP1 DUP3 ADD SWAP1 PUSH1 0x1 ADD PUSH2 0x177A JUMP JUMPDEST POP SWAP5 SWAP6 SWAP5 POP POP POP POP POP JUMP JUMPDEST PUSH1 0x60 DUP2 MSTORE PUSH1 0x0 PUSH2 0x17D2 PUSH1 0x60 DUP4 ADD DUP7 DUP9 PUSH2 0x176A JUMP JUMPDEST PUSH1 0x20 DUP4 ADD SWAP5 SWAP1 SWAP5 MSTORE POP PUSH1 0x40 ADD MSTORE SWAP3 SWAP2 POP POP JUMP JUMPDEST PUSH32 0x4E487B7100000000000000000000000000000000000000000000000000000000 PUSH1 0x0 MSTORE PUSH1 0x41 PUSH1 0x4 MSTORE PUSH1 0x24 PUSH1 0x0 REVERT JUMPDEST PUSH1 0x40 MLOAD PUSH1 0x1F DUP3 ADD PUSH32 0xFFFFFFFFFFFFFFFFFFFFFFFFFFFFFFFFFFFFFFFFFFFFFFFFFFFFFFFFFFFFFFE0 AND DUP2 ADD PUSH8 0xFFFFFFFFFFFFFFFF DUP2 GT DUP3 DUP3 LT OR ISZERO PUSH2 0x185B JUMPI PUSH2 0x185B PUSH2 0x17E5 JUMP JUMPDEST PUSH1 0x40 MSTORE SWAP2 SWAP1 POP JUMP JUMPDEST PUSH1 0x0 PUSH8 0xFFFFFFFFFFFFFFFF DUP1 DUP5 GT ISZERO PUSH2 0x187E JUMPI PUSH2 0x187E PUSH2 0x17E5 JUMP JUMPDEST DUP4 PUSH1 0x5 SHL PUSH1 0x20 PUSH2 0x188F DUP2 DUP4 ADD PUSH2 0x1814 JUMP JUMPDEST DUP7 DUP2 MSTORE SWAP2 DUP6 ADD SWAP2 DUP2 DUP2 ADD SWAP1 CALLDATASIZE DUP5 GT ISZERO PUSH2 0x18A7 JUMPI PUSH1 0x0 DUP1 REVERT JUMPDEST DUP7 JUMPDEST DUP5 DUP2 LT ISZERO PUSH2 0x194A JUMPI DUP1 CALLDATALOAD DUP7 DUP2 GT ISZERO PUSH2 0x18C1 JUMPI PUSH1 0x0 DUP1 DUP2 REVERT JUMPDEST DUP9 ADD PUSH1 0x1F CALLDATASIZE DUP2 DUP4 ADD SLT PUSH2 0x18D4 JUMPI PUSH1 0x0 DUP1 DUP2 REVERT JUMPDEST DUP2 CALLDATALOAD DUP9 DUP2 GT ISZERO PUSH2 0x18E6 JUMPI PUSH2 0x18E6 PUSH2 0x17E5 JUMP JUMPDEST PUSH2 0x1915 DUP8 PUSH32 0xFFFFFFFFFFFFFFFFFFFFFFFFFFFFFFFFFFFFFFFFFFFFFFFFFFFFFFFFFFFFFFE0 DUP5 DUP5 ADD AND ADD PUSH2 0x1814 JUMP JUMPDEST SWAP2 POP DUP1 DUP3 MSTORE CALLDATASIZE DUP8 DUP3 DUP6 ADD ADD GT ISZERO PUSH2 0x192C JUMPI PUSH1 0x0 DUP1 DUP2 REVERT JUMPDEST DUP1 DUP8 DUP5 ADD DUP9 DUP5 ADD CALLDATACOPY PUSH1 0x0 SWAP1 DUP3 ADD DUP8 ADD MSTORE DUP5 MSTORE POP SWAP2 DUP4 ADD SWAP2 DUP4 ADD PUSH2 0x18A9 JUMP JUMPDEST POP SWAP8 SWAP7 POP POP POP POP POP POP POP JUMP JUMPDEST PUSH1 0x0 PUSH1 0x20 DUP1 DUP4 MSTORE DUP4 MLOAD DUP1 DUP3 DUP6 ADD MSTORE PUSH1 0x0 JUMPDEST DUP2 DUP2 LT ISZERO PUSH2 0x1983 JUMPI DUP6 DUP2 ADD DUP4 ADD MLOAD DUP6 DUP3 ADD PUSH1 0x40 ADD MSTORE DUP3 ADD PUSH2 0x1967 JUMP JUMPDEST POP PUSH1 0x0 PUSH1 0x40 DUP3 DUP7 ADD ADD MSTORE PUSH1 0x40 PUSH32 0xFFFFFFFFFFFFFFFFFFFFFFFFFFFFFFFFFFFFFFFFFFFFFFFFFFFFFFFFFFFFFFE0 PUSH1 0x1F DUP4 ADD AND DUP6 ADD ADD SWAP3 POP POP POP SWAP3 SWAP2 POP POP JUMP JUMPDEST PUSH32 0x4E487B7100000000000000000000000000000000000000000000000000000000 PUSH1 0x0 MSTORE PUSH1 0x32 PUSH1 0x4 MSTORE PUSH1 0x24 PUSH1 0x0 REVERT JUMPDEST PUSH1 0x0 DUP1 DUP4 CALLDATALOAD PUSH32 0xFFFFFFFFFFFFFFFFFFFFFFFFFFFFFFFFFFFFFFFFFFFFFFFFFFFFFFFFFFFFFFE1 DUP5 CALLDATASIZE SUB ADD DUP2 SLT PUSH2 0x1A26 JUMPI PUSH1 0x0 DUP1 REVERT JUMPDEST DUP4 ADD DUP1 CALLDATALOAD SWAP2 POP PUSH8 0xFFFFFFFFFFFFFFFF DUP3 GT ISZERO PUSH2 0x1A41 JUMPI PUSH1 0x0 DUP1 REVERT JUMPDEST PUSH1 0x20 ADD SWAP2 POP CALLDATASIZE DUP2 SWAP1 SUB DUP3 SGT ISZERO PUSH2 0xF3D JUMPI PUSH1 0x0 DUP1 REVERT JUMPDEST DUP2 DUP4 DUP3 CALLDATACOPY PUSH1 0x0 SWAP2 ADD SWAP1 DUP2 MSTORE SWAP2 SWAP1 POP JUMP JUMPDEST PUSH32 0x4E487B7100000000000000000000000000000000000000000000000000000000 PUSH1 0x0 MSTORE PUSH1 0x11 PUSH1 0x4 MSTORE PUSH1 0x24 PUSH1 0x0 REVERT JUMPDEST PUSH1 0x0 PUSH32 0xFFFFFFFFFFFFFFFFFFFFFFFFFFFFFFFFFFFFFFFFFFFFFFFFFFFFFFFFFFFFFFFF DUP3 SUB PUSH2 0x1AC6 JUMPI PUSH2 0x1AC6 PUSH2 0x1A66 JUMP JUMPDEST POP PUSH1 0x1 ADD SWAP1 JUMP JUMPDEST PUSH1 0x0 PUSH1 0x20 DUP3 DUP5 SUB SLT ISZERO PUSH2 0x1ADF JUMPI PUSH1 0x0 DUP1 REVERT JUMPDEST DUP2 MLOAD DUP1 ISZERO ISZERO DUP2 EQ PUSH2 0x1AEF JUMPI PUSH1 0x0 DUP1 REVERT JUMPDEST SWAP4 SWAP3 POP POP POP JUMP JUMPDEST PUSH1 0x80 DUP2 MSTORE PUSH1 0x0 PUSH2 0x1B0A PUSH1 0x80 DUP4 ADD DUP9 DUP11 PUSH2 0x176A JUMP JUMPDEST DUP3 DUP2 SUB PUSH1 0x20 DUP5 ADD MSTORE DUP6 DUP2 MSTORE PUSH32 0x7FFFFFFFFFFFFFFFFFFFFFFFFFFFFFFFFFFFFFFFFFFFFFFFFFFFFFFFFFFFFFF DUP7 GT ISZERO PUSH2 0x1B42 JUMPI PUSH1 0x0 DUP1 REVERT JUMPDEST DUP6 PUSH1 0x5 SHL DUP1 DUP9 PUSH1 0x20 DUP5 ADD CALLDATACOPY PUSH1 0x40 DUP5 ADD SWAP6 SWAP1 SWAP6 MSTORE PUSH1 0x60 SWAP1 SWAP3 ADD SWAP3 SWAP1 SWAP3 MSTORE SWAP1 SWAP2 ADD PUSH1 0x20 ADD SWAP6 SWAP5 POP POP POP POP POP JUMP JUMPDEST DUP2 DUP2 SUB DUP2 DUP2 GT ISZERO PUSH2 0x11C6 JUMPI PUSH2 0x11C6 PUSH2 0x1A66 JUMP JUMPDEST DUP1 DUP3 ADD DUP1 DUP3 GT ISZERO PUSH2 0x11C6 JUMPI PUSH2 0x11C6 PUSH2 0x1A66 JUMP JUMPDEST PUSH32 0x4E487B7100000000000000000000000000000000000000000000000000000000 PUSH1 0x0 MSTORE PUSH1 0x21 PUSH1 0x4 MSTORE PUSH1 0x24 PUSH1 0x0 REVERT INVALID MSTORE8 PUSH10 0x676E6572207765696768 PUSH21 0x7320646F6573206E6F74206D656574207468726573 PUSH9 0x6F6C644174206C6561 PUSH20 0x74206F6E65207369676E6174757265206E6F7420 PUSH7 0x726F6D2061206B PUSH15 0x6F776E20636F6E74726F6C6C657241 PUSH21 0x206C65617374206F6E65207369676E617475726520 PUSH2 0x6C72 PUSH6 0x616479207573 PUSH6 0x64A264697066 PUSH20 0x5822122048178C2D1E6A289F4F99B5EFD67DF8C9 0xC5 0x4A 0x4F PUSH15 0x727078B8691D314C1854CBA964736F PUSH13 0x63430008120033000000000000 "},"methodIdentifiers":{"addControllers(address[],uint256[],uint256,bytes[])":"af915498","controlThreshold()":"a7865090","controllerWeight(address)":"f04420f1","controllersTotalWeight()":"06e82383","removeControllers(address[],uint256,bytes[])":"286936bb","supportsUpgrades()":"fec5c09a","updateControlThreshold(uint256,uint256,bytes[])":"87f949b4","updateControllerWeight(address,uint256,uint256,bytes[])":"d0bccea1","upgrade(address,uint256,bytes[])":"94c4395b"}}}}}