{"contracts/modules/Calls/Calls.sol":{"Calls":{"abi":[{"inputs":[{"internalType":"address[]","name":"_controllers","type":"address[]"},{"internalType":"uint256[]","name":"_weights","type":"uint256[]"},{"internalType":"uint256","name":"_nonce","type":"uint256"},{"internalType":"bytes[]","name":"_signatures","type":"bytes[]"}],"name":"addControllers","outputs":[],"stateMutability":"nonpayable","type":"function"},{"inputs":[{"components":[{"internalType":"address","name":"target","type":"address"},{"internalType":"uint256","name":"value","type":"uint256"},{"internalType":"uint256","name":"nonce","type":"uint256"},{"internalType":"bytes","name":"data","type":"bytes"}],"internalType":"struct CallsStructs.CallRequest","name":"_callRequest","type":"tuple"},{"internalType":"bytes[]","name":"_signatures","type":"bytes[]"}],"name":"call","outputs":[{"internalType":"bytes","name":"","type":"bytes"}],"stateMutability":"nonpayable","type":"function"},{"inputs":[],"name":"controlThreshold","outputs":[{"internalType":"uint256","name":"","type":"uint256"}],"stateMutability":"view","type":"function"},{"inputs":[{"internalType":"address","name":"_controller","type":"address"}],"name":"controllerWeight","outputs":[{"internalType":"uint256","name":"","type":"uint256"}],"stateMutability":"view","type":"function"},{"inputs":[],"name":"controllersTotalWeight","outputs":[{"internalType":"uint256","name":"","type":"uint256"}],"stateMutability":"view","type":"function"},{"inputs":[{"components":[{"internalType":"address","name":"target","type":"address"},{"internalType":"uint256","name":"value","type":"uint256"},{"internalType":"uint256","name":"nonce","type":"uint256"},{"internalType":"bytes","name":"data","type":"bytes"}],"internalType":"struct CallsStructs.CallRequest[]","name":"_callRequests","type":"tuple[]"},{"internalType":"bytes[]","name":"_signatures","type":"bytes[]"}],"name":"multiCall","outputs":[{"internalType":"bytes[]","name":"","type":"bytes[]"}],"stateMutability":"nonpayable","type":"function"},{"inputs":[{"internalType":"address[]","name":"_controllers","type":"address[]"},{"internalType":"uint256","name":"_nonce","type":"uint256"},{"internalType":"bytes[]","name":"_signatures","type":"bytes[]"}],"name":"removeControllers","outputs":[],"stateMutability":"nonpayable","type":"function"},{"inputs":[{"internalType":"bytes4","name":"interfaceId","type":"bytes4"}],"name":"supportsInterface","outputs":[{"internalType":"bool","name":"","type":"bool"}],"stateMutability":"view","type":"function"},{"inputs":[{"internalType":"uint256","name":"_threshold","type":"uint256"},{"internalType":"uint256","name":"_nonce","type":"uint256"},{"internalType":"bytes[]","name":"_signatures","type":"bytes[]"}],"name":"updateControlThreshold","outputs":[],"stateMutability":"nonpayable","type":"function"},{"inputs":[{"internalType":"address","name":"_controller","type":"address"},{"internalType":"uint256","name":"_weight","type":"uint256"},{"internalType":"uint256","name":"_nonce","type":"uint256"},{"internalType":"bytes[]","name":"_signatures","type":"bytes[]"}],"name":"updateControllerWeight","outputs":[],"stateMutability":"nonpayable","type":"function"}],"evm":{"bytecode":{"linkReferences":{},"object":"608060405234801561001057600080fd5b506122cf806100206000396000f3fe608060405234801561001057600080fd5b50600436106100be5760003560e01c8063a786509011610076578063d0bccea11161005b578063d0bccea11461019e578063d1e3aaa8146101b1578063f04420f1146101d157600080fd5b8063a786509014610164578063af9154981461018b57600080fd5b8063286936bb116100a7578063286936bb1461011c57806370b6e4c91461013157806387f949b41461015157600080fd5b806301ffc9a7146100c357806306e82383146100eb575b600080fd5b6100d66100d1366004611801565b610226565b60405190151581526020015b60405180910390f35b7f255f4a56bd3ad76424e31ed8855ef9ad14a0ce4e67508c76ff082e5c1466b130545b6040519081526020016100e2565b61012f61012a366004611888565b610288565b005b61014461013f366004611902565b610449565b6040516100e291906119d7565b61012f61015f3660046119ea565b6105b7565b7f255f4a56bd3ad76424e31ed8855ef9ad14a0ce4e67508c76ff082e5c1466b12f5461010e565b61012f610199366004611a3d565b61081b565b61012f6101ac366004611b0a565b6109ed565b6101c46101bf366004611b61565b610d10565b6040516100e29190611bc1565b61010e6101df366004611c41565b73ffffffffffffffffffffffffffffffffffffffff1660009081527f255f4a56bd3ad76424e31ed8855ef9ad14a0ce4e67508c76ff082e5c1466b131602052604090205490565b60007f5eaab19f000000000000000000000000000000000000000000000000000000007fffffffff0000000000000000000000000000000000000000000000000000000083160161027957506001919050565b61028282610f31565b92915050565b8484844660405160200161029f9493929190611cb0565b604080517fffffffffffffffffffffffffffffffffffffffffffffffffffffffffffffffe0818403018152919052805160209091012082826000806102ed856102e88587611d55565b610fce565b91509150818190610334576040517f08c379a000000000000000000000000000000000000000000000000000000000815260040161032b91906119d7565b60405180910390fd5b5060005b838110156103ef5760017f255f4a56bd3ad76424e31ed8855ef9ad14a0ce4e67508c76ff082e5c1466b132600087878581811061037757610377611e48565b90506020028101906103899190611e77565b604051610397929190611edc565b6040805191829003909120825260208201929092520160002080547fffffffffffffffffffffffffffffffffffffffffffffffffffffffffffffff0016911515919091179055806103e781611f1b565b915050610338565b5060005b8981101561043c5761042a8b8b8381811061041057610410611e48565b90506020020160208101906104259190611c41565b6111d9565b8061043481611f1b565b9150506103f3565b5050505050505050505050565b6060834660405160200161045e92919061203d565b604080517fffffffffffffffffffffffffffffffffffffffffffffffffffffffffffffffe0818403018152919052805160209091012083836000806104a7856102e88587611d55565b915091508181906104e5576040517f08c379a000000000000000000000000000000000000000000000000000000000815260040161032b91906119d7565b5060005b838110156105a05760017f255f4a56bd3ad76424e31ed8855ef9ad14a0ce4e67508c76ff082e5c1466b132600087878581811061052857610528611e48565b905060200281019061053a9190611e77565b604051610548929190611edc565b6040805191829003909120825260208201929092520160002080547fffffffffffffffffffffffffffffffffffffffffffffffffffffffffffffff00169115159190911790558061059881611f1b565b9150506104e9565b506105aa89611373565b9998505050505050505050565b6040805160208101869052908101849052466060820152608001604080517fffffffffffffffffffffffffffffffffffffffffffffffffffffffffffffffe08184030181529190528051602090910120828260008061061a856102e88587611d55565b91509150818190610658576040517f08c379a000000000000000000000000000000000000000000000000000000000815260040161032b91906119d7565b5060005b838110156107135760017f255f4a56bd3ad76424e31ed8855ef9ad14a0ce4e67508c76ff082e5c1466b132600087878581811061069b5761069b611e48565b90506020028101906106ad9190611e77565b6040516106bb929190611edc565b6040805191829003909120825260208201929092520160002080547fffffffffffffffffffffffffffffffffffffffffffffffffffffffffffffff00169115159190911790558061070b81611f1b565b91505061065c565b5060007f255f4a56bd3ad76424e31ed8855ef9ad14a0ce4e67508c76ff082e5c1466b12f5411801561078757507f255f4a56bd3ad76424e31ed8855ef9ad14a0ce4e67508c76ff082e5c1466b130547f255f4a56bd3ad76424e31ed8855ef9ad14a0ce4e67508c76ff082e5c1466b12f5411155b6107ed576040517f08c379a000000000000000000000000000000000000000000000000000000000815260206004820152601160248201527f496e76616c6964207468726573686f6c64000000000000000000000000000000604482015260640161032b565b887f255f4a56bd3ad76424e31ed8855ef9ad14a0ce4e67508c76ff082e5c1466b12f55505050505050505050565b8686868686466040516020016108369695949392919061205f565b604080517fffffffffffffffffffffffffffffffffffffffffffffffffffffffffffffffe08184030181529190528051602090910120828260008061087f856102e88587611d55565b915091508181906108bd576040517f08c379a000000000000000000000000000000000000000000000000000000000815260040161032b91906119d7565b5060005b838110156109785760017f255f4a56bd3ad76424e31ed8855ef9ad14a0ce4e67508c76ff082e5c1466b132600087878581811061090057610900611e48565b90506020028101906109129190611e77565b604051610920929190611edc565b6040805191829003909120825260208201929092520160002080547fffffffffffffffffffffffffffffffffffffffffffffffffffffffffffffff00169115159190911790558061097081611f1b565b9150506108c1565b5060005b8b8110156109de576109cc8d8d8381811061099957610999611e48565b90506020020160208101906109ae9190611c41565b8c8c848181106109c0576109c0611e48565b90506020020135611416565b806109d681611f1b565b91505061097c565b50505050505050505050505050565b6040805173ffffffffffffffffffffffffffffffffffffffff871660208201529081018590526060810184905246608082015260a001604080517fffffffffffffffffffffffffffffffffffffffffffffffffffffffffffffffe081840301815291905280516020909101208282600080610a6c856102e88587611d55565b91509150818190610aaa576040517f08c379a000000000000000000000000000000000000000000000000000000000815260040161032b91906119d7565b5060005b83811015610b655760017f255f4a56bd3ad76424e31ed8855ef9ad14a0ce4e67508c76ff082e5c1466b1326000878785818110610aed57610aed611e48565b9050602002810190610aff9190611e77565b604051610b0d929190611edc565b6040805191829003909120825260208201929092520160002080547fffffffffffffffffffffffffffffffffffffffffffffffffffffffffffffff001691151591909117905580610b5d81611f1b565b915050610aae565b5073ffffffffffffffffffffffffffffffffffffffff8a1660009081527f255f4a56bd3ad76424e31ed8855ef9ad14a0ce4e67508c76ff082e5c1466b13160205260409020547f255f4a56bd3ad76424e31ed8855ef9ad14a0ce4e67508c76ff082e5c1466b130548a91610bd8916120d6565b610be291906120e9565b7f255f4a56bd3ad76424e31ed8855ef9ad14a0ce4e67508c76ff082e5c1466b13081905515801590610c5657507f255f4a56bd3ad76424e31ed8855ef9ad14a0ce4e67508c76ff082e5c1466b12f547f255f4a56bd3ad76424e31ed8855ef9ad14a0ce4e67508c76ff082e5c1466b1305410155b610cbc576040517f08c379a000000000000000000000000000000000000000000000000000000000815260206004820152601d60248201527f5468726573686f6c6420776f756c6420626520696d706f737369626c65000000604482015260640161032b565b5050505073ffffffffffffffffffffffffffffffffffffffff9590951660009081527f255f4a56bd3ad76424e31ed8855ef9ad14a0ce4e67508c76ff082e5c1466b131602052604090209390935550505050565b6060848446604051602001610d27939291906120fc565b604080517fffffffffffffffffffffffffffffffffffffffffffffffffffffffffffffffe081840301815291905280516020909101208383600080610d70856102e88587611d55565b91509150818190610dae576040517f08c379a000000000000000000000000000000000000000000000000000000000815260040161032b91906119d7565b5060005b83811015610e695760017f255f4a56bd3ad76424e31ed8855ef9ad14a0ce4e67508c76ff082e5c1466b1326000878785818110610df157610df1611e48565b9050602002810190610e039190611e77565b604051610e11929190611edc565b6040805191829003909120825260208201929092520160002080547fffffffffffffffffffffffffffffffffffffffffffffffffffffffffffffff001691151591909117905580610e6181611f1b565b915050610db2565b5060008967ffffffffffffffff811115610e8557610e85611cd7565b604051908082528060200260200182016040528015610eb857816020015b6060815260200190600190039081610ea35790505b50905060005b8a811015610f2257610ef28c8c83818110610edb57610edb611e48565b9050602002810190610eed91906121b1565b611373565b828281518110610f0457610f04611e48565b60200260200101819052508080610f1a90611f1b565b915050610ebe565b509a9950505050505050505050565b60007f7e68492c000000000000000000000000000000000000000000000000000000007fffffffff00000000000000000000000000000000000000000000000000000000831601610f8457506001919050565b7f01ffc9a7000000000000000000000000000000000000000000000000000000007fffffffff00000000000000000000000000000000000000000000000000000000831614610282565b600060606000805b845181101561116d57600061100487878481518110610ff757610ff7611e48565b6020026020010151611498565b73ffffffffffffffffffffffffffffffffffffffff811660009081527f255f4a56bd3ad76424e31ed8855ef9ad14a0ce4e67508c76ff082e5c1466b13160205260408120549192500361107857600060405180606001604052806032815260200161224560329139945094505050506111d2565b600086838151811061108c5761108c611e48565b60200260200101518051906020012090506110c47f255f4a56bd3ad76424e31ed8855ef9ad14a0ce4e67508c76ff082e5c1466b12f90565b6000828152600391909101602052604090205460ff16156111075760006040518060600160405280602381526020016122776023913995509550505050506111d2565b73ffffffffffffffffffffffffffffffffffffffff821660009081527f255f4a56bd3ad76424e31ed8855ef9ad14a0ce4e67508c76ff082e5c1466b131602052604090205461115690856120e9565b93505050808061116590611f1b565b915050610fd6565b507f255f4a56bd3ad76424e31ed8855ef9ad14a0ce4e67508c76ff082e5c1466b12f548110156111bc57600060405180606001604052806026815260200161221f6026913992509250506111d2565b5050604080516020810190915260008152600191505b9250929050565b73ffffffffffffffffffffffffffffffffffffffff811660009081527f255f4a56bd3ad76424e31ed8855ef9ad14a0ce4e67508c76ff082e5c1466b13160205260408120547f255f4a56bd3ad76424e31ed8855ef9ad14a0ce4e67508c76ff082e5c1466b1308054919290916112509084906120d6565b90915550507f255f4a56bd3ad76424e31ed8855ef9ad14a0ce4e67508c76ff082e5c1466b13054158015906112c757507f255f4a56bd3ad76424e31ed8855ef9ad14a0ce4e67508c76ff082e5c1466b12f547f255f4a56bd3ad76424e31ed8855ef9ad14a0ce4e67508c76ff082e5c1466b1305410155b61132d576040517f08c379a000000000000000000000000000000000000000000000000000000000815260206004820152601d60248201527f5468726573686f6c6420776f756c6420626520696d706f737369626c65000000604482015260640161032b565b73ffffffffffffffffffffffffffffffffffffffff1660009081527f255f4a56bd3ad76424e31ed8855ef9ad14a0ce4e67508c76ff082e5c1466b1316020526040812055565b60606000806113856020850185611c41565b73ffffffffffffffffffffffffffffffffffffffff1660208501356113ad6060870187611e77565b6040516113bb929190611edc565b60006040518083038185875af1925050503d80600081146113f8576040519150601f19603f3d011682016040523d82523d6000602084013e6113fd565b606091505b50915091508161140f57805160208201fd5b9392505050565b807f255f4a56bd3ad76424e31ed8855ef9ad14a0ce4e67508c76ff082e5c1466b12f600101600082825461144a91906120e9565b909155505073ffffffffffffffffffffffffffffffffffffffff9190911660009081527f255f4a56bd3ad76424e31ed8855ef9ad14a0ce4e67508c76ff082e5c1466b1316020526040902055565b600061140f826114f5856040517f19457468657265756d205369676e6564204d6573736167653a0a3332000000006020820152603c8101829052600090605c01604051602081830303815290604052805190602001209050919050565b906000806000611505858561151a565b915091506115128161155c565b509392505050565b60008082516041036115505760208301516040840151606085015160001a61154487828585611712565b945094505050506111d2565b506000905060026111d2565b6000816004811115611570576115706121ef565b036115785750565b600181600481111561158c5761158c6121ef565b036115f3576040517f08c379a000000000000000000000000000000000000000000000000000000000815260206004820152601860248201527f45434453413a20696e76616c6964207369676e61747572650000000000000000604482015260640161032b565b6002816004811115611607576116076121ef565b0361166e576040517f08c379a000000000000000000000000000000000000000000000000000000000815260206004820152601f60248201527f45434453413a20696e76616c6964207369676e6174757265206c656e67746800604482015260640161032b565b6003816004811115611682576116826121ef565b0361170f576040517f08c379a000000000000000000000000000000000000000000000000000000000815260206004820152602260248201527f45434453413a20696e76616c6964207369676e6174757265202773272076616c60448201527f7565000000000000000000000000000000000000000000000000000000000000606482015260840161032b565b50565b6000807f7fffffffffffffffffffffffffffffff5d576e7357a4501ddfe92f46681b20a083111561174957506000905060036117f8565b6040805160008082526020820180845289905260ff881692820192909252606081018690526080810185905260019060a0016020604051602081039080840390855afa15801561179d573d6000803e3d6000fd5b50506040517fffffffffffffffffffffffffffffffffffffffffffffffffffffffffffffffe0015191505073ffffffffffffffffffffffffffffffffffffffff81166117f1576000600192509250506117f8565b9150600090505b94509492505050565b60006020828403121561181357600080fd5b81357fffffffff000000000000000000000000000000000000000000000000000000008116811461140f57600080fd5b60008083601f84011261185557600080fd5b50813567ffffffffffffffff81111561186d57600080fd5b6020830191508360208260051b85010111156111d257600080fd5b6000806000806000606086880312156118a057600080fd5b853567ffffffffffffffff808211156118b857600080fd5b6118c489838a01611843565b90975095506020880135945060408801359150808211156118e457600080fd5b506118f188828901611843565b969995985093965092949392505050565b60008060006040848603121561191757600080fd5b833567ffffffffffffffff8082111561192f57600080fd5b908501906080828803121561194357600080fd5b9093506020850135908082111561195957600080fd5b5061196686828701611843565b9497909650939450505050565b6000815180845260005b818110156119995760208185018101518683018201520161197d565b5060006020828601015260207fffffffffffffffffffffffffffffffffffffffffffffffffffffffffffffffe0601f83011685010191505092915050565b60208152600061140f6020830184611973565b60008060008060608587031215611a0057600080fd5b8435935060208501359250604085013567ffffffffffffffff811115611a2557600080fd5b611a3187828801611843565b95989497509550505050565b60008060008060008060006080888a031215611a5857600080fd5b873567ffffffffffffffff80821115611a7057600080fd5b611a7c8b838c01611843565b909950975060208a0135915080821115611a9557600080fd5b611aa18b838c01611843565b909750955060408a0135945060608a0135915080821115611ac157600080fd5b50611ace8a828b01611843565b989b979a50959850939692959293505050565b803573ffffffffffffffffffffffffffffffffffffffff81168114611b0557600080fd5b919050565b600080600080600060808688031215611b2257600080fd5b611b2b86611ae1565b94506020860135935060408601359250606086013567ffffffffffffffff811115611b5557600080fd5b6118f188828901611843565b60008060008060408587031215611b7757600080fd5b843567ffffffffffffffff80821115611b8f57600080fd5b611b9b88838901611843565b90965094506020870135915080821115611bb457600080fd5b50611a3187828801611843565b6000602080830181845280855180835260408601915060408160051b870101925083870160005b82811015611c34577fffffffffffffffffffffffffffffffffffffffffffffffffffffffffffffffc0888603018452611c22858351611973565b94509285019290850190600101611be8565b5092979650505050505050565b600060208284031215611c5357600080fd5b61140f82611ae1565b8183526000602080850194508260005b85811015611ca55773ffffffffffffffffffffffffffffffffffffffff611c9283611ae1565b1687529582019590820190600101611c6c565b509495945050505050565b606081526000611cc4606083018688611c5c565b6020830194909452506040015292915050565b7f4e487b7100000000000000000000000000000000000000000000000000000000600052604160045260246000fd5b604051601f82017fffffffffffffffffffffffffffffffffffffffffffffffffffffffffffffffe016810167ffffffffffffffff81118282101715611d4d57611d4d611cd7565b604052919050565b600067ffffffffffffffff80841115611d7057611d70611cd7565b8360051b6020611d81818301611d06565b868152918501918181019036841115611d9957600080fd5b865b84811015611e3c57803586811115611db35760008081fd5b8801601f3681830112611dc65760008081fd5b813588811115611dd857611dd8611cd7565b611e07877fffffffffffffffffffffffffffffffffffffffffffffffffffffffffffffffe08484011601611d06565b91508082523687828501011115611e1e5760008081fd5b80878401888401376000908201870152845250918301918301611d9b565b50979650505050505050565b7f4e487b7100000000000000000000000000000000000000000000000000000000600052603260045260246000fd5b60008083357fffffffffffffffffffffffffffffffffffffffffffffffffffffffffffffffe1843603018112611eac57600080fd5b83018035915067ffffffffffffffff821115611ec757600080fd5b6020019150368190038213156111d257600080fd5b8183823760009101908152919050565b7f4e487b7100000000000000000000000000000000000000000000000000000000600052601160045260246000fd5b60007fffffffffffffffffffffffffffffffffffffffffffffffffffffffffffffffff8203611f4c57611f4c611eec565b5060010190565b73ffffffffffffffffffffffffffffffffffffffff611f7182611ae1565b1682526020810135602083015260408101356040830152600060608201357fffffffffffffffffffffffffffffffffffffffffffffffffffffffffffffffe1833603018112611fbf57600080fd5b820160208101903567ffffffffffffffff811115611fdc57600080fd5b803603821315611feb57600080fd5b60806060860152806080860152808260a0870137600060a0828701015260a07fffffffffffffffffffffffffffffffffffffffffffffffffffffffffffffffe0601f8301168601019250505092915050565b6040815260006120506040830185611f53565b90508260208301529392505050565b60808152600061207360808301888a611c5c565b82810360208401528581527f07ffffffffffffffffffffffffffffffffffffffffffffffffffffffffffffff8611156120ab57600080fd5b8560051b80886020840137604084019590955260609092019290925290910160200195945050505050565b8181038181111561028257610282611eec565b8082018082111561028257610282611eec565b6040808252810183905260006060600585901b830181019083018683805b8881101561219c577fffffffffffffffffffffffffffffffffffffffffffffffffffffffffffffffa087860301845282357fffffffffffffffffffffffffffffffffffffffffffffffffffffffffffffff818b360301811261217a578283fd5b612186868c8301611f53565b955050602093840193929092019160010161211a565b50505050602092909201929092529392505050565b600082357fffffffffffffffffffffffffffffffffffffffffffffffffffffffffffffff818336030181126121e557600080fd5b9190910192915050565b7f4e487b7100000000000000000000000000000000000000000000000000000000600052602160045260246000fdfe5369676e6572207765696768747320646f6573206e6f74206d656574207468726573686f6c644174206c65617374206f6e65207369676e6174757265206e6f742066726f6d2061206b6e6f776e20636f6e74726f6c6c65724174206c65617374206f6e65207369676e617475726520616c72656164792075736564a26469706673582212207afb18347163b0f9fdd4f4c9f438301b2f57d287210baa49ea95ef18c460221064736f6c63430008120033","opcodes":"PUSH1 0x80 PUSH1 0x40 MSTORE CALLVALUE DUP1 ISZERO PUSH2 0x10 JUMPI PUSH1 0x0 DUP1 REVERT JUMPDEST POP PUSH2 0x22CF DUP1 PUSH2 0x20 PUSH1 0x0 CODECOPY PUSH1 0x0 RETURN INVALID PUSH1 0x80 PUSH1 0x40 MSTORE CALLVALUE DUP1 ISZERO PUSH2 0x10 JUMPI PUSH1 0x0 DUP1 REVERT JUMPDEST POP PUSH1 0x4 CALLDATASIZE LT PUSH2 0xBE JUMPI PUSH1 0x0 CALLDATALOAD PUSH1 0xE0 SHR DUP1 PUSH4 0xA7865090 GT PUSH2 0x76 JUMPI DUP1 PUSH4 0xD0BCCEA1 GT PUSH2 0x5B JUMPI DUP1 PUSH4 0xD0BCCEA1 EQ PUSH2 0x19E JUMPI DUP1 PUSH4 0xD1E3AAA8 EQ PUSH2 0x1B1 JUMPI DUP1 PUSH4 0xF04420F1 EQ PUSH2 0x1D1 JUMPI PUSH1 0x0 DUP1 REVERT JUMPDEST DUP1 PUSH4 0xA7865090 EQ PUSH2 0x164 JUMPI DUP1 PUSH4 0xAF915498 EQ PUSH2 0x18B JUMPI PUSH1 0x0 DUP1 REVERT JUMPDEST DUP1 PUSH4 0x286936BB GT PUSH2 0xA7 JUMPI DUP1 PUSH4 0x286936BB EQ PUSH2 0x11C JUMPI DUP1 PUSH4 0x70B6E4C9 EQ PUSH2 0x131 JUMPI DUP1 PUSH4 0x87F949B4 EQ PUSH2 0x151 JUMPI PUSH1 0x0 DUP1 REVERT JUMPDEST DUP1 PUSH4 0x1FFC9A7 EQ PUSH2 0xC3 JUMPI DUP1 PUSH4 0x6E82383 EQ PUSH2 0xEB JUMPI JUMPDEST PUSH1 0x0 DUP1 REVERT JUMPDEST PUSH2 0xD6 PUSH2 0xD1 CALLDATASIZE PUSH1 0x4 PUSH2 0x1801 JUMP JUMPDEST PUSH2 0x226 JUMP JUMPDEST PUSH1 0x40 MLOAD SWAP1 ISZERO ISZERO DUP2 MSTORE PUSH1 0x20 ADD JUMPDEST PUSH1 0x40 MLOAD DUP1 SWAP2 SUB SWAP1 RETURN JUMPDEST PUSH32 0x255F4A56BD3AD76424E31ED8855EF9AD14A0CE4E67508C76FF082E5C1466B130 SLOAD JUMPDEST PUSH1 0x40 MLOAD SWAP1 DUP2 MSTORE PUSH1 0x20 ADD PUSH2 0xE2 JUMP JUMPDEST PUSH2 0x12F PUSH2 0x12A CALLDATASIZE PUSH1 0x4 PUSH2 0x1888 JUMP JUMPDEST PUSH2 0x288 JUMP JUMPDEST STOP JUMPDEST PUSH2 0x144 PUSH2 0x13F CALLDATASIZE PUSH1 0x4 PUSH2 0x1902 JUMP JUMPDEST PUSH2 0x449 JUMP JUMPDEST PUSH1 0x40 MLOAD PUSH2 0xE2 SWAP2 SWAP1 PUSH2 0x19D7 JUMP JUMPDEST PUSH2 0x12F PUSH2 0x15F CALLDATASIZE PUSH1 0x4 PUSH2 0x19EA JUMP JUMPDEST PUSH2 0x5B7 JUMP JUMPDEST PUSH32 0x255F4A56BD3AD76424E31ED8855EF9AD14A0CE4E67508C76FF082E5C1466B12F SLOAD PUSH2 0x10E JUMP JUMPDEST PUSH2 0x12F PUSH2 0x199 CALLDATASIZE PUSH1 0x4 PUSH2 0x1A3D JUMP JUMPDEST PUSH2 0x81B JUMP JUMPDEST PUSH2 0x12F PUSH2 0x1AC CALLDATASIZE PUSH1 0x4 PUSH2 0x1B0A JUMP JUMPDEST PUSH2 0x9ED JUMP JUMPDEST PUSH2 0x1C4 PUSH2 0x1BF CALLDATASIZE PUSH1 0x4 PUSH2 0x1B61 JUMP JUMPDEST PUSH2 0xD10 JUMP JUMPDEST PUSH1 0x40 MLOAD PUSH2 0xE2 SWAP2 SWAP1 PUSH2 0x1BC1 JUMP JUMPDEST PUSH2 0x10E PUSH2 0x1DF CALLDATASIZE PUSH1 0x4 PUSH2 0x1C41 JUMP JUMPDEST PUSH20 0xFFFFFFFFFFFFFFFFFFFFFFFFFFFFFFFFFFFFFFFF AND PUSH1 0x0 SWAP1 DUP2 MSTORE PUSH32 0x255F4A56BD3AD76424E31ED8855EF9AD14A0CE4E67508C76FF082E5C1466B131 PUSH1 0x20 MSTORE PUSH1 0x40 SWAP1 KECCAK256 SLOAD SWAP1 JUMP JUMPDEST PUSH1 0x0 PUSH32 0x5EAAB19F00000000000000000000000000000000000000000000000000000000 PUSH32 0xFFFFFFFF00000000000000000000000000000000000000000000000000000000 DUP4 AND ADD PUSH2 0x279 JUMPI POP PUSH1 0x1 SWAP2 SWAP1 POP JUMP JUMPDEST PUSH2 0x282 DUP3 PUSH2 0xF31 JUMP JUMPDEST SWAP3 SWAP2 POP POP JUMP JUMPDEST DUP5 DUP5 DUP5 CHAINID PUSH1 0x40 MLOAD PUSH1 0x20 ADD PUSH2 0x29F SWAP5 SWAP4 SWAP3 SWAP2 SWAP1 PUSH2 0x1CB0 JUMP JUMPDEST PUSH1 0x40 DUP1 MLOAD PUSH32 0xFFFFFFFFFFFFFFFFFFFFFFFFFFFFFFFFFFFFFFFFFFFFFFFFFFFFFFFFFFFFFFE0 DUP2 DUP5 SUB ADD DUP2 MSTORE SWAP2 SWAP1 MSTORE DUP1 MLOAD PUSH1 0x20 SWAP1 SWAP2 ADD KECCAK256 DUP3 DUP3 PUSH1 0x0 DUP1 PUSH2 0x2ED DUP6 PUSH2 0x2E8 DUP6 DUP8 PUSH2 0x1D55 JUMP JUMPDEST PUSH2 0xFCE JUMP JUMPDEST SWAP2 POP SWAP2 POP DUP2 DUP2 SWAP1 PUSH2 0x334 JUMPI PUSH1 0x40 MLOAD PUSH32 0x8C379A000000000000000000000000000000000000000000000000000000000 DUP2 MSTORE PUSH1 0x4 ADD PUSH2 0x32B SWAP2 SWAP1 PUSH2 0x19D7 JUMP JUMPDEST PUSH1 0x40 MLOAD DUP1 SWAP2 SUB SWAP1 REVERT JUMPDEST POP PUSH1 0x0 JUMPDEST DUP4 DUP2 LT ISZERO PUSH2 0x3EF JUMPI PUSH1 0x1 PUSH32 0x255F4A56BD3AD76424E31ED8855EF9AD14A0CE4E67508C76FF082E5C1466B132 PUSH1 0x0 DUP8 DUP8 DUP6 DUP2 DUP2 LT PUSH2 0x377 JUMPI PUSH2 0x377 PUSH2 0x1E48 JUMP JUMPDEST SWAP1 POP PUSH1 0x20 MUL DUP2 ADD SWAP1 PUSH2 0x389 SWAP2 SWAP1 PUSH2 0x1E77 JUMP JUMPDEST PUSH1 0x40 MLOAD PUSH2 0x397 SWAP3 SWAP2 SWAP1 PUSH2 0x1EDC JUMP JUMPDEST PUSH1 0x40 DUP1 MLOAD SWAP2 DUP3 SWAP1 SUB SWAP1 SWAP2 KECCAK256 DUP3 MSTORE PUSH1 0x20 DUP3 ADD SWAP3 SWAP1 SWAP3 MSTORE ADD PUSH1 0x0 KECCAK256 DUP1 SLOAD PUSH32 0xFFFFFFFFFFFFFFFFFFFFFFFFFFFFFFFFFFFFFFFFFFFFFFFFFFFFFFFFFFFFFF00 AND SWAP2 ISZERO ISZERO SWAP2 SWAP1 SWAP2 OR SWAP1 SSTORE DUP1 PUSH2 0x3E7 DUP2 PUSH2 0x1F1B JUMP JUMPDEST SWAP2 POP POP PUSH2 0x338 JUMP JUMPDEST POP PUSH1 0x0 JUMPDEST DUP10 DUP2 LT ISZERO PUSH2 0x43C JUMPI PUSH2 0x42A DUP12 DUP12 DUP4 DUP2 DUP2 LT PUSH2 0x410 JUMPI PUSH2 0x410 PUSH2 0x1E48 JUMP JUMPDEST SWAP1 POP PUSH1 0x20 MUL ADD PUSH1 0x20 DUP2 ADD SWAP1 PUSH2 0x425 SWAP2 SWAP1 PUSH2 0x1C41 JUMP JUMPDEST PUSH2 0x11D9 JUMP JUMPDEST DUP1 PUSH2 0x434 DUP2 PUSH2 0x1F1B JUMP JUMPDEST SWAP2 POP POP PUSH2 0x3F3 JUMP JUMPDEST POP POP POP POP POP POP POP POP POP POP POP JUMP JUMPDEST PUSH1 0x60 DUP4 CHAINID PUSH1 0x40 MLOAD PUSH1 0x20 ADD PUSH2 0x45E SWAP3 SWAP2 SWAP1 PUSH2 0x203D JUMP JUMPDEST PUSH1 0x40 DUP1 MLOAD PUSH32 0xFFFFFFFFFFFFFFFFFFFFFFFFFFFFFFFFFFFFFFFFFFFFFFFFFFFFFFFFFFFFFFE0 DUP2 DUP5 SUB ADD DUP2 MSTORE SWAP2 SWAP1 MSTORE DUP1 MLOAD PUSH1 0x20 SWAP1 SWAP2 ADD KECCAK256 DUP4 DUP4 PUSH1 0x0 DUP1 PUSH2 0x4A7 DUP6 PUSH2 0x2E8 DUP6 DUP8 PUSH2 0x1D55 JUMP JUMPDEST SWAP2 POP SWAP2 POP DUP2 DUP2 SWAP1 PUSH2 0x4E5 JUMPI PUSH1 0x40 MLOAD PUSH32 0x8C379A000000000000000000000000000000000000000000000000000000000 DUP2 MSTORE PUSH1 0x4 ADD PUSH2 0x32B SWAP2 SWAP1 PUSH2 0x19D7 JUMP JUMPDEST POP PUSH1 0x0 JUMPDEST DUP4 DUP2 LT ISZERO PUSH2 0x5A0 JUMPI PUSH1 0x1 PUSH32 0x255F4A56BD3AD76424E31ED8855EF9AD14A0CE4E67508C76FF082E5C1466B132 PUSH1 0x0 DUP8 DUP8 DUP6 DUP2 DUP2 LT PUSH2 0x528 JUMPI PUSH2 0x528 PUSH2 0x1E48 JUMP JUMPDEST SWAP1 POP PUSH1 0x20 MUL DUP2 ADD SWAP1 PUSH2 0x53A SWAP2 SWAP1 PUSH2 0x1E77 JUMP JUMPDEST PUSH1 0x40 MLOAD PUSH2 0x548 SWAP3 SWAP2 SWAP1 PUSH2 0x1EDC JUMP JUMPDEST PUSH1 0x40 DUP1 MLOAD SWAP2 DUP3 SWAP1 SUB SWAP1 SWAP2 KECCAK256 DUP3 MSTORE PUSH1 0x20 DUP3 ADD SWAP3 SWAP1 SWAP3 MSTORE ADD PUSH1 0x0 KECCAK256 DUP1 SLOAD PUSH32 0xFFFFFFFFFFFFFFFFFFFFFFFFFFFFFFFFFFFFFFFFFFFFFFFFFFFFFFFFFFFFFF00 AND SWAP2 ISZERO ISZERO SWAP2 SWAP1 SWAP2 OR SWAP1 SSTORE DUP1 PUSH2 0x598 DUP2 PUSH2 0x1F1B JUMP JUMPDEST SWAP2 POP POP PUSH2 0x4E9 JUMP JUMPDEST POP PUSH2 0x5AA DUP10 PUSH2 0x1373 JUMP JUMPDEST SWAP10 SWAP9 POP POP POP POP POP POP POP POP POP JUMP JUMPDEST PUSH1 0x40 DUP1 MLOAD PUSH1 0x20 DUP2 ADD DUP7 SWAP1 MSTORE SWAP1 DUP2 ADD DUP5 SWAP1 MSTORE CHAINID PUSH1 0x60 DUP3 ADD MSTORE PUSH1 0x80 ADD PUSH1 0x40 DUP1 MLOAD PUSH32 0xFFFFFFFFFFFFFFFFFFFFFFFFFFFFFFFFFFFFFFFFFFFFFFFFFFFFFFFFFFFFFFE0 DUP2 DUP5 SUB ADD DUP2 MSTORE SWAP2 SWAP1 MSTORE DUP1 MLOAD PUSH1 0x20 SWAP1 SWAP2 ADD KECCAK256 DUP3 DUP3 PUSH1 0x0 DUP1 PUSH2 0x61A DUP6 PUSH2 0x2E8 DUP6 DUP8 PUSH2 0x1D55 JUMP JUMPDEST SWAP2 POP SWAP2 POP DUP2 DUP2 SWAP1 PUSH2 0x658 JUMPI PUSH1 0x40 MLOAD PUSH32 0x8C379A000000000000000000000000000000000000000000000000000000000 DUP2 MSTORE PUSH1 0x4 ADD PUSH2 0x32B SWAP2 SWAP1 PUSH2 0x19D7 JUMP JUMPDEST POP PUSH1 0x0 JUMPDEST DUP4 DUP2 LT ISZERO PUSH2 0x713 JUMPI PUSH1 0x1 PUSH32 0x255F4A56BD3AD76424E31ED8855EF9AD14A0CE4E67508C76FF082E5C1466B132 PUSH1 0x0 DUP8 DUP8 DUP6 DUP2 DUP2 LT PUSH2 0x69B JUMPI PUSH2 0x69B PUSH2 0x1E48 JUMP JUMPDEST SWAP1 POP PUSH1 0x20 MUL DUP2 ADD SWAP1 PUSH2 0x6AD SWAP2 SWAP1 PUSH2 0x1E77 JUMP JUMPDEST PUSH1 0x40 MLOAD PUSH2 0x6BB SWAP3 SWAP2 SWAP1 PUSH2 0x1EDC JUMP JUMPDEST PUSH1 0x40 DUP1 MLOAD SWAP2 DUP3 SWAP1 SUB SWAP1 SWAP2 KECCAK256 DUP3 MSTORE PUSH1 0x20 DUP3 ADD SWAP3 SWAP1 SWAP3 MSTORE ADD PUSH1 0x0 KECCAK256 DUP1 SLOAD PUSH32 0xFFFFFFFFFFFFFFFFFFFFFFFFFFFFFFFFFFFFFFFFFFFFFFFFFFFFFFFFFFFFFF00 AND SWAP2 ISZERO ISZERO SWAP2 SWAP1 SWAP2 OR SWAP1 SSTORE DUP1 PUSH2 0x70B DUP2 PUSH2 0x1F1B JUMP JUMPDEST SWAP2 POP POP PUSH2 0x65C JUMP JUMPDEST POP PUSH1 0x0 PUSH32 0x255F4A56BD3AD76424E31ED8855EF9AD14A0CE4E67508C76FF082E5C1466B12F SLOAD GT DUP1 ISZERO PUSH2 0x787 JUMPI POP PUSH32 0x255F4A56BD3AD76424E31ED8855EF9AD14A0CE4E67508C76FF082E5C1466B130 SLOAD PUSH32 0x255F4A56BD3AD76424E31ED8855EF9AD14A0CE4E67508C76FF082E5C1466B12F SLOAD GT ISZERO JUMPDEST PUSH2 0x7ED JUMPI PUSH1 0x40 MLOAD PUSH32 0x8C379A000000000000000000000000000000000000000000000000000000000 DUP2 MSTORE PUSH1 0x20 PUSH1 0x4 DUP3 ADD MSTORE PUSH1 0x11 PUSH1 0x24 DUP3 ADD MSTORE PUSH32 0x496E76616C6964207468726573686F6C64000000000000000000000000000000 PUSH1 0x44 DUP3 ADD MSTORE PUSH1 0x64 ADD PUSH2 0x32B JUMP JUMPDEST DUP9 PUSH32 0x255F4A56BD3AD76424E31ED8855EF9AD14A0CE4E67508C76FF082E5C1466B12F SSTORE POP POP POP POP POP POP POP POP POP JUMP JUMPDEST DUP7 DUP7 DUP7 DUP7 DUP7 CHAINID PUSH1 0x40 MLOAD PUSH1 0x20 ADD PUSH2 0x836 SWAP7 SWAP6 SWAP5 SWAP4 SWAP3 SWAP2 SWAP1 PUSH2 0x205F JUMP JUMPDEST PUSH1 0x40 DUP1 MLOAD PUSH32 0xFFFFFFFFFFFFFFFFFFFFFFFFFFFFFFFFFFFFFFFFFFFFFFFFFFFFFFFFFFFFFFE0 DUP2 DUP5 SUB ADD DUP2 MSTORE SWAP2 SWAP1 MSTORE DUP1 MLOAD PUSH1 0x20 SWAP1 SWAP2 ADD KECCAK256 DUP3 DUP3 PUSH1 0x0 DUP1 PUSH2 0x87F DUP6 PUSH2 0x2E8 DUP6 DUP8 PUSH2 0x1D55 JUMP JUMPDEST SWAP2 POP SWAP2 POP DUP2 DUP2 SWAP1 PUSH2 0x8BD JUMPI PUSH1 0x40 MLOAD PUSH32 0x8C379A000000000000000000000000000000000000000000000000000000000 DUP2 MSTORE PUSH1 0x4 ADD PUSH2 0x32B SWAP2 SWAP1 PUSH2 0x19D7 JUMP JUMPDEST POP PUSH1 0x0 JUMPDEST DUP4 DUP2 LT ISZERO PUSH2 0x978 JUMPI PUSH1 0x1 PUSH32 0x255F4A56BD3AD76424E31ED8855EF9AD14A0CE4E67508C76FF082E5C1466B132 PUSH1 0x0 DUP8 DUP8 DUP6 DUP2 DUP2 LT PUSH2 0x900 JUMPI PUSH2 0x900 PUSH2 0x1E48 JUMP JUMPDEST SWAP1 POP PUSH1 0x20 MUL DUP2 ADD SWAP1 PUSH2 0x912 SWAP2 SWAP1 PUSH2 0x1E77 JUMP JUMPDEST PUSH1 0x40 MLOAD PUSH2 0x920 SWAP3 SWAP2 SWAP1 PUSH2 0x1EDC JUMP JUMPDEST PUSH1 0x40 DUP1 MLOAD SWAP2 DUP3 SWAP1 SUB SWAP1 SWAP2 KECCAK256 DUP3 MSTORE PUSH1 0x20 DUP3 ADD SWAP3 SWAP1 SWAP3 MSTORE ADD PUSH1 0x0 KECCAK256 DUP1 SLOAD PUSH32 0xFFFFFFFFFFFFFFFFFFFFFFFFFFFFFFFFFFFFFFFFFFFFFFFFFFFFFFFFFFFFFF00 AND SWAP2 ISZERO ISZERO SWAP2 SWAP1 SWAP2 OR SWAP1 SSTORE DUP1 PUSH2 0x970 DUP2 PUSH2 0x1F1B JUMP JUMPDEST SWAP2 POP POP PUSH2 0x8C1 JUMP JUMPDEST POP PUSH1 0x0 JUMPDEST DUP12 DUP2 LT ISZERO PUSH2 0x9DE JUMPI PUSH2 0x9CC DUP14 DUP14 DUP4 DUP2 DUP2 LT PUSH2 0x999 JUMPI PUSH2 0x999 PUSH2 0x1E48 JUMP JUMPDEST SWAP1 POP PUSH1 0x20 MUL ADD PUSH1 0x20 DUP2 ADD SWAP1 PUSH2 0x9AE SWAP2 SWAP1 PUSH2 0x1C41 JUMP JUMPDEST DUP13 DUP13 DUP5 DUP2 DUP2 LT PUSH2 0x9C0 JUMPI PUSH2 0x9C0 PUSH2 0x1E48 JUMP JUMPDEST SWAP1 POP PUSH1 0x20 MUL ADD CALLDATALOAD PUSH2 0x1416 JUMP JUMPDEST DUP1 PUSH2 0x9D6 DUP2 PUSH2 0x1F1B JUMP JUMPDEST SWAP2 POP POP PUSH2 0x97C JUMP JUMPDEST POP POP POP POP POP POP POP POP POP POP POP POP POP JUMP JUMPDEST PUSH1 0x40 DUP1 MLOAD PUSH20 0xFFFFFFFFFFFFFFFFFFFFFFFFFFFFFFFFFFFFFFFF DUP8 AND PUSH1 0x20 DUP3 ADD MSTORE SWAP1 DUP2 ADD DUP6 SWAP1 MSTORE PUSH1 0x60 DUP2 ADD DUP5 SWAP1 MSTORE CHAINID PUSH1 0x80 DUP3 ADD MSTORE PUSH1 0xA0 ADD PUSH1 0x40 DUP1 MLOAD PUSH32 0xFFFFFFFFFFFFFFFFFFFFFFFFFFFFFFFFFFFFFFFFFFFFFFFFFFFFFFFFFFFFFFE0 DUP2 DUP5 SUB ADD DUP2 MSTORE SWAP2 SWAP1 MSTORE DUP1 MLOAD PUSH1 0x20 SWAP1 SWAP2 ADD KECCAK256 DUP3 DUP3 PUSH1 0x0 DUP1 PUSH2 0xA6C DUP6 PUSH2 0x2E8 DUP6 DUP8 PUSH2 0x1D55 JUMP JUMPDEST SWAP2 POP SWAP2 POP DUP2 DUP2 SWAP1 PUSH2 0xAAA JUMPI PUSH1 0x40 MLOAD PUSH32 0x8C379A000000000000000000000000000000000000000000000000000000000 DUP2 MSTORE PUSH1 0x4 ADD PUSH2 0x32B SWAP2 SWAP1 PUSH2 0x19D7 JUMP JUMPDEST POP PUSH1 0x0 JUMPDEST DUP4 DUP2 LT ISZERO PUSH2 0xB65 JUMPI PUSH1 0x1 PUSH32 0x255F4A56BD3AD76424E31ED8855EF9AD14A0CE4E67508C76FF082E5C1466B132 PUSH1 0x0 DUP8 DUP8 DUP6 DUP2 DUP2 LT PUSH2 0xAED JUMPI PUSH2 0xAED PUSH2 0x1E48 JUMP JUMPDEST SWAP1 POP PUSH1 0x20 MUL DUP2 ADD SWAP1 PUSH2 0xAFF SWAP2 SWAP1 PUSH2 0x1E77 JUMP JUMPDEST PUSH1 0x40 MLOAD PUSH2 0xB0D SWAP3 SWAP2 SWAP1 PUSH2 0x1EDC JUMP JUMPDEST PUSH1 0x40 DUP1 MLOAD SWAP2 DUP3 SWAP1 SUB SWAP1 SWAP2 KECCAK256 DUP3 MSTORE PUSH1 0x20 DUP3 ADD SWAP3 SWAP1 SWAP3 MSTORE ADD PUSH1 0x0 KECCAK256 DUP1 SLOAD PUSH32 0xFFFFFFFFFFFFFFFFFFFFFFFFFFFFFFFFFFFFFFFFFFFFFFFFFFFFFFFFFFFFFF00 AND SWAP2 ISZERO ISZERO SWAP2 SWAP1 SWAP2 OR SWAP1 SSTORE DUP1 PUSH2 0xB5D DUP2 PUSH2 0x1F1B JUMP JUMPDEST SWAP2 POP POP PUSH2 0xAAE JUMP JUMPDEST POP PUSH20 0xFFFFFFFFFFFFFFFFFFFFFFFFFFFFFFFFFFFFFFFF DUP11 AND PUSH1 0x0 SWAP1 DUP2 MSTORE PUSH32 0x255F4A56BD3AD76424E31ED8855EF9AD14A0CE4E67508C76FF082E5C1466B131 PUSH1 0x20 MSTORE PUSH1 0x40 SWAP1 KECCAK256 SLOAD PUSH32 0x255F4A56BD3AD76424E31ED8855EF9AD14A0CE4E67508C76FF082E5C1466B130 SLOAD DUP11 SWAP2 PUSH2 0xBD8 SWAP2 PUSH2 0x20D6 JUMP JUMPDEST PUSH2 0xBE2 SWAP2 SWAP1 PUSH2 0x20E9 JUMP JUMPDEST PUSH32 0x255F4A56BD3AD76424E31ED8855EF9AD14A0CE4E67508C76FF082E5C1466B130 DUP2 SWAP1 SSTORE ISZERO DUP1 ISZERO SWAP1 PUSH2 0xC56 JUMPI POP PUSH32 0x255F4A56BD3AD76424E31ED8855EF9AD14A0CE4E67508C76FF082E5C1466B12F SLOAD PUSH32 0x255F4A56BD3AD76424E31ED8855EF9AD14A0CE4E67508C76FF082E5C1466B130 SLOAD LT ISZERO JUMPDEST PUSH2 0xCBC JUMPI PUSH1 0x40 MLOAD PUSH32 0x8C379A000000000000000000000000000000000000000000000000000000000 DUP2 MSTORE PUSH1 0x20 PUSH1 0x4 DUP3 ADD MSTORE PUSH1 0x1D PUSH1 0x24 DUP3 ADD MSTORE PUSH32 0x5468726573686F6C6420776F756C6420626520696D706F737369626C65000000 PUSH1 0x44 DUP3 ADD MSTORE PUSH1 0x64 ADD PUSH2 0x32B JUMP JUMPDEST POP POP POP POP PUSH20 0xFFFFFFFFFFFFFFFFFFFFFFFFFFFFFFFFFFFFFFFF SWAP6 SWAP1 SWAP6 AND PUSH1 0x0 SWAP1 DUP2 MSTORE PUSH32 0x255F4A56BD3AD76424E31ED8855EF9AD14A0CE4E67508C76FF082E5C1466B131 PUSH1 0x20 MSTORE PUSH1 0x40 SWAP1 KECCAK256 SWAP4 SWAP1 SWAP4 SSTORE POP POP POP POP JUMP JUMPDEST PUSH1 0x60 DUP5 DUP5 CHAINID PUSH1 0x40 MLOAD PUSH1 0x20 ADD PUSH2 0xD27 SWAP4 SWAP3 SWAP2 SWAP1 PUSH2 0x20FC JUMP JUMPDEST PUSH1 0x40 DUP1 MLOAD PUSH32 0xFFFFFFFFFFFFFFFFFFFFFFFFFFFFFFFFFFFFFFFFFFFFFFFFFFFFFFFFFFFFFFE0 DUP2 DUP5 SUB ADD DUP2 MSTORE SWAP2 SWAP1 MSTORE DUP1 MLOAD PUSH1 0x20 SWAP1 SWAP2 ADD KECCAK256 DUP4 DUP4 PUSH1 0x0 DUP1 PUSH2 0xD70 DUP6 PUSH2 0x2E8 DUP6 DUP8 PUSH2 0x1D55 JUMP JUMPDEST SWAP2 POP SWAP2 POP DUP2 DUP2 SWAP1 PUSH2 0xDAE JUMPI PUSH1 0x40 MLOAD PUSH32 0x8C379A000000000000000000000000000000000000000000000000000000000 DUP2 MSTORE PUSH1 0x4 ADD PUSH2 0x32B SWAP2 SWAP1 PUSH2 0x19D7 JUMP JUMPDEST POP PUSH1 0x0 JUMPDEST DUP4 DUP2 LT ISZERO PUSH2 0xE69 JUMPI PUSH1 0x1 PUSH32 0x255F4A56BD3AD76424E31ED8855EF9AD14A0CE4E67508C76FF082E5C1466B132 PUSH1 0x0 DUP8 DUP8 DUP6 DUP2 DUP2 LT PUSH2 0xDF1 JUMPI PUSH2 0xDF1 PUSH2 0x1E48 JUMP JUMPDEST SWAP1 POP PUSH1 0x20 MUL DUP2 ADD SWAP1 PUSH2 0xE03 SWAP2 SWAP1 PUSH2 0x1E77 JUMP JUMPDEST PUSH1 0x40 MLOAD PUSH2 0xE11 SWAP3 SWAP2 SWAP1 PUSH2 0x1EDC JUMP JUMPDEST PUSH1 0x40 DUP1 MLOAD SWAP2 DUP3 SWAP1 SUB SWAP1 SWAP2 KECCAK256 DUP3 MSTORE PUSH1 0x20 DUP3 ADD SWAP3 SWAP1 SWAP3 MSTORE ADD PUSH1 0x0 KECCAK256 DUP1 SLOAD PUSH32 0xFFFFFFFFFFFFFFFFFFFFFFFFFFFFFFFFFFFFFFFFFFFFFFFFFFFFFFFFFFFFFF00 AND SWAP2 ISZERO ISZERO SWAP2 SWAP1 SWAP2 OR SWAP1 SSTORE DUP1 PUSH2 0xE61 DUP2 PUSH2 0x1F1B JUMP JUMPDEST SWAP2 POP POP PUSH2 0xDB2 JUMP JUMPDEST POP PUSH1 0x0 DUP10 PUSH8 0xFFFFFFFFFFFFFFFF DUP2 GT ISZERO PUSH2 0xE85 JUMPI PUSH2 0xE85 PUSH2 0x1CD7 JUMP JUMPDEST PUSH1 0x40 MLOAD SWAP1 DUP1 DUP3 MSTORE DUP1 PUSH1 0x20 MUL PUSH1 0x20 ADD DUP3 ADD PUSH1 0x40 MSTORE DUP1 ISZERO PUSH2 0xEB8 JUMPI DUP2 PUSH1 0x20 ADD JUMPDEST PUSH1 0x60 DUP2 MSTORE PUSH1 0x20 ADD SWAP1 PUSH1 0x1 SWAP1 SUB SWAP1 DUP2 PUSH2 0xEA3 JUMPI SWAP1 POP JUMPDEST POP SWAP1 POP PUSH1 0x0 JUMPDEST DUP11 DUP2 LT ISZERO PUSH2 0xF22 JUMPI PUSH2 0xEF2 DUP13 DUP13 DUP4 DUP2 DUP2 LT PUSH2 0xEDB JUMPI PUSH2 0xEDB PUSH2 0x1E48 JUMP JUMPDEST SWAP1 POP PUSH1 0x20 MUL DUP2 ADD SWAP1 PUSH2 0xEED SWAP2 SWAP1 PUSH2 0x21B1 JUMP JUMPDEST PUSH2 0x1373 JUMP JUMPDEST DUP3 DUP3 DUP2 MLOAD DUP2 LT PUSH2 0xF04 JUMPI PUSH2 0xF04 PUSH2 0x1E48 JUMP JUMPDEST PUSH1 0x20 MUL PUSH1 0x20 ADD ADD DUP2 SWAP1 MSTORE POP DUP1 DUP1 PUSH2 0xF1A SWAP1 PUSH2 0x1F1B JUMP JUMPDEST SWAP2 POP POP PUSH2 0xEBE JUMP JUMPDEST POP SWAP11 SWAP10 POP POP POP POP POP POP POP POP POP POP JUMP JUMPDEST PUSH1 0x0 PUSH32 0x7E68492C00000000000000000000000000000000000000000000000000000000 PUSH32 0xFFFFFFFF00000000000000000000000000000000000000000000000000000000 DUP4 AND ADD PUSH2 0xF84 JUMPI POP PUSH1 0x1 SWAP2 SWAP1 POP JUMP JUMPDEST PUSH32 0x1FFC9A700000000000000000000000000000000000000000000000000000000 PUSH32 0xFFFFFFFF00000000000000000000000000000000000000000000000000000000 DUP4 AND EQ PUSH2 0x282 JUMP JUMPDEST PUSH1 0x0 PUSH1 0x60 PUSH1 0x0 DUP1 JUMPDEST DUP5 MLOAD DUP2 LT ISZERO PUSH2 0x116D JUMPI PUSH1 0x0 PUSH2 0x1004 DUP8 DUP8 DUP5 DUP2 MLOAD DUP2 LT PUSH2 0xFF7 JUMPI PUSH2 0xFF7 PUSH2 0x1E48 JUMP JUMPDEST PUSH1 0x20 MUL PUSH1 0x20 ADD ADD MLOAD PUSH2 0x1498 JUMP JUMPDEST PUSH20 0xFFFFFFFFFFFFFFFFFFFFFFFFFFFFFFFFFFFFFFFF DUP2 AND PUSH1 0x0 SWAP1 DUP2 MSTORE PUSH32 0x255F4A56BD3AD76424E31ED8855EF9AD14A0CE4E67508C76FF082E5C1466B131 PUSH1 0x20 MSTORE PUSH1 0x40 DUP2 KECCAK256 SLOAD SWAP2 SWAP3 POP SUB PUSH2 0x1078 JUMPI PUSH1 0x0 PUSH1 0x40 MLOAD DUP1 PUSH1 0x60 ADD PUSH1 0x40 MSTORE DUP1 PUSH1 0x32 DUP2 MSTORE PUSH1 0x20 ADD PUSH2 0x2245 PUSH1 0x32 SWAP2 CODECOPY SWAP5 POP SWAP5 POP POP POP POP PUSH2 0x11D2 JUMP JUMPDEST PUSH1 0x0 DUP7 DUP4 DUP2 MLOAD DUP2 LT PUSH2 0x108C JUMPI PUSH2 0x108C PUSH2 0x1E48 JUMP JUMPDEST PUSH1 0x20 MUL PUSH1 0x20 ADD ADD MLOAD DUP1 MLOAD SWAP1 PUSH1 0x20 ADD KECCAK256 SWAP1 POP PUSH2 0x10C4 PUSH32 0x255F4A56BD3AD76424E31ED8855EF9AD14A0CE4E67508C76FF082E5C1466B12F SWAP1 JUMP JUMPDEST PUSH1 0x0 DUP3 DUP2 MSTORE PUSH1 0x3 SWAP2 SWAP1 SWAP2 ADD PUSH1 0x20 MSTORE PUSH1 0x40 SWAP1 KECCAK256 SLOAD PUSH1 0xFF AND ISZERO PUSH2 0x1107 JUMPI PUSH1 0x0 PUSH1 0x40 MLOAD DUP1 PUSH1 0x60 ADD PUSH1 0x40 MSTORE DUP1 PUSH1 0x23 DUP2 MSTORE PUSH1 0x20 ADD PUSH2 0x2277 PUSH1 0x23 SWAP2 CODECOPY SWAP6 POP SWAP6 POP POP POP POP POP PUSH2 0x11D2 JUMP JUMPDEST PUSH20 0xFFFFFFFFFFFFFFFFFFFFFFFFFFFFFFFFFFFFFFFF DUP3 AND PUSH1 0x0 SWAP1 DUP2 MSTORE PUSH32 0x255F4A56BD3AD76424E31ED8855EF9AD14A0CE4E67508C76FF082E5C1466B131 PUSH1 0x20 MSTORE PUSH1 0x40 SWAP1 KECCAK256 SLOAD PUSH2 0x1156 SWAP1 DUP6 PUSH2 0x20E9 JUMP JUMPDEST SWAP4 POP POP POP DUP1 DUP1 PUSH2 0x1165 SWAP1 PUSH2 0x1F1B JUMP JUMPDEST SWAP2 POP POP PUSH2 0xFD6 JUMP JUMPDEST POP PUSH32 0x255F4A56BD3AD76424E31ED8855EF9AD14A0CE4E67508C76FF082E5C1466B12F SLOAD DUP2 LT ISZERO PUSH2 0x11BC JUMPI PUSH1 0x0 PUSH1 0x40 MLOAD DUP1 PUSH1 0x60 ADD PUSH1 0x40 MSTORE DUP1 PUSH1 0x26 DUP2 MSTORE PUSH1 0x20 ADD PUSH2 0x221F PUSH1 0x26 SWAP2 CODECOPY SWAP3 POP SWAP3 POP POP PUSH2 0x11D2 JUMP JUMPDEST POP POP PUSH1 0x40 DUP1 MLOAD PUSH1 0x20 DUP2 ADD SWAP1 SWAP2 MSTORE PUSH1 0x0 DUP2 MSTORE PUSH1 0x1 SWAP2 POP JUMPDEST SWAP3 POP SWAP3 SWAP1 POP JUMP JUMPDEST PUSH20 0xFFFFFFFFFFFFFFFFFFFFFFFFFFFFFFFFFFFFFFFF DUP2 AND PUSH1 0x0 SWAP1 DUP2 MSTORE PUSH32 0x255F4A56BD3AD76424E31ED8855EF9AD14A0CE4E67508C76FF082E5C1466B131 PUSH1 0x20 MSTORE PUSH1 0x40 DUP2 KECCAK256 SLOAD PUSH32 0x255F4A56BD3AD76424E31ED8855EF9AD14A0CE4E67508C76FF082E5C1466B130 DUP1 SLOAD SWAP2 SWAP3 SWAP1 SWAP2 PUSH2 0x1250 SWAP1 DUP5 SWAP1 PUSH2 0x20D6 JUMP JUMPDEST SWAP1 SWAP2 SSTORE POP POP PUSH32 0x255F4A56BD3AD76424E31ED8855EF9AD14A0CE4E67508C76FF082E5C1466B130 SLOAD ISZERO DUP1 ISZERO SWAP1 PUSH2 0x12C7 JUMPI POP PUSH32 0x255F4A56BD3AD76424E31ED8855EF9AD14A0CE4E67508C76FF082E5C1466B12F SLOAD PUSH32 0x255F4A56BD3AD76424E31ED8855EF9AD14A0CE4E67508C76FF082E5C1466B130 SLOAD LT ISZERO JUMPDEST PUSH2 0x132D JUMPI PUSH1 0x40 MLOAD PUSH32 0x8C379A000000000000000000000000000000000000000000000000000000000 DUP2 MSTORE PUSH1 0x20 PUSH1 0x4 DUP3 ADD MSTORE PUSH1 0x1D PUSH1 0x24 DUP3 ADD MSTORE PUSH32 0x5468726573686F6C6420776F756C6420626520696D706F737369626C65000000 PUSH1 0x44 DUP3 ADD MSTORE PUSH1 0x64 ADD PUSH2 0x32B JUMP JUMPDEST PUSH20 0xFFFFFFFFFFFFFFFFFFFFFFFFFFFFFFFFFFFFFFFF AND PUSH1 0x0 SWAP1 DUP2 MSTORE PUSH32 0x255F4A56BD3AD76424E31ED8855EF9AD14A0CE4E67508C76FF082E5C1466B131 PUSH1 0x20 MSTORE PUSH1 0x40 DUP2 KECCAK256 SSTORE JUMP JUMPDEST PUSH1 0x60 PUSH1 0x0 DUP1 PUSH2 0x1385 PUSH1 0x20 DUP6 ADD DUP6 PUSH2 0x1C41 JUMP JUMPDEST PUSH20 0xFFFFFFFFFFFFFFFFFFFFFFFFFFFFFFFFFFFFFFFF AND PUSH1 0x20 DUP6 ADD CALLDATALOAD PUSH2 0x13AD PUSH1 0x60 DUP8 ADD DUP8 PUSH2 0x1E77 JUMP JUMPDEST PUSH1 0x40 MLOAD PUSH2 0x13BB SWAP3 SWAP2 SWAP1 PUSH2 0x1EDC JUMP JUMPDEST PUSH1 0x0 PUSH1 0x40 MLOAD DUP1 DUP4 SUB DUP2 DUP6 DUP8 GAS CALL SWAP3 POP POP POP RETURNDATASIZE DUP1 PUSH1 0x0 DUP2 EQ PUSH2 0x13F8 JUMPI PUSH1 0x40 MLOAD SWAP2 POP PUSH1 0x1F NOT PUSH1 0x3F RETURNDATASIZE ADD AND DUP3 ADD PUSH1 0x40 MSTORE RETURNDATASIZE DUP3 MSTORE RETURNDATASIZE PUSH1 0x0 PUSH1 0x20 DUP5 ADD RETURNDATACOPY PUSH2 0x13FD JUMP JUMPDEST PUSH1 0x60 SWAP2 POP JUMPDEST POP SWAP2 POP SWAP2 POP DUP2 PUSH2 0x140F JUMPI DUP1 MLOAD PUSH1 0x20 DUP3 ADD REVERT JUMPDEST SWAP4 SWAP3 POP POP POP JUMP JUMPDEST DUP1 PUSH32 0x255F4A56BD3AD76424E31ED8855EF9AD14A0CE4E67508C76FF082E5C1466B12F PUSH1 0x1 ADD PUSH1 0x0 DUP3 DUP3 SLOAD PUSH2 0x144A SWAP2 SWAP1 PUSH2 0x20E9 JUMP JUMPDEST SWAP1 SWAP2 SSTORE POP POP PUSH20 0xFFFFFFFFFFFFFFFFFFFFFFFFFFFFFFFFFFFFFFFF SWAP2 SWAP1 SWAP2 AND PUSH1 0x0 SWAP1 DUP2 MSTORE PUSH32 0x255F4A56BD3AD76424E31ED8855EF9AD14A0CE4E67508C76FF082E5C1466B131 PUSH1 0x20 MSTORE PUSH1 0x40 SWAP1 KECCAK256 SSTORE JUMP JUMPDEST PUSH1 0x0 PUSH2 0x140F DUP3 PUSH2 0x14F5 DUP6 PUSH1 0x40 MLOAD PUSH32 0x19457468657265756D205369676E6564204D6573736167653A0A333200000000 PUSH1 0x20 DUP3 ADD MSTORE PUSH1 0x3C DUP2 ADD DUP3 SWAP1 MSTORE PUSH1 0x0 SWAP1 PUSH1 0x5C ADD PUSH1 0x40 MLOAD PUSH1 0x20 DUP2 DUP4 SUB SUB DUP2 MSTORE SWAP1 PUSH1 0x40 MSTORE DUP1 MLOAD SWAP1 PUSH1 0x20 ADD KECCAK256 SWAP1 POP SWAP2 SWAP1 POP JUMP JUMPDEST SWAP1 PUSH1 0x0 DUP1 PUSH1 0x0 PUSH2 0x1505 DUP6 DUP6 PUSH2 0x151A JUMP JUMPDEST SWAP2 POP SWAP2 POP PUSH2 0x1512 DUP2 PUSH2 0x155C JUMP JUMPDEST POP SWAP4 SWAP3 POP POP POP JUMP JUMPDEST PUSH1 0x0 DUP1 DUP3 MLOAD PUSH1 0x41 SUB PUSH2 0x1550 JUMPI PUSH1 0x20 DUP4 ADD MLOAD PUSH1 0x40 DUP5 ADD MLOAD PUSH1 0x60 DUP6 ADD MLOAD PUSH1 0x0 BYTE PUSH2 0x1544 DUP8 DUP3 DUP6 DUP6 PUSH2 0x1712 JUMP JUMPDEST SWAP5 POP SWAP5 POP POP POP POP PUSH2 0x11D2 JUMP JUMPDEST POP PUSH1 0x0 SWAP1 POP PUSH1 0x2 PUSH2 0x11D2 JUMP JUMPDEST PUSH1 0x0 DUP2 PUSH1 0x4 DUP2 GT ISZERO PUSH2 0x1570 JUMPI PUSH2 0x1570 PUSH2 0x21EF JUMP JUMPDEST SUB PUSH2 0x1578 JUMPI POP JUMP JUMPDEST PUSH1 0x1 DUP2 PUSH1 0x4 DUP2 GT ISZERO PUSH2 0x158C JUMPI PUSH2 0x158C PUSH2 0x21EF JUMP JUMPDEST SUB PUSH2 0x15F3 JUMPI PUSH1 0x40 MLOAD PUSH32 0x8C379A000000000000000000000000000000000000000000000000000000000 DUP2 MSTORE PUSH1 0x20 PUSH1 0x4 DUP3 ADD MSTORE PUSH1 0x18 PUSH1 0x24 DUP3 ADD MSTORE PUSH32 0x45434453413A20696E76616C6964207369676E61747572650000000000000000 PUSH1 0x44 DUP3 ADD MSTORE PUSH1 0x64 ADD PUSH2 0x32B JUMP JUMPDEST PUSH1 0x2 DUP2 PUSH1 0x4 DUP2 GT ISZERO PUSH2 0x1607 JUMPI PUSH2 0x1607 PUSH2 0x21EF JUMP JUMPDEST SUB PUSH2 0x166E JUMPI PUSH1 0x40 MLOAD PUSH32 0x8C379A000000000000000000000000000000000000000000000000000000000 DUP2 MSTORE PUSH1 0x20 PUSH1 0x4 DUP3 ADD MSTORE PUSH1 0x1F PUSH1 0x24 DUP3 ADD MSTORE PUSH32 0x45434453413A20696E76616C6964207369676E6174757265206C656E67746800 PUSH1 0x44 DUP3 ADD MSTORE PUSH1 0x64 ADD PUSH2 0x32B JUMP JUMPDEST PUSH1 0x3 DUP2 PUSH1 0x4 DUP2 GT ISZERO PUSH2 0x1682 JUMPI PUSH2 0x1682 PUSH2 0x21EF JUMP JUMPDEST SUB PUSH2 0x170F JUMPI PUSH1 0x40 MLOAD PUSH32 0x8C379A000000000000000000000000000000000000000000000000000000000 DUP2 MSTORE PUSH1 0x20 PUSH1 0x4 DUP3 ADD MSTORE PUSH1 0x22 PUSH1 0x24 DUP3 ADD MSTORE PUSH32 0x45434453413A20696E76616C6964207369676E6174757265202773272076616C PUSH1 0x44 DUP3 ADD MSTORE PUSH32 0x7565000000000000000000000000000000000000000000000000000000000000 PUSH1 0x64 DUP3 ADD MSTORE PUSH1 0x84 ADD PUSH2 0x32B JUMP JUMPDEST POP JUMP JUMPDEST PUSH1 0x0 DUP1 PUSH32 0x7FFFFFFFFFFFFFFFFFFFFFFFFFFFFFFF5D576E7357A4501DDFE92F46681B20A0 DUP4 GT ISZERO PUSH2 0x1749 JUMPI POP PUSH1 0x0 SWAP1 POP PUSH1 0x3 PUSH2 0x17F8 JUMP JUMPDEST PUSH1 0x40 DUP1 MLOAD PUSH1 0x0 DUP1 DUP3 MSTORE PUSH1 0x20 DUP3 ADD DUP1 DUP5 MSTORE DUP10 SWAP1 MSTORE PUSH1 0xFF DUP9 AND SWAP3 DUP3 ADD SWAP3 SWAP1 SWAP3 MSTORE PUSH1 0x60 DUP2 ADD DUP7 SWAP1 MSTORE PUSH1 0x80 DUP2 ADD DUP6 SWAP1 MSTORE PUSH1 0x1 SWAP1 PUSH1 0xA0 ADD PUSH1 0x20 PUSH1 0x40 MLOAD PUSH1 0x20 DUP2 SUB SWAP1 DUP1 DUP5 SUB SWAP1 DUP6 GAS STATICCALL ISZERO DUP1 ISZERO PUSH2 0x179D JUMPI RETURNDATASIZE PUSH1 0x0 DUP1 RETURNDATACOPY RETURNDATASIZE PUSH1 0x0 REVERT JUMPDEST POP POP PUSH1 0x40 MLOAD PUSH32 0xFFFFFFFFFFFFFFFFFFFFFFFFFFFFFFFFFFFFFFFFFFFFFFFFFFFFFFFFFFFFFFE0 ADD MLOAD SWAP2 POP POP PUSH20 0xFFFFFFFFFFFFFFFFFFFFFFFFFFFFFFFFFFFFFFFF DUP2 AND PUSH2 0x17F1 JUMPI PUSH1 0x0 PUSH1 0x1 SWAP3 POP SWAP3 POP POP PUSH2 0x17F8 JUMP JUMPDEST SWAP2 POP PUSH1 0x0 SWAP1 POP JUMPDEST SWAP5 POP SWAP5 SWAP3 POP POP POP JUMP JUMPDEST PUSH1 0x0 PUSH1 0x20 DUP3 DUP5 SUB SLT ISZERO PUSH2 0x1813 JUMPI PUSH1 0x0 DUP1 REVERT JUMPDEST DUP2 CALLDATALOAD PUSH32 0xFFFFFFFF00000000000000000000000000000000000000000000000000000000 DUP2 AND DUP2 EQ PUSH2 0x140F JUMPI PUSH1 0x0 DUP1 REVERT JUMPDEST PUSH1 0x0 DUP1 DUP4 PUSH1 0x1F DUP5 ADD SLT PUSH2 0x1855 JUMPI PUSH1 0x0 DUP1 REVERT JUMPDEST POP DUP2 CALLDATALOAD PUSH8 0xFFFFFFFFFFFFFFFF DUP2 GT ISZERO PUSH2 0x186D JUMPI PUSH1 0x0 DUP1 REVERT JUMPDEST PUSH1 0x20 DUP4 ADD SWAP2 POP DUP4 PUSH1 0x20 DUP3 PUSH1 0x5 SHL DUP6 ADD ADD GT ISZERO PUSH2 0x11D2 JUMPI PUSH1 0x0 DUP1 REVERT JUMPDEST PUSH1 0x0 DUP1 PUSH1 0x0 DUP1 PUSH1 0x0 PUSH1 0x60 DUP7 DUP9 SUB SLT ISZERO PUSH2 0x18A0 JUMPI PUSH1 0x0 DUP1 REVERT JUMPDEST DUP6 CALLDATALOAD PUSH8 0xFFFFFFFFFFFFFFFF DUP1 DUP3 GT ISZERO PUSH2 0x18B8 JUMPI PUSH1 0x0 DUP1 REVERT JUMPDEST PUSH2 0x18C4 DUP10 DUP4 DUP11 ADD PUSH2 0x1843 JUMP JUMPDEST SWAP1 SWAP8 POP SWAP6 POP PUSH1 0x20 DUP9 ADD CALLDATALOAD SWAP5 POP PUSH1 0x40 DUP9 ADD CALLDATALOAD SWAP2 POP DUP1 DUP3 GT ISZERO PUSH2 0x18E4 JUMPI PUSH1 0x0 DUP1 REVERT JUMPDEST POP PUSH2 0x18F1 DUP9 DUP3 DUP10 ADD PUSH2 0x1843 JUMP JUMPDEST SWAP7 SWAP10 SWAP6 SWAP9 POP SWAP4 SWAP7 POP SWAP3 SWAP5 SWAP4 SWAP3 POP POP POP JUMP JUMPDEST PUSH1 0x0 DUP1 PUSH1 0x0 PUSH1 0x40 DUP5 DUP7 SUB SLT ISZERO PUSH2 0x1917 JUMPI PUSH1 0x0 DUP1 REVERT JUMPDEST DUP4 CALLDATALOAD PUSH8 0xFFFFFFFFFFFFFFFF DUP1 DUP3 GT ISZERO PUSH2 0x192F JUMPI PUSH1 0x0 DUP1 REVERT JUMPDEST SWAP1 DUP6 ADD SWAP1 PUSH1 0x80 DUP3 DUP9 SUB SLT ISZERO PUSH2 0x1943 JUMPI PUSH1 0x0 DUP1 REVERT JUMPDEST SWAP1 SWAP4 POP PUSH1 0x20 DUP6 ADD CALLDATALOAD SWAP1 DUP1 DUP3 GT ISZERO PUSH2 0x1959 JUMPI PUSH1 0x0 DUP1 REVERT JUMPDEST POP PUSH2 0x1966 DUP7 DUP3 DUP8 ADD PUSH2 0x1843 JUMP JUMPDEST SWAP5 SWAP8 SWAP1 SWAP7 POP SWAP4 SWAP5 POP POP POP POP JUMP JUMPDEST PUSH1 0x0 DUP2 MLOAD DUP1 DUP5 MSTORE PUSH1 0x0 JUMPDEST DUP2 DUP2 LT ISZERO PUSH2 0x1999 JUMPI PUSH1 0x20 DUP2 DUP6 ADD DUP2 ADD MLOAD DUP7 DUP4 ADD DUP3 ADD MSTORE ADD PUSH2 0x197D JUMP JUMPDEST POP PUSH1 0x0 PUSH1 0x20 DUP3 DUP7 ADD ADD MSTORE PUSH1 0x20 PUSH32 0xFFFFFFFFFFFFFFFFFFFFFFFFFFFFFFFFFFFFFFFFFFFFFFFFFFFFFFFFFFFFFFE0 PUSH1 0x1F DUP4 ADD AND DUP6 ADD ADD SWAP2 POP POP SWAP3 SWAP2 POP POP JUMP JUMPDEST PUSH1 0x20 DUP2 MSTORE PUSH1 0x0 PUSH2 0x140F PUSH1 0x20 DUP4 ADD DUP5 PUSH2 0x1973 JUMP JUMPDEST PUSH1 0x0 DUP1 PUSH1 0x0 DUP1 PUSH1 0x60 DUP6 DUP8 SUB SLT ISZERO PUSH2 0x1A00 JUMPI PUSH1 0x0 DUP1 REVERT JUMPDEST DUP5 CALLDATALOAD SWAP4 POP PUSH1 0x20 DUP6 ADD CALLDATALOAD SWAP3 POP PUSH1 0x40 DUP6 ADD CALLDATALOAD PUSH8 0xFFFFFFFFFFFFFFFF DUP2 GT ISZERO PUSH2 0x1A25 JUMPI PUSH1 0x0 DUP1 REVERT JUMPDEST PUSH2 0x1A31 DUP8 DUP3 DUP9 ADD PUSH2 0x1843 JUMP JUMPDEST SWAP6 SWAP9 SWAP5 SWAP8 POP SWAP6 POP POP POP POP JUMP JUMPDEST PUSH1 0x0 DUP1 PUSH1 0x0 DUP1 PUSH1 0x0 DUP1 PUSH1 0x0 PUSH1 0x80 DUP9 DUP11 SUB SLT ISZERO PUSH2 0x1A58 JUMPI PUSH1 0x0 DUP1 REVERT JUMPDEST DUP8 CALLDATALOAD PUSH8 0xFFFFFFFFFFFFFFFF DUP1 DUP3 GT ISZERO PUSH2 0x1A70 JUMPI PUSH1 0x0 DUP1 REVERT JUMPDEST PUSH2 0x1A7C DUP12 DUP4 DUP13 ADD PUSH2 0x1843 JUMP JUMPDEST SWAP1 SWAP10 POP SWAP8 POP PUSH1 0x20 DUP11 ADD CALLDATALOAD SWAP2 POP DUP1 DUP3 GT ISZERO PUSH2 0x1A95 JUMPI PUSH1 0x0 DUP1 REVERT JUMPDEST PUSH2 0x1AA1 DUP12 DUP4 DUP13 ADD PUSH2 0x1843 JUMP JUMPDEST SWAP1 SWAP8 POP SWAP6 POP PUSH1 0x40 DUP11 ADD CALLDATALOAD SWAP5 POP PUSH1 0x60 DUP11 ADD CALLDATALOAD SWAP2 POP DUP1 DUP3 GT ISZERO PUSH2 0x1AC1 JUMPI PUSH1 0x0 DUP1 REVERT JUMPDEST POP PUSH2 0x1ACE DUP11 DUP3 DUP12 ADD PUSH2 0x1843 JUMP JUMPDEST SWAP9 SWAP12 SWAP8 SWAP11 POP SWAP6 SWAP9 POP SWAP4 SWAP7 SWAP3 SWAP6 SWAP3 SWAP4 POP POP POP JUMP JUMPDEST DUP1 CALLDATALOAD PUSH20 0xFFFFFFFFFFFFFFFFFFFFFFFFFFFFFFFFFFFFFFFF DUP2 AND DUP2 EQ PUSH2 0x1B05 JUMPI PUSH1 0x0 DUP1 REVERT JUMPDEST SWAP2 SWAP1 POP JUMP JUMPDEST PUSH1 0x0 DUP1 PUSH1 0x0 DUP1 PUSH1 0x0 PUSH1 0x80 DUP7 DUP9 SUB SLT ISZERO PUSH2 0x1B22 JUMPI PUSH1 0x0 DUP1 REVERT JUMPDEST PUSH2 0x1B2B DUP7 PUSH2 0x1AE1 JUMP JUMPDEST SWAP5 POP PUSH1 0x20 DUP7 ADD CALLDATALOAD SWAP4 POP PUSH1 0x40 DUP7 ADD CALLDATALOAD SWAP3 POP PUSH1 0x60 DUP7 ADD CALLDATALOAD PUSH8 0xFFFFFFFFFFFFFFFF DUP2 GT ISZERO PUSH2 0x1B55 JUMPI PUSH1 0x0 DUP1 REVERT JUMPDEST PUSH2 0x18F1 DUP9 DUP3 DUP10 ADD PUSH2 0x1843 JUMP JUMPDEST PUSH1 0x0 DUP1 PUSH1 0x0 DUP1 PUSH1 0x40 DUP6 DUP8 SUB SLT ISZERO PUSH2 0x1B77 JUMPI PUSH1 0x0 DUP1 REVERT JUMPDEST DUP5 CALLDATALOAD PUSH8 0xFFFFFFFFFFFFFFFF DUP1 DUP3 GT ISZERO PUSH2 0x1B8F JUMPI PUSH1 0x0 DUP1 REVERT JUMPDEST PUSH2 0x1B9B DUP9 DUP4 DUP10 ADD PUSH2 0x1843 JUMP JUMPDEST SWAP1 SWAP7 POP SWAP5 POP PUSH1 0x20 DUP8 ADD CALLDATALOAD SWAP2 POP DUP1 DUP3 GT ISZERO PUSH2 0x1BB4 JUMPI PUSH1 0x0 DUP1 REVERT JUMPDEST POP PUSH2 0x1A31 DUP8 DUP3 DUP9 ADD PUSH2 0x1843 JUMP JUMPDEST PUSH1 0x0 PUSH1 0x20 DUP1 DUP4 ADD DUP2 DUP5 MSTORE DUP1 DUP6 MLOAD DUP1 DUP4 MSTORE PUSH1 0x40 DUP7 ADD SWAP2 POP PUSH1 0x40 DUP2 PUSH1 0x5 SHL DUP8 ADD ADD SWAP3 POP DUP4 DUP8 ADD PUSH1 0x0 JUMPDEST DUP3 DUP2 LT ISZERO PUSH2 0x1C34 JUMPI PUSH32 0xFFFFFFFFFFFFFFFFFFFFFFFFFFFFFFFFFFFFFFFFFFFFFFFFFFFFFFFFFFFFFFC0 DUP9 DUP7 SUB ADD DUP5 MSTORE PUSH2 0x1C22 DUP6 DUP4 MLOAD PUSH2 0x1973 JUMP JUMPDEST SWAP5 POP SWAP3 DUP6 ADD SWAP3 SWAP1 DUP6 ADD SWAP1 PUSH1 0x1 ADD PUSH2 0x1BE8 JUMP JUMPDEST POP SWAP3 SWAP8 SWAP7 POP POP POP POP POP POP POP JUMP JUMPDEST PUSH1 0x0 PUSH1 0x20 DUP3 DUP5 SUB SLT ISZERO PUSH2 0x1C53 JUMPI PUSH1 0x0 DUP1 REVERT JUMPDEST PUSH2 0x140F DUP3 PUSH2 0x1AE1 JUMP JUMPDEST DUP2 DUP4 MSTORE PUSH1 0x0 PUSH1 0x20 DUP1 DUP6 ADD SWAP5 POP DUP3 PUSH1 0x0 JUMPDEST DUP6 DUP2 LT ISZERO PUSH2 0x1CA5 JUMPI PUSH20 0xFFFFFFFFFFFFFFFFFFFFFFFFFFFFFFFFFFFFFFFF PUSH2 0x1C92 DUP4 PUSH2 0x1AE1 JUMP JUMPDEST AND DUP8 MSTORE SWAP6 DUP3 ADD SWAP6 SWAP1 DUP3 ADD SWAP1 PUSH1 0x1 ADD PUSH2 0x1C6C JUMP JUMPDEST POP SWAP5 SWAP6 SWAP5 POP POP POP POP POP JUMP JUMPDEST PUSH1 0x60 DUP2 MSTORE PUSH1 0x0 PUSH2 0x1CC4 PUSH1 0x60 DUP4 ADD DUP7 DUP9 PUSH2 0x1C5C JUMP JUMPDEST PUSH1 0x20 DUP4 ADD SWAP5 SWAP1 SWAP5 MSTORE POP PUSH1 0x40 ADD MSTORE SWAP3 SWAP2 POP POP JUMP JUMPDEST PUSH32 0x4E487B7100000000000000000000000000000000000000000000000000000000 PUSH1 0x0 MSTORE PUSH1 0x41 PUSH1 0x4 MSTORE PUSH1 0x24 PUSH1 0x0 REVERT JUMPDEST PUSH1 0x40 MLOAD PUSH1 0x1F DUP3 ADD PUSH32 0xFFFFFFFFFFFFFFFFFFFFFFFFFFFFFFFFFFFFFFFFFFFFFFFFFFFFFFFFFFFFFFE0 AND DUP2 ADD PUSH8 0xFFFFFFFFFFFFFFFF DUP2 GT DUP3 DUP3 LT OR ISZERO PUSH2 0x1D4D JUMPI PUSH2 0x1D4D PUSH2 0x1CD7 JUMP JUMPDEST PUSH1 0x40 MSTORE SWAP2 SWAP1 POP JUMP JUMPDEST PUSH1 0x0 PUSH8 0xFFFFFFFFFFFFFFFF DUP1 DUP5 GT ISZERO PUSH2 0x1D70 JUMPI PUSH2 0x1D70 PUSH2 0x1CD7 JUMP JUMPDEST DUP4 PUSH1 0x5 SHL PUSH1 0x20 PUSH2 0x1D81 DUP2 DUP4 ADD PUSH2 0x1D06 JUMP JUMPDEST DUP7 DUP2 MSTORE SWAP2 DUP6 ADD SWAP2 DUP2 DUP2 ADD SWAP1 CALLDATASIZE DUP5 GT ISZERO PUSH2 0x1D99 JUMPI PUSH1 0x0 DUP1 REVERT JUMPDEST DUP7 JUMPDEST DUP5 DUP2 LT ISZERO PUSH2 0x1E3C JUMPI DUP1 CALLDATALOAD DUP7 DUP2 GT ISZERO PUSH2 0x1DB3 JUMPI PUSH1 0x0 DUP1 DUP2 REVERT JUMPDEST DUP9 ADD PUSH1 0x1F CALLDATASIZE DUP2 DUP4 ADD SLT PUSH2 0x1DC6 JUMPI PUSH1 0x0 DUP1 DUP2 REVERT JUMPDEST DUP2 CALLDATALOAD DUP9 DUP2 GT ISZERO PUSH2 0x1DD8 JUMPI PUSH2 0x1DD8 PUSH2 0x1CD7 JUMP JUMPDEST PUSH2 0x1E07 DUP8 PUSH32 0xFFFFFFFFFFFFFFFFFFFFFFFFFFFFFFFFFFFFFFFFFFFFFFFFFFFFFFFFFFFFFFE0 DUP5 DUP5 ADD AND ADD PUSH2 0x1D06 JUMP JUMPDEST SWAP2 POP DUP1 DUP3 MSTORE CALLDATASIZE DUP8 DUP3 DUP6 ADD ADD GT ISZERO PUSH2 0x1E1E JUMPI PUSH1 0x0 DUP1 DUP2 REVERT JUMPDEST DUP1 DUP8 DUP5 ADD DUP9 DUP5 ADD CALLDATACOPY PUSH1 0x0 SWAP1 DUP3 ADD DUP8 ADD MSTORE DUP5 MSTORE POP SWAP2 DUP4 ADD SWAP2 DUP4 ADD PUSH2 0x1D9B JUMP JUMPDEST POP SWAP8 SWAP7 POP POP POP POP POP POP POP JUMP JUMPDEST PUSH32 0x4E487B7100000000000000000000000000000000000000000000000000000000 PUSH1 0x0 MSTORE PUSH1 0x32 PUSH1 0x4 MSTORE PUSH1 0x24 PUSH1 0x0 REVERT JUMPDEST PUSH1 0x0 DUP1 DUP4 CALLDATALOAD PUSH32 0xFFFFFFFFFFFFFFFFFFFFFFFFFFFFFFFFFFFFFFFFFFFFFFFFFFFFFFFFFFFFFFE1 DUP5 CALLDATASIZE SUB ADD DUP2 SLT PUSH2 0x1EAC JUMPI PUSH1 0x0 DUP1 REVERT JUMPDEST DUP4 ADD DUP1 CALLDATALOAD SWAP2 POP PUSH8 0xFFFFFFFFFFFFFFFF DUP3 GT ISZERO PUSH2 0x1EC7 JUMPI PUSH1 0x0 DUP1 REVERT JUMPDEST PUSH1 0x20 ADD SWAP2 POP CALLDATASIZE DUP2 SWAP1 SUB DUP3 SGT ISZERO PUSH2 0x11D2 JUMPI PUSH1 0x0 DUP1 REVERT JUMPDEST DUP2 DUP4 DUP3 CALLDATACOPY PUSH1 0x0 SWAP2 ADD SWAP1 DUP2 MSTORE SWAP2 SWAP1 POP JUMP JUMPDEST PUSH32 0x4E487B7100000000000000000000000000000000000000000000000000000000 PUSH1 0x0 MSTORE PUSH1 0x11 PUSH1 0x4 MSTORE PUSH1 0x24 PUSH1 0x0 REVERT JUMPDEST PUSH1 0x0 PUSH32 0xFFFFFFFFFFFFFFFFFFFFFFFFFFFFFFFFFFFFFFFFFFFFFFFFFFFFFFFFFFFFFFFF DUP3 SUB PUSH2 0x1F4C JUMPI PUSH2 0x1F4C PUSH2 0x1EEC JUMP JUMPDEST POP PUSH1 0x1 ADD SWAP1 JUMP JUMPDEST PUSH20 0xFFFFFFFFFFFFFFFFFFFFFFFFFFFFFFFFFFFFFFFF PUSH2 0x1F71 DUP3 PUSH2 0x1AE1 JUMP JUMPDEST AND DUP3 MSTORE PUSH1 0x20 DUP2 ADD CALLDATALOAD PUSH1 0x20 DUP4 ADD MSTORE PUSH1 0x40 DUP2 ADD CALLDATALOAD PUSH1 0x40 DUP4 ADD MSTORE PUSH1 0x0 PUSH1 0x60 DUP3 ADD CALLDATALOAD PUSH32 0xFFFFFFFFFFFFFFFFFFFFFFFFFFFFFFFFFFFFFFFFFFFFFFFFFFFFFFFFFFFFFFE1 DUP4 CALLDATASIZE SUB ADD DUP2 SLT PUSH2 0x1FBF JUMPI PUSH1 0x0 DUP1 REVERT JUMPDEST DUP3 ADD PUSH1 0x20 DUP2 ADD SWAP1 CALLDATALOAD PUSH8 0xFFFFFFFFFFFFFFFF DUP2 GT ISZERO PUSH2 0x1FDC JUMPI PUSH1 0x0 DUP1 REVERT JUMPDEST DUP1 CALLDATASIZE SUB DUP3 SGT ISZERO PUSH2 0x1FEB JUMPI PUSH1 0x0 DUP1 REVERT JUMPDEST PUSH1 0x80 PUSH1 0x60 DUP7 ADD MSTORE DUP1 PUSH1 0x80 DUP7 ADD MSTORE DUP1 DUP3 PUSH1 0xA0 DUP8 ADD CALLDATACOPY PUSH1 0x0 PUSH1 0xA0 DUP3 DUP8 ADD ADD MSTORE PUSH1 0xA0 PUSH32 0xFFFFFFFFFFFFFFFFFFFFFFFFFFFFFFFFFFFFFFFFFFFFFFFFFFFFFFFFFFFFFFE0 PUSH1 0x1F DUP4 ADD AND DUP7 ADD ADD SWAP3 POP POP POP SWAP3 SWAP2 POP POP JUMP JUMPDEST PUSH1 0x40 DUP2 MSTORE PUSH1 0x0 PUSH2 0x2050 PUSH1 0x40 DUP4 ADD DUP6 PUSH2 0x1F53 JUMP JUMPDEST SWAP1 POP DUP3 PUSH1 0x20 DUP4 ADD MSTORE SWAP4 SWAP3 POP POP POP JUMP JUMPDEST PUSH1 0x80 DUP2 MSTORE PUSH1 0x0 PUSH2 0x2073 PUSH1 0x80 DUP4 ADD DUP9 DUP11 PUSH2 0x1C5C JUMP JUMPDEST DUP3 DUP2 SUB PUSH1 0x20 DUP5 ADD MSTORE DUP6 DUP2 MSTORE PUSH32 0x7FFFFFFFFFFFFFFFFFFFFFFFFFFFFFFFFFFFFFFFFFFFFFFFFFFFFFFFFFFFFFF DUP7 GT ISZERO PUSH2 0x20AB JUMPI PUSH1 0x0 DUP1 REVERT JUMPDEST DUP6 PUSH1 0x5 SHL DUP1 DUP9 PUSH1 0x20 DUP5 ADD CALLDATACOPY PUSH1 0x40 DUP5 ADD SWAP6 SWAP1 SWAP6 MSTORE PUSH1 0x60 SWAP1 SWAP3 ADD SWAP3 SWAP1 SWAP3 MSTORE SWAP1 SWAP2 ADD PUSH1 0x20 ADD SWAP6 SWAP5 POP POP POP POP POP JUMP JUMPDEST DUP2 DUP2 SUB DUP2 DUP2 GT ISZERO PUSH2 0x282 JUMPI PUSH2 0x282 PUSH2 0x1EEC JUMP JUMPDEST DUP1 DUP3 ADD DUP1 DUP3 GT ISZERO PUSH2 0x282 JUMPI PUSH2 0x282 PUSH2 0x1EEC JUMP JUMPDEST PUSH1 0x40 DUP1 DUP3 MSTORE DUP2 ADD DUP4 SWAP1 MSTORE PUSH1 0x0 PUSH1 0x60 PUSH1 0x5 DUP6 SWAP1 SHL DUP4 ADD DUP2 ADD SWAP1 DUP4 ADD DUP7 DUP4 DUP1 JUMPDEST DUP9 DUP2 LT ISZERO PUSH2 0x219C JUMPI PUSH32 0xFFFFFFFFFFFFFFFFFFFFFFFFFFFFFFFFFFFFFFFFFFFFFFFFFFFFFFFFFFFFFFA0 DUP8 DUP7 SUB ADD DUP5 MSTORE DUP3 CALLDATALOAD PUSH32 0xFFFFFFFFFFFFFFFFFFFFFFFFFFFFFFFFFFFFFFFFFFFFFFFFFFFFFFFFFFFFFF81 DUP12 CALLDATASIZE SUB ADD DUP2 SLT PUSH2 0x217A JUMPI DUP3 DUP4 REVERT JUMPDEST PUSH2 0x2186 DUP7 DUP13 DUP4 ADD PUSH2 0x1F53 JUMP JUMPDEST SWAP6 POP POP PUSH1 0x20 SWAP4 DUP5 ADD SWAP4 SWAP3 SWAP1 SWAP3 ADD SWAP2 PUSH1 0x1 ADD PUSH2 0x211A JUMP JUMPDEST POP POP POP POP PUSH1 0x20 SWAP3 SWAP1 SWAP3 ADD SWAP3 SWAP1 SWAP3 MSTORE SWAP4 SWAP3 POP POP POP JUMP JUMPDEST PUSH1 0x0 DUP3 CALLDATALOAD PUSH32 0xFFFFFFFFFFFFFFFFFFFFFFFFFFFFFFFFFFFFFFFFFFFFFFFFFFFFFFFFFFFFFF81 DUP4 CALLDATASIZE SUB ADD DUP2 SLT PUSH2 0x21E5 JUMPI PUSH1 0x0 DUP1 REVERT JUMPDEST SWAP2 SWAP1 SWAP2 ADD SWAP3 SWAP2 POP POP JUMP JUMPDEST PUSH32 0x4E487B7100000000000000000000000000000000000000000000000000000000 PUSH1 0x0 MSTORE PUSH1 0x21 PUSH1 0x4 MSTORE PUSH1 0x24 PUSH1 0x0 REVERT INVALID MSTORE8 PUSH10 0x676E6572207765696768 PUSH21 0x7320646F6573206E6F74206D656574207468726573 PUSH9 0x6F6C644174206C6561 PUSH20 0x74206F6E65207369676E6174757265206E6F7420 PUSH7 0x726F6D2061206B PUSH15 0x6F776E20636F6E74726F6C6C657241 PUSH21 0x206C65617374206F6E65207369676E617475726520 PUSH2 0x6C72 PUSH6 0x616479207573 PUSH6 0x64A264697066 PUSH20 0x582212207AFB18347163B0F9FDD4F4C9F438301B 0x2F JUMPI 0xD2 DUP8 0x21 SIGNEXTEND 0xAA 0x49 0xEA SWAP6 0xEF XOR 0xC4 PUSH1 0x22 LT PUSH5 0x736F6C6343 STOP ADDMOD SLT STOP CALLER "},"methodIdentifiers":{"addControllers(address[],uint256[],uint256,bytes[])":"af915498","call((address,uint256,uint256,bytes),bytes[])":"70b6e4c9","controlThreshold()":"a7865090","controllerWeight(address)":"f04420f1","controllersTotalWeight()":"06e82383","multiCall((address,uint256,uint256,bytes)[],bytes[])":"d1e3aaa8","removeControllers(address[],uint256,bytes[])":"286936bb","supportsInterface(bytes4)":"01ffc9a7","updateControlThreshold(uint256,uint256,bytes[])":"87f949b4","updateControllerWeight(address,uint256,uint256,bytes[])":"d0bccea1"}}}}}