{
  "_format": "hh-sol-artifact-1",
  "contractName": "Calls",
  "sourceName": "contracts/modules/Calls/Calls.sol",
  "abi": [
    {
      "inputs": [
        {
          "internalType": "address[]",
          "name": "_controllers",
          "type": "address[]"
        },
        {
          "internalType": "uint256[]",
          "name": "_weights",
          "type": "uint256[]"
        },
        {
          "internalType": "uint256",
          "name": "_nonce",
          "type": "uint256"
        },
        {
          "internalType": "bytes[]",
          "name": "_signatures",
          "type": "bytes[]"
        }
      ],
      "name": "addControllers",
      "outputs": [],
      "stateMutability": "nonpayable",
      "type": "function"
    },
    {
      "inputs": [],
      "name": "controlThreshold",
      "outputs": [
        {
          "internalType": "uint256",
          "name": "",
          "type": "uint256"
        }
      ],
      "stateMutability": "view",
      "type": "function"
    },
    {
      "inputs": [
        {
          "internalType": "address",
          "name": "_controller",
          "type": "address"
        }
      ],
      "name": "controllerWeight",
      "outputs": [
        {
          "internalType": "uint256",
          "name": "",
          "type": "uint256"
        }
      ],
      "stateMutability": "view",
      "type": "function"
    },
    {
      "inputs": [],
      "name": "controllersTotalWeight",
      "outputs": [
        {
          "internalType": "uint256",
          "name": "",
          "type": "uint256"
        }
      ],
      "stateMutability": "view",
      "type": "function"
    },
    {
      "inputs": [
        {
          "components": [
            {
              "internalType": "address",
              "name": "target",
              "type": "address"
            },
            {
              "internalType": "uint256",
              "name": "value",
              "type": "uint256"
            },
            {
              "internalType": "uint256",
              "name": "nonce",
              "type": "uint256"
            },
            {
              "internalType": "bytes",
              "name": "data",
              "type": "bytes"
            }
          ],
          "internalType": "struct CallsStructs.CallRequest[]",
          "name": "_callRequests",
          "type": "tuple[]"
        },
        {
          "internalType": "bytes[]",
          "name": "_signatures",
          "type": "bytes[]"
        }
      ],
      "name": "multiCall",
      "outputs": [
        {
          "internalType": "bytes[]",
          "name": "",
          "type": "bytes[]"
        }
      ],
      "stateMutability": "nonpayable",
      "type": "function"
    },
    {
      "inputs": [
        {
          "internalType": "address[]",
          "name": "_controllers",
          "type": "address[]"
        },
        {
          "internalType": "uint256",
          "name": "_nonce",
          "type": "uint256"
        },
        {
          "internalType": "bytes[]",
          "name": "_signatures",
          "type": "bytes[]"
        }
      ],
      "name": "removeControllers",
      "outputs": [],
      "stateMutability": "nonpayable",
      "type": "function"
    },
    {
      "inputs": [
        {
          "components": [
            {
              "internalType": "address",
              "name": "target",
              "type": "address"
            },
            {
              "internalType": "uint256",
              "name": "value",
              "type": "uint256"
            },
            {
              "internalType": "uint256",
              "name": "nonce",
              "type": "uint256"
            },
            {
              "internalType": "bytes",
              "name": "data",
              "type": "bytes"
            }
          ],
          "internalType": "struct CallsStructs.CallRequest",
          "name": "_callRequest",
          "type": "tuple"
        },
        {
          "internalType": "bytes[]",
          "name": "_signatures",
          "type": "bytes[]"
        }
      ],
      "name": "singleCall",
      "outputs": [
        {
          "internalType": "bytes",
          "name": "",
          "type": "bytes"
        }
      ],
      "stateMutability": "nonpayable",
      "type": "function"
    },
    {
      "inputs": [
        {
          "internalType": "bytes4",
          "name": "interfaceId",
          "type": "bytes4"
        }
      ],
      "name": "supportsInterface",
      "outputs": [
        {
          "internalType": "bool",
          "name": "",
          "type": "bool"
        }
      ],
      "stateMutability": "view",
      "type": "function"
    },
    {
      "inputs": [
        {
          "internalType": "uint256",
          "name": "_threshold",
          "type": "uint256"
        },
        {
          "internalType": "uint256",
          "name": "_nonce",
          "type": "uint256"
        },
        {
          "internalType": "bytes[]",
          "name": "_signatures",
          "type": "bytes[]"
        }
      ],
      "name": "updateControlThreshold",
      "outputs": [],
      "stateMutability": "nonpayable",
      "type": "function"
    },
    {
      "inputs": [
        {
          "internalType": "address",
          "name": "_controller",
          "type": "address"
        },
        {
          "internalType": "uint256",
          "name": "_weight",
          "type": "uint256"
        },
        {
          "internalType": "uint256",
          "name": "_nonce",
          "type": "uint256"
        },
        {
          "internalType": "bytes[]",
          "name": "_signatures",
          "type": "bytes[]"
        }
      ],
      "name": "updateControllerWeight",
      "outputs": [],
      "stateMutability": "nonpayable",
      "type": "function"
    }
  ],
  "bytecode": "0x608060405234801561001057600080fd5b506122cf806100206000396000f3fe608060405234801561001057600080fd5b50600436106100be5760003560e01c8063a786509011610076578063d0bccea11161005b578063d0bccea11461019e578063d1e3aaa8146101b1578063f04420f1146101d157600080fd5b8063a786509014610164578063af9154981461018b57600080fd5b8063286936bb116100a7578063286936bb1461011c57806363c032b71461013157806387f949b41461015157600080fd5b806301ffc9a7146100c357806306e82383146100eb575b600080fd5b6100d66100d1366004611801565b610226565b60405190151581526020015b60405180910390f35b7f255f4a56bd3ad76424e31ed8855ef9ad14a0ce4e67508c76ff082e5c1466b130545b6040519081526020016100e2565b61012f61012a366004611888565b610288565b005b61014461013f366004611902565b610449565b6040516100e291906119d7565b61012f61015f3660046119ea565b6105b7565b7f255f4a56bd3ad76424e31ed8855ef9ad14a0ce4e67508c76ff082e5c1466b12f5461010e565b61012f610199366004611a3d565b61081b565b61012f6101ac366004611b0a565b6109ed565b6101c46101bf366004611b61565b610d10565b6040516100e29190611bc1565b61010e6101df366004611c41565b73ffffffffffffffffffffffffffffffffffffffff1660009081527f255f4a56bd3ad76424e31ed8855ef9ad14a0ce4e67508c76ff082e5c1466b131602052604090205490565b60007f4ddc67e1000000000000000000000000000000000000000000000000000000007fffffffff0000000000000000000000000000000000000000000000000000000083160161027957506001919050565b61028282610f31565b92915050565b8484844660405160200161029f9493929190611cb0565b604080517fffffffffffffffffffffffffffffffffffffffffffffffffffffffffffffffe0818403018152919052805160209091012082826000806102ed856102e88587611d55565b610fce565b91509150818190610334576040517f08c379a000000000000000000000000000000000000000000000000000000000815260040161032b91906119d7565b60405180910390fd5b5060005b838110156103ef5760017f255f4a56bd3ad76424e31ed8855ef9ad14a0ce4e67508c76ff082e5c1466b132600087878581811061037757610377611e48565b90506020028101906103899190611e77565b604051610397929190611edc565b6040805191829003909120825260208201929092520160002080547fffffffffffffffffffffffffffffffffffffffffffffffffffffffffffffff0016911515919091179055806103e781611f1b565b915050610338565b5060005b8981101561043c5761042a8b8b8381811061041057610410611e48565b90506020020160208101906104259190611c41565b6111d9565b8061043481611f1b565b9150506103f3565b5050505050505050505050565b6060834660405160200161045e92919061203d565b604080517fffffffffffffffffffffffffffffffffffffffffffffffffffffffffffffffe0818403018152919052805160209091012083836000806104a7856102e88587611d55565b915091508181906104e5576040517f08c379a000000000000000000000000000000000000000000000000000000000815260040161032b91906119d7565b5060005b838110156105a05760017f255f4a56bd3ad76424e31ed8855ef9ad14a0ce4e67508c76ff082e5c1466b132600087878581811061052857610528611e48565b905060200281019061053a9190611e77565b604051610548929190611edc565b6040805191829003909120825260208201929092520160002080547fffffffffffffffffffffffffffffffffffffffffffffffffffffffffffffff00169115159190911790558061059881611f1b565b9150506104e9565b506105aa89611373565b9998505050505050505050565b6040805160208101869052908101849052466060820152608001604080517fffffffffffffffffffffffffffffffffffffffffffffffffffffffffffffffe08184030181529190528051602090910120828260008061061a856102e88587611d55565b91509150818190610658576040517f08c379a000000000000000000000000000000000000000000000000000000000815260040161032b91906119d7565b5060005b838110156107135760017f255f4a56bd3ad76424e31ed8855ef9ad14a0ce4e67508c76ff082e5c1466b132600087878581811061069b5761069b611e48565b90506020028101906106ad9190611e77565b6040516106bb929190611edc565b6040805191829003909120825260208201929092520160002080547fffffffffffffffffffffffffffffffffffffffffffffffffffffffffffffff00169115159190911790558061070b81611f1b565b91505061065c565b5060007f255f4a56bd3ad76424e31ed8855ef9ad14a0ce4e67508c76ff082e5c1466b12f5411801561078757507f255f4a56bd3ad76424e31ed8855ef9ad14a0ce4e67508c76ff082e5c1466b130547f255f4a56bd3ad76424e31ed8855ef9ad14a0ce4e67508c76ff082e5c1466b12f5411155b6107ed576040517f08c379a000000000000000000000000000000000000000000000000000000000815260206004820152601160248201527f496e76616c6964207468726573686f6c64000000000000000000000000000000604482015260640161032b565b887f255f4a56bd3ad76424e31ed8855ef9ad14a0ce4e67508c76ff082e5c1466b12f55505050505050505050565b8686868686466040516020016108369695949392919061205f565b604080517fffffffffffffffffffffffffffffffffffffffffffffffffffffffffffffffe08184030181529190528051602090910120828260008061087f856102e88587611d55565b915091508181906108bd576040517f08c379a000000000000000000000000000000000000000000000000000000000815260040161032b91906119d7565b5060005b838110156109785760017f255f4a56bd3ad76424e31ed8855ef9ad14a0ce4e67508c76ff082e5c1466b132600087878581811061090057610900611e48565b90506020028101906109129190611e77565b604051610920929190611edc565b6040805191829003909120825260208201929092520160002080547fffffffffffffffffffffffffffffffffffffffffffffffffffffffffffffff00169115159190911790558061097081611f1b565b9150506108c1565b5060005b8b8110156109de576109cc8d8d8381811061099957610999611e48565b90506020020160208101906109ae9190611c41565b8c8c848181106109c0576109c0611e48565b90506020020135611416565b806109d681611f1b565b91505061097c565b50505050505050505050505050565b6040805173ffffffffffffffffffffffffffffffffffffffff871660208201529081018590526060810184905246608082015260a001604080517fffffffffffffffffffffffffffffffffffffffffffffffffffffffffffffffe081840301815291905280516020909101208282600080610a6c856102e88587611d55565b91509150818190610aaa576040517f08c379a000000000000000000000000000000000000000000000000000000000815260040161032b91906119d7565b5060005b83811015610b655760017f255f4a56bd3ad76424e31ed8855ef9ad14a0ce4e67508c76ff082e5c1466b1326000878785818110610aed57610aed611e48565b9050602002810190610aff9190611e77565b604051610b0d929190611edc565b6040805191829003909120825260208201929092520160002080547fffffffffffffffffffffffffffffffffffffffffffffffffffffffffffffff001691151591909117905580610b5d81611f1b565b915050610aae565b5073ffffffffffffffffffffffffffffffffffffffff8a1660009081527f255f4a56bd3ad76424e31ed8855ef9ad14a0ce4e67508c76ff082e5c1466b13160205260409020547f255f4a56bd3ad76424e31ed8855ef9ad14a0ce4e67508c76ff082e5c1466b130548a91610bd8916120d6565b610be291906120e9565b7f255f4a56bd3ad76424e31ed8855ef9ad14a0ce4e67508c76ff082e5c1466b13081905515801590610c5657507f255f4a56bd3ad76424e31ed8855ef9ad14a0ce4e67508c76ff082e5c1466b12f547f255f4a56bd3ad76424e31ed8855ef9ad14a0ce4e67508c76ff082e5c1466b1305410155b610cbc576040517f08c379a000000000000000000000000000000000000000000000000000000000815260206004820152601d60248201527f5468726573686f6c6420776f756c6420626520696d706f737369626c65000000604482015260640161032b565b5050505073ffffffffffffffffffffffffffffffffffffffff9590951660009081527f255f4a56bd3ad76424e31ed8855ef9ad14a0ce4e67508c76ff082e5c1466b131602052604090209390935550505050565b6060848446604051602001610d27939291906120fc565b604080517fffffffffffffffffffffffffffffffffffffffffffffffffffffffffffffffe081840301815291905280516020909101208383600080610d70856102e88587611d55565b91509150818190610dae576040517f08c379a000000000000000000000000000000000000000000000000000000000815260040161032b91906119d7565b5060005b83811015610e695760017f255f4a56bd3ad76424e31ed8855ef9ad14a0ce4e67508c76ff082e5c1466b1326000878785818110610df157610df1611e48565b9050602002810190610e039190611e77565b604051610e11929190611edc565b6040805191829003909120825260208201929092520160002080547fffffffffffffffffffffffffffffffffffffffffffffffffffffffffffffff001691151591909117905580610e6181611f1b565b915050610db2565b5060008967ffffffffffffffff811115610e8557610e85611cd7565b604051908082528060200260200182016040528015610eb857816020015b6060815260200190600190039081610ea35790505b50905060005b8a811015610f2257610ef28c8c83818110610edb57610edb611e48565b9050602002810190610eed91906121b1565b611373565b828281518110610f0457610f04611e48565b60200260200101819052508080610f1a90611f1b565b915050610ebe565b509a9950505050505050505050565b60007f7e68492c000000000000000000000000000000000000000000000000000000007fffffffff00000000000000000000000000000000000000000000000000000000831601610f8457506001919050565b7f01ffc9a7000000000000000000000000000000000000000000000000000000007fffffffff00000000000000000000000000000000000000000000000000000000831614610282565b600060606000805b845181101561116d57600061100487878481518110610ff757610ff7611e48565b6020026020010151611498565b73ffffffffffffffffffffffffffffffffffffffff811660009081527f255f4a56bd3ad76424e31ed8855ef9ad14a0ce4e67508c76ff082e5c1466b13160205260408120549192500361107857600060405180606001604052806032815260200161224560329139945094505050506111d2565b600086838151811061108c5761108c611e48565b60200260200101518051906020012090506110c47f255f4a56bd3ad76424e31ed8855ef9ad14a0ce4e67508c76ff082e5c1466b12f90565b6000828152600391909101602052604090205460ff16156111075760006040518060600160405280602381526020016122776023913995509550505050506111d2565b73ffffffffffffffffffffffffffffffffffffffff821660009081527f255f4a56bd3ad76424e31ed8855ef9ad14a0ce4e67508c76ff082e5c1466b131602052604090205461115690856120e9565b93505050808061116590611f1b565b915050610fd6565b507f255f4a56bd3ad76424e31ed8855ef9ad14a0ce4e67508c76ff082e5c1466b12f548110156111bc57600060405180606001604052806026815260200161221f6026913992509250506111d2565b5050604080516020810190915260008152600191505b9250929050565b73ffffffffffffffffffffffffffffffffffffffff811660009081527f255f4a56bd3ad76424e31ed8855ef9ad14a0ce4e67508c76ff082e5c1466b13160205260408120547f255f4a56bd3ad76424e31ed8855ef9ad14a0ce4e67508c76ff082e5c1466b1308054919290916112509084906120d6565b90915550507f255f4a56bd3ad76424e31ed8855ef9ad14a0ce4e67508c76ff082e5c1466b13054158015906112c757507f255f4a56bd3ad76424e31ed8855ef9ad14a0ce4e67508c76ff082e5c1466b12f547f255f4a56bd3ad76424e31ed8855ef9ad14a0ce4e67508c76ff082e5c1466b1305410155b61132d576040517f08c379a000000000000000000000000000000000000000000000000000000000815260206004820152601d60248201527f5468726573686f6c6420776f756c6420626520696d706f737369626c65000000604482015260640161032b565b73ffffffffffffffffffffffffffffffffffffffff1660009081527f255f4a56bd3ad76424e31ed8855ef9ad14a0ce4e67508c76ff082e5c1466b1316020526040812055565b60606000806113856020850185611c41565b73ffffffffffffffffffffffffffffffffffffffff1660208501356113ad6060870187611e77565b6040516113bb929190611edc565b60006040518083038185875af1925050503d80600081146113f8576040519150601f19603f3d011682016040523d82523d6000602084013e6113fd565b606091505b50915091508161140f57805160208201fd5b9392505050565b807f255f4a56bd3ad76424e31ed8855ef9ad14a0ce4e67508c76ff082e5c1466b12f600101600082825461144a91906120e9565b909155505073ffffffffffffffffffffffffffffffffffffffff9190911660009081527f255f4a56bd3ad76424e31ed8855ef9ad14a0ce4e67508c76ff082e5c1466b1316020526040902055565b600061140f826114f5856040517f19457468657265756d205369676e6564204d6573736167653a0a3332000000006020820152603c8101829052600090605c01604051602081830303815290604052805190602001209050919050565b906000806000611505858561151a565b915091506115128161155c565b509392505050565b60008082516041036115505760208301516040840151606085015160001a61154487828585611712565b945094505050506111d2565b506000905060026111d2565b6000816004811115611570576115706121ef565b036115785750565b600181600481111561158c5761158c6121ef565b036115f3576040517f08c379a000000000000000000000000000000000000000000000000000000000815260206004820152601860248201527f45434453413a20696e76616c6964207369676e61747572650000000000000000604482015260640161032b565b6002816004811115611607576116076121ef565b0361166e576040517f08c379a000000000000000000000000000000000000000000000000000000000815260206004820152601f60248201527f45434453413a20696e76616c6964207369676e6174757265206c656e67746800604482015260640161032b565b6003816004811115611682576116826121ef565b0361170f576040517f08c379a000000000000000000000000000000000000000000000000000000000815260206004820152602260248201527f45434453413a20696e76616c6964207369676e6174757265202773272076616c60448201527f7565000000000000000000000000000000000000000000000000000000000000606482015260840161032b565b50565b6000807f7fffffffffffffffffffffffffffffff5d576e7357a4501ddfe92f46681b20a083111561174957506000905060036117f8565b6040805160008082526020820180845289905260ff881692820192909252606081018690526080810185905260019060a0016020604051602081039080840390855afa15801561179d573d6000803e3d6000fd5b50506040517fffffffffffffffffffffffffffffffffffffffffffffffffffffffffffffffe0015191505073ffffffffffffffffffffffffffffffffffffffff81166117f1576000600192509250506117f8565b9150600090505b94509492505050565b60006020828403121561181357600080fd5b81357fffffffff000000000000000000000000000000000000000000000000000000008116811461140f57600080fd5b60008083601f84011261185557600080fd5b50813567ffffffffffffffff81111561186d57600080fd5b6020830191508360208260051b85010111156111d257600080fd5b6000806000806000606086880312156118a057600080fd5b853567ffffffffffffffff808211156118b857600080fd5b6118c489838a01611843565b90975095506020880135945060408801359150808211156118e457600080fd5b506118f188828901611843565b969995985093965092949392505050565b60008060006040848603121561191757600080fd5b833567ffffffffffffffff8082111561192f57600080fd5b908501906080828803121561194357600080fd5b9093506020850135908082111561195957600080fd5b5061196686828701611843565b9497909650939450505050565b6000815180845260005b818110156119995760208185018101518683018201520161197d565b5060006020828601015260207fffffffffffffffffffffffffffffffffffffffffffffffffffffffffffffffe0601f83011685010191505092915050565b60208152600061140f6020830184611973565b60008060008060608587031215611a0057600080fd5b8435935060208501359250604085013567ffffffffffffffff811115611a2557600080fd5b611a3187828801611843565b95989497509550505050565b60008060008060008060006080888a031215611a5857600080fd5b873567ffffffffffffffff80821115611a7057600080fd5b611a7c8b838c01611843565b909950975060208a0135915080821115611a9557600080fd5b611aa18b838c01611843565b909750955060408a0135945060608a0135915080821115611ac157600080fd5b50611ace8a828b01611843565b989b979a50959850939692959293505050565b803573ffffffffffffffffffffffffffffffffffffffff81168114611b0557600080fd5b919050565b600080600080600060808688031215611b2257600080fd5b611b2b86611ae1565b94506020860135935060408601359250606086013567ffffffffffffffff811115611b5557600080fd5b6118f188828901611843565b60008060008060408587031215611b7757600080fd5b843567ffffffffffffffff80821115611b8f57600080fd5b611b9b88838901611843565b90965094506020870135915080821115611bb457600080fd5b50611a3187828801611843565b6000602080830181845280855180835260408601915060408160051b870101925083870160005b82811015611c34577fffffffffffffffffffffffffffffffffffffffffffffffffffffffffffffffc0888603018452611c22858351611973565b94509285019290850190600101611be8565b5092979650505050505050565b600060208284031215611c5357600080fd5b61140f82611ae1565b8183526000602080850194508260005b85811015611ca55773ffffffffffffffffffffffffffffffffffffffff611c9283611ae1565b1687529582019590820190600101611c6c565b509495945050505050565b606081526000611cc4606083018688611c5c565b6020830194909452506040015292915050565b7f4e487b7100000000000000000000000000000000000000000000000000000000600052604160045260246000fd5b604051601f82017fffffffffffffffffffffffffffffffffffffffffffffffffffffffffffffffe016810167ffffffffffffffff81118282101715611d4d57611d4d611cd7565b604052919050565b600067ffffffffffffffff80841115611d7057611d70611cd7565b8360051b6020611d81818301611d06565b868152918501918181019036841115611d9957600080fd5b865b84811015611e3c57803586811115611db35760008081fd5b8801601f3681830112611dc65760008081fd5b813588811115611dd857611dd8611cd7565b611e07877fffffffffffffffffffffffffffffffffffffffffffffffffffffffffffffffe08484011601611d06565b91508082523687828501011115611e1e5760008081fd5b80878401888401376000908201870152845250918301918301611d9b565b50979650505050505050565b7f4e487b7100000000000000000000000000000000000000000000000000000000600052603260045260246000fd5b60008083357fffffffffffffffffffffffffffffffffffffffffffffffffffffffffffffffe1843603018112611eac57600080fd5b83018035915067ffffffffffffffff821115611ec757600080fd5b6020019150368190038213156111d257600080fd5b8183823760009101908152919050565b7f4e487b7100000000000000000000000000000000000000000000000000000000600052601160045260246000fd5b60007fffffffffffffffffffffffffffffffffffffffffffffffffffffffffffffffff8203611f4c57611f4c611eec565b5060010190565b73ffffffffffffffffffffffffffffffffffffffff611f7182611ae1565b1682526020810135602083015260408101356040830152600060608201357fffffffffffffffffffffffffffffffffffffffffffffffffffffffffffffffe1833603018112611fbf57600080fd5b820160208101903567ffffffffffffffff811115611fdc57600080fd5b803603821315611feb57600080fd5b60806060860152806080860152808260a0870137600060a0828701015260a07fffffffffffffffffffffffffffffffffffffffffffffffffffffffffffffffe0601f8301168601019250505092915050565b6040815260006120506040830185611f53565b90508260208301529392505050565b60808152600061207360808301888a611c5c565b82810360208401528581527f07ffffffffffffffffffffffffffffffffffffffffffffffffffffffffffffff8611156120ab57600080fd5b8560051b80886020840137604084019590955260609092019290925290910160200195945050505050565b8181038181111561028257610282611eec565b8082018082111561028257610282611eec565b6040808252810183905260006060600585901b830181019083018683805b8881101561219c577fffffffffffffffffffffffffffffffffffffffffffffffffffffffffffffffa087860301845282357fffffffffffffffffffffffffffffffffffffffffffffffffffffffffffffff818b360301811261217a578283fd5b612186868c8301611f53565b955050602093840193929092019160010161211a565b50505050602092909201929092529392505050565b600082357fffffffffffffffffffffffffffffffffffffffffffffffffffffffffffffff818336030181126121e557600080fd5b9190910192915050565b7f4e487b7100000000000000000000000000000000000000000000000000000000600052602160045260246000fdfe5369676e6572207765696768747320646f6573206e6f74206d656574207468726573686f6c644174206c65617374206f6e65207369676e6174757265206e6f742066726f6d2061206b6e6f776e20636f6e74726f6c6c65724174206c65617374206f6e65207369676e617475726520616c72656164792075736564a2646970667358221220e2dbff6677f3a834a827ea5aa4c235fae8c8efd29968b2a4627ad354180e6d5d64736f6c63430008120033",
  "linkReferences": {},
  "deployedLinkReferences": {}
}