{
  "_format": "hh-sol-artifact-1",
  "contractName": "Calls",
  "sourceName": "contracts/modules/Calls/Calls.sol",
  "abi": [
    {
      "inputs": [
        {
          "internalType": "address[]",
          "name": "_controllers",
          "type": "address[]"
        },
        {
          "internalType": "uint256[]",
          "name": "_weights",
          "type": "uint256[]"
        },
        {
          "internalType": "uint256",
          "name": "_nonce",
          "type": "uint256"
        },
        {
          "internalType": "bytes[]",
          "name": "_signatures",
          "type": "bytes[]"
        }
      ],
      "name": "addControllers",
      "outputs": [],
      "stateMutability": "nonpayable",
      "type": "function"
    },
    {
      "inputs": [],
      "name": "controlThreshold",
      "outputs": [
        {
          "internalType": "uint256",
          "name": "",
          "type": "uint256"
        }
      ],
      "stateMutability": "view",
      "type": "function"
    },
    {
      "inputs": [
        {
          "internalType": "address",
          "name": "_controller",
          "type": "address"
        }
      ],
      "name": "controllerWeight",
      "outputs": [
        {
          "internalType": "uint256",
          "name": "",
          "type": "uint256"
        }
      ],
      "stateMutability": "view",
      "type": "function"
    },
    {
      "inputs": [],
      "name": "controllersTotalWeight",
      "outputs": [
        {
          "internalType": "uint256",
          "name": "",
          "type": "uint256"
        }
      ],
      "stateMutability": "view",
      "type": "function"
    },
    {
      "inputs": [
        {
          "components": [
            {
              "internalType": "address",
              "name": "target",
              "type": "address"
            },
            {
              "internalType": "uint256",
              "name": "value",
              "type": "uint256"
            },
            {
              "internalType": "uint256",
              "name": "nonce",
              "type": "uint256"
            },
            {
              "internalType": "bytes",
              "name": "data",
              "type": "bytes"
            }
          ],
          "internalType": "struct CallsStructs.ExecuteRequest",
          "name": "_executeRequest",
          "type": "tuple"
        },
        {
          "internalType": "bytes[]",
          "name": "_signatures",
          "type": "bytes[]"
        }
      ],
      "name": "execute",
      "outputs": [
        {
          "internalType": "bytes",
          "name": "",
          "type": "bytes"
        }
      ],
      "stateMutability": "nonpayable",
      "type": "function"
    },
    {
      "inputs": [
        {
          "components": [
            {
              "internalType": "address",
              "name": "target",
              "type": "address"
            },
            {
              "internalType": "uint256",
              "name": "value",
              "type": "uint256"
            },
            {
              "internalType": "uint256",
              "name": "nonce",
              "type": "uint256"
            },
            {
              "internalType": "bytes",
              "name": "data",
              "type": "bytes"
            }
          ],
          "internalType": "struct CallsStructs.ExecuteRequest[]",
          "name": "_executeRequests",
          "type": "tuple[]"
        },
        {
          "internalType": "bytes[]",
          "name": "_signatures",
          "type": "bytes[]"
        }
      ],
      "name": "multiExecute",
      "outputs": [
        {
          "internalType": "bytes[]",
          "name": "",
          "type": "bytes[]"
        }
      ],
      "stateMutability": "nonpayable",
      "type": "function"
    },
    {
      "inputs": [
        {
          "internalType": "address[]",
          "name": "_controllers",
          "type": "address[]"
        },
        {
          "internalType": "uint256",
          "name": "_nonce",
          "type": "uint256"
        },
        {
          "internalType": "bytes[]",
          "name": "_signatures",
          "type": "bytes[]"
        }
      ],
      "name": "removeControllers",
      "outputs": [],
      "stateMutability": "nonpayable",
      "type": "function"
    },
    {
      "inputs": [
        {
          "internalType": "bytes4",
          "name": "interfaceId",
          "type": "bytes4"
        }
      ],
      "name": "supportsInterface",
      "outputs": [
        {
          "internalType": "bool",
          "name": "",
          "type": "bool"
        }
      ],
      "stateMutability": "view",
      "type": "function"
    },
    {
      "inputs": [
        {
          "internalType": "uint256",
          "name": "_threshold",
          "type": "uint256"
        },
        {
          "internalType": "uint256",
          "name": "_nonce",
          "type": "uint256"
        },
        {
          "internalType": "bytes[]",
          "name": "_signatures",
          "type": "bytes[]"
        }
      ],
      "name": "updateControlThreshold",
      "outputs": [],
      "stateMutability": "nonpayable",
      "type": "function"
    },
    {
      "inputs": [
        {
          "internalType": "address",
          "name": "_controller",
          "type": "address"
        },
        {
          "internalType": "uint256",
          "name": "_weight",
          "type": "uint256"
        },
        {
          "internalType": "uint256",
          "name": "_nonce",
          "type": "uint256"
        },
        {
          "internalType": "bytes[]",
          "name": "_signatures",
          "type": "bytes[]"
        }
      ],
      "name": "updateControllerWeight",
      "outputs": [],
      "stateMutability": "nonpayable",
      "type": "function"
    }
  ],
  "bytecode": "0x608060405234801561001057600080fd5b50612220806100206000396000f3fe608060405234801561001057600080fd5b50600436106100be5760003560e01c8063a3e8d51e11610076578063af9154981161005b578063af915498146101ed578063d0bccea114610200578063f04420f11461021357600080fd5b8063a3e8d51e146101a6578063a7865090146101c657600080fd5b80630d992b2b116100a75780630d992b2b1461015e578063286936bb1461017e57806387f949b41461019357600080fd5b806301ffc9a7146100c357806306e823831461012d575b600080fd5b6101186100d1366004611752565b7fffffffff00000000000000000000000000000000000000000000000000000000167f01ffc9a7000000000000000000000000000000000000000000000000000000001490565b60405190151581526020015b60405180910390f35b7f255f4a56bd3ad76424e31ed8855ef9ad14a0ce4e67508c76ff082e5c1466b130545b604051908152602001610124565b61017161016c3660046117d9565b610268565b60405161012491906118a9565b61019161018c366004611929565b610497565b005b6101916101a13660046119a3565b61064a565b6101b96101b43660046119ea565b6108ae565b6040516101249190611a5b565b7f255f4a56bd3ad76424e31ed8855ef9ad14a0ce4e67508c76ff082e5c1466b12f54610150565b6101916101fb366004611a6e565b610a1c565b61019161020e366004611b3b565b610bee565b610150610221366004611b92565b73ffffffffffffffffffffffffffffffffffffffff1660009081527f255f4a56bd3ad76424e31ed8855ef9ad14a0ce4e67508c76ff082e5c1466b131602052604090205490565b606084844660405160200161027f93929190611c97565b604080517fffffffffffffffffffffffffffffffffffffffffffffffffffffffffffffffe0818403018152919052805160209091012083836000806102cd856102c88587611dca565b610f11565b91509150818190610314576040517f08c379a000000000000000000000000000000000000000000000000000000000815260040161030b9190611a5b565b60405180910390fd5b5060005b838110156103cf5760017f255f4a56bd3ad76424e31ed8855ef9ad14a0ce4e67508c76ff082e5c1466b132600087878581811061035757610357611ebd565b90506020028101906103699190611eec565b604051610377929190611f51565b6040805191829003909120825260208201929092520160002080547fffffffffffffffffffffffffffffffffffffffffffffffffffffffffffffff0016911515919091179055806103c781611f90565b915050610318565b5060008967ffffffffffffffff8111156103eb576103eb611d4c565b60405190808252806020026020018201604052801561041e57816020015b60608152602001906001900390816104095790505b50905060005b8a811015610488576104588c8c8381811061044157610441611ebd565b90506020028101906104539190611fc8565b61111c565b82828151811061046a5761046a611ebd565b6020026020010181905250808061048090611f90565b915050610424565b509a9950505050505050505050565b848484466040516020016104ae949392919061205a565b604080517fffffffffffffffffffffffffffffffffffffffffffffffffffffffffffffffe0818403018152919052805160209091012082826000806104f7856102c88587611dca565b91509150818190610535576040517f08c379a000000000000000000000000000000000000000000000000000000000815260040161030b9190611a5b565b5060005b838110156105f05760017f255f4a56bd3ad76424e31ed8855ef9ad14a0ce4e67508c76ff082e5c1466b132600087878581811061057857610578611ebd565b905060200281019061058a9190611eec565b604051610598929190611f51565b6040805191829003909120825260208201929092520160002080547fffffffffffffffffffffffffffffffffffffffffffffffffffffffffffffff0016911515919091179055806105e881611f90565b915050610539565b5060005b8981101561063d5761062b8b8b8381811061061157610611611ebd565b90506020020160208101906106269190611b92565b6111bf565b8061063581611f90565b9150506105f4565b5050505050505050505050565b6040805160208101869052908101849052466060820152608001604080517fffffffffffffffffffffffffffffffffffffffffffffffffffffffffffffffe0818403018152919052805160209091012082826000806106ad856102c88587611dca565b915091508181906106eb576040517f08c379a000000000000000000000000000000000000000000000000000000000815260040161030b9190611a5b565b5060005b838110156107a65760017f255f4a56bd3ad76424e31ed8855ef9ad14a0ce4e67508c76ff082e5c1466b132600087878581811061072e5761072e611ebd565b90506020028101906107409190611eec565b60405161074e929190611f51565b6040805191829003909120825260208201929092520160002080547fffffffffffffffffffffffffffffffffffffffffffffffffffffffffffffff00169115159190911790558061079e81611f90565b9150506106ef565b5060007f255f4a56bd3ad76424e31ed8855ef9ad14a0ce4e67508c76ff082e5c1466b12f5411801561081a57507f255f4a56bd3ad76424e31ed8855ef9ad14a0ce4e67508c76ff082e5c1466b130547f255f4a56bd3ad76424e31ed8855ef9ad14a0ce4e67508c76ff082e5c1466b12f5411155b610880576040517f08c379a000000000000000000000000000000000000000000000000000000000815260206004820152601160248201527f496e76616c6964207468726573686f6c64000000000000000000000000000000604482015260640161030b565b887f255f4a56bd3ad76424e31ed8855ef9ad14a0ce4e67508c76ff082e5c1466b12f55505050505050505050565b606083466040516020016108c3929190612081565b604080517fffffffffffffffffffffffffffffffffffffffffffffffffffffffffffffffe08184030181529190528051602090910120838360008061090c856102c88587611dca565b9150915081819061094a576040517f08c379a000000000000000000000000000000000000000000000000000000000815260040161030b9190611a5b565b5060005b83811015610a055760017f255f4a56bd3ad76424e31ed8855ef9ad14a0ce4e67508c76ff082e5c1466b132600087878581811061098d5761098d611ebd565b905060200281019061099f9190611eec565b6040516109ad929190611f51565b6040805191829003909120825260208201929092520160002080547fffffffffffffffffffffffffffffffffffffffffffffffffffffffffffffff0016911515919091179055806109fd81611f90565b91505061094e565b50610a0f8961111c565b9998505050505050505050565b868686868646604051602001610a37969594939291906120a3565b604080517fffffffffffffffffffffffffffffffffffffffffffffffffffffffffffffffe081840301815291905280516020909101208282600080610a80856102c88587611dca565b91509150818190610abe576040517f08c379a000000000000000000000000000000000000000000000000000000000815260040161030b9190611a5b565b5060005b83811015610b795760017f255f4a56bd3ad76424e31ed8855ef9ad14a0ce4e67508c76ff082e5c1466b1326000878785818110610b0157610b01611ebd565b9050602002810190610b139190611eec565b604051610b21929190611f51565b6040805191829003909120825260208201929092520160002080547fffffffffffffffffffffffffffffffffffffffffffffffffffffffffffffff001691151591909117905580610b7181611f90565b915050610ac2565b5060005b8b811015610bdf57610bcd8d8d83818110610b9a57610b9a611ebd565b9050602002016020810190610baf9190611b92565b8c8c84818110610bc157610bc1611ebd565b90506020020135611359565b80610bd781611f90565b915050610b7d565b50505050505050505050505050565b6040805173ffffffffffffffffffffffffffffffffffffffff871660208201529081018590526060810184905246608082015260a001604080517fffffffffffffffffffffffffffffffffffffffffffffffffffffffffffffffe081840301815291905280516020909101208282600080610c6d856102c88587611dca565b91509150818190610cab576040517f08c379a000000000000000000000000000000000000000000000000000000000815260040161030b9190611a5b565b5060005b83811015610d665760017f255f4a56bd3ad76424e31ed8855ef9ad14a0ce4e67508c76ff082e5c1466b1326000878785818110610cee57610cee611ebd565b9050602002810190610d009190611eec565b604051610d0e929190611f51565b6040805191829003909120825260208201929092520160002080547fffffffffffffffffffffffffffffffffffffffffffffffffffffffffffffff001691151591909117905580610d5e81611f90565b915050610caf565b5073ffffffffffffffffffffffffffffffffffffffff8a1660009081527f255f4a56bd3ad76424e31ed8855ef9ad14a0ce4e67508c76ff082e5c1466b13160205260409020547f255f4a56bd3ad76424e31ed8855ef9ad14a0ce4e67508c76ff082e5c1466b130548a91610dd99161211a565b610de3919061212d565b7f255f4a56bd3ad76424e31ed8855ef9ad14a0ce4e67508c76ff082e5c1466b13081905515801590610e5757507f255f4a56bd3ad76424e31ed8855ef9ad14a0ce4e67508c76ff082e5c1466b12f547f255f4a56bd3ad76424e31ed8855ef9ad14a0ce4e67508c76ff082e5c1466b1305410155b610ebd576040517f08c379a000000000000000000000000000000000000000000000000000000000815260206004820152601d60248201527f5468726573686f6c6420776f756c6420626520696d706f737369626c65000000604482015260640161030b565b5050505073ffffffffffffffffffffffffffffffffffffffff9590951660009081527f255f4a56bd3ad76424e31ed8855ef9ad14a0ce4e67508c76ff082e5c1466b131602052604090209390935550505050565b600060606000805b84518110156110b0576000610f4787878481518110610f3a57610f3a611ebd565b60200260200101516113db565b73ffffffffffffffffffffffffffffffffffffffff811660009081527f255f4a56bd3ad76424e31ed8855ef9ad14a0ce4e67508c76ff082e5c1466b131602052604081205491925003610fbb5760006040518060600160405280603281526020016121966032913994509450505050611115565b6000868381518110610fcf57610fcf611ebd565b60200260200101518051906020012090506110077f255f4a56bd3ad76424e31ed8855ef9ad14a0ce4e67508c76ff082e5c1466b12f90565b6000828152600391909101602052604090205460ff161561104a5760006040518060600160405280602381526020016121c8602391399550955050505050611115565b73ffffffffffffffffffffffffffffffffffffffff821660009081527f255f4a56bd3ad76424e31ed8855ef9ad14a0ce4e67508c76ff082e5c1466b1316020526040902054611099908561212d565b9350505080806110a890611f90565b915050610f19565b507f255f4a56bd3ad76424e31ed8855ef9ad14a0ce4e67508c76ff082e5c1466b12f548110156110ff576000604051806060016040528060268152602001612170602691399250925050611115565b5050604080516020810190915260008152600191505b9250929050565b606060008061112e6020850185611b92565b73ffffffffffffffffffffffffffffffffffffffff1660208501356111566060870187611eec565b604051611164929190611f51565b60006040518083038185875af1925050503d80600081146111a1576040519150601f19603f3d011682016040523d82523d6000602084013e6111a6565b606091505b5091509150816111b857805160208201fd5b9392505050565b73ffffffffffffffffffffffffffffffffffffffff811660009081527f255f4a56bd3ad76424e31ed8855ef9ad14a0ce4e67508c76ff082e5c1466b13160205260408120547f255f4a56bd3ad76424e31ed8855ef9ad14a0ce4e67508c76ff082e5c1466b13080549192909161123690849061211a565b90915550507f255f4a56bd3ad76424e31ed8855ef9ad14a0ce4e67508c76ff082e5c1466b13054158015906112ad57507f255f4a56bd3ad76424e31ed8855ef9ad14a0ce4e67508c76ff082e5c1466b12f547f255f4a56bd3ad76424e31ed8855ef9ad14a0ce4e67508c76ff082e5c1466b1305410155b611313576040517f08c379a000000000000000000000000000000000000000000000000000000000815260206004820152601d60248201527f5468726573686f6c6420776f756c6420626520696d706f737369626c65000000604482015260640161030b565b73ffffffffffffffffffffffffffffffffffffffff1660009081527f255f4a56bd3ad76424e31ed8855ef9ad14a0ce4e67508c76ff082e5c1466b1316020526040812055565b807f255f4a56bd3ad76424e31ed8855ef9ad14a0ce4e67508c76ff082e5c1466b12f600101600082825461138d919061212d565b909155505073ffffffffffffffffffffffffffffffffffffffff9190911660009081527f255f4a56bd3ad76424e31ed8855ef9ad14a0ce4e67508c76ff082e5c1466b1316020526040902055565b600061143e82611438856040517f19457468657265756d205369676e6564204d6573736167653a0a3332000000006020820152603c8101829052600090605c01604051602081830303815290604052805190602001209050919050565b90611447565b90505b92915050565b6000806000611456858561146b565b91509150611463816114ad565b509392505050565b60008082516041036114a15760208301516040840151606085015160001a61149587828585611663565b94509450505050611115565b50600090506002611115565b60008160048111156114c1576114c1612140565b036114c95750565b60018160048111156114dd576114dd612140565b03611544576040517f08c379a000000000000000000000000000000000000000000000000000000000815260206004820152601860248201527f45434453413a20696e76616c6964207369676e61747572650000000000000000604482015260640161030b565b600281600481111561155857611558612140565b036115bf576040517f08c379a000000000000000000000000000000000000000000000000000000000815260206004820152601f60248201527f45434453413a20696e76616c6964207369676e6174757265206c656e67746800604482015260640161030b565b60038160048111156115d3576115d3612140565b03611660576040517f08c379a000000000000000000000000000000000000000000000000000000000815260206004820152602260248201527f45434453413a20696e76616c6964207369676e6174757265202773272076616c60448201527f7565000000000000000000000000000000000000000000000000000000000000606482015260840161030b565b50565b6000807f7fffffffffffffffffffffffffffffff5d576e7357a4501ddfe92f46681b20a083111561169a5750600090506003611749565b6040805160008082526020820180845289905260ff881692820192909252606081018690526080810185905260019060a0016020604051602081039080840390855afa1580156116ee573d6000803e3d6000fd5b50506040517fffffffffffffffffffffffffffffffffffffffffffffffffffffffffffffffe0015191505073ffffffffffffffffffffffffffffffffffffffff811661174257600060019250925050611749565b9150600090505b94509492505050565b60006020828403121561176457600080fd5b81357fffffffff00000000000000000000000000000000000000000000000000000000811681146111b857600080fd5b60008083601f8401126117a657600080fd5b50813567ffffffffffffffff8111156117be57600080fd5b6020830191508360208260051b850101111561111557600080fd5b600080600080604085870312156117ef57600080fd5b843567ffffffffffffffff8082111561180757600080fd5b61181388838901611794565b9096509450602087013591508082111561182c57600080fd5b5061183987828801611794565b95989497509550505050565b6000815180845260005b8181101561186b5760208185018101518683018201520161184f565b5060006020828601015260207fffffffffffffffffffffffffffffffffffffffffffffffffffffffffffffffe0601f83011685010191505092915050565b6000602080830181845280855180835260408601915060408160051b870101925083870160005b8281101561191c577fffffffffffffffffffffffffffffffffffffffffffffffffffffffffffffffc088860301845261190a858351611845565b945092850192908501906001016118d0565b5092979650505050505050565b60008060008060006060868803121561194157600080fd5b853567ffffffffffffffff8082111561195957600080fd5b61196589838a01611794565b909750955060208801359450604088013591508082111561198557600080fd5b5061199288828901611794565b969995985093965092949392505050565b600080600080606085870312156119b957600080fd5b8435935060208501359250604085013567ffffffffffffffff8111156119de57600080fd5b61183987828801611794565b6000806000604084860312156119ff57600080fd5b833567ffffffffffffffff80821115611a1757600080fd5b9085019060808288031215611a2b57600080fd5b90935060208501359080821115611a4157600080fd5b50611a4e86828701611794565b9497909650939450505050565b60208152600061143e6020830184611845565b60008060008060008060006080888a031215611a8957600080fd5b873567ffffffffffffffff80821115611aa157600080fd5b611aad8b838c01611794565b909950975060208a0135915080821115611ac657600080fd5b611ad28b838c01611794565b909750955060408a0135945060608a0135915080821115611af257600080fd5b50611aff8a828b01611794565b989b979a50959850939692959293505050565b803573ffffffffffffffffffffffffffffffffffffffff81168114611b3657600080fd5b919050565b600080600080600060808688031215611b5357600080fd5b611b5c86611b12565b94506020860135935060408601359250606086013567ffffffffffffffff811115611b8657600080fd5b61199288828901611794565b600060208284031215611ba457600080fd5b61143e82611b12565b73ffffffffffffffffffffffffffffffffffffffff611bcb82611b12565b1682526020810135602083015260408101356040830152600060608201357fffffffffffffffffffffffffffffffffffffffffffffffffffffffffffffffe1833603018112611c1957600080fd5b820160208101903567ffffffffffffffff811115611c3657600080fd5b803603821315611c4557600080fd5b60806060860152806080860152808260a0870137600060a0828701015260a07fffffffffffffffffffffffffffffffffffffffffffffffffffffffffffffffe0601f8301168601019250505092915050565b6040808252810183905260006060600585901b830181019083018683805b88811015611d37577fffffffffffffffffffffffffffffffffffffffffffffffffffffffffffffffa087860301845282357fffffffffffffffffffffffffffffffffffffffffffffffffffffffffffffff818b3603018112611d15578283fd5b611d21868c8301611bad565b9550506020938401939290920191600101611cb5565b50505050602092909201929092529392505050565b7f4e487b7100000000000000000000000000000000000000000000000000000000600052604160045260246000fd5b604051601f82017fffffffffffffffffffffffffffffffffffffffffffffffffffffffffffffffe016810167ffffffffffffffff81118282101715611dc257611dc2611d4c565b604052919050565b600067ffffffffffffffff80841115611de557611de5611d4c565b8360051b6020611df6818301611d7b565b868152918501918181019036841115611e0e57600080fd5b865b84811015611eb157803586811115611e285760008081fd5b8801601f3681830112611e3b5760008081fd5b813588811115611e4d57611e4d611d4c565b611e7c877fffffffffffffffffffffffffffffffffffffffffffffffffffffffffffffffe08484011601611d7b565b91508082523687828501011115611e935760008081fd5b80878401888401376000908201870152845250918301918301611e10565b50979650505050505050565b7f4e487b7100000000000000000000000000000000000000000000000000000000600052603260045260246000fd5b60008083357fffffffffffffffffffffffffffffffffffffffffffffffffffffffffffffffe1843603018112611f2157600080fd5b83018035915067ffffffffffffffff821115611f3c57600080fd5b60200191503681900382131561111557600080fd5b8183823760009101908152919050565b7f4e487b7100000000000000000000000000000000000000000000000000000000600052601160045260246000fd5b60007fffffffffffffffffffffffffffffffffffffffffffffffffffffffffffffffff8203611fc157611fc1611f61565b5060010190565b600082357fffffffffffffffffffffffffffffffffffffffffffffffffffffffffffffff81833603018112611ffc57600080fd5b9190910192915050565b8183526000602080850194508260005b8581101561204f5773ffffffffffffffffffffffffffffffffffffffff61203c83611b12565b1687529582019590820190600101612016565b509495945050505050565b60608152600061206e606083018688612006565b6020830194909452506040015292915050565b6040815260006120946040830185611bad565b90508260208301529392505050565b6080815260006120b760808301888a612006565b82810360208401528581527f07ffffffffffffffffffffffffffffffffffffffffffffffffffffffffffffff8611156120ef57600080fd5b8560051b80886020840137604084019590955260609092019290925290910160200195945050505050565b8181038181111561144157611441611f61565b8082018082111561144157611441611f61565b7f4e487b7100000000000000000000000000000000000000000000000000000000600052602160045260246000fdfe5369676e6572207765696768747320646f6573206e6f74206d656574207468726573686f6c644174206c65617374206f6e65207369676e6174757265206e6f742066726f6d2061206b6e6f776e20636f6e74726f6c6c65724174206c65617374206f6e65207369676e617475726520616c72656164792075736564a264697066735822122091ea98421799e256f062957127743dbdbcac65e5e36d33eb6f9ed62cb3b7b16664736f6c63430008120033",
  "linkReferences": {},
  "deployedLinkReferences": {}
}