{
  "_format": "hh-sol-artifact-1",
  "contractName": "Calls",
  "sourceName": "contracts/modules/Calls/Calls.sol",
  "abi": [
    {
      "inputs": [
        {
          "internalType": "address[]",
          "name": "_controllers",
          "type": "address[]"
        },
        {
          "internalType": "uint256[]",
          "name": "_weights",
          "type": "uint256[]"
        },
        {
          "internalType": "uint256",
          "name": "_nonce",
          "type": "uint256"
        },
        {
          "internalType": "bytes[]",
          "name": "_signatures",
          "type": "bytes[]"
        }
      ],
      "name": "addControllers",
      "outputs": [],
      "stateMutability": "nonpayable",
      "type": "function"
    },
    {
      "inputs": [],
      "name": "controlThreshold",
      "outputs": [
        {
          "internalType": "uint256",
          "name": "",
          "type": "uint256"
        }
      ],
      "stateMutability": "view",
      "type": "function"
    },
    {
      "inputs": [
        {
          "internalType": "address",
          "name": "_controller",
          "type": "address"
        }
      ],
      "name": "controllerWeight",
      "outputs": [
        {
          "internalType": "uint256",
          "name": "",
          "type": "uint256"
        }
      ],
      "stateMutability": "view",
      "type": "function"
    },
    {
      "inputs": [],
      "name": "controllersTotalWeight",
      "outputs": [
        {
          "internalType": "uint256",
          "name": "",
          "type": "uint256"
        }
      ],
      "stateMutability": "view",
      "type": "function"
    },
    {
      "inputs": [
        {
          "components": [
            {
              "internalType": "address",
              "name": "target",
              "type": "address"
            },
            {
              "internalType": "uint256",
              "name": "value",
              "type": "uint256"
            },
            {
              "internalType": "uint256",
              "name": "nonce",
              "type": "uint256"
            },
            {
              "internalType": "bytes",
              "name": "data",
              "type": "bytes"
            }
          ],
          "internalType": "struct CallsStructs.ExecuteRequest",
          "name": "_executeRequest",
          "type": "tuple"
        },
        {
          "internalType": "bytes[]",
          "name": "_signatures",
          "type": "bytes[]"
        }
      ],
      "name": "execute",
      "outputs": [
        {
          "internalType": "bytes",
          "name": "",
          "type": "bytes"
        }
      ],
      "stateMutability": "nonpayable",
      "type": "function"
    },
    {
      "inputs": [
        {
          "components": [
            {
              "internalType": "address",
              "name": "target",
              "type": "address"
            },
            {
              "internalType": "uint256",
              "name": "value",
              "type": "uint256"
            },
            {
              "internalType": "uint256",
              "name": "nonce",
              "type": "uint256"
            },
            {
              "internalType": "bytes",
              "name": "data",
              "type": "bytes"
            }
          ],
          "internalType": "struct CallsStructs.ExecuteRequest[]",
          "name": "_executeRequests",
          "type": "tuple[]"
        },
        {
          "internalType": "bytes[]",
          "name": "_signatures",
          "type": "bytes[]"
        }
      ],
      "name": "multiExecute",
      "outputs": [
        {
          "internalType": "bytes[]",
          "name": "",
          "type": "bytes[]"
        }
      ],
      "stateMutability": "nonpayable",
      "type": "function"
    },
    {
      "inputs": [
        {
          "internalType": "address[]",
          "name": "_controllers",
          "type": "address[]"
        },
        {
          "internalType": "uint256",
          "name": "_nonce",
          "type": "uint256"
        },
        {
          "internalType": "bytes[]",
          "name": "_signatures",
          "type": "bytes[]"
        }
      ],
      "name": "removeControllers",
      "outputs": [],
      "stateMutability": "nonpayable",
      "type": "function"
    },
    {
      "inputs": [
        {
          "internalType": "uint256",
          "name": "_threshold",
          "type": "uint256"
        },
        {
          "internalType": "uint256",
          "name": "_nonce",
          "type": "uint256"
        },
        {
          "internalType": "bytes[]",
          "name": "_signatures",
          "type": "bytes[]"
        }
      ],
      "name": "updateControlThreshold",
      "outputs": [],
      "stateMutability": "nonpayable",
      "type": "function"
    },
    {
      "inputs": [
        {
          "internalType": "address",
          "name": "_controller",
          "type": "address"
        },
        {
          "internalType": "uint256",
          "name": "_weight",
          "type": "uint256"
        },
        {
          "internalType": "uint256",
          "name": "_nonce",
          "type": "uint256"
        },
        {
          "internalType": "bytes[]",
          "name": "_signatures",
          "type": "bytes[]"
        }
      ],
      "name": "updateControllerWeight",
      "outputs": [],
      "stateMutability": "nonpayable",
      "type": "function"
    }
  ],
  "bytecode": "0x608060405234801561001057600080fd5b5061215e806100206000396000f3fe608060405234801561001057600080fd5b50600436106100a35760003560e01c8063a3e8d51e11610076578063af9154981161005b578063af9154981461016d578063d0bccea114610180578063f04420f11461019357600080fd5b8063a3e8d51e14610126578063a78650901461014657600080fd5b806306e82383146100a85780630d992b2b146100de578063286936bb146100fe57806387f949b414610113575b600080fd5b7f255f4a56bd3ad76424e31ed8855ef9ad14a0ce4e67508c76ff082e5c1466b130545b6040519081526020015b60405180910390f35b6100f16100ec366004611717565b6101e8565b6040516100d591906117e7565b61011161010c366004611867565b610417565b005b6101116101213660046118e1565b6105ca565b610139610134366004611928565b61082e565b6040516100d59190611999565b7f255f4a56bd3ad76424e31ed8855ef9ad14a0ce4e67508c76ff082e5c1466b12f546100cb565b61011161017b3660046119ac565b61099c565b61011161018e366004611a79565b610b6e565b6100cb6101a1366004611ad0565b73ffffffffffffffffffffffffffffffffffffffff1660009081527f255f4a56bd3ad76424e31ed8855ef9ad14a0ce4e67508c76ff082e5c1466b131602052604090205490565b60608484466040516020016101ff93929190611bd5565b604080517fffffffffffffffffffffffffffffffffffffffffffffffffffffffffffffffe08184030181529190528051602090910120838360008061024d856102488587611d08565b610e91565b91509150818190610294576040517f08c379a000000000000000000000000000000000000000000000000000000000815260040161028b9190611999565b60405180910390fd5b5060005b8381101561034f5760017f255f4a56bd3ad76424e31ed8855ef9ad14a0ce4e67508c76ff082e5c1466b13260008787858181106102d7576102d7611dfb565b90506020028101906102e99190611e2a565b6040516102f7929190611e8f565b6040805191829003909120825260208201929092520160002080547fffffffffffffffffffffffffffffffffffffffffffffffffffffffffffffff00169115159190911790558061034781611ece565b915050610298565b5060008967ffffffffffffffff81111561036b5761036b611c8a565b60405190808252806020026020018201604052801561039e57816020015b60608152602001906001900390816103895790505b50905060005b8a811015610408576103d88c8c838181106103c1576103c1611dfb565b90506020028101906103d39190611f06565b61109c565b8282815181106103ea576103ea611dfb565b6020026020010181905250808061040090611ece565b9150506103a4565b509a9950505050505050505050565b8484844660405160200161042e9493929190611f98565b604080517fffffffffffffffffffffffffffffffffffffffffffffffffffffffffffffffe081840301815291905280516020909101208282600080610477856102488587611d08565b915091508181906104b5576040517f08c379a000000000000000000000000000000000000000000000000000000000815260040161028b9190611999565b5060005b838110156105705760017f255f4a56bd3ad76424e31ed8855ef9ad14a0ce4e67508c76ff082e5c1466b13260008787858181106104f8576104f8611dfb565b905060200281019061050a9190611e2a565b604051610518929190611e8f565b6040805191829003909120825260208201929092520160002080547fffffffffffffffffffffffffffffffffffffffffffffffffffffffffffffff00169115159190911790558061056881611ece565b9150506104b9565b5060005b898110156105bd576105ab8b8b8381811061059157610591611dfb565b90506020020160208101906105a69190611ad0565b61113f565b806105b581611ece565b915050610574565b5050505050505050505050565b6040805160208101869052908101849052466060820152608001604080517fffffffffffffffffffffffffffffffffffffffffffffffffffffffffffffffe08184030181529190528051602090910120828260008061062d856102488587611d08565b9150915081819061066b576040517f08c379a000000000000000000000000000000000000000000000000000000000815260040161028b9190611999565b5060005b838110156107265760017f255f4a56bd3ad76424e31ed8855ef9ad14a0ce4e67508c76ff082e5c1466b13260008787858181106106ae576106ae611dfb565b90506020028101906106c09190611e2a565b6040516106ce929190611e8f565b6040805191829003909120825260208201929092520160002080547fffffffffffffffffffffffffffffffffffffffffffffffffffffffffffffff00169115159190911790558061071e81611ece565b91505061066f565b5060007f255f4a56bd3ad76424e31ed8855ef9ad14a0ce4e67508c76ff082e5c1466b12f5411801561079a57507f255f4a56bd3ad76424e31ed8855ef9ad14a0ce4e67508c76ff082e5c1466b130547f255f4a56bd3ad76424e31ed8855ef9ad14a0ce4e67508c76ff082e5c1466b12f5411155b610800576040517f08c379a000000000000000000000000000000000000000000000000000000000815260206004820152601160248201527f496e76616c6964207468726573686f6c64000000000000000000000000000000604482015260640161028b565b887f255f4a56bd3ad76424e31ed8855ef9ad14a0ce4e67508c76ff082e5c1466b12f55505050505050505050565b60608346604051602001610843929190611fbf565b604080517fffffffffffffffffffffffffffffffffffffffffffffffffffffffffffffffe08184030181529190528051602090910120838360008061088c856102488587611d08565b915091508181906108ca576040517f08c379a000000000000000000000000000000000000000000000000000000000815260040161028b9190611999565b5060005b838110156109855760017f255f4a56bd3ad76424e31ed8855ef9ad14a0ce4e67508c76ff082e5c1466b132600087878581811061090d5761090d611dfb565b905060200281019061091f9190611e2a565b60405161092d929190611e8f565b6040805191829003909120825260208201929092520160002080547fffffffffffffffffffffffffffffffffffffffffffffffffffffffffffffff00169115159190911790558061097d81611ece565b9150506108ce565b5061098f8961109c565b9998505050505050505050565b8686868686466040516020016109b796959493929190611fe1565b604080517fffffffffffffffffffffffffffffffffffffffffffffffffffffffffffffffe081840301815291905280516020909101208282600080610a00856102488587611d08565b91509150818190610a3e576040517f08c379a000000000000000000000000000000000000000000000000000000000815260040161028b9190611999565b5060005b83811015610af95760017f255f4a56bd3ad76424e31ed8855ef9ad14a0ce4e67508c76ff082e5c1466b1326000878785818110610a8157610a81611dfb565b9050602002810190610a939190611e2a565b604051610aa1929190611e8f565b6040805191829003909120825260208201929092520160002080547fffffffffffffffffffffffffffffffffffffffffffffffffffffffffffffff001691151591909117905580610af181611ece565b915050610a42565b5060005b8b811015610b5f57610b4d8d8d83818110610b1a57610b1a611dfb565b9050602002016020810190610b2f9190611ad0565b8c8c84818110610b4157610b41611dfb565b905060200201356112d9565b80610b5781611ece565b915050610afd565b50505050505050505050505050565b6040805173ffffffffffffffffffffffffffffffffffffffff871660208201529081018590526060810184905246608082015260a001604080517fffffffffffffffffffffffffffffffffffffffffffffffffffffffffffffffe081840301815291905280516020909101208282600080610bed856102488587611d08565b91509150818190610c2b576040517f08c379a000000000000000000000000000000000000000000000000000000000815260040161028b9190611999565b5060005b83811015610ce65760017f255f4a56bd3ad76424e31ed8855ef9ad14a0ce4e67508c76ff082e5c1466b1326000878785818110610c6e57610c6e611dfb565b9050602002810190610c809190611e2a565b604051610c8e929190611e8f565b6040805191829003909120825260208201929092520160002080547fffffffffffffffffffffffffffffffffffffffffffffffffffffffffffffff001691151591909117905580610cde81611ece565b915050610c2f565b5073ffffffffffffffffffffffffffffffffffffffff8a1660009081527f255f4a56bd3ad76424e31ed8855ef9ad14a0ce4e67508c76ff082e5c1466b13160205260409020547f255f4a56bd3ad76424e31ed8855ef9ad14a0ce4e67508c76ff082e5c1466b130548a91610d5991612058565b610d63919061206b565b7f255f4a56bd3ad76424e31ed8855ef9ad14a0ce4e67508c76ff082e5c1466b13081905515801590610dd757507f255f4a56bd3ad76424e31ed8855ef9ad14a0ce4e67508c76ff082e5c1466b12f547f255f4a56bd3ad76424e31ed8855ef9ad14a0ce4e67508c76ff082e5c1466b1305410155b610e3d576040517f08c379a000000000000000000000000000000000000000000000000000000000815260206004820152601d60248201527f5468726573686f6c6420776f756c6420626520696d706f737369626c65000000604482015260640161028b565b5050505073ffffffffffffffffffffffffffffffffffffffff9590951660009081527f255f4a56bd3ad76424e31ed8855ef9ad14a0ce4e67508c76ff082e5c1466b131602052604090209390935550505050565b600060606000805b8451811015611030576000610ec787878481518110610eba57610eba611dfb565b602002602001015161135b565b73ffffffffffffffffffffffffffffffffffffffff811660009081527f255f4a56bd3ad76424e31ed8855ef9ad14a0ce4e67508c76ff082e5c1466b131602052604081205491925003610f3b5760006040518060600160405280603281526020016120d46032913994509450505050611095565b6000868381518110610f4f57610f4f611dfb565b6020026020010151805190602001209050610f877f255f4a56bd3ad76424e31ed8855ef9ad14a0ce4e67508c76ff082e5c1466b12f90565b6000828152600391909101602052604090205460ff1615610fca576000604051806060016040528060238152602001612106602391399550955050505050611095565b73ffffffffffffffffffffffffffffffffffffffff821660009081527f255f4a56bd3ad76424e31ed8855ef9ad14a0ce4e67508c76ff082e5c1466b1316020526040902054611019908561206b565b93505050808061102890611ece565b915050610e99565b507f255f4a56bd3ad76424e31ed8855ef9ad14a0ce4e67508c76ff082e5c1466b12f5481101561107f5760006040518060600160405280602681526020016120ae602691399250925050611095565b5050604080516020810190915260008152600191505b9250929050565b60606000806110ae6020850185611ad0565b73ffffffffffffffffffffffffffffffffffffffff1660208501356110d66060870187611e2a565b6040516110e4929190611e8f565b60006040518083038185875af1925050503d8060008114611121576040519150601f19603f3d011682016040523d82523d6000602084013e611126565b606091505b50915091508161113857805160208201fd5b9392505050565b73ffffffffffffffffffffffffffffffffffffffff811660009081527f255f4a56bd3ad76424e31ed8855ef9ad14a0ce4e67508c76ff082e5c1466b13160205260408120547f255f4a56bd3ad76424e31ed8855ef9ad14a0ce4e67508c76ff082e5c1466b1308054919290916111b6908490612058565b90915550507f255f4a56bd3ad76424e31ed8855ef9ad14a0ce4e67508c76ff082e5c1466b130541580159061122d57507f255f4a56bd3ad76424e31ed8855ef9ad14a0ce4e67508c76ff082e5c1466b12f547f255f4a56bd3ad76424e31ed8855ef9ad14a0ce4e67508c76ff082e5c1466b1305410155b611293576040517f08c379a000000000000000000000000000000000000000000000000000000000815260206004820152601d60248201527f5468726573686f6c6420776f756c6420626520696d706f737369626c65000000604482015260640161028b565b73ffffffffffffffffffffffffffffffffffffffff1660009081527f255f4a56bd3ad76424e31ed8855ef9ad14a0ce4e67508c76ff082e5c1466b1316020526040812055565b807f255f4a56bd3ad76424e31ed8855ef9ad14a0ce4e67508c76ff082e5c1466b12f600101600082825461130d919061206b565b909155505073ffffffffffffffffffffffffffffffffffffffff9190911660009081527f255f4a56bd3ad76424e31ed8855ef9ad14a0ce4e67508c76ff082e5c1466b1316020526040902055565b60006113be826113b8856040517f19457468657265756d205369676e6564204d6573736167653a0a3332000000006020820152603c8101829052600090605c01604051602081830303815290604052805190602001209050919050565b906113c7565b90505b92915050565b60008060006113d685856113eb565b915091506113e38161142d565b509392505050565b60008082516041036114215760208301516040840151606085015160001a611415878285856115e3565b94509450505050611095565b50600090506002611095565b60008160048111156114415761144161207e565b036114495750565b600181600481111561145d5761145d61207e565b036114c4576040517f08c379a000000000000000000000000000000000000000000000000000000000815260206004820152601860248201527f45434453413a20696e76616c6964207369676e61747572650000000000000000604482015260640161028b565b60028160048111156114d8576114d861207e565b0361153f576040517f08c379a000000000000000000000000000000000000000000000000000000000815260206004820152601f60248201527f45434453413a20696e76616c6964207369676e6174757265206c656e67746800604482015260640161028b565b60038160048111156115535761155361207e565b036115e0576040517f08c379a000000000000000000000000000000000000000000000000000000000815260206004820152602260248201527f45434453413a20696e76616c6964207369676e6174757265202773272076616c60448201527f7565000000000000000000000000000000000000000000000000000000000000606482015260840161028b565b50565b6000807f7fffffffffffffffffffffffffffffff5d576e7357a4501ddfe92f46681b20a083111561161a57506000905060036116c9565b6040805160008082526020820180845289905260ff881692820192909252606081018690526080810185905260019060a0016020604051602081039080840390855afa15801561166e573d6000803e3d6000fd5b50506040517fffffffffffffffffffffffffffffffffffffffffffffffffffffffffffffffe0015191505073ffffffffffffffffffffffffffffffffffffffff81166116c2576000600192509250506116c9565b9150600090505b94509492505050565b60008083601f8401126116e457600080fd5b50813567ffffffffffffffff8111156116fc57600080fd5b6020830191508360208260051b850101111561109557600080fd5b6000806000806040858703121561172d57600080fd5b843567ffffffffffffffff8082111561174557600080fd5b611751888389016116d2565b9096509450602087013591508082111561176a57600080fd5b50611777878288016116d2565b95989497509550505050565b6000815180845260005b818110156117a95760208185018101518683018201520161178d565b5060006020828601015260207fffffffffffffffffffffffffffffffffffffffffffffffffffffffffffffffe0601f83011685010191505092915050565b6000602080830181845280855180835260408601915060408160051b870101925083870160005b8281101561185a577fffffffffffffffffffffffffffffffffffffffffffffffffffffffffffffffc0888603018452611848858351611783565b9450928501929085019060010161180e565b5092979650505050505050565b60008060008060006060868803121561187f57600080fd5b853567ffffffffffffffff8082111561189757600080fd5b6118a389838a016116d2565b90975095506020880135945060408801359150808211156118c357600080fd5b506118d0888289016116d2565b969995985093965092949392505050565b600080600080606085870312156118f757600080fd5b8435935060208501359250604085013567ffffffffffffffff81111561191c57600080fd5b611777878288016116d2565b60008060006040848603121561193d57600080fd5b833567ffffffffffffffff8082111561195557600080fd5b908501906080828803121561196957600080fd5b9093506020850135908082111561197f57600080fd5b5061198c868287016116d2565b9497909650939450505050565b6020815260006113be6020830184611783565b60008060008060008060006080888a0312156119c757600080fd5b873567ffffffffffffffff808211156119df57600080fd5b6119eb8b838c016116d2565b909950975060208a0135915080821115611a0457600080fd5b611a108b838c016116d2565b909750955060408a0135945060608a0135915080821115611a3057600080fd5b50611a3d8a828b016116d2565b989b979a50959850939692959293505050565b803573ffffffffffffffffffffffffffffffffffffffff81168114611a7457600080fd5b919050565b600080600080600060808688031215611a9157600080fd5b611a9a86611a50565b94506020860135935060408601359250606086013567ffffffffffffffff811115611ac457600080fd5b6118d0888289016116d2565b600060208284031215611ae257600080fd5b6113be82611a50565b73ffffffffffffffffffffffffffffffffffffffff611b0982611a50565b1682526020810135602083015260408101356040830152600060608201357fffffffffffffffffffffffffffffffffffffffffffffffffffffffffffffffe1833603018112611b5757600080fd5b820160208101903567ffffffffffffffff811115611b7457600080fd5b803603821315611b8357600080fd5b60806060860152806080860152808260a0870137600060a0828701015260a07fffffffffffffffffffffffffffffffffffffffffffffffffffffffffffffffe0601f8301168601019250505092915050565b6040808252810183905260006060600585901b830181019083018683805b88811015611c75577fffffffffffffffffffffffffffffffffffffffffffffffffffffffffffffffa087860301845282357fffffffffffffffffffffffffffffffffffffffffffffffffffffffffffffff818b3603018112611c53578283fd5b611c5f868c8301611aeb565b9550506020938401939290920191600101611bf3565b50505050602092909201929092529392505050565b7f4e487b7100000000000000000000000000000000000000000000000000000000600052604160045260246000fd5b604051601f82017fffffffffffffffffffffffffffffffffffffffffffffffffffffffffffffffe016810167ffffffffffffffff81118282101715611d0057611d00611c8a565b604052919050565b600067ffffffffffffffff80841115611d2357611d23611c8a565b8360051b6020611d34818301611cb9565b868152918501918181019036841115611d4c57600080fd5b865b84811015611def57803586811115611d665760008081fd5b8801601f3681830112611d795760008081fd5b813588811115611d8b57611d8b611c8a565b611dba877fffffffffffffffffffffffffffffffffffffffffffffffffffffffffffffffe08484011601611cb9565b91508082523687828501011115611dd15760008081fd5b80878401888401376000908201870152845250918301918301611d4e565b50979650505050505050565b7f4e487b7100000000000000000000000000000000000000000000000000000000600052603260045260246000fd5b60008083357fffffffffffffffffffffffffffffffffffffffffffffffffffffffffffffffe1843603018112611e5f57600080fd5b83018035915067ffffffffffffffff821115611e7a57600080fd5b60200191503681900382131561109557600080fd5b8183823760009101908152919050565b7f4e487b7100000000000000000000000000000000000000000000000000000000600052601160045260246000fd5b60007fffffffffffffffffffffffffffffffffffffffffffffffffffffffffffffffff8203611eff57611eff611e9f565b5060010190565b600082357fffffffffffffffffffffffffffffffffffffffffffffffffffffffffffffff81833603018112611f3a57600080fd5b9190910192915050565b8183526000602080850194508260005b85811015611f8d5773ffffffffffffffffffffffffffffffffffffffff611f7a83611a50565b1687529582019590820190600101611f54565b509495945050505050565b606081526000611fac606083018688611f44565b6020830194909452506040015292915050565b604081526000611fd26040830185611aeb565b90508260208301529392505050565b608081526000611ff560808301888a611f44565b82810360208401528581527f07ffffffffffffffffffffffffffffffffffffffffffffffffffffffffffffff86111561202d57600080fd5b8560051b80886020840137604084019590955260609092019290925290910160200195945050505050565b818103818111156113c1576113c1611e9f565b808201808211156113c1576113c1611e9f565b7f4e487b7100000000000000000000000000000000000000000000000000000000600052602160045260246000fdfe5369676e6572207765696768747320646f6573206e6f74206d656574207468726573686f6c644174206c65617374206f6e65207369676e6174757265206e6f742066726f6d2061206b6e6f776e20636f6e74726f6c6c65724174206c65617374206f6e65207369676e617475726520616c72656164792075736564a264697066735822122065ecffde6738b6be36058bed7422683460c2f06b5f70620798111fd73261503864736f6c63430008120033",
  "linkReferences": {},
  "deployedLinkReferences": {}
}