{
  "_format": "hh-sol-artifact-1",
  "contractName": "Hooks",
  "sourceName": "contracts/modules/Hooks/Hooks.sol",
  "abi": [
    {
      "inputs": [
        {
          "internalType": "address",
          "name": "",
          "type": "address"
        },
        {
          "internalType": "address",
          "name": "",
          "type": "address"
        },
        {
          "internalType": "uint256[]",
          "name": "",
          "type": "uint256[]"
        },
        {
          "internalType": "uint256[]",
          "name": "",
          "type": "uint256[]"
        },
        {
          "internalType": "bytes",
          "name": "",
          "type": "bytes"
        }
      ],
      "name": "onERC1155BatchReceived",
      "outputs": [
        {
          "internalType": "bytes4",
          "name": "",
          "type": "bytes4"
        }
      ],
      "stateMutability": "pure",
      "type": "function"
    },
    {
      "inputs": [
        {
          "internalType": "address",
          "name": "",
          "type": "address"
        },
        {
          "internalType": "address",
          "name": "",
          "type": "address"
        },
        {
          "internalType": "uint256",
          "name": "",
          "type": "uint256"
        },
        {
          "internalType": "uint256",
          "name": "",
          "type": "uint256"
        },
        {
          "internalType": "bytes",
          "name": "",
          "type": "bytes"
        }
      ],
      "name": "onERC1155Received",
      "outputs": [
        {
          "internalType": "bytes4",
          "name": "",
          "type": "bytes4"
        }
      ],
      "stateMutability": "pure",
      "type": "function"
    },
    {
      "inputs": [
        {
          "internalType": "address",
          "name": "",
          "type": "address"
        },
        {
          "internalType": "address",
          "name": "",
          "type": "address"
        },
        {
          "internalType": "uint256",
          "name": "",
          "type": "uint256"
        },
        {
          "internalType": "bytes",
          "name": "",
          "type": "bytes"
        }
      ],
      "name": "onERC721Received",
      "outputs": [
        {
          "internalType": "bytes4",
          "name": "",
          "type": "bytes4"
        }
      ],
      "stateMutability": "pure",
      "type": "function"
    },
    {
      "stateMutability": "payable",
      "type": "receive"
    }
  ],
  "bytecode": "0x608060405234801561001057600080fd5b506103db806100206000396000f3fe6080604052600436106100385760003560e01c8063150b7a0214610044578063bc197c81146100be578063f23a6e611461010657600080fd5b3661003f57005b600080fd5b34801561005057600080fd5b5061008961005f3660046101be565b7f150b7a020000000000000000000000000000000000000000000000000000000095945050505050565b6040517fffffffff00000000000000000000000000000000000000000000000000000000909116815260200160405180910390f35b3480156100ca57600080fd5b506100896100d9366004610272565b7fbc197c810000000000000000000000000000000000000000000000000000000098975050505050505050565b34801561011257600080fd5b5061008961012136600461032d565b7ff23a6e61000000000000000000000000000000000000000000000000000000009695505050505050565b803573ffffffffffffffffffffffffffffffffffffffff8116811461017057600080fd5b919050565b60008083601f84011261018757600080fd5b50813567ffffffffffffffff81111561019f57600080fd5b6020830191508360208285010111156101b757600080fd5b9250929050565b6000806000806000608086880312156101d657600080fd5b6101df8661014c565b94506101ed6020870161014c565b935060408601359250606086013567ffffffffffffffff81111561021057600080fd5b61021c88828901610175565b969995985093965092949392505050565b60008083601f84011261023f57600080fd5b50813567ffffffffffffffff81111561025757600080fd5b6020830191508360208260051b85010111156101b757600080fd5b60008060008060008060008060a0898b03121561028e57600080fd5b6102978961014c565b97506102a560208a0161014c565b9650604089013567ffffffffffffffff808211156102c257600080fd5b6102ce8c838d0161022d565b909850965060608b01359150808211156102e757600080fd5b6102f38c838d0161022d565b909650945060808b013591508082111561030c57600080fd5b506103198b828c01610175565b999c989b5096995094979396929594505050565b60008060008060008060a0878903121561034657600080fd5b61034f8761014c565b955061035d6020880161014c565b94506040870135935060608701359250608087013567ffffffffffffffff81111561038757600080fd5b61039389828a01610175565b979a969950949750929593949250505056fea264697066735822122036127c1deb6fdad890638bdc900b1d2593c7819b3dccc17c7da3d9aecce0727b64736f6c63430008120033",
  "linkReferences": {},
  "deployedLinkReferences": {}
}