{
  "_format": "hh-sol-artifact-1",
  "contractName": "SessionCalls",
  "sourceName": "contracts/modules/SessionCalls/SessionCalls.sol",
  "abi": [
    {
      "inputs": [],
      "stateMutability": "nonpayable",
      "type": "constructor"
    },
    {
      "inputs": [],
      "name": "ArraryLengthMismatch",
      "type": "error"
    },
    {
      "inputs": [],
      "name": "ControllerAlreadyExists",
      "type": "error"
    },
    {
      "inputs": [],
      "name": "ControllerDoesNotExist",
      "type": "error"
    },
    {
      "inputs": [],
      "name": "ControllersNotInitialized",
      "type": "error"
    },
    {
      "inputs": [],
      "name": "Create2EmptyBytecode",
      "type": "error"
    },
    {
      "inputs": [],
      "name": "Create2FailedDeployment",
      "type": "error"
    },
    {
      "inputs": [
        {
          "internalType": "uint256",
          "name": "balance",
          "type": "uint256"
        },
        {
          "internalType": "uint256",
          "name": "needed",
          "type": "uint256"
        }
      ],
      "name": "Create2InsufficientBalance",
      "type": "error"
    },
    {
      "inputs": [],
      "name": "CreateInitCodeFailed",
      "type": "error"
    },
    {
      "inputs": [],
      "name": "DeadlineReached",
      "type": "error"
    },
    {
      "inputs": [],
      "name": "ECDSAInvalidSignature",
      "type": "error"
    },
    {
      "inputs": [
        {
          "internalType": "uint256",
          "name": "length",
          "type": "uint256"
        }
      ],
      "name": "ECDSAInvalidSignatureLength",
      "type": "error"
    },
    {
      "inputs": [
        {
          "internalType": "bytes32",
          "name": "s",
          "type": "bytes32"
        }
      ],
      "name": "ECDSAInvalidSignatureS",
      "type": "error"
    },
    {
      "inputs": [
        {
          "internalType": "address",
          "name": "tokenAddress",
          "type": "address"
        },
        {
          "internalType": "uint256",
          "name": "tokenId",
          "type": "uint256"
        },
        {
          "internalType": "uint256",
          "name": "amount",
          "type": "uint256"
        },
        {
          "internalType": "uint256",
          "name": "allowance",
          "type": "uint256"
        }
      ],
      "name": "InsufficientAllowanceForERC1155Transfer",
      "type": "error"
    },
    {
      "inputs": [
        {
          "internalType": "address",
          "name": "tokenAddress",
          "type": "address"
        },
        {
          "internalType": "uint256",
          "name": "amount",
          "type": "uint256"
        },
        {
          "internalType": "uint256",
          "name": "allowance",
          "type": "uint256"
        }
      ],
      "name": "InsufficientAllowanceForERC20Transfer",
      "type": "error"
    },
    {
      "inputs": [
        {
          "internalType": "address",
          "name": "tokenAddress",
          "type": "address"
        },
        {
          "internalType": "uint256",
          "name": "tokenId",
          "type": "uint256"
        }
      ],
      "name": "InsufficientAllowanceForERC721Transfer",
      "type": "error"
    },
    {
      "inputs": [],
      "name": "InsufficientFunds",
      "type": "error"
    },
    {
      "inputs": [
        {
          "internalType": "uint256",
          "name": "amount",
          "type": "uint256"
        },
        {
          "internalType": "uint256",
          "name": "allowance",
          "type": "uint256"
        }
      ],
      "name": "InsufficientNativeTokenAllowance",
      "type": "error"
    },
    {
      "inputs": [],
      "name": "InvalidInitialization",
      "type": "error"
    },
    {
      "inputs": [],
      "name": "InvalidParameters",
      "type": "error"
    },
    {
      "inputs": [],
      "name": "InvalidThreshold",
      "type": "error"
    },
    {
      "inputs": [
        {
          "internalType": "address",
          "name": "sender",
          "type": "address"
        }
      ],
      "name": "NoSessionStarted",
      "type": "error"
    },
    {
      "inputs": [],
      "name": "NotInitializing",
      "type": "error"
    },
    {
      "inputs": [],
      "name": "RevertWithoutMessage",
      "type": "error"
    },
    {
      "inputs": [],
      "name": "SessionExpired",
      "type": "error"
    },
    {
      "inputs": [],
      "name": "ThresholdImpossible",
      "type": "error"
    },
    {
      "inputs": [
        {
          "internalType": "address",
          "name": "targetContract",
          "type": "address"
        },
        {
          "internalType": "bytes4",
          "name": "functionSelector",
          "type": "bytes4"
        }
      ],
      "name": "UnauthorizedSessionCall",
      "type": "error"
    },
    {
      "anonymous": false,
      "inputs": [
        {
          "indexed": false,
          "internalType": "uint64",
          "name": "version",
          "type": "uint64"
        }
      ],
      "name": "Initialized",
      "type": "event"
    },
    {
      "inputs": [],
      "name": "MAGIC_APPROVE_ALL_CONTRACT_ADDRESS",
      "outputs": [
        {
          "internalType": "address",
          "name": "",
          "type": "address"
        }
      ],
      "stateMutability": "view",
      "type": "function"
    },
    {
      "inputs": [
        {
          "internalType": "address[]",
          "name": "_controllers",
          "type": "address[]"
        },
        {
          "internalType": "uint256[]",
          "name": "_weights",
          "type": "uint256[]"
        },
        {
          "internalType": "uint256",
          "name": "_nonce",
          "type": "uint256"
        },
        {
          "internalType": "bytes[]",
          "name": "_signatures",
          "type": "bytes[]"
        },
        {
          "internalType": "uint256",
          "name": "_deadline",
          "type": "uint256"
        }
      ],
      "name": "addControllers",
      "outputs": [],
      "stateMutability": "nonpayable",
      "type": "function"
    },
    {
      "inputs": [
        {
          "components": [
            {
              "internalType": "address",
              "name": "target",
              "type": "address"
            },
            {
              "internalType": "uint256",
              "name": "value",
              "type": "uint256"
            },
            {
              "internalType": "uint256",
              "name": "nonce",
              "type": "uint256"
            },
            {
              "internalType": "bytes",
              "name": "data",
              "type": "bytes"
            }
          ],
          "internalType": "struct CallsStructs.CallRequest",
          "name": "_callRequest",
          "type": "tuple"
        },
        {
          "internalType": "bytes[]",
          "name": "_signatures",
          "type": "bytes[]"
        },
        {
          "internalType": "uint256",
          "name": "_deadline",
          "type": "uint256"
        }
      ],
      "name": "call",
      "outputs": [
        {
          "internalType": "bytes",
          "name": "",
          "type": "bytes"
        }
      ],
      "stateMutability": "nonpayable",
      "type": "function"
    },
    {
      "inputs": [],
      "name": "controlThreshold",
      "outputs": [
        {
          "internalType": "uint256",
          "name": "",
          "type": "uint256"
        }
      ],
      "stateMutability": "view",
      "type": "function"
    },
    {
      "inputs": [
        {
          "internalType": "address",
          "name": "_controller",
          "type": "address"
        }
      ],
      "name": "controllerWeight",
      "outputs": [
        {
          "internalType": "uint256",
          "name": "",
          "type": "uint256"
        }
      ],
      "stateMutability": "view",
      "type": "function"
    },
    {
      "inputs": [],
      "name": "controllersTotalWeight",
      "outputs": [
        {
          "internalType": "uint256",
          "name": "",
          "type": "uint256"
        }
      ],
      "stateMutability": "view",
      "type": "function"
    },
    {
      "inputs": [
        {
          "components": [
            {
              "internalType": "bytes32",
              "name": "salt",
              "type": "bytes32"
            },
            {
              "internalType": "uint256",
              "name": "nonce",
              "type": "uint256"
            },
            {
              "internalType": "bytes",
              "name": "bytecode",
              "type": "bytes"
            },
            {
              "internalType": "bytes",
              "name": "initCode",
              "type": "bytes"
            }
          ],
          "internalType": "struct CallsStructs.CreateRequest",
          "name": "_createRequest",
          "type": "tuple"
        },
        {
          "internalType": "bytes[]",
          "name": "_signatures",
          "type": "bytes[]"
        },
        {
          "internalType": "uint256",
          "name": "_deadline",
          "type": "uint256"
        }
      ],
      "name": "create",
      "outputs": [
        {
          "internalType": "address",
          "name": "",
          "type": "address"
        }
      ],
      "stateMutability": "nonpayable",
      "type": "function"
    },
    {
      "inputs": [],
      "name": "endSession",
      "outputs": [],
      "stateMutability": "nonpayable",
      "type": "function"
    },
    {
      "inputs": [
        {
          "internalType": "address",
          "name": "_caller",
          "type": "address"
        },
        {
          "internalType": "uint256",
          "name": "_nonce",
          "type": "uint256"
        },
        {
          "internalType": "bytes[]",
          "name": "_signatures",
          "type": "bytes[]"
        },
        {
          "internalType": "uint256",
          "name": "_deadline",
          "type": "uint256"
        }
      ],
      "name": "endSessionForCaller",
      "outputs": [],
      "stateMutability": "nonpayable",
      "type": "function"
    },
    {
      "inputs": [
        {
          "internalType": "address",
          "name": "_caller",
          "type": "address"
        }
      ],
      "name": "hasActiveSession",
      "outputs": [
        {
          "internalType": "bool",
          "name": "hasSession_",
          "type": "bool"
        }
      ],
      "stateMutability": "view",
      "type": "function"
    },
    {
      "inputs": [
        {
          "components": [
            {
              "internalType": "address",
              "name": "target",
              "type": "address"
            },
            {
              "internalType": "uint256",
              "name": "value",
              "type": "uint256"
            },
            {
              "internalType": "uint256",
              "name": "nonce",
              "type": "uint256"
            },
            {
              "internalType": "bytes",
              "name": "data",
              "type": "bytes"
            }
          ],
          "internalType": "struct CallsStructs.CallRequest[]",
          "name": "_callRequests",
          "type": "tuple[]"
        },
        {
          "internalType": "bytes[]",
          "name": "_signatures",
          "type": "bytes[]"
        },
        {
          "internalType": "uint256",
          "name": "_deadline",
          "type": "uint256"
        }
      ],
      "name": "multiCall",
      "outputs": [
        {
          "internalType": "bytes[]",
          "name": "",
          "type": "bytes[]"
        }
      ],
      "stateMutability": "nonpayable",
      "type": "function"
    },
    {
      "inputs": [
        {
          "internalType": "address[]",
          "name": "_controllers",
          "type": "address[]"
        },
        {
          "internalType": "uint256",
          "name": "_newThreshold",
          "type": "uint256"
        },
        {
          "internalType": "uint256",
          "name": "_nonce",
          "type": "uint256"
        },
        {
          "internalType": "bytes[]",
          "name": "_signatures",
          "type": "bytes[]"
        },
        {
          "internalType": "uint256",
          "name": "_deadline",
          "type": "uint256"
        }
      ],
      "name": "removeControllers",
      "outputs": [],
      "stateMutability": "nonpayable",
      "type": "function"
    },
    {
      "inputs": [
        {
          "internalType": "address",
          "name": "_controllerOld",
          "type": "address"
        },
        {
          "internalType": "address",
          "name": "_controllerNew",
          "type": "address"
        },
        {
          "internalType": "uint256",
          "name": "_nonce",
          "type": "uint256"
        },
        {
          "internalType": "bytes[]",
          "name": "_signatures",
          "type": "bytes[]"
        },
        {
          "internalType": "uint256",
          "name": "_deadline",
          "type": "uint256"
        }
      ],
      "name": "replaceController",
      "outputs": [],
      "stateMutability": "nonpayable",
      "type": "function"
    },
    {
      "inputs": [
        {
          "components": [
            {
              "internalType": "address",
              "name": "target",
              "type": "address"
            },
            {
              "internalType": "uint256",
              "name": "value",
              "type": "uint256"
            },
            {
              "internalType": "uint256",
              "name": "nonce",
              "type": "uint256"
            },
            {
              "internalType": "bytes",
              "name": "data",
              "type": "bytes"
            }
          ],
          "internalType": "struct CallsStructs.CallRequest",
          "name": "_callRequest",
          "type": "tuple"
        }
      ],
      "name": "sessionCall",
      "outputs": [
        {
          "internalType": "bytes",
          "name": "",
          "type": "bytes"
        }
      ],
      "stateMutability": "nonpayable",
      "type": "function"
    },
    {
      "inputs": [
        {
          "components": [
            {
              "internalType": "address",
              "name": "target",
              "type": "address"
            },
            {
              "internalType": "uint256",
              "name": "value",
              "type": "uint256"
            },
            {
              "internalType": "uint256",
              "name": "nonce",
              "type": "uint256"
            },
            {
              "internalType": "bytes",
              "name": "data",
              "type": "bytes"
            }
          ],
          "internalType": "struct CallsStructs.CallRequest[]",
          "name": "_callRequests",
          "type": "tuple[]"
        }
      ],
      "name": "sessionMultiCall",
      "outputs": [
        {
          "internalType": "bytes[]",
          "name": "",
          "type": "bytes[]"
        }
      ],
      "stateMutability": "nonpayable",
      "type": "function"
    },
    {
      "inputs": [
        {
          "internalType": "address",
          "name": "_caller",
          "type": "address"
        },
        {
          "components": [
            {
              "internalType": "uint256",
              "name": "nativeAllowance",
              "type": "uint256"
            },
            {
              "components": [
                {
                  "internalType": "address",
                  "name": "aContract",
                  "type": "address"
                },
                {
                  "internalType": "bytes4[]",
                  "name": "functionSelectors",
                  "type": "bytes4[]"
                }
              ],
              "internalType": "struct SessionCallsStructs.SessionRequest_ContractFunctionSelectors[]",
              "name": "contractFunctionSelectors",
              "type": "tuple[]"
            },
            {
              "components": [
                {
                  "internalType": "address",
                  "name": "erc20Contract",
                  "type": "address"
                },
                {
                  "internalType": "uint256",
                  "name": "allowance",
                  "type": "uint256"
                }
              ],
              "internalType": "struct SessionCallsStructs.SessionRequest_ERC20Allowance[]",
              "name": "erc20Allowances",
              "type": "tuple[]"
            },
            {
              "components": [
                {
                  "internalType": "address",
                  "name": "erc721Contract",
                  "type": "address"
                },
                {
                  "internalType": "bool",
                  "name": "approveAll",
                  "type": "bool"
                },
                {
                  "internalType": "uint256[]",
                  "name": "tokenIds",
                  "type": "uint256[]"
                }
              ],
              "internalType": "struct SessionCallsStructs.SessionRequest_ERC721Allowance[]",
              "name": "erc721Allowances",
              "type": "tuple[]"
            },
            {
              "components": [
                {
                  "internalType": "address",
                  "name": "erc1155Contract",
                  "type": "address"
                },
                {
                  "internalType": "bool",
                  "name": "approveAll",
                  "type": "bool"
                },
                {
                  "internalType": "uint256[]",
                  "name": "tokenIds",
                  "type": "uint256[]"
                },
                {
                  "internalType": "uint256[]",
                  "name": "allowances",
                  "type": "uint256[]"
                }
              ],
              "internalType": "struct SessionCallsStructs.SessionRequest_ERC1155Allowance[]",
              "name": "erc1155Allowances",
              "type": "tuple[]"
            }
          ],
          "internalType": "struct SessionCallsStructs.SessionRequest",
          "name": "_sessionRequest",
          "type": "tuple"
        },
        {
          "internalType": "uint256",
          "name": "_expiresAt",
          "type": "uint256"
        },
        {
          "internalType": "uint256",
          "name": "_nonce",
          "type": "uint256"
        },
        {
          "internalType": "bytes[]",
          "name": "_signatures",
          "type": "bytes[]"
        },
        {
          "internalType": "uint256",
          "name": "_deadline",
          "type": "uint256"
        }
      ],
      "name": "startSession",
      "outputs": [],
      "stateMutability": "nonpayable",
      "type": "function"
    },
    {
      "inputs": [
        {
          "internalType": "bytes4",
          "name": "interfaceId",
          "type": "bytes4"
        }
      ],
      "name": "supportsInterface",
      "outputs": [
        {
          "internalType": "bool",
          "name": "",
          "type": "bool"
        }
      ],
      "stateMutability": "view",
      "type": "function"
    },
    {
      "inputs": [
        {
          "internalType": "uint256",
          "name": "_threshold",
          "type": "uint256"
        },
        {
          "internalType": "uint256",
          "name": "_nonce",
          "type": "uint256"
        },
        {
          "internalType": "bytes[]",
          "name": "_signatures",
          "type": "bytes[]"
        },
        {
          "internalType": "uint256",
          "name": "_deadline",
          "type": "uint256"
        }
      ],
      "name": "updateControlThreshold",
      "outputs": [],
      "stateMutability": "nonpayable",
      "type": "function"
    },
    {
      "inputs": [
        {
          "internalType": "address",
          "name": "_controller",
          "type": "address"
        },
        {
          "internalType": "uint256",
          "name": "_weight",
          "type": "uint256"
        },
        {
          "internalType": "uint256",
          "name": "_nonce",
          "type": "uint256"
        },
        {
          "internalType": "bytes[]",
          "name": "_signatures",
          "type": "bytes[]"
        },
        {
          "internalType": "uint256",
          "name": "_deadline",
          "type": "uint256"
        }
      ],
      "name": "updateControllerWeight",
      "outputs": [],
      "stateMutability": "nonpayable",
      "type": "function"
    }
  ],
  "bytecode": "0x60806040523480156200001157600080fd5b506200001c62000036565b6200002662000036565b6200003062000036565b620000ea565b7ff0c57e16840df040f15088dc2f81fe391c3923bec73e23a9662efc9c229c6a00805468010000000000000000900460ff1615620000875760405163f92ee8a960e01b815260040160405180910390fd5b80546001600160401b0390811614620000e75780546001600160401b0319166001600160401b0390811782556040519081527fc7f505b2f371ae2175ee4913f4499e1f2633a7b5936321eed1cdaeb6115181d29060200160405180910390a15b50565b613d8380620000fa6000396000f3fe608060405234801561001057600080fd5b50600436106101115760003560e01c806385ec90f9116100ad578063ad6f1e4811610071578063ad6f1e481461024c578063ccb34ddb1461025f578063e237a3fc14610272578063f04420f11461027a578063f811896a1461028d57600080fd5b806385ec90f9146101e857806389f8a9fa14610208578063a159e7c11461021b578063a786509014610231578063acf616691461023957600080fd5b806301ffc9a71461011657806306e823831461013e578063100dc0241461015457806321f34cbe14610169578063294d37ea1461017c57806350609c7d1461018f578063566db1e4146101a25780635be037c3146101b55780635e45c113146101d5575b600080fd5b6101296101243660046129c9565b6102a0565b60405190151581526020015b60405180910390f35b6101466102d1565b604051908152602001610135565b610167610162366004612a3d565b6102e4565b005b610167610177366004612aae565b610403565b61016761018a366004612b39565b61049e565b61012961019d366004612bd9565b610b8e565b6101676101b0366004612bf6565b610c13565b6101c86101c3366004612c50565b610c4d565b6040516101359190612d13565b6101676101e3366004612d77565b610d3e565b6101fb6101f6366004612dd4565b610d61565b6040516101359190612e08565b610167610216366004612e1b565b610f54565b61022461133781565b6040516101359190612e71565b610146611057565b6101fb610247366004612e85565b611067565b61022461025a366004612e85565b61108a565b61016761026d366004612ef4565b6110ad565b6101676111be565b610146610288366004612bd9565b6111c9565b6101c861029b366004612f9e565b6111f5565b600063a56a8ce960e01b6001600160e01b03198316016102c257506001919050565b6102cb826112a6565b92915050565b60006102db6112d1565b60010154905090565b604080516001600160a01b038816602082015290810186905260608101859052608081018290524660a08201526103379060c0015b604051602081830303815290604052805190602001208285856112f5565b846103406112d1565b6001600160a01b038816600090815260029190910160205260409020546103656112d1565b600101546103739190612ff5565b61037d9190613008565b6103856112d1565b600101556103916112d1565b6001015415806103b357506103a46112d1565b546103ad6112d1565b60010154105b156103d1576040516325746d7d60e21b815260040160405180910390fd5b846103da6112d1565b6001600160a01b0390971660009081526002979097016020526040909620959095555050505050565b61042187878787854660405160200161031996959493929190613064565b600086900361044357604051630e52390960e41b815260040160405180910390fd5b60005b868110156104855761047d8888838181106104635761046361309d565b90506020020160208101906104789190612bd9565b6113f6565b600101610446565b50841561049557610495856114ae565b50505050505050565b6104d38787878785466040516020016104bc96959493929190613365565b604051602081830303815290604052828585611500565b60006104de88611605565b868155600080805260028201602090815260408083209091528120893590559091505b61050e60208901896134fe565b90508110156106655760005b61052760208a018a6134fe565b838181106105375761053761309d565b90506020028101906105499190613547565b6105579060208101906134fe565b905081101561065c576001838101600061057460208d018d6134fe565b868181106105845761058461309d565b90506020028101906105969190613547565b6105a4906020810190612bd9565b6001600160a01b03166001600160a01b0316815260200190815260200160002060008b80602001906105d691906134fe565b868181106105e6576105e661309d565b90506020028101906105f89190613547565b6106069060208101906134fe565b858181106106165761061661309d565b905060200201602081019061062b91906129c9565b6001600160e01b03191681526020810191909152604001600020805460ff191691151591909117905560010161051a565b50600101610501565b5060005b6106766040890189613567565b90508110156107115761068c6040890189613567565b8281811061069c5761069c61309d565b905060400201602001358260020160008a80604001906106bc9190613567565b858181106106cc576106cc61309d565b6106e29260206040909202019081019150612bd9565b6001600160a01b0316815260208082019290925260409081016000908120818052909252902055600101610669565b5060005b61072260608901896134fe565b90508110156109055761073860608901896134fe565b828181106107485761074861309d565b905060200281019061075a91906135b0565b61076b9060408101906020016135c6565b156107e257600160038301600061078560608c018c6134fe565b858181106107955761079561309d565b90506020028101906107a791906135b0565b6107b5906020810190612bd9565b6001600160a01b031681526020810191909152604001600020805460ff19169115159190911790556108fd565b60005b6107f260608a018a6134fe565b838181106108025761080261309d565b905060200281019061081491906135b0565b6108229060408101906134fe565b90508110156108fb57600160028401600061084060608d018d6134fe565b868181106108505761085061309d565b905060200281019061086291906135b0565b610870906020810190612bd9565b6001600160a01b03168152602081019190915260400160009081209061089960608d018d6134fe565b868181106108a9576108a961309d565b90506020028101906108bb91906135b0565b6108c99060408101906134fe565b858181106108d9576108d961309d565b60209081029290920135835250810191909152604001600020556001016107e5565b505b600101610715565b5060005b61091660808901896134fe565b9050811015610b4e5761092c60808901896134fe565b8281811061093c5761093c61309d565b905060200281019061094e91906135e3565b61095f9060408101906020016135c6565b156109d657600160038301600061097960808c018c6134fe565b858181106109895761098961309d565b905060200281019061099b91906135e3565b6109a9906020810190612bd9565b6001600160a01b031681526020810191909152604001600020805460ff1916911515919091179055610b46565b60005b6109e660808a018a6134fe565b838181106109f6576109f661309d565b9050602002810190610a0891906135e3565b610a169060408101906134fe565b9050811015610b4457610a2c60808a018a6134fe565b83818110610a3c57610a3c61309d565b9050602002810190610a4e91906135e3565b610a5c9060608101906134fe565b82818110610a6c57610a6c61309d565b905060200201358360020160008b8060800190610a8991906134fe565b86818110610a9957610a9961309d565b9050602002810190610aab91906135e3565b610ab9906020810190612bd9565b6001600160a01b031681526020810191909152604001600090812090610ae260808d018d6134fe565b86818110610af257610af261309d565b9050602002810190610b0491906135e3565b610b129060408101906134fe565b85818110610b2257610b2261309d565b60209081029290920135835250810191909152604001600020556001016109d9565b505b600101610909565b50610b5761166d565b6001600160a01b038916600090815260019190910160205260408120805491610b7f836135f9565b91905055505050505050505050565b600080610b9961166d565b6001600160a01b038416600090815260018201602052604081205491925003610bc55750600092915050565b6001600160a01b03831660009081526020828152604080832060018086019093529083205490918391610bf89190612ff5565b81526020810191909152604001600020544210949350505050565b604080516020810187905290810185905260608101829052466080820152610c3d9060a001610319565b610c46856114ae565b5050505050565b6060610c8786868446604051602001610c6994939291906136ce565b604051602081830303815290604052805190602001208386866112f5565b6000856001600160401b03811115610ca157610ca161373a565b604051908082528060200260200182016040528015610cd457816020015b6060815260200190600190039081610cbf5790505b50905060005b86811015610d3357610d0e888883818110610cf757610cf761309d565b9050602002810190610d0991906135e3565b611691565b828281518110610d2057610d2061309d565b6020908102919091010152600101610cda565b509695505050505050565b610d58858583466040516020016103199493929190613750565b610c468561177e565b60606000610d6d61166d565b33600090815260018201602052604081205491925003610dab5733604051633b92010160e21b8152600401610da29190612e71565b60405180910390fd5b336000908152602082905260408120816001610dc561166d565b3360009081526001919091016020526040902054610de39190612ff5565b8152602001908152602001600020905042816000015411610e1757604051630fe82d2560e11b815260040160405180910390fd5b60008080526002820160209081526040808320825290912054908501351115610e795760008080526002820160209081526040808320825291829020549151638dccd66960e01b81529086013560048201526024810191909152604401610da2565b6000610e886060860186613776565b610e91916137bc565b9050610eaa82610ea46020880188612bd9565b8361180e565b610ef057610ebb6020860186612bd9565b60405163c603605d60e01b81526001600160a01b0390911660048201526001600160e01b031982166024820152604401610da2565b610efb8286836118df565b610f06828683611b7e565b610f11828683611f5c565b6000808052600283016020908152604080832082528220805491880135929091610f3c908490612ff5565b90915550610f4b905085611691565b95945050505050565b604080516001600160a01b03808916602083015287169181019190915260608101859052608081018290524660a0820152610f919060c001610319565b610f996112d1565b6001600160a01b038716600090815260029190910160205260408120549003610fd5576040516385e1605f60e01b815260040160405180910390fd5b610fdd6112d1565b6001600160a01b03861660009081526002919091016020526040902054156110185760405163983b8f4b60e01b815260040160405180910390fd5b611046856110246112d1565b6001600160a01b0389166000908152600291909101602052604090205461219e565b61104f866113f6565b505050505050565b60006110616112d1565b54919050565b6060611081858346604051602001610c69939291906137ec565b610f4b85611691565b60006110a4858346604051602001610c6993929190613811565b610f4b856121ed565b6110cd888888888886466040516020016103199796959493929190613886565b8685146110ed57604051632efb78eb60e21b815260040160405180910390fd5b600087900361110f57604051630e52390960e41b815260040160405180910390fd5b60005b878110156111b357600089898381811061112e5761112e61309d565b90506020020160208101906111439190612bd9565b905061114d6112d1565b6001600160a01b03821660009081526002919091016020526040902054156111885760405163983b8f4b60e01b815260040160405180910390fd5b6111aa8189898581811061119e5761119e61309d565b9050602002013561219e565b50600101611112565b505050505050505050565b6111c73361177e565b565b60006111d36112d1565b6001600160a01b03909216600090815260029290920160205250604090205490565b60606000826001600160401b038111156112115761121161373a565b60405190808252806020026020018201604052801561124457816020015b606081526020019060019003908161122f5790505b50905060005b8381101561129e576112798585838181106112675761126761309d565b90506020028101906101f691906135e3565b82828151811061128b5761128b61309d565b602090810291909101015260010161124a565b509392505050565b6000630474ef2b60e11b6001600160e01b03198316016112c857506001919050565b6102cb826122f9565b7f255f4a56bd3ad76424e31ed8855ef9ad14a0ce4e67508c76ff082e5c1466b12f90565b428310156113165760405163b08ce5b360e01b815260040160405180910390fd5b61131e6112d1565b5460000361133f57604051636a00024b60e11b815260040160405180910390fd5b60008061135586611350858761398f565b612334565b915091508181906113795760405162461bcd60e51b8152600401610da29190612e08565b5060005b8381101561049557600161138f6112d1565b60030160008787858181106113a6576113a661309d565b90506020028101906113b89190613776565b6040516113c6929190613a07565b60408051918290039091208252602082019290925201600020805460ff191691151591909117905560010161137d565b6113fe6112d1565b6001600160a01b038216600090815260029190910160205260409020546114236112d1565b60010160008282546114359190612ff5565b9091555061144390506112d1565b60010154158061146557506114566112d1565b5461145f6112d1565b60010154105b15611483576040516325746d7d60e21b815260040160405180910390fd5b600061148d6112d1565b6001600160a01b039092166000908152600292909201602052604090912055565b806114b76112d1565b556114c06112d1565b5415806114df57506114d06112d1565b600101546114dc6112d1565b54115b156114fd5760405163aabd5a0960e01b815260040160405180910390fd5b50565b428310156115215760405163b08ce5b360e01b815260040160405180910390fd5b6115296112d1565b5460000361154a57604051636a00024b60e11b815260040160405180910390fd5b83516020850120600090819061156490611350858761398f565b915091508181906115885760405162461bcd60e51b8152600401610da29190612e08565b5060005b8381101561049557600161159e6112d1565b60030160008787858181106115b5576115b561309d565b90506020028101906115c79190613776565b6040516115d5929190613a07565b60408051918290039091208252602082019290925201600020805460ff191691151591909117905560010161158c565b600061160f61166d565b6001600160a01b0383166000908152602091909152604081209061163161166d565b6001016000856001600160a01b03166001600160a01b031681526020019081526020016000205481526020019081526020016000209050919050565b7f48c02387a8e3f19678350d4a0d11f3f704fd6b94259fde7dd6097e79ffa93dcd90565b60606000806116a36020850185612bd9565b6001600160a01b031660208501356116be6060870187613776565b6040516116cc929190613a07565b60006040518083038185875af1925050503d8060008114611709576040519150601f19603f3d011682016040523d82523d6000602084013e61170e565b606091505b50915091508161177757805160000361176f57600084602001351180156117385750478460200135115b156117565760405163356680b760e01b815260040160405180910390fd5b604051632a0e33eb60e11b815260040160405180910390fd5b805160208201fd5b9392505050565b600061178861166d565b6001600160a01b0383166000908152600182016020526040812054919250036117c65781604051633b92010160e21b8152600401610da29190612e71565b6001600160a01b038216600090815260208281526040808320600180860190935290832054909183916117f99190612ff5565b81526020810191909152604001600020555050565b6001600160a01b038216600090815260018401602090815260408083206001600160e01b03198516845290915281205460ff168061187657506001600160a01b0383166000908152600185016020908152604080832061133760e01b845290915290205460ff165b806118a95750611337600090815260018501602090815260408083206001600160e01b03198616845290915290205460ff165b806118d757506113376000908152600185016020908152604080832061133760e01b845290915290205460ff165b949350505050565b6356fa634560e01b6001600160e01b0319821601611a655761190c6119076020840184612bd9565b6124bc565b61191557505050565b60006119246060840184613776565b611932916004908290613a17565b81019061193f9190613a41565b91508190506002850160006119576020870187612bd9565b6001600160a01b03166001600160a01b031681526020019081526020016000206000808152602001908152602001600020541015611a055761199c6020840184612bd9565b816002860160006119b06020880188612bd9565b6001600160a01b039081168252602080830193909352604091820160009081208180529093529181902054905163fdfd218960e01b815293909116600484015260248301919091526044820152606401610da2565b80600285016000611a196020870187612bd9565b6001600160a01b03166001600160a01b0316815260200190815260200160002060008081526020019081526020016000206000828254611a599190612ff5565b90915550611b79915050565b63dc478d2360e01b6001600160e01b0319821601611b7957611a8d6119076020840184612bd9565b611a9657505050565b6000611aa56060840184613776565b611ab3916004908290613a17565b810190611ac09190613a6d565b925082915050600285016000611ad96020870187612bd9565b6001600160a01b03166001600160a01b031681526020019081526020016000206000808152602001908152602001600020541015611b1e5761199c6020840184612bd9565b80600285016000611b326020870187612bd9565b6001600160a01b03166001600160a01b0316815260200190815260200160002060008081526020019081526020016000206000828254611b729190612ff5565b9091555050505b505050565b6306dede6b60e11b6001600160e01b0319821601611d0e57611bb3611ba66020840184612bd9565b636cdb3d1360e11b612646565b611bbc57505050565b600080611bcc6060850185613776565b611bda916004908290613a17565b810190611be79190613aae565b50909450925082915050600286016000611c046020880188612bd9565b6001600160a01b03166001600160a01b031681526020019081526020016000206000848152602001908152602001600020541015611cad57611c496020850185612bd9565b8282600288016000611c5e60208a018a612bd9565b6001600160a01b03166001600160a01b0316815260200190815260200160002060008681526020019081526020016000205460405163653a86dd60e11b8152600401610da29493929190613750565b80600286016000611cc16020880188612bd9565b6001600160a01b03166001600160a01b0316815260200190815260200160002060008481526020019081526020016000206000828254611d019190612ff5565b90915550611b7992505050565b6368a69e9560e11b6001600160e01b0319821601611b7957611d36611ba66020840184612bd9565b611d3f57505050565b600080611d4f6060850185613776565b611d5d916004908290613a17565b810190611d6a9190613b82565b5093509350505060005b825181101561104f57818181518110611d8f57611d8f61309d565b6020026020010151866002016000876000016020810190611db09190612bd9565b6001600160a01b03166001600160a01b031681526020019081526020016000206000858481518110611de457611de461309d565b60200260200101518152602001908152602001600020541015611ec357611e0e6020860186612bd9565b838281518110611e2057611e2061309d565b6020026020010151838381518110611e3a57611e3a61309d565b6020026020010151886002016000896000016020810190611e5b9190612bd9565b6001600160a01b03166001600160a01b031681526020019081526020016000206000878681518110611e8f57611e8f61309d565b602002602001015181526020019081526020016000205460405163653a86dd60e11b8152600401610da29493929190613750565b818181518110611ed557611ed561309d565b6020026020010151866002016000876000016020810190611ef69190612bd9565b6001600160a01b03166001600160a01b031681526020019081526020016000206000858481518110611f2a57611f2a61309d565b602002602001015181526020019081526020016000206000828254611f4f9190612ff5565b9091555050600101611d74565b63dc478d2360e01b6001600160e01b03198216016120c957611f91611f846020840184612bd9565b6380ac58cd60e01b612646565b611f9a57505050565b600383016000611fad6020850185612bd9565b6001600160a01b0316815260208101919091526040016000205460ff1615611fd457505050565b6000611fe36060840184613776565b611ff1916004908290613a17565b810190611ffe9190613a6d565b925050506002840160006120156020860186612bd9565b6001600160a01b03166001600160a01b031681526020019081526020016000206000828152602001908152602001600020546000036120875761205b6020840184612bd9565b60405163c30d449f60e01b81526001600160a01b03909116600482015260248101829052604401610da2565b6000600285018161209b6020870187612bd9565b6001600160a01b03168152602080820192909252604090810160009081209481529390915290912055505050565b635ebde8f960e11b6001600160e01b03198216016120f157611f91611f846020840184612bd9565b6323b9581160e11b6001600160e01b0319821601611b7957612119611f846020840184612bd9565b61212257505050565b6003830160006121356020850185612bd9565b6001600160a01b0316815260208101919091526040016000205460ff161561215c57505050565b600061216b6060840184613776565b612179916004908290613a17565b8101906121869190613c22565b50925050506002840160006120156020860186612bd9565b806121a76112d1565b60010160008282546121b99190613008565b909155508190506121c86112d1565b6001600160a01b03909316600090815260029390930160205260409092209190915550565b600061223c8183356122026040860186613776565b8080601f01602080910402602001604051908101604052809392919081815260200183838082843760009201919091525061270492505050565b9050600061224d6060840184613776565b905011156122f4576000806001600160a01b03831661226f6060860186613776565b60405161227d929190613a07565b6000604051808303816000865af19150503d80600081146122ba576040519150601f19603f3d011682016040523d82523d6000602084013e6122bf565b606091505b5091509150816122f1578051156122d857805181602001fd5b60405163727f092d60e01b815260040160405180910390fd5b50505b919050565b6000638c0d754360e01b6001600160e01b031983160161231b57506001919050565b6301ffc9a760e01b6001600160e01b03198316146102cb565b600060606000805b845181101561246957600061236a8787848151811061235d5761235d61309d565b6020026020010151612784565b90506123746112d1565b6001600160a01b0382166000908152600291909101602052604081205490036123be576000604051806060016040528060328152602001613cf960329139945094505050506124b5565b60008683815181106123d2576123d261309d565b60200260200101518051906020012090506123eb6112d1565b6000828152600391909101602052604090205460ff161561242e576000604051806060016040528060238152602001613d2b6023913995509550505050506124b5565b6124366112d1565b6001600160a01b0383166000908152600291909101602052604090205461245d9085613008565b9350505060010161233c565b506124726112d1565b5481101561249f576000604051806060016040528060268152602001613cd36026913992509250506124b5565b5050604080516020810190915260008152600191505b9250929050565b6000806000836001600160a01b0316306040516024016124dc9190612e71565b60408051601f198184030181529181526020820180516001600160e01b03166370a0823160e01b179052516125119190613c8d565b600060405180830381855afa9150503d806000811461254c576040519150601f19603f3d011682016040523d82523d6000602084013e612551565b606091505b5091509150818015612564575080516020145b925082156122f15760408051600481526024810182526020810180516001600160e01b03166318160ddd60e01b17905290516001600160a01b038616916125aa91613c8d565b600060405180830381855afa9150503d80600081146125e5576040519150601f19603f3d011682016040523d82523d6000602084013e6125ea565b606091505b5090925090508180156125fe575080516020145b925082156122f157612617846380ac58cd60e01b612646565b15612626575060009392505050565b61263784636cdb3d1360e11b612646565b156122f1575060009392505050565b6040516001600160e01b031982166024820152600090819081906001600160a01b0386169060440160408051601f198184030181529181526020820180516001600160e01b03166301ffc9a760e01b179052516126a39190613c8d565b600060405180830381855afa9150503d80600081146126de576040519150601f19603f3d011682016040523d82523d6000602084013e6126e3565b606091505b5091509150818015610f4b575080806020019051810190610f4b9190613c9f565b6000834710156127305760405163392efb2b60e21b815247600482015260248101859052604401610da2565b815160000361275257604051631328927760e21b815260040160405180910390fd5b8282516020840186f590506001600160a01b03811661177757604051633a0ba96160e11b815260040160405180910390fd5b7f19457468657265756d205369676e6564204d6573736167653a0a3332000000006000908152601c839052603c812061177790836000806000806127c886866127e2565b9250925092506127d8828261282f565b5090949350505050565b6000806000835160410361281c5760208401516040850151606086015160001a61280e888285856128ec565b955095509550505050612828565b50508151600091506002905b9250925092565b600082600381111561284357612843613cbc565b0361284c575050565b600182600381111561286057612860613cbc565b0361287e5760405163f645eedf60e01b815260040160405180910390fd5b600282600381111561289257612892613cbc565b036128b35760405163fce698f760e01b815260048101829052602401610da2565b60038260038111156128c7576128c7613cbc565b036128e8576040516335e2f38360e21b815260048101829052602401610da2565b5050565b600080806fa2a8918ca85bafe22016d0b997e4df60600160ff1b0384111561291d57506000915060039050826129a7565b604080516000808252602082018084528a905260ff891692820192909252606081018790526080810186905260019060a0016020604051602081039080840390855afa158015612971573d6000803e3d6000fd5b5050604051601f1901519150506001600160a01b03811661299d575060009250600191508290506129a7565b9250600091508190505b9450945094915050565b80356001600160e01b0319811681146122f457600080fd5b6000602082840312156129db57600080fd5b611777826129b1565b6001600160a01b03811681146114fd57600080fd5b60008083601f840112612a0b57600080fd5b5081356001600160401b03811115612a2257600080fd5b6020830191508360208260051b85010111156124b557600080fd5b60008060008060008060a08789031215612a5657600080fd5b8635612a61816129e4565b9550602087013594506040870135935060608701356001600160401b03811115612a8a57600080fd5b612a9689828a016129f9565b979a9699509497949695608090950135949350505050565b600080600080600080600060a0888a031215612ac957600080fd5b87356001600160401b0380821115612ae057600080fd5b612aec8b838c016129f9565b909950975060208a0135965060408a0135955060608a0135915080821115612b1357600080fd5b50612b208a828b016129f9565b989b979a50959894979596608090950135949350505050565b600080600080600080600060c0888a031215612b5457600080fd5b8735612b5f816129e4565b965060208801356001600160401b0380821115612b7b57600080fd5b9089019060a0828c031215612b8f57600080fd5b909650604089013595506060890135945060808901359080821115612bb357600080fd5b50612bc08a828b016129f9565b989b979a5095989497959660a090950135949350505050565b600060208284031215612beb57600080fd5b8135611777816129e4565b600080600080600060808688031215612c0e57600080fd5b853594506020860135935060408601356001600160401b03811115612c3257600080fd5b612c3e888289016129f9565b96999598509660600135949350505050565b600080600080600060608688031215612c6857600080fd5b85356001600160401b0380821115612c7f57600080fd5b612c8b89838a016129f9565b90975095506020880135915080821115612ca457600080fd5b50612cb1888289016129f9565b96999598509660400135949350505050565b60005b83811015612cde578181015183820152602001612cc6565b50506000910152565b60008151808452612cff816020860160208601612cc3565b601f01601f19169290920160200192915050565b600060208083016020845280855180835260408601915060408160051b87010192506020870160005b82811015612d6a57603f19888603018452612d58858351612ce7565b94509285019290850190600101612d3c565b5092979650505050505050565b600080600080600060808688031215612d8f57600080fd5b8535612d9a816129e4565b94506020860135935060408601356001600160401b03811115612c3257600080fd5b600060808284031215612dce57600080fd5b50919050565b600060208284031215612de657600080fd5b81356001600160401b03811115612dfc57600080fd5b6118d784828501612dbc565b6020815260006117776020830184612ce7565b60008060008060008060a08789031215612e3457600080fd5b8635612e3f816129e4565b95506020870135612e4f816129e4565b94506040870135935060608701356001600160401b03811115612a8a57600080fd5b6001600160a01b0391909116815260200190565b60008060008060608587031215612e9b57600080fd5b84356001600160401b0380821115612eb257600080fd5b612ebe88838901612dbc565b95506020870135915080821115612ed457600080fd5b50612ee1878288016129f9565b9598909750949560400135949350505050565b60008060008060008060008060a0898b031215612f1057600080fd5b88356001600160401b0380821115612f2757600080fd5b612f338c838d016129f9565b909a50985060208b0135915080821115612f4c57600080fd5b612f588c838d016129f9565b909850965060408b0135955060608b0135915080821115612f7857600080fd5b50612f858b828c016129f9565b999c989b50969995989497949560800135949350505050565b60008060208385031215612fb157600080fd5b82356001600160401b03811115612fc757600080fd5b612fd3858286016129f9565b90969095509350505050565b634e487b7160e01b600052601160045260246000fd5b818103818111156102cb576102cb612fdf565b808201808211156102cb576102cb612fdf565b8183526000602080850194508260005b8581101561305957813561303e816129e4565b6001600160a01b03168752958201959082019060010161302b565b509495945050505050565b60a08152600061307860a08301888a61301b565b9050856020830152846040830152836060830152826080830152979650505050505050565b634e487b7160e01b600052603260045260246000fd5b6000808335601e198436030181126130ca57600080fd5b83016020810192503590506001600160401b038111156130e957600080fd5b8060051b36038213156124b557600080fd5b6000808335601e1984360301811261311257600080fd5b83016020810192503590506001600160401b0381111561313157600080fd5b8060061b36038213156124b557600080fd5b8183526000602080850194508260005b85811015613059578135613166816129e4565b6001600160a01b03168752818301358388015260409687019690910190600101613153565b80151581146114fd57600080fd5b81835260006001600160fb1b038311156131b257600080fd5b8260051b80836020870137939093016020019392505050565b60008383855260208086019550808560051b830101846000805b8881101561326f57858403601f19018a52823536899003605e1901811261320a578283fd5b880160608135613219816129e4565b6001600160a01b03168652818701356132318161318b565b1515868801526040613245838201846130b3565b935082828901526132598389018583613199565b9d89019d975050509386019350506001016131e5565b509198975050505050505050565b60008235607e1983360301811261329357600080fd5b90910192915050565b60008383855260208086019550808560051b8301018460005b8781101561335857848303601f190189526132d0828861327d565b608081356132dd816129e4565b6001600160a01b03168552818601356132f58161318b565b1515858701526040613309838201846130b3565b838389015261331b8489018284613199565b9350505050606061332e818401846130b3565b935086830382880152613342838583613199565b9c88019c965050509285019250506001016132b5565b5090979650505050505050565b600060018060a01b038089168352602060c0818501526101608401893560c0860152613393828b018b6130b3565b60a060e088015291829052610180600583901b87018101929087018260005b838110156134545789860361017f19018352813536869003603e190181126133d957600080fd5b8501604087810182356133eb816129e4565b8b1689526133fb838b01846130b3565b8a8c019390935290829052909150606088019060005b8381101561343e576001600160e01b031961342b836129b1565b168352918a0191908a0190600101613411565b50909750505091860191908601906001016133b2565b505050505061346660408b018b6130fb565b9350915060bf198086830301610100870152613483828585613143565b935061349260608c018c6130b3565b9350915080868503016101208701526134ac8484846131cb565b93506134bb60808c018c6130b3565b935091508086850301610140870152506134d683838361329c565b93505050508560408301528460608301528360808301528260a0830152979650505050505050565b6000808335601e1984360301811261351557600080fd5b8301803591506001600160401b0382111561352f57600080fd5b6020019150600581901b36038213156124b557600080fd5b60008235603e1983360301811261355d57600080fd5b9190910192915050565b6000808335601e1984360301811261357e57600080fd5b8301803591506001600160401b0382111561359857600080fd5b6020019150600681901b36038213156124b557600080fd5b60008235605e1983360301811261355d57600080fd5b6000602082840312156135d857600080fd5b81356117778161318b565b60008235607e1983360301811261355d57600080fd5b60006001820161360b5761360b612fdf565b5060010190565b6000808335601e1984360301811261362957600080fd5b83016020810192503590506001600160401b0381111561364857600080fd5b8036038213156124b557600080fd5b81835281816020850137506000828201602090810191909152601f909101601f19169091010190565b6000813561368d816129e4565b6001600160a01b0316835260208281013590840152604080830135908401526136b96060830183613612565b60806060860152610f4b608086018284613657565b6060808252810184905260006080600586901b8301810190830187835b8881101561372457858403607f1901835261370f8461370a848d61327d565b613680565b935060209283019291909101906001016136eb565b5050506020830194909452506040015292915050565b634e487b7160e01b600052604160045260246000fd5b6001600160a01b0394909416845260208401929092526040830152606082015260800190565b6000808335601e1984360301811261378d57600080fd5b8301803591506001600160401b038211156137a757600080fd5b6020019150368190038213156124b557600080fd5b6001600160e01b031981358181169160048510156137e45780818660040360031b1b83161692505b505092915050565b6060815260006137ff6060830186613680565b60208301949094525060400152919050565b60608152833560608201526020840135608082015260006138356040860186613612565b608060a085015261384a60e085018284613657565b91505061385a6060870187613612565b848303605f190160c0860152613871838284613657565b60208601979097525050505060400152919050565b60a08152600061389a60a08301898b61301b565b82810360208401526138ad81888a613199565b604084019690965250506060810192909252608090910152949350505050565b604051601f8201601f191681016001600160401b03811182821017156138f5576138f561373a565b604052919050565b60006001600160401b038211156139165761391661373a565b5060051b60200190565b600082601f83011261393157600080fd5b81356001600160401b0381111561394a5761394a61373a565b61395d601f8201601f19166020016138cd565b81815284602083860101111561397257600080fd5b816020850160208301376000918101602001919091529392505050565b60006139a261399d846138fd565b6138cd565b80848252602080830192508560051b8501368111156139c057600080fd5b855b818110156139fb5780356001600160401b038111156139e15760008081fd5b6139ed36828a01613920565b8652509382019382016139c2565b50919695505050505050565b8183823760009101908152919050565b60008085851115613a2757600080fd5b83861115613a3457600080fd5b5050820193919092039150565b60008060408385031215613a5457600080fd5b8235613a5f816129e4565b946020939093013593505050565b600080600060608486031215613a8257600080fd5b8335613a8d816129e4565b92506020840135613a9d816129e4565b929592945050506040919091013590565b600080600080600060a08688031215613ac657600080fd5b8535613ad1816129e4565b94506020860135613ae1816129e4565b9350604086013592506060860135915060808601356001600160401b03811115613b0a57600080fd5b613b1688828901613920565b9150509295509295909350565b600082601f830112613b3457600080fd5b81356020613b4461399d836138fd565b8083825260208201915060208460051b870101935086841115613b6657600080fd5b602086015b84811015610d335780358352918301918301613b6b565b600080600080600060a08688031215613b9a57600080fd5b8535613ba5816129e4565b94506020860135613bb5816129e4565b935060408601356001600160401b0380821115613bd157600080fd5b613bdd89838a01613b23565b94506060880135915080821115613bf357600080fd5b613bff89838a01613b23565b93506080880135915080821115613c1557600080fd5b50613b1688828901613920565b60008060008060808587031215613c3857600080fd5b8435613c43816129e4565b93506020850135613c53816129e4565b92506040850135915060608501356001600160401b03811115613c7557600080fd5b613c8187828801613920565b91505092959194509250565b6000825161355d818460208701612cc3565b600060208284031215613cb157600080fd5b81516117778161318b565b634e487b7160e01b600052602160045260246000fdfe5369676e6572207765696768747320646f6573206e6f74206d656574207468726573686f6c644174206c65617374206f6e65207369676e6174757265206e6f742066726f6d2061206b6e6f776e20636f6e74726f6c6c65724174206c65617374206f6e65207369676e617475726520616c72656164792075736564a26469706673582212203c3d7af6ffdedcd5e9079422fa498177671e2e8bea116e2ddce021d9e421aab364736f6c63430008170033",
  "linkReferences": {},
  "deployedLinkReferences": {}
}