{
  "_format": "hh-sol-artifact-1",
  "contractName": "SessionCalls",
  "sourceName": "contracts/modules/SessionCalls/SessionCalls.sol",
  "abi": [
    {
      "inputs": [],
      "stateMutability": "nonpayable",
      "type": "constructor"
    },
    {
      "inputs": [],
      "name": "ArraryLengthMismatch",
      "type": "error"
    },
    {
      "inputs": [],
      "name": "ControllerAlreadyExists",
      "type": "error"
    },
    {
      "inputs": [],
      "name": "ControllerDoesNotExist",
      "type": "error"
    },
    {
      "inputs": [],
      "name": "ControllersNotInitialized",
      "type": "error"
    },
    {
      "inputs": [],
      "name": "Create2EmptyBytecode",
      "type": "error"
    },
    {
      "inputs": [],
      "name": "Create2FailedDeployment",
      "type": "error"
    },
    {
      "inputs": [
        {
          "internalType": "uint256",
          "name": "balance",
          "type": "uint256"
        },
        {
          "internalType": "uint256",
          "name": "needed",
          "type": "uint256"
        }
      ],
      "name": "Create2InsufficientBalance",
      "type": "error"
    },
    {
      "inputs": [],
      "name": "CreateInitCodeFailed",
      "type": "error"
    },
    {
      "inputs": [],
      "name": "DeadlineReached",
      "type": "error"
    },
    {
      "inputs": [],
      "name": "ECDSAInvalidSignature",
      "type": "error"
    },
    {
      "inputs": [
        {
          "internalType": "uint256",
          "name": "length",
          "type": "uint256"
        }
      ],
      "name": "ECDSAInvalidSignatureLength",
      "type": "error"
    },
    {
      "inputs": [
        {
          "internalType": "bytes32",
          "name": "s",
          "type": "bytes32"
        }
      ],
      "name": "ECDSAInvalidSignatureS",
      "type": "error"
    },
    {
      "inputs": [
        {
          "internalType": "address",
          "name": "tokenAddress",
          "type": "address"
        },
        {
          "internalType": "uint256",
          "name": "tokenId",
          "type": "uint256"
        },
        {
          "internalType": "uint256",
          "name": "amount",
          "type": "uint256"
        },
        {
          "internalType": "uint256",
          "name": "allowance",
          "type": "uint256"
        }
      ],
      "name": "InsufficientAllowanceForERC1155Transfer",
      "type": "error"
    },
    {
      "inputs": [
        {
          "internalType": "address",
          "name": "tokenAddress",
          "type": "address"
        },
        {
          "internalType": "uint256",
          "name": "amount",
          "type": "uint256"
        },
        {
          "internalType": "uint256",
          "name": "allowance",
          "type": "uint256"
        }
      ],
      "name": "InsufficientAllowanceForERC20Transfer",
      "type": "error"
    },
    {
      "inputs": [
        {
          "internalType": "address",
          "name": "tokenAddress",
          "type": "address"
        },
        {
          "internalType": "uint256",
          "name": "tokenId",
          "type": "uint256"
        }
      ],
      "name": "InsufficientAllowanceForERC721Transfer",
      "type": "error"
    },
    {
      "inputs": [],
      "name": "InsufficientFunds",
      "type": "error"
    },
    {
      "inputs": [
        {
          "internalType": "uint256",
          "name": "amount",
          "type": "uint256"
        },
        {
          "internalType": "uint256",
          "name": "allowance",
          "type": "uint256"
        }
      ],
      "name": "InsufficientNativeTokenAllowance",
      "type": "error"
    },
    {
      "inputs": [],
      "name": "InvalidInitialization",
      "type": "error"
    },
    {
      "inputs": [],
      "name": "InvalidParameters",
      "type": "error"
    },
    {
      "inputs": [],
      "name": "InvalidThreshold",
      "type": "error"
    },
    {
      "inputs": [
        {
          "internalType": "address",
          "name": "sender",
          "type": "address"
        }
      ],
      "name": "NoSessionStarted",
      "type": "error"
    },
    {
      "inputs": [],
      "name": "NotInitializing",
      "type": "error"
    },
    {
      "inputs": [],
      "name": "RevertWithoutMessage",
      "type": "error"
    },
    {
      "inputs": [],
      "name": "SessionExpired",
      "type": "error"
    },
    {
      "inputs": [],
      "name": "ThresholdImpossible",
      "type": "error"
    },
    {
      "inputs": [
        {
          "internalType": "address",
          "name": "targetContract",
          "type": "address"
        },
        {
          "internalType": "bytes4",
          "name": "functionSelector",
          "type": "bytes4"
        }
      ],
      "name": "UnauthorizedSessionCall",
      "type": "error"
    },
    {
      "anonymous": false,
      "inputs": [
        {
          "indexed": false,
          "internalType": "uint64",
          "name": "version",
          "type": "uint64"
        }
      ],
      "name": "Initialized",
      "type": "event"
    },
    {
      "inputs": [
        {
          "internalType": "address[]",
          "name": "_controllers",
          "type": "address[]"
        },
        {
          "internalType": "uint256[]",
          "name": "_weights",
          "type": "uint256[]"
        },
        {
          "internalType": "uint256",
          "name": "_nonce",
          "type": "uint256"
        },
        {
          "internalType": "bytes[]",
          "name": "_signatures",
          "type": "bytes[]"
        },
        {
          "internalType": "uint256",
          "name": "_deadline",
          "type": "uint256"
        }
      ],
      "name": "addControllers",
      "outputs": [],
      "stateMutability": "nonpayable",
      "type": "function"
    },
    {
      "inputs": [
        {
          "components": [
            {
              "internalType": "address",
              "name": "target",
              "type": "address"
            },
            {
              "internalType": "uint256",
              "name": "value",
              "type": "uint256"
            },
            {
              "internalType": "uint256",
              "name": "nonce",
              "type": "uint256"
            },
            {
              "internalType": "bytes",
              "name": "data",
              "type": "bytes"
            }
          ],
          "internalType": "struct CallsStructs.CallRequest",
          "name": "_callRequest",
          "type": "tuple"
        },
        {
          "internalType": "bytes[]",
          "name": "_signatures",
          "type": "bytes[]"
        },
        {
          "internalType": "uint256",
          "name": "_deadline",
          "type": "uint256"
        }
      ],
      "name": "call",
      "outputs": [
        {
          "internalType": "bytes",
          "name": "",
          "type": "bytes"
        }
      ],
      "stateMutability": "nonpayable",
      "type": "function"
    },
    {
      "inputs": [],
      "name": "controlThreshold",
      "outputs": [
        {
          "internalType": "uint256",
          "name": "",
          "type": "uint256"
        }
      ],
      "stateMutability": "view",
      "type": "function"
    },
    {
      "inputs": [
        {
          "internalType": "address",
          "name": "_controller",
          "type": "address"
        }
      ],
      "name": "controllerWeight",
      "outputs": [
        {
          "internalType": "uint256",
          "name": "",
          "type": "uint256"
        }
      ],
      "stateMutability": "view",
      "type": "function"
    },
    {
      "inputs": [],
      "name": "controllersTotalWeight",
      "outputs": [
        {
          "internalType": "uint256",
          "name": "",
          "type": "uint256"
        }
      ],
      "stateMutability": "view",
      "type": "function"
    },
    {
      "inputs": [
        {
          "components": [
            {
              "internalType": "bytes32",
              "name": "salt",
              "type": "bytes32"
            },
            {
              "internalType": "uint256",
              "name": "nonce",
              "type": "uint256"
            },
            {
              "internalType": "bytes",
              "name": "bytecode",
              "type": "bytes"
            },
            {
              "internalType": "bytes",
              "name": "initCode",
              "type": "bytes"
            }
          ],
          "internalType": "struct CallsStructs.CreateRequest",
          "name": "_createRequest",
          "type": "tuple"
        },
        {
          "internalType": "bytes[]",
          "name": "_signatures",
          "type": "bytes[]"
        },
        {
          "internalType": "uint256",
          "name": "_deadline",
          "type": "uint256"
        }
      ],
      "name": "create",
      "outputs": [
        {
          "internalType": "address",
          "name": "",
          "type": "address"
        }
      ],
      "stateMutability": "nonpayable",
      "type": "function"
    },
    {
      "inputs": [],
      "name": "endSession",
      "outputs": [],
      "stateMutability": "nonpayable",
      "type": "function"
    },
    {
      "inputs": [
        {
          "internalType": "address",
          "name": "_caller",
          "type": "address"
        },
        {
          "internalType": "uint256",
          "name": "_nonce",
          "type": "uint256"
        },
        {
          "internalType": "bytes[]",
          "name": "_signatures",
          "type": "bytes[]"
        },
        {
          "internalType": "uint256",
          "name": "_deadline",
          "type": "uint256"
        }
      ],
      "name": "endSessionForCaller",
      "outputs": [],
      "stateMutability": "nonpayable",
      "type": "function"
    },
    {
      "inputs": [
        {
          "internalType": "address",
          "name": "_caller",
          "type": "address"
        }
      ],
      "name": "hasActiveSession",
      "outputs": [
        {
          "internalType": "bool",
          "name": "hasSession_",
          "type": "bool"
        }
      ],
      "stateMutability": "view",
      "type": "function"
    },
    {
      "inputs": [
        {
          "components": [
            {
              "internalType": "address",
              "name": "target",
              "type": "address"
            },
            {
              "internalType": "uint256",
              "name": "value",
              "type": "uint256"
            },
            {
              "internalType": "uint256",
              "name": "nonce",
              "type": "uint256"
            },
            {
              "internalType": "bytes",
              "name": "data",
              "type": "bytes"
            }
          ],
          "internalType": "struct CallsStructs.CallRequest[]",
          "name": "_callRequests",
          "type": "tuple[]"
        },
        {
          "internalType": "bytes[]",
          "name": "_signatures",
          "type": "bytes[]"
        },
        {
          "internalType": "uint256",
          "name": "_deadline",
          "type": "uint256"
        }
      ],
      "name": "multiCall",
      "outputs": [
        {
          "internalType": "bytes[]",
          "name": "",
          "type": "bytes[]"
        }
      ],
      "stateMutability": "nonpayable",
      "type": "function"
    },
    {
      "inputs": [
        {
          "internalType": "address[]",
          "name": "_controllers",
          "type": "address[]"
        },
        {
          "internalType": "uint256",
          "name": "_newThreshold",
          "type": "uint256"
        },
        {
          "internalType": "uint256",
          "name": "_nonce",
          "type": "uint256"
        },
        {
          "internalType": "bytes[]",
          "name": "_signatures",
          "type": "bytes[]"
        },
        {
          "internalType": "uint256",
          "name": "_deadline",
          "type": "uint256"
        }
      ],
      "name": "removeControllers",
      "outputs": [],
      "stateMutability": "nonpayable",
      "type": "function"
    },
    {
      "inputs": [
        {
          "internalType": "address",
          "name": "_controllerOld",
          "type": "address"
        },
        {
          "internalType": "address",
          "name": "_controllerNew",
          "type": "address"
        },
        {
          "internalType": "uint256",
          "name": "_nonce",
          "type": "uint256"
        },
        {
          "internalType": "bytes[]",
          "name": "_signatures",
          "type": "bytes[]"
        },
        {
          "internalType": "uint256",
          "name": "_deadline",
          "type": "uint256"
        }
      ],
      "name": "replaceController",
      "outputs": [],
      "stateMutability": "nonpayable",
      "type": "function"
    },
    {
      "inputs": [
        {
          "components": [
            {
              "internalType": "address",
              "name": "target",
              "type": "address"
            },
            {
              "internalType": "uint256",
              "name": "value",
              "type": "uint256"
            },
            {
              "internalType": "uint256",
              "name": "nonce",
              "type": "uint256"
            },
            {
              "internalType": "bytes",
              "name": "data",
              "type": "bytes"
            }
          ],
          "internalType": "struct CallsStructs.CallRequest",
          "name": "_callRequest",
          "type": "tuple"
        }
      ],
      "name": "sessionCall",
      "outputs": [
        {
          "internalType": "bytes",
          "name": "",
          "type": "bytes"
        }
      ],
      "stateMutability": "nonpayable",
      "type": "function"
    },
    {
      "inputs": [
        {
          "components": [
            {
              "internalType": "address",
              "name": "target",
              "type": "address"
            },
            {
              "internalType": "uint256",
              "name": "value",
              "type": "uint256"
            },
            {
              "internalType": "uint256",
              "name": "nonce",
              "type": "uint256"
            },
            {
              "internalType": "bytes",
              "name": "data",
              "type": "bytes"
            }
          ],
          "internalType": "struct CallsStructs.CallRequest[]",
          "name": "_callRequests",
          "type": "tuple[]"
        }
      ],
      "name": "sessionMultiCall",
      "outputs": [
        {
          "internalType": "bytes[]",
          "name": "",
          "type": "bytes[]"
        }
      ],
      "stateMutability": "nonpayable",
      "type": "function"
    },
    {
      "inputs": [
        {
          "internalType": "address",
          "name": "_caller",
          "type": "address"
        },
        {
          "components": [
            {
              "internalType": "uint256",
              "name": "nativeAllowance",
              "type": "uint256"
            },
            {
              "components": [
                {
                  "internalType": "address",
                  "name": "aContract",
                  "type": "address"
                },
                {
                  "internalType": "bytes4[]",
                  "name": "functionSelectors",
                  "type": "bytes4[]"
                }
              ],
              "internalType": "struct SessionCallsStructs.SessionRequest_ContractFunctionSelectors[]",
              "name": "contractFunctionSelectors",
              "type": "tuple[]"
            },
            {
              "components": [
                {
                  "internalType": "address",
                  "name": "erc20Contract",
                  "type": "address"
                },
                {
                  "internalType": "uint256",
                  "name": "allowance",
                  "type": "uint256"
                }
              ],
              "internalType": "struct SessionCallsStructs.SessionRequest_ERC20Allowance[]",
              "name": "erc20Allowances",
              "type": "tuple[]"
            },
            {
              "components": [
                {
                  "internalType": "address",
                  "name": "erc721Contract",
                  "type": "address"
                },
                {
                  "internalType": "bool",
                  "name": "approveAll",
                  "type": "bool"
                },
                {
                  "internalType": "uint256[]",
                  "name": "tokenIds",
                  "type": "uint256[]"
                }
              ],
              "internalType": "struct SessionCallsStructs.SessionRequest_ERC721Allowance[]",
              "name": "erc721Allowances",
              "type": "tuple[]"
            },
            {
              "components": [
                {
                  "internalType": "address",
                  "name": "erc1155Contract",
                  "type": "address"
                },
                {
                  "internalType": "bool",
                  "name": "approveAll",
                  "type": "bool"
                },
                {
                  "internalType": "uint256[]",
                  "name": "tokenIds",
                  "type": "uint256[]"
                },
                {
                  "internalType": "uint256[]",
                  "name": "allowances",
                  "type": "uint256[]"
                }
              ],
              "internalType": "struct SessionCallsStructs.SessionRequest_ERC1155Allowance[]",
              "name": "erc1155Allowances",
              "type": "tuple[]"
            }
          ],
          "internalType": "struct SessionCallsStructs.SessionRequest",
          "name": "_sessionRequest",
          "type": "tuple"
        },
        {
          "internalType": "uint256",
          "name": "_expiresAt",
          "type": "uint256"
        },
        {
          "internalType": "uint256",
          "name": "_nonce",
          "type": "uint256"
        },
        {
          "internalType": "bytes[]",
          "name": "_signatures",
          "type": "bytes[]"
        },
        {
          "internalType": "uint256",
          "name": "_deadline",
          "type": "uint256"
        }
      ],
      "name": "startSession",
      "outputs": [],
      "stateMutability": "nonpayable",
      "type": "function"
    },
    {
      "inputs": [
        {
          "internalType": "bytes4",
          "name": "interfaceId",
          "type": "bytes4"
        }
      ],
      "name": "supportsInterface",
      "outputs": [
        {
          "internalType": "bool",
          "name": "",
          "type": "bool"
        }
      ],
      "stateMutability": "view",
      "type": "function"
    },
    {
      "inputs": [
        {
          "internalType": "uint256",
          "name": "_threshold",
          "type": "uint256"
        },
        {
          "internalType": "uint256",
          "name": "_nonce",
          "type": "uint256"
        },
        {
          "internalType": "bytes[]",
          "name": "_signatures",
          "type": "bytes[]"
        },
        {
          "internalType": "uint256",
          "name": "_deadline",
          "type": "uint256"
        }
      ],
      "name": "updateControlThreshold",
      "outputs": [],
      "stateMutability": "nonpayable",
      "type": "function"
    },
    {
      "inputs": [
        {
          "internalType": "address",
          "name": "_controller",
          "type": "address"
        },
        {
          "internalType": "uint256",
          "name": "_weight",
          "type": "uint256"
        },
        {
          "internalType": "uint256",
          "name": "_nonce",
          "type": "uint256"
        },
        {
          "internalType": "bytes[]",
          "name": "_signatures",
          "type": "bytes[]"
        },
        {
          "internalType": "uint256",
          "name": "_deadline",
          "type": "uint256"
        }
      ],
      "name": "updateControllerWeight",
      "outputs": [],
      "stateMutability": "nonpayable",
      "type": "function"
    }
  ],
  "bytecode": "0x60806040523480156200001157600080fd5b506200001c62000036565b6200002662000036565b6200003062000036565b620000ea565b7ff0c57e16840df040f15088dc2f81fe391c3923bec73e23a9662efc9c229c6a00805468010000000000000000900460ff1615620000875760405163f92ee8a960e01b815260040160405180910390fd5b80546001600160401b0390811614620000e75780546001600160401b0319166001600160401b0390811782556040519081527fc7f505b2f371ae2175ee4913f4499e1f2633a7b5936321eed1cdaeb6115181d29060200160405180910390a15b50565b613cc780620000fa6000396000f3fe608060405234801561001057600080fd5b50600436106100f65760003560e01c806385ec90f91161009257806385ec90f9146101cd57806389f8a9fa146101ed578063a786509014610200578063acf6166914610208578063ad6f1e481461021b578063ccb34ddb1461023b578063e237a3fc1461024e578063f04420f114610256578063f811896a1461026957600080fd5b806301ffc9a7146100fb57806306e8238314610123578063100dc0241461013957806321f34cbe1461014e578063294d37ea1461016157806350609c7d14610174578063566db1e4146101875780635be037c31461019a5780635e45c113146101ba575b600080fd5b61010e610109366004612905565b61027c565b60405190151581526020015b60405180910390f35b61012b6102ad565b60405190815260200161011a565b61014c610147366004612979565b6102c0565b005b61014c61015c3660046129ea565b6103df565b61014c61016f366004612a75565b61047a565b61010e610182366004612b15565b610b6a565b61014c610195366004612b32565b610bef565b6101ad6101a8366004612b8c565b610c29565b60405161011a9190612c4f565b61014c6101c8366004612cb3565b610d1a565b6101e06101db366004612d10565b610d3d565b60405161011a9190612d4c565b61014c6101fb366004612d5f565b610f61565b61012b611064565b6101e0610216366004612db5565b611074565b61022e610229366004612db5565b611097565b60405161011a9190612e24565b61014c610249366004612e38565b6110ba565b61014c6111cb565b61012b610264366004612b15565b6111d6565b6101ad610277366004612ee2565b611202565b600063a56a8ce960e01b6001600160e01b031983160161029e57506001919050565b6102a7826112b3565b92915050565b60006102b76112de565b60010154905090565b604080516001600160a01b038816602082015290810186905260608101859052608081018290524660a08201526103139060c0015b60405160208183030381529060405280519060200120828585611302565b8461031c6112de565b6001600160a01b038816600090815260029190910160205260409020546103416112de565b6001015461034f9190612f39565b6103599190612f4c565b6103616112de565b6001015561036d6112de565b60010154158061038f57506103806112de565b546103896112de565b60010154105b156103ad576040516325746d7d60e21b815260040160405180910390fd5b846103b66112de565b6001600160a01b0390971660009081526002979097016020526040909620959095555050505050565b6103fd8787878785466040516020016102f596959493929190612fa8565b600086900361041f57604051630e52390960e41b815260040160405180910390fd5b60005b868110156104615761045988888381811061043f5761043f612fe1565b90506020020160208101906104549190612b15565b611403565b600101610422565b50841561047157610471856114bb565b50505050505050565b6104af878787878546604051602001610498969594939291906132a9565b60405160208183030381529060405282858561150d565b60006104ba88611612565b868155600080805260028201602090815260408083209091528120893590559091505b6104ea6020890189613442565b90508110156106415760005b61050360208a018a613442565b8381811061051357610513612fe1565b9050602002810190610525919061348b565b610533906020810190613442565b9050811015610638576001838101600061055060208d018d613442565b8681811061056057610560612fe1565b9050602002810190610572919061348b565b610580906020810190612b15565b6001600160a01b03166001600160a01b0316815260200190815260200160002060008b80602001906105b29190613442565b868181106105c2576105c2612fe1565b90506020028101906105d4919061348b565b6105e2906020810190613442565b858181106105f2576105f2612fe1565b90506020020160208101906106079190612905565b6001600160e01b03191681526020810191909152604001600020805460ff19169115159190911790556001016104f6565b506001016104dd565b5060005b61065260408901896134ab565b90508110156106ed5761066860408901896134ab565b8281811061067857610678612fe1565b905060400201602001358260020160008a806040019061069891906134ab565b858181106106a8576106a8612fe1565b6106be9260206040909202019081019150612b15565b6001600160a01b0316815260208082019290925260409081016000908120818052909252902055600101610645565b5060005b6106fe6060890189613442565b90508110156108e1576107146060890189613442565b8281811061072457610724612fe1565b905060200281019061073691906134f4565b61074790604081019060200161350a565b156107be57600160038301600061076160608c018c613442565b8581811061077157610771612fe1565b905060200281019061078391906134f4565b610791906020810190612b15565b6001600160a01b031681526020810191909152604001600020805460ff19169115159190911790556108d9565b60005b6107ce60608a018a613442565b838181106107de576107de612fe1565b90506020028101906107f091906134f4565b6107fe906040810190613442565b90508110156108d757600160028401600061081c60608d018d613442565b8681811061082c5761082c612fe1565b905060200281019061083e91906134f4565b61084c906020810190612b15565b6001600160a01b03168152602081019190915260400160009081209061087560608d018d613442565b8681811061088557610885612fe1565b905060200281019061089791906134f4565b6108a5906040810190613442565b858181106108b5576108b5612fe1565b60209081029290920135835250810191909152604001600020556001016107c1565b505b6001016106f1565b5060005b6108f26080890189613442565b9050811015610b2a576109086080890189613442565b8281811061091857610918612fe1565b905060200281019061092a9190613527565b61093b90604081019060200161350a565b156109b257600160038301600061095560808c018c613442565b8581811061096557610965612fe1565b90506020028101906109779190613527565b610985906020810190612b15565b6001600160a01b031681526020810191909152604001600020805460ff1916911515919091179055610b22565b60005b6109c260808a018a613442565b838181106109d2576109d2612fe1565b90506020028101906109e49190613527565b6109f2906040810190613442565b9050811015610b2057610a0860808a018a613442565b83818110610a1857610a18612fe1565b9050602002810190610a2a9190613527565b610a38906060810190613442565b82818110610a4857610a48612fe1565b905060200201358360020160008b8060800190610a659190613442565b86818110610a7557610a75612fe1565b9050602002810190610a879190613527565b610a95906020810190612b15565b6001600160a01b031681526020810191909152604001600090812090610abe60808d018d613442565b86818110610ace57610ace612fe1565b9050602002810190610ae09190613527565b610aee906040810190613442565b85818110610afe57610afe612fe1565b60209081029290920135835250810191909152604001600020556001016109b5565b505b6001016108e5565b50610b3361167a565b6001600160a01b038916600090815260019190910160205260408120805491610b5b8361353d565b91905055505050505050505050565b600080610b7561167a565b6001600160a01b038416600090815260018201602052604081205491925003610ba15750600092915050565b6001600160a01b03831660009081526020828152604080832060018086019093529083205490918391610bd49190612f39565b81526020810191909152604001600020544210949350505050565b604080516020810187905290810185905260608101829052466080820152610c199060a0016102f5565b610c22856114bb565b5050505050565b6060610c6386868446604051602001610c459493929190613612565b60405160208183030381529060405280519060200120838686611302565b6000856001600160401b03811115610c7d57610c7d61367e565b604051908082528060200260200182016040528015610cb057816020015b6060815260200190600190039081610c9b5790505b50905060005b86811015610d0f57610cea888883818110610cd357610cd3612fe1565b9050602002810190610ce59190613527565b61169e565b828281518110610cfc57610cfc612fe1565b6020908102919091010152600101610cb6565b509695505050505050565b610d34858583466040516020016102f59493929190613694565b610c228561178b565b60606000610d4961167a565b33600090815260018201602052604081205491925003610d875733604051633b92010160e21b8152600401610d7e9190612e24565b60405180910390fd5b336000908152602082905260408120816001610da161167a565b3360009081526001919091016020526040902054610dbf9190612f39565b8152602001908152602001600020905042816000015411610df357604051630fe82d2560e11b815260040160405180910390fd5b60008080526002820160209081526040808320825290912054908501351115610e555760008080526002820160209081526040808320825291829020549151638dccd66960e01b81529086013560048201526024810191909152604401610d7e565b6000610e6460608601866136ba565b610e6d91613700565b9050610eb782610e806020880188612b15565b6001600160a01b03166000908152600191909101602090815260408083206001600160e01b03198616845290915290205460ff1690565b610efd57610ec86020860186612b15565b60405163c603605d60e01b81526001600160a01b0390911660048201526001600160e01b031982166024820152604401610d7e565b610f0882868361181b565b610f13828683611aba565b610f1e828683611e98565b6000808052600283016020908152604080832082528220805491880135929091610f49908490612f39565b90915550610f5890508561169e565b95945050505050565b604080516001600160a01b03808916602083015287169181019190915260608101859052608081018290524660a0820152610f9e9060c0016102f5565b610fa66112de565b6001600160a01b038716600090815260029190910160205260408120549003610fe2576040516385e1605f60e01b815260040160405180910390fd5b610fea6112de565b6001600160a01b03861660009081526002919091016020526040902054156110255760405163983b8f4b60e01b815260040160405180910390fd5b611053856110316112de565b6001600160a01b038916600090815260029190910160205260409020546120da565b61105c86611403565b505050505050565b600061106e6112de565b54919050565b606061108e858346604051602001610c4593929190613730565b610f588561169e565b60006110b1858346604051602001610c4593929190613755565b610f5885612129565b6110da888888888886466040516020016102f597969594939291906137ca565b8685146110fa57604051632efb78eb60e21b815260040160405180910390fd5b600087900361111c57604051630e52390960e41b815260040160405180910390fd5b60005b878110156111c057600089898381811061113b5761113b612fe1565b90506020020160208101906111509190612b15565b905061115a6112de565b6001600160a01b03821660009081526002919091016020526040902054156111955760405163983b8f4b60e01b815260040160405180910390fd5b6111b7818989858181106111ab576111ab612fe1565b905060200201356120da565b5060010161111f565b505050505050505050565b6111d43361178b565b565b60006111e06112de565b6001600160a01b03909216600090815260029290920160205250604090205490565b60606000826001600160401b0381111561121e5761121e61367e565b60405190808252806020026020018201604052801561125157816020015b606081526020019060019003908161123c5790505b50905060005b838110156112ab5761128685858381811061127457611274612fe1565b90506020028101906101db9190613527565b82828151811061129857611298612fe1565b6020908102919091010152600101611257565b509392505050565b6000630474ef2b60e11b6001600160e01b03198316016112d557506001919050565b6102a782612235565b7f255f4a56bd3ad76424e31ed8855ef9ad14a0ce4e67508c76ff082e5c1466b12f90565b428310156113235760405163b08ce5b360e01b815260040160405180910390fd5b61132b6112de565b5460000361134c57604051636a00024b60e11b815260040160405180910390fd5b6000806113628661135d85876138d3565b612270565b915091508181906113865760405162461bcd60e51b8152600401610d7e9190612d4c565b5060005b8381101561047157600161139c6112de565b60030160008787858181106113b3576113b3612fe1565b90506020028101906113c591906136ba565b6040516113d392919061394b565b60408051918290039091208252602082019290925201600020805460ff191691151591909117905560010161138a565b61140b6112de565b6001600160a01b038216600090815260029190910160205260409020546114306112de565b60010160008282546114429190612f39565b9091555061145090506112de565b60010154158061147257506114636112de565b5461146c6112de565b60010154105b15611490576040516325746d7d60e21b815260040160405180910390fd5b600061149a6112de565b6001600160a01b039092166000908152600292909201602052604090912055565b806114c46112de565b556114cd6112de565b5415806114ec57506114dd6112de565b600101546114e96112de565b54115b1561150a5760405163aabd5a0960e01b815260040160405180910390fd5b50565b4283101561152e5760405163b08ce5b360e01b815260040160405180910390fd5b6115366112de565b5460000361155757604051636a00024b60e11b815260040160405180910390fd5b8351602085012060009081906115719061135d85876138d3565b915091508181906115955760405162461bcd60e51b8152600401610d7e9190612d4c565b5060005b838110156104715760016115ab6112de565b60030160008787858181106115c2576115c2612fe1565b90506020028101906115d491906136ba565b6040516115e292919061394b565b60408051918290039091208252602082019290925201600020805460ff1916911515919091179055600101611599565b600061161c61167a565b6001600160a01b0383166000908152602091909152604081209061163e61167a565b6001016000856001600160a01b03166001600160a01b031681526020019081526020016000205481526020019081526020016000209050919050565b7f48c02387a8e3f19678350d4a0d11f3f704fd6b94259fde7dd6097e79ffa93dcd90565b60606000806116b06020850185612b15565b6001600160a01b031660208501356116cb60608701876136ba565b6040516116d992919061394b565b60006040518083038185875af1925050503d8060008114611716576040519150601f19603f3d011682016040523d82523d6000602084013e61171b565b606091505b50915091508161178457805160000361177c57600084602001351180156117455750478460200135115b156117635760405163356680b760e01b815260040160405180910390fd5b604051632a0e33eb60e11b815260040160405180910390fd5b805160208201fd5b9392505050565b600061179561167a565b6001600160a01b0383166000908152600182016020526040812054919250036117d35781604051633b92010160e21b8152600401610d7e9190612e24565b6001600160a01b038216600090815260208281526040808320600180860190935290832054909183916118069190612f39565b81526020810191909152604001600020555050565b6356fa634560e01b6001600160e01b03198216016119a1576118486118436020840184612b15565b6123f8565b61185157505050565b600061186060608401846136ba565b61186e91600490829061395b565b81019061187b9190613985565b91508190506002850160006118936020870187612b15565b6001600160a01b03166001600160a01b031681526020019081526020016000206000808152602001908152602001600020541015611941576118d86020840184612b15565b816002860160006118ec6020880188612b15565b6001600160a01b039081168252602080830193909352604091820160009081208180529093529181902054905163fdfd218960e01b815293909116600484015260248301919091526044820152606401610d7e565b806002850160006119556020870187612b15565b6001600160a01b03166001600160a01b03168152602001908152602001600020600080815260200190815260200160002060008282546119959190612f39565b90915550611ab5915050565b63dc478d2360e01b6001600160e01b0319821601611ab5576119c96118436020840184612b15565b6119d257505050565b60006119e160608401846136ba565b6119ef91600490829061395b565b8101906119fc91906139b1565b925082915050600285016000611a156020870187612b15565b6001600160a01b03166001600160a01b031681526020019081526020016000206000808152602001908152602001600020541015611a5a576118d86020840184612b15565b80600285016000611a6e6020870187612b15565b6001600160a01b03166001600160a01b0316815260200190815260200160002060008081526020019081526020016000206000828254611aae9190612f39565b9091555050505b505050565b6306dede6b60e11b6001600160e01b0319821601611c4a57611aef611ae26020840184612b15565b636cdb3d1360e11b612582565b611af857505050565b600080611b0860608501856136ba565b611b1691600490829061395b565b810190611b2391906139f2565b50909450925082915050600286016000611b406020880188612b15565b6001600160a01b03166001600160a01b031681526020019081526020016000206000848152602001908152602001600020541015611be957611b856020850185612b15565b8282600288016000611b9a60208a018a612b15565b6001600160a01b03166001600160a01b0316815260200190815260200160002060008681526020019081526020016000205460405163653a86dd60e11b8152600401610d7e9493929190613694565b80600286016000611bfd6020880188612b15565b6001600160a01b03166001600160a01b0316815260200190815260200160002060008481526020019081526020016000206000828254611c3d9190612f39565b90915550611ab592505050565b6368a69e9560e11b6001600160e01b0319821601611ab557611c72611ae26020840184612b15565b611c7b57505050565b600080611c8b60608501856136ba565b611c9991600490829061395b565b810190611ca69190613ac6565b5093509350505060005b825181101561105c57818181518110611ccb57611ccb612fe1565b6020026020010151866002016000876000016020810190611cec9190612b15565b6001600160a01b03166001600160a01b031681526020019081526020016000206000858481518110611d2057611d20612fe1565b60200260200101518152602001908152602001600020541015611dff57611d4a6020860186612b15565b838281518110611d5c57611d5c612fe1565b6020026020010151838381518110611d7657611d76612fe1565b6020026020010151886002016000896000016020810190611d979190612b15565b6001600160a01b03166001600160a01b031681526020019081526020016000206000878681518110611dcb57611dcb612fe1565b602002602001015181526020019081526020016000205460405163653a86dd60e11b8152600401610d7e9493929190613694565b818181518110611e1157611e11612fe1565b6020026020010151866002016000876000016020810190611e329190612b15565b6001600160a01b03166001600160a01b031681526020019081526020016000206000858481518110611e6657611e66612fe1565b602002602001015181526020019081526020016000206000828254611e8b9190612f39565b9091555050600101611cb0565b63dc478d2360e01b6001600160e01b031982160161200557611ecd611ec06020840184612b15565b6380ac58cd60e01b612582565b611ed657505050565b600383016000611ee96020850185612b15565b6001600160a01b0316815260208101919091526040016000205460ff1615611f1057505050565b6000611f1f60608401846136ba565b611f2d91600490829061395b565b810190611f3a91906139b1565b92505050600284016000611f516020860186612b15565b6001600160a01b03166001600160a01b03168152602001908152602001600020600082815260200190815260200160002054600003611fc357611f976020840184612b15565b60405163c30d449f60e01b81526001600160a01b03909116600482015260248101829052604401610d7e565b60006002850181611fd76020870187612b15565b6001600160a01b03168152602080820192909252604090810160009081209481529390915290912055505050565b635ebde8f960e11b6001600160e01b031982160161202d57611ecd611ec06020840184612b15565b6323b9581160e11b6001600160e01b0319821601611ab557612055611ec06020840184612b15565b61205e57505050565b6003830160006120716020850185612b15565b6001600160a01b0316815260208101919091526040016000205460ff161561209857505050565b60006120a760608401846136ba565b6120b591600490829061395b565b8101906120c29190613b66565b5092505050600284016000611f516020860186612b15565b806120e36112de565b60010160008282546120f59190612f4c565b909155508190506121046112de565b6001600160a01b03909316600090815260029390930160205260409092209190915550565b600061217881833561213e60408601866136ba565b8080601f01602080910402602001604051908101604052809392919081815260200183838082843760009201919091525061264092505050565b9050600061218960608401846136ba565b90501115612230576000806001600160a01b0383166121ab60608601866136ba565b6040516121b992919061394b565b6000604051808303816000865af19150503d80600081146121f6576040519150601f19603f3d011682016040523d82523d6000602084013e6121fb565b606091505b50915091508161222d5780511561221457805181602001fd5b60405163727f092d60e01b815260040160405180910390fd5b50505b919050565b6000638c0d754360e01b6001600160e01b031983160161225757506001919050565b6301ffc9a760e01b6001600160e01b03198316146102a7565b600060606000805b84518110156123a55760006122a68787848151811061229957612299612fe1565b60200260200101516126c0565b90506122b06112de565b6001600160a01b0382166000908152600291909101602052604081205490036122fa576000604051806060016040528060328152602001613c3d60329139945094505050506123f1565b600086838151811061230e5761230e612fe1565b60200260200101518051906020012090506123276112de565b6000828152600391909101602052604090205460ff161561236a576000604051806060016040528060238152602001613c6f6023913995509550505050506123f1565b6123726112de565b6001600160a01b038316600090815260029190910160205260409020546123999085612f4c565b93505050600101612278565b506123ae6112de565b548110156123db576000604051806060016040528060268152602001613c176026913992509250506123f1565b5050604080516020810190915260008152600191505b9250929050565b6000806000836001600160a01b0316306040516024016124189190612e24565b60408051601f198184030181529181526020820180516001600160e01b03166370a0823160e01b1790525161244d9190613bd1565b600060405180830381855afa9150503d8060008114612488576040519150601f19603f3d011682016040523d82523d6000602084013e61248d565b606091505b50915091508180156124a0575080516020145b9250821561222d5760408051600481526024810182526020810180516001600160e01b03166318160ddd60e01b17905290516001600160a01b038616916124e691613bd1565b600060405180830381855afa9150503d8060008114612521576040519150601f19603f3d011682016040523d82523d6000602084013e612526565b606091505b50909250905081801561253a575080516020145b9250821561222d57612553846380ac58cd60e01b612582565b15612562575060009392505050565b61257384636cdb3d1360e11b612582565b1561222d575060009392505050565b6040516001600160e01b031982166024820152600090819081906001600160a01b0386169060440160408051601f198184030181529181526020820180516001600160e01b03166301ffc9a760e01b179052516125df9190613bd1565b600060405180830381855afa9150503d806000811461261a576040519150601f19603f3d011682016040523d82523d6000602084013e61261f565b606091505b5091509150818015610f58575080806020019051810190610f589190613be3565b60008347101561266c5760405163392efb2b60e21b815247600482015260248101859052604401610d7e565b815160000361268e57604051631328927760e21b815260040160405180910390fd5b8282516020840186f590506001600160a01b03811661178457604051633a0ba96160e11b815260040160405180910390fd5b7f19457468657265756d205369676e6564204d6573736167653a0a3332000000006000908152601c839052603c81206117849083600080600080612704868661271e565b925092509250612714828261276b565b5090949350505050565b600080600083516041036127585760208401516040850151606086015160001a61274a88828585612828565b955095509550505050612764565b50508151600091506002905b9250925092565b600082600381111561277f5761277f613c00565b03612788575050565b600182600381111561279c5761279c613c00565b036127ba5760405163f645eedf60e01b815260040160405180910390fd5b60028260038111156127ce576127ce613c00565b036127ef5760405163fce698f760e01b815260048101829052602401610d7e565b600382600381111561280357612803613c00565b03612824576040516335e2f38360e21b815260048101829052602401610d7e565b5050565b600080806fa2a8918ca85bafe22016d0b997e4df60600160ff1b0384111561285957506000915060039050826128e3565b604080516000808252602082018084528a905260ff891692820192909252606081018790526080810186905260019060a0016020604051602081039080840390855afa1580156128ad573d6000803e3d6000fd5b5050604051601f1901519150506001600160a01b0381166128d9575060009250600191508290506128e3565b9250600091508190505b9450945094915050565b80356001600160e01b03198116811461223057600080fd5b60006020828403121561291757600080fd5b611784826128ed565b6001600160a01b038116811461150a57600080fd5b60008083601f84011261294757600080fd5b5081356001600160401b0381111561295e57600080fd5b6020830191508360208260051b85010111156123f157600080fd5b60008060008060008060a0878903121561299257600080fd5b863561299d81612920565b9550602087013594506040870135935060608701356001600160401b038111156129c657600080fd5b6129d289828a01612935565b979a9699509497949695608090950135949350505050565b600080600080600080600060a0888a031215612a0557600080fd5b87356001600160401b0380821115612a1c57600080fd5b612a288b838c01612935565b909950975060208a0135965060408a0135955060608a0135915080821115612a4f57600080fd5b50612a5c8a828b01612935565b989b979a50959894979596608090950135949350505050565b600080600080600080600060c0888a031215612a9057600080fd5b8735612a9b81612920565b965060208801356001600160401b0380821115612ab757600080fd5b9089019060a0828c031215612acb57600080fd5b909650604089013595506060890135945060808901359080821115612aef57600080fd5b50612afc8a828b01612935565b989b979a5095989497959660a090950135949350505050565b600060208284031215612b2757600080fd5b813561178481612920565b600080600080600060808688031215612b4a57600080fd5b853594506020860135935060408601356001600160401b03811115612b6e57600080fd5b612b7a88828901612935565b96999598509660600135949350505050565b600080600080600060608688031215612ba457600080fd5b85356001600160401b0380821115612bbb57600080fd5b612bc789838a01612935565b90975095506020880135915080821115612be057600080fd5b50612bed88828901612935565b96999598509660400135949350505050565b60005b83811015612c1a578181015183820152602001612c02565b50506000910152565b60008151808452612c3b816020860160208601612bff565b601f01601f19169290920160200192915050565b600060208083016020845280855180835260408601915060408160051b87010192506020870160005b82811015612ca657603f19888603018452612c94858351612c23565b94509285019290850190600101612c78565b5092979650505050505050565b600080600080600060808688031215612ccb57600080fd5b8535612cd681612920565b94506020860135935060408601356001600160401b03811115612b6e57600080fd5b600060808284031215612d0a57600080fd5b50919050565b600060208284031215612d2257600080fd5b81356001600160401b03811115612d3857600080fd5b612d4484828501612cf8565b949350505050565b6020815260006117846020830184612c23565b60008060008060008060a08789031215612d7857600080fd5b8635612d8381612920565b95506020870135612d9381612920565b94506040870135935060608701356001600160401b038111156129c657600080fd5b60008060008060608587031215612dcb57600080fd5b84356001600160401b0380821115612de257600080fd5b612dee88838901612cf8565b95506020870135915080821115612e0457600080fd5b50612e1187828801612935565b9598909750949560400135949350505050565b6001600160a01b0391909116815260200190565b60008060008060008060008060a0898b031215612e5457600080fd5b88356001600160401b0380821115612e6b57600080fd5b612e778c838d01612935565b909a50985060208b0135915080821115612e9057600080fd5b612e9c8c838d01612935565b909850965060408b0135955060608b0135915080821115612ebc57600080fd5b50612ec98b828c01612935565b999c989b50969995989497949560800135949350505050565b60008060208385031215612ef557600080fd5b82356001600160401b03811115612f0b57600080fd5b612f1785828601612935565b90969095509350505050565b634e487b7160e01b600052601160045260246000fd5b818103818111156102a7576102a7612f23565b808201808211156102a7576102a7612f23565b8183526000602080850194508260005b85811015612f9d578135612f8281612920565b6001600160a01b031687529582019590820190600101612f6f565b509495945050505050565b60a081526000612fbc60a08301888a612f5f565b9050856020830152846040830152836060830152826080830152979650505050505050565b634e487b7160e01b600052603260045260246000fd5b6000808335601e1984360301811261300e57600080fd5b83016020810192503590506001600160401b0381111561302d57600080fd5b8060051b36038213156123f157600080fd5b6000808335601e1984360301811261305657600080fd5b83016020810192503590506001600160401b0381111561307557600080fd5b8060061b36038213156123f157600080fd5b8183526000602080850194508260005b85811015612f9d5781356130aa81612920565b6001600160a01b03168752818301358388015260409687019690910190600101613097565b801515811461150a57600080fd5b81835260006001600160fb1b038311156130f657600080fd5b8260051b80836020870137939093016020019392505050565b60008383855260208086019550808560051b830101846000805b888110156131b357858403601f19018a52823536899003605e1901811261314e578283fd5b88016060813561315d81612920565b6001600160a01b0316865281870135613175816130cf565b151586880152604061318983820184612ff7565b9350828289015261319d83890185836130dd565b9d89019d97505050938601935050600101613129565b509198975050505050505050565b60008235607e198336030181126131d757600080fd5b90910192915050565b60008383855260208086019550808560051b8301018460005b8781101561329c57848303601f1901895261321482886131c1565b6080813561322181612920565b6001600160a01b0316855281860135613239816130cf565b151585870152604061324d83820184612ff7565b838389015261325f84890182846130dd565b9350505050606061327281840184612ff7565b9350868303828801526132868385836130dd565b9c88019c965050509285019250506001016131f9565b5090979650505050505050565b600060018060a01b038089168352602060c0818501526101608401893560c08601526132d7828b018b612ff7565b60a060e088015291829052610180600583901b87018101929087018260005b838110156133985789860361017f19018352813536869003603e1901811261331d57600080fd5b85016040878101823561332f81612920565b8b16895261333f838b0184612ff7565b8a8c019390935290829052909150606088019060005b83811015613382576001600160e01b031961336f836128ed565b168352918a0191908a0190600101613355565b50909750505091860191908601906001016132f6565b50505050506133aa60408b018b61303f565b9350915060bf1980868303016101008701526133c7828585613087565b93506133d660608c018c612ff7565b9350915080868503016101208701526133f084848461310f565b93506133ff60808c018c612ff7565b9350915080868503016101408701525061341a8383836131e0565b93505050508560408301528460608301528360808301528260a0830152979650505050505050565b6000808335601e1984360301811261345957600080fd5b8301803591506001600160401b0382111561347357600080fd5b6020019150600581901b36038213156123f157600080fd5b60008235603e198336030181126134a157600080fd5b9190910192915050565b6000808335601e198436030181126134c257600080fd5b8301803591506001600160401b038211156134dc57600080fd5b6020019150600681901b36038213156123f157600080fd5b60008235605e198336030181126134a157600080fd5b60006020828403121561351c57600080fd5b8135611784816130cf565b60008235607e198336030181126134a157600080fd5b60006001820161354f5761354f612f23565b5060010190565b6000808335601e1984360301811261356d57600080fd5b83016020810192503590506001600160401b0381111561358c57600080fd5b8036038213156123f157600080fd5b81835281816020850137506000828201602090810191909152601f909101601f19169091010190565b600081356135d181612920565b6001600160a01b0316835260208281013590840152604080830135908401526135fd6060830183613556565b60806060860152610f5860808601828461359b565b6060808252810184905260006080600586901b8301810190830187835b8881101561366857858403607f190183526136538461364e848d6131c1565b6135c4565b9350602092830192919091019060010161362f565b5050506020830194909452506040015292915050565b634e487b7160e01b600052604160045260246000fd5b6001600160a01b0394909416845260208401929092526040830152606082015260800190565b6000808335601e198436030181126136d157600080fd5b8301803591506001600160401b038211156136eb57600080fd5b6020019150368190038213156123f157600080fd5b6001600160e01b031981358181169160048510156137285780818660040360031b1b83161692505b505092915050565b60608152600061374360608301866135c4565b60208301949094525060400152919050565b60608152833560608201526020840135608082015260006137796040860186613556565b608060a085015261378e60e08501828461359b565b91505061379e6060870187613556565b848303605f190160c08601526137b583828461359b565b60208601979097525050505060400152919050565b60a0815260006137de60a08301898b612f5f565b82810360208401526137f181888a6130dd565b604084019690965250506060810192909252608090910152949350505050565b604051601f8201601f191681016001600160401b03811182821017156138395761383961367e565b604052919050565b60006001600160401b0382111561385a5761385a61367e565b5060051b60200190565b600082601f83011261387557600080fd5b81356001600160401b0381111561388e5761388e61367e565b6138a1601f8201601f1916602001613811565b8181528460208386010111156138b657600080fd5b816020850160208301376000918101602001919091529392505050565b60006138e66138e184613841565b613811565b80848252602080830192508560051b85013681111561390457600080fd5b855b8181101561393f5780356001600160401b038111156139255760008081fd5b61393136828a01613864565b865250938201938201613906565b50919695505050505050565b8183823760009101908152919050565b6000808585111561396b57600080fd5b8386111561397857600080fd5b5050820193919092039150565b6000806040838503121561399857600080fd5b82356139a381612920565b946020939093013593505050565b6000806000606084860312156139c657600080fd5b83356139d181612920565b925060208401356139e181612920565b929592945050506040919091013590565b600080600080600060a08688031215613a0a57600080fd5b8535613a1581612920565b94506020860135613a2581612920565b9350604086013592506060860135915060808601356001600160401b03811115613a4e57600080fd5b613a5a88828901613864565b9150509295509295909350565b600082601f830112613a7857600080fd5b81356020613a886138e183613841565b8083825260208201915060208460051b870101935086841115613aaa57600080fd5b602086015b84811015610d0f5780358352918301918301613aaf565b600080600080600060a08688031215613ade57600080fd5b8535613ae981612920565b94506020860135613af981612920565b935060408601356001600160401b0380821115613b1557600080fd5b613b2189838a01613a67565b94506060880135915080821115613b3757600080fd5b613b4389838a01613a67565b93506080880135915080821115613b5957600080fd5b50613a5a88828901613864565b60008060008060808587031215613b7c57600080fd5b8435613b8781612920565b93506020850135613b9781612920565b92506040850135915060608501356001600160401b03811115613bb957600080fd5b613bc587828801613864565b91505092959194509250565b600082516134a1818460208701612bff565b600060208284031215613bf557600080fd5b8151611784816130cf565b634e487b7160e01b600052602160045260246000fdfe5369676e6572207765696768747320646f6573206e6f74206d656574207468726573686f6c644174206c65617374206f6e65207369676e6174757265206e6f742066726f6d2061206b6e6f776e20636f6e74726f6c6c65724174206c65617374206f6e65207369676e617475726520616c72656164792075736564a26469706673582212204794f4ac6a44c93c36854a422d5f7b4f354bd09ed63a7129abcf7ac697c7e04c64736f6c63430008170033",
  "linkReferences": {},
  "deployedLinkReferences": {}
}