{
  "_format": "hh-sol-artifact-1",
  "contractName": "SessionCalls",
  "sourceName": "contracts/modules/SessionCalls/SessionCalls.sol",
  "abi": [
    {
      "inputs": [
        {
          "internalType": "address[]",
          "name": "_controllers",
          "type": "address[]"
        },
        {
          "internalType": "uint256[]",
          "name": "_weights",
          "type": "uint256[]"
        },
        {
          "internalType": "uint256",
          "name": "_nonce",
          "type": "uint256"
        },
        {
          "internalType": "bytes[]",
          "name": "_signatures",
          "type": "bytes[]"
        }
      ],
      "name": "addControllers",
      "outputs": [],
      "stateMutability": "nonpayable",
      "type": "function"
    },
    {
      "inputs": [
        {
          "components": [
            {
              "internalType": "address",
              "name": "target",
              "type": "address"
            },
            {
              "internalType": "uint256",
              "name": "value",
              "type": "uint256"
            },
            {
              "internalType": "uint256",
              "name": "nonce",
              "type": "uint256"
            },
            {
              "internalType": "bytes",
              "name": "data",
              "type": "bytes"
            }
          ],
          "internalType": "struct CallsStructs.CallRequest",
          "name": "_callRequest",
          "type": "tuple"
        },
        {
          "internalType": "bytes[]",
          "name": "_signatures",
          "type": "bytes[]"
        }
      ],
      "name": "call",
      "outputs": [
        {
          "internalType": "bytes",
          "name": "",
          "type": "bytes"
        }
      ],
      "stateMutability": "nonpayable",
      "type": "function"
    },
    {
      "inputs": [],
      "name": "controlThreshold",
      "outputs": [
        {
          "internalType": "uint256",
          "name": "",
          "type": "uint256"
        }
      ],
      "stateMutability": "view",
      "type": "function"
    },
    {
      "inputs": [
        {
          "internalType": "address",
          "name": "_controller",
          "type": "address"
        }
      ],
      "name": "controllerWeight",
      "outputs": [
        {
          "internalType": "uint256",
          "name": "",
          "type": "uint256"
        }
      ],
      "stateMutability": "view",
      "type": "function"
    },
    {
      "inputs": [],
      "name": "controllersTotalWeight",
      "outputs": [
        {
          "internalType": "uint256",
          "name": "",
          "type": "uint256"
        }
      ],
      "stateMutability": "view",
      "type": "function"
    },
    {
      "inputs": [
        {
          "internalType": "address",
          "name": "caller",
          "type": "address"
        },
        {
          "internalType": "uint256",
          "name": "_nonce",
          "type": "uint256"
        },
        {
          "internalType": "bytes[]",
          "name": "_signatures",
          "type": "bytes[]"
        }
      ],
      "name": "endSession",
      "outputs": [],
      "stateMutability": "nonpayable",
      "type": "function"
    },
    {
      "inputs": [
        {
          "components": [
            {
              "internalType": "address",
              "name": "target",
              "type": "address"
            },
            {
              "internalType": "uint256",
              "name": "value",
              "type": "uint256"
            },
            {
              "internalType": "uint256",
              "name": "nonce",
              "type": "uint256"
            },
            {
              "internalType": "bytes",
              "name": "data",
              "type": "bytes"
            }
          ],
          "internalType": "struct CallsStructs.CallRequest[]",
          "name": "_callRequests",
          "type": "tuple[]"
        },
        {
          "internalType": "bytes[]",
          "name": "_signatures",
          "type": "bytes[]"
        }
      ],
      "name": "multiCall",
      "outputs": [
        {
          "internalType": "bytes[]",
          "name": "",
          "type": "bytes[]"
        }
      ],
      "stateMutability": "nonpayable",
      "type": "function"
    },
    {
      "inputs": [
        {
          "internalType": "address[]",
          "name": "_controllers",
          "type": "address[]"
        },
        {
          "internalType": "uint256",
          "name": "_nonce",
          "type": "uint256"
        },
        {
          "internalType": "bytes[]",
          "name": "_signatures",
          "type": "bytes[]"
        }
      ],
      "name": "removeControllers",
      "outputs": [],
      "stateMutability": "nonpayable",
      "type": "function"
    },
    {
      "inputs": [
        {
          "components": [
            {
              "internalType": "address",
              "name": "target",
              "type": "address"
            },
            {
              "internalType": "uint256",
              "name": "value",
              "type": "uint256"
            },
            {
              "internalType": "uint256",
              "name": "nonce",
              "type": "uint256"
            },
            {
              "internalType": "bytes",
              "name": "data",
              "type": "bytes"
            }
          ],
          "internalType": "struct CallsStructs.CallRequest",
          "name": "_callRequest",
          "type": "tuple"
        }
      ],
      "name": "sessionCall",
      "outputs": [
        {
          "internalType": "bytes",
          "name": "",
          "type": "bytes"
        }
      ],
      "stateMutability": "nonpayable",
      "type": "function"
    },
    {
      "inputs": [
        {
          "components": [
            {
              "internalType": "address",
              "name": "target",
              "type": "address"
            },
            {
              "internalType": "uint256",
              "name": "value",
              "type": "uint256"
            },
            {
              "internalType": "uint256",
              "name": "nonce",
              "type": "uint256"
            },
            {
              "internalType": "bytes",
              "name": "data",
              "type": "bytes"
            }
          ],
          "internalType": "struct CallsStructs.CallRequest[]",
          "name": "_callRequests",
          "type": "tuple[]"
        }
      ],
      "name": "sessionMultiCall",
      "outputs": [
        {
          "internalType": "bytes[]",
          "name": "",
          "type": "bytes[]"
        }
      ],
      "stateMutability": "nonpayable",
      "type": "function"
    },
    {
      "inputs": [
        {
          "internalType": "address",
          "name": "caller",
          "type": "address"
        },
        {
          "components": [
            {
              "internalType": "uint64",
              "name": "expiresAt",
              "type": "uint64"
            },
            {
              "internalType": "bytes8[]",
              "name": "approvedSystemIds",
              "type": "bytes8[]"
            },
            {
              "internalType": "bytes4[]",
              "name": "approvedFunctionSelectors",
              "type": "bytes4[]"
            },
            {
              "internalType": "address[]",
              "name": "approvedContracts",
              "type": "address[]"
            }
          ],
          "internalType": "struct SessionCallsStructs.Session",
          "name": "_session",
          "type": "tuple"
        },
        {
          "internalType": "uint256",
          "name": "_nonce",
          "type": "uint256"
        },
        {
          "internalType": "bytes[]",
          "name": "_signatures",
          "type": "bytes[]"
        }
      ],
      "name": "startSession",
      "outputs": [],
      "stateMutability": "nonpayable",
      "type": "function"
    },
    {
      "inputs": [
        {
          "internalType": "bytes4",
          "name": "interfaceId",
          "type": "bytes4"
        }
      ],
      "name": "supportsInterface",
      "outputs": [
        {
          "internalType": "bool",
          "name": "",
          "type": "bool"
        }
      ],
      "stateMutability": "view",
      "type": "function"
    },
    {
      "inputs": [
        {
          "internalType": "uint256",
          "name": "_threshold",
          "type": "uint256"
        },
        {
          "internalType": "uint256",
          "name": "_nonce",
          "type": "uint256"
        },
        {
          "internalType": "bytes[]",
          "name": "_signatures",
          "type": "bytes[]"
        }
      ],
      "name": "updateControlThreshold",
      "outputs": [],
      "stateMutability": "nonpayable",
      "type": "function"
    },
    {
      "inputs": [
        {
          "internalType": "address",
          "name": "_controller",
          "type": "address"
        },
        {
          "internalType": "uint256",
          "name": "_weight",
          "type": "uint256"
        },
        {
          "internalType": "uint256",
          "name": "_nonce",
          "type": "uint256"
        },
        {
          "internalType": "bytes[]",
          "name": "_signatures",
          "type": "bytes[]"
        }
      ],
      "name": "updateControllerWeight",
      "outputs": [],
      "stateMutability": "nonpayable",
      "type": "function"
    }
  ],
  "bytecode": "0x608060405234801561001057600080fd5b50613508806100206000396000f3fe608060405234801561001057600080fd5b50600436106100ea5760003560e01c806387f949b41161008c578063d0bccea111610066578063d0bccea114610203578063d1e3aaa814610216578063f04420f114610236578063f811896a1461028b57600080fd5b806387f949b4146101b6578063a7865090146101c9578063af915498146101f057600080fd5b8063286936bb116100c8578063286936bb1461015d5780633c416e471461017057806370b6e4c91461018357806385ec90f9146101a357600080fd5b806301ffc9a7146100ef57806306e823831461011757806328690da214610148575b600080fd5b6101026100fd36600461217a565b61029e565b60405190151581526020015b60405180910390f35b7f255f4a56bd3ad76424e31ed8855ef9ad14a0ce4e67508c76ff082e5c1466b130545b60405190815260200161010e565b61015b610156366004612216565b610300565b005b61015b61016b36600461229d565b6104c6565b61015b61017e3660046122f9565b610679565b610196610191366004612355565b61087f565b60405161010e9190612422565b6101966101b1366004612435565b6109ed565b61015b6101c4366004612472565b610dd7565b7f255f4a56bd3ad76424e31ed8855ef9ad14a0ce4e67508c76ff082e5c1466b12f5461013a565b61015b6101fe3660046124ad565b61103b565b61015b610211366004612551565b61120d565b6102296102243660046125aa565b611530565b60405161010e919061260a565b61013a61024436600461268a565b73ffffffffffffffffffffffffffffffffffffffff1660009081527f255f4a56bd3ad76424e31ed8855ef9ad14a0ce4e67508c76ff082e5c1466b131602052604090205490565b6102296102993660046126a7565b611751565b60007f5eaab19f000000000000000000000000000000000000000000000000000000007fffffffff000000000000000000000000000000000000000000000000000000008316016102f157506001919050565b6102fa8261180e565b92915050565b848484466040516020016103179493929190612841565b604080517fffffffffffffffffffffffffffffffffffffffffffffffffffffffffffffffe0818403018152919052805160209091012082826000806103658561036085876129f7565b6118ab565b915091508181906103ac576040517f08c379a00000000000000000000000000000000000000000000000000000000081526004016103a39190612422565b60405180910390fd5b5060005b838110156104675760017f255f4a56bd3ad76424e31ed8855ef9ad14a0ce4e67508c76ff082e5c1466b13260008787858181106103ef576103ef612aea565b90506020028101906104019190612b19565b60405161040f929190612b7e565b6040805191829003909120825260208201929092520160002080547fffffffffffffffffffffffffffffffffffffffffffffffffffffffffffffff00169115159190911790558061045f81612bbd565b9150506103b0565b5073ffffffffffffffffffffffffffffffffffffffff8a1660009081527f48c02387a8e3f19678350d4a0d11f3f704fd6b94259fde7dd6097e79ffa93dcd6020526040902089906104b88282612f8c565b505050505050505050505050565b848484466040516020016104dd9493929190613119565b604080517fffffffffffffffffffffffffffffffffffffffffffffffffffffffffffffffe0818403018152919052805160209091012082826000806105268561036085876129f7565b91509150818190610564576040517f08c379a00000000000000000000000000000000000000000000000000000000081526004016103a39190612422565b5060005b8381101561061f5760017f255f4a56bd3ad76424e31ed8855ef9ad14a0ce4e67508c76ff082e5c1466b13260008787858181106105a7576105a7612aea565b90506020028101906105b99190612b19565b6040516105c7929190612b7e565b6040805191829003909120825260208201929092520160002080547fffffffffffffffffffffffffffffffffffffffffffffffffffffffffffffff00169115159190911790558061061781612bbd565b915050610568565b5060005b8981101561066c5761065a8b8b8381811061064057610640612aea565b9050602002016020810190610655919061268a565b611ab6565b8061066481612bbd565b915050610623565b5050505050505050505050565b6040805173ffffffffffffffffffffffffffffffffffffffff86166020820152908101849052466060820152608001604080517fffffffffffffffffffffffffffffffffffffffffffffffffffffffffffffffe0818403018152919052805160209091012082826000806106f18561036085876129f7565b9150915081819061072f576040517f08c379a00000000000000000000000000000000000000000000000000000000081526004016103a39190612422565b5060005b838110156107ea5760017f255f4a56bd3ad76424e31ed8855ef9ad14a0ce4e67508c76ff082e5c1466b132600087878581811061077257610772612aea565b90506020028101906107849190612b19565b604051610792929190612b7e565b6040805191829003909120825260208201929092520160002080547fffffffffffffffffffffffffffffffffffffffffffffffffffffffffffffff0016911515919091179055806107e281612bbd565b915050610733565b5073ffffffffffffffffffffffffffffffffffffffff891660009081527f48c02387a8e3f19678350d4a0d11f3f704fd6b94259fde7dd6097e79ffa93dcd6020526040812080547fffffffffffffffffffffffffffffffffffffffffffffffff00000000000000001681559061086360018301826120cf565b6108716002830160006120f4565b61066c600383016000612119565b6060834660405160200161089492919061322e565b604080517fffffffffffffffffffffffffffffffffffffffffffffffffffffffffffffffe0818403018152919052805160209091012083836000806108dd8561036085876129f7565b9150915081819061091b576040517f08c379a00000000000000000000000000000000000000000000000000000000081526004016103a39190612422565b5060005b838110156109d65760017f255f4a56bd3ad76424e31ed8855ef9ad14a0ce4e67508c76ff082e5c1466b132600087878581811061095e5761095e612aea565b90506020028101906109709190612b19565b60405161097e929190612b7e565b6040805191829003909120825260208201929092520160002080547fffffffffffffffffffffffffffffffffffffffffffffffffffffffffffffff0016911515919091179055806109ce81612bbd565b91505061091f565b506109e089611c50565b9998505050505050505050565b3360009081527f48c02387a8e3f19678350d4a0d11f3f704fd6b94259fde7dd6097e79ffa93dcd6020526040902080546060919067ffffffffffffffff16151580610a3b5750600181015415155b80610a495750600381015415155b80610a575750600281015415155b610abd576040517f08c379a000000000000000000000000000000000000000000000000000000000815260206004820152601660248201527f53657373696f6e20646f6573206e6f742065786973740000000000000000000060448201526064016103a3565b805467ffffffffffffffff161580610ae1575080544267ffffffffffffffff909116105b610b47576040517f08c379a000000000000000000000000000000000000000000000000000000000815260206004820152600f60248201527f53657373696f6e2065787069726564000000000000000000000000000000000060448201526064016103a3565b600381015415610c6b576000805b6003830154811015610bdb57610b6e602086018661268a565b73ffffffffffffffffffffffffffffffffffffffff16836003018281548110610b9957610b99612aea565b60009182526020909120015473ffffffffffffffffffffffffffffffffffffffff1603610bc95760019150610bdb565b80610bd381612bbd565b915050610b55565b5080610c69576040517f08c379a000000000000000000000000000000000000000000000000000000000815260206004820152602860248201527f54617267657420636f6e7472616374206e6f7420617070726f76656420666f7260448201527f2073657373696f6e00000000000000000000000000000000000000000000000060648201526084016103a3565b505b600281015415610dc7576000610c846060850185612b19565b610c8d91613250565b90506000805b6002840154811015610d3657827bffffffffffffffffffffffffffffffffffffffffffffffffffffffff1916846002018281548110610cd457610cd4612aea565b90600052602060002090600891828204019190066004029054906101000a900460e01b7bffffffffffffffffffffffffffffffffffffffffffffffffffffffff191603610d245760019150610d36565b80610d2e81612bbd565b915050610c93565b5080610dc4576040517f08c379a000000000000000000000000000000000000000000000000000000000815260206004820152602a60248201527f46756e6374696f6e2073656c6563746f72206e6f7420617070726f766564206660448201527f6f722073657373696f6e0000000000000000000000000000000000000000000060648201526084016103a3565b50505b610dd083611c50565b9392505050565b6040805160208101869052908101849052466060820152608001604080517fffffffffffffffffffffffffffffffffffffffffffffffffffffffffffffffe081840301815291905280516020909101208282600080610e3a8561036085876129f7565b91509150818190610e78576040517f08c379a00000000000000000000000000000000000000000000000000000000081526004016103a39190612422565b5060005b83811015610f335760017f255f4a56bd3ad76424e31ed8855ef9ad14a0ce4e67508c76ff082e5c1466b1326000878785818110610ebb57610ebb612aea565b9050602002810190610ecd9190612b19565b604051610edb929190612b7e565b6040805191829003909120825260208201929092520160002080547fffffffffffffffffffffffffffffffffffffffffffffffffffffffffffffff001691151591909117905580610f2b81612bbd565b915050610e7c565b5060007f255f4a56bd3ad76424e31ed8855ef9ad14a0ce4e67508c76ff082e5c1466b12f54118015610fa757507f255f4a56bd3ad76424e31ed8855ef9ad14a0ce4e67508c76ff082e5c1466b130547f255f4a56bd3ad76424e31ed8855ef9ad14a0ce4e67508c76ff082e5c1466b12f5411155b61100d576040517f08c379a000000000000000000000000000000000000000000000000000000000815260206004820152601160248201527f496e76616c6964207468726573686f6c6400000000000000000000000000000060448201526064016103a3565b887f255f4a56bd3ad76424e31ed8855ef9ad14a0ce4e67508c76ff082e5c1466b12f55505050505050505050565b86868686864660405160200161105696959493929190613298565b604080517fffffffffffffffffffffffffffffffffffffffffffffffffffffffffffffffe08184030181529190528051602090910120828260008061109f8561036085876129f7565b915091508181906110dd576040517f08c379a00000000000000000000000000000000000000000000000000000000081526004016103a39190612422565b5060005b838110156111985760017f255f4a56bd3ad76424e31ed8855ef9ad14a0ce4e67508c76ff082e5c1466b132600087878581811061112057611120612aea565b90506020028101906111329190612b19565b604051611140929190612b7e565b6040805191829003909120825260208201929092520160002080547fffffffffffffffffffffffffffffffffffffffffffffffffffffffffffffff00169115159190911790558061119081612bbd565b9150506110e1565b5060005b8b8110156111fe576111ec8d8d838181106111b9576111b9612aea565b90506020020160208101906111ce919061268a565b8c8c848181106111e0576111e0612aea565b90506020020135611cec565b806111f681612bbd565b91505061119c565b50505050505050505050505050565b6040805173ffffffffffffffffffffffffffffffffffffffff871660208201529081018590526060810184905246608082015260a001604080517fffffffffffffffffffffffffffffffffffffffffffffffffffffffffffffffe08184030181529190528051602090910120828260008061128c8561036085876129f7565b915091508181906112ca576040517f08c379a00000000000000000000000000000000000000000000000000000000081526004016103a39190612422565b5060005b838110156113855760017f255f4a56bd3ad76424e31ed8855ef9ad14a0ce4e67508c76ff082e5c1466b132600087878581811061130d5761130d612aea565b905060200281019061131f9190612b19565b60405161132d929190612b7e565b6040805191829003909120825260208201929092520160002080547fffffffffffffffffffffffffffffffffffffffffffffffffffffffffffffff00169115159190911790558061137d81612bbd565b9150506112ce565b5073ffffffffffffffffffffffffffffffffffffffff8a1660009081527f255f4a56bd3ad76424e31ed8855ef9ad14a0ce4e67508c76ff082e5c1466b13160205260409020547f255f4a56bd3ad76424e31ed8855ef9ad14a0ce4e67508c76ff082e5c1466b130548a916113f89161330f565b6114029190613322565b7f255f4a56bd3ad76424e31ed8855ef9ad14a0ce4e67508c76ff082e5c1466b1308190551580159061147657507f255f4a56bd3ad76424e31ed8855ef9ad14a0ce4e67508c76ff082e5c1466b12f547f255f4a56bd3ad76424e31ed8855ef9ad14a0ce4e67508c76ff082e5c1466b1305410155b6114dc576040517f08c379a000000000000000000000000000000000000000000000000000000000815260206004820152601d60248201527f5468726573686f6c6420776f756c6420626520696d706f737369626c6500000060448201526064016103a3565b5050505073ffffffffffffffffffffffffffffffffffffffff9590951660009081527f255f4a56bd3ad76424e31ed8855ef9ad14a0ce4e67508c76ff082e5c1466b131602052604090209390935550505050565b606084844660405160200161154793929190613335565b604080517fffffffffffffffffffffffffffffffffffffffffffffffffffffffffffffffe0818403018152919052805160209091012083836000806115908561036085876129f7565b915091508181906115ce576040517f08c379a00000000000000000000000000000000000000000000000000000000081526004016103a39190612422565b5060005b838110156116895760017f255f4a56bd3ad76424e31ed8855ef9ad14a0ce4e67508c76ff082e5c1466b132600087878581811061161157611611612aea565b90506020028101906116239190612b19565b604051611631929190612b7e565b6040805191829003909120825260208201929092520160002080547fffffffffffffffffffffffffffffffffffffffffffffffffffffffffffffff00169115159190911790558061168181612bbd565b9150506115d2565b5060008967ffffffffffffffff8111156116a5576116a5612979565b6040519080825280602002602001820160405280156116d857816020015b60608152602001906001900390816116c35790505b50905060005b8a811015611742576117128c8c838181106116fb576116fb612aea565b905060200281019061170d91906133ea565b611c50565b82828151811061172457611724612aea565b6020026020010181905250808061173a90612bbd565b9150506116de565b509a9950505050505050505050565b606060008267ffffffffffffffff81111561176e5761176e612979565b6040519080825280602002602001820160405280156117a157816020015b606081526020019060019003908161178c5790505b50905060005b83811015611806576117d68585838181106117c4576117c4612aea565b90506020028101906101b191906133ea565b8282815181106117e8576117e8612aea565b602002602001018190525080806117fe90612bbd565b9150506117a7565b509392505050565b60007f7e68492c000000000000000000000000000000000000000000000000000000007fffffffff0000000000000000000000000000000000000000000000000000000083160161186157506001919050565b7f01ffc9a7000000000000000000000000000000000000000000000000000000007fffffffff000000000000000000000000000000000000000000000000000000008316146102fa565b600060606000805b8451811015611a4a5760006118e1878784815181106118d4576118d4612aea565b6020026020010151611d6e565b73ffffffffffffffffffffffffffffffffffffffff811660009081527f255f4a56bd3ad76424e31ed8855ef9ad14a0ce4e67508c76ff082e5c1466b13160205260408120549192500361195557600060405180606001604052806032815260200161347e6032913994509450505050611aaf565b600086838151811061196957611969612aea565b60200260200101518051906020012090506119a17f255f4a56bd3ad76424e31ed8855ef9ad14a0ce4e67508c76ff082e5c1466b12f90565b6000828152600391909101602052604090205460ff16156119e45760006040518060600160405280602381526020016134b0602391399550955050505050611aaf565b73ffffffffffffffffffffffffffffffffffffffff821660009081527f255f4a56bd3ad76424e31ed8855ef9ad14a0ce4e67508c76ff082e5c1466b1316020526040902054611a339085613322565b935050508080611a4290612bbd565b9150506118b3565b507f255f4a56bd3ad76424e31ed8855ef9ad14a0ce4e67508c76ff082e5c1466b12f54811015611a99576000604051806060016040528060268152602001613458602691399250925050611aaf565b5050604080516020810190915260008152600191505b9250929050565b73ffffffffffffffffffffffffffffffffffffffff811660009081527f255f4a56bd3ad76424e31ed8855ef9ad14a0ce4e67508c76ff082e5c1466b13160205260408120547f255f4a56bd3ad76424e31ed8855ef9ad14a0ce4e67508c76ff082e5c1466b130805491929091611b2d90849061330f565b90915550507f255f4a56bd3ad76424e31ed8855ef9ad14a0ce4e67508c76ff082e5c1466b1305415801590611ba457507f255f4a56bd3ad76424e31ed8855ef9ad14a0ce4e67508c76ff082e5c1466b12f547f255f4a56bd3ad76424e31ed8855ef9ad14a0ce4e67508c76ff082e5c1466b1305410155b611c0a576040517f08c379a000000000000000000000000000000000000000000000000000000000815260206004820152601d60248201527f5468726573686f6c6420776f756c6420626520696d706f737369626c6500000060448201526064016103a3565b73ffffffffffffffffffffffffffffffffffffffff1660009081527f255f4a56bd3ad76424e31ed8855ef9ad14a0ce4e67508c76ff082e5c1466b1316020526040812055565b6060600080611c62602085018561268a565b73ffffffffffffffffffffffffffffffffffffffff166020850135611c8a6060870187612b19565b604051611c98929190612b7e565b60006040518083038185875af1925050503d8060008114611cd5576040519150601f19603f3d011682016040523d82523d6000602084013e611cda565b606091505b509150915081610dd057805160208201fd5b807f255f4a56bd3ad76424e31ed8855ef9ad14a0ce4e67508c76ff082e5c1466b12f6001016000828254611d209190613322565b909155505073ffffffffffffffffffffffffffffffffffffffff9190911660009081527f255f4a56bd3ad76424e31ed8855ef9ad14a0ce4e67508c76ff082e5c1466b1316020526040902055565b6000610dd082611dcb856040517f19457468657265756d205369676e6564204d6573736167653a0a3332000000006020820152603c8101829052600090605c01604051602081830303815290604052805190602001209050919050565b906000806000611ddb8585611de8565b9150915061180681611e2a565b6000808251604103611e1e5760208301516040840151606085015160001a611e1287828585611fe0565b94509450505050611aaf565b50600090506002611aaf565b6000816004811115611e3e57611e3e613428565b03611e465750565b6001816004811115611e5a57611e5a613428565b03611ec1576040517f08c379a000000000000000000000000000000000000000000000000000000000815260206004820152601860248201527f45434453413a20696e76616c6964207369676e6174757265000000000000000060448201526064016103a3565b6002816004811115611ed557611ed5613428565b03611f3c576040517f08c379a000000000000000000000000000000000000000000000000000000000815260206004820152601f60248201527f45434453413a20696e76616c6964207369676e6174757265206c656e6774680060448201526064016103a3565b6003816004811115611f5057611f50613428565b03611fdd576040517f08c379a000000000000000000000000000000000000000000000000000000000815260206004820152602260248201527f45434453413a20696e76616c6964207369676e6174757265202773272076616c60448201527f756500000000000000000000000000000000000000000000000000000000000060648201526084016103a3565b50565b6000807f7fffffffffffffffffffffffffffffff5d576e7357a4501ddfe92f46681b20a083111561201757506000905060036120c6565b6040805160008082526020820180845289905260ff881692820192909252606081018690526080810185905260019060a0016020604051602081039080840390855afa15801561206b573d6000803e3d6000fd5b50506040517fffffffffffffffffffffffffffffffffffffffffffffffffffffffffffffffe0015191505073ffffffffffffffffffffffffffffffffffffffff81166120bf576000600192509250506120c6565b9150600090505b94509492505050565b508054600082556003016004900490600052602060002090810190611fdd9190612133565b508054600082556007016008900490600052602060002090810190611fdd9190612133565b5080546000825590600052602060002090810190611fdd91905b5b808211156121485760008155600101612134565b5090565b7fffffffff0000000000000000000000000000000000000000000000000000000081168114611fdd57600080fd5b60006020828403121561218c57600080fd5b8135610dd08161214c565b73ffffffffffffffffffffffffffffffffffffffff81168114611fdd57600080fd5b6000608082840312156121cb57600080fd5b50919050565b60008083601f8401126121e357600080fd5b50813567ffffffffffffffff8111156121fb57600080fd5b6020830191508360208260051b8501011115611aaf57600080fd5b60008060008060006080868803121561222e57600080fd5b853561223981612197565b9450602086013567ffffffffffffffff8082111561225657600080fd5b61226289838a016121b9565b955060408801359450606088013591508082111561227f57600080fd5b5061228c888289016121d1565b969995985093965092949392505050565b6000806000806000606086880312156122b557600080fd5b853567ffffffffffffffff808211156122cd57600080fd5b6122d989838a016121d1565b909750955060208801359450604088013591508082111561227f57600080fd5b6000806000806060858703121561230f57600080fd5b843561231a81612197565b935060208501359250604085013567ffffffffffffffff81111561233d57600080fd5b612349878288016121d1565b95989497509550505050565b60008060006040848603121561236a57600080fd5b833567ffffffffffffffff8082111561238257600080fd5b61238e878388016121b9565b945060208601359150808211156123a457600080fd5b506123b1868287016121d1565b9497909650939450505050565b6000815180845260005b818110156123e4576020818501810151868301820152016123c8565b5060006020828601015260207fffffffffffffffffffffffffffffffffffffffffffffffffffffffffffffffe0601f83011685010191505092915050565b602081526000610dd060208301846123be565b60006020828403121561244757600080fd5b813567ffffffffffffffff81111561245e57600080fd5b61246a848285016121b9565b949350505050565b6000806000806060858703121561248857600080fd5b8435935060208501359250604085013567ffffffffffffffff81111561233d57600080fd5b60008060008060008060006080888a0312156124c857600080fd5b873567ffffffffffffffff808211156124e057600080fd5b6124ec8b838c016121d1565b909950975060208a013591508082111561250557600080fd5b6125118b838c016121d1565b909750955060408a0135945060608a013591508082111561253157600080fd5b5061253e8a828b016121d1565b989b979a50959850939692959293505050565b60008060008060006080868803121561256957600080fd5b853561257481612197565b94506020860135935060408601359250606086013567ffffffffffffffff81111561259e57600080fd5b61228c888289016121d1565b600080600080604085870312156125c057600080fd5b843567ffffffffffffffff808211156125d857600080fd5b6125e4888389016121d1565b909650945060208701359150808211156125fd57600080fd5b50612349878288016121d1565b6000602080830181845280855180835260408601915060408160051b870101925083870160005b8281101561267d577fffffffffffffffffffffffffffffffffffffffffffffffffffffffffffffffc088860301845261266b8583516123be565b94509285019290850190600101612631565b5092979650505050505050565b60006020828403121561269c57600080fd5b8135610dd081612197565b600080602083850312156126ba57600080fd5b823567ffffffffffffffff8111156126d157600080fd5b6126dd858286016121d1565b90969095509350505050565b67ffffffffffffffff81168114611fdd57600080fd5b60008083357fffffffffffffffffffffffffffffffffffffffffffffffffffffffffffffffe184360301811261273457600080fd5b830160208101925035905067ffffffffffffffff81111561275457600080fd5b8060051b3603821315611aaf57600080fd5b7fffffffffffffffff00000000000000000000000000000000000000000000000081168114611fdd57600080fd5b8183526000602080850194508260005b858110156127eb5781356127b78161214c565b7fffffffff0000000000000000000000000000000000000000000000000000000016875295820195908201906001016127a4565b509495945050505050565b8183526000602080850194508260005b858110156127eb57813561281981612197565b73ffffffffffffffffffffffffffffffffffffffff1687529582019590820190600101612806565b73ffffffffffffffffffffffffffffffffffffffff851681526000602060808184015261010083018635612874816126e9565b67ffffffffffffffff16608085015261288f878301886126ff565b608060a0870152918290529060009061012086015b818310156128ed5783356128b781612766565b7fffffffffffffffff000000000000000000000000000000000000000000000000168152928401926001929092019184016128a4565b6128fa60408b018b6126ff565b955093507fffffffffffffffffffffffffffffffffffffffffffffffffffffffffffffff809250828782030160c0880152612936818686612794565b9450505061294760608901896126ff565b9250818685030160e087015261295e8484836127f6565b94505050505083604083015282606083015295945050505050565b7f4e487b7100000000000000000000000000000000000000000000000000000000600052604160045260246000fd5b604051601f82017fffffffffffffffffffffffffffffffffffffffffffffffffffffffffffffffe016810167ffffffffffffffff811182821017156129ef576129ef612979565b604052919050565b600067ffffffffffffffff80841115612a1257612a12612979565b8360051b6020612a238183016129a8565b868152918501918181019036841115612a3b57600080fd5b865b84811015612ade57803586811115612a555760008081fd5b8801601f3681830112612a685760008081fd5b813588811115612a7a57612a7a612979565b612aa9877fffffffffffffffffffffffffffffffffffffffffffffffffffffffffffffffe084840116016129a8565b91508082523687828501011115612ac05760008081fd5b80878401888401376000908201870152845250918301918301612a3d565b50979650505050505050565b7f4e487b7100000000000000000000000000000000000000000000000000000000600052603260045260246000fd5b60008083357fffffffffffffffffffffffffffffffffffffffffffffffffffffffffffffffe1843603018112612b4e57600080fd5b83018035915067ffffffffffffffff821115612b6957600080fd5b602001915036819003821315611aaf57600080fd5b8183823760009101908152919050565b7f4e487b7100000000000000000000000000000000000000000000000000000000600052601160045260246000fd5b60007fffffffffffffffffffffffffffffffffffffffffffffffffffffffffffffffff8203612bee57612bee612b8e565b5060010190565b60008083357fffffffffffffffffffffffffffffffffffffffffffffffffffffffffffffffe1843603018112612c2a57600080fd5b83018035915067ffffffffffffffff821115612c4557600080fd5b6020019150600581901b3603821315611aaf57600080fd5b5b81811015612c725760008155600101612c5e565b5050565b68010000000000000000821115612c8f57612c8f612979565b805482825580831015612d2a578160005260206000206003840160021c810160188560031b168015612d1457612d14817fffffffffffffffffffffffffffffffffffffffffffffffffffffffffffffffff840180547fffffffffffffffffffffffffffffffffffffffffffffffffffffffffffffffff8360200360031b1c1681555050565b50612d276003840160021c830182612c5d565b50505b505050565b600081356102fa81612766565b68010000000000000000821115612d5557612d55612979565b805482825580831015612d2a578160005260206000206007840160031c8101601c8560021b168015612dda57612dda817fffffffffffffffffffffffffffffffffffffffffffffffffffffffffffffffff840180547fffffffffffffffffffffffffffffffffffffffffffffffffffffffffffffffff8360200360031b1c1681555050565b50612d276007840160031c830182612c5d565b600081356102fa8161214c565b67ffffffffffffffff831115612e1257612e12612979565b612e1c8382612d3c565b60008181526020902082908460031c60005b81811015612e90576000805b6008811015612e8357612e72612e58612e5288612ded565b60e01c90565b63ffffffff908116600584901b90811b91901b1984161790565b602096909601959150600101612e3a565b5083820155600101612e2e565b507ffffffffffffffffffffffffffffffffffffffffffffffffffffffffffffffff88616808703818814612ef0576000805b82811015612eea57612ed9612e58612e5289612ded565b602097909701969150600101612ec2565b50848401555b5050505050505050565b67ffffffffffffffff831115612f1257612f12612979565b68010000000000000000831115612f2b57612f2b612979565b805483825580841015612f5157816000526020600020612f4f828201868301612c5d565b505b50818160005260208060002060005b86811015612f83578335612f7381612197565b8282015592820192600101612f60565b50505050505050565b8135612f97816126e9565b81547fffffffffffffffffffffffffffffffffffffffffffffffff00000000000000001667ffffffffffffffff9182161782556001908183016020612fde86820187612bf5565b84811115612fee57612fee612979565b612ff88185612c76565b81945061300b8460009081526020902090565b93508060021c915060005b82811015613077576000805b600481101561306b5761305e61304061303a8a612d2f565b60c01c90565b67ffffffffffffffff908116600684901b90811b91901b1984161790565b9786019791508801613022565b50858201558601613016565b507ffffffffffffffffffffffffffffffffffffffffffffffffffffffffffffffffc81168082038183146130d3576000805b828110156130cd576130c061304061303a8b612d2f565b98870198915089016130a9565b50868501555b50505050505050506130e86040830183612bf5565b6130f6818360028601612dfa565b50506131056060830183612bf5565b613113818360038601612efa565b50505050565b60608152600061312d6060830186886127f6565b6020830194909452506040015292915050565b6000813561314d81612197565b73ffffffffffffffffffffffffffffffffffffffff8116845250602082013560208401526040820135604084015260608201357fffffffffffffffffffffffffffffffffffffffffffffffffffffffffffffffe18336030181126131b057600080fd5b820160208101903567ffffffffffffffff8111156131cd57600080fd5b8036038213156131dc57600080fd5b60806060860152806080860152808260a0870137600060a0828701015260a07fffffffffffffffffffffffffffffffffffffffffffffffffffffffffffffffe0601f8301168601019250505092915050565b6040815260006132416040830185613140565b90508260208301529392505050565b7fffffffff0000000000000000000000000000000000000000000000000000000081358181169160048510156132905780818660040360031b1b83161692505b505092915050565b6080815260006132ac60808301888a6127f6565b82810360208401528581527f07ffffffffffffffffffffffffffffffffffffffffffffffffffffffffffffff8611156132e457600080fd5b8560051b80886020840137604084019590955260609092019290925290910160200195945050505050565b818103818111156102fa576102fa612b8e565b808201808211156102fa576102fa612b8e565b6040808252810183905260006060600585901b830181019083018683805b888110156133d5577fffffffffffffffffffffffffffffffffffffffffffffffffffffffffffffffa087860301845282357fffffffffffffffffffffffffffffffffffffffffffffffffffffffffffffff818b36030181126133b3578283fd5b6133bf868c8301613140565b9550506020938401939290920191600101613353565b50505050602092909201929092529392505050565b600082357fffffffffffffffffffffffffffffffffffffffffffffffffffffffffffffff8183360301811261341e57600080fd5b9190910192915050565b7f4e487b7100000000000000000000000000000000000000000000000000000000600052602160045260246000fdfe5369676e6572207765696768747320646f6573206e6f74206d656574207468726573686f6c644174206c65617374206f6e65207369676e6174757265206e6f742066726f6d2061206b6e6f776e20636f6e74726f6c6c65724174206c65617374206f6e65207369676e617475726520616c72656164792075736564a2646970667358221220c070e5417fc5de81abab7dc060f607cc57413398be925fa111274e1045c8ede064736f6c63430008120033",
  "linkReferences": {},
  "deployedLinkReferences": {}
}