{
  "_format": "hh-sol-artifact-1",
  "contractName": "SessionCalls",
  "sourceName": "contracts/modules/SessionCalls/SessionCalls.sol",
  "abi": [
    {
      "inputs": [],
      "stateMutability": "nonpayable",
      "type": "constructor"
    },
    {
      "inputs": [],
      "name": "ArraryLengthMismatch",
      "type": "error"
    },
    {
      "inputs": [],
      "name": "ControllerAlreadyExists",
      "type": "error"
    },
    {
      "inputs": [],
      "name": "ControllerDoesNotExist",
      "type": "error"
    },
    {
      "inputs": [],
      "name": "ControllersNotInitialized",
      "type": "error"
    },
    {
      "inputs": [],
      "name": "DeadlineReached",
      "type": "error"
    },
    {
      "inputs": [],
      "name": "ECDSAInvalidSignature",
      "type": "error"
    },
    {
      "inputs": [
        {
          "internalType": "uint256",
          "name": "length",
          "type": "uint256"
        }
      ],
      "name": "ECDSAInvalidSignatureLength",
      "type": "error"
    },
    {
      "inputs": [
        {
          "internalType": "bytes32",
          "name": "s",
          "type": "bytes32"
        }
      ],
      "name": "ECDSAInvalidSignatureS",
      "type": "error"
    },
    {
      "inputs": [
        {
          "internalType": "address",
          "name": "tokenAddress",
          "type": "address"
        },
        {
          "internalType": "uint256",
          "name": "tokenId",
          "type": "uint256"
        },
        {
          "internalType": "uint256",
          "name": "amount",
          "type": "uint256"
        },
        {
          "internalType": "uint256",
          "name": "allowance",
          "type": "uint256"
        }
      ],
      "name": "InsufficientAllowanceForERC1155Transfer",
      "type": "error"
    },
    {
      "inputs": [
        {
          "internalType": "address",
          "name": "tokenAddress",
          "type": "address"
        },
        {
          "internalType": "uint256",
          "name": "amount",
          "type": "uint256"
        },
        {
          "internalType": "uint256",
          "name": "allowance",
          "type": "uint256"
        }
      ],
      "name": "InsufficientAllowanceForERC20Transfer",
      "type": "error"
    },
    {
      "inputs": [
        {
          "internalType": "address",
          "name": "tokenAddress",
          "type": "address"
        },
        {
          "internalType": "uint256",
          "name": "tokenId",
          "type": "uint256"
        }
      ],
      "name": "InsufficientAllowanceForERC721Transfer",
      "type": "error"
    },
    {
      "inputs": [
        {
          "internalType": "uint256",
          "name": "amount",
          "type": "uint256"
        },
        {
          "internalType": "uint256",
          "name": "allowance",
          "type": "uint256"
        }
      ],
      "name": "InsufficientNativeTokenAllowance",
      "type": "error"
    },
    {
      "inputs": [],
      "name": "InvalidInitialization",
      "type": "error"
    },
    {
      "inputs": [],
      "name": "InvalidParameters",
      "type": "error"
    },
    {
      "inputs": [],
      "name": "InvalidThreshold",
      "type": "error"
    },
    {
      "inputs": [
        {
          "internalType": "address",
          "name": "sender",
          "type": "address"
        }
      ],
      "name": "NoSessionStarted",
      "type": "error"
    },
    {
      "inputs": [],
      "name": "NotInitializing",
      "type": "error"
    },
    {
      "inputs": [],
      "name": "SessionExpired",
      "type": "error"
    },
    {
      "inputs": [],
      "name": "ThresholdImpossible",
      "type": "error"
    },
    {
      "inputs": [
        {
          "internalType": "address",
          "name": "targetContract",
          "type": "address"
        },
        {
          "internalType": "bytes4",
          "name": "functionSelector",
          "type": "bytes4"
        }
      ],
      "name": "UnauthorizedSessionCall",
      "type": "error"
    },
    {
      "anonymous": false,
      "inputs": [
        {
          "indexed": false,
          "internalType": "uint64",
          "name": "version",
          "type": "uint64"
        }
      ],
      "name": "Initialized",
      "type": "event"
    },
    {
      "inputs": [
        {
          "internalType": "address[]",
          "name": "_controllers",
          "type": "address[]"
        },
        {
          "internalType": "uint256[]",
          "name": "_weights",
          "type": "uint256[]"
        },
        {
          "internalType": "uint256",
          "name": "_nonce",
          "type": "uint256"
        },
        {
          "internalType": "bytes[]",
          "name": "_signatures",
          "type": "bytes[]"
        },
        {
          "internalType": "uint256",
          "name": "_deadline",
          "type": "uint256"
        }
      ],
      "name": "addControllers",
      "outputs": [],
      "stateMutability": "nonpayable",
      "type": "function"
    },
    {
      "inputs": [
        {
          "components": [
            {
              "internalType": "address",
              "name": "target",
              "type": "address"
            },
            {
              "internalType": "uint256",
              "name": "value",
              "type": "uint256"
            },
            {
              "internalType": "uint256",
              "name": "nonce",
              "type": "uint256"
            },
            {
              "internalType": "bytes",
              "name": "data",
              "type": "bytes"
            }
          ],
          "internalType": "struct CallsStructs.CallRequest",
          "name": "_callRequest",
          "type": "tuple"
        },
        {
          "internalType": "bytes[]",
          "name": "_signatures",
          "type": "bytes[]"
        },
        {
          "internalType": "uint256",
          "name": "_deadline",
          "type": "uint256"
        }
      ],
      "name": "call",
      "outputs": [
        {
          "internalType": "bytes",
          "name": "",
          "type": "bytes"
        }
      ],
      "stateMutability": "nonpayable",
      "type": "function"
    },
    {
      "inputs": [],
      "name": "controlThreshold",
      "outputs": [
        {
          "internalType": "uint256",
          "name": "",
          "type": "uint256"
        }
      ],
      "stateMutability": "view",
      "type": "function"
    },
    {
      "inputs": [
        {
          "internalType": "address",
          "name": "_controller",
          "type": "address"
        }
      ],
      "name": "controllerWeight",
      "outputs": [
        {
          "internalType": "uint256",
          "name": "",
          "type": "uint256"
        }
      ],
      "stateMutability": "view",
      "type": "function"
    },
    {
      "inputs": [],
      "name": "controllersTotalWeight",
      "outputs": [
        {
          "internalType": "uint256",
          "name": "",
          "type": "uint256"
        }
      ],
      "stateMutability": "view",
      "type": "function"
    },
    {
      "inputs": [],
      "name": "endSession",
      "outputs": [],
      "stateMutability": "nonpayable",
      "type": "function"
    },
    {
      "inputs": [
        {
          "internalType": "address",
          "name": "_caller",
          "type": "address"
        },
        {
          "internalType": "uint256",
          "name": "_nonce",
          "type": "uint256"
        },
        {
          "internalType": "bytes[]",
          "name": "_signatures",
          "type": "bytes[]"
        },
        {
          "internalType": "uint256",
          "name": "_deadline",
          "type": "uint256"
        }
      ],
      "name": "endSessionForCaller",
      "outputs": [],
      "stateMutability": "nonpayable",
      "type": "function"
    },
    {
      "inputs": [
        {
          "internalType": "address",
          "name": "_caller",
          "type": "address"
        }
      ],
      "name": "hasActiveSession",
      "outputs": [
        {
          "internalType": "bool",
          "name": "hasSession_",
          "type": "bool"
        }
      ],
      "stateMutability": "view",
      "type": "function"
    },
    {
      "inputs": [
        {
          "components": [
            {
              "internalType": "address",
              "name": "target",
              "type": "address"
            },
            {
              "internalType": "uint256",
              "name": "value",
              "type": "uint256"
            },
            {
              "internalType": "uint256",
              "name": "nonce",
              "type": "uint256"
            },
            {
              "internalType": "bytes",
              "name": "data",
              "type": "bytes"
            }
          ],
          "internalType": "struct CallsStructs.CallRequest[]",
          "name": "_callRequests",
          "type": "tuple[]"
        },
        {
          "internalType": "bytes[]",
          "name": "_signatures",
          "type": "bytes[]"
        },
        {
          "internalType": "uint256",
          "name": "_deadline",
          "type": "uint256"
        }
      ],
      "name": "multiCall",
      "outputs": [
        {
          "internalType": "bytes[]",
          "name": "",
          "type": "bytes[]"
        }
      ],
      "stateMutability": "nonpayable",
      "type": "function"
    },
    {
      "inputs": [
        {
          "internalType": "address[]",
          "name": "_controllers",
          "type": "address[]"
        },
        {
          "internalType": "uint256",
          "name": "_newThreshold",
          "type": "uint256"
        },
        {
          "internalType": "uint256",
          "name": "_nonce",
          "type": "uint256"
        },
        {
          "internalType": "bytes[]",
          "name": "_signatures",
          "type": "bytes[]"
        },
        {
          "internalType": "uint256",
          "name": "_deadline",
          "type": "uint256"
        }
      ],
      "name": "removeControllers",
      "outputs": [],
      "stateMutability": "nonpayable",
      "type": "function"
    },
    {
      "inputs": [
        {
          "internalType": "address",
          "name": "_controllerOld",
          "type": "address"
        },
        {
          "internalType": "address",
          "name": "_controllerNew",
          "type": "address"
        },
        {
          "internalType": "uint256",
          "name": "_nonce",
          "type": "uint256"
        },
        {
          "internalType": "bytes[]",
          "name": "_signatures",
          "type": "bytes[]"
        },
        {
          "internalType": "uint256",
          "name": "_deadline",
          "type": "uint256"
        }
      ],
      "name": "replaceController",
      "outputs": [],
      "stateMutability": "nonpayable",
      "type": "function"
    },
    {
      "inputs": [
        {
          "components": [
            {
              "internalType": "address",
              "name": "target",
              "type": "address"
            },
            {
              "internalType": "uint256",
              "name": "value",
              "type": "uint256"
            },
            {
              "internalType": "uint256",
              "name": "nonce",
              "type": "uint256"
            },
            {
              "internalType": "bytes",
              "name": "data",
              "type": "bytes"
            }
          ],
          "internalType": "struct CallsStructs.CallRequest",
          "name": "_callRequest",
          "type": "tuple"
        }
      ],
      "name": "sessionCall",
      "outputs": [
        {
          "internalType": "bytes",
          "name": "",
          "type": "bytes"
        }
      ],
      "stateMutability": "nonpayable",
      "type": "function"
    },
    {
      "inputs": [
        {
          "components": [
            {
              "internalType": "address",
              "name": "target",
              "type": "address"
            },
            {
              "internalType": "uint256",
              "name": "value",
              "type": "uint256"
            },
            {
              "internalType": "uint256",
              "name": "nonce",
              "type": "uint256"
            },
            {
              "internalType": "bytes",
              "name": "data",
              "type": "bytes"
            }
          ],
          "internalType": "struct CallsStructs.CallRequest[]",
          "name": "_callRequests",
          "type": "tuple[]"
        }
      ],
      "name": "sessionMultiCall",
      "outputs": [
        {
          "internalType": "bytes[]",
          "name": "",
          "type": "bytes[]"
        }
      ],
      "stateMutability": "nonpayable",
      "type": "function"
    },
    {
      "inputs": [
        {
          "internalType": "address",
          "name": "_caller",
          "type": "address"
        },
        {
          "components": [
            {
              "internalType": "uint256",
              "name": "nativeAllowance",
              "type": "uint256"
            },
            {
              "components": [
                {
                  "internalType": "address",
                  "name": "aContract",
                  "type": "address"
                },
                {
                  "internalType": "bytes4[]",
                  "name": "functionSelectors",
                  "type": "bytes4[]"
                }
              ],
              "internalType": "struct SessionCallsStructs.SessionRequest_ContractFunctionSelectors[]",
              "name": "contractFunctionSelectors",
              "type": "tuple[]"
            },
            {
              "components": [
                {
                  "internalType": "address",
                  "name": "erc20Contract",
                  "type": "address"
                },
                {
                  "internalType": "uint256",
                  "name": "allowance",
                  "type": "uint256"
                }
              ],
              "internalType": "struct SessionCallsStructs.SessionRequest_ERC20Allowance[]",
              "name": "erc20Allowances",
              "type": "tuple[]"
            },
            {
              "components": [
                {
                  "internalType": "address",
                  "name": "erc721Contract",
                  "type": "address"
                },
                {
                  "internalType": "bool",
                  "name": "approveAll",
                  "type": "bool"
                },
                {
                  "internalType": "uint256[]",
                  "name": "tokenIds",
                  "type": "uint256[]"
                }
              ],
              "internalType": "struct SessionCallsStructs.SessionRequest_ERC721Allowance[]",
              "name": "erc721Allowances",
              "type": "tuple[]"
            },
            {
              "components": [
                {
                  "internalType": "address",
                  "name": "erc1155Contract",
                  "type": "address"
                },
                {
                  "internalType": "bool",
                  "name": "approveAll",
                  "type": "bool"
                },
                {
                  "internalType": "uint256[]",
                  "name": "tokenIds",
                  "type": "uint256[]"
                },
                {
                  "internalType": "uint256[]",
                  "name": "allowances",
                  "type": "uint256[]"
                }
              ],
              "internalType": "struct SessionCallsStructs.SessionRequest_ERC1155Allowance[]",
              "name": "erc1155Allowances",
              "type": "tuple[]"
            }
          ],
          "internalType": "struct SessionCallsStructs.SessionRequest",
          "name": "_sessionRequest",
          "type": "tuple"
        },
        {
          "internalType": "uint256",
          "name": "_expiresAt",
          "type": "uint256"
        },
        {
          "internalType": "uint256",
          "name": "_nonce",
          "type": "uint256"
        },
        {
          "internalType": "bytes[]",
          "name": "_signatures",
          "type": "bytes[]"
        },
        {
          "internalType": "uint256",
          "name": "_deadline",
          "type": "uint256"
        }
      ],
      "name": "startSession",
      "outputs": [],
      "stateMutability": "nonpayable",
      "type": "function"
    },
    {
      "inputs": [
        {
          "internalType": "bytes4",
          "name": "interfaceId",
          "type": "bytes4"
        }
      ],
      "name": "supportsInterface",
      "outputs": [
        {
          "internalType": "bool",
          "name": "",
          "type": "bool"
        }
      ],
      "stateMutability": "view",
      "type": "function"
    },
    {
      "inputs": [
        {
          "internalType": "uint256",
          "name": "_threshold",
          "type": "uint256"
        },
        {
          "internalType": "uint256",
          "name": "_nonce",
          "type": "uint256"
        },
        {
          "internalType": "bytes[]",
          "name": "_signatures",
          "type": "bytes[]"
        },
        {
          "internalType": "uint256",
          "name": "_deadline",
          "type": "uint256"
        }
      ],
      "name": "updateControlThreshold",
      "outputs": [],
      "stateMutability": "nonpayable",
      "type": "function"
    },
    {
      "inputs": [
        {
          "internalType": "address",
          "name": "_controller",
          "type": "address"
        },
        {
          "internalType": "uint256",
          "name": "_weight",
          "type": "uint256"
        },
        {
          "internalType": "uint256",
          "name": "_nonce",
          "type": "uint256"
        },
        {
          "internalType": "bytes[]",
          "name": "_signatures",
          "type": "bytes[]"
        },
        {
          "internalType": "uint256",
          "name": "_deadline",
          "type": "uint256"
        }
      ],
      "name": "updateControllerWeight",
      "outputs": [],
      "stateMutability": "nonpayable",
      "type": "function"
    }
  ],
  "bytecode": "0x60806040523480156200001157600080fd5b506200001c62000036565b6200002662000036565b6200003062000036565b620000ea565b7ff0c57e16840df040f15088dc2f81fe391c3923bec73e23a9662efc9c229c6a00805468010000000000000000900460ff1615620000875760405163f92ee8a960e01b815260040160405180910390fd5b80546001600160401b0390811614620000e75780546001600160401b0319166001600160401b0390811782556040519081527fc7f505b2f371ae2175ee4913f4499e1f2633a7b5936321eed1cdaeb6115181d29060200160405180910390a15b50565b61428e80620000fa6000396000f3fe608060405234801561001057600080fd5b50600436106100eb5760003560e01c80635e45c113116100925780635e45c113146101af57806385ec90f9146101c257806389f8a9fa146101e2578063a7865090146101f5578063acf61669146101fd578063ccb34ddb14610210578063e237a3fc14610223578063f04420f11461022b578063f811896a1461023e57600080fd5b806301ffc9a7146100f057806306e8238314610118578063100dc0241461012e57806321f34cbe14610143578063294d37ea1461015657806350609c7d14610169578063566db1e41461017c5780635be037c31461018f575b600080fd5b6101036100fe366004612f4f565b610251565b60405190151581526020015b60405180910390f35b610120610282565b60405190815260200161010f565b61014161013c366004612fc3565b610295565b005b610141610151366004613034565b6104bb565b6101416101643660046130bf565b61066f565b61010361017736600461315f565b61083b565b61014161018a36600461317c565b6108c0565b6101a261019d3660046131d6565b610a0d565b60405161010f9190613299565b6101416101bd3660046132fd565b610bf9565b6101d56101d036600461335a565b610d2f565b60405161010f9190613396565b6101416101f03660046133a9565b610f4a565b610120611160565b6101d561020b3660046133ff565b611170565b61014161021e36600461346e565b6112b5565b6101416114df565b61012061023936600461315f565b6114ea565b6101a261024c366004613518565b611516565b600063a56a8ce960e01b6001600160e01b031983160161027357506001919050565b61027c826115c7565b92915050565b600061028c6115f2565b60010154905090565b604080516001600160a01b038816602082015290810186905260608101859052608081018290524660a082015260c00160405160208183030381529060405280519060200120818484428310156102ff5760405163b08ce5b360e01b815260040160405180910390fd5b6103076115f2565b5460000361032857604051636a00024b60e11b815260040160405180910390fd5b60008061033e866103398587613631565b611616565b9150915081819061036b5760405162461bcd60e51b81526004016103629190613396565b60405180910390fd5b5060005b838110156103e85760016103816115f2565b6003016000878785818110610398576103986136a9565b90506020028101906103aa91906136bf565b6040516103b8929190613705565b60408051918290039091208252602082019290925201600020805460ff191691151591909117905560010161036f565b508a6103f26115f2565b6001600160a01b038e16600090815260029190910160205260409020546104176115f2565b60010154610425919061372b565b61042f919061373e565b6104376115f2565b600101556104436115f2565b60010154158061046557506104566115f2565b5461045f6115f2565b60010154105b15610483576040516325746d7d60e21b815260040160405180910390fd5b8a61048c6115f2565b6001600160a01b03909d16600090815260029d909d016020526040909c209b909b555050505050505050505050565b8686868684466040516020016104d69695949392919061379a565b60405160208183030381529060405280519060200120818484428310156105105760405163b08ce5b360e01b815260040160405180910390fd5b6105186115f2565b5460000361053957604051636a00024b60e11b815260040160405180910390fd5b60008061054a866103398587613631565b9150915081819061056e5760405162461bcd60e51b81526004016103629190613396565b5060005b838110156105eb5760016105846115f2565b600301600087878581811061059b5761059b6136a9565b90506020028101906105ad91906136bf565b6040516105bb929190613705565b60408051918290039091208252602082019290925201600020805460ff1916911515919091179055600101610572565b5060008c900361060e57604051630e52390960e41b815260040160405180910390fd5b60005b8c811015610650576106488e8e8381811061062e5761062e6136a9565b9050602002016020810190610643919061315f565b61179e565b600101610611565b508a15610660576106608b611856565b50505050505050505050505050565b86868686844660405160200161068a96959493929190613a85565b604051602081830303815290604052818484428310156106bd5760405163b08ce5b360e01b815260040160405180910390fd5b6106c56115f2565b546000036106e657604051636a00024b60e11b815260040160405180910390fd5b835160208501206000908190610700906103398587613631565b915091508181906107245760405162461bcd60e51b81526004016103629190613396565b5060005b838110156107a157600161073a6115f2565b6003016000878785818110610751576107516136a9565b905060200281019061076391906136bf565b604051610771929190613705565b60408051918290039091208252602082019290925201600020805460ff1916911515919091179055600101610728565b5060006107ad8e6118a8565b8c81556000808052600282016020908152604080832090915290208e35905590506107d88d82611910565b6107e28d82611a7c565b6107ec8d82611b27565b6107f68d82611d1a565b6107fe611f62565b6001600160a01b038f1660009081526001919091016020526040812080549161082683613c1e565b91905055505050505050505050505050505050565b600080610846611f62565b6001600160a01b0384166000908152600182016020526040812054919250036108725750600092915050565b6001600160a01b038316600090815260208281526040808320600180860190935290832054909183916108a5919061372b565b81526020810191909152604001600020544210949350505050565b60408051602081018790529081018590526060810182905246608082015260a001604051602081830303815290604052805190602001208184844283101561091b5760405163b08ce5b360e01b815260040160405180910390fd5b6109236115f2565b5460000361094457604051636a00024b60e11b815260040160405180910390fd5b600080610955866103398587613631565b915091508181906109795760405162461bcd60e51b81526004016103629190613396565b5060005b838110156109f657600161098f6115f2565b60030160008787858181106109a6576109a66136a9565b90506020028101906109b891906136bf565b6040516109c6929190613705565b60408051918290039091208252602082019290925201600020805460ff191691151591909117905560010161097d565b50610a008b611856565b5050505050505050505050565b606085858346604051602001610a269493929190613cda565b6040516020818303038152906040528051906020012082858542831015610a605760405163b08ce5b360e01b815260040160405180910390fd5b610a686115f2565b54600003610a8957604051636a00024b60e11b815260040160405180910390fd5b600080610a9a866103398587613631565b91509150818190610abe5760405162461bcd60e51b81526004016103629190613396565b5060005b83811015610b3b576001610ad46115f2565b6003016000878785818110610aeb57610aeb6136a9565b9050602002810190610afd91906136bf565b604051610b0b929190613705565b60408051918290039091208252602082019290925201600020805460ff1916911515919091179055600101610ac2565b5060008b6001600160401b03811115610b5657610b56613559565b604051908082528060200260200182016040528015610b8957816020015b6060815260200190600190039081610b745790505b50905060005b8c811015610be857610bc38e8e83818110610bac57610bac6136a9565b9050602002810190610bbe9190613d46565b611f86565b828281518110610bd557610bd56136a9565b6020908102919091010152600101610b8f565b509c9b505050505050505050505050565b84848246604051602001610c109493929190613d66565b6040516020818303038152906040528051906020012081848442831015610c4a5760405163b08ce5b360e01b815260040160405180910390fd5b610c526115f2565b54600003610c7357604051636a00024b60e11b815260040160405180910390fd5b600080610c84866103398587613631565b91509150818190610ca85760405162461bcd60e51b81526004016103629190613396565b5060005b83811015610d25576001610cbe6115f2565b6003016000878785818110610cd557610cd56136a9565b9050602002810190610ce791906136bf565b604051610cf5929190613705565b60408051918290039091208252602082019290925201600020805460ff1916911515919091179055600101610cac565b50610a008b6120d1565b60606000610d3b611f62565b33600090815260018201602052604081205491925003610d705733604051633b92010160e21b81526004016103629190613d8c565b336000908152602082905260408120816001610d8a611f62565b3360009081526001919091016020526040902054610da8919061372b565b8152602001908152602001600020905042816000015411610ddc57604051630fe82d2560e11b815260040160405180910390fd5b60008080526002820160209081526040808320825290912054908501351115610e3e5760008080526002820160209081526040808320825291829020549151638dccd66960e01b81529086013560048201526024810191909152604401610362565b6000610e4d60608601866136bf565b610e5691613da0565b9050610ea082610e69602088018861315f565b6001600160a01b03166000908152600191909101602090815260408083206001600160e01b03198616845290915290205460ff1690565b610ee657610eb1602086018661315f565b60405163c603605d60e01b81526001600160a01b0390911660048201526001600160e01b031982166024820152604401610362565b610ef1828683612161565b610efc8286836123ff565b610f078286836127e5565b6000808052600283016020908152604080832082528220805491880135929091610f3290849061372b565b90915550610f41905085611f86565b95945050505050565b604080516001600160a01b03808916602083015287169181019190915260608101859052608081018290524660a082015260c0016040516020818303038152906040528051906020012081848442831015610fb85760405163b08ce5b360e01b815260040160405180910390fd5b610fc06115f2565b54600003610fe157604051636a00024b60e11b815260040160405180910390fd5b600080610ff2866103398587613631565b915091508181906110165760405162461bcd60e51b81526004016103629190613396565b5060005b8381101561109357600161102c6115f2565b6003016000878785818110611043576110436136a9565b905060200281019061105591906136bf565b604051611063929190613705565b60408051918290039091208252602082019290925201600020805460ff191691151591909117905560010161101a565b5061109c6115f2565b6001600160a01b038d166000908152600291909101602052604081205490036110d8576040516385e1605f60e01b815260040160405180910390fd5b6110e06115f2565b6001600160a01b038c16600090815260029190910160205260409020541561111b5760405163983b8f4b60e01b815260040160405180910390fd5b6111498b6111276115f2565b6001600160a01b038f1660009081526002919091016020526040902054612a27565b6111528c61179e565b505050505050505050505050565b600061116a6115f2565b54919050565b606084824660405160200161118793929190613dd0565b60405160208183030381529060405280519060200120828585428310156111c15760405163b08ce5b360e01b815260040160405180910390fd5b6111c96115f2565b546000036111ea57604051636a00024b60e11b815260040160405180910390fd5b6000806111fb866103398587613631565b9150915081819061121f5760405162461bcd60e51b81526004016103629190613396565b5060005b8381101561129c5760016112356115f2565b600301600087878581811061124c5761124c6136a9565b905060200281019061125e91906136bf565b60405161126c929190613705565b60408051918290039091208252602082019290925201600020805460ff1916911515919091179055600101611223565b506112a68b611f86565b9b9a5050505050505050505050565b878787878785466040516020016112d29796959493929190613df5565b604051602081830303815290604052805190602001208184844283101561130c5760405163b08ce5b360e01b815260040160405180910390fd5b6113146115f2565b5460000361133557604051636a00024b60e11b815260040160405180910390fd5b600080611346866103398587613631565b9150915081819061136a5760405162461bcd60e51b81526004016103629190613396565b5060005b838110156113e75760016113806115f2565b6003016000878785818110611397576113976136a9565b90506020028101906113a991906136bf565b6040516113b7929190613705565b60408051918290039091208252602082019290925201600020805460ff191691151591909117905560010161136e565b508c8b1461140857604051632efb78eb60e21b815260040160405180910390fd5b60008d900361142a57604051630e52390960e41b815260040160405180910390fd5b60005b8d8110156114ce5760008f8f83818110611449576114496136a9565b905060200201602081019061145e919061315f565b90506114686115f2565b6001600160a01b03821660009081526002919091016020526040902054156114a35760405163983b8f4b60e01b815260040160405180910390fd5b6114c5818f8f858181106114b9576114b96136a9565b90506020020135612a27565b5060010161142d565b505050505050505050505050505050565b6114e8336120d1565b565b60006114f46115f2565b6001600160a01b03909216600090815260029290920160205250604090205490565b60606000826001600160401b0381111561153257611532613559565b60405190808252806020026020018201604052801561156557816020015b60608152602001906001900390816115505790505b50905060005b838110156115bf5761159a858583818110611588576115886136a9565b90506020028101906101d09190613d46565b8282815181106115ac576115ac6136a9565b602090810291909101015260010161156b565b509392505050565b6000630474ef2b60e11b6001600160e01b03198316016115e957506001919050565b61027c82612a76565b7f255f4a56bd3ad76424e31ed8855ef9ad14a0ce4e67508c76ff082e5c1466b12f90565b600060606000805b845181101561174b57600061164c8787848151811061163f5761163f6136a9565b6020026020010151612ab1565b90506116566115f2565b6001600160a01b0382166000908152600291909101602052604081205490036116a05760006040518060600160405280603281526020016142046032913994509450505050611797565b60008683815181106116b4576116b46136a9565b60200260200101518051906020012090506116cd6115f2565b6000828152600391909101602052604090205460ff1615611710576000604051806060016040528060238152602001614236602391399550955050505050611797565b6117186115f2565b6001600160a01b0383166000908152600291909101602052604090205461173f908561373e565b9350505060010161161e565b506117546115f2565b548110156117815760006040518060600160405280602681526020016141de602691399250925050611797565b5050604080516020810190915260008152600191505b9250929050565b6117a66115f2565b6001600160a01b038216600090815260029190910160205260409020546117cb6115f2565b60010160008282546117dd919061372b565b909155506117eb90506115f2565b60010154158061180d57506117fe6115f2565b546118076115f2565b60010154105b1561182b576040516325746d7d60e21b815260040160405180910390fd5b60006118356115f2565b6001600160a01b039092166000908152600292909201602052604090912055565b8061185f6115f2565b556118686115f2565b54158061188757506118786115f2565b600101546118846115f2565b54115b156118a55760405163aabd5a0960e01b815260040160405180910390fd5b50565b60006118b2611f62565b6001600160a01b038316600090815260209190915260408120906118d4611f62565b6001016000856001600160a01b03166001600160a01b031681526020019081526020016000205481526020019081526020016000209050919050565b60005b6119206020840184613e3c565b9050811015611a775760005b6119396020850185613e3c565b83818110611949576119496136a9565b905060200281019061195b9190613e85565b611969906020810190613e3c565b9050811015611a6e57600183810160006119866020880188613e3c565b86818110611996576119966136a9565b90506020028101906119a89190613e85565b6119b690602081019061315f565b6001600160a01b03166001600160a01b0316815260200190815260200160002060008680602001906119e89190613e3c565b868181106119f8576119f86136a9565b9050602002810190611a0a9190613e85565b611a18906020810190613e3c565b85818110611a2857611a286136a9565b9050602002016020810190611a3d9190612f4f565b6001600160e01b03191681526020810191909152604001600020805460ff191691151591909117905560010161192c565b50600101611913565b505050565b60005b611a8c6040840184613e9b565b9050811015611a7757611aa26040840184613e9b565b82818110611ab257611ab26136a9565b90506040020160200135826002016000858060400190611ad29190613e9b565b85818110611ae257611ae26136a9565b611af8926020604090920201908101915061315f565b6001600160a01b0316815260208082019290925260409081016000908120818052909252902055600101611a7f565b60005b611b376060840184613e3c565b9050811015611a7757611b4d6060840184613e3c565b82818110611b5d57611b5d6136a9565b9050602002810190611b6f9190613ee4565b611b80906040810190602001613efa565b15611bf7576001600383016000611b9a6060870187613e3c565b85818110611baa57611baa6136a9565b9050602002810190611bbc9190613ee4565b611bca90602081019061315f565b6001600160a01b031681526020810191909152604001600020805460ff1916911515919091179055611d12565b60005b611c076060850185613e3c565b83818110611c1757611c176136a9565b9050602002810190611c299190613ee4565b611c37906040810190613e3c565b9050811015611d10576001600284016000611c556060880188613e3c565b86818110611c6557611c656136a9565b9050602002810190611c779190613ee4565b611c8590602081019061315f565b6001600160a01b031681526020810191909152604001600090812090611cae6060880188613e3c565b86818110611cbe57611cbe6136a9565b9050602002810190611cd09190613ee4565b611cde906040810190613e3c565b85818110611cee57611cee6136a9565b6020908102929092013583525081019190915260400160002055600101611bfa565b505b600101611b2a565b60005b611d2a6080840184613e3c565b9050811015611a7757611d406080840184613e3c565b82818110611d5057611d506136a9565b9050602002810190611d629190613d46565b611d73906040810190602001613efa565b15611dea576001600383016000611d8d6080870187613e3c565b85818110611d9d57611d9d6136a9565b9050602002810190611daf9190613d46565b611dbd90602081019061315f565b6001600160a01b031681526020810191909152604001600020805460ff1916911515919091179055611f5a565b60005b611dfa6080850185613e3c565b83818110611e0a57611e0a6136a9565b9050602002810190611e1c9190613d46565b611e2a906040810190613e3c565b9050811015611f5857611e406080850185613e3c565b83818110611e5057611e506136a9565b9050602002810190611e629190613d46565b611e70906060810190613e3c565b82818110611e8057611e806136a9565b90506020020135836002016000868060800190611e9d9190613e3c565b86818110611ead57611ead6136a9565b9050602002810190611ebf9190613d46565b611ecd90602081019061315f565b6001600160a01b031681526020810191909152604001600090812090611ef66080880188613e3c565b86818110611f0657611f066136a9565b9050602002810190611f189190613d46565b611f26906040810190613e3c565b85818110611f3657611f366136a9565b6020908102929092013583525081019190915260400160002055600101611ded565b505b600101611d1d565b7f48c02387a8e3f19678350d4a0d11f3f704fd6b94259fde7dd6097e79ffa93dcd90565b6060600080611f98602085018561315f565b6001600160a01b03166020850135611fb360608701876136bf565b604051611fc1929190613705565b60006040518083038185875af1925050503d8060008114611ffe576040519150601f19603f3d011682016040523d82523d6000602084013e612003565b606091505b5091509150816120ca5780516000036120c2576000846020013511801561202d5750478460200135115b1561207a5760405162461bcd60e51b815260206004820152601e60248201527f496e73756666696369656e742066756e647320746f207472616e7366657200006044820152606401610362565b60405162461bcd60e51b815260206004820152601d60248201527f43616c6c20726576657274656420776974686f7574206d6573736167650000006044820152606401610362565b805160208201fd5b9392505050565b60006120db611f62565b6001600160a01b0383166000908152600182016020526040812054919250036121195781604051633b92010160e21b81526004016103629190613d8c565b6001600160a01b0382166000908152602082815260408083206001808601909352908320549091839161214c919061372b565b81526020810191909152604001600020555050565b6356fa634560e01b6001600160e01b03198216016122e75761218e612189602084018461315f565b612aea565b61219757505050565b60006121a660608401846136bf565b6121b4916004908290613f17565b8101906121c19190613f41565b91508190506002850160006121d9602087018761315f565b6001600160a01b03166001600160a01b0316815260200190815260200160002060008081526020019081526020016000205410156122875761221e602084018461315f565b81600286016000612232602088018861315f565b6001600160a01b039081168252602080830193909352604091820160009081208180529093529181902054905163fdfd218960e01b815293909116600484015260248301919091526044820152606401610362565b8060028501600061229b602087018761315f565b6001600160a01b03166001600160a01b03168152602001908152602001600020600080815260200190815260200160002060008282546122db919061372b565b90915550611a77915050565b63dc478d2360e01b6001600160e01b0319821601611a775761230f612189602084018461315f565b61231857505050565b600061232760608401846136bf565b612335916004908290613f17565b8101906123429190613f6d565b92508291505060028501600061235b602087018761315f565b6001600160a01b03166001600160a01b0316815260200190815260200160002060008081526020019081526020016000205410156123a05761221e602084018461315f565b806002850160006123b4602087018761315f565b6001600160a01b03166001600160a01b03168152602001908152602001600020600080815260200190815260200160002060008282546123f4919061372b565b909155505050505050565b6306dede6b60e11b6001600160e01b031982160161258f57612434612427602084018461315f565b636cdb3d1360e11b612c7b565b61243d57505050565b60008061244d60608501856136bf565b61245b916004908290613f17565b8101906124689190613fae565b50909450925082915050600286016000612485602088018861315f565b6001600160a01b03166001600160a01b03168152602001908152602001600020600084815260200190815260200160002054101561252e576124ca602085018561315f565b82826002880160006124df60208a018a61315f565b6001600160a01b03166001600160a01b0316815260200190815260200160002060008681526020019081526020016000205460405163653a86dd60e11b81526004016103629493929190613d66565b80600286016000612542602088018861315f565b6001600160a01b03166001600160a01b0316815260200190815260200160002060008481526020019081526020016000206000828254612582919061372b565b90915550611a7792505050565b6368a69e9560e11b6001600160e01b0319821601611a77576125b7612427602084018461315f565b6125c057505050565b6000806125d060608501856136bf565b6125de916004908290613f17565b8101906125eb919061408d565b5093509350505060005b82518110156127dd57818181518110612610576126106136a9565b6020026020010151866002016000876000016020810190612631919061315f565b6001600160a01b03166001600160a01b031681526020019081526020016000206000858481518110612665576126656136a9565b602002602001015181526020019081526020016000205410156127445761268f602086018661315f565b8382815181106126a1576126a16136a9565b60200260200101518383815181106126bb576126bb6136a9565b60200260200101518860020160008960000160208101906126dc919061315f565b6001600160a01b03166001600160a01b031681526020019081526020016000206000878681518110612710576127106136a9565b602002602001015181526020019081526020016000205460405163653a86dd60e11b81526004016103629493929190613d66565b818181518110612756576127566136a9565b6020026020010151866002016000876000016020810190612777919061315f565b6001600160a01b03166001600160a01b0316815260200190815260200160002060008584815181106127ab576127ab6136a9565b6020026020010151815260200190815260200160002060008282546127d0919061372b565b90915550506001016125f5565b505050505050565b63dc478d2360e01b6001600160e01b03198216016129525761281a61280d602084018461315f565b6380ac58cd60e01b612c7b565b61282357505050565b600383016000612836602085018561315f565b6001600160a01b0316815260208101919091526040016000205460ff161561285d57505050565b600061286c60608401846136bf565b61287a916004908290613f17565b8101906128879190613f6d565b9250505060028401600061289e602086018661315f565b6001600160a01b03166001600160a01b03168152602001908152602001600020600082815260200190815260200160002054600003612910576128e4602084018461315f565b60405163c30d449f60e01b81526001600160a01b03909116600482015260248101829052604401610362565b60006002850181612924602087018761315f565b6001600160a01b03168152602080820192909252604090810160009081209481529390915290912055505050565b635ebde8f960e11b6001600160e01b031982160161297a5761281a61280d602084018461315f565b6323b9581160e11b6001600160e01b0319821601611a77576129a261280d602084018461315f565b6129ab57505050565b6003830160006129be602085018561315f565b6001600160a01b0316815260208101919091526040016000205460ff16156129e557505050565b60006129f460608401846136bf565b612a02916004908290613f17565b810190612a0f919061412d565b509250505060028401600061289e602086018661315f565b80612a306115f2565b6001016000828254612a42919061373e565b90915550819050612a516115f2565b6001600160a01b03909316600090815260029390930160205260409092209190915550565b6000638c0d754360e01b6001600160e01b0319831601612a9857506001919050565b6301ffc9a760e01b6001600160e01b031983161461027c565b7f19457468657265756d205369676e6564204d6573736167653a0a3332000000006000908152601c839052603c81206120ca9083612d39565b6000806000836001600160a01b031630604051602401612b0a9190613d8c565b60408051601f198184030181529181526020820180516001600160e01b03166370a0823160e01b17905251612b3f9190614198565b600060405180830381855afa9150503d8060008114612b7a576040519150601f19603f3d011682016040523d82523d6000602084013e612b7f565b606091505b5091509150818015612b92575080516020145b92508215612c745760408051600481526024810182526020810180516001600160e01b03166318160ddd60e01b17905290516001600160a01b03861691612bd891614198565b600060405180830381855afa9150503d8060008114612c13576040519150601f19603f3d011682016040523d82523d6000602084013e612c18565b606091505b509092509050818015612c2c575080516020145b92508215612c7457612c45846380ac58cd60e01b612c7b565b15612c54575060009392505050565b612c6584636cdb3d1360e11b612c7b565b15612c74575060009392505050565b5050919050565b6040516001600160e01b031982166024820152600090819081906001600160a01b0386169060440160408051601f198184030181529181526020820180516001600160e01b03166301ffc9a760e01b17905251612cd89190614198565b600060405180830381855afa9150503d8060008114612d13576040519150601f19603f3d011682016040523d82523d6000602084013e612d18565b606091505b5091509150818015610f41575080806020019051810190610f4191906141aa565b600080600080612d498686612d63565b925092509250612d598282612db0565b5090949350505050565b60008060008351604103612d9d5760208401516040850151606086015160001a612d8f88828585612e6d565b955095509550505050612da9565b50508151600091506002905b9250925092565b6000826003811115612dc457612dc46141c7565b03612dcd575050565b6001826003811115612de157612de16141c7565b03612dff5760405163f645eedf60e01b815260040160405180910390fd5b6002826003811115612e1357612e136141c7565b03612e345760405163fce698f760e01b815260048101829052602401610362565b6003826003811115612e4857612e486141c7565b03612e69576040516335e2f38360e21b815260048101829052602401610362565b5050565b600080806fa2a8918ca85bafe22016d0b997e4df60600160ff1b03841115612e9e5750600091506003905082612f28565b604080516000808252602082018084528a905260ff891692820192909252606081018790526080810186905260019060a0016020604051602081039080840390855afa158015612ef2573d6000803e3d6000fd5b5050604051601f1901519150506001600160a01b038116612f1e57506000925060019150829050612f28565b9250600091508190505b9450945094915050565b80356001600160e01b031981168114612f4a57600080fd5b919050565b600060208284031215612f6157600080fd5b6120ca82612f32565b6001600160a01b03811681146118a557600080fd5b60008083601f840112612f9157600080fd5b5081356001600160401b03811115612fa857600080fd5b6020830191508360208260051b850101111561179757600080fd5b60008060008060008060a08789031215612fdc57600080fd5b8635612fe781612f6a565b9550602087013594506040870135935060608701356001600160401b0381111561301057600080fd5b61301c89828a01612f7f565b979a9699509497949695608090950135949350505050565b600080600080600080600060a0888a03121561304f57600080fd5b87356001600160401b038082111561306657600080fd5b6130728b838c01612f7f565b909950975060208a0135965060408a0135955060608a013591508082111561309957600080fd5b506130a68a828b01612f7f565b989b979a50959894979596608090950135949350505050565b600080600080600080600060c0888a0312156130da57600080fd5b87356130e581612f6a565b965060208801356001600160401b038082111561310157600080fd5b9089019060a0828c03121561311557600080fd5b90965060408901359550606089013594506080890135908082111561313957600080fd5b506131468a828b01612f7f565b989b979a5095989497959660a090950135949350505050565b60006020828403121561317157600080fd5b81356120ca81612f6a565b60008060008060006080868803121561319457600080fd5b853594506020860135935060408601356001600160401b038111156131b857600080fd5b6131c488828901612f7f565b96999598509660600135949350505050565b6000806000806000606086880312156131ee57600080fd5b85356001600160401b038082111561320557600080fd5b61321189838a01612f7f565b9097509550602088013591508082111561322a57600080fd5b5061323788828901612f7f565b96999598509660400135949350505050565b60005b8381101561326457818101518382015260200161324c565b50506000910152565b60008151808452613285816020860160208601613249565b601f01601f19169290920160200192915050565b600060208083016020845280855180835260408601915060408160051b87010192506020870160005b828110156132f057603f198886030184526132de85835161326d565b945092850192908501906001016132c2565b5092979650505050505050565b60008060008060006080868803121561331557600080fd5b853561332081612f6a565b94506020860135935060408601356001600160401b038111156131b857600080fd5b60006080828403121561335457600080fd5b50919050565b60006020828403121561336c57600080fd5b81356001600160401b0381111561338257600080fd5b61338e84828501613342565b949350505050565b6020815260006120ca602083018461326d565b60008060008060008060a087890312156133c257600080fd5b86356133cd81612f6a565b955060208701356133dd81612f6a565b94506040870135935060608701356001600160401b0381111561301057600080fd5b6000806000806060858703121561341557600080fd5b84356001600160401b038082111561342c57600080fd5b61343888838901613342565b9550602087013591508082111561344e57600080fd5b5061345b87828801612f7f565b9598909750949560400135949350505050565b60008060008060008060008060a0898b03121561348a57600080fd5b88356001600160401b03808211156134a157600080fd5b6134ad8c838d01612f7f565b909a50985060208b01359150808211156134c657600080fd5b6134d28c838d01612f7f565b909850965060408b0135955060608b01359150808211156134f257600080fd5b506134ff8b828c01612f7f565b999c989b50969995989497949560800135949350505050565b6000806020838503121561352b57600080fd5b82356001600160401b0381111561354157600080fd5b61354d85828601612f7f565b90969095509350505050565b634e487b7160e01b600052604160045260246000fd5b604051601f8201601f191681016001600160401b038111828210171561359757613597613559565b604052919050565b60006001600160401b038211156135b8576135b8613559565b5060051b60200190565b600082601f8301126135d357600080fd5b81356001600160401b038111156135ec576135ec613559565b6135ff601f8201601f191660200161356f565b81815284602083860101111561361457600080fd5b816020850160208301376000918101602001919091529392505050565b600061364461363f8461359f565b61356f565b80848252602080830192508560051b85013681111561366257600080fd5b855b8181101561369d5780356001600160401b038111156136835760008081fd5b61368f36828a016135c2565b865250938201938201613664565b50919695505050505050565b634e487b7160e01b600052603260045260246000fd5b6000808335601e198436030181126136d657600080fd5b8301803591506001600160401b038211156136f057600080fd5b60200191503681900382131561179757600080fd5b8183823760009101908152919050565b634e487b7160e01b600052601160045260246000fd5b8181038181111561027c5761027c613715565b8082018082111561027c5761027c613715565b8183526000602080850194508260005b8581101561378f57813561377481612f6a565b6001600160a01b031687529582019590820190600101613761565b509495945050505050565b60a0815260006137ae60a08301888a613751565b9050856020830152846040830152836060830152826080830152979650505050505050565b6000808335601e198436030181126137ea57600080fd5b83016020810192503590506001600160401b0381111561380957600080fd5b8060051b360382131561179757600080fd5b6000808335601e1984360301811261383257600080fd5b83016020810192503590506001600160401b0381111561385157600080fd5b8060061b360382131561179757600080fd5b8183526000602080850194508260005b8581101561378f57813561388681612f6a565b6001600160a01b03168752818301358388015260409687019690910190600101613873565b80151581146118a557600080fd5b81835260006001600160fb1b038311156138d257600080fd5b8260051b80836020870137939093016020019392505050565b60008383855260208086019550808560051b830101846000805b8881101561398f57858403601f19018a52823536899003605e1901811261392a578283fd5b88016060813561393981612f6a565b6001600160a01b0316865281870135613951816138ab565b1515868801526040613965838201846137d3565b9350828289015261397983890185836138b9565b9d89019d97505050938601935050600101613905565b509198975050505050505050565b60008235607e198336030181126139b357600080fd5b90910192915050565b60008383855260208086019550808560051b8301018460005b87811015613a7857848303601f190189526139f0828861399d565b608081356139fd81612f6a565b6001600160a01b0316855281860135613a15816138ab565b1515858701526040613a29838201846137d3565b8383890152613a3b84890182846138b9565b93505050506060613a4e818401846137d3565b935086830382880152613a628385836138b9565b9c88019c965050509285019250506001016139d5565b5090979650505050505050565b600060018060a01b038089168352602060c0818501526101608401893560c0860152613ab3828b018b6137d3565b60a060e088015291829052610180600583901b87018101929087018260005b83811015613b745789860361017f19018352813536869003603e19018112613af957600080fd5b850160408781018235613b0b81612f6a565b8b168952613b1b838b01846137d3565b8a8c019390935290829052909150606088019060005b83811015613b5e576001600160e01b0319613b4b83612f32565b168352918a0191908a0190600101613b31565b5090975050509186019190860190600101613ad2565b5050505050613b8660408b018b61381b565b9350915060bf198086830301610100870152613ba3828585613863565b9350613bb260608c018c6137d3565b935091508086850301610120870152613bcc8484846138eb565b9350613bdb60808c018c6137d3565b93509150808685030161014087015250613bf68383836139bc565b93505050508560408301528460608301528360808301528260a0830152979650505050505050565b600060018201613c3057613c30613715565b5060010190565b60008135613c4481612f6a565b6001600160a01b031683526020828101359084015260408083013590840152606082013536839003601e19018112613c7b57600080fd5b82016020810190356001600160401b03811115613c9757600080fd5b803603821315613ca657600080fd5b60806060860152806080860152808260a0870137600060a0828701015260a0601f19601f8301168601019250505092915050565b6060808252810184905260006080600586901b8301810190830187835b88811015613d3057858403607f19018352613d1b84613d16848d61399d565b613c37565b93506020928301929190910190600101613cf7565b5050506020830194909452506040015292915050565b60008235607e19833603018112613d5c57600080fd5b9190910192915050565b6001600160a01b0394909416845260208401929092526040830152606082015260800190565b6001600160a01b0391909116815260200190565b6001600160e01b03198135818116916004851015613dc85780818660040360031b1b83161692505b505092915050565b606081526000613de36060830186613c37565b60208301949094525060400152919050565b60a081526000613e0960a08301898b613751565b8281036020840152613e1c81888a6138b9565b604084019690965250506060810192909252608090910152949350505050565b6000808335601e19843603018112613e5357600080fd5b8301803591506001600160401b03821115613e6d57600080fd5b6020019150600581901b360382131561179757600080fd5b60008235603e19833603018112613d5c57600080fd5b6000808335601e19843603018112613eb257600080fd5b8301803591506001600160401b03821115613ecc57600080fd5b6020019150600681901b360382131561179757600080fd5b60008235605e19833603018112613d5c57600080fd5b600060208284031215613f0c57600080fd5b81356120ca816138ab565b60008085851115613f2757600080fd5b83861115613f3457600080fd5b5050820193919092039150565b60008060408385031215613f5457600080fd5b8235613f5f81612f6a565b946020939093013593505050565b600080600060608486031215613f8257600080fd5b8335613f8d81612f6a565b92506020840135613f9d81612f6a565b929592945050506040919091013590565b600080600080600060a08688031215613fc657600080fd5b8535613fd181612f6a565b94506020860135613fe181612f6a565b9350604086013592506060860135915060808601356001600160401b0381111561400a57600080fd5b614016888289016135c2565b9150509295509295909350565b600082601f83011261403457600080fd5b8135602061404461363f8361359f565b8083825260208201915060208460051b87010193508684111561406657600080fd5b602086015b84811015614082578035835291830191830161406b565b509695505050505050565b600080600080600060a086880312156140a557600080fd5b85356140b081612f6a565b945060208601356140c081612f6a565b935060408601356001600160401b03808211156140dc57600080fd5b6140e889838a01614023565b945060608801359150808211156140fe57600080fd5b61410a89838a01614023565b9350608088013591508082111561412057600080fd5b50614016888289016135c2565b6000806000806080858703121561414357600080fd5b843561414e81612f6a565b9350602085013561415e81612f6a565b92506040850135915060608501356001600160401b0381111561418057600080fd5b61418c878288016135c2565b91505092959194509250565b60008251613d5c818460208701613249565b6000602082840312156141bc57600080fd5b81516120ca816138ab565b634e487b7160e01b600052602160045260246000fdfe5369676e6572207765696768747320646f6573206e6f74206d656574207468726573686f6c644174206c65617374206f6e65207369676e6174757265206e6f742066726f6d2061206b6e6f776e20636f6e74726f6c6c65724174206c65617374206f6e65207369676e617475726520616c72656164792075736564a264697066735822122095dd928037a8fd9d4814cd881c8c1dee221c395471d0b74cd78c89bf49f33b9064736f6c63430008170033",
  "linkReferences": {},
  "deployedLinkReferences": {}
}