{
	"data": {
		"bytecode": {
			"linkReferences": {},
			"object": "608060405234801561001057600080fd5b50612c46806100206000396000f3fe608060405234801561001057600080fd5b506004361061009e5760003560e01c8063a3e8d51e11610066578063a3e8d51e14610159578063a786509014610189578063af915498146101a7578063d0bccea1146101c3578063f04420f1146101df5761009e565b806301ffc9a7146100a357806306e82383146100d35780630d992b2b146100f1578063286936bb1461012157806387f949b41461013d575b600080fd5b6100bd60048036038101906100b89190611633565b61020f565b6040516100ca919061167b565b60405180910390f35b6100db610290565b6040516100e891906116af565b60405180910390f35b61010b60048036038101906101069190611785565b6102a3565b6040516101189190611958565b60405180910390f35b61013b600480360381019061013691906119fc565b610497565b005b61015760048036038101906101529190611a91565b610616565b005b610173600480360381019061016e9190611b29565b6107c0565b6040516101809190611bef565b60405180910390f35b6101916108f6565b60405161019e91906116af565b60405180910390f35b6101c160048036038101906101bc9190611c67565b610909565b005b6101dd60048036038101906101d89190611d8e565b610aa8565b005b6101f960048036038101906101f49190611e16565b610d0b565b60405161020691906116af565b60405180910390f35b60007fae71fe35000000000000000000000000000000000000000000000000000000007bffffffffffffffffffffffffffffffffffffffffffffffffffffffff1916827bffffffffffffffffffffffffffffffffffffffffffffffffffffffff19160361027f576001905061028b565b61028882610d5d565b90505b919050565b600061029a610dde565b60010154905090565b60608484466040516020016102ba9392919061209a565b6040516020818303038152906040528051906020012083836000806102eb858585906102e691906122a0565b610e0b565b91509150818190610332576040517f08c379a0000000000000000000000000000000000000000000000000000000008152600401610329919061230a565b60405180910390fd5b5060005b848490508110156103c357600161034b610dde565b60030160008787858181106103635761036261232c565b5b9050602002810190610375919061236a565b6040516103839291906123fd565b6040518091039020815260200190815260200160002060006101000a81548160ff02191690831515021790555080806103bb90612445565b915050610336565b5060008a8a905067ffffffffffffffff8111156103e3576103e26120cc565b5b60405190808252806020026020018201604052801561041657816020015b60608152602001906001900390816104015790505b50905060005b8b8b9050811015610485576104548c8c8381811061043d5761043c61232c565b5b905060200281019061044f919061248d565b610ffb565b8282815181106104675761046661232c565b5b6020026020010181905250808061047d90612445565b91505061041c565b50809650505050505050949350505050565b848484466040516020016104ae9493929190612552565b6040516020818303038152906040528051906020012082826000806104df858585906104da91906122a0565b610e0b565b91509150818190610526576040517f08c379a000000000000000000000000000000000000000000000000000000000815260040161051d919061230a565b60405180910390fd5b5060005b848490508110156105b757600161053f610dde565b60030160008787858181106105575761055661232c565b5b9050602002810190610569919061236a565b6040516105779291906123fd565b6040518091039020815260200190815260200160002060006101000a81548160ff02191690831515021790555080806105af90612445565b91505061052a565b5060005b8a8a9050811015610609576105f68b8b838181106105dc576105db61232c565b5b90506020020160208101906105f19190611e16565b6110aa565b808061060190612445565b9150506105bb565b5050505050505050505050565b83834660405160200161062b93929190612592565b60405160208183030381529060405280519060200120828260008061065c8585859061065791906122a0565b610e0b565b915091508181906106a3576040517f08c379a000000000000000000000000000000000000000000000000000000000815260040161069a919061230a565b60405180910390fd5b5060005b848490508110156107345760016106bc610dde565b60030160008787858181106106d4576106d361232c565b5b90506020028101906106e6919061236a565b6040516106f49291906123fd565b6040518091039020815260200190815260200160002060006101000a81548160ff021916908315150217905550808061072c90612445565b9150506106a7565b50600061073f610dde565b600001541180156107665750610753610dde565b6001015461075f610dde565b6000015411155b6107a5576040517f08c379a000000000000000000000000000000000000000000000000000000000815260040161079c90612615565b60405180910390fd5b886107ae610dde565b60000181905550505050505050505050565b606083466040516020016107d59291906126ba565b6040516020818303038152906040528051906020012083836000806108068585859061080191906122a0565b610e0b565b9150915081819061084d576040517f08c379a0000000000000000000000000000000000000000000000000000000008152600401610844919061230a565b60405180910390fd5b5060005b848490508110156108de576001610866610dde565b600301600087878581811061087e5761087d61232c565b5b9050602002810190610890919061236a565b60405161089e9291906123fd565b6040518091039020815260200190815260200160002060006101000a81548160ff02191690831515021790555080806108d690612445565b915050610851565b506108e889610ffb565b955050505050509392505050565b6000610900610dde565b60000154905090565b86868686864660405160200161092496959493929190612765565b6040516020818303038152906040528051906020012082826000806109558585859061095091906122a0565b610e0b565b9150915081819061099c576040517f08c379a0000000000000000000000000000000000000000000000000000000008152600401610993919061230a565b60405180910390fd5b5060005b84849050811015610a2d5760016109b5610dde565b60030160008787858181106109cd576109cc61232c565b5b90506020028101906109df919061236a565b6040516109ed9291906123fd565b6040518091039020815260200190815260200160002060006101000a81548160ff0219169083151502179055508080610a2590612445565b9150506109a0565b5060005b8c8c9050811015610a9957610a868d8d83818110610a5257610a5161232c565b5b9050602002016020810190610a679190611e16565b8c8c84818110610a7a57610a7961232c565b5b905060200201356111d5565b8080610a9190612445565b915050610a31565b50505050505050505050505050565b84848446604051602001610abf94939291906127cb565b604051602081830303815290604052805190602001208282600080610af085858590610aeb91906122a0565b610e0b565b91509150818190610b37576040517f08c379a0000000000000000000000000000000000000000000000000000000008152600401610b2e919061230a565b60405180910390fd5b5060005b84849050811015610bc8576001610b50610dde565b6003016000878785818110610b6857610b6761232c565b5b9050602002810190610b7a919061236a565b604051610b889291906123fd565b6040518091039020815260200190815260200160002060006101000a81548160ff0219169083151502179055508080610bc090612445565b915050610b3b565b5088610bd2610dde565b60020160008c73ffffffffffffffffffffffffffffffffffffffff1673ffffffffffffffffffffffffffffffffffffffff16815260200190815260200160002054610c1b610dde565b60010154610c299190612810565b610c339190612844565b610c3b610dde565b600101819055506000610c4c610dde565b60010154118015610c735750610c60610dde565b60000154610c6c610dde565b6001015410155b610cb2576040517f08c379a0000000000000000000000000000000000000000000000000000000008152600401610ca9906128c4565b60405180910390fd5b88610cbb610dde565b60020160008c73ffffffffffffffffffffffffffffffffffffffff1673ffffffffffffffffffffffffffffffffffffffff1681526020019081526020016000208190555050505050505050505050565b6000610d15610dde565b60020160008373ffffffffffffffffffffffffffffffffffffffff1673ffffffffffffffffffffffffffffffffffffffff168152602001908152602001600020549050919050565b60007f8197b6d4000000000000000000000000000000000000000000000000000000007bffffffffffffffffffffffffffffffffffffffffffffffffffffffff1916827bffffffffffffffffffffffffffffffffffffffffffffffffffffffff191603610dcd5760019050610dd9565b610dd682611248565b90505b919050565b6000807f255f4a56bd3ad76424e31ed8855ef9ad14a0ce4e67508c76ff082e5c1466b12f90508091505090565b600060606000805b8451811015610fa3576000610e4287878481518110610e3557610e3461232c565b5b60200260200101516112b2565b90506000610e4e610dde565b60020160008373ffffffffffffffffffffffffffffffffffffffff1673ffffffffffffffffffffffffffffffffffffffff1681526020019081526020016000205403610ebb576000604051806060016040528060328152602001612bbc6032913994509450505050610ff4565b6000868381518110610ed057610ecf61232c565b5b6020026020010151805190602001209050610ee9610dde565b600301600082815260200190815260200160002060009054906101000a900460ff1615610f38576000604051806060016040528060238152602001612bee602391399550955050505050610ff4565b610f40610dde565b60020160008373ffffffffffffffffffffffffffffffffffffffff1673ffffffffffffffffffffffffffffffffffffffff1681526020019081526020016000205484610f8c9190612844565b935050508080610f9b90612445565b915050610e13565b50610fac610dde565b60000154811015610fdc576000604051806060016040528060268152602001612b96602691399250925050610ff4565b60016040518060200160405280600081525092509250505b9250929050565b60606000808360000160208101906110139190611e16565b73ffffffffffffffffffffffffffffffffffffffff16846020013585806060019061103e919061236a565b60405161104c9291906123fd565b60006040518083038185875af1925050503d8060008114611089576040519150601f19603f3d011682016040523d82523d6000602084013e61108e565b606091505b5091509150816110a057805160208201fd5b8092505050919050565b6110b2610dde565b60020160008273ffffffffffffffffffffffffffffffffffffffff1673ffffffffffffffffffffffffffffffffffffffff168152602001908152602001600020546110fb610dde565b600101600082825461110d9190612810565b92505081905550600061111e610dde565b600101541180156111455750611132610dde565b6000015461113e610dde565b6001015410155b611184576040517f08c379a000000000000000000000000000000000000000000000000000000000815260040161117b906128c4565b60405180910390fd5b600061118e610dde565b60020160008373ffffffffffffffffffffffffffffffffffffffff1673ffffffffffffffffffffffffffffffffffffffff1681526020019081526020016000208190555050565b806111de610dde565b60010160008282546111f09190612844565b9250508190555080611200610dde565b60020160008473ffffffffffffffffffffffffffffffffffffffff1673ffffffffffffffffffffffffffffffffffffffff168152602001908152602001600020819055505050565b60007f01ffc9a7000000000000000000000000000000000000000000000000000000007bffffffffffffffffffffffffffffffffffffffffffffffffffffffff1916827bffffffffffffffffffffffffffffffffffffffffffffffffffffffff1916149050919050565b60006112cf826112c1856112d7565b61130790919063ffffffff16565b905092915050565b6000816040516020016112ea9190612966565b604051602081830303815290604052805190602001209050919050565b6000806000611316858561132e565b915091506113238161137f565b819250505092915050565b600080604183510361136f5760008060006020860151925060408601519150606086015160001a9050611363878285856114e5565b94509450505050611378565b60006002915091505b9250929050565b600060048111156113935761139261298c565b5b8160048111156113a6576113a561298c565b5b03156114e257600160048111156113c0576113bf61298c565b5b8160048111156113d3576113d261298c565b5b03611413576040517f08c379a000000000000000000000000000000000000000000000000000000000815260040161140a90612a07565b60405180910390fd5b600260048111156114275761142661298c565b5b81600481111561143a5761143961298c565b5b0361147a576040517f08c379a000000000000000000000000000000000000000000000000000000000815260040161147190612a73565b60405180910390fd5b6003600481111561148e5761148d61298c565b5b8160048111156114a1576114a061298c565b5b036114e1576040517f08c379a00000000000000000000000000000000000000000000000000000000081526004016114d890612b05565b60405180910390fd5b5b50565b6000807f7fffffffffffffffffffffffffffffff5d576e7357a4501ddfe92f46681b20a08360001c11156115205760006003915091506115be565b6000600187878787604051600081526020016040526040516115459493929190612b50565b6020604051602081039080840390855afa158015611567573d6000803e3d6000fd5b505050602060405103519050600073ffffffffffffffffffffffffffffffffffffffff168173ffffffffffffffffffffffffffffffffffffffff16036115b5576000600192509250506115be565b80600092509250505b94509492505050565b6000604051905090565b600080fd5b600080fd5b60007fffffffff0000000000000000000000000000000000000000000000000000000082169050919050565b611610816115db565b811461161b57600080fd5b50565b60008135905061162d81611607565b92915050565b600060208284031215611649576116486115d1565b5b60006116578482850161161e565b91505092915050565b60008115159050919050565b61167581611660565b82525050565b6000602082019050611690600083018461166c565b92915050565b6000819050919050565b6116a981611696565b82525050565b60006020820190506116c460008301846116a0565b92915050565b600080fd5b600080fd5b600080fd5b60008083601f8401126116ef576116ee6116ca565b5b8235905067ffffffffffffffff81111561170c5761170b6116cf565b5b602083019150836020820283011115611728576117276116d4565b5b9250929050565b60008083601f840112611745576117446116ca565b5b8235905067ffffffffffffffff811115611762576117616116cf565b5b60208301915083602082028301111561177e5761177d6116d4565b5b9250929050565b6000806000806040858703121561179f5761179e6115d1565b5b600085013567ffffffffffffffff8111156117bd576117bc6115d6565b5b6117c9878288016116d9565b9450945050602085013567ffffffffffffffff8111156117ec576117eb6115d6565b5b6117f88782880161172f565b925092505092959194509250565b600081519050919050565b600082825260208201905092915050565b6000819050602082019050919050565b600081519050919050565b600082825260208201905092915050565b60005b8381101561186c578082015181840152602081019050611851565b60008484015250505050565b6000601f19601f8301169050919050565b600061189482611832565b61189e818561183d565b93506118ae81856020860161184e565b6118b781611878565b840191505092915050565b60006118ce8383611889565b905092915050565b6000602082019050919050565b60006118ee82611806565b6118f88185611811565b93508360208202850161190a85611822565b8060005b85811015611946578484038952815161192785826118c2565b9450611932836118d6565b925060208a0199505060018101905061190e565b50829750879550505050505092915050565b6000602082019050818103600083015261197281846118e3565b905092915050565b60008083601f8401126119905761198f6116ca565b5b8235905067ffffffffffffffff8111156119ad576119ac6116cf565b5b6020830191508360208202830111156119c9576119c86116d4565b5b9250929050565b6119d981611696565b81146119e457600080fd5b50565b6000813590506119f6816119d0565b92915050565b600080600080600060608688031215611a1857611a176115d1565b5b600086013567ffffffffffffffff811115611a3657611a356115d6565b5b611a428882890161197a565b95509550506020611a55888289016119e7565b935050604086013567ffffffffffffffff811115611a7657611a756115d6565b5b611a828882890161172f565b92509250509295509295909350565b60008060008060608587031215611aab57611aaa6115d1565b5b6000611ab9878288016119e7565b9450506020611aca878288016119e7565b935050604085013567ffffffffffffffff811115611aeb57611aea6115d6565b5b611af78782880161172f565b925092505092959194509250565b600080fd5b600060808284031215611b2057611b1f611b05565b5b81905092915050565b600080600060408486031215611b4257611b416115d1565b5b600084013567ffffffffffffffff811115611b6057611b5f6115d6565b5b611b6c86828701611b0a565b935050602084013567ffffffffffffffff811115611b8d57611b8c6115d6565b5b611b998682870161172f565b92509250509250925092565b600082825260208201905092915050565b6000611bc182611832565b611bcb8185611ba5565b9350611bdb81856020860161184e565b611be481611878565b840191505092915050565b60006020820190508181036000830152611c098184611bb6565b905092915050565b60008083601f840112611c2757611c266116ca565b5b8235905067ffffffffffffffff811115611c4457611c436116cf565b5b602083019150836020820283011115611c6057611c5f6116d4565b5b9250929050565b60008060008060008060006080888a031215611c8657611c856115d1565b5b600088013567ffffffffffffffff811115611ca457611ca36115d6565b5b611cb08a828b0161197a565b9750975050602088013567ffffffffffffffff811115611cd357611cd26115d6565b5b611cdf8a828b01611c11565b95509550506040611cf28a828b016119e7565b935050606088013567ffffffffffffffff811115611d1357611d126115d6565b5b611d1f8a828b0161172f565b925092505092959891949750929550565b600073ffffffffffffffffffffffffffffffffffffffff82169050919050565b6000611d5b82611d30565b9050919050565b611d6b81611d50565b8114611d7657600080fd5b50565b600081359050611d8881611d62565b92915050565b600080600080600060808688031215611daa57611da96115d1565b5b6000611db888828901611d79565b9550506020611dc9888289016119e7565b9450506040611dda888289016119e7565b935050606086013567ffffffffffffffff811115611dfb57611dfa6115d6565b5b611e078882890161172f565b92509250509295509295909350565b600060208284031215611e2c57611e2b6115d1565b5b6000611e3a84828501611d79565b91505092915050565b600082825260208201905092915050565b6000819050919050565b6000611e6d6020840184611d79565b905092915050565b611e7e81611d50565b82525050565b6000611e9360208401846119e7565b905092915050565b611ea481611696565b82525050565b600080fd5b600080fd5b600080fd5b60008083356001602003843603038112611ed657611ed5611eb4565b5b83810192508235915060208301925067ffffffffffffffff821115611efe57611efd611eaa565b5b600182023603831315611f1457611f13611eaf565b5b509250929050565b82818337600083830152505050565b6000611f37838561183d565b9350611f44838584611f1c565b611f4d83611878565b840190509392505050565b600060808301611f6b6000840184611e5e565b611f786000860182611e75565b50611f866020840184611e84565b611f936020860182611e9b565b50611fa16040840184611e84565b611fae6040860182611e9b565b50611fbc6060840184611eb9565b8583036060870152611fcf838284611f2b565b925050508091505092915050565b6000611fe98383611f58565b905092915050565b60008235600160800383360303811261200d5761200c611eb4565b5b82810191505092915050565b6000602082019050919050565b60006120328385611e43565b93508360208402850161204484611e54565b8060005b8781101561208857848403895261205f8284611ff1565b6120698582611fdd565b945061207483612019565b925060208a01995050600181019050612048565b50829750879450505050509392505050565b600060408201905081810360008301526120b5818587612026565b90506120c460208301846116a0565b949350505050565b7f4e487b7100000000000000000000000000000000000000000000000000000000600052604160045260246000fd5b61210482611878565b810181811067ffffffffffffffff82111715612123576121226120cc565b5b80604052505050565b60006121366115c7565b905061214282826120fb565b919050565b600067ffffffffffffffff821115612162576121616120cc565b5b602082029050602081019050919050565b600080fd5b600067ffffffffffffffff821115612193576121926120cc565b5b61219c82611878565b9050602081019050919050565b60006121bc6121b784612178565b61212c565b9050828152602081018484840111156121d8576121d7612173565b5b6121e3848285611f1c565b509392505050565b600082601f830112612200576121ff6116ca565b5b81356122108482602086016121a9565b91505092915050565b600061222c61222784612147565b61212c565b9050808382526020820190506020840283018581111561224f5761224e6116d4565b5b835b8181101561229657803567ffffffffffffffff811115612274576122736116ca565b5b80860161228189826121eb565b85526020850194505050602081019050612251565b5050509392505050565b60006122ad368484612219565b905092915050565b600081519050919050565b600082825260208201905092915050565b60006122dc826122b5565b6122e681856122c0565b93506122f681856020860161184e565b6122ff81611878565b840191505092915050565b6000602082019050818103600083015261232481846122d1565b905092915050565b7f4e487b7100000000000000000000000000000000000000000000000000000000600052603260045260246000fd5b600080fd5b600080fd5b600080fd5b600080833560016020038436030381126123875761238661235b565b5b80840192508235915067ffffffffffffffff8211156123a9576123a8612360565b5b6020830192506001820236038313156123c5576123c4612365565b5b509250929050565b600081905092915050565b60006123e483856123cd565b93506123f1838584611f1c565b82840190509392505050565b600061240a8284866123d8565b91508190509392505050565b7f4e487b7100000000000000000000000000000000000000000000000000000000600052601160045260246000fd5b600061245082611696565b91507fffffffffffffffffffffffffffffffffffffffffffffffffffffffffffffffff820361248257612481612416565b5b600182019050919050565b6000823560016080038336030381126124a9576124a861235b565b5b80830191505092915050565b600082825260208201905092915050565b6000819050919050565b60006124dc8383611e75565b60208301905092915050565b6000602082019050919050565b600061250183856124b5565b935061250c826124c6565b8060005b85811015612545576125228284611e5e565b61252c88826124d0565b9750612537836124e8565b925050600181019050612510565b5085925050509392505050565b6000606082019050818103600083015261256d8186886124f5565b905061257c60208301856116a0565b61258960408301846116a0565b95945050505050565b60006060820190506125a760008301866116a0565b6125b460208301856116a0565b6125c160408301846116a0565b949350505050565b7f496e76616c6964207468726573686f6c64000000000000000000000000000000600082015250565b60006125ff6011836122c0565b915061260a826125c9565b602082019050919050565b6000602082019050818103600083015261262e816125f2565b9050919050565b6000608083016126486000840184611e5e565b6126556000860182611e75565b506126636020840184611e84565b6126706020860182611e9b565b5061267e6040840184611e84565b61268b6040860182611e9b565b506126996060840184611eb9565b85830360608701526126ac838284611f2b565b925050508091505092915050565b600060408201905081810360008301526126d48185612635565b90506126e360208301846116a0565b9392505050565b600082825260208201905092915050565b600080fd5b82818337505050565b600061271583856126ea565b93507f07ffffffffffffffffffffffffffffffffffffffffffffffffffffffffffffff831115612748576127476126fb565b5b602083029250612759838584612700565b82840190509392505050565b6000608082019050818103600083015261278081888a6124f5565b90508181036020830152612795818688612709565b90506127a460408301856116a0565b6127b160608301846116a0565b979650505050505050565b6127c581611d50565b82525050565b60006080820190506127e060008301876127bc565b6127ed60208301866116a0565b6127fa60408301856116a0565b61280760608301846116a0565b95945050505050565b600061281b82611696565b915061282683611696565b925082820390508181111561283e5761283d612416565b5b92915050565b600061284f82611696565b915061285a83611696565b925082820190508082111561287257612871612416565b5b92915050565b7f5468726573686f6c6420776f756c6420626520696d706f737369626c65000000600082015250565b60006128ae601d836122c0565b91506128b982612878565b602082019050919050565b600060208201905081810360008301526128dd816128a1565b9050919050565b600081905092915050565b7f19457468657265756d205369676e6564204d6573736167653a0a333200000000600082015250565b6000612925601c836128e4565b9150612930826128ef565b601c82019050919050565b6000819050919050565b6000819050919050565b61296061295b8261293b565b612945565b82525050565b600061297182612918565b915061297d828461294f565b60208201915081905092915050565b7f4e487b7100000000000000000000000000000000000000000000000000000000600052602160045260246000fd5b7f45434453413a20696e76616c6964207369676e61747572650000000000000000600082015250565b60006129f16018836122c0565b91506129fc826129bb565b602082019050919050565b60006020820190508181036000830152612a20816129e4565b9050919050565b7f45434453413a20696e76616c6964207369676e6174757265206c656e67746800600082015250565b6000612a5d601f836122c0565b9150612a6882612a27565b602082019050919050565b60006020820190508181036000830152612a8c81612a50565b9050919050565b7f45434453413a20696e76616c6964207369676e6174757265202773272076616c60008201527f7565000000000000000000000000000000000000000000000000000000000000602082015250565b6000612aef6022836122c0565b9150612afa82612a93565b604082019050919050565b60006020820190508181036000830152612b1e81612ae2565b9050919050565b612b2e8161293b565b82525050565b600060ff82169050919050565b612b4a81612b34565b82525050565b6000608082019050612b656000830187612b25565b612b726020830186612b41565b612b7f6040830185612b25565b612b8c6060830184612b25565b9594505050505056fe5369676e6572207765696768747320646f6573206e6f74206d656574207468726573686f6c644174206c65617374206f6e65207369676e6174757265206e6f742066726f6d2061206b6e6f776e20636f6e74726f6c6c65724174206c65617374206f6e65207369676e617475726520616c72656164792075736564a26469706673582212201cddf2f5d55fe3cdaabfb3f0e87f5969d9e493d6dd6cb13bd419d57393f2327864736f6c63430008120033",
			"opcodes": "PUSH1 0x80 PUSH1 0x40 MSTORE CALLVALUE DUP1 ISZERO PUSH2 0x10 JUMPI PUSH1 0x0 DUP1 REVERT JUMPDEST POP PUSH2 0x2C46 DUP1 PUSH2 0x20 PUSH1 0x0 CODECOPY PUSH1 0x0 RETURN INVALID PUSH1 0x80 PUSH1 0x40 MSTORE CALLVALUE DUP1 ISZERO PUSH2 0x10 JUMPI PUSH1 0x0 DUP1 REVERT JUMPDEST POP PUSH1 0x4 CALLDATASIZE LT PUSH2 0x9E JUMPI PUSH1 0x0 CALLDATALOAD PUSH1 0xE0 SHR DUP1 PUSH4 0xA3E8D51E GT PUSH2 0x66 JUMPI DUP1 PUSH4 0xA3E8D51E EQ PUSH2 0x159 JUMPI DUP1 PUSH4 0xA7865090 EQ PUSH2 0x189 JUMPI DUP1 PUSH4 0xAF915498 EQ PUSH2 0x1A7 JUMPI DUP1 PUSH4 0xD0BCCEA1 EQ PUSH2 0x1C3 JUMPI DUP1 PUSH4 0xF04420F1 EQ PUSH2 0x1DF JUMPI PUSH2 0x9E JUMP JUMPDEST DUP1 PUSH4 0x1FFC9A7 EQ PUSH2 0xA3 JUMPI DUP1 PUSH4 0x6E82383 EQ PUSH2 0xD3 JUMPI DUP1 PUSH4 0xD992B2B EQ PUSH2 0xF1 JUMPI DUP1 PUSH4 0x286936BB EQ PUSH2 0x121 JUMPI DUP1 PUSH4 0x87F949B4 EQ PUSH2 0x13D JUMPI JUMPDEST PUSH1 0x0 DUP1 REVERT JUMPDEST PUSH2 0xBD PUSH1 0x4 DUP1 CALLDATASIZE SUB DUP2 ADD SWAP1 PUSH2 0xB8 SWAP2 SWAP1 PUSH2 0x1633 JUMP JUMPDEST PUSH2 0x20F JUMP JUMPDEST PUSH1 0x40 MLOAD PUSH2 0xCA SWAP2 SWAP1 PUSH2 0x167B JUMP JUMPDEST PUSH1 0x40 MLOAD DUP1 SWAP2 SUB SWAP1 RETURN JUMPDEST PUSH2 0xDB PUSH2 0x290 JUMP JUMPDEST PUSH1 0x40 MLOAD PUSH2 0xE8 SWAP2 SWAP1 PUSH2 0x16AF JUMP JUMPDEST PUSH1 0x40 MLOAD DUP1 SWAP2 SUB SWAP1 RETURN JUMPDEST PUSH2 0x10B PUSH1 0x4 DUP1 CALLDATASIZE SUB DUP2 ADD SWAP1 PUSH2 0x106 SWAP2 SWAP1 PUSH2 0x1785 JUMP JUMPDEST PUSH2 0x2A3 JUMP JUMPDEST PUSH1 0x40 MLOAD PUSH2 0x118 SWAP2 SWAP1 PUSH2 0x1958 JUMP JUMPDEST PUSH1 0x40 MLOAD DUP1 SWAP2 SUB SWAP1 RETURN JUMPDEST PUSH2 0x13B PUSH1 0x4 DUP1 CALLDATASIZE SUB DUP2 ADD SWAP1 PUSH2 0x136 SWAP2 SWAP1 PUSH2 0x19FC JUMP JUMPDEST PUSH2 0x497 JUMP JUMPDEST STOP JUMPDEST PUSH2 0x157 PUSH1 0x4 DUP1 CALLDATASIZE SUB DUP2 ADD SWAP1 PUSH2 0x152 SWAP2 SWAP1 PUSH2 0x1A91 JUMP JUMPDEST PUSH2 0x616 JUMP JUMPDEST STOP JUMPDEST PUSH2 0x173 PUSH1 0x4 DUP1 CALLDATASIZE SUB DUP2 ADD SWAP1 PUSH2 0x16E SWAP2 SWAP1 PUSH2 0x1B29 JUMP JUMPDEST PUSH2 0x7C0 JUMP JUMPDEST PUSH1 0x40 MLOAD PUSH2 0x180 SWAP2 SWAP1 PUSH2 0x1BEF JUMP JUMPDEST PUSH1 0x40 MLOAD DUP1 SWAP2 SUB SWAP1 RETURN JUMPDEST PUSH2 0x191 PUSH2 0x8F6 JUMP JUMPDEST PUSH1 0x40 MLOAD PUSH2 0x19E SWAP2 SWAP1 PUSH2 0x16AF JUMP JUMPDEST PUSH1 0x40 MLOAD DUP1 SWAP2 SUB SWAP1 RETURN JUMPDEST PUSH2 0x1C1 PUSH1 0x4 DUP1 CALLDATASIZE SUB DUP2 ADD SWAP1 PUSH2 0x1BC SWAP2 SWAP1 PUSH2 0x1C67 JUMP JUMPDEST PUSH2 0x909 JUMP JUMPDEST STOP JUMPDEST PUSH2 0x1DD PUSH1 0x4 DUP1 CALLDATASIZE SUB DUP2 ADD SWAP1 PUSH2 0x1D8 SWAP2 SWAP1 PUSH2 0x1D8E JUMP JUMPDEST PUSH2 0xAA8 JUMP JUMPDEST STOP JUMPDEST PUSH2 0x1F9 PUSH1 0x4 DUP1 CALLDATASIZE SUB DUP2 ADD SWAP1 PUSH2 0x1F4 SWAP2 SWAP1 PUSH2 0x1E16 JUMP JUMPDEST PUSH2 0xD0B JUMP JUMPDEST PUSH1 0x40 MLOAD PUSH2 0x206 SWAP2 SWAP1 PUSH2 0x16AF JUMP JUMPDEST PUSH1 0x40 MLOAD DUP1 SWAP2 SUB SWAP1 RETURN JUMPDEST PUSH1 0x0 PUSH32 0xAE71FE3500000000000000000000000000000000000000000000000000000000 PUSH28 0xFFFFFFFFFFFFFFFFFFFFFFFFFFFFFFFFFFFFFFFFFFFFFFFFFFFFFFFF NOT AND DUP3 PUSH28 0xFFFFFFFFFFFFFFFFFFFFFFFFFFFFFFFFFFFFFFFFFFFFFFFFFFFFFFFF NOT AND SUB PUSH2 0x27F JUMPI PUSH1 0x1 SWAP1 POP PUSH2 0x28B JUMP JUMPDEST PUSH2 0x288 DUP3 PUSH2 0xD5D JUMP JUMPDEST SWAP1 POP JUMPDEST SWAP2 SWAP1 POP JUMP JUMPDEST PUSH1 0x0 PUSH2 0x29A PUSH2 0xDDE JUMP JUMPDEST PUSH1 0x1 ADD SLOAD SWAP1 POP SWAP1 JUMP JUMPDEST PUSH1 0x60 DUP5 DUP5 CHAINID PUSH1 0x40 MLOAD PUSH1 0x20 ADD PUSH2 0x2BA SWAP4 SWAP3 SWAP2 SWAP1 PUSH2 0x209A JUMP JUMPDEST PUSH1 0x40 MLOAD PUSH1 0x20 DUP2 DUP4 SUB SUB DUP2 MSTORE SWAP1 PUSH1 0x40 MSTORE DUP1 MLOAD SWAP1 PUSH1 0x20 ADD KECCAK256 DUP4 DUP4 PUSH1 0x0 DUP1 PUSH2 0x2EB DUP6 DUP6 DUP6 SWAP1 PUSH2 0x2E6 SWAP2 SWAP1 PUSH2 0x22A0 JUMP JUMPDEST PUSH2 0xE0B JUMP JUMPDEST SWAP2 POP SWAP2 POP DUP2 DUP2 SWAP1 PUSH2 0x332 JUMPI PUSH1 0x40 MLOAD PUSH32 0x8C379A000000000000000000000000000000000000000000000000000000000 DUP2 MSTORE PUSH1 0x4 ADD PUSH2 0x329 SWAP2 SWAP1 PUSH2 0x230A JUMP JUMPDEST PUSH1 0x40 MLOAD DUP1 SWAP2 SUB SWAP1 REVERT JUMPDEST POP PUSH1 0x0 JUMPDEST DUP5 DUP5 SWAP1 POP DUP2 LT ISZERO PUSH2 0x3C3 JUMPI PUSH1 0x1 PUSH2 0x34B PUSH2 0xDDE JUMP JUMPDEST PUSH1 0x3 ADD PUSH1 0x0 DUP8 DUP8 DUP6 DUP2 DUP2 LT PUSH2 0x363 JUMPI PUSH2 0x362 PUSH2 0x232C JUMP JUMPDEST JUMPDEST SWAP1 POP PUSH1 0x20 MUL DUP2 ADD SWAP1 PUSH2 0x375 SWAP2 SWAP1 PUSH2 0x236A JUMP JUMPDEST PUSH1 0x40 MLOAD PUSH2 0x383 SWAP3 SWAP2 SWAP1 PUSH2 0x23FD JUMP JUMPDEST PUSH1 0x40 MLOAD DUP1 SWAP2 SUB SWAP1 KECCAK256 DUP2 MSTORE PUSH1 0x20 ADD SWAP1 DUP2 MSTORE PUSH1 0x20 ADD PUSH1 0x0 KECCAK256 PUSH1 0x0 PUSH2 0x100 EXP DUP2 SLOAD DUP2 PUSH1 0xFF MUL NOT AND SWAP1 DUP4 ISZERO ISZERO MUL OR SWAP1 SSTORE POP DUP1 DUP1 PUSH2 0x3BB SWAP1 PUSH2 0x2445 JUMP JUMPDEST SWAP2 POP POP PUSH2 0x336 JUMP JUMPDEST POP PUSH1 0x0 DUP11 DUP11 SWAP1 POP PUSH8 0xFFFFFFFFFFFFFFFF DUP2 GT ISZERO PUSH2 0x3E3 JUMPI PUSH2 0x3E2 PUSH2 0x20CC JUMP JUMPDEST JUMPDEST PUSH1 0x40 MLOAD SWAP1 DUP1 DUP3 MSTORE DUP1 PUSH1 0x20 MUL PUSH1 0x20 ADD DUP3 ADD PUSH1 0x40 MSTORE DUP1 ISZERO PUSH2 0x416 JUMPI DUP2 PUSH1 0x20 ADD JUMPDEST PUSH1 0x60 DUP2 MSTORE PUSH1 0x20 ADD SWAP1 PUSH1 0x1 SWAP1 SUB SWAP1 DUP2 PUSH2 0x401 JUMPI SWAP1 POP JUMPDEST POP SWAP1 POP PUSH1 0x0 JUMPDEST DUP12 DUP12 SWAP1 POP DUP2 LT ISZERO PUSH2 0x485 JUMPI PUSH2 0x454 DUP13 DUP13 DUP4 DUP2 DUP2 LT PUSH2 0x43D JUMPI PUSH2 0x43C PUSH2 0x232C JUMP JUMPDEST JUMPDEST SWAP1 POP PUSH1 0x20 MUL DUP2 ADD SWAP1 PUSH2 0x44F SWAP2 SWAP1 PUSH2 0x248D JUMP JUMPDEST PUSH2 0xFFB JUMP JUMPDEST DUP3 DUP3 DUP2 MLOAD DUP2 LT PUSH2 0x467 JUMPI PUSH2 0x466 PUSH2 0x232C JUMP JUMPDEST JUMPDEST PUSH1 0x20 MUL PUSH1 0x20 ADD ADD DUP2 SWAP1 MSTORE POP DUP1 DUP1 PUSH2 0x47D SWAP1 PUSH2 0x2445 JUMP JUMPDEST SWAP2 POP POP PUSH2 0x41C JUMP JUMPDEST POP DUP1 SWAP7 POP POP POP POP POP POP POP SWAP5 SWAP4 POP POP POP POP JUMP JUMPDEST DUP5 DUP5 DUP5 CHAINID PUSH1 0x40 MLOAD PUSH1 0x20 ADD PUSH2 0x4AE SWAP5 SWAP4 SWAP3 SWAP2 SWAP1 PUSH2 0x2552 JUMP JUMPDEST PUSH1 0x40 MLOAD PUSH1 0x20 DUP2 DUP4 SUB SUB DUP2 MSTORE SWAP1 PUSH1 0x40 MSTORE DUP1 MLOAD SWAP1 PUSH1 0x20 ADD KECCAK256 DUP3 DUP3 PUSH1 0x0 DUP1 PUSH2 0x4DF DUP6 DUP6 DUP6 SWAP1 PUSH2 0x4DA SWAP2 SWAP1 PUSH2 0x22A0 JUMP JUMPDEST PUSH2 0xE0B JUMP JUMPDEST SWAP2 POP SWAP2 POP DUP2 DUP2 SWAP1 PUSH2 0x526 JUMPI PUSH1 0x40 MLOAD PUSH32 0x8C379A000000000000000000000000000000000000000000000000000000000 DUP2 MSTORE PUSH1 0x4 ADD PUSH2 0x51D SWAP2 SWAP1 PUSH2 0x230A JUMP JUMPDEST PUSH1 0x40 MLOAD DUP1 SWAP2 SUB SWAP1 REVERT JUMPDEST POP PUSH1 0x0 JUMPDEST DUP5 DUP5 SWAP1 POP DUP2 LT ISZERO PUSH2 0x5B7 JUMPI PUSH1 0x1 PUSH2 0x53F PUSH2 0xDDE JUMP JUMPDEST PUSH1 0x3 ADD PUSH1 0x0 DUP8 DUP8 DUP6 DUP2 DUP2 LT PUSH2 0x557 JUMPI PUSH2 0x556 PUSH2 0x232C JUMP JUMPDEST JUMPDEST SWAP1 POP PUSH1 0x20 MUL DUP2 ADD SWAP1 PUSH2 0x569 SWAP2 SWAP1 PUSH2 0x236A JUMP JUMPDEST PUSH1 0x40 MLOAD PUSH2 0x577 SWAP3 SWAP2 SWAP1 PUSH2 0x23FD JUMP JUMPDEST PUSH1 0x40 MLOAD DUP1 SWAP2 SUB SWAP1 KECCAK256 DUP2 MSTORE PUSH1 0x20 ADD SWAP1 DUP2 MSTORE PUSH1 0x20 ADD PUSH1 0x0 KECCAK256 PUSH1 0x0 PUSH2 0x100 EXP DUP2 SLOAD DUP2 PUSH1 0xFF MUL NOT AND SWAP1 DUP4 ISZERO ISZERO MUL OR SWAP1 SSTORE POP DUP1 DUP1 PUSH2 0x5AF SWAP1 PUSH2 0x2445 JUMP JUMPDEST SWAP2 POP POP PUSH2 0x52A JUMP JUMPDEST POP PUSH1 0x0 JUMPDEST DUP11 DUP11 SWAP1 POP DUP2 LT ISZERO PUSH2 0x609 JUMPI PUSH2 0x5F6 DUP12 DUP12 DUP4 DUP2 DUP2 LT PUSH2 0x5DC JUMPI PUSH2 0x5DB PUSH2 0x232C JUMP JUMPDEST JUMPDEST SWAP1 POP PUSH1 0x20 MUL ADD PUSH1 0x20 DUP2 ADD SWAP1 PUSH2 0x5F1 SWAP2 SWAP1 PUSH2 0x1E16 JUMP JUMPDEST PUSH2 0x10AA JUMP JUMPDEST DUP1 DUP1 PUSH2 0x601 SWAP1 PUSH2 0x2445 JUMP JUMPDEST SWAP2 POP POP PUSH2 0x5BB JUMP JUMPDEST POP POP POP POP POP POP POP POP POP POP POP JUMP JUMPDEST DUP4 DUP4 CHAINID PUSH1 0x40 MLOAD PUSH1 0x20 ADD PUSH2 0x62B SWAP4 SWAP3 SWAP2 SWAP1 PUSH2 0x2592 JUMP JUMPDEST PUSH1 0x40 MLOAD PUSH1 0x20 DUP2 DUP4 SUB SUB DUP2 MSTORE SWAP1 PUSH1 0x40 MSTORE DUP1 MLOAD SWAP1 PUSH1 0x20 ADD KECCAK256 DUP3 DUP3 PUSH1 0x0 DUP1 PUSH2 0x65C DUP6 DUP6 DUP6 SWAP1 PUSH2 0x657 SWAP2 SWAP1 PUSH2 0x22A0 JUMP JUMPDEST PUSH2 0xE0B JUMP JUMPDEST SWAP2 POP SWAP2 POP DUP2 DUP2 SWAP1 PUSH2 0x6A3 JUMPI PUSH1 0x40 MLOAD PUSH32 0x8C379A000000000000000000000000000000000000000000000000000000000 DUP2 MSTORE PUSH1 0x4 ADD PUSH2 0x69A SWAP2 SWAP1 PUSH2 0x230A JUMP JUMPDEST PUSH1 0x40 MLOAD DUP1 SWAP2 SUB SWAP1 REVERT JUMPDEST POP PUSH1 0x0 JUMPDEST DUP5 DUP5 SWAP1 POP DUP2 LT ISZERO PUSH2 0x734 JUMPI PUSH1 0x1 PUSH2 0x6BC PUSH2 0xDDE JUMP JUMPDEST PUSH1 0x3 ADD PUSH1 0x0 DUP8 DUP8 DUP6 DUP2 DUP2 LT PUSH2 0x6D4 JUMPI PUSH2 0x6D3 PUSH2 0x232C JUMP JUMPDEST JUMPDEST SWAP1 POP PUSH1 0x20 MUL DUP2 ADD SWAP1 PUSH2 0x6E6 SWAP2 SWAP1 PUSH2 0x236A JUMP JUMPDEST PUSH1 0x40 MLOAD PUSH2 0x6F4 SWAP3 SWAP2 SWAP1 PUSH2 0x23FD JUMP JUMPDEST PUSH1 0x40 MLOAD DUP1 SWAP2 SUB SWAP1 KECCAK256 DUP2 MSTORE PUSH1 0x20 ADD SWAP1 DUP2 MSTORE PUSH1 0x20 ADD PUSH1 0x0 KECCAK256 PUSH1 0x0 PUSH2 0x100 EXP DUP2 SLOAD DUP2 PUSH1 0xFF MUL NOT AND SWAP1 DUP4 ISZERO ISZERO MUL OR SWAP1 SSTORE POP DUP1 DUP1 PUSH2 0x72C SWAP1 PUSH2 0x2445 JUMP JUMPDEST SWAP2 POP POP PUSH2 0x6A7 JUMP JUMPDEST POP PUSH1 0x0 PUSH2 0x73F PUSH2 0xDDE JUMP JUMPDEST PUSH1 0x0 ADD SLOAD GT DUP1 ISZERO PUSH2 0x766 JUMPI POP PUSH2 0x753 PUSH2 0xDDE JUMP JUMPDEST PUSH1 0x1 ADD SLOAD PUSH2 0x75F PUSH2 0xDDE JUMP JUMPDEST PUSH1 0x0 ADD SLOAD GT ISZERO JUMPDEST PUSH2 0x7A5 JUMPI PUSH1 0x40 MLOAD PUSH32 0x8C379A000000000000000000000000000000000000000000000000000000000 DUP2 MSTORE PUSH1 0x4 ADD PUSH2 0x79C SWAP1 PUSH2 0x2615 JUMP JUMPDEST PUSH1 0x40 MLOAD DUP1 SWAP2 SUB SWAP1 REVERT JUMPDEST DUP9 PUSH2 0x7AE PUSH2 0xDDE JUMP JUMPDEST PUSH1 0x0 ADD DUP2 SWAP1 SSTORE POP POP POP POP POP POP POP POP POP POP JUMP JUMPDEST PUSH1 0x60 DUP4 CHAINID PUSH1 0x40 MLOAD PUSH1 0x20 ADD PUSH2 0x7D5 SWAP3 SWAP2 SWAP1 PUSH2 0x26BA JUMP JUMPDEST PUSH1 0x40 MLOAD PUSH1 0x20 DUP2 DUP4 SUB SUB DUP2 MSTORE SWAP1 PUSH1 0x40 MSTORE DUP1 MLOAD SWAP1 PUSH1 0x20 ADD KECCAK256 DUP4 DUP4 PUSH1 0x0 DUP1 PUSH2 0x806 DUP6 DUP6 DUP6 SWAP1 PUSH2 0x801 SWAP2 SWAP1 PUSH2 0x22A0 JUMP JUMPDEST PUSH2 0xE0B JUMP JUMPDEST SWAP2 POP SWAP2 POP DUP2 DUP2 SWAP1 PUSH2 0x84D JUMPI PUSH1 0x40 MLOAD PUSH32 0x8C379A000000000000000000000000000000000000000000000000000000000 DUP2 MSTORE PUSH1 0x4 ADD PUSH2 0x844 SWAP2 SWAP1 PUSH2 0x230A JUMP JUMPDEST PUSH1 0x40 MLOAD DUP1 SWAP2 SUB SWAP1 REVERT JUMPDEST POP PUSH1 0x0 JUMPDEST DUP5 DUP5 SWAP1 POP DUP2 LT ISZERO PUSH2 0x8DE JUMPI PUSH1 0x1 PUSH2 0x866 PUSH2 0xDDE JUMP JUMPDEST PUSH1 0x3 ADD PUSH1 0x0 DUP8 DUP8 DUP6 DUP2 DUP2 LT PUSH2 0x87E JUMPI PUSH2 0x87D PUSH2 0x232C JUMP JUMPDEST JUMPDEST SWAP1 POP PUSH1 0x20 MUL DUP2 ADD SWAP1 PUSH2 0x890 SWAP2 SWAP1 PUSH2 0x236A JUMP JUMPDEST PUSH1 0x40 MLOAD PUSH2 0x89E SWAP3 SWAP2 SWAP1 PUSH2 0x23FD JUMP JUMPDEST PUSH1 0x40 MLOAD DUP1 SWAP2 SUB SWAP1 KECCAK256 DUP2 MSTORE PUSH1 0x20 ADD SWAP1 DUP2 MSTORE PUSH1 0x20 ADD PUSH1 0x0 KECCAK256 PUSH1 0x0 PUSH2 0x100 EXP DUP2 SLOAD DUP2 PUSH1 0xFF MUL NOT AND SWAP1 DUP4 ISZERO ISZERO MUL OR SWAP1 SSTORE POP DUP1 DUP1 PUSH2 0x8D6 SWAP1 PUSH2 0x2445 JUMP JUMPDEST SWAP2 POP POP PUSH2 0x851 JUMP JUMPDEST POP PUSH2 0x8E8 DUP10 PUSH2 0xFFB JUMP JUMPDEST SWAP6 POP POP POP POP POP POP SWAP4 SWAP3 POP POP POP JUMP JUMPDEST PUSH1 0x0 PUSH2 0x900 PUSH2 0xDDE JUMP JUMPDEST PUSH1 0x0 ADD SLOAD SWAP1 POP SWAP1 JUMP JUMPDEST DUP7 DUP7 DUP7 DUP7 DUP7 CHAINID PUSH1 0x40 MLOAD PUSH1 0x20 ADD PUSH2 0x924 SWAP7 SWAP6 SWAP5 SWAP4 SWAP3 SWAP2 SWAP1 PUSH2 0x2765 JUMP JUMPDEST PUSH1 0x40 MLOAD PUSH1 0x20 DUP2 DUP4 SUB SUB DUP2 MSTORE SWAP1 PUSH1 0x40 MSTORE DUP1 MLOAD SWAP1 PUSH1 0x20 ADD KECCAK256 DUP3 DUP3 PUSH1 0x0 DUP1 PUSH2 0x955 DUP6 DUP6 DUP6 SWAP1 PUSH2 0x950 SWAP2 SWAP1 PUSH2 0x22A0 JUMP JUMPDEST PUSH2 0xE0B JUMP JUMPDEST SWAP2 POP SWAP2 POP DUP2 DUP2 SWAP1 PUSH2 0x99C JUMPI PUSH1 0x40 MLOAD PUSH32 0x8C379A000000000000000000000000000000000000000000000000000000000 DUP2 MSTORE PUSH1 0x4 ADD PUSH2 0x993 SWAP2 SWAP1 PUSH2 0x230A JUMP JUMPDEST PUSH1 0x40 MLOAD DUP1 SWAP2 SUB SWAP1 REVERT JUMPDEST POP PUSH1 0x0 JUMPDEST DUP5 DUP5 SWAP1 POP DUP2 LT ISZERO PUSH2 0xA2D JUMPI PUSH1 0x1 PUSH2 0x9B5 PUSH2 0xDDE JUMP JUMPDEST PUSH1 0x3 ADD PUSH1 0x0 DUP8 DUP8 DUP6 DUP2 DUP2 LT PUSH2 0x9CD JUMPI PUSH2 0x9CC PUSH2 0x232C JUMP JUMPDEST JUMPDEST SWAP1 POP PUSH1 0x20 MUL DUP2 ADD SWAP1 PUSH2 0x9DF SWAP2 SWAP1 PUSH2 0x236A JUMP JUMPDEST PUSH1 0x40 MLOAD PUSH2 0x9ED SWAP3 SWAP2 SWAP1 PUSH2 0x23FD JUMP JUMPDEST PUSH1 0x40 MLOAD DUP1 SWAP2 SUB SWAP1 KECCAK256 DUP2 MSTORE PUSH1 0x20 ADD SWAP1 DUP2 MSTORE PUSH1 0x20 ADD PUSH1 0x0 KECCAK256 PUSH1 0x0 PUSH2 0x100 EXP DUP2 SLOAD DUP2 PUSH1 0xFF MUL NOT AND SWAP1 DUP4 ISZERO ISZERO MUL OR SWAP1 SSTORE POP DUP1 DUP1 PUSH2 0xA25 SWAP1 PUSH2 0x2445 JUMP JUMPDEST SWAP2 POP POP PUSH2 0x9A0 JUMP JUMPDEST POP PUSH1 0x0 JUMPDEST DUP13 DUP13 SWAP1 POP DUP2 LT ISZERO PUSH2 0xA99 JUMPI PUSH2 0xA86 DUP14 DUP14 DUP4 DUP2 DUP2 LT PUSH2 0xA52 JUMPI PUSH2 0xA51 PUSH2 0x232C JUMP JUMPDEST JUMPDEST SWAP1 POP PUSH1 0x20 MUL ADD PUSH1 0x20 DUP2 ADD SWAP1 PUSH2 0xA67 SWAP2 SWAP1 PUSH2 0x1E16 JUMP JUMPDEST DUP13 DUP13 DUP5 DUP2 DUP2 LT PUSH2 0xA7A JUMPI PUSH2 0xA79 PUSH2 0x232C JUMP JUMPDEST JUMPDEST SWAP1 POP PUSH1 0x20 MUL ADD CALLDATALOAD PUSH2 0x11D5 JUMP JUMPDEST DUP1 DUP1 PUSH2 0xA91 SWAP1 PUSH2 0x2445 JUMP JUMPDEST SWAP2 POP POP PUSH2 0xA31 JUMP JUMPDEST POP POP POP POP POP POP POP POP POP POP POP POP POP JUMP JUMPDEST DUP5 DUP5 DUP5 CHAINID PUSH1 0x40 MLOAD PUSH1 0x20 ADD PUSH2 0xABF SWAP5 SWAP4 SWAP3 SWAP2 SWAP1 PUSH2 0x27CB JUMP JUMPDEST PUSH1 0x40 MLOAD PUSH1 0x20 DUP2 DUP4 SUB SUB DUP2 MSTORE SWAP1 PUSH1 0x40 MSTORE DUP1 MLOAD SWAP1 PUSH1 0x20 ADD KECCAK256 DUP3 DUP3 PUSH1 0x0 DUP1 PUSH2 0xAF0 DUP6 DUP6 DUP6 SWAP1 PUSH2 0xAEB SWAP2 SWAP1 PUSH2 0x22A0 JUMP JUMPDEST PUSH2 0xE0B JUMP JUMPDEST SWAP2 POP SWAP2 POP DUP2 DUP2 SWAP1 PUSH2 0xB37 JUMPI PUSH1 0x40 MLOAD PUSH32 0x8C379A000000000000000000000000000000000000000000000000000000000 DUP2 MSTORE PUSH1 0x4 ADD PUSH2 0xB2E SWAP2 SWAP1 PUSH2 0x230A JUMP JUMPDEST PUSH1 0x40 MLOAD DUP1 SWAP2 SUB SWAP1 REVERT JUMPDEST POP PUSH1 0x0 JUMPDEST DUP5 DUP5 SWAP1 POP DUP2 LT ISZERO PUSH2 0xBC8 JUMPI PUSH1 0x1 PUSH2 0xB50 PUSH2 0xDDE JUMP JUMPDEST PUSH1 0x3 ADD PUSH1 0x0 DUP8 DUP8 DUP6 DUP2 DUP2 LT PUSH2 0xB68 JUMPI PUSH2 0xB67 PUSH2 0x232C JUMP JUMPDEST JUMPDEST SWAP1 POP PUSH1 0x20 MUL DUP2 ADD SWAP1 PUSH2 0xB7A SWAP2 SWAP1 PUSH2 0x236A JUMP JUMPDEST PUSH1 0x40 MLOAD PUSH2 0xB88 SWAP3 SWAP2 SWAP1 PUSH2 0x23FD JUMP JUMPDEST PUSH1 0x40 MLOAD DUP1 SWAP2 SUB SWAP1 KECCAK256 DUP2 MSTORE PUSH1 0x20 ADD SWAP1 DUP2 MSTORE PUSH1 0x20 ADD PUSH1 0x0 KECCAK256 PUSH1 0x0 PUSH2 0x100 EXP DUP2 SLOAD DUP2 PUSH1 0xFF MUL NOT AND SWAP1 DUP4 ISZERO ISZERO MUL OR SWAP1 SSTORE POP DUP1 DUP1 PUSH2 0xBC0 SWAP1 PUSH2 0x2445 JUMP JUMPDEST SWAP2 POP POP PUSH2 0xB3B JUMP JUMPDEST POP DUP9 PUSH2 0xBD2 PUSH2 0xDDE JUMP JUMPDEST PUSH1 0x2 ADD PUSH1 0x0 DUP13 PUSH20 0xFFFFFFFFFFFFFFFFFFFFFFFFFFFFFFFFFFFFFFFF AND PUSH20 0xFFFFFFFFFFFFFFFFFFFFFFFFFFFFFFFFFFFFFFFF AND DUP2 MSTORE PUSH1 0x20 ADD SWAP1 DUP2 MSTORE PUSH1 0x20 ADD PUSH1 0x0 KECCAK256 SLOAD PUSH2 0xC1B PUSH2 0xDDE JUMP JUMPDEST PUSH1 0x1 ADD SLOAD PUSH2 0xC29 SWAP2 SWAP1 PUSH2 0x2810 JUMP JUMPDEST PUSH2 0xC33 SWAP2 SWAP1 PUSH2 0x2844 JUMP JUMPDEST PUSH2 0xC3B PUSH2 0xDDE JUMP JUMPDEST PUSH1 0x1 ADD DUP2 SWAP1 SSTORE POP PUSH1 0x0 PUSH2 0xC4C PUSH2 0xDDE JUMP JUMPDEST PUSH1 0x1 ADD SLOAD GT DUP1 ISZERO PUSH2 0xC73 JUMPI POP PUSH2 0xC60 PUSH2 0xDDE JUMP JUMPDEST PUSH1 0x0 ADD SLOAD PUSH2 0xC6C PUSH2 0xDDE JUMP JUMPDEST PUSH1 0x1 ADD SLOAD LT ISZERO JUMPDEST PUSH2 0xCB2 JUMPI PUSH1 0x40 MLOAD PUSH32 0x8C379A000000000000000000000000000000000000000000000000000000000 DUP2 MSTORE PUSH1 0x4 ADD PUSH2 0xCA9 SWAP1 PUSH2 0x28C4 JUMP JUMPDEST PUSH1 0x40 MLOAD DUP1 SWAP2 SUB SWAP1 REVERT JUMPDEST DUP9 PUSH2 0xCBB PUSH2 0xDDE JUMP JUMPDEST PUSH1 0x2 ADD PUSH1 0x0 DUP13 PUSH20 0xFFFFFFFFFFFFFFFFFFFFFFFFFFFFFFFFFFFFFFFF AND PUSH20 0xFFFFFFFFFFFFFFFFFFFFFFFFFFFFFFFFFFFFFFFF AND DUP2 MSTORE PUSH1 0x20 ADD SWAP1 DUP2 MSTORE PUSH1 0x20 ADD PUSH1 0x0 KECCAK256 DUP2 SWAP1 SSTORE POP POP POP POP POP POP POP POP POP POP POP JUMP JUMPDEST PUSH1 0x0 PUSH2 0xD15 PUSH2 0xDDE JUMP JUMPDEST PUSH1 0x2 ADD PUSH1 0x0 DUP4 PUSH20 0xFFFFFFFFFFFFFFFFFFFFFFFFFFFFFFFFFFFFFFFF AND PUSH20 0xFFFFFFFFFFFFFFFFFFFFFFFFFFFFFFFFFFFFFFFF AND DUP2 MSTORE PUSH1 0x20 ADD SWAP1 DUP2 MSTORE PUSH1 0x20 ADD PUSH1 0x0 KECCAK256 SLOAD SWAP1 POP SWAP2 SWAP1 POP JUMP JUMPDEST PUSH1 0x0 PUSH32 0x8197B6D400000000000000000000000000000000000000000000000000000000 PUSH28 0xFFFFFFFFFFFFFFFFFFFFFFFFFFFFFFFFFFFFFFFFFFFFFFFFFFFFFFFF NOT AND DUP3 PUSH28 0xFFFFFFFFFFFFFFFFFFFFFFFFFFFFFFFFFFFFFFFFFFFFFFFFFFFFFFFF NOT AND SUB PUSH2 0xDCD JUMPI PUSH1 0x1 SWAP1 POP PUSH2 0xDD9 JUMP JUMPDEST PUSH2 0xDD6 DUP3 PUSH2 0x1248 JUMP JUMPDEST SWAP1 POP JUMPDEST SWAP2 SWAP1 POP JUMP JUMPDEST PUSH1 0x0 DUP1 PUSH32 0x255F4A56BD3AD76424E31ED8855EF9AD14A0CE4E67508C76FF082E5C1466B12F SWAP1 POP DUP1 SWAP2 POP POP SWAP1 JUMP JUMPDEST PUSH1 0x0 PUSH1 0x60 PUSH1 0x0 DUP1 JUMPDEST DUP5 MLOAD DUP2 LT ISZERO PUSH2 0xFA3 JUMPI PUSH1 0x0 PUSH2 0xE42 DUP8 DUP8 DUP5 DUP2 MLOAD DUP2 LT PUSH2 0xE35 JUMPI PUSH2 0xE34 PUSH2 0x232C JUMP JUMPDEST JUMPDEST PUSH1 0x20 MUL PUSH1 0x20 ADD ADD MLOAD PUSH2 0x12B2 JUMP JUMPDEST SWAP1 POP PUSH1 0x0 PUSH2 0xE4E PUSH2 0xDDE JUMP JUMPDEST PUSH1 0x2 ADD PUSH1 0x0 DUP4 PUSH20 0xFFFFFFFFFFFFFFFFFFFFFFFFFFFFFFFFFFFFFFFF AND PUSH20 0xFFFFFFFFFFFFFFFFFFFFFFFFFFFFFFFFFFFFFFFF AND DUP2 MSTORE PUSH1 0x20 ADD SWAP1 DUP2 MSTORE PUSH1 0x20 ADD PUSH1 0x0 KECCAK256 SLOAD SUB PUSH2 0xEBB JUMPI PUSH1 0x0 PUSH1 0x40 MLOAD DUP1 PUSH1 0x60 ADD PUSH1 0x40 MSTORE DUP1 PUSH1 0x32 DUP2 MSTORE PUSH1 0x20 ADD PUSH2 0x2BBC PUSH1 0x32 SWAP2 CODECOPY SWAP5 POP SWAP5 POP POP POP POP PUSH2 0xFF4 JUMP JUMPDEST PUSH1 0x0 DUP7 DUP4 DUP2 MLOAD DUP2 LT PUSH2 0xED0 JUMPI PUSH2 0xECF PUSH2 0x232C JUMP JUMPDEST JUMPDEST PUSH1 0x20 MUL PUSH1 0x20 ADD ADD MLOAD DUP1 MLOAD SWAP1 PUSH1 0x20 ADD KECCAK256 SWAP1 POP PUSH2 0xEE9 PUSH2 0xDDE JUMP JUMPDEST PUSH1 0x3 ADD PUSH1 0x0 DUP3 DUP2 MSTORE PUSH1 0x20 ADD SWAP1 DUP2 MSTORE PUSH1 0x20 ADD PUSH1 0x0 KECCAK256 PUSH1 0x0 SWAP1 SLOAD SWAP1 PUSH2 0x100 EXP SWAP1 DIV PUSH1 0xFF AND ISZERO PUSH2 0xF38 JUMPI PUSH1 0x0 PUSH1 0x40 MLOAD DUP1 PUSH1 0x60 ADD PUSH1 0x40 MSTORE DUP1 PUSH1 0x23 DUP2 MSTORE PUSH1 0x20 ADD PUSH2 0x2BEE PUSH1 0x23 SWAP2 CODECOPY SWAP6 POP SWAP6 POP POP POP POP POP PUSH2 0xFF4 JUMP JUMPDEST PUSH2 0xF40 PUSH2 0xDDE JUMP JUMPDEST PUSH1 0x2 ADD PUSH1 0x0 DUP4 PUSH20 0xFFFFFFFFFFFFFFFFFFFFFFFFFFFFFFFFFFFFFFFF AND PUSH20 0xFFFFFFFFFFFFFFFFFFFFFFFFFFFFFFFFFFFFFFFF AND DUP2 MSTORE PUSH1 0x20 ADD SWAP1 DUP2 MSTORE PUSH1 0x20 ADD PUSH1 0x0 KECCAK256 SLOAD DUP5 PUSH2 0xF8C SWAP2 SWAP1 PUSH2 0x2844 JUMP JUMPDEST SWAP4 POP POP POP DUP1 DUP1 PUSH2 0xF9B SWAP1 PUSH2 0x2445 JUMP JUMPDEST SWAP2 POP POP PUSH2 0xE13 JUMP JUMPDEST POP PUSH2 0xFAC PUSH2 0xDDE JUMP JUMPDEST PUSH1 0x0 ADD SLOAD DUP2 LT ISZERO PUSH2 0xFDC JUMPI PUSH1 0x0 PUSH1 0x40 MLOAD DUP1 PUSH1 0x60 ADD PUSH1 0x40 MSTORE DUP1 PUSH1 0x26 DUP2 MSTORE PUSH1 0x20 ADD PUSH2 0x2B96 PUSH1 0x26 SWAP2 CODECOPY SWAP3 POP SWAP3 POP POP PUSH2 0xFF4 JUMP JUMPDEST PUSH1 0x1 PUSH1 0x40 MLOAD DUP1 PUSH1 0x20 ADD PUSH1 0x40 MSTORE DUP1 PUSH1 0x0 DUP2 MSTORE POP SWAP3 POP SWAP3 POP POP JUMPDEST SWAP3 POP SWAP3 SWAP1 POP JUMP JUMPDEST PUSH1 0x60 PUSH1 0x0 DUP1 DUP4 PUSH1 0x0 ADD PUSH1 0x20 DUP2 ADD SWAP1 PUSH2 0x1013 SWAP2 SWAP1 PUSH2 0x1E16 JUMP JUMPDEST PUSH20 0xFFFFFFFFFFFFFFFFFFFFFFFFFFFFFFFFFFFFFFFF AND DUP5 PUSH1 0x20 ADD CALLDATALOAD DUP6 DUP1 PUSH1 0x60 ADD SWAP1 PUSH2 0x103E SWAP2 SWAP1 PUSH2 0x236A JUMP JUMPDEST PUSH1 0x40 MLOAD PUSH2 0x104C SWAP3 SWAP2 SWAP1 PUSH2 0x23FD JUMP JUMPDEST PUSH1 0x0 PUSH1 0x40 MLOAD DUP1 DUP4 SUB DUP2 DUP6 DUP8 GAS CALL SWAP3 POP POP POP RETURNDATASIZE DUP1 PUSH1 0x0 DUP2 EQ PUSH2 0x1089 JUMPI PUSH1 0x40 MLOAD SWAP2 POP PUSH1 0x1F NOT PUSH1 0x3F RETURNDATASIZE ADD AND DUP3 ADD PUSH1 0x40 MSTORE RETURNDATASIZE DUP3 MSTORE RETURNDATASIZE PUSH1 0x0 PUSH1 0x20 DUP5 ADD RETURNDATACOPY PUSH2 0x108E JUMP JUMPDEST PUSH1 0x60 SWAP2 POP JUMPDEST POP SWAP2 POP SWAP2 POP DUP2 PUSH2 0x10A0 JUMPI DUP1 MLOAD PUSH1 0x20 DUP3 ADD REVERT JUMPDEST DUP1 SWAP3 POP POP POP SWAP2 SWAP1 POP JUMP JUMPDEST PUSH2 0x10B2 PUSH2 0xDDE JUMP JUMPDEST PUSH1 0x2 ADD PUSH1 0x0 DUP3 PUSH20 0xFFFFFFFFFFFFFFFFFFFFFFFFFFFFFFFFFFFFFFFF AND PUSH20 0xFFFFFFFFFFFFFFFFFFFFFFFFFFFFFFFFFFFFFFFF AND DUP2 MSTORE PUSH1 0x20 ADD SWAP1 DUP2 MSTORE PUSH1 0x20 ADD PUSH1 0x0 KECCAK256 SLOAD PUSH2 0x10FB PUSH2 0xDDE JUMP JUMPDEST PUSH1 0x1 ADD PUSH1 0x0 DUP3 DUP3 SLOAD PUSH2 0x110D SWAP2 SWAP1 PUSH2 0x2810 JUMP JUMPDEST SWAP3 POP POP DUP2 SWAP1 SSTORE POP PUSH1 0x0 PUSH2 0x111E PUSH2 0xDDE JUMP JUMPDEST PUSH1 0x1 ADD SLOAD GT DUP1 ISZERO PUSH2 0x1145 JUMPI POP PUSH2 0x1132 PUSH2 0xDDE JUMP JUMPDEST PUSH1 0x0 ADD SLOAD PUSH2 0x113E PUSH2 0xDDE JUMP JUMPDEST PUSH1 0x1 ADD SLOAD LT ISZERO JUMPDEST PUSH2 0x1184 JUMPI PUSH1 0x40 MLOAD PUSH32 0x8C379A000000000000000000000000000000000000000000000000000000000 DUP2 MSTORE PUSH1 0x4 ADD PUSH2 0x117B SWAP1 PUSH2 0x28C4 JUMP JUMPDEST PUSH1 0x40 MLOAD DUP1 SWAP2 SUB SWAP1 REVERT JUMPDEST PUSH1 0x0 PUSH2 0x118E PUSH2 0xDDE JUMP JUMPDEST PUSH1 0x2 ADD PUSH1 0x0 DUP4 PUSH20 0xFFFFFFFFFFFFFFFFFFFFFFFFFFFFFFFFFFFFFFFF AND PUSH20 0xFFFFFFFFFFFFFFFFFFFFFFFFFFFFFFFFFFFFFFFF AND DUP2 MSTORE PUSH1 0x20 ADD SWAP1 DUP2 MSTORE PUSH1 0x20 ADD PUSH1 0x0 KECCAK256 DUP2 SWAP1 SSTORE POP POP JUMP JUMPDEST DUP1 PUSH2 0x11DE PUSH2 0xDDE JUMP JUMPDEST PUSH1 0x1 ADD PUSH1 0x0 DUP3 DUP3 SLOAD PUSH2 0x11F0 SWAP2 SWAP1 PUSH2 0x2844 JUMP JUMPDEST SWAP3 POP POP DUP2 SWAP1 SSTORE POP DUP1 PUSH2 0x1200 PUSH2 0xDDE JUMP JUMPDEST PUSH1 0x2 ADD PUSH1 0x0 DUP5 PUSH20 0xFFFFFFFFFFFFFFFFFFFFFFFFFFFFFFFFFFFFFFFF AND PUSH20 0xFFFFFFFFFFFFFFFFFFFFFFFFFFFFFFFFFFFFFFFF AND DUP2 MSTORE PUSH1 0x20 ADD SWAP1 DUP2 MSTORE PUSH1 0x20 ADD PUSH1 0x0 KECCAK256 DUP2 SWAP1 SSTORE POP POP POP JUMP JUMPDEST PUSH1 0x0 PUSH32 0x1FFC9A700000000000000000000000000000000000000000000000000000000 PUSH28 0xFFFFFFFFFFFFFFFFFFFFFFFFFFFFFFFFFFFFFFFFFFFFFFFFFFFFFFFF NOT AND DUP3 PUSH28 0xFFFFFFFFFFFFFFFFFFFFFFFFFFFFFFFFFFFFFFFFFFFFFFFFFFFFFFFF NOT AND EQ SWAP1 POP SWAP2 SWAP1 POP JUMP JUMPDEST PUSH1 0x0 PUSH2 0x12CF DUP3 PUSH2 0x12C1 DUP6 PUSH2 0x12D7 JUMP JUMPDEST PUSH2 0x1307 SWAP1 SWAP2 SWAP1 PUSH4 0xFFFFFFFF AND JUMP JUMPDEST SWAP1 POP SWAP3 SWAP2 POP POP JUMP JUMPDEST PUSH1 0x0 DUP2 PUSH1 0x40 MLOAD PUSH1 0x20 ADD PUSH2 0x12EA SWAP2 SWAP1 PUSH2 0x2966 JUMP JUMPDEST PUSH1 0x40 MLOAD PUSH1 0x20 DUP2 DUP4 SUB SUB DUP2 MSTORE SWAP1 PUSH1 0x40 MSTORE DUP1 MLOAD SWAP1 PUSH1 0x20 ADD KECCAK256 SWAP1 POP SWAP2 SWAP1 POP JUMP JUMPDEST PUSH1 0x0 DUP1 PUSH1 0x0 PUSH2 0x1316 DUP6 DUP6 PUSH2 0x132E JUMP JUMPDEST SWAP2 POP SWAP2 POP PUSH2 0x1323 DUP2 PUSH2 0x137F JUMP JUMPDEST DUP2 SWAP3 POP POP POP SWAP3 SWAP2 POP POP JUMP JUMPDEST PUSH1 0x0 DUP1 PUSH1 0x41 DUP4 MLOAD SUB PUSH2 0x136F JUMPI PUSH1 0x0 DUP1 PUSH1 0x0 PUSH1 0x20 DUP7 ADD MLOAD SWAP3 POP PUSH1 0x40 DUP7 ADD MLOAD SWAP2 POP PUSH1 0x60 DUP7 ADD MLOAD PUSH1 0x0 BYTE SWAP1 POP PUSH2 0x1363 DUP8 DUP3 DUP6 DUP6 PUSH2 0x14E5 JUMP JUMPDEST SWAP5 POP SWAP5 POP POP POP POP PUSH2 0x1378 JUMP JUMPDEST PUSH1 0x0 PUSH1 0x2 SWAP2 POP SWAP2 POP JUMPDEST SWAP3 POP SWAP3 SWAP1 POP JUMP JUMPDEST PUSH1 0x0 PUSH1 0x4 DUP2 GT ISZERO PUSH2 0x1393 JUMPI PUSH2 0x1392 PUSH2 0x298C JUMP JUMPDEST JUMPDEST DUP2 PUSH1 0x4 DUP2 GT ISZERO PUSH2 0x13A6 JUMPI PUSH2 0x13A5 PUSH2 0x298C JUMP JUMPDEST JUMPDEST SUB ISZERO PUSH2 0x14E2 JUMPI PUSH1 0x1 PUSH1 0x4 DUP2 GT ISZERO PUSH2 0x13C0 JUMPI PUSH2 0x13BF PUSH2 0x298C JUMP JUMPDEST JUMPDEST DUP2 PUSH1 0x4 DUP2 GT ISZERO PUSH2 0x13D3 JUMPI PUSH2 0x13D2 PUSH2 0x298C JUMP JUMPDEST JUMPDEST SUB PUSH2 0x1413 JUMPI PUSH1 0x40 MLOAD PUSH32 0x8C379A000000000000000000000000000000000000000000000000000000000 DUP2 MSTORE PUSH1 0x4 ADD PUSH2 0x140A SWAP1 PUSH2 0x2A07 JUMP JUMPDEST PUSH1 0x40 MLOAD DUP1 SWAP2 SUB SWAP1 REVERT JUMPDEST PUSH1 0x2 PUSH1 0x4 DUP2 GT ISZERO PUSH2 0x1427 JUMPI PUSH2 0x1426 PUSH2 0x298C JUMP JUMPDEST JUMPDEST DUP2 PUSH1 0x4 DUP2 GT ISZERO PUSH2 0x143A JUMPI PUSH2 0x1439 PUSH2 0x298C JUMP JUMPDEST JUMPDEST SUB PUSH2 0x147A JUMPI PUSH1 0x40 MLOAD PUSH32 0x8C379A000000000000000000000000000000000000000000000000000000000 DUP2 MSTORE PUSH1 0x4 ADD PUSH2 0x1471 SWAP1 PUSH2 0x2A73 JUMP JUMPDEST PUSH1 0x40 MLOAD DUP1 SWAP2 SUB SWAP1 REVERT JUMPDEST PUSH1 0x3 PUSH1 0x4 DUP2 GT ISZERO PUSH2 0x148E JUMPI PUSH2 0x148D PUSH2 0x298C JUMP JUMPDEST JUMPDEST DUP2 PUSH1 0x4 DUP2 GT ISZERO PUSH2 0x14A1 JUMPI PUSH2 0x14A0 PUSH2 0x298C JUMP JUMPDEST JUMPDEST SUB PUSH2 0x14E1 JUMPI PUSH1 0x40 MLOAD PUSH32 0x8C379A000000000000000000000000000000000000000000000000000000000 DUP2 MSTORE PUSH1 0x4 ADD PUSH2 0x14D8 SWAP1 PUSH2 0x2B05 JUMP JUMPDEST PUSH1 0x40 MLOAD DUP1 SWAP2 SUB SWAP1 REVERT JUMPDEST JUMPDEST POP JUMP JUMPDEST PUSH1 0x0 DUP1 PUSH32 0x7FFFFFFFFFFFFFFFFFFFFFFFFFFFFFFF5D576E7357A4501DDFE92F46681B20A0 DUP4 PUSH1 0x0 SHR GT ISZERO PUSH2 0x1520 JUMPI PUSH1 0x0 PUSH1 0x3 SWAP2 POP SWAP2 POP PUSH2 0x15BE JUMP JUMPDEST PUSH1 0x0 PUSH1 0x1 DUP8 DUP8 DUP8 DUP8 PUSH1 0x40 MLOAD PUSH1 0x0 DUP2 MSTORE PUSH1 0x20 ADD PUSH1 0x40 MSTORE PUSH1 0x40 MLOAD PUSH2 0x1545 SWAP5 SWAP4 SWAP3 SWAP2 SWAP1 PUSH2 0x2B50 JUMP JUMPDEST PUSH1 0x20 PUSH1 0x40 MLOAD PUSH1 0x20 DUP2 SUB SWAP1 DUP1 DUP5 SUB SWAP1 DUP6 GAS STATICCALL ISZERO DUP1 ISZERO PUSH2 0x1567 JUMPI RETURNDATASIZE PUSH1 0x0 DUP1 RETURNDATACOPY RETURNDATASIZE PUSH1 0x0 REVERT JUMPDEST POP POP POP PUSH1 0x20 PUSH1 0x40 MLOAD SUB MLOAD SWAP1 POP PUSH1 0x0 PUSH20 0xFFFFFFFFFFFFFFFFFFFFFFFFFFFFFFFFFFFFFFFF AND DUP2 PUSH20 0xFFFFFFFFFFFFFFFFFFFFFFFFFFFFFFFFFFFFFFFF AND SUB PUSH2 0x15B5 JUMPI PUSH1 0x0 PUSH1 0x1 SWAP3 POP SWAP3 POP POP PUSH2 0x15BE JUMP JUMPDEST DUP1 PUSH1 0x0 SWAP3 POP SWAP3 POP POP JUMPDEST SWAP5 POP SWAP5 SWAP3 POP POP POP JUMP JUMPDEST PUSH1 0x0 PUSH1 0x40 MLOAD SWAP1 POP SWAP1 JUMP JUMPDEST PUSH1 0x0 DUP1 REVERT JUMPDEST PUSH1 0x0 DUP1 REVERT JUMPDEST PUSH1 0x0 PUSH32 0xFFFFFFFF00000000000000000000000000000000000000000000000000000000 DUP3 AND SWAP1 POP SWAP2 SWAP1 POP JUMP JUMPDEST PUSH2 0x1610 DUP2 PUSH2 0x15DB JUMP JUMPDEST DUP2 EQ PUSH2 0x161B JUMPI PUSH1 0x0 DUP1 REVERT JUMPDEST POP JUMP JUMPDEST PUSH1 0x0 DUP2 CALLDATALOAD SWAP1 POP PUSH2 0x162D DUP2 PUSH2 0x1607 JUMP JUMPDEST SWAP3 SWAP2 POP POP JUMP JUMPDEST PUSH1 0x0 PUSH1 0x20 DUP3 DUP5 SUB SLT ISZERO PUSH2 0x1649 JUMPI PUSH2 0x1648 PUSH2 0x15D1 JUMP JUMPDEST JUMPDEST PUSH1 0x0 PUSH2 0x1657 DUP5 DUP3 DUP6 ADD PUSH2 0x161E JUMP JUMPDEST SWAP2 POP POP SWAP3 SWAP2 POP POP JUMP JUMPDEST PUSH1 0x0 DUP2 ISZERO ISZERO SWAP1 POP SWAP2 SWAP1 POP JUMP JUMPDEST PUSH2 0x1675 DUP2 PUSH2 0x1660 JUMP JUMPDEST DUP3 MSTORE POP POP JUMP JUMPDEST PUSH1 0x0 PUSH1 0x20 DUP3 ADD SWAP1 POP PUSH2 0x1690 PUSH1 0x0 DUP4 ADD DUP5 PUSH2 0x166C JUMP JUMPDEST SWAP3 SWAP2 POP POP JUMP JUMPDEST PUSH1 0x0 DUP2 SWAP1 POP SWAP2 SWAP1 POP JUMP JUMPDEST PUSH2 0x16A9 DUP2 PUSH2 0x1696 JUMP JUMPDEST DUP3 MSTORE POP POP JUMP JUMPDEST PUSH1 0x0 PUSH1 0x20 DUP3 ADD SWAP1 POP PUSH2 0x16C4 PUSH1 0x0 DUP4 ADD DUP5 PUSH2 0x16A0 JUMP JUMPDEST SWAP3 SWAP2 POP POP JUMP JUMPDEST PUSH1 0x0 DUP1 REVERT JUMPDEST PUSH1 0x0 DUP1 REVERT JUMPDEST PUSH1 0x0 DUP1 REVERT JUMPDEST PUSH1 0x0 DUP1 DUP4 PUSH1 0x1F DUP5 ADD SLT PUSH2 0x16EF JUMPI PUSH2 0x16EE PUSH2 0x16CA JUMP JUMPDEST JUMPDEST DUP3 CALLDATALOAD SWAP1 POP PUSH8 0xFFFFFFFFFFFFFFFF DUP2 GT ISZERO PUSH2 0x170C JUMPI PUSH2 0x170B PUSH2 0x16CF JUMP JUMPDEST JUMPDEST PUSH1 0x20 DUP4 ADD SWAP2 POP DUP4 PUSH1 0x20 DUP3 MUL DUP4 ADD GT ISZERO PUSH2 0x1728 JUMPI PUSH2 0x1727 PUSH2 0x16D4 JUMP JUMPDEST JUMPDEST SWAP3 POP SWAP3 SWAP1 POP JUMP JUMPDEST PUSH1 0x0 DUP1 DUP4 PUSH1 0x1F DUP5 ADD SLT PUSH2 0x1745 JUMPI PUSH2 0x1744 PUSH2 0x16CA JUMP JUMPDEST JUMPDEST DUP3 CALLDATALOAD SWAP1 POP PUSH8 0xFFFFFFFFFFFFFFFF DUP2 GT ISZERO PUSH2 0x1762 JUMPI PUSH2 0x1761 PUSH2 0x16CF JUMP JUMPDEST JUMPDEST PUSH1 0x20 DUP4 ADD SWAP2 POP DUP4 PUSH1 0x20 DUP3 MUL DUP4 ADD GT ISZERO PUSH2 0x177E JUMPI PUSH2 0x177D PUSH2 0x16D4 JUMP JUMPDEST JUMPDEST SWAP3 POP SWAP3 SWAP1 POP JUMP JUMPDEST PUSH1 0x0 DUP1 PUSH1 0x0 DUP1 PUSH1 0x40 DUP6 DUP8 SUB SLT ISZERO PUSH2 0x179F JUMPI PUSH2 0x179E PUSH2 0x15D1 JUMP JUMPDEST JUMPDEST PUSH1 0x0 DUP6 ADD CALLDATALOAD PUSH8 0xFFFFFFFFFFFFFFFF DUP2 GT ISZERO PUSH2 0x17BD JUMPI PUSH2 0x17BC PUSH2 0x15D6 JUMP JUMPDEST JUMPDEST PUSH2 0x17C9 DUP8 DUP3 DUP9 ADD PUSH2 0x16D9 JUMP JUMPDEST SWAP5 POP SWAP5 POP POP PUSH1 0x20 DUP6 ADD CALLDATALOAD PUSH8 0xFFFFFFFFFFFFFFFF DUP2 GT ISZERO PUSH2 0x17EC JUMPI PUSH2 0x17EB PUSH2 0x15D6 JUMP JUMPDEST JUMPDEST PUSH2 0x17F8 DUP8 DUP3 DUP9 ADD PUSH2 0x172F JUMP JUMPDEST SWAP3 POP SWAP3 POP POP SWAP3 SWAP6 SWAP2 SWAP5 POP SWAP3 POP JUMP JUMPDEST PUSH1 0x0 DUP2 MLOAD SWAP1 POP SWAP2 SWAP1 POP JUMP JUMPDEST PUSH1 0x0 DUP3 DUP3 MSTORE PUSH1 0x20 DUP3 ADD SWAP1 POP SWAP3 SWAP2 POP POP JUMP JUMPDEST PUSH1 0x0 DUP2 SWAP1 POP PUSH1 0x20 DUP3 ADD SWAP1 POP SWAP2 SWAP1 POP JUMP JUMPDEST PUSH1 0x0 DUP2 MLOAD SWAP1 POP SWAP2 SWAP1 POP JUMP JUMPDEST PUSH1 0x0 DUP3 DUP3 MSTORE PUSH1 0x20 DUP3 ADD SWAP1 POP SWAP3 SWAP2 POP POP JUMP JUMPDEST PUSH1 0x0 JUMPDEST DUP4 DUP2 LT ISZERO PUSH2 0x186C JUMPI DUP1 DUP3 ADD MLOAD DUP2 DUP5 ADD MSTORE PUSH1 0x20 DUP2 ADD SWAP1 POP PUSH2 0x1851 JUMP JUMPDEST PUSH1 0x0 DUP5 DUP5 ADD MSTORE POP POP POP POP JUMP JUMPDEST PUSH1 0x0 PUSH1 0x1F NOT PUSH1 0x1F DUP4 ADD AND SWAP1 POP SWAP2 SWAP1 POP JUMP JUMPDEST PUSH1 0x0 PUSH2 0x1894 DUP3 PUSH2 0x1832 JUMP JUMPDEST PUSH2 0x189E DUP2 DUP6 PUSH2 0x183D JUMP JUMPDEST SWAP4 POP PUSH2 0x18AE DUP2 DUP6 PUSH1 0x20 DUP7 ADD PUSH2 0x184E JUMP JUMPDEST PUSH2 0x18B7 DUP2 PUSH2 0x1878 JUMP JUMPDEST DUP5 ADD SWAP2 POP POP SWAP3 SWAP2 POP POP JUMP JUMPDEST PUSH1 0x0 PUSH2 0x18CE DUP4 DUP4 PUSH2 0x1889 JUMP JUMPDEST SWAP1 POP SWAP3 SWAP2 POP POP JUMP JUMPDEST PUSH1 0x0 PUSH1 0x20 DUP3 ADD SWAP1 POP SWAP2 SWAP1 POP JUMP JUMPDEST PUSH1 0x0 PUSH2 0x18EE DUP3 PUSH2 0x1806 JUMP JUMPDEST PUSH2 0x18F8 DUP2 DUP6 PUSH2 0x1811 JUMP JUMPDEST SWAP4 POP DUP4 PUSH1 0x20 DUP3 MUL DUP6 ADD PUSH2 0x190A DUP6 PUSH2 0x1822 JUMP JUMPDEST DUP1 PUSH1 0x0 JUMPDEST DUP6 DUP2 LT ISZERO PUSH2 0x1946 JUMPI DUP5 DUP5 SUB DUP10 MSTORE DUP2 MLOAD PUSH2 0x1927 DUP6 DUP3 PUSH2 0x18C2 JUMP JUMPDEST SWAP5 POP PUSH2 0x1932 DUP4 PUSH2 0x18D6 JUMP JUMPDEST SWAP3 POP PUSH1 0x20 DUP11 ADD SWAP10 POP POP PUSH1 0x1 DUP2 ADD SWAP1 POP PUSH2 0x190E JUMP JUMPDEST POP DUP3 SWAP8 POP DUP8 SWAP6 POP POP POP POP POP POP SWAP3 SWAP2 POP POP JUMP JUMPDEST PUSH1 0x0 PUSH1 0x20 DUP3 ADD SWAP1 POP DUP2 DUP2 SUB PUSH1 0x0 DUP4 ADD MSTORE PUSH2 0x1972 DUP2 DUP5 PUSH2 0x18E3 JUMP JUMPDEST SWAP1 POP SWAP3 SWAP2 POP POP JUMP JUMPDEST PUSH1 0x0 DUP1 DUP4 PUSH1 0x1F DUP5 ADD SLT PUSH2 0x1990 JUMPI PUSH2 0x198F PUSH2 0x16CA JUMP JUMPDEST JUMPDEST DUP3 CALLDATALOAD SWAP1 POP PUSH8 0xFFFFFFFFFFFFFFFF DUP2 GT ISZERO PUSH2 0x19AD JUMPI PUSH2 0x19AC PUSH2 0x16CF JUMP JUMPDEST JUMPDEST PUSH1 0x20 DUP4 ADD SWAP2 POP DUP4 PUSH1 0x20 DUP3 MUL DUP4 ADD GT ISZERO PUSH2 0x19C9 JUMPI PUSH2 0x19C8 PUSH2 0x16D4 JUMP JUMPDEST JUMPDEST SWAP3 POP SWAP3 SWAP1 POP JUMP JUMPDEST PUSH2 0x19D9 DUP2 PUSH2 0x1696 JUMP JUMPDEST DUP2 EQ PUSH2 0x19E4 JUMPI PUSH1 0x0 DUP1 REVERT JUMPDEST POP JUMP JUMPDEST PUSH1 0x0 DUP2 CALLDATALOAD SWAP1 POP PUSH2 0x19F6 DUP2 PUSH2 0x19D0 JUMP JUMPDEST SWAP3 SWAP2 POP POP JUMP JUMPDEST PUSH1 0x0 DUP1 PUSH1 0x0 DUP1 PUSH1 0x0 PUSH1 0x60 DUP7 DUP9 SUB SLT ISZERO PUSH2 0x1A18 JUMPI PUSH2 0x1A17 PUSH2 0x15D1 JUMP JUMPDEST JUMPDEST PUSH1 0x0 DUP7 ADD CALLDATALOAD PUSH8 0xFFFFFFFFFFFFFFFF DUP2 GT ISZERO PUSH2 0x1A36 JUMPI PUSH2 0x1A35 PUSH2 0x15D6 JUMP JUMPDEST JUMPDEST PUSH2 0x1A42 DUP9 DUP3 DUP10 ADD PUSH2 0x197A JUMP JUMPDEST SWAP6 POP SWAP6 POP POP PUSH1 0x20 PUSH2 0x1A55 DUP9 DUP3 DUP10 ADD PUSH2 0x19E7 JUMP JUMPDEST SWAP4 POP POP PUSH1 0x40 DUP7 ADD CALLDATALOAD PUSH8 0xFFFFFFFFFFFFFFFF DUP2 GT ISZERO PUSH2 0x1A76 JUMPI PUSH2 0x1A75 PUSH2 0x15D6 JUMP JUMPDEST JUMPDEST PUSH2 0x1A82 DUP9 DUP3 DUP10 ADD PUSH2 0x172F JUMP JUMPDEST SWAP3 POP SWAP3 POP POP SWAP3 SWAP6 POP SWAP3 SWAP6 SWAP1 SWAP4 POP JUMP JUMPDEST PUSH1 0x0 DUP1 PUSH1 0x0 DUP1 PUSH1 0x60 DUP6 DUP8 SUB SLT ISZERO PUSH2 0x1AAB JUMPI PUSH2 0x1AAA PUSH2 0x15D1 JUMP JUMPDEST JUMPDEST PUSH1 0x0 PUSH2 0x1AB9 DUP8 DUP3 DUP9 ADD PUSH2 0x19E7 JUMP JUMPDEST SWAP5 POP POP PUSH1 0x20 PUSH2 0x1ACA DUP8 DUP3 DUP9 ADD PUSH2 0x19E7 JUMP JUMPDEST SWAP4 POP POP PUSH1 0x40 DUP6 ADD CALLDATALOAD PUSH8 0xFFFFFFFFFFFFFFFF DUP2 GT ISZERO PUSH2 0x1AEB JUMPI PUSH2 0x1AEA PUSH2 0x15D6 JUMP JUMPDEST JUMPDEST PUSH2 0x1AF7 DUP8 DUP3 DUP9 ADD PUSH2 0x172F JUMP JUMPDEST SWAP3 POP SWAP3 POP POP SWAP3 SWAP6 SWAP2 SWAP5 POP SWAP3 POP JUMP JUMPDEST PUSH1 0x0 DUP1 REVERT JUMPDEST PUSH1 0x0 PUSH1 0x80 DUP3 DUP5 SUB SLT ISZERO PUSH2 0x1B20 JUMPI PUSH2 0x1B1F PUSH2 0x1B05 JUMP JUMPDEST JUMPDEST DUP2 SWAP1 POP SWAP3 SWAP2 POP POP JUMP JUMPDEST PUSH1 0x0 DUP1 PUSH1 0x0 PUSH1 0x40 DUP5 DUP7 SUB SLT ISZERO PUSH2 0x1B42 JUMPI PUSH2 0x1B41 PUSH2 0x15D1 JUMP JUMPDEST JUMPDEST PUSH1 0x0 DUP5 ADD CALLDATALOAD PUSH8 0xFFFFFFFFFFFFFFFF DUP2 GT ISZERO PUSH2 0x1B60 JUMPI PUSH2 0x1B5F PUSH2 0x15D6 JUMP JUMPDEST JUMPDEST PUSH2 0x1B6C DUP7 DUP3 DUP8 ADD PUSH2 0x1B0A JUMP JUMPDEST SWAP4 POP POP PUSH1 0x20 DUP5 ADD CALLDATALOAD PUSH8 0xFFFFFFFFFFFFFFFF DUP2 GT ISZERO PUSH2 0x1B8D JUMPI PUSH2 0x1B8C PUSH2 0x15D6 JUMP JUMPDEST JUMPDEST PUSH2 0x1B99 DUP7 DUP3 DUP8 ADD PUSH2 0x172F JUMP JUMPDEST SWAP3 POP SWAP3 POP POP SWAP3 POP SWAP3 POP SWAP3 JUMP JUMPDEST PUSH1 0x0 DUP3 DUP3 MSTORE PUSH1 0x20 DUP3 ADD SWAP1 POP SWAP3 SWAP2 POP POP JUMP JUMPDEST PUSH1 0x0 PUSH2 0x1BC1 DUP3 PUSH2 0x1832 JUMP JUMPDEST PUSH2 0x1BCB DUP2 DUP6 PUSH2 0x1BA5 JUMP JUMPDEST SWAP4 POP PUSH2 0x1BDB DUP2 DUP6 PUSH1 0x20 DUP7 ADD PUSH2 0x184E JUMP JUMPDEST PUSH2 0x1BE4 DUP2 PUSH2 0x1878 JUMP JUMPDEST DUP5 ADD SWAP2 POP POP SWAP3 SWAP2 POP POP JUMP JUMPDEST PUSH1 0x0 PUSH1 0x20 DUP3 ADD SWAP1 POP DUP2 DUP2 SUB PUSH1 0x0 DUP4 ADD MSTORE PUSH2 0x1C09 DUP2 DUP5 PUSH2 0x1BB6 JUMP JUMPDEST SWAP1 POP SWAP3 SWAP2 POP POP JUMP JUMPDEST PUSH1 0x0 DUP1 DUP4 PUSH1 0x1F DUP5 ADD SLT PUSH2 0x1C27 JUMPI PUSH2 0x1C26 PUSH2 0x16CA JUMP JUMPDEST JUMPDEST DUP3 CALLDATALOAD SWAP1 POP PUSH8 0xFFFFFFFFFFFFFFFF DUP2 GT ISZERO PUSH2 0x1C44 JUMPI PUSH2 0x1C43 PUSH2 0x16CF JUMP JUMPDEST JUMPDEST PUSH1 0x20 DUP4 ADD SWAP2 POP DUP4 PUSH1 0x20 DUP3 MUL DUP4 ADD GT ISZERO PUSH2 0x1C60 JUMPI PUSH2 0x1C5F PUSH2 0x16D4 JUMP JUMPDEST JUMPDEST SWAP3 POP SWAP3 SWAP1 POP JUMP JUMPDEST PUSH1 0x0 DUP1 PUSH1 0x0 DUP1 PUSH1 0x0 DUP1 PUSH1 0x0 PUSH1 0x80 DUP9 DUP11 SUB SLT ISZERO PUSH2 0x1C86 JUMPI PUSH2 0x1C85 PUSH2 0x15D1 JUMP JUMPDEST JUMPDEST PUSH1 0x0 DUP9 ADD CALLDATALOAD PUSH8 0xFFFFFFFFFFFFFFFF DUP2 GT ISZERO PUSH2 0x1CA4 JUMPI PUSH2 0x1CA3 PUSH2 0x15D6 JUMP JUMPDEST JUMPDEST PUSH2 0x1CB0 DUP11 DUP3 DUP12 ADD PUSH2 0x197A JUMP JUMPDEST SWAP8 POP SWAP8 POP POP PUSH1 0x20 DUP9 ADD CALLDATALOAD PUSH8 0xFFFFFFFFFFFFFFFF DUP2 GT ISZERO PUSH2 0x1CD3 JUMPI PUSH2 0x1CD2 PUSH2 0x15D6 JUMP JUMPDEST JUMPDEST PUSH2 0x1CDF DUP11 DUP3 DUP12 ADD PUSH2 0x1C11 JUMP JUMPDEST SWAP6 POP SWAP6 POP POP PUSH1 0x40 PUSH2 0x1CF2 DUP11 DUP3 DUP12 ADD PUSH2 0x19E7 JUMP JUMPDEST SWAP4 POP POP PUSH1 0x60 DUP9 ADD CALLDATALOAD PUSH8 0xFFFFFFFFFFFFFFFF DUP2 GT ISZERO PUSH2 0x1D13 JUMPI PUSH2 0x1D12 PUSH2 0x15D6 JUMP JUMPDEST JUMPDEST PUSH2 0x1D1F DUP11 DUP3 DUP12 ADD PUSH2 0x172F JUMP JUMPDEST SWAP3 POP SWAP3 POP POP SWAP3 SWAP6 SWAP9 SWAP2 SWAP5 SWAP8 POP SWAP3 SWAP6 POP JUMP JUMPDEST PUSH1 0x0 PUSH20 0xFFFFFFFFFFFFFFFFFFFFFFFFFFFFFFFFFFFFFFFF DUP3 AND SWAP1 POP SWAP2 SWAP1 POP JUMP JUMPDEST PUSH1 0x0 PUSH2 0x1D5B DUP3 PUSH2 0x1D30 JUMP JUMPDEST SWAP1 POP SWAP2 SWAP1 POP JUMP JUMPDEST PUSH2 0x1D6B DUP2 PUSH2 0x1D50 JUMP JUMPDEST DUP2 EQ PUSH2 0x1D76 JUMPI PUSH1 0x0 DUP1 REVERT JUMPDEST POP JUMP JUMPDEST PUSH1 0x0 DUP2 CALLDATALOAD SWAP1 POP PUSH2 0x1D88 DUP2 PUSH2 0x1D62 JUMP JUMPDEST SWAP3 SWAP2 POP POP JUMP JUMPDEST PUSH1 0x0 DUP1 PUSH1 0x0 DUP1 PUSH1 0x0 PUSH1 0x80 DUP7 DUP9 SUB SLT ISZERO PUSH2 0x1DAA JUMPI PUSH2 0x1DA9 PUSH2 0x15D1 JUMP JUMPDEST JUMPDEST PUSH1 0x0 PUSH2 0x1DB8 DUP9 DUP3 DUP10 ADD PUSH2 0x1D79 JUMP JUMPDEST SWAP6 POP POP PUSH1 0x20 PUSH2 0x1DC9 DUP9 DUP3 DUP10 ADD PUSH2 0x19E7 JUMP JUMPDEST SWAP5 POP POP PUSH1 0x40 PUSH2 0x1DDA DUP9 DUP3 DUP10 ADD PUSH2 0x19E7 JUMP JUMPDEST SWAP4 POP POP PUSH1 0x60 DUP7 ADD CALLDATALOAD PUSH8 0xFFFFFFFFFFFFFFFF DUP2 GT ISZERO PUSH2 0x1DFB JUMPI PUSH2 0x1DFA PUSH2 0x15D6 JUMP JUMPDEST JUMPDEST PUSH2 0x1E07 DUP9 DUP3 DUP10 ADD PUSH2 0x172F JUMP JUMPDEST SWAP3 POP SWAP3 POP POP SWAP3 SWAP6 POP SWAP3 SWAP6 SWAP1 SWAP4 POP JUMP JUMPDEST PUSH1 0x0 PUSH1 0x20 DUP3 DUP5 SUB SLT ISZERO PUSH2 0x1E2C JUMPI PUSH2 0x1E2B PUSH2 0x15D1 JUMP JUMPDEST JUMPDEST PUSH1 0x0 PUSH2 0x1E3A DUP5 DUP3 DUP6 ADD PUSH2 0x1D79 JUMP JUMPDEST SWAP2 POP POP SWAP3 SWAP2 POP POP JUMP JUMPDEST PUSH1 0x0 DUP3 DUP3 MSTORE PUSH1 0x20 DUP3 ADD SWAP1 POP SWAP3 SWAP2 POP POP JUMP JUMPDEST PUSH1 0x0 DUP2 SWAP1 POP SWAP2 SWAP1 POP JUMP JUMPDEST PUSH1 0x0 PUSH2 0x1E6D PUSH1 0x20 DUP5 ADD DUP5 PUSH2 0x1D79 JUMP JUMPDEST SWAP1 POP SWAP3 SWAP2 POP POP JUMP JUMPDEST PUSH2 0x1E7E DUP2 PUSH2 0x1D50 JUMP JUMPDEST DUP3 MSTORE POP POP JUMP JUMPDEST PUSH1 0x0 PUSH2 0x1E93 PUSH1 0x20 DUP5 ADD DUP5 PUSH2 0x19E7 JUMP JUMPDEST SWAP1 POP SWAP3 SWAP2 POP POP JUMP JUMPDEST PUSH2 0x1EA4 DUP2 PUSH2 0x1696 JUMP JUMPDEST DUP3 MSTORE POP POP JUMP JUMPDEST PUSH1 0x0 DUP1 REVERT JUMPDEST PUSH1 0x0 DUP1 REVERT JUMPDEST PUSH1 0x0 DUP1 REVERT JUMPDEST PUSH1 0x0 DUP1 DUP4 CALLDATALOAD PUSH1 0x1 PUSH1 0x20 SUB DUP5 CALLDATASIZE SUB SUB DUP2 SLT PUSH2 0x1ED6 JUMPI PUSH2 0x1ED5 PUSH2 0x1EB4 JUMP JUMPDEST JUMPDEST DUP4 DUP2 ADD SWAP3 POP DUP3 CALLDATALOAD SWAP2 POP PUSH1 0x20 DUP4 ADD SWAP3 POP PUSH8 0xFFFFFFFFFFFFFFFF DUP3 GT ISZERO PUSH2 0x1EFE JUMPI PUSH2 0x1EFD PUSH2 0x1EAA JUMP JUMPDEST JUMPDEST PUSH1 0x1 DUP3 MUL CALLDATASIZE SUB DUP4 SGT ISZERO PUSH2 0x1F14 JUMPI PUSH2 0x1F13 PUSH2 0x1EAF JUMP JUMPDEST JUMPDEST POP SWAP3 POP SWAP3 SWAP1 POP JUMP JUMPDEST DUP3 DUP2 DUP4 CALLDATACOPY PUSH1 0x0 DUP4 DUP4 ADD MSTORE POP POP POP JUMP JUMPDEST PUSH1 0x0 PUSH2 0x1F37 DUP4 DUP6 PUSH2 0x183D JUMP JUMPDEST SWAP4 POP PUSH2 0x1F44 DUP4 DUP6 DUP5 PUSH2 0x1F1C JUMP JUMPDEST PUSH2 0x1F4D DUP4 PUSH2 0x1878 JUMP JUMPDEST DUP5 ADD SWAP1 POP SWAP4 SWAP3 POP POP POP JUMP JUMPDEST PUSH1 0x0 PUSH1 0x80 DUP4 ADD PUSH2 0x1F6B PUSH1 0x0 DUP5 ADD DUP5 PUSH2 0x1E5E JUMP JUMPDEST PUSH2 0x1F78 PUSH1 0x0 DUP7 ADD DUP3 PUSH2 0x1E75 JUMP JUMPDEST POP PUSH2 0x1F86 PUSH1 0x20 DUP5 ADD DUP5 PUSH2 0x1E84 JUMP JUMPDEST PUSH2 0x1F93 PUSH1 0x20 DUP7 ADD DUP3 PUSH2 0x1E9B JUMP JUMPDEST POP PUSH2 0x1FA1 PUSH1 0x40 DUP5 ADD DUP5 PUSH2 0x1E84 JUMP JUMPDEST PUSH2 0x1FAE PUSH1 0x40 DUP7 ADD DUP3 PUSH2 0x1E9B JUMP JUMPDEST POP PUSH2 0x1FBC PUSH1 0x60 DUP5 ADD DUP5 PUSH2 0x1EB9 JUMP JUMPDEST DUP6 DUP4 SUB PUSH1 0x60 DUP8 ADD MSTORE PUSH2 0x1FCF DUP4 DUP3 DUP5 PUSH2 0x1F2B JUMP JUMPDEST SWAP3 POP POP POP DUP1 SWAP2 POP POP SWAP3 SWAP2 POP POP JUMP JUMPDEST PUSH1 0x0 PUSH2 0x1FE9 DUP4 DUP4 PUSH2 0x1F58 JUMP JUMPDEST SWAP1 POP SWAP3 SWAP2 POP POP JUMP JUMPDEST PUSH1 0x0 DUP3 CALLDATALOAD PUSH1 0x1 PUSH1 0x80 SUB DUP4 CALLDATASIZE SUB SUB DUP2 SLT PUSH2 0x200D JUMPI PUSH2 0x200C PUSH2 0x1EB4 JUMP JUMPDEST JUMPDEST DUP3 DUP2 ADD SWAP2 POP POP SWAP3 SWAP2 POP POP JUMP JUMPDEST PUSH1 0x0 PUSH1 0x20 DUP3 ADD SWAP1 POP SWAP2 SWAP1 POP JUMP JUMPDEST PUSH1 0x0 PUSH2 0x2032 DUP4 DUP6 PUSH2 0x1E43 JUMP JUMPDEST SWAP4 POP DUP4 PUSH1 0x20 DUP5 MUL DUP6 ADD PUSH2 0x2044 DUP5 PUSH2 0x1E54 JUMP JUMPDEST DUP1 PUSH1 0x0 JUMPDEST DUP8 DUP2 LT ISZERO PUSH2 0x2088 JUMPI DUP5 DUP5 SUB DUP10 MSTORE PUSH2 0x205F DUP3 DUP5 PUSH2 0x1FF1 JUMP JUMPDEST PUSH2 0x2069 DUP6 DUP3 PUSH2 0x1FDD JUMP JUMPDEST SWAP5 POP PUSH2 0x2074 DUP4 PUSH2 0x2019 JUMP JUMPDEST SWAP3 POP PUSH1 0x20 DUP11 ADD SWAP10 POP POP PUSH1 0x1 DUP2 ADD SWAP1 POP PUSH2 0x2048 JUMP JUMPDEST POP DUP3 SWAP8 POP DUP8 SWAP5 POP POP POP POP POP SWAP4 SWAP3 POP POP POP JUMP JUMPDEST PUSH1 0x0 PUSH1 0x40 DUP3 ADD SWAP1 POP DUP2 DUP2 SUB PUSH1 0x0 DUP4 ADD MSTORE PUSH2 0x20B5 DUP2 DUP6 DUP8 PUSH2 0x2026 JUMP JUMPDEST SWAP1 POP PUSH2 0x20C4 PUSH1 0x20 DUP4 ADD DUP5 PUSH2 0x16A0 JUMP JUMPDEST SWAP5 SWAP4 POP POP POP POP JUMP JUMPDEST PUSH32 0x4E487B7100000000000000000000000000000000000000000000000000000000 PUSH1 0x0 MSTORE PUSH1 0x41 PUSH1 0x4 MSTORE PUSH1 0x24 PUSH1 0x0 REVERT JUMPDEST PUSH2 0x2104 DUP3 PUSH2 0x1878 JUMP JUMPDEST DUP2 ADD DUP2 DUP2 LT PUSH8 0xFFFFFFFFFFFFFFFF DUP3 GT OR ISZERO PUSH2 0x2123 JUMPI PUSH2 0x2122 PUSH2 0x20CC JUMP JUMPDEST JUMPDEST DUP1 PUSH1 0x40 MSTORE POP POP POP JUMP JUMPDEST PUSH1 0x0 PUSH2 0x2136 PUSH2 0x15C7 JUMP JUMPDEST SWAP1 POP PUSH2 0x2142 DUP3 DUP3 PUSH2 0x20FB JUMP JUMPDEST SWAP2 SWAP1 POP JUMP JUMPDEST PUSH1 0x0 PUSH8 0xFFFFFFFFFFFFFFFF DUP3 GT ISZERO PUSH2 0x2162 JUMPI PUSH2 0x2161 PUSH2 0x20CC JUMP JUMPDEST JUMPDEST PUSH1 0x20 DUP3 MUL SWAP1 POP PUSH1 0x20 DUP2 ADD SWAP1 POP SWAP2 SWAP1 POP JUMP JUMPDEST PUSH1 0x0 DUP1 REVERT JUMPDEST PUSH1 0x0 PUSH8 0xFFFFFFFFFFFFFFFF DUP3 GT ISZERO PUSH2 0x2193 JUMPI PUSH2 0x2192 PUSH2 0x20CC JUMP JUMPDEST JUMPDEST PUSH2 0x219C DUP3 PUSH2 0x1878 JUMP JUMPDEST SWAP1 POP PUSH1 0x20 DUP2 ADD SWAP1 POP SWAP2 SWAP1 POP JUMP JUMPDEST PUSH1 0x0 PUSH2 0x21BC PUSH2 0x21B7 DUP5 PUSH2 0x2178 JUMP JUMPDEST PUSH2 0x212C JUMP JUMPDEST SWAP1 POP DUP3 DUP2 MSTORE PUSH1 0x20 DUP2 ADD DUP5 DUP5 DUP5 ADD GT ISZERO PUSH2 0x21D8 JUMPI PUSH2 0x21D7 PUSH2 0x2173 JUMP JUMPDEST JUMPDEST PUSH2 0x21E3 DUP5 DUP3 DUP6 PUSH2 0x1F1C JUMP JUMPDEST POP SWAP4 SWAP3 POP POP POP JUMP JUMPDEST PUSH1 0x0 DUP3 PUSH1 0x1F DUP4 ADD SLT PUSH2 0x2200 JUMPI PUSH2 0x21FF PUSH2 0x16CA JUMP JUMPDEST JUMPDEST DUP2 CALLDATALOAD PUSH2 0x2210 DUP5 DUP3 PUSH1 0x20 DUP7 ADD PUSH2 0x21A9 JUMP JUMPDEST SWAP2 POP POP SWAP3 SWAP2 POP POP JUMP JUMPDEST PUSH1 0x0 PUSH2 0x222C PUSH2 0x2227 DUP5 PUSH2 0x2147 JUMP JUMPDEST PUSH2 0x212C JUMP JUMPDEST SWAP1 POP DUP1 DUP4 DUP3 MSTORE PUSH1 0x20 DUP3 ADD SWAP1 POP PUSH1 0x20 DUP5 MUL DUP4 ADD DUP6 DUP2 GT ISZERO PUSH2 0x224F JUMPI PUSH2 0x224E PUSH2 0x16D4 JUMP JUMPDEST JUMPDEST DUP4 JUMPDEST DUP2 DUP2 LT ISZERO PUSH2 0x2296 JUMPI DUP1 CALLDATALOAD PUSH8 0xFFFFFFFFFFFFFFFF DUP2 GT ISZERO PUSH2 0x2274 JUMPI PUSH2 0x2273 PUSH2 0x16CA JUMP JUMPDEST JUMPDEST DUP1 DUP7 ADD PUSH2 0x2281 DUP10 DUP3 PUSH2 0x21EB JUMP JUMPDEST DUP6 MSTORE PUSH1 0x20 DUP6 ADD SWAP5 POP POP POP PUSH1 0x20 DUP2 ADD SWAP1 POP PUSH2 0x2251 JUMP JUMPDEST POP POP POP SWAP4 SWAP3 POP POP POP JUMP JUMPDEST PUSH1 0x0 PUSH2 0x22AD CALLDATASIZE DUP5 DUP5 PUSH2 0x2219 JUMP JUMPDEST SWAP1 POP SWAP3 SWAP2 POP POP JUMP JUMPDEST PUSH1 0x0 DUP2 MLOAD SWAP1 POP SWAP2 SWAP1 POP JUMP JUMPDEST PUSH1 0x0 DUP3 DUP3 MSTORE PUSH1 0x20 DUP3 ADD SWAP1 POP SWAP3 SWAP2 POP POP JUMP JUMPDEST PUSH1 0x0 PUSH2 0x22DC DUP3 PUSH2 0x22B5 JUMP JUMPDEST PUSH2 0x22E6 DUP2 DUP6 PUSH2 0x22C0 JUMP JUMPDEST SWAP4 POP PUSH2 0x22F6 DUP2 DUP6 PUSH1 0x20 DUP7 ADD PUSH2 0x184E JUMP JUMPDEST PUSH2 0x22FF DUP2 PUSH2 0x1878 JUMP JUMPDEST DUP5 ADD SWAP2 POP POP SWAP3 SWAP2 POP POP JUMP JUMPDEST PUSH1 0x0 PUSH1 0x20 DUP3 ADD SWAP1 POP DUP2 DUP2 SUB PUSH1 0x0 DUP4 ADD MSTORE PUSH2 0x2324 DUP2 DUP5 PUSH2 0x22D1 JUMP JUMPDEST SWAP1 POP SWAP3 SWAP2 POP POP JUMP JUMPDEST PUSH32 0x4E487B7100000000000000000000000000000000000000000000000000000000 PUSH1 0x0 MSTORE PUSH1 0x32 PUSH1 0x4 MSTORE PUSH1 0x24 PUSH1 0x0 REVERT JUMPDEST PUSH1 0x0 DUP1 REVERT JUMPDEST PUSH1 0x0 DUP1 REVERT JUMPDEST PUSH1 0x0 DUP1 REVERT JUMPDEST PUSH1 0x0 DUP1 DUP4 CALLDATALOAD PUSH1 0x1 PUSH1 0x20 SUB DUP5 CALLDATASIZE SUB SUB DUP2 SLT PUSH2 0x2387 JUMPI PUSH2 0x2386 PUSH2 0x235B JUMP JUMPDEST JUMPDEST DUP1 DUP5 ADD SWAP3 POP DUP3 CALLDATALOAD SWAP2 POP PUSH8 0xFFFFFFFFFFFFFFFF DUP3 GT ISZERO PUSH2 0x23A9 JUMPI PUSH2 0x23A8 PUSH2 0x2360 JUMP JUMPDEST JUMPDEST PUSH1 0x20 DUP4 ADD SWAP3 POP PUSH1 0x1 DUP3 MUL CALLDATASIZE SUB DUP4 SGT ISZERO PUSH2 0x23C5 JUMPI PUSH2 0x23C4 PUSH2 0x2365 JUMP JUMPDEST JUMPDEST POP SWAP3 POP SWAP3 SWAP1 POP JUMP JUMPDEST PUSH1 0x0 DUP2 SWAP1 POP SWAP3 SWAP2 POP POP JUMP JUMPDEST PUSH1 0x0 PUSH2 0x23E4 DUP4 DUP6 PUSH2 0x23CD JUMP JUMPDEST SWAP4 POP PUSH2 0x23F1 DUP4 DUP6 DUP5 PUSH2 0x1F1C JUMP JUMPDEST DUP3 DUP5 ADD SWAP1 POP SWAP4 SWAP3 POP POP POP JUMP JUMPDEST PUSH1 0x0 PUSH2 0x240A DUP3 DUP5 DUP7 PUSH2 0x23D8 JUMP JUMPDEST SWAP2 POP DUP2 SWAP1 POP SWAP4 SWAP3 POP POP POP JUMP JUMPDEST PUSH32 0x4E487B7100000000000000000000000000000000000000000000000000000000 PUSH1 0x0 MSTORE PUSH1 0x11 PUSH1 0x4 MSTORE PUSH1 0x24 PUSH1 0x0 REVERT JUMPDEST PUSH1 0x0 PUSH2 0x2450 DUP3 PUSH2 0x1696 JUMP JUMPDEST SWAP2 POP PUSH32 0xFFFFFFFFFFFFFFFFFFFFFFFFFFFFFFFFFFFFFFFFFFFFFFFFFFFFFFFFFFFFFFFF DUP3 SUB PUSH2 0x2482 JUMPI PUSH2 0x2481 PUSH2 0x2416 JUMP JUMPDEST JUMPDEST PUSH1 0x1 DUP3 ADD SWAP1 POP SWAP2 SWAP1 POP JUMP JUMPDEST PUSH1 0x0 DUP3 CALLDATALOAD PUSH1 0x1 PUSH1 0x80 SUB DUP4 CALLDATASIZE SUB SUB DUP2 SLT PUSH2 0x24A9 JUMPI PUSH2 0x24A8 PUSH2 0x235B JUMP JUMPDEST JUMPDEST DUP1 DUP4 ADD SWAP2 POP POP SWAP3 SWAP2 POP POP JUMP JUMPDEST PUSH1 0x0 DUP3 DUP3 MSTORE PUSH1 0x20 DUP3 ADD SWAP1 POP SWAP3 SWAP2 POP POP JUMP JUMPDEST PUSH1 0x0 DUP2 SWAP1 POP SWAP2 SWAP1 POP JUMP JUMPDEST PUSH1 0x0 PUSH2 0x24DC DUP4 DUP4 PUSH2 0x1E75 JUMP JUMPDEST PUSH1 0x20 DUP4 ADD SWAP1 POP SWAP3 SWAP2 POP POP JUMP JUMPDEST PUSH1 0x0 PUSH1 0x20 DUP3 ADD SWAP1 POP SWAP2 SWAP1 POP JUMP JUMPDEST PUSH1 0x0 PUSH2 0x2501 DUP4 DUP6 PUSH2 0x24B5 JUMP JUMPDEST SWAP4 POP PUSH2 0x250C DUP3 PUSH2 0x24C6 JUMP JUMPDEST DUP1 PUSH1 0x0 JUMPDEST DUP6 DUP2 LT ISZERO PUSH2 0x2545 JUMPI PUSH2 0x2522 DUP3 DUP5 PUSH2 0x1E5E JUMP JUMPDEST PUSH2 0x252C DUP9 DUP3 PUSH2 0x24D0 JUMP JUMPDEST SWAP8 POP PUSH2 0x2537 DUP4 PUSH2 0x24E8 JUMP JUMPDEST SWAP3 POP POP PUSH1 0x1 DUP2 ADD SWAP1 POP PUSH2 0x2510 JUMP JUMPDEST POP DUP6 SWAP3 POP POP POP SWAP4 SWAP3 POP POP POP JUMP JUMPDEST PUSH1 0x0 PUSH1 0x60 DUP3 ADD SWAP1 POP DUP2 DUP2 SUB PUSH1 0x0 DUP4 ADD MSTORE PUSH2 0x256D DUP2 DUP7 DUP9 PUSH2 0x24F5 JUMP JUMPDEST SWAP1 POP PUSH2 0x257C PUSH1 0x20 DUP4 ADD DUP6 PUSH2 0x16A0 JUMP JUMPDEST PUSH2 0x2589 PUSH1 0x40 DUP4 ADD DUP5 PUSH2 0x16A0 JUMP JUMPDEST SWAP6 SWAP5 POP POP POP POP POP JUMP JUMPDEST PUSH1 0x0 PUSH1 0x60 DUP3 ADD SWAP1 POP PUSH2 0x25A7 PUSH1 0x0 DUP4 ADD DUP7 PUSH2 0x16A0 JUMP JUMPDEST PUSH2 0x25B4 PUSH1 0x20 DUP4 ADD DUP6 PUSH2 0x16A0 JUMP JUMPDEST PUSH2 0x25C1 PUSH1 0x40 DUP4 ADD DUP5 PUSH2 0x16A0 JUMP JUMPDEST SWAP5 SWAP4 POP POP POP POP JUMP JUMPDEST PUSH32 0x496E76616C6964207468726573686F6C64000000000000000000000000000000 PUSH1 0x0 DUP3 ADD MSTORE POP JUMP JUMPDEST PUSH1 0x0 PUSH2 0x25FF PUSH1 0x11 DUP4 PUSH2 0x22C0 JUMP JUMPDEST SWAP2 POP PUSH2 0x260A DUP3 PUSH2 0x25C9 JUMP JUMPDEST PUSH1 0x20 DUP3 ADD SWAP1 POP SWAP2 SWAP1 POP JUMP JUMPDEST PUSH1 0x0 PUSH1 0x20 DUP3 ADD SWAP1 POP DUP2 DUP2 SUB PUSH1 0x0 DUP4 ADD MSTORE PUSH2 0x262E DUP2 PUSH2 0x25F2 JUMP JUMPDEST SWAP1 POP SWAP2 SWAP1 POP JUMP JUMPDEST PUSH1 0x0 PUSH1 0x80 DUP4 ADD PUSH2 0x2648 PUSH1 0x0 DUP5 ADD DUP5 PUSH2 0x1E5E JUMP JUMPDEST PUSH2 0x2655 PUSH1 0x0 DUP7 ADD DUP3 PUSH2 0x1E75 JUMP JUMPDEST POP PUSH2 0x2663 PUSH1 0x20 DUP5 ADD DUP5 PUSH2 0x1E84 JUMP JUMPDEST PUSH2 0x2670 PUSH1 0x20 DUP7 ADD DUP3 PUSH2 0x1E9B JUMP JUMPDEST POP PUSH2 0x267E PUSH1 0x40 DUP5 ADD DUP5 PUSH2 0x1E84 JUMP JUMPDEST PUSH2 0x268B PUSH1 0x40 DUP7 ADD DUP3 PUSH2 0x1E9B JUMP JUMPDEST POP PUSH2 0x2699 PUSH1 0x60 DUP5 ADD DUP5 PUSH2 0x1EB9 JUMP JUMPDEST DUP6 DUP4 SUB PUSH1 0x60 DUP8 ADD MSTORE PUSH2 0x26AC DUP4 DUP3 DUP5 PUSH2 0x1F2B JUMP JUMPDEST SWAP3 POP POP POP DUP1 SWAP2 POP POP SWAP3 SWAP2 POP POP JUMP JUMPDEST PUSH1 0x0 PUSH1 0x40 DUP3 ADD SWAP1 POP DUP2 DUP2 SUB PUSH1 0x0 DUP4 ADD MSTORE PUSH2 0x26D4 DUP2 DUP6 PUSH2 0x2635 JUMP JUMPDEST SWAP1 POP PUSH2 0x26E3 PUSH1 0x20 DUP4 ADD DUP5 PUSH2 0x16A0 JUMP JUMPDEST SWAP4 SWAP3 POP POP POP JUMP JUMPDEST PUSH1 0x0 DUP3 DUP3 MSTORE PUSH1 0x20 DUP3 ADD SWAP1 POP SWAP3 SWAP2 POP POP JUMP JUMPDEST PUSH1 0x0 DUP1 REVERT JUMPDEST DUP3 DUP2 DUP4 CALLDATACOPY POP POP POP JUMP JUMPDEST PUSH1 0x0 PUSH2 0x2715 DUP4 DUP6 PUSH2 0x26EA JUMP JUMPDEST SWAP4 POP PUSH32 0x7FFFFFFFFFFFFFFFFFFFFFFFFFFFFFFFFFFFFFFFFFFFFFFFFFFFFFFFFFFFFFF DUP4 GT ISZERO PUSH2 0x2748 JUMPI PUSH2 0x2747 PUSH2 0x26FB JUMP JUMPDEST JUMPDEST PUSH1 0x20 DUP4 MUL SWAP3 POP PUSH2 0x2759 DUP4 DUP6 DUP5 PUSH2 0x2700 JUMP JUMPDEST DUP3 DUP5 ADD SWAP1 POP SWAP4 SWAP3 POP POP POP JUMP JUMPDEST PUSH1 0x0 PUSH1 0x80 DUP3 ADD SWAP1 POP DUP2 DUP2 SUB PUSH1 0x0 DUP4 ADD MSTORE PUSH2 0x2780 DUP2 DUP9 DUP11 PUSH2 0x24F5 JUMP JUMPDEST SWAP1 POP DUP2 DUP2 SUB PUSH1 0x20 DUP4 ADD MSTORE PUSH2 0x2795 DUP2 DUP7 DUP9 PUSH2 0x2709 JUMP JUMPDEST SWAP1 POP PUSH2 0x27A4 PUSH1 0x40 DUP4 ADD DUP6 PUSH2 0x16A0 JUMP JUMPDEST PUSH2 0x27B1 PUSH1 0x60 DUP4 ADD DUP5 PUSH2 0x16A0 JUMP JUMPDEST SWAP8 SWAP7 POP POP POP POP POP POP POP JUMP JUMPDEST PUSH2 0x27C5 DUP2 PUSH2 0x1D50 JUMP JUMPDEST DUP3 MSTORE POP POP JUMP JUMPDEST PUSH1 0x0 PUSH1 0x80 DUP3 ADD SWAP1 POP PUSH2 0x27E0 PUSH1 0x0 DUP4 ADD DUP8 PUSH2 0x27BC JUMP JUMPDEST PUSH2 0x27ED PUSH1 0x20 DUP4 ADD DUP7 PUSH2 0x16A0 JUMP JUMPDEST PUSH2 0x27FA PUSH1 0x40 DUP4 ADD DUP6 PUSH2 0x16A0 JUMP JUMPDEST PUSH2 0x2807 PUSH1 0x60 DUP4 ADD DUP5 PUSH2 0x16A0 JUMP JUMPDEST SWAP6 SWAP5 POP POP POP POP POP JUMP JUMPDEST PUSH1 0x0 PUSH2 0x281B DUP3 PUSH2 0x1696 JUMP JUMPDEST SWAP2 POP PUSH2 0x2826 DUP4 PUSH2 0x1696 JUMP JUMPDEST SWAP3 POP DUP3 DUP3 SUB SWAP1 POP DUP2 DUP2 GT ISZERO PUSH2 0x283E JUMPI PUSH2 0x283D PUSH2 0x2416 JUMP JUMPDEST JUMPDEST SWAP3 SWAP2 POP POP JUMP JUMPDEST PUSH1 0x0 PUSH2 0x284F DUP3 PUSH2 0x1696 JUMP JUMPDEST SWAP2 POP PUSH2 0x285A DUP4 PUSH2 0x1696 JUMP JUMPDEST SWAP3 POP DUP3 DUP3 ADD SWAP1 POP DUP1 DUP3 GT ISZERO PUSH2 0x2872 JUMPI PUSH2 0x2871 PUSH2 0x2416 JUMP JUMPDEST JUMPDEST SWAP3 SWAP2 POP POP JUMP JUMPDEST PUSH32 0x5468726573686F6C6420776F756C6420626520696D706F737369626C65000000 PUSH1 0x0 DUP3 ADD MSTORE POP JUMP JUMPDEST PUSH1 0x0 PUSH2 0x28AE PUSH1 0x1D DUP4 PUSH2 0x22C0 JUMP JUMPDEST SWAP2 POP PUSH2 0x28B9 DUP3 PUSH2 0x2878 JUMP JUMPDEST PUSH1 0x20 DUP3 ADD SWAP1 POP SWAP2 SWAP1 POP JUMP JUMPDEST PUSH1 0x0 PUSH1 0x20 DUP3 ADD SWAP1 POP DUP2 DUP2 SUB PUSH1 0x0 DUP4 ADD MSTORE PUSH2 0x28DD DUP2 PUSH2 0x28A1 JUMP JUMPDEST SWAP1 POP SWAP2 SWAP1 POP JUMP JUMPDEST PUSH1 0x0 DUP2 SWAP1 POP SWAP3 SWAP2 POP POP JUMP JUMPDEST PUSH32 0x19457468657265756D205369676E6564204D6573736167653A0A333200000000 PUSH1 0x0 DUP3 ADD MSTORE POP JUMP JUMPDEST PUSH1 0x0 PUSH2 0x2925 PUSH1 0x1C DUP4 PUSH2 0x28E4 JUMP JUMPDEST SWAP2 POP PUSH2 0x2930 DUP3 PUSH2 0x28EF JUMP JUMPDEST PUSH1 0x1C DUP3 ADD SWAP1 POP SWAP2 SWAP1 POP JUMP JUMPDEST PUSH1 0x0 DUP2 SWAP1 POP SWAP2 SWAP1 POP JUMP JUMPDEST PUSH1 0x0 DUP2 SWAP1 POP SWAP2 SWAP1 POP JUMP JUMPDEST PUSH2 0x2960 PUSH2 0x295B DUP3 PUSH2 0x293B JUMP JUMPDEST PUSH2 0x2945 JUMP JUMPDEST DUP3 MSTORE POP POP JUMP JUMPDEST PUSH1 0x0 PUSH2 0x2971 DUP3 PUSH2 0x2918 JUMP JUMPDEST SWAP2 POP PUSH2 0x297D DUP3 DUP5 PUSH2 0x294F JUMP JUMPDEST PUSH1 0x20 DUP3 ADD SWAP2 POP DUP2 SWAP1 POP SWAP3 SWAP2 POP POP JUMP JUMPDEST PUSH32 0x4E487B7100000000000000000000000000000000000000000000000000000000 PUSH1 0x0 MSTORE PUSH1 0x21 PUSH1 0x4 MSTORE PUSH1 0x24 PUSH1 0x0 REVERT JUMPDEST PUSH32 0x45434453413A20696E76616C6964207369676E61747572650000000000000000 PUSH1 0x0 DUP3 ADD MSTORE POP JUMP JUMPDEST PUSH1 0x0 PUSH2 0x29F1 PUSH1 0x18 DUP4 PUSH2 0x22C0 JUMP JUMPDEST SWAP2 POP PUSH2 0x29FC DUP3 PUSH2 0x29BB JUMP JUMPDEST PUSH1 0x20 DUP3 ADD SWAP1 POP SWAP2 SWAP1 POP JUMP JUMPDEST PUSH1 0x0 PUSH1 0x20 DUP3 ADD SWAP1 POP DUP2 DUP2 SUB PUSH1 0x0 DUP4 ADD MSTORE PUSH2 0x2A20 DUP2 PUSH2 0x29E4 JUMP JUMPDEST SWAP1 POP SWAP2 SWAP1 POP JUMP JUMPDEST PUSH32 0x45434453413A20696E76616C6964207369676E6174757265206C656E67746800 PUSH1 0x0 DUP3 ADD MSTORE POP JUMP JUMPDEST PUSH1 0x0 PUSH2 0x2A5D PUSH1 0x1F DUP4 PUSH2 0x22C0 JUMP JUMPDEST SWAP2 POP PUSH2 0x2A68 DUP3 PUSH2 0x2A27 JUMP JUMPDEST PUSH1 0x20 DUP3 ADD SWAP1 POP SWAP2 SWAP1 POP JUMP JUMPDEST PUSH1 0x0 PUSH1 0x20 DUP3 ADD SWAP1 POP DUP2 DUP2 SUB PUSH1 0x0 DUP4 ADD MSTORE PUSH2 0x2A8C DUP2 PUSH2 0x2A50 JUMP JUMPDEST SWAP1 POP SWAP2 SWAP1 POP JUMP JUMPDEST PUSH32 0x45434453413A20696E76616C6964207369676E6174757265202773272076616C PUSH1 0x0 DUP3 ADD MSTORE PUSH32 0x7565000000000000000000000000000000000000000000000000000000000000 PUSH1 0x20 DUP3 ADD MSTORE POP JUMP JUMPDEST PUSH1 0x0 PUSH2 0x2AEF PUSH1 0x22 DUP4 PUSH2 0x22C0 JUMP JUMPDEST SWAP2 POP PUSH2 0x2AFA DUP3 PUSH2 0x2A93 JUMP JUMPDEST PUSH1 0x40 DUP3 ADD SWAP1 POP SWAP2 SWAP1 POP JUMP JUMPDEST PUSH1 0x0 PUSH1 0x20 DUP3 ADD SWAP1 POP DUP2 DUP2 SUB PUSH1 0x0 DUP4 ADD MSTORE PUSH2 0x2B1E DUP2 PUSH2 0x2AE2 JUMP JUMPDEST SWAP1 POP SWAP2 SWAP1 POP JUMP JUMPDEST PUSH2 0x2B2E DUP2 PUSH2 0x293B JUMP JUMPDEST DUP3 MSTORE POP POP JUMP JUMPDEST PUSH1 0x0 PUSH1 0xFF DUP3 AND SWAP1 POP SWAP2 SWAP1 POP JUMP JUMPDEST PUSH2 0x2B4A DUP2 PUSH2 0x2B34 JUMP JUMPDEST DUP3 MSTORE POP POP JUMP JUMPDEST PUSH1 0x0 PUSH1 0x80 DUP3 ADD SWAP1 POP PUSH2 0x2B65 PUSH1 0x0 DUP4 ADD DUP8 PUSH2 0x2B25 JUMP JUMPDEST PUSH2 0x2B72 PUSH1 0x20 DUP4 ADD DUP7 PUSH2 0x2B41 JUMP JUMPDEST PUSH2 0x2B7F PUSH1 0x40 DUP4 ADD DUP6 PUSH2 0x2B25 JUMP JUMPDEST PUSH2 0x2B8C PUSH1 0x60 DUP4 ADD DUP5 PUSH2 0x2B25 JUMP JUMPDEST SWAP6 SWAP5 POP POP POP POP POP JUMP INVALID MSTORE8 PUSH10 0x676E6572207765696768 PUSH21 0x7320646F6573206E6F74206D656574207468726573 PUSH9 0x6F6C644174206C6561 PUSH20 0x74206F6E65207369676E6174757265206E6F7420 PUSH7 0x726F6D2061206B PUSH15 0x6F776E20636F6E74726F6C6C657241 PUSH21 0x206C65617374206F6E65207369676E617475726520 PUSH2 0x6C72 PUSH6 0x616479207573 PUSH6 0x64A264697066 PUSH20 0x582212201CDDF2F5D55FE3CDAABFB3F0E87F5969 0xD9 0xE4 SWAP4 0xD6 0xDD PUSH13 0xB13BD419D57393F2327864736F PUSH13 0x63430008120033000000000000 "
		},
		"gasEstimates": {
			"creation": {
				"codeDepositCost": "2266800",
				"executionCost": "2427",
				"totalCost": "2269227"
			},
			"external": {
				"addControllers(address[],uint256[],uint256,bytes[])": "infinite",
				"controlThreshold()": "2513",
				"controllerWeight(address)": "2983",
				"controllersTotalWeight()": "2514",
				"execute((address,uint256,uint256,bytes),bytes[])": "infinite",
				"multiExecute((address,uint256,uint256,bytes)[],bytes[])": "infinite",
				"removeControllers(address[],uint256,bytes[])": "infinite",
				"supportsInterface(bytes4)": "809",
				"updateControlThreshold(uint256,uint256,bytes[])": "infinite",
				"updateControllerWeight(address,uint256,uint256,bytes[])": "infinite"
			},
			"internal": {
				"_call(struct CallsStructs.ExecuteRequest calldata)": "infinite"
			}
		},
		"methodIdentifiers": {
			"addControllers(address[],uint256[],uint256,bytes[])": "af915498",
			"controlThreshold()": "a7865090",
			"controllerWeight(address)": "f04420f1",
			"controllersTotalWeight()": "06e82383",
			"execute((address,uint256,uint256,bytes),bytes[])": "a3e8d51e",
			"multiExecute((address,uint256,uint256,bytes)[],bytes[])": "0d992b2b",
			"removeControllers(address[],uint256,bytes[])": "286936bb",
			"supportsInterface(bytes4)": "01ffc9a7",
			"updateControlThreshold(uint256,uint256,bytes[])": "87f949b4",
			"updateControllerWeight(address,uint256,uint256,bytes[])": "d0bccea1"
		}
	},
	"abi": [
		{
			"inputs": [
				{
					"internalType": "address[]",
					"name": "_controllers",
					"type": "address[]"
				},
				{
					"internalType": "uint256[]",
					"name": "_weights",
					"type": "uint256[]"
				},
				{
					"internalType": "uint256",
					"name": "_nonce",
					"type": "uint256"
				},
				{
					"internalType": "bytes[]",
					"name": "_signatures",
					"type": "bytes[]"
				}
			],
			"name": "addControllers",
			"outputs": [],
			"stateMutability": "nonpayable",
			"type": "function"
		},
		{
			"inputs": [],
			"name": "controlThreshold",
			"outputs": [
				{
					"internalType": "uint256",
					"name": "",
					"type": "uint256"
				}
			],
			"stateMutability": "view",
			"type": "function"
		},
		{
			"inputs": [
				{
					"internalType": "address",
					"name": "_controller",
					"type": "address"
				}
			],
			"name": "controllerWeight",
			"outputs": [
				{
					"internalType": "uint256",
					"name": "",
					"type": "uint256"
				}
			],
			"stateMutability": "view",
			"type": "function"
		},
		{
			"inputs": [],
			"name": "controllersTotalWeight",
			"outputs": [
				{
					"internalType": "uint256",
					"name": "",
					"type": "uint256"
				}
			],
			"stateMutability": "view",
			"type": "function"
		},
		{
			"inputs": [
				{
					"components": [
						{
							"internalType": "address",
							"name": "target",
							"type": "address"
						},
						{
							"internalType": "uint256",
							"name": "value",
							"type": "uint256"
						},
						{
							"internalType": "uint256",
							"name": "nonce",
							"type": "uint256"
						},
						{
							"internalType": "bytes",
							"name": "data",
							"type": "bytes"
						}
					],
					"internalType": "struct CallsStructs.ExecuteRequest",
					"name": "_executeRequest",
					"type": "tuple"
				},
				{
					"internalType": "bytes[]",
					"name": "_signatures",
					"type": "bytes[]"
				}
			],
			"name": "execute",
			"outputs": [
				{
					"internalType": "bytes",
					"name": "",
					"type": "bytes"
				}
			],
			"stateMutability": "nonpayable",
			"type": "function"
		},
		{
			"inputs": [
				{
					"components": [
						{
							"internalType": "address",
							"name": "target",
							"type": "address"
						},
						{
							"internalType": "uint256",
							"name": "value",
							"type": "uint256"
						},
						{
							"internalType": "uint256",
							"name": "nonce",
							"type": "uint256"
						},
						{
							"internalType": "bytes",
							"name": "data",
							"type": "bytes"
						}
					],
					"internalType": "struct CallsStructs.ExecuteRequest[]",
					"name": "_executeRequests",
					"type": "tuple[]"
				},
				{
					"internalType": "bytes[]",
					"name": "_signatures",
					"type": "bytes[]"
				}
			],
			"name": "multiExecute",
			"outputs": [
				{
					"internalType": "bytes[]",
					"name": "",
					"type": "bytes[]"
				}
			],
			"stateMutability": "nonpayable",
			"type": "function"
		},
		{
			"inputs": [
				{
					"internalType": "address[]",
					"name": "_controllers",
					"type": "address[]"
				},
				{
					"internalType": "uint256",
					"name": "_nonce",
					"type": "uint256"
				},
				{
					"internalType": "bytes[]",
					"name": "_signatures",
					"type": "bytes[]"
				}
			],
			"name": "removeControllers",
			"outputs": [],
			"stateMutability": "nonpayable",
			"type": "function"
		},
		{
			"inputs": [
				{
					"internalType": "bytes4",
					"name": "interfaceId",
					"type": "bytes4"
				}
			],
			"name": "supportsInterface",
			"outputs": [
				{
					"internalType": "bool",
					"name": "",
					"type": "bool"
				}
			],
			"stateMutability": "view",
			"type": "function"
		},
		{
			"inputs": [
				{
					"internalType": "uint256",
					"name": "_threshold",
					"type": "uint256"
				},
				{
					"internalType": "uint256",
					"name": "_nonce",
					"type": "uint256"
				},
				{
					"internalType": "bytes[]",
					"name": "_signatures",
					"type": "bytes[]"
				}
			],
			"name": "updateControlThreshold",
			"outputs": [],
			"stateMutability": "nonpayable",
			"type": "function"
		},
		{
			"inputs": [
				{
					"internalType": "address",
					"name": "_controller",
					"type": "address"
				},
				{
					"internalType": "uint256",
					"name": "_weight",
					"type": "uint256"
				},
				{
					"internalType": "uint256",
					"name": "_nonce",
					"type": "uint256"
				},
				{
					"internalType": "bytes[]",
					"name": "_signatures",
					"type": "bytes[]"
				}
			],
			"name": "updateControllerWeight",
			"outputs": [],
			"stateMutability": "nonpayable",
			"type": "function"
		}
	]
}