{
	"data": {
		"bytecode": {
			"linkReferences": {},
			"object": "608060405234801561001057600080fd5b50615345806100206000396000f3fe6080604052600436106101445760003560e01c806387f949b4116100b6578063c4d66de81161006f578063c4d66de8146104af578063d0bccea1146104d8578063e57db71e14610501578063f04420f11461053e578063f23a6e611461057b578063fec5c09a146105b85761014b565b806387f949b41461038f57806394c4395b146103b8578063a3e8d51e146103e1578063a78650901461041e578063af91549814610449578063bc197c81146104725761014b565b80631ab08563116101085780631ab085631461026f57806320c13b0b14610298578063286936bb146102d55780632a365cbd146102fe578063524886d21461032757806354fd4d50146103645761014b565b806301ffc9a71461015057806306e823831461018d5780630d992b2b146101b8578063150b7a02146101f55780631626ba7e146102325761014b565b3661014b57005b600080fd5b34801561015c57600080fd5b5061017760048036038101906101729190612a80565b6105e3565b6040516101849190612ac8565b60405180910390f35b34801561019957600080fd5b506101a26105f5565b6040516101af9190612afc565b60405180910390f35b3480156101c457600080fd5b506101df60048036038101906101da9190612bd2565b610608565b6040516101ec9190612da5565b60405180910390f35b34801561020157600080fd5b5061021c60048036038101906102179190612ea7565b6107fc565b6040516102299190612f3e565b60405180910390f35b34801561023e57600080fd5b5061025960048036038101906102549190612f8f565b610811565b6040516102669190612f3e565b60405180910390f35b34801561027b57600080fd5b5061029660048036038101906102919190613013565b610841565b005b3480156102a457600080fd5b506102bf60048036038101906102ba91906130a3565b610a69565b6040516102cc9190612f3e565b60405180910390f35b3480156102e157600080fd5b506102fc60048036038101906102f7919061317a565b610ab1565b005b34801561030a57600080fd5b506103256004803603810190610320919061322e565b610c30565b005b34801561033357600080fd5b5061034e600480360381019061034991906132d3565b610e48565b60405161035b9190612da5565b60405180910390f35b34801561037057600080fd5b50610379610f16565b6040516103869190613375565b60405180910390f35b34801561039b57600080fd5b506103b660048036038101906103b19190613397565b610f4f565b005b3480156103c457600080fd5b506103df60048036038101906103da919061340b565b6110f9565b005b3480156103ed57600080fd5b506104086004803603810190610403919061349e565b6112d4565b6040516104159190613564565b60405180910390f35b34801561042a57600080fd5b5061043361140a565b6040516104409190612afc565b60405180910390f35b34801561045557600080fd5b50610470600480360381019061046b91906135dc565b61141d565b005b34801561047e57600080fd5b50610499600480360381019061049491906136a5565b6115bc565b6040516104a69190612f3e565b60405180910390f35b3480156104bb57600080fd5b506104d660048036038101906104d19190613781565b6115d4565b005b3480156104e457600080fd5b506104ff60048036038101906104fa91906137ae565b61165f565b005b34801561050d57600080fd5b5061052860048036038101906105239190613836565b6118c2565b6040516105359190613564565b60405180910390f35b34801561054a57600080fd5b5061056560048036038101906105609190613781565b611bc1565b6040516105729190612afc565b60405180910390f35b34801561058757600080fd5b506105a2600480360381019061059d919061387f565b611c13565b6040516105af9190612f3e565b60405180910390f35b3480156105c457600080fd5b506105cd611c29565b6040516105da9190612ac8565b60405180910390f35b60006105ee82611c32565b9050919050565b60006105ff611cb3565b60010154905090565b606084844660405160200161061f93929190613b70565b6040516020818303038152906040528051906020012083836000806106508585859061064b9190613d76565b611ce0565b91509150818190610697576040517f08c379a000000000000000000000000000000000000000000000000000000000815260040161068e9190613375565b60405180910390fd5b5060005b848490508110156107285760016106b0611cb3565b60030160008787858181106106c8576106c7613d8b565b5b90506020028101906106da9190613dc9565b6040516106e8929190613e5c565b6040518091039020815260200190815260200160002060006101000a81548160ff021916908315150217905550808061072090613ea4565b91505061069b565b5060008a8a905067ffffffffffffffff81111561074857610747613ba2565b5b60405190808252806020026020018201604052801561077b57816020015b60608152602001906001900390816107665790505b50905060005b8b8b90508110156107ea576107b98c8c838181106107a2576107a1613d8b565b5b90506020028101906107b49190613eec565b611ed0565b8282815181106107cc576107cb613d8b565b5b602002602001018190525080806107e290613ea4565b915050610781565b50809650505050505050949350505050565b600063150b7a0260e01b905095945050505050565b600061081e848484611f7f565b1561083257631626ba7e60e01b905061083a565b600060e01b90505b9392505050565b83834660405160200161085693929190613f99565b604051602081830303815290604052805190602001208282600080610887858585906108829190613d76565b611ce0565b915091508181906108ce576040517f08c379a00000000000000000000000000000000000000000000000000000000081526004016108c59190613375565b60405180910390fd5b5060005b8484905081101561095f5760016108e7611cb3565b60030160008787858181106108ff576108fe613d8b565b5b90506020028101906109119190613dc9565b60405161091f929190613e5c565b6040518091039020815260200190815260200160002060006101000a81548160ff021916908315150217905550808061095790613ea4565b9150506108d2565b50610968612103565b60000160008a60000160208101906109809190613781565b8b60200160208101906109939190613781565b8c604001358d80606001906109a89190613dc9565b6040516020016109bc959493929190614013565b604051602081830303815290604052805190602001208152602001908152602001600020600080820160006101000a81549067ffffffffffffffff02191690556000820160086101000a81549067ffffffffffffffff02191690556000820160106101000a81549063ffffffff02191690556000820160146101000a81549063ffffffff02191690556000820160186101000a81549063ffffffff02191690555050505050505050505050565b6000610a8d8585604051610a7e929190613e5c565b60405180910390208484611f7f565b15610aa1576320c13b0b60e01b9050610aa9565b600060e01b90505b949350505050565b84848446604051602001610ac894939291906140fe565b604051602081830303815290604052805190602001208282600080610af985858590610af49190613d76565b611ce0565b91509150818190610b40576040517f08c379a0000000000000000000000000000000000000000000000000000000008152600401610b379190613375565b60405180910390fd5b5060005b84849050811015610bd1576001610b59611cb3565b6003016000878785818110610b7157610b70613d8b565b5b9050602002810190610b839190613dc9565b604051610b91929190613e5c565b6040518091039020815260200190815260200160002060006101000a81548160ff0219169083151502179055508080610bc990613ea4565b915050610b44565b5060005b8a8a9050811015610c2357610c108b8b83818110610bf657610bf5613d8b565b5b9050602002016020810190610c0b9190613781565b612130565b8080610c1b90613ea4565b915050610bd5565b5050505050505050505050565b84848446604051602001610c479493929190614296565b604051602081830303815290604052805190602001208282600080610c7885858590610c739190613d76565b611ce0565b91509150818190610cbf576040517f08c379a0000000000000000000000000000000000000000000000000000000008152600401610cb69190613375565b60405180910390fd5b5060005b84849050811015610d50576001610cd8611cb3565b6003016000878785818110610cf057610cef613d8b565b5b9050602002810190610d029190613dc9565b604051610d10929190613e5c565b6040518091039020815260200190815260200160002060006101000a81548160ff0219169083151502179055508080610d4890613ea4565b915050610cc3565b506000896080016020810190610d6691906142e3565b63ffffffff1611610dac576040517f08c379a0000000000000000000000000000000000000000000000000000000008152600401610da390614382565b60405180910390fd5b88610db5612103565b60000160008c6000016020810190610dcd9190613781565b8d6020016020810190610de09190613781565b8e604001358f8060600190610df59190613dc9565b604051602001610e09959493929190614013565b6040516020818303038152906040528051906020012081526020019081526020016000208181610e3991906146d3565b90505050505050505050505050565b606060008383905067ffffffffffffffff811115610e6957610e68613ba2565b5b604051908082528060200260200182016040528015610e9c57816020015b6060815260200190600190039081610e875790505b50905060005b84849050811015610f0b57610eda858583818110610ec357610ec2613d8b565b5b9050602002810190610ed59190613eec565b6118c2565b828281518110610eed57610eec613d8b565b5b60200260200101819052508080610f0390613ea4565b915050610ea2565b508091505092915050565b6040518060400160405280600b81526020017f616c7068612d312e302e3000000000000000000000000000000000000000000081525081565b838346604051602001610f64939291906146e1565b604051602081830303815290604052805190602001208282600080610f9585858590610f909190613d76565b611ce0565b91509150818190610fdc576040517f08c379a0000000000000000000000000000000000000000000000000000000008152600401610fd39190613375565b60405180910390fd5b5060005b8484905081101561106d576001610ff5611cb3565b600301600087878581811061100d5761100c613d8b565b5b905060200281019061101f9190613dc9565b60405161102d929190613e5c565b6040518091039020815260200190815260200160002060006101000a81548160ff021916908315150217905550808061106590613ea4565b915050610fe0565b506000611078611cb3565b6000015411801561109f575061108c611cb3565b60010154611098611cb3565b6000015411155b6110de576040517f08c379a00000000000000000000000000000000000000000000000000000000081526004016110d590614764565b60405180910390fd5b886110e7611cb3565b60000181905550505050505050505050565b83834660405160200161110e93929190614784565b60405160208183030381529060405280519060200120828260008061113f8585859061113a9190613d76565b611ce0565b91509150818190611186576040517f08c379a000000000000000000000000000000000000000000000000000000000815260040161117d9190613375565b60405180910390fd5b5060005b8484905081101561121757600161119f611cb3565b60030160008787858181106111b7576111b6613d8b565b5b90506020028101906111c99190613dc9565b6040516111d7929190613e5c565b6040518091039020815260200190815260200160002060006101000a81548160ff021916908315150217905550808061120f90613ea4565b91505061118a565b508873ffffffffffffffffffffffffffffffffffffffff1663fec5c09a6040518163ffffffff1660e01b8152600401602060405180830381865afa158015611263573d6000803e3d6000fd5b505050506040513d601f19601f8201168201806040525081019061128791906147e7565b6112c6576040517f08c379a00000000000000000000000000000000000000000000000000000000081526004016112bd90614860565b60405180910390fd5b883055505050505050505050565b606083466040516020016112e9929190614905565b60405160208183030381529060405280519060200120838360008061131a858585906113159190613d76565b611ce0565b91509150818190611361576040517f08c379a00000000000000000000000000000000000000000000000000000000081526004016113589190613375565b60405180910390fd5b5060005b848490508110156113f257600161137a611cb3565b600301600087878581811061139257611391613d8b565b5b90506020028101906113a49190613dc9565b6040516113b2929190613e5c565b6040518091039020815260200190815260200160002060006101000a81548160ff02191690831515021790555080806113ea90613ea4565b915050611365565b506113fc89611ed0565b955050505050509392505050565b6000611414611cb3565b60000154905090565b868686868646604051602001611438969594939291906149b0565b604051602081830303815290604052805190602001208282600080611469858585906114649190613d76565b611ce0565b915091508181906114b0576040517f08c379a00000000000000000000000000000000000000000000000000000000081526004016114a79190613375565b60405180910390fd5b5060005b848490508110156115415760016114c9611cb3565b60030160008787858181106114e1576114e0613d8b565b5b90506020028101906114f39190613dc9565b604051611501929190613e5c565b6040518091039020815260200190815260200160002060006101000a81548160ff021916908315150217905550808061153990613ea4565b9150506114b4565b5060005b8c8c90508110156115ad5761159a8d8d8381811061156657611565613d8b565b5b905060200201602081019061157b9190613781565b8c8c8481811061158e5761158d613d8b565b5b9050602002013561225b565b80806115a590613ea4565b915050611545565b50505050505050505050505050565b600063bc197c8160e01b905098975050505050505050565b6115dc6122ce565b60000160009054906101000a900460ff161561162d576040517f08c379a000000000000000000000000000000000000000000000000000000000815260040161162490614a53565b60405180910390fd5b61163881600161225b565b60016116426122ce565b60000160006101000a81548160ff02191690831515021790555050565b848484466040516020016116769493929190614a73565b6040516020818303038152906040528051906020012082826000806116a7858585906116a29190613d76565b611ce0565b915091508181906116ee576040517f08c379a00000000000000000000000000000000000000000000000000000000081526004016116e59190613375565b60405180910390fd5b5060005b8484905081101561177f576001611707611cb3565b600301600087878581811061171f5761171e613d8b565b5b90506020028101906117319190613dc9565b60405161173f929190613e5c565b6040518091039020815260200190815260200160002060006101000a81548160ff021916908315150217905550808061177790613ea4565b9150506116f2565b5088611789611cb3565b60020160008c73ffffffffffffffffffffffffffffffffffffffff1673ffffffffffffffffffffffffffffffffffffffff168152602001908152602001600020546117d2611cb3565b600101546117e09190614ab8565b6117ea9190614aec565b6117f2611cb3565b600101819055506000611803611cb3565b6001015411801561182a5750611817611cb3565b60000154611823611cb3565b6001015410155b611869576040517f08c379a000000000000000000000000000000000000000000000000000000000815260040161186090614b6c565b60405180910390fd5b88611872611cb3565b60020160008c73ffffffffffffffffffffffffffffffffffffffff1673ffffffffffffffffffffffffffffffffffffffff1681526020019081526020016000208190555050505050505050505050565b606060006118d033846122fb565b905060008160000160189054906101000a900463ffffffff1663ffffffff1603611902576118ff6000846122fb565b90505b60008160000160189054906101000a900463ffffffff1663ffffffff161161195f576040517f08c379a000000000000000000000000000000000000000000000000000000000815260040161195690614bd8565b60405180910390fd5b60008160000160009054906101000a900467ffffffffffffffff1667ffffffffffffffff1614806119b257508060000160009054906101000a900467ffffffffffffffff1667ffffffffffffffff164210155b6119f1576040517f08c379a00000000000000000000000000000000000000000000000000000000081526004016119e890614c44565b60405180910390fd5b60008160000160089054906101000a900467ffffffffffffffff1667ffffffffffffffff161480611a3c575060008160000160109054906101000a900463ffffffff1663ffffffff16145b80611a8e57508060000160109054906101000a900463ffffffff1663ffffffff168160000160089054906101000a900467ffffffffffffffff16611a809190614c64565b67ffffffffffffffff164210155b611acd576040517f08c379a0000000000000000000000000000000000000000000000000000000008152600401611ac490614cec565b60405180910390fd5b8060000160189054906101000a900463ffffffff1663ffffffff168160000160149054906101000a900463ffffffff1663ffffffff1610611b43576040517f08c379a0000000000000000000000000000000000000000000000000000000008152600401611b3a90614d58565b60405180910390fd5b60018160000160148282829054906101000a900463ffffffff16611b679190614d78565b92506101000a81548163ffffffff021916908363ffffffff160217905550428160000160086101000a81548167ffffffffffffffff021916908367ffffffffffffffff160217905550611bb983611ed0565b915050919050565b6000611bcb611cb3565b60020160008373ffffffffffffffffffffffffffffffffffffffff1673ffffffffffffffffffffffffffffffffffffffff168152602001908152602001600020549050919050565b600063f23a6e6160e01b90509695505050505050565b60006001905090565b60007f36e78175000000000000000000000000000000000000000000000000000000007bffffffffffffffffffffffffffffffffffffffffffffffffffffffff1916827bffffffffffffffffffffffffffffffffffffffffffffffffffffffff191603611ca25760019050611cae565b611cab82612373565b90505b919050565b6000807f255f4a56bd3ad76424e31ed8855ef9ad14a0ce4e67508c76ff082e5c1466b12f90508091505090565b600060606000805b8451811015611e78576000611d1787878481518110611d0a57611d09613d8b565b5b60200260200101516123f4565b90506000611d23611cb3565b60020160008373ffffffffffffffffffffffffffffffffffffffff1673ffffffffffffffffffffffffffffffffffffffff1681526020019081526020016000205403611d905760006040518060600160405280603281526020016152bb6032913994509450505050611ec9565b6000868381518110611da557611da4613d8b565b5b6020026020010151805190602001209050611dbe611cb3565b600301600082815260200190815260200160002060009054906101000a900460ff1615611e0d5760006040518060600160405280602381526020016152ed602391399550955050505050611ec9565b611e15611cb3565b60020160008373ffffffffffffffffffffffffffffffffffffffff1673ffffffffffffffffffffffffffffffffffffffff1681526020019081526020016000205484611e619190614aec565b935050508080611e7090613ea4565b915050611ce8565b50611e81611cb3565b60000154811015611eb1576000604051806060016040528060268152602001615295602691399250925050611ec9565b60016040518060200160405280600081525092509250505b9250929050565b6060600080836000016020810190611ee89190613781565b73ffffffffffffffffffffffffffffffffffffffff168460200135858060600190611f139190613dc9565b604051611f21929190613e5c565b60006040518083038185875af1925050503d8060008114611f5e576040519150601f19603f3d011682016040523d82523d6000602084013e611f63565b606091505b509150915081611f7557805160208201fd5b8092505050919050565b600080604160ff1684849050611f959190614ddf565b14611fd5576040517f08c379a0000000000000000000000000000000000000000000000000000000008152600401611fcc90614e82565b60405180910390fd5b6000604160ff1684849050611fea9190614ea2565b905060008167ffffffffffffffff81111561200857612007613ba2565b5b60405190808252806020026020018201604052801561203b57816020015b60608152602001906001900390816120265790505b50905060005b828110156120e6576120b5604160ff168261205c9190614ed3565b604160ff1688888080601f016020809104026020016040519081016040528093929190818152602001838380828437600081840152601f19601f820116905080830192505050505050506124199092919063ffffffff16565b8282815181106120c8576120c7613d8b565b5b602002602001018190525080806120de90613ea4565b915050612041565b5060006120f38783611ce0565b5090508093505050509392505050565b6000807fa7c6065f73528a079b6bd396854cfc70d8b5a045d4821e6db173081678a5276590508091505090565b612138611cb3565b60020160008273ffffffffffffffffffffffffffffffffffffffff1673ffffffffffffffffffffffffffffffffffffffff16815260200190815260200160002054612181611cb3565b60010160008282546121939190614ab8565b9250508190555060006121a4611cb3565b600101541180156121cb57506121b8611cb3565b600001546121c4611cb3565b6001015410155b61220a576040517f08c379a000000000000000000000000000000000000000000000000000000000815260040161220190614b6c565b60405180910390fd5b6000612214611cb3565b60020160008373ffffffffffffffffffffffffffffffffffffffff1673ffffffffffffffffffffffffffffffffffffffff1681526020019081526020016000208190555050565b80612264611cb3565b60010160008282546122769190614aec565b9250508190555080612286611cb3565b60020160008473ffffffffffffffffffffffffffffffffffffffff1673ffffffffffffffffffffffffffffffffffffffff168152602001908152602001600020819055505050565b6000807f8480f6681de262f06542a42e126de05ebaca6a167394778f7693338ddb42e1b490508091505090565b6000612305612103565b60000160008484600001602081019061231e9190613781565b85602001358680606001906123339190613dc9565b604051602001612347959493929190614013565b604051602081830303815290604052805190602001208152602001908152602001600020905092915050565b60007f6a01f9c1000000000000000000000000000000000000000000000000000000007bffffffffffffffffffffffffffffffffffffffffffffffffffffffff1916827bffffffffffffffffffffffffffffffffffffffffffffffffffffffff1916036123e357600190506123ef565b6123ec82612537565b90505b919050565b600061241182612403856125b8565b6125e890919063ffffffff16565b905092915050565b606081601f836124299190614aec565b101561246a576040517f08c379a000000000000000000000000000000000000000000000000000000000815260040161246190614f61565b60405180910390fd5b81836124769190614aec565b845110156124b9576040517f08c379a00000000000000000000000000000000000000000000000000000000081526004016124b090614fcd565b60405180910390fd5b60608215600081146124da576040519150600082526020820160405261252b565b6040519150601f8416801560200281840101858101878315602002848b0101015b8183101561251857805183526020830192506020810190506124fb565b50868552601f19601f8301166040525050505b50809150509392505050565b60007f87b3e812000000000000000000000000000000000000000000000000000000007bffffffffffffffffffffffffffffffffffffffffffffffffffffffff1916827bffffffffffffffffffffffffffffffffffffffffffffffffffffffff1916036125a757600190506125b3565b6125b08261260f565b90505b919050565b6000816040516020016125cb9190615065565b604051602081830303815290604052805190602001209050919050565b60008060006125f78585612690565b91509150612604816126e1565b819250505092915050565b60007fae71fe35000000000000000000000000000000000000000000000000000000007bffffffffffffffffffffffffffffffffffffffffffffffffffffffff1916827bffffffffffffffffffffffffffffffffffffffffffffffffffffffff19160361267f576001905061268b565b61268882612847565b90505b919050565b60008060418351036126d15760008060006020860151925060408601519150606086015160001a90506126c5878285856128c8565b945094505050506126da565b60006002915091505b9250929050565b600060048111156126f5576126f461508b565b5b8160048111156127085761270761508b565b5b031561284457600160048111156127225761272161508b565b5b8160048111156127355761273461508b565b5b03612775576040517f08c379a000000000000000000000000000000000000000000000000000000000815260040161276c90615106565b60405180910390fd5b600260048111156127895761278861508b565b5b81600481111561279c5761279b61508b565b5b036127dc576040517f08c379a00000000000000000000000000000000000000000000000000000000081526004016127d390615172565b60405180910390fd5b600360048111156127f0576127ef61508b565b5b8160048111156128035761280261508b565b5b03612843576040517f08c379a000000000000000000000000000000000000000000000000000000000815260040161283a90615204565b60405180910390fd5b5b50565b60007f8197b6d4000000000000000000000000000000000000000000000000000000007bffffffffffffffffffffffffffffffffffffffffffffffffffffffff1916827bffffffffffffffffffffffffffffffffffffffffffffffffffffffff1916036128b757600190506128c3565b6128c0826129aa565b90505b919050565b6000807f7fffffffffffffffffffffffffffffff5d576e7357a4501ddfe92f46681b20a08360001c11156129035760006003915091506129a1565b600060018787878760405160008152602001604052604051612928949392919061524f565b6020604051602081039080840390855afa15801561294a573d6000803e3d6000fd5b505050602060405103519050600073ffffffffffffffffffffffffffffffffffffffff168173ffffffffffffffffffffffffffffffffffffffff1603612998576000600192509250506129a1565b80600092509250505b94509492505050565b60007f01ffc9a7000000000000000000000000000000000000000000000000000000007bffffffffffffffffffffffffffffffffffffffffffffffffffffffff1916827bffffffffffffffffffffffffffffffffffffffffffffffffffffffff1916149050919050565b6000604051905090565b600080fd5b600080fd5b60007fffffffff0000000000000000000000000000000000000000000000000000000082169050919050565b612a5d81612a28565b8114612a6857600080fd5b50565b600081359050612a7a81612a54565b92915050565b600060208284031215612a9657612a95612a1e565b5b6000612aa484828501612a6b565b91505092915050565b60008115159050919050565b612ac281612aad565b82525050565b6000602082019050612add6000830184612ab9565b92915050565b6000819050919050565b612af681612ae3565b82525050565b6000602082019050612b116000830184612aed565b92915050565b600080fd5b600080fd5b600080fd5b60008083601f840112612b3c57612b3b612b17565b5b8235905067ffffffffffffffff811115612b5957612b58612b1c565b5b602083019150836020820283011115612b7557612b74612b21565b5b9250929050565b60008083601f840112612b9257612b91612b17565b5b8235905067ffffffffffffffff811115612baf57612bae612b1c565b5b602083019150836020820283011115612bcb57612bca612b21565b5b9250929050565b60008060008060408587031215612bec57612beb612a1e565b5b600085013567ffffffffffffffff811115612c0a57612c09612a23565b5b612c1687828801612b26565b9450945050602085013567ffffffffffffffff811115612c3957612c38612a23565b5b612c4587828801612b7c565b925092505092959194509250565b600081519050919050565b600082825260208201905092915050565b6000819050602082019050919050565b600081519050919050565b600082825260208201905092915050565b60005b83811015612cb9578082015181840152602081019050612c9e565b60008484015250505050565b6000601f19601f8301169050919050565b6000612ce182612c7f565b612ceb8185612c8a565b9350612cfb818560208601612c9b565b612d0481612cc5565b840191505092915050565b6000612d1b8383612cd6565b905092915050565b6000602082019050919050565b6000612d3b82612c53565b612d458185612c5e565b935083602082028501612d5785612c6f565b8060005b85811015612d935784840389528151612d748582612d0f565b9450612d7f83612d23565b925060208a01995050600181019050612d5b565b50829750879550505050505092915050565b60006020820190508181036000830152612dbf8184612d30565b905092915050565b600073ffffffffffffffffffffffffffffffffffffffff82169050919050565b6000612df282612dc7565b9050919050565b612e0281612de7565b8114612e0d57600080fd5b50565b600081359050612e1f81612df9565b92915050565b612e2e81612ae3565b8114612e3957600080fd5b50565b600081359050612e4b81612e25565b92915050565b60008083601f840112612e6757612e66612b17565b5b8235905067ffffffffffffffff811115612e8457612e83612b1c565b5b602083019150836001820283011115612ea057612e9f612b21565b5b9250929050565b600080600080600060808688031215612ec357612ec2612a1e565b5b6000612ed188828901612e10565b9550506020612ee288828901612e10565b9450506040612ef388828901612e3c565b935050606086013567ffffffffffffffff811115612f1457612f13612a23565b5b612f2088828901612e51565b92509250509295509295909350565b612f3881612a28565b82525050565b6000602082019050612f536000830184612f2f565b92915050565b6000819050919050565b612f6c81612f59565b8114612f7757600080fd5b50565b600081359050612f8981612f63565b92915050565b600080600060408486031215612fa857612fa7612a1e565b5b6000612fb686828701612f7a565b935050602084013567ffffffffffffffff811115612fd757612fd6612a23565b5b612fe386828701612e51565b92509250509250925092565b600080fd5b60006080828403121561300a57613009612fef565b5b81905092915050565b6000806000806060858703121561302d5761302c612a1e565b5b600085013567ffffffffffffffff81111561304b5761304a612a23565b5b61305787828801612ff4565b945050602061306887828801612e3c565b935050604085013567ffffffffffffffff81111561308957613088612a23565b5b61309587828801612b7c565b925092505092959194509250565b600080600080604085870312156130bd576130bc612a1e565b5b600085013567ffffffffffffffff8111156130db576130da612a23565b5b6130e787828801612e51565b9450945050602085013567ffffffffffffffff81111561310a57613109612a23565b5b61311687828801612e51565b925092505092959194509250565b60008083601f84011261313a57613139612b17565b5b8235905067ffffffffffffffff81111561315757613156612b1c565b5b60208301915083602082028301111561317357613172612b21565b5b9250929050565b60008060008060006060868803121561319657613195612a1e565b5b600086013567ffffffffffffffff8111156131b4576131b3612a23565b5b6131c088828901613124565b955095505060206131d388828901612e3c565b935050604086013567ffffffffffffffff8111156131f4576131f3612a23565b5b61320088828901612b7c565b92509250509295509295909350565b600060a0828403121561322557613224612fef565b5b81905092915050565b6000806000806000610100868803121561324b5761324a612a1e565b5b600086013567ffffffffffffffff81111561326957613268612a23565b5b61327588828901612ff4565b95505060206132868882890161320f565b94505060c061329788828901612e3c565b93505060e086013567ffffffffffffffff8111156132b8576132b7612a23565b5b6132c488828901612b7c565b92509250509295509295909350565b600080602083850312156132ea576132e9612a1e565b5b600083013567ffffffffffffffff81111561330857613307612a23565b5b61331485828601612b26565b92509250509250929050565b600081519050919050565b600082825260208201905092915050565b600061334782613320565b613351818561332b565b9350613361818560208601612c9b565b61336a81612cc5565b840191505092915050565b6000602082019050818103600083015261338f818461333c565b905092915050565b600080600080606085870312156133b1576133b0612a1e565b5b60006133bf87828801612e3c565b94505060206133d087828801612e3c565b935050604085013567ffffffffffffffff8111156133f1576133f0612a23565b5b6133fd87828801612b7c565b925092505092959194509250565b6000806000806060858703121561342557613424612a1e565b5b600061343387828801612e10565b945050602061344487828801612e3c565b935050604085013567ffffffffffffffff81111561346557613464612a23565b5b61347187828801612b7c565b925092505092959194509250565b60006080828403121561349557613494612fef565b5b81905092915050565b6000806000604084860312156134b7576134b6612a1e565b5b600084013567ffffffffffffffff8111156134d5576134d4612a23565b5b6134e18682870161347f565b935050602084013567ffffffffffffffff81111561350257613501612a23565b5b61350e86828701612b7c565b92509250509250925092565b600082825260208201905092915050565b600061353682612c7f565b613540818561351a565b9350613550818560208601612c9b565b61355981612cc5565b840191505092915050565b6000602082019050818103600083015261357e818461352b565b905092915050565b60008083601f84011261359c5761359b612b17565b5b8235905067ffffffffffffffff8111156135b9576135b8612b1c565b5b6020830191508360208202830111156135d5576135d4612b21565b5b9250929050565b60008060008060008060006080888a0312156135fb576135fa612a1e565b5b600088013567ffffffffffffffff81111561361957613618612a23565b5b6136258a828b01613124565b9750975050602088013567ffffffffffffffff81111561364857613647612a23565b5b6136548a828b01613586565b955095505060406136678a828b01612e3c565b935050606088013567ffffffffffffffff81111561368857613687612a23565b5b6136948a828b01612b7c565b925092505092959891949750929550565b60008060008060008060008060a0898b0312156136c5576136c4612a1e565b5b60006136d38b828c01612e10565b98505060206136e48b828c01612e10565b975050604089013567ffffffffffffffff81111561370557613704612a23565b5b6137118b828c01613586565b9650965050606089013567ffffffffffffffff81111561373457613733612a23565b5b6137408b828c01613586565b9450945050608089013567ffffffffffffffff81111561376357613762612a23565b5b61376f8b828c01612e51565b92509250509295985092959890939650565b60006020828403121561379757613796612a1e565b5b60006137a584828501612e10565b91505092915050565b6000806000806000608086880312156137ca576137c9612a1e565b5b60006137d888828901612e10565b95505060206137e988828901612e3c565b94505060406137fa88828901612e3c565b935050606086013567ffffffffffffffff81111561381b5761381a612a23565b5b61382788828901612b7c565b92509250509295509295909350565b60006020828403121561384c5761384b612a1e565b5b600082013567ffffffffffffffff81111561386a57613869612a23565b5b6138768482850161347f565b91505092915050565b60008060008060008060a0878903121561389c5761389b612a1e565b5b60006138aa89828a01612e10565b96505060206138bb89828a01612e10565b95505060406138cc89828a01612e3c565b94505060606138dd89828a01612e3c565b935050608087013567ffffffffffffffff8111156138fe576138fd612a23565b5b61390a89828a01612e51565b92509250509295509295509295565b600082825260208201905092915050565b6000819050919050565b60006139436020840184612e10565b905092915050565b61395481612de7565b82525050565b60006139696020840184612e3c565b905092915050565b61397a81612ae3565b82525050565b600080fd5b600080fd5b600080fd5b600080833560016020038436030381126139ac576139ab61398a565b5b83810192508235915060208301925067ffffffffffffffff8211156139d4576139d3613980565b5b6001820236038313156139ea576139e9613985565b5b509250929050565b82818337600083830152505050565b6000613a0d8385612c8a565b9350613a1a8385846139f2565b613a2383612cc5565b840190509392505050565b600060808301613a416000840184613934565b613a4e600086018261394b565b50613a5c602084018461395a565b613a696020860182613971565b50613a77604084018461395a565b613a846040860182613971565b50613a92606084018461398f565b8583036060870152613aa5838284613a01565b925050508091505092915050565b6000613abf8383613a2e565b905092915050565b600082356001608003833603038112613ae357613ae261398a565b5b82810191505092915050565b6000602082019050919050565b6000613b088385613919565b935083602084028501613b1a8461392a565b8060005b87811015613b5e578484038952613b358284613ac7565b613b3f8582613ab3565b9450613b4a83613aef565b925060208a01995050600181019050613b1e565b50829750879450505050509392505050565b60006040820190508181036000830152613b8b818587613afc565b9050613b9a6020830184612aed565b949350505050565b7f4e487b7100000000000000000000000000000000000000000000000000000000600052604160045260246000fd5b613bda82612cc5565b810181811067ffffffffffffffff82111715613bf957613bf8613ba2565b5b80604052505050565b6000613c0c612a14565b9050613c188282613bd1565b919050565b600067ffffffffffffffff821115613c3857613c37613ba2565b5b602082029050602081019050919050565b600080fd5b600067ffffffffffffffff821115613c6957613c68613ba2565b5b613c7282612cc5565b9050602081019050919050565b6000613c92613c8d84613c4e565b613c02565b905082815260208101848484011115613cae57613cad613c49565b5b613cb98482856139f2565b509392505050565b600082601f830112613cd657613cd5612b17565b5b8135613ce6848260208601613c7f565b91505092915050565b6000613d02613cfd84613c1d565b613c02565b90508083825260208201905060208402830185811115613d2557613d24612b21565b5b835b81811015613d6c57803567ffffffffffffffff811115613d4a57613d49612b17565b5b808601613d578982613cc1565b85526020850194505050602081019050613d27565b5050509392505050565b6000613d83368484613cef565b905092915050565b7f4e487b7100000000000000000000000000000000000000000000000000000000600052603260045260246000fd5b600080fd5b600080fd5b600080fd5b60008083356001602003843603038112613de657613de5613dba565b5b80840192508235915067ffffffffffffffff821115613e0857613e07613dbf565b5b602083019250600182023603831315613e2457613e23613dc4565b5b509250929050565b600081905092915050565b6000613e438385613e2c565b9350613e508385846139f2565b82840190509392505050565b6000613e69828486613e37565b91508190509392505050565b7f4e487b7100000000000000000000000000000000000000000000000000000000600052601160045260246000fd5b6000613eaf82612ae3565b91507fffffffffffffffffffffffffffffffffffffffffffffffffffffffffffffffff8203613ee157613ee0613e75565b5b600182019050919050565b600082356001608003833603038112613f0857613f07613dba565b5b80830191505092915050565b600060808301613f276000840184613934565b613f34600086018261394b565b50613f426020840184613934565b613f4f602086018261394b565b50613f5d604084018461395a565b613f6a6040860182613971565b50613f78606084018461398f565b8583036060870152613f8b838284613a01565b925050508091505092915050565b60006060820190508181036000830152613fb38186613f14565b9050613fc26020830185612aed565b613fcf6040830184612aed565b949350505050565b613fe081612de7565b82525050565b6000613ff2838561351a565b9350613fff8385846139f2565b61400883612cc5565b840190509392505050565b60006080820190506140286000830188613fd7565b6140356020830187613fd7565b6140426040830186612aed565b8181036060830152614055818486613fe6565b90509695505050505050565b600082825260208201905092915050565b6000819050919050565b6000614088838361394b565b60208301905092915050565b6000602082019050919050565b60006140ad8385614061565b93506140b882614072565b8060005b858110156140f1576140ce8284613934565b6140d8888261407c565b97506140e383614094565b9250506001810190506140bc565b5085925050509392505050565b600060608201905081810360008301526141198186886140a1565b90506141286020830185612aed565b6141356040830184612aed565b95945050505050565b600067ffffffffffffffff82169050919050565b61415b8161413e565b811461416657600080fd5b50565b60008135905061417881614152565b92915050565b600061418d6020840184614169565b905092915050565b61419e8161413e565b82525050565b600063ffffffff82169050919050565b6141bd816141a4565b81146141c857600080fd5b50565b6000813590506141da816141b4565b92915050565b60006141ef60208401846141cb565b905092915050565b614200816141a4565b82525050565b60a08201614217600083018361417e565b6142246000850182614195565b50614232602083018361417e565b61423f6020850182614195565b5061424d60408301836141e0565b61425a60408501826141f7565b5061426860608301836141e0565b61427560608501826141f7565b5061428360808301836141e0565b61429060808501826141f7565b50505050565b60006101008201905081810360008301526142b18187613f14565b90506142c06020830186614206565b6142cd60c0830185612aed565b6142da60e0830184612aed565b95945050505050565b6000602082840312156142f9576142f8612a1e565b5b6000614307848285016141cb565b91505092915050565b7f45786563757465526571756573745065726d697373696f6e2e6d61784578656360008201527f75746573206d757374206e6f7420626520300000000000000000000000000000602082015250565b600061436c60328361332b565b915061437782614310565b604082019050919050565b6000602082019050818103600083015261439b8161435f565b9050919050565b600081356143af81614152565b80915050919050565b60008160001b9050919050565b600067ffffffffffffffff6143d9846143b8565b9350801983169250808416831791505092915050565b6000819050919050565b600061441461440f61440a8461413e565b6143ef565b61413e565b9050919050565b6000819050919050565b61442e826143f9565b61444161443a8261441b565b83546143c5565b8255505050565b60008160401b9050919050565b60006fffffffffffffffff000000000000000061447184614448565b9350801983169250808416831791505092915050565b614490826143f9565b6144a361449c8261441b565b8354614455565b8255505050565b600081356144b7816141b4565b80915050919050565b60008160801b9050919050565b600073ffffffff000000000000000000000000000000006144ed846144c0565b9350801983169250808416831791505092915050565b600061451e614519614514846141a4565b6143ef565b6141a4565b9050919050565b6000819050919050565b61453882614503565b61454b61454482614525565b83546144cd565b8255505050565b60008160a01b9050919050565b600077ffffffff000000000000000000000000000000000000000061458384614552565b9350801983169250808416831791505092915050565b6145a282614503565b6145b56145ae82614525565b835461455f565b8255505050565b60008160c01b9050919050565b60007bffffffff0000000000000000000000000000000000000000000000006145f1846145bc565b9350801983169250808416831791505092915050565b61461082614503565b61462361461c82614525565b83546145c9565b8255505050565b60008101600083018061463c816143a2565b90506146488184614425565b50505060008101602083018061465d816143a2565b90506146698184614487565b50505060008101604083018061467e816144aa565b905061468a818461452f565b50505060008101606083018061469f816144aa565b90506146ab8184614599565b5050506000810160808301806146c0816144aa565b90506146cc8184614607565b5050505050565b6146dd828261462a565b5050565b60006060820190506146f66000830186612aed565b6147036020830185612aed565b6147106040830184612aed565b949350505050565b7f496e76616c6964207468726573686f6c64000000000000000000000000000000600082015250565b600061474e60118361332b565b915061475982614718565b602082019050919050565b6000602082019050818103600083015261477d81614741565b9050919050565b60006060820190506147996000830186613fd7565b6147a66020830185612aed565b6147b36040830184612aed565b949350505050565b6147c481612aad565b81146147cf57600080fd5b50565b6000815190506147e1816147bb565b92915050565b6000602082840312156147fd576147fc612a1e565b5b600061480b848285016147d2565b91505092915050565b7f496e76616c696420696d706c656d656e746174696f6e00000000000000000000600082015250565b600061484a60168361332b565b915061485582614814565b602082019050919050565b600060208201905081810360008301526148798161483d565b9050919050565b6000608083016148936000840184613934565b6148a0600086018261394b565b506148ae602084018461395a565b6148bb6020860182613971565b506148c9604084018461395a565b6148d66040860182613971565b506148e4606084018461398f565b85830360608701526148f7838284613a01565b925050508091505092915050565b6000604082019050818103600083015261491f8185614880565b905061492e6020830184612aed565b9392505050565b600082825260208201905092915050565b600080fd5b82818337505050565b60006149608385614935565b93507f07ffffffffffffffffffffffffffffffffffffffffffffffffffffffffffffff83111561499357614992614946565b5b6020830292506149a483858461494b565b82840190509392505050565b600060808201905081810360008301526149cb81888a6140a1565b905081810360208301526149e0818688614954565b90506149ef6040830185612aed565b6149fc6060830184612aed565b979650505050505050565b7f416c726561647920696e697469616c697a656400000000000000000000000000600082015250565b6000614a3d60138361332b565b9150614a4882614a07565b602082019050919050565b60006020820190508181036000830152614a6c81614a30565b9050919050565b6000608082019050614a886000830187613fd7565b614a956020830186612aed565b614aa26040830185612aed565b614aaf6060830184612aed565b95945050505050565b6000614ac382612ae3565b9150614ace83612ae3565b9250828203905081811115614ae657614ae5613e75565b5b92915050565b6000614af782612ae3565b9150614b0283612ae3565b9250828201905080821115614b1a57614b19613e75565b5b92915050565b7f5468726573686f6c6420776f756c6420626520696d706f737369626c65000000600082015250565b6000614b56601d8361332b565b9150614b6182614b20565b602082019050919050565b60006020820190508181036000830152614b8581614b49565b9050919050565b7f457865637574696f6e206e6f74207065726d6974746564000000000000000000600082015250565b6000614bc260178361332b565b9150614bcd82614b8c565b602082019050919050565b60006020820190508181036000830152614bf181614bb5565b9050919050565b7f457865637574696f6e2074696d656c6f636b6564000000000000000000000000600082015250565b6000614c2e60148361332b565b9150614c3982614bf8565b602082019050919050565b60006020820190508181036000830152614c5d81614c21565b9050919050565b6000614c6f8261413e565b9150614c7a8361413e565b9250828201905067ffffffffffffffff811115614c9a57614c99613e75565b5b92915050565b7f457865637574696f6e20696e74657276616c20756e6d65740000000000000000600082015250565b6000614cd660188361332b565b9150614ce182614ca0565b602082019050919050565b60006020820190508181036000830152614d0581614cc9565b9050919050565b7f4d617820657865637574696f6e73207265616368656400000000000000000000600082015250565b6000614d4260168361332b565b9150614d4d82614d0c565b602082019050919050565b60006020820190508181036000830152614d7181614d35565b9050919050565b6000614d83826141a4565b9150614d8e836141a4565b9250828201905063ffffffff811115614daa57614da9613e75565b5b92915050565b7f4e487b7100000000000000000000000000000000000000000000000000000000600052601260045260246000fd5b6000614dea82612ae3565b9150614df583612ae3565b925082614e0557614e04614db0565b5b828206905092915050565b7f556e6578706563746564207061636b61676564207369676e617475726520627960008201527f7465206c656e6774680000000000000000000000000000000000000000000000602082015250565b6000614e6c60298361332b565b9150614e7782614e10565b604082019050919050565b60006020820190508181036000830152614e9b81614e5f565b9050919050565b6000614ead82612ae3565b9150614eb883612ae3565b925082614ec857614ec7614db0565b5b828204905092915050565b6000614ede82612ae3565b9150614ee983612ae3565b9250828202614ef781612ae3565b91508282048414831517614f0e57614f0d613e75565b5b5092915050565b7f736c6963655f6f766572666c6f77000000000000000000000000000000000000600082015250565b6000614f4b600e8361332b565b9150614f5682614f15565b602082019050919050565b60006020820190508181036000830152614f7a81614f3e565b9050919050565b7f736c6963655f6f75744f66426f756e6473000000000000000000000000000000600082015250565b6000614fb760118361332b565b9150614fc282614f81565b602082019050919050565b60006020820190508181036000830152614fe681614faa565b9050919050565b600081905092915050565b7f19457468657265756d205369676e6564204d6573736167653a0a333200000000600082015250565b600061502e601c83614fed565b915061503982614ff8565b601c82019050919050565b6000819050919050565b61505f61505a82612f59565b615044565b82525050565b600061507082615021565b915061507c828461504e565b60208201915081905092915050565b7f4e487b7100000000000000000000000000000000000000000000000000000000600052602160045260246000fd5b7f45434453413a20696e76616c6964207369676e61747572650000000000000000600082015250565b60006150f060188361332b565b91506150fb826150ba565b602082019050919050565b6000602082019050818103600083015261511f816150e3565b9050919050565b7f45434453413a20696e76616c6964207369676e6174757265206c656e67746800600082015250565b600061515c601f8361332b565b915061516782615126565b602082019050919050565b6000602082019050818103600083015261518b8161514f565b9050919050565b7f45434453413a20696e76616c6964207369676e6174757265202773272076616c60008201527f7565000000000000000000000000000000000000000000000000000000000000602082015250565b60006151ee60228361332b565b91506151f982615192565b604082019050919050565b6000602082019050818103600083015261521d816151e1565b9050919050565b61522d81612f59565b82525050565b600060ff82169050919050565b61524981615233565b82525050565b60006080820190506152646000830187615224565b6152716020830186615240565b61527e6040830185615224565b61528b6060830184615224565b9594505050505056fe5369676e6572207765696768747320646f6573206e6f74206d656574207468726573686f6c644174206c65617374206f6e65207369676e6174757265206e6f742066726f6d2061206b6e6f776e20636f6e74726f6c6c65724174206c65617374206f6e65207369676e617475726520616c72656164792075736564a2646970667358221220ee9bb458f28d3a73838684f613ccffcf60351973b27b015e2325598e4887a8ae64736f6c63430008120033",
			"opcodes": "PUSH1 0x80 PUSH1 0x40 MSTORE CALLVALUE DUP1 ISZERO PUSH2 0x10 JUMPI PUSH1 0x0 DUP1 REVERT JUMPDEST POP PUSH2 0x5345 DUP1 PUSH2 0x20 PUSH1 0x0 CODECOPY PUSH1 0x0 RETURN INVALID PUSH1 0x80 PUSH1 0x40 MSTORE PUSH1 0x4 CALLDATASIZE LT PUSH2 0x144 JUMPI PUSH1 0x0 CALLDATALOAD PUSH1 0xE0 SHR DUP1 PUSH4 0x87F949B4 GT PUSH2 0xB6 JUMPI DUP1 PUSH4 0xC4D66DE8 GT PUSH2 0x6F JUMPI DUP1 PUSH4 0xC4D66DE8 EQ PUSH2 0x4AF JUMPI DUP1 PUSH4 0xD0BCCEA1 EQ PUSH2 0x4D8 JUMPI DUP1 PUSH4 0xE57DB71E EQ PUSH2 0x501 JUMPI DUP1 PUSH4 0xF04420F1 EQ PUSH2 0x53E JUMPI DUP1 PUSH4 0xF23A6E61 EQ PUSH2 0x57B JUMPI DUP1 PUSH4 0xFEC5C09A EQ PUSH2 0x5B8 JUMPI PUSH2 0x14B JUMP JUMPDEST DUP1 PUSH4 0x87F949B4 EQ PUSH2 0x38F JUMPI DUP1 PUSH4 0x94C4395B EQ PUSH2 0x3B8 JUMPI DUP1 PUSH4 0xA3E8D51E EQ PUSH2 0x3E1 JUMPI DUP1 PUSH4 0xA7865090 EQ PUSH2 0x41E JUMPI DUP1 PUSH4 0xAF915498 EQ PUSH2 0x449 JUMPI DUP1 PUSH4 0xBC197C81 EQ PUSH2 0x472 JUMPI PUSH2 0x14B JUMP JUMPDEST DUP1 PUSH4 0x1AB08563 GT PUSH2 0x108 JUMPI DUP1 PUSH4 0x1AB08563 EQ PUSH2 0x26F JUMPI DUP1 PUSH4 0x20C13B0B EQ PUSH2 0x298 JUMPI DUP1 PUSH4 0x286936BB EQ PUSH2 0x2D5 JUMPI DUP1 PUSH4 0x2A365CBD EQ PUSH2 0x2FE JUMPI DUP1 PUSH4 0x524886D2 EQ PUSH2 0x327 JUMPI DUP1 PUSH4 0x54FD4D50 EQ PUSH2 0x364 JUMPI PUSH2 0x14B JUMP JUMPDEST DUP1 PUSH4 0x1FFC9A7 EQ PUSH2 0x150 JUMPI DUP1 PUSH4 0x6E82383 EQ PUSH2 0x18D JUMPI DUP1 PUSH4 0xD992B2B EQ PUSH2 0x1B8 JUMPI DUP1 PUSH4 0x150B7A02 EQ PUSH2 0x1F5 JUMPI DUP1 PUSH4 0x1626BA7E EQ PUSH2 0x232 JUMPI PUSH2 0x14B JUMP JUMPDEST CALLDATASIZE PUSH2 0x14B JUMPI STOP JUMPDEST PUSH1 0x0 DUP1 REVERT JUMPDEST CALLVALUE DUP1 ISZERO PUSH2 0x15C JUMPI PUSH1 0x0 DUP1 REVERT JUMPDEST POP PUSH2 0x177 PUSH1 0x4 DUP1 CALLDATASIZE SUB DUP2 ADD SWAP1 PUSH2 0x172 SWAP2 SWAP1 PUSH2 0x2A80 JUMP JUMPDEST PUSH2 0x5E3 JUMP JUMPDEST PUSH1 0x40 MLOAD PUSH2 0x184 SWAP2 SWAP1 PUSH2 0x2AC8 JUMP JUMPDEST PUSH1 0x40 MLOAD DUP1 SWAP2 SUB SWAP1 RETURN JUMPDEST CALLVALUE DUP1 ISZERO PUSH2 0x199 JUMPI PUSH1 0x0 DUP1 REVERT JUMPDEST POP PUSH2 0x1A2 PUSH2 0x5F5 JUMP JUMPDEST PUSH1 0x40 MLOAD PUSH2 0x1AF SWAP2 SWAP1 PUSH2 0x2AFC JUMP JUMPDEST PUSH1 0x40 MLOAD DUP1 SWAP2 SUB SWAP1 RETURN JUMPDEST CALLVALUE DUP1 ISZERO PUSH2 0x1C4 JUMPI PUSH1 0x0 DUP1 REVERT JUMPDEST POP PUSH2 0x1DF PUSH1 0x4 DUP1 CALLDATASIZE SUB DUP2 ADD SWAP1 PUSH2 0x1DA SWAP2 SWAP1 PUSH2 0x2BD2 JUMP JUMPDEST PUSH2 0x608 JUMP JUMPDEST PUSH1 0x40 MLOAD PUSH2 0x1EC SWAP2 SWAP1 PUSH2 0x2DA5 JUMP JUMPDEST PUSH1 0x40 MLOAD DUP1 SWAP2 SUB SWAP1 RETURN JUMPDEST CALLVALUE DUP1 ISZERO PUSH2 0x201 JUMPI PUSH1 0x0 DUP1 REVERT JUMPDEST POP PUSH2 0x21C PUSH1 0x4 DUP1 CALLDATASIZE SUB DUP2 ADD SWAP1 PUSH2 0x217 SWAP2 SWAP1 PUSH2 0x2EA7 JUMP JUMPDEST PUSH2 0x7FC JUMP JUMPDEST PUSH1 0x40 MLOAD PUSH2 0x229 SWAP2 SWAP1 PUSH2 0x2F3E JUMP JUMPDEST PUSH1 0x40 MLOAD DUP1 SWAP2 SUB SWAP1 RETURN JUMPDEST CALLVALUE DUP1 ISZERO PUSH2 0x23E JUMPI PUSH1 0x0 DUP1 REVERT JUMPDEST POP PUSH2 0x259 PUSH1 0x4 DUP1 CALLDATASIZE SUB DUP2 ADD SWAP1 PUSH2 0x254 SWAP2 SWAP1 PUSH2 0x2F8F JUMP JUMPDEST PUSH2 0x811 JUMP JUMPDEST PUSH1 0x40 MLOAD PUSH2 0x266 SWAP2 SWAP1 PUSH2 0x2F3E JUMP JUMPDEST PUSH1 0x40 MLOAD DUP1 SWAP2 SUB SWAP1 RETURN JUMPDEST CALLVALUE DUP1 ISZERO PUSH2 0x27B JUMPI PUSH1 0x0 DUP1 REVERT JUMPDEST POP PUSH2 0x296 PUSH1 0x4 DUP1 CALLDATASIZE SUB DUP2 ADD SWAP1 PUSH2 0x291 SWAP2 SWAP1 PUSH2 0x3013 JUMP JUMPDEST PUSH2 0x841 JUMP JUMPDEST STOP JUMPDEST CALLVALUE DUP1 ISZERO PUSH2 0x2A4 JUMPI PUSH1 0x0 DUP1 REVERT JUMPDEST POP PUSH2 0x2BF PUSH1 0x4 DUP1 CALLDATASIZE SUB DUP2 ADD SWAP1 PUSH2 0x2BA SWAP2 SWAP1 PUSH2 0x30A3 JUMP JUMPDEST PUSH2 0xA69 JUMP JUMPDEST PUSH1 0x40 MLOAD PUSH2 0x2CC SWAP2 SWAP1 PUSH2 0x2F3E JUMP JUMPDEST PUSH1 0x40 MLOAD DUP1 SWAP2 SUB SWAP1 RETURN JUMPDEST CALLVALUE DUP1 ISZERO PUSH2 0x2E1 JUMPI PUSH1 0x0 DUP1 REVERT JUMPDEST POP PUSH2 0x2FC PUSH1 0x4 DUP1 CALLDATASIZE SUB DUP2 ADD SWAP1 PUSH2 0x2F7 SWAP2 SWAP1 PUSH2 0x317A JUMP JUMPDEST PUSH2 0xAB1 JUMP JUMPDEST STOP JUMPDEST CALLVALUE DUP1 ISZERO PUSH2 0x30A JUMPI PUSH1 0x0 DUP1 REVERT JUMPDEST POP PUSH2 0x325 PUSH1 0x4 DUP1 CALLDATASIZE SUB DUP2 ADD SWAP1 PUSH2 0x320 SWAP2 SWAP1 PUSH2 0x322E JUMP JUMPDEST PUSH2 0xC30 JUMP JUMPDEST STOP JUMPDEST CALLVALUE DUP1 ISZERO PUSH2 0x333 JUMPI PUSH1 0x0 DUP1 REVERT JUMPDEST POP PUSH2 0x34E PUSH1 0x4 DUP1 CALLDATASIZE SUB DUP2 ADD SWAP1 PUSH2 0x349 SWAP2 SWAP1 PUSH2 0x32D3 JUMP JUMPDEST PUSH2 0xE48 JUMP JUMPDEST PUSH1 0x40 MLOAD PUSH2 0x35B SWAP2 SWAP1 PUSH2 0x2DA5 JUMP JUMPDEST PUSH1 0x40 MLOAD DUP1 SWAP2 SUB SWAP1 RETURN JUMPDEST CALLVALUE DUP1 ISZERO PUSH2 0x370 JUMPI PUSH1 0x0 DUP1 REVERT JUMPDEST POP PUSH2 0x379 PUSH2 0xF16 JUMP JUMPDEST PUSH1 0x40 MLOAD PUSH2 0x386 SWAP2 SWAP1 PUSH2 0x3375 JUMP JUMPDEST PUSH1 0x40 MLOAD DUP1 SWAP2 SUB SWAP1 RETURN JUMPDEST CALLVALUE DUP1 ISZERO PUSH2 0x39B JUMPI PUSH1 0x0 DUP1 REVERT JUMPDEST POP PUSH2 0x3B6 PUSH1 0x4 DUP1 CALLDATASIZE SUB DUP2 ADD SWAP1 PUSH2 0x3B1 SWAP2 SWAP1 PUSH2 0x3397 JUMP JUMPDEST PUSH2 0xF4F JUMP JUMPDEST STOP JUMPDEST CALLVALUE DUP1 ISZERO PUSH2 0x3C4 JUMPI PUSH1 0x0 DUP1 REVERT JUMPDEST POP PUSH2 0x3DF PUSH1 0x4 DUP1 CALLDATASIZE SUB DUP2 ADD SWAP1 PUSH2 0x3DA SWAP2 SWAP1 PUSH2 0x340B JUMP JUMPDEST PUSH2 0x10F9 JUMP JUMPDEST STOP JUMPDEST CALLVALUE DUP1 ISZERO PUSH2 0x3ED JUMPI PUSH1 0x0 DUP1 REVERT JUMPDEST POP PUSH2 0x408 PUSH1 0x4 DUP1 CALLDATASIZE SUB DUP2 ADD SWAP1 PUSH2 0x403 SWAP2 SWAP1 PUSH2 0x349E JUMP JUMPDEST PUSH2 0x12D4 JUMP JUMPDEST PUSH1 0x40 MLOAD PUSH2 0x415 SWAP2 SWAP1 PUSH2 0x3564 JUMP JUMPDEST PUSH1 0x40 MLOAD DUP1 SWAP2 SUB SWAP1 RETURN JUMPDEST CALLVALUE DUP1 ISZERO PUSH2 0x42A JUMPI PUSH1 0x0 DUP1 REVERT JUMPDEST POP PUSH2 0x433 PUSH2 0x140A JUMP JUMPDEST PUSH1 0x40 MLOAD PUSH2 0x440 SWAP2 SWAP1 PUSH2 0x2AFC JUMP JUMPDEST PUSH1 0x40 MLOAD DUP1 SWAP2 SUB SWAP1 RETURN JUMPDEST CALLVALUE DUP1 ISZERO PUSH2 0x455 JUMPI PUSH1 0x0 DUP1 REVERT JUMPDEST POP PUSH2 0x470 PUSH1 0x4 DUP1 CALLDATASIZE SUB DUP2 ADD SWAP1 PUSH2 0x46B SWAP2 SWAP1 PUSH2 0x35DC JUMP JUMPDEST PUSH2 0x141D JUMP JUMPDEST STOP JUMPDEST CALLVALUE DUP1 ISZERO PUSH2 0x47E JUMPI PUSH1 0x0 DUP1 REVERT JUMPDEST POP PUSH2 0x499 PUSH1 0x4 DUP1 CALLDATASIZE SUB DUP2 ADD SWAP1 PUSH2 0x494 SWAP2 SWAP1 PUSH2 0x36A5 JUMP JUMPDEST PUSH2 0x15BC JUMP JUMPDEST PUSH1 0x40 MLOAD PUSH2 0x4A6 SWAP2 SWAP1 PUSH2 0x2F3E JUMP JUMPDEST PUSH1 0x40 MLOAD DUP1 SWAP2 SUB SWAP1 RETURN JUMPDEST CALLVALUE DUP1 ISZERO PUSH2 0x4BB JUMPI PUSH1 0x0 DUP1 REVERT JUMPDEST POP PUSH2 0x4D6 PUSH1 0x4 DUP1 CALLDATASIZE SUB DUP2 ADD SWAP1 PUSH2 0x4D1 SWAP2 SWAP1 PUSH2 0x3781 JUMP JUMPDEST PUSH2 0x15D4 JUMP JUMPDEST STOP JUMPDEST CALLVALUE DUP1 ISZERO PUSH2 0x4E4 JUMPI PUSH1 0x0 DUP1 REVERT JUMPDEST POP PUSH2 0x4FF PUSH1 0x4 DUP1 CALLDATASIZE SUB DUP2 ADD SWAP1 PUSH2 0x4FA SWAP2 SWAP1 PUSH2 0x37AE JUMP JUMPDEST PUSH2 0x165F JUMP JUMPDEST STOP JUMPDEST CALLVALUE DUP1 ISZERO PUSH2 0x50D JUMPI PUSH1 0x0 DUP1 REVERT JUMPDEST POP PUSH2 0x528 PUSH1 0x4 DUP1 CALLDATASIZE SUB DUP2 ADD SWAP1 PUSH2 0x523 SWAP2 SWAP1 PUSH2 0x3836 JUMP JUMPDEST PUSH2 0x18C2 JUMP JUMPDEST PUSH1 0x40 MLOAD PUSH2 0x535 SWAP2 SWAP1 PUSH2 0x3564 JUMP JUMPDEST PUSH1 0x40 MLOAD DUP1 SWAP2 SUB SWAP1 RETURN JUMPDEST CALLVALUE DUP1 ISZERO PUSH2 0x54A JUMPI PUSH1 0x0 DUP1 REVERT JUMPDEST POP PUSH2 0x565 PUSH1 0x4 DUP1 CALLDATASIZE SUB DUP2 ADD SWAP1 PUSH2 0x560 SWAP2 SWAP1 PUSH2 0x3781 JUMP JUMPDEST PUSH2 0x1BC1 JUMP JUMPDEST PUSH1 0x40 MLOAD PUSH2 0x572 SWAP2 SWAP1 PUSH2 0x2AFC JUMP JUMPDEST PUSH1 0x40 MLOAD DUP1 SWAP2 SUB SWAP1 RETURN JUMPDEST CALLVALUE DUP1 ISZERO PUSH2 0x587 JUMPI PUSH1 0x0 DUP1 REVERT JUMPDEST POP PUSH2 0x5A2 PUSH1 0x4 DUP1 CALLDATASIZE SUB DUP2 ADD SWAP1 PUSH2 0x59D SWAP2 SWAP1 PUSH2 0x387F JUMP JUMPDEST PUSH2 0x1C13 JUMP JUMPDEST PUSH1 0x40 MLOAD PUSH2 0x5AF SWAP2 SWAP1 PUSH2 0x2F3E JUMP JUMPDEST PUSH1 0x40 MLOAD DUP1 SWAP2 SUB SWAP1 RETURN JUMPDEST CALLVALUE DUP1 ISZERO PUSH2 0x5C4 JUMPI PUSH1 0x0 DUP1 REVERT JUMPDEST POP PUSH2 0x5CD PUSH2 0x1C29 JUMP JUMPDEST PUSH1 0x40 MLOAD PUSH2 0x5DA SWAP2 SWAP1 PUSH2 0x2AC8 JUMP JUMPDEST PUSH1 0x40 MLOAD DUP1 SWAP2 SUB SWAP1 RETURN JUMPDEST PUSH1 0x0 PUSH2 0x5EE DUP3 PUSH2 0x1C32 JUMP JUMPDEST SWAP1 POP SWAP2 SWAP1 POP JUMP JUMPDEST PUSH1 0x0 PUSH2 0x5FF PUSH2 0x1CB3 JUMP JUMPDEST PUSH1 0x1 ADD SLOAD SWAP1 POP SWAP1 JUMP JUMPDEST PUSH1 0x60 DUP5 DUP5 CHAINID PUSH1 0x40 MLOAD PUSH1 0x20 ADD PUSH2 0x61F SWAP4 SWAP3 SWAP2 SWAP1 PUSH2 0x3B70 JUMP JUMPDEST PUSH1 0x40 MLOAD PUSH1 0x20 DUP2 DUP4 SUB SUB DUP2 MSTORE SWAP1 PUSH1 0x40 MSTORE DUP1 MLOAD SWAP1 PUSH1 0x20 ADD KECCAK256 DUP4 DUP4 PUSH1 0x0 DUP1 PUSH2 0x650 DUP6 DUP6 DUP6 SWAP1 PUSH2 0x64B SWAP2 SWAP1 PUSH2 0x3D76 JUMP JUMPDEST PUSH2 0x1CE0 JUMP JUMPDEST SWAP2 POP SWAP2 POP DUP2 DUP2 SWAP1 PUSH2 0x697 JUMPI PUSH1 0x40 MLOAD PUSH32 0x8C379A000000000000000000000000000000000000000000000000000000000 DUP2 MSTORE PUSH1 0x4 ADD PUSH2 0x68E SWAP2 SWAP1 PUSH2 0x3375 JUMP JUMPDEST PUSH1 0x40 MLOAD DUP1 SWAP2 SUB SWAP1 REVERT JUMPDEST POP PUSH1 0x0 JUMPDEST DUP5 DUP5 SWAP1 POP DUP2 LT ISZERO PUSH2 0x728 JUMPI PUSH1 0x1 PUSH2 0x6B0 PUSH2 0x1CB3 JUMP JUMPDEST PUSH1 0x3 ADD PUSH1 0x0 DUP8 DUP8 DUP6 DUP2 DUP2 LT PUSH2 0x6C8 JUMPI PUSH2 0x6C7 PUSH2 0x3D8B JUMP JUMPDEST JUMPDEST SWAP1 POP PUSH1 0x20 MUL DUP2 ADD SWAP1 PUSH2 0x6DA SWAP2 SWAP1 PUSH2 0x3DC9 JUMP JUMPDEST PUSH1 0x40 MLOAD PUSH2 0x6E8 SWAP3 SWAP2 SWAP1 PUSH2 0x3E5C JUMP JUMPDEST PUSH1 0x40 MLOAD DUP1 SWAP2 SUB SWAP1 KECCAK256 DUP2 MSTORE PUSH1 0x20 ADD SWAP1 DUP2 MSTORE PUSH1 0x20 ADD PUSH1 0x0 KECCAK256 PUSH1 0x0 PUSH2 0x100 EXP DUP2 SLOAD DUP2 PUSH1 0xFF MUL NOT AND SWAP1 DUP4 ISZERO ISZERO MUL OR SWAP1 SSTORE POP DUP1 DUP1 PUSH2 0x720 SWAP1 PUSH2 0x3EA4 JUMP JUMPDEST SWAP2 POP POP PUSH2 0x69B JUMP JUMPDEST POP PUSH1 0x0 DUP11 DUP11 SWAP1 POP PUSH8 0xFFFFFFFFFFFFFFFF DUP2 GT ISZERO PUSH2 0x748 JUMPI PUSH2 0x747 PUSH2 0x3BA2 JUMP JUMPDEST JUMPDEST PUSH1 0x40 MLOAD SWAP1 DUP1 DUP3 MSTORE DUP1 PUSH1 0x20 MUL PUSH1 0x20 ADD DUP3 ADD PUSH1 0x40 MSTORE DUP1 ISZERO PUSH2 0x77B JUMPI DUP2 PUSH1 0x20 ADD JUMPDEST PUSH1 0x60 DUP2 MSTORE PUSH1 0x20 ADD SWAP1 PUSH1 0x1 SWAP1 SUB SWAP1 DUP2 PUSH2 0x766 JUMPI SWAP1 POP JUMPDEST POP SWAP1 POP PUSH1 0x0 JUMPDEST DUP12 DUP12 SWAP1 POP DUP2 LT ISZERO PUSH2 0x7EA JUMPI PUSH2 0x7B9 DUP13 DUP13 DUP4 DUP2 DUP2 LT PUSH2 0x7A2 JUMPI PUSH2 0x7A1 PUSH2 0x3D8B JUMP JUMPDEST JUMPDEST SWAP1 POP PUSH1 0x20 MUL DUP2 ADD SWAP1 PUSH2 0x7B4 SWAP2 SWAP1 PUSH2 0x3EEC JUMP JUMPDEST PUSH2 0x1ED0 JUMP JUMPDEST DUP3 DUP3 DUP2 MLOAD DUP2 LT PUSH2 0x7CC JUMPI PUSH2 0x7CB PUSH2 0x3D8B JUMP JUMPDEST JUMPDEST PUSH1 0x20 MUL PUSH1 0x20 ADD ADD DUP2 SWAP1 MSTORE POP DUP1 DUP1 PUSH2 0x7E2 SWAP1 PUSH2 0x3EA4 JUMP JUMPDEST SWAP2 POP POP PUSH2 0x781 JUMP JUMPDEST POP DUP1 SWAP7 POP POP POP POP POP POP POP SWAP5 SWAP4 POP POP POP POP JUMP JUMPDEST PUSH1 0x0 PUSH4 0x150B7A02 PUSH1 0xE0 SHL SWAP1 POP SWAP6 SWAP5 POP POP POP POP POP JUMP JUMPDEST PUSH1 0x0 PUSH2 0x81E DUP5 DUP5 DUP5 PUSH2 0x1F7F JUMP JUMPDEST ISZERO PUSH2 0x832 JUMPI PUSH4 0x1626BA7E PUSH1 0xE0 SHL SWAP1 POP PUSH2 0x83A JUMP JUMPDEST PUSH1 0x0 PUSH1 0xE0 SHL SWAP1 POP JUMPDEST SWAP4 SWAP3 POP POP POP JUMP JUMPDEST DUP4 DUP4 CHAINID PUSH1 0x40 MLOAD PUSH1 0x20 ADD PUSH2 0x856 SWAP4 SWAP3 SWAP2 SWAP1 PUSH2 0x3F99 JUMP JUMPDEST PUSH1 0x40 MLOAD PUSH1 0x20 DUP2 DUP4 SUB SUB DUP2 MSTORE SWAP1 PUSH1 0x40 MSTORE DUP1 MLOAD SWAP1 PUSH1 0x20 ADD KECCAK256 DUP3 DUP3 PUSH1 0x0 DUP1 PUSH2 0x887 DUP6 DUP6 DUP6 SWAP1 PUSH2 0x882 SWAP2 SWAP1 PUSH2 0x3D76 JUMP JUMPDEST PUSH2 0x1CE0 JUMP JUMPDEST SWAP2 POP SWAP2 POP DUP2 DUP2 SWAP1 PUSH2 0x8CE JUMPI PUSH1 0x40 MLOAD PUSH32 0x8C379A000000000000000000000000000000000000000000000000000000000 DUP2 MSTORE PUSH1 0x4 ADD PUSH2 0x8C5 SWAP2 SWAP1 PUSH2 0x3375 JUMP JUMPDEST PUSH1 0x40 MLOAD DUP1 SWAP2 SUB SWAP1 REVERT JUMPDEST POP PUSH1 0x0 JUMPDEST DUP5 DUP5 SWAP1 POP DUP2 LT ISZERO PUSH2 0x95F JUMPI PUSH1 0x1 PUSH2 0x8E7 PUSH2 0x1CB3 JUMP JUMPDEST PUSH1 0x3 ADD PUSH1 0x0 DUP8 DUP8 DUP6 DUP2 DUP2 LT PUSH2 0x8FF JUMPI PUSH2 0x8FE PUSH2 0x3D8B JUMP JUMPDEST JUMPDEST SWAP1 POP PUSH1 0x20 MUL DUP2 ADD SWAP1 PUSH2 0x911 SWAP2 SWAP1 PUSH2 0x3DC9 JUMP JUMPDEST PUSH1 0x40 MLOAD PUSH2 0x91F SWAP3 SWAP2 SWAP1 PUSH2 0x3E5C JUMP JUMPDEST PUSH1 0x40 MLOAD DUP1 SWAP2 SUB SWAP1 KECCAK256 DUP2 MSTORE PUSH1 0x20 ADD SWAP1 DUP2 MSTORE PUSH1 0x20 ADD PUSH1 0x0 KECCAK256 PUSH1 0x0 PUSH2 0x100 EXP DUP2 SLOAD DUP2 PUSH1 0xFF MUL NOT AND SWAP1 DUP4 ISZERO ISZERO MUL OR SWAP1 SSTORE POP DUP1 DUP1 PUSH2 0x957 SWAP1 PUSH2 0x3EA4 JUMP JUMPDEST SWAP2 POP POP PUSH2 0x8D2 JUMP JUMPDEST POP PUSH2 0x968 PUSH2 0x2103 JUMP JUMPDEST PUSH1 0x0 ADD PUSH1 0x0 DUP11 PUSH1 0x0 ADD PUSH1 0x20 DUP2 ADD SWAP1 PUSH2 0x980 SWAP2 SWAP1 PUSH2 0x3781 JUMP JUMPDEST DUP12 PUSH1 0x20 ADD PUSH1 0x20 DUP2 ADD SWAP1 PUSH2 0x993 SWAP2 SWAP1 PUSH2 0x3781 JUMP JUMPDEST DUP13 PUSH1 0x40 ADD CALLDATALOAD DUP14 DUP1 PUSH1 0x60 ADD SWAP1 PUSH2 0x9A8 SWAP2 SWAP1 PUSH2 0x3DC9 JUMP JUMPDEST PUSH1 0x40 MLOAD PUSH1 0x20 ADD PUSH2 0x9BC SWAP6 SWAP5 SWAP4 SWAP3 SWAP2 SWAP1 PUSH2 0x4013 JUMP JUMPDEST PUSH1 0x40 MLOAD PUSH1 0x20 DUP2 DUP4 SUB SUB DUP2 MSTORE SWAP1 PUSH1 0x40 MSTORE DUP1 MLOAD SWAP1 PUSH1 0x20 ADD KECCAK256 DUP2 MSTORE PUSH1 0x20 ADD SWAP1 DUP2 MSTORE PUSH1 0x20 ADD PUSH1 0x0 KECCAK256 PUSH1 0x0 DUP1 DUP3 ADD PUSH1 0x0 PUSH2 0x100 EXP DUP2 SLOAD SWAP1 PUSH8 0xFFFFFFFFFFFFFFFF MUL NOT AND SWAP1 SSTORE PUSH1 0x0 DUP3 ADD PUSH1 0x8 PUSH2 0x100 EXP DUP2 SLOAD SWAP1 PUSH8 0xFFFFFFFFFFFFFFFF MUL NOT AND SWAP1 SSTORE PUSH1 0x0 DUP3 ADD PUSH1 0x10 PUSH2 0x100 EXP DUP2 SLOAD SWAP1 PUSH4 0xFFFFFFFF MUL NOT AND SWAP1 SSTORE PUSH1 0x0 DUP3 ADD PUSH1 0x14 PUSH2 0x100 EXP DUP2 SLOAD SWAP1 PUSH4 0xFFFFFFFF MUL NOT AND SWAP1 SSTORE PUSH1 0x0 DUP3 ADD PUSH1 0x18 PUSH2 0x100 EXP DUP2 SLOAD SWAP1 PUSH4 0xFFFFFFFF MUL NOT AND SWAP1 SSTORE POP POP POP POP POP POP POP POP POP POP POP JUMP JUMPDEST PUSH1 0x0 PUSH2 0xA8D DUP6 DUP6 PUSH1 0x40 MLOAD PUSH2 0xA7E SWAP3 SWAP2 SWAP1 PUSH2 0x3E5C JUMP JUMPDEST PUSH1 0x40 MLOAD DUP1 SWAP2 SUB SWAP1 KECCAK256 DUP5 DUP5 PUSH2 0x1F7F JUMP JUMPDEST ISZERO PUSH2 0xAA1 JUMPI PUSH4 0x20C13B0B PUSH1 0xE0 SHL SWAP1 POP PUSH2 0xAA9 JUMP JUMPDEST PUSH1 0x0 PUSH1 0xE0 SHL SWAP1 POP JUMPDEST SWAP5 SWAP4 POP POP POP POP JUMP JUMPDEST DUP5 DUP5 DUP5 CHAINID PUSH1 0x40 MLOAD PUSH1 0x20 ADD PUSH2 0xAC8 SWAP5 SWAP4 SWAP3 SWAP2 SWAP1 PUSH2 0x40FE JUMP JUMPDEST PUSH1 0x40 MLOAD PUSH1 0x20 DUP2 DUP4 SUB SUB DUP2 MSTORE SWAP1 PUSH1 0x40 MSTORE DUP1 MLOAD SWAP1 PUSH1 0x20 ADD KECCAK256 DUP3 DUP3 PUSH1 0x0 DUP1 PUSH2 0xAF9 DUP6 DUP6 DUP6 SWAP1 PUSH2 0xAF4 SWAP2 SWAP1 PUSH2 0x3D76 JUMP JUMPDEST PUSH2 0x1CE0 JUMP JUMPDEST SWAP2 POP SWAP2 POP DUP2 DUP2 SWAP1 PUSH2 0xB40 JUMPI PUSH1 0x40 MLOAD PUSH32 0x8C379A000000000000000000000000000000000000000000000000000000000 DUP2 MSTORE PUSH1 0x4 ADD PUSH2 0xB37 SWAP2 SWAP1 PUSH2 0x3375 JUMP JUMPDEST PUSH1 0x40 MLOAD DUP1 SWAP2 SUB SWAP1 REVERT JUMPDEST POP PUSH1 0x0 JUMPDEST DUP5 DUP5 SWAP1 POP DUP2 LT ISZERO PUSH2 0xBD1 JUMPI PUSH1 0x1 PUSH2 0xB59 PUSH2 0x1CB3 JUMP JUMPDEST PUSH1 0x3 ADD PUSH1 0x0 DUP8 DUP8 DUP6 DUP2 DUP2 LT PUSH2 0xB71 JUMPI PUSH2 0xB70 PUSH2 0x3D8B JUMP JUMPDEST JUMPDEST SWAP1 POP PUSH1 0x20 MUL DUP2 ADD SWAP1 PUSH2 0xB83 SWAP2 SWAP1 PUSH2 0x3DC9 JUMP JUMPDEST PUSH1 0x40 MLOAD PUSH2 0xB91 SWAP3 SWAP2 SWAP1 PUSH2 0x3E5C JUMP JUMPDEST PUSH1 0x40 MLOAD DUP1 SWAP2 SUB SWAP1 KECCAK256 DUP2 MSTORE PUSH1 0x20 ADD SWAP1 DUP2 MSTORE PUSH1 0x20 ADD PUSH1 0x0 KECCAK256 PUSH1 0x0 PUSH2 0x100 EXP DUP2 SLOAD DUP2 PUSH1 0xFF MUL NOT AND SWAP1 DUP4 ISZERO ISZERO MUL OR SWAP1 SSTORE POP DUP1 DUP1 PUSH2 0xBC9 SWAP1 PUSH2 0x3EA4 JUMP JUMPDEST SWAP2 POP POP PUSH2 0xB44 JUMP JUMPDEST POP PUSH1 0x0 JUMPDEST DUP11 DUP11 SWAP1 POP DUP2 LT ISZERO PUSH2 0xC23 JUMPI PUSH2 0xC10 DUP12 DUP12 DUP4 DUP2 DUP2 LT PUSH2 0xBF6 JUMPI PUSH2 0xBF5 PUSH2 0x3D8B JUMP JUMPDEST JUMPDEST SWAP1 POP PUSH1 0x20 MUL ADD PUSH1 0x20 DUP2 ADD SWAP1 PUSH2 0xC0B SWAP2 SWAP1 PUSH2 0x3781 JUMP JUMPDEST PUSH2 0x2130 JUMP JUMPDEST DUP1 DUP1 PUSH2 0xC1B SWAP1 PUSH2 0x3EA4 JUMP JUMPDEST SWAP2 POP POP PUSH2 0xBD5 JUMP JUMPDEST POP POP POP POP POP POP POP POP POP POP POP JUMP JUMPDEST DUP5 DUP5 DUP5 CHAINID PUSH1 0x40 MLOAD PUSH1 0x20 ADD PUSH2 0xC47 SWAP5 SWAP4 SWAP3 SWAP2 SWAP1 PUSH2 0x4296 JUMP JUMPDEST PUSH1 0x40 MLOAD PUSH1 0x20 DUP2 DUP4 SUB SUB DUP2 MSTORE SWAP1 PUSH1 0x40 MSTORE DUP1 MLOAD SWAP1 PUSH1 0x20 ADD KECCAK256 DUP3 DUP3 PUSH1 0x0 DUP1 PUSH2 0xC78 DUP6 DUP6 DUP6 SWAP1 PUSH2 0xC73 SWAP2 SWAP1 PUSH2 0x3D76 JUMP JUMPDEST PUSH2 0x1CE0 JUMP JUMPDEST SWAP2 POP SWAP2 POP DUP2 DUP2 SWAP1 PUSH2 0xCBF JUMPI PUSH1 0x40 MLOAD PUSH32 0x8C379A000000000000000000000000000000000000000000000000000000000 DUP2 MSTORE PUSH1 0x4 ADD PUSH2 0xCB6 SWAP2 SWAP1 PUSH2 0x3375 JUMP JUMPDEST PUSH1 0x40 MLOAD DUP1 SWAP2 SUB SWAP1 REVERT JUMPDEST POP PUSH1 0x0 JUMPDEST DUP5 DUP5 SWAP1 POP DUP2 LT ISZERO PUSH2 0xD50 JUMPI PUSH1 0x1 PUSH2 0xCD8 PUSH2 0x1CB3 JUMP JUMPDEST PUSH1 0x3 ADD PUSH1 0x0 DUP8 DUP8 DUP6 DUP2 DUP2 LT PUSH2 0xCF0 JUMPI PUSH2 0xCEF PUSH2 0x3D8B JUMP JUMPDEST JUMPDEST SWAP1 POP PUSH1 0x20 MUL DUP2 ADD SWAP1 PUSH2 0xD02 SWAP2 SWAP1 PUSH2 0x3DC9 JUMP JUMPDEST PUSH1 0x40 MLOAD PUSH2 0xD10 SWAP3 SWAP2 SWAP1 PUSH2 0x3E5C JUMP JUMPDEST PUSH1 0x40 MLOAD DUP1 SWAP2 SUB SWAP1 KECCAK256 DUP2 MSTORE PUSH1 0x20 ADD SWAP1 DUP2 MSTORE PUSH1 0x20 ADD PUSH1 0x0 KECCAK256 PUSH1 0x0 PUSH2 0x100 EXP DUP2 SLOAD DUP2 PUSH1 0xFF MUL NOT AND SWAP1 DUP4 ISZERO ISZERO MUL OR SWAP1 SSTORE POP DUP1 DUP1 PUSH2 0xD48 SWAP1 PUSH2 0x3EA4 JUMP JUMPDEST SWAP2 POP POP PUSH2 0xCC3 JUMP JUMPDEST POP PUSH1 0x0 DUP10 PUSH1 0x80 ADD PUSH1 0x20 DUP2 ADD SWAP1 PUSH2 0xD66 SWAP2 SWAP1 PUSH2 0x42E3 JUMP JUMPDEST PUSH4 0xFFFFFFFF AND GT PUSH2 0xDAC JUMPI PUSH1 0x40 MLOAD PUSH32 0x8C379A000000000000000000000000000000000000000000000000000000000 DUP2 MSTORE PUSH1 0x4 ADD PUSH2 0xDA3 SWAP1 PUSH2 0x4382 JUMP JUMPDEST PUSH1 0x40 MLOAD DUP1 SWAP2 SUB SWAP1 REVERT JUMPDEST DUP9 PUSH2 0xDB5 PUSH2 0x2103 JUMP JUMPDEST PUSH1 0x0 ADD PUSH1 0x0 DUP13 PUSH1 0x0 ADD PUSH1 0x20 DUP2 ADD SWAP1 PUSH2 0xDCD SWAP2 SWAP1 PUSH2 0x3781 JUMP JUMPDEST DUP14 PUSH1 0x20 ADD PUSH1 0x20 DUP2 ADD SWAP1 PUSH2 0xDE0 SWAP2 SWAP1 PUSH2 0x3781 JUMP JUMPDEST DUP15 PUSH1 0x40 ADD CALLDATALOAD DUP16 DUP1 PUSH1 0x60 ADD SWAP1 PUSH2 0xDF5 SWAP2 SWAP1 PUSH2 0x3DC9 JUMP JUMPDEST PUSH1 0x40 MLOAD PUSH1 0x20 ADD PUSH2 0xE09 SWAP6 SWAP5 SWAP4 SWAP3 SWAP2 SWAP1 PUSH2 0x4013 JUMP JUMPDEST PUSH1 0x40 MLOAD PUSH1 0x20 DUP2 DUP4 SUB SUB DUP2 MSTORE SWAP1 PUSH1 0x40 MSTORE DUP1 MLOAD SWAP1 PUSH1 0x20 ADD KECCAK256 DUP2 MSTORE PUSH1 0x20 ADD SWAP1 DUP2 MSTORE PUSH1 0x20 ADD PUSH1 0x0 KECCAK256 DUP2 DUP2 PUSH2 0xE39 SWAP2 SWAP1 PUSH2 0x46D3 JUMP JUMPDEST SWAP1 POP POP POP POP POP POP POP POP POP POP POP POP JUMP JUMPDEST PUSH1 0x60 PUSH1 0x0 DUP4 DUP4 SWAP1 POP PUSH8 0xFFFFFFFFFFFFFFFF DUP2 GT ISZERO PUSH2 0xE69 JUMPI PUSH2 0xE68 PUSH2 0x3BA2 JUMP JUMPDEST JUMPDEST PUSH1 0x40 MLOAD SWAP1 DUP1 DUP3 MSTORE DUP1 PUSH1 0x20 MUL PUSH1 0x20 ADD DUP3 ADD PUSH1 0x40 MSTORE DUP1 ISZERO PUSH2 0xE9C JUMPI DUP2 PUSH1 0x20 ADD JUMPDEST PUSH1 0x60 DUP2 MSTORE PUSH1 0x20 ADD SWAP1 PUSH1 0x1 SWAP1 SUB SWAP1 DUP2 PUSH2 0xE87 JUMPI SWAP1 POP JUMPDEST POP SWAP1 POP PUSH1 0x0 JUMPDEST DUP5 DUP5 SWAP1 POP DUP2 LT ISZERO PUSH2 0xF0B JUMPI PUSH2 0xEDA DUP6 DUP6 DUP4 DUP2 DUP2 LT PUSH2 0xEC3 JUMPI PUSH2 0xEC2 PUSH2 0x3D8B JUMP JUMPDEST JUMPDEST SWAP1 POP PUSH1 0x20 MUL DUP2 ADD SWAP1 PUSH2 0xED5 SWAP2 SWAP1 PUSH2 0x3EEC JUMP JUMPDEST PUSH2 0x18C2 JUMP JUMPDEST DUP3 DUP3 DUP2 MLOAD DUP2 LT PUSH2 0xEED JUMPI PUSH2 0xEEC PUSH2 0x3D8B JUMP JUMPDEST JUMPDEST PUSH1 0x20 MUL PUSH1 0x20 ADD ADD DUP2 SWAP1 MSTORE POP DUP1 DUP1 PUSH2 0xF03 SWAP1 PUSH2 0x3EA4 JUMP JUMPDEST SWAP2 POP POP PUSH2 0xEA2 JUMP JUMPDEST POP DUP1 SWAP2 POP POP SWAP3 SWAP2 POP POP JUMP JUMPDEST PUSH1 0x40 MLOAD DUP1 PUSH1 0x40 ADD PUSH1 0x40 MSTORE DUP1 PUSH1 0xB DUP2 MSTORE PUSH1 0x20 ADD PUSH32 0x616C7068612D312E302E30000000000000000000000000000000000000000000 DUP2 MSTORE POP DUP2 JUMP JUMPDEST DUP4 DUP4 CHAINID PUSH1 0x40 MLOAD PUSH1 0x20 ADD PUSH2 0xF64 SWAP4 SWAP3 SWAP2 SWAP1 PUSH2 0x46E1 JUMP JUMPDEST PUSH1 0x40 MLOAD PUSH1 0x20 DUP2 DUP4 SUB SUB DUP2 MSTORE SWAP1 PUSH1 0x40 MSTORE DUP1 MLOAD SWAP1 PUSH1 0x20 ADD KECCAK256 DUP3 DUP3 PUSH1 0x0 DUP1 PUSH2 0xF95 DUP6 DUP6 DUP6 SWAP1 PUSH2 0xF90 SWAP2 SWAP1 PUSH2 0x3D76 JUMP JUMPDEST PUSH2 0x1CE0 JUMP JUMPDEST SWAP2 POP SWAP2 POP DUP2 DUP2 SWAP1 PUSH2 0xFDC JUMPI PUSH1 0x40 MLOAD PUSH32 0x8C379A000000000000000000000000000000000000000000000000000000000 DUP2 MSTORE PUSH1 0x4 ADD PUSH2 0xFD3 SWAP2 SWAP1 PUSH2 0x3375 JUMP JUMPDEST PUSH1 0x40 MLOAD DUP1 SWAP2 SUB SWAP1 REVERT JUMPDEST POP PUSH1 0x0 JUMPDEST DUP5 DUP5 SWAP1 POP DUP2 LT ISZERO PUSH2 0x106D JUMPI PUSH1 0x1 PUSH2 0xFF5 PUSH2 0x1CB3 JUMP JUMPDEST PUSH1 0x3 ADD PUSH1 0x0 DUP8 DUP8 DUP6 DUP2 DUP2 LT PUSH2 0x100D JUMPI PUSH2 0x100C PUSH2 0x3D8B JUMP JUMPDEST JUMPDEST SWAP1 POP PUSH1 0x20 MUL DUP2 ADD SWAP1 PUSH2 0x101F SWAP2 SWAP1 PUSH2 0x3DC9 JUMP JUMPDEST PUSH1 0x40 MLOAD PUSH2 0x102D SWAP3 SWAP2 SWAP1 PUSH2 0x3E5C JUMP JUMPDEST PUSH1 0x40 MLOAD DUP1 SWAP2 SUB SWAP1 KECCAK256 DUP2 MSTORE PUSH1 0x20 ADD SWAP1 DUP2 MSTORE PUSH1 0x20 ADD PUSH1 0x0 KECCAK256 PUSH1 0x0 PUSH2 0x100 EXP DUP2 SLOAD DUP2 PUSH1 0xFF MUL NOT AND SWAP1 DUP4 ISZERO ISZERO MUL OR SWAP1 SSTORE POP DUP1 DUP1 PUSH2 0x1065 SWAP1 PUSH2 0x3EA4 JUMP JUMPDEST SWAP2 POP POP PUSH2 0xFE0 JUMP JUMPDEST POP PUSH1 0x0 PUSH2 0x1078 PUSH2 0x1CB3 JUMP JUMPDEST PUSH1 0x0 ADD SLOAD GT DUP1 ISZERO PUSH2 0x109F JUMPI POP PUSH2 0x108C PUSH2 0x1CB3 JUMP JUMPDEST PUSH1 0x1 ADD SLOAD PUSH2 0x1098 PUSH2 0x1CB3 JUMP JUMPDEST PUSH1 0x0 ADD SLOAD GT ISZERO JUMPDEST PUSH2 0x10DE JUMPI PUSH1 0x40 MLOAD PUSH32 0x8C379A000000000000000000000000000000000000000000000000000000000 DUP2 MSTORE PUSH1 0x4 ADD PUSH2 0x10D5 SWAP1 PUSH2 0x4764 JUMP JUMPDEST PUSH1 0x40 MLOAD DUP1 SWAP2 SUB SWAP1 REVERT JUMPDEST DUP9 PUSH2 0x10E7 PUSH2 0x1CB3 JUMP JUMPDEST PUSH1 0x0 ADD DUP2 SWAP1 SSTORE POP POP POP POP POP POP POP POP POP POP JUMP JUMPDEST DUP4 DUP4 CHAINID PUSH1 0x40 MLOAD PUSH1 0x20 ADD PUSH2 0x110E SWAP4 SWAP3 SWAP2 SWAP1 PUSH2 0x4784 JUMP JUMPDEST PUSH1 0x40 MLOAD PUSH1 0x20 DUP2 DUP4 SUB SUB DUP2 MSTORE SWAP1 PUSH1 0x40 MSTORE DUP1 MLOAD SWAP1 PUSH1 0x20 ADD KECCAK256 DUP3 DUP3 PUSH1 0x0 DUP1 PUSH2 0x113F DUP6 DUP6 DUP6 SWAP1 PUSH2 0x113A SWAP2 SWAP1 PUSH2 0x3D76 JUMP JUMPDEST PUSH2 0x1CE0 JUMP JUMPDEST SWAP2 POP SWAP2 POP DUP2 DUP2 SWAP1 PUSH2 0x1186 JUMPI PUSH1 0x40 MLOAD PUSH32 0x8C379A000000000000000000000000000000000000000000000000000000000 DUP2 MSTORE PUSH1 0x4 ADD PUSH2 0x117D SWAP2 SWAP1 PUSH2 0x3375 JUMP JUMPDEST PUSH1 0x40 MLOAD DUP1 SWAP2 SUB SWAP1 REVERT JUMPDEST POP PUSH1 0x0 JUMPDEST DUP5 DUP5 SWAP1 POP DUP2 LT ISZERO PUSH2 0x1217 JUMPI PUSH1 0x1 PUSH2 0x119F PUSH2 0x1CB3 JUMP JUMPDEST PUSH1 0x3 ADD PUSH1 0x0 DUP8 DUP8 DUP6 DUP2 DUP2 LT PUSH2 0x11B7 JUMPI PUSH2 0x11B6 PUSH2 0x3D8B JUMP JUMPDEST JUMPDEST SWAP1 POP PUSH1 0x20 MUL DUP2 ADD SWAP1 PUSH2 0x11C9 SWAP2 SWAP1 PUSH2 0x3DC9 JUMP JUMPDEST PUSH1 0x40 MLOAD PUSH2 0x11D7 SWAP3 SWAP2 SWAP1 PUSH2 0x3E5C JUMP JUMPDEST PUSH1 0x40 MLOAD DUP1 SWAP2 SUB SWAP1 KECCAK256 DUP2 MSTORE PUSH1 0x20 ADD SWAP1 DUP2 MSTORE PUSH1 0x20 ADD PUSH1 0x0 KECCAK256 PUSH1 0x0 PUSH2 0x100 EXP DUP2 SLOAD DUP2 PUSH1 0xFF MUL NOT AND SWAP1 DUP4 ISZERO ISZERO MUL OR SWAP1 SSTORE POP DUP1 DUP1 PUSH2 0x120F SWAP1 PUSH2 0x3EA4 JUMP JUMPDEST SWAP2 POP POP PUSH2 0x118A JUMP JUMPDEST POP DUP9 PUSH20 0xFFFFFFFFFFFFFFFFFFFFFFFFFFFFFFFFFFFFFFFF AND PUSH4 0xFEC5C09A PUSH1 0x40 MLOAD DUP2 PUSH4 0xFFFFFFFF AND PUSH1 0xE0 SHL DUP2 MSTORE PUSH1 0x4 ADD PUSH1 0x20 PUSH1 0x40 MLOAD DUP1 DUP4 SUB DUP2 DUP7 GAS STATICCALL ISZERO DUP1 ISZERO PUSH2 0x1263 JUMPI RETURNDATASIZE PUSH1 0x0 DUP1 RETURNDATACOPY RETURNDATASIZE PUSH1 0x0 REVERT JUMPDEST POP POP POP POP PUSH1 0x40 MLOAD RETURNDATASIZE PUSH1 0x1F NOT PUSH1 0x1F DUP3 ADD AND DUP3 ADD DUP1 PUSH1 0x40 MSTORE POP DUP2 ADD SWAP1 PUSH2 0x1287 SWAP2 SWAP1 PUSH2 0x47E7 JUMP JUMPDEST PUSH2 0x12C6 JUMPI PUSH1 0x40 MLOAD PUSH32 0x8C379A000000000000000000000000000000000000000000000000000000000 DUP2 MSTORE PUSH1 0x4 ADD PUSH2 0x12BD SWAP1 PUSH2 0x4860 JUMP JUMPDEST PUSH1 0x40 MLOAD DUP1 SWAP2 SUB SWAP1 REVERT JUMPDEST DUP9 ADDRESS SSTORE POP POP POP POP POP POP POP POP POP JUMP JUMPDEST PUSH1 0x60 DUP4 CHAINID PUSH1 0x40 MLOAD PUSH1 0x20 ADD PUSH2 0x12E9 SWAP3 SWAP2 SWAP1 PUSH2 0x4905 JUMP JUMPDEST PUSH1 0x40 MLOAD PUSH1 0x20 DUP2 DUP4 SUB SUB DUP2 MSTORE SWAP1 PUSH1 0x40 MSTORE DUP1 MLOAD SWAP1 PUSH1 0x20 ADD KECCAK256 DUP4 DUP4 PUSH1 0x0 DUP1 PUSH2 0x131A DUP6 DUP6 DUP6 SWAP1 PUSH2 0x1315 SWAP2 SWAP1 PUSH2 0x3D76 JUMP JUMPDEST PUSH2 0x1CE0 JUMP JUMPDEST SWAP2 POP SWAP2 POP DUP2 DUP2 SWAP1 PUSH2 0x1361 JUMPI PUSH1 0x40 MLOAD PUSH32 0x8C379A000000000000000000000000000000000000000000000000000000000 DUP2 MSTORE PUSH1 0x4 ADD PUSH2 0x1358 SWAP2 SWAP1 PUSH2 0x3375 JUMP JUMPDEST PUSH1 0x40 MLOAD DUP1 SWAP2 SUB SWAP1 REVERT JUMPDEST POP PUSH1 0x0 JUMPDEST DUP5 DUP5 SWAP1 POP DUP2 LT ISZERO PUSH2 0x13F2 JUMPI PUSH1 0x1 PUSH2 0x137A PUSH2 0x1CB3 JUMP JUMPDEST PUSH1 0x3 ADD PUSH1 0x0 DUP8 DUP8 DUP6 DUP2 DUP2 LT PUSH2 0x1392 JUMPI PUSH2 0x1391 PUSH2 0x3D8B JUMP JUMPDEST JUMPDEST SWAP1 POP PUSH1 0x20 MUL DUP2 ADD SWAP1 PUSH2 0x13A4 SWAP2 SWAP1 PUSH2 0x3DC9 JUMP JUMPDEST PUSH1 0x40 MLOAD PUSH2 0x13B2 SWAP3 SWAP2 SWAP1 PUSH2 0x3E5C JUMP JUMPDEST PUSH1 0x40 MLOAD DUP1 SWAP2 SUB SWAP1 KECCAK256 DUP2 MSTORE PUSH1 0x20 ADD SWAP1 DUP2 MSTORE PUSH1 0x20 ADD PUSH1 0x0 KECCAK256 PUSH1 0x0 PUSH2 0x100 EXP DUP2 SLOAD DUP2 PUSH1 0xFF MUL NOT AND SWAP1 DUP4 ISZERO ISZERO MUL OR SWAP1 SSTORE POP DUP1 DUP1 PUSH2 0x13EA SWAP1 PUSH2 0x3EA4 JUMP JUMPDEST SWAP2 POP POP PUSH2 0x1365 JUMP JUMPDEST POP PUSH2 0x13FC DUP10 PUSH2 0x1ED0 JUMP JUMPDEST SWAP6 POP POP POP POP POP POP SWAP4 SWAP3 POP POP POP JUMP JUMPDEST PUSH1 0x0 PUSH2 0x1414 PUSH2 0x1CB3 JUMP JUMPDEST PUSH1 0x0 ADD SLOAD SWAP1 POP SWAP1 JUMP JUMPDEST DUP7 DUP7 DUP7 DUP7 DUP7 CHAINID PUSH1 0x40 MLOAD PUSH1 0x20 ADD PUSH2 0x1438 SWAP7 SWAP6 SWAP5 SWAP4 SWAP3 SWAP2 SWAP1 PUSH2 0x49B0 JUMP JUMPDEST PUSH1 0x40 MLOAD PUSH1 0x20 DUP2 DUP4 SUB SUB DUP2 MSTORE SWAP1 PUSH1 0x40 MSTORE DUP1 MLOAD SWAP1 PUSH1 0x20 ADD KECCAK256 DUP3 DUP3 PUSH1 0x0 DUP1 PUSH2 0x1469 DUP6 DUP6 DUP6 SWAP1 PUSH2 0x1464 SWAP2 SWAP1 PUSH2 0x3D76 JUMP JUMPDEST PUSH2 0x1CE0 JUMP JUMPDEST SWAP2 POP SWAP2 POP DUP2 DUP2 SWAP1 PUSH2 0x14B0 JUMPI PUSH1 0x40 MLOAD PUSH32 0x8C379A000000000000000000000000000000000000000000000000000000000 DUP2 MSTORE PUSH1 0x4 ADD PUSH2 0x14A7 SWAP2 SWAP1 PUSH2 0x3375 JUMP JUMPDEST PUSH1 0x40 MLOAD DUP1 SWAP2 SUB SWAP1 REVERT JUMPDEST POP PUSH1 0x0 JUMPDEST DUP5 DUP5 SWAP1 POP DUP2 LT ISZERO PUSH2 0x1541 JUMPI PUSH1 0x1 PUSH2 0x14C9 PUSH2 0x1CB3 JUMP JUMPDEST PUSH1 0x3 ADD PUSH1 0x0 DUP8 DUP8 DUP6 DUP2 DUP2 LT PUSH2 0x14E1 JUMPI PUSH2 0x14E0 PUSH2 0x3D8B JUMP JUMPDEST JUMPDEST SWAP1 POP PUSH1 0x20 MUL DUP2 ADD SWAP1 PUSH2 0x14F3 SWAP2 SWAP1 PUSH2 0x3DC9 JUMP JUMPDEST PUSH1 0x40 MLOAD PUSH2 0x1501 SWAP3 SWAP2 SWAP1 PUSH2 0x3E5C JUMP JUMPDEST PUSH1 0x40 MLOAD DUP1 SWAP2 SUB SWAP1 KECCAK256 DUP2 MSTORE PUSH1 0x20 ADD SWAP1 DUP2 MSTORE PUSH1 0x20 ADD PUSH1 0x0 KECCAK256 PUSH1 0x0 PUSH2 0x100 EXP DUP2 SLOAD DUP2 PUSH1 0xFF MUL NOT AND SWAP1 DUP4 ISZERO ISZERO MUL OR SWAP1 SSTORE POP DUP1 DUP1 PUSH2 0x1539 SWAP1 PUSH2 0x3EA4 JUMP JUMPDEST SWAP2 POP POP PUSH2 0x14B4 JUMP JUMPDEST POP PUSH1 0x0 JUMPDEST DUP13 DUP13 SWAP1 POP DUP2 LT ISZERO PUSH2 0x15AD JUMPI PUSH2 0x159A DUP14 DUP14 DUP4 DUP2 DUP2 LT PUSH2 0x1566 JUMPI PUSH2 0x1565 PUSH2 0x3D8B JUMP JUMPDEST JUMPDEST SWAP1 POP PUSH1 0x20 MUL ADD PUSH1 0x20 DUP2 ADD SWAP1 PUSH2 0x157B SWAP2 SWAP1 PUSH2 0x3781 JUMP JUMPDEST DUP13 DUP13 DUP5 DUP2 DUP2 LT PUSH2 0x158E JUMPI PUSH2 0x158D PUSH2 0x3D8B JUMP JUMPDEST JUMPDEST SWAP1 POP PUSH1 0x20 MUL ADD CALLDATALOAD PUSH2 0x225B JUMP JUMPDEST DUP1 DUP1 PUSH2 0x15A5 SWAP1 PUSH2 0x3EA4 JUMP JUMPDEST SWAP2 POP POP PUSH2 0x1545 JUMP JUMPDEST POP POP POP POP POP POP POP POP POP POP POP POP POP JUMP JUMPDEST PUSH1 0x0 PUSH4 0xBC197C81 PUSH1 0xE0 SHL SWAP1 POP SWAP9 SWAP8 POP POP POP POP POP POP POP POP JUMP JUMPDEST PUSH2 0x15DC PUSH2 0x22CE JUMP JUMPDEST PUSH1 0x0 ADD PUSH1 0x0 SWAP1 SLOAD SWAP1 PUSH2 0x100 EXP SWAP1 DIV PUSH1 0xFF AND ISZERO PUSH2 0x162D JUMPI PUSH1 0x40 MLOAD PUSH32 0x8C379A000000000000000000000000000000000000000000000000000000000 DUP2 MSTORE PUSH1 0x4 ADD PUSH2 0x1624 SWAP1 PUSH2 0x4A53 JUMP JUMPDEST PUSH1 0x40 MLOAD DUP1 SWAP2 SUB SWAP1 REVERT JUMPDEST PUSH2 0x1638 DUP2 PUSH1 0x1 PUSH2 0x225B JUMP JUMPDEST PUSH1 0x1 PUSH2 0x1642 PUSH2 0x22CE JUMP JUMPDEST PUSH1 0x0 ADD PUSH1 0x0 PUSH2 0x100 EXP DUP2 SLOAD DUP2 PUSH1 0xFF MUL NOT AND SWAP1 DUP4 ISZERO ISZERO MUL OR SWAP1 SSTORE POP POP JUMP JUMPDEST DUP5 DUP5 DUP5 CHAINID PUSH1 0x40 MLOAD PUSH1 0x20 ADD PUSH2 0x1676 SWAP5 SWAP4 SWAP3 SWAP2 SWAP1 PUSH2 0x4A73 JUMP JUMPDEST PUSH1 0x40 MLOAD PUSH1 0x20 DUP2 DUP4 SUB SUB DUP2 MSTORE SWAP1 PUSH1 0x40 MSTORE DUP1 MLOAD SWAP1 PUSH1 0x20 ADD KECCAK256 DUP3 DUP3 PUSH1 0x0 DUP1 PUSH2 0x16A7 DUP6 DUP6 DUP6 SWAP1 PUSH2 0x16A2 SWAP2 SWAP1 PUSH2 0x3D76 JUMP JUMPDEST PUSH2 0x1CE0 JUMP JUMPDEST SWAP2 POP SWAP2 POP DUP2 DUP2 SWAP1 PUSH2 0x16EE JUMPI PUSH1 0x40 MLOAD PUSH32 0x8C379A000000000000000000000000000000000000000000000000000000000 DUP2 MSTORE PUSH1 0x4 ADD PUSH2 0x16E5 SWAP2 SWAP1 PUSH2 0x3375 JUMP JUMPDEST PUSH1 0x40 MLOAD DUP1 SWAP2 SUB SWAP1 REVERT JUMPDEST POP PUSH1 0x0 JUMPDEST DUP5 DUP5 SWAP1 POP DUP2 LT ISZERO PUSH2 0x177F JUMPI PUSH1 0x1 PUSH2 0x1707 PUSH2 0x1CB3 JUMP JUMPDEST PUSH1 0x3 ADD PUSH1 0x0 DUP8 DUP8 DUP6 DUP2 DUP2 LT PUSH2 0x171F JUMPI PUSH2 0x171E PUSH2 0x3D8B JUMP JUMPDEST JUMPDEST SWAP1 POP PUSH1 0x20 MUL DUP2 ADD SWAP1 PUSH2 0x1731 SWAP2 SWAP1 PUSH2 0x3DC9 JUMP JUMPDEST PUSH1 0x40 MLOAD PUSH2 0x173F SWAP3 SWAP2 SWAP1 PUSH2 0x3E5C JUMP JUMPDEST PUSH1 0x40 MLOAD DUP1 SWAP2 SUB SWAP1 KECCAK256 DUP2 MSTORE PUSH1 0x20 ADD SWAP1 DUP2 MSTORE PUSH1 0x20 ADD PUSH1 0x0 KECCAK256 PUSH1 0x0 PUSH2 0x100 EXP DUP2 SLOAD DUP2 PUSH1 0xFF MUL NOT AND SWAP1 DUP4 ISZERO ISZERO MUL OR SWAP1 SSTORE POP DUP1 DUP1 PUSH2 0x1777 SWAP1 PUSH2 0x3EA4 JUMP JUMPDEST SWAP2 POP POP PUSH2 0x16F2 JUMP JUMPDEST POP DUP9 PUSH2 0x1789 PUSH2 0x1CB3 JUMP JUMPDEST PUSH1 0x2 ADD PUSH1 0x0 DUP13 PUSH20 0xFFFFFFFFFFFFFFFFFFFFFFFFFFFFFFFFFFFFFFFF AND PUSH20 0xFFFFFFFFFFFFFFFFFFFFFFFFFFFFFFFFFFFFFFFF AND DUP2 MSTORE PUSH1 0x20 ADD SWAP1 DUP2 MSTORE PUSH1 0x20 ADD PUSH1 0x0 KECCAK256 SLOAD PUSH2 0x17D2 PUSH2 0x1CB3 JUMP JUMPDEST PUSH1 0x1 ADD SLOAD PUSH2 0x17E0 SWAP2 SWAP1 PUSH2 0x4AB8 JUMP JUMPDEST PUSH2 0x17EA SWAP2 SWAP1 PUSH2 0x4AEC JUMP JUMPDEST PUSH2 0x17F2 PUSH2 0x1CB3 JUMP JUMPDEST PUSH1 0x1 ADD DUP2 SWAP1 SSTORE POP PUSH1 0x0 PUSH2 0x1803 PUSH2 0x1CB3 JUMP JUMPDEST PUSH1 0x1 ADD SLOAD GT DUP1 ISZERO PUSH2 0x182A JUMPI POP PUSH2 0x1817 PUSH2 0x1CB3 JUMP JUMPDEST PUSH1 0x0 ADD SLOAD PUSH2 0x1823 PUSH2 0x1CB3 JUMP JUMPDEST PUSH1 0x1 ADD SLOAD LT ISZERO JUMPDEST PUSH2 0x1869 JUMPI PUSH1 0x40 MLOAD PUSH32 0x8C379A000000000000000000000000000000000000000000000000000000000 DUP2 MSTORE PUSH1 0x4 ADD PUSH2 0x1860 SWAP1 PUSH2 0x4B6C JUMP JUMPDEST PUSH1 0x40 MLOAD DUP1 SWAP2 SUB SWAP1 REVERT JUMPDEST DUP9 PUSH2 0x1872 PUSH2 0x1CB3 JUMP JUMPDEST PUSH1 0x2 ADD PUSH1 0x0 DUP13 PUSH20 0xFFFFFFFFFFFFFFFFFFFFFFFFFFFFFFFFFFFFFFFF AND PUSH20 0xFFFFFFFFFFFFFFFFFFFFFFFFFFFFFFFFFFFFFFFF AND DUP2 MSTORE PUSH1 0x20 ADD SWAP1 DUP2 MSTORE PUSH1 0x20 ADD PUSH1 0x0 KECCAK256 DUP2 SWAP1 SSTORE POP POP POP POP POP POP POP POP POP POP POP JUMP JUMPDEST PUSH1 0x60 PUSH1 0x0 PUSH2 0x18D0 CALLER DUP5 PUSH2 0x22FB JUMP JUMPDEST SWAP1 POP PUSH1 0x0 DUP2 PUSH1 0x0 ADD PUSH1 0x18 SWAP1 SLOAD SWAP1 PUSH2 0x100 EXP SWAP1 DIV PUSH4 0xFFFFFFFF AND PUSH4 0xFFFFFFFF AND SUB PUSH2 0x1902 JUMPI PUSH2 0x18FF PUSH1 0x0 DUP5 PUSH2 0x22FB JUMP JUMPDEST SWAP1 POP JUMPDEST PUSH1 0x0 DUP2 PUSH1 0x0 ADD PUSH1 0x18 SWAP1 SLOAD SWAP1 PUSH2 0x100 EXP SWAP1 DIV PUSH4 0xFFFFFFFF AND PUSH4 0xFFFFFFFF AND GT PUSH2 0x195F JUMPI PUSH1 0x40 MLOAD PUSH32 0x8C379A000000000000000000000000000000000000000000000000000000000 DUP2 MSTORE PUSH1 0x4 ADD PUSH2 0x1956 SWAP1 PUSH2 0x4BD8 JUMP JUMPDEST PUSH1 0x40 MLOAD DUP1 SWAP2 SUB SWAP1 REVERT JUMPDEST PUSH1 0x0 DUP2 PUSH1 0x0 ADD PUSH1 0x0 SWAP1 SLOAD SWAP1 PUSH2 0x100 EXP SWAP1 DIV PUSH8 0xFFFFFFFFFFFFFFFF AND PUSH8 0xFFFFFFFFFFFFFFFF AND EQ DUP1 PUSH2 0x19B2 JUMPI POP DUP1 PUSH1 0x0 ADD PUSH1 0x0 SWAP1 SLOAD SWAP1 PUSH2 0x100 EXP SWAP1 DIV PUSH8 0xFFFFFFFFFFFFFFFF AND PUSH8 0xFFFFFFFFFFFFFFFF AND TIMESTAMP LT ISZERO JUMPDEST PUSH2 0x19F1 JUMPI PUSH1 0x40 MLOAD PUSH32 0x8C379A000000000000000000000000000000000000000000000000000000000 DUP2 MSTORE PUSH1 0x4 ADD PUSH2 0x19E8 SWAP1 PUSH2 0x4C44 JUMP JUMPDEST PUSH1 0x40 MLOAD DUP1 SWAP2 SUB SWAP1 REVERT JUMPDEST PUSH1 0x0 DUP2 PUSH1 0x0 ADD PUSH1 0x8 SWAP1 SLOAD SWAP1 PUSH2 0x100 EXP SWAP1 DIV PUSH8 0xFFFFFFFFFFFFFFFF AND PUSH8 0xFFFFFFFFFFFFFFFF AND EQ DUP1 PUSH2 0x1A3C JUMPI POP PUSH1 0x0 DUP2 PUSH1 0x0 ADD PUSH1 0x10 SWAP1 SLOAD SWAP1 PUSH2 0x100 EXP SWAP1 DIV PUSH4 0xFFFFFFFF AND PUSH4 0xFFFFFFFF AND EQ JUMPDEST DUP1 PUSH2 0x1A8E JUMPI POP DUP1 PUSH1 0x0 ADD PUSH1 0x10 SWAP1 SLOAD SWAP1 PUSH2 0x100 EXP SWAP1 DIV PUSH4 0xFFFFFFFF AND PUSH4 0xFFFFFFFF AND DUP2 PUSH1 0x0 ADD PUSH1 0x8 SWAP1 SLOAD SWAP1 PUSH2 0x100 EXP SWAP1 DIV PUSH8 0xFFFFFFFFFFFFFFFF AND PUSH2 0x1A80 SWAP2 SWAP1 PUSH2 0x4C64 JUMP JUMPDEST PUSH8 0xFFFFFFFFFFFFFFFF AND TIMESTAMP LT ISZERO JUMPDEST PUSH2 0x1ACD JUMPI PUSH1 0x40 MLOAD PUSH32 0x8C379A000000000000000000000000000000000000000000000000000000000 DUP2 MSTORE PUSH1 0x4 ADD PUSH2 0x1AC4 SWAP1 PUSH2 0x4CEC JUMP JUMPDEST PUSH1 0x40 MLOAD DUP1 SWAP2 SUB SWAP1 REVERT JUMPDEST DUP1 PUSH1 0x0 ADD PUSH1 0x18 SWAP1 SLOAD SWAP1 PUSH2 0x100 EXP SWAP1 DIV PUSH4 0xFFFFFFFF AND PUSH4 0xFFFFFFFF AND DUP2 PUSH1 0x0 ADD PUSH1 0x14 SWAP1 SLOAD SWAP1 PUSH2 0x100 EXP SWAP1 DIV PUSH4 0xFFFFFFFF AND PUSH4 0xFFFFFFFF AND LT PUSH2 0x1B43 JUMPI PUSH1 0x40 MLOAD PUSH32 0x8C379A000000000000000000000000000000000000000000000000000000000 DUP2 MSTORE PUSH1 0x4 ADD PUSH2 0x1B3A SWAP1 PUSH2 0x4D58 JUMP JUMPDEST PUSH1 0x40 MLOAD DUP1 SWAP2 SUB SWAP1 REVERT JUMPDEST PUSH1 0x1 DUP2 PUSH1 0x0 ADD PUSH1 0x14 DUP3 DUP3 DUP3 SWAP1 SLOAD SWAP1 PUSH2 0x100 EXP SWAP1 DIV PUSH4 0xFFFFFFFF AND PUSH2 0x1B67 SWAP2 SWAP1 PUSH2 0x4D78 JUMP JUMPDEST SWAP3 POP PUSH2 0x100 EXP DUP2 SLOAD DUP2 PUSH4 0xFFFFFFFF MUL NOT AND SWAP1 DUP4 PUSH4 0xFFFFFFFF AND MUL OR SWAP1 SSTORE POP TIMESTAMP DUP2 PUSH1 0x0 ADD PUSH1 0x8 PUSH2 0x100 EXP DUP2 SLOAD DUP2 PUSH8 0xFFFFFFFFFFFFFFFF MUL NOT AND SWAP1 DUP4 PUSH8 0xFFFFFFFFFFFFFFFF AND MUL OR SWAP1 SSTORE POP PUSH2 0x1BB9 DUP4 PUSH2 0x1ED0 JUMP JUMPDEST SWAP2 POP POP SWAP2 SWAP1 POP JUMP JUMPDEST PUSH1 0x0 PUSH2 0x1BCB PUSH2 0x1CB3 JUMP JUMPDEST PUSH1 0x2 ADD PUSH1 0x0 DUP4 PUSH20 0xFFFFFFFFFFFFFFFFFFFFFFFFFFFFFFFFFFFFFFFF AND PUSH20 0xFFFFFFFFFFFFFFFFFFFFFFFFFFFFFFFFFFFFFFFF AND DUP2 MSTORE PUSH1 0x20 ADD SWAP1 DUP2 MSTORE PUSH1 0x20 ADD PUSH1 0x0 KECCAK256 SLOAD SWAP1 POP SWAP2 SWAP1 POP JUMP JUMPDEST PUSH1 0x0 PUSH4 0xF23A6E61 PUSH1 0xE0 SHL SWAP1 POP SWAP7 SWAP6 POP POP POP POP POP POP JUMP JUMPDEST PUSH1 0x0 PUSH1 0x1 SWAP1 POP SWAP1 JUMP JUMPDEST PUSH1 0x0 PUSH32 0x36E7817500000000000000000000000000000000000000000000000000000000 PUSH28 0xFFFFFFFFFFFFFFFFFFFFFFFFFFFFFFFFFFFFFFFFFFFFFFFFFFFFFFFF NOT AND DUP3 PUSH28 0xFFFFFFFFFFFFFFFFFFFFFFFFFFFFFFFFFFFFFFFFFFFFFFFFFFFFFFFF NOT AND SUB PUSH2 0x1CA2 JUMPI PUSH1 0x1 SWAP1 POP PUSH2 0x1CAE JUMP JUMPDEST PUSH2 0x1CAB DUP3 PUSH2 0x2373 JUMP JUMPDEST SWAP1 POP JUMPDEST SWAP2 SWAP1 POP JUMP JUMPDEST PUSH1 0x0 DUP1 PUSH32 0x255F4A56BD3AD76424E31ED8855EF9AD14A0CE4E67508C76FF082E5C1466B12F SWAP1 POP DUP1 SWAP2 POP POP SWAP1 JUMP JUMPDEST PUSH1 0x0 PUSH1 0x60 PUSH1 0x0 DUP1 JUMPDEST DUP5 MLOAD DUP2 LT ISZERO PUSH2 0x1E78 JUMPI PUSH1 0x0 PUSH2 0x1D17 DUP8 DUP8 DUP5 DUP2 MLOAD DUP2 LT PUSH2 0x1D0A JUMPI PUSH2 0x1D09 PUSH2 0x3D8B JUMP JUMPDEST JUMPDEST PUSH1 0x20 MUL PUSH1 0x20 ADD ADD MLOAD PUSH2 0x23F4 JUMP JUMPDEST SWAP1 POP PUSH1 0x0 PUSH2 0x1D23 PUSH2 0x1CB3 JUMP JUMPDEST PUSH1 0x2 ADD PUSH1 0x0 DUP4 PUSH20 0xFFFFFFFFFFFFFFFFFFFFFFFFFFFFFFFFFFFFFFFF AND PUSH20 0xFFFFFFFFFFFFFFFFFFFFFFFFFFFFFFFFFFFFFFFF AND DUP2 MSTORE PUSH1 0x20 ADD SWAP1 DUP2 MSTORE PUSH1 0x20 ADD PUSH1 0x0 KECCAK256 SLOAD SUB PUSH2 0x1D90 JUMPI PUSH1 0x0 PUSH1 0x40 MLOAD DUP1 PUSH1 0x60 ADD PUSH1 0x40 MSTORE DUP1 PUSH1 0x32 DUP2 MSTORE PUSH1 0x20 ADD PUSH2 0x52BB PUSH1 0x32 SWAP2 CODECOPY SWAP5 POP SWAP5 POP POP POP POP PUSH2 0x1EC9 JUMP JUMPDEST PUSH1 0x0 DUP7 DUP4 DUP2 MLOAD DUP2 LT PUSH2 0x1DA5 JUMPI PUSH2 0x1DA4 PUSH2 0x3D8B JUMP JUMPDEST JUMPDEST PUSH1 0x20 MUL PUSH1 0x20 ADD ADD MLOAD DUP1 MLOAD SWAP1 PUSH1 0x20 ADD KECCAK256 SWAP1 POP PUSH2 0x1DBE PUSH2 0x1CB3 JUMP JUMPDEST PUSH1 0x3 ADD PUSH1 0x0 DUP3 DUP2 MSTORE PUSH1 0x20 ADD SWAP1 DUP2 MSTORE PUSH1 0x20 ADD PUSH1 0x0 KECCAK256 PUSH1 0x0 SWAP1 SLOAD SWAP1 PUSH2 0x100 EXP SWAP1 DIV PUSH1 0xFF AND ISZERO PUSH2 0x1E0D JUMPI PUSH1 0x0 PUSH1 0x40 MLOAD DUP1 PUSH1 0x60 ADD PUSH1 0x40 MSTORE DUP1 PUSH1 0x23 DUP2 MSTORE PUSH1 0x20 ADD PUSH2 0x52ED PUSH1 0x23 SWAP2 CODECOPY SWAP6 POP SWAP6 POP POP POP POP POP PUSH2 0x1EC9 JUMP JUMPDEST PUSH2 0x1E15 PUSH2 0x1CB3 JUMP JUMPDEST PUSH1 0x2 ADD PUSH1 0x0 DUP4 PUSH20 0xFFFFFFFFFFFFFFFFFFFFFFFFFFFFFFFFFFFFFFFF AND PUSH20 0xFFFFFFFFFFFFFFFFFFFFFFFFFFFFFFFFFFFFFFFF AND DUP2 MSTORE PUSH1 0x20 ADD SWAP1 DUP2 MSTORE PUSH1 0x20 ADD PUSH1 0x0 KECCAK256 SLOAD DUP5 PUSH2 0x1E61 SWAP2 SWAP1 PUSH2 0x4AEC JUMP JUMPDEST SWAP4 POP POP POP DUP1 DUP1 PUSH2 0x1E70 SWAP1 PUSH2 0x3EA4 JUMP JUMPDEST SWAP2 POP POP PUSH2 0x1CE8 JUMP JUMPDEST POP PUSH2 0x1E81 PUSH2 0x1CB3 JUMP JUMPDEST PUSH1 0x0 ADD SLOAD DUP2 LT ISZERO PUSH2 0x1EB1 JUMPI PUSH1 0x0 PUSH1 0x40 MLOAD DUP1 PUSH1 0x60 ADD PUSH1 0x40 MSTORE DUP1 PUSH1 0x26 DUP2 MSTORE PUSH1 0x20 ADD PUSH2 0x5295 PUSH1 0x26 SWAP2 CODECOPY SWAP3 POP SWAP3 POP POP PUSH2 0x1EC9 JUMP JUMPDEST PUSH1 0x1 PUSH1 0x40 MLOAD DUP1 PUSH1 0x20 ADD PUSH1 0x40 MSTORE DUP1 PUSH1 0x0 DUP2 MSTORE POP SWAP3 POP SWAP3 POP POP JUMPDEST SWAP3 POP SWAP3 SWAP1 POP JUMP JUMPDEST PUSH1 0x60 PUSH1 0x0 DUP1 DUP4 PUSH1 0x0 ADD PUSH1 0x20 DUP2 ADD SWAP1 PUSH2 0x1EE8 SWAP2 SWAP1 PUSH2 0x3781 JUMP JUMPDEST PUSH20 0xFFFFFFFFFFFFFFFFFFFFFFFFFFFFFFFFFFFFFFFF AND DUP5 PUSH1 0x20 ADD CALLDATALOAD DUP6 DUP1 PUSH1 0x60 ADD SWAP1 PUSH2 0x1F13 SWAP2 SWAP1 PUSH2 0x3DC9 JUMP JUMPDEST PUSH1 0x40 MLOAD PUSH2 0x1F21 SWAP3 SWAP2 SWAP1 PUSH2 0x3E5C JUMP JUMPDEST PUSH1 0x0 PUSH1 0x40 MLOAD DUP1 DUP4 SUB DUP2 DUP6 DUP8 GAS CALL SWAP3 POP POP POP RETURNDATASIZE DUP1 PUSH1 0x0 DUP2 EQ PUSH2 0x1F5E JUMPI PUSH1 0x40 MLOAD SWAP2 POP PUSH1 0x1F NOT PUSH1 0x3F RETURNDATASIZE ADD AND DUP3 ADD PUSH1 0x40 MSTORE RETURNDATASIZE DUP3 MSTORE RETURNDATASIZE PUSH1 0x0 PUSH1 0x20 DUP5 ADD RETURNDATACOPY PUSH2 0x1F63 JUMP JUMPDEST PUSH1 0x60 SWAP2 POP JUMPDEST POP SWAP2 POP SWAP2 POP DUP2 PUSH2 0x1F75 JUMPI DUP1 MLOAD PUSH1 0x20 DUP3 ADD REVERT JUMPDEST DUP1 SWAP3 POP POP POP SWAP2 SWAP1 POP JUMP JUMPDEST PUSH1 0x0 DUP1 PUSH1 0x41 PUSH1 0xFF AND DUP5 DUP5 SWAP1 POP PUSH2 0x1F95 SWAP2 SWAP1 PUSH2 0x4DDF JUMP JUMPDEST EQ PUSH2 0x1FD5 JUMPI PUSH1 0x40 MLOAD PUSH32 0x8C379A000000000000000000000000000000000000000000000000000000000 DUP2 MSTORE PUSH1 0x4 ADD PUSH2 0x1FCC SWAP1 PUSH2 0x4E82 JUMP JUMPDEST PUSH1 0x40 MLOAD DUP1 SWAP2 SUB SWAP1 REVERT JUMPDEST PUSH1 0x0 PUSH1 0x41 PUSH1 0xFF AND DUP5 DUP5 SWAP1 POP PUSH2 0x1FEA SWAP2 SWAP1 PUSH2 0x4EA2 JUMP JUMPDEST SWAP1 POP PUSH1 0x0 DUP2 PUSH8 0xFFFFFFFFFFFFFFFF DUP2 GT ISZERO PUSH2 0x2008 JUMPI PUSH2 0x2007 PUSH2 0x3BA2 JUMP JUMPDEST JUMPDEST PUSH1 0x40 MLOAD SWAP1 DUP1 DUP3 MSTORE DUP1 PUSH1 0x20 MUL PUSH1 0x20 ADD DUP3 ADD PUSH1 0x40 MSTORE DUP1 ISZERO PUSH2 0x203B JUMPI DUP2 PUSH1 0x20 ADD JUMPDEST PUSH1 0x60 DUP2 MSTORE PUSH1 0x20 ADD SWAP1 PUSH1 0x1 SWAP1 SUB SWAP1 DUP2 PUSH2 0x2026 JUMPI SWAP1 POP JUMPDEST POP SWAP1 POP PUSH1 0x0 JUMPDEST DUP3 DUP2 LT ISZERO PUSH2 0x20E6 JUMPI PUSH2 0x20B5 PUSH1 0x41 PUSH1 0xFF AND DUP3 PUSH2 0x205C SWAP2 SWAP1 PUSH2 0x4ED3 JUMP JUMPDEST PUSH1 0x41 PUSH1 0xFF AND DUP9 DUP9 DUP1 DUP1 PUSH1 0x1F ADD PUSH1 0x20 DUP1 SWAP2 DIV MUL PUSH1 0x20 ADD PUSH1 0x40 MLOAD SWAP1 DUP2 ADD PUSH1 0x40 MSTORE DUP1 SWAP4 SWAP3 SWAP2 SWAP1 DUP2 DUP2 MSTORE PUSH1 0x20 ADD DUP4 DUP4 DUP1 DUP3 DUP5 CALLDATACOPY PUSH1 0x0 DUP2 DUP5 ADD MSTORE PUSH1 0x1F NOT PUSH1 0x1F DUP3 ADD AND SWAP1 POP DUP1 DUP4 ADD SWAP3 POP POP POP POP POP POP POP PUSH2 0x2419 SWAP1 SWAP3 SWAP2 SWAP1 PUSH4 0xFFFFFFFF AND JUMP JUMPDEST DUP3 DUP3 DUP2 MLOAD DUP2 LT PUSH2 0x20C8 JUMPI PUSH2 0x20C7 PUSH2 0x3D8B JUMP JUMPDEST JUMPDEST PUSH1 0x20 MUL PUSH1 0x20 ADD ADD DUP2 SWAP1 MSTORE POP DUP1 DUP1 PUSH2 0x20DE SWAP1 PUSH2 0x3EA4 JUMP JUMPDEST SWAP2 POP POP PUSH2 0x2041 JUMP JUMPDEST POP PUSH1 0x0 PUSH2 0x20F3 DUP8 DUP4 PUSH2 0x1CE0 JUMP JUMPDEST POP SWAP1 POP DUP1 SWAP4 POP POP POP POP SWAP4 SWAP3 POP POP POP JUMP JUMPDEST PUSH1 0x0 DUP1 PUSH32 0xA7C6065F73528A079B6BD396854CFC70D8B5A045D4821E6DB173081678A52765 SWAP1 POP DUP1 SWAP2 POP POP SWAP1 JUMP JUMPDEST PUSH2 0x2138 PUSH2 0x1CB3 JUMP JUMPDEST PUSH1 0x2 ADD PUSH1 0x0 DUP3 PUSH20 0xFFFFFFFFFFFFFFFFFFFFFFFFFFFFFFFFFFFFFFFF AND PUSH20 0xFFFFFFFFFFFFFFFFFFFFFFFFFFFFFFFFFFFFFFFF AND DUP2 MSTORE PUSH1 0x20 ADD SWAP1 DUP2 MSTORE PUSH1 0x20 ADD PUSH1 0x0 KECCAK256 SLOAD PUSH2 0x2181 PUSH2 0x1CB3 JUMP JUMPDEST PUSH1 0x1 ADD PUSH1 0x0 DUP3 DUP3 SLOAD PUSH2 0x2193 SWAP2 SWAP1 PUSH2 0x4AB8 JUMP JUMPDEST SWAP3 POP POP DUP2 SWAP1 SSTORE POP PUSH1 0x0 PUSH2 0x21A4 PUSH2 0x1CB3 JUMP JUMPDEST PUSH1 0x1 ADD SLOAD GT DUP1 ISZERO PUSH2 0x21CB JUMPI POP PUSH2 0x21B8 PUSH2 0x1CB3 JUMP JUMPDEST PUSH1 0x0 ADD SLOAD PUSH2 0x21C4 PUSH2 0x1CB3 JUMP JUMPDEST PUSH1 0x1 ADD SLOAD LT ISZERO JUMPDEST PUSH2 0x220A JUMPI PUSH1 0x40 MLOAD PUSH32 0x8C379A000000000000000000000000000000000000000000000000000000000 DUP2 MSTORE PUSH1 0x4 ADD PUSH2 0x2201 SWAP1 PUSH2 0x4B6C JUMP JUMPDEST PUSH1 0x40 MLOAD DUP1 SWAP2 SUB SWAP1 REVERT JUMPDEST PUSH1 0x0 PUSH2 0x2214 PUSH2 0x1CB3 JUMP JUMPDEST PUSH1 0x2 ADD PUSH1 0x0 DUP4 PUSH20 0xFFFFFFFFFFFFFFFFFFFFFFFFFFFFFFFFFFFFFFFF AND PUSH20 0xFFFFFFFFFFFFFFFFFFFFFFFFFFFFFFFFFFFFFFFF AND DUP2 MSTORE PUSH1 0x20 ADD SWAP1 DUP2 MSTORE PUSH1 0x20 ADD PUSH1 0x0 KECCAK256 DUP2 SWAP1 SSTORE POP POP JUMP JUMPDEST DUP1 PUSH2 0x2264 PUSH2 0x1CB3 JUMP JUMPDEST PUSH1 0x1 ADD PUSH1 0x0 DUP3 DUP3 SLOAD PUSH2 0x2276 SWAP2 SWAP1 PUSH2 0x4AEC JUMP JUMPDEST SWAP3 POP POP DUP2 SWAP1 SSTORE POP DUP1 PUSH2 0x2286 PUSH2 0x1CB3 JUMP JUMPDEST PUSH1 0x2 ADD PUSH1 0x0 DUP5 PUSH20 0xFFFFFFFFFFFFFFFFFFFFFFFFFFFFFFFFFFFFFFFF AND PUSH20 0xFFFFFFFFFFFFFFFFFFFFFFFFFFFFFFFFFFFFFFFF AND DUP2 MSTORE PUSH1 0x20 ADD SWAP1 DUP2 MSTORE PUSH1 0x20 ADD PUSH1 0x0 KECCAK256 DUP2 SWAP1 SSTORE POP POP POP JUMP JUMPDEST PUSH1 0x0 DUP1 PUSH32 0x8480F6681DE262F06542A42E126DE05EBACA6A167394778F7693338DDB42E1B4 SWAP1 POP DUP1 SWAP2 POP POP SWAP1 JUMP JUMPDEST PUSH1 0x0 PUSH2 0x2305 PUSH2 0x2103 JUMP JUMPDEST PUSH1 0x0 ADD PUSH1 0x0 DUP5 DUP5 PUSH1 0x0 ADD PUSH1 0x20 DUP2 ADD SWAP1 PUSH2 0x231E SWAP2 SWAP1 PUSH2 0x3781 JUMP JUMPDEST DUP6 PUSH1 0x20 ADD CALLDATALOAD DUP7 DUP1 PUSH1 0x60 ADD SWAP1 PUSH2 0x2333 SWAP2 SWAP1 PUSH2 0x3DC9 JUMP JUMPDEST PUSH1 0x40 MLOAD PUSH1 0x20 ADD PUSH2 0x2347 SWAP6 SWAP5 SWAP4 SWAP3 SWAP2 SWAP1 PUSH2 0x4013 JUMP JUMPDEST PUSH1 0x40 MLOAD PUSH1 0x20 DUP2 DUP4 SUB SUB DUP2 MSTORE SWAP1 PUSH1 0x40 MSTORE DUP1 MLOAD SWAP1 PUSH1 0x20 ADD KECCAK256 DUP2 MSTORE PUSH1 0x20 ADD SWAP1 DUP2 MSTORE PUSH1 0x20 ADD PUSH1 0x0 KECCAK256 SWAP1 POP SWAP3 SWAP2 POP POP JUMP JUMPDEST PUSH1 0x0 PUSH32 0x6A01F9C100000000000000000000000000000000000000000000000000000000 PUSH28 0xFFFFFFFFFFFFFFFFFFFFFFFFFFFFFFFFFFFFFFFFFFFFFFFFFFFFFFFF NOT AND DUP3 PUSH28 0xFFFFFFFFFFFFFFFFFFFFFFFFFFFFFFFFFFFFFFFFFFFFFFFFFFFFFFFF NOT AND SUB PUSH2 0x23E3 JUMPI PUSH1 0x1 SWAP1 POP PUSH2 0x23EF JUMP JUMPDEST PUSH2 0x23EC DUP3 PUSH2 0x2537 JUMP JUMPDEST SWAP1 POP JUMPDEST SWAP2 SWAP1 POP JUMP JUMPDEST PUSH1 0x0 PUSH2 0x2411 DUP3 PUSH2 0x2403 DUP6 PUSH2 0x25B8 JUMP JUMPDEST PUSH2 0x25E8 SWAP1 SWAP2 SWAP1 PUSH4 0xFFFFFFFF AND JUMP JUMPDEST SWAP1 POP SWAP3 SWAP2 POP POP JUMP JUMPDEST PUSH1 0x60 DUP2 PUSH1 0x1F DUP4 PUSH2 0x2429 SWAP2 SWAP1 PUSH2 0x4AEC JUMP JUMPDEST LT ISZERO PUSH2 0x246A JUMPI PUSH1 0x40 MLOAD PUSH32 0x8C379A000000000000000000000000000000000000000000000000000000000 DUP2 MSTORE PUSH1 0x4 ADD PUSH2 0x2461 SWAP1 PUSH2 0x4F61 JUMP JUMPDEST PUSH1 0x40 MLOAD DUP1 SWAP2 SUB SWAP1 REVERT JUMPDEST DUP2 DUP4 PUSH2 0x2476 SWAP2 SWAP1 PUSH2 0x4AEC JUMP JUMPDEST DUP5 MLOAD LT ISZERO PUSH2 0x24B9 JUMPI PUSH1 0x40 MLOAD PUSH32 0x8C379A000000000000000000000000000000000000000000000000000000000 DUP2 MSTORE PUSH1 0x4 ADD PUSH2 0x24B0 SWAP1 PUSH2 0x4FCD JUMP JUMPDEST PUSH1 0x40 MLOAD DUP1 SWAP2 SUB SWAP1 REVERT JUMPDEST PUSH1 0x60 DUP3 ISZERO PUSH1 0x0 DUP2 EQ PUSH2 0x24DA JUMPI PUSH1 0x40 MLOAD SWAP2 POP PUSH1 0x0 DUP3 MSTORE PUSH1 0x20 DUP3 ADD PUSH1 0x40 MSTORE PUSH2 0x252B JUMP JUMPDEST PUSH1 0x40 MLOAD SWAP2 POP PUSH1 0x1F DUP5 AND DUP1 ISZERO PUSH1 0x20 MUL DUP2 DUP5 ADD ADD DUP6 DUP2 ADD DUP8 DUP4 ISZERO PUSH1 0x20 MUL DUP5 DUP12 ADD ADD ADD JUMPDEST DUP2 DUP4 LT ISZERO PUSH2 0x2518 JUMPI DUP1 MLOAD DUP4 MSTORE PUSH1 0x20 DUP4 ADD SWAP3 POP PUSH1 0x20 DUP2 ADD SWAP1 POP PUSH2 0x24FB JUMP JUMPDEST POP DUP7 DUP6 MSTORE PUSH1 0x1F NOT PUSH1 0x1F DUP4 ADD AND PUSH1 0x40 MSTORE POP POP POP JUMPDEST POP DUP1 SWAP2 POP POP SWAP4 SWAP3 POP POP POP JUMP JUMPDEST PUSH1 0x0 PUSH32 0x87B3E81200000000000000000000000000000000000000000000000000000000 PUSH28 0xFFFFFFFFFFFFFFFFFFFFFFFFFFFFFFFFFFFFFFFFFFFFFFFFFFFFFFFF NOT AND DUP3 PUSH28 0xFFFFFFFFFFFFFFFFFFFFFFFFFFFFFFFFFFFFFFFFFFFFFFFFFFFFFFFF NOT AND SUB PUSH2 0x25A7 JUMPI PUSH1 0x1 SWAP1 POP PUSH2 0x25B3 JUMP JUMPDEST PUSH2 0x25B0 DUP3 PUSH2 0x260F JUMP JUMPDEST SWAP1 POP JUMPDEST SWAP2 SWAP1 POP JUMP JUMPDEST PUSH1 0x0 DUP2 PUSH1 0x40 MLOAD PUSH1 0x20 ADD PUSH2 0x25CB SWAP2 SWAP1 PUSH2 0x5065 JUMP JUMPDEST PUSH1 0x40 MLOAD PUSH1 0x20 DUP2 DUP4 SUB SUB DUP2 MSTORE SWAP1 PUSH1 0x40 MSTORE DUP1 MLOAD SWAP1 PUSH1 0x20 ADD KECCAK256 SWAP1 POP SWAP2 SWAP1 POP JUMP JUMPDEST PUSH1 0x0 DUP1 PUSH1 0x0 PUSH2 0x25F7 DUP6 DUP6 PUSH2 0x2690 JUMP JUMPDEST SWAP2 POP SWAP2 POP PUSH2 0x2604 DUP2 PUSH2 0x26E1 JUMP JUMPDEST DUP2 SWAP3 POP POP POP SWAP3 SWAP2 POP POP JUMP JUMPDEST PUSH1 0x0 PUSH32 0xAE71FE3500000000000000000000000000000000000000000000000000000000 PUSH28 0xFFFFFFFFFFFFFFFFFFFFFFFFFFFFFFFFFFFFFFFFFFFFFFFFFFFFFFFF NOT AND DUP3 PUSH28 0xFFFFFFFFFFFFFFFFFFFFFFFFFFFFFFFFFFFFFFFFFFFFFFFFFFFFFFFF NOT AND SUB PUSH2 0x267F JUMPI PUSH1 0x1 SWAP1 POP PUSH2 0x268B JUMP JUMPDEST PUSH2 0x2688 DUP3 PUSH2 0x2847 JUMP JUMPDEST SWAP1 POP JUMPDEST SWAP2 SWAP1 POP JUMP JUMPDEST PUSH1 0x0 DUP1 PUSH1 0x41 DUP4 MLOAD SUB PUSH2 0x26D1 JUMPI PUSH1 0x0 DUP1 PUSH1 0x0 PUSH1 0x20 DUP7 ADD MLOAD SWAP3 POP PUSH1 0x40 DUP7 ADD MLOAD SWAP2 POP PUSH1 0x60 DUP7 ADD MLOAD PUSH1 0x0 BYTE SWAP1 POP PUSH2 0x26C5 DUP8 DUP3 DUP6 DUP6 PUSH2 0x28C8 JUMP JUMPDEST SWAP5 POP SWAP5 POP POP POP POP PUSH2 0x26DA JUMP JUMPDEST PUSH1 0x0 PUSH1 0x2 SWAP2 POP SWAP2 POP JUMPDEST SWAP3 POP SWAP3 SWAP1 POP JUMP JUMPDEST PUSH1 0x0 PUSH1 0x4 DUP2 GT ISZERO PUSH2 0x26F5 JUMPI PUSH2 0x26F4 PUSH2 0x508B JUMP JUMPDEST JUMPDEST DUP2 PUSH1 0x4 DUP2 GT ISZERO PUSH2 0x2708 JUMPI PUSH2 0x2707 PUSH2 0x508B JUMP JUMPDEST JUMPDEST SUB ISZERO PUSH2 0x2844 JUMPI PUSH1 0x1 PUSH1 0x4 DUP2 GT ISZERO PUSH2 0x2722 JUMPI PUSH2 0x2721 PUSH2 0x508B JUMP JUMPDEST JUMPDEST DUP2 PUSH1 0x4 DUP2 GT ISZERO PUSH2 0x2735 JUMPI PUSH2 0x2734 PUSH2 0x508B JUMP JUMPDEST JUMPDEST SUB PUSH2 0x2775 JUMPI PUSH1 0x40 MLOAD PUSH32 0x8C379A000000000000000000000000000000000000000000000000000000000 DUP2 MSTORE PUSH1 0x4 ADD PUSH2 0x276C SWAP1 PUSH2 0x5106 JUMP JUMPDEST PUSH1 0x40 MLOAD DUP1 SWAP2 SUB SWAP1 REVERT JUMPDEST PUSH1 0x2 PUSH1 0x4 DUP2 GT ISZERO PUSH2 0x2789 JUMPI PUSH2 0x2788 PUSH2 0x508B JUMP JUMPDEST JUMPDEST DUP2 PUSH1 0x4 DUP2 GT ISZERO PUSH2 0x279C JUMPI PUSH2 0x279B PUSH2 0x508B JUMP JUMPDEST JUMPDEST SUB PUSH2 0x27DC JUMPI PUSH1 0x40 MLOAD PUSH32 0x8C379A000000000000000000000000000000000000000000000000000000000 DUP2 MSTORE PUSH1 0x4 ADD PUSH2 0x27D3 SWAP1 PUSH2 0x5172 JUMP JUMPDEST PUSH1 0x40 MLOAD DUP1 SWAP2 SUB SWAP1 REVERT JUMPDEST PUSH1 0x3 PUSH1 0x4 DUP2 GT ISZERO PUSH2 0x27F0 JUMPI PUSH2 0x27EF PUSH2 0x508B JUMP JUMPDEST JUMPDEST DUP2 PUSH1 0x4 DUP2 GT ISZERO PUSH2 0x2803 JUMPI PUSH2 0x2802 PUSH2 0x508B JUMP JUMPDEST JUMPDEST SUB PUSH2 0x2843 JUMPI PUSH1 0x40 MLOAD PUSH32 0x8C379A000000000000000000000000000000000000000000000000000000000 DUP2 MSTORE PUSH1 0x4 ADD PUSH2 0x283A SWAP1 PUSH2 0x5204 JUMP JUMPDEST PUSH1 0x40 MLOAD DUP1 SWAP2 SUB SWAP1 REVERT JUMPDEST JUMPDEST POP JUMP JUMPDEST PUSH1 0x0 PUSH32 0x8197B6D400000000000000000000000000000000000000000000000000000000 PUSH28 0xFFFFFFFFFFFFFFFFFFFFFFFFFFFFFFFFFFFFFFFFFFFFFFFFFFFFFFFF NOT AND DUP3 PUSH28 0xFFFFFFFFFFFFFFFFFFFFFFFFFFFFFFFFFFFFFFFFFFFFFFFFFFFFFFFF NOT AND SUB PUSH2 0x28B7 JUMPI PUSH1 0x1 SWAP1 POP PUSH2 0x28C3 JUMP JUMPDEST PUSH2 0x28C0 DUP3 PUSH2 0x29AA JUMP JUMPDEST SWAP1 POP JUMPDEST SWAP2 SWAP1 POP JUMP JUMPDEST PUSH1 0x0 DUP1 PUSH32 0x7FFFFFFFFFFFFFFFFFFFFFFFFFFFFFFF5D576E7357A4501DDFE92F46681B20A0 DUP4 PUSH1 0x0 SHR GT ISZERO PUSH2 0x2903 JUMPI PUSH1 0x0 PUSH1 0x3 SWAP2 POP SWAP2 POP PUSH2 0x29A1 JUMP JUMPDEST PUSH1 0x0 PUSH1 0x1 DUP8 DUP8 DUP8 DUP8 PUSH1 0x40 MLOAD PUSH1 0x0 DUP2 MSTORE PUSH1 0x20 ADD PUSH1 0x40 MSTORE PUSH1 0x40 MLOAD PUSH2 0x2928 SWAP5 SWAP4 SWAP3 SWAP2 SWAP1 PUSH2 0x524F JUMP JUMPDEST PUSH1 0x20 PUSH1 0x40 MLOAD PUSH1 0x20 DUP2 SUB SWAP1 DUP1 DUP5 SUB SWAP1 DUP6 GAS STATICCALL ISZERO DUP1 ISZERO PUSH2 0x294A JUMPI RETURNDATASIZE PUSH1 0x0 DUP1 RETURNDATACOPY RETURNDATASIZE PUSH1 0x0 REVERT JUMPDEST POP POP POP PUSH1 0x20 PUSH1 0x40 MLOAD SUB MLOAD SWAP1 POP PUSH1 0x0 PUSH20 0xFFFFFFFFFFFFFFFFFFFFFFFFFFFFFFFFFFFFFFFF AND DUP2 PUSH20 0xFFFFFFFFFFFFFFFFFFFFFFFFFFFFFFFFFFFFFFFF AND SUB PUSH2 0x2998 JUMPI PUSH1 0x0 PUSH1 0x1 SWAP3 POP SWAP3 POP POP PUSH2 0x29A1 JUMP JUMPDEST DUP1 PUSH1 0x0 SWAP3 POP SWAP3 POP POP JUMPDEST SWAP5 POP SWAP5 SWAP3 POP POP POP JUMP JUMPDEST PUSH1 0x0 PUSH32 0x1FFC9A700000000000000000000000000000000000000000000000000000000 PUSH28 0xFFFFFFFFFFFFFFFFFFFFFFFFFFFFFFFFFFFFFFFFFFFFFFFFFFFFFFFF NOT AND DUP3 PUSH28 0xFFFFFFFFFFFFFFFFFFFFFFFFFFFFFFFFFFFFFFFFFFFFFFFFFFFFFFFF NOT AND EQ SWAP1 POP SWAP2 SWAP1 POP JUMP JUMPDEST PUSH1 0x0 PUSH1 0x40 MLOAD SWAP1 POP SWAP1 JUMP JUMPDEST PUSH1 0x0 DUP1 REVERT JUMPDEST PUSH1 0x0 DUP1 REVERT JUMPDEST PUSH1 0x0 PUSH32 0xFFFFFFFF00000000000000000000000000000000000000000000000000000000 DUP3 AND SWAP1 POP SWAP2 SWAP1 POP JUMP JUMPDEST PUSH2 0x2A5D DUP2 PUSH2 0x2A28 JUMP JUMPDEST DUP2 EQ PUSH2 0x2A68 JUMPI PUSH1 0x0 DUP1 REVERT JUMPDEST POP JUMP JUMPDEST PUSH1 0x0 DUP2 CALLDATALOAD SWAP1 POP PUSH2 0x2A7A DUP2 PUSH2 0x2A54 JUMP JUMPDEST SWAP3 SWAP2 POP POP JUMP JUMPDEST PUSH1 0x0 PUSH1 0x20 DUP3 DUP5 SUB SLT ISZERO PUSH2 0x2A96 JUMPI PUSH2 0x2A95 PUSH2 0x2A1E JUMP JUMPDEST JUMPDEST PUSH1 0x0 PUSH2 0x2AA4 DUP5 DUP3 DUP6 ADD PUSH2 0x2A6B JUMP JUMPDEST SWAP2 POP POP SWAP3 SWAP2 POP POP JUMP JUMPDEST PUSH1 0x0 DUP2 ISZERO ISZERO SWAP1 POP SWAP2 SWAP1 POP JUMP JUMPDEST PUSH2 0x2AC2 DUP2 PUSH2 0x2AAD JUMP JUMPDEST DUP3 MSTORE POP POP JUMP JUMPDEST PUSH1 0x0 PUSH1 0x20 DUP3 ADD SWAP1 POP PUSH2 0x2ADD PUSH1 0x0 DUP4 ADD DUP5 PUSH2 0x2AB9 JUMP JUMPDEST SWAP3 SWAP2 POP POP JUMP JUMPDEST PUSH1 0x0 DUP2 SWAP1 POP SWAP2 SWAP1 POP JUMP JUMPDEST PUSH2 0x2AF6 DUP2 PUSH2 0x2AE3 JUMP JUMPDEST DUP3 MSTORE POP POP JUMP JUMPDEST PUSH1 0x0 PUSH1 0x20 DUP3 ADD SWAP1 POP PUSH2 0x2B11 PUSH1 0x0 DUP4 ADD DUP5 PUSH2 0x2AED JUMP JUMPDEST SWAP3 SWAP2 POP POP JUMP JUMPDEST PUSH1 0x0 DUP1 REVERT JUMPDEST PUSH1 0x0 DUP1 REVERT JUMPDEST PUSH1 0x0 DUP1 REVERT JUMPDEST PUSH1 0x0 DUP1 DUP4 PUSH1 0x1F DUP5 ADD SLT PUSH2 0x2B3C JUMPI PUSH2 0x2B3B PUSH2 0x2B17 JUMP JUMPDEST JUMPDEST DUP3 CALLDATALOAD SWAP1 POP PUSH8 0xFFFFFFFFFFFFFFFF DUP2 GT ISZERO PUSH2 0x2B59 JUMPI PUSH2 0x2B58 PUSH2 0x2B1C JUMP JUMPDEST JUMPDEST PUSH1 0x20 DUP4 ADD SWAP2 POP DUP4 PUSH1 0x20 DUP3 MUL DUP4 ADD GT ISZERO PUSH2 0x2B75 JUMPI PUSH2 0x2B74 PUSH2 0x2B21 JUMP JUMPDEST JUMPDEST SWAP3 POP SWAP3 SWAP1 POP JUMP JUMPDEST PUSH1 0x0 DUP1 DUP4 PUSH1 0x1F DUP5 ADD SLT PUSH2 0x2B92 JUMPI PUSH2 0x2B91 PUSH2 0x2B17 JUMP JUMPDEST JUMPDEST DUP3 CALLDATALOAD SWAP1 POP PUSH8 0xFFFFFFFFFFFFFFFF DUP2 GT ISZERO PUSH2 0x2BAF JUMPI PUSH2 0x2BAE PUSH2 0x2B1C JUMP JUMPDEST JUMPDEST PUSH1 0x20 DUP4 ADD SWAP2 POP DUP4 PUSH1 0x20 DUP3 MUL DUP4 ADD GT ISZERO PUSH2 0x2BCB JUMPI PUSH2 0x2BCA PUSH2 0x2B21 JUMP JUMPDEST JUMPDEST SWAP3 POP SWAP3 SWAP1 POP JUMP JUMPDEST PUSH1 0x0 DUP1 PUSH1 0x0 DUP1 PUSH1 0x40 DUP6 DUP8 SUB SLT ISZERO PUSH2 0x2BEC JUMPI PUSH2 0x2BEB PUSH2 0x2A1E JUMP JUMPDEST JUMPDEST PUSH1 0x0 DUP6 ADD CALLDATALOAD PUSH8 0xFFFFFFFFFFFFFFFF DUP2 GT ISZERO PUSH2 0x2C0A JUMPI PUSH2 0x2C09 PUSH2 0x2A23 JUMP JUMPDEST JUMPDEST PUSH2 0x2C16 DUP8 DUP3 DUP9 ADD PUSH2 0x2B26 JUMP JUMPDEST SWAP5 POP SWAP5 POP POP PUSH1 0x20 DUP6 ADD CALLDATALOAD PUSH8 0xFFFFFFFFFFFFFFFF DUP2 GT ISZERO PUSH2 0x2C39 JUMPI PUSH2 0x2C38 PUSH2 0x2A23 JUMP JUMPDEST JUMPDEST PUSH2 0x2C45 DUP8 DUP3 DUP9 ADD PUSH2 0x2B7C JUMP JUMPDEST SWAP3 POP SWAP3 POP POP SWAP3 SWAP6 SWAP2 SWAP5 POP SWAP3 POP JUMP JUMPDEST PUSH1 0x0 DUP2 MLOAD SWAP1 POP SWAP2 SWAP1 POP JUMP JUMPDEST PUSH1 0x0 DUP3 DUP3 MSTORE PUSH1 0x20 DUP3 ADD SWAP1 POP SWAP3 SWAP2 POP POP JUMP JUMPDEST PUSH1 0x0 DUP2 SWAP1 POP PUSH1 0x20 DUP3 ADD SWAP1 POP SWAP2 SWAP1 POP JUMP JUMPDEST PUSH1 0x0 DUP2 MLOAD SWAP1 POP SWAP2 SWAP1 POP JUMP JUMPDEST PUSH1 0x0 DUP3 DUP3 MSTORE PUSH1 0x20 DUP3 ADD SWAP1 POP SWAP3 SWAP2 POP POP JUMP JUMPDEST PUSH1 0x0 JUMPDEST DUP4 DUP2 LT ISZERO PUSH2 0x2CB9 JUMPI DUP1 DUP3 ADD MLOAD DUP2 DUP5 ADD MSTORE PUSH1 0x20 DUP2 ADD SWAP1 POP PUSH2 0x2C9E JUMP JUMPDEST PUSH1 0x0 DUP5 DUP5 ADD MSTORE POP POP POP POP JUMP JUMPDEST PUSH1 0x0 PUSH1 0x1F NOT PUSH1 0x1F DUP4 ADD AND SWAP1 POP SWAP2 SWAP1 POP JUMP JUMPDEST PUSH1 0x0 PUSH2 0x2CE1 DUP3 PUSH2 0x2C7F JUMP JUMPDEST PUSH2 0x2CEB DUP2 DUP6 PUSH2 0x2C8A JUMP JUMPDEST SWAP4 POP PUSH2 0x2CFB DUP2 DUP6 PUSH1 0x20 DUP7 ADD PUSH2 0x2C9B JUMP JUMPDEST PUSH2 0x2D04 DUP2 PUSH2 0x2CC5 JUMP JUMPDEST DUP5 ADD SWAP2 POP POP SWAP3 SWAP2 POP POP JUMP JUMPDEST PUSH1 0x0 PUSH2 0x2D1B DUP4 DUP4 PUSH2 0x2CD6 JUMP JUMPDEST SWAP1 POP SWAP3 SWAP2 POP POP JUMP JUMPDEST PUSH1 0x0 PUSH1 0x20 DUP3 ADD SWAP1 POP SWAP2 SWAP1 POP JUMP JUMPDEST PUSH1 0x0 PUSH2 0x2D3B DUP3 PUSH2 0x2C53 JUMP JUMPDEST PUSH2 0x2D45 DUP2 DUP6 PUSH2 0x2C5E JUMP JUMPDEST SWAP4 POP DUP4 PUSH1 0x20 DUP3 MUL DUP6 ADD PUSH2 0x2D57 DUP6 PUSH2 0x2C6F JUMP JUMPDEST DUP1 PUSH1 0x0 JUMPDEST DUP6 DUP2 LT ISZERO PUSH2 0x2D93 JUMPI DUP5 DUP5 SUB DUP10 MSTORE DUP2 MLOAD PUSH2 0x2D74 DUP6 DUP3 PUSH2 0x2D0F JUMP JUMPDEST SWAP5 POP PUSH2 0x2D7F DUP4 PUSH2 0x2D23 JUMP JUMPDEST SWAP3 POP PUSH1 0x20 DUP11 ADD SWAP10 POP POP PUSH1 0x1 DUP2 ADD SWAP1 POP PUSH2 0x2D5B JUMP JUMPDEST POP DUP3 SWAP8 POP DUP8 SWAP6 POP POP POP POP POP POP SWAP3 SWAP2 POP POP JUMP JUMPDEST PUSH1 0x0 PUSH1 0x20 DUP3 ADD SWAP1 POP DUP2 DUP2 SUB PUSH1 0x0 DUP4 ADD MSTORE PUSH2 0x2DBF DUP2 DUP5 PUSH2 0x2D30 JUMP JUMPDEST SWAP1 POP SWAP3 SWAP2 POP POP JUMP JUMPDEST PUSH1 0x0 PUSH20 0xFFFFFFFFFFFFFFFFFFFFFFFFFFFFFFFFFFFFFFFF DUP3 AND SWAP1 POP SWAP2 SWAP1 POP JUMP JUMPDEST PUSH1 0x0 PUSH2 0x2DF2 DUP3 PUSH2 0x2DC7 JUMP JUMPDEST SWAP1 POP SWAP2 SWAP1 POP JUMP JUMPDEST PUSH2 0x2E02 DUP2 PUSH2 0x2DE7 JUMP JUMPDEST DUP2 EQ PUSH2 0x2E0D JUMPI PUSH1 0x0 DUP1 REVERT JUMPDEST POP JUMP JUMPDEST PUSH1 0x0 DUP2 CALLDATALOAD SWAP1 POP PUSH2 0x2E1F DUP2 PUSH2 0x2DF9 JUMP JUMPDEST SWAP3 SWAP2 POP POP JUMP JUMPDEST PUSH2 0x2E2E DUP2 PUSH2 0x2AE3 JUMP JUMPDEST DUP2 EQ PUSH2 0x2E39 JUMPI PUSH1 0x0 DUP1 REVERT JUMPDEST POP JUMP JUMPDEST PUSH1 0x0 DUP2 CALLDATALOAD SWAP1 POP PUSH2 0x2E4B DUP2 PUSH2 0x2E25 JUMP JUMPDEST SWAP3 SWAP2 POP POP JUMP JUMPDEST PUSH1 0x0 DUP1 DUP4 PUSH1 0x1F DUP5 ADD SLT PUSH2 0x2E67 JUMPI PUSH2 0x2E66 PUSH2 0x2B17 JUMP JUMPDEST JUMPDEST DUP3 CALLDATALOAD SWAP1 POP PUSH8 0xFFFFFFFFFFFFFFFF DUP2 GT ISZERO PUSH2 0x2E84 JUMPI PUSH2 0x2E83 PUSH2 0x2B1C JUMP JUMPDEST JUMPDEST PUSH1 0x20 DUP4 ADD SWAP2 POP DUP4 PUSH1 0x1 DUP3 MUL DUP4 ADD GT ISZERO PUSH2 0x2EA0 JUMPI PUSH2 0x2E9F PUSH2 0x2B21 JUMP JUMPDEST JUMPDEST SWAP3 POP SWAP3 SWAP1 POP JUMP JUMPDEST PUSH1 0x0 DUP1 PUSH1 0x0 DUP1 PUSH1 0x0 PUSH1 0x80 DUP7 DUP9 SUB SLT ISZERO PUSH2 0x2EC3 JUMPI PUSH2 0x2EC2 PUSH2 0x2A1E JUMP JUMPDEST JUMPDEST PUSH1 0x0 PUSH2 0x2ED1 DUP9 DUP3 DUP10 ADD PUSH2 0x2E10 JUMP JUMPDEST SWAP6 POP POP PUSH1 0x20 PUSH2 0x2EE2 DUP9 DUP3 DUP10 ADD PUSH2 0x2E10 JUMP JUMPDEST SWAP5 POP POP PUSH1 0x40 PUSH2 0x2EF3 DUP9 DUP3 DUP10 ADD PUSH2 0x2E3C JUMP JUMPDEST SWAP4 POP POP PUSH1 0x60 DUP7 ADD CALLDATALOAD PUSH8 0xFFFFFFFFFFFFFFFF DUP2 GT ISZERO PUSH2 0x2F14 JUMPI PUSH2 0x2F13 PUSH2 0x2A23 JUMP JUMPDEST JUMPDEST PUSH2 0x2F20 DUP9 DUP3 DUP10 ADD PUSH2 0x2E51 JUMP JUMPDEST SWAP3 POP SWAP3 POP POP SWAP3 SWAP6 POP SWAP3 SWAP6 SWAP1 SWAP4 POP JUMP JUMPDEST PUSH2 0x2F38 DUP2 PUSH2 0x2A28 JUMP JUMPDEST DUP3 MSTORE POP POP JUMP JUMPDEST PUSH1 0x0 PUSH1 0x20 DUP3 ADD SWAP1 POP PUSH2 0x2F53 PUSH1 0x0 DUP4 ADD DUP5 PUSH2 0x2F2F JUMP JUMPDEST SWAP3 SWAP2 POP POP JUMP JUMPDEST PUSH1 0x0 DUP2 SWAP1 POP SWAP2 SWAP1 POP JUMP JUMPDEST PUSH2 0x2F6C DUP2 PUSH2 0x2F59 JUMP JUMPDEST DUP2 EQ PUSH2 0x2F77 JUMPI PUSH1 0x0 DUP1 REVERT JUMPDEST POP JUMP JUMPDEST PUSH1 0x0 DUP2 CALLDATALOAD SWAP1 POP PUSH2 0x2F89 DUP2 PUSH2 0x2F63 JUMP JUMPDEST SWAP3 SWAP2 POP POP JUMP JUMPDEST PUSH1 0x0 DUP1 PUSH1 0x0 PUSH1 0x40 DUP5 DUP7 SUB SLT ISZERO PUSH2 0x2FA8 JUMPI PUSH2 0x2FA7 PUSH2 0x2A1E JUMP JUMPDEST JUMPDEST PUSH1 0x0 PUSH2 0x2FB6 DUP7 DUP3 DUP8 ADD PUSH2 0x2F7A JUMP JUMPDEST SWAP4 POP POP PUSH1 0x20 DUP5 ADD CALLDATALOAD PUSH8 0xFFFFFFFFFFFFFFFF DUP2 GT ISZERO PUSH2 0x2FD7 JUMPI PUSH2 0x2FD6 PUSH2 0x2A23 JUMP JUMPDEST JUMPDEST PUSH2 0x2FE3 DUP7 DUP3 DUP8 ADD PUSH2 0x2E51 JUMP JUMPDEST SWAP3 POP SWAP3 POP POP SWAP3 POP SWAP3 POP SWAP3 JUMP JUMPDEST PUSH1 0x0 DUP1 REVERT JUMPDEST PUSH1 0x0 PUSH1 0x80 DUP3 DUP5 SUB SLT ISZERO PUSH2 0x300A JUMPI PUSH2 0x3009 PUSH2 0x2FEF JUMP JUMPDEST JUMPDEST DUP2 SWAP1 POP SWAP3 SWAP2 POP POP JUMP JUMPDEST PUSH1 0x0 DUP1 PUSH1 0x0 DUP1 PUSH1 0x60 DUP6 DUP8 SUB SLT ISZERO PUSH2 0x302D JUMPI PUSH2 0x302C PUSH2 0x2A1E JUMP JUMPDEST JUMPDEST PUSH1 0x0 DUP6 ADD CALLDATALOAD PUSH8 0xFFFFFFFFFFFFFFFF DUP2 GT ISZERO PUSH2 0x304B JUMPI PUSH2 0x304A PUSH2 0x2A23 JUMP JUMPDEST JUMPDEST PUSH2 0x3057 DUP8 DUP3 DUP9 ADD PUSH2 0x2FF4 JUMP JUMPDEST SWAP5 POP POP PUSH1 0x20 PUSH2 0x3068 DUP8 DUP3 DUP9 ADD PUSH2 0x2E3C JUMP JUMPDEST SWAP4 POP POP PUSH1 0x40 DUP6 ADD CALLDATALOAD PUSH8 0xFFFFFFFFFFFFFFFF DUP2 GT ISZERO PUSH2 0x3089 JUMPI PUSH2 0x3088 PUSH2 0x2A23 JUMP JUMPDEST JUMPDEST PUSH2 0x3095 DUP8 DUP3 DUP9 ADD PUSH2 0x2B7C JUMP JUMPDEST SWAP3 POP SWAP3 POP POP SWAP3 SWAP6 SWAP2 SWAP5 POP SWAP3 POP JUMP JUMPDEST PUSH1 0x0 DUP1 PUSH1 0x0 DUP1 PUSH1 0x40 DUP6 DUP8 SUB SLT ISZERO PUSH2 0x30BD JUMPI PUSH2 0x30BC PUSH2 0x2A1E JUMP JUMPDEST JUMPDEST PUSH1 0x0 DUP6 ADD CALLDATALOAD PUSH8 0xFFFFFFFFFFFFFFFF DUP2 GT ISZERO PUSH2 0x30DB JUMPI PUSH2 0x30DA PUSH2 0x2A23 JUMP JUMPDEST JUMPDEST PUSH2 0x30E7 DUP8 DUP3 DUP9 ADD PUSH2 0x2E51 JUMP JUMPDEST SWAP5 POP SWAP5 POP POP PUSH1 0x20 DUP6 ADD CALLDATALOAD PUSH8 0xFFFFFFFFFFFFFFFF DUP2 GT ISZERO PUSH2 0x310A JUMPI PUSH2 0x3109 PUSH2 0x2A23 JUMP JUMPDEST JUMPDEST PUSH2 0x3116 DUP8 DUP3 DUP9 ADD PUSH2 0x2E51 JUMP JUMPDEST SWAP3 POP SWAP3 POP POP SWAP3 SWAP6 SWAP2 SWAP5 POP SWAP3 POP JUMP JUMPDEST PUSH1 0x0 DUP1 DUP4 PUSH1 0x1F DUP5 ADD SLT PUSH2 0x313A JUMPI PUSH2 0x3139 PUSH2 0x2B17 JUMP JUMPDEST JUMPDEST DUP3 CALLDATALOAD SWAP1 POP PUSH8 0xFFFFFFFFFFFFFFFF DUP2 GT ISZERO PUSH2 0x3157 JUMPI PUSH2 0x3156 PUSH2 0x2B1C JUMP JUMPDEST JUMPDEST PUSH1 0x20 DUP4 ADD SWAP2 POP DUP4 PUSH1 0x20 DUP3 MUL DUP4 ADD GT ISZERO PUSH2 0x3173 JUMPI PUSH2 0x3172 PUSH2 0x2B21 JUMP JUMPDEST JUMPDEST SWAP3 POP SWAP3 SWAP1 POP JUMP JUMPDEST PUSH1 0x0 DUP1 PUSH1 0x0 DUP1 PUSH1 0x0 PUSH1 0x60 DUP7 DUP9 SUB SLT ISZERO PUSH2 0x3196 JUMPI PUSH2 0x3195 PUSH2 0x2A1E JUMP JUMPDEST JUMPDEST PUSH1 0x0 DUP7 ADD CALLDATALOAD PUSH8 0xFFFFFFFFFFFFFFFF DUP2 GT ISZERO PUSH2 0x31B4 JUMPI PUSH2 0x31B3 PUSH2 0x2A23 JUMP JUMPDEST JUMPDEST PUSH2 0x31C0 DUP9 DUP3 DUP10 ADD PUSH2 0x3124 JUMP JUMPDEST SWAP6 POP SWAP6 POP POP PUSH1 0x20 PUSH2 0x31D3 DUP9 DUP3 DUP10 ADD PUSH2 0x2E3C JUMP JUMPDEST SWAP4 POP POP PUSH1 0x40 DUP7 ADD CALLDATALOAD PUSH8 0xFFFFFFFFFFFFFFFF DUP2 GT ISZERO PUSH2 0x31F4 JUMPI PUSH2 0x31F3 PUSH2 0x2A23 JUMP JUMPDEST JUMPDEST PUSH2 0x3200 DUP9 DUP3 DUP10 ADD PUSH2 0x2B7C JUMP JUMPDEST SWAP3 POP SWAP3 POP POP SWAP3 SWAP6 POP SWAP3 SWAP6 SWAP1 SWAP4 POP JUMP JUMPDEST PUSH1 0x0 PUSH1 0xA0 DUP3 DUP5 SUB SLT ISZERO PUSH2 0x3225 JUMPI PUSH2 0x3224 PUSH2 0x2FEF JUMP JUMPDEST JUMPDEST DUP2 SWAP1 POP SWAP3 SWAP2 POP POP JUMP JUMPDEST PUSH1 0x0 DUP1 PUSH1 0x0 DUP1 PUSH1 0x0 PUSH2 0x100 DUP7 DUP9 SUB SLT ISZERO PUSH2 0x324B JUMPI PUSH2 0x324A PUSH2 0x2A1E JUMP JUMPDEST JUMPDEST PUSH1 0x0 DUP7 ADD CALLDATALOAD PUSH8 0xFFFFFFFFFFFFFFFF DUP2 GT ISZERO PUSH2 0x3269 JUMPI PUSH2 0x3268 PUSH2 0x2A23 JUMP JUMPDEST JUMPDEST PUSH2 0x3275 DUP9 DUP3 DUP10 ADD PUSH2 0x2FF4 JUMP JUMPDEST SWAP6 POP POP PUSH1 0x20 PUSH2 0x3286 DUP9 DUP3 DUP10 ADD PUSH2 0x320F JUMP JUMPDEST SWAP5 POP POP PUSH1 0xC0 PUSH2 0x3297 DUP9 DUP3 DUP10 ADD PUSH2 0x2E3C JUMP JUMPDEST SWAP4 POP POP PUSH1 0xE0 DUP7 ADD CALLDATALOAD PUSH8 0xFFFFFFFFFFFFFFFF DUP2 GT ISZERO PUSH2 0x32B8 JUMPI PUSH2 0x32B7 PUSH2 0x2A23 JUMP JUMPDEST JUMPDEST PUSH2 0x32C4 DUP9 DUP3 DUP10 ADD PUSH2 0x2B7C JUMP JUMPDEST SWAP3 POP SWAP3 POP POP SWAP3 SWAP6 POP SWAP3 SWAP6 SWAP1 SWAP4 POP JUMP JUMPDEST PUSH1 0x0 DUP1 PUSH1 0x20 DUP4 DUP6 SUB SLT ISZERO PUSH2 0x32EA JUMPI PUSH2 0x32E9 PUSH2 0x2A1E JUMP JUMPDEST JUMPDEST PUSH1 0x0 DUP4 ADD CALLDATALOAD PUSH8 0xFFFFFFFFFFFFFFFF DUP2 GT ISZERO PUSH2 0x3308 JUMPI PUSH2 0x3307 PUSH2 0x2A23 JUMP JUMPDEST JUMPDEST PUSH2 0x3314 DUP6 DUP3 DUP7 ADD PUSH2 0x2B26 JUMP JUMPDEST SWAP3 POP SWAP3 POP POP SWAP3 POP SWAP3 SWAP1 POP JUMP JUMPDEST PUSH1 0x0 DUP2 MLOAD SWAP1 POP SWAP2 SWAP1 POP JUMP JUMPDEST PUSH1 0x0 DUP3 DUP3 MSTORE PUSH1 0x20 DUP3 ADD SWAP1 POP SWAP3 SWAP2 POP POP JUMP JUMPDEST PUSH1 0x0 PUSH2 0x3347 DUP3 PUSH2 0x3320 JUMP JUMPDEST PUSH2 0x3351 DUP2 DUP6 PUSH2 0x332B JUMP JUMPDEST SWAP4 POP PUSH2 0x3361 DUP2 DUP6 PUSH1 0x20 DUP7 ADD PUSH2 0x2C9B JUMP JUMPDEST PUSH2 0x336A DUP2 PUSH2 0x2CC5 JUMP JUMPDEST DUP5 ADD SWAP2 POP POP SWAP3 SWAP2 POP POP JUMP JUMPDEST PUSH1 0x0 PUSH1 0x20 DUP3 ADD SWAP1 POP DUP2 DUP2 SUB PUSH1 0x0 DUP4 ADD MSTORE PUSH2 0x338F DUP2 DUP5 PUSH2 0x333C JUMP JUMPDEST SWAP1 POP SWAP3 SWAP2 POP POP JUMP JUMPDEST PUSH1 0x0 DUP1 PUSH1 0x0 DUP1 PUSH1 0x60 DUP6 DUP8 SUB SLT ISZERO PUSH2 0x33B1 JUMPI PUSH2 0x33B0 PUSH2 0x2A1E JUMP JUMPDEST JUMPDEST PUSH1 0x0 PUSH2 0x33BF DUP8 DUP3 DUP9 ADD PUSH2 0x2E3C JUMP JUMPDEST SWAP5 POP POP PUSH1 0x20 PUSH2 0x33D0 DUP8 DUP3 DUP9 ADD PUSH2 0x2E3C JUMP JUMPDEST SWAP4 POP POP PUSH1 0x40 DUP6 ADD CALLDATALOAD PUSH8 0xFFFFFFFFFFFFFFFF DUP2 GT ISZERO PUSH2 0x33F1 JUMPI PUSH2 0x33F0 PUSH2 0x2A23 JUMP JUMPDEST JUMPDEST PUSH2 0x33FD DUP8 DUP3 DUP9 ADD PUSH2 0x2B7C JUMP JUMPDEST SWAP3 POP SWAP3 POP POP SWAP3 SWAP6 SWAP2 SWAP5 POP SWAP3 POP JUMP JUMPDEST PUSH1 0x0 DUP1 PUSH1 0x0 DUP1 PUSH1 0x60 DUP6 DUP8 SUB SLT ISZERO PUSH2 0x3425 JUMPI PUSH2 0x3424 PUSH2 0x2A1E JUMP JUMPDEST JUMPDEST PUSH1 0x0 PUSH2 0x3433 DUP8 DUP3 DUP9 ADD PUSH2 0x2E10 JUMP JUMPDEST SWAP5 POP POP PUSH1 0x20 PUSH2 0x3444 DUP8 DUP3 DUP9 ADD PUSH2 0x2E3C JUMP JUMPDEST SWAP4 POP POP PUSH1 0x40 DUP6 ADD CALLDATALOAD PUSH8 0xFFFFFFFFFFFFFFFF DUP2 GT ISZERO PUSH2 0x3465 JUMPI PUSH2 0x3464 PUSH2 0x2A23 JUMP JUMPDEST JUMPDEST PUSH2 0x3471 DUP8 DUP3 DUP9 ADD PUSH2 0x2B7C JUMP JUMPDEST SWAP3 POP SWAP3 POP POP SWAP3 SWAP6 SWAP2 SWAP5 POP SWAP3 POP JUMP JUMPDEST PUSH1 0x0 PUSH1 0x80 DUP3 DUP5 SUB SLT ISZERO PUSH2 0x3495 JUMPI PUSH2 0x3494 PUSH2 0x2FEF JUMP JUMPDEST JUMPDEST DUP2 SWAP1 POP SWAP3 SWAP2 POP POP JUMP JUMPDEST PUSH1 0x0 DUP1 PUSH1 0x0 PUSH1 0x40 DUP5 DUP7 SUB SLT ISZERO PUSH2 0x34B7 JUMPI PUSH2 0x34B6 PUSH2 0x2A1E JUMP JUMPDEST JUMPDEST PUSH1 0x0 DUP5 ADD CALLDATALOAD PUSH8 0xFFFFFFFFFFFFFFFF DUP2 GT ISZERO PUSH2 0x34D5 JUMPI PUSH2 0x34D4 PUSH2 0x2A23 JUMP JUMPDEST JUMPDEST PUSH2 0x34E1 DUP7 DUP3 DUP8 ADD PUSH2 0x347F JUMP JUMPDEST SWAP4 POP POP PUSH1 0x20 DUP5 ADD CALLDATALOAD PUSH8 0xFFFFFFFFFFFFFFFF DUP2 GT ISZERO PUSH2 0x3502 JUMPI PUSH2 0x3501 PUSH2 0x2A23 JUMP JUMPDEST JUMPDEST PUSH2 0x350E DUP7 DUP3 DUP8 ADD PUSH2 0x2B7C JUMP JUMPDEST SWAP3 POP SWAP3 POP POP SWAP3 POP SWAP3 POP SWAP3 JUMP JUMPDEST PUSH1 0x0 DUP3 DUP3 MSTORE PUSH1 0x20 DUP3 ADD SWAP1 POP SWAP3 SWAP2 POP POP JUMP JUMPDEST PUSH1 0x0 PUSH2 0x3536 DUP3 PUSH2 0x2C7F JUMP JUMPDEST PUSH2 0x3540 DUP2 DUP6 PUSH2 0x351A JUMP JUMPDEST SWAP4 POP PUSH2 0x3550 DUP2 DUP6 PUSH1 0x20 DUP7 ADD PUSH2 0x2C9B JUMP JUMPDEST PUSH2 0x3559 DUP2 PUSH2 0x2CC5 JUMP JUMPDEST DUP5 ADD SWAP2 POP POP SWAP3 SWAP2 POP POP JUMP JUMPDEST PUSH1 0x0 PUSH1 0x20 DUP3 ADD SWAP1 POP DUP2 DUP2 SUB PUSH1 0x0 DUP4 ADD MSTORE PUSH2 0x357E DUP2 DUP5 PUSH2 0x352B JUMP JUMPDEST SWAP1 POP SWAP3 SWAP2 POP POP JUMP JUMPDEST PUSH1 0x0 DUP1 DUP4 PUSH1 0x1F DUP5 ADD SLT PUSH2 0x359C JUMPI PUSH2 0x359B PUSH2 0x2B17 JUMP JUMPDEST JUMPDEST DUP3 CALLDATALOAD SWAP1 POP PUSH8 0xFFFFFFFFFFFFFFFF DUP2 GT ISZERO PUSH2 0x35B9 JUMPI PUSH2 0x35B8 PUSH2 0x2B1C JUMP JUMPDEST JUMPDEST PUSH1 0x20 DUP4 ADD SWAP2 POP DUP4 PUSH1 0x20 DUP3 MUL DUP4 ADD GT ISZERO PUSH2 0x35D5 JUMPI PUSH2 0x35D4 PUSH2 0x2B21 JUMP JUMPDEST JUMPDEST SWAP3 POP SWAP3 SWAP1 POP JUMP JUMPDEST PUSH1 0x0 DUP1 PUSH1 0x0 DUP1 PUSH1 0x0 DUP1 PUSH1 0x0 PUSH1 0x80 DUP9 DUP11 SUB SLT ISZERO PUSH2 0x35FB JUMPI PUSH2 0x35FA PUSH2 0x2A1E JUMP JUMPDEST JUMPDEST PUSH1 0x0 DUP9 ADD CALLDATALOAD PUSH8 0xFFFFFFFFFFFFFFFF DUP2 GT ISZERO PUSH2 0x3619 JUMPI PUSH2 0x3618 PUSH2 0x2A23 JUMP JUMPDEST JUMPDEST PUSH2 0x3625 DUP11 DUP3 DUP12 ADD PUSH2 0x3124 JUMP JUMPDEST SWAP8 POP SWAP8 POP POP PUSH1 0x20 DUP9 ADD CALLDATALOAD PUSH8 0xFFFFFFFFFFFFFFFF DUP2 GT ISZERO PUSH2 0x3648 JUMPI PUSH2 0x3647 PUSH2 0x2A23 JUMP JUMPDEST JUMPDEST PUSH2 0x3654 DUP11 DUP3 DUP12 ADD PUSH2 0x3586 JUMP JUMPDEST SWAP6 POP SWAP6 POP POP PUSH1 0x40 PUSH2 0x3667 DUP11 DUP3 DUP12 ADD PUSH2 0x2E3C JUMP JUMPDEST SWAP4 POP POP PUSH1 0x60 DUP9 ADD CALLDATALOAD PUSH8 0xFFFFFFFFFFFFFFFF DUP2 GT ISZERO PUSH2 0x3688 JUMPI PUSH2 0x3687 PUSH2 0x2A23 JUMP JUMPDEST JUMPDEST PUSH2 0x3694 DUP11 DUP3 DUP12 ADD PUSH2 0x2B7C JUMP JUMPDEST SWAP3 POP SWAP3 POP POP SWAP3 SWAP6 SWAP9 SWAP2 SWAP5 SWAP8 POP SWAP3 SWAP6 POP JUMP JUMPDEST PUSH1 0x0 DUP1 PUSH1 0x0 DUP1 PUSH1 0x0 DUP1 PUSH1 0x0 DUP1 PUSH1 0xA0 DUP10 DUP12 SUB SLT ISZERO PUSH2 0x36C5 JUMPI PUSH2 0x36C4 PUSH2 0x2A1E JUMP JUMPDEST JUMPDEST PUSH1 0x0 PUSH2 0x36D3 DUP12 DUP3 DUP13 ADD PUSH2 0x2E10 JUMP JUMPDEST SWAP9 POP POP PUSH1 0x20 PUSH2 0x36E4 DUP12 DUP3 DUP13 ADD PUSH2 0x2E10 JUMP JUMPDEST SWAP8 POP POP PUSH1 0x40 DUP10 ADD CALLDATALOAD PUSH8 0xFFFFFFFFFFFFFFFF DUP2 GT ISZERO PUSH2 0x3705 JUMPI PUSH2 0x3704 PUSH2 0x2A23 JUMP JUMPDEST JUMPDEST PUSH2 0x3711 DUP12 DUP3 DUP13 ADD PUSH2 0x3586 JUMP JUMPDEST SWAP7 POP SWAP7 POP POP PUSH1 0x60 DUP10 ADD CALLDATALOAD PUSH8 0xFFFFFFFFFFFFFFFF DUP2 GT ISZERO PUSH2 0x3734 JUMPI PUSH2 0x3733 PUSH2 0x2A23 JUMP JUMPDEST JUMPDEST PUSH2 0x3740 DUP12 DUP3 DUP13 ADD PUSH2 0x3586 JUMP JUMPDEST SWAP5 POP SWAP5 POP POP PUSH1 0x80 DUP10 ADD CALLDATALOAD PUSH8 0xFFFFFFFFFFFFFFFF DUP2 GT ISZERO PUSH2 0x3763 JUMPI PUSH2 0x3762 PUSH2 0x2A23 JUMP JUMPDEST JUMPDEST PUSH2 0x376F DUP12 DUP3 DUP13 ADD PUSH2 0x2E51 JUMP JUMPDEST SWAP3 POP SWAP3 POP POP SWAP3 SWAP6 SWAP9 POP SWAP3 SWAP6 SWAP9 SWAP1 SWAP4 SWAP7 POP JUMP JUMPDEST PUSH1 0x0 PUSH1 0x20 DUP3 DUP5 SUB SLT ISZERO PUSH2 0x3797 JUMPI PUSH2 0x3796 PUSH2 0x2A1E JUMP JUMPDEST JUMPDEST PUSH1 0x0 PUSH2 0x37A5 DUP5 DUP3 DUP6 ADD PUSH2 0x2E10 JUMP JUMPDEST SWAP2 POP POP SWAP3 SWAP2 POP POP JUMP JUMPDEST PUSH1 0x0 DUP1 PUSH1 0x0 DUP1 PUSH1 0x0 PUSH1 0x80 DUP7 DUP9 SUB SLT ISZERO PUSH2 0x37CA JUMPI PUSH2 0x37C9 PUSH2 0x2A1E JUMP JUMPDEST JUMPDEST PUSH1 0x0 PUSH2 0x37D8 DUP9 DUP3 DUP10 ADD PUSH2 0x2E10 JUMP JUMPDEST SWAP6 POP POP PUSH1 0x20 PUSH2 0x37E9 DUP9 DUP3 DUP10 ADD PUSH2 0x2E3C JUMP JUMPDEST SWAP5 POP POP PUSH1 0x40 PUSH2 0x37FA DUP9 DUP3 DUP10 ADD PUSH2 0x2E3C JUMP JUMPDEST SWAP4 POP POP PUSH1 0x60 DUP7 ADD CALLDATALOAD PUSH8 0xFFFFFFFFFFFFFFFF DUP2 GT ISZERO PUSH2 0x381B JUMPI PUSH2 0x381A PUSH2 0x2A23 JUMP JUMPDEST JUMPDEST PUSH2 0x3827 DUP9 DUP3 DUP10 ADD PUSH2 0x2B7C JUMP JUMPDEST SWAP3 POP SWAP3 POP POP SWAP3 SWAP6 POP SWAP3 SWAP6 SWAP1 SWAP4 POP JUMP JUMPDEST PUSH1 0x0 PUSH1 0x20 DUP3 DUP5 SUB SLT ISZERO PUSH2 0x384C JUMPI PUSH2 0x384B PUSH2 0x2A1E JUMP JUMPDEST JUMPDEST PUSH1 0x0 DUP3 ADD CALLDATALOAD PUSH8 0xFFFFFFFFFFFFFFFF DUP2 GT ISZERO PUSH2 0x386A JUMPI PUSH2 0x3869 PUSH2 0x2A23 JUMP JUMPDEST JUMPDEST PUSH2 0x3876 DUP5 DUP3 DUP6 ADD PUSH2 0x347F JUMP JUMPDEST SWAP2 POP POP SWAP3 SWAP2 POP POP JUMP JUMPDEST PUSH1 0x0 DUP1 PUSH1 0x0 DUP1 PUSH1 0x0 DUP1 PUSH1 0xA0 DUP8 DUP10 SUB SLT ISZERO PUSH2 0x389C JUMPI PUSH2 0x389B PUSH2 0x2A1E JUMP JUMPDEST JUMPDEST PUSH1 0x0 PUSH2 0x38AA DUP10 DUP3 DUP11 ADD PUSH2 0x2E10 JUMP JUMPDEST SWAP7 POP POP PUSH1 0x20 PUSH2 0x38BB DUP10 DUP3 DUP11 ADD PUSH2 0x2E10 JUMP JUMPDEST SWAP6 POP POP PUSH1 0x40 PUSH2 0x38CC DUP10 DUP3 DUP11 ADD PUSH2 0x2E3C JUMP JUMPDEST SWAP5 POP POP PUSH1 0x60 PUSH2 0x38DD DUP10 DUP3 DUP11 ADD PUSH2 0x2E3C JUMP JUMPDEST SWAP4 POP POP PUSH1 0x80 DUP8 ADD CALLDATALOAD PUSH8 0xFFFFFFFFFFFFFFFF DUP2 GT ISZERO PUSH2 0x38FE JUMPI PUSH2 0x38FD PUSH2 0x2A23 JUMP JUMPDEST JUMPDEST PUSH2 0x390A DUP10 DUP3 DUP11 ADD PUSH2 0x2E51 JUMP JUMPDEST SWAP3 POP SWAP3 POP POP SWAP3 SWAP6 POP SWAP3 SWAP6 POP SWAP3 SWAP6 JUMP JUMPDEST PUSH1 0x0 DUP3 DUP3 MSTORE PUSH1 0x20 DUP3 ADD SWAP1 POP SWAP3 SWAP2 POP POP JUMP JUMPDEST PUSH1 0x0 DUP2 SWAP1 POP SWAP2 SWAP1 POP JUMP JUMPDEST PUSH1 0x0 PUSH2 0x3943 PUSH1 0x20 DUP5 ADD DUP5 PUSH2 0x2E10 JUMP JUMPDEST SWAP1 POP SWAP3 SWAP2 POP POP JUMP JUMPDEST PUSH2 0x3954 DUP2 PUSH2 0x2DE7 JUMP JUMPDEST DUP3 MSTORE POP POP JUMP JUMPDEST PUSH1 0x0 PUSH2 0x3969 PUSH1 0x20 DUP5 ADD DUP5 PUSH2 0x2E3C JUMP JUMPDEST SWAP1 POP SWAP3 SWAP2 POP POP JUMP JUMPDEST PUSH2 0x397A DUP2 PUSH2 0x2AE3 JUMP JUMPDEST DUP3 MSTORE POP POP JUMP JUMPDEST PUSH1 0x0 DUP1 REVERT JUMPDEST PUSH1 0x0 DUP1 REVERT JUMPDEST PUSH1 0x0 DUP1 REVERT JUMPDEST PUSH1 0x0 DUP1 DUP4 CALLDATALOAD PUSH1 0x1 PUSH1 0x20 SUB DUP5 CALLDATASIZE SUB SUB DUP2 SLT PUSH2 0x39AC JUMPI PUSH2 0x39AB PUSH2 0x398A JUMP JUMPDEST JUMPDEST DUP4 DUP2 ADD SWAP3 POP DUP3 CALLDATALOAD SWAP2 POP PUSH1 0x20 DUP4 ADD SWAP3 POP PUSH8 0xFFFFFFFFFFFFFFFF DUP3 GT ISZERO PUSH2 0x39D4 JUMPI PUSH2 0x39D3 PUSH2 0x3980 JUMP JUMPDEST JUMPDEST PUSH1 0x1 DUP3 MUL CALLDATASIZE SUB DUP4 SGT ISZERO PUSH2 0x39EA JUMPI PUSH2 0x39E9 PUSH2 0x3985 JUMP JUMPDEST JUMPDEST POP SWAP3 POP SWAP3 SWAP1 POP JUMP JUMPDEST DUP3 DUP2 DUP4 CALLDATACOPY PUSH1 0x0 DUP4 DUP4 ADD MSTORE POP POP POP JUMP JUMPDEST PUSH1 0x0 PUSH2 0x3A0D DUP4 DUP6 PUSH2 0x2C8A JUMP JUMPDEST SWAP4 POP PUSH2 0x3A1A DUP4 DUP6 DUP5 PUSH2 0x39F2 JUMP JUMPDEST PUSH2 0x3A23 DUP4 PUSH2 0x2CC5 JUMP JUMPDEST DUP5 ADD SWAP1 POP SWAP4 SWAP3 POP POP POP JUMP JUMPDEST PUSH1 0x0 PUSH1 0x80 DUP4 ADD PUSH2 0x3A41 PUSH1 0x0 DUP5 ADD DUP5 PUSH2 0x3934 JUMP JUMPDEST PUSH2 0x3A4E PUSH1 0x0 DUP7 ADD DUP3 PUSH2 0x394B JUMP JUMPDEST POP PUSH2 0x3A5C PUSH1 0x20 DUP5 ADD DUP5 PUSH2 0x395A JUMP JUMPDEST PUSH2 0x3A69 PUSH1 0x20 DUP7 ADD DUP3 PUSH2 0x3971 JUMP JUMPDEST POP PUSH2 0x3A77 PUSH1 0x40 DUP5 ADD DUP5 PUSH2 0x395A JUMP JUMPDEST PUSH2 0x3A84 PUSH1 0x40 DUP7 ADD DUP3 PUSH2 0x3971 JUMP JUMPDEST POP PUSH2 0x3A92 PUSH1 0x60 DUP5 ADD DUP5 PUSH2 0x398F JUMP JUMPDEST DUP6 DUP4 SUB PUSH1 0x60 DUP8 ADD MSTORE PUSH2 0x3AA5 DUP4 DUP3 DUP5 PUSH2 0x3A01 JUMP JUMPDEST SWAP3 POP POP POP DUP1 SWAP2 POP POP SWAP3 SWAP2 POP POP JUMP JUMPDEST PUSH1 0x0 PUSH2 0x3ABF DUP4 DUP4 PUSH2 0x3A2E JUMP JUMPDEST SWAP1 POP SWAP3 SWAP2 POP POP JUMP JUMPDEST PUSH1 0x0 DUP3 CALLDATALOAD PUSH1 0x1 PUSH1 0x80 SUB DUP4 CALLDATASIZE SUB SUB DUP2 SLT PUSH2 0x3AE3 JUMPI PUSH2 0x3AE2 PUSH2 0x398A JUMP JUMPDEST JUMPDEST DUP3 DUP2 ADD SWAP2 POP POP SWAP3 SWAP2 POP POP JUMP JUMPDEST PUSH1 0x0 PUSH1 0x20 DUP3 ADD SWAP1 POP SWAP2 SWAP1 POP JUMP JUMPDEST PUSH1 0x0 PUSH2 0x3B08 DUP4 DUP6 PUSH2 0x3919 JUMP JUMPDEST SWAP4 POP DUP4 PUSH1 0x20 DUP5 MUL DUP6 ADD PUSH2 0x3B1A DUP5 PUSH2 0x392A JUMP JUMPDEST DUP1 PUSH1 0x0 JUMPDEST DUP8 DUP2 LT ISZERO PUSH2 0x3B5E JUMPI DUP5 DUP5 SUB DUP10 MSTORE PUSH2 0x3B35 DUP3 DUP5 PUSH2 0x3AC7 JUMP JUMPDEST PUSH2 0x3B3F DUP6 DUP3 PUSH2 0x3AB3 JUMP JUMPDEST SWAP5 POP PUSH2 0x3B4A DUP4 PUSH2 0x3AEF JUMP JUMPDEST SWAP3 POP PUSH1 0x20 DUP11 ADD SWAP10 POP POP PUSH1 0x1 DUP2 ADD SWAP1 POP PUSH2 0x3B1E JUMP JUMPDEST POP DUP3 SWAP8 POP DUP8 SWAP5 POP POP POP POP POP SWAP4 SWAP3 POP POP POP JUMP JUMPDEST PUSH1 0x0 PUSH1 0x40 DUP3 ADD SWAP1 POP DUP2 DUP2 SUB PUSH1 0x0 DUP4 ADD MSTORE PUSH2 0x3B8B DUP2 DUP6 DUP8 PUSH2 0x3AFC JUMP JUMPDEST SWAP1 POP PUSH2 0x3B9A PUSH1 0x20 DUP4 ADD DUP5 PUSH2 0x2AED JUMP JUMPDEST SWAP5 SWAP4 POP POP POP POP JUMP JUMPDEST PUSH32 0x4E487B7100000000000000000000000000000000000000000000000000000000 PUSH1 0x0 MSTORE PUSH1 0x41 PUSH1 0x4 MSTORE PUSH1 0x24 PUSH1 0x0 REVERT JUMPDEST PUSH2 0x3BDA DUP3 PUSH2 0x2CC5 JUMP JUMPDEST DUP2 ADD DUP2 DUP2 LT PUSH8 0xFFFFFFFFFFFFFFFF DUP3 GT OR ISZERO PUSH2 0x3BF9 JUMPI PUSH2 0x3BF8 PUSH2 0x3BA2 JUMP JUMPDEST JUMPDEST DUP1 PUSH1 0x40 MSTORE POP POP POP JUMP JUMPDEST PUSH1 0x0 PUSH2 0x3C0C PUSH2 0x2A14 JUMP JUMPDEST SWAP1 POP PUSH2 0x3C18 DUP3 DUP3 PUSH2 0x3BD1 JUMP JUMPDEST SWAP2 SWAP1 POP JUMP JUMPDEST PUSH1 0x0 PUSH8 0xFFFFFFFFFFFFFFFF DUP3 GT ISZERO PUSH2 0x3C38 JUMPI PUSH2 0x3C37 PUSH2 0x3BA2 JUMP JUMPDEST JUMPDEST PUSH1 0x20 DUP3 MUL SWAP1 POP PUSH1 0x20 DUP2 ADD SWAP1 POP SWAP2 SWAP1 POP JUMP JUMPDEST PUSH1 0x0 DUP1 REVERT JUMPDEST PUSH1 0x0 PUSH8 0xFFFFFFFFFFFFFFFF DUP3 GT ISZERO PUSH2 0x3C69 JUMPI PUSH2 0x3C68 PUSH2 0x3BA2 JUMP JUMPDEST JUMPDEST PUSH2 0x3C72 DUP3 PUSH2 0x2CC5 JUMP JUMPDEST SWAP1 POP PUSH1 0x20 DUP2 ADD SWAP1 POP SWAP2 SWAP1 POP JUMP JUMPDEST PUSH1 0x0 PUSH2 0x3C92 PUSH2 0x3C8D DUP5 PUSH2 0x3C4E JUMP JUMPDEST PUSH2 0x3C02 JUMP JUMPDEST SWAP1 POP DUP3 DUP2 MSTORE PUSH1 0x20 DUP2 ADD DUP5 DUP5 DUP5 ADD GT ISZERO PUSH2 0x3CAE JUMPI PUSH2 0x3CAD PUSH2 0x3C49 JUMP JUMPDEST JUMPDEST PUSH2 0x3CB9 DUP5 DUP3 DUP6 PUSH2 0x39F2 JUMP JUMPDEST POP SWAP4 SWAP3 POP POP POP JUMP JUMPDEST PUSH1 0x0 DUP3 PUSH1 0x1F DUP4 ADD SLT PUSH2 0x3CD6 JUMPI PUSH2 0x3CD5 PUSH2 0x2B17 JUMP JUMPDEST JUMPDEST DUP2 CALLDATALOAD PUSH2 0x3CE6 DUP5 DUP3 PUSH1 0x20 DUP7 ADD PUSH2 0x3C7F JUMP JUMPDEST SWAP2 POP POP SWAP3 SWAP2 POP POP JUMP JUMPDEST PUSH1 0x0 PUSH2 0x3D02 PUSH2 0x3CFD DUP5 PUSH2 0x3C1D JUMP JUMPDEST PUSH2 0x3C02 JUMP JUMPDEST SWAP1 POP DUP1 DUP4 DUP3 MSTORE PUSH1 0x20 DUP3 ADD SWAP1 POP PUSH1 0x20 DUP5 MUL DUP4 ADD DUP6 DUP2 GT ISZERO PUSH2 0x3D25 JUMPI PUSH2 0x3D24 PUSH2 0x2B21 JUMP JUMPDEST JUMPDEST DUP4 JUMPDEST DUP2 DUP2 LT ISZERO PUSH2 0x3D6C JUMPI DUP1 CALLDATALOAD PUSH8 0xFFFFFFFFFFFFFFFF DUP2 GT ISZERO PUSH2 0x3D4A JUMPI PUSH2 0x3D49 PUSH2 0x2B17 JUMP JUMPDEST JUMPDEST DUP1 DUP7 ADD PUSH2 0x3D57 DUP10 DUP3 PUSH2 0x3CC1 JUMP JUMPDEST DUP6 MSTORE PUSH1 0x20 DUP6 ADD SWAP5 POP POP POP PUSH1 0x20 DUP2 ADD SWAP1 POP PUSH2 0x3D27 JUMP JUMPDEST POP POP POP SWAP4 SWAP3 POP POP POP JUMP JUMPDEST PUSH1 0x0 PUSH2 0x3D83 CALLDATASIZE DUP5 DUP5 PUSH2 0x3CEF JUMP JUMPDEST SWAP1 POP SWAP3 SWAP2 POP POP JUMP JUMPDEST PUSH32 0x4E487B7100000000000000000000000000000000000000000000000000000000 PUSH1 0x0 MSTORE PUSH1 0x32 PUSH1 0x4 MSTORE PUSH1 0x24 PUSH1 0x0 REVERT JUMPDEST PUSH1 0x0 DUP1 REVERT JUMPDEST PUSH1 0x0 DUP1 REVERT JUMPDEST PUSH1 0x0 DUP1 REVERT JUMPDEST PUSH1 0x0 DUP1 DUP4 CALLDATALOAD PUSH1 0x1 PUSH1 0x20 SUB DUP5 CALLDATASIZE SUB SUB DUP2 SLT PUSH2 0x3DE6 JUMPI PUSH2 0x3DE5 PUSH2 0x3DBA JUMP JUMPDEST JUMPDEST DUP1 DUP5 ADD SWAP3 POP DUP3 CALLDATALOAD SWAP2 POP PUSH8 0xFFFFFFFFFFFFFFFF DUP3 GT ISZERO PUSH2 0x3E08 JUMPI PUSH2 0x3E07 PUSH2 0x3DBF JUMP JUMPDEST JUMPDEST PUSH1 0x20 DUP4 ADD SWAP3 POP PUSH1 0x1 DUP3 MUL CALLDATASIZE SUB DUP4 SGT ISZERO PUSH2 0x3E24 JUMPI PUSH2 0x3E23 PUSH2 0x3DC4 JUMP JUMPDEST JUMPDEST POP SWAP3 POP SWAP3 SWAP1 POP JUMP JUMPDEST PUSH1 0x0 DUP2 SWAP1 POP SWAP3 SWAP2 POP POP JUMP JUMPDEST PUSH1 0x0 PUSH2 0x3E43 DUP4 DUP6 PUSH2 0x3E2C JUMP JUMPDEST SWAP4 POP PUSH2 0x3E50 DUP4 DUP6 DUP5 PUSH2 0x39F2 JUMP JUMPDEST DUP3 DUP5 ADD SWAP1 POP SWAP4 SWAP3 POP POP POP JUMP JUMPDEST PUSH1 0x0 PUSH2 0x3E69 DUP3 DUP5 DUP7 PUSH2 0x3E37 JUMP JUMPDEST SWAP2 POP DUP2 SWAP1 POP SWAP4 SWAP3 POP POP POP JUMP JUMPDEST PUSH32 0x4E487B7100000000000000000000000000000000000000000000000000000000 PUSH1 0x0 MSTORE PUSH1 0x11 PUSH1 0x4 MSTORE PUSH1 0x24 PUSH1 0x0 REVERT JUMPDEST PUSH1 0x0 PUSH2 0x3EAF DUP3 PUSH2 0x2AE3 JUMP JUMPDEST SWAP2 POP PUSH32 0xFFFFFFFFFFFFFFFFFFFFFFFFFFFFFFFFFFFFFFFFFFFFFFFFFFFFFFFFFFFFFFFF DUP3 SUB PUSH2 0x3EE1 JUMPI PUSH2 0x3EE0 PUSH2 0x3E75 JUMP JUMPDEST JUMPDEST PUSH1 0x1 DUP3 ADD SWAP1 POP SWAP2 SWAP1 POP JUMP JUMPDEST PUSH1 0x0 DUP3 CALLDATALOAD PUSH1 0x1 PUSH1 0x80 SUB DUP4 CALLDATASIZE SUB SUB DUP2 SLT PUSH2 0x3F08 JUMPI PUSH2 0x3F07 PUSH2 0x3DBA JUMP JUMPDEST JUMPDEST DUP1 DUP4 ADD SWAP2 POP POP SWAP3 SWAP2 POP POP JUMP JUMPDEST PUSH1 0x0 PUSH1 0x80 DUP4 ADD PUSH2 0x3F27 PUSH1 0x0 DUP5 ADD DUP5 PUSH2 0x3934 JUMP JUMPDEST PUSH2 0x3F34 PUSH1 0x0 DUP7 ADD DUP3 PUSH2 0x394B JUMP JUMPDEST POP PUSH2 0x3F42 PUSH1 0x20 DUP5 ADD DUP5 PUSH2 0x3934 JUMP JUMPDEST PUSH2 0x3F4F PUSH1 0x20 DUP7 ADD DUP3 PUSH2 0x394B JUMP JUMPDEST POP PUSH2 0x3F5D PUSH1 0x40 DUP5 ADD DUP5 PUSH2 0x395A JUMP JUMPDEST PUSH2 0x3F6A PUSH1 0x40 DUP7 ADD DUP3 PUSH2 0x3971 JUMP JUMPDEST POP PUSH2 0x3F78 PUSH1 0x60 DUP5 ADD DUP5 PUSH2 0x398F JUMP JUMPDEST DUP6 DUP4 SUB PUSH1 0x60 DUP8 ADD MSTORE PUSH2 0x3F8B DUP4 DUP3 DUP5 PUSH2 0x3A01 JUMP JUMPDEST SWAP3 POP POP POP DUP1 SWAP2 POP POP SWAP3 SWAP2 POP POP JUMP JUMPDEST PUSH1 0x0 PUSH1 0x60 DUP3 ADD SWAP1 POP DUP2 DUP2 SUB PUSH1 0x0 DUP4 ADD MSTORE PUSH2 0x3FB3 DUP2 DUP7 PUSH2 0x3F14 JUMP JUMPDEST SWAP1 POP PUSH2 0x3FC2 PUSH1 0x20 DUP4 ADD DUP6 PUSH2 0x2AED JUMP JUMPDEST PUSH2 0x3FCF PUSH1 0x40 DUP4 ADD DUP5 PUSH2 0x2AED JUMP JUMPDEST SWAP5 SWAP4 POP POP POP POP JUMP JUMPDEST PUSH2 0x3FE0 DUP2 PUSH2 0x2DE7 JUMP JUMPDEST DUP3 MSTORE POP POP JUMP JUMPDEST PUSH1 0x0 PUSH2 0x3FF2 DUP4 DUP6 PUSH2 0x351A JUMP JUMPDEST SWAP4 POP PUSH2 0x3FFF DUP4 DUP6 DUP5 PUSH2 0x39F2 JUMP JUMPDEST PUSH2 0x4008 DUP4 PUSH2 0x2CC5 JUMP JUMPDEST DUP5 ADD SWAP1 POP SWAP4 SWAP3 POP POP POP JUMP JUMPDEST PUSH1 0x0 PUSH1 0x80 DUP3 ADD SWAP1 POP PUSH2 0x4028 PUSH1 0x0 DUP4 ADD DUP9 PUSH2 0x3FD7 JUMP JUMPDEST PUSH2 0x4035 PUSH1 0x20 DUP4 ADD DUP8 PUSH2 0x3FD7 JUMP JUMPDEST PUSH2 0x4042 PUSH1 0x40 DUP4 ADD DUP7 PUSH2 0x2AED JUMP JUMPDEST DUP2 DUP2 SUB PUSH1 0x60 DUP4 ADD MSTORE PUSH2 0x4055 DUP2 DUP5 DUP7 PUSH2 0x3FE6 JUMP JUMPDEST SWAP1 POP SWAP7 SWAP6 POP POP POP POP POP POP JUMP JUMPDEST PUSH1 0x0 DUP3 DUP3 MSTORE PUSH1 0x20 DUP3 ADD SWAP1 POP SWAP3 SWAP2 POP POP JUMP JUMPDEST PUSH1 0x0 DUP2 SWAP1 POP SWAP2 SWAP1 POP JUMP JUMPDEST PUSH1 0x0 PUSH2 0x4088 DUP4 DUP4 PUSH2 0x394B JUMP JUMPDEST PUSH1 0x20 DUP4 ADD SWAP1 POP SWAP3 SWAP2 POP POP JUMP JUMPDEST PUSH1 0x0 PUSH1 0x20 DUP3 ADD SWAP1 POP SWAP2 SWAP1 POP JUMP JUMPDEST PUSH1 0x0 PUSH2 0x40AD DUP4 DUP6 PUSH2 0x4061 JUMP JUMPDEST SWAP4 POP PUSH2 0x40B8 DUP3 PUSH2 0x4072 JUMP JUMPDEST DUP1 PUSH1 0x0 JUMPDEST DUP6 DUP2 LT ISZERO PUSH2 0x40F1 JUMPI PUSH2 0x40CE DUP3 DUP5 PUSH2 0x3934 JUMP JUMPDEST PUSH2 0x40D8 DUP9 DUP3 PUSH2 0x407C JUMP JUMPDEST SWAP8 POP PUSH2 0x40E3 DUP4 PUSH2 0x4094 JUMP JUMPDEST SWAP3 POP POP PUSH1 0x1 DUP2 ADD SWAP1 POP PUSH2 0x40BC JUMP JUMPDEST POP DUP6 SWAP3 POP POP POP SWAP4 SWAP3 POP POP POP JUMP JUMPDEST PUSH1 0x0 PUSH1 0x60 DUP3 ADD SWAP1 POP DUP2 DUP2 SUB PUSH1 0x0 DUP4 ADD MSTORE PUSH2 0x4119 DUP2 DUP7 DUP9 PUSH2 0x40A1 JUMP JUMPDEST SWAP1 POP PUSH2 0x4128 PUSH1 0x20 DUP4 ADD DUP6 PUSH2 0x2AED JUMP JUMPDEST PUSH2 0x4135 PUSH1 0x40 DUP4 ADD DUP5 PUSH2 0x2AED JUMP JUMPDEST SWAP6 SWAP5 POP POP POP POP POP JUMP JUMPDEST PUSH1 0x0 PUSH8 0xFFFFFFFFFFFFFFFF DUP3 AND SWAP1 POP SWAP2 SWAP1 POP JUMP JUMPDEST PUSH2 0x415B DUP2 PUSH2 0x413E JUMP JUMPDEST DUP2 EQ PUSH2 0x4166 JUMPI PUSH1 0x0 DUP1 REVERT JUMPDEST POP JUMP JUMPDEST PUSH1 0x0 DUP2 CALLDATALOAD SWAP1 POP PUSH2 0x4178 DUP2 PUSH2 0x4152 JUMP JUMPDEST SWAP3 SWAP2 POP POP JUMP JUMPDEST PUSH1 0x0 PUSH2 0x418D PUSH1 0x20 DUP5 ADD DUP5 PUSH2 0x4169 JUMP JUMPDEST SWAP1 POP SWAP3 SWAP2 POP POP JUMP JUMPDEST PUSH2 0x419E DUP2 PUSH2 0x413E JUMP JUMPDEST DUP3 MSTORE POP POP JUMP JUMPDEST PUSH1 0x0 PUSH4 0xFFFFFFFF DUP3 AND SWAP1 POP SWAP2 SWAP1 POP JUMP JUMPDEST PUSH2 0x41BD DUP2 PUSH2 0x41A4 JUMP JUMPDEST DUP2 EQ PUSH2 0x41C8 JUMPI PUSH1 0x0 DUP1 REVERT JUMPDEST POP JUMP JUMPDEST PUSH1 0x0 DUP2 CALLDATALOAD SWAP1 POP PUSH2 0x41DA DUP2 PUSH2 0x41B4 JUMP JUMPDEST SWAP3 SWAP2 POP POP JUMP JUMPDEST PUSH1 0x0 PUSH2 0x41EF PUSH1 0x20 DUP5 ADD DUP5 PUSH2 0x41CB JUMP JUMPDEST SWAP1 POP SWAP3 SWAP2 POP POP JUMP JUMPDEST PUSH2 0x4200 DUP2 PUSH2 0x41A4 JUMP JUMPDEST DUP3 MSTORE POP POP JUMP JUMPDEST PUSH1 0xA0 DUP3 ADD PUSH2 0x4217 PUSH1 0x0 DUP4 ADD DUP4 PUSH2 0x417E JUMP JUMPDEST PUSH2 0x4224 PUSH1 0x0 DUP6 ADD DUP3 PUSH2 0x4195 JUMP JUMPDEST POP PUSH2 0x4232 PUSH1 0x20 DUP4 ADD DUP4 PUSH2 0x417E JUMP JUMPDEST PUSH2 0x423F PUSH1 0x20 DUP6 ADD DUP3 PUSH2 0x4195 JUMP JUMPDEST POP PUSH2 0x424D PUSH1 0x40 DUP4 ADD DUP4 PUSH2 0x41E0 JUMP JUMPDEST PUSH2 0x425A PUSH1 0x40 DUP6 ADD DUP3 PUSH2 0x41F7 JUMP JUMPDEST POP PUSH2 0x4268 PUSH1 0x60 DUP4 ADD DUP4 PUSH2 0x41E0 JUMP JUMPDEST PUSH2 0x4275 PUSH1 0x60 DUP6 ADD DUP3 PUSH2 0x41F7 JUMP JUMPDEST POP PUSH2 0x4283 PUSH1 0x80 DUP4 ADD DUP4 PUSH2 0x41E0 JUMP JUMPDEST PUSH2 0x4290 PUSH1 0x80 DUP6 ADD DUP3 PUSH2 0x41F7 JUMP JUMPDEST POP POP POP POP JUMP JUMPDEST PUSH1 0x0 PUSH2 0x100 DUP3 ADD SWAP1 POP DUP2 DUP2 SUB PUSH1 0x0 DUP4 ADD MSTORE PUSH2 0x42B1 DUP2 DUP8 PUSH2 0x3F14 JUMP JUMPDEST SWAP1 POP PUSH2 0x42C0 PUSH1 0x20 DUP4 ADD DUP7 PUSH2 0x4206 JUMP JUMPDEST PUSH2 0x42CD PUSH1 0xC0 DUP4 ADD DUP6 PUSH2 0x2AED JUMP JUMPDEST PUSH2 0x42DA PUSH1 0xE0 DUP4 ADD DUP5 PUSH2 0x2AED JUMP JUMPDEST SWAP6 SWAP5 POP POP POP POP POP JUMP JUMPDEST PUSH1 0x0 PUSH1 0x20 DUP3 DUP5 SUB SLT ISZERO PUSH2 0x42F9 JUMPI PUSH2 0x42F8 PUSH2 0x2A1E JUMP JUMPDEST JUMPDEST PUSH1 0x0 PUSH2 0x4307 DUP5 DUP3 DUP6 ADD PUSH2 0x41CB JUMP JUMPDEST SWAP2 POP POP SWAP3 SWAP2 POP POP JUMP JUMPDEST PUSH32 0x45786563757465526571756573745065726D697373696F6E2E6D617845786563 PUSH1 0x0 DUP3 ADD MSTORE PUSH32 0x75746573206D757374206E6F7420626520300000000000000000000000000000 PUSH1 0x20 DUP3 ADD MSTORE POP JUMP JUMPDEST PUSH1 0x0 PUSH2 0x436C PUSH1 0x32 DUP4 PUSH2 0x332B JUMP JUMPDEST SWAP2 POP PUSH2 0x4377 DUP3 PUSH2 0x4310 JUMP JUMPDEST PUSH1 0x40 DUP3 ADD SWAP1 POP SWAP2 SWAP1 POP JUMP JUMPDEST PUSH1 0x0 PUSH1 0x20 DUP3 ADD SWAP1 POP DUP2 DUP2 SUB PUSH1 0x0 DUP4 ADD MSTORE PUSH2 0x439B DUP2 PUSH2 0x435F JUMP JUMPDEST SWAP1 POP SWAP2 SWAP1 POP JUMP JUMPDEST PUSH1 0x0 DUP2 CALLDATALOAD PUSH2 0x43AF DUP2 PUSH2 0x4152 JUMP JUMPDEST DUP1 SWAP2 POP POP SWAP2 SWAP1 POP JUMP JUMPDEST PUSH1 0x0 DUP2 PUSH1 0x0 SHL SWAP1 POP SWAP2 SWAP1 POP JUMP JUMPDEST PUSH1 0x0 PUSH8 0xFFFFFFFFFFFFFFFF PUSH2 0x43D9 DUP5 PUSH2 0x43B8 JUMP JUMPDEST SWAP4 POP DUP1 NOT DUP4 AND SWAP3 POP DUP1 DUP5 AND DUP4 OR SWAP2 POP POP SWAP3 SWAP2 POP POP JUMP JUMPDEST PUSH1 0x0 DUP2 SWAP1 POP SWAP2 SWAP1 POP JUMP JUMPDEST PUSH1 0x0 PUSH2 0x4414 PUSH2 0x440F PUSH2 0x440A DUP5 PUSH2 0x413E JUMP JUMPDEST PUSH2 0x43EF JUMP JUMPDEST PUSH2 0x413E JUMP JUMPDEST SWAP1 POP SWAP2 SWAP1 POP JUMP JUMPDEST PUSH1 0x0 DUP2 SWAP1 POP SWAP2 SWAP1 POP JUMP JUMPDEST PUSH2 0x442E DUP3 PUSH2 0x43F9 JUMP JUMPDEST PUSH2 0x4441 PUSH2 0x443A DUP3 PUSH2 0x441B JUMP JUMPDEST DUP4 SLOAD PUSH2 0x43C5 JUMP JUMPDEST DUP3 SSTORE POP POP POP JUMP JUMPDEST PUSH1 0x0 DUP2 PUSH1 0x40 SHL SWAP1 POP SWAP2 SWAP1 POP JUMP JUMPDEST PUSH1 0x0 PUSH16 0xFFFFFFFFFFFFFFFF0000000000000000 PUSH2 0x4471 DUP5 PUSH2 0x4448 JUMP JUMPDEST SWAP4 POP DUP1 NOT DUP4 AND SWAP3 POP DUP1 DUP5 AND DUP4 OR SWAP2 POP POP SWAP3 SWAP2 POP POP JUMP JUMPDEST PUSH2 0x4490 DUP3 PUSH2 0x43F9 JUMP JUMPDEST PUSH2 0x44A3 PUSH2 0x449C DUP3 PUSH2 0x441B JUMP JUMPDEST DUP4 SLOAD PUSH2 0x4455 JUMP JUMPDEST DUP3 SSTORE POP POP POP JUMP JUMPDEST PUSH1 0x0 DUP2 CALLDATALOAD PUSH2 0x44B7 DUP2 PUSH2 0x41B4 JUMP JUMPDEST DUP1 SWAP2 POP POP SWAP2 SWAP1 POP JUMP JUMPDEST PUSH1 0x0 DUP2 PUSH1 0x80 SHL SWAP1 POP SWAP2 SWAP1 POP JUMP JUMPDEST PUSH1 0x0 PUSH20 0xFFFFFFFF00000000000000000000000000000000 PUSH2 0x44ED DUP5 PUSH2 0x44C0 JUMP JUMPDEST SWAP4 POP DUP1 NOT DUP4 AND SWAP3 POP DUP1 DUP5 AND DUP4 OR SWAP2 POP POP SWAP3 SWAP2 POP POP JUMP JUMPDEST PUSH1 0x0 PUSH2 0x451E PUSH2 0x4519 PUSH2 0x4514 DUP5 PUSH2 0x41A4 JUMP JUMPDEST PUSH2 0x43EF JUMP JUMPDEST PUSH2 0x41A4 JUMP JUMPDEST SWAP1 POP SWAP2 SWAP1 POP JUMP JUMPDEST PUSH1 0x0 DUP2 SWAP1 POP SWAP2 SWAP1 POP JUMP JUMPDEST PUSH2 0x4538 DUP3 PUSH2 0x4503 JUMP JUMPDEST PUSH2 0x454B PUSH2 0x4544 DUP3 PUSH2 0x4525 JUMP JUMPDEST DUP4 SLOAD PUSH2 0x44CD JUMP JUMPDEST DUP3 SSTORE POP POP POP JUMP JUMPDEST PUSH1 0x0 DUP2 PUSH1 0xA0 SHL SWAP1 POP SWAP2 SWAP1 POP JUMP JUMPDEST PUSH1 0x0 PUSH24 0xFFFFFFFF0000000000000000000000000000000000000000 PUSH2 0x4583 DUP5 PUSH2 0x4552 JUMP JUMPDEST SWAP4 POP DUP1 NOT DUP4 AND SWAP3 POP DUP1 DUP5 AND DUP4 OR SWAP2 POP POP SWAP3 SWAP2 POP POP JUMP JUMPDEST PUSH2 0x45A2 DUP3 PUSH2 0x4503 JUMP JUMPDEST PUSH2 0x45B5 PUSH2 0x45AE DUP3 PUSH2 0x4525 JUMP JUMPDEST DUP4 SLOAD PUSH2 0x455F JUMP JUMPDEST DUP3 SSTORE POP POP POP JUMP JUMPDEST PUSH1 0x0 DUP2 PUSH1 0xC0 SHL SWAP1 POP SWAP2 SWAP1 POP JUMP JUMPDEST PUSH1 0x0 PUSH28 0xFFFFFFFF000000000000000000000000000000000000000000000000 PUSH2 0x45F1 DUP5 PUSH2 0x45BC JUMP JUMPDEST SWAP4 POP DUP1 NOT DUP4 AND SWAP3 POP DUP1 DUP5 AND DUP4 OR SWAP2 POP POP SWAP3 SWAP2 POP POP JUMP JUMPDEST PUSH2 0x4610 DUP3 PUSH2 0x4503 JUMP JUMPDEST PUSH2 0x4623 PUSH2 0x461C DUP3 PUSH2 0x4525 JUMP JUMPDEST DUP4 SLOAD PUSH2 0x45C9 JUMP JUMPDEST DUP3 SSTORE POP POP POP JUMP JUMPDEST PUSH1 0x0 DUP2 ADD PUSH1 0x0 DUP4 ADD DUP1 PUSH2 0x463C DUP2 PUSH2 0x43A2 JUMP JUMPDEST SWAP1 POP PUSH2 0x4648 DUP2 DUP5 PUSH2 0x4425 JUMP JUMPDEST POP POP POP PUSH1 0x0 DUP2 ADD PUSH1 0x20 DUP4 ADD DUP1 PUSH2 0x465D DUP2 PUSH2 0x43A2 JUMP JUMPDEST SWAP1 POP PUSH2 0x4669 DUP2 DUP5 PUSH2 0x4487 JUMP JUMPDEST POP POP POP PUSH1 0x0 DUP2 ADD PUSH1 0x40 DUP4 ADD DUP1 PUSH2 0x467E DUP2 PUSH2 0x44AA JUMP JUMPDEST SWAP1 POP PUSH2 0x468A DUP2 DUP5 PUSH2 0x452F JUMP JUMPDEST POP POP POP PUSH1 0x0 DUP2 ADD PUSH1 0x60 DUP4 ADD DUP1 PUSH2 0x469F DUP2 PUSH2 0x44AA JUMP JUMPDEST SWAP1 POP PUSH2 0x46AB DUP2 DUP5 PUSH2 0x4599 JUMP JUMPDEST POP POP POP PUSH1 0x0 DUP2 ADD PUSH1 0x80 DUP4 ADD DUP1 PUSH2 0x46C0 DUP2 PUSH2 0x44AA JUMP JUMPDEST SWAP1 POP PUSH2 0x46CC DUP2 DUP5 PUSH2 0x4607 JUMP JUMPDEST POP POP POP POP POP JUMP JUMPDEST PUSH2 0x46DD DUP3 DUP3 PUSH2 0x462A JUMP JUMPDEST POP POP JUMP JUMPDEST PUSH1 0x0 PUSH1 0x60 DUP3 ADD SWAP1 POP PUSH2 0x46F6 PUSH1 0x0 DUP4 ADD DUP7 PUSH2 0x2AED JUMP JUMPDEST PUSH2 0x4703 PUSH1 0x20 DUP4 ADD DUP6 PUSH2 0x2AED JUMP JUMPDEST PUSH2 0x4710 PUSH1 0x40 DUP4 ADD DUP5 PUSH2 0x2AED JUMP JUMPDEST SWAP5 SWAP4 POP POP POP POP JUMP JUMPDEST PUSH32 0x496E76616C6964207468726573686F6C64000000000000000000000000000000 PUSH1 0x0 DUP3 ADD MSTORE POP JUMP JUMPDEST PUSH1 0x0 PUSH2 0x474E PUSH1 0x11 DUP4 PUSH2 0x332B JUMP JUMPDEST SWAP2 POP PUSH2 0x4759 DUP3 PUSH2 0x4718 JUMP JUMPDEST PUSH1 0x20 DUP3 ADD SWAP1 POP SWAP2 SWAP1 POP JUMP JUMPDEST PUSH1 0x0 PUSH1 0x20 DUP3 ADD SWAP1 POP DUP2 DUP2 SUB PUSH1 0x0 DUP4 ADD MSTORE PUSH2 0x477D DUP2 PUSH2 0x4741 JUMP JUMPDEST SWAP1 POP SWAP2 SWAP1 POP JUMP JUMPDEST PUSH1 0x0 PUSH1 0x60 DUP3 ADD SWAP1 POP PUSH2 0x4799 PUSH1 0x0 DUP4 ADD DUP7 PUSH2 0x3FD7 JUMP JUMPDEST PUSH2 0x47A6 PUSH1 0x20 DUP4 ADD DUP6 PUSH2 0x2AED JUMP JUMPDEST PUSH2 0x47B3 PUSH1 0x40 DUP4 ADD DUP5 PUSH2 0x2AED JUMP JUMPDEST SWAP5 SWAP4 POP POP POP POP JUMP JUMPDEST PUSH2 0x47C4 DUP2 PUSH2 0x2AAD JUMP JUMPDEST DUP2 EQ PUSH2 0x47CF JUMPI PUSH1 0x0 DUP1 REVERT JUMPDEST POP JUMP JUMPDEST PUSH1 0x0 DUP2 MLOAD SWAP1 POP PUSH2 0x47E1 DUP2 PUSH2 0x47BB JUMP JUMPDEST SWAP3 SWAP2 POP POP JUMP JUMPDEST PUSH1 0x0 PUSH1 0x20 DUP3 DUP5 SUB SLT ISZERO PUSH2 0x47FD JUMPI PUSH2 0x47FC PUSH2 0x2A1E JUMP JUMPDEST JUMPDEST PUSH1 0x0 PUSH2 0x480B DUP5 DUP3 DUP6 ADD PUSH2 0x47D2 JUMP JUMPDEST SWAP2 POP POP SWAP3 SWAP2 POP POP JUMP JUMPDEST PUSH32 0x496E76616C696420696D706C656D656E746174696F6E00000000000000000000 PUSH1 0x0 DUP3 ADD MSTORE POP JUMP JUMPDEST PUSH1 0x0 PUSH2 0x484A PUSH1 0x16 DUP4 PUSH2 0x332B JUMP JUMPDEST SWAP2 POP PUSH2 0x4855 DUP3 PUSH2 0x4814 JUMP JUMPDEST PUSH1 0x20 DUP3 ADD SWAP1 POP SWAP2 SWAP1 POP JUMP JUMPDEST PUSH1 0x0 PUSH1 0x20 DUP3 ADD SWAP1 POP DUP2 DUP2 SUB PUSH1 0x0 DUP4 ADD MSTORE PUSH2 0x4879 DUP2 PUSH2 0x483D JUMP JUMPDEST SWAP1 POP SWAP2 SWAP1 POP JUMP JUMPDEST PUSH1 0x0 PUSH1 0x80 DUP4 ADD PUSH2 0x4893 PUSH1 0x0 DUP5 ADD DUP5 PUSH2 0x3934 JUMP JUMPDEST PUSH2 0x48A0 PUSH1 0x0 DUP7 ADD DUP3 PUSH2 0x394B JUMP JUMPDEST POP PUSH2 0x48AE PUSH1 0x20 DUP5 ADD DUP5 PUSH2 0x395A JUMP JUMPDEST PUSH2 0x48BB PUSH1 0x20 DUP7 ADD DUP3 PUSH2 0x3971 JUMP JUMPDEST POP PUSH2 0x48C9 PUSH1 0x40 DUP5 ADD DUP5 PUSH2 0x395A JUMP JUMPDEST PUSH2 0x48D6 PUSH1 0x40 DUP7 ADD DUP3 PUSH2 0x3971 JUMP JUMPDEST POP PUSH2 0x48E4 PUSH1 0x60 DUP5 ADD DUP5 PUSH2 0x398F JUMP JUMPDEST DUP6 DUP4 SUB PUSH1 0x60 DUP8 ADD MSTORE PUSH2 0x48F7 DUP4 DUP3 DUP5 PUSH2 0x3A01 JUMP JUMPDEST SWAP3 POP POP POP DUP1 SWAP2 POP POP SWAP3 SWAP2 POP POP JUMP JUMPDEST PUSH1 0x0 PUSH1 0x40 DUP3 ADD SWAP1 POP DUP2 DUP2 SUB PUSH1 0x0 DUP4 ADD MSTORE PUSH2 0x491F DUP2 DUP6 PUSH2 0x4880 JUMP JUMPDEST SWAP1 POP PUSH2 0x492E PUSH1 0x20 DUP4 ADD DUP5 PUSH2 0x2AED JUMP JUMPDEST SWAP4 SWAP3 POP POP POP JUMP JUMPDEST PUSH1 0x0 DUP3 DUP3 MSTORE PUSH1 0x20 DUP3 ADD SWAP1 POP SWAP3 SWAP2 POP POP JUMP JUMPDEST PUSH1 0x0 DUP1 REVERT JUMPDEST DUP3 DUP2 DUP4 CALLDATACOPY POP POP POP JUMP JUMPDEST PUSH1 0x0 PUSH2 0x4960 DUP4 DUP6 PUSH2 0x4935 JUMP JUMPDEST SWAP4 POP PUSH32 0x7FFFFFFFFFFFFFFFFFFFFFFFFFFFFFFFFFFFFFFFFFFFFFFFFFFFFFFFFFFFFFF DUP4 GT ISZERO PUSH2 0x4993 JUMPI PUSH2 0x4992 PUSH2 0x4946 JUMP JUMPDEST JUMPDEST PUSH1 0x20 DUP4 MUL SWAP3 POP PUSH2 0x49A4 DUP4 DUP6 DUP5 PUSH2 0x494B JUMP JUMPDEST DUP3 DUP5 ADD SWAP1 POP SWAP4 SWAP3 POP POP POP JUMP JUMPDEST PUSH1 0x0 PUSH1 0x80 DUP3 ADD SWAP1 POP DUP2 DUP2 SUB PUSH1 0x0 DUP4 ADD MSTORE PUSH2 0x49CB DUP2 DUP9 DUP11 PUSH2 0x40A1 JUMP JUMPDEST SWAP1 POP DUP2 DUP2 SUB PUSH1 0x20 DUP4 ADD MSTORE PUSH2 0x49E0 DUP2 DUP7 DUP9 PUSH2 0x4954 JUMP JUMPDEST SWAP1 POP PUSH2 0x49EF PUSH1 0x40 DUP4 ADD DUP6 PUSH2 0x2AED JUMP JUMPDEST PUSH2 0x49FC PUSH1 0x60 DUP4 ADD DUP5 PUSH2 0x2AED JUMP JUMPDEST SWAP8 SWAP7 POP POP POP POP POP POP POP JUMP JUMPDEST PUSH32 0x416C726561647920696E697469616C697A656400000000000000000000000000 PUSH1 0x0 DUP3 ADD MSTORE POP JUMP JUMPDEST PUSH1 0x0 PUSH2 0x4A3D PUSH1 0x13 DUP4 PUSH2 0x332B JUMP JUMPDEST SWAP2 POP PUSH2 0x4A48 DUP3 PUSH2 0x4A07 JUMP JUMPDEST PUSH1 0x20 DUP3 ADD SWAP1 POP SWAP2 SWAP1 POP JUMP JUMPDEST PUSH1 0x0 PUSH1 0x20 DUP3 ADD SWAP1 POP DUP2 DUP2 SUB PUSH1 0x0 DUP4 ADD MSTORE PUSH2 0x4A6C DUP2 PUSH2 0x4A30 JUMP JUMPDEST SWAP1 POP SWAP2 SWAP1 POP JUMP JUMPDEST PUSH1 0x0 PUSH1 0x80 DUP3 ADD SWAP1 POP PUSH2 0x4A88 PUSH1 0x0 DUP4 ADD DUP8 PUSH2 0x3FD7 JUMP JUMPDEST PUSH2 0x4A95 PUSH1 0x20 DUP4 ADD DUP7 PUSH2 0x2AED JUMP JUMPDEST PUSH2 0x4AA2 PUSH1 0x40 DUP4 ADD DUP6 PUSH2 0x2AED JUMP JUMPDEST PUSH2 0x4AAF PUSH1 0x60 DUP4 ADD DUP5 PUSH2 0x2AED JUMP JUMPDEST SWAP6 SWAP5 POP POP POP POP POP JUMP JUMPDEST PUSH1 0x0 PUSH2 0x4AC3 DUP3 PUSH2 0x2AE3 JUMP JUMPDEST SWAP2 POP PUSH2 0x4ACE DUP4 PUSH2 0x2AE3 JUMP JUMPDEST SWAP3 POP DUP3 DUP3 SUB SWAP1 POP DUP2 DUP2 GT ISZERO PUSH2 0x4AE6 JUMPI PUSH2 0x4AE5 PUSH2 0x3E75 JUMP JUMPDEST JUMPDEST SWAP3 SWAP2 POP POP JUMP JUMPDEST PUSH1 0x0 PUSH2 0x4AF7 DUP3 PUSH2 0x2AE3 JUMP JUMPDEST SWAP2 POP PUSH2 0x4B02 DUP4 PUSH2 0x2AE3 JUMP JUMPDEST SWAP3 POP DUP3 DUP3 ADD SWAP1 POP DUP1 DUP3 GT ISZERO PUSH2 0x4B1A JUMPI PUSH2 0x4B19 PUSH2 0x3E75 JUMP JUMPDEST JUMPDEST SWAP3 SWAP2 POP POP JUMP JUMPDEST PUSH32 0x5468726573686F6C6420776F756C6420626520696D706F737369626C65000000 PUSH1 0x0 DUP3 ADD MSTORE POP JUMP JUMPDEST PUSH1 0x0 PUSH2 0x4B56 PUSH1 0x1D DUP4 PUSH2 0x332B JUMP JUMPDEST SWAP2 POP PUSH2 0x4B61 DUP3 PUSH2 0x4B20 JUMP JUMPDEST PUSH1 0x20 DUP3 ADD SWAP1 POP SWAP2 SWAP1 POP JUMP JUMPDEST PUSH1 0x0 PUSH1 0x20 DUP3 ADD SWAP1 POP DUP2 DUP2 SUB PUSH1 0x0 DUP4 ADD MSTORE PUSH2 0x4B85 DUP2 PUSH2 0x4B49 JUMP JUMPDEST SWAP1 POP SWAP2 SWAP1 POP JUMP JUMPDEST PUSH32 0x457865637574696F6E206E6F74207065726D6974746564000000000000000000 PUSH1 0x0 DUP3 ADD MSTORE POP JUMP JUMPDEST PUSH1 0x0 PUSH2 0x4BC2 PUSH1 0x17 DUP4 PUSH2 0x332B JUMP JUMPDEST SWAP2 POP PUSH2 0x4BCD DUP3 PUSH2 0x4B8C JUMP JUMPDEST PUSH1 0x20 DUP3 ADD SWAP1 POP SWAP2 SWAP1 POP JUMP JUMPDEST PUSH1 0x0 PUSH1 0x20 DUP3 ADD SWAP1 POP DUP2 DUP2 SUB PUSH1 0x0 DUP4 ADD MSTORE PUSH2 0x4BF1 DUP2 PUSH2 0x4BB5 JUMP JUMPDEST SWAP1 POP SWAP2 SWAP1 POP JUMP JUMPDEST PUSH32 0x457865637574696F6E2074696D656C6F636B6564000000000000000000000000 PUSH1 0x0 DUP3 ADD MSTORE POP JUMP JUMPDEST PUSH1 0x0 PUSH2 0x4C2E PUSH1 0x14 DUP4 PUSH2 0x332B JUMP JUMPDEST SWAP2 POP PUSH2 0x4C39 DUP3 PUSH2 0x4BF8 JUMP JUMPDEST PUSH1 0x20 DUP3 ADD SWAP1 POP SWAP2 SWAP1 POP JUMP JUMPDEST PUSH1 0x0 PUSH1 0x20 DUP3 ADD SWAP1 POP DUP2 DUP2 SUB PUSH1 0x0 DUP4 ADD MSTORE PUSH2 0x4C5D DUP2 PUSH2 0x4C21 JUMP JUMPDEST SWAP1 POP SWAP2 SWAP1 POP JUMP JUMPDEST PUSH1 0x0 PUSH2 0x4C6F DUP3 PUSH2 0x413E JUMP JUMPDEST SWAP2 POP PUSH2 0x4C7A DUP4 PUSH2 0x413E JUMP JUMPDEST SWAP3 POP DUP3 DUP3 ADD SWAP1 POP PUSH8 0xFFFFFFFFFFFFFFFF DUP2 GT ISZERO PUSH2 0x4C9A JUMPI PUSH2 0x4C99 PUSH2 0x3E75 JUMP JUMPDEST JUMPDEST SWAP3 SWAP2 POP POP JUMP JUMPDEST PUSH32 0x457865637574696F6E20696E74657276616C20756E6D65740000000000000000 PUSH1 0x0 DUP3 ADD MSTORE POP JUMP JUMPDEST PUSH1 0x0 PUSH2 0x4CD6 PUSH1 0x18 DUP4 PUSH2 0x332B JUMP JUMPDEST SWAP2 POP PUSH2 0x4CE1 DUP3 PUSH2 0x4CA0 JUMP JUMPDEST PUSH1 0x20 DUP3 ADD SWAP1 POP SWAP2 SWAP1 POP JUMP JUMPDEST PUSH1 0x0 PUSH1 0x20 DUP3 ADD SWAP1 POP DUP2 DUP2 SUB PUSH1 0x0 DUP4 ADD MSTORE PUSH2 0x4D05 DUP2 PUSH2 0x4CC9 JUMP JUMPDEST SWAP1 POP SWAP2 SWAP1 POP JUMP JUMPDEST PUSH32 0x4D617820657865637574696F6E73207265616368656400000000000000000000 PUSH1 0x0 DUP3 ADD MSTORE POP JUMP JUMPDEST PUSH1 0x0 PUSH2 0x4D42 PUSH1 0x16 DUP4 PUSH2 0x332B JUMP JUMPDEST SWAP2 POP PUSH2 0x4D4D DUP3 PUSH2 0x4D0C JUMP JUMPDEST PUSH1 0x20 DUP3 ADD SWAP1 POP SWAP2 SWAP1 POP JUMP JUMPDEST PUSH1 0x0 PUSH1 0x20 DUP3 ADD SWAP1 POP DUP2 DUP2 SUB PUSH1 0x0 DUP4 ADD MSTORE PUSH2 0x4D71 DUP2 PUSH2 0x4D35 JUMP JUMPDEST SWAP1 POP SWAP2 SWAP1 POP JUMP JUMPDEST PUSH1 0x0 PUSH2 0x4D83 DUP3 PUSH2 0x41A4 JUMP JUMPDEST SWAP2 POP PUSH2 0x4D8E DUP4 PUSH2 0x41A4 JUMP JUMPDEST SWAP3 POP DUP3 DUP3 ADD SWAP1 POP PUSH4 0xFFFFFFFF DUP2 GT ISZERO PUSH2 0x4DAA JUMPI PUSH2 0x4DA9 PUSH2 0x3E75 JUMP JUMPDEST JUMPDEST SWAP3 SWAP2 POP POP JUMP JUMPDEST PUSH32 0x4E487B7100000000000000000000000000000000000000000000000000000000 PUSH1 0x0 MSTORE PUSH1 0x12 PUSH1 0x4 MSTORE PUSH1 0x24 PUSH1 0x0 REVERT JUMPDEST PUSH1 0x0 PUSH2 0x4DEA DUP3 PUSH2 0x2AE3 JUMP JUMPDEST SWAP2 POP PUSH2 0x4DF5 DUP4 PUSH2 0x2AE3 JUMP JUMPDEST SWAP3 POP DUP3 PUSH2 0x4E05 JUMPI PUSH2 0x4E04 PUSH2 0x4DB0 JUMP JUMPDEST JUMPDEST DUP3 DUP3 MOD SWAP1 POP SWAP3 SWAP2 POP POP JUMP JUMPDEST PUSH32 0x556E6578706563746564207061636B61676564207369676E6174757265206279 PUSH1 0x0 DUP3 ADD MSTORE PUSH32 0x7465206C656E6774680000000000000000000000000000000000000000000000 PUSH1 0x20 DUP3 ADD MSTORE POP JUMP JUMPDEST PUSH1 0x0 PUSH2 0x4E6C PUSH1 0x29 DUP4 PUSH2 0x332B JUMP JUMPDEST SWAP2 POP PUSH2 0x4E77 DUP3 PUSH2 0x4E10 JUMP JUMPDEST PUSH1 0x40 DUP3 ADD SWAP1 POP SWAP2 SWAP1 POP JUMP JUMPDEST PUSH1 0x0 PUSH1 0x20 DUP3 ADD SWAP1 POP DUP2 DUP2 SUB PUSH1 0x0 DUP4 ADD MSTORE PUSH2 0x4E9B DUP2 PUSH2 0x4E5F JUMP JUMPDEST SWAP1 POP SWAP2 SWAP1 POP JUMP JUMPDEST PUSH1 0x0 PUSH2 0x4EAD DUP3 PUSH2 0x2AE3 JUMP JUMPDEST SWAP2 POP PUSH2 0x4EB8 DUP4 PUSH2 0x2AE3 JUMP JUMPDEST SWAP3 POP DUP3 PUSH2 0x4EC8 JUMPI PUSH2 0x4EC7 PUSH2 0x4DB0 JUMP JUMPDEST JUMPDEST DUP3 DUP3 DIV SWAP1 POP SWAP3 SWAP2 POP POP JUMP JUMPDEST PUSH1 0x0 PUSH2 0x4EDE DUP3 PUSH2 0x2AE3 JUMP JUMPDEST SWAP2 POP PUSH2 0x4EE9 DUP4 PUSH2 0x2AE3 JUMP JUMPDEST SWAP3 POP DUP3 DUP3 MUL PUSH2 0x4EF7 DUP2 PUSH2 0x2AE3 JUMP JUMPDEST SWAP2 POP DUP3 DUP3 DIV DUP5 EQ DUP4 ISZERO OR PUSH2 0x4F0E JUMPI PUSH2 0x4F0D PUSH2 0x3E75 JUMP JUMPDEST JUMPDEST POP SWAP3 SWAP2 POP POP JUMP JUMPDEST PUSH32 0x736C6963655F6F766572666C6F77000000000000000000000000000000000000 PUSH1 0x0 DUP3 ADD MSTORE POP JUMP JUMPDEST PUSH1 0x0 PUSH2 0x4F4B PUSH1 0xE DUP4 PUSH2 0x332B JUMP JUMPDEST SWAP2 POP PUSH2 0x4F56 DUP3 PUSH2 0x4F15 JUMP JUMPDEST PUSH1 0x20 DUP3 ADD SWAP1 POP SWAP2 SWAP1 POP JUMP JUMPDEST PUSH1 0x0 PUSH1 0x20 DUP3 ADD SWAP1 POP DUP2 DUP2 SUB PUSH1 0x0 DUP4 ADD MSTORE PUSH2 0x4F7A DUP2 PUSH2 0x4F3E JUMP JUMPDEST SWAP1 POP SWAP2 SWAP1 POP JUMP JUMPDEST PUSH32 0x736C6963655F6F75744F66426F756E6473000000000000000000000000000000 PUSH1 0x0 DUP3 ADD MSTORE POP JUMP JUMPDEST PUSH1 0x0 PUSH2 0x4FB7 PUSH1 0x11 DUP4 PUSH2 0x332B JUMP JUMPDEST SWAP2 POP PUSH2 0x4FC2 DUP3 PUSH2 0x4F81 JUMP JUMPDEST PUSH1 0x20 DUP3 ADD SWAP1 POP SWAP2 SWAP1 POP JUMP JUMPDEST PUSH1 0x0 PUSH1 0x20 DUP3 ADD SWAP1 POP DUP2 DUP2 SUB PUSH1 0x0 DUP4 ADD MSTORE PUSH2 0x4FE6 DUP2 PUSH2 0x4FAA JUMP JUMPDEST SWAP1 POP SWAP2 SWAP1 POP JUMP JUMPDEST PUSH1 0x0 DUP2 SWAP1 POP SWAP3 SWAP2 POP POP JUMP JUMPDEST PUSH32 0x19457468657265756D205369676E6564204D6573736167653A0A333200000000 PUSH1 0x0 DUP3 ADD MSTORE POP JUMP JUMPDEST PUSH1 0x0 PUSH2 0x502E PUSH1 0x1C DUP4 PUSH2 0x4FED JUMP JUMPDEST SWAP2 POP PUSH2 0x5039 DUP3 PUSH2 0x4FF8 JUMP JUMPDEST PUSH1 0x1C DUP3 ADD SWAP1 POP SWAP2 SWAP1 POP JUMP JUMPDEST PUSH1 0x0 DUP2 SWAP1 POP SWAP2 SWAP1 POP JUMP JUMPDEST PUSH2 0x505F PUSH2 0x505A DUP3 PUSH2 0x2F59 JUMP JUMPDEST PUSH2 0x5044 JUMP JUMPDEST DUP3 MSTORE POP POP JUMP JUMPDEST PUSH1 0x0 PUSH2 0x5070 DUP3 PUSH2 0x5021 JUMP JUMPDEST SWAP2 POP PUSH2 0x507C DUP3 DUP5 PUSH2 0x504E JUMP JUMPDEST PUSH1 0x20 DUP3 ADD SWAP2 POP DUP2 SWAP1 POP SWAP3 SWAP2 POP POP JUMP JUMPDEST PUSH32 0x4E487B7100000000000000000000000000000000000000000000000000000000 PUSH1 0x0 MSTORE PUSH1 0x21 PUSH1 0x4 MSTORE PUSH1 0x24 PUSH1 0x0 REVERT JUMPDEST PUSH32 0x45434453413A20696E76616C6964207369676E61747572650000000000000000 PUSH1 0x0 DUP3 ADD MSTORE POP JUMP JUMPDEST PUSH1 0x0 PUSH2 0x50F0 PUSH1 0x18 DUP4 PUSH2 0x332B JUMP JUMPDEST SWAP2 POP PUSH2 0x50FB DUP3 PUSH2 0x50BA JUMP JUMPDEST PUSH1 0x20 DUP3 ADD SWAP1 POP SWAP2 SWAP1 POP JUMP JUMPDEST PUSH1 0x0 PUSH1 0x20 DUP3 ADD SWAP1 POP DUP2 DUP2 SUB PUSH1 0x0 DUP4 ADD MSTORE PUSH2 0x511F DUP2 PUSH2 0x50E3 JUMP JUMPDEST SWAP1 POP SWAP2 SWAP1 POP JUMP JUMPDEST PUSH32 0x45434453413A20696E76616C6964207369676E6174757265206C656E67746800 PUSH1 0x0 DUP3 ADD MSTORE POP JUMP JUMPDEST PUSH1 0x0 PUSH2 0x515C PUSH1 0x1F DUP4 PUSH2 0x332B JUMP JUMPDEST SWAP2 POP PUSH2 0x5167 DUP3 PUSH2 0x5126 JUMP JUMPDEST PUSH1 0x20 DUP3 ADD SWAP1 POP SWAP2 SWAP1 POP JUMP JUMPDEST PUSH1 0x0 PUSH1 0x20 DUP3 ADD SWAP1 POP DUP2 DUP2 SUB PUSH1 0x0 DUP4 ADD MSTORE PUSH2 0x518B DUP2 PUSH2 0x514F JUMP JUMPDEST SWAP1 POP SWAP2 SWAP1 POP JUMP JUMPDEST PUSH32 0x45434453413A20696E76616C6964207369676E6174757265202773272076616C PUSH1 0x0 DUP3 ADD MSTORE PUSH32 0x7565000000000000000000000000000000000000000000000000000000000000 PUSH1 0x20 DUP3 ADD MSTORE POP JUMP JUMPDEST PUSH1 0x0 PUSH2 0x51EE PUSH1 0x22 DUP4 PUSH2 0x332B JUMP JUMPDEST SWAP2 POP PUSH2 0x51F9 DUP3 PUSH2 0x5192 JUMP JUMPDEST PUSH1 0x40 DUP3 ADD SWAP1 POP SWAP2 SWAP1 POP JUMP JUMPDEST PUSH1 0x0 PUSH1 0x20 DUP3 ADD SWAP1 POP DUP2 DUP2 SUB PUSH1 0x0 DUP4 ADD MSTORE PUSH2 0x521D DUP2 PUSH2 0x51E1 JUMP JUMPDEST SWAP1 POP SWAP2 SWAP1 POP JUMP JUMPDEST PUSH2 0x522D DUP2 PUSH2 0x2F59 JUMP JUMPDEST DUP3 MSTORE POP POP JUMP JUMPDEST PUSH1 0x0 PUSH1 0xFF DUP3 AND SWAP1 POP SWAP2 SWAP1 POP JUMP JUMPDEST PUSH2 0x5249 DUP2 PUSH2 0x5233 JUMP JUMPDEST DUP3 MSTORE POP POP JUMP JUMPDEST PUSH1 0x0 PUSH1 0x80 DUP3 ADD SWAP1 POP PUSH2 0x5264 PUSH1 0x0 DUP4 ADD DUP8 PUSH2 0x5224 JUMP JUMPDEST PUSH2 0x5271 PUSH1 0x20 DUP4 ADD DUP7 PUSH2 0x5240 JUMP JUMPDEST PUSH2 0x527E PUSH1 0x40 DUP4 ADD DUP6 PUSH2 0x5224 JUMP JUMPDEST PUSH2 0x528B PUSH1 0x60 DUP4 ADD DUP5 PUSH2 0x5224 JUMP JUMPDEST SWAP6 SWAP5 POP POP POP POP POP JUMP INVALID MSTORE8 PUSH10 0x676E6572207765696768 PUSH21 0x7320646F6573206E6F74206D656574207468726573 PUSH9 0x6F6C644174206C6561 PUSH20 0x74206F6E65207369676E6174757265206E6F7420 PUSH7 0x726F6D2061206B PUSH15 0x6F776E20636F6E74726F6C6C657241 PUSH21 0x206C65617374206F6E65207369676E617475726520 PUSH2 0x6C72 PUSH6 0x616479207573 PUSH6 0x64A264697066 PUSH20 0x58221220EE9BB458F28D3A73838684F613CCFFCF PUSH1 0x35 NOT PUSH20 0xB27B015E2325598E4887A8AE64736F6C63430008 SLT STOP CALLER "
		},
		"gasEstimates": {
			"creation": {
				"codeDepositCost": "4263400",
				"executionCost": "4921",
				"totalCost": "4268321"
			},
			"external": {
				"addControllers(address[],uint256[],uint256,bytes[])": "infinite",
				"controlThreshold()": "2580",
				"controllerWeight(address)": "2983",
				"controllersTotalWeight()": "2537",
				"execute((address,uint256,uint256,bytes),bytes[])": "infinite",
				"initialize(address)": "infinite",
				"isValidSignature(bytes,bytes)": "infinite",
				"isValidSignature(bytes32,bytes)": "infinite",
				"multiExecute((address,uint256,uint256,bytes)[],bytes[])": "infinite",
				"multiPermittedExecute((address,uint256,uint256,bytes)[])": "infinite",
				"onERC1155BatchReceived(address,address,uint256[],uint256[],bytes)": "infinite",
				"onERC1155Received(address,address,uint256,uint256,bytes)": "infinite",
				"onERC721Received(address,address,uint256,bytes)": "infinite",
				"permitExecute((address,address,uint256,bytes),(uint64,uint64,uint32,uint32,uint32),uint256,bytes[])": "infinite",
				"permittedExecute((address,uint256,uint256,bytes))": "infinite",
				"removeControllers(address[],uint256,bytes[])": "infinite",
				"supportsInterface(bytes4)": "1130",
				"supportsUpgrades()": "475",
				"unpermitExecute((address,address,uint256,bytes),uint256,bytes[])": "infinite",
				"updateControlThreshold(uint256,uint256,bytes[])": "infinite",
				"updateControllerWeight(address,uint256,uint256,bytes[])": "infinite",
				"upgrade(address,uint256,bytes[])": "infinite",
				"version()": "infinite"
			}
		},
		"methodIdentifiers": {
			"addControllers(address[],uint256[],uint256,bytes[])": "af915498",
			"controlThreshold()": "a7865090",
			"controllerWeight(address)": "f04420f1",
			"controllersTotalWeight()": "06e82383",
			"execute((address,uint256,uint256,bytes),bytes[])": "a3e8d51e",
			"initialize(address)": "c4d66de8",
			"isValidSignature(bytes,bytes)": "20c13b0b",
			"isValidSignature(bytes32,bytes)": "1626ba7e",
			"multiExecute((address,uint256,uint256,bytes)[],bytes[])": "0d992b2b",
			"multiPermittedExecute((address,uint256,uint256,bytes)[])": "524886d2",
			"onERC1155BatchReceived(address,address,uint256[],uint256[],bytes)": "bc197c81",
			"onERC1155Received(address,address,uint256,uint256,bytes)": "f23a6e61",
			"onERC721Received(address,address,uint256,bytes)": "150b7a02",
			"permitExecute((address,address,uint256,bytes),(uint64,uint64,uint32,uint32,uint32),uint256,bytes[])": "2a365cbd",
			"permittedExecute((address,uint256,uint256,bytes))": "e57db71e",
			"removeControllers(address[],uint256,bytes[])": "286936bb",
			"supportsInterface(bytes4)": "01ffc9a7",
			"supportsUpgrades()": "fec5c09a",
			"unpermitExecute((address,address,uint256,bytes),uint256,bytes[])": "1ab08563",
			"updateControlThreshold(uint256,uint256,bytes[])": "87f949b4",
			"updateControllerWeight(address,uint256,uint256,bytes[])": "d0bccea1",
			"upgrade(address,uint256,bytes[])": "94c4395b",
			"version()": "54fd4d50"
		}
	},
	"abi": [
		{
			"inputs": [
				{
					"internalType": "address[]",
					"name": "_controllers",
					"type": "address[]"
				},
				{
					"internalType": "uint256[]",
					"name": "_weights",
					"type": "uint256[]"
				},
				{
					"internalType": "uint256",
					"name": "_nonce",
					"type": "uint256"
				},
				{
					"internalType": "bytes[]",
					"name": "_signatures",
					"type": "bytes[]"
				}
			],
			"name": "addControllers",
			"outputs": [],
			"stateMutability": "nonpayable",
			"type": "function"
		},
		{
			"inputs": [],
			"name": "controlThreshold",
			"outputs": [
				{
					"internalType": "uint256",
					"name": "",
					"type": "uint256"
				}
			],
			"stateMutability": "view",
			"type": "function"
		},
		{
			"inputs": [
				{
					"internalType": "address",
					"name": "_controller",
					"type": "address"
				}
			],
			"name": "controllerWeight",
			"outputs": [
				{
					"internalType": "uint256",
					"name": "",
					"type": "uint256"
				}
			],
			"stateMutability": "view",
			"type": "function"
		},
		{
			"inputs": [],
			"name": "controllersTotalWeight",
			"outputs": [
				{
					"internalType": "uint256",
					"name": "",
					"type": "uint256"
				}
			],
			"stateMutability": "view",
			"type": "function"
		},
		{
			"inputs": [
				{
					"components": [
						{
							"internalType": "address",
							"name": "target",
							"type": "address"
						},
						{
							"internalType": "uint256",
							"name": "value",
							"type": "uint256"
						},
						{
							"internalType": "uint256",
							"name": "nonce",
							"type": "uint256"
						},
						{
							"internalType": "bytes",
							"name": "data",
							"type": "bytes"
						}
					],
					"internalType": "struct CallsStructs.ExecuteRequest",
					"name": "_executeRequest",
					"type": "tuple"
				},
				{
					"internalType": "bytes[]",
					"name": "_signatures",
					"type": "bytes[]"
				}
			],
			"name": "execute",
			"outputs": [
				{
					"internalType": "bytes",
					"name": "",
					"type": "bytes"
				}
			],
			"stateMutability": "nonpayable",
			"type": "function"
		},
		{
			"inputs": [
				{
					"internalType": "address",
					"name": "_controller",
					"type": "address"
				}
			],
			"name": "initialize",
			"outputs": [],
			"stateMutability": "nonpayable",
			"type": "function"
		},
		{
			"inputs": [
				{
					"internalType": "bytes32",
					"name": "_hash",
					"type": "bytes32"
				},
				{
					"internalType": "bytes",
					"name": "_signature",
					"type": "bytes"
				}
			],
			"name": "isValidSignature",
			"outputs": [
				{
					"internalType": "bytes4",
					"name": "magicValue",
					"type": "bytes4"
				}
			],
			"stateMutability": "view",
			"type": "function"
		},
		{
			"inputs": [
				{
					"internalType": "bytes",
					"name": "_data",
					"type": "bytes"
				},
				{
					"internalType": "bytes",
					"name": "_signature",
					"type": "bytes"
				}
			],
			"name": "isValidSignature",
			"outputs": [
				{
					"internalType": "bytes4",
					"name": "magicValue",
					"type": "bytes4"
				}
			],
			"stateMutability": "view",
			"type": "function"
		},
		{
			"inputs": [
				{
					"components": [
						{
							"internalType": "address",
							"name": "target",
							"type": "address"
						},
						{
							"internalType": "uint256",
							"name": "value",
							"type": "uint256"
						},
						{
							"internalType": "uint256",
							"name": "nonce",
							"type": "uint256"
						},
						{
							"internalType": "bytes",
							"name": "data",
							"type": "bytes"
						}
					],
					"internalType": "struct CallsStructs.ExecuteRequest[]",
					"name": "_executeRequests",
					"type": "tuple[]"
				},
				{
					"internalType": "bytes[]",
					"name": "_signatures",
					"type": "bytes[]"
				}
			],
			"name": "multiExecute",
			"outputs": [
				{
					"internalType": "bytes[]",
					"name": "",
					"type": "bytes[]"
				}
			],
			"stateMutability": "nonpayable",
			"type": "function"
		},
		{
			"inputs": [
				{
					"components": [
						{
							"internalType": "address",
							"name": "target",
							"type": "address"
						},
						{
							"internalType": "uint256",
							"name": "value",
							"type": "uint256"
						},
						{
							"internalType": "uint256",
							"name": "nonce",
							"type": "uint256"
						},
						{
							"internalType": "bytes",
							"name": "data",
							"type": "bytes"
						}
					],
					"internalType": "struct CallsStructs.ExecuteRequest[]",
					"name": "_executeRequests",
					"type": "tuple[]"
				}
			],
			"name": "multiPermittedExecute",
			"outputs": [
				{
					"internalType": "bytes[]",
					"name": "",
					"type": "bytes[]"
				}
			],
			"stateMutability": "nonpayable",
			"type": "function"
		},
		{
			"inputs": [
				{
					"internalType": "address",
					"name": "",
					"type": "address"
				},
				{
					"internalType": "address",
					"name": "",
					"type": "address"
				},
				{
					"internalType": "uint256[]",
					"name": "",
					"type": "uint256[]"
				},
				{
					"internalType": "uint256[]",
					"name": "",
					"type": "uint256[]"
				},
				{
					"internalType": "bytes",
					"name": "",
					"type": "bytes"
				}
			],
			"name": "onERC1155BatchReceived",
			"outputs": [
				{
					"internalType": "bytes4",
					"name": "",
					"type": "bytes4"
				}
			],
			"stateMutability": "pure",
			"type": "function"
		},
		{
			"inputs": [
				{
					"internalType": "address",
					"name": "",
					"type": "address"
				},
				{
					"internalType": "address",
					"name": "",
					"type": "address"
				},
				{
					"internalType": "uint256",
					"name": "",
					"type": "uint256"
				},
				{
					"internalType": "uint256",
					"name": "",
					"type": "uint256"
				},
				{
					"internalType": "bytes",
					"name": "",
					"type": "bytes"
				}
			],
			"name": "onERC1155Received",
			"outputs": [
				{
					"internalType": "bytes4",
					"name": "",
					"type": "bytes4"
				}
			],
			"stateMutability": "pure",
			"type": "function"
		},
		{
			"inputs": [
				{
					"internalType": "address",
					"name": "",
					"type": "address"
				},
				{
					"internalType": "address",
					"name": "",
					"type": "address"
				},
				{
					"internalType": "uint256",
					"name": "",
					"type": "uint256"
				},
				{
					"internalType": "bytes",
					"name": "",
					"type": "bytes"
				}
			],
			"name": "onERC721Received",
			"outputs": [
				{
					"internalType": "bytes4",
					"name": "",
					"type": "bytes4"
				}
			],
			"stateMutability": "pure",
			"type": "function"
		},
		{
			"inputs": [
				{
					"components": [
						{
							"internalType": "address",
							"name": "executor",
							"type": "address"
						},
						{
							"internalType": "address",
							"name": "target",
							"type": "address"
						},
						{
							"internalType": "uint256",
							"name": "value",
							"type": "uint256"
						},
						{
							"internalType": "bytes",
							"name": "data",
							"type": "bytes"
						}
					],
					"internalType": "struct PermissionedCallsStructs.ExecuteRequestPermitted",
					"name": "_executeRequestPermitted",
					"type": "tuple"
				},
				{
					"components": [
						{
							"internalType": "uint64",
							"name": "unlockTimestamp",
							"type": "uint64"
						},
						{
							"internalType": "uint64",
							"name": "lastExecuteTimestamp",
							"type": "uint64"
						},
						{
							"internalType": "uint32",
							"name": "minExecuteInterval",
							"type": "uint32"
						},
						{
							"internalType": "uint32",
							"name": "executeCount",
							"type": "uint32"
						},
						{
							"internalType": "uint32",
							"name": "maxExecutes",
							"type": "uint32"
						}
					],
					"internalType": "struct PermissionedCallsStructs.ExecuteRequestPermission",
					"name": "_executeRequestPermission",
					"type": "tuple"
				},
				{
					"internalType": "uint256",
					"name": "_nonce",
					"type": "uint256"
				},
				{
					"internalType": "bytes[]",
					"name": "_signatures",
					"type": "bytes[]"
				}
			],
			"name": "permitExecute",
			"outputs": [],
			"stateMutability": "nonpayable",
			"type": "function"
		},
		{
			"inputs": [
				{
					"components": [
						{
							"internalType": "address",
							"name": "target",
							"type": "address"
						},
						{
							"internalType": "uint256",
							"name": "value",
							"type": "uint256"
						},
						{
							"internalType": "uint256",
							"name": "nonce",
							"type": "uint256"
						},
						{
							"internalType": "bytes",
							"name": "data",
							"type": "bytes"
						}
					],
					"internalType": "struct CallsStructs.ExecuteRequest",
					"name": "_executeRequest",
					"type": "tuple"
				}
			],
			"name": "permittedExecute",
			"outputs": [
				{
					"internalType": "bytes",
					"name": "",
					"type": "bytes"
				}
			],
			"stateMutability": "nonpayable",
			"type": "function"
		},
		{
			"inputs": [
				{
					"internalType": "address[]",
					"name": "_controllers",
					"type": "address[]"
				},
				{
					"internalType": "uint256",
					"name": "_nonce",
					"type": "uint256"
				},
				{
					"internalType": "bytes[]",
					"name": "_signatures",
					"type": "bytes[]"
				}
			],
			"name": "removeControllers",
			"outputs": [],
			"stateMutability": "nonpayable",
			"type": "function"
		},
		{
			"inputs": [
				{
					"internalType": "bytes4",
					"name": "_interfaceID",
					"type": "bytes4"
				}
			],
			"name": "supportsInterface",
			"outputs": [
				{
					"internalType": "bool",
					"name": "",
					"type": "bool"
				}
			],
			"stateMutability": "view",
			"type": "function"
		},
		{
			"inputs": [],
			"name": "supportsUpgrades",
			"outputs": [
				{
					"internalType": "bool",
					"name": "",
					"type": "bool"
				}
			],
			"stateMutability": "pure",
			"type": "function"
		},
		{
			"inputs": [
				{
					"components": [
						{
							"internalType": "address",
							"name": "executor",
							"type": "address"
						},
						{
							"internalType": "address",
							"name": "target",
							"type": "address"
						},
						{
							"internalType": "uint256",
							"name": "value",
							"type": "uint256"
						},
						{
							"internalType": "bytes",
							"name": "data",
							"type": "bytes"
						}
					],
					"internalType": "struct PermissionedCallsStructs.ExecuteRequestPermitted",
					"name": "_executeRequestPermitted",
					"type": "tuple"
				},
				{
					"internalType": "uint256",
					"name": "_nonce",
					"type": "uint256"
				},
				{
					"internalType": "bytes[]",
					"name": "_signatures",
					"type": "bytes[]"
				}
			],
			"name": "unpermitExecute",
			"outputs": [],
			"stateMutability": "nonpayable",
			"type": "function"
		},
		{
			"inputs": [
				{
					"internalType": "uint256",
					"name": "_threshold",
					"type": "uint256"
				},
				{
					"internalType": "uint256",
					"name": "_nonce",
					"type": "uint256"
				},
				{
					"internalType": "bytes[]",
					"name": "_signatures",
					"type": "bytes[]"
				}
			],
			"name": "updateControlThreshold",
			"outputs": [],
			"stateMutability": "nonpayable",
			"type": "function"
		},
		{
			"inputs": [
				{
					"internalType": "address",
					"name": "_controller",
					"type": "address"
				},
				{
					"internalType": "uint256",
					"name": "_weight",
					"type": "uint256"
				},
				{
					"internalType": "uint256",
					"name": "_nonce",
					"type": "uint256"
				},
				{
					"internalType": "bytes[]",
					"name": "_signatures",
					"type": "bytes[]"
				}
			],
			"name": "updateControllerWeight",
			"outputs": [],
			"stateMutability": "nonpayable",
			"type": "function"
		},
		{
			"inputs": [
				{
					"internalType": "address",
					"name": "_implementation",
					"type": "address"
				},
				{
					"internalType": "uint256",
					"name": "_nonce",
					"type": "uint256"
				},
				{
					"internalType": "bytes[]",
					"name": "_signatures",
					"type": "bytes[]"
				}
			],
			"name": "upgrade",
			"outputs": [],
			"stateMutability": "nonpayable",
			"type": "function"
		},
		{
			"inputs": [],
			"name": "version",
			"outputs": [
				{
					"internalType": "string",
					"name": "",
					"type": "string"
				}
			],
			"stateMutability": "view",
			"type": "function"
		},
		{
			"stateMutability": "payable",
			"type": "receive"
		}
	]
}