{
  "_format": "hh-sol-artifact-1",
  "contractName": "Main",
  "sourceName": "contracts/modules/Main/Main.sol",
  "abi": [
    {
      "inputs": [
        {
          "internalType": "address",
          "name": "target",
          "type": "address"
        }
      ],
      "name": "AddressEmptyCode",
      "type": "error"
    },
    {
      "inputs": [],
      "name": "ArraryLengthMismatch",
      "type": "error"
    },
    {
      "inputs": [],
      "name": "CallIntervalUnmet",
      "type": "error"
    },
    {
      "inputs": [],
      "name": "CallMaxCallsReached",
      "type": "error"
    },
    {
      "inputs": [],
      "name": "CallNotPreauthorized",
      "type": "error"
    },
    {
      "inputs": [],
      "name": "CallTimelocked",
      "type": "error"
    },
    {
      "inputs": [],
      "name": "ControllerAlreadyExists",
      "type": "error"
    },
    {
      "inputs": [],
      "name": "ControllerDoesNotExist",
      "type": "error"
    },
    {
      "inputs": [],
      "name": "ControllersNotInitialized",
      "type": "error"
    },
    {
      "inputs": [],
      "name": "Create2EmptyBytecode",
      "type": "error"
    },
    {
      "inputs": [],
      "name": "Create2FailedDeployment",
      "type": "error"
    },
    {
      "inputs": [
        {
          "internalType": "uint256",
          "name": "balance",
          "type": "uint256"
        },
        {
          "internalType": "uint256",
          "name": "needed",
          "type": "uint256"
        }
      ],
      "name": "Create2InsufficientBalance",
      "type": "error"
    },
    {
      "inputs": [],
      "name": "CreateInitCodeFailed",
      "type": "error"
    },
    {
      "inputs": [],
      "name": "DeadlineReached",
      "type": "error"
    },
    {
      "inputs": [],
      "name": "ECDSAInvalidSignature",
      "type": "error"
    },
    {
      "inputs": [
        {
          "internalType": "uint256",
          "name": "length",
          "type": "uint256"
        }
      ],
      "name": "ECDSAInvalidSignatureLength",
      "type": "error"
    },
    {
      "inputs": [
        {
          "internalType": "bytes32",
          "name": "s",
          "type": "bytes32"
        }
      ],
      "name": "ECDSAInvalidSignatureS",
      "type": "error"
    },
    {
      "inputs": [
        {
          "internalType": "address",
          "name": "implementation",
          "type": "address"
        }
      ],
      "name": "ERC1967InvalidImplementation",
      "type": "error"
    },
    {
      "inputs": [],
      "name": "ERC1967NonPayable",
      "type": "error"
    },
    {
      "inputs": [],
      "name": "FailedInnerCall",
      "type": "error"
    },
    {
      "inputs": [
        {
          "internalType": "address",
          "name": "tokenAddress",
          "type": "address"
        },
        {
          "internalType": "uint256",
          "name": "tokenId",
          "type": "uint256"
        },
        {
          "internalType": "uint256",
          "name": "amount",
          "type": "uint256"
        },
        {
          "internalType": "uint256",
          "name": "allowance",
          "type": "uint256"
        }
      ],
      "name": "InsufficientAllowanceForERC1155Transfer",
      "type": "error"
    },
    {
      "inputs": [
        {
          "internalType": "address",
          "name": "tokenAddress",
          "type": "address"
        },
        {
          "internalType": "uint256",
          "name": "amount",
          "type": "uint256"
        },
        {
          "internalType": "uint256",
          "name": "allowance",
          "type": "uint256"
        }
      ],
      "name": "InsufficientAllowanceForERC20Transfer",
      "type": "error"
    },
    {
      "inputs": [
        {
          "internalType": "address",
          "name": "tokenAddress",
          "type": "address"
        },
        {
          "internalType": "uint256",
          "name": "tokenId",
          "type": "uint256"
        }
      ],
      "name": "InsufficientAllowanceForERC721Transfer",
      "type": "error"
    },
    {
      "inputs": [],
      "name": "InsufficientFunds",
      "type": "error"
    },
    {
      "inputs": [
        {
          "internalType": "uint256",
          "name": "amount",
          "type": "uint256"
        },
        {
          "internalType": "uint256",
          "name": "allowance",
          "type": "uint256"
        }
      ],
      "name": "InsufficientNativeTokenAllowance",
      "type": "error"
    },
    {
      "inputs": [],
      "name": "InvalidInitialization",
      "type": "error"
    },
    {
      "inputs": [],
      "name": "InvalidParameters",
      "type": "error"
    },
    {
      "inputs": [],
      "name": "InvalidSignatureLength",
      "type": "error"
    },
    {
      "inputs": [],
      "name": "InvalidThreshold",
      "type": "error"
    },
    {
      "inputs": [],
      "name": "MaxCallsMustNotBeZero",
      "type": "error"
    },
    {
      "inputs": [
        {
          "internalType": "address",
          "name": "sender",
          "type": "address"
        }
      ],
      "name": "NoSessionStarted",
      "type": "error"
    },
    {
      "inputs": [],
      "name": "NotInitializing",
      "type": "error"
    },
    {
      "inputs": [],
      "name": "RevertWithoutMessage",
      "type": "error"
    },
    {
      "inputs": [],
      "name": "SessionExpired",
      "type": "error"
    },
    {
      "inputs": [],
      "name": "ThresholdImpossible",
      "type": "error"
    },
    {
      "inputs": [],
      "name": "UUPSUnauthorizedCallContext",
      "type": "error"
    },
    {
      "inputs": [
        {
          "internalType": "bytes32",
          "name": "slot",
          "type": "bytes32"
        }
      ],
      "name": "UUPSUnsupportedProxiableUUID",
      "type": "error"
    },
    {
      "inputs": [
        {
          "internalType": "address",
          "name": "targetContract",
          "type": "address"
        },
        {
          "internalType": "bytes4",
          "name": "functionSelector",
          "type": "bytes4"
        }
      ],
      "name": "UnauthorizedSessionCall",
      "type": "error"
    },
    {
      "inputs": [],
      "name": "UnauthorizedUpgrade",
      "type": "error"
    },
    {
      "anonymous": false,
      "inputs": [
        {
          "indexed": false,
          "internalType": "uint64",
          "name": "version",
          "type": "uint64"
        }
      ],
      "name": "Initialized",
      "type": "event"
    },
    {
      "anonymous": false,
      "inputs": [
        {
          "indexed": true,
          "internalType": "address",
          "name": "implementation",
          "type": "address"
        }
      ],
      "name": "Upgraded",
      "type": "event"
    },
    {
      "inputs": [],
      "name": "MAGIC_APPROVE_ALL_CONTRACT_ADDRESS",
      "outputs": [
        {
          "internalType": "address",
          "name": "",
          "type": "address"
        }
      ],
      "stateMutability": "view",
      "type": "function"
    },
    {
      "inputs": [],
      "name": "UPGRADE_INTERFACE_VERSION",
      "outputs": [
        {
          "internalType": "string",
          "name": "",
          "type": "string"
        }
      ],
      "stateMutability": "view",
      "type": "function"
    },
    {
      "inputs": [
        {
          "internalType": "address[]",
          "name": "_controllers",
          "type": "address[]"
        },
        {
          "internalType": "uint256[]",
          "name": "_weights",
          "type": "uint256[]"
        },
        {
          "internalType": "uint256",
          "name": "_nonce",
          "type": "uint256"
        },
        {
          "internalType": "bytes[]",
          "name": "_signatures",
          "type": "bytes[]"
        },
        {
          "internalType": "uint256",
          "name": "_deadline",
          "type": "uint256"
        }
      ],
      "name": "addControllers",
      "outputs": [],
      "stateMutability": "nonpayable",
      "type": "function"
    },
    {
      "inputs": [
        {
          "components": [
            {
              "internalType": "address",
              "name": "target",
              "type": "address"
            },
            {
              "internalType": "uint256",
              "name": "value",
              "type": "uint256"
            },
            {
              "internalType": "uint256",
              "name": "nonce",
              "type": "uint256"
            },
            {
              "internalType": "bytes",
              "name": "data",
              "type": "bytes"
            }
          ],
          "internalType": "struct CallsStructs.CallRequest",
          "name": "_callRequest",
          "type": "tuple"
        },
        {
          "internalType": "bytes[]",
          "name": "_signatures",
          "type": "bytes[]"
        },
        {
          "internalType": "uint256",
          "name": "_deadline",
          "type": "uint256"
        }
      ],
      "name": "call",
      "outputs": [
        {
          "internalType": "bytes",
          "name": "",
          "type": "bytes"
        }
      ],
      "stateMutability": "nonpayable",
      "type": "function"
    },
    {
      "inputs": [],
      "name": "controlThreshold",
      "outputs": [
        {
          "internalType": "uint256",
          "name": "",
          "type": "uint256"
        }
      ],
      "stateMutability": "view",
      "type": "function"
    },
    {
      "inputs": [
        {
          "internalType": "address",
          "name": "_controller",
          "type": "address"
        }
      ],
      "name": "controllerWeight",
      "outputs": [
        {
          "internalType": "uint256",
          "name": "",
          "type": "uint256"
        }
      ],
      "stateMutability": "view",
      "type": "function"
    },
    {
      "inputs": [],
      "name": "controllersTotalWeight",
      "outputs": [
        {
          "internalType": "uint256",
          "name": "",
          "type": "uint256"
        }
      ],
      "stateMutability": "view",
      "type": "function"
    },
    {
      "inputs": [
        {
          "components": [
            {
              "internalType": "bytes32",
              "name": "salt",
              "type": "bytes32"
            },
            {
              "internalType": "uint256",
              "name": "nonce",
              "type": "uint256"
            },
            {
              "internalType": "bytes",
              "name": "bytecode",
              "type": "bytes"
            },
            {
              "internalType": "bytes",
              "name": "initCode",
              "type": "bytes"
            }
          ],
          "internalType": "struct CallsStructs.CreateRequest",
          "name": "_createRequest",
          "type": "tuple"
        },
        {
          "internalType": "bytes[]",
          "name": "_signatures",
          "type": "bytes[]"
        },
        {
          "internalType": "uint256",
          "name": "_deadline",
          "type": "uint256"
        }
      ],
      "name": "create",
      "outputs": [
        {
          "internalType": "address",
          "name": "",
          "type": "address"
        }
      ],
      "stateMutability": "nonpayable",
      "type": "function"
    },
    {
      "inputs": [],
      "name": "endSession",
      "outputs": [],
      "stateMutability": "nonpayable",
      "type": "function"
    },
    {
      "inputs": [
        {
          "internalType": "address",
          "name": "_caller",
          "type": "address"
        },
        {
          "internalType": "uint256",
          "name": "_nonce",
          "type": "uint256"
        },
        {
          "internalType": "bytes[]",
          "name": "_signatures",
          "type": "bytes[]"
        },
        {
          "internalType": "uint256",
          "name": "_deadline",
          "type": "uint256"
        }
      ],
      "name": "endSessionForCaller",
      "outputs": [],
      "stateMutability": "nonpayable",
      "type": "function"
    },
    {
      "inputs": [],
      "name": "getCurrentVersion",
      "outputs": [
        {
          "internalType": "uint256",
          "name": "",
          "type": "uint256"
        }
      ],
      "stateMutability": "view",
      "type": "function"
    },
    {
      "inputs": [
        {
          "internalType": "address",
          "name": "_caller",
          "type": "address"
        }
      ],
      "name": "hasActiveSession",
      "outputs": [
        {
          "internalType": "bool",
          "name": "hasSession_",
          "type": "bool"
        }
      ],
      "stateMutability": "view",
      "type": "function"
    },
    {
      "inputs": [
        {
          "internalType": "address",
          "name": "_controller",
          "type": "address"
        }
      ],
      "name": "initialize",
      "outputs": [],
      "stateMutability": "nonpayable",
      "type": "function"
    },
    {
      "inputs": [
        {
          "internalType": "bytes32",
          "name": "_hash",
          "type": "bytes32"
        },
        {
          "internalType": "bytes",
          "name": "_signature",
          "type": "bytes"
        }
      ],
      "name": "isValidSignature",
      "outputs": [
        {
          "internalType": "bytes4",
          "name": "magicValue",
          "type": "bytes4"
        }
      ],
      "stateMutability": "view",
      "type": "function"
    },
    {
      "inputs": [
        {
          "internalType": "bytes",
          "name": "_data",
          "type": "bytes"
        },
        {
          "internalType": "bytes",
          "name": "_signature",
          "type": "bytes"
        }
      ],
      "name": "isValidSignature",
      "outputs": [
        {
          "internalType": "bytes4",
          "name": "magicValue",
          "type": "bytes4"
        }
      ],
      "stateMutability": "view",
      "type": "function"
    },
    {
      "inputs": [
        {
          "components": [
            {
              "internalType": "address",
              "name": "target",
              "type": "address"
            },
            {
              "internalType": "uint256",
              "name": "value",
              "type": "uint256"
            },
            {
              "internalType": "uint256",
              "name": "nonce",
              "type": "uint256"
            },
            {
              "internalType": "bytes",
              "name": "data",
              "type": "bytes"
            }
          ],
          "internalType": "struct CallsStructs.CallRequest[]",
          "name": "_callRequests",
          "type": "tuple[]"
        },
        {
          "internalType": "bytes[]",
          "name": "_signatures",
          "type": "bytes[]"
        },
        {
          "internalType": "uint256",
          "name": "_deadline",
          "type": "uint256"
        }
      ],
      "name": "multiCall",
      "outputs": [
        {
          "internalType": "bytes[]",
          "name": "",
          "type": "bytes[]"
        }
      ],
      "stateMutability": "nonpayable",
      "type": "function"
    },
    {
      "inputs": [
        {
          "internalType": "address",
          "name": "",
          "type": "address"
        },
        {
          "internalType": "address",
          "name": "",
          "type": "address"
        },
        {
          "internalType": "uint256[]",
          "name": "",
          "type": "uint256[]"
        },
        {
          "internalType": "uint256[]",
          "name": "",
          "type": "uint256[]"
        },
        {
          "internalType": "bytes",
          "name": "",
          "type": "bytes"
        }
      ],
      "name": "onERC1155BatchReceived",
      "outputs": [
        {
          "internalType": "bytes4",
          "name": "",
          "type": "bytes4"
        }
      ],
      "stateMutability": "nonpayable",
      "type": "function"
    },
    {
      "inputs": [
        {
          "internalType": "address",
          "name": "",
          "type": "address"
        },
        {
          "internalType": "address",
          "name": "",
          "type": "address"
        },
        {
          "internalType": "uint256",
          "name": "",
          "type": "uint256"
        },
        {
          "internalType": "uint256",
          "name": "",
          "type": "uint256"
        },
        {
          "internalType": "bytes",
          "name": "",
          "type": "bytes"
        }
      ],
      "name": "onERC1155Received",
      "outputs": [
        {
          "internalType": "bytes4",
          "name": "",
          "type": "bytes4"
        }
      ],
      "stateMutability": "nonpayable",
      "type": "function"
    },
    {
      "inputs": [
        {
          "internalType": "address",
          "name": "",
          "type": "address"
        },
        {
          "internalType": "address",
          "name": "",
          "type": "address"
        },
        {
          "internalType": "uint256",
          "name": "",
          "type": "uint256"
        },
        {
          "internalType": "bytes",
          "name": "",
          "type": "bytes"
        }
      ],
      "name": "onERC721Received",
      "outputs": [
        {
          "internalType": "bytes4",
          "name": "",
          "type": "bytes4"
        }
      ],
      "stateMutability": "nonpayable",
      "type": "function"
    },
    {
      "inputs": [
        {
          "components": [
            {
              "internalType": "address",
              "name": "caller",
              "type": "address"
            },
            {
              "internalType": "address",
              "name": "target",
              "type": "address"
            },
            {
              "internalType": "uint256",
              "name": "value",
              "type": "uint256"
            },
            {
              "internalType": "bytes",
              "name": "data",
              "type": "bytes"
            }
          ],
          "internalType": "struct PreauthorizedCallsStructs.CallRequestPreauthorized",
          "name": "_callRequestPreauthorized",
          "type": "tuple"
        },
        {
          "components": [
            {
              "internalType": "uint64",
              "name": "unlockTimestamp",
              "type": "uint64"
            },
            {
              "internalType": "uint64",
              "name": "lastCallTimestamp",
              "type": "uint64"
            },
            {
              "internalType": "uint32",
              "name": "minCallInterval",
              "type": "uint32"
            },
            {
              "internalType": "uint32",
              "name": "callCount",
              "type": "uint32"
            },
            {
              "internalType": "uint32",
              "name": "maxCalls",
              "type": "uint32"
            }
          ],
          "internalType": "struct PreauthorizedCallsStructs.CallRequestPreauthorization",
          "name": "_callRequestPreauthorization",
          "type": "tuple"
        },
        {
          "internalType": "uint256",
          "name": "_nonce",
          "type": "uint256"
        },
        {
          "internalType": "bytes[]",
          "name": "_signatures",
          "type": "bytes[]"
        },
        {
          "internalType": "uint256",
          "name": "_deadline",
          "type": "uint256"
        }
      ],
      "name": "preauthorizeCall",
      "outputs": [],
      "stateMutability": "nonpayable",
      "type": "function"
    },
    {
      "inputs": [
        {
          "components": [
            {
              "internalType": "address",
              "name": "target",
              "type": "address"
            },
            {
              "internalType": "uint256",
              "name": "value",
              "type": "uint256"
            },
            {
              "internalType": "uint256",
              "name": "nonce",
              "type": "uint256"
            },
            {
              "internalType": "bytes",
              "name": "data",
              "type": "bytes"
            }
          ],
          "internalType": "struct CallsStructs.CallRequest",
          "name": "_callRequest",
          "type": "tuple"
        }
      ],
      "name": "preauthorizedCall",
      "outputs": [
        {
          "internalType": "bytes",
          "name": "",
          "type": "bytes"
        }
      ],
      "stateMutability": "nonpayable",
      "type": "function"
    },
    {
      "inputs": [
        {
          "components": [
            {
              "internalType": "address",
              "name": "target",
              "type": "address"
            },
            {
              "internalType": "uint256",
              "name": "value",
              "type": "uint256"
            },
            {
              "internalType": "uint256",
              "name": "nonce",
              "type": "uint256"
            },
            {
              "internalType": "bytes",
              "name": "data",
              "type": "bytes"
            }
          ],
          "internalType": "struct CallsStructs.CallRequest[]",
          "name": "_callRequests",
          "type": "tuple[]"
        }
      ],
      "name": "preauthorizedMultiCall",
      "outputs": [
        {
          "internalType": "bytes[]",
          "name": "",
          "type": "bytes[]"
        }
      ],
      "stateMutability": "nonpayable",
      "type": "function"
    },
    {
      "inputs": [],
      "name": "proxiableUUID",
      "outputs": [
        {
          "internalType": "bytes32",
          "name": "",
          "type": "bytes32"
        }
      ],
      "stateMutability": "view",
      "type": "function"
    },
    {
      "inputs": [
        {
          "internalType": "address[]",
          "name": "_controllers",
          "type": "address[]"
        },
        {
          "internalType": "uint256",
          "name": "_newThreshold",
          "type": "uint256"
        },
        {
          "internalType": "uint256",
          "name": "_nonce",
          "type": "uint256"
        },
        {
          "internalType": "bytes[]",
          "name": "_signatures",
          "type": "bytes[]"
        },
        {
          "internalType": "uint256",
          "name": "_deadline",
          "type": "uint256"
        }
      ],
      "name": "removeControllers",
      "outputs": [],
      "stateMutability": "nonpayable",
      "type": "function"
    },
    {
      "inputs": [
        {
          "internalType": "address",
          "name": "_controllerOld",
          "type": "address"
        },
        {
          "internalType": "address",
          "name": "_controllerNew",
          "type": "address"
        },
        {
          "internalType": "uint256",
          "name": "_nonce",
          "type": "uint256"
        },
        {
          "internalType": "bytes[]",
          "name": "_signatures",
          "type": "bytes[]"
        },
        {
          "internalType": "uint256",
          "name": "_deadline",
          "type": "uint256"
        }
      ],
      "name": "replaceController",
      "outputs": [],
      "stateMutability": "nonpayable",
      "type": "function"
    },
    {
      "inputs": [
        {
          "components": [
            {
              "internalType": "address",
              "name": "target",
              "type": "address"
            },
            {
              "internalType": "uint256",
              "name": "value",
              "type": "uint256"
            },
            {
              "internalType": "uint256",
              "name": "nonce",
              "type": "uint256"
            },
            {
              "internalType": "bytes",
              "name": "data",
              "type": "bytes"
            }
          ],
          "internalType": "struct CallsStructs.CallRequest",
          "name": "_callRequest",
          "type": "tuple"
        }
      ],
      "name": "sessionCall",
      "outputs": [
        {
          "internalType": "bytes",
          "name": "",
          "type": "bytes"
        }
      ],
      "stateMutability": "nonpayable",
      "type": "function"
    },
    {
      "inputs": [
        {
          "components": [
            {
              "internalType": "address",
              "name": "target",
              "type": "address"
            },
            {
              "internalType": "uint256",
              "name": "value",
              "type": "uint256"
            },
            {
              "internalType": "uint256",
              "name": "nonce",
              "type": "uint256"
            },
            {
              "internalType": "bytes",
              "name": "data",
              "type": "bytes"
            }
          ],
          "internalType": "struct CallsStructs.CallRequest[]",
          "name": "_callRequests",
          "type": "tuple[]"
        }
      ],
      "name": "sessionMultiCall",
      "outputs": [
        {
          "internalType": "bytes[]",
          "name": "",
          "type": "bytes[]"
        }
      ],
      "stateMutability": "nonpayable",
      "type": "function"
    },
    {
      "inputs": [
        {
          "internalType": "address",
          "name": "_caller",
          "type": "address"
        },
        {
          "components": [
            {
              "internalType": "uint256",
              "name": "nativeAllowance",
              "type": "uint256"
            },
            {
              "components": [
                {
                  "internalType": "address",
                  "name": "aContract",
                  "type": "address"
                },
                {
                  "internalType": "bytes4[]",
                  "name": "functionSelectors",
                  "type": "bytes4[]"
                }
              ],
              "internalType": "struct SessionCallsStructs.SessionRequest_ContractFunctionSelectors[]",
              "name": "contractFunctionSelectors",
              "type": "tuple[]"
            },
            {
              "components": [
                {
                  "internalType": "address",
                  "name": "erc20Contract",
                  "type": "address"
                },
                {
                  "internalType": "uint256",
                  "name": "allowance",
                  "type": "uint256"
                }
              ],
              "internalType": "struct SessionCallsStructs.SessionRequest_ERC20Allowance[]",
              "name": "erc20Allowances",
              "type": "tuple[]"
            },
            {
              "components": [
                {
                  "internalType": "address",
                  "name": "erc721Contract",
                  "type": "address"
                },
                {
                  "internalType": "bool",
                  "name": "approveAll",
                  "type": "bool"
                },
                {
                  "internalType": "uint256[]",
                  "name": "tokenIds",
                  "type": "uint256[]"
                }
              ],
              "internalType": "struct SessionCallsStructs.SessionRequest_ERC721Allowance[]",
              "name": "erc721Allowances",
              "type": "tuple[]"
            },
            {
              "components": [
                {
                  "internalType": "address",
                  "name": "erc1155Contract",
                  "type": "address"
                },
                {
                  "internalType": "bool",
                  "name": "approveAll",
                  "type": "bool"
                },
                {
                  "internalType": "uint256[]",
                  "name": "tokenIds",
                  "type": "uint256[]"
                },
                {
                  "internalType": "uint256[]",
                  "name": "allowances",
                  "type": "uint256[]"
                }
              ],
              "internalType": "struct SessionCallsStructs.SessionRequest_ERC1155Allowance[]",
              "name": "erc1155Allowances",
              "type": "tuple[]"
            }
          ],
          "internalType": "struct SessionCallsStructs.SessionRequest",
          "name": "_sessionRequest",
          "type": "tuple"
        },
        {
          "internalType": "uint256",
          "name": "_expiresAt",
          "type": "uint256"
        },
        {
          "internalType": "uint256",
          "name": "_nonce",
          "type": "uint256"
        },
        {
          "internalType": "bytes[]",
          "name": "_signatures",
          "type": "bytes[]"
        },
        {
          "internalType": "uint256",
          "name": "_deadline",
          "type": "uint256"
        }
      ],
      "name": "startSession",
      "outputs": [],
      "stateMutability": "nonpayable",
      "type": "function"
    },
    {
      "inputs": [
        {
          "internalType": "bytes4",
          "name": "_interfaceID",
          "type": "bytes4"
        }
      ],
      "name": "supportsInterface",
      "outputs": [
        {
          "internalType": "bool",
          "name": "",
          "type": "bool"
        }
      ],
      "stateMutability": "view",
      "type": "function"
    },
    {
      "inputs": [
        {
          "components": [
            {
              "internalType": "address",
              "name": "caller",
              "type": "address"
            },
            {
              "internalType": "address",
              "name": "target",
              "type": "address"
            },
            {
              "internalType": "uint256",
              "name": "value",
              "type": "uint256"
            },
            {
              "internalType": "bytes",
              "name": "data",
              "type": "bytes"
            }
          ],
          "internalType": "struct PreauthorizedCallsStructs.CallRequestPreauthorized",
          "name": "_callRequestPreauthorized",
          "type": "tuple"
        },
        {
          "internalType": "uint256",
          "name": "_nonce",
          "type": "uint256"
        },
        {
          "internalType": "bytes[]",
          "name": "_signatures",
          "type": "bytes[]"
        },
        {
          "internalType": "uint256",
          "name": "_deadline",
          "type": "uint256"
        }
      ],
      "name": "unauthorizeCall",
      "outputs": [],
      "stateMutability": "nonpayable",
      "type": "function"
    },
    {
      "inputs": [
        {
          "internalType": "uint256",
          "name": "_threshold",
          "type": "uint256"
        },
        {
          "internalType": "uint256",
          "name": "_nonce",
          "type": "uint256"
        },
        {
          "internalType": "bytes[]",
          "name": "_signatures",
          "type": "bytes[]"
        },
        {
          "internalType": "uint256",
          "name": "_deadline",
          "type": "uint256"
        }
      ],
      "name": "updateControlThreshold",
      "outputs": [],
      "stateMutability": "nonpayable",
      "type": "function"
    },
    {
      "inputs": [
        {
          "internalType": "address",
          "name": "_controller",
          "type": "address"
        },
        {
          "internalType": "uint256",
          "name": "_weight",
          "type": "uint256"
        },
        {
          "internalType": "uint256",
          "name": "_nonce",
          "type": "uint256"
        },
        {
          "internalType": "bytes[]",
          "name": "_signatures",
          "type": "bytes[]"
        },
        {
          "internalType": "uint256",
          "name": "_deadline",
          "type": "uint256"
        }
      ],
      "name": "updateControllerWeight",
      "outputs": [],
      "stateMutability": "nonpayable",
      "type": "function"
    },
    {
      "inputs": [
        {
          "internalType": "address",
          "name": "newImplementation",
          "type": "address"
        },
        {
          "internalType": "bytes",
          "name": "data",
          "type": "bytes"
        },
        {
          "internalType": "bytes[]",
          "name": "_signatures",
          "type": "bytes[]"
        },
        {
          "internalType": "uint256",
          "name": "_deadline",
          "type": "uint256"
        }
      ],
      "name": "upgradeToAndCall",
      "outputs": [],
      "stateMutability": "payable",
      "type": "function"
    },
    {
      "inputs": [
        {
          "internalType": "address",
          "name": "newImplementation",
          "type": "address"
        },
        {
          "internalType": "bytes",
          "name": "data",
          "type": "bytes"
        }
      ],
      "name": "upgradeToAndCall",
      "outputs": [],
      "stateMutability": "payable",
      "type": "function"
    },
    {
      "stateMutability": "payable",
      "type": "receive"
    }
  ],
  "bytecode": "0x60a0604052306080523480156200001557600080fd5b506200002062000044565b6200002a62000044565b6200003462000044565b6200003e62000044565b620000f8565b7ff0c57e16840df040f15088dc2f81fe391c3923bec73e23a9662efc9c229c6a00805468010000000000000000900460ff1615620000955760405163f92ee8a960e01b815260040160405180910390fd5b80546001600160401b0390811614620000f55780546001600160401b0319166001600160401b0390811782556040519081527fc7f505b2f371ae2175ee4913f4499e1f2633a7b5936321eed1cdaeb6115181d29060200160405180910390a15b50565b6080516155976200012260003960008181611dc301528181611dec015261236a01526155976000f3fe6080604052600436106101bd5760003560e01c806389f8a9fa116100ed578063c4d66de811610090578063c4d66de81461051a578063ccb34ddb1461053a578063e237a3fc1461055a578063f04420f11461056f578063f23a6e611461058f578063f7501dc3146105bb578063f811896a146105db578063f8e87641146105fb578063fabec44a1461061b57600080fd5b806389f8a9fa146104055780638a0a33fc14610425578063a159e7c114610445578063a786509014610468578063acf616691461047d578063ad3cb1cc1461049d578063ad6f1e48146104ce578063bc197c81146104ee57600080fd5b806321f34cbe1161016057806321f34cbe146102e3578063294d37ea146103035780634f1ef2861461032357806350609c7d1461033657806352d1902d14610356578063566db1e41461036b5780635be037c31461038b5780635e45c113146103b857806385ec90f9146103d857600080fd5b806301ffc9a7146101c957806306e82383146101fe578063100dc0241461022157806310b5ab9b14610243578063150b7a02146102565780631626ba7e146102835780631fa4a8f1146102a357806320c13b0b146102c357600080fd5b366101c457005b600080fd5b3480156101d557600080fd5b506101e96101e4366004613b46565b610630565b60405190151581526020015b60405180910390f35b34801561020a57600080fd5b50610213610641565b6040519081526020016101f5565b34801561022d57600080fd5b5061024161023c366004613bba565b610654565b005b610241610251366004613c6c565b610773565b34801561026257600080fd5b50610276610271366004613dab565b610811565b6040516101f59190613e16565b34801561028f57600080fd5b5061027661029e366004613e2b565b610822565b3480156102af57600080fd5b506102416102be366004613e8e565b61084d565b3480156102cf57600080fd5b506102766102de366004613f05565b6108ee565b3480156102ef57600080fd5b506102416102fe366004613f70565b61092d565b34801561030f57600080fd5b5061024161031e36600461400d565b6109c8565b6102416103313660046140a5565b6110b8565b34801561034257600080fd5b506101e96103513660046140f4565b6110d7565b34801561036257600080fd5b5061021361115c565b34801561037757600080fd5b50610241610386366004614111565b611179565b34801561039757600080fd5b506103ab6103a6366004614159565b6111b3565b6040516101f5919061421c565b3480156103c457600080fd5b506102416103d3366004614280565b6112a4565b3480156103e457600080fd5b506103f86103f33660046142c5565b6112c7565b6040516101f591906142f9565b34801561041157600080fd5b5061024161042036600461430c565b6114ba565b34801561043157600080fd5b50610241610440366004614362565b6115bd565b34801561045157600080fd5b5061045b61133781565b6040516101f591906143f1565b34801561047457600080fd5b50610213611699565b34801561048957600080fd5b506103f8610498366004614405565b6116a9565b3480156104a957600080fd5b506103f8604051806040016040528060058152602001640352e302e360dc1b81525081565b3480156104da57600080fd5b5061045b6104e9366004614405565b6116cc565b3480156104fa57600080fd5b506102766105093660046144fb565b63bc197c8160e01b95945050505050565b34801561052657600080fd5b506102416105353660046140f4565b6116ef565b34801561054657600080fd5b506102416105553660046145a8565b6117e8565b34801561056657600080fd5b506102416118ee565b34801561057b57600080fd5b5061021361058a3660046140f4565b6118f9565b34801561059b57600080fd5b506102766105aa366004614652565b63f23a6e6160e01b95945050505050565b3480156105c757600080fd5b506103ab6105d63660046146ba565b611925565b3480156105e757600080fd5b506103ab6105f63660046146ba565b6119d6565b34801561060757600080fd5b506103f86106163660046142c5565b611a7f565b34801561062757600080fd5b50610213611c50565b600061063b82611c68565b92915050565b600061064b611c93565b60010154905090565b604080516001600160a01b038816602082015290810186905260608101859052608081018290524660a08201526106a79060c0015b60405160208183030381529060405280519060200120828585611cb7565b846106b0611c93565b6001600160a01b038816600090815260029190910160205260409020546106d5611c93565b600101546106e39190614711565b6106ed9190614724565b6106f5611c93565b60010155610701611c93565b6001015415806107235750610714611c93565b5461071d611c93565b60010154105b15610741576040516325746d7d60e21b815260040160405180910390fd5b8461074a611c93565b6001600160a01b0390971660009081526002979097016020526040909620959095555050505050565b61077b611db8565b6107978686868446604051602001610689959493929190614760565b60016107a1611e5d565b805460ff1916911515919091179055604080516020601f87018190048102820181019092528581526107f09188919088908890819084018382808284376000920191909152506110b892505050565b60006107fa611e5d565b805460ff1916911515919091179055505050505050565b630a85bd0160e11b5b949350505050565b600061082f848484611e81565b156108425750630b135d3f60e11b610846565b5060005b9392505050565b610867858583466040516020016106899493929190614839565b61086f611fa2565b600061087e60208801886140f4565b61088e6040890160208a016140f4565b60408901356108a060608b018b614868565b6040516020016108b49594939291906148ae565b60408051601f1981840301815291815281516020928301208352908201929092520160002080546001600160e01b03191690555050505050565b600061091285856040516109039291906148ed565b60405180910390208484611e81565b1561092557506320c13b0b60e01b61081a565b50600061081a565b61094b87878787854660405160200161068996959493929190614946565b600086900361096d57604051630e52390960e41b815260040160405180910390fd5b60005b868110156109af576109a788888381811061098d5761098d61497f565b90506020020160208101906109a291906140f4565b611fc6565b600101610970565b5084156109bf576109bf8561207e565b50505050505050565b6109fd8787878785466040516020016109e696959493929190614c47565b6040516020818303038152906040528285856120d0565b6000610a08886121d5565b868155600080805260028201602090815260408083209091528120893590559091505b610a386020890189614de0565b9050811015610b8f5760005b610a5160208a018a614de0565b83818110610a6157610a6161497f565b9050602002810190610a739190614e29565b610a81906020810190614de0565b9050811015610b865760018381016000610a9e60208d018d614de0565b86818110610aae57610aae61497f565b9050602002810190610ac09190614e29565b610ace9060208101906140f4565b6001600160a01b03166001600160a01b0316815260200190815260200160002060008b8060200190610b009190614de0565b86818110610b1057610b1061497f565b9050602002810190610b229190614e29565b610b30906020810190614de0565b85818110610b4057610b4061497f565b9050602002016020810190610b559190613b46565b6001600160e01b03191681526020810191909152604001600020805460ff1916911515919091179055600101610a44565b50600101610a2b565b5060005b610ba06040890189614e49565b9050811015610c3b57610bb66040890189614e49565b82818110610bc657610bc661497f565b905060400201602001358260020160008a8060400190610be69190614e49565b85818110610bf657610bf661497f565b610c0c92602060409092020190810191506140f4565b6001600160a01b0316815260208082019290925260409081016000908120818052909252902055600101610b93565b5060005b610c4c6060890189614de0565b9050811015610e2f57610c626060890189614de0565b82818110610c7257610c7261497f565b9050602002810190610c849190614e92565b610c95906040810190602001614ea8565b15610d0c576001600383016000610caf60608c018c614de0565b85818110610cbf57610cbf61497f565b9050602002810190610cd19190614e92565b610cdf9060208101906140f4565b6001600160a01b031681526020810191909152604001600020805460ff1916911515919091179055610e27565b60005b610d1c60608a018a614de0565b83818110610d2c57610d2c61497f565b9050602002810190610d3e9190614e92565b610d4c906040810190614de0565b9050811015610e25576001600284016000610d6a60608d018d614de0565b86818110610d7a57610d7a61497f565b9050602002810190610d8c9190614e92565b610d9a9060208101906140f4565b6001600160a01b031681526020810191909152604001600090812090610dc360608d018d614de0565b86818110610dd357610dd361497f565b9050602002810190610de59190614e92565b610df3906040810190614de0565b85818110610e0357610e0361497f565b6020908102929092013583525081019190915260400160002055600101610d0f565b505b600101610c3f565b5060005b610e406080890189614de0565b905081101561107857610e566080890189614de0565b82818110610e6657610e6661497f565b9050602002810190610e789190614ec5565b610e89906040810190602001614ea8565b15610f00576001600383016000610ea360808c018c614de0565b85818110610eb357610eb361497f565b9050602002810190610ec59190614ec5565b610ed39060208101906140f4565b6001600160a01b031681526020810191909152604001600020805460ff1916911515919091179055611070565b60005b610f1060808a018a614de0565b83818110610f2057610f2061497f565b9050602002810190610f329190614ec5565b610f40906040810190614de0565b905081101561106e57610f5660808a018a614de0565b83818110610f6657610f6661497f565b9050602002810190610f789190614ec5565b610f86906060810190614de0565b82818110610f9657610f9661497f565b905060200201358360020160008b8060800190610fb39190614de0565b86818110610fc357610fc361497f565b9050602002810190610fd59190614ec5565b610fe39060208101906140f4565b6001600160a01b03168152602081019190915260400160009081209061100c60808d018d614de0565b8681811061101c5761101c61497f565b905060200281019061102e9190614ec5565b61103c906040810190614de0565b8581811061104c5761104c61497f565b6020908102929092013583525081019190915260400160002055600101610f03565b505b600101610e33565b5061108161223d565b6001600160a01b0389166000908152600191909101602052604081208054916110a983614edb565b91905055505050505050505050565b6110c0611db8565b6110c982612261565b6110d382826122a6565b5050565b6000806110e261223d565b6001600160a01b03841660009081526001820160205260408120549192500361110e5750600092915050565b6001600160a01b038316600090815260208281526040808320600180860190935290832054909183916111419190614711565b81526020810191909152604001600020544210949350505050565b600061116661235f565b506000805160206154ed83398151915290565b6040805160208101879052908101859052606081018290524660808201526111a39060a001610689565b6111ac8561207e565b5050505050565b60606111ed868684466040516020016111cf9493929190614f2d565b60405160208183030381529060405280519060200120838686611cb7565b6000856001600160401b0381111561120757611207613cf6565b60405190808252806020026020018201604052801561123a57816020015b60608152602001906001900390816112255790505b50905060005b868110156112995761127488888381811061125d5761125d61497f565b905060200281019061126f9190614ec5565b6123a8565b8282815181106112865761128661497f565b6020908102919091010152600101611240565b509695505050505050565b6112be858583466040516020016106899493929190614f99565b6111ac8561248e565b606060006112d361223d565b336000908152600182016020526040812054919250036113115733604051633b92010160e21b815260040161130891906143f1565b60405180910390fd5b33600090815260208290526040812081600161132b61223d565b33600090815260019190910160205260409020546113499190614711565b815260200190815260200160002090504281600001541161137d57604051630fe82d2560e11b815260040160405180910390fd5b600080805260028201602090815260408083208252909120549085013511156113df5760008080526002820160209081526040808320825291829020549151638dccd66960e01b81529086013560048201526024810191909152604401611308565b60006113ee6060860186614868565b6113f791614fbf565b90506114108261140a60208801886140f4565b8361251e565b6114565761142160208601866140f4565b60405163c603605d60e01b81526001600160a01b0390911660048201526001600160e01b031982166024820152604401611308565b6114618286836125ee565b61146c82868361288c565b611477828683612c6a565b60008080526002830160209081526040808320825282208054918801359290916114a2908490614711565b909155506114b19050856123a8565b95945050505050565b604080516001600160a01b03808916602083015287169181019190915260608101859052608081018290524660a08201526114f79060c001610689565b6114ff611c93565b6001600160a01b03871660009081526002919091016020526040812054900361153b576040516385e1605f60e01b815260040160405180910390fd5b611543611c93565b6001600160a01b038616600090815260029190910160205260409020541561157e5760405163983b8f4b60e01b815260040160405180910390fd5b6115ac8561158a611c93565b6001600160a01b03891660009081526002919091016020526040902054612eac565b6115b586611fc6565b505050505050565b6115d98686868446604051602001610689959493929190615016565b6115e960a08601608087016150c6565b63ffffffff1660000361160f5760405163c820870160e01b815260040160405180910390fd5b600061161e60208801886140f4565b61162e6040890160208a016140f4565b604089013561164060608b018b614868565b6040516020016116549594939291906148ae565b60405160208183030381529060405280519060200120905085611675611fa2565b60008381526020919091526040902061168e82826150f0565b505050505050505050565b60006116a3611c93565b54919050565b60606116c38583466040516020016111cf939291906151e4565b6114b1856123a8565b60006116e68583466040516020016111cf93929190615209565b6114b185612efb565b60006116f9613007565b805490915060ff600160401b82041615906001600160401b03166000811580156117205750825b90506000826001600160401b0316600114801561173c5750303b155b90508115801561174a575080155b156117685760405163f92ee8a960e01b815260040160405180910390fd5b845467ffffffffffffffff19166001178555831561179257845460ff60401b1916600160401b1785555b61179b8661302b565b83156115b557845460ff60401b19168555604051600181527fc7f505b2f371ae2175ee4913f4499e1f2633a7b5936321eed1cdaeb6115181d29060200160405180910390a1505050505050565b61180888888888888646604051602001610689979695949392919061527e565b86851461182857604051632efb78eb60e21b815260040160405180910390fd5b600087900361184a57604051630e52390960e41b815260040160405180910390fd5b60005b8781101561168e5760008989838181106118695761186961497f565b905060200201602081019061187e91906140f4565b9050611888611c93565b6001600160a01b03821660009081526002919091016020526040902054156118c35760405163983b8f4b60e01b815260040160405180910390fd5b6118e5818989858181106118d9576118d961497f565b90506020020135612eac565b5060010161184d565b6118f73361248e565b565b6000611903611c93565b6001600160a01b03909216600090815260029290920160205250604090205490565b60606000826001600160401b0381111561194157611941613cf6565b60405190808252806020026020018201604052801561197457816020015b606081526020019060019003908161195f5790505b50905060005b838110156119ce576119a98585838181106119975761199761497f565b90506020028101906106169190614ec5565b8282815181106119bb576119bb61497f565b602090810291909101015260010161197a565b509392505050565b60606000826001600160401b038111156119f2576119f2613cf6565b604051908082528060200260200182016040528015611a2557816020015b6060815260200190600190039081611a105790505b50905060005b838110156119ce57611a5a858583818110611a4857611a4861497f565b90506020028101906103f39190614ec5565b828281518110611a6c57611a6c61497f565b6020908102919091010152600101611a2b565b60606000611a8d338461304c565b8054909150600160c01b900463ffffffff16600003611ab457611ab160008461304c565b90505b8054600160c01b900463ffffffff16600003611ae357604051633c6fbd2360e01b815260040160405180910390fd5b80546001600160401b031615801590611b05575080546001600160401b031642105b15611b23576040516302a175a360e31b815260040160405180910390fd5b8054600160401b90046001600160401b031615801590611b5057508054600160801b900463ffffffff1615155b8015611b8c57508054611b8090600160801b810463ffffffff1690600160401b90046001600160401b03166152c5565b6001600160401b031642105b15611baa57604051637f1a4abd60e11b815260040160405180910390fd5b805463ffffffff600160c01b82048116600160a01b9092041610611be157604051630fdaa12360e21b815260040160405180910390fd5b80546001908290601490611c03908490600160a01b900463ffffffff166152ec565b82546101009290920a63ffffffff81810219909316919092169190910217905550805467ffffffffffffffff60401b1916600160401b426001600160401b031602178155610846836123a8565b6000611c5a6130b8565b6001600160401b0316905090565b60006374eca2c160e11b6001600160e01b0319831601611c8a57506001919050565b61063b826130d1565b7f255f4a56bd3ad76424e31ed8855ef9ad14a0ce4e67508c76ff082e5c1466b12f90565b42831015611cd85760405163b08ce5b360e01b815260040160405180910390fd5b611ce0611c93565b54600003611d0157604051636a00024b60e11b815260040160405180910390fd5b600080611d1786611d128587615309565b6130f6565b91509150818190611d3b5760405162461bcd60e51b815260040161130891906142f9565b5060005b838110156109bf576001611d51611c93565b6003016000878785818110611d6857611d6861497f565b9050602002810190611d7a9190614868565b604051611d889291906148ed565b60408051918290039091208252602082019290925201600020805460ff1916911515919091179055600101611d3f565b306001600160a01b037f0000000000000000000000000000000000000000000000000000000000000000161480611e3f57507f00000000000000000000000000000000000000000000000000000000000000006001600160a01b0316611e336000805160206154ed833981519152546001600160a01b031690565b6001600160a01b031614155b156118f75760405163703e46dd60e11b815260040160405180910390fd5b7f8480f6681de262f06542a42e126de05ebaca6a167394778f7693338ddb42e1b490565b6000611e8e604183615392565b15611eac57604051634be6321b60e01b815260040160405180910390fd5b6000611eb96041846153a6565b90506000816001600160401b03811115611ed557611ed5613cf6565b604051908082528060200260200182016040528015611f0857816020015b6060815260200190600190039081611ef35790505b50905060005b82811015611f8957611f64611f246041836153ba565b604080516020601f8a018190048102820181019092528881526041918a908a908190840183828082843760009201919091525092949392505061327e9050565b828281518110611f7657611f7661497f565b6020908102919091010152600101611f0e565b506000611f9687836130f6565b50979650505050505050565b7f8b8c16fdb86566569823d1c7c7621975485948685c113470681dca36483b623590565b611fce611c93565b6001600160a01b03821660009081526002919091016020526040902054611ff3611c93565b60010160008282546120059190614711565b909155506120139050611c93565b6001015415806120355750612026611c93565b5461202f611c93565b60010154105b15612053576040516325746d7d60e21b815260040160405180910390fd5b600061205d611c93565b6001600160a01b039092166000908152600292909201602052604090912055565b80612087611c93565b55612090611c93565b5415806120af57506120a0611c93565b600101546120ac611c93565b54115b156120cd5760405163aabd5a0960e01b815260040160405180910390fd5b50565b428310156120f15760405163b08ce5b360e01b815260040160405180910390fd5b6120f9611c93565b5460000361211a57604051636a00024b60e11b815260040160405180910390fd5b83516020850120600090819061213490611d128587615309565b915091508181906121585760405162461bcd60e51b815260040161130891906142f9565b5060005b838110156109bf57600161216e611c93565b60030160008787858181106121855761218561497f565b90506020028101906121979190614868565b6040516121a59291906148ed565b60408051918290039091208252602082019290925201600020805460ff191691151591909117905560010161215c565b60006121df61223d565b6001600160a01b0383166000908152602091909152604081209061220161223d565b6001016000856001600160a01b03166001600160a01b031681526020019081526020016000205481526020019081526020016000209050919050565b7f48c02387a8e3f19678350d4a0d11f3f704fd6b94259fde7dd6097e79ffa93dcd90565b612269611e5d565b5460ff1661228a57604051630e985e9560e21b815260040160405180910390fd5b6000612294611e5d565b805460ff191691151591909117905550565b816001600160a01b03166352d1902d6040518163ffffffff1660e01b8152600401602060405180830381865afa925050508015612300575060408051601f3d908101601f191682019092526122fd918101906153d1565b60015b61231f5781604051634c9c8ce360e01b815260040161130891906143f1565b6000805160206154ed833981519152811461235057604051632a87526960e21b815260048101829052602401611308565b61235a838361338b565b505050565b306001600160a01b037f000000000000000000000000000000000000000000000000000000000000000016146118f75760405163703e46dd60e11b815260040160405180910390fd5b60606000806123ba60208501856140f4565b6001600160a01b031660208501356123d56060870187614868565b6040516123e39291906148ed565b60006040518083038185875af1925050503d8060008114612420576040519150601f19603f3d011682016040523d82523d6000602084013e612425565b606091505b509150915081610846578051600003612486576000846020013511801561244f5750478460200135115b1561246d5760405163356680b760e01b815260040160405180910390fd5b604051632a0e33eb60e11b815260040160405180910390fd5b805160208201fd5b600061249861223d565b6001600160a01b0383166000908152600182016020526040812054919250036124d65781604051633b92010160e21b815260040161130891906143f1565b6001600160a01b038216600090815260208281526040808320600180860190935290832054909183916125099190614711565b81526020810191909152604001600020555050565b6001600160a01b038216600090815260018401602090815260408083206001600160e01b03198516845290915281205460ff168061258657506001600160a01b0383166000908152600185016020908152604080832061133760e01b845290915290205460ff165b806125b95750611337600090815260018501602090815260408083206001600160e01b03198616845290915290205460ff165b8061081a57506113376000908152600185016020908152604080832061133760e01b845290915290205460ff16949350505050565b6356fa634560e01b6001600160e01b03198216016127745761261b61261660208401846140f4565b6133e1565b61262457505050565b60006126336060840184614868565b6126419160049082906153ea565b81019061264e9190615414565b915081905060028501600061266660208701876140f4565b6001600160a01b03166001600160a01b031681526020019081526020016000206000808152602001908152602001600020541015612714576126ab60208401846140f4565b816002860160006126bf60208801886140f4565b6001600160a01b039081168252602080830193909352604091820160009081208180529093529181902054905163fdfd218960e01b815293909116600484015260248301919091526044820152606401611308565b8060028501600061272860208701876140f4565b6001600160a01b03166001600160a01b03168152602001908152602001600020600080815260200190815260200160002060008282546127689190614711565b9091555061235a915050565b63dc478d2360e01b6001600160e01b031982160161235a5761279c61261660208401846140f4565b6127a557505050565b60006127b46060840184614868565b6127c29160049082906153ea565b8101906127cf9190615440565b9250829150506002850160006127e860208701876140f4565b6001600160a01b03166001600160a01b03168152602001908152602001600020600080815260200190815260200160002054101561282d576126ab60208401846140f4565b8060028501600061284160208701876140f4565b6001600160a01b03166001600160a01b03168152602001908152602001600020600080815260200190815260200160002060008282546128819190614711565b909155505050505050565b6306dede6b60e11b6001600160e01b0319821601612a1c576128c16128b460208401846140f4565b636cdb3d1360e11b61356b565b6128ca57505050565b6000806128da6060850185614868565b6128e89160049082906153ea565b8101906128f59190614652565b5090945092508291505060028601600061291260208801886140f4565b6001600160a01b03166001600160a01b0316815260200190815260200160002060008481526020019081526020016000205410156129bb5761295760208501856140f4565b828260028801600061296c60208a018a6140f4565b6001600160a01b03166001600160a01b0316815260200190815260200160002060008681526020019081526020016000205460405163653a86dd60e11b81526004016113089493929190614f99565b806002860160006129cf60208801886140f4565b6001600160a01b03166001600160a01b0316815260200190815260200160002060008481526020019081526020016000206000828254612a0f9190614711565b9091555061235a92505050565b6368a69e9560e11b6001600160e01b031982160161235a57612a446128b460208401846140f4565b612a4d57505050565b600080612a5d6060850185614868565b612a6b9160049082906153ea565b810190612a7891906144fb565b5093509350505060005b82518110156115b557818181518110612a9d57612a9d61497f565b6020026020010151866002016000876000016020810190612abe91906140f4565b6001600160a01b03166001600160a01b031681526020019081526020016000206000858481518110612af257612af261497f565b60200260200101518152602001908152602001600020541015612bd157612b1c60208601866140f4565b838281518110612b2e57612b2e61497f565b6020026020010151838381518110612b4857612b4861497f565b6020026020010151886002016000896000016020810190612b6991906140f4565b6001600160a01b03166001600160a01b031681526020019081526020016000206000878681518110612b9d57612b9d61497f565b602002602001015181526020019081526020016000205460405163653a86dd60e11b81526004016113089493929190614f99565b818181518110612be357612be361497f565b6020026020010151866002016000876000016020810190612c0491906140f4565b6001600160a01b03166001600160a01b031681526020019081526020016000206000858481518110612c3857612c3861497f565b602002602001015181526020019081526020016000206000828254612c5d9190614711565b9091555050600101612a82565b63dc478d2360e01b6001600160e01b0319821601612dd757612c9f612c9260208401846140f4565b6380ac58cd60e01b61356b565b612ca857505050565b600383016000612cbb60208501856140f4565b6001600160a01b0316815260208101919091526040016000205460ff1615612ce257505050565b6000612cf16060840184614868565b612cff9160049082906153ea565b810190612d0c9190615440565b92505050600284016000612d2360208601866140f4565b6001600160a01b03166001600160a01b03168152602001908152602001600020600082815260200190815260200160002054600003612d9557612d6960208401846140f4565b60405163c30d449f60e01b81526001600160a01b03909116600482015260248101829052604401611308565b60006002850181612da960208701876140f4565b6001600160a01b03168152602080820192909252604090810160009081209481529390915290912055505050565b635ebde8f960e11b6001600160e01b0319821601612dff57612c9f612c9260208401846140f4565b6323b9581160e11b6001600160e01b031982160161235a57612e27612c9260208401846140f4565b612e3057505050565b600383016000612e4360208501856140f4565b6001600160a01b0316815260208101919091526040016000205460ff1615612e6a57505050565b6000612e796060840184614868565b612e879160049082906153ea565b810190612e949190613dab565b5092505050600284016000612d2360208601866140f4565b80612eb5611c93565b6001016000828254612ec79190614724565b90915550819050612ed6611c93565b6001600160a01b03909316600090815260029390930160205260409092209190915550565b6000612f4a818335612f106040860186614868565b8080601f01602080910402602001604051908101604052809392919081815260200183838082843760009201919091525061362192505050565b90506000612f5b6060840184614868565b90501115613002576000806001600160a01b038316612f7d6060860186614868565b604051612f8b9291906148ed565b6000604051808303816000865af19150503d8060008114612fc8576040519150601f19603f3d011682016040523d82523d6000602084013e612fcd565b606091505b509150915081612fff57805115612fe657805181602001fd5b60405163727f092d60e01b815260040160405180910390fd5b50505b919050565b7ff0c57e16840df040f15088dc2f81fe391c3923bec73e23a9662efc9c229c6a0090565b6130336136a1565b61303e816001612eac565b6001613048611c93565b5550565b6000613056611fa2565b60008461306660208601866140f4565b60208601356130786060880188614868565b60405160200161308c9594939291906148ae565b604051602081830303815290604052805190602001208152602001908152602001600020905092915050565b60006130c2613007565b546001600160401b0316919050565b60006001600160e01b03198216630271189760e51b148061063b575061063b826136c6565b600060606000805b845181101561322b57600061312c8787848151811061311f5761311f61497f565b60200260200101516136f1565b9050613136611c93565b6001600160a01b03821660009081526002919091016020526040812054900361318057600060405180606001604052806032815260200161550d6032913994509450505050613277565b60008683815181106131945761319461497f565b60200260200101518051906020012090506131ad611c93565b6000828152600391909101602052604090205460ff16156131f057600060405180606001604052806023815260200161553f602391399550955050505050613277565b6131f8611c93565b6001600160a01b0383166000908152600291909101602052604090205461321f9085614724565b935050506001016130fe565b50613234611c93565b548110156132615760006040518060600160405280602681526020016154c7602691399250925050613277565b5050604080516020810190915260008152600191505b9250929050565b60608161328c81601f614724565b10156132cb5760405162461bcd60e51b815260206004820152600e60248201526d736c6963655f6f766572666c6f7760901b6044820152606401611308565b6132d58284614724565b845110156133195760405162461bcd60e51b8152602060048201526011602482015270736c6963655f6f75744f66426f756e647360781b6044820152606401611308565b6060821580156133385760405191506000825260208201604052613382565b6040519150601f8416801560200281840101858101878315602002848b0101015b81831015613371578051835260209283019201613359565b5050858452601f01601f1916604052505b50949350505050565b6133948261372a565b6040516001600160a01b038316907fbc7cd75a20ee27fd9adebab32041f755214dbc6bffa90cc0225b39da2e5c2d3b90600090a28051156133d95761235a8282613786565b6110d36137f3565b6000806000836001600160a01b03163060405160240161340191906143f1565b60408051601f198184030181529181526020820180516001600160e01b03166370a0823160e01b179052516134369190615481565b600060405180830381855afa9150503d8060008114613471576040519150601f19603f3d011682016040523d82523d6000602084013e613476565b606091505b5091509150818015613489575080516020145b92508215612fff5760408051600481526024810182526020810180516001600160e01b03166318160ddd60e01b17905290516001600160a01b038616916134cf91615481565b600060405180830381855afa9150503d806000811461350a576040519150601f19603f3d011682016040523d82523d6000602084013e61350f565b606091505b509092509050818015613523575080516020145b92508215612fff5761353c846380ac58cd60e01b61356b565b1561354b575060009392505050565b61355c84636cdb3d1360e11b61356b565b15612fff575060009392505050565b6000806000846001600160a01b03168460405160240161358b9190613e16565b60408051601f198184030181529181526020820180516001600160e01b03166301ffc9a760e01b179052516135c09190615481565b600060405180830381855afa9150503d80600081146135fb576040519150601f19603f3d011682016040523d82523d6000602084013e613600565b606091505b50915091508180156114b15750808060200190518101906114b19190615493565b60008347101561364d5760405163392efb2b60e21b815247600482015260248101859052604401611308565b815160000361366f57604051631328927760e21b815260040160405180910390fd5b8282516020840186f590506001600160a01b03811661084657604051633a0ba96160e11b815260040160405180910390fd5b6136a9613812565b6118f757604051631afcd79f60e31b815260040160405180910390fd5b600063a56a8ce960e01b6001600160e01b03198316016136e857506001919050565b61063b8261382c565b7f19457468657265756d205369676e6564204d6573736167653a0a3332000000006000908152601c839052603c81206108469083613857565b806001600160a01b03163b6000036137575780604051634c9c8ce360e01b815260040161130891906143f1565b6000805160206154ed83398151915280546001600160a01b0319166001600160a01b0392909216919091179055565b6060600080846001600160a01b0316846040516137a39190615481565b600060405180830381855af49150503d80600081146137de576040519150601f19603f3d011682016040523d82523d6000602084013e6137e3565b606091505b50915091506114b1858383613881565b34156118f75760405163b398979f60e01b815260040160405180910390fd5b600061381c613007565b54600160401b900460ff16919050565b60006365e90f7160e01b6001600160e01b031983160161384e57506001919050565b61063b826138d4565b60008060008061386786866138ff565b925092509250613877828261394c565b5090949350505050565b6060826138965761389182613a05565b610846565b81511580156138ad57506001600160a01b0384163b155b156138cd5783604051639996b31560e01b815260040161130891906143f1565b5080610846565b6000630474ef2b60e11b6001600160e01b03198316016138f657506001919050565b61063b82613a2e565b600080600083516041036139395760208401516040850151606086015160001a61392b88828585613a69565b955095509550505050613945565b50508151600091506002905b9250925092565b6000826003811115613960576139606154b0565b03613969575050565b600182600381111561397d5761397d6154b0565b0361399b5760405163f645eedf60e01b815260040160405180910390fd5b60028260038111156139af576139af6154b0565b036139d05760405163fce698f760e01b815260048101829052602401611308565b60038260038111156139e4576139e46154b0565b036110d3576040516335e2f38360e21b815260048101829052602401611308565b805115613a155780518082602001fd5b604051630a12f52160e11b815260040160405180910390fd5b6000638c0d754360e01b6001600160e01b0319831601613a5057506001919050565b6301ffc9a760e01b6001600160e01b031983161461063b565b600080806fa2a8918ca85bafe22016d0b997e4df60600160ff1b03841115613a9a5750600091506003905082613b24565b604080516000808252602082018084528a905260ff891692820192909252606081018790526080810186905260019060a0016020604051602081039080840390855afa158015613aee573d6000803e3d6000fd5b5050604051601f1901519150506001600160a01b038116613b1a57506000925060019150829050613b24565b9250600091508190505b9450945094915050565b80356001600160e01b03198116811461300257600080fd5b600060208284031215613b5857600080fd5b61084682613b2e565b6001600160a01b03811681146120cd57600080fd5b60008083601f840112613b8857600080fd5b5081356001600160401b03811115613b9f57600080fd5b6020830191508360208260051b850101111561327757600080fd5b60008060008060008060a08789031215613bd357600080fd5b8635613bde81613b61565b9550602087013594506040870135935060608701356001600160401b03811115613c0757600080fd5b613c1389828a01613b76565b979a9699509497949695608090950135949350505050565b60008083601f840112613c3d57600080fd5b5081356001600160401b03811115613c5457600080fd5b60208301915083602082850101111561327757600080fd5b60008060008060008060808789031215613c8557600080fd5b8635613c9081613b61565b955060208701356001600160401b0380821115613cac57600080fd5b613cb88a838b01613c2b565b90975095506040890135915080821115613cd157600080fd5b50613cde89828a01613b76565b979a9699509497949695606090950135949350505050565b634e487b7160e01b600052604160045260246000fd5b604051601f8201601f191681016001600160401b0381118282101715613d3457613d34613cf6565b604052919050565b600082601f830112613d4d57600080fd5b81356001600160401b03811115613d6657613d66613cf6565b613d79601f8201601f1916602001613d0c565b818152846020838601011115613d8e57600080fd5b816020850160208301376000918101602001919091529392505050565b60008060008060808587031215613dc157600080fd5b8435613dcc81613b61565b93506020850135613ddc81613b61565b92506040850135915060608501356001600160401b03811115613dfe57600080fd5b613e0a87828801613d3c565b91505092959194509250565b6001600160e01b031991909116815260200190565b600080600060408486031215613e4057600080fd5b8335925060208401356001600160401b03811115613e5d57600080fd5b613e6986828701613c2b565b9497909650939450505050565b600060808284031215613e8857600080fd5b50919050565b600080600080600060808688031215613ea657600080fd5b85356001600160401b0380821115613ebd57600080fd5b613ec989838a01613e76565b9650602088013595506040880135915080821115613ee657600080fd5b50613ef388828901613b76565b96999598509660600135949350505050565b60008060008060408587031215613f1b57600080fd5b84356001600160401b0380821115613f3257600080fd5b613f3e88838901613c2b565b90965094506020870135915080821115613f5757600080fd5b50613f6487828801613c2b565b95989497509550505050565b600080600080600080600060a0888a031215613f8b57600080fd5b87356001600160401b0380821115613fa257600080fd5b613fae8b838c01613b76565b909950975060208a0135965060408a0135955060608a0135915080821115613fd557600080fd5b50613fe28a828b01613b76565b989b979a50959894979596608090950135949350505050565b600060a08284031215613e8857600080fd5b600080600080600080600060c0888a03121561402857600080fd5b873561403381613b61565b965060208801356001600160401b038082111561404f57600080fd5b61405b8b838c01613ffb565b975060408a0135965060608a0135955060808a013591508082111561407f57600080fd5b5061408c8a828b01613b76565b989b979a5095989497959660a090950135949350505050565b600080604083850312156140b857600080fd5b82356140c381613b61565b915060208301356001600160401b038111156140de57600080fd5b6140ea85828601613d3c565b9150509250929050565b60006020828403121561410657600080fd5b813561084681613b61565b60008060008060006080868803121561412957600080fd5b853594506020860135935060408601356001600160401b0381111561414d57600080fd5b613ef388828901613b76565b60008060008060006060868803121561417157600080fd5b85356001600160401b038082111561418857600080fd5b61419489838a01613b76565b909750955060208801359150808211156141ad57600080fd5b506141ba88828901613b76565b96999598509660400135949350505050565b60005b838110156141e75781810151838201526020016141cf565b50506000910152565b600081518084526142088160208601602086016141cc565b601f01601f19169290920160200192915050565b600060208083016020845280855180835260408601915060408160051b87010192506020870160005b8281101561427357603f198886030184526142618583516141f0565b94509285019290850190600101614245565b5092979650505050505050565b60008060008060006080868803121561429857600080fd5b85356142a381613b61565b94506020860135935060408601356001600160401b0381111561414d57600080fd5b6000602082840312156142d757600080fd5b81356001600160401b038111156142ed57600080fd5b61081a84828501613e76565b60208152600061084660208301846141f0565b60008060008060008060a0878903121561432557600080fd5b863561433081613b61565b9550602087013561434081613b61565b94506040870135935060608701356001600160401b03811115613c0757600080fd5b600080600080600080610120878903121561437c57600080fd5b86356001600160401b038082111561439357600080fd5b61439f8a838b01613e76565b97506143ae8a60208b01613ffb565b965060c0890135955060e08901359150808211156143cb57600080fd5b506143d889828a01613b76565b979a969950949794969561010090950135949350505050565b6001600160a01b0391909116815260200190565b6000806000806060858703121561441b57600080fd5b84356001600160401b038082111561443257600080fd5b61443e88838901613e76565b9550602087013591508082111561445457600080fd5b5061446187828801613b76565b9598909750949560400135949350505050565b60006001600160401b0382111561448d5761448d613cf6565b5060051b60200190565b600082601f8301126144a857600080fd5b813560206144bd6144b883614474565b613d0c565b8083825260208201915060208460051b8701019350868411156144df57600080fd5b602086015b8481101561129957803583529183019183016144e4565b600080600080600060a0868803121561451357600080fd5b853561451e81613b61565b9450602086013561452e81613b61565b935060408601356001600160401b038082111561454a57600080fd5b61455689838a01614497565b9450606088013591508082111561456c57600080fd5b61457889838a01614497565b9350608088013591508082111561458e57600080fd5b5061459b88828901613d3c565b9150509295509295909350565b60008060008060008060008060a0898b0312156145c457600080fd5b88356001600160401b03808211156145db57600080fd5b6145e78c838d01613b76565b909a50985060208b013591508082111561460057600080fd5b61460c8c838d01613b76565b909850965060408b0135955060608b013591508082111561462c57600080fd5b506146398b828c01613b76565b999c989b50969995989497949560800135949350505050565b600080600080600060a0868803121561466a57600080fd5b853561467581613b61565b9450602086013561468581613b61565b9350604086013592506060860135915060808601356001600160401b038111156146ae57600080fd5b61459b88828901613d3c565b600080602083850312156146cd57600080fd5b82356001600160401b038111156146e357600080fd5b6146ef85828601613b76565b90969095509350505050565b634e487b7160e01b600052601160045260246000fd5b8181038181111561063b5761063b6146fb565b8082018082111561063b5761063b6146fb565b81835281816020850137506000828201602090810191909152601f909101601f19169091010190565b6001600160a01b03861681526080602082018190526000906147859083018688614737565b604083019490945250606001529392505050565b6000808335601e198436030181126147b057600080fd5b83016020810192503590506001600160401b038111156147cf57600080fd5b80360382131561327757600080fd5b600081356147eb81613b61565b6001600160a01b03908116845260208301359061480782613b61565b166020840152604082810135908401526148246060830183614799565b608060608601526114b1608086018284614737565b60808152600061484c60808301876147de565b6020830195909552506040810192909252606090910152919050565b6000808335601e1984360301811261487f57600080fd5b8301803591506001600160401b0382111561489957600080fd5b60200191503681900382131561327757600080fd5b6001600160a01b03868116825285166020820152604081018490526080606082018190526000906148e29083018486614737565b979650505050505050565b8183823760009101908152919050565b8183526000602080850194508260005b8581101561493b57813561492081613b61565b6001600160a01b03168752958201959082019060010161490d565b509495945050505050565b60a08152600061495a60a08301888a6148fd565b9050856020830152846040830152836060830152826080830152979650505050505050565b634e487b7160e01b600052603260045260246000fd5b6000808335601e198436030181126149ac57600080fd5b83016020810192503590506001600160401b038111156149cb57600080fd5b8060051b360382131561327757600080fd5b6000808335601e198436030181126149f457600080fd5b83016020810192503590506001600160401b03811115614a1357600080fd5b8060061b360382131561327757600080fd5b8183526000602080850194508260005b8581101561493b578135614a4881613b61565b6001600160a01b03168752818301358388015260409687019690910190600101614a35565b80151581146120cd57600080fd5b81835260006001600160fb1b03831115614a9457600080fd5b8260051b80836020870137939093016020019392505050565b60008383855260208086019550808560051b830101846000805b88811015614b5157858403601f19018a52823536899003605e19018112614aec578283fd5b880160608135614afb81613b61565b6001600160a01b0316865281870135614b1381614a6d565b1515868801526040614b2783820184614995565b93508282890152614b3b8389018583614a7b565b9d89019d97505050938601935050600101614ac7565b509198975050505050505050565b60008235607e19833603018112614b7557600080fd5b90910192915050565b60008383855260208086019550808560051b8301018460005b87811015614c3a57848303601f19018952614bb28288614b5f565b60808135614bbf81613b61565b6001600160a01b0316855281860135614bd781614a6d565b1515858701526040614beb83820184614995565b8383890152614bfd8489018284614a7b565b93505050506060614c1081840184614995565b935086830382880152614c24838583614a7b565b9c88019c96505050928501925050600101614b97565b5090979650505050505050565b600060018060a01b038089168352602060c0818501526101608401893560c0860152614c75828b018b614995565b60a060e088015291829052610180600583901b87018101929087018260005b83811015614d365789860361017f19018352813536869003603e19018112614cbb57600080fd5b850160408781018235614ccd81613b61565b8b168952614cdd838b0184614995565b8a8c019390935290829052909150606088019060005b83811015614d20576001600160e01b0319614d0d83613b2e565b168352918a0191908a0190600101614cf3565b5090975050509186019190860190600101614c94565b5050505050614d4860408b018b6149dd565b9350915060bf198086830301610100870152614d65828585614a25565b9350614d7460608c018c614995565b935091508086850301610120870152614d8e848484614aad565b9350614d9d60808c018c614995565b93509150808685030161014087015250614db8838383614b7e565b93505050508560408301528460608301528360808301528260a0830152979650505050505050565b6000808335601e19843603018112614df757600080fd5b8301803591506001600160401b03821115614e1157600080fd5b6020019150600581901b360382131561327757600080fd5b60008235603e19833603018112614e3f57600080fd5b9190910192915050565b6000808335601e19843603018112614e6057600080fd5b8301803591506001600160401b03821115614e7a57600080fd5b6020019150600681901b360382131561327757600080fd5b60008235605e19833603018112614e3f57600080fd5b600060208284031215614eba57600080fd5b813561084681614a6d565b60008235607e19833603018112614e3f57600080fd5b600060018201614eed57614eed6146fb565b5060010190565b60008135614f0181613b61565b6001600160a01b0316835260208281013590840152604080830135908401526148246060830183614799565b6060808252810184905260006080600586901b8301810190830187835b88811015614f8357858403607f19018352614f6e84614f69848d614b5f565b614ef4565b93506020928301929190910190600101614f4a565b5050506020830194909452506040015292915050565b6001600160a01b0394909416845260208401929092526040830152606082015260800190565b6001600160e01b03198135818116916004851015614fe75780818660040360031b1b83161692505b505092915050565b6001600160401b03811681146120cd57600080fd5b63ffffffff811681146120cd57600080fd5b600061012080835261502a818401896147de565b915050853561503881614fef565b6001600160401b0380821660208501526020880135915061505882614fef565b1660408381019190915286013561506e81615004565b63ffffffff80821660608501526060880135915061508b82615004565b8082166080850152608088013591506150a382615004565b1660a083015260c082019490945260e08101929092526101009091015292915050565b6000602082840312156150d857600080fd5b813561084681615004565b6000813561063b81615004565b81356150fb81614fef565b6001600160401b03811690508154816001600160401b03198216178355602084013561512681614fef565b67ffffffffffffffff60401b604091821b166001600160801b031983168417811785559085013561515681615004565b6001600160a01b03199290921690921782811760809290921b63ffffffff60801b1691821784559160608501359161518d83615004565b63ffffffff60a01b1993909316179190911760a09190911b63ffffffff60a01b161781556110d36151c0608084016150e3565b82805463ffffffff60c01b191660c09290921b63ffffffff60c01b16919091179055565b6060815260006151f76060830186614ef4565b60208301949094525060400152919050565b606081528335606082015260208401356080820152600061522d6040860186614799565b608060a085015261524260e085018284614737565b9150506152526060870187614799565b848303605f190160c0860152615269838284614737565b60208601979097525050505060400152919050565b60a08152600061529260a08301898b6148fd565b82810360208401526152a581888a614a7b565b604084019690965250506060810192909252608090910152949350505050565b6001600160401b038181168382160190808211156152e5576152e56146fb565b5092915050565b63ffffffff8181168382160190808211156152e5576152e56146fb565b60006153176144b884614474565b80848252602080830192508560051b85013681111561533557600080fd5b855b818110156153705780356001600160401b038111156153565760008081fd5b61536236828a01613d3c565b865250938201938201615337565b50919695505050505050565b634e487b7160e01b600052601260045260246000fd5b6000826153a1576153a161537c565b500690565b6000826153b5576153b561537c565b500490565b808202811582820484141761063b5761063b6146fb565b6000602082840312156153e357600080fd5b5051919050565b600080858511156153fa57600080fd5b8386111561540757600080fd5b5050820193919092039150565b6000806040838503121561542757600080fd5b823561543281613b61565b946020939093013593505050565b60008060006060848603121561545557600080fd5b833561546081613b61565b9250602084013561547081613b61565b929592945050506040919091013590565b60008251614e3f8184602087016141cc565b6000602082840312156154a557600080fd5b815161084681614a6d565b634e487b7160e01b600052602160045260246000fdfe5369676e6572207765696768747320646f6573206e6f74206d656574207468726573686f6c64360894a13ba1a3210667c828492db98dca3e2076cc3735a920a3ca505d382bbc4174206c65617374206f6e65207369676e6174757265206e6f742066726f6d2061206b6e6f776e20636f6e74726f6c6c65724174206c65617374206f6e65207369676e617475726520616c72656164792075736564a2646970667358221220f4128ce035f40ce35498e2e9cef6b6cd5d8ed3cfec96ebeebf8ed1888a46ba5364736f6c63430008170033",
  "linkReferences": {},
  "deployedLinkReferences": {}
}