{
  "_format": "hh-sol-artifact-1",
  "contractName": "Main",
  "sourceName": "contracts/modules/Main/Main.sol",
  "abi": [
    {
      "inputs": [
        {
          "internalType": "address",
          "name": "target",
          "type": "address"
        }
      ],
      "name": "AddressEmptyCode",
      "type": "error"
    },
    {
      "inputs": [],
      "name": "ArraryLengthMismatch",
      "type": "error"
    },
    {
      "inputs": [],
      "name": "CallIntervalUnmet",
      "type": "error"
    },
    {
      "inputs": [],
      "name": "CallMaxCallsReached",
      "type": "error"
    },
    {
      "inputs": [],
      "name": "CallNotPreauthorized",
      "type": "error"
    },
    {
      "inputs": [],
      "name": "CallTimelocked",
      "type": "error"
    },
    {
      "inputs": [],
      "name": "ControllerAlreadyExists",
      "type": "error"
    },
    {
      "inputs": [],
      "name": "ControllerDoesNotExist",
      "type": "error"
    },
    {
      "inputs": [],
      "name": "ControllersNotInitialized",
      "type": "error"
    },
    {
      "inputs": [],
      "name": "DeadlineReached",
      "type": "error"
    },
    {
      "inputs": [],
      "name": "ECDSAInvalidSignature",
      "type": "error"
    },
    {
      "inputs": [
        {
          "internalType": "uint256",
          "name": "length",
          "type": "uint256"
        }
      ],
      "name": "ECDSAInvalidSignatureLength",
      "type": "error"
    },
    {
      "inputs": [
        {
          "internalType": "bytes32",
          "name": "s",
          "type": "bytes32"
        }
      ],
      "name": "ECDSAInvalidSignatureS",
      "type": "error"
    },
    {
      "inputs": [
        {
          "internalType": "address",
          "name": "implementation",
          "type": "address"
        }
      ],
      "name": "ERC1967InvalidImplementation",
      "type": "error"
    },
    {
      "inputs": [],
      "name": "ERC1967NonPayable",
      "type": "error"
    },
    {
      "inputs": [],
      "name": "FailedInnerCall",
      "type": "error"
    },
    {
      "inputs": [
        {
          "internalType": "address",
          "name": "tokenAddress",
          "type": "address"
        },
        {
          "internalType": "uint256",
          "name": "tokenId",
          "type": "uint256"
        },
        {
          "internalType": "uint256",
          "name": "amount",
          "type": "uint256"
        },
        {
          "internalType": "uint256",
          "name": "allowance",
          "type": "uint256"
        }
      ],
      "name": "InsufficientAllowanceForERC1155Transfer",
      "type": "error"
    },
    {
      "inputs": [
        {
          "internalType": "address",
          "name": "tokenAddress",
          "type": "address"
        },
        {
          "internalType": "uint256",
          "name": "amount",
          "type": "uint256"
        },
        {
          "internalType": "uint256",
          "name": "allowance",
          "type": "uint256"
        }
      ],
      "name": "InsufficientAllowanceForERC20Transfer",
      "type": "error"
    },
    {
      "inputs": [
        {
          "internalType": "address",
          "name": "tokenAddress",
          "type": "address"
        },
        {
          "internalType": "uint256",
          "name": "tokenId",
          "type": "uint256"
        }
      ],
      "name": "InsufficientAllowanceForERC721Transfer",
      "type": "error"
    },
    {
      "inputs": [
        {
          "internalType": "uint256",
          "name": "amount",
          "type": "uint256"
        },
        {
          "internalType": "uint256",
          "name": "allowance",
          "type": "uint256"
        }
      ],
      "name": "InsufficientNativeTokenAllowance",
      "type": "error"
    },
    {
      "inputs": [],
      "name": "InvalidInitialization",
      "type": "error"
    },
    {
      "inputs": [],
      "name": "InvalidParameters",
      "type": "error"
    },
    {
      "inputs": [],
      "name": "InvalidSignatureLength",
      "type": "error"
    },
    {
      "inputs": [],
      "name": "InvalidThreshold",
      "type": "error"
    },
    {
      "inputs": [],
      "name": "MaxCallsMustNotBeZero",
      "type": "error"
    },
    {
      "inputs": [
        {
          "internalType": "address",
          "name": "sender",
          "type": "address"
        }
      ],
      "name": "NoSessionStarted",
      "type": "error"
    },
    {
      "inputs": [],
      "name": "NotInitializing",
      "type": "error"
    },
    {
      "inputs": [],
      "name": "SessionExpired",
      "type": "error"
    },
    {
      "inputs": [],
      "name": "ThresholdImpossible",
      "type": "error"
    },
    {
      "inputs": [],
      "name": "UUPSUnauthorizedCallContext",
      "type": "error"
    },
    {
      "inputs": [
        {
          "internalType": "bytes32",
          "name": "slot",
          "type": "bytes32"
        }
      ],
      "name": "UUPSUnsupportedProxiableUUID",
      "type": "error"
    },
    {
      "inputs": [
        {
          "internalType": "address",
          "name": "targetContract",
          "type": "address"
        },
        {
          "internalType": "bytes4",
          "name": "functionSelector",
          "type": "bytes4"
        }
      ],
      "name": "UnauthorizedSessionCall",
      "type": "error"
    },
    {
      "inputs": [],
      "name": "UnauthorizedUpgrade",
      "type": "error"
    },
    {
      "anonymous": false,
      "inputs": [
        {
          "indexed": false,
          "internalType": "uint64",
          "name": "version",
          "type": "uint64"
        }
      ],
      "name": "Initialized",
      "type": "event"
    },
    {
      "anonymous": false,
      "inputs": [
        {
          "indexed": true,
          "internalType": "address",
          "name": "implementation",
          "type": "address"
        }
      ],
      "name": "Upgraded",
      "type": "event"
    },
    {
      "inputs": [],
      "name": "UPGRADE_INTERFACE_VERSION",
      "outputs": [
        {
          "internalType": "string",
          "name": "",
          "type": "string"
        }
      ],
      "stateMutability": "view",
      "type": "function"
    },
    {
      "inputs": [
        {
          "internalType": "address[]",
          "name": "_controllers",
          "type": "address[]"
        },
        {
          "internalType": "uint256[]",
          "name": "_weights",
          "type": "uint256[]"
        },
        {
          "internalType": "uint256",
          "name": "_nonce",
          "type": "uint256"
        },
        {
          "internalType": "bytes[]",
          "name": "_signatures",
          "type": "bytes[]"
        },
        {
          "internalType": "uint256",
          "name": "_deadline",
          "type": "uint256"
        }
      ],
      "name": "addControllers",
      "outputs": [],
      "stateMutability": "nonpayable",
      "type": "function"
    },
    {
      "inputs": [
        {
          "components": [
            {
              "internalType": "address",
              "name": "target",
              "type": "address"
            },
            {
              "internalType": "uint256",
              "name": "value",
              "type": "uint256"
            },
            {
              "internalType": "uint256",
              "name": "nonce",
              "type": "uint256"
            },
            {
              "internalType": "bytes",
              "name": "data",
              "type": "bytes"
            }
          ],
          "internalType": "struct CallsStructs.CallRequest",
          "name": "_callRequest",
          "type": "tuple"
        },
        {
          "internalType": "bytes[]",
          "name": "_signatures",
          "type": "bytes[]"
        },
        {
          "internalType": "uint256",
          "name": "_deadline",
          "type": "uint256"
        }
      ],
      "name": "call",
      "outputs": [
        {
          "internalType": "bytes",
          "name": "",
          "type": "bytes"
        }
      ],
      "stateMutability": "nonpayable",
      "type": "function"
    },
    {
      "inputs": [],
      "name": "controlThreshold",
      "outputs": [
        {
          "internalType": "uint256",
          "name": "",
          "type": "uint256"
        }
      ],
      "stateMutability": "view",
      "type": "function"
    },
    {
      "inputs": [
        {
          "internalType": "address",
          "name": "_controller",
          "type": "address"
        }
      ],
      "name": "controllerWeight",
      "outputs": [
        {
          "internalType": "uint256",
          "name": "",
          "type": "uint256"
        }
      ],
      "stateMutability": "view",
      "type": "function"
    },
    {
      "inputs": [],
      "name": "controllersTotalWeight",
      "outputs": [
        {
          "internalType": "uint256",
          "name": "",
          "type": "uint256"
        }
      ],
      "stateMutability": "view",
      "type": "function"
    },
    {
      "inputs": [],
      "name": "endSession",
      "outputs": [],
      "stateMutability": "nonpayable",
      "type": "function"
    },
    {
      "inputs": [
        {
          "internalType": "address",
          "name": "_caller",
          "type": "address"
        },
        {
          "internalType": "uint256",
          "name": "_nonce",
          "type": "uint256"
        },
        {
          "internalType": "bytes[]",
          "name": "_signatures",
          "type": "bytes[]"
        },
        {
          "internalType": "uint256",
          "name": "_deadline",
          "type": "uint256"
        }
      ],
      "name": "endSessionForCaller",
      "outputs": [],
      "stateMutability": "nonpayable",
      "type": "function"
    },
    {
      "inputs": [],
      "name": "getCurrentVersion",
      "outputs": [
        {
          "internalType": "uint256",
          "name": "",
          "type": "uint256"
        }
      ],
      "stateMutability": "view",
      "type": "function"
    },
    {
      "inputs": [
        {
          "internalType": "address",
          "name": "_caller",
          "type": "address"
        }
      ],
      "name": "hasActiveSession",
      "outputs": [
        {
          "internalType": "bool",
          "name": "hasSession_",
          "type": "bool"
        }
      ],
      "stateMutability": "view",
      "type": "function"
    },
    {
      "inputs": [
        {
          "internalType": "address",
          "name": "_controller",
          "type": "address"
        }
      ],
      "name": "initialize",
      "outputs": [],
      "stateMutability": "nonpayable",
      "type": "function"
    },
    {
      "inputs": [
        {
          "internalType": "bytes32",
          "name": "_hash",
          "type": "bytes32"
        },
        {
          "internalType": "bytes",
          "name": "_signature",
          "type": "bytes"
        }
      ],
      "name": "isValidSignature",
      "outputs": [
        {
          "internalType": "bytes4",
          "name": "magicValue",
          "type": "bytes4"
        }
      ],
      "stateMutability": "view",
      "type": "function"
    },
    {
      "inputs": [
        {
          "internalType": "bytes",
          "name": "_data",
          "type": "bytes"
        },
        {
          "internalType": "bytes",
          "name": "_signature",
          "type": "bytes"
        }
      ],
      "name": "isValidSignature",
      "outputs": [
        {
          "internalType": "bytes4",
          "name": "magicValue",
          "type": "bytes4"
        }
      ],
      "stateMutability": "view",
      "type": "function"
    },
    {
      "inputs": [
        {
          "components": [
            {
              "internalType": "address",
              "name": "target",
              "type": "address"
            },
            {
              "internalType": "uint256",
              "name": "value",
              "type": "uint256"
            },
            {
              "internalType": "uint256",
              "name": "nonce",
              "type": "uint256"
            },
            {
              "internalType": "bytes",
              "name": "data",
              "type": "bytes"
            }
          ],
          "internalType": "struct CallsStructs.CallRequest[]",
          "name": "_callRequests",
          "type": "tuple[]"
        },
        {
          "internalType": "bytes[]",
          "name": "_signatures",
          "type": "bytes[]"
        },
        {
          "internalType": "uint256",
          "name": "_deadline",
          "type": "uint256"
        }
      ],
      "name": "multiCall",
      "outputs": [
        {
          "internalType": "bytes[]",
          "name": "",
          "type": "bytes[]"
        }
      ],
      "stateMutability": "nonpayable",
      "type": "function"
    },
    {
      "inputs": [
        {
          "internalType": "address",
          "name": "",
          "type": "address"
        },
        {
          "internalType": "address",
          "name": "",
          "type": "address"
        },
        {
          "internalType": "uint256[]",
          "name": "",
          "type": "uint256[]"
        },
        {
          "internalType": "uint256[]",
          "name": "",
          "type": "uint256[]"
        },
        {
          "internalType": "bytes",
          "name": "",
          "type": "bytes"
        }
      ],
      "name": "onERC1155BatchReceived",
      "outputs": [
        {
          "internalType": "bytes4",
          "name": "",
          "type": "bytes4"
        }
      ],
      "stateMutability": "nonpayable",
      "type": "function"
    },
    {
      "inputs": [
        {
          "internalType": "address",
          "name": "",
          "type": "address"
        },
        {
          "internalType": "address",
          "name": "",
          "type": "address"
        },
        {
          "internalType": "uint256",
          "name": "",
          "type": "uint256"
        },
        {
          "internalType": "uint256",
          "name": "",
          "type": "uint256"
        },
        {
          "internalType": "bytes",
          "name": "",
          "type": "bytes"
        }
      ],
      "name": "onERC1155Received",
      "outputs": [
        {
          "internalType": "bytes4",
          "name": "",
          "type": "bytes4"
        }
      ],
      "stateMutability": "nonpayable",
      "type": "function"
    },
    {
      "inputs": [
        {
          "internalType": "address",
          "name": "",
          "type": "address"
        },
        {
          "internalType": "address",
          "name": "",
          "type": "address"
        },
        {
          "internalType": "uint256",
          "name": "",
          "type": "uint256"
        },
        {
          "internalType": "bytes",
          "name": "",
          "type": "bytes"
        }
      ],
      "name": "onERC721Received",
      "outputs": [
        {
          "internalType": "bytes4",
          "name": "",
          "type": "bytes4"
        }
      ],
      "stateMutability": "nonpayable",
      "type": "function"
    },
    {
      "inputs": [
        {
          "components": [
            {
              "internalType": "address",
              "name": "caller",
              "type": "address"
            },
            {
              "internalType": "address",
              "name": "target",
              "type": "address"
            },
            {
              "internalType": "uint256",
              "name": "value",
              "type": "uint256"
            },
            {
              "internalType": "bytes",
              "name": "data",
              "type": "bytes"
            }
          ],
          "internalType": "struct PreauthorizedCallsStructs.CallRequestPreauthorized",
          "name": "_callRequestPreauthorized",
          "type": "tuple"
        },
        {
          "components": [
            {
              "internalType": "uint64",
              "name": "unlockTimestamp",
              "type": "uint64"
            },
            {
              "internalType": "uint64",
              "name": "lastCallTimestamp",
              "type": "uint64"
            },
            {
              "internalType": "uint32",
              "name": "minCallInterval",
              "type": "uint32"
            },
            {
              "internalType": "uint32",
              "name": "callCount",
              "type": "uint32"
            },
            {
              "internalType": "uint32",
              "name": "maxCalls",
              "type": "uint32"
            }
          ],
          "internalType": "struct PreauthorizedCallsStructs.CallRequestPreauthorization",
          "name": "_callRequestPreauthorization",
          "type": "tuple"
        },
        {
          "internalType": "uint256",
          "name": "_nonce",
          "type": "uint256"
        },
        {
          "internalType": "bytes[]",
          "name": "_signatures",
          "type": "bytes[]"
        },
        {
          "internalType": "uint256",
          "name": "_deadline",
          "type": "uint256"
        }
      ],
      "name": "preauthorizeCall",
      "outputs": [],
      "stateMutability": "nonpayable",
      "type": "function"
    },
    {
      "inputs": [
        {
          "components": [
            {
              "internalType": "address",
              "name": "target",
              "type": "address"
            },
            {
              "internalType": "uint256",
              "name": "value",
              "type": "uint256"
            },
            {
              "internalType": "uint256",
              "name": "nonce",
              "type": "uint256"
            },
            {
              "internalType": "bytes",
              "name": "data",
              "type": "bytes"
            }
          ],
          "internalType": "struct CallsStructs.CallRequest",
          "name": "_callRequest",
          "type": "tuple"
        }
      ],
      "name": "preauthorizedCall",
      "outputs": [
        {
          "internalType": "bytes",
          "name": "",
          "type": "bytes"
        }
      ],
      "stateMutability": "nonpayable",
      "type": "function"
    },
    {
      "inputs": [
        {
          "components": [
            {
              "internalType": "address",
              "name": "target",
              "type": "address"
            },
            {
              "internalType": "uint256",
              "name": "value",
              "type": "uint256"
            },
            {
              "internalType": "uint256",
              "name": "nonce",
              "type": "uint256"
            },
            {
              "internalType": "bytes",
              "name": "data",
              "type": "bytes"
            }
          ],
          "internalType": "struct CallsStructs.CallRequest[]",
          "name": "_callRequests",
          "type": "tuple[]"
        }
      ],
      "name": "preauthorizedMultiCall",
      "outputs": [
        {
          "internalType": "bytes[]",
          "name": "",
          "type": "bytes[]"
        }
      ],
      "stateMutability": "nonpayable",
      "type": "function"
    },
    {
      "inputs": [],
      "name": "proxiableUUID",
      "outputs": [
        {
          "internalType": "bytes32",
          "name": "",
          "type": "bytes32"
        }
      ],
      "stateMutability": "view",
      "type": "function"
    },
    {
      "inputs": [
        {
          "internalType": "address[]",
          "name": "_controllers",
          "type": "address[]"
        },
        {
          "internalType": "uint256",
          "name": "_newThreshold",
          "type": "uint256"
        },
        {
          "internalType": "uint256",
          "name": "_nonce",
          "type": "uint256"
        },
        {
          "internalType": "bytes[]",
          "name": "_signatures",
          "type": "bytes[]"
        },
        {
          "internalType": "uint256",
          "name": "_deadline",
          "type": "uint256"
        }
      ],
      "name": "removeControllers",
      "outputs": [],
      "stateMutability": "nonpayable",
      "type": "function"
    },
    {
      "inputs": [
        {
          "internalType": "address",
          "name": "_controllerOld",
          "type": "address"
        },
        {
          "internalType": "address",
          "name": "_controllerNew",
          "type": "address"
        },
        {
          "internalType": "uint256",
          "name": "_nonce",
          "type": "uint256"
        },
        {
          "internalType": "bytes[]",
          "name": "_signatures",
          "type": "bytes[]"
        },
        {
          "internalType": "uint256",
          "name": "_deadline",
          "type": "uint256"
        }
      ],
      "name": "replaceController",
      "outputs": [],
      "stateMutability": "nonpayable",
      "type": "function"
    },
    {
      "inputs": [
        {
          "components": [
            {
              "internalType": "address",
              "name": "target",
              "type": "address"
            },
            {
              "internalType": "uint256",
              "name": "value",
              "type": "uint256"
            },
            {
              "internalType": "uint256",
              "name": "nonce",
              "type": "uint256"
            },
            {
              "internalType": "bytes",
              "name": "data",
              "type": "bytes"
            }
          ],
          "internalType": "struct CallsStructs.CallRequest",
          "name": "_callRequest",
          "type": "tuple"
        }
      ],
      "name": "sessionCall",
      "outputs": [
        {
          "internalType": "bytes",
          "name": "",
          "type": "bytes"
        }
      ],
      "stateMutability": "nonpayable",
      "type": "function"
    },
    {
      "inputs": [
        {
          "components": [
            {
              "internalType": "address",
              "name": "target",
              "type": "address"
            },
            {
              "internalType": "uint256",
              "name": "value",
              "type": "uint256"
            },
            {
              "internalType": "uint256",
              "name": "nonce",
              "type": "uint256"
            },
            {
              "internalType": "bytes",
              "name": "data",
              "type": "bytes"
            }
          ],
          "internalType": "struct CallsStructs.CallRequest[]",
          "name": "_callRequests",
          "type": "tuple[]"
        }
      ],
      "name": "sessionMultiCall",
      "outputs": [
        {
          "internalType": "bytes[]",
          "name": "",
          "type": "bytes[]"
        }
      ],
      "stateMutability": "nonpayable",
      "type": "function"
    },
    {
      "inputs": [
        {
          "internalType": "address",
          "name": "_caller",
          "type": "address"
        },
        {
          "components": [
            {
              "internalType": "uint256",
              "name": "nativeAllowance",
              "type": "uint256"
            },
            {
              "components": [
                {
                  "internalType": "address",
                  "name": "aContract",
                  "type": "address"
                },
                {
                  "internalType": "bytes4[]",
                  "name": "functionSelectors",
                  "type": "bytes4[]"
                }
              ],
              "internalType": "struct SessionCallsStructs.SessionRequest_ContractFunctionSelectors[]",
              "name": "contractFunctionSelectors",
              "type": "tuple[]"
            },
            {
              "components": [
                {
                  "internalType": "address",
                  "name": "erc20Contract",
                  "type": "address"
                },
                {
                  "internalType": "uint256",
                  "name": "allowance",
                  "type": "uint256"
                }
              ],
              "internalType": "struct SessionCallsStructs.SessionRequest_ERC20Allowance[]",
              "name": "erc20Allowances",
              "type": "tuple[]"
            },
            {
              "components": [
                {
                  "internalType": "address",
                  "name": "erc721Contract",
                  "type": "address"
                },
                {
                  "internalType": "bool",
                  "name": "approveAll",
                  "type": "bool"
                },
                {
                  "internalType": "uint256[]",
                  "name": "tokenIds",
                  "type": "uint256[]"
                }
              ],
              "internalType": "struct SessionCallsStructs.SessionRequest_ERC721Allowance[]",
              "name": "erc721Allowances",
              "type": "tuple[]"
            },
            {
              "components": [
                {
                  "internalType": "address",
                  "name": "erc1155Contract",
                  "type": "address"
                },
                {
                  "internalType": "bool",
                  "name": "approveAll",
                  "type": "bool"
                },
                {
                  "internalType": "uint256[]",
                  "name": "tokenIds",
                  "type": "uint256[]"
                },
                {
                  "internalType": "uint256[]",
                  "name": "allowances",
                  "type": "uint256[]"
                }
              ],
              "internalType": "struct SessionCallsStructs.SessionRequest_ERC1155Allowance[]",
              "name": "erc1155Allowances",
              "type": "tuple[]"
            }
          ],
          "internalType": "struct SessionCallsStructs.SessionRequest",
          "name": "_sessionRequest",
          "type": "tuple"
        },
        {
          "internalType": "uint256",
          "name": "_expiresAt",
          "type": "uint256"
        },
        {
          "internalType": "uint256",
          "name": "_nonce",
          "type": "uint256"
        },
        {
          "internalType": "bytes[]",
          "name": "_signatures",
          "type": "bytes[]"
        },
        {
          "internalType": "uint256",
          "name": "_deadline",
          "type": "uint256"
        }
      ],
      "name": "startSession",
      "outputs": [],
      "stateMutability": "nonpayable",
      "type": "function"
    },
    {
      "inputs": [
        {
          "internalType": "bytes4",
          "name": "_interfaceID",
          "type": "bytes4"
        }
      ],
      "name": "supportsInterface",
      "outputs": [
        {
          "internalType": "bool",
          "name": "",
          "type": "bool"
        }
      ],
      "stateMutability": "view",
      "type": "function"
    },
    {
      "inputs": [
        {
          "components": [
            {
              "internalType": "address",
              "name": "caller",
              "type": "address"
            },
            {
              "internalType": "address",
              "name": "target",
              "type": "address"
            },
            {
              "internalType": "uint256",
              "name": "value",
              "type": "uint256"
            },
            {
              "internalType": "bytes",
              "name": "data",
              "type": "bytes"
            }
          ],
          "internalType": "struct PreauthorizedCallsStructs.CallRequestPreauthorized",
          "name": "_callRequestPreauthorized",
          "type": "tuple"
        },
        {
          "internalType": "uint256",
          "name": "_nonce",
          "type": "uint256"
        },
        {
          "internalType": "bytes[]",
          "name": "_signatures",
          "type": "bytes[]"
        },
        {
          "internalType": "uint256",
          "name": "_deadline",
          "type": "uint256"
        }
      ],
      "name": "unauthorizeCall",
      "outputs": [],
      "stateMutability": "nonpayable",
      "type": "function"
    },
    {
      "inputs": [
        {
          "internalType": "uint256",
          "name": "_threshold",
          "type": "uint256"
        },
        {
          "internalType": "uint256",
          "name": "_nonce",
          "type": "uint256"
        },
        {
          "internalType": "bytes[]",
          "name": "_signatures",
          "type": "bytes[]"
        },
        {
          "internalType": "uint256",
          "name": "_deadline",
          "type": "uint256"
        }
      ],
      "name": "updateControlThreshold",
      "outputs": [],
      "stateMutability": "nonpayable",
      "type": "function"
    },
    {
      "inputs": [
        {
          "internalType": "address",
          "name": "_controller",
          "type": "address"
        },
        {
          "internalType": "uint256",
          "name": "_weight",
          "type": "uint256"
        },
        {
          "internalType": "uint256",
          "name": "_nonce",
          "type": "uint256"
        },
        {
          "internalType": "bytes[]",
          "name": "_signatures",
          "type": "bytes[]"
        },
        {
          "internalType": "uint256",
          "name": "_deadline",
          "type": "uint256"
        }
      ],
      "name": "updateControllerWeight",
      "outputs": [],
      "stateMutability": "nonpayable",
      "type": "function"
    },
    {
      "inputs": [
        {
          "internalType": "address",
          "name": "newImplementation",
          "type": "address"
        },
        {
          "internalType": "bytes",
          "name": "data",
          "type": "bytes"
        },
        {
          "internalType": "bytes[]",
          "name": "_signatures",
          "type": "bytes[]"
        },
        {
          "internalType": "uint256",
          "name": "_deadline",
          "type": "uint256"
        }
      ],
      "name": "upgradeToAndCall",
      "outputs": [],
      "stateMutability": "payable",
      "type": "function"
    },
    {
      "inputs": [
        {
          "internalType": "address",
          "name": "newImplementation",
          "type": "address"
        },
        {
          "internalType": "bytes",
          "name": "data",
          "type": "bytes"
        }
      ],
      "name": "upgradeToAndCall",
      "outputs": [],
      "stateMutability": "payable",
      "type": "function"
    },
    {
      "stateMutability": "payable",
      "type": "receive"
    }
  ],
  "bytecode": "0x60a0604052306080523480156200001557600080fd5b506200002062000044565b6200002a62000044565b6200003462000044565b6200003e62000044565b620000f8565b7ff0c57e16840df040f15088dc2f81fe391c3923bec73e23a9662efc9c229c6a00805468010000000000000000900460ff1615620000955760405163f92ee8a960e01b815260040160405180910390fd5b80546001600160401b0390811614620000f55780546001600160401b0319166001600160401b0390811782556040519081527fc7f505b2f371ae2175ee4913f4499e1f2633a7b5936321eed1cdaeb6115181d29060200160405180910390a15b50565b608051615deb62000122600039600081816124b3015281816124dc0152612fa20152615deb6000f3fe6080604052600436106101a75760003560e01c806385ec90f9116100e2578063ccb34ddb11610085578063ccb34ddb146104e1578063e237a3fc14610501578063f04420f114610516578063f23a6e6114610536578063f7501dc314610562578063f811896a14610582578063f8e87641146105a2578063fabec44a146105c257600080fd5b806385ec90f9146103c257806389f8a9fa146103ef5780638a0a33fc1461040f578063a78650901461042f578063acf6166914610444578063ad3cb1cc14610464578063bc197c8114610495578063c4d66de8146104c157600080fd5b806321f34cbe1161014a57806321f34cbe146102cd578063294d37ea146102ed5780634f1ef2861461030d57806350609c7d1461032057806352d1902d14610340578063566db1e4146103555780635be037c3146103755780635e45c113146103a257600080fd5b806301ffc9a7146101b357806306e82383146101e8578063100dc0241461020b57806310b5ab9b1461022d578063150b7a02146102405780631626ba7e1461026d5780631fa4a8f11461028d57806320c13b0b146102ad57600080fd5b366101ae57005b600080fd5b3480156101bf57600080fd5b506101d36101ce366004614404565b6105d7565b60405190151581526020015b60405180910390f35b3480156101f457600080fd5b506101fd6105e8565b6040519081526020016101df565b34801561021757600080fd5b5061022b610226366004614478565b6105fb565b005b61022b61023b36600461452a565b610821565b34801561024c57600080fd5b5061026061025b366004614669565b6109d8565b6040516101df91906146d4565b34801561027957600080fd5b506102606102883660046146e9565b6109e9565b34801561029957600080fd5b5061022b6102a836600461474c565b610a14565b3480156102b957600080fd5b506102606102c83660046147c3565b610bd4565b3480156102d957600080fd5b5061022b6102e836600461482e565b610c13565b3480156102f957600080fd5b5061022b6103083660046148cb565b610dc7565b61022b61031b366004614963565b610f93565b34801561032c57600080fd5b506101d361033b3660046149b2565b610fb2565b34801561034c57600080fd5b506101fd611037565b34801561036157600080fd5b5061022b6103703660046149cf565b611054565b34801561038157600080fd5b50610395610390366004614a17565b6111a1565b6040516101df9190614ada565b3480156103ae57600080fd5b5061022b6103bd366004614b3e565b61138d565b3480156103ce57600080fd5b506103e26103dd366004614b83565b6114c3565b6040516101df9190614bb7565b3480156103fb57600080fd5b5061022b61040a366004614bca565b6116de565b34801561041b57600080fd5b5061022b61042a366004614c20565b6118f4565b34801561043b57600080fd5b506101fd611aef565b34801561045057600080fd5b506103e261045f366004614caf565b611aff565b34801561047057600080fd5b506103e2604051806040016040528060058152602001640352e302e360dc1b81525081565b3480156104a157600080fd5b506102606104b0366004614db0565b63bc197c8160e01b95945050505050565b3480156104cd57600080fd5b5061022b6104dc3660046149b2565b611c44565b3480156104ed57600080fd5b5061022b6104fc366004614e5d565b611d3e565b34801561050d57600080fd5b5061022b611f57565b34801561052257600080fd5b506101fd6105313660046149b2565b611f62565b34801561054257600080fd5b50610260610551366004614f07565b63f23a6e6160e01b95945050505050565b34801561056e57600080fd5b5061039561057d366004614f6f565b611f8e565b34801561058e57600080fd5b5061039561059d366004614f6f565b61203f565b3480156105ae57600080fd5b506103e26105bd366004614b83565b6120e8565b3480156105ce57600080fd5b506101fd6122b9565b60006105e2826122d1565b92915050565b60006105f26122fc565b60010154905090565b604080516001600160a01b038816602082015290810186905260608101859052608081018290524660a082015260c00160405160208183030381529060405280519060200120818484428310156106655760405163b08ce5b360e01b815260040160405180910390fd5b61066d6122fc565b5460000361068e57604051636a00024b60e11b815260040160405180910390fd5b6000806106a48661069f8587614fb0565b612320565b915091508181906106d15760405162461bcd60e51b81526004016106c89190614bb7565b60405180910390fd5b5060005b8381101561074e5760016106e76122fc565b60030160008787858181106106fe576106fe615023565b90506020028101906107109190615039565b60405161071e92919061507f565b60408051918290039091208252602082019290925201600020805460ff19169115159190911790556001016106d5565b508a6107586122fc565b6001600160a01b038e166000908152600291909101602052604090205461077d6122fc565b6001015461078b91906150a5565b61079591906150b8565b61079d6122fc565b600101556107a96122fc565b6001015415806107cb57506107bc6122fc565b546107c56122fc565b60010154105b156107e9576040516325746d7d60e21b815260040160405180910390fd5b8a6107f26122fc565b6001600160a01b03909d16600090815260029d909d016020526040909c209b909b555050505050505050505050565b6108296124a8565b85858583466040516020016108429594939291906150f4565b604051602081830303815290604052805190602001208184844283101561087c5760405163b08ce5b360e01b815260040160405180910390fd5b6108846122fc565b546000036108a557604051636a00024b60e11b815260040160405180910390fd5b6000806108b68661069f8587614fb0565b915091508181906108da5760405162461bcd60e51b81526004016106c89190614bb7565b5060005b838110156109575760016108f06122fc565b600301600087878581811061090757610907615023565b90506020028101906109199190615039565b60405161092792919061507f565b60408051918290039091208252602082019290925201600020805460ff19169115159190911790556001016108de565b50600161096261254d565b805460ff1916911515919091179055604080516020601f8d018190048102820181019092528b81526109b1918e91908e908e9081908401838280828437600092019190915250610f9392505050565b60006109bb61254d565b805460ff1916911515919091179055505050505050505050505050565b630a85bd0160e11b5b949350505050565b60006109f6848484612571565b15610a095750630b135d3f60e11b610a0d565b5060005b9392505050565b84848246604051602001610a2b94939291906151cd565b6040516020818303038152906040528051906020012081848442831015610a655760405163b08ce5b360e01b815260040160405180910390fd5b610a6d6122fc565b54600003610a8e57604051636a00024b60e11b815260040160405180910390fd5b600080610a9f8661069f8587614fb0565b91509150818190610ac35760405162461bcd60e51b81526004016106c89190614bb7565b5060005b83811015610b40576001610ad96122fc565b6003016000878785818110610af057610af0615023565b9050602002810190610b029190615039565b604051610b1092919061507f565b60408051918290039091208252602082019290925201600020805460ff1916911515919091179055600101610ac7565b50610b49612692565b6000610b5860208e018e6149b2565b8d6020016020810190610b6b91906149b2565b8e604001358f8060600190610b809190615039565b604051602001610b949594939291906151fc565b60408051601f1981840301815291815281516020928301208352908201929092520160002080546001600160e01b03191690555050505050505050505050565b6000610bf88585604051610be992919061507f565b60405180910390208484612571565b15610c0b57506320c13b0b60e01b6109e1565b5060006109e1565b868686868446604051602001610c2e96959493929190615284565b6040516020818303038152906040528051906020012081848442831015610c685760405163b08ce5b360e01b815260040160405180910390fd5b610c706122fc565b54600003610c9157604051636a00024b60e11b815260040160405180910390fd5b600080610ca28661069f8587614fb0565b91509150818190610cc65760405162461bcd60e51b81526004016106c89190614bb7565b5060005b83811015610d43576001610cdc6122fc565b6003016000878785818110610cf357610cf3615023565b9050602002810190610d059190615039565b604051610d1392919061507f565b60408051918290039091208252602082019290925201600020805460ff1916911515919091179055600101610cca565b5060008c9003610d6657604051630e52390960e41b815260040160405180910390fd5b60005b8c811015610da857610da08e8e83818110610d8657610d86615023565b9050602002016020810190610d9b91906149b2565b6126b6565b600101610d69565b508a15610db857610db88b61276e565b50505050505050505050505050565b868686868446604051602001610de29695949392919061556f565b60405160208183030381529060405281848442831015610e155760405163b08ce5b360e01b815260040160405180910390fd5b610e1d6122fc565b54600003610e3e57604051636a00024b60e11b815260040160405180910390fd5b835160208501206000908190610e589061069f8587614fb0565b91509150818190610e7c5760405162461bcd60e51b81526004016106c89190614bb7565b5060005b83811015610ef9576001610e926122fc565b6003016000878785818110610ea957610ea9615023565b9050602002810190610ebb9190615039565b604051610ec992919061507f565b60408051918290039091208252602082019290925201600020805460ff1916911515919091179055600101610e80565b506000610f058e6127c0565b8c81556000808052600282016020908152604080832090915290208e3590559050610f308d82612828565b610f3a8d82612994565b610f448d82612a3f565b610f4e8d82612c32565b610f56612e7a565b6001600160a01b038f16600090815260019190910160205260408120805491610f7e83615708565b91905055505050505050505050505050505050565b610f9b6124a8565b610fa482612e9e565b610fae8282612ee3565b5050565b600080610fbd612e7a565b6001600160a01b038416600090815260018201602052604081205491925003610fe95750600092915050565b6001600160a01b0383166000908152602082815260408083206001808601909352908320549091839161101c91906150a5565b81526020810191909152604001600020544210949350505050565b6000611041612f97565b50600080516020615d4183398151915290565b60408051602081018790529081018590526060810182905246608082015260a00160405160208183030381529060405280519060200120818484428310156110af5760405163b08ce5b360e01b815260040160405180910390fd5b6110b76122fc565b546000036110d857604051636a00024b60e11b815260040160405180910390fd5b6000806110e98661069f8587614fb0565b9150915081819061110d5760405162461bcd60e51b81526004016106c89190614bb7565b5060005b8381101561118a5760016111236122fc565b600301600087878581811061113a5761113a615023565b905060200281019061114c9190615039565b60405161115a92919061507f565b60408051918290039091208252602082019290925201600020805460ff1916911515919091179055600101611111565b506111948b61276e565b5050505050505050505050565b6060858583466040516020016111ba949392919061575a565b60405160208183030381529060405280519060200120828585428310156111f45760405163b08ce5b360e01b815260040160405180910390fd5b6111fc6122fc565b5460000361121d57604051636a00024b60e11b815260040160405180910390fd5b60008061122e8661069f8587614fb0565b915091508181906112525760405162461bcd60e51b81526004016106c89190614bb7565b5060005b838110156112cf5760016112686122fc565b600301600087878581811061127f5761127f615023565b90506020028101906112919190615039565b60405161129f92919061507f565b60408051918290039091208252602082019290925201600020805460ff1916911515919091179055600101611256565b5060008b6001600160401b038111156112ea576112ea6145b4565b60405190808252806020026020018201604052801561131d57816020015b60608152602001906001900390816113085790505b50905060005b8c81101561137c576113578e8e8381811061134057611340615023565b905060200281019061135291906157c6565b612fe0565b82828151811061136957611369615023565b6020908102919091010152600101611323565b509c9b505050505050505050505050565b848482466040516020016113a494939291906157e6565b60405160208183030381529060405280519060200120818484428310156113de5760405163b08ce5b360e01b815260040160405180910390fd5b6113e66122fc565b5460000361140757604051636a00024b60e11b815260040160405180910390fd5b6000806114188661069f8587614fb0565b9150915081819061143c5760405162461bcd60e51b81526004016106c89190614bb7565b5060005b838110156114b95760016114526122fc565b600301600087878581811061146957611469615023565b905060200281019061147b9190615039565b60405161148992919061507f565b60408051918290039091208252602082019290925201600020805460ff1916911515919091179055600101611440565b506111948b613124565b606060006114cf612e7a565b336000908152600182016020526040812054919250036115045733604051633b92010160e21b81526004016106c8919061580c565b33600090815260208290526040812081600161151e612e7a565b336000908152600191909101602052604090205461153c91906150a5565b815260200190815260200160002090504281600001541161157057604051630fe82d2560e11b815260040160405180910390fd5b600080805260028201602090815260408083208252909120549085013511156115d25760008080526002820160209081526040808320825291829020549151638dccd66960e01b815290860135600482015260248101919091526044016106c8565b60006115e16060860186615039565b6115ea91615820565b9050611634826115fd60208801886149b2565b6001600160a01b03166000908152600191909101602090815260408083206001600160e01b03198616845290915290205460ff1690565b61167a5761164560208601866149b2565b60405163c603605d60e01b81526001600160a01b0390911660048201526001600160e01b0319821660248201526044016106c8565b6116858286836131b4565b611690828683613452565b61169b828683613830565b60008080526002830160209081526040808320825282208054918801359290916116c69084906150a5565b909155506116d5905085612fe0565b95945050505050565b604080516001600160a01b03808916602083015287169181019190915260608101859052608081018290524660a082015260c001604051602081830303815290604052805190602001208184844283101561174c5760405163b08ce5b360e01b815260040160405180910390fd5b6117546122fc565b5460000361177557604051636a00024b60e11b815260040160405180910390fd5b6000806117868661069f8587614fb0565b915091508181906117aa5760405162461bcd60e51b81526004016106c89190614bb7565b5060005b838110156118275760016117c06122fc565b60030160008787858181106117d7576117d7615023565b90506020028101906117e99190615039565b6040516117f792919061507f565b60408051918290039091208252602082019290925201600020805460ff19169115159190911790556001016117ae565b506118306122fc565b6001600160a01b038d1660009081526002919091016020526040812054900361186c576040516385e1605f60e01b815260040160405180910390fd5b6118746122fc565b6001600160a01b038c1660009081526002919091016020526040902054156118af5760405163983b8f4b60e01b815260040160405180910390fd5b6118dd8b6118bb6122fc565b6001600160a01b038f1660009081526002919091016020526040902054613a72565b6118e68c6126b6565b505050505050505050505050565b858585834660405160200161190d959493929190615877565b60405160208183030381529060405280519060200120818484428310156119475760405163b08ce5b360e01b815260040160405180910390fd5b61194f6122fc565b5460000361197057604051636a00024b60e11b815260040160405180910390fd5b6000806119818661069f8587614fb0565b915091508181906119a55760405162461bcd60e51b81526004016106c89190614bb7565b5060005b83811015611a225760016119bb6122fc565b60030160008787858181106119d2576119d2615023565b90506020028101906119e49190615039565b6040516119f292919061507f565b60408051918290039091208252602082019290925201600020805460ff19169115159190911790556001016119a9565b50611a3360a08c0160808d01615927565b63ffffffff16600003611a595760405163c820870160e01b815260040160405180910390fd5b6000611a6860208e018e6149b2565b8d6020016020810190611a7b91906149b2565b8e604001358f8060600190611a909190615039565b604051602001611aa49594939291906151fc565b6040516020818303038152906040528051906020012090508b611ac5612692565b600083815260209190915260409020611ade8282615951565b505050505050505050505050505050565b6000611af96122fc565b54919050565b6060848246604051602001611b1693929190615a45565b6040516020818303038152906040528051906020012082858542831015611b505760405163b08ce5b360e01b815260040160405180910390fd5b611b586122fc565b54600003611b7957604051636a00024b60e11b815260040160405180910390fd5b600080611b8a8661069f8587614fb0565b91509150818190611bae5760405162461bcd60e51b81526004016106c89190614bb7565b5060005b83811015611c2b576001611bc46122fc565b6003016000878785818110611bdb57611bdb615023565b9050602002810190611bed9190615039565b604051611bfb92919061507f565b60408051918290039091208252602082019290925201600020805460ff1916911515919091179055600101611bb2565b50611c358b612fe0565b9b9a5050505050505050505050565b6000611c4e613ac1565b805490915060ff600160401b82041615906001600160401b0316600081158015611c755750825b90506000826001600160401b03166001148015611c915750303b155b905081158015611c9f575080155b15611cbd5760405163f92ee8a960e01b815260040160405180910390fd5b845467ffffffffffffffff191660011785558315611ce757845460ff60401b1916600160401b1785555b611cf086613ae5565b8315611d3657845460ff60401b19168555604051600181527fc7f505b2f371ae2175ee4913f4499e1f2633a7b5936321eed1cdaeb6115181d29060200160405180910390a15b505050505050565b87878787878546604051602001611d5b9796959493929190615a6a565b6040516020818303038152906040528051906020012081848442831015611d955760405163b08ce5b360e01b815260040160405180910390fd5b611d9d6122fc565b54600003611dbe57604051636a00024b60e11b815260040160405180910390fd5b600080611dcf8661069f8587614fb0565b91509150818190611df35760405162461bcd60e51b81526004016106c89190614bb7565b5060005b83811015611e70576001611e096122fc565b6003016000878785818110611e2057611e20615023565b9050602002810190611e329190615039565b604051611e4092919061507f565b60408051918290039091208252602082019290925201600020805460ff1916911515919091179055600101611df7565b508c8b14611e9157604051632efb78eb60e21b815260040160405180910390fd5b60008d9003611eb357604051630e52390960e41b815260040160405180910390fd5b60005b8d811015611ade5760008f8f83818110611ed257611ed2615023565b9050602002016020810190611ee791906149b2565b9050611ef16122fc565b6001600160a01b0382166000908152600291909101602052604090205415611f2c5760405163983b8f4b60e01b815260040160405180910390fd5b611f4e818f8f85818110611f4257611f42615023565b90506020020135613a72565b50600101611eb6565b611f6033613124565b565b6000611f6c6122fc565b6001600160a01b03909216600090815260029290920160205250604090205490565b60606000826001600160401b03811115611faa57611faa6145b4565b604051908082528060200260200182016040528015611fdd57816020015b6060815260200190600190039081611fc85790505b50905060005b838110156120375761201285858381811061200057612000615023565b90506020028101906105bd91906157c6565b82828151811061202457612024615023565b6020908102919091010152600101611fe3565b509392505050565b60606000826001600160401b0381111561205b5761205b6145b4565b60405190808252806020026020018201604052801561208e57816020015b60608152602001906001900390816120795790505b50905060005b83811015612037576120c38585838181106120b1576120b1615023565b90506020028101906103dd91906157c6565b8282815181106120d5576120d5615023565b6020908102919091010152600101612094565b606060006120f63384613b06565b8054909150600160c01b900463ffffffff1660000361211d5761211a600084613b06565b90505b8054600160c01b900463ffffffff1660000361214c57604051633c6fbd2360e01b815260040160405180910390fd5b80546001600160401b03161580159061216e575080546001600160401b031642105b1561218c576040516302a175a360e31b815260040160405180910390fd5b8054600160401b90046001600160401b0316158015906121b957508054600160801b900463ffffffff1615155b80156121f5575080546121e990600160801b810463ffffffff1690600160401b90046001600160401b0316615ab1565b6001600160401b031642105b1561221357604051637f1a4abd60e11b815260040160405180910390fd5b805463ffffffff600160c01b82048116600160a01b909204161061224a57604051630fdaa12360e21b815260040160405180910390fd5b8054600190829060149061226c908490600160a01b900463ffffffff16615ad8565b82546101009290920a63ffffffff81810219909316919092169190910217905550805467ffffffffffffffff60401b1916600160401b426001600160401b031602178155610a0d83612fe0565b60006122c3613b72565b6001600160401b0316905090565b60006374eca2c160e11b6001600160e01b03198316016122f357506001919050565b6105e282613b8b565b7f255f4a56bd3ad76424e31ed8855ef9ad14a0ce4e67508c76ff082e5c1466b12f90565b600060606000805b84518110156124555760006123568787848151811061234957612349615023565b6020026020010151613bb0565b90506123606122fc565b6001600160a01b0382166000908152600291909101602052604081205490036123aa576000604051806060016040528060328152602001615d6160329139945094505050506124a1565b60008683815181106123be576123be615023565b60200260200101518051906020012090506123d76122fc565b6000828152600391909101602052604090205460ff161561241a576000604051806060016040528060238152602001615d936023913995509550505050506124a1565b6124226122fc565b6001600160a01b0383166000908152600291909101602052604090205461244990856150b8565b93505050600101612328565b5061245e6122fc565b5481101561248b576000604051806060016040528060268152602001615d1b6026913992509250506124a1565b5050604080516020810190915260008152600191505b9250929050565b306001600160a01b037f000000000000000000000000000000000000000000000000000000000000000016148061252f57507f00000000000000000000000000000000000000000000000000000000000000006001600160a01b0316612523600080516020615d41833981519152546001600160a01b031690565b6001600160a01b031614155b15611f605760405163703e46dd60e11b815260040160405180910390fd5b7f8480f6681de262f06542a42e126de05ebaca6a167394778f7693338ddb42e1b490565b600061257e604183615b0b565b1561259c57604051634be6321b60e01b815260040160405180910390fd5b60006125a9604184615b1f565b90506000816001600160401b038111156125c5576125c56145b4565b6040519080825280602002602001820160405280156125f857816020015b60608152602001906001900390816125e35790505b50905060005b8281101561267957612654612614604183615b33565b604080516020601f8a018190048102820181019092528881526041918a908a9081908401838280828437600092019190915250929493925050613be99050565b82828151811061266657612666615023565b60209081029190910101526001016125fe565b5060006126868783612320565b50979650505050505050565b7f8b8c16fdb86566569823d1c7c7621975485948685c113470681dca36483b623590565b6126be6122fc565b6001600160a01b038216600090815260029190910160205260409020546126e36122fc565b60010160008282546126f591906150a5565b9091555061270390506122fc565b60010154158061272557506127166122fc565b5461271f6122fc565b60010154105b15612743576040516325746d7d60e21b815260040160405180910390fd5b600061274d6122fc565b6001600160a01b039092166000908152600292909201602052604090912055565b806127776122fc565b556127806122fc565b54158061279f57506127906122fc565b6001015461279c6122fc565b54115b156127bd5760405163aabd5a0960e01b815260040160405180910390fd5b50565b60006127ca612e7a565b6001600160a01b038316600090815260209190915260408120906127ec612e7a565b6001016000856001600160a01b03166001600160a01b031681526020019081526020016000205481526020019081526020016000209050919050565b60005b6128386020840184615b4a565b905081101561298f5760005b6128516020850185615b4a565b8381811061286157612861615023565b90506020028101906128739190615b93565b612881906020810190615b4a565b9050811015612986576001838101600061289e6020880188615b4a565b868181106128ae576128ae615023565b90506020028101906128c09190615b93565b6128ce9060208101906149b2565b6001600160a01b03166001600160a01b0316815260200190815260200160002060008680602001906129009190615b4a565b8681811061291057612910615023565b90506020028101906129229190615b93565b612930906020810190615b4a565b8581811061294057612940615023565b90506020020160208101906129559190614404565b6001600160e01b03191681526020810191909152604001600020805460ff1916911515919091179055600101612844565b5060010161282b565b505050565b60005b6129a46040840184615ba9565b905081101561298f576129ba6040840184615ba9565b828181106129ca576129ca615023565b905060400201602001358260020160008580604001906129ea9190615ba9565b858181106129fa576129fa615023565b612a1092602060409092020190810191506149b2565b6001600160a01b0316815260208082019290925260409081016000908120818052909252902055600101612997565b60005b612a4f6060840184615b4a565b905081101561298f57612a656060840184615b4a565b82818110612a7557612a75615023565b9050602002810190612a879190615bf2565b612a98906040810190602001615c08565b15612b0f576001600383016000612ab26060870187615b4a565b85818110612ac257612ac2615023565b9050602002810190612ad49190615bf2565b612ae29060208101906149b2565b6001600160a01b031681526020810191909152604001600020805460ff1916911515919091179055612c2a565b60005b612b1f6060850185615b4a565b83818110612b2f57612b2f615023565b9050602002810190612b419190615bf2565b612b4f906040810190615b4a565b9050811015612c28576001600284016000612b6d6060880188615b4a565b86818110612b7d57612b7d615023565b9050602002810190612b8f9190615bf2565b612b9d9060208101906149b2565b6001600160a01b031681526020810191909152604001600090812090612bc66060880188615b4a565b86818110612bd657612bd6615023565b9050602002810190612be89190615bf2565b612bf6906040810190615b4a565b85818110612c0657612c06615023565b6020908102929092013583525081019190915260400160002055600101612b12565b505b600101612a42565b60005b612c426080840184615b4a565b905081101561298f57612c586080840184615b4a565b82818110612c6857612c68615023565b9050602002810190612c7a91906157c6565b612c8b906040810190602001615c08565b15612d02576001600383016000612ca56080870187615b4a565b85818110612cb557612cb5615023565b9050602002810190612cc791906157c6565b612cd59060208101906149b2565b6001600160a01b031681526020810191909152604001600020805460ff1916911515919091179055612e72565b60005b612d126080850185615b4a565b83818110612d2257612d22615023565b9050602002810190612d3491906157c6565b612d42906040810190615b4a565b9050811015612e7057612d586080850185615b4a565b83818110612d6857612d68615023565b9050602002810190612d7a91906157c6565b612d88906060810190615b4a565b82818110612d9857612d98615023565b90506020020135836002016000868060800190612db59190615b4a565b86818110612dc557612dc5615023565b9050602002810190612dd791906157c6565b612de59060208101906149b2565b6001600160a01b031681526020810191909152604001600090812090612e0e6080880188615b4a565b86818110612e1e57612e1e615023565b9050602002810190612e3091906157c6565b612e3e906040810190615b4a565b85818110612e4e57612e4e615023565b6020908102929092013583525081019190915260400160002055600101612d05565b505b600101612c35565b7f48c02387a8e3f19678350d4a0d11f3f704fd6b94259fde7dd6097e79ffa93dcd90565b612ea661254d565b5460ff16612ec757604051630e985e9560e21b815260040160405180910390fd5b6000612ed161254d565b805460ff191691151591909117905550565b816001600160a01b03166352d1902d6040518163ffffffff1660e01b8152600401602060405180830381865afa925050508015612f3d575060408051601f3d908101601f19168201909252612f3a91810190615c25565b60015b612f5c5781604051634c9c8ce360e01b81526004016106c8919061580c565b600080516020615d418339815191528114612f8d57604051632a87526960e21b8152600481018290526024016106c8565b61298f8383613cf6565b306001600160a01b037f00000000000000000000000000000000000000000000000000000000000000001614611f605760405163703e46dd60e11b815260040160405180910390fd5b6060600080612ff260208501856149b2565b6001600160a01b0316602085013561300d6060870187615039565b60405161301b92919061507f565b60006040518083038185875af1925050503d8060008114613058576040519150601f19603f3d011682016040523d82523d6000602084013e61305d565b606091505b509150915081610a0d57805160000361311c57600084602001351180156130875750478460200135115b156130d45760405162461bcd60e51b815260206004820152601e60248201527f496e73756666696369656e742066756e647320746f207472616e73666572000060448201526064016106c8565b60405162461bcd60e51b815260206004820152601d60248201527f43616c6c20726576657274656420776974686f7574206d65737361676500000060448201526064016106c8565b805160208201fd5b600061312e612e7a565b6001600160a01b03831660009081526001820160205260408120549192500361316c5781604051633b92010160e21b81526004016106c8919061580c565b6001600160a01b0382166000908152602082815260408083206001808601909352908320549091839161319f91906150a5565b81526020810191909152604001600020555050565b6356fa634560e01b6001600160e01b031982160161333a576131e16131dc60208401846149b2565b613d4c565b6131ea57505050565b60006131f96060840184615039565b613207916004908290615c3e565b8101906132149190615c68565b915081905060028501600061322c60208701876149b2565b6001600160a01b03166001600160a01b0316815260200190815260200160002060008081526020019081526020016000205410156132da5761327160208401846149b2565b8160028601600061328560208801886149b2565b6001600160a01b039081168252602080830193909352604091820160009081208180529093529181902054905163fdfd218960e01b8152939091166004840152602483019190915260448201526064016106c8565b806002850160006132ee60208701876149b2565b6001600160a01b03166001600160a01b031681526020019081526020016000206000808152602001908152602001600020600082825461332e91906150a5565b9091555061298f915050565b63dc478d2360e01b6001600160e01b031982160161298f576133626131dc60208401846149b2565b61336b57505050565b600061337a6060840184615039565b613388916004908290615c3e565b8101906133959190615c94565b9250829150506002850160006133ae60208701876149b2565b6001600160a01b03166001600160a01b0316815260200190815260200160002060008081526020019081526020016000205410156133f35761327160208401846149b2565b8060028501600061340760208701876149b2565b6001600160a01b03166001600160a01b031681526020019081526020016000206000808152602001908152602001600020600082825461344791906150a5565b909155505050505050565b6306dede6b60e11b6001600160e01b03198216016135e25761348761347a60208401846149b2565b636cdb3d1360e11b613edd565b61349057505050565b6000806134a06060850185615039565b6134ae916004908290615c3e565b8101906134bb9190614f07565b509094509250829150506002860160006134d860208801886149b2565b6001600160a01b03166001600160a01b0316815260200190815260200160002060008481526020019081526020016000205410156135815761351d60208501856149b2565b828260028801600061353260208a018a6149b2565b6001600160a01b03166001600160a01b0316815260200190815260200160002060008681526020019081526020016000205460405163653a86dd60e11b81526004016106c894939291906157e6565b8060028601600061359560208801886149b2565b6001600160a01b03166001600160a01b03168152602001908152602001600020600084815260200190815260200160002060008282546135d591906150a5565b9091555061298f92505050565b6368a69e9560e11b6001600160e01b031982160161298f5761360a61347a60208401846149b2565b61361357505050565b6000806136236060850185615039565b613631916004908290615c3e565b81019061363e9190614db0565b5093509350505060005b8251811015611d365781818151811061366357613663615023565b602002602001015186600201600087600001602081019061368491906149b2565b6001600160a01b03166001600160a01b0316815260200190815260200160002060008584815181106136b8576136b8615023565b60200260200101518152602001908152602001600020541015613797576136e260208601866149b2565b8382815181106136f4576136f4615023565b602002602001015183838151811061370e5761370e615023565b602002602001015188600201600089600001602081019061372f91906149b2565b6001600160a01b03166001600160a01b03168152602001908152602001600020600087868151811061376357613763615023565b602002602001015181526020019081526020016000205460405163653a86dd60e11b81526004016106c894939291906157e6565b8181815181106137a9576137a9615023565b60200260200101518660020160008760000160208101906137ca91906149b2565b6001600160a01b03166001600160a01b0316815260200190815260200160002060008584815181106137fe576137fe615023565b60200260200101518152602001908152602001600020600082825461382391906150a5565b9091555050600101613648565b63dc478d2360e01b6001600160e01b031982160161399d5761386561385860208401846149b2565b6380ac58cd60e01b613edd565b61386e57505050565b60038301600061388160208501856149b2565b6001600160a01b0316815260208101919091526040016000205460ff16156138a857505050565b60006138b76060840184615039565b6138c5916004908290615c3e565b8101906138d29190615c94565b925050506002840160006138e960208601866149b2565b6001600160a01b03166001600160a01b0316815260200190815260200160002060008281526020019081526020016000205460000361395b5761392f60208401846149b2565b60405163c30d449f60e01b81526001600160a01b039091166004820152602481018290526044016106c8565b6000600285018161396f60208701876149b2565b6001600160a01b03168152602080820192909252604090810160009081209481529390915290912055505050565b635ebde8f960e11b6001600160e01b03198216016139c55761386561385860208401846149b2565b6323b9581160e11b6001600160e01b031982160161298f576139ed61385860208401846149b2565b6139f657505050565b600383016000613a0960208501856149b2565b6001600160a01b0316815260208101919091526040016000205460ff1615613a3057505050565b6000613a3f6060840184615039565b613a4d916004908290615c3e565b810190613a5a9190614669565b50925050506002840160006138e960208601866149b2565b80613a7b6122fc565b6001016000828254613a8d91906150b8565b90915550819050613a9c6122fc565b6001600160a01b03909316600090815260029390930160205260409092209190915550565b7ff0c57e16840df040f15088dc2f81fe391c3923bec73e23a9662efc9c229c6a0090565b613aed613f93565b613af8816001613a72565b6001613b026122fc565b5550565b6000613b10612692565b600084613b2060208601866149b2565b6020860135613b326060880188615039565b604051602001613b469594939291906151fc565b604051602081830303815290604052805190602001208152602001908152602001600020905092915050565b6000613b7c613ac1565b546001600160401b0316919050565b60006001600160e01b03198216630271189760e51b14806105e257506105e282613fb8565b7f19457468657265756d205369676e6564204d6573736167653a0a3332000000006000908152601c839052603c8120610a0d9083613fe3565b606081613bf781601f6150b8565b1015613c365760405162461bcd60e51b815260206004820152600e60248201526d736c6963655f6f766572666c6f7760901b60448201526064016106c8565b613c4082846150b8565b84511015613c845760405162461bcd60e51b8152602060048201526011602482015270736c6963655f6f75744f66426f756e647360781b60448201526064016106c8565b606082158015613ca35760405191506000825260208201604052613ced565b6040519150601f8416801560200281840101858101878315602002848b0101015b81831015613cdc578051835260209283019201613cc4565b5050858452601f01601f1916604052505b50949350505050565b613cff8261400d565b6040516001600160a01b038316907fbc7cd75a20ee27fd9adebab32041f755214dbc6bffa90cc0225b39da2e5c2d3b90600090a2805115613d445761298f8282614069565b610fae6140d6565b6000806000836001600160a01b031630604051602401613d6c919061580c565b60408051601f198184030181529181526020820180516001600160e01b03166370a0823160e01b17905251613da19190615cd5565b600060405180830381855afa9150503d8060008114613ddc576040519150601f19603f3d011682016040523d82523d6000602084013e613de1565b606091505b5091509150818015613df4575080516020145b92508215613ed65760408051600481526024810182526020810180516001600160e01b03166318160ddd60e01b17905290516001600160a01b03861691613e3a91615cd5565b600060405180830381855afa9150503d8060008114613e75576040519150601f19603f3d011682016040523d82523d6000602084013e613e7a565b606091505b509092509050818015613e8e575080516020145b92508215613ed657613ea7846380ac58cd60e01b613edd565b15613eb6575060009392505050565b613ec784636cdb3d1360e11b613edd565b15613ed6575060009392505050565b5050919050565b6000806000846001600160a01b031684604051602401613efd91906146d4565b60408051601f198184030181529181526020820180516001600160e01b03166301ffc9a760e01b17905251613f329190615cd5565b600060405180830381855afa9150503d8060008114613f6d576040519150601f19603f3d011682016040523d82523d6000602084013e613f72565b606091505b50915091508180156116d55750808060200190518101906116d59190615ce7565b613f9b6140f5565b611f6057604051631afcd79f60e31b815260040160405180910390fd5b600063a56a8ce960e01b6001600160e01b0319831601613fda57506001919050565b6105e28261410f565b600080600080613ff3868661413a565b9250925092506140038282614187565b5090949350505050565b806001600160a01b03163b60000361403a5780604051634c9c8ce360e01b81526004016106c8919061580c565b600080516020615d4183398151915280546001600160a01b0319166001600160a01b0392909216919091179055565b6060600080846001600160a01b0316846040516140869190615cd5565b600060405180830381855af49150503d80600081146140c1576040519150601f19603f3d011682016040523d82523d6000602084013e6140c6565b606091505b50915091506116d5858383614240565b3415611f605760405163b398979f60e01b815260040160405180910390fd5b60006140ff613ac1565b54600160401b900460ff16919050565b60006365e90f7160e01b6001600160e01b031983160161413157506001919050565b6105e282614293565b600080600083516041036141745760208401516040850151606086015160001a614166888285856142be565b955095509550505050614180565b50508151600091506002905b9250925092565b600082600381111561419b5761419b615d04565b036141a4575050565b60018260038111156141b8576141b8615d04565b036141d65760405163f645eedf60e01b815260040160405180910390fd5b60028260038111156141ea576141ea615d04565b0361420b5760405163fce698f760e01b8152600481018290526024016106c8565b600382600381111561421f5761421f615d04565b03610fae576040516335e2f38360e21b8152600481018290526024016106c8565b6060826142555761425082614383565b610a0d565b815115801561426c57506001600160a01b0384163b155b1561428c5783604051639996b31560e01b81526004016106c8919061580c565b5080610a0d565b6000630474ef2b60e11b6001600160e01b03198316016142b557506001919050565b6105e2826143ac565b600080806fa2a8918ca85bafe22016d0b997e4df60600160ff1b038411156142ef5750600091506003905082614379565b604080516000808252602082018084528a905260ff891692820192909252606081018790526080810186905260019060a0016020604051602081039080840390855afa158015614343573d6000803e3d6000fd5b5050604051601f1901519150506001600160a01b03811661436f57506000925060019150829050614379565b9250600091508190505b9450945094915050565b8051156143935780518082602001fd5b604051630a12f52160e11b815260040160405180910390fd5b6000638c0d754360e01b6001600160e01b03198316016143ce57506001919050565b6301ffc9a760e01b6001600160e01b03198316146105e2565b80356001600160e01b0319811681146143ff57600080fd5b919050565b60006020828403121561441657600080fd5b610a0d826143e7565b6001600160a01b03811681146127bd57600080fd5b60008083601f84011261444657600080fd5b5081356001600160401b0381111561445d57600080fd5b6020830191508360208260051b85010111156124a157600080fd5b60008060008060008060a0878903121561449157600080fd5b863561449c8161441f565b9550602087013594506040870135935060608701356001600160401b038111156144c557600080fd5b6144d189828a01614434565b979a9699509497949695608090950135949350505050565b60008083601f8401126144fb57600080fd5b5081356001600160401b0381111561451257600080fd5b6020830191508360208285010111156124a157600080fd5b6000806000806000806080878903121561454357600080fd5b863561454e8161441f565b955060208701356001600160401b038082111561456a57600080fd5b6145768a838b016144e9565b9097509550604089013591508082111561458f57600080fd5b5061459c89828a01614434565b979a9699509497949695606090950135949350505050565b634e487b7160e01b600052604160045260246000fd5b604051601f8201601f191681016001600160401b03811182821017156145f2576145f26145b4565b604052919050565b600082601f83011261460b57600080fd5b81356001600160401b03811115614624576146246145b4565b614637601f8201601f19166020016145ca565b81815284602083860101111561464c57600080fd5b816020850160208301376000918101602001919091529392505050565b6000806000806080858703121561467f57600080fd5b843561468a8161441f565b9350602085013561469a8161441f565b92506040850135915060608501356001600160401b038111156146bc57600080fd5b6146c8878288016145fa565b91505092959194509250565b6001600160e01b031991909116815260200190565b6000806000604084860312156146fe57600080fd5b8335925060208401356001600160401b0381111561471b57600080fd5b614727868287016144e9565b9497909650939450505050565b60006080828403121561474657600080fd5b50919050565b60008060008060006080868803121561476457600080fd5b85356001600160401b038082111561477b57600080fd5b61478789838a01614734565b96506020880135955060408801359150808211156147a457600080fd5b506147b188828901614434565b96999598509660600135949350505050565b600080600080604085870312156147d957600080fd5b84356001600160401b03808211156147f057600080fd5b6147fc888389016144e9565b9096509450602087013591508082111561481557600080fd5b50614822878288016144e9565b95989497509550505050565b600080600080600080600060a0888a03121561484957600080fd5b87356001600160401b038082111561486057600080fd5b61486c8b838c01614434565b909950975060208a0135965060408a0135955060608a013591508082111561489357600080fd5b506148a08a828b01614434565b989b979a50959894979596608090950135949350505050565b600060a0828403121561474657600080fd5b600080600080600080600060c0888a0312156148e657600080fd5b87356148f18161441f565b965060208801356001600160401b038082111561490d57600080fd5b6149198b838c016148b9565b975060408a0135965060608a0135955060808a013591508082111561493d57600080fd5b5061494a8a828b01614434565b989b979a5095989497959660a090950135949350505050565b6000806040838503121561497657600080fd5b82356149818161441f565b915060208301356001600160401b0381111561499c57600080fd5b6149a8858286016145fa565b9150509250929050565b6000602082840312156149c457600080fd5b8135610a0d8161441f565b6000806000806000608086880312156149e757600080fd5b853594506020860135935060408601356001600160401b03811115614a0b57600080fd5b6147b188828901614434565b600080600080600060608688031215614a2f57600080fd5b85356001600160401b0380821115614a4657600080fd5b614a5289838a01614434565b90975095506020880135915080821115614a6b57600080fd5b50614a7888828901614434565b96999598509660400135949350505050565b60005b83811015614aa5578181015183820152602001614a8d565b50506000910152565b60008151808452614ac6816020860160208601614a8a565b601f01601f19169290920160200192915050565b600060208083016020845280855180835260408601915060408160051b87010192506020870160005b82811015614b3157603f19888603018452614b1f858351614aae565b94509285019290850190600101614b03565b5092979650505050505050565b600080600080600060808688031215614b5657600080fd5b8535614b618161441f565b94506020860135935060408601356001600160401b03811115614a0b57600080fd5b600060208284031215614b9557600080fd5b81356001600160401b03811115614bab57600080fd5b6109e184828501614734565b602081526000610a0d6020830184614aae565b60008060008060008060a08789031215614be357600080fd5b8635614bee8161441f565b95506020870135614bfe8161441f565b94506040870135935060608701356001600160401b038111156144c557600080fd5b6000806000806000806101208789031215614c3a57600080fd5b86356001600160401b0380821115614c5157600080fd5b614c5d8a838b01614734565b9750614c6c8a60208b016148b9565b965060c0890135955060e0890135915080821115614c8957600080fd5b50614c9689828a01614434565b979a969950949794969561010090950135949350505050565b60008060008060608587031215614cc557600080fd5b84356001600160401b0380821115614cdc57600080fd5b614ce888838901614734565b95506020870135915080821115614cfe57600080fd5b50614d0b87828801614434565b9598909750949560400135949350505050565b60006001600160401b03821115614d3757614d376145b4565b5060051b60200190565b600082601f830112614d5257600080fd5b81356020614d67614d6283614d1e565b6145ca565b8083825260208201915060208460051b870101935086841115614d8957600080fd5b602086015b84811015614da55780358352918301918301614d8e565b509695505050505050565b600080600080600060a08688031215614dc857600080fd5b8535614dd38161441f565b94506020860135614de38161441f565b935060408601356001600160401b0380821115614dff57600080fd5b614e0b89838a01614d41565b94506060880135915080821115614e2157600080fd5b614e2d89838a01614d41565b93506080880135915080821115614e4357600080fd5b50614e50888289016145fa565b9150509295509295909350565b60008060008060008060008060a0898b031215614e7957600080fd5b88356001600160401b0380821115614e9057600080fd5b614e9c8c838d01614434565b909a50985060208b0135915080821115614eb557600080fd5b614ec18c838d01614434565b909850965060408b0135955060608b0135915080821115614ee157600080fd5b50614eee8b828c01614434565b999c989b50969995989497949560800135949350505050565b600080600080600060a08688031215614f1f57600080fd5b8535614f2a8161441f565b94506020860135614f3a8161441f565b9350604086013592506060860135915060808601356001600160401b03811115614f6357600080fd5b614e50888289016145fa565b60008060208385031215614f8257600080fd5b82356001600160401b03811115614f9857600080fd5b614fa485828601614434565b90969095509350505050565b6000614fbe614d6284614d1e565b80848252602080830192508560051b850136811115614fdc57600080fd5b855b818110156150175780356001600160401b03811115614ffd5760008081fd5b61500936828a016145fa565b865250938201938201614fde565b50919695505050505050565b634e487b7160e01b600052603260045260246000fd5b6000808335601e1984360301811261505057600080fd5b8301803591506001600160401b0382111561506a57600080fd5b6020019150368190038213156124a157600080fd5b8183823760009101908152919050565b634e487b7160e01b600052601160045260246000fd5b818103818111156105e2576105e261508f565b808201808211156105e2576105e261508f565b81835281816020850137506000828201602090810191909152601f909101601f19169091010190565b6001600160a01b038616815260806020820181905260009061511990830186886150cb565b604083019490945250606001529392505050565b6000808335601e1984360301811261514457600080fd5b83016020810192503590506001600160401b0381111561516357600080fd5b8036038213156124a157600080fd5b6000813561517f8161441f565b6001600160a01b03908116845260208301359061519b8261441f565b166020840152604082810135908401526151b8606083018361512d565b608060608601526116d56080860182846150cb565b6080815260006151e06080830187615172565b6020830195909552506040810192909252606090910152919050565b6001600160a01b038681168252851660208201526040810184905260806060820181905260009061523090830184866150cb565b979650505050505050565b8183526000602080850194508260005b8581101561527957813561525e8161441f565b6001600160a01b03168752958201959082019060010161524b565b509495945050505050565b60a08152600061529860a08301888a61523b565b9050856020830152846040830152836060830152826080830152979650505050505050565b6000808335601e198436030181126152d457600080fd5b83016020810192503590506001600160401b038111156152f357600080fd5b8060051b36038213156124a157600080fd5b6000808335601e1984360301811261531c57600080fd5b83016020810192503590506001600160401b0381111561533b57600080fd5b8060061b36038213156124a157600080fd5b8183526000602080850194508260005b858110156152795781356153708161441f565b6001600160a01b0316875281830135838801526040968701969091019060010161535d565b80151581146127bd57600080fd5b81835260006001600160fb1b038311156153bc57600080fd5b8260051b80836020870137939093016020019392505050565b60008383855260208086019550808560051b830101846000805b8881101561547957858403601f19018a52823536899003605e19018112615414578283fd5b8801606081356154238161441f565b6001600160a01b031686528187013561543b81615395565b151586880152604061544f838201846152bd565b9350828289015261546383890185836153a3565b9d89019d975050509386019350506001016153ef565b509198975050505050505050565b60008235607e1983360301811261549d57600080fd5b90910192915050565b60008383855260208086019550808560051b8301018460005b8781101561556257848303601f190189526154da8288615487565b608081356154e78161441f565b6001600160a01b03168552818601356154ff81615395565b1515858701526040615513838201846152bd565b838389015261552584890182846153a3565b93505050506060615538818401846152bd565b93508683038288015261554c8385836153a3565b9c88019c965050509285019250506001016154bf565b5090979650505050505050565b600060018060a01b038089168352602060c0818501526101608401893560c086015261559d828b018b6152bd565b60a060e088015291829052610180600583901b87018101929087018260005b8381101561565e5789860361017f19018352813536869003603e190181126155e357600080fd5b8501604087810182356155f58161441f565b8b168952615605838b01846152bd565b8a8c019390935290829052909150606088019060005b83811015615648576001600160e01b0319615635836143e7565b168352918a0191908a019060010161561b565b50909750505091860191908601906001016155bc565b505050505061567060408b018b615305565b9350915060bf19808683030161010087015261568d82858561534d565b935061569c60608c018c6152bd565b9350915080868503016101208701526156b68484846153d5565b93506156c560808c018c6152bd565b935091508086850301610140870152506156e08383836154a6565b93505050508560408301528460608301528360808301528260a0830152979650505050505050565b60006001820161571a5761571a61508f565b5060010190565b6000813561572e8161441f565b6001600160a01b0316835260208281013590840152604080830135908401526151b8606083018361512d565b6060808252810184905260006080600586901b8301810190830187835b888110156157b057858403607f1901835261579b84615796848d615487565b615721565b93506020928301929190910190600101615777565b5050506020830194909452506040015292915050565b60008235607e198336030181126157dc57600080fd5b9190910192915050565b6001600160a01b0394909416845260208401929092526040830152606082015260800190565b6001600160a01b0391909116815260200190565b6001600160e01b031981358181169160048510156158485780818660040360031b1b83161692505b505092915050565b6001600160401b03811681146127bd57600080fd5b63ffffffff811681146127bd57600080fd5b600061012080835261588b81840189615172565b915050853561589981615850565b6001600160401b038082166020850152602088013591506158b982615850565b166040838101919091528601356158cf81615865565b63ffffffff8082166060850152606088013591506158ec82615865565b80821660808501526080880135915061590482615865565b1660a083015260c082019490945260e08101929092526101009091015292915050565b60006020828403121561593957600080fd5b8135610a0d81615865565b600081356105e281615865565b813561595c81615850565b6001600160401b03811690508154816001600160401b03198216178355602084013561598781615850565b67ffffffffffffffff60401b604091821b166001600160801b03198316841781178555908501356159b781615865565b6001600160a01b03199290921690921782811760809290921b63ffffffff60801b169182178455916060850135916159ee83615865565b63ffffffff60a01b1993909316179190911760a09190911b63ffffffff60a01b16178155610fae615a2160808401615944565b82805463ffffffff60c01b191660c09290921b63ffffffff60c01b16919091179055565b606081526000615a586060830186615721565b60208301949094525060400152919050565b60a081526000615a7e60a08301898b61523b565b8281036020840152615a9181888a6153a3565b604084019690965250506060810192909252608090910152949350505050565b6001600160401b03818116838216019080821115615ad157615ad161508f565b5092915050565b63ffffffff818116838216019080821115615ad157615ad161508f565b634e487b7160e01b600052601260045260246000fd5b600082615b1a57615b1a615af5565b500690565b600082615b2e57615b2e615af5565b500490565b80820281158282048414176105e2576105e261508f565b6000808335601e19843603018112615b6157600080fd5b8301803591506001600160401b03821115615b7b57600080fd5b6020019150600581901b36038213156124a157600080fd5b60008235603e198336030181126157dc57600080fd5b6000808335601e19843603018112615bc057600080fd5b8301803591506001600160401b03821115615bda57600080fd5b6020019150600681901b36038213156124a157600080fd5b60008235605e198336030181126157dc57600080fd5b600060208284031215615c1a57600080fd5b8135610a0d81615395565b600060208284031215615c3757600080fd5b5051919050565b60008085851115615c4e57600080fd5b83861115615c5b57600080fd5b5050820193919092039150565b60008060408385031215615c7b57600080fd5b8235615c868161441f565b946020939093013593505050565b600080600060608486031215615ca957600080fd5b8335615cb48161441f565b92506020840135615cc48161441f565b929592945050506040919091013590565b600082516157dc818460208701614a8a565b600060208284031215615cf957600080fd5b8151610a0d81615395565b634e487b7160e01b600052602160045260246000fdfe5369676e6572207765696768747320646f6573206e6f74206d656574207468726573686f6c64360894a13ba1a3210667c828492db98dca3e2076cc3735a920a3ca505d382bbc4174206c65617374206f6e65207369676e6174757265206e6f742066726f6d2061206b6e6f776e20636f6e74726f6c6c65724174206c65617374206f6e65207369676e617475726520616c72656164792075736564a26469706673582212203b032069bfe69f5c3c4b11eb369f8ac0512304d3570dcca03b0175894f2fdb6d64736f6c63430008170033",
  "linkReferences": {},
  "deployedLinkReferences": {}
}