{
  "_format": "hh-sol-artifact-1",
  "contractName": "Main",
  "sourceName": "contracts/modules/Main/Main.sol",
  "abi": [
    {
      "inputs": [
        {
          "internalType": "address[]",
          "name": "_controllers",
          "type": "address[]"
        },
        {
          "internalType": "uint256[]",
          "name": "_weights",
          "type": "uint256[]"
        },
        {
          "internalType": "uint256",
          "name": "_nonce",
          "type": "uint256"
        },
        {
          "internalType": "bytes[]",
          "name": "_signatures",
          "type": "bytes[]"
        }
      ],
      "name": "addControllers",
      "outputs": [],
      "stateMutability": "nonpayable",
      "type": "function"
    },
    {
      "inputs": [
        {
          "components": [
            {
              "internalType": "address",
              "name": "target",
              "type": "address"
            },
            {
              "internalType": "uint256",
              "name": "value",
              "type": "uint256"
            },
            {
              "internalType": "uint256",
              "name": "nonce",
              "type": "uint256"
            },
            {
              "internalType": "bytes",
              "name": "data",
              "type": "bytes"
            }
          ],
          "internalType": "struct CallsStructs.CallRequest",
          "name": "_callRequest",
          "type": "tuple"
        },
        {
          "internalType": "bytes[]",
          "name": "_signatures",
          "type": "bytes[]"
        }
      ],
      "name": "call",
      "outputs": [
        {
          "internalType": "bytes",
          "name": "",
          "type": "bytes"
        }
      ],
      "stateMutability": "nonpayable",
      "type": "function"
    },
    {
      "inputs": [],
      "name": "controlThreshold",
      "outputs": [
        {
          "internalType": "uint256",
          "name": "",
          "type": "uint256"
        }
      ],
      "stateMutability": "view",
      "type": "function"
    },
    {
      "inputs": [
        {
          "internalType": "address",
          "name": "_controller",
          "type": "address"
        }
      ],
      "name": "controllerWeight",
      "outputs": [
        {
          "internalType": "uint256",
          "name": "",
          "type": "uint256"
        }
      ],
      "stateMutability": "view",
      "type": "function"
    },
    {
      "inputs": [],
      "name": "controllersTotalWeight",
      "outputs": [
        {
          "internalType": "uint256",
          "name": "",
          "type": "uint256"
        }
      ],
      "stateMutability": "view",
      "type": "function"
    },
    {
      "inputs": [
        {
          "internalType": "address",
          "name": "_controller",
          "type": "address"
        }
      ],
      "name": "initialize",
      "outputs": [],
      "stateMutability": "nonpayable",
      "type": "function"
    },
    {
      "inputs": [
        {
          "internalType": "bytes32",
          "name": "_hash",
          "type": "bytes32"
        },
        {
          "internalType": "bytes",
          "name": "_signature",
          "type": "bytes"
        }
      ],
      "name": "isValidSignature",
      "outputs": [
        {
          "internalType": "bytes4",
          "name": "magicValue",
          "type": "bytes4"
        }
      ],
      "stateMutability": "view",
      "type": "function"
    },
    {
      "inputs": [
        {
          "internalType": "bytes",
          "name": "_data",
          "type": "bytes"
        },
        {
          "internalType": "bytes",
          "name": "_signature",
          "type": "bytes"
        }
      ],
      "name": "isValidSignature",
      "outputs": [
        {
          "internalType": "bytes4",
          "name": "magicValue",
          "type": "bytes4"
        }
      ],
      "stateMutability": "view",
      "type": "function"
    },
    {
      "inputs": [
        {
          "components": [
            {
              "internalType": "address",
              "name": "target",
              "type": "address"
            },
            {
              "internalType": "uint256",
              "name": "value",
              "type": "uint256"
            },
            {
              "internalType": "uint256",
              "name": "nonce",
              "type": "uint256"
            },
            {
              "internalType": "bytes",
              "name": "data",
              "type": "bytes"
            }
          ],
          "internalType": "struct CallsStructs.CallRequest[]",
          "name": "_callRequests",
          "type": "tuple[]"
        },
        {
          "internalType": "bytes[]",
          "name": "_signatures",
          "type": "bytes[]"
        }
      ],
      "name": "multiCall",
      "outputs": [
        {
          "internalType": "bytes[]",
          "name": "",
          "type": "bytes[]"
        }
      ],
      "stateMutability": "nonpayable",
      "type": "function"
    },
    {
      "inputs": [
        {
          "internalType": "address",
          "name": "",
          "type": "address"
        },
        {
          "internalType": "address",
          "name": "",
          "type": "address"
        },
        {
          "internalType": "uint256[]",
          "name": "",
          "type": "uint256[]"
        },
        {
          "internalType": "uint256[]",
          "name": "",
          "type": "uint256[]"
        },
        {
          "internalType": "bytes",
          "name": "",
          "type": "bytes"
        }
      ],
      "name": "onERC1155BatchReceived",
      "outputs": [
        {
          "internalType": "bytes4",
          "name": "",
          "type": "bytes4"
        }
      ],
      "stateMutability": "pure",
      "type": "function"
    },
    {
      "inputs": [
        {
          "internalType": "address",
          "name": "",
          "type": "address"
        },
        {
          "internalType": "address",
          "name": "",
          "type": "address"
        },
        {
          "internalType": "uint256",
          "name": "",
          "type": "uint256"
        },
        {
          "internalType": "uint256",
          "name": "",
          "type": "uint256"
        },
        {
          "internalType": "bytes",
          "name": "",
          "type": "bytes"
        }
      ],
      "name": "onERC1155Received",
      "outputs": [
        {
          "internalType": "bytes4",
          "name": "",
          "type": "bytes4"
        }
      ],
      "stateMutability": "pure",
      "type": "function"
    },
    {
      "inputs": [
        {
          "internalType": "address",
          "name": "",
          "type": "address"
        },
        {
          "internalType": "address",
          "name": "",
          "type": "address"
        },
        {
          "internalType": "uint256",
          "name": "",
          "type": "uint256"
        },
        {
          "internalType": "bytes",
          "name": "",
          "type": "bytes"
        }
      ],
      "name": "onERC721Received",
      "outputs": [
        {
          "internalType": "bytes4",
          "name": "",
          "type": "bytes4"
        }
      ],
      "stateMutability": "pure",
      "type": "function"
    },
    {
      "inputs": [
        {
          "components": [
            {
              "internalType": "address",
              "name": "caller",
              "type": "address"
            },
            {
              "internalType": "address",
              "name": "target",
              "type": "address"
            },
            {
              "internalType": "uint256",
              "name": "value",
              "type": "uint256"
            },
            {
              "internalType": "bytes",
              "name": "data",
              "type": "bytes"
            }
          ],
          "internalType": "struct PreauthorizedCallsStructs.CallRequestPreauthorized",
          "name": "_callRequestPreauthorized",
          "type": "tuple"
        },
        {
          "components": [
            {
              "internalType": "uint64",
              "name": "unlockTimestamp",
              "type": "uint64"
            },
            {
              "internalType": "uint64",
              "name": "lastCallTimestamp",
              "type": "uint64"
            },
            {
              "internalType": "uint32",
              "name": "minCallInterval",
              "type": "uint32"
            },
            {
              "internalType": "uint32",
              "name": "callCount",
              "type": "uint32"
            },
            {
              "internalType": "uint32",
              "name": "maxCalls",
              "type": "uint32"
            }
          ],
          "internalType": "struct PreauthorizedCallsStructs.CallRequestPreauthorization",
          "name": "_callRequestPreauthorization",
          "type": "tuple"
        },
        {
          "internalType": "uint256",
          "name": "_nonce",
          "type": "uint256"
        },
        {
          "internalType": "bytes[]",
          "name": "_signatures",
          "type": "bytes[]"
        }
      ],
      "name": "preauthorizeCall",
      "outputs": [],
      "stateMutability": "nonpayable",
      "type": "function"
    },
    {
      "inputs": [
        {
          "components": [
            {
              "internalType": "address",
              "name": "target",
              "type": "address"
            },
            {
              "internalType": "uint256",
              "name": "value",
              "type": "uint256"
            },
            {
              "internalType": "uint256",
              "name": "nonce",
              "type": "uint256"
            },
            {
              "internalType": "bytes",
              "name": "data",
              "type": "bytes"
            }
          ],
          "internalType": "struct CallsStructs.CallRequest",
          "name": "_callRequest",
          "type": "tuple"
        }
      ],
      "name": "preauthorizedCall",
      "outputs": [
        {
          "internalType": "bytes",
          "name": "",
          "type": "bytes"
        }
      ],
      "stateMutability": "nonpayable",
      "type": "function"
    },
    {
      "inputs": [
        {
          "components": [
            {
              "internalType": "address",
              "name": "target",
              "type": "address"
            },
            {
              "internalType": "uint256",
              "name": "value",
              "type": "uint256"
            },
            {
              "internalType": "uint256",
              "name": "nonce",
              "type": "uint256"
            },
            {
              "internalType": "bytes",
              "name": "data",
              "type": "bytes"
            }
          ],
          "internalType": "struct CallsStructs.CallRequest[]",
          "name": "_callRequests",
          "type": "tuple[]"
        }
      ],
      "name": "preauthorizedMultiCall",
      "outputs": [
        {
          "internalType": "bytes[]",
          "name": "",
          "type": "bytes[]"
        }
      ],
      "stateMutability": "nonpayable",
      "type": "function"
    },
    {
      "inputs": [
        {
          "internalType": "address[]",
          "name": "_controllers",
          "type": "address[]"
        },
        {
          "internalType": "uint256",
          "name": "_nonce",
          "type": "uint256"
        },
        {
          "internalType": "bytes[]",
          "name": "_signatures",
          "type": "bytes[]"
        }
      ],
      "name": "removeControllers",
      "outputs": [],
      "stateMutability": "nonpayable",
      "type": "function"
    },
    {
      "inputs": [
        {
          "internalType": "bytes4",
          "name": "_interfaceID",
          "type": "bytes4"
        }
      ],
      "name": "supportsInterface",
      "outputs": [
        {
          "internalType": "bool",
          "name": "",
          "type": "bool"
        }
      ],
      "stateMutability": "view",
      "type": "function"
    },
    {
      "inputs": [],
      "name": "supportsUpgrades",
      "outputs": [
        {
          "internalType": "bool",
          "name": "",
          "type": "bool"
        }
      ],
      "stateMutability": "pure",
      "type": "function"
    },
    {
      "inputs": [
        {
          "components": [
            {
              "internalType": "address",
              "name": "caller",
              "type": "address"
            },
            {
              "internalType": "address",
              "name": "target",
              "type": "address"
            },
            {
              "internalType": "uint256",
              "name": "value",
              "type": "uint256"
            },
            {
              "internalType": "bytes",
              "name": "data",
              "type": "bytes"
            }
          ],
          "internalType": "struct PreauthorizedCallsStructs.CallRequestPreauthorized",
          "name": "_callRequestPreauthorized",
          "type": "tuple"
        },
        {
          "internalType": "uint256",
          "name": "_nonce",
          "type": "uint256"
        },
        {
          "internalType": "bytes[]",
          "name": "_signatures",
          "type": "bytes[]"
        }
      ],
      "name": "unauthorizeCall",
      "outputs": [],
      "stateMutability": "nonpayable",
      "type": "function"
    },
    {
      "inputs": [
        {
          "internalType": "uint256",
          "name": "_threshold",
          "type": "uint256"
        },
        {
          "internalType": "uint256",
          "name": "_nonce",
          "type": "uint256"
        },
        {
          "internalType": "bytes[]",
          "name": "_signatures",
          "type": "bytes[]"
        }
      ],
      "name": "updateControlThreshold",
      "outputs": [],
      "stateMutability": "nonpayable",
      "type": "function"
    },
    {
      "inputs": [
        {
          "internalType": "address",
          "name": "_controller",
          "type": "address"
        },
        {
          "internalType": "uint256",
          "name": "_weight",
          "type": "uint256"
        },
        {
          "internalType": "uint256",
          "name": "_nonce",
          "type": "uint256"
        },
        {
          "internalType": "bytes[]",
          "name": "_signatures",
          "type": "bytes[]"
        }
      ],
      "name": "updateControllerWeight",
      "outputs": [],
      "stateMutability": "nonpayable",
      "type": "function"
    },
    {
      "inputs": [
        {
          "internalType": "address",
          "name": "_implementation",
          "type": "address"
        },
        {
          "internalType": "uint256",
          "name": "_nonce",
          "type": "uint256"
        },
        {
          "internalType": "bytes[]",
          "name": "_signatures",
          "type": "bytes[]"
        }
      ],
      "name": "upgrade",
      "outputs": [],
      "stateMutability": "nonpayable",
      "type": "function"
    },
    {
      "inputs": [],
      "name": "version",
      "outputs": [
        {
          "internalType": "string",
          "name": "",
          "type": "string"
        }
      ],
      "stateMutability": "view",
      "type": "function"
    },
    {
      "stateMutability": "payable",
      "type": "receive"
    }
  ],
  "bytecode": "0x608060405234801561001057600080fd5b506140ab806100206000396000f3fe6080604052600436106101845760003560e01c8063a7865090116100d6578063d1e3aaa81161007f578063f7501dc311610059578063f7501dc314610582578063f8e87641146105a2578063fec5c09a146105c257600080fd5b8063d1e3aaa8146104ad578063f04420f1146104da578063f23a6e611461053c57600080fd5b8063c4d66de8116100b0578063c4d66de81461044d578063c8479cae1461046d578063d0bccea11461048d57600080fd5b8063a7865090146103b1578063af915498146103e5578063bc197c811461040557600080fd5b806320c13b0b1161013857806370b6e4c91161011257806370b6e4c91461035157806387f949b41461037157806394c4395b1461039157600080fd5b806320c13b0b146102bb578063286936bb146102db57806354fd4d50146102fb57600080fd5b80630cdb1b0a116101695780630cdb1b0a14610203578063150b7a02146102255780631626ba7e1461029b57600080fd5b806301ffc9a71461019057806306e82383146101c557600080fd5b3661018b57005b600080fd5b34801561019c57600080fd5b506101b06101ab366004612d63565b6105d6565b60405190151581526020015b60405180910390f35b3480156101d157600080fd5b507f255f4a56bd3ad76424e31ed8855ef9ad14a0ce4e67508c76ff082e5c1466b130545b6040519081526020016101bc565b34801561020f57600080fd5b5061022361021e366004612e02565b6105e7565b005b34801561023157600080fd5b5061026a610240366004612edd565b7f150b7a020000000000000000000000000000000000000000000000000000000095945050505050565b6040517fffffffff0000000000000000000000000000000000000000000000000000000090911681526020016101bc565b3480156102a757600080fd5b5061026a6102b6366004612f4c565b610827565b3480156102c757600080fd5b5061026a6102d6366004612f98565b61086b565b3480156102e757600080fd5b506102236102f6366004612ff8565b6108c7565b34801561030757600080fd5b506103446040518060400160405280600b81526020017f616c7068612d312e302e3000000000000000000000000000000000000000000081525081565b6040516101bc91906130c5565b34801561035d57600080fd5b5061034461036c3660046130d8565b610a7a565b34801561037d57600080fd5b5061022361038c366004613134565b610be8565b34801561039d57600080fd5b506102236103ac36600461317b565b610e4c565b3480156103bd57600080fd5b507f255f4a56bd3ad76424e31ed8855ef9ad14a0ce4e67508c76ff082e5c1466b12f546101f5565b3480156103f157600080fd5b506102236104003660046131bd565b6110a1565b34801561041157600080fd5b5061026a610420366004613261565b7fbc197c810000000000000000000000000000000000000000000000000000000098975050505050505050565b34801561045957600080fd5b5061022361046836600461331c565b611273565b34801561047957600080fd5b50610223610488366004613337565b611357565b34801561049957600080fd5b506102236104a83660046133d6565b611601565b3480156104b957600080fd5b506104cd6104c836600461342d565b611924565b6040516101bc9190613480565b3480156104e657600080fd5b506101f56104f536600461331c565b73ffffffffffffffffffffffffffffffffffffffff1660009081527f255f4a56bd3ad76424e31ed8855ef9ad14a0ce4e67508c76ff082e5c1466b131602052604090205490565b34801561054857600080fd5b5061026a610557366004613500565b7ff23a6e61000000000000000000000000000000000000000000000000000000009695505050505050565b34801561058e57600080fd5b506104cd61059d366004613578565b611b45565b3480156105ae57600080fd5b506103446105bd3660046135ba565b611c02565b3480156105ce57600080fd5b5060016101b0565b60006105e182611f92565b92915050565b8383466040516020016105fc93929190613709565b604080517fffffffffffffffffffffffffffffffffffffffffffffffffffffffffffffffe08184030181529190528051602090910120828260008061064a8561064585876137ac565b611fee565b91509150818190610691576040517f08c379a000000000000000000000000000000000000000000000000000000000815260040161068891906130c5565b60405180910390fd5b5060005b8381101561074c5760017f255f4a56bd3ad76424e31ed8855ef9ad14a0ce4e67508c76ff082e5c1466b13260008787858181106106d4576106d4613893565b90506020028101906106e691906138c2565b6040516106f4929190613927565b6040805191829003909120825260208201929092520160002080547fffffffffffffffffffffffffffffffffffffffffffffffffffffffffffffff00169115159190911790558061074481613966565b915050610695565b507f8b8c16fdb86566569823d1c7c7621975485948685c113470681dca36483b6235600061077d60208c018c61331c565b61078d60408d0160208e0161331c565b60408d013561079f60608f018f6138c2565b6040516020016107b395949392919061399e565b604080517fffffffffffffffffffffffffffffffffffffffffffffffffffffffffffffffe081840301815291815281516020928301208352908201929092520160002080547fffffffff00000000000000000000000000000000000000000000000000000000169055505050505050505050565b60006108348484846121f9565b1561086057507f1626ba7e00000000000000000000000000000000000000000000000000000000610864565b5060005b9392505050565b600061088f8585604051610880929190613927565b604051809103902084846121f9565b156108bb57507f20c13b0b000000000000000000000000000000000000000000000000000000006108bf565b5060005b949350505050565b848484466040516020016108de9493929190613a3d565b604080517fffffffffffffffffffffffffffffffffffffffffffffffffffffffffffffffe0818403018152919052805160209091012082826000806109278561064585876137ac565b91509150818190610965576040517f08c379a000000000000000000000000000000000000000000000000000000000815260040161068891906130c5565b5060005b83811015610a205760017f255f4a56bd3ad76424e31ed8855ef9ad14a0ce4e67508c76ff082e5c1466b13260008787858181106109a8576109a8613893565b90506020028101906109ba91906138c2565b6040516109c8929190613927565b6040805191829003909120825260208201929092520160002080547fffffffffffffffffffffffffffffffffffffffffffffffffffffffffffffff001691151591909117905580610a1881613966565b915050610969565b5060005b89811015610a6d57610a5b8b8b83818110610a4157610a41613893565b9050602002016020810190610a56919061331c565b612395565b80610a6581613966565b915050610a24565b5050505050505050505050565b60608346604051602001610a8f929190613aa8565b604080517fffffffffffffffffffffffffffffffffffffffffffffffffffffffffffffffe081840301815291905280516020909101208383600080610ad88561064585876137ac565b91509150818190610b16576040517f08c379a000000000000000000000000000000000000000000000000000000000815260040161068891906130c5565b5060005b83811015610bd15760017f255f4a56bd3ad76424e31ed8855ef9ad14a0ce4e67508c76ff082e5c1466b1326000878785818110610b5957610b59613893565b9050602002810190610b6b91906138c2565b604051610b79929190613927565b6040805191829003909120825260208201929092520160002080547fffffffffffffffffffffffffffffffffffffffffffffffffffffffffffffff001691151591909117905580610bc981613966565b915050610b1a565b50610bdb8961252f565b9998505050505050505050565b6040805160208101869052908101849052466060820152608001604080517fffffffffffffffffffffffffffffffffffffffffffffffffffffffffffffffe081840301815291905280516020909101208282600080610c4b8561064585876137ac565b91509150818190610c89576040517f08c379a000000000000000000000000000000000000000000000000000000000815260040161068891906130c5565b5060005b83811015610d445760017f255f4a56bd3ad76424e31ed8855ef9ad14a0ce4e67508c76ff082e5c1466b1326000878785818110610ccc57610ccc613893565b9050602002810190610cde91906138c2565b604051610cec929190613927565b6040805191829003909120825260208201929092520160002080547fffffffffffffffffffffffffffffffffffffffffffffffffffffffffffffff001691151591909117905580610d3c81613966565b915050610c8d565b5060007f255f4a56bd3ad76424e31ed8855ef9ad14a0ce4e67508c76ff082e5c1466b12f54118015610db857507f255f4a56bd3ad76424e31ed8855ef9ad14a0ce4e67508c76ff082e5c1466b130547f255f4a56bd3ad76424e31ed8855ef9ad14a0ce4e67508c76ff082e5c1466b12f5411155b610e1e576040517f08c379a000000000000000000000000000000000000000000000000000000000815260206004820152601160248201527f496e76616c6964207468726573686f6c640000000000000000000000000000006044820152606401610688565b887f255f4a56bd3ad76424e31ed8855ef9ad14a0ce4e67508c76ff082e5c1466b12f55505050505050505050565b6040805173ffffffffffffffffffffffffffffffffffffffff86166020820152908101849052466060820152608001604080517fffffffffffffffffffffffffffffffffffffffffffffffffffffffffffffffe081840301815291905280516020909101208282600080610ec48561064585876137ac565b91509150818190610f02576040517f08c379a000000000000000000000000000000000000000000000000000000000815260040161068891906130c5565b5060005b83811015610fbd5760017f255f4a56bd3ad76424e31ed8855ef9ad14a0ce4e67508c76ff082e5c1466b1326000878785818110610f4557610f45613893565b9050602002810190610f5791906138c2565b604051610f65929190613927565b6040805191829003909120825260208201929092520160002080547fffffffffffffffffffffffffffffffffffffffffffffffffffffffffffffff001691151591909117905580610fb581613966565b915050610f06565b508873ffffffffffffffffffffffffffffffffffffffff1663fec5c09a6040518163ffffffff1660e01b8152600401602060405180830381865afa158015611009573d6000803e3d6000fd5b505050506040513d601f19601f8201168201806040525081019061102d9190613aca565b611093576040517f08c379a000000000000000000000000000000000000000000000000000000000815260206004820152601660248201527f496e76616c696420696d706c656d656e746174696f6e000000000000000000006044820152606401610688565b883055505050505050505050565b8686868686466040516020016110bc96959493929190613aec565b604080517fffffffffffffffffffffffffffffffffffffffffffffffffffffffffffffffe0818403018152919052805160209091012082826000806111058561064585876137ac565b91509150818190611143576040517f08c379a000000000000000000000000000000000000000000000000000000000815260040161068891906130c5565b5060005b838110156111fe5760017f255f4a56bd3ad76424e31ed8855ef9ad14a0ce4e67508c76ff082e5c1466b132600087878581811061118657611186613893565b905060200281019061119891906138c2565b6040516111a6929190613927565b6040805191829003909120825260208201929092520160002080547fffffffffffffffffffffffffffffffffffffffffffffffffffffffffffffff0016911515919091179055806111f681613966565b915050611147565b5060005b8b811015611264576112528d8d8381811061121f5761121f613893565b9050602002016020810190611234919061331c565b8c8c8481811061124657611246613893565b905060200201356125cb565b8061125c81613966565b915050611202565b50505050505050505050505050565b7f8480f6681de262f06542a42e126de05ebaca6a167394778f7693338ddb42e1b45460ff16156112ff576040517f08c379a000000000000000000000000000000000000000000000000000000000815260206004820152601360248201527f416c726561647920696e697469616c697a6564000000000000000000000000006044820152606401610688565b61130a8160016125cb565b507f8480f6681de262f06542a42e126de05ebaca6a167394778f7693338ddb42e1b480547fffffffffffffffffffffffffffffffffffffffffffffffffffffffffffffff00166001179055565b8484844660405160200161136e9493929190613b8b565b604080517fffffffffffffffffffffffffffffffffffffffffffffffffffffffffffffffe0818403018152919052805160209091012082826000806113b78561064585876137ac565b915091508181906113f5576040517f08c379a000000000000000000000000000000000000000000000000000000000815260040161068891906130c5565b5060005b838110156114b05760017f255f4a56bd3ad76424e31ed8855ef9ad14a0ce4e67508c76ff082e5c1466b132600087878581811061143857611438613893565b905060200281019061144a91906138c2565b604051611458929190613927565b6040805191829003909120825260208201929092520160002080547fffffffffffffffffffffffffffffffffffffffffffffffffffffffffffffff0016911515919091179055806114a881613966565b9150506113f9565b5060006114c360a08b0160808c01613c31565b63ffffffff1611611556576040517f08c379a000000000000000000000000000000000000000000000000000000000815260206004820152603260248201527f43616c6c52657175657374507265617574686f72697a6174696f6e2e6d61784360448201527f616c6c73206d757374206e6f74206265203000000000000000000000000000006064820152608401610688565b887f8b8c16fdb86566569823d1c7c7621975485948685c113470681dca36483b6235600061158760208e018e61331c565b8d602001602081019061159a919061331c565b8e604001358f80606001906115af91906138c2565b6040516020016115c395949392919061399e565b60405160208183030381529060405280519060200120815260200190815260200160002081816115f39190613c5b565b505050505050505050505050565b6040805173ffffffffffffffffffffffffffffffffffffffff871660208201529081018590526060810184905246608082015260a001604080517fffffffffffffffffffffffffffffffffffffffffffffffffffffffffffffffe0818403018152919052805160209091012082826000806116808561064585876137ac565b915091508181906116be576040517f08c379a000000000000000000000000000000000000000000000000000000000815260040161068891906130c5565b5060005b838110156117795760017f255f4a56bd3ad76424e31ed8855ef9ad14a0ce4e67508c76ff082e5c1466b132600087878581811061170157611701613893565b905060200281019061171391906138c2565b604051611721929190613927565b6040805191829003909120825260208201929092520160002080547fffffffffffffffffffffffffffffffffffffffffffffffffffffffffffffff00169115159190911790558061177181613966565b9150506116c2565b5073ffffffffffffffffffffffffffffffffffffffff8a1660009081527f255f4a56bd3ad76424e31ed8855ef9ad14a0ce4e67508c76ff082e5c1466b13160205260409020547f255f4a56bd3ad76424e31ed8855ef9ad14a0ce4e67508c76ff082e5c1466b130548a916117ec91613dff565b6117f69190613e12565b7f255f4a56bd3ad76424e31ed8855ef9ad14a0ce4e67508c76ff082e5c1466b1308190551580159061186a57507f255f4a56bd3ad76424e31ed8855ef9ad14a0ce4e67508c76ff082e5c1466b12f547f255f4a56bd3ad76424e31ed8855ef9ad14a0ce4e67508c76ff082e5c1466b1305410155b6118d0576040517f08c379a000000000000000000000000000000000000000000000000000000000815260206004820152601d60248201527f5468726573686f6c6420776f756c6420626520696d706f737369626c650000006044820152606401610688565b5050505073ffffffffffffffffffffffffffffffffffffffff9590951660009081527f255f4a56bd3ad76424e31ed8855ef9ad14a0ce4e67508c76ff082e5c1466b131602052604090209390935550505050565b606084844660405160200161193b93929190613e25565b604080517fffffffffffffffffffffffffffffffffffffffffffffffffffffffffffffffe0818403018152919052805160209091012083836000806119848561064585876137ac565b915091508181906119c2576040517f08c379a000000000000000000000000000000000000000000000000000000000815260040161068891906130c5565b5060005b83811015611a7d5760017f255f4a56bd3ad76424e31ed8855ef9ad14a0ce4e67508c76ff082e5c1466b1326000878785818110611a0557611a05613893565b9050602002810190611a1791906138c2565b604051611a25929190613927565b6040805191829003909120825260208201929092520160002080547fffffffffffffffffffffffffffffffffffffffffffffffffffffffffffffff001691151591909117905580611a7581613966565b9150506119c6565b5060008967ffffffffffffffff811115611a9957611a9961372e565b604051908082528060200260200182016040528015611acc57816020015b6060815260200190600190039081611ab75790505b50905060005b8a811015611b3657611b068c8c83818110611aef57611aef613893565b9050602002810190611b019190613eda565b61252f565b828281518110611b1857611b18613893565b60200260200101819052508080611b2e90613966565b915050611ad2565b509a9950505050505050505050565b606060008267ffffffffffffffff811115611b6257611b6261372e565b604051908082528060200260200182016040528015611b9557816020015b6060815260200190600190039081611b805790505b50905060005b83811015611bfa57611bca858583818110611bb857611bb8613893565b90506020028101906105bd9190613eda565b828281518110611bdc57611bdc613893565b60200260200101819052508080611bf290613966565b915050611b9b565b509392505050565b60606000611c10338461264d565b80549091507801000000000000000000000000000000000000000000000000900463ffffffff16600003611c4c57611c4960008461264d565b90505b80547801000000000000000000000000000000000000000000000000900463ffffffff16611cd6576040517f08c379a000000000000000000000000000000000000000000000000000000000815260206004820152601660248201527f43616c6c206e6f7420707265617574686f72697a6564000000000000000000006044820152606401610688565b805467ffffffffffffffff161580611cf95750805467ffffffffffffffff164210155b611d5f576040517f08c379a000000000000000000000000000000000000000000000000000000000815260206004820152600f60248201527f43616c6c2074696d656c6f636b656400000000000000000000000000000000006044820152606401610688565b805468010000000000000000900467ffffffffffffffff161580611d9c57508054700100000000000000000000000000000000900463ffffffff16155b80611dec57508054611dde90700100000000000000000000000000000000810463ffffffff169068010000000000000000900467ffffffffffffffff16613f18565b67ffffffffffffffff164210155b611e52576040517f08c379a000000000000000000000000000000000000000000000000000000000815260206004820152601360248201527f43616c6c20696e74657276616c20756e6d6574000000000000000000000000006044820152606401610688565b805463ffffffff780100000000000000000000000000000000000000000000000082048116740100000000000000000000000000000000000000009092041610611ef8576040517f08c379a000000000000000000000000000000000000000000000000000000000815260206004820152601160248201527f4d61782063616c6c7320726561636865640000000000000000000000000000006044820152606401610688565b80546001908290601490611f2b90849074010000000000000000000000000000000000000000900463ffffffff16613f40565b82546101009290920a63ffffffff8181021990931691909216919091021790555080547fffffffffffffffffffffffffffffffff0000000000000000ffffffffffffffff16680100000000000000004267ffffffffffffffff16021781556108648361252f565b60007fc9187e8b000000000000000000000000000000000000000000000000000000007fffffffff00000000000000000000000000000000000000000000000000000000831601611fe557506001919050565b6105e1826126d2565b600060606000805b845181101561218d5760006120248787848151811061201757612017613893565b602002602001015161272e565b73ffffffffffffffffffffffffffffffffffffffff811660009081527f255f4a56bd3ad76424e31ed8855ef9ad14a0ce4e67508c76ff082e5c1466b13160205260408120549192500361209857600060405180606001604052806032815260200161402160329139945094505050506121f2565b60008683815181106120ac576120ac613893565b60200260200101518051906020012090506120e47f255f4a56bd3ad76424e31ed8855ef9ad14a0ce4e67508c76ff082e5c1466b12f90565b6000828152600391909101602052604090205460ff16156121275760006040518060600160405280602381526020016140536023913995509550505050506121f2565b73ffffffffffffffffffffffffffffffffffffffff821660009081527f255f4a56bd3ad76424e31ed8855ef9ad14a0ce4e67508c76ff082e5c1466b13160205260409020546121769085613e12565b93505050808061218590613966565b915050611ff6565b507f255f4a56bd3ad76424e31ed8855ef9ad14a0ce4e67508c76ff082e5c1466b12f548110156121dc576000604051806060016040528060268152602001613ffb6026913992509250506121f2565b5050604080516020810190915260008152600191505b9250929050565b6000612206604183613f8c565b15612293576040517f08c379a000000000000000000000000000000000000000000000000000000000815260206004820152602960248201527f556e6578706563746564207061636b61676564207369676e617475726520627960448201527f7465206c656e67746800000000000000000000000000000000000000000000006064820152608401610688565b60006122a0604184613fa0565b905060008167ffffffffffffffff8111156122bd576122bd61372e565b6040519080825280602002602001820160405280156122f057816020015b60608152602001906001900390816122db5790505b50905060005b8281101561237c5761234c61230c604183613fb4565b604080516020601f8a018190048102820181019092528881526041918a908a90819084018382808284376000920191909152509294939250506127919050565b82828151811061235e5761235e613893565b6020026020010181905250808061237490613966565b9150506122f6565b5060006123898783611fee565b50979650505050505050565b73ffffffffffffffffffffffffffffffffffffffff811660009081527f255f4a56bd3ad76424e31ed8855ef9ad14a0ce4e67508c76ff082e5c1466b13160205260408120547f255f4a56bd3ad76424e31ed8855ef9ad14a0ce4e67508c76ff082e5c1466b13080549192909161240c908490613dff565b90915550507f255f4a56bd3ad76424e31ed8855ef9ad14a0ce4e67508c76ff082e5c1466b130541580159061248357507f255f4a56bd3ad76424e31ed8855ef9ad14a0ce4e67508c76ff082e5c1466b12f547f255f4a56bd3ad76424e31ed8855ef9ad14a0ce4e67508c76ff082e5c1466b1305410155b6124e9576040517f08c379a000000000000000000000000000000000000000000000000000000000815260206004820152601d60248201527f5468726573686f6c6420776f756c6420626520696d706f737369626c650000006044820152606401610688565b73ffffffffffffffffffffffffffffffffffffffff1660009081527f255f4a56bd3ad76424e31ed8855ef9ad14a0ce4e67508c76ff082e5c1466b1316020526040812055565b6060600080612541602085018561331c565b73ffffffffffffffffffffffffffffffffffffffff16602085013561256960608701876138c2565b604051612577929190613927565b60006040518083038185875af1925050503d80600081146125b4576040519150601f19603f3d011682016040523d82523d6000602084013e6125b9565b606091505b50915091508161086457805160208201fd5b807f255f4a56bd3ad76424e31ed8855ef9ad14a0ce4e67508c76ff082e5c1466b12f60010160008282546125ff9190613e12565b909155505073ffffffffffffffffffffffffffffffffffffffff9190911660009081527f255f4a56bd3ad76424e31ed8855ef9ad14a0ce4e67508c76ff082e5c1466b1316020526040902055565b60007f8b8c16fdb86566569823d1c7c7621975485948685c113470681dca36483b6235600084612680602086018661331c565b602086013561269260608801886138c2565b6040516020016126a695949392919061399e565b604051602081830303815290604052805190602001208152602001908152602001600020905092915050565b60007f95fe063f000000000000000000000000000000000000000000000000000000007fffffffff0000000000000000000000000000000000000000000000000000000083160161272557506001919050565b6105e18261290b565b60006108648261278b856040517f19457468657265756d205369676e6564204d6573736167653a0a3332000000006020820152603c8101829052600090605c01604051602081830303815290604052805190602001209050919050565b90612967565b60608161279f81601f613e12565b1015612807576040517f08c379a000000000000000000000000000000000000000000000000000000000815260206004820152600e60248201527f736c6963655f6f766572666c6f770000000000000000000000000000000000006044820152606401610688565b6128118284613e12565b8451101561287b576040517f08c379a000000000000000000000000000000000000000000000000000000000815260206004820152601160248201527f736c6963655f6f75744f66426f756e64730000000000000000000000000000006044820152606401610688565b60608215801561289a5760405191506000825260208201604052612902565b6040519150601f8416801560200281840101858101878315602002848b0101015b818310156128d35780518352602092830192016128bb565b5050858452601f017fffffffffffffffffffffffffffffffffffffffffffffffffffffffffffffffe016604052505b50949350505050565b60007f34db13da000000000000000000000000000000000000000000000000000000007fffffffff0000000000000000000000000000000000000000000000000000000083160161295e57506001919050565b6105e182612983565b600080600061297685856129df565b91509150611bfa81612a21565b60007f5eaab19f000000000000000000000000000000000000000000000000000000007fffffffff000000000000000000000000000000000000000000000000000000008316016129d657506001919050565b6105e182612bd7565b6000808251604103612a155760208301516040840151606085015160001a612a0987828585612c74565b945094505050506121f2565b506000905060026121f2565b6000816004811115612a3557612a35613fcb565b03612a3d5750565b6001816004811115612a5157612a51613fcb565b03612ab8576040517f08c379a000000000000000000000000000000000000000000000000000000000815260206004820152601860248201527f45434453413a20696e76616c6964207369676e617475726500000000000000006044820152606401610688565b6002816004811115612acc57612acc613fcb565b03612b33576040517f08c379a000000000000000000000000000000000000000000000000000000000815260206004820152601f60248201527f45434453413a20696e76616c6964207369676e6174757265206c656e677468006044820152606401610688565b6003816004811115612b4757612b47613fcb565b03612bd4576040517f08c379a000000000000000000000000000000000000000000000000000000000815260206004820152602260248201527f45434453413a20696e76616c6964207369676e6174757265202773272076616c60448201527f75650000000000000000000000000000000000000000000000000000000000006064820152608401610688565b50565b60007f7e68492c000000000000000000000000000000000000000000000000000000007fffffffff00000000000000000000000000000000000000000000000000000000831601612c2a57506001919050565b7f01ffc9a7000000000000000000000000000000000000000000000000000000007fffffffff000000000000000000000000000000000000000000000000000000008316146105e1565b6000807f7fffffffffffffffffffffffffffffff5d576e7357a4501ddfe92f46681b20a0831115612cab5750600090506003612d5a565b6040805160008082526020820180845289905260ff881692820192909252606081018690526080810185905260019060a0016020604051602081039080840390855afa158015612cff573d6000803e3d6000fd5b50506040517fffffffffffffffffffffffffffffffffffffffffffffffffffffffffffffffe0015191505073ffffffffffffffffffffffffffffffffffffffff8116612d5357600060019250925050612d5a565b9150600090505b94509492505050565b600060208284031215612d7557600080fd5b81357fffffffff000000000000000000000000000000000000000000000000000000008116811461086457600080fd5b600060808284031215612db757600080fd5b50919050565b60008083601f840112612dcf57600080fd5b50813567ffffffffffffffff811115612de757600080fd5b6020830191508360208260051b85010111156121f257600080fd5b60008060008060608587031215612e1857600080fd5b843567ffffffffffffffff80821115612e3057600080fd5b612e3c88838901612da5565b9550602087013594506040870135915080821115612e5957600080fd5b50612e6687828801612dbd565b95989497509550505050565b803573ffffffffffffffffffffffffffffffffffffffff81168114612e9657600080fd5b919050565b60008083601f840112612ead57600080fd5b50813567ffffffffffffffff811115612ec557600080fd5b6020830191508360208285010111156121f257600080fd5b600080600080600060808688031215612ef557600080fd5b612efe86612e72565b9450612f0c60208701612e72565b935060408601359250606086013567ffffffffffffffff811115612f2f57600080fd5b612f3b88828901612e9b565b969995985093965092949392505050565b600080600060408486031215612f6157600080fd5b83359250602084013567ffffffffffffffff811115612f7f57600080fd5b612f8b86828701612e9b565b9497909650939450505050565b60008060008060408587031215612fae57600080fd5b843567ffffffffffffffff80821115612fc657600080fd5b612fd288838901612e9b565b90965094506020870135915080821115612feb57600080fd5b50612e6687828801612e9b565b60008060008060006060868803121561301057600080fd5b853567ffffffffffffffff8082111561302857600080fd5b61303489838a01612dbd565b909750955060208801359450604088013591508082111561305457600080fd5b50612f3b88828901612dbd565b6000815180845260005b818110156130875760208185018101518683018201520161306b565b5060006020828601015260207fffffffffffffffffffffffffffffffffffffffffffffffffffffffffffffffe0601f83011685010191505092915050565b6020815260006108646020830184613061565b6000806000604084860312156130ed57600080fd5b833567ffffffffffffffff8082111561310557600080fd5b61311187838801612da5565b9450602086013591508082111561312757600080fd5b50612f8b86828701612dbd565b6000806000806060858703121561314a57600080fd5b8435935060208501359250604085013567ffffffffffffffff81111561316f57600080fd5b612e6687828801612dbd565b6000806000806060858703121561319157600080fd5b61319a85612e72565b935060208501359250604085013567ffffffffffffffff81111561316f57600080fd5b60008060008060008060006080888a0312156131d857600080fd5b873567ffffffffffffffff808211156131f057600080fd5b6131fc8b838c01612dbd565b909950975060208a013591508082111561321557600080fd5b6132218b838c01612dbd565b909750955060408a0135945060608a013591508082111561324157600080fd5b5061324e8a828b01612dbd565b989b979a50959850939692959293505050565b60008060008060008060008060a0898b03121561327d57600080fd5b61328689612e72565b975061329460208a01612e72565b9650604089013567ffffffffffffffff808211156132b157600080fd5b6132bd8c838d01612dbd565b909850965060608b01359150808211156132d657600080fd5b6132e28c838d01612dbd565b909650945060808b01359150808211156132fb57600080fd5b506133088b828c01612e9b565b999c989b5096995094979396929594505050565b60006020828403121561332e57600080fd5b61086482612e72565b600080600080600085870361010081121561335157600080fd5b863567ffffffffffffffff8082111561336957600080fd5b6133758a838b01612da5565b975060a07fffffffffffffffffffffffffffffffffffffffffffffffffffffffffffffffe0840112156133a757600080fd5b60208901965060c0890135955060e08901359250808311156133c857600080fd5b5050612f3b88828901612dbd565b6000806000806000608086880312156133ee57600080fd5b6133f786612e72565b94506020860135935060408601359250606086013567ffffffffffffffff81111561342157600080fd5b612f3b88828901612dbd565b6000806000806040858703121561344357600080fd5b843567ffffffffffffffff8082111561345b57600080fd5b61346788838901612dbd565b90965094506020870135915080821115612e5957600080fd5b6000602080830181845280855180835260408601915060408160051b870101925083870160005b828110156134f3577fffffffffffffffffffffffffffffffffffffffffffffffffffffffffffffffc08886030184526134e1858351613061565b945092850192908501906001016134a7565b5092979650505050505050565b60008060008060008060a0878903121561351957600080fd5b61352287612e72565b955061353060208801612e72565b94506040870135935060608701359250608087013567ffffffffffffffff81111561355a57600080fd5b61356689828a01612e9b565b979a9699509497509295939492505050565b6000806020838503121561358b57600080fd5b823567ffffffffffffffff8111156135a257600080fd5b6135ae85828601612dbd565b90969095509350505050565b6000602082840312156135cc57600080fd5b813567ffffffffffffffff8111156135e357600080fd5b6108bf84828501612da5565b60008083357fffffffffffffffffffffffffffffffffffffffffffffffffffffffffffffffe184360301811261362457600080fd5b830160208101925035905067ffffffffffffffff81111561364457600080fd5b8036038213156121f257600080fd5b8183528181602085013750600060208284010152600060207fffffffffffffffffffffffffffffffffffffffffffffffffffffffffffffffe0601f840116840101905092915050565b600073ffffffffffffffffffffffffffffffffffffffff806136bd84612e72565b168452806136cd60208501612e72565b16602085015250604082013560408401526136eb60608301836135ef565b60806060860152613700608086018284613653565b95945050505050565b60608152600061371c606083018661369c565b60208301949094525060400152919050565b7f4e487b7100000000000000000000000000000000000000000000000000000000600052604160045260246000fd5b604051601f82017fffffffffffffffffffffffffffffffffffffffffffffffffffffffffffffffe016810167ffffffffffffffff811182821017156137a4576137a461372e565b604052919050565b600067ffffffffffffffff808411156137c7576137c761372e565b8360051b60206137d881830161375d565b8681529185019181810190368411156137f057600080fd5b865b848110156123895780358681111561380a5760008081fd5b8801601f368183011261381d5760008081fd5b81358881111561382f5761382f61372e565b61385e877fffffffffffffffffffffffffffffffffffffffffffffffffffffffffffffffe0848401160161375d565b915080825236878285010111156138755760008081fd5b808784018884013760009082018701528452509183019183016137f2565b7f4e487b7100000000000000000000000000000000000000000000000000000000600052603260045260246000fd5b60008083357fffffffffffffffffffffffffffffffffffffffffffffffffffffffffffffffe18436030181126138f757600080fd5b83018035915067ffffffffffffffff82111561391257600080fd5b6020019150368190038213156121f257600080fd5b8183823760009101908152919050565b7f4e487b7100000000000000000000000000000000000000000000000000000000600052601160045260246000fd5b60007fffffffffffffffffffffffffffffffffffffffffffffffffffffffffffffffff820361399757613997613937565b5060010190565b600073ffffffffffffffffffffffffffffffffffffffff8088168352808716602084015250846040830152608060608301526139de608083018486613653565b979650505050505050565b8183526000602080850194508260005b85811015613a325773ffffffffffffffffffffffffffffffffffffffff613a1f83612e72565b16875295820195908201906001016139f9565b509495945050505050565b606081526000613a516060830186886139e9565b6020830194909452506040015292915050565b73ffffffffffffffffffffffffffffffffffffffff613a8282612e72565b168252602081013560208301526040810135604083015260006136eb60608301836135ef565b604081526000613abb6040830185613a64565b90508260208301529392505050565b600060208284031215613adc57600080fd5b8151801515811461086457600080fd5b608081526000613b0060808301888a6139e9565b82810360208401528581527f07ffffffffffffffffffffffffffffffffffffffffffffffffffffffffffffff861115613b3857600080fd5b8560051b80886020840137604084019590955260609092019290925290910160200195945050505050565b67ffffffffffffffff81168114612bd457600080fd5b63ffffffff81168114612bd457600080fd5b6000610100808352613b9f8184018861369c565b9150508435613bad81613b63565b67ffffffffffffffff808216602085015260208701359150613bce82613b63565b16604083810191909152850135613be481613b79565b63ffffffff808216606085015260608701359150613c0182613b79565b808216608085015260808701359150613c1982613b79565b1660a083015260c082019390935260e0015292915050565b600060208284031215613c4357600080fd5b813561086481613b79565b600081356105e181613b79565b8135613c6681613b63565b67ffffffffffffffff811690508154817fffffffffffffffffffffffffffffffffffffffffffffffff000000000000000082161783556020840135613caa81613b63565b6fffffffffffffffff00000000000000008160401b16905080837fffffffffffffffffffffffffffffffff000000000000000000000000000000008416171784556040850135613cf981613b79565b73ffffffff000000000000000000000000000000008160801b169050837fffffffffffffffffffffffff000000000000000000000000000000000000000084161793508084831717855560608601359250613d5383613b79565b77ffffffff00000000000000000000000000000000000000008360a01b167fffffffffffffffff00000000ffffffffffffffffffffffffffffffffffffffff85168317821717855550505050613dfb613dae60808401613c4e565b82547fffffffff00000000ffffffffffffffffffffffffffffffffffffffffffffffff1660c09190911b7bffffffff00000000000000000000000000000000000000000000000016178255565b5050565b818103818111156105e1576105e1613937565b808201808211156105e1576105e1613937565b6040808252810183905260006060600585901b830181019083018683805b88811015613ec5577fffffffffffffffffffffffffffffffffffffffffffffffffffffffffffffffa087860301845282357fffffffffffffffffffffffffffffffffffffffffffffffffffffffffffffff818b3603018112613ea3578283fd5b613eaf868c8301613a64565b9550506020938401939290920191600101613e43565b50505050602092909201929092529392505050565b600082357fffffffffffffffffffffffffffffffffffffffffffffffffffffffffffffff81833603018112613f0e57600080fd5b9190910192915050565b67ffffffffffffffff818116838216019080821115613f3957613f39613937565b5092915050565b63ffffffff818116838216019080821115613f3957613f39613937565b7f4e487b7100000000000000000000000000000000000000000000000000000000600052601260045260246000fd5b600082613f9b57613f9b613f5d565b500690565b600082613faf57613faf613f5d565b500490565b80820281158282048414176105e1576105e1613937565b7f4e487b7100000000000000000000000000000000000000000000000000000000600052602160045260246000fdfe5369676e6572207765696768747320646f6573206e6f74206d656574207468726573686f6c644174206c65617374206f6e65207369676e6174757265206e6f742066726f6d2061206b6e6f776e20636f6e74726f6c6c65724174206c65617374206f6e65207369676e617475726520616c72656164792075736564a2646970667358221220f2afd2a6f58f3600c3ce72eb5a759f05728bf665e8a92fcdd114a613986b905b64736f6c63430008120033",
  "linkReferences": {},
  "deployedLinkReferences": {}
}