{
  "_format": "hh-sol-artifact-1",
  "contractName": "Main",
  "sourceName": "contracts/modules/Main/Main.sol",
  "abi": [
    {
      "inputs": [
        {
          "internalType": "address[]",
          "name": "_controllers",
          "type": "address[]"
        },
        {
          "internalType": "uint256[]",
          "name": "_weights",
          "type": "uint256[]"
        },
        {
          "internalType": "uint256",
          "name": "_nonce",
          "type": "uint256"
        },
        {
          "internalType": "bytes[]",
          "name": "_signatures",
          "type": "bytes[]"
        }
      ],
      "name": "addControllers",
      "outputs": [],
      "stateMutability": "nonpayable",
      "type": "function"
    },
    {
      "inputs": [],
      "name": "controlThreshold",
      "outputs": [
        {
          "internalType": "uint256",
          "name": "",
          "type": "uint256"
        }
      ],
      "stateMutability": "view",
      "type": "function"
    },
    {
      "inputs": [
        {
          "internalType": "address",
          "name": "_controller",
          "type": "address"
        }
      ],
      "name": "controllerWeight",
      "outputs": [
        {
          "internalType": "uint256",
          "name": "",
          "type": "uint256"
        }
      ],
      "stateMutability": "view",
      "type": "function"
    },
    {
      "inputs": [],
      "name": "controllersTotalWeight",
      "outputs": [
        {
          "internalType": "uint256",
          "name": "",
          "type": "uint256"
        }
      ],
      "stateMutability": "view",
      "type": "function"
    },
    {
      "inputs": [
        {
          "components": [
            {
              "internalType": "address",
              "name": "target",
              "type": "address"
            },
            {
              "internalType": "uint256",
              "name": "value",
              "type": "uint256"
            },
            {
              "internalType": "uint256",
              "name": "nonce",
              "type": "uint256"
            },
            {
              "internalType": "bytes",
              "name": "data",
              "type": "bytes"
            }
          ],
          "internalType": "struct CallsStructs.ExecuteRequest",
          "name": "_executeRequest",
          "type": "tuple"
        },
        {
          "internalType": "bytes[]",
          "name": "_signatures",
          "type": "bytes[]"
        }
      ],
      "name": "execute",
      "outputs": [
        {
          "internalType": "bytes",
          "name": "",
          "type": "bytes"
        }
      ],
      "stateMutability": "nonpayable",
      "type": "function"
    },
    {
      "inputs": [
        {
          "internalType": "address",
          "name": "_controller",
          "type": "address"
        }
      ],
      "name": "initialize",
      "outputs": [],
      "stateMutability": "nonpayable",
      "type": "function"
    },
    {
      "inputs": [
        {
          "internalType": "bytes32",
          "name": "_hash",
          "type": "bytes32"
        },
        {
          "internalType": "bytes",
          "name": "_signature",
          "type": "bytes"
        }
      ],
      "name": "isValidSignature",
      "outputs": [
        {
          "internalType": "bytes4",
          "name": "magicValue",
          "type": "bytes4"
        }
      ],
      "stateMutability": "view",
      "type": "function"
    },
    {
      "inputs": [
        {
          "internalType": "bytes",
          "name": "_data",
          "type": "bytes"
        },
        {
          "internalType": "bytes",
          "name": "_signature",
          "type": "bytes"
        }
      ],
      "name": "isValidSignature",
      "outputs": [
        {
          "internalType": "bytes4",
          "name": "magicValue",
          "type": "bytes4"
        }
      ],
      "stateMutability": "view",
      "type": "function"
    },
    {
      "inputs": [
        {
          "components": [
            {
              "internalType": "address",
              "name": "target",
              "type": "address"
            },
            {
              "internalType": "uint256",
              "name": "value",
              "type": "uint256"
            },
            {
              "internalType": "uint256",
              "name": "nonce",
              "type": "uint256"
            },
            {
              "internalType": "bytes",
              "name": "data",
              "type": "bytes"
            }
          ],
          "internalType": "struct CallsStructs.ExecuteRequest[]",
          "name": "_executeRequests",
          "type": "tuple[]"
        },
        {
          "internalType": "bytes[]",
          "name": "_signatures",
          "type": "bytes[]"
        }
      ],
      "name": "multiExecute",
      "outputs": [
        {
          "internalType": "bytes[]",
          "name": "",
          "type": "bytes[]"
        }
      ],
      "stateMutability": "nonpayable",
      "type": "function"
    },
    {
      "inputs": [
        {
          "components": [
            {
              "internalType": "address",
              "name": "target",
              "type": "address"
            },
            {
              "internalType": "uint256",
              "name": "value",
              "type": "uint256"
            },
            {
              "internalType": "uint256",
              "name": "nonce",
              "type": "uint256"
            },
            {
              "internalType": "bytes",
              "name": "data",
              "type": "bytes"
            }
          ],
          "internalType": "struct CallsStructs.ExecuteRequest[]",
          "name": "_executeRequests",
          "type": "tuple[]"
        }
      ],
      "name": "multiPermittedExecute",
      "outputs": [
        {
          "internalType": "bytes[]",
          "name": "",
          "type": "bytes[]"
        }
      ],
      "stateMutability": "nonpayable",
      "type": "function"
    },
    {
      "inputs": [
        {
          "internalType": "address",
          "name": "",
          "type": "address"
        },
        {
          "internalType": "address",
          "name": "",
          "type": "address"
        },
        {
          "internalType": "uint256[]",
          "name": "",
          "type": "uint256[]"
        },
        {
          "internalType": "uint256[]",
          "name": "",
          "type": "uint256[]"
        },
        {
          "internalType": "bytes",
          "name": "",
          "type": "bytes"
        }
      ],
      "name": "onERC1155BatchReceived",
      "outputs": [
        {
          "internalType": "bytes4",
          "name": "",
          "type": "bytes4"
        }
      ],
      "stateMutability": "pure",
      "type": "function"
    },
    {
      "inputs": [
        {
          "internalType": "address",
          "name": "",
          "type": "address"
        },
        {
          "internalType": "address",
          "name": "",
          "type": "address"
        },
        {
          "internalType": "uint256",
          "name": "",
          "type": "uint256"
        },
        {
          "internalType": "uint256",
          "name": "",
          "type": "uint256"
        },
        {
          "internalType": "bytes",
          "name": "",
          "type": "bytes"
        }
      ],
      "name": "onERC1155Received",
      "outputs": [
        {
          "internalType": "bytes4",
          "name": "",
          "type": "bytes4"
        }
      ],
      "stateMutability": "pure",
      "type": "function"
    },
    {
      "inputs": [
        {
          "internalType": "address",
          "name": "",
          "type": "address"
        },
        {
          "internalType": "address",
          "name": "",
          "type": "address"
        },
        {
          "internalType": "uint256",
          "name": "",
          "type": "uint256"
        },
        {
          "internalType": "bytes",
          "name": "",
          "type": "bytes"
        }
      ],
      "name": "onERC721Received",
      "outputs": [
        {
          "internalType": "bytes4",
          "name": "",
          "type": "bytes4"
        }
      ],
      "stateMutability": "pure",
      "type": "function"
    },
    {
      "inputs": [
        {
          "components": [
            {
              "internalType": "address",
              "name": "executor",
              "type": "address"
            },
            {
              "internalType": "address",
              "name": "target",
              "type": "address"
            },
            {
              "internalType": "uint256",
              "name": "value",
              "type": "uint256"
            },
            {
              "internalType": "bytes",
              "name": "data",
              "type": "bytes"
            }
          ],
          "internalType": "struct PermissionedCallsStructs.ExecuteRequestPermitted",
          "name": "_executeRequestPermitted",
          "type": "tuple"
        },
        {
          "components": [
            {
              "internalType": "uint64",
              "name": "unlockTimestamp",
              "type": "uint64"
            },
            {
              "internalType": "uint64",
              "name": "lastExecuteTimestamp",
              "type": "uint64"
            },
            {
              "internalType": "uint32",
              "name": "minExecuteInterval",
              "type": "uint32"
            },
            {
              "internalType": "uint32",
              "name": "executeCount",
              "type": "uint32"
            },
            {
              "internalType": "uint32",
              "name": "maxExecutes",
              "type": "uint32"
            }
          ],
          "internalType": "struct PermissionedCallsStructs.ExecuteRequestPermission",
          "name": "_executeRequestPermission",
          "type": "tuple"
        },
        {
          "internalType": "uint256",
          "name": "_nonce",
          "type": "uint256"
        },
        {
          "internalType": "bytes[]",
          "name": "_signatures",
          "type": "bytes[]"
        }
      ],
      "name": "permitExecute",
      "outputs": [],
      "stateMutability": "nonpayable",
      "type": "function"
    },
    {
      "inputs": [
        {
          "components": [
            {
              "internalType": "address",
              "name": "target",
              "type": "address"
            },
            {
              "internalType": "uint256",
              "name": "value",
              "type": "uint256"
            },
            {
              "internalType": "uint256",
              "name": "nonce",
              "type": "uint256"
            },
            {
              "internalType": "bytes",
              "name": "data",
              "type": "bytes"
            }
          ],
          "internalType": "struct CallsStructs.ExecuteRequest",
          "name": "_executeRequest",
          "type": "tuple"
        }
      ],
      "name": "permittedExecute",
      "outputs": [
        {
          "internalType": "bytes",
          "name": "",
          "type": "bytes"
        }
      ],
      "stateMutability": "nonpayable",
      "type": "function"
    },
    {
      "inputs": [
        {
          "internalType": "address[]",
          "name": "_controllers",
          "type": "address[]"
        },
        {
          "internalType": "uint256",
          "name": "_nonce",
          "type": "uint256"
        },
        {
          "internalType": "bytes[]",
          "name": "_signatures",
          "type": "bytes[]"
        }
      ],
      "name": "removeControllers",
      "outputs": [],
      "stateMutability": "nonpayable",
      "type": "function"
    },
    {
      "inputs": [
        {
          "internalType": "bytes4",
          "name": "interfaceId",
          "type": "bytes4"
        }
      ],
      "name": "supportsInterface",
      "outputs": [
        {
          "internalType": "bool",
          "name": "",
          "type": "bool"
        }
      ],
      "stateMutability": "view",
      "type": "function"
    },
    {
      "inputs": [],
      "name": "supportsUpgrades",
      "outputs": [
        {
          "internalType": "bool",
          "name": "",
          "type": "bool"
        }
      ],
      "stateMutability": "pure",
      "type": "function"
    },
    {
      "inputs": [
        {
          "components": [
            {
              "internalType": "address",
              "name": "executor",
              "type": "address"
            },
            {
              "internalType": "address",
              "name": "target",
              "type": "address"
            },
            {
              "internalType": "uint256",
              "name": "value",
              "type": "uint256"
            },
            {
              "internalType": "bytes",
              "name": "data",
              "type": "bytes"
            }
          ],
          "internalType": "struct PermissionedCallsStructs.ExecuteRequestPermitted",
          "name": "_executeRequestPermitted",
          "type": "tuple"
        },
        {
          "internalType": "uint256",
          "name": "_nonce",
          "type": "uint256"
        },
        {
          "internalType": "bytes[]",
          "name": "_signatures",
          "type": "bytes[]"
        }
      ],
      "name": "unpermitExecute",
      "outputs": [],
      "stateMutability": "nonpayable",
      "type": "function"
    },
    {
      "inputs": [
        {
          "internalType": "uint256",
          "name": "_threshold",
          "type": "uint256"
        },
        {
          "internalType": "uint256",
          "name": "_nonce",
          "type": "uint256"
        },
        {
          "internalType": "bytes[]",
          "name": "_signatures",
          "type": "bytes[]"
        }
      ],
      "name": "updateControlThreshold",
      "outputs": [],
      "stateMutability": "nonpayable",
      "type": "function"
    },
    {
      "inputs": [
        {
          "internalType": "address",
          "name": "_controller",
          "type": "address"
        },
        {
          "internalType": "uint256",
          "name": "_weight",
          "type": "uint256"
        },
        {
          "internalType": "uint256",
          "name": "_nonce",
          "type": "uint256"
        },
        {
          "internalType": "bytes[]",
          "name": "_signatures",
          "type": "bytes[]"
        }
      ],
      "name": "updateControllerWeight",
      "outputs": [],
      "stateMutability": "nonpayable",
      "type": "function"
    },
    {
      "inputs": [
        {
          "internalType": "address",
          "name": "_implementation",
          "type": "address"
        },
        {
          "internalType": "uint256",
          "name": "_nonce",
          "type": "uint256"
        },
        {
          "internalType": "bytes[]",
          "name": "_signatures",
          "type": "bytes[]"
        }
      ],
      "name": "upgrade",
      "outputs": [],
      "stateMutability": "nonpayable",
      "type": "function"
    },
    {
      "inputs": [],
      "name": "version",
      "outputs": [
        {
          "internalType": "string",
          "name": "",
          "type": "string"
        }
      ],
      "stateMutability": "view",
      "type": "function"
    },
    {
      "stateMutability": "payable",
      "type": "receive"
    }
  ],
  "bytecode": "0x608060405234801561001057600080fd5b50613ed1806100206000396000f3fe6080604052600436106101845760003560e01c806387f949b4116100d6578063c4d66de81161007f578063f04420f111610059578063f04420f11461055c578063f23a6e61146105be578063fec5c09a1461060457600080fd5b8063c4d66de8146104fc578063d0bccea11461051c578063e57db71e1461053c57600080fd5b8063a7865090116100b0578063a786509014610460578063af91549814610494578063bc197c81146104b457600080fd5b806387f949b41461040057806394c4395b14610420578063a3e8d51e1461044057600080fd5b80631ab08563116101385780632a365cbd116101125780632a365cbd1461036a578063524886d21461038a57806354fd4d50146103aa57600080fd5b80631ab085631461030857806320c13b0b1461032a578063286936bb1461034a57600080fd5b80630d992b2b116101695780630d992b2b14610245578063150b7a02146102725780631626ba7e146102e857600080fd5b806301ffc9a71461019057806306e823831461020757600080fd5b3661018b57005b600080fd5b34801561019c57600080fd5b506101f26101ab366004612b89565b7fffffffff00000000000000000000000000000000000000000000000000000000167f01ffc9a7000000000000000000000000000000000000000000000000000000001490565b60405190151581526020015b60405180910390f35b34801561021357600080fd5b507f255f4a56bd3ad76424e31ed8855ef9ad14a0ce4e67508c76ff082e5c1466b130545b6040519081526020016101fe565b34801561025157600080fd5b50610265610260366004612c10565b610618565b6040516101fe9190612ce0565b34801561027e57600080fd5b506102b761028d366004612dcb565b7f150b7a020000000000000000000000000000000000000000000000000000000095945050505050565b6040517fffffffff0000000000000000000000000000000000000000000000000000000090911681526020016101fe565b3480156102f457600080fd5b506102b7610303366004612e3a565b610847565b34801561031457600080fd5b50610328610323366004612e9e565b61088b565b005b34801561033657600080fd5b506102b7610345366004612ef5565b610abd565b34801561035657600080fd5b50610328610365366004612f55565b610b19565b34801561037657600080fd5b50610328610385366004612fbe565b610ccc565b34801561039657600080fd5b506102656103a536600461305d565b610f76565b3480156103b657600080fd5b506103f36040518060400160405280600b81526020017f616c7068612d312e302e3000000000000000000000000000000000000000000081525081565b6040516101fe919061309f565b34801561040c57600080fd5b5061032861041b3660046130b2565b611035565b34801561042c57600080fd5b5061032861043b3660046130f9565b611299565b34801561044c57600080fd5b506103f361045b36600461313b565b6114ee565b34801561046c57600080fd5b507f255f4a56bd3ad76424e31ed8855ef9ad14a0ce4e67508c76ff082e5c1466b12f54610237565b3480156104a057600080fd5b506103286104af366004613197565b61165c565b3480156104c057600080fd5b506102b76104cf36600461323b565b7fbc197c810000000000000000000000000000000000000000000000000000000098975050505050505050565b34801561050857600080fd5b506103286105173660046132f6565b61182e565b34801561052857600080fd5b50610328610537366004613311565b611912565b34801561054857600080fd5b506103f3610557366004613368565b611c35565b34801561056857600080fd5b506102376105773660046132f6565b73ffffffffffffffffffffffffffffffffffffffff1660009081527f255f4a56bd3ad76424e31ed8855ef9ad14a0ce4e67508c76ff082e5c1466b131602052604090205490565b3480156105ca57600080fd5b506102b76105d936600461339d565b7ff23a6e61000000000000000000000000000000000000000000000000000000009695505050505050565b34801561061057600080fd5b5060016101f2565b606084844660405160200161062f93929190613524565b604080517fffffffffffffffffffffffffffffffffffffffffffffffffffffffffffffffe08184030181529190528051602090910120838360008061067d856106788587613657565b611fc5565b915091508181906106c4576040517f08c379a00000000000000000000000000000000000000000000000000000000081526004016106bb919061309f565b60405180910390fd5b5060005b8381101561077f5760017f255f4a56bd3ad76424e31ed8855ef9ad14a0ce4e67508c76ff082e5c1466b13260008787858181106107075761070761373e565b9050602002810190610719919061376d565b6040516107279291906137d2565b6040805191829003909120825260208201929092520160002080547fffffffffffffffffffffffffffffffffffffffffffffffffffffffffffffff00169115159190911790558061077781613811565b9150506106c8565b5060008967ffffffffffffffff81111561079b5761079b6135d9565b6040519080825280602002602001820160405280156107ce57816020015b60608152602001906001900390816107b95790505b50905060005b8a811015610838576108088c8c838181106107f1576107f161373e565b90506020028101906108039190613849565b6121d0565b82828151811061081a5761081a61373e565b6020026020010181905250808061083090613811565b9150506107d4565b509a9950505050505050505050565b600061085484848461226c565b1561088057507f1626ba7e00000000000000000000000000000000000000000000000000000000610884565b5060005b9392505050565b8383466040516020016108a0939291906138d6565b604080517fffffffffffffffffffffffffffffffffffffffffffffffffffffffffffffffe0818403018152919052805160209091012082826000806108e9856106788587613657565b91509150818190610927576040517f08c379a00000000000000000000000000000000000000000000000000000000081526004016106bb919061309f565b5060005b838110156109e25760017f255f4a56bd3ad76424e31ed8855ef9ad14a0ce4e67508c76ff082e5c1466b132600087878581811061096a5761096a61373e565b905060200281019061097c919061376d565b60405161098a9291906137d2565b6040805191829003909120825260208201929092520160002080547fffffffffffffffffffffffffffffffffffffffffffffffffffffffffffffff0016911515919091179055806109da81613811565b91505061092b565b507fa7c6065f73528a079b6bd396854cfc70d8b5a045d4821e6db173081678a527656000610a1360208c018c6132f6565b610a2360408d0160208e016132f6565b60408d0135610a3560608f018f61376d565b604051602001610a499594939291906138fb565b604080517fffffffffffffffffffffffffffffffffffffffffffffffffffffffffffffffe081840301815291815281516020928301208352908201929092520160002080547fffffffff00000000000000000000000000000000000000000000000000000000169055505050505050505050565b6000610ae18585604051610ad29291906137d2565b6040518091039020848461226c565b15610b0d57507f20c13b0b00000000000000000000000000000000000000000000000000000000610b11565b5060005b949350505050565b84848446604051602001610b30949392919061399a565b604080517fffffffffffffffffffffffffffffffffffffffffffffffffffffffffffffffe081840301815291905280516020909101208282600080610b79856106788587613657565b91509150818190610bb7576040517f08c379a00000000000000000000000000000000000000000000000000000000081526004016106bb919061309f565b5060005b83811015610c725760017f255f4a56bd3ad76424e31ed8855ef9ad14a0ce4e67508c76ff082e5c1466b1326000878785818110610bfa57610bfa61373e565b9050602002810190610c0c919061376d565b604051610c1a9291906137d2565b6040805191829003909120825260208201929092520160002080547fffffffffffffffffffffffffffffffffffffffffffffffffffffffffffffff001691151591909117905580610c6a81613811565b915050610bbb565b5060005b89811015610cbf57610cad8b8b83818110610c9357610c9361373e565b9050602002016020810190610ca891906132f6565b612408565b80610cb781613811565b915050610c76565b5050505050505050505050565b84848446604051602001610ce394939291906139e9565b604080517fffffffffffffffffffffffffffffffffffffffffffffffffffffffffffffffe081840301815291905280516020909101208282600080610d2c856106788587613657565b91509150818190610d6a576040517f08c379a00000000000000000000000000000000000000000000000000000000081526004016106bb919061309f565b5060005b83811015610e255760017f255f4a56bd3ad76424e31ed8855ef9ad14a0ce4e67508c76ff082e5c1466b1326000878785818110610dad57610dad61373e565b9050602002810190610dbf919061376d565b604051610dcd9291906137d2565b6040805191829003909120825260208201929092520160002080547fffffffffffffffffffffffffffffffffffffffffffffffffffffffffffffff001691151591909117905580610e1d81613811565b915050610d6e565b506000610e3860a08b0160808c01613a8f565b63ffffffff1611610ecb576040517f08c379a000000000000000000000000000000000000000000000000000000000815260206004820152603260248201527f45786563757465526571756573745065726d697373696f6e2e6d61784578656360448201527f75746573206d757374206e6f742062652030000000000000000000000000000060648201526084016106bb565b887fa7c6065f73528a079b6bd396854cfc70d8b5a045d4821e6db173081678a527656000610efc60208e018e6132f6565b8d6020016020810190610f0f91906132f6565b8e604001358f8060600190610f24919061376d565b604051602001610f389594939291906138fb565b6040516020818303038152906040528051906020012081526020019081526020016000208181610f689190613ab9565b505050505050505050505050565b606060008267ffffffffffffffff811115610f9357610f936135d9565b604051908082528060200260200182016040528015610fc657816020015b6060815260200190600190039081610fb15790505b50905060005b8381101561102b57610ffb858583818110610fe957610fe961373e565b90506020028101906105579190613849565b82828151811061100d5761100d61373e565b6020026020010181905250808061102390613811565b915050610fcc565b5090505b92915050565b6040805160208101869052908101849052466060820152608001604080517fffffffffffffffffffffffffffffffffffffffffffffffffffffffffffffffe081840301815291905280516020909101208282600080611098856106788587613657565b915091508181906110d6576040517f08c379a00000000000000000000000000000000000000000000000000000000081526004016106bb919061309f565b5060005b838110156111915760017f255f4a56bd3ad76424e31ed8855ef9ad14a0ce4e67508c76ff082e5c1466b13260008787858181106111195761111961373e565b905060200281019061112b919061376d565b6040516111399291906137d2565b6040805191829003909120825260208201929092520160002080547fffffffffffffffffffffffffffffffffffffffffffffffffffffffffffffff00169115159190911790558061118981613811565b9150506110da565b5060007f255f4a56bd3ad76424e31ed8855ef9ad14a0ce4e67508c76ff082e5c1466b12f5411801561120557507f255f4a56bd3ad76424e31ed8855ef9ad14a0ce4e67508c76ff082e5c1466b130547f255f4a56bd3ad76424e31ed8855ef9ad14a0ce4e67508c76ff082e5c1466b12f5411155b61126b576040517f08c379a000000000000000000000000000000000000000000000000000000000815260206004820152601160248201527f496e76616c6964207468726573686f6c6400000000000000000000000000000060448201526064016106bb565b887f255f4a56bd3ad76424e31ed8855ef9ad14a0ce4e67508c76ff082e5c1466b12f55505050505050505050565b6040805173ffffffffffffffffffffffffffffffffffffffff86166020820152908101849052466060820152608001604080517fffffffffffffffffffffffffffffffffffffffffffffffffffffffffffffffe081840301815291905280516020909101208282600080611311856106788587613657565b9150915081819061134f576040517f08c379a00000000000000000000000000000000000000000000000000000000081526004016106bb919061309f565b5060005b8381101561140a5760017f255f4a56bd3ad76424e31ed8855ef9ad14a0ce4e67508c76ff082e5c1466b13260008787858181106113925761139261373e565b90506020028101906113a4919061376d565b6040516113b29291906137d2565b6040805191829003909120825260208201929092520160002080547fffffffffffffffffffffffffffffffffffffffffffffffffffffffffffffff00169115159190911790558061140281613811565b915050611353565b508873ffffffffffffffffffffffffffffffffffffffff1663fec5c09a6040518163ffffffff1660e01b8152600401602060405180830381865afa158015611456573d6000803e3d6000fd5b505050506040513d601f19601f8201168201806040525081019061147a9190613c5d565b6114e0576040517f08c379a000000000000000000000000000000000000000000000000000000000815260206004820152601660248201527f496e76616c696420696d706c656d656e746174696f6e0000000000000000000060448201526064016106bb565b883055505050505050505050565b60608346604051602001611503929190613c7f565b604080517fffffffffffffffffffffffffffffffffffffffffffffffffffffffffffffffe08184030181529190528051602090910120838360008061154c856106788587613657565b9150915081819061158a576040517f08c379a00000000000000000000000000000000000000000000000000000000081526004016106bb919061309f565b5060005b838110156116455760017f255f4a56bd3ad76424e31ed8855ef9ad14a0ce4e67508c76ff082e5c1466b13260008787858181106115cd576115cd61373e565b90506020028101906115df919061376d565b6040516115ed9291906137d2565b6040805191829003909120825260208201929092520160002080547fffffffffffffffffffffffffffffffffffffffffffffffffffffffffffffff00169115159190911790558061163d81613811565b91505061158e565b5061164f896121d0565b9998505050505050505050565b86868686864660405160200161167796959493929190613ca1565b604080517fffffffffffffffffffffffffffffffffffffffffffffffffffffffffffffffe0818403018152919052805160209091012082826000806116c0856106788587613657565b915091508181906116fe576040517f08c379a00000000000000000000000000000000000000000000000000000000081526004016106bb919061309f565b5060005b838110156117b95760017f255f4a56bd3ad76424e31ed8855ef9ad14a0ce4e67508c76ff082e5c1466b13260008787858181106117415761174161373e565b9050602002810190611753919061376d565b6040516117619291906137d2565b6040805191829003909120825260208201929092520160002080547fffffffffffffffffffffffffffffffffffffffffffffffffffffffffffffff0016911515919091179055806117b181613811565b915050611702565b5060005b8b81101561181f5761180d8d8d838181106117da576117da61373e565b90506020020160208101906117ef91906132f6565b8c8c848181106118015761180161373e565b905060200201356125a2565b8061181781613811565b9150506117bd565b50505050505050505050505050565b7f8480f6681de262f06542a42e126de05ebaca6a167394778f7693338ddb42e1b45460ff16156118ba576040517f08c379a000000000000000000000000000000000000000000000000000000000815260206004820152601360248201527f416c726561647920696e697469616c697a65640000000000000000000000000060448201526064016106bb565b6118c58160016125a2565b507f8480f6681de262f06542a42e126de05ebaca6a167394778f7693338ddb42e1b480547fffffffffffffffffffffffffffffffffffffffffffffffffffffffffffffff00166001179055565b6040805173ffffffffffffffffffffffffffffffffffffffff871660208201529081018590526060810184905246608082015260a001604080517fffffffffffffffffffffffffffffffffffffffffffffffffffffffffffffffe081840301815291905280516020909101208282600080611991856106788587613657565b915091508181906119cf576040517f08c379a00000000000000000000000000000000000000000000000000000000081526004016106bb919061309f565b5060005b83811015611a8a5760017f255f4a56bd3ad76424e31ed8855ef9ad14a0ce4e67508c76ff082e5c1466b1326000878785818110611a1257611a1261373e565b9050602002810190611a24919061376d565b604051611a329291906137d2565b6040805191829003909120825260208201929092520160002080547fffffffffffffffffffffffffffffffffffffffffffffffffffffffffffffff001691151591909117905580611a8281613811565b9150506119d3565b5073ffffffffffffffffffffffffffffffffffffffff8a1660009081527f255f4a56bd3ad76424e31ed8855ef9ad14a0ce4e67508c76ff082e5c1466b13160205260409020547f255f4a56bd3ad76424e31ed8855ef9ad14a0ce4e67508c76ff082e5c1466b130548a91611afd91613d18565b611b079190613d2b565b7f255f4a56bd3ad76424e31ed8855ef9ad14a0ce4e67508c76ff082e5c1466b13081905515801590611b7b57507f255f4a56bd3ad76424e31ed8855ef9ad14a0ce4e67508c76ff082e5c1466b12f547f255f4a56bd3ad76424e31ed8855ef9ad14a0ce4e67508c76ff082e5c1466b1305410155b611be1576040517f08c379a000000000000000000000000000000000000000000000000000000000815260206004820152601d60248201527f5468726573686f6c6420776f756c6420626520696d706f737369626c6500000060448201526064016106bb565b5050505073ffffffffffffffffffffffffffffffffffffffff9590951660009081527f255f4a56bd3ad76424e31ed8855ef9ad14a0ce4e67508c76ff082e5c1466b131602052604090209390935550505050565b60606000611c433384612624565b80549091507801000000000000000000000000000000000000000000000000900463ffffffff16600003611c7f57611c7c600084612624565b90505b80547801000000000000000000000000000000000000000000000000900463ffffffff16611d09576040517f08c379a000000000000000000000000000000000000000000000000000000000815260206004820152601760248201527f457865637574696f6e206e6f74207065726d697474656400000000000000000060448201526064016106bb565b805467ffffffffffffffff161580611d2c5750805467ffffffffffffffff164210155b611d92576040517f08c379a000000000000000000000000000000000000000000000000000000000815260206004820152601460248201527f457865637574696f6e2074696d656c6f636b656400000000000000000000000060448201526064016106bb565b805468010000000000000000900467ffffffffffffffff161580611dcf57508054700100000000000000000000000000000000900463ffffffff16155b80611e1f57508054611e1190700100000000000000000000000000000000810463ffffffff169068010000000000000000900467ffffffffffffffff16613d3e565b67ffffffffffffffff164210155b611e85576040517f08c379a000000000000000000000000000000000000000000000000000000000815260206004820152601860248201527f457865637574696f6e20696e74657276616c20756e6d6574000000000000000060448201526064016106bb565b805463ffffffff780100000000000000000000000000000000000000000000000082048116740100000000000000000000000000000000000000009092041610611f2b576040517f08c379a000000000000000000000000000000000000000000000000000000000815260206004820152601660248201527f4d617820657865637574696f6e7320726561636865640000000000000000000060448201526064016106bb565b80546001908290601490611f5e90849074010000000000000000000000000000000000000000900463ffffffff16613d66565b82546101009290920a63ffffffff8181021990931691909216919091021790555080547fffffffffffffffffffffffffffffffff0000000000000000ffffffffffffffff16680100000000000000004267ffffffffffffffff1602178155610884836121d0565b600060606000805b8451811015612164576000611ffb87878481518110611fee57611fee61373e565b60200260200101516126a9565b73ffffffffffffffffffffffffffffffffffffffff811660009081527f255f4a56bd3ad76424e31ed8855ef9ad14a0ce4e67508c76ff082e5c1466b13160205260408120549192500361206f576000604051806060016040528060328152602001613e4760329139945094505050506121c9565b60008683815181106120835761208361373e565b60200260200101518051906020012090506120bb7f255f4a56bd3ad76424e31ed8855ef9ad14a0ce4e67508c76ff082e5c1466b12f90565b6000828152600391909101602052604090205460ff16156120fe576000604051806060016040528060238152602001613e796023913995509550505050506121c9565b73ffffffffffffffffffffffffffffffffffffffff821660009081527f255f4a56bd3ad76424e31ed8855ef9ad14a0ce4e67508c76ff082e5c1466b131602052604090205461214d9085613d2b565b93505050808061215c90613811565b915050611fcd565b507f255f4a56bd3ad76424e31ed8855ef9ad14a0ce4e67508c76ff082e5c1466b12f548110156121b3576000604051806060016040528060268152602001613e216026913992509250506121c9565b5050604080516020810190915260008152600191505b9250929050565b60606000806121e260208501856132f6565b73ffffffffffffffffffffffffffffffffffffffff16602085013561220a606087018761376d565b6040516122189291906137d2565b60006040518083038185875af1925050503d8060008114612255576040519150601f19603f3d011682016040523d82523d6000602084013e61225a565b606091505b50915091508161088457805160208201fd5b6000612279604183613db2565b15612306576040517f08c379a000000000000000000000000000000000000000000000000000000000815260206004820152602960248201527f556e6578706563746564207061636b61676564207369676e617475726520627960448201527f7465206c656e677468000000000000000000000000000000000000000000000060648201526084016106bb565b6000612313604184613dc6565b905060008167ffffffffffffffff811115612330576123306135d9565b60405190808252806020026020018201604052801561236357816020015b606081526020019060019003908161234e5790505b50905060005b828110156123ef576123bf61237f604183613dda565b604080516020601f8a018190048102820181019092528881526041918a908a908190840183828082843760009201919091525092949392505061270c9050565b8282815181106123d1576123d161373e565b602002602001018190525080806123e790613811565b915050612369565b5060006123fc8783611fc5565b50979650505050505050565b73ffffffffffffffffffffffffffffffffffffffff811660009081527f255f4a56bd3ad76424e31ed8855ef9ad14a0ce4e67508c76ff082e5c1466b13160205260408120547f255f4a56bd3ad76424e31ed8855ef9ad14a0ce4e67508c76ff082e5c1466b13080549192909161247f908490613d18565b90915550507f255f4a56bd3ad76424e31ed8855ef9ad14a0ce4e67508c76ff082e5c1466b13054158015906124f657507f255f4a56bd3ad76424e31ed8855ef9ad14a0ce4e67508c76ff082e5c1466b12f547f255f4a56bd3ad76424e31ed8855ef9ad14a0ce4e67508c76ff082e5c1466b1305410155b61255c576040517f08c379a000000000000000000000000000000000000000000000000000000000815260206004820152601d60248201527f5468726573686f6c6420776f756c6420626520696d706f737369626c6500000060448201526064016106bb565b73ffffffffffffffffffffffffffffffffffffffff1660009081527f255f4a56bd3ad76424e31ed8855ef9ad14a0ce4e67508c76ff082e5c1466b1316020526040812055565b807f255f4a56bd3ad76424e31ed8855ef9ad14a0ce4e67508c76ff082e5c1466b12f60010160008282546125d69190613d2b565b909155505073ffffffffffffffffffffffffffffffffffffffff9190911660009081527f255f4a56bd3ad76424e31ed8855ef9ad14a0ce4e67508c76ff082e5c1466b1316020526040902055565b60007fa7c6065f73528a079b6bd396854cfc70d8b5a045d4821e6db173081678a5276560008461265760208601866132f6565b6020860135612669606088018861376d565b60405160200161267d9594939291906138fb565b604051602081830303815290604052805190602001208152602001908152602001600020905092915050565b600061088482612706856040517f19457468657265756d205369676e6564204d6573736167653a0a3332000000006020820152603c8101829052600090605c01604051602081830303815290604052805190602001209050919050565b90612886565b60608161271a81601f613d2b565b1015612782576040517f08c379a000000000000000000000000000000000000000000000000000000000815260206004820152600e60248201527f736c6963655f6f766572666c6f7700000000000000000000000000000000000060448201526064016106bb565b61278c8284613d2b565b845110156127f6576040517f08c379a000000000000000000000000000000000000000000000000000000000815260206004820152601160248201527f736c6963655f6f75744f66426f756e647300000000000000000000000000000060448201526064016106bb565b606082158015612815576040519150600082526020820160405261287d565b6040519150601f8416801560200281840101858101878315602002848b0101015b8183101561284e578051835260209283019201612836565b5050858452601f017fffffffffffffffffffffffffffffffffffffffffffffffffffffffffffffffe016604052505b50949350505050565b600080600061289585856128a2565b9150915061102b816128e4565b60008082516041036128d85760208301516040840151606085015160001a6128cc87828585612a9a565b945094505050506121c9565b506000905060026121c9565b60008160048111156128f8576128f8613df1565b036129005750565b600181600481111561291457612914613df1565b0361297b576040517f08c379a000000000000000000000000000000000000000000000000000000000815260206004820152601860248201527f45434453413a20696e76616c6964207369676e6174757265000000000000000060448201526064016106bb565b600281600481111561298f5761298f613df1565b036129f6576040517f08c379a000000000000000000000000000000000000000000000000000000000815260206004820152601f60248201527f45434453413a20696e76616c6964207369676e6174757265206c656e6774680060448201526064016106bb565b6003816004811115612a0a57612a0a613df1565b03612a97576040517f08c379a000000000000000000000000000000000000000000000000000000000815260206004820152602260248201527f45434453413a20696e76616c6964207369676e6174757265202773272076616c60448201527f756500000000000000000000000000000000000000000000000000000000000060648201526084016106bb565b50565b6000807f7fffffffffffffffffffffffffffffff5d576e7357a4501ddfe92f46681b20a0831115612ad15750600090506003612b80565b6040805160008082526020820180845289905260ff881692820192909252606081018690526080810185905260019060a0016020604051602081039080840390855afa158015612b25573d6000803e3d6000fd5b50506040517fffffffffffffffffffffffffffffffffffffffffffffffffffffffffffffffe0015191505073ffffffffffffffffffffffffffffffffffffffff8116612b7957600060019250925050612b80565b9150600090505b94509492505050565b600060208284031215612b9b57600080fd5b81357fffffffff000000000000000000000000000000000000000000000000000000008116811461088457600080fd5b60008083601f840112612bdd57600080fd5b50813567ffffffffffffffff811115612bf557600080fd5b6020830191508360208260051b85010111156121c957600080fd5b60008060008060408587031215612c2657600080fd5b843567ffffffffffffffff80821115612c3e57600080fd5b612c4a88838901612bcb565b90965094506020870135915080821115612c6357600080fd5b50612c7087828801612bcb565b95989497509550505050565b6000815180845260005b81811015612ca257602081850181015186830182015201612c86565b5060006020828601015260207fffffffffffffffffffffffffffffffffffffffffffffffffffffffffffffffe0601f83011685010191505092915050565b6000602080830181845280855180835260408601915060408160051b870101925083870160005b82811015612d53577fffffffffffffffffffffffffffffffffffffffffffffffffffffffffffffffc0888603018452612d41858351612c7c565b94509285019290850190600101612d07565b5092979650505050505050565b803573ffffffffffffffffffffffffffffffffffffffff81168114612d8457600080fd5b919050565b60008083601f840112612d9b57600080fd5b50813567ffffffffffffffff811115612db357600080fd5b6020830191508360208285010111156121c957600080fd5b600080600080600060808688031215612de357600080fd5b612dec86612d60565b9450612dfa60208701612d60565b935060408601359250606086013567ffffffffffffffff811115612e1d57600080fd5b612e2988828901612d89565b969995985093965092949392505050565b600080600060408486031215612e4f57600080fd5b83359250602084013567ffffffffffffffff811115612e6d57600080fd5b612e7986828701612d89565b9497909650939450505050565b600060808284031215612e9857600080fd5b50919050565b60008060008060608587031215612eb457600080fd5b843567ffffffffffffffff80821115612ecc57600080fd5b612ed888838901612e86565b9550602087013594506040870135915080821115612c6357600080fd5b60008060008060408587031215612f0b57600080fd5b843567ffffffffffffffff80821115612f2357600080fd5b612f2f88838901612d89565b90965094506020870135915080821115612f4857600080fd5b50612c7087828801612d89565b600080600080600060608688031215612f6d57600080fd5b853567ffffffffffffffff80821115612f8557600080fd5b612f9189838a01612bcb565b9097509550602088013594506040880135915080821115612fb157600080fd5b50612e2988828901612bcb565b6000806000806000858703610100811215612fd857600080fd5b863567ffffffffffffffff80821115612ff057600080fd5b612ffc8a838b01612e86565b975060a07fffffffffffffffffffffffffffffffffffffffffffffffffffffffffffffffe08401121561302e57600080fd5b60208901965060c0890135955060e089013592508083111561304f57600080fd5b5050612e2988828901612bcb565b6000806020838503121561307057600080fd5b823567ffffffffffffffff81111561308757600080fd5b61309385828601612bcb565b90969095509350505050565b6020815260006108846020830184612c7c565b600080600080606085870312156130c857600080fd5b8435935060208501359250604085013567ffffffffffffffff8111156130ed57600080fd5b612c7087828801612bcb565b6000806000806060858703121561310f57600080fd5b61311885612d60565b935060208501359250604085013567ffffffffffffffff8111156130ed57600080fd5b60008060006040848603121561315057600080fd5b833567ffffffffffffffff8082111561316857600080fd5b61317487838801612e86565b9450602086013591508082111561318a57600080fd5b50612e7986828701612bcb565b60008060008060008060006080888a0312156131b257600080fd5b873567ffffffffffffffff808211156131ca57600080fd5b6131d68b838c01612bcb565b909950975060208a01359150808211156131ef57600080fd5b6131fb8b838c01612bcb565b909750955060408a0135945060608a013591508082111561321b57600080fd5b506132288a828b01612bcb565b989b979a50959850939692959293505050565b60008060008060008060008060a0898b03121561325757600080fd5b61326089612d60565b975061326e60208a01612d60565b9650604089013567ffffffffffffffff8082111561328b57600080fd5b6132978c838d01612bcb565b909850965060608b01359150808211156132b057600080fd5b6132bc8c838d01612bcb565b909650945060808b01359150808211156132d557600080fd5b506132e28b828c01612d89565b999c989b5096995094979396929594505050565b60006020828403121561330857600080fd5b61088482612d60565b60008060008060006080868803121561332957600080fd5b61333286612d60565b94506020860135935060408601359250606086013567ffffffffffffffff81111561335c57600080fd5b612e2988828901612bcb565b60006020828403121561337a57600080fd5b813567ffffffffffffffff81111561339157600080fd5b610b1184828501612e86565b60008060008060008060a087890312156133b657600080fd5b6133bf87612d60565b95506133cd60208801612d60565b94506040870135935060608701359250608087013567ffffffffffffffff8111156133f757600080fd5b61340389828a01612d89565b979a9699509497509295939492505050565b60008083357fffffffffffffffffffffffffffffffffffffffffffffffffffffffffffffffe184360301811261344a57600080fd5b830160208101925035905067ffffffffffffffff81111561346a57600080fd5b8036038213156121c957600080fd5b8183528181602085013750600060208284010152600060207fffffffffffffffffffffffffffffffffffffffffffffffffffffffffffffffe0601f840116840101905092915050565b73ffffffffffffffffffffffffffffffffffffffff6134e082612d60565b168252602081013560208301526040810135604083015260006135066060830183613415565b6080606086015261351b608086018284613479565b95945050505050565b6040808252810183905260006060600585901b830181019083018683805b888110156135c4577fffffffffffffffffffffffffffffffffffffffffffffffffffffffffffffffa087860301845282357fffffffffffffffffffffffffffffffffffffffffffffffffffffffffffffff818b36030181126135a2578283fd5b6135ae868c83016134c2565b9550506020938401939290920191600101613542565b50505050602092909201929092529392505050565b7f4e487b7100000000000000000000000000000000000000000000000000000000600052604160045260246000fd5b604051601f82017fffffffffffffffffffffffffffffffffffffffffffffffffffffffffffffffe016810167ffffffffffffffff8111828210171561364f5761364f6135d9565b604052919050565b600067ffffffffffffffff80841115613672576136726135d9565b8360051b6020613683818301613608565b86815291850191818101903684111561369b57600080fd5b865b848110156123fc578035868111156136b55760008081fd5b8801601f36818301126136c85760008081fd5b8135888111156136da576136da6135d9565b613709877fffffffffffffffffffffffffffffffffffffffffffffffffffffffffffffffe08484011601613608565b915080825236878285010111156137205760008081fd5b8087840188840137600090820187015284525091830191830161369d565b7f4e487b7100000000000000000000000000000000000000000000000000000000600052603260045260246000fd5b60008083357fffffffffffffffffffffffffffffffffffffffffffffffffffffffffffffffe18436030181126137a257600080fd5b83018035915067ffffffffffffffff8211156137bd57600080fd5b6020019150368190038213156121c957600080fd5b8183823760009101908152919050565b7f4e487b7100000000000000000000000000000000000000000000000000000000600052601160045260246000fd5b60007fffffffffffffffffffffffffffffffffffffffffffffffffffffffffffffffff8203613842576138426137e2565b5060010190565b600082357fffffffffffffffffffffffffffffffffffffffffffffffffffffffffffffff8183360301811261387d57600080fd5b9190910192915050565b600073ffffffffffffffffffffffffffffffffffffffff806138a884612d60565b168452806138b860208501612d60565b16602085015250604082013560408401526135066060830183613415565b6060815260006138e96060830186613887565b60208301949094525060400152919050565b600073ffffffffffffffffffffffffffffffffffffffff80881683528087166020840152508460408301526080606083015261393b608083018486613479565b979650505050505050565b8183526000602080850194508260005b8581101561398f5773ffffffffffffffffffffffffffffffffffffffff61397c83612d60565b1687529582019590820190600101613956565b509495945050505050565b6060815260006139ae606083018688613946565b6020830194909452506040015292915050565b67ffffffffffffffff81168114612a9757600080fd5b63ffffffff81168114612a9757600080fd5b60006101008083526139fd81840188613887565b9150508435613a0b816139c1565b67ffffffffffffffff808216602085015260208701359150613a2c826139c1565b16604083810191909152850135613a42816139d7565b63ffffffff808216606085015260608701359150613a5f826139d7565b808216608085015260808701359150613a77826139d7565b1660a083015260c082019390935260e0015292915050565b600060208284031215613aa157600080fd5b8135610884816139d7565b6000813561102f816139d7565b8135613ac4816139c1565b67ffffffffffffffff811690508154817fffffffffffffffffffffffffffffffffffffffffffffffff000000000000000082161783556020840135613b08816139c1565b6fffffffffffffffff00000000000000008160401b16905080837fffffffffffffffffffffffffffffffff000000000000000000000000000000008416171784556040850135613b57816139d7565b73ffffffff000000000000000000000000000000008160801b169050837fffffffffffffffffffffffff000000000000000000000000000000000000000084161793508084831717855560608601359250613bb1836139d7565b77ffffffff00000000000000000000000000000000000000008360a01b167fffffffffffffffff00000000ffffffffffffffffffffffffffffffffffffffff85168317821717855550505050613c59613c0c60808401613aac565b82547fffffffff00000000ffffffffffffffffffffffffffffffffffffffffffffffff1660c09190911b7bffffffff00000000000000000000000000000000000000000000000016178255565b5050565b600060208284031215613c6f57600080fd5b8151801515811461088457600080fd5b604081526000613c9260408301856134c2565b90508260208301529392505050565b608081526000613cb560808301888a613946565b82810360208401528581527f07ffffffffffffffffffffffffffffffffffffffffffffffffffffffffffffff861115613ced57600080fd5b8560051b80886020840137604084019590955260609092019290925290910160200195945050505050565b8181038181111561102f5761102f6137e2565b8082018082111561102f5761102f6137e2565b67ffffffffffffffff818116838216019080821115613d5f57613d5f6137e2565b5092915050565b63ffffffff818116838216019080821115613d5f57613d5f6137e2565b7f4e487b7100000000000000000000000000000000000000000000000000000000600052601260045260246000fd5b600082613dc157613dc1613d83565b500690565b600082613dd557613dd5613d83565b500490565b808202811582820484141761102f5761102f6137e2565b7f4e487b7100000000000000000000000000000000000000000000000000000000600052602160045260246000fdfe5369676e6572207765696768747320646f6573206e6f74206d656574207468726573686f6c644174206c65617374206f6e65207369676e6174757265206e6f742066726f6d2061206b6e6f776e20636f6e74726f6c6c65724174206c65617374206f6e65207369676e617475726520616c72656164792075736564a2646970667358221220d6a0360bae5be69ef94669c833c0e913c2a6168c6273ed9937edb7d4283a78c964736f6c63430008120033",
  "linkReferences": {},
  "deployedLinkReferences": {}
}