{
  "_format": "hh-sol-artifact-1",
  "contractName": "Main",
  "sourceName": "contracts/modules/Main/Main.sol",
  "abi": [
    {
      "inputs": [
        {
          "internalType": "address[]",
          "name": "_controllers",
          "type": "address[]"
        },
        {
          "internalType": "uint256[]",
          "name": "_weights",
          "type": "uint256[]"
        },
        {
          "internalType": "uint256",
          "name": "_nonce",
          "type": "uint256"
        },
        {
          "internalType": "bytes[]",
          "name": "_signatures",
          "type": "bytes[]"
        }
      ],
      "name": "addControllers",
      "outputs": [],
      "stateMutability": "nonpayable",
      "type": "function"
    },
    {
      "inputs": [],
      "name": "controlThreshold",
      "outputs": [
        {
          "internalType": "uint256",
          "name": "",
          "type": "uint256"
        }
      ],
      "stateMutability": "view",
      "type": "function"
    },
    {
      "inputs": [
        {
          "internalType": "address",
          "name": "_controller",
          "type": "address"
        }
      ],
      "name": "controllerWeight",
      "outputs": [
        {
          "internalType": "uint256",
          "name": "",
          "type": "uint256"
        }
      ],
      "stateMutability": "view",
      "type": "function"
    },
    {
      "inputs": [],
      "name": "controllersTotalWeight",
      "outputs": [
        {
          "internalType": "uint256",
          "name": "",
          "type": "uint256"
        }
      ],
      "stateMutability": "view",
      "type": "function"
    },
    {
      "inputs": [
        {
          "components": [
            {
              "internalType": "address",
              "name": "target",
              "type": "address"
            },
            {
              "internalType": "uint256",
              "name": "value",
              "type": "uint256"
            },
            {
              "internalType": "uint256",
              "name": "nonce",
              "type": "uint256"
            },
            {
              "internalType": "bytes",
              "name": "data",
              "type": "bytes"
            }
          ],
          "internalType": "struct CallsStructs.ExecuteRequest",
          "name": "_executeRequest",
          "type": "tuple"
        },
        {
          "internalType": "bytes[]",
          "name": "_signatures",
          "type": "bytes[]"
        }
      ],
      "name": "execute",
      "outputs": [
        {
          "internalType": "bytes",
          "name": "",
          "type": "bytes"
        }
      ],
      "stateMutability": "nonpayable",
      "type": "function"
    },
    {
      "inputs": [
        {
          "internalType": "address",
          "name": "_controller",
          "type": "address"
        }
      ],
      "name": "initialize",
      "outputs": [],
      "stateMutability": "nonpayable",
      "type": "function"
    },
    {
      "inputs": [
        {
          "internalType": "bytes32",
          "name": "_hash",
          "type": "bytes32"
        },
        {
          "internalType": "bytes",
          "name": "_signature",
          "type": "bytes"
        }
      ],
      "name": "isValidSignature",
      "outputs": [
        {
          "internalType": "bytes4",
          "name": "magicValue",
          "type": "bytes4"
        }
      ],
      "stateMutability": "view",
      "type": "function"
    },
    {
      "inputs": [
        {
          "internalType": "bytes",
          "name": "_data",
          "type": "bytes"
        },
        {
          "internalType": "bytes",
          "name": "_signature",
          "type": "bytes"
        }
      ],
      "name": "isValidSignature",
      "outputs": [
        {
          "internalType": "bytes4",
          "name": "magicValue",
          "type": "bytes4"
        }
      ],
      "stateMutability": "view",
      "type": "function"
    },
    {
      "inputs": [
        {
          "components": [
            {
              "internalType": "address",
              "name": "target",
              "type": "address"
            },
            {
              "internalType": "uint256",
              "name": "value",
              "type": "uint256"
            },
            {
              "internalType": "uint256",
              "name": "nonce",
              "type": "uint256"
            },
            {
              "internalType": "bytes",
              "name": "data",
              "type": "bytes"
            }
          ],
          "internalType": "struct CallsStructs.ExecuteRequest[]",
          "name": "_executeRequests",
          "type": "tuple[]"
        },
        {
          "internalType": "bytes[]",
          "name": "_signatures",
          "type": "bytes[]"
        }
      ],
      "name": "multiExecute",
      "outputs": [
        {
          "internalType": "bytes[]",
          "name": "",
          "type": "bytes[]"
        }
      ],
      "stateMutability": "nonpayable",
      "type": "function"
    },
    {
      "inputs": [
        {
          "components": [
            {
              "internalType": "address",
              "name": "target",
              "type": "address"
            },
            {
              "internalType": "uint256",
              "name": "value",
              "type": "uint256"
            },
            {
              "internalType": "uint256",
              "name": "nonce",
              "type": "uint256"
            },
            {
              "internalType": "bytes",
              "name": "data",
              "type": "bytes"
            }
          ],
          "internalType": "struct CallsStructs.ExecuteRequest[]",
          "name": "_executeRequests",
          "type": "tuple[]"
        }
      ],
      "name": "multiPermittedExecute",
      "outputs": [
        {
          "internalType": "bytes[]",
          "name": "",
          "type": "bytes[]"
        }
      ],
      "stateMutability": "nonpayable",
      "type": "function"
    },
    {
      "inputs": [
        {
          "internalType": "address",
          "name": "",
          "type": "address"
        },
        {
          "internalType": "address",
          "name": "",
          "type": "address"
        },
        {
          "internalType": "uint256[]",
          "name": "",
          "type": "uint256[]"
        },
        {
          "internalType": "uint256[]",
          "name": "",
          "type": "uint256[]"
        },
        {
          "internalType": "bytes",
          "name": "",
          "type": "bytes"
        }
      ],
      "name": "onERC1155BatchReceived",
      "outputs": [
        {
          "internalType": "bytes4",
          "name": "",
          "type": "bytes4"
        }
      ],
      "stateMutability": "pure",
      "type": "function"
    },
    {
      "inputs": [
        {
          "internalType": "address",
          "name": "",
          "type": "address"
        },
        {
          "internalType": "address",
          "name": "",
          "type": "address"
        },
        {
          "internalType": "uint256",
          "name": "",
          "type": "uint256"
        },
        {
          "internalType": "uint256",
          "name": "",
          "type": "uint256"
        },
        {
          "internalType": "bytes",
          "name": "",
          "type": "bytes"
        }
      ],
      "name": "onERC1155Received",
      "outputs": [
        {
          "internalType": "bytes4",
          "name": "",
          "type": "bytes4"
        }
      ],
      "stateMutability": "pure",
      "type": "function"
    },
    {
      "inputs": [
        {
          "internalType": "address",
          "name": "",
          "type": "address"
        },
        {
          "internalType": "address",
          "name": "",
          "type": "address"
        },
        {
          "internalType": "uint256",
          "name": "",
          "type": "uint256"
        },
        {
          "internalType": "bytes",
          "name": "",
          "type": "bytes"
        }
      ],
      "name": "onERC721Received",
      "outputs": [
        {
          "internalType": "bytes4",
          "name": "",
          "type": "bytes4"
        }
      ],
      "stateMutability": "pure",
      "type": "function"
    },
    {
      "inputs": [
        {
          "components": [
            {
              "internalType": "address",
              "name": "executor",
              "type": "address"
            },
            {
              "internalType": "address",
              "name": "target",
              "type": "address"
            },
            {
              "internalType": "uint256",
              "name": "value",
              "type": "uint256"
            },
            {
              "internalType": "bytes",
              "name": "data",
              "type": "bytes"
            }
          ],
          "internalType": "struct PermissionedCallsStructs.ExecuteRequestPermitted",
          "name": "_executeRequestPermitted",
          "type": "tuple"
        },
        {
          "components": [
            {
              "internalType": "uint64",
              "name": "unlockTimestamp",
              "type": "uint64"
            },
            {
              "internalType": "uint64",
              "name": "lastExecuteTimestamp",
              "type": "uint64"
            },
            {
              "internalType": "uint32",
              "name": "minExecuteInterval",
              "type": "uint32"
            },
            {
              "internalType": "uint32",
              "name": "executeCount",
              "type": "uint32"
            },
            {
              "internalType": "uint32",
              "name": "maxExecutes",
              "type": "uint32"
            }
          ],
          "internalType": "struct PermissionedCallsStructs.ExecuteRequestPermission",
          "name": "_executeRequestPermission",
          "type": "tuple"
        },
        {
          "internalType": "uint256",
          "name": "_nonce",
          "type": "uint256"
        },
        {
          "internalType": "bytes[]",
          "name": "_signatures",
          "type": "bytes[]"
        }
      ],
      "name": "permitExecute",
      "outputs": [],
      "stateMutability": "nonpayable",
      "type": "function"
    },
    {
      "inputs": [
        {
          "components": [
            {
              "internalType": "address",
              "name": "target",
              "type": "address"
            },
            {
              "internalType": "uint256",
              "name": "value",
              "type": "uint256"
            },
            {
              "internalType": "uint256",
              "name": "nonce",
              "type": "uint256"
            },
            {
              "internalType": "bytes",
              "name": "data",
              "type": "bytes"
            }
          ],
          "internalType": "struct CallsStructs.ExecuteRequest",
          "name": "_executeRequest",
          "type": "tuple"
        }
      ],
      "name": "permittedExecute",
      "outputs": [
        {
          "internalType": "bytes",
          "name": "",
          "type": "bytes"
        }
      ],
      "stateMutability": "nonpayable",
      "type": "function"
    },
    {
      "inputs": [
        {
          "internalType": "address[]",
          "name": "_controllers",
          "type": "address[]"
        },
        {
          "internalType": "uint256",
          "name": "_nonce",
          "type": "uint256"
        },
        {
          "internalType": "bytes[]",
          "name": "_signatures",
          "type": "bytes[]"
        }
      ],
      "name": "removeControllers",
      "outputs": [],
      "stateMutability": "nonpayable",
      "type": "function"
    },
    {
      "inputs": [],
      "name": "supportsUpgrades",
      "outputs": [
        {
          "internalType": "bool",
          "name": "",
          "type": "bool"
        }
      ],
      "stateMutability": "pure",
      "type": "function"
    },
    {
      "inputs": [
        {
          "components": [
            {
              "internalType": "address",
              "name": "executor",
              "type": "address"
            },
            {
              "internalType": "address",
              "name": "target",
              "type": "address"
            },
            {
              "internalType": "uint256",
              "name": "value",
              "type": "uint256"
            },
            {
              "internalType": "bytes",
              "name": "data",
              "type": "bytes"
            }
          ],
          "internalType": "struct PermissionedCallsStructs.ExecuteRequestPermitted",
          "name": "_executeRequestPermitted",
          "type": "tuple"
        },
        {
          "internalType": "uint256",
          "name": "_nonce",
          "type": "uint256"
        },
        {
          "internalType": "bytes[]",
          "name": "_signatures",
          "type": "bytes[]"
        }
      ],
      "name": "unpermitExecute",
      "outputs": [],
      "stateMutability": "nonpayable",
      "type": "function"
    },
    {
      "inputs": [
        {
          "internalType": "uint256",
          "name": "_threshold",
          "type": "uint256"
        },
        {
          "internalType": "uint256",
          "name": "_nonce",
          "type": "uint256"
        },
        {
          "internalType": "bytes[]",
          "name": "_signatures",
          "type": "bytes[]"
        }
      ],
      "name": "updateControlThreshold",
      "outputs": [],
      "stateMutability": "nonpayable",
      "type": "function"
    },
    {
      "inputs": [
        {
          "internalType": "address",
          "name": "_controller",
          "type": "address"
        },
        {
          "internalType": "uint256",
          "name": "_weight",
          "type": "uint256"
        },
        {
          "internalType": "uint256",
          "name": "_nonce",
          "type": "uint256"
        },
        {
          "internalType": "bytes[]",
          "name": "_signatures",
          "type": "bytes[]"
        }
      ],
      "name": "updateControllerWeight",
      "outputs": [],
      "stateMutability": "nonpayable",
      "type": "function"
    },
    {
      "inputs": [
        {
          "internalType": "address",
          "name": "_implementation",
          "type": "address"
        },
        {
          "internalType": "uint256",
          "name": "_nonce",
          "type": "uint256"
        },
        {
          "internalType": "bytes[]",
          "name": "_signatures",
          "type": "bytes[]"
        }
      ],
      "name": "upgrade",
      "outputs": [],
      "stateMutability": "nonpayable",
      "type": "function"
    },
    {
      "inputs": [],
      "name": "version",
      "outputs": [
        {
          "internalType": "string",
          "name": "",
          "type": "string"
        }
      ],
      "stateMutability": "view",
      "type": "function"
    },
    {
      "stateMutability": "payable",
      "type": "receive"
    }
  ],
  "bytecode": "0x608060405234801561001057600080fd5b50613e1a806100206000396000f3fe6080604052600436106101795760003560e01c806394c4395b116100cb578063c4d66de81161007f578063f04420f111610059578063f04420f1146104df578063f23a6e6114610541578063fec5c09a1461058757600080fd5b8063c4d66de81461047f578063d0bccea11461049f578063e57db71e146104bf57600080fd5b8063a7865090116100b0578063a7865090146103e3578063af91549814610417578063bc197c811461043757600080fd5b806394c4395b146103a3578063a3e8d51e146103c357600080fd5b806320c13b0b1161012d578063524886d211610107578063524886d21461030d57806354fd4d501461032d57806387f949b41461038357600080fd5b806320c13b0b146102ad578063286936bb146102cd5780632a365cbd146102ed57600080fd5b8063150b7a021161015e578063150b7a02146101f55780631626ba7e1461026b5780631ab085631461028b57600080fd5b806306e82383146101855780630d992b2b146101c857600080fd5b3661018057005b600080fd5b34801561019157600080fd5b507f255f4a56bd3ad76424e31ed8855ef9ad14a0ce4e67508c76ff082e5c1466b130545b6040519081526020015b60405180910390f35b3480156101d457600080fd5b506101e86101e3366004612b59565b6105a3565b6040516101bf9190612c29565b34801561020157600080fd5b5061023a610210366004612d14565b7f150b7a020000000000000000000000000000000000000000000000000000000095945050505050565b6040517fffffffff0000000000000000000000000000000000000000000000000000000090911681526020016101bf565b34801561027757600080fd5b5061023a610286366004612d83565b6107d2565b34801561029757600080fd5b506102ab6102a6366004612de7565b610816565b005b3480156102b957600080fd5b5061023a6102c8366004612e3e565b610a48565b3480156102d957600080fd5b506102ab6102e8366004612e9e565b610aa4565b3480156102f957600080fd5b506102ab610308366004612f07565b610c57565b34801561031957600080fd5b506101e8610328366004612fa6565b610f01565b34801561033957600080fd5b506103766040518060400160405280600b81526020017f616c7068612d312e302e3000000000000000000000000000000000000000000081525081565b6040516101bf9190612fe8565b34801561038f57600080fd5b506102ab61039e366004612ffb565b610fc0565b3480156103af57600080fd5b506102ab6103be366004613042565b611224565b3480156103cf57600080fd5b506103766103de366004613084565b611479565b3480156103ef57600080fd5b507f255f4a56bd3ad76424e31ed8855ef9ad14a0ce4e67508c76ff082e5c1466b12f546101b5565b34801561042357600080fd5b506102ab6104323660046130e0565b6115e7565b34801561044357600080fd5b5061023a610452366004613184565b7fbc197c810000000000000000000000000000000000000000000000000000000098975050505050505050565b34801561048b57600080fd5b506102ab61049a36600461323f565b6117b9565b3480156104ab57600080fd5b506102ab6104ba36600461325a565b61189d565b3480156104cb57600080fd5b506103766104da3660046132b1565b611bc0565b3480156104eb57600080fd5b506101b56104fa36600461323f565b73ffffffffffffffffffffffffffffffffffffffff1660009081527f255f4a56bd3ad76424e31ed8855ef9ad14a0ce4e67508c76ff082e5c1466b131602052604090205490565b34801561054d57600080fd5b5061023a61055c3660046132e6565b7ff23a6e61000000000000000000000000000000000000000000000000000000009695505050505050565b34801561059357600080fd5b50604051600181526020016101bf565b60608484466040516020016105ba9392919061346d565b604080517fffffffffffffffffffffffffffffffffffffffffffffffffffffffffffffffe0818403018152919052805160209091012083836000806106088561060385876135a0565b611f50565b9150915081819061064f576040517f08c379a00000000000000000000000000000000000000000000000000000000081526004016106469190612fe8565b60405180910390fd5b5060005b8381101561070a5760017f255f4a56bd3ad76424e31ed8855ef9ad14a0ce4e67508c76ff082e5c1466b132600087878581811061069257610692613687565b90506020028101906106a491906136b6565b6040516106b292919061371b565b6040805191829003909120825260208201929092520160002080547fffffffffffffffffffffffffffffffffffffffffffffffffffffffffffffff0016911515919091179055806107028161375a565b915050610653565b5060008967ffffffffffffffff81111561072657610726613522565b60405190808252806020026020018201604052801561075957816020015b60608152602001906001900390816107445790505b50905060005b8a8110156107c3576107938c8c8381811061077c5761077c613687565b905060200281019061078e9190613792565b61215b565b8282815181106107a5576107a5613687565b602002602001018190525080806107bb9061375a565b91505061075f565b509a9950505050505050505050565b60006107df8484846121f7565b1561080b57507f1626ba7e0000000000000000000000000000000000000000000000000000000061080f565b5060005b9392505050565b83834660405160200161082b9392919061381f565b604080517fffffffffffffffffffffffffffffffffffffffffffffffffffffffffffffffe0818403018152919052805160209091012082826000806108748561060385876135a0565b915091508181906108b2576040517f08c379a00000000000000000000000000000000000000000000000000000000081526004016106469190612fe8565b5060005b8381101561096d5760017f255f4a56bd3ad76424e31ed8855ef9ad14a0ce4e67508c76ff082e5c1466b13260008787858181106108f5576108f5613687565b905060200281019061090791906136b6565b60405161091592919061371b565b6040805191829003909120825260208201929092520160002080547fffffffffffffffffffffffffffffffffffffffffffffffffffffffffffffff0016911515919091179055806109658161375a565b9150506108b6565b507fa7c6065f73528a079b6bd396854cfc70d8b5a045d4821e6db173081678a52765600061099e60208c018c61323f565b6109ae60408d0160208e0161323f565b60408d01356109c060608f018f6136b6565b6040516020016109d4959493929190613844565b604080517fffffffffffffffffffffffffffffffffffffffffffffffffffffffffffffffe081840301815291815281516020928301208352908201929092520160002080547fffffffff00000000000000000000000000000000000000000000000000000000169055505050505050505050565b6000610a6c8585604051610a5d92919061371b565b604051809103902084846121f7565b15610a9857507f20c13b0b00000000000000000000000000000000000000000000000000000000610a9c565b5060005b949350505050565b84848446604051602001610abb94939291906138e3565b604080517fffffffffffffffffffffffffffffffffffffffffffffffffffffffffffffffe081840301815291905280516020909101208282600080610b048561060385876135a0565b91509150818190610b42576040517f08c379a00000000000000000000000000000000000000000000000000000000081526004016106469190612fe8565b5060005b83811015610bfd5760017f255f4a56bd3ad76424e31ed8855ef9ad14a0ce4e67508c76ff082e5c1466b1326000878785818110610b8557610b85613687565b9050602002810190610b9791906136b6565b604051610ba592919061371b565b6040805191829003909120825260208201929092520160002080547fffffffffffffffffffffffffffffffffffffffffffffffffffffffffffffff001691151591909117905580610bf58161375a565b915050610b46565b5060005b89811015610c4a57610c388b8b83818110610c1e57610c1e613687565b9050602002016020810190610c33919061323f565b612393565b80610c428161375a565b915050610c01565b5050505050505050505050565b84848446604051602001610c6e9493929190613932565b604080517fffffffffffffffffffffffffffffffffffffffffffffffffffffffffffffffe081840301815291905280516020909101208282600080610cb78561060385876135a0565b91509150818190610cf5576040517f08c379a00000000000000000000000000000000000000000000000000000000081526004016106469190612fe8565b5060005b83811015610db05760017f255f4a56bd3ad76424e31ed8855ef9ad14a0ce4e67508c76ff082e5c1466b1326000878785818110610d3857610d38613687565b9050602002810190610d4a91906136b6565b604051610d5892919061371b565b6040805191829003909120825260208201929092520160002080547fffffffffffffffffffffffffffffffffffffffffffffffffffffffffffffff001691151591909117905580610da88161375a565b915050610cf9565b506000610dc360a08b0160808c016139d8565b63ffffffff1611610e56576040517f08c379a000000000000000000000000000000000000000000000000000000000815260206004820152603260248201527f45786563757465526571756573745065726d697373696f6e2e6d61784578656360448201527f75746573206d757374206e6f74206265203000000000000000000000000000006064820152608401610646565b887fa7c6065f73528a079b6bd396854cfc70d8b5a045d4821e6db173081678a527656000610e8760208e018e61323f565b8d6020016020810190610e9a919061323f565b8e604001358f8060600190610eaf91906136b6565b604051602001610ec3959493929190613844565b6040516020818303038152906040528051906020012081526020019081526020016000208181610ef39190613a02565b505050505050505050505050565b606060008267ffffffffffffffff811115610f1e57610f1e613522565b604051908082528060200260200182016040528015610f5157816020015b6060815260200190600190039081610f3c5790505b50905060005b83811015610fb657610f86858583818110610f7457610f74613687565b90506020028101906104da9190613792565b828281518110610f9857610f98613687565b60200260200101819052508080610fae9061375a565b915050610f57565b5090505b92915050565b6040805160208101869052908101849052466060820152608001604080517fffffffffffffffffffffffffffffffffffffffffffffffffffffffffffffffe0818403018152919052805160209091012082826000806110238561060385876135a0565b91509150818190611061576040517f08c379a00000000000000000000000000000000000000000000000000000000081526004016106469190612fe8565b5060005b8381101561111c5760017f255f4a56bd3ad76424e31ed8855ef9ad14a0ce4e67508c76ff082e5c1466b13260008787858181106110a4576110a4613687565b90506020028101906110b691906136b6565b6040516110c492919061371b565b6040805191829003909120825260208201929092520160002080547fffffffffffffffffffffffffffffffffffffffffffffffffffffffffffffff0016911515919091179055806111148161375a565b915050611065565b5060007f255f4a56bd3ad76424e31ed8855ef9ad14a0ce4e67508c76ff082e5c1466b12f5411801561119057507f255f4a56bd3ad76424e31ed8855ef9ad14a0ce4e67508c76ff082e5c1466b130547f255f4a56bd3ad76424e31ed8855ef9ad14a0ce4e67508c76ff082e5c1466b12f5411155b6111f6576040517f08c379a000000000000000000000000000000000000000000000000000000000815260206004820152601160248201527f496e76616c6964207468726573686f6c640000000000000000000000000000006044820152606401610646565b887f255f4a56bd3ad76424e31ed8855ef9ad14a0ce4e67508c76ff082e5c1466b12f55505050505050505050565b6040805173ffffffffffffffffffffffffffffffffffffffff86166020820152908101849052466060820152608001604080517fffffffffffffffffffffffffffffffffffffffffffffffffffffffffffffffe08184030181529190528051602090910120828260008061129c8561060385876135a0565b915091508181906112da576040517f08c379a00000000000000000000000000000000000000000000000000000000081526004016106469190612fe8565b5060005b838110156113955760017f255f4a56bd3ad76424e31ed8855ef9ad14a0ce4e67508c76ff082e5c1466b132600087878581811061131d5761131d613687565b905060200281019061132f91906136b6565b60405161133d92919061371b565b6040805191829003909120825260208201929092520160002080547fffffffffffffffffffffffffffffffffffffffffffffffffffffffffffffff00169115159190911790558061138d8161375a565b9150506112de565b508873ffffffffffffffffffffffffffffffffffffffff1663fec5c09a6040518163ffffffff1660e01b8152600401602060405180830381865afa1580156113e1573d6000803e3d6000fd5b505050506040513d601f19601f820116820180604052508101906114059190613ba6565b61146b576040517f08c379a000000000000000000000000000000000000000000000000000000000815260206004820152601660248201527f496e76616c696420696d706c656d656e746174696f6e000000000000000000006044820152606401610646565b883055505050505050505050565b6060834660405160200161148e929190613bc8565b604080517fffffffffffffffffffffffffffffffffffffffffffffffffffffffffffffffe0818403018152919052805160209091012083836000806114d78561060385876135a0565b91509150818190611515576040517f08c379a00000000000000000000000000000000000000000000000000000000081526004016106469190612fe8565b5060005b838110156115d05760017f255f4a56bd3ad76424e31ed8855ef9ad14a0ce4e67508c76ff082e5c1466b132600087878581811061155857611558613687565b905060200281019061156a91906136b6565b60405161157892919061371b565b6040805191829003909120825260208201929092520160002080547fffffffffffffffffffffffffffffffffffffffffffffffffffffffffffffff0016911515919091179055806115c88161375a565b915050611519565b506115da8961215b565b9998505050505050505050565b86868686864660405160200161160296959493929190613bea565b604080517fffffffffffffffffffffffffffffffffffffffffffffffffffffffffffffffe08184030181529190528051602090910120828260008061164b8561060385876135a0565b91509150818190611689576040517f08c379a00000000000000000000000000000000000000000000000000000000081526004016106469190612fe8565b5060005b838110156117445760017f255f4a56bd3ad76424e31ed8855ef9ad14a0ce4e67508c76ff082e5c1466b13260008787858181106116cc576116cc613687565b90506020028101906116de91906136b6565b6040516116ec92919061371b565b6040805191829003909120825260208201929092520160002080547fffffffffffffffffffffffffffffffffffffffffffffffffffffffffffffff00169115159190911790558061173c8161375a565b91505061168d565b5060005b8b8110156117aa576117988d8d8381811061176557611765613687565b905060200201602081019061177a919061323f565b8c8c8481811061178c5761178c613687565b9050602002013561252d565b806117a28161375a565b915050611748565b50505050505050505050505050565b7f8480f6681de262f06542a42e126de05ebaca6a167394778f7693338ddb42e1b45460ff1615611845576040517f08c379a000000000000000000000000000000000000000000000000000000000815260206004820152601360248201527f416c726561647920696e697469616c697a6564000000000000000000000000006044820152606401610646565b61185081600161252d565b507f8480f6681de262f06542a42e126de05ebaca6a167394778f7693338ddb42e1b480547fffffffffffffffffffffffffffffffffffffffffffffffffffffffffffffff00166001179055565b6040805173ffffffffffffffffffffffffffffffffffffffff871660208201529081018590526060810184905246608082015260a001604080517fffffffffffffffffffffffffffffffffffffffffffffffffffffffffffffffe08184030181529190528051602090910120828260008061191c8561060385876135a0565b9150915081819061195a576040517f08c379a00000000000000000000000000000000000000000000000000000000081526004016106469190612fe8565b5060005b83811015611a155760017f255f4a56bd3ad76424e31ed8855ef9ad14a0ce4e67508c76ff082e5c1466b132600087878581811061199d5761199d613687565b90506020028101906119af91906136b6565b6040516119bd92919061371b565b6040805191829003909120825260208201929092520160002080547fffffffffffffffffffffffffffffffffffffffffffffffffffffffffffffff001691151591909117905580611a0d8161375a565b91505061195e565b5073ffffffffffffffffffffffffffffffffffffffff8a1660009081527f255f4a56bd3ad76424e31ed8855ef9ad14a0ce4e67508c76ff082e5c1466b13160205260409020547f255f4a56bd3ad76424e31ed8855ef9ad14a0ce4e67508c76ff082e5c1466b130548a91611a8891613c61565b611a929190613c74565b7f255f4a56bd3ad76424e31ed8855ef9ad14a0ce4e67508c76ff082e5c1466b13081905515801590611b0657507f255f4a56bd3ad76424e31ed8855ef9ad14a0ce4e67508c76ff082e5c1466b12f547f255f4a56bd3ad76424e31ed8855ef9ad14a0ce4e67508c76ff082e5c1466b1305410155b611b6c576040517f08c379a000000000000000000000000000000000000000000000000000000000815260206004820152601d60248201527f5468726573686f6c6420776f756c6420626520696d706f737369626c650000006044820152606401610646565b5050505073ffffffffffffffffffffffffffffffffffffffff9590951660009081527f255f4a56bd3ad76424e31ed8855ef9ad14a0ce4e67508c76ff082e5c1466b131602052604090209390935550505050565b60606000611bce33846125af565b80549091507801000000000000000000000000000000000000000000000000900463ffffffff16600003611c0a57611c076000846125af565b90505b80547801000000000000000000000000000000000000000000000000900463ffffffff16611c94576040517f08c379a000000000000000000000000000000000000000000000000000000000815260206004820152601760248201527f457865637574696f6e206e6f74207065726d69747465640000000000000000006044820152606401610646565b805467ffffffffffffffff161580611cb75750805467ffffffffffffffff164210155b611d1d576040517f08c379a000000000000000000000000000000000000000000000000000000000815260206004820152601460248201527f457865637574696f6e2074696d656c6f636b65640000000000000000000000006044820152606401610646565b805468010000000000000000900467ffffffffffffffff161580611d5a57508054700100000000000000000000000000000000900463ffffffff16155b80611daa57508054611d9c90700100000000000000000000000000000000810463ffffffff169068010000000000000000900467ffffffffffffffff16613c87565b67ffffffffffffffff164210155b611e10576040517f08c379a000000000000000000000000000000000000000000000000000000000815260206004820152601860248201527f457865637574696f6e20696e74657276616c20756e6d657400000000000000006044820152606401610646565b805463ffffffff780100000000000000000000000000000000000000000000000082048116740100000000000000000000000000000000000000009092041610611eb6576040517f08c379a000000000000000000000000000000000000000000000000000000000815260206004820152601660248201527f4d617820657865637574696f6e732072656163686564000000000000000000006044820152606401610646565b80546001908290601490611ee990849074010000000000000000000000000000000000000000900463ffffffff16613caf565b82546101009290920a63ffffffff8181021990931691909216919091021790555080547fffffffffffffffffffffffffffffffff0000000000000000ffffffffffffffff16680100000000000000004267ffffffffffffffff160217815561080f8361215b565b600060606000805b84518110156120ef576000611f8687878481518110611f7957611f79613687565b6020026020010151612634565b73ffffffffffffffffffffffffffffffffffffffff811660009081527f255f4a56bd3ad76424e31ed8855ef9ad14a0ce4e67508c76ff082e5c1466b131602052604081205491925003611ffa576000604051806060016040528060328152602001613d906032913994509450505050612154565b600086838151811061200e5761200e613687565b60200260200101518051906020012090506120467f255f4a56bd3ad76424e31ed8855ef9ad14a0ce4e67508c76ff082e5c1466b12f90565b6000828152600391909101602052604090205460ff1615612089576000604051806060016040528060238152602001613dc2602391399550955050505050612154565b73ffffffffffffffffffffffffffffffffffffffff821660009081527f255f4a56bd3ad76424e31ed8855ef9ad14a0ce4e67508c76ff082e5c1466b13160205260409020546120d89085613c74565b9350505080806120e79061375a565b915050611f58565b507f255f4a56bd3ad76424e31ed8855ef9ad14a0ce4e67508c76ff082e5c1466b12f5481101561213e576000604051806060016040528060268152602001613d6a602691399250925050612154565b5050604080516020810190915260008152600191505b9250929050565b606060008061216d602085018561323f565b73ffffffffffffffffffffffffffffffffffffffff16602085013561219560608701876136b6565b6040516121a392919061371b565b60006040518083038185875af1925050503d80600081146121e0576040519150601f19603f3d011682016040523d82523d6000602084013e6121e5565b606091505b50915091508161080f57805160208201fd5b6000612204604183613cfb565b15612291576040517f08c379a000000000000000000000000000000000000000000000000000000000815260206004820152602960248201527f556e6578706563746564207061636b61676564207369676e617475726520627960448201527f7465206c656e67746800000000000000000000000000000000000000000000006064820152608401610646565b600061229e604184613d0f565b905060008167ffffffffffffffff8111156122bb576122bb613522565b6040519080825280602002602001820160405280156122ee57816020015b60608152602001906001900390816122d95790505b50905060005b8281101561237a5761234a61230a604183613d23565b604080516020601f8a018190048102820181019092528881526041918a908a90819084018382808284376000920191909152509294939250506126979050565b82828151811061235c5761235c613687565b602002602001018190525080806123729061375a565b9150506122f4565b5060006123878783611f50565b50979650505050505050565b73ffffffffffffffffffffffffffffffffffffffff811660009081527f255f4a56bd3ad76424e31ed8855ef9ad14a0ce4e67508c76ff082e5c1466b13160205260408120547f255f4a56bd3ad76424e31ed8855ef9ad14a0ce4e67508c76ff082e5c1466b13080549192909161240a908490613c61565b90915550507f255f4a56bd3ad76424e31ed8855ef9ad14a0ce4e67508c76ff082e5c1466b130541580159061248157507f255f4a56bd3ad76424e31ed8855ef9ad14a0ce4e67508c76ff082e5c1466b12f547f255f4a56bd3ad76424e31ed8855ef9ad14a0ce4e67508c76ff082e5c1466b1305410155b6124e7576040517f08c379a000000000000000000000000000000000000000000000000000000000815260206004820152601d60248201527f5468726573686f6c6420776f756c6420626520696d706f737369626c650000006044820152606401610646565b73ffffffffffffffffffffffffffffffffffffffff1660009081527f255f4a56bd3ad76424e31ed8855ef9ad14a0ce4e67508c76ff082e5c1466b1316020526040812055565b807f255f4a56bd3ad76424e31ed8855ef9ad14a0ce4e67508c76ff082e5c1466b12f60010160008282546125619190613c74565b909155505073ffffffffffffffffffffffffffffffffffffffff9190911660009081527f255f4a56bd3ad76424e31ed8855ef9ad14a0ce4e67508c76ff082e5c1466b1316020526040902055565b60007fa7c6065f73528a079b6bd396854cfc70d8b5a045d4821e6db173081678a527656000846125e2602086018661323f565b60208601356125f460608801886136b6565b604051602001612608959493929190613844565b604051602081830303815290604052805190602001208152602001908152602001600020905092915050565b600061080f82612691856040517f19457468657265756d205369676e6564204d6573736167653a0a3332000000006020820152603c8101829052600090605c01604051602081830303815290604052805190602001209050919050565b90612811565b6060816126a581601f613c74565b101561270d576040517f08c379a000000000000000000000000000000000000000000000000000000000815260206004820152600e60248201527f736c6963655f6f766572666c6f770000000000000000000000000000000000006044820152606401610646565b6127178284613c74565b84511015612781576040517f08c379a000000000000000000000000000000000000000000000000000000000815260206004820152601160248201527f736c6963655f6f75744f66426f756e64730000000000000000000000000000006044820152606401610646565b6060821580156127a05760405191506000825260208201604052612808565b6040519150601f8416801560200281840101858101878315602002848b0101015b818310156127d95780518352602092830192016127c1565b5050858452601f017fffffffffffffffffffffffffffffffffffffffffffffffffffffffffffffffe016604052505b50949350505050565b6000806000612820858561282d565b91509150610fb68161286f565b60008082516041036128635760208301516040840151606085015160001a61285787828585612a25565b94509450505050612154565b50600090506002612154565b600081600481111561288357612883613d3a565b0361288b5750565b600181600481111561289f5761289f613d3a565b03612906576040517f08c379a000000000000000000000000000000000000000000000000000000000815260206004820152601860248201527f45434453413a20696e76616c6964207369676e617475726500000000000000006044820152606401610646565b600281600481111561291a5761291a613d3a565b03612981576040517f08c379a000000000000000000000000000000000000000000000000000000000815260206004820152601f60248201527f45434453413a20696e76616c6964207369676e6174757265206c656e677468006044820152606401610646565b600381600481111561299557612995613d3a565b03612a22576040517f08c379a000000000000000000000000000000000000000000000000000000000815260206004820152602260248201527f45434453413a20696e76616c6964207369676e6174757265202773272076616c60448201527f75650000000000000000000000000000000000000000000000000000000000006064820152608401610646565b50565b6000807f7fffffffffffffffffffffffffffffff5d576e7357a4501ddfe92f46681b20a0831115612a5c5750600090506003612b0b565b6040805160008082526020820180845289905260ff881692820192909252606081018690526080810185905260019060a0016020604051602081039080840390855afa158015612ab0573d6000803e3d6000fd5b50506040517fffffffffffffffffffffffffffffffffffffffffffffffffffffffffffffffe0015191505073ffffffffffffffffffffffffffffffffffffffff8116612b0457600060019250925050612b0b565b9150600090505b94509492505050565b60008083601f840112612b2657600080fd5b50813567ffffffffffffffff811115612b3e57600080fd5b6020830191508360208260051b850101111561215457600080fd5b60008060008060408587031215612b6f57600080fd5b843567ffffffffffffffff80821115612b8757600080fd5b612b9388838901612b14565b90965094506020870135915080821115612bac57600080fd5b50612bb987828801612b14565b95989497509550505050565b6000815180845260005b81811015612beb57602081850181015186830182015201612bcf565b5060006020828601015260207fffffffffffffffffffffffffffffffffffffffffffffffffffffffffffffffe0601f83011685010191505092915050565b6000602080830181845280855180835260408601915060408160051b870101925083870160005b82811015612c9c577fffffffffffffffffffffffffffffffffffffffffffffffffffffffffffffffc0888603018452612c8a858351612bc5565b94509285019290850190600101612c50565b5092979650505050505050565b803573ffffffffffffffffffffffffffffffffffffffff81168114612ccd57600080fd5b919050565b60008083601f840112612ce457600080fd5b50813567ffffffffffffffff811115612cfc57600080fd5b60208301915083602082850101111561215457600080fd5b600080600080600060808688031215612d2c57600080fd5b612d3586612ca9565b9450612d4360208701612ca9565b935060408601359250606086013567ffffffffffffffff811115612d6657600080fd5b612d7288828901612cd2565b969995985093965092949392505050565b600080600060408486031215612d9857600080fd5b83359250602084013567ffffffffffffffff811115612db657600080fd5b612dc286828701612cd2565b9497909650939450505050565b600060808284031215612de157600080fd5b50919050565b60008060008060608587031215612dfd57600080fd5b843567ffffffffffffffff80821115612e1557600080fd5b612e2188838901612dcf565b9550602087013594506040870135915080821115612bac57600080fd5b60008060008060408587031215612e5457600080fd5b843567ffffffffffffffff80821115612e6c57600080fd5b612e7888838901612cd2565b90965094506020870135915080821115612e9157600080fd5b50612bb987828801612cd2565b600080600080600060608688031215612eb657600080fd5b853567ffffffffffffffff80821115612ece57600080fd5b612eda89838a01612b14565b9097509550602088013594506040880135915080821115612efa57600080fd5b50612d7288828901612b14565b6000806000806000858703610100811215612f2157600080fd5b863567ffffffffffffffff80821115612f3957600080fd5b612f458a838b01612dcf565b975060a07fffffffffffffffffffffffffffffffffffffffffffffffffffffffffffffffe084011215612f7757600080fd5b60208901965060c0890135955060e0890135925080831115612f9857600080fd5b5050612d7288828901612b14565b60008060208385031215612fb957600080fd5b823567ffffffffffffffff811115612fd057600080fd5b612fdc85828601612b14565b90969095509350505050565b60208152600061080f6020830184612bc5565b6000806000806060858703121561301157600080fd5b8435935060208501359250604085013567ffffffffffffffff81111561303657600080fd5b612bb987828801612b14565b6000806000806060858703121561305857600080fd5b61306185612ca9565b935060208501359250604085013567ffffffffffffffff81111561303657600080fd5b60008060006040848603121561309957600080fd5b833567ffffffffffffffff808211156130b157600080fd5b6130bd87838801612dcf565b945060208601359150808211156130d357600080fd5b50612dc286828701612b14565b60008060008060008060006080888a0312156130fb57600080fd5b873567ffffffffffffffff8082111561311357600080fd5b61311f8b838c01612b14565b909950975060208a013591508082111561313857600080fd5b6131448b838c01612b14565b909750955060408a0135945060608a013591508082111561316457600080fd5b506131718a828b01612b14565b989b979a50959850939692959293505050565b60008060008060008060008060a0898b0312156131a057600080fd5b6131a989612ca9565b97506131b760208a01612ca9565b9650604089013567ffffffffffffffff808211156131d457600080fd5b6131e08c838d01612b14565b909850965060608b01359150808211156131f957600080fd5b6132058c838d01612b14565b909650945060808b013591508082111561321e57600080fd5b5061322b8b828c01612cd2565b999c989b5096995094979396929594505050565b60006020828403121561325157600080fd5b61080f82612ca9565b60008060008060006080868803121561327257600080fd5b61327b86612ca9565b94506020860135935060408601359250606086013567ffffffffffffffff8111156132a557600080fd5b612d7288828901612b14565b6000602082840312156132c357600080fd5b813567ffffffffffffffff8111156132da57600080fd5b610a9c84828501612dcf565b60008060008060008060a087890312156132ff57600080fd5b61330887612ca9565b955061331660208801612ca9565b94506040870135935060608701359250608087013567ffffffffffffffff81111561334057600080fd5b61334c89828a01612cd2565b979a9699509497509295939492505050565b60008083357fffffffffffffffffffffffffffffffffffffffffffffffffffffffffffffffe184360301811261339357600080fd5b830160208101925035905067ffffffffffffffff8111156133b357600080fd5b80360382131561215457600080fd5b8183528181602085013750600060208284010152600060207fffffffffffffffffffffffffffffffffffffffffffffffffffffffffffffffe0601f840116840101905092915050565b73ffffffffffffffffffffffffffffffffffffffff61342982612ca9565b1682526020810135602083015260408101356040830152600061344f606083018361335e565b608060608601526134646080860182846133c2565b95945050505050565b6040808252810183905260006060600585901b830181019083018683805b8881101561350d577fffffffffffffffffffffffffffffffffffffffffffffffffffffffffffffffa087860301845282357fffffffffffffffffffffffffffffffffffffffffffffffffffffffffffffff818b36030181126134eb578283fd5b6134f7868c830161340b565b955050602093840193929092019160010161348b565b50505050602092909201929092529392505050565b7f4e487b7100000000000000000000000000000000000000000000000000000000600052604160045260246000fd5b604051601f82017fffffffffffffffffffffffffffffffffffffffffffffffffffffffffffffffe016810167ffffffffffffffff8111828210171561359857613598613522565b604052919050565b600067ffffffffffffffff808411156135bb576135bb613522565b8360051b60206135cc818301613551565b8681529185019181810190368411156135e457600080fd5b865b84811015612387578035868111156135fe5760008081fd5b8801601f36818301126136115760008081fd5b81358881111561362357613623613522565b613652877fffffffffffffffffffffffffffffffffffffffffffffffffffffffffffffffe08484011601613551565b915080825236878285010111156136695760008081fd5b808784018884013760009082018701528452509183019183016135e6565b7f4e487b7100000000000000000000000000000000000000000000000000000000600052603260045260246000fd5b60008083357fffffffffffffffffffffffffffffffffffffffffffffffffffffffffffffffe18436030181126136eb57600080fd5b83018035915067ffffffffffffffff82111561370657600080fd5b60200191503681900382131561215457600080fd5b8183823760009101908152919050565b7f4e487b7100000000000000000000000000000000000000000000000000000000600052601160045260246000fd5b60007fffffffffffffffffffffffffffffffffffffffffffffffffffffffffffffffff820361378b5761378b61372b565b5060010190565b600082357fffffffffffffffffffffffffffffffffffffffffffffffffffffffffffffff818336030181126137c657600080fd5b9190910192915050565b600073ffffffffffffffffffffffffffffffffffffffff806137f184612ca9565b1684528061380160208501612ca9565b166020850152506040820135604084015261344f606083018361335e565b60608152600061383260608301866137d0565b60208301949094525060400152919050565b600073ffffffffffffffffffffffffffffffffffffffff8088168352808716602084015250846040830152608060608301526138846080830184866133c2565b979650505050505050565b8183526000602080850194508260005b858110156138d85773ffffffffffffffffffffffffffffffffffffffff6138c583612ca9565b168752958201959082019060010161389f565b509495945050505050565b6060815260006138f760608301868861388f565b6020830194909452506040015292915050565b67ffffffffffffffff81168114612a2257600080fd5b63ffffffff81168114612a2257600080fd5b6000610100808352613946818401886137d0565b91505084356139548161390a565b67ffffffffffffffff8082166020850152602087013591506139758261390a565b1660408381019190915285013561398b81613920565b63ffffffff8082166060850152606087013591506139a882613920565b8082166080850152608087013591506139c082613920565b1660a083015260c082019390935260e0015292915050565b6000602082840312156139ea57600080fd5b813561080f81613920565b60008135610fba81613920565b8135613a0d8161390a565b67ffffffffffffffff811690508154817fffffffffffffffffffffffffffffffffffffffffffffffff000000000000000082161783556020840135613a518161390a565b6fffffffffffffffff00000000000000008160401b16905080837fffffffffffffffffffffffffffffffff000000000000000000000000000000008416171784556040850135613aa081613920565b73ffffffff000000000000000000000000000000008160801b169050837fffffffffffffffffffffffff000000000000000000000000000000000000000084161793508084831717855560608601359250613afa83613920565b77ffffffff00000000000000000000000000000000000000008360a01b167fffffffffffffffff00000000ffffffffffffffffffffffffffffffffffffffff85168317821717855550505050613ba2613b55608084016139f5565b82547fffffffff00000000ffffffffffffffffffffffffffffffffffffffffffffffff1660c09190911b7bffffffff00000000000000000000000000000000000000000000000016178255565b5050565b600060208284031215613bb857600080fd5b8151801515811461080f57600080fd5b604081526000613bdb604083018561340b565b90508260208301529392505050565b608081526000613bfe60808301888a61388f565b82810360208401528581527f07ffffffffffffffffffffffffffffffffffffffffffffffffffffffffffffff861115613c3657600080fd5b8560051b80886020840137604084019590955260609092019290925290910160200195945050505050565b81810381811115610fba57610fba61372b565b80820180821115610fba57610fba61372b565b67ffffffffffffffff818116838216019080821115613ca857613ca861372b565b5092915050565b63ffffffff818116838216019080821115613ca857613ca861372b565b7f4e487b7100000000000000000000000000000000000000000000000000000000600052601260045260246000fd5b600082613d0a57613d0a613ccc565b500690565b600082613d1e57613d1e613ccc565b500490565b8082028115828204841417610fba57610fba61372b565b7f4e487b7100000000000000000000000000000000000000000000000000000000600052602160045260246000fdfe5369676e6572207765696768747320646f6573206e6f74206d656574207468726573686f6c644174206c65617374206f6e65207369676e6174757265206e6f742066726f6d2061206b6e6f776e20636f6e74726f6c6c65724174206c65617374206f6e65207369676e617475726520616c72656164792075736564a264697066735822122068e9f6f11b259d72273f5561b9e7dd6f9b859b227dcc3f7218ce63044b97d88464736f6c63430008120033",
  "linkReferences": {},
  "deployedLinkReferences": {}
}