{
  "_format": "hh-sol-artifact-1",
  "contractName": "Main",
  "sourceName": "contracts/modules/Main/Main.sol",
  "abi": [
    {
      "inputs": [
        {
          "internalType": "address",
          "name": "target",
          "type": "address"
        }
      ],
      "name": "AddressEmptyCode",
      "type": "error"
    },
    {
      "inputs": [],
      "name": "ArraryLengthMismatch",
      "type": "error"
    },
    {
      "inputs": [],
      "name": "CallIntervalUnmet",
      "type": "error"
    },
    {
      "inputs": [],
      "name": "CallMaxCallsReached",
      "type": "error"
    },
    {
      "inputs": [],
      "name": "CallNotPreauthorized",
      "type": "error"
    },
    {
      "inputs": [],
      "name": "CallTimelocked",
      "type": "error"
    },
    {
      "inputs": [],
      "name": "ControllerAlreadyExists",
      "type": "error"
    },
    {
      "inputs": [],
      "name": "ControllerDoesNotExist",
      "type": "error"
    },
    {
      "inputs": [],
      "name": "ControllersNotInitialized",
      "type": "error"
    },
    {
      "inputs": [],
      "name": "Create2EmptyBytecode",
      "type": "error"
    },
    {
      "inputs": [],
      "name": "Create2FailedDeployment",
      "type": "error"
    },
    {
      "inputs": [
        {
          "internalType": "uint256",
          "name": "balance",
          "type": "uint256"
        },
        {
          "internalType": "uint256",
          "name": "needed",
          "type": "uint256"
        }
      ],
      "name": "Create2InsufficientBalance",
      "type": "error"
    },
    {
      "inputs": [],
      "name": "CreateInitCodeFailed",
      "type": "error"
    },
    {
      "inputs": [],
      "name": "DeadlineReached",
      "type": "error"
    },
    {
      "inputs": [],
      "name": "ECDSAInvalidSignature",
      "type": "error"
    },
    {
      "inputs": [
        {
          "internalType": "uint256",
          "name": "length",
          "type": "uint256"
        }
      ],
      "name": "ECDSAInvalidSignatureLength",
      "type": "error"
    },
    {
      "inputs": [
        {
          "internalType": "bytes32",
          "name": "s",
          "type": "bytes32"
        }
      ],
      "name": "ECDSAInvalidSignatureS",
      "type": "error"
    },
    {
      "inputs": [
        {
          "internalType": "address",
          "name": "implementation",
          "type": "address"
        }
      ],
      "name": "ERC1967InvalidImplementation",
      "type": "error"
    },
    {
      "inputs": [],
      "name": "ERC1967NonPayable",
      "type": "error"
    },
    {
      "inputs": [],
      "name": "FailedInnerCall",
      "type": "error"
    },
    {
      "inputs": [
        {
          "internalType": "address",
          "name": "tokenAddress",
          "type": "address"
        },
        {
          "internalType": "uint256",
          "name": "tokenId",
          "type": "uint256"
        },
        {
          "internalType": "uint256",
          "name": "amount",
          "type": "uint256"
        },
        {
          "internalType": "uint256",
          "name": "allowance",
          "type": "uint256"
        }
      ],
      "name": "InsufficientAllowanceForERC1155Transfer",
      "type": "error"
    },
    {
      "inputs": [
        {
          "internalType": "address",
          "name": "tokenAddress",
          "type": "address"
        },
        {
          "internalType": "uint256",
          "name": "amount",
          "type": "uint256"
        },
        {
          "internalType": "uint256",
          "name": "allowance",
          "type": "uint256"
        }
      ],
      "name": "InsufficientAllowanceForERC20Transfer",
      "type": "error"
    },
    {
      "inputs": [
        {
          "internalType": "address",
          "name": "tokenAddress",
          "type": "address"
        },
        {
          "internalType": "uint256",
          "name": "tokenId",
          "type": "uint256"
        }
      ],
      "name": "InsufficientAllowanceForERC721Transfer",
      "type": "error"
    },
    {
      "inputs": [],
      "name": "InsufficientFunds",
      "type": "error"
    },
    {
      "inputs": [
        {
          "internalType": "uint256",
          "name": "amount",
          "type": "uint256"
        },
        {
          "internalType": "uint256",
          "name": "allowance",
          "type": "uint256"
        }
      ],
      "name": "InsufficientNativeTokenAllowance",
      "type": "error"
    },
    {
      "inputs": [],
      "name": "InvalidInitialization",
      "type": "error"
    },
    {
      "inputs": [],
      "name": "InvalidParameters",
      "type": "error"
    },
    {
      "inputs": [],
      "name": "InvalidSignatureLength",
      "type": "error"
    },
    {
      "inputs": [],
      "name": "InvalidThreshold",
      "type": "error"
    },
    {
      "inputs": [],
      "name": "MaxCallsMustNotBeZero",
      "type": "error"
    },
    {
      "inputs": [
        {
          "internalType": "address",
          "name": "sender",
          "type": "address"
        }
      ],
      "name": "NoSessionStarted",
      "type": "error"
    },
    {
      "inputs": [],
      "name": "NotInitializing",
      "type": "error"
    },
    {
      "inputs": [],
      "name": "RevertWithoutMessage",
      "type": "error"
    },
    {
      "inputs": [],
      "name": "SessionExpired",
      "type": "error"
    },
    {
      "inputs": [],
      "name": "ThresholdImpossible",
      "type": "error"
    },
    {
      "inputs": [],
      "name": "UUPSUnauthorizedCallContext",
      "type": "error"
    },
    {
      "inputs": [
        {
          "internalType": "bytes32",
          "name": "slot",
          "type": "bytes32"
        }
      ],
      "name": "UUPSUnsupportedProxiableUUID",
      "type": "error"
    },
    {
      "inputs": [
        {
          "internalType": "address",
          "name": "targetContract",
          "type": "address"
        },
        {
          "internalType": "bytes4",
          "name": "functionSelector",
          "type": "bytes4"
        }
      ],
      "name": "UnauthorizedSessionCall",
      "type": "error"
    },
    {
      "inputs": [],
      "name": "UnauthorizedUpgrade",
      "type": "error"
    },
    {
      "anonymous": false,
      "inputs": [
        {
          "indexed": false,
          "internalType": "uint64",
          "name": "version",
          "type": "uint64"
        }
      ],
      "name": "Initialized",
      "type": "event"
    },
    {
      "anonymous": false,
      "inputs": [
        {
          "indexed": true,
          "internalType": "address",
          "name": "implementation",
          "type": "address"
        }
      ],
      "name": "Upgraded",
      "type": "event"
    },
    {
      "inputs": [],
      "name": "UPGRADE_INTERFACE_VERSION",
      "outputs": [
        {
          "internalType": "string",
          "name": "",
          "type": "string"
        }
      ],
      "stateMutability": "view",
      "type": "function"
    },
    {
      "inputs": [
        {
          "internalType": "address[]",
          "name": "_controllers",
          "type": "address[]"
        },
        {
          "internalType": "uint256[]",
          "name": "_weights",
          "type": "uint256[]"
        },
        {
          "internalType": "uint256",
          "name": "_nonce",
          "type": "uint256"
        },
        {
          "internalType": "bytes[]",
          "name": "_signatures",
          "type": "bytes[]"
        },
        {
          "internalType": "uint256",
          "name": "_deadline",
          "type": "uint256"
        }
      ],
      "name": "addControllers",
      "outputs": [],
      "stateMutability": "nonpayable",
      "type": "function"
    },
    {
      "inputs": [
        {
          "components": [
            {
              "internalType": "address",
              "name": "target",
              "type": "address"
            },
            {
              "internalType": "uint256",
              "name": "value",
              "type": "uint256"
            },
            {
              "internalType": "uint256",
              "name": "nonce",
              "type": "uint256"
            },
            {
              "internalType": "bytes",
              "name": "data",
              "type": "bytes"
            }
          ],
          "internalType": "struct CallsStructs.CallRequest",
          "name": "_callRequest",
          "type": "tuple"
        },
        {
          "internalType": "bytes[]",
          "name": "_signatures",
          "type": "bytes[]"
        },
        {
          "internalType": "uint256",
          "name": "_deadline",
          "type": "uint256"
        }
      ],
      "name": "call",
      "outputs": [
        {
          "internalType": "bytes",
          "name": "",
          "type": "bytes"
        }
      ],
      "stateMutability": "nonpayable",
      "type": "function"
    },
    {
      "inputs": [],
      "name": "controlThreshold",
      "outputs": [
        {
          "internalType": "uint256",
          "name": "",
          "type": "uint256"
        }
      ],
      "stateMutability": "view",
      "type": "function"
    },
    {
      "inputs": [
        {
          "internalType": "address",
          "name": "_controller",
          "type": "address"
        }
      ],
      "name": "controllerWeight",
      "outputs": [
        {
          "internalType": "uint256",
          "name": "",
          "type": "uint256"
        }
      ],
      "stateMutability": "view",
      "type": "function"
    },
    {
      "inputs": [],
      "name": "controllersTotalWeight",
      "outputs": [
        {
          "internalType": "uint256",
          "name": "",
          "type": "uint256"
        }
      ],
      "stateMutability": "view",
      "type": "function"
    },
    {
      "inputs": [
        {
          "components": [
            {
              "internalType": "bytes32",
              "name": "salt",
              "type": "bytes32"
            },
            {
              "internalType": "uint256",
              "name": "nonce",
              "type": "uint256"
            },
            {
              "internalType": "bytes",
              "name": "bytecode",
              "type": "bytes"
            },
            {
              "internalType": "bytes",
              "name": "initCode",
              "type": "bytes"
            }
          ],
          "internalType": "struct CallsStructs.CreateRequest",
          "name": "_createRequest",
          "type": "tuple"
        },
        {
          "internalType": "bytes[]",
          "name": "_signatures",
          "type": "bytes[]"
        },
        {
          "internalType": "uint256",
          "name": "_deadline",
          "type": "uint256"
        }
      ],
      "name": "create",
      "outputs": [
        {
          "internalType": "address",
          "name": "",
          "type": "address"
        }
      ],
      "stateMutability": "nonpayable",
      "type": "function"
    },
    {
      "inputs": [],
      "name": "endSession",
      "outputs": [],
      "stateMutability": "nonpayable",
      "type": "function"
    },
    {
      "inputs": [
        {
          "internalType": "address",
          "name": "_caller",
          "type": "address"
        },
        {
          "internalType": "uint256",
          "name": "_nonce",
          "type": "uint256"
        },
        {
          "internalType": "bytes[]",
          "name": "_signatures",
          "type": "bytes[]"
        },
        {
          "internalType": "uint256",
          "name": "_deadline",
          "type": "uint256"
        }
      ],
      "name": "endSessionForCaller",
      "outputs": [],
      "stateMutability": "nonpayable",
      "type": "function"
    },
    {
      "inputs": [],
      "name": "getCurrentVersion",
      "outputs": [
        {
          "internalType": "uint256",
          "name": "",
          "type": "uint256"
        }
      ],
      "stateMutability": "view",
      "type": "function"
    },
    {
      "inputs": [
        {
          "internalType": "address",
          "name": "_caller",
          "type": "address"
        }
      ],
      "name": "hasActiveSession",
      "outputs": [
        {
          "internalType": "bool",
          "name": "hasSession_",
          "type": "bool"
        }
      ],
      "stateMutability": "view",
      "type": "function"
    },
    {
      "inputs": [
        {
          "internalType": "address",
          "name": "_controller",
          "type": "address"
        }
      ],
      "name": "initialize",
      "outputs": [],
      "stateMutability": "nonpayable",
      "type": "function"
    },
    {
      "inputs": [
        {
          "internalType": "bytes32",
          "name": "_hash",
          "type": "bytes32"
        },
        {
          "internalType": "bytes",
          "name": "_signature",
          "type": "bytes"
        }
      ],
      "name": "isValidSignature",
      "outputs": [
        {
          "internalType": "bytes4",
          "name": "magicValue",
          "type": "bytes4"
        }
      ],
      "stateMutability": "view",
      "type": "function"
    },
    {
      "inputs": [
        {
          "internalType": "bytes",
          "name": "_data",
          "type": "bytes"
        },
        {
          "internalType": "bytes",
          "name": "_signature",
          "type": "bytes"
        }
      ],
      "name": "isValidSignature",
      "outputs": [
        {
          "internalType": "bytes4",
          "name": "magicValue",
          "type": "bytes4"
        }
      ],
      "stateMutability": "view",
      "type": "function"
    },
    {
      "inputs": [
        {
          "components": [
            {
              "internalType": "address",
              "name": "target",
              "type": "address"
            },
            {
              "internalType": "uint256",
              "name": "value",
              "type": "uint256"
            },
            {
              "internalType": "uint256",
              "name": "nonce",
              "type": "uint256"
            },
            {
              "internalType": "bytes",
              "name": "data",
              "type": "bytes"
            }
          ],
          "internalType": "struct CallsStructs.CallRequest[]",
          "name": "_callRequests",
          "type": "tuple[]"
        },
        {
          "internalType": "bytes[]",
          "name": "_signatures",
          "type": "bytes[]"
        },
        {
          "internalType": "uint256",
          "name": "_deadline",
          "type": "uint256"
        }
      ],
      "name": "multiCall",
      "outputs": [
        {
          "internalType": "bytes[]",
          "name": "",
          "type": "bytes[]"
        }
      ],
      "stateMutability": "nonpayable",
      "type": "function"
    },
    {
      "inputs": [
        {
          "internalType": "address",
          "name": "",
          "type": "address"
        },
        {
          "internalType": "address",
          "name": "",
          "type": "address"
        },
        {
          "internalType": "uint256[]",
          "name": "",
          "type": "uint256[]"
        },
        {
          "internalType": "uint256[]",
          "name": "",
          "type": "uint256[]"
        },
        {
          "internalType": "bytes",
          "name": "",
          "type": "bytes"
        }
      ],
      "name": "onERC1155BatchReceived",
      "outputs": [
        {
          "internalType": "bytes4",
          "name": "",
          "type": "bytes4"
        }
      ],
      "stateMutability": "nonpayable",
      "type": "function"
    },
    {
      "inputs": [
        {
          "internalType": "address",
          "name": "",
          "type": "address"
        },
        {
          "internalType": "address",
          "name": "",
          "type": "address"
        },
        {
          "internalType": "uint256",
          "name": "",
          "type": "uint256"
        },
        {
          "internalType": "uint256",
          "name": "",
          "type": "uint256"
        },
        {
          "internalType": "bytes",
          "name": "",
          "type": "bytes"
        }
      ],
      "name": "onERC1155Received",
      "outputs": [
        {
          "internalType": "bytes4",
          "name": "",
          "type": "bytes4"
        }
      ],
      "stateMutability": "nonpayable",
      "type": "function"
    },
    {
      "inputs": [
        {
          "internalType": "address",
          "name": "",
          "type": "address"
        },
        {
          "internalType": "address",
          "name": "",
          "type": "address"
        },
        {
          "internalType": "uint256",
          "name": "",
          "type": "uint256"
        },
        {
          "internalType": "bytes",
          "name": "",
          "type": "bytes"
        }
      ],
      "name": "onERC721Received",
      "outputs": [
        {
          "internalType": "bytes4",
          "name": "",
          "type": "bytes4"
        }
      ],
      "stateMutability": "nonpayable",
      "type": "function"
    },
    {
      "inputs": [
        {
          "components": [
            {
              "internalType": "address",
              "name": "caller",
              "type": "address"
            },
            {
              "internalType": "address",
              "name": "target",
              "type": "address"
            },
            {
              "internalType": "uint256",
              "name": "value",
              "type": "uint256"
            },
            {
              "internalType": "bytes",
              "name": "data",
              "type": "bytes"
            }
          ],
          "internalType": "struct PreauthorizedCallsStructs.CallRequestPreauthorized",
          "name": "_callRequestPreauthorized",
          "type": "tuple"
        },
        {
          "components": [
            {
              "internalType": "uint64",
              "name": "unlockTimestamp",
              "type": "uint64"
            },
            {
              "internalType": "uint64",
              "name": "lastCallTimestamp",
              "type": "uint64"
            },
            {
              "internalType": "uint32",
              "name": "minCallInterval",
              "type": "uint32"
            },
            {
              "internalType": "uint32",
              "name": "callCount",
              "type": "uint32"
            },
            {
              "internalType": "uint32",
              "name": "maxCalls",
              "type": "uint32"
            }
          ],
          "internalType": "struct PreauthorizedCallsStructs.CallRequestPreauthorization",
          "name": "_callRequestPreauthorization",
          "type": "tuple"
        },
        {
          "internalType": "uint256",
          "name": "_nonce",
          "type": "uint256"
        },
        {
          "internalType": "bytes[]",
          "name": "_signatures",
          "type": "bytes[]"
        },
        {
          "internalType": "uint256",
          "name": "_deadline",
          "type": "uint256"
        }
      ],
      "name": "preauthorizeCall",
      "outputs": [],
      "stateMutability": "nonpayable",
      "type": "function"
    },
    {
      "inputs": [
        {
          "components": [
            {
              "internalType": "address",
              "name": "target",
              "type": "address"
            },
            {
              "internalType": "uint256",
              "name": "value",
              "type": "uint256"
            },
            {
              "internalType": "uint256",
              "name": "nonce",
              "type": "uint256"
            },
            {
              "internalType": "bytes",
              "name": "data",
              "type": "bytes"
            }
          ],
          "internalType": "struct CallsStructs.CallRequest",
          "name": "_callRequest",
          "type": "tuple"
        }
      ],
      "name": "preauthorizedCall",
      "outputs": [
        {
          "internalType": "bytes",
          "name": "",
          "type": "bytes"
        }
      ],
      "stateMutability": "nonpayable",
      "type": "function"
    },
    {
      "inputs": [
        {
          "components": [
            {
              "internalType": "address",
              "name": "target",
              "type": "address"
            },
            {
              "internalType": "uint256",
              "name": "value",
              "type": "uint256"
            },
            {
              "internalType": "uint256",
              "name": "nonce",
              "type": "uint256"
            },
            {
              "internalType": "bytes",
              "name": "data",
              "type": "bytes"
            }
          ],
          "internalType": "struct CallsStructs.CallRequest[]",
          "name": "_callRequests",
          "type": "tuple[]"
        }
      ],
      "name": "preauthorizedMultiCall",
      "outputs": [
        {
          "internalType": "bytes[]",
          "name": "",
          "type": "bytes[]"
        }
      ],
      "stateMutability": "nonpayable",
      "type": "function"
    },
    {
      "inputs": [],
      "name": "proxiableUUID",
      "outputs": [
        {
          "internalType": "bytes32",
          "name": "",
          "type": "bytes32"
        }
      ],
      "stateMutability": "view",
      "type": "function"
    },
    {
      "inputs": [
        {
          "internalType": "address[]",
          "name": "_controllers",
          "type": "address[]"
        },
        {
          "internalType": "uint256",
          "name": "_newThreshold",
          "type": "uint256"
        },
        {
          "internalType": "uint256",
          "name": "_nonce",
          "type": "uint256"
        },
        {
          "internalType": "bytes[]",
          "name": "_signatures",
          "type": "bytes[]"
        },
        {
          "internalType": "uint256",
          "name": "_deadline",
          "type": "uint256"
        }
      ],
      "name": "removeControllers",
      "outputs": [],
      "stateMutability": "nonpayable",
      "type": "function"
    },
    {
      "inputs": [
        {
          "internalType": "address",
          "name": "_controllerOld",
          "type": "address"
        },
        {
          "internalType": "address",
          "name": "_controllerNew",
          "type": "address"
        },
        {
          "internalType": "uint256",
          "name": "_nonce",
          "type": "uint256"
        },
        {
          "internalType": "bytes[]",
          "name": "_signatures",
          "type": "bytes[]"
        },
        {
          "internalType": "uint256",
          "name": "_deadline",
          "type": "uint256"
        }
      ],
      "name": "replaceController",
      "outputs": [],
      "stateMutability": "nonpayable",
      "type": "function"
    },
    {
      "inputs": [
        {
          "components": [
            {
              "internalType": "address",
              "name": "target",
              "type": "address"
            },
            {
              "internalType": "uint256",
              "name": "value",
              "type": "uint256"
            },
            {
              "internalType": "uint256",
              "name": "nonce",
              "type": "uint256"
            },
            {
              "internalType": "bytes",
              "name": "data",
              "type": "bytes"
            }
          ],
          "internalType": "struct CallsStructs.CallRequest",
          "name": "_callRequest",
          "type": "tuple"
        }
      ],
      "name": "sessionCall",
      "outputs": [
        {
          "internalType": "bytes",
          "name": "",
          "type": "bytes"
        }
      ],
      "stateMutability": "nonpayable",
      "type": "function"
    },
    {
      "inputs": [
        {
          "components": [
            {
              "internalType": "address",
              "name": "target",
              "type": "address"
            },
            {
              "internalType": "uint256",
              "name": "value",
              "type": "uint256"
            },
            {
              "internalType": "uint256",
              "name": "nonce",
              "type": "uint256"
            },
            {
              "internalType": "bytes",
              "name": "data",
              "type": "bytes"
            }
          ],
          "internalType": "struct CallsStructs.CallRequest[]",
          "name": "_callRequests",
          "type": "tuple[]"
        }
      ],
      "name": "sessionMultiCall",
      "outputs": [
        {
          "internalType": "bytes[]",
          "name": "",
          "type": "bytes[]"
        }
      ],
      "stateMutability": "nonpayable",
      "type": "function"
    },
    {
      "inputs": [
        {
          "internalType": "address",
          "name": "_caller",
          "type": "address"
        },
        {
          "components": [
            {
              "internalType": "uint256",
              "name": "nativeAllowance",
              "type": "uint256"
            },
            {
              "components": [
                {
                  "internalType": "address",
                  "name": "aContract",
                  "type": "address"
                },
                {
                  "internalType": "bytes4[]",
                  "name": "functionSelectors",
                  "type": "bytes4[]"
                }
              ],
              "internalType": "struct SessionCallsStructs.SessionRequest_ContractFunctionSelectors[]",
              "name": "contractFunctionSelectors",
              "type": "tuple[]"
            },
            {
              "components": [
                {
                  "internalType": "address",
                  "name": "erc20Contract",
                  "type": "address"
                },
                {
                  "internalType": "uint256",
                  "name": "allowance",
                  "type": "uint256"
                }
              ],
              "internalType": "struct SessionCallsStructs.SessionRequest_ERC20Allowance[]",
              "name": "erc20Allowances",
              "type": "tuple[]"
            },
            {
              "components": [
                {
                  "internalType": "address",
                  "name": "erc721Contract",
                  "type": "address"
                },
                {
                  "internalType": "bool",
                  "name": "approveAll",
                  "type": "bool"
                },
                {
                  "internalType": "uint256[]",
                  "name": "tokenIds",
                  "type": "uint256[]"
                }
              ],
              "internalType": "struct SessionCallsStructs.SessionRequest_ERC721Allowance[]",
              "name": "erc721Allowances",
              "type": "tuple[]"
            },
            {
              "components": [
                {
                  "internalType": "address",
                  "name": "erc1155Contract",
                  "type": "address"
                },
                {
                  "internalType": "bool",
                  "name": "approveAll",
                  "type": "bool"
                },
                {
                  "internalType": "uint256[]",
                  "name": "tokenIds",
                  "type": "uint256[]"
                },
                {
                  "internalType": "uint256[]",
                  "name": "allowances",
                  "type": "uint256[]"
                }
              ],
              "internalType": "struct SessionCallsStructs.SessionRequest_ERC1155Allowance[]",
              "name": "erc1155Allowances",
              "type": "tuple[]"
            }
          ],
          "internalType": "struct SessionCallsStructs.SessionRequest",
          "name": "_sessionRequest",
          "type": "tuple"
        },
        {
          "internalType": "uint256",
          "name": "_expiresAt",
          "type": "uint256"
        },
        {
          "internalType": "uint256",
          "name": "_nonce",
          "type": "uint256"
        },
        {
          "internalType": "bytes[]",
          "name": "_signatures",
          "type": "bytes[]"
        },
        {
          "internalType": "uint256",
          "name": "_deadline",
          "type": "uint256"
        }
      ],
      "name": "startSession",
      "outputs": [],
      "stateMutability": "nonpayable",
      "type": "function"
    },
    {
      "inputs": [
        {
          "internalType": "bytes4",
          "name": "_interfaceID",
          "type": "bytes4"
        }
      ],
      "name": "supportsInterface",
      "outputs": [
        {
          "internalType": "bool",
          "name": "",
          "type": "bool"
        }
      ],
      "stateMutability": "view",
      "type": "function"
    },
    {
      "inputs": [
        {
          "components": [
            {
              "internalType": "address",
              "name": "caller",
              "type": "address"
            },
            {
              "internalType": "address",
              "name": "target",
              "type": "address"
            },
            {
              "internalType": "uint256",
              "name": "value",
              "type": "uint256"
            },
            {
              "internalType": "bytes",
              "name": "data",
              "type": "bytes"
            }
          ],
          "internalType": "struct PreauthorizedCallsStructs.CallRequestPreauthorized",
          "name": "_callRequestPreauthorized",
          "type": "tuple"
        },
        {
          "internalType": "uint256",
          "name": "_nonce",
          "type": "uint256"
        },
        {
          "internalType": "bytes[]",
          "name": "_signatures",
          "type": "bytes[]"
        },
        {
          "internalType": "uint256",
          "name": "_deadline",
          "type": "uint256"
        }
      ],
      "name": "unauthorizeCall",
      "outputs": [],
      "stateMutability": "nonpayable",
      "type": "function"
    },
    {
      "inputs": [
        {
          "internalType": "uint256",
          "name": "_threshold",
          "type": "uint256"
        },
        {
          "internalType": "uint256",
          "name": "_nonce",
          "type": "uint256"
        },
        {
          "internalType": "bytes[]",
          "name": "_signatures",
          "type": "bytes[]"
        },
        {
          "internalType": "uint256",
          "name": "_deadline",
          "type": "uint256"
        }
      ],
      "name": "updateControlThreshold",
      "outputs": [],
      "stateMutability": "nonpayable",
      "type": "function"
    },
    {
      "inputs": [
        {
          "internalType": "address",
          "name": "_controller",
          "type": "address"
        },
        {
          "internalType": "uint256",
          "name": "_weight",
          "type": "uint256"
        },
        {
          "internalType": "uint256",
          "name": "_nonce",
          "type": "uint256"
        },
        {
          "internalType": "bytes[]",
          "name": "_signatures",
          "type": "bytes[]"
        },
        {
          "internalType": "uint256",
          "name": "_deadline",
          "type": "uint256"
        }
      ],
      "name": "updateControllerWeight",
      "outputs": [],
      "stateMutability": "nonpayable",
      "type": "function"
    },
    {
      "inputs": [
        {
          "internalType": "address",
          "name": "newImplementation",
          "type": "address"
        },
        {
          "internalType": "bytes",
          "name": "data",
          "type": "bytes"
        },
        {
          "internalType": "bytes[]",
          "name": "_signatures",
          "type": "bytes[]"
        },
        {
          "internalType": "uint256",
          "name": "_deadline",
          "type": "uint256"
        }
      ],
      "name": "upgradeToAndCall",
      "outputs": [],
      "stateMutability": "payable",
      "type": "function"
    },
    {
      "inputs": [
        {
          "internalType": "address",
          "name": "newImplementation",
          "type": "address"
        },
        {
          "internalType": "bytes",
          "name": "data",
          "type": "bytes"
        }
      ],
      "name": "upgradeToAndCall",
      "outputs": [],
      "stateMutability": "payable",
      "type": "function"
    },
    {
      "stateMutability": "payable",
      "type": "receive"
    }
  ],
  "bytecode": "0x60a0604052306080523480156200001557600080fd5b506200002062000044565b6200002a62000044565b6200003462000044565b6200003e62000044565b620000f8565b7ff0c57e16840df040f15088dc2f81fe391c3923bec73e23a9662efc9c229c6a00805468010000000000000000900460ff1615620000955760405163f92ee8a960e01b815260040160405180910390fd5b80546001600160401b0390811614620000f55780546001600160401b0319166001600160401b0390811782556040519081527fc7f505b2f371ae2175ee4913f4499e1f2633a7b5936321eed1cdaeb6115181d29060200160405180910390a15b50565b6080516154d76200012260003960008181611dd301528181611dfc015261237a01526154d76000f3fe6080604052600436106101b25760003560e01c806385ec90f9116100ed578063c4d66de811610090578063c4d66de8146104f9578063ccb34ddb14610519578063e237a3fc14610539578063f04420f11461054e578063f23a6e611461056e578063f7501dc31461059a578063f811896a146105ba578063f8e87641146105da578063fabec44a146105fa57600080fd5b806385ec90f9146103cd57806389f8a9fa146103fa5780638a0a33fc1461041a578063a78650901461043a578063acf616691461044f578063ad3cb1cc1461046f578063ad6f1e48146104a0578063bc197c81146104cd57600080fd5b806321f34cbe1161015557806321f34cbe146102d8578063294d37ea146102f85780634f1ef2861461031857806350609c7d1461032b57806352d1902d1461034b578063566db1e4146103605780635be037c3146103805780635e45c113146103ad57600080fd5b806301ffc9a7146101be57806306e82383146101f3578063100dc0241461021657806310b5ab9b14610238578063150b7a021461024b5780631626ba7e146102785780631fa4a8f11461029857806320c13b0b146102b857600080fd5b366101b957005b600080fd5b3480156101ca57600080fd5b506101de6101d9366004613a86565b61060f565b60405190151581526020015b60405180910390f35b3480156101ff57600080fd5b50610208610620565b6040519081526020016101ea565b34801561022257600080fd5b50610236610231366004613afa565b610633565b005b610236610246366004613bac565b610752565b34801561025757600080fd5b5061026b610266366004613ceb565b6107f0565b6040516101ea9190613d56565b34801561028457600080fd5b5061026b610293366004613d6b565b610801565b3480156102a457600080fd5b506102366102b3366004613dce565b61082c565b3480156102c457600080fd5b5061026b6102d3366004613e45565b6108cd565b3480156102e457600080fd5b506102366102f3366004613eb0565b61090c565b34801561030457600080fd5b50610236610313366004613f4d565b6109a7565b610236610326366004613fe5565b611097565b34801561033757600080fd5b506101de610346366004614034565b6110b6565b34801561035757600080fd5b5061020861113b565b34801561036c57600080fd5b5061023661037b366004614051565b611158565b34801561038c57600080fd5b506103a061039b366004614099565b611192565b6040516101ea919061415c565b3480156103b957600080fd5b506102366103c83660046141c0565b611283565b3480156103d957600080fd5b506103ed6103e8366004614205565b6112a6565b6040516101ea9190614239565b34801561040657600080fd5b5061023661041536600461424c565b6114ca565b34801561042657600080fd5b506102366104353660046142a2565b6115cd565b34801561044657600080fd5b506102086116a9565b34801561045b57600080fd5b506103ed61046a366004614331565b6116b9565b34801561047b57600080fd5b506103ed604051806040016040528060058152602001640352e302e360dc1b81525081565b3480156104ac57600080fd5b506104c06104bb366004614331565b6116dc565b6040516101ea91906143a0565b3480156104d957600080fd5b5061026b6104e836600461443b565b63bc197c8160e01b95945050505050565b34801561050557600080fd5b50610236610514366004614034565b6116ff565b34801561052557600080fd5b506102366105343660046144e8565b6117f8565b34801561054557600080fd5b506102366118fe565b34801561055a57600080fd5b50610208610569366004614034565b611909565b34801561057a57600080fd5b5061026b610589366004614592565b63f23a6e6160e01b95945050505050565b3480156105a657600080fd5b506103a06105b53660046145fa565b611935565b3480156105c657600080fd5b506103a06105d53660046145fa565b6119e6565b3480156105e657600080fd5b506103ed6105f5366004614205565b611a8f565b34801561060657600080fd5b50610208611c60565b600061061a82611c78565b92915050565b600061062a611ca3565b60010154905090565b604080516001600160a01b038816602082015290810186905260608101859052608081018290524660a08201526106869060c0015b60405160208183030381529060405280519060200120828585611cc7565b8461068f611ca3565b6001600160a01b038816600090815260029190910160205260409020546106b4611ca3565b600101546106c29190614651565b6106cc9190614664565b6106d4611ca3565b600101556106e0611ca3565b60010154158061070257506106f3611ca3565b546106fc611ca3565b60010154105b15610720576040516325746d7d60e21b815260040160405180910390fd5b84610729611ca3565b6001600160a01b0390971660009081526002979097016020526040909620959095555050505050565b61075a611dc8565b61077686868684466040516020016106689594939291906146a0565b6001610780611e6d565b805460ff1916911515919091179055604080516020601f87018190048102820181019092528581526107cf91889190889088908190840183828082843760009201919091525061109792505050565b60006107d9611e6d565b805460ff1916911515919091179055505050505050565b630a85bd0160e11b5b949350505050565b600061080e848484611e91565b156108215750630b135d3f60e11b610825565b5060005b9392505050565b610846858583466040516020016106689493929190614779565b61084e611fb2565b600061085d6020880188614034565b61086d6040890160208a01614034565b604089013561087f60608b018b6147a8565b6040516020016108939594939291906147ee565b60408051601f1981840301815291815281516020928301208352908201929092520160002080546001600160e01b03191690555050505050565b60006108f185856040516108e292919061482d565b60405180910390208484611e91565b1561090457506320c13b0b60e01b6107f9565b5060006107f9565b61092a87878787854660405160200161066896959493929190614886565b600086900361094c57604051630e52390960e41b815260040160405180910390fd5b60005b8681101561098e5761098688888381811061096c5761096c6148bf565b90506020020160208101906109819190614034565b611fd6565b60010161094f565b50841561099e5761099e8561208e565b50505050505050565b6109dc8787878785466040516020016109c596959493929190614b87565b6040516020818303038152906040528285856120e0565b60006109e7886121e5565b868155600080805260028201602090815260408083209091528120893590559091505b610a176020890189614d20565b9050811015610b6e5760005b610a3060208a018a614d20565b83818110610a4057610a406148bf565b9050602002810190610a529190614d69565b610a60906020810190614d20565b9050811015610b655760018381016000610a7d60208d018d614d20565b86818110610a8d57610a8d6148bf565b9050602002810190610a9f9190614d69565b610aad906020810190614034565b6001600160a01b03166001600160a01b0316815260200190815260200160002060008b8060200190610adf9190614d20565b86818110610aef57610aef6148bf565b9050602002810190610b019190614d69565b610b0f906020810190614d20565b85818110610b1f57610b1f6148bf565b9050602002016020810190610b349190613a86565b6001600160e01b03191681526020810191909152604001600020805460ff1916911515919091179055600101610a23565b50600101610a0a565b5060005b610b7f6040890189614d89565b9050811015610c1a57610b956040890189614d89565b82818110610ba557610ba56148bf565b905060400201602001358260020160008a8060400190610bc59190614d89565b85818110610bd557610bd56148bf565b610beb9260206040909202019081019150614034565b6001600160a01b0316815260208082019290925260409081016000908120818052909252902055600101610b72565b5060005b610c2b6060890189614d20565b9050811015610e0e57610c416060890189614d20565b82818110610c5157610c516148bf565b9050602002810190610c639190614dd2565b610c74906040810190602001614de8565b15610ceb576001600383016000610c8e60608c018c614d20565b85818110610c9e57610c9e6148bf565b9050602002810190610cb09190614dd2565b610cbe906020810190614034565b6001600160a01b031681526020810191909152604001600020805460ff1916911515919091179055610e06565b60005b610cfb60608a018a614d20565b83818110610d0b57610d0b6148bf565b9050602002810190610d1d9190614dd2565b610d2b906040810190614d20565b9050811015610e04576001600284016000610d4960608d018d614d20565b86818110610d5957610d596148bf565b9050602002810190610d6b9190614dd2565b610d79906020810190614034565b6001600160a01b031681526020810191909152604001600090812090610da260608d018d614d20565b86818110610db257610db26148bf565b9050602002810190610dc49190614dd2565b610dd2906040810190614d20565b85818110610de257610de26148bf565b6020908102929092013583525081019190915260400160002055600101610cee565b505b600101610c1e565b5060005b610e1f6080890189614d20565b905081101561105757610e356080890189614d20565b82818110610e4557610e456148bf565b9050602002810190610e579190614e05565b610e68906040810190602001614de8565b15610edf576001600383016000610e8260808c018c614d20565b85818110610e9257610e926148bf565b9050602002810190610ea49190614e05565b610eb2906020810190614034565b6001600160a01b031681526020810191909152604001600020805460ff191691151591909117905561104f565b60005b610eef60808a018a614d20565b83818110610eff57610eff6148bf565b9050602002810190610f119190614e05565b610f1f906040810190614d20565b905081101561104d57610f3560808a018a614d20565b83818110610f4557610f456148bf565b9050602002810190610f579190614e05565b610f65906060810190614d20565b82818110610f7557610f756148bf565b905060200201358360020160008b8060800190610f929190614d20565b86818110610fa257610fa26148bf565b9050602002810190610fb49190614e05565b610fc2906020810190614034565b6001600160a01b031681526020810191909152604001600090812090610feb60808d018d614d20565b86818110610ffb57610ffb6148bf565b905060200281019061100d9190614e05565b61101b906040810190614d20565b8581811061102b5761102b6148bf565b6020908102929092013583525081019190915260400160002055600101610ee2565b505b600101610e12565b5061106061224d565b6001600160a01b03891660009081526001919091016020526040812080549161108883614e1b565b91905055505050505050505050565b61109f611dc8565b6110a882612271565b6110b282826122b6565b5050565b6000806110c161224d565b6001600160a01b0384166000908152600182016020526040812054919250036110ed5750600092915050565b6001600160a01b038316600090815260208281526040808320600180860190935290832054909183916111209190614651565b81526020810191909152604001600020544210949350505050565b600061114561236f565b5060008051602061542d83398151915290565b6040805160208101879052908101859052606081018290524660808201526111829060a001610668565b61118b8561208e565b5050505050565b60606111cc868684466040516020016111ae9493929190614e6d565b60405160208183030381529060405280519060200120838686611cc7565b6000856001600160401b038111156111e6576111e6613c36565b60405190808252806020026020018201604052801561121957816020015b60608152602001906001900390816112045790505b50905060005b868110156112785761125388888381811061123c5761123c6148bf565b905060200281019061124e9190614e05565b6123b8565b828281518110611265576112656148bf565b602090810291909101015260010161121f565b509695505050505050565b61129d858583466040516020016106689493929190614ed9565b61118b8561249e565b606060006112b261224d565b336000908152600182016020526040812054919250036112f05733604051633b92010160e21b81526004016112e791906143a0565b60405180910390fd5b33600090815260208290526040812081600161130a61224d565b33600090815260019190910160205260409020546113289190614651565b815260200190815260200160002090504281600001541161135c57604051630fe82d2560e11b815260040160405180910390fd5b600080805260028201602090815260408083208252909120549085013511156113be5760008080526002820160209081526040808320825291829020549151638dccd66960e01b815290860135600482015260248101919091526044016112e7565b60006113cd60608601866147a8565b6113d691614eff565b9050611420826113e96020880188614034565b6001600160a01b03166000908152600191909101602090815260408083206001600160e01b03198616845290915290205460ff1690565b611466576114316020860186614034565b60405163c603605d60e01b81526001600160a01b0390911660048201526001600160e01b0319821660248201526044016112e7565b61147182868361252e565b61147c8286836127cc565b611487828683612baa565b60008080526002830160209081526040808320825282208054918801359290916114b2908490614651565b909155506114c19050856123b8565b95945050505050565b604080516001600160a01b03808916602083015287169181019190915260608101859052608081018290524660a08201526115079060c001610668565b61150f611ca3565b6001600160a01b03871660009081526002919091016020526040812054900361154b576040516385e1605f60e01b815260040160405180910390fd5b611553611ca3565b6001600160a01b038616600090815260029190910160205260409020541561158e5760405163983b8f4b60e01b815260040160405180910390fd5b6115bc8561159a611ca3565b6001600160a01b03891660009081526002919091016020526040902054612dec565b6115c586611fd6565b505050505050565b6115e98686868446604051602001610668959493929190614f56565b6115f960a0860160808701615006565b63ffffffff1660000361161f5760405163c820870160e01b815260040160405180910390fd5b600061162e6020880188614034565b61163e6040890160208a01614034565b604089013561165060608b018b6147a8565b6040516020016116649594939291906147ee565b60405160208183030381529060405280519060200120905085611685611fb2565b60008381526020919091526040902061169e8282615030565b505050505050505050565b60006116b3611ca3565b54919050565b60606116d38583466040516020016111ae93929190615124565b6114c1856123b8565b60006116f68583466040516020016111ae93929190615149565b6114c185612e3b565b6000611709612f47565b805490915060ff600160401b82041615906001600160401b03166000811580156117305750825b90506000826001600160401b0316600114801561174c5750303b155b90508115801561175a575080155b156117785760405163f92ee8a960e01b815260040160405180910390fd5b845467ffffffffffffffff1916600117855583156117a257845460ff60401b1916600160401b1785555b6117ab86612f6b565b83156115c557845460ff60401b19168555604051600181527fc7f505b2f371ae2175ee4913f4499e1f2633a7b5936321eed1cdaeb6115181d29060200160405180910390a1505050505050565b6118188888888888864660405160200161066897969594939291906151be565b86851461183857604051632efb78eb60e21b815260040160405180910390fd5b600087900361185a57604051630e52390960e41b815260040160405180910390fd5b60005b8781101561169e576000898983818110611879576118796148bf565b905060200201602081019061188e9190614034565b9050611898611ca3565b6001600160a01b03821660009081526002919091016020526040902054156118d35760405163983b8f4b60e01b815260040160405180910390fd5b6118f5818989858181106118e9576118e96148bf565b90506020020135612dec565b5060010161185d565b6119073361249e565b565b6000611913611ca3565b6001600160a01b03909216600090815260029290920160205250604090205490565b60606000826001600160401b0381111561195157611951613c36565b60405190808252806020026020018201604052801561198457816020015b606081526020019060019003908161196f5790505b50905060005b838110156119de576119b98585838181106119a7576119a76148bf565b90506020028101906105f59190614e05565b8282815181106119cb576119cb6148bf565b602090810291909101015260010161198a565b509392505050565b60606000826001600160401b03811115611a0257611a02613c36565b604051908082528060200260200182016040528015611a3557816020015b6060815260200190600190039081611a205790505b50905060005b838110156119de57611a6a858583818110611a5857611a586148bf565b90506020028101906103e89190614e05565b828281518110611a7c57611a7c6148bf565b6020908102919091010152600101611a3b565b60606000611a9d3384612f8c565b8054909150600160c01b900463ffffffff16600003611ac457611ac1600084612f8c565b90505b8054600160c01b900463ffffffff16600003611af357604051633c6fbd2360e01b815260040160405180910390fd5b80546001600160401b031615801590611b15575080546001600160401b031642105b15611b33576040516302a175a360e31b815260040160405180910390fd5b8054600160401b90046001600160401b031615801590611b6057508054600160801b900463ffffffff1615155b8015611b9c57508054611b9090600160801b810463ffffffff1690600160401b90046001600160401b0316615205565b6001600160401b031642105b15611bba57604051637f1a4abd60e11b815260040160405180910390fd5b805463ffffffff600160c01b82048116600160a01b9092041610611bf157604051630fdaa12360e21b815260040160405180910390fd5b80546001908290601490611c13908490600160a01b900463ffffffff1661522c565b82546101009290920a63ffffffff81810219909316919092169190910217905550805467ffffffffffffffff60401b1916600160401b426001600160401b031602178155610825836123b8565b6000611c6a612ff8565b6001600160401b0316905090565b60006374eca2c160e11b6001600160e01b0319831601611c9a57506001919050565b61061a82613011565b7f255f4a56bd3ad76424e31ed8855ef9ad14a0ce4e67508c76ff082e5c1466b12f90565b42831015611ce85760405163b08ce5b360e01b815260040160405180910390fd5b611cf0611ca3565b54600003611d1157604051636a00024b60e11b815260040160405180910390fd5b600080611d2786611d228587615249565b613036565b91509150818190611d4b5760405162461bcd60e51b81526004016112e79190614239565b5060005b8381101561099e576001611d61611ca3565b6003016000878785818110611d7857611d786148bf565b9050602002810190611d8a91906147a8565b604051611d9892919061482d565b60408051918290039091208252602082019290925201600020805460ff1916911515919091179055600101611d4f565b306001600160a01b037f0000000000000000000000000000000000000000000000000000000000000000161480611e4f57507f00000000000000000000000000000000000000000000000000000000000000006001600160a01b0316611e4360008051602061542d833981519152546001600160a01b031690565b6001600160a01b031614155b156119075760405163703e46dd60e11b815260040160405180910390fd5b7f8480f6681de262f06542a42e126de05ebaca6a167394778f7693338ddb42e1b490565b6000611e9e6041836152d2565b15611ebc57604051634be6321b60e01b815260040160405180910390fd5b6000611ec96041846152e6565b90506000816001600160401b03811115611ee557611ee5613c36565b604051908082528060200260200182016040528015611f1857816020015b6060815260200190600190039081611f035790505b50905060005b82811015611f9957611f74611f346041836152fa565b604080516020601f8a018190048102820181019092528881526041918a908a90819084018382808284376000920191909152509294939250506131be9050565b828281518110611f8657611f866148bf565b6020908102919091010152600101611f1e565b506000611fa68783613036565b50979650505050505050565b7f8b8c16fdb86566569823d1c7c7621975485948685c113470681dca36483b623590565b611fde611ca3565b6001600160a01b03821660009081526002919091016020526040902054612003611ca3565b60010160008282546120159190614651565b909155506120239050611ca3565b6001015415806120455750612036611ca3565b5461203f611ca3565b60010154105b15612063576040516325746d7d60e21b815260040160405180910390fd5b600061206d611ca3565b6001600160a01b039092166000908152600292909201602052604090912055565b80612097611ca3565b556120a0611ca3565b5415806120bf57506120b0611ca3565b600101546120bc611ca3565b54115b156120dd5760405163aabd5a0960e01b815260040160405180910390fd5b50565b428310156121015760405163b08ce5b360e01b815260040160405180910390fd5b612109611ca3565b5460000361212a57604051636a00024b60e11b815260040160405180910390fd5b83516020850120600090819061214490611d228587615249565b915091508181906121685760405162461bcd60e51b81526004016112e79190614239565b5060005b8381101561099e57600161217e611ca3565b6003016000878785818110612195576121956148bf565b90506020028101906121a791906147a8565b6040516121b592919061482d565b60408051918290039091208252602082019290925201600020805460ff191691151591909117905560010161216c565b60006121ef61224d565b6001600160a01b0383166000908152602091909152604081209061221161224d565b6001016000856001600160a01b03166001600160a01b031681526020019081526020016000205481526020019081526020016000209050919050565b7f48c02387a8e3f19678350d4a0d11f3f704fd6b94259fde7dd6097e79ffa93dcd90565b612279611e6d565b5460ff1661229a57604051630e985e9560e21b815260040160405180910390fd5b60006122a4611e6d565b805460ff191691151591909117905550565b816001600160a01b03166352d1902d6040518163ffffffff1660e01b8152600401602060405180830381865afa925050508015612310575060408051601f3d908101601f1916820190925261230d91810190615311565b60015b61232f5781604051634c9c8ce360e01b81526004016112e791906143a0565b60008051602061542d833981519152811461236057604051632a87526960e21b8152600481018290526024016112e7565b61236a83836132cb565b505050565b306001600160a01b037f000000000000000000000000000000000000000000000000000000000000000016146119075760405163703e46dd60e11b815260040160405180910390fd5b60606000806123ca6020850185614034565b6001600160a01b031660208501356123e560608701876147a8565b6040516123f392919061482d565b60006040518083038185875af1925050503d8060008114612430576040519150601f19603f3d011682016040523d82523d6000602084013e612435565b606091505b509150915081610825578051600003612496576000846020013511801561245f5750478460200135115b1561247d5760405163356680b760e01b815260040160405180910390fd5b604051632a0e33eb60e11b815260040160405180910390fd5b805160208201fd5b60006124a861224d565b6001600160a01b0383166000908152600182016020526040812054919250036124e65781604051633b92010160e21b81526004016112e791906143a0565b6001600160a01b038216600090815260208281526040808320600180860190935290832054909183916125199190614651565b81526020810191909152604001600020555050565b6356fa634560e01b6001600160e01b03198216016126b45761255b6125566020840184614034565b613321565b61256457505050565b600061257360608401846147a8565b61258191600490829061532a565b81019061258e9190615354565b91508190506002850160006125a66020870187614034565b6001600160a01b03166001600160a01b031681526020019081526020016000206000808152602001908152602001600020541015612654576125eb6020840184614034565b816002860160006125ff6020880188614034565b6001600160a01b039081168252602080830193909352604091820160009081208180529093529181902054905163fdfd218960e01b8152939091166004840152602483019190915260448201526064016112e7565b806002850160006126686020870187614034565b6001600160a01b03166001600160a01b03168152602001908152602001600020600080815260200190815260200160002060008282546126a89190614651565b9091555061236a915050565b63dc478d2360e01b6001600160e01b031982160161236a576126dc6125566020840184614034565b6126e557505050565b60006126f460608401846147a8565b61270291600490829061532a565b81019061270f9190615380565b9250829150506002850160006127286020870187614034565b6001600160a01b03166001600160a01b03168152602001908152602001600020600080815260200190815260200160002054101561276d576125eb6020840184614034565b806002850160006127816020870187614034565b6001600160a01b03166001600160a01b03168152602001908152602001600020600080815260200190815260200160002060008282546127c19190614651565b909155505050505050565b6306dede6b60e11b6001600160e01b031982160161295c576128016127f46020840184614034565b636cdb3d1360e11b6134ab565b61280a57505050565b60008061281a60608501856147a8565b61282891600490829061532a565b8101906128359190614592565b509094509250829150506002860160006128526020880188614034565b6001600160a01b03166001600160a01b0316815260200190815260200160002060008481526020019081526020016000205410156128fb576128976020850185614034565b82826002880160006128ac60208a018a614034565b6001600160a01b03166001600160a01b0316815260200190815260200160002060008681526020019081526020016000205460405163653a86dd60e11b81526004016112e79493929190614ed9565b8060028601600061290f6020880188614034565b6001600160a01b03166001600160a01b031681526020019081526020016000206000848152602001908152602001600020600082825461294f9190614651565b9091555061236a92505050565b6368a69e9560e11b6001600160e01b031982160161236a576129846127f46020840184614034565b61298d57505050565b60008061299d60608501856147a8565b6129ab91600490829061532a565b8101906129b8919061443b565b5093509350505060005b82518110156115c5578181815181106129dd576129dd6148bf565b60200260200101518660020160008760000160208101906129fe9190614034565b6001600160a01b03166001600160a01b031681526020019081526020016000206000858481518110612a3257612a326148bf565b60200260200101518152602001908152602001600020541015612b1157612a5c6020860186614034565b838281518110612a6e57612a6e6148bf565b6020026020010151838381518110612a8857612a886148bf565b6020026020010151886002016000896000016020810190612aa99190614034565b6001600160a01b03166001600160a01b031681526020019081526020016000206000878681518110612add57612add6148bf565b602002602001015181526020019081526020016000205460405163653a86dd60e11b81526004016112e79493929190614ed9565b818181518110612b2357612b236148bf565b6020026020010151866002016000876000016020810190612b449190614034565b6001600160a01b03166001600160a01b031681526020019081526020016000206000858481518110612b7857612b786148bf565b602002602001015181526020019081526020016000206000828254612b9d9190614651565b90915550506001016129c2565b63dc478d2360e01b6001600160e01b0319821601612d1757612bdf612bd26020840184614034565b6380ac58cd60e01b6134ab565b612be857505050565b600383016000612bfb6020850185614034565b6001600160a01b0316815260208101919091526040016000205460ff1615612c2257505050565b6000612c3160608401846147a8565b612c3f91600490829061532a565b810190612c4c9190615380565b92505050600284016000612c636020860186614034565b6001600160a01b03166001600160a01b03168152602001908152602001600020600082815260200190815260200160002054600003612cd557612ca96020840184614034565b60405163c30d449f60e01b81526001600160a01b039091166004820152602481018290526044016112e7565b60006002850181612ce96020870187614034565b6001600160a01b03168152602080820192909252604090810160009081209481529390915290912055505050565b635ebde8f960e11b6001600160e01b0319821601612d3f57612bdf612bd26020840184614034565b6323b9581160e11b6001600160e01b031982160161236a57612d67612bd26020840184614034565b612d7057505050565b600383016000612d836020850185614034565b6001600160a01b0316815260208101919091526040016000205460ff1615612daa57505050565b6000612db960608401846147a8565b612dc791600490829061532a565b810190612dd49190613ceb565b5092505050600284016000612c636020860186614034565b80612df5611ca3565b6001016000828254612e079190614664565b90915550819050612e16611ca3565b6001600160a01b03909316600090815260029390930160205260409092209190915550565b6000612e8a818335612e5060408601866147a8565b8080601f01602080910402602001604051908101604052809392919081815260200183838082843760009201919091525061356192505050565b90506000612e9b60608401846147a8565b90501115612f42576000806001600160a01b038316612ebd60608601866147a8565b604051612ecb92919061482d565b6000604051808303816000865af19150503d8060008114612f08576040519150601f19603f3d011682016040523d82523d6000602084013e612f0d565b606091505b509150915081612f3f57805115612f2657805181602001fd5b60405163727f092d60e01b815260040160405180910390fd5b50505b919050565b7ff0c57e16840df040f15088dc2f81fe391c3923bec73e23a9662efc9c229c6a0090565b612f736135e1565b612f7e816001612dec565b6001612f88611ca3565b5550565b6000612f96611fb2565b600084612fa66020860186614034565b6020860135612fb860608801886147a8565b604051602001612fcc9594939291906147ee565b604051602081830303815290604052805190602001208152602001908152602001600020905092915050565b6000613002612f47565b546001600160401b0316919050565b60006001600160e01b03198216630271189760e51b148061061a575061061a82613606565b600060606000805b845181101561316b57600061306c8787848151811061305f5761305f6148bf565b6020026020010151613631565b9050613076611ca3565b6001600160a01b0382166000908152600291909101602052604081205490036130c057600060405180606001604052806032815260200161544d60329139945094505050506131b7565b60008683815181106130d4576130d46148bf565b60200260200101518051906020012090506130ed611ca3565b6000828152600391909101602052604090205460ff161561313057600060405180606001604052806023815260200161547f6023913995509550505050506131b7565b613138611ca3565b6001600160a01b0383166000908152600291909101602052604090205461315f9085614664565b9350505060010161303e565b50613174611ca3565b548110156131a15760006040518060600160405280602681526020016154076026913992509250506131b7565b5050604080516020810190915260008152600191505b9250929050565b6060816131cc81601f614664565b101561320b5760405162461bcd60e51b815260206004820152600e60248201526d736c6963655f6f766572666c6f7760901b60448201526064016112e7565b6132158284614664565b845110156132595760405162461bcd60e51b8152602060048201526011602482015270736c6963655f6f75744f66426f756e647360781b60448201526064016112e7565b60608215801561327857604051915060008252602082016040526132c2565b6040519150601f8416801560200281840101858101878315602002848b0101015b818310156132b1578051835260209283019201613299565b5050858452601f01601f1916604052505b50949350505050565b6132d48261366a565b6040516001600160a01b038316907fbc7cd75a20ee27fd9adebab32041f755214dbc6bffa90cc0225b39da2e5c2d3b90600090a28051156133195761236a82826136c6565b6110b2613733565b6000806000836001600160a01b03163060405160240161334191906143a0565b60408051601f198184030181529181526020820180516001600160e01b03166370a0823160e01b1790525161337691906153c1565b600060405180830381855afa9150503d80600081146133b1576040519150601f19603f3d011682016040523d82523d6000602084013e6133b6565b606091505b50915091508180156133c9575080516020145b92508215612f3f5760408051600481526024810182526020810180516001600160e01b03166318160ddd60e01b17905290516001600160a01b0386169161340f916153c1565b600060405180830381855afa9150503d806000811461344a576040519150601f19603f3d011682016040523d82523d6000602084013e61344f565b606091505b509092509050818015613463575080516020145b92508215612f3f5761347c846380ac58cd60e01b6134ab565b1561348b575060009392505050565b61349c84636cdb3d1360e11b6134ab565b15612f3f575060009392505050565b6000806000846001600160a01b0316846040516024016134cb9190613d56565b60408051601f198184030181529181526020820180516001600160e01b03166301ffc9a760e01b1790525161350091906153c1565b600060405180830381855afa9150503d806000811461353b576040519150601f19603f3d011682016040523d82523d6000602084013e613540565b606091505b50915091508180156114c15750808060200190518101906114c191906153d3565b60008347101561358d5760405163392efb2b60e21b8152476004820152602481018590526044016112e7565b81516000036135af57604051631328927760e21b815260040160405180910390fd5b8282516020840186f590506001600160a01b03811661082557604051633a0ba96160e11b815260040160405180910390fd5b6135e9613752565b61190757604051631afcd79f60e31b815260040160405180910390fd5b600063a56a8ce960e01b6001600160e01b031983160161362857506001919050565b61061a8261376c565b7f19457468657265756d205369676e6564204d6573736167653a0a3332000000006000908152601c839052603c81206108259083613797565b806001600160a01b03163b6000036136975780604051634c9c8ce360e01b81526004016112e791906143a0565b60008051602061542d83398151915280546001600160a01b0319166001600160a01b0392909216919091179055565b6060600080846001600160a01b0316846040516136e391906153c1565b600060405180830381855af49150503d806000811461371e576040519150601f19603f3d011682016040523d82523d6000602084013e613723565b606091505b50915091506114c18583836137c1565b34156119075760405163b398979f60e01b815260040160405180910390fd5b600061375c612f47565b54600160401b900460ff16919050565b60006365e90f7160e01b6001600160e01b031983160161378e57506001919050565b61061a82613814565b6000806000806137a7868661383f565b9250925092506137b7828261388c565b5090949350505050565b6060826137d6576137d182613945565b610825565b81511580156137ed57506001600160a01b0384163b155b1561380d5783604051639996b31560e01b81526004016112e791906143a0565b5080610825565b6000630474ef2b60e11b6001600160e01b031983160161383657506001919050565b61061a8261396e565b600080600083516041036138795760208401516040850151606086015160001a61386b888285856139a9565b955095509550505050613885565b50508151600091506002905b9250925092565b60008260038111156138a0576138a06153f0565b036138a9575050565b60018260038111156138bd576138bd6153f0565b036138db5760405163f645eedf60e01b815260040160405180910390fd5b60028260038111156138ef576138ef6153f0565b036139105760405163fce698f760e01b8152600481018290526024016112e7565b6003826003811115613924576139246153f0565b036110b2576040516335e2f38360e21b8152600481018290526024016112e7565b8051156139555780518082602001fd5b604051630a12f52160e11b815260040160405180910390fd5b6000638c0d754360e01b6001600160e01b031983160161399057506001919050565b6301ffc9a760e01b6001600160e01b031983161461061a565b600080806fa2a8918ca85bafe22016d0b997e4df60600160ff1b038411156139da5750600091506003905082613a64565b604080516000808252602082018084528a905260ff891692820192909252606081018790526080810186905260019060a0016020604051602081039080840390855afa158015613a2e573d6000803e3d6000fd5b5050604051601f1901519150506001600160a01b038116613a5a57506000925060019150829050613a64565b9250600091508190505b9450945094915050565b80356001600160e01b031981168114612f4257600080fd5b600060208284031215613a9857600080fd5b61082582613a6e565b6001600160a01b03811681146120dd57600080fd5b60008083601f840112613ac857600080fd5b5081356001600160401b03811115613adf57600080fd5b6020830191508360208260051b85010111156131b757600080fd5b60008060008060008060a08789031215613b1357600080fd5b8635613b1e81613aa1565b9550602087013594506040870135935060608701356001600160401b03811115613b4757600080fd5b613b5389828a01613ab6565b979a9699509497949695608090950135949350505050565b60008083601f840112613b7d57600080fd5b5081356001600160401b03811115613b9457600080fd5b6020830191508360208285010111156131b757600080fd5b60008060008060008060808789031215613bc557600080fd5b8635613bd081613aa1565b955060208701356001600160401b0380821115613bec57600080fd5b613bf88a838b01613b6b565b90975095506040890135915080821115613c1157600080fd5b50613c1e89828a01613ab6565b979a9699509497949695606090950135949350505050565b634e487b7160e01b600052604160045260246000fd5b604051601f8201601f191681016001600160401b0381118282101715613c7457613c74613c36565b604052919050565b600082601f830112613c8d57600080fd5b81356001600160401b03811115613ca657613ca6613c36565b613cb9601f8201601f1916602001613c4c565b818152846020838601011115613cce57600080fd5b816020850160208301376000918101602001919091529392505050565b60008060008060808587031215613d0157600080fd5b8435613d0c81613aa1565b93506020850135613d1c81613aa1565b92506040850135915060608501356001600160401b03811115613d3e57600080fd5b613d4a87828801613c7c565b91505092959194509250565b6001600160e01b031991909116815260200190565b600080600060408486031215613d8057600080fd5b8335925060208401356001600160401b03811115613d9d57600080fd5b613da986828701613b6b565b9497909650939450505050565b600060808284031215613dc857600080fd5b50919050565b600080600080600060808688031215613de657600080fd5b85356001600160401b0380821115613dfd57600080fd5b613e0989838a01613db6565b9650602088013595506040880135915080821115613e2657600080fd5b50613e3388828901613ab6565b96999598509660600135949350505050565b60008060008060408587031215613e5b57600080fd5b84356001600160401b0380821115613e7257600080fd5b613e7e88838901613b6b565b90965094506020870135915080821115613e9757600080fd5b50613ea487828801613b6b565b95989497509550505050565b600080600080600080600060a0888a031215613ecb57600080fd5b87356001600160401b0380821115613ee257600080fd5b613eee8b838c01613ab6565b909950975060208a0135965060408a0135955060608a0135915080821115613f1557600080fd5b50613f228a828b01613ab6565b989b979a50959894979596608090950135949350505050565b600060a08284031215613dc857600080fd5b600080600080600080600060c0888a031215613f6857600080fd5b8735613f7381613aa1565b965060208801356001600160401b0380821115613f8f57600080fd5b613f9b8b838c01613f3b565b975060408a0135965060608a0135955060808a0135915080821115613fbf57600080fd5b50613fcc8a828b01613ab6565b989b979a5095989497959660a090950135949350505050565b60008060408385031215613ff857600080fd5b823561400381613aa1565b915060208301356001600160401b0381111561401e57600080fd5b61402a85828601613c7c565b9150509250929050565b60006020828403121561404657600080fd5b813561082581613aa1565b60008060008060006080868803121561406957600080fd5b853594506020860135935060408601356001600160401b0381111561408d57600080fd5b613e3388828901613ab6565b6000806000806000606086880312156140b157600080fd5b85356001600160401b03808211156140c857600080fd5b6140d489838a01613ab6565b909750955060208801359150808211156140ed57600080fd5b506140fa88828901613ab6565b96999598509660400135949350505050565b60005b8381101561412757818101518382015260200161410f565b50506000910152565b6000815180845261414881602086016020860161410c565b601f01601f19169290920160200192915050565b600060208083016020845280855180835260408601915060408160051b87010192506020870160005b828110156141b357603f198886030184526141a1858351614130565b94509285019290850190600101614185565b5092979650505050505050565b6000806000806000608086880312156141d857600080fd5b85356141e381613aa1565b94506020860135935060408601356001600160401b0381111561408d57600080fd5b60006020828403121561421757600080fd5b81356001600160401b0381111561422d57600080fd5b6107f984828501613db6565b6020815260006108256020830184614130565b60008060008060008060a0878903121561426557600080fd5b863561427081613aa1565b9550602087013561428081613aa1565b94506040870135935060608701356001600160401b03811115613b4757600080fd5b60008060008060008061012087890312156142bc57600080fd5b86356001600160401b03808211156142d357600080fd5b6142df8a838b01613db6565b97506142ee8a60208b01613f3b565b965060c0890135955060e089013591508082111561430b57600080fd5b5061431889828a01613ab6565b979a969950949794969561010090950135949350505050565b6000806000806060858703121561434757600080fd5b84356001600160401b038082111561435e57600080fd5b61436a88838901613db6565b9550602087013591508082111561438057600080fd5b5061438d87828801613ab6565b9598909750949560400135949350505050565b6001600160a01b0391909116815260200190565b60006001600160401b038211156143cd576143cd613c36565b5060051b60200190565b600082601f8301126143e857600080fd5b813560206143fd6143f8836143b4565b613c4c565b8083825260208201915060208460051b87010193508684111561441f57600080fd5b602086015b848110156112785780358352918301918301614424565b600080600080600060a0868803121561445357600080fd5b853561445e81613aa1565b9450602086013561446e81613aa1565b935060408601356001600160401b038082111561448a57600080fd5b61449689838a016143d7565b945060608801359150808211156144ac57600080fd5b6144b889838a016143d7565b935060808801359150808211156144ce57600080fd5b506144db88828901613c7c565b9150509295509295909350565b60008060008060008060008060a0898b03121561450457600080fd5b88356001600160401b038082111561451b57600080fd5b6145278c838d01613ab6565b909a50985060208b013591508082111561454057600080fd5b61454c8c838d01613ab6565b909850965060408b0135955060608b013591508082111561456c57600080fd5b506145798b828c01613ab6565b999c989b50969995989497949560800135949350505050565b600080600080600060a086880312156145aa57600080fd5b85356145b581613aa1565b945060208601356145c581613aa1565b9350604086013592506060860135915060808601356001600160401b038111156145ee57600080fd5b6144db88828901613c7c565b6000806020838503121561460d57600080fd5b82356001600160401b0381111561462357600080fd5b61462f85828601613ab6565b90969095509350505050565b634e487b7160e01b600052601160045260246000fd5b8181038181111561061a5761061a61463b565b8082018082111561061a5761061a61463b565b81835281816020850137506000828201602090810191909152601f909101601f19169091010190565b6001600160a01b03861681526080602082018190526000906146c59083018688614677565b604083019490945250606001529392505050565b6000808335601e198436030181126146f057600080fd5b83016020810192503590506001600160401b0381111561470f57600080fd5b8036038213156131b757600080fd5b6000813561472b81613aa1565b6001600160a01b03908116845260208301359061474782613aa1565b1660208401526040828101359084015261476460608301836146d9565b608060608601526114c1608086018284614677565b60808152600061478c608083018761471e565b6020830195909552506040810192909252606090910152919050565b6000808335601e198436030181126147bf57600080fd5b8301803591506001600160401b038211156147d957600080fd5b6020019150368190038213156131b757600080fd5b6001600160a01b03868116825285166020820152604081018490526080606082018190526000906148229083018486614677565b979650505050505050565b8183823760009101908152919050565b8183526000602080850194508260005b8581101561487b57813561486081613aa1565b6001600160a01b03168752958201959082019060010161484d565b509495945050505050565b60a08152600061489a60a08301888a61483d565b9050856020830152846040830152836060830152826080830152979650505050505050565b634e487b7160e01b600052603260045260246000fd5b6000808335601e198436030181126148ec57600080fd5b83016020810192503590506001600160401b0381111561490b57600080fd5b8060051b36038213156131b757600080fd5b6000808335601e1984360301811261493457600080fd5b83016020810192503590506001600160401b0381111561495357600080fd5b8060061b36038213156131b757600080fd5b8183526000602080850194508260005b8581101561487b57813561498881613aa1565b6001600160a01b03168752818301358388015260409687019690910190600101614975565b80151581146120dd57600080fd5b81835260006001600160fb1b038311156149d457600080fd5b8260051b80836020870137939093016020019392505050565b60008383855260208086019550808560051b830101846000805b88811015614a9157858403601f19018a52823536899003605e19018112614a2c578283fd5b880160608135614a3b81613aa1565b6001600160a01b0316865281870135614a53816149ad565b1515868801526040614a67838201846148d5565b93508282890152614a7b83890185836149bb565b9d89019d97505050938601935050600101614a07565b509198975050505050505050565b60008235607e19833603018112614ab557600080fd5b90910192915050565b60008383855260208086019550808560051b8301018460005b87811015614b7a57848303601f19018952614af28288614a9f565b60808135614aff81613aa1565b6001600160a01b0316855281860135614b17816149ad565b1515858701526040614b2b838201846148d5565b8383890152614b3d84890182846149bb565b93505050506060614b50818401846148d5565b935086830382880152614b648385836149bb565b9c88019c96505050928501925050600101614ad7565b5090979650505050505050565b600060018060a01b038089168352602060c0818501526101608401893560c0860152614bb5828b018b6148d5565b60a060e088015291829052610180600583901b87018101929087018260005b83811015614c765789860361017f19018352813536869003603e19018112614bfb57600080fd5b850160408781018235614c0d81613aa1565b8b168952614c1d838b01846148d5565b8a8c019390935290829052909150606088019060005b83811015614c60576001600160e01b0319614c4d83613a6e565b168352918a0191908a0190600101614c33565b5090975050509186019190860190600101614bd4565b5050505050614c8860408b018b61491d565b9350915060bf198086830301610100870152614ca5828585614965565b9350614cb460608c018c6148d5565b935091508086850301610120870152614cce8484846149ed565b9350614cdd60808c018c6148d5565b93509150808685030161014087015250614cf8838383614abe565b93505050508560408301528460608301528360808301528260a0830152979650505050505050565b6000808335601e19843603018112614d3757600080fd5b8301803591506001600160401b03821115614d5157600080fd5b6020019150600581901b36038213156131b757600080fd5b60008235603e19833603018112614d7f57600080fd5b9190910192915050565b6000808335601e19843603018112614da057600080fd5b8301803591506001600160401b03821115614dba57600080fd5b6020019150600681901b36038213156131b757600080fd5b60008235605e19833603018112614d7f57600080fd5b600060208284031215614dfa57600080fd5b8135610825816149ad565b60008235607e19833603018112614d7f57600080fd5b600060018201614e2d57614e2d61463b565b5060010190565b60008135614e4181613aa1565b6001600160a01b03168352602082810135908401526040808301359084015261476460608301836146d9565b6060808252810184905260006080600586901b8301810190830187835b88811015614ec357858403607f19018352614eae84614ea9848d614a9f565b614e34565b93506020928301929190910190600101614e8a565b5050506020830194909452506040015292915050565b6001600160a01b0394909416845260208401929092526040830152606082015260800190565b6001600160e01b03198135818116916004851015614f275780818660040360031b1b83161692505b505092915050565b6001600160401b03811681146120dd57600080fd5b63ffffffff811681146120dd57600080fd5b6000610120808352614f6a8184018961471e565b9150508535614f7881614f2f565b6001600160401b03808216602085015260208801359150614f9882614f2f565b16604083810191909152860135614fae81614f44565b63ffffffff808216606085015260608801359150614fcb82614f44565b808216608085015260808801359150614fe382614f44565b1660a083015260c082019490945260e08101929092526101009091015292915050565b60006020828403121561501857600080fd5b813561082581614f44565b6000813561061a81614f44565b813561503b81614f2f565b6001600160401b03811690508154816001600160401b03198216178355602084013561506681614f2f565b67ffffffffffffffff60401b604091821b166001600160801b031983168417811785559085013561509681614f44565b6001600160a01b03199290921690921782811760809290921b63ffffffff60801b169182178455916060850135916150cd83614f44565b63ffffffff60a01b1993909316179190911760a09190911b63ffffffff60a01b161781556110b261510060808401615023565b82805463ffffffff60c01b191660c09290921b63ffffffff60c01b16919091179055565b6060815260006151376060830186614e34565b60208301949094525060400152919050565b606081528335606082015260208401356080820152600061516d60408601866146d9565b608060a085015261518260e085018284614677565b91505061519260608701876146d9565b848303605f190160c08601526151a9838284614677565b60208601979097525050505060400152919050565b60a0815260006151d260a08301898b61483d565b82810360208401526151e581888a6149bb565b604084019690965250506060810192909252608090910152949350505050565b6001600160401b038181168382160190808211156152255761522561463b565b5092915050565b63ffffffff8181168382160190808211156152255761522561463b565b60006152576143f8846143b4565b80848252602080830192508560051b85013681111561527557600080fd5b855b818110156152b05780356001600160401b038111156152965760008081fd5b6152a236828a01613c7c565b865250938201938201615277565b50919695505050505050565b634e487b7160e01b600052601260045260246000fd5b6000826152e1576152e16152bc565b500690565b6000826152f5576152f56152bc565b500490565b808202811582820484141761061a5761061a61463b565b60006020828403121561532357600080fd5b5051919050565b6000808585111561533a57600080fd5b8386111561534757600080fd5b5050820193919092039150565b6000806040838503121561536757600080fd5b823561537281613aa1565b946020939093013593505050565b60008060006060848603121561539557600080fd5b83356153a081613aa1565b925060208401356153b081613aa1565b929592945050506040919091013590565b60008251614d7f81846020870161410c565b6000602082840312156153e557600080fd5b8151610825816149ad565b634e487b7160e01b600052602160045260246000fdfe5369676e6572207765696768747320646f6573206e6f74206d656574207468726573686f6c64360894a13ba1a3210667c828492db98dca3e2076cc3735a920a3ca505d382bbc4174206c65617374206f6e65207369676e6174757265206e6f742066726f6d2061206b6e6f776e20636f6e74726f6c6c65724174206c65617374206f6e65207369676e617475726520616c72656164792075736564a2646970667358221220992841dfa4148c94066a3188edcb40b97a5c69d1d6224c238a2b3fc868eaf97e64736f6c63430008170033",
  "linkReferences": {},
  "deployedLinkReferences": {}
}