{
  "_format": "hh-sol-artifact-1",
  "contractName": "BeaconProxyFactory",
  "sourceName": "contracts/BeaconProxyFactory.sol",
  "abi": [
    {
      "inputs": [
        {
          "internalType": "address",
          "name": "_beaconImpl",
          "type": "address"
        }
      ],
      "stateMutability": "nonpayable",
      "type": "constructor"
    },
    {
      "inputs": [],
      "name": "BeaconImplInvalid",
      "type": "error"
    },
    {
      "inputs": [],
      "name": "BeaconProxyDeployFailed",
      "type": "error"
    },
    {
      "inputs": [],
      "name": "ECDSAInvalidSignature",
      "type": "error"
    },
    {
      "inputs": [
        {
          "internalType": "uint256",
          "name": "length",
          "type": "uint256"
        }
      ],
      "name": "ECDSAInvalidSignatureLength",
      "type": "error"
    },
    {
      "inputs": [
        {
          "internalType": "bytes32",
          "name": "s",
          "type": "bytes32"
        }
      ],
      "name": "ECDSAInvalidSignatureS",
      "type": "error"
    },
    {
      "anonymous": false,
      "inputs": [
        {
          "indexed": true,
          "internalType": "address",
          "name": "contractAddress",
          "type": "address"
        },
        {
          "indexed": true,
          "internalType": "bool",
          "name": "wasSigned",
          "type": "bool"
        }
      ],
      "name": "ContractDeployed",
      "type": "event"
    },
    {
      "inputs": [],
      "name": "beacon",
      "outputs": [
        {
          "internalType": "address",
          "name": "",
          "type": "address"
        }
      ],
      "stateMutability": "view",
      "type": "function"
    },
    {
      "inputs": [
        {
          "internalType": "bytes32",
          "name": "_salt",
          "type": "bytes32"
        }
      ],
      "name": "calculateExpectedAddress",
      "outputs": [
        {
          "internalType": "address",
          "name": "expectedAddress_",
          "type": "address"
        }
      ],
      "stateMutability": "view",
      "type": "function"
    },
    {
      "inputs": [
        {
          "internalType": "address",
          "name": "_user",
          "type": "address"
        },
        {
          "internalType": "bytes32",
          "name": "_userSalt",
          "type": "bytes32"
        }
      ],
      "name": "calculateExpectedAddress",
      "outputs": [
        {
          "internalType": "address",
          "name": "expectedAddress_",
          "type": "address"
        }
      ],
      "stateMutability": "view",
      "type": "function"
    },
    {
      "inputs": [
        {
          "internalType": "bytes32",
          "name": "_userSalt",
          "type": "bytes32"
        }
      ],
      "name": "createProxy",
      "outputs": [
        {
          "internalType": "address",
          "name": "createdContract_",
          "type": "address"
        }
      ],
      "stateMutability": "nonpayable",
      "type": "function"
    },
    {
      "inputs": [
        {
          "internalType": "bytes",
          "name": "_proofSignature",
          "type": "bytes"
        }
      ],
      "name": "createProxyFromSignature",
      "outputs": [
        {
          "internalType": "address",
          "name": "createdContract_",
          "type": "address"
        }
      ],
      "stateMutability": "nonpayable",
      "type": "function"
    },
    {
      "inputs": [
        {
          "internalType": "address",
          "name": "_user",
          "type": "address"
        },
        {
          "internalType": "bytes32",
          "name": "_userSalt",
          "type": "bytes32"
        }
      ],
      "name": "getSalt",
      "outputs": [
        {
          "internalType": "bytes32",
          "name": "",
          "type": "bytes32"
        }
      ],
      "stateMutability": "pure",
      "type": "function"
    },
    {
      "inputs": [],
      "name": "proxyHash",
      "outputs": [
        {
          "internalType": "bytes32",
          "name": "",
          "type": "bytes32"
        }
      ],
      "stateMutability": "view",
      "type": "function"
    }
  ],
  "bytecode": "0x608060405234801561001057600080fd5b5060405161127f38038061127f83398101604081905261002f916100cb565b6001600160a01b03811661005657604051633080036360e11b815260040160405180910390fd5b8033604051610064906100be565b6001600160a01b03928316815291166020820152604001604051809103906000f080158015610097573d6000803e3d6000fd5b50600080546001600160a01b0319166001600160a01b0392909216919091179055506100fb565b61044180610e3e83390190565b6000602082840312156100dd57600080fd5b81516001600160a01b03811681146100f457600080fd5b9392505050565b610d348061010a6000396000f3fe60806040523480156200001157600080fd5b5060043610620000765760003560e01c806329a5c5cf146200007b578063396a5f9514620000aa57806359659e9014620000c1578063809cee2f14620000d5578063a6e8e0ec14620000ee578063b3e3bf421462000105578063e75b2141146200011c575b600080fd5b620000926200008c366004620006df565b62000133565b604051620000a19190620006f9565b60405180910390f35b62000092620000bb366004620006df565b620001eb565b60005462000092906001600160a01b031681565b620000df6200022c565b604051908152602001620000a1565b62000092620000ff3660046200070d565b6200025b565b620000df6200011636600462000784565b6200039e565b620000926200012d36600462000784565b620003db565b60006200014b6200014533846200039e565b620003f4565b60405163189acdbd60e31b81529091506001600160a01b0382169063c4d66de8906200017c903390600401620006f9565b600060405180830381600087803b1580156200019757600080fd5b505af1158015620001ac573d6000803e3d6000fd5b5050604051600092506001600160a01b03841691507f78b2dce31d0df81e0f2f624cfdaf9233b611e38fa6fc50e108f28ce6cb42a240908390a3919050565b60006200022682604051806020016200020490620006d1565b6020820181038252601f19601f82011660405250805190602001203062000456565b92915050565b6040516200023d60208201620006d1565b6020820181038252601f19601f820116604052508051906020012081565b600080620002c07f80bbec9d9b62e91e41120983ff97f411021f82963b0c06c5eef9357ab7bafe1e85858080601f0160208091040260200160405190810160405280939291908181526020018383808284376000920191909152506200048092505050565b9050600081604051602001620002d79190620006f9565b604051602081830303815290604052805190602001209050620002fa81620003f4565b60405163189acdbd60e31b81529093506001600160a01b0384169063c4d66de8906200032b908590600401620006f9565b600060405180830381600087803b1580156200034657600080fd5b505af11580156200035b573d6000803e3d6000fd5b5050604051600192506001600160a01b03861691507f78b2dce31d0df81e0f2f624cfdaf9233b611e38fa6fc50e108f28ce6cb42a24090600090a3505092915050565b604080516001600160a01b038416602082015290810182905260009060600160405160208183030381529060405280519060200120905092915050565b6000620003ed620000bb84846200039e565b9392505050565b6000816040516200040590620006d1565b8190604051809103906000f590508015801562000426573d6000803e3d6000fd5b5090506001600160a01b038116620004515760405163ac13515160e01b815260040160405180910390fd5b919050565b6000604051836040820152846020820152828152600b8101905060ff815360559020949350505050565b7f19457468657265756d205369676e6564204d6573736167653a0a3332000000006000908152601c839052603c8120620003ed9083600080600080620004c78686620004e3565b925092509250620004d9828262000534565b5090949350505050565b60008060008351604103620005215760208401516040850151606086015160001a620005128882858562000607565b9550955095505050506200052d565b50508151600091506002905b9250925092565b60008260038111156200054b576200054b620007be565b0362000555575050565b60018260038111156200056c576200056c620007be565b036200058b5760405163f645eedf60e01b815260040160405180910390fd5b6002826003811115620005a257620005a2620007be565b03620005c95760405163fce698f760e01b8152600481018290526024015b60405180910390fd5b6003826003811115620005e057620005e0620007be565b0362000603576040516335e2f38360e21b815260048101829052602401620005c0565b5050565b600080806fa2a8918ca85bafe22016d0b997e4df60600160ff1b038411156200063a5750600091506003905082620006c7565b604080516000808252602082018084528a905260ff891692820192909252606081018790526080810186905260019060a0016020604051602081039080840390855afa1580156200068f573d6000803e3d6000fd5b5050604051601f1901519150506001600160a01b038116620006bd57506000925060019150829050620006c7565b9250600091508190505b9450945094915050565b61052a80620007d583390190565b600060208284031215620006f257600080fd5b5035919050565b6001600160a01b0391909116815260200190565b600080602083850312156200072157600080fd5b823567ffffffffffffffff808211156200073a57600080fd5b818501915085601f8301126200074f57600080fd5b8135818111156200075f57600080fd5b8660208285010111156200077257600080fd5b60209290920196919550909350505050565b600080604083850312156200079857600080fd5b82356001600160a01b0381168114620007b057600080fd5b946020939093013593505050565b634e487b7160e01b600052602160045260246000fdfe60a060405234801561001057600080fd5b50336001600160a01b03166359659e906040518163ffffffff1660e01b8152600401602060405180830381865afa15801561004f573d6000803e3d6000fd5b505050506040513d601f19601f820116820180604052508101906100739190610391565b60408051602081019091526000815261008c828261009e565b506001600160a01b03166080526103e9565b6100a78261015e565b6040516001600160a01b038316907f1cf3b03a6cf19fa2baba4df148e9dcabedea7f8a5c07840e207e5c089be95d3e90600090a28051156101525761014d826001600160a01b0316635c60da1b6040518163ffffffff1660e01b8152600401602060405180830381865afa158015610123573d6000803e3d6000fd5b505050506040513d601f19601f820116820180604052508101906101479190610391565b82610271565b505050565b61015a6102e8565b5050565b806001600160a01b03163b60000361019957604051631933b43b60e21b81526001600160a01b03821660048201526024015b60405180910390fd5b807fa3f0ad74e5423aebfd80d3ef4346578335a9a72aeaee59ff6cb3582b35133d5080546001600160a01b0319166001600160a01b0392831617905560408051635c60da1b60e01b81529051600092841691635c60da1b9160048083019260209291908290030181865afa158015610215573d6000803e3d6000fd5b505050506040513d601f19601f820116820180604052508101906102399190610391565b9050806001600160a01b03163b60000361015a57604051634c9c8ce360e01b81526001600160a01b0382166004820152602401610190565b6060600080846001600160a01b03168460405161028e91906103ba565b600060405180830381855af49150503d80600081146102c9576040519150601f19603f3d011682016040523d82523d6000602084013e6102ce565b606091505b5090925090506102df858383610309565b95945050505050565b34156103075760405163b398979f60e01b815260040160405180910390fd5b565b60608261031e5761031982610368565b610361565b815115801561033557506001600160a01b0384163b155b1561035e57604051639996b31560e01b81526001600160a01b0385166004820152602401610190565b50805b9392505050565b8051156103785780518082602001fd5b604051630a12f52160e11b815260040160405180910390fd5b6000602082840312156103a357600080fd5b81516001600160a01b038116811461036157600080fd5b6000825160005b818110156103db57602081860181015185830152016103c1565b506000920191825250919050565b6080516101276104036000396000601e01526101276000f3fe6080604052600a600c565b005b60186014601a565b60a0565b565b60007f00000000000000000000000000000000000000000000000000000000000000006001600160a01b0316635c60da1b6040518163ffffffff1660e01b8152600401602060405180830381865afa1580156079573d6000803e3d6000fd5b505050506040513d601f19601f82011682018060405250810190609b919060c3565b905090565b3660008037600080366000845af43d6000803e80801560be573d6000f35b3d6000fd5b60006020828403121560d457600080fd5b81516001600160a01b038116811460ea57600080fd5b939250505056fea2646970667358221220131f576f39c821e9615d89fb51e5ebf956c1533879e0d090fa88f003d35da5f664736f6c63430008170033a264697066735822122057c6bb8686b77e1c628e450c1c1cb21e8f629ac302642f1982071b1a48ddb6c064736f6c63430008170033608060405234801561001057600080fd5b5060405161044138038061044183398101604081905261002f91610165565b806001600160a01b03811661005f57604051631e4fbdf760e01b8152600060048201526024015b60405180910390fd5b61006881610079565b50610072826100c9565b5050610198565b600080546001600160a01b038381166001600160a01b0319831681178455604051919092169283917f8be0079c531659141344cd1fd0a4f28419497f9722a3daafe3b4186f6b6457e09190a35050565b806001600160a01b03163b6000036100ff5760405163211eb15960e21b81526001600160a01b0382166004820152602401610056565b600180546001600160a01b0319166001600160a01b0383169081179091556040517fbc7cd75a20ee27fd9adebab32041f755214dbc6bffa90cc0225b39da2e5c2d3b90600090a250565b80516001600160a01b038116811461016057600080fd5b919050565b6000806040838503121561017857600080fd5b61018183610149565b915061018f60208401610149565b90509250929050565b61029a806101a76000396000f3fe608060405234801561001057600080fd5b50600436106100575760003560e01c80633659cfe61461005c5780635c60da1b14610071578063715018a6146100945780638da5cb5b1461009c578063f2fde38b146100ad575b600080fd5b61006f61006a366004610220565b6100c0565b005b6001546001600160a01b03165b60405161008b9190610250565b60405180910390f35b61006f6100d4565b6000546001600160a01b031661007e565b61006f6100bb366004610220565b6100e8565b6100c861012c565b6100d181610159565b50565b6100dc61012c565b6100e660006101d0565b565b6100f061012c565b6001600160a01b038116610123576000604051631e4fbdf760e01b815260040161011a9190610250565b60405180910390fd5b6100d1816101d0565b6000546001600160a01b031633146100e6573360405163118cdaa760e01b815260040161011a9190610250565b806001600160a01b03163b600003610186578060405163211eb15960e21b815260040161011a9190610250565b600180546001600160a01b0319166001600160a01b0383169081179091556040517fbc7cd75a20ee27fd9adebab32041f755214dbc6bffa90cc0225b39da2e5c2d3b90600090a250565b600080546001600160a01b038381166001600160a01b0319831681178455604051919092169283917f8be0079c531659141344cd1fd0a4f28419497f9722a3daafe3b4186f6b6457e09190a35050565b60006020828403121561023257600080fd5b81356001600160a01b038116811461024957600080fd5b9392505050565b6001600160a01b039190911681526020019056fea2646970667358221220e6dcfdd87e12bd6e343e9425035dfebf4ddc6a77862b49e9556fc07ef2655dda64736f6c63430008170033",
  "linkReferences": {},
  "deployedLinkReferences": {}
}