{
  "_format": "hh-sol-artifact-1",
  "contractName": "PreauthorizedCalls",
  "sourceName": "contracts/modules/PreauthorizedCalls/PreauthorizedCalls.sol",
  "abi": [
    {
      "inputs": [],
      "name": "ArraryLengthMismatch",
      "type": "error"
    },
    {
      "inputs": [],
      "name": "CallIntervalUnmet",
      "type": "error"
    },
    {
      "inputs": [],
      "name": "CallMaxCallsReached",
      "type": "error"
    },
    {
      "inputs": [],
      "name": "CallNotPreauthorized",
      "type": "error"
    },
    {
      "inputs": [],
      "name": "CallTimelocked",
      "type": "error"
    },
    {
      "inputs": [],
      "name": "ControllerAlreadyExists",
      "type": "error"
    },
    {
      "inputs": [],
      "name": "ControllerDoesNotExist",
      "type": "error"
    },
    {
      "inputs": [],
      "name": "ControllersNotInitialized",
      "type": "error"
    },
    {
      "inputs": [],
      "name": "DeadlineReached",
      "type": "error"
    },
    {
      "inputs": [],
      "name": "ECDSAInvalidSignature",
      "type": "error"
    },
    {
      "inputs": [
        {
          "internalType": "uint256",
          "name": "length",
          "type": "uint256"
        }
      ],
      "name": "ECDSAInvalidSignatureLength",
      "type": "error"
    },
    {
      "inputs": [
        {
          "internalType": "bytes32",
          "name": "s",
          "type": "bytes32"
        }
      ],
      "name": "ECDSAInvalidSignatureS",
      "type": "error"
    },
    {
      "inputs": [],
      "name": "InvalidInitialization",
      "type": "error"
    },
    {
      "inputs": [],
      "name": "InvalidParameters",
      "type": "error"
    },
    {
      "inputs": [],
      "name": "InvalidThreshold",
      "type": "error"
    },
    {
      "inputs": [],
      "name": "MaxCallsMustNotBeZero",
      "type": "error"
    },
    {
      "inputs": [],
      "name": "NotInitializing",
      "type": "error"
    },
    {
      "inputs": [],
      "name": "ThresholdImpossible",
      "type": "error"
    },
    {
      "anonymous": false,
      "inputs": [
        {
          "indexed": false,
          "internalType": "uint64",
          "name": "version",
          "type": "uint64"
        }
      ],
      "name": "Initialized",
      "type": "event"
    },
    {
      "inputs": [
        {
          "internalType": "address[]",
          "name": "_controllers",
          "type": "address[]"
        },
        {
          "internalType": "uint256[]",
          "name": "_weights",
          "type": "uint256[]"
        },
        {
          "internalType": "uint256",
          "name": "_nonce",
          "type": "uint256"
        },
        {
          "internalType": "bytes[]",
          "name": "_signatures",
          "type": "bytes[]"
        },
        {
          "internalType": "uint256",
          "name": "_deadline",
          "type": "uint256"
        }
      ],
      "name": "addControllers",
      "outputs": [],
      "stateMutability": "nonpayable",
      "type": "function"
    },
    {
      "inputs": [
        {
          "components": [
            {
              "internalType": "address",
              "name": "target",
              "type": "address"
            },
            {
              "internalType": "uint256",
              "name": "value",
              "type": "uint256"
            },
            {
              "internalType": "uint256",
              "name": "nonce",
              "type": "uint256"
            },
            {
              "internalType": "bytes",
              "name": "data",
              "type": "bytes"
            }
          ],
          "internalType": "struct CallsStructs.CallRequest",
          "name": "_callRequest",
          "type": "tuple"
        },
        {
          "internalType": "bytes[]",
          "name": "_signatures",
          "type": "bytes[]"
        },
        {
          "internalType": "uint256",
          "name": "_deadline",
          "type": "uint256"
        }
      ],
      "name": "call",
      "outputs": [
        {
          "internalType": "bytes",
          "name": "",
          "type": "bytes"
        }
      ],
      "stateMutability": "nonpayable",
      "type": "function"
    },
    {
      "inputs": [],
      "name": "controlThreshold",
      "outputs": [
        {
          "internalType": "uint256",
          "name": "",
          "type": "uint256"
        }
      ],
      "stateMutability": "view",
      "type": "function"
    },
    {
      "inputs": [
        {
          "internalType": "address",
          "name": "_controller",
          "type": "address"
        }
      ],
      "name": "controllerWeight",
      "outputs": [
        {
          "internalType": "uint256",
          "name": "",
          "type": "uint256"
        }
      ],
      "stateMutability": "view",
      "type": "function"
    },
    {
      "inputs": [],
      "name": "controllersTotalWeight",
      "outputs": [
        {
          "internalType": "uint256",
          "name": "",
          "type": "uint256"
        }
      ],
      "stateMutability": "view",
      "type": "function"
    },
    {
      "inputs": [
        {
          "components": [
            {
              "internalType": "address",
              "name": "target",
              "type": "address"
            },
            {
              "internalType": "uint256",
              "name": "value",
              "type": "uint256"
            },
            {
              "internalType": "uint256",
              "name": "nonce",
              "type": "uint256"
            },
            {
              "internalType": "bytes",
              "name": "data",
              "type": "bytes"
            }
          ],
          "internalType": "struct CallsStructs.CallRequest[]",
          "name": "_callRequests",
          "type": "tuple[]"
        },
        {
          "internalType": "bytes[]",
          "name": "_signatures",
          "type": "bytes[]"
        },
        {
          "internalType": "uint256",
          "name": "_deadline",
          "type": "uint256"
        }
      ],
      "name": "multiCall",
      "outputs": [
        {
          "internalType": "bytes[]",
          "name": "",
          "type": "bytes[]"
        }
      ],
      "stateMutability": "nonpayable",
      "type": "function"
    },
    {
      "inputs": [
        {
          "components": [
            {
              "internalType": "address",
              "name": "caller",
              "type": "address"
            },
            {
              "internalType": "address",
              "name": "target",
              "type": "address"
            },
            {
              "internalType": "uint256",
              "name": "value",
              "type": "uint256"
            },
            {
              "internalType": "bytes",
              "name": "data",
              "type": "bytes"
            }
          ],
          "internalType": "struct PreauthorizedCallsStructs.CallRequestPreauthorized",
          "name": "_callRequestPreauthorized",
          "type": "tuple"
        },
        {
          "components": [
            {
              "internalType": "uint64",
              "name": "unlockTimestamp",
              "type": "uint64"
            },
            {
              "internalType": "uint64",
              "name": "lastCallTimestamp",
              "type": "uint64"
            },
            {
              "internalType": "uint32",
              "name": "minCallInterval",
              "type": "uint32"
            },
            {
              "internalType": "uint32",
              "name": "callCount",
              "type": "uint32"
            },
            {
              "internalType": "uint32",
              "name": "maxCalls",
              "type": "uint32"
            }
          ],
          "internalType": "struct PreauthorizedCallsStructs.CallRequestPreauthorization",
          "name": "_callRequestPreauthorization",
          "type": "tuple"
        },
        {
          "internalType": "uint256",
          "name": "_nonce",
          "type": "uint256"
        },
        {
          "internalType": "bytes[]",
          "name": "_signatures",
          "type": "bytes[]"
        },
        {
          "internalType": "uint256",
          "name": "_deadline",
          "type": "uint256"
        }
      ],
      "name": "preauthorizeCall",
      "outputs": [],
      "stateMutability": "nonpayable",
      "type": "function"
    },
    {
      "inputs": [
        {
          "components": [
            {
              "internalType": "address",
              "name": "target",
              "type": "address"
            },
            {
              "internalType": "uint256",
              "name": "value",
              "type": "uint256"
            },
            {
              "internalType": "uint256",
              "name": "nonce",
              "type": "uint256"
            },
            {
              "internalType": "bytes",
              "name": "data",
              "type": "bytes"
            }
          ],
          "internalType": "struct CallsStructs.CallRequest",
          "name": "_callRequest",
          "type": "tuple"
        }
      ],
      "name": "preauthorizedCall",
      "outputs": [
        {
          "internalType": "bytes",
          "name": "",
          "type": "bytes"
        }
      ],
      "stateMutability": "nonpayable",
      "type": "function"
    },
    {
      "inputs": [
        {
          "components": [
            {
              "internalType": "address",
              "name": "target",
              "type": "address"
            },
            {
              "internalType": "uint256",
              "name": "value",
              "type": "uint256"
            },
            {
              "internalType": "uint256",
              "name": "nonce",
              "type": "uint256"
            },
            {
              "internalType": "bytes",
              "name": "data",
              "type": "bytes"
            }
          ],
          "internalType": "struct CallsStructs.CallRequest[]",
          "name": "_callRequests",
          "type": "tuple[]"
        }
      ],
      "name": "preauthorizedMultiCall",
      "outputs": [
        {
          "internalType": "bytes[]",
          "name": "",
          "type": "bytes[]"
        }
      ],
      "stateMutability": "nonpayable",
      "type": "function"
    },
    {
      "inputs": [
        {
          "internalType": "address[]",
          "name": "_controllers",
          "type": "address[]"
        },
        {
          "internalType": "uint256",
          "name": "_newThreshold",
          "type": "uint256"
        },
        {
          "internalType": "uint256",
          "name": "_nonce",
          "type": "uint256"
        },
        {
          "internalType": "bytes[]",
          "name": "_signatures",
          "type": "bytes[]"
        },
        {
          "internalType": "uint256",
          "name": "_deadline",
          "type": "uint256"
        }
      ],
      "name": "removeControllers",
      "outputs": [],
      "stateMutability": "nonpayable",
      "type": "function"
    },
    {
      "inputs": [
        {
          "internalType": "address",
          "name": "_controllerOld",
          "type": "address"
        },
        {
          "internalType": "address",
          "name": "_controllerNew",
          "type": "address"
        },
        {
          "internalType": "uint256",
          "name": "_nonce",
          "type": "uint256"
        },
        {
          "internalType": "bytes[]",
          "name": "_signatures",
          "type": "bytes[]"
        },
        {
          "internalType": "uint256",
          "name": "_deadline",
          "type": "uint256"
        }
      ],
      "name": "replaceController",
      "outputs": [],
      "stateMutability": "nonpayable",
      "type": "function"
    },
    {
      "inputs": [
        {
          "internalType": "bytes4",
          "name": "interfaceId",
          "type": "bytes4"
        }
      ],
      "name": "supportsInterface",
      "outputs": [
        {
          "internalType": "bool",
          "name": "",
          "type": "bool"
        }
      ],
      "stateMutability": "view",
      "type": "function"
    },
    {
      "inputs": [
        {
          "components": [
            {
              "internalType": "address",
              "name": "caller",
              "type": "address"
            },
            {
              "internalType": "address",
              "name": "target",
              "type": "address"
            },
            {
              "internalType": "uint256",
              "name": "value",
              "type": "uint256"
            },
            {
              "internalType": "bytes",
              "name": "data",
              "type": "bytes"
            }
          ],
          "internalType": "struct PreauthorizedCallsStructs.CallRequestPreauthorized",
          "name": "_callRequestPreauthorized",
          "type": "tuple"
        },
        {
          "internalType": "uint256",
          "name": "_nonce",
          "type": "uint256"
        },
        {
          "internalType": "bytes[]",
          "name": "_signatures",
          "type": "bytes[]"
        },
        {
          "internalType": "uint256",
          "name": "_deadline",
          "type": "uint256"
        }
      ],
      "name": "unauthorizeCall",
      "outputs": [],
      "stateMutability": "nonpayable",
      "type": "function"
    },
    {
      "inputs": [
        {
          "internalType": "uint256",
          "name": "_threshold",
          "type": "uint256"
        },
        {
          "internalType": "uint256",
          "name": "_nonce",
          "type": "uint256"
        },
        {
          "internalType": "bytes[]",
          "name": "_signatures",
          "type": "bytes[]"
        },
        {
          "internalType": "uint256",
          "name": "_deadline",
          "type": "uint256"
        }
      ],
      "name": "updateControlThreshold",
      "outputs": [],
      "stateMutability": "nonpayable",
      "type": "function"
    },
    {
      "inputs": [
        {
          "internalType": "address",
          "name": "_controller",
          "type": "address"
        },
        {
          "internalType": "uint256",
          "name": "_weight",
          "type": "uint256"
        },
        {
          "internalType": "uint256",
          "name": "_nonce",
          "type": "uint256"
        },
        {
          "internalType": "bytes[]",
          "name": "_signatures",
          "type": "bytes[]"
        },
        {
          "internalType": "uint256",
          "name": "_deadline",
          "type": "uint256"
        }
      ],
      "name": "updateControllerWeight",
      "outputs": [],
      "stateMutability": "nonpayable",
      "type": "function"
    }
  ],
  "bytecode": "0x60806040523480156200001157600080fd5b506200001c6200002c565b620000266200002c565b620000e0565b7ff0c57e16840df040f15088dc2f81fe391c3923bec73e23a9662efc9c229c6a00805468010000000000000000900460ff16156200007d5760405163f92ee8a960e01b815260040160405180910390fd5b80546001600160401b0390811614620000dd5780546001600160401b0319166001600160401b0390811782556040519081527fc7f505b2f371ae2175ee4913f4499e1f2633a7b5936321eed1cdaeb6115181d29060200160405180910390a15b50565b612ad480620000f06000396000f3fe608060405234801561001057600080fd5b50600436106100d55760003560e01c806389f8a9fa1161008757806389f8a9fa146101865780638a0a33fc14610199578063a7865090146101ac578063acf61669146101b4578063ccb34ddb146101d4578063f04420f1146101e7578063f7501dc3146101fa578063f8e876411461020d57600080fd5b806301ffc9a7146100da57806306e8238314610102578063100dc024146101185780631fa4a8f11461012d57806321f34cbe14610140578063566db1e4146101535780635be037c314610166575b600080fd5b6100ed6100e8366004611cd7565b610220565b60405190151581526020015b60405180910390f35b61010a610251565b6040519081526020016100f9565b61012b610126366004611d61565b610264565b005b61012b61013b366004611de8565b61048a565b61012b61014e366004611e5f565b61064a565b61012b610161366004611eea565b6107fe565b610179610174366004611f32565b61094b565b6040516100f99190611feb565b61012b61019436600461204f565b610b37565b61012b6101a73660046120a1565b610d4d565b61010a610f48565b6101c76101c236600461213b565b610f58565b6040516100f991906121aa565b61012b6101e23660046121bd565b61109d565b61010a6101f5366004612267565b6112b6565b610179610208366004612282565b6112e2565b6101c761021b3660046122c3565b611393565b60006365e90f7160e01b6001600160e01b031983160161024257506001919050565b61024b8261156b565b92915050565b600061025b611596565b60010154905090565b604080516001600160a01b038816602082015290810186905260608101859052608081018290524660a082015260c00160405160208183030381529060405280519060200120818484428310156102ce5760405163b08ce5b360e01b815260040160405180910390fd5b6102d6611596565b546000036102f757604051636a00024b60e11b815260040160405180910390fd5b60008061030d866103088587612345565b6115ba565b9150915081819061033a5760405162461bcd60e51b815260040161033191906121aa565b60405180910390fd5b5060005b838110156103b7576001610350611596565b600301600087878581811061036757610367612419565b9050602002810190610379919061242f565b604051610387929190612475565b60408051918290039091208252602082019290925201600020805460ff191691151591909117905560010161033e565b508a6103c1611596565b6001600160a01b038e16600090815260029190910160205260409020546103e6611596565b600101546103f4919061249b565b6103fe91906124ae565b610406611596565b60010155610412611596565b6001015415806104345750610425611596565b5461042e611596565b60010154105b15610452576040516325746d7d60e21b815260040160405180910390fd5b8a61045b611596565b6001600160a01b03909d16600090815260029d909d016020526040909c209b909b555050505050505050505050565b848482466040516020016104a1949392919061258f565b60405160208183030381529060405280519060200120818484428310156104db5760405163b08ce5b360e01b815260040160405180910390fd5b6104e3611596565b5460000361050457604051636a00024b60e11b815260040160405180910390fd5b600080610515866103088587612345565b915091508181906105395760405162461bcd60e51b815260040161033191906121aa565b5060005b838110156105b657600161054f611596565b600301600087878581811061056657610566612419565b9050602002810190610578919061242f565b604051610586929190612475565b60408051918290039091208252602082019290925201600020805460ff191691151591909117905560010161053d565b506105bf611742565b60006105ce60208e018e612267565b8d60200160208101906105e19190612267565b8e604001358f80606001906105f6919061242f565b60405160200161060a9594939291906125be565b60408051601f1981840301815291815281516020928301208352908201929092520160002080546001600160e01b03191690555050505050505050505050565b86868686844660405160200161066596959493929190612644565b604051602081830303815290604052805190602001208184844283101561069f5760405163b08ce5b360e01b815260040160405180910390fd5b6106a7611596565b546000036106c857604051636a00024b60e11b815260040160405180910390fd5b6000806106d9866103088587612345565b915091508181906106fd5760405162461bcd60e51b815260040161033191906121aa565b5060005b8381101561077a576001610713611596565b600301600087878581811061072a5761072a612419565b905060200281019061073c919061242f565b60405161074a929190612475565b60408051918290039091208252602082019290925201600020805460ff1916911515919091179055600101610701565b5060008c900361079d57604051630e52390960e41b815260040160405180910390fd5b60005b8c8110156107df576107d78e8e838181106107bd576107bd612419565b90506020020160208101906107d29190612267565b611766565b6001016107a0565b508a156107ef576107ef8b61181e565b50505050505050505050505050565b60408051602081018790529081018590526060810182905246608082015260a00160405160208183030381529060405280519060200120818484428310156108595760405163b08ce5b360e01b815260040160405180910390fd5b610861611596565b5460000361088257604051636a00024b60e11b815260040160405180910390fd5b600080610893866103088587612345565b915091508181906108b75760405162461bcd60e51b815260040161033191906121aa565b5060005b838110156109345760016108cd611596565b60030160008787858181106108e4576108e4612419565b90506020028101906108f6919061242f565b604051610904929190612475565b60408051918290039091208252602082019290925201600020805460ff19169115159190911790556001016108bb565b5061093e8b61181e565b5050505050505050505050565b60608585834660405160200161096494939291906126b4565b604051602081830303815290604052805190602001208285854283101561099e5760405163b08ce5b360e01b815260040160405180910390fd5b6109a6611596565b546000036109c757604051636a00024b60e11b815260040160405180910390fd5b6000806109d8866103088587612345565b915091508181906109fc5760405162461bcd60e51b815260040161033191906121aa565b5060005b83811015610a79576001610a12611596565b6003016000878785818110610a2957610a29612419565b9050602002810190610a3b919061242f565b604051610a49929190612475565b60408051918290039091208252602082019290925201600020805460ff1916911515919091179055600101610a00565b5060008b6001600160401b03811115610a9457610a946122ff565b604051908082528060200260200182016040528015610ac757816020015b6060815260200190600190039081610ab25790505b50905060005b8c811015610b2657610b018e8e83818110610aea57610aea612419565b9050602002810190610afc9190612730565b611870565b828281518110610b1357610b13612419565b6020908102919091010152600101610acd565b509c9b505050505050505050505050565b604080516001600160a01b03808916602083015287169181019190915260608101859052608081018290524660a082015260c0016040516020818303038152906040528051906020012081848442831015610ba55760405163b08ce5b360e01b815260040160405180910390fd5b610bad611596565b54600003610bce57604051636a00024b60e11b815260040160405180910390fd5b600080610bdf866103088587612345565b91509150818190610c035760405162461bcd60e51b815260040161033191906121aa565b5060005b83811015610c80576001610c19611596565b6003016000878785818110610c3057610c30612419565b9050602002810190610c42919061242f565b604051610c50929190612475565b60408051918290039091208252602082019290925201600020805460ff1916911515919091179055600101610c07565b50610c89611596565b6001600160a01b038d16600090815260029190910160205260408120549003610cc5576040516385e1605f60e01b815260040160405180910390fd5b610ccd611596565b6001600160a01b038c166000908152600291909101602052604090205415610d085760405163983b8f4b60e01b815260040160405180910390fd5b610d368b610d14611596565b6001600160a01b038f16600090815260029190910160205260409020546119b4565b610d3f8c611766565b505050505050505050505050565b8585858346604051602001610d66959493929190612777565b6040516020818303038152906040528051906020012081848442831015610da05760405163b08ce5b360e01b815260040160405180910390fd5b610da8611596565b54600003610dc957604051636a00024b60e11b815260040160405180910390fd5b600080610dda866103088587612345565b91509150818190610dfe5760405162461bcd60e51b815260040161033191906121aa565b5060005b83811015610e7b576001610e14611596565b6003016000878785818110610e2b57610e2b612419565b9050602002810190610e3d919061242f565b604051610e4b929190612475565b60408051918290039091208252602082019290925201600020805460ff1916911515919091179055600101610e02565b50610e8c60a08c0160808d01612827565b63ffffffff16600003610eb25760405163c820870160e01b815260040160405180910390fd5b6000610ec160208e018e612267565b8d6020016020810190610ed49190612267565b8e604001358f8060600190610ee9919061242f565b604051602001610efd9594939291906125be565b6040516020818303038152906040528051906020012090508b610f1e611742565b600083815260209190915260409020610f378282612851565b505050505050505050505050505050565b6000610f52611596565b54919050565b6060848246604051602001610f6f93929190612945565b6040516020818303038152906040528051906020012082858542831015610fa95760405163b08ce5b360e01b815260040160405180910390fd5b610fb1611596565b54600003610fd257604051636a00024b60e11b815260040160405180910390fd5b600080610fe3866103088587612345565b915091508181906110075760405162461bcd60e51b815260040161033191906121aa565b5060005b8381101561108457600161101d611596565b600301600087878581811061103457611034612419565b9050602002810190611046919061242f565b604051611054929190612475565b60408051918290039091208252602082019290925201600020805460ff191691151591909117905560010161100b565b5061108e8b611870565b9b9a5050505050505050505050565b878787878785466040516020016110ba979695949392919061296a565b60405160208183030381529060405280519060200120818484428310156110f45760405163b08ce5b360e01b815260040160405180910390fd5b6110fc611596565b5460000361111d57604051636a00024b60e11b815260040160405180910390fd5b60008061112e866103088587612345565b915091508181906111525760405162461bcd60e51b815260040161033191906121aa565b5060005b838110156111cf576001611168611596565b600301600087878581811061117f5761117f612419565b9050602002810190611191919061242f565b60405161119f929190612475565b60408051918290039091208252602082019290925201600020805460ff1916911515919091179055600101611156565b508c8b146111f057604051632efb78eb60e21b815260040160405180910390fd5b60008d900361121257604051630e52390960e41b815260040160405180910390fd5b60005b8d811015610f375760008f8f8381811061123157611231612419565b90506020020160208101906112469190612267565b9050611250611596565b6001600160a01b038216600090815260029190910160205260409020541561128b5760405163983b8f4b60e01b815260040160405180910390fd5b6112ad818f8f858181106112a1576112a1612419565b905060200201356119b4565b50600101611215565b60006112c0611596565b6001600160a01b03909216600090815260029290920160205250604090205490565b60606000826001600160401b038111156112fe576112fe6122ff565b60405190808252806020026020018201604052801561133157816020015b606081526020019060019003908161131c5790505b50905060005b8381101561138b5761136685858381811061135457611354612419565b905060200281019061021b9190612730565b82828151811061137857611378612419565b6020908102919091010152600101611337565b509392505050565b606060006113a13384611a03565b8054909150600160c01b900463ffffffff166000036113c8576113c5600084611a03565b90505b8054600160c01b900463ffffffff166000036113f757604051633c6fbd2360e01b815260040160405180910390fd5b80546001600160401b031615801590611419575080546001600160401b031642105b15611437576040516302a175a360e31b815260040160405180910390fd5b8054600160401b90046001600160401b03161580159061146457508054600160801b900463ffffffff1615155b80156114a05750805461149490600160801b810463ffffffff1690600160401b90046001600160401b03166129c9565b6001600160401b031642105b156114be57604051637f1a4abd60e11b815260040160405180910390fd5b805463ffffffff600160c01b82048116600160a01b90920416106114f557604051630fdaa12360e21b815260040160405180910390fd5b80546001908290601490611517908490600160a01b900463ffffffff166129f0565b82546101009290920a63ffffffff81810219909316919092169190910217905550805467ffffffffffffffff60401b1916600160401b426001600160401b03160217815561156483611870565b9392505050565b6000630474ef2b60e11b6001600160e01b031983160161158d57506001919050565b61024b82611a6f565b7f255f4a56bd3ad76424e31ed8855ef9ad14a0ce4e67508c76ff082e5c1466b12f90565b600060606000805b84518110156116ef5760006115f0878784815181106115e3576115e3612419565b6020026020010151611aaa565b90506115fa611596565b6001600160a01b038216600090815260029190910160205260408120549003611644576000604051806060016040528060328152602001612a4a603291399450945050505061173b565b600086838151811061165857611658612419565b6020026020010151805190602001209050611671611596565b6000828152600391909101602052604090205460ff16156116b4576000604051806060016040528060238152602001612a7c60239139955095505050505061173b565b6116bc611596565b6001600160a01b038316600090815260029190910160205260409020546116e390856124ae565b935050506001016115c2565b506116f8611596565b54811015611725576000604051806060016040528060268152602001612a2460269139925092505061173b565b5050604080516020810190915260008152600191505b9250929050565b7f8b8c16fdb86566569823d1c7c7621975485948685c113470681dca36483b623590565b61176e611596565b6001600160a01b03821660009081526002919091016020526040902054611793611596565b60010160008282546117a5919061249b565b909155506117b39050611596565b6001015415806117d557506117c6611596565b546117cf611596565b60010154105b156117f3576040516325746d7d60e21b815260040160405180910390fd5b60006117fd611596565b6001600160a01b039092166000908152600292909201602052604090912055565b80611827611596565b55611830611596565b54158061184f5750611840611596565b6001015461184c611596565b54115b1561186d5760405163aabd5a0960e01b815260040160405180910390fd5b50565b60606000806118826020850185612267565b6001600160a01b0316602085013561189d606087018761242f565b6040516118ab929190612475565b60006040518083038185875af1925050503d80600081146118e8576040519150601f19603f3d011682016040523d82523d6000602084013e6118ed565b606091505b5091509150816115645780516000036119ac57600084602001351180156119175750478460200135115b156119645760405162461bcd60e51b815260206004820152601e60248201527f496e73756666696369656e742066756e647320746f207472616e7366657200006044820152606401610331565b60405162461bcd60e51b815260206004820152601d60248201527f43616c6c20726576657274656420776974686f7574206d6573736167650000006044820152606401610331565b805160208201fd5b806119bd611596565b60010160008282546119cf91906124ae565b909155508190506119de611596565b6001600160a01b03909316600090815260029390930160205260409092209190915550565b6000611a0d611742565b600084611a1d6020860186612267565b6020860135611a2f606088018861242f565b604051602001611a439594939291906125be565b604051602081830303815290604052805190602001208152602001908152602001600020905092915050565b6000638c0d754360e01b6001600160e01b0319831601611a9157506001919050565b6301ffc9a760e01b6001600160e01b031983161461024b565b7f19457468657265756d205369676e6564204d6573736167653a0a3332000000006000908152601c839052603c81206115649083600080600080611aee8686611b08565b925092509250611afe8282611b55565b5090949350505050565b60008060008351604103611b425760208401516040850151606086015160001a611b3488828585611c12565b955095509550505050611b4e565b50508151600091506002905b9250925092565b6000826003811115611b6957611b69612a0d565b03611b72575050565b6001826003811115611b8657611b86612a0d565b03611ba45760405163f645eedf60e01b815260040160405180910390fd5b6002826003811115611bb857611bb8612a0d565b03611bd95760405163fce698f760e01b815260048101829052602401610331565b6003826003811115611bed57611bed612a0d565b03611c0e576040516335e2f38360e21b815260048101829052602401610331565b5050565b600080806fa2a8918ca85bafe22016d0b997e4df60600160ff1b03841115611c435750600091506003905082611ccd565b604080516000808252602082018084528a905260ff891692820192909252606081018790526080810186905260019060a0016020604051602081039080840390855afa158015611c97573d6000803e3d6000fd5b5050604051601f1901519150506001600160a01b038116611cc357506000925060019150829050611ccd565b9250600091508190505b9450945094915050565b600060208284031215611ce957600080fd5b81356001600160e01b03198116811461156457600080fd5b80356001600160a01b0381168114611d1857600080fd5b919050565b60008083601f840112611d2f57600080fd5b5081356001600160401b03811115611d4657600080fd5b6020830191508360208260051b850101111561173b57600080fd5b60008060008060008060a08789031215611d7a57600080fd5b611d8387611d01565b9550602087013594506040870135935060608701356001600160401b03811115611dac57600080fd5b611db889828a01611d1d565b979a9699509497949695608090950135949350505050565b600060808284031215611de257600080fd5b50919050565b600080600080600060808688031215611e0057600080fd5b85356001600160401b0380821115611e1757600080fd5b611e2389838a01611dd0565b9650602088013595506040880135915080821115611e4057600080fd5b50611e4d88828901611d1d565b96999598509660600135949350505050565b600080600080600080600060a0888a031215611e7a57600080fd5b87356001600160401b0380821115611e9157600080fd5b611e9d8b838c01611d1d565b909950975060208a0135965060408a0135955060608a0135915080821115611ec457600080fd5b50611ed18a828b01611d1d565b989b979a50959894979596608090950135949350505050565b600080600080600060808688031215611f0257600080fd5b853594506020860135935060408601356001600160401b03811115611f2657600080fd5b611e4d88828901611d1d565b600080600080600060608688031215611f4a57600080fd5b85356001600160401b0380821115611f6157600080fd5b611f6d89838a01611d1d565b90975095506020880135915080821115611f8657600080fd5b50611f9388828901611d1d565b96999598509660400135949350505050565b6000815180845260005b81811015611fcb57602081850181015186830182015201611faf565b506000602082860101526020601f19601f83011685010191505092915050565b600060208083016020845280855180835260408601915060408160051b87010192506020870160005b8281101561204257603f19888603018452612030858351611fa5565b94509285019290850190600101612014565b5092979650505050505050565b60008060008060008060a0878903121561206857600080fd5b61207187611d01565b955061207f60208801611d01565b94506040870135935060608701356001600160401b03811115611dac57600080fd5b6000806000806000808688036101208112156120bc57600080fd5b87356001600160401b03808211156120d357600080fd5b6120df8b838c01611dd0565b985060a0601f19840112156120f357600080fd5b60208a01975060c08a0135965060e08a013592508083111561211457600080fd5b505061212289828a01611d1d565b979a969950949794969561010090950135949350505050565b6000806000806060858703121561215157600080fd5b84356001600160401b038082111561216857600080fd5b61217488838901611dd0565b9550602087013591508082111561218a57600080fd5b5061219787828801611d1d565b9598909750949560400135949350505050565b6020815260006115646020830184611fa5565b60008060008060008060008060a0898b0312156121d957600080fd5b88356001600160401b03808211156121f057600080fd5b6121fc8c838d01611d1d565b909a50985060208b013591508082111561221557600080fd5b6122218c838d01611d1d565b909850965060408b0135955060608b013591508082111561224157600080fd5b5061224e8b828c01611d1d565b999c989b50969995989497949560800135949350505050565b60006020828403121561227957600080fd5b61156482611d01565b6000806020838503121561229557600080fd5b82356001600160401b038111156122ab57600080fd5b6122b785828601611d1d565b90969095509350505050565b6000602082840312156122d557600080fd5b81356001600160401b038111156122eb57600080fd5b6122f784828501611dd0565b949350505050565b634e487b7160e01b600052604160045260246000fd5b604051601f8201601f191681016001600160401b038111828210171561233d5761233d6122ff565b604052919050565b60006001600160401b038084111561235f5761235f6122ff565b8360051b6020612370818301612315565b86815291850191818101903684111561238857600080fd5b865b8481101561240d578035868111156123a25760008081fd5b8801601f36818301126123b55760008081fd5b8135888111156123c7576123c76122ff565b6123d8818301601f19168801612315565b915080825236878285010111156123ef5760008081fd5b8087840188840137600090820187015284525091830191830161238a565b50979650505050505050565b634e487b7160e01b600052603260045260246000fd5b6000808335601e1984360301811261244657600080fd5b8301803591506001600160401b0382111561246057600080fd5b60200191503681900382131561173b57600080fd5b8183823760009101908152919050565b634e487b7160e01b600052601160045260246000fd5b8181038181111561024b5761024b612485565b8082018082111561024b5761024b612485565b6000808335601e198436030181126124d857600080fd5b83016020810192503590506001600160401b038111156124f757600080fd5b80360382131561173b57600080fd5b81835281816020850137506000828201602090810191909152601f909101601f19169091010190565b60006001600160a01b038061254384611d01565b1684528061255360208501611d01565b166020850152506040820135604084015261257160608301836124c1565b60806060860152612586608086018284612506565b95945050505050565b6080815260006125a2608083018761252f565b6020830195909552506040810192909252606090910152919050565b6001600160a01b03868116825285166020820152604081018490526080606082018190526000906125f29083018486612506565b979650505050505050565b8183526000602080850194508260005b85811015612639576001600160a01b0361262683611d01565b168752958201959082019060010161260d565b509495945050505050565b60a08152600061265860a08301888a6125fd565b9050856020830152846040830152836060830152826080830152979650505050505050565b6001600160a01b0361268e82611d01565b1682526020810135602083015260408101356040830152600061257160608301836124c1565b6060808252810184905260006080600586901b830181019083018783805b8981101561271957868503607f190184528235368c9003607e190181126126f7578283fd5b612703868d830161267d565b95505060209384019392909201916001016126d2565b505050506020830194909452506040015292915050565b60008235607e1983360301811261274657600080fd5b9190910192915050565b6001600160401b038116811461186d57600080fd5b63ffffffff8116811461186d57600080fd5b600061012080835261278b8184018961252f565b915050853561279981612750565b6001600160401b038082166020850152602088013591506127b982612750565b166040838101919091528601356127cf81612765565b63ffffffff8082166060850152606088013591506127ec82612765565b80821660808501526080880135915061280482612765565b1660a083015260c082019490945260e08101929092526101009091015292915050565b60006020828403121561283957600080fd5b813561156481612765565b6000813561024b81612765565b813561285c81612750565b6001600160401b03811690508154816001600160401b03198216178355602084013561288781612750565b67ffffffffffffffff60401b604091821b166001600160801b03198316841781178555908501356128b781612765565b6001600160a01b03199290921690921782811760809290921b63ffffffff60801b169182178455916060850135916128ee83612765565b63ffffffff60a01b1993909316179190911760a09190911b63ffffffff60a01b16178155611c0e61292160808401612844565b82805463ffffffff60c01b191660c09290921b63ffffffff60c01b16919091179055565b606081526000612958606083018661267d565b60208301949094525060400152919050565b60a08152600061297e60a08301898b6125fd565b82810360208401528681526001600160fb1b0387111561299d57600080fd5b8660051b8089602084013760408401969096526060830194909452506080015201602001949350505050565b6001600160401b038181168382160190808211156129e9576129e9612485565b5092915050565b63ffffffff8181168382160190808211156129e9576129e9612485565b634e487b7160e01b600052602160045260246000fdfe5369676e6572207765696768747320646f6573206e6f74206d656574207468726573686f6c644174206c65617374206f6e65207369676e6174757265206e6f742066726f6d2061206b6e6f776e20636f6e74726f6c6c65724174206c65617374206f6e65207369676e617475726520616c72656164792075736564a2646970667358221220112207a8cebf31ad9fc92bb57c82cf25845bb201f74497d9e8a6ac5226034e9464736f6c63430008170033",
  "linkReferences": {},
  "deployedLinkReferences": {}
}