{
  "_format": "hh-sol-artifact-1",
  "contractName": "PreauthorizedCalls",
  "sourceName": "contracts/modules/PreauthorizedCalls/PreauthorizedCalls.sol",
  "abi": [
    {
      "inputs": [],
      "name": "ArraryLengthMismatch",
      "type": "error"
    },
    {
      "inputs": [],
      "name": "CallIntervalUnmet",
      "type": "error"
    },
    {
      "inputs": [],
      "name": "CallMaxCallsReached",
      "type": "error"
    },
    {
      "inputs": [],
      "name": "CallNotPreauthorized",
      "type": "error"
    },
    {
      "inputs": [],
      "name": "CallTimelocked",
      "type": "error"
    },
    {
      "inputs": [],
      "name": "ControllerAlreadyExists",
      "type": "error"
    },
    {
      "inputs": [],
      "name": "ControllerDoesNotExist",
      "type": "error"
    },
    {
      "inputs": [],
      "name": "ControllersNotInitialized",
      "type": "error"
    },
    {
      "inputs": [],
      "name": "Create2EmptyBytecode",
      "type": "error"
    },
    {
      "inputs": [],
      "name": "Create2FailedDeployment",
      "type": "error"
    },
    {
      "inputs": [
        {
          "internalType": "uint256",
          "name": "balance",
          "type": "uint256"
        },
        {
          "internalType": "uint256",
          "name": "needed",
          "type": "uint256"
        }
      ],
      "name": "Create2InsufficientBalance",
      "type": "error"
    },
    {
      "inputs": [],
      "name": "CreateInitCodeFailed",
      "type": "error"
    },
    {
      "inputs": [],
      "name": "DeadlineReached",
      "type": "error"
    },
    {
      "inputs": [],
      "name": "ECDSAInvalidSignature",
      "type": "error"
    },
    {
      "inputs": [
        {
          "internalType": "uint256",
          "name": "length",
          "type": "uint256"
        }
      ],
      "name": "ECDSAInvalidSignatureLength",
      "type": "error"
    },
    {
      "inputs": [
        {
          "internalType": "bytes32",
          "name": "s",
          "type": "bytes32"
        }
      ],
      "name": "ECDSAInvalidSignatureS",
      "type": "error"
    },
    {
      "inputs": [],
      "name": "InsufficientFunds",
      "type": "error"
    },
    {
      "inputs": [],
      "name": "InvalidInitialization",
      "type": "error"
    },
    {
      "inputs": [],
      "name": "InvalidParameters",
      "type": "error"
    },
    {
      "inputs": [],
      "name": "InvalidThreshold",
      "type": "error"
    },
    {
      "inputs": [],
      "name": "MaxCallsMustNotBeZero",
      "type": "error"
    },
    {
      "inputs": [],
      "name": "NotInitializing",
      "type": "error"
    },
    {
      "inputs": [],
      "name": "RevertWithoutMessage",
      "type": "error"
    },
    {
      "inputs": [],
      "name": "ThresholdImpossible",
      "type": "error"
    },
    {
      "anonymous": false,
      "inputs": [
        {
          "indexed": false,
          "internalType": "uint64",
          "name": "version",
          "type": "uint64"
        }
      ],
      "name": "Initialized",
      "type": "event"
    },
    {
      "inputs": [
        {
          "internalType": "address[]",
          "name": "_controllers",
          "type": "address[]"
        },
        {
          "internalType": "uint256[]",
          "name": "_weights",
          "type": "uint256[]"
        },
        {
          "internalType": "uint256",
          "name": "_nonce",
          "type": "uint256"
        },
        {
          "internalType": "bytes[]",
          "name": "_signatures",
          "type": "bytes[]"
        },
        {
          "internalType": "uint256",
          "name": "_deadline",
          "type": "uint256"
        }
      ],
      "name": "addControllers",
      "outputs": [],
      "stateMutability": "nonpayable",
      "type": "function"
    },
    {
      "inputs": [
        {
          "components": [
            {
              "internalType": "address",
              "name": "target",
              "type": "address"
            },
            {
              "internalType": "uint256",
              "name": "value",
              "type": "uint256"
            },
            {
              "internalType": "uint256",
              "name": "nonce",
              "type": "uint256"
            },
            {
              "internalType": "bytes",
              "name": "data",
              "type": "bytes"
            }
          ],
          "internalType": "struct CallsStructs.CallRequest",
          "name": "_callRequest",
          "type": "tuple"
        },
        {
          "internalType": "bytes[]",
          "name": "_signatures",
          "type": "bytes[]"
        },
        {
          "internalType": "uint256",
          "name": "_deadline",
          "type": "uint256"
        }
      ],
      "name": "call",
      "outputs": [
        {
          "internalType": "bytes",
          "name": "",
          "type": "bytes"
        }
      ],
      "stateMutability": "nonpayable",
      "type": "function"
    },
    {
      "inputs": [],
      "name": "controlThreshold",
      "outputs": [
        {
          "internalType": "uint256",
          "name": "",
          "type": "uint256"
        }
      ],
      "stateMutability": "view",
      "type": "function"
    },
    {
      "inputs": [
        {
          "internalType": "address",
          "name": "_controller",
          "type": "address"
        }
      ],
      "name": "controllerWeight",
      "outputs": [
        {
          "internalType": "uint256",
          "name": "",
          "type": "uint256"
        }
      ],
      "stateMutability": "view",
      "type": "function"
    },
    {
      "inputs": [],
      "name": "controllersTotalWeight",
      "outputs": [
        {
          "internalType": "uint256",
          "name": "",
          "type": "uint256"
        }
      ],
      "stateMutability": "view",
      "type": "function"
    },
    {
      "inputs": [
        {
          "components": [
            {
              "internalType": "bytes32",
              "name": "salt",
              "type": "bytes32"
            },
            {
              "internalType": "uint256",
              "name": "nonce",
              "type": "uint256"
            },
            {
              "internalType": "bytes",
              "name": "bytecode",
              "type": "bytes"
            },
            {
              "internalType": "bytes",
              "name": "initCode",
              "type": "bytes"
            }
          ],
          "internalType": "struct CallsStructs.CreateRequest",
          "name": "_createRequest",
          "type": "tuple"
        },
        {
          "internalType": "bytes[]",
          "name": "_signatures",
          "type": "bytes[]"
        },
        {
          "internalType": "uint256",
          "name": "_deadline",
          "type": "uint256"
        }
      ],
      "name": "create",
      "outputs": [
        {
          "internalType": "address",
          "name": "",
          "type": "address"
        }
      ],
      "stateMutability": "nonpayable",
      "type": "function"
    },
    {
      "inputs": [
        {
          "components": [
            {
              "internalType": "address",
              "name": "target",
              "type": "address"
            },
            {
              "internalType": "uint256",
              "name": "value",
              "type": "uint256"
            },
            {
              "internalType": "uint256",
              "name": "nonce",
              "type": "uint256"
            },
            {
              "internalType": "bytes",
              "name": "data",
              "type": "bytes"
            }
          ],
          "internalType": "struct CallsStructs.CallRequest[]",
          "name": "_callRequests",
          "type": "tuple[]"
        },
        {
          "internalType": "bytes[]",
          "name": "_signatures",
          "type": "bytes[]"
        },
        {
          "internalType": "uint256",
          "name": "_deadline",
          "type": "uint256"
        }
      ],
      "name": "multiCall",
      "outputs": [
        {
          "internalType": "bytes[]",
          "name": "",
          "type": "bytes[]"
        }
      ],
      "stateMutability": "nonpayable",
      "type": "function"
    },
    {
      "inputs": [
        {
          "components": [
            {
              "internalType": "address",
              "name": "caller",
              "type": "address"
            },
            {
              "internalType": "address",
              "name": "target",
              "type": "address"
            },
            {
              "internalType": "uint256",
              "name": "value",
              "type": "uint256"
            },
            {
              "internalType": "bytes",
              "name": "data",
              "type": "bytes"
            }
          ],
          "internalType": "struct PreauthorizedCallsStructs.CallRequestPreauthorized",
          "name": "_callRequestPreauthorized",
          "type": "tuple"
        },
        {
          "components": [
            {
              "internalType": "uint64",
              "name": "unlockTimestamp",
              "type": "uint64"
            },
            {
              "internalType": "uint64",
              "name": "lastCallTimestamp",
              "type": "uint64"
            },
            {
              "internalType": "uint32",
              "name": "minCallInterval",
              "type": "uint32"
            },
            {
              "internalType": "uint32",
              "name": "callCount",
              "type": "uint32"
            },
            {
              "internalType": "uint32",
              "name": "maxCalls",
              "type": "uint32"
            }
          ],
          "internalType": "struct PreauthorizedCallsStructs.CallRequestPreauthorization",
          "name": "_callRequestPreauthorization",
          "type": "tuple"
        },
        {
          "internalType": "uint256",
          "name": "_nonce",
          "type": "uint256"
        },
        {
          "internalType": "bytes[]",
          "name": "_signatures",
          "type": "bytes[]"
        },
        {
          "internalType": "uint256",
          "name": "_deadline",
          "type": "uint256"
        }
      ],
      "name": "preauthorizeCall",
      "outputs": [],
      "stateMutability": "nonpayable",
      "type": "function"
    },
    {
      "inputs": [
        {
          "components": [
            {
              "internalType": "address",
              "name": "target",
              "type": "address"
            },
            {
              "internalType": "uint256",
              "name": "value",
              "type": "uint256"
            },
            {
              "internalType": "uint256",
              "name": "nonce",
              "type": "uint256"
            },
            {
              "internalType": "bytes",
              "name": "data",
              "type": "bytes"
            }
          ],
          "internalType": "struct CallsStructs.CallRequest",
          "name": "_callRequest",
          "type": "tuple"
        }
      ],
      "name": "preauthorizedCall",
      "outputs": [
        {
          "internalType": "bytes",
          "name": "",
          "type": "bytes"
        }
      ],
      "stateMutability": "nonpayable",
      "type": "function"
    },
    {
      "inputs": [
        {
          "components": [
            {
              "internalType": "address",
              "name": "target",
              "type": "address"
            },
            {
              "internalType": "uint256",
              "name": "value",
              "type": "uint256"
            },
            {
              "internalType": "uint256",
              "name": "nonce",
              "type": "uint256"
            },
            {
              "internalType": "bytes",
              "name": "data",
              "type": "bytes"
            }
          ],
          "internalType": "struct CallsStructs.CallRequest[]",
          "name": "_callRequests",
          "type": "tuple[]"
        }
      ],
      "name": "preauthorizedMultiCall",
      "outputs": [
        {
          "internalType": "bytes[]",
          "name": "",
          "type": "bytes[]"
        }
      ],
      "stateMutability": "nonpayable",
      "type": "function"
    },
    {
      "inputs": [
        {
          "internalType": "address[]",
          "name": "_controllers",
          "type": "address[]"
        },
        {
          "internalType": "uint256",
          "name": "_newThreshold",
          "type": "uint256"
        },
        {
          "internalType": "uint256",
          "name": "_nonce",
          "type": "uint256"
        },
        {
          "internalType": "bytes[]",
          "name": "_signatures",
          "type": "bytes[]"
        },
        {
          "internalType": "uint256",
          "name": "_deadline",
          "type": "uint256"
        }
      ],
      "name": "removeControllers",
      "outputs": [],
      "stateMutability": "nonpayable",
      "type": "function"
    },
    {
      "inputs": [
        {
          "internalType": "address",
          "name": "_controllerOld",
          "type": "address"
        },
        {
          "internalType": "address",
          "name": "_controllerNew",
          "type": "address"
        },
        {
          "internalType": "uint256",
          "name": "_nonce",
          "type": "uint256"
        },
        {
          "internalType": "bytes[]",
          "name": "_signatures",
          "type": "bytes[]"
        },
        {
          "internalType": "uint256",
          "name": "_deadline",
          "type": "uint256"
        }
      ],
      "name": "replaceController",
      "outputs": [],
      "stateMutability": "nonpayable",
      "type": "function"
    },
    {
      "inputs": [
        {
          "internalType": "bytes4",
          "name": "interfaceId",
          "type": "bytes4"
        }
      ],
      "name": "supportsInterface",
      "outputs": [
        {
          "internalType": "bool",
          "name": "",
          "type": "bool"
        }
      ],
      "stateMutability": "view",
      "type": "function"
    },
    {
      "inputs": [
        {
          "components": [
            {
              "internalType": "address",
              "name": "caller",
              "type": "address"
            },
            {
              "internalType": "address",
              "name": "target",
              "type": "address"
            },
            {
              "internalType": "uint256",
              "name": "value",
              "type": "uint256"
            },
            {
              "internalType": "bytes",
              "name": "data",
              "type": "bytes"
            }
          ],
          "internalType": "struct PreauthorizedCallsStructs.CallRequestPreauthorized",
          "name": "_callRequestPreauthorized",
          "type": "tuple"
        },
        {
          "internalType": "uint256",
          "name": "_nonce",
          "type": "uint256"
        },
        {
          "internalType": "bytes[]",
          "name": "_signatures",
          "type": "bytes[]"
        },
        {
          "internalType": "uint256",
          "name": "_deadline",
          "type": "uint256"
        }
      ],
      "name": "unauthorizeCall",
      "outputs": [],
      "stateMutability": "nonpayable",
      "type": "function"
    },
    {
      "inputs": [
        {
          "internalType": "uint256",
          "name": "_threshold",
          "type": "uint256"
        },
        {
          "internalType": "uint256",
          "name": "_nonce",
          "type": "uint256"
        },
        {
          "internalType": "bytes[]",
          "name": "_signatures",
          "type": "bytes[]"
        },
        {
          "internalType": "uint256",
          "name": "_deadline",
          "type": "uint256"
        }
      ],
      "name": "updateControlThreshold",
      "outputs": [],
      "stateMutability": "nonpayable",
      "type": "function"
    },
    {
      "inputs": [
        {
          "internalType": "address",
          "name": "_controller",
          "type": "address"
        },
        {
          "internalType": "uint256",
          "name": "_weight",
          "type": "uint256"
        },
        {
          "internalType": "uint256",
          "name": "_nonce",
          "type": "uint256"
        },
        {
          "internalType": "bytes[]",
          "name": "_signatures",
          "type": "bytes[]"
        },
        {
          "internalType": "uint256",
          "name": "_deadline",
          "type": "uint256"
        }
      ],
      "name": "updateControllerWeight",
      "outputs": [],
      "stateMutability": "nonpayable",
      "type": "function"
    }
  ],
  "bytecode": "0x60806040523480156200001157600080fd5b506200001c6200002c565b620000266200002c565b620000e0565b7ff0c57e16840df040f15088dc2f81fe391c3923bec73e23a9662efc9c229c6a00805468010000000000000000900460ff16156200007d5760405163f92ee8a960e01b815260040160405180910390fd5b80546001600160401b0390811614620000dd5780546001600160401b0319166001600160401b0390811782556040519081527fc7f505b2f371ae2175ee4913f4499e1f2633a7b5936321eed1cdaeb6115181d29060200160405180910390a15b50565b61242180620000f06000396000f3fe608060405234801561001057600080fd5b50600436106100e05760003560e01c80638a0a33fc116100875780638a0a33fc146101a4578063a7865090146101b7578063acf61669146101bf578063ad6f1e48146101df578063ccb34ddb1461020a578063f04420f11461021d578063f7501dc314610230578063f8e876411461024357600080fd5b806301ffc9a7146100e557806306e823831461010d578063100dc024146101235780631fa4a8f11461013857806321f34cbe1461014b578063566db1e41461015e5780635be037c31461017157806389f8a9fa14610191575b600080fd5b6100f86100f33660046115bd565b610256565b60405190151581526020015b60405180910390f35b610115610287565b604051908152602001610104565b610136610131366004611642565b61029a565b005b6101366101463660046116c9565b6103b9565b610136610159366004611740565b61045a565b61013661016c3660046117cb565b6104f5565b61018461017f366004611813565b61052f565b60405161010491906118cc565b61013661019f366004611930565b610620565b6101366101b2366004611982565b610723565b6101156107ff565b6101d26101cd366004611a1c565b61080f565b6040516101049190611a8b565b6101f26101ed366004611a1c565b61083b565b6040516001600160a01b039091168152602001610104565b610136610218366004611a9e565b61085e565b61011561022b366004611b48565b610964565b61018461023e366004611b63565b610990565b6101d2610251366004611ba4565b610a41565b60006365e90f7160e01b6001600160e01b031983160161027857506001919050565b61028182610c19565b92915050565b6000610291610c44565b60010154905090565b604080516001600160a01b038816602082015290810186905260608101859052608081018290524660a08201526102ed9060c0015b60405160208183030381529060405280519060200120828585610c68565b846102f6610c44565b6001600160a01b0388166000908152600291909101602052604090205461031b610c44565b600101546103299190611bf6565b6103339190611c09565b61033b610c44565b60010155610347610c44565b600101541580610369575061035a610c44565b54610363610c44565b60010154105b15610387576040516325746d7d60e21b815260040160405180910390fd5b84610390610c44565b6001600160a01b0390971660009081526002979097016020526040909620959095555050505050565b6103d3858583466040516020016102cf9493929190611ce1565b6103db610d72565b60006103ea6020880188611b48565b6103fa6040890160208a01611b48565b604089013561040c60608b018b611d10565b604051602001610420959493929190611d56565b60408051601f1981840301815291815281516020928301208352908201929092520160002080546001600160e01b03191690555050505050565b6104788787878785466040516020016102cf96959493929190611ddc565b600086900361049a57604051630e52390960e41b815260040160405180910390fd5b60005b868110156104dc576104d48888838181106104ba576104ba611e15565b90506020020160208101906104cf9190611b48565b610d96565b60010161049d565b5084156104ec576104ec85610e4e565b50505050505050565b60408051602081018790529081018590526060810182905246608082015261051f9060a0016102cf565b61052885610e4e565b5050505050565b60606105698686844660405160200161054b9493929190611e62565b60405160208183030381529060405280519060200120838686610c68565b6000856001600160401b0381111561058357610583611ede565b6040519080825280602002602001820160405280156105b657816020015b60608152602001906001900390816105a15790505b50905060005b86811015610615576105f08888838181106105d9576105d9611e15565b90506020028101906105eb9190611ef4565b610ea0565b82828151811061060257610602611e15565b60209081029190910101526001016105bc565b509695505050505050565b604080516001600160a01b03808916602083015287169181019190915260608101859052608081018290524660a082015261065d9060c0016102cf565b610665610c44565b6001600160a01b0387166000908152600291909101602052604081205490036106a1576040516385e1605f60e01b815260040160405180910390fd5b6106a9610c44565b6001600160a01b03861660009081526002919091016020526040902054156106e45760405163983b8f4b60e01b815260040160405180910390fd5b610712856106f0610c44565b6001600160a01b03891660009081526002919091016020526040902054610f86565b61071b86610d96565b505050505050565b61073f86868684466040516020016102cf959493929190611f3b565b61074f60a0860160808701611feb565b63ffffffff166000036107755760405163c820870160e01b815260040160405180910390fd5b60006107846020880188611b48565b6107946040890160208a01611b48565b60408901356107a660608b018b611d10565b6040516020016107ba959493929190611d56565b604051602081830303815290604052805190602001209050856107db610d72565b6000838152602091909152604090206107f48282612015565b505050505050505050565b6000610809610c44565b54919050565b606061082985834660405160200161054b93929190612109565b61083285610ea0565b95945050505050565b600061085585834660405160200161054b9392919061212e565b61083285610fd5565b61087e888888888886466040516020016102cf97969594939291906121a3565b86851461089e57604051632efb78eb60e21b815260040160405180910390fd5b60008790036108c057604051630e52390960e41b815260040160405180910390fd5b60005b878110156107f45760008989838181106108df576108df611e15565b90506020020160208101906108f49190611b48565b90506108fe610c44565b6001600160a01b03821660009081526002919091016020526040902054156109395760405163983b8f4b60e01b815260040160405180910390fd5b61095b8189898581811061094f5761094f611e15565b90506020020135610f86565b506001016108c3565b600061096e610c44565b6001600160a01b03909216600090815260029290920160205250604090205490565b60606000826001600160401b038111156109ac576109ac611ede565b6040519080825280602002602001820160405280156109df57816020015b60608152602001906001900390816109ca5790505b50905060005b83811015610a3957610a14858583818110610a0257610a02611e15565b90506020028101906102519190611ef4565b828281518110610a2657610a26611e15565b60209081029190910101526001016109e5565b509392505050565b60606000610a4f33846110e1565b8054909150600160c01b900463ffffffff16600003610a7657610a736000846110e1565b90505b8054600160c01b900463ffffffff16600003610aa557604051633c6fbd2360e01b815260040160405180910390fd5b80546001600160401b031615801590610ac7575080546001600160401b031642105b15610ae5576040516302a175a360e31b815260040160405180910390fd5b8054600160401b90046001600160401b031615801590610b1257508054600160801b900463ffffffff1615155b8015610b4e57508054610b4290600160801b810463ffffffff1690600160401b90046001600160401b0316612202565b6001600160401b031642105b15610b6c57604051637f1a4abd60e11b815260040160405180910390fd5b805463ffffffff600160c01b82048116600160a01b9092041610610ba357604051630fdaa12360e21b815260040160405180910390fd5b80546001908290601490610bc5908490600160a01b900463ffffffff16612229565b82546101009290920a63ffffffff81810219909316919092169190910217905550805467ffffffffffffffff60401b1916600160401b426001600160401b031602178155610c1283610ea0565b9392505050565b6000630474ef2b60e11b6001600160e01b0319831601610c3b57506001919050565b6102818261114d565b7f255f4a56bd3ad76424e31ed8855ef9ad14a0ce4e67508c76ff082e5c1466b12f90565b42831015610c895760405163b08ce5b360e01b815260040160405180910390fd5b610c91610c44565b54600003610cb257604051636a00024b60e11b815260040160405180910390fd5b600080610cc886610cc38587612276565b611188565b91509150818190610cf55760405162461bcd60e51b8152600401610cec9190611a8b565b60405180910390fd5b5060005b838110156104ec576001610d0b610c44565b6003016000878785818110610d2257610d22611e15565b9050602002810190610d349190611d10565b604051610d4292919061234a565b60408051918290039091208252602082019290925201600020805460ff1916911515919091179055600101610cf9565b7f8b8c16fdb86566569823d1c7c7621975485948685c113470681dca36483b623590565b610d9e610c44565b6001600160a01b03821660009081526002919091016020526040902054610dc3610c44565b6001016000828254610dd59190611bf6565b90915550610de39050610c44565b600101541580610e055750610df6610c44565b54610dff610c44565b60010154105b15610e23576040516325746d7d60e21b815260040160405180910390fd5b6000610e2d610c44565b6001600160a01b039092166000908152600292909201602052604090912055565b80610e57610c44565b55610e60610c44565b541580610e7f5750610e70610c44565b60010154610e7c610c44565b54115b15610e9d5760405163aabd5a0960e01b815260040160405180910390fd5b50565b6060600080610eb26020850185611b48565b6001600160a01b03166020850135610ecd6060870187611d10565b604051610edb92919061234a565b60006040518083038185875af1925050503d8060008114610f18576040519150601f19603f3d011682016040523d82523d6000602084013e610f1d565b606091505b509150915081610c12578051600003610f7e5760008460200135118015610f475750478460200135115b15610f655760405163356680b760e01b815260040160405180910390fd5b604051632a0e33eb60e11b815260040160405180910390fd5b805160208201fd5b80610f8f610c44565b6001016000828254610fa19190611c09565b90915550819050610fb0610c44565b6001600160a01b03909316600090815260029390930160205260409092209190915550565b6000611024818335610fea6040860186611d10565b8080601f01602080910402602001604051908101604052809392919081815260200183838082843760009201919091525061131092505050565b905060006110356060840184611d10565b905011156110dc576000806001600160a01b0383166110576060860186611d10565b60405161106592919061234a565b6000604051808303816000865af19150503d80600081146110a2576040519150601f19603f3d011682016040523d82523d6000602084013e6110a7565b606091505b5091509150816110d9578051156110c057805181602001fd5b60405163727f092d60e01b815260040160405180910390fd5b50505b919050565b60006110eb610d72565b6000846110fb6020860186611b48565b602086013561110d6060880188611d10565b604051602001611121959493929190611d56565b604051602081830303815290604052805190602001208152602001908152602001600020905092915050565b6000638c0d754360e01b6001600160e01b031983160161116f57506001919050565b6301ffc9a760e01b6001600160e01b0319831614610281565b600060606000805b84518110156112bd5760006111be878784815181106111b1576111b1611e15565b6020026020010151611390565b90506111c8610c44565b6001600160a01b0382166000908152600291909101602052604081205490036112125760006040518060600160405280603281526020016123976032913994509450505050611309565b600086838151811061122657611226611e15565b602002602001015180519060200120905061123f610c44565b6000828152600391909101602052604090205460ff16156112825760006040518060600160405280602381526020016123c9602391399550955050505050611309565b61128a610c44565b6001600160a01b038316600090815260029190910160205260409020546112b19085611c09565b93505050600101611190565b506112c6610c44565b548110156112f3576000604051806060016040528060268152602001612371602691399250925050611309565b5050604080516020810190915260008152600191505b9250929050565b60008347101561133c5760405163392efb2b60e21b815247600482015260248101859052604401610cec565b815160000361135e57604051631328927760e21b815260040160405180910390fd5b8282516020840186f590506001600160a01b038116610c1257604051633a0ba96160e11b815260040160405180910390fd5b7f19457468657265756d205369676e6564204d6573736167653a0a3332000000006000908152601c839052603c8120610c1290836000806000806113d486866113ee565b9250925092506113e4828261143b565b5090949350505050565b600080600083516041036114285760208401516040850151606086015160001a61141a888285856114f8565b955095509550505050611434565b50508151600091506002905b9250925092565b600082600381111561144f5761144f61235a565b03611458575050565b600182600381111561146c5761146c61235a565b0361148a5760405163f645eedf60e01b815260040160405180910390fd5b600282600381111561149e5761149e61235a565b036114bf5760405163fce698f760e01b815260048101829052602401610cec565b60038260038111156114d3576114d361235a565b036114f4576040516335e2f38360e21b815260048101829052602401610cec565b5050565b600080806fa2a8918ca85bafe22016d0b997e4df60600160ff1b0384111561152957506000915060039050826115b3565b604080516000808252602082018084528a905260ff891692820192909252606081018790526080810186905260019060a0016020604051602081039080840390855afa15801561157d573d6000803e3d6000fd5b5050604051601f1901519150506001600160a01b0381166115a9575060009250600191508290506115b3565b9250600091508190505b9450945094915050565b6000602082840312156115cf57600080fd5b81356001600160e01b031981168114610c1257600080fd5b80356001600160a01b03811681146110dc57600080fd5b60008083601f84011261161057600080fd5b5081356001600160401b0381111561162757600080fd5b6020830191508360208260051b850101111561130957600080fd5b60008060008060008060a0878903121561165b57600080fd5b611664876115e7565b9550602087013594506040870135935060608701356001600160401b0381111561168d57600080fd5b61169989828a016115fe565b979a9699509497949695608090950135949350505050565b6000608082840312156116c357600080fd5b50919050565b6000806000806000608086880312156116e157600080fd5b85356001600160401b03808211156116f857600080fd5b61170489838a016116b1565b965060208801359550604088013591508082111561172157600080fd5b5061172e888289016115fe565b96999598509660600135949350505050565b600080600080600080600060a0888a03121561175b57600080fd5b87356001600160401b038082111561177257600080fd5b61177e8b838c016115fe565b909950975060208a0135965060408a0135955060608a01359150808211156117a557600080fd5b506117b28a828b016115fe565b989b979a50959894979596608090950135949350505050565b6000806000806000608086880312156117e357600080fd5b853594506020860135935060408601356001600160401b0381111561180757600080fd5b61172e888289016115fe565b60008060008060006060868803121561182b57600080fd5b85356001600160401b038082111561184257600080fd5b61184e89838a016115fe565b9097509550602088013591508082111561186757600080fd5b50611874888289016115fe565b96999598509660400135949350505050565b6000815180845260005b818110156118ac57602081850181015186830182015201611890565b506000602082860101526020601f19601f83011685010191505092915050565b600060208083016020845280855180835260408601915060408160051b87010192506020870160005b8281101561192357603f19888603018452611911858351611886565b945092850192908501906001016118f5565b5092979650505050505050565b60008060008060008060a0878903121561194957600080fd5b611952876115e7565b9550611960602088016115e7565b94506040870135935060608701356001600160401b0381111561168d57600080fd5b60008060008060008086880361012081121561199d57600080fd5b87356001600160401b03808211156119b457600080fd5b6119c08b838c016116b1565b985060a0601f19840112156119d457600080fd5b60208a01975060c08a0135965060e08a01359250808311156119f557600080fd5b5050611a0389828a016115fe565b979a969950949794969561010090950135949350505050565b60008060008060608587031215611a3257600080fd5b84356001600160401b0380821115611a4957600080fd5b611a55888389016116b1565b95506020870135915080821115611a6b57600080fd5b50611a78878288016115fe565b9598909750949560400135949350505050565b602081526000610c126020830184611886565b60008060008060008060008060a0898b031215611aba57600080fd5b88356001600160401b0380821115611ad157600080fd5b611add8c838d016115fe565b909a50985060208b0135915080821115611af657600080fd5b611b028c838d016115fe565b909850965060408b0135955060608b0135915080821115611b2257600080fd5b50611b2f8b828c016115fe565b999c989b50969995989497949560800135949350505050565b600060208284031215611b5a57600080fd5b610c12826115e7565b60008060208385031215611b7657600080fd5b82356001600160401b03811115611b8c57600080fd5b611b98858286016115fe565b90969095509350505050565b600060208284031215611bb657600080fd5b81356001600160401b03811115611bcc57600080fd5b611bd8848285016116b1565b949350505050565b634e487b7160e01b600052601160045260246000fd5b8181038181111561028157610281611be0565b8082018082111561028157610281611be0565b6000808335601e19843603018112611c3357600080fd5b83016020810192503590506001600160401b03811115611c5257600080fd5b80360382131561130957600080fd5b81835281816020850137506000828201602090810191909152601f909101601f19169091010190565b60006001600160a01b0380611c9e846115e7565b16845280611cae602085016115e7565b1660208501525060408201356040840152611ccc6060830183611c1c565b60806060860152610832608086018284611c61565b608081526000611cf46080830187611c8a565b6020830195909552506040810192909252606090910152919050565b6000808335601e19843603018112611d2757600080fd5b8301803591506001600160401b03821115611d4157600080fd5b60200191503681900382131561130957600080fd5b6001600160a01b0386811682528516602082015260408101849052608060608201819052600090611d8a9083018486611c61565b979650505050505050565b8183526000602080850194508260005b85811015611dd1576001600160a01b03611dbe836115e7565b1687529582019590820190600101611da5565b509495945050505050565b60a081526000611df060a08301888a611d95565b9050856020830152846040830152836060830152826080830152979650505050505050565b634e487b7160e01b600052603260045260246000fd5b6001600160a01b03611e3c826115e7565b16825260208101356020830152604081013560408301526000611ccc6060830183611c1c565b6060808252810184905260006080600586901b830181019083018783805b89811015611ec757868503607f190184528235368c9003607e19018112611ea5578283fd5b611eb1868d8301611e2b565b9550506020938401939290920191600101611e80565b505050506020830194909452506040015292915050565b634e487b7160e01b600052604160045260246000fd5b60008235607e19833603018112611f0a57600080fd5b9190910192915050565b6001600160401b0381168114610e9d57600080fd5b63ffffffff81168114610e9d57600080fd5b6000610120808352611f4f81840189611c8a565b9150508535611f5d81611f14565b6001600160401b03808216602085015260208801359150611f7d82611f14565b16604083810191909152860135611f9381611f29565b63ffffffff808216606085015260608801359150611fb082611f29565b808216608085015260808801359150611fc882611f29565b1660a083015260c082019490945260e08101929092526101009091015292915050565b600060208284031215611ffd57600080fd5b8135610c1281611f29565b6000813561028181611f29565b813561202081611f14565b6001600160401b03811690508154816001600160401b03198216178355602084013561204b81611f14565b67ffffffffffffffff60401b604091821b166001600160801b031983168417811785559085013561207b81611f29565b6001600160a01b03199290921690921782811760809290921b63ffffffff60801b169182178455916060850135916120b283611f29565b63ffffffff60a01b1993909316179190911760a09190911b63ffffffff60a01b161781556114f46120e560808401612008565b82805463ffffffff60c01b191660c09290921b63ffffffff60c01b16919091179055565b60608152600061211c6060830186611e2b565b60208301949094525060400152919050565b60608152833560608201526020840135608082015260006121526040860186611c1c565b608060a085015261216760e085018284611c61565b9150506121776060870187611c1c565b848303605f190160c086015261218e838284611c61565b60208601979097525050505060400152919050565b60a0815260006121b760a08301898b611d95565b82810360208401528681526001600160fb1b038711156121d657600080fd5b8660051b8089602084013760408401969096526060830194909452506080015201602001949350505050565b6001600160401b0381811683821601908082111561222257612222611be0565b5092915050565b63ffffffff81811683821601908082111561222257612222611be0565b604051601f8201601f191681016001600160401b038111828210171561226e5761226e611ede565b604052919050565b60006001600160401b038084111561229057612290611ede565b8360051b60206122a1818301612246565b8681529185019181810190368411156122b957600080fd5b865b8481101561233e578035868111156122d35760008081fd5b8801601f36818301126122e65760008081fd5b8135888111156122f8576122f8611ede565b612309818301601f19168801612246565b915080825236878285010111156123205760008081fd5b808784018884013760009082018701528452509183019183016122bb565b50979650505050505050565b8183823760009101908152919050565b634e487b7160e01b600052602160045260246000fdfe5369676e6572207765696768747320646f6573206e6f74206d656574207468726573686f6c644174206c65617374206f6e65207369676e6174757265206e6f742066726f6d2061206b6e6f776e20636f6e74726f6c6c65724174206c65617374206f6e65207369676e617475726520616c72656164792075736564a2646970667358221220bb259c038e1dda85b13112c2a98f35762552c8a89e64164005d7731337ba9cfa64736f6c63430008170033",
  "linkReferences": {},
  "deployedLinkReferences": {}
}