{
  "_format": "hh-sol-artifact-1",
  "contractName": "PreauthorizedCalls",
  "sourceName": "contracts/modules/PreauthorizedCalls/PreauthorizedCalls.sol",
  "abi": [
    {
      "inputs": [
        {
          "internalType": "address[]",
          "name": "_controllers",
          "type": "address[]"
        },
        {
          "internalType": "uint256[]",
          "name": "_weights",
          "type": "uint256[]"
        },
        {
          "internalType": "uint256",
          "name": "_nonce",
          "type": "uint256"
        },
        {
          "internalType": "bytes[]",
          "name": "_signatures",
          "type": "bytes[]"
        }
      ],
      "name": "addControllers",
      "outputs": [],
      "stateMutability": "nonpayable",
      "type": "function"
    },
    {
      "inputs": [],
      "name": "controlThreshold",
      "outputs": [
        {
          "internalType": "uint256",
          "name": "",
          "type": "uint256"
        }
      ],
      "stateMutability": "view",
      "type": "function"
    },
    {
      "inputs": [
        {
          "internalType": "address",
          "name": "_controller",
          "type": "address"
        }
      ],
      "name": "controllerWeight",
      "outputs": [
        {
          "internalType": "uint256",
          "name": "",
          "type": "uint256"
        }
      ],
      "stateMutability": "view",
      "type": "function"
    },
    {
      "inputs": [],
      "name": "controllersTotalWeight",
      "outputs": [
        {
          "internalType": "uint256",
          "name": "",
          "type": "uint256"
        }
      ],
      "stateMutability": "view",
      "type": "function"
    },
    {
      "inputs": [
        {
          "components": [
            {
              "internalType": "address",
              "name": "target",
              "type": "address"
            },
            {
              "internalType": "uint256",
              "name": "value",
              "type": "uint256"
            },
            {
              "internalType": "uint256",
              "name": "nonce",
              "type": "uint256"
            },
            {
              "internalType": "bytes",
              "name": "data",
              "type": "bytes"
            }
          ],
          "internalType": "struct CallsStructs.CallRequest[]",
          "name": "_callRequests",
          "type": "tuple[]"
        },
        {
          "internalType": "bytes[]",
          "name": "_signatures",
          "type": "bytes[]"
        }
      ],
      "name": "multiCall",
      "outputs": [
        {
          "internalType": "bytes[]",
          "name": "",
          "type": "bytes[]"
        }
      ],
      "stateMutability": "nonpayable",
      "type": "function"
    },
    {
      "inputs": [
        {
          "components": [
            {
              "internalType": "address",
              "name": "caller",
              "type": "address"
            },
            {
              "internalType": "address",
              "name": "target",
              "type": "address"
            },
            {
              "internalType": "uint256",
              "name": "value",
              "type": "uint256"
            },
            {
              "internalType": "bytes",
              "name": "data",
              "type": "bytes"
            }
          ],
          "internalType": "struct PreauthorizedCallsStructs.CallRequestPreauthorized",
          "name": "_callRequestPreauthorized",
          "type": "tuple"
        },
        {
          "components": [
            {
              "internalType": "uint64",
              "name": "unlockTimestamp",
              "type": "uint64"
            },
            {
              "internalType": "uint64",
              "name": "lastCallTimestamp",
              "type": "uint64"
            },
            {
              "internalType": "uint32",
              "name": "minCallInterval",
              "type": "uint32"
            },
            {
              "internalType": "uint32",
              "name": "callCount",
              "type": "uint32"
            },
            {
              "internalType": "uint32",
              "name": "maxCalls",
              "type": "uint32"
            }
          ],
          "internalType": "struct PreauthorizedCallsStructs.CallRequestPreauthorization",
          "name": "_callRequestPreauthorization",
          "type": "tuple"
        },
        {
          "internalType": "uint256",
          "name": "_nonce",
          "type": "uint256"
        },
        {
          "internalType": "bytes[]",
          "name": "_signatures",
          "type": "bytes[]"
        }
      ],
      "name": "preauthorizeCall",
      "outputs": [],
      "stateMutability": "nonpayable",
      "type": "function"
    },
    {
      "inputs": [
        {
          "components": [
            {
              "internalType": "address",
              "name": "target",
              "type": "address"
            },
            {
              "internalType": "uint256",
              "name": "value",
              "type": "uint256"
            },
            {
              "internalType": "uint256",
              "name": "nonce",
              "type": "uint256"
            },
            {
              "internalType": "bytes",
              "name": "data",
              "type": "bytes"
            }
          ],
          "internalType": "struct CallsStructs.CallRequest",
          "name": "_callRequest",
          "type": "tuple"
        }
      ],
      "name": "preauthorizedCall",
      "outputs": [
        {
          "internalType": "bytes",
          "name": "",
          "type": "bytes"
        }
      ],
      "stateMutability": "nonpayable",
      "type": "function"
    },
    {
      "inputs": [
        {
          "components": [
            {
              "internalType": "address",
              "name": "target",
              "type": "address"
            },
            {
              "internalType": "uint256",
              "name": "value",
              "type": "uint256"
            },
            {
              "internalType": "uint256",
              "name": "nonce",
              "type": "uint256"
            },
            {
              "internalType": "bytes",
              "name": "data",
              "type": "bytes"
            }
          ],
          "internalType": "struct CallsStructs.CallRequest[]",
          "name": "_callRequests",
          "type": "tuple[]"
        }
      ],
      "name": "preauthorizedMultiCall",
      "outputs": [
        {
          "internalType": "bytes[]",
          "name": "",
          "type": "bytes[]"
        }
      ],
      "stateMutability": "nonpayable",
      "type": "function"
    },
    {
      "inputs": [
        {
          "internalType": "address[]",
          "name": "_controllers",
          "type": "address[]"
        },
        {
          "internalType": "uint256",
          "name": "_nonce",
          "type": "uint256"
        },
        {
          "internalType": "bytes[]",
          "name": "_signatures",
          "type": "bytes[]"
        }
      ],
      "name": "removeControllers",
      "outputs": [],
      "stateMutability": "nonpayable",
      "type": "function"
    },
    {
      "inputs": [
        {
          "components": [
            {
              "internalType": "address",
              "name": "target",
              "type": "address"
            },
            {
              "internalType": "uint256",
              "name": "value",
              "type": "uint256"
            },
            {
              "internalType": "uint256",
              "name": "nonce",
              "type": "uint256"
            },
            {
              "internalType": "bytes",
              "name": "data",
              "type": "bytes"
            }
          ],
          "internalType": "struct CallsStructs.CallRequest",
          "name": "_callRequest",
          "type": "tuple"
        },
        {
          "internalType": "bytes[]",
          "name": "_signatures",
          "type": "bytes[]"
        }
      ],
      "name": "singleCall",
      "outputs": [
        {
          "internalType": "bytes",
          "name": "",
          "type": "bytes"
        }
      ],
      "stateMutability": "nonpayable",
      "type": "function"
    },
    {
      "inputs": [
        {
          "internalType": "bytes4",
          "name": "interfaceId",
          "type": "bytes4"
        }
      ],
      "name": "supportsInterface",
      "outputs": [
        {
          "internalType": "bool",
          "name": "",
          "type": "bool"
        }
      ],
      "stateMutability": "view",
      "type": "function"
    },
    {
      "inputs": [
        {
          "components": [
            {
              "internalType": "address",
              "name": "caller",
              "type": "address"
            },
            {
              "internalType": "address",
              "name": "target",
              "type": "address"
            },
            {
              "internalType": "uint256",
              "name": "value",
              "type": "uint256"
            },
            {
              "internalType": "bytes",
              "name": "data",
              "type": "bytes"
            }
          ],
          "internalType": "struct PreauthorizedCallsStructs.CallRequestPreauthorized",
          "name": "_callRequestPreauthorized",
          "type": "tuple"
        },
        {
          "internalType": "uint256",
          "name": "_nonce",
          "type": "uint256"
        },
        {
          "internalType": "bytes[]",
          "name": "_signatures",
          "type": "bytes[]"
        }
      ],
      "name": "unauthorizeCall",
      "outputs": [],
      "stateMutability": "nonpayable",
      "type": "function"
    },
    {
      "inputs": [
        {
          "internalType": "uint256",
          "name": "_threshold",
          "type": "uint256"
        },
        {
          "internalType": "uint256",
          "name": "_nonce",
          "type": "uint256"
        },
        {
          "internalType": "bytes[]",
          "name": "_signatures",
          "type": "bytes[]"
        }
      ],
      "name": "updateControlThreshold",
      "outputs": [],
      "stateMutability": "nonpayable",
      "type": "function"
    },
    {
      "inputs": [
        {
          "internalType": "address",
          "name": "_controller",
          "type": "address"
        },
        {
          "internalType": "uint256",
          "name": "_weight",
          "type": "uint256"
        },
        {
          "internalType": "uint256",
          "name": "_nonce",
          "type": "uint256"
        },
        {
          "internalType": "bytes[]",
          "name": "_signatures",
          "type": "bytes[]"
        }
      ],
      "name": "updateControllerWeight",
      "outputs": [],
      "stateMutability": "nonpayable",
      "type": "function"
    }
  ],
  "bytecode": "0x608060405234801561001057600080fd5b50613293806100206000396000f3fe608060405234801561001057600080fd5b50600436106100ea5760003560e01c8063af9154981161008c578063d1e3aaa811610066578063d1e3aaa814610203578063f04420f114610223578063f7501dc314610278578063f8e876411461028b57600080fd5b8063af915498146101ca578063c8479cae146101dd578063d0bccea1146101f057600080fd5b8063286936bb116100c8578063286936bb1461015d57806363c032b71461017057806387f949b414610190578063a7865090146101a357600080fd5b806301ffc9a7146100ef57806306e82383146101175780630cdb1b0a14610148575b600080fd5b6101026100fd36600461227b565b61029e565b60405190151581526020015b60405180910390f35b7f255f4a56bd3ad76424e31ed8855ef9ad14a0ce4e67508c76ff082e5c1466b130545b60405190815260200161010e565b61015b61015636600461231a565b610300565b005b61015b61016b36600461238a565b610540565b61018361017e366004612404565b6106f3565b60405161010e91906124d1565b61015b61019e3660046124e4565b610861565b7f255f4a56bd3ad76424e31ed8855ef9ad14a0ce4e67508c76ff082e5c1466b12f5461013a565b61015b6101d836600461252b565b610ac5565b61015b6101eb3660046125cf565b610c97565b61015b6101fe366004612697565b610f41565b6102166102113660046126ee565b611264565b60405161010e9190612741565b61013a6102313660046127c1565b73ffffffffffffffffffffffffffffffffffffffff1660009081527f255f4a56bd3ad76424e31ed8855ef9ad14a0ce4e67508c76ff082e5c1466b131602052604090205490565b6102166102863660046127dc565b611485565b61018361029936600461281e565b611542565b60007f34db13da000000000000000000000000000000000000000000000000000000007fffffffff000000000000000000000000000000000000000000000000000000008316016102f157506001919050565b6102fa826118d9565b92915050565b83834660405160200161031593929190612975565b604080517fffffffffffffffffffffffffffffffffffffffffffffffffffffffffffffffe0818403018152919052805160209091012082826000806103638561035e8587612a18565b611935565b915091508181906103aa576040517f08c379a00000000000000000000000000000000000000000000000000000000081526004016103a191906124d1565b60405180910390fd5b5060005b838110156104655760017f255f4a56bd3ad76424e31ed8855ef9ad14a0ce4e67508c76ff082e5c1466b13260008787858181106103ed576103ed612b0b565b90506020028101906103ff9190612b3a565b60405161040d929190612b9f565b6040805191829003909120825260208201929092520160002080547fffffffffffffffffffffffffffffffffffffffffffffffffffffffffffffff00169115159190911790558061045d81612bde565b9150506103ae565b507f8b8c16fdb86566569823d1c7c7621975485948685c113470681dca36483b6235600061049660208c018c6127c1565b6104a660408d0160208e016127c1565b60408d01356104b860608f018f612b3a565b6040516020016104cc959493929190612c16565b604080517fffffffffffffffffffffffffffffffffffffffffffffffffffffffffffffffe081840301815291815281516020928301208352908201929092520160002080547fffffffff00000000000000000000000000000000000000000000000000000000169055505050505050505050565b848484466040516020016105579493929190612cb5565b604080517fffffffffffffffffffffffffffffffffffffffffffffffffffffffffffffffe0818403018152919052805160209091012082826000806105a08561035e8587612a18565b915091508181906105de576040517f08c379a00000000000000000000000000000000000000000000000000000000081526004016103a191906124d1565b5060005b838110156106995760017f255f4a56bd3ad76424e31ed8855ef9ad14a0ce4e67508c76ff082e5c1466b132600087878581811061062157610621612b0b565b90506020028101906106339190612b3a565b604051610641929190612b9f565b6040805191829003909120825260208201929092520160002080547fffffffffffffffffffffffffffffffffffffffffffffffffffffffffffffff00169115159190911790558061069181612bde565b9150506105e2565b5060005b898110156106e6576106d48b8b838181106106ba576106ba612b0b565b90506020020160208101906106cf91906127c1565b611b40565b806106de81612bde565b91505061069d565b5050505050505050505050565b60608346604051602001610708929190612d20565b604080517fffffffffffffffffffffffffffffffffffffffffffffffffffffffffffffffe0818403018152919052805160209091012083836000806107518561035e8587612a18565b9150915081819061078f576040517f08c379a00000000000000000000000000000000000000000000000000000000081526004016103a191906124d1565b5060005b8381101561084a5760017f255f4a56bd3ad76424e31ed8855ef9ad14a0ce4e67508c76ff082e5c1466b13260008787858181106107d2576107d2612b0b565b90506020028101906107e49190612b3a565b6040516107f2929190612b9f565b6040805191829003909120825260208201929092520160002080547fffffffffffffffffffffffffffffffffffffffffffffffffffffffffffffff00169115159190911790558061084281612bde565b915050610793565b5061085489611cda565b9998505050505050505050565b6040805160208101869052908101849052466060820152608001604080517fffffffffffffffffffffffffffffffffffffffffffffffffffffffffffffffe0818403018152919052805160209091012082826000806108c48561035e8587612a18565b91509150818190610902576040517f08c379a00000000000000000000000000000000000000000000000000000000081526004016103a191906124d1565b5060005b838110156109bd5760017f255f4a56bd3ad76424e31ed8855ef9ad14a0ce4e67508c76ff082e5c1466b132600087878581811061094557610945612b0b565b90506020028101906109579190612b3a565b604051610965929190612b9f565b6040805191829003909120825260208201929092520160002080547fffffffffffffffffffffffffffffffffffffffffffffffffffffffffffffff0016911515919091179055806109b581612bde565b915050610906565b5060007f255f4a56bd3ad76424e31ed8855ef9ad14a0ce4e67508c76ff082e5c1466b12f54118015610a3157507f255f4a56bd3ad76424e31ed8855ef9ad14a0ce4e67508c76ff082e5c1466b130547f255f4a56bd3ad76424e31ed8855ef9ad14a0ce4e67508c76ff082e5c1466b12f5411155b610a97576040517f08c379a000000000000000000000000000000000000000000000000000000000815260206004820152601160248201527f496e76616c6964207468726573686f6c6400000000000000000000000000000060448201526064016103a1565b887f255f4a56bd3ad76424e31ed8855ef9ad14a0ce4e67508c76ff082e5c1466b12f55505050505050505050565b868686868646604051602001610ae096959493929190612d42565b604080517fffffffffffffffffffffffffffffffffffffffffffffffffffffffffffffffe081840301815291905280516020909101208282600080610b298561035e8587612a18565b91509150818190610b67576040517f08c379a00000000000000000000000000000000000000000000000000000000081526004016103a191906124d1565b5060005b83811015610c225760017f255f4a56bd3ad76424e31ed8855ef9ad14a0ce4e67508c76ff082e5c1466b1326000878785818110610baa57610baa612b0b565b9050602002810190610bbc9190612b3a565b604051610bca929190612b9f565b6040805191829003909120825260208201929092520160002080547fffffffffffffffffffffffffffffffffffffffffffffffffffffffffffffff001691151591909117905580610c1a81612bde565b915050610b6b565b5060005b8b811015610c8857610c768d8d83818110610c4357610c43612b0b565b9050602002016020810190610c5891906127c1565b8c8c84818110610c6a57610c6a612b0b565b90506020020135611d76565b80610c8081612bde565b915050610c26565b50505050505050505050505050565b84848446604051602001610cae9493929190612de1565b604080517fffffffffffffffffffffffffffffffffffffffffffffffffffffffffffffffe081840301815291905280516020909101208282600080610cf78561035e8587612a18565b91509150818190610d35576040517f08c379a00000000000000000000000000000000000000000000000000000000081526004016103a191906124d1565b5060005b83811015610df05760017f255f4a56bd3ad76424e31ed8855ef9ad14a0ce4e67508c76ff082e5c1466b1326000878785818110610d7857610d78612b0b565b9050602002810190610d8a9190612b3a565b604051610d98929190612b9f565b6040805191829003909120825260208201929092520160002080547fffffffffffffffffffffffffffffffffffffffffffffffffffffffffffffff001691151591909117905580610de881612bde565b915050610d39565b506000610e0360a08b0160808c01612e87565b63ffffffff1611610e96576040517f08c379a000000000000000000000000000000000000000000000000000000000815260206004820152603260248201527f43616c6c52657175657374507265617574686f72697a6174696f6e2e6d61784360448201527f616c6c73206d757374206e6f742062652030000000000000000000000000000060648201526084016103a1565b887f8b8c16fdb86566569823d1c7c7621975485948685c113470681dca36483b62356000610ec760208e018e6127c1565b8d6020016020810190610eda91906127c1565b8e604001358f8060600190610eef9190612b3a565b604051602001610f03959493929190612c16565b6040516020818303038152906040528051906020012081526020019081526020016000208181610f339190612eb1565b505050505050505050505050565b6040805173ffffffffffffffffffffffffffffffffffffffff871660208201529081018590526060810184905246608082015260a001604080517fffffffffffffffffffffffffffffffffffffffffffffffffffffffffffffffe081840301815291905280516020909101208282600080610fc08561035e8587612a18565b91509150818190610ffe576040517f08c379a00000000000000000000000000000000000000000000000000000000081526004016103a191906124d1565b5060005b838110156110b95760017f255f4a56bd3ad76424e31ed8855ef9ad14a0ce4e67508c76ff082e5c1466b132600087878581811061104157611041612b0b565b90506020028101906110539190612b3a565b604051611061929190612b9f565b6040805191829003909120825260208201929092520160002080547fffffffffffffffffffffffffffffffffffffffffffffffffffffffffffffff0016911515919091179055806110b181612bde565b915050611002565b5073ffffffffffffffffffffffffffffffffffffffff8a1660009081527f255f4a56bd3ad76424e31ed8855ef9ad14a0ce4e67508c76ff082e5c1466b13160205260409020547f255f4a56bd3ad76424e31ed8855ef9ad14a0ce4e67508c76ff082e5c1466b130548a9161112c91613055565b6111369190613068565b7f255f4a56bd3ad76424e31ed8855ef9ad14a0ce4e67508c76ff082e5c1466b130819055158015906111aa57507f255f4a56bd3ad76424e31ed8855ef9ad14a0ce4e67508c76ff082e5c1466b12f547f255f4a56bd3ad76424e31ed8855ef9ad14a0ce4e67508c76ff082e5c1466b1305410155b611210576040517f08c379a000000000000000000000000000000000000000000000000000000000815260206004820152601d60248201527f5468726573686f6c6420776f756c6420626520696d706f737369626c6500000060448201526064016103a1565b5050505073ffffffffffffffffffffffffffffffffffffffff9590951660009081527f255f4a56bd3ad76424e31ed8855ef9ad14a0ce4e67508c76ff082e5c1466b131602052604090209390935550505050565b606084844660405160200161127b9392919061307b565b604080517fffffffffffffffffffffffffffffffffffffffffffffffffffffffffffffffe0818403018152919052805160209091012083836000806112c48561035e8587612a18565b91509150818190611302576040517f08c379a00000000000000000000000000000000000000000000000000000000081526004016103a191906124d1565b5060005b838110156113bd5760017f255f4a56bd3ad76424e31ed8855ef9ad14a0ce4e67508c76ff082e5c1466b132600087878581811061134557611345612b0b565b90506020028101906113579190612b3a565b604051611365929190612b9f565b6040805191829003909120825260208201929092520160002080547fffffffffffffffffffffffffffffffffffffffffffffffffffffffffffffff0016911515919091179055806113b581612bde565b915050611306565b5060008967ffffffffffffffff8111156113d9576113d961299a565b60405190808252806020026020018201604052801561140c57816020015b60608152602001906001900390816113f75790505b50905060005b8a811015611476576114468c8c8381811061142f5761142f612b0b565b90506020028101906114419190613130565b611cda565b82828151811061145857611458612b0b565b6020026020010181905250808061146e90612bde565b915050611412565b509a9950505050505050505050565b606060008267ffffffffffffffff8111156114a2576114a261299a565b6040519080825280602002602001820160405280156114d557816020015b60608152602001906001900390816114c05790505b50905060005b8381101561153a5761150a8585838181106114f8576114f8612b0b565b90506020028101906102999190613130565b82828151811061151c5761151c612b0b565b6020026020010181905250808061153290612bde565b9150506114db565b509392505050565b606060006115503384611df8565b80549091507801000000000000000000000000000000000000000000000000900463ffffffff1660000361158c57611589600084611df8565b90505b80547801000000000000000000000000000000000000000000000000900463ffffffff16611616576040517f08c379a000000000000000000000000000000000000000000000000000000000815260206004820152601660248201527f43616c6c206e6f7420707265617574686f72697a65640000000000000000000060448201526064016103a1565b805467ffffffffffffffff1615806116395750805467ffffffffffffffff164210155b61169f576040517f08c379a000000000000000000000000000000000000000000000000000000000815260206004820152600f60248201527f43616c6c2074696d656c6f636b6564000000000000000000000000000000000060448201526064016103a1565b805468010000000000000000900467ffffffffffffffff1615806116dc57508054700100000000000000000000000000000000900463ffffffff16155b8061172c5750805461171e90700100000000000000000000000000000000810463ffffffff169068010000000000000000900467ffffffffffffffff1661316e565b67ffffffffffffffff164210155b611792576040517f08c379a000000000000000000000000000000000000000000000000000000000815260206004820152601360248201527f43616c6c20696e74657276616c20756e6d65740000000000000000000000000060448201526064016103a1565b805463ffffffff780100000000000000000000000000000000000000000000000082048116740100000000000000000000000000000000000000009092041610611838576040517f08c379a000000000000000000000000000000000000000000000000000000000815260206004820152601160248201527f4d61782063616c6c73207265616368656400000000000000000000000000000060448201526064016103a1565b8054600190829060149061186b90849074010000000000000000000000000000000000000000900463ffffffff16613196565b82546101009290920a63ffffffff8181021990931691909216919091021790555080547fffffffffffffffffffffffffffffffff0000000000000000ffffffffffffffff16680100000000000000004267ffffffffffffffff16021781556118d283611cda565b9392505050565b60007f4ddc67e1000000000000000000000000000000000000000000000000000000007fffffffff0000000000000000000000000000000000000000000000000000000083160161192c57506001919050565b6102fa82611e7d565b600060606000805b8451811015611ad457600061196b8787848151811061195e5761195e612b0b565b6020026020010151611f1a565b73ffffffffffffffffffffffffffffffffffffffff811660009081527f255f4a56bd3ad76424e31ed8855ef9ad14a0ce4e67508c76ff082e5c1466b1316020526040812054919250036119df5760006040518060600160405280603281526020016132096032913994509450505050611b39565b60008683815181106119f3576119f3612b0b565b6020026020010151805190602001209050611a2b7f255f4a56bd3ad76424e31ed8855ef9ad14a0ce4e67508c76ff082e5c1466b12f90565b6000828152600391909101602052604090205460ff1615611a6e57600060405180606001604052806023815260200161323b602391399550955050505050611b39565b73ffffffffffffffffffffffffffffffffffffffff821660009081527f255f4a56bd3ad76424e31ed8855ef9ad14a0ce4e67508c76ff082e5c1466b1316020526040902054611abd9085613068565b935050508080611acc90612bde565b91505061193d565b507f255f4a56bd3ad76424e31ed8855ef9ad14a0ce4e67508c76ff082e5c1466b12f54811015611b235760006040518060600160405280602681526020016131e3602691399250925050611b39565b5050604080516020810190915260008152600191505b9250929050565b73ffffffffffffffffffffffffffffffffffffffff811660009081527f255f4a56bd3ad76424e31ed8855ef9ad14a0ce4e67508c76ff082e5c1466b13160205260408120547f255f4a56bd3ad76424e31ed8855ef9ad14a0ce4e67508c76ff082e5c1466b130805491929091611bb7908490613055565b90915550507f255f4a56bd3ad76424e31ed8855ef9ad14a0ce4e67508c76ff082e5c1466b1305415801590611c2e57507f255f4a56bd3ad76424e31ed8855ef9ad14a0ce4e67508c76ff082e5c1466b12f547f255f4a56bd3ad76424e31ed8855ef9ad14a0ce4e67508c76ff082e5c1466b1305410155b611c94576040517f08c379a000000000000000000000000000000000000000000000000000000000815260206004820152601d60248201527f5468726573686f6c6420776f756c6420626520696d706f737369626c6500000060448201526064016103a1565b73ffffffffffffffffffffffffffffffffffffffff1660009081527f255f4a56bd3ad76424e31ed8855ef9ad14a0ce4e67508c76ff082e5c1466b1316020526040812055565b6060600080611cec60208501856127c1565b73ffffffffffffffffffffffffffffffffffffffff166020850135611d146060870187612b3a565b604051611d22929190612b9f565b60006040518083038185875af1925050503d8060008114611d5f576040519150601f19603f3d011682016040523d82523d6000602084013e611d64565b606091505b5091509150816118d257805160208201fd5b807f255f4a56bd3ad76424e31ed8855ef9ad14a0ce4e67508c76ff082e5c1466b12f6001016000828254611daa9190613068565b909155505073ffffffffffffffffffffffffffffffffffffffff9190911660009081527f255f4a56bd3ad76424e31ed8855ef9ad14a0ce4e67508c76ff082e5c1466b1316020526040902055565b60007f8b8c16fdb86566569823d1c7c7621975485948685c113470681dca36483b6235600084611e2b60208601866127c1565b6020860135611e3d6060880188612b3a565b604051602001611e51959493929190612c16565b604051602081830303815290604052805190602001208152602001908152602001600020905092915050565b60007f7e68492c000000000000000000000000000000000000000000000000000000007fffffffff00000000000000000000000000000000000000000000000000000000831601611ed057506001919050565b7f01ffc9a7000000000000000000000000000000000000000000000000000000007fffffffff000000000000000000000000000000000000000000000000000000008316146102fa565b60006118d282611f77856040517f19457468657265756d205369676e6564204d6573736167653a0a3332000000006020820152603c8101829052600090605c01604051602081830303815290604052805190602001209050919050565b906000806000611f878585611f94565b9150915061153a81611fd6565b6000808251604103611fca5760208301516040840151606085015160001a611fbe8782858561218c565b94509450505050611b39565b50600090506002611b39565b6000816004811115611fea57611fea6131b3565b03611ff25750565b6001816004811115612006576120066131b3565b0361206d576040517f08c379a000000000000000000000000000000000000000000000000000000000815260206004820152601860248201527f45434453413a20696e76616c6964207369676e6174757265000000000000000060448201526064016103a1565b6002816004811115612081576120816131b3565b036120e8576040517f08c379a000000000000000000000000000000000000000000000000000000000815260206004820152601f60248201527f45434453413a20696e76616c6964207369676e6174757265206c656e6774680060448201526064016103a1565b60038160048111156120fc576120fc6131b3565b03612189576040517f08c379a000000000000000000000000000000000000000000000000000000000815260206004820152602260248201527f45434453413a20696e76616c6964207369676e6174757265202773272076616c60448201527f756500000000000000000000000000000000000000000000000000000000000060648201526084016103a1565b50565b6000807f7fffffffffffffffffffffffffffffff5d576e7357a4501ddfe92f46681b20a08311156121c35750600090506003612272565b6040805160008082526020820180845289905260ff881692820192909252606081018690526080810185905260019060a0016020604051602081039080840390855afa158015612217573d6000803e3d6000fd5b50506040517fffffffffffffffffffffffffffffffffffffffffffffffffffffffffffffffe0015191505073ffffffffffffffffffffffffffffffffffffffff811661226b57600060019250925050612272565b9150600090505b94509492505050565b60006020828403121561228d57600080fd5b81357fffffffff00000000000000000000000000000000000000000000000000000000811681146118d257600080fd5b6000608082840312156122cf57600080fd5b50919050565b60008083601f8401126122e757600080fd5b50813567ffffffffffffffff8111156122ff57600080fd5b6020830191508360208260051b8501011115611b3957600080fd5b6000806000806060858703121561233057600080fd5b843567ffffffffffffffff8082111561234857600080fd5b612354888389016122bd565b955060208701359450604087013591508082111561237157600080fd5b5061237e878288016122d5565b95989497509550505050565b6000806000806000606086880312156123a257600080fd5b853567ffffffffffffffff808211156123ba57600080fd5b6123c689838a016122d5565b90975095506020880135945060408801359150808211156123e657600080fd5b506123f3888289016122d5565b969995985093965092949392505050565b60008060006040848603121561241957600080fd5b833567ffffffffffffffff8082111561243157600080fd5b61243d878388016122bd565b9450602086013591508082111561245357600080fd5b50612460868287016122d5565b9497909650939450505050565b6000815180845260005b8181101561249357602081850181015186830182015201612477565b5060006020828601015260207fffffffffffffffffffffffffffffffffffffffffffffffffffffffffffffffe0601f83011685010191505092915050565b6020815260006118d2602083018461246d565b600080600080606085870312156124fa57600080fd5b8435935060208501359250604085013567ffffffffffffffff81111561251f57600080fd5b61237e878288016122d5565b60008060008060008060006080888a03121561254657600080fd5b873567ffffffffffffffff8082111561255e57600080fd5b61256a8b838c016122d5565b909950975060208a013591508082111561258357600080fd5b61258f8b838c016122d5565b909750955060408a0135945060608a01359150808211156125af57600080fd5b506125bc8a828b016122d5565b989b979a50959850939692959293505050565b60008060008060008587036101008112156125e957600080fd5b863567ffffffffffffffff8082111561260157600080fd5b61260d8a838b016122bd565b975060a07fffffffffffffffffffffffffffffffffffffffffffffffffffffffffffffffe08401121561263f57600080fd5b60208901965060c0890135955060e089013592508083111561266057600080fd5b50506123f3888289016122d5565b803573ffffffffffffffffffffffffffffffffffffffff8116811461269257600080fd5b919050565b6000806000806000608086880312156126af57600080fd5b6126b88661266e565b94506020860135935060408601359250606086013567ffffffffffffffff8111156126e257600080fd5b6123f3888289016122d5565b6000806000806040858703121561270457600080fd5b843567ffffffffffffffff8082111561271c57600080fd5b612728888389016122d5565b9096509450602087013591508082111561237157600080fd5b6000602080830181845280855180835260408601915060408160051b870101925083870160005b828110156127b4577fffffffffffffffffffffffffffffffffffffffffffffffffffffffffffffffc08886030184526127a285835161246d565b94509285019290850190600101612768565b5092979650505050505050565b6000602082840312156127d357600080fd5b6118d28261266e565b600080602083850312156127ef57600080fd5b823567ffffffffffffffff81111561280657600080fd5b612812858286016122d5565b90969095509350505050565b60006020828403121561283057600080fd5b813567ffffffffffffffff81111561284757600080fd5b612853848285016122bd565b949350505050565b60008083357fffffffffffffffffffffffffffffffffffffffffffffffffffffffffffffffe184360301811261289057600080fd5b830160208101925035905067ffffffffffffffff8111156128b057600080fd5b803603821315611b3957600080fd5b8183528181602085013750600060208284010152600060207fffffffffffffffffffffffffffffffffffffffffffffffffffffffffffffffe0601f840116840101905092915050565b600073ffffffffffffffffffffffffffffffffffffffff806129298461266e565b168452806129396020850161266e565b1660208501525060408201356040840152612957606083018361285b565b6080606086015261296c6080860182846128bf565b95945050505050565b6060815260006129886060830186612908565b60208301949094525060400152919050565b7f4e487b7100000000000000000000000000000000000000000000000000000000600052604160045260246000fd5b604051601f82017fffffffffffffffffffffffffffffffffffffffffffffffffffffffffffffffe016810167ffffffffffffffff81118282101715612a1057612a1061299a565b604052919050565b600067ffffffffffffffff80841115612a3357612a3361299a565b8360051b6020612a448183016129c9565b868152918501918181019036841115612a5c57600080fd5b865b84811015612aff57803586811115612a765760008081fd5b8801601f3681830112612a895760008081fd5b813588811115612a9b57612a9b61299a565b612aca877fffffffffffffffffffffffffffffffffffffffffffffffffffffffffffffffe084840116016129c9565b91508082523687828501011115612ae15760008081fd5b80878401888401376000908201870152845250918301918301612a5e565b50979650505050505050565b7f4e487b7100000000000000000000000000000000000000000000000000000000600052603260045260246000fd5b60008083357fffffffffffffffffffffffffffffffffffffffffffffffffffffffffffffffe1843603018112612b6f57600080fd5b83018035915067ffffffffffffffff821115612b8a57600080fd5b602001915036819003821315611b3957600080fd5b8183823760009101908152919050565b7f4e487b7100000000000000000000000000000000000000000000000000000000600052601160045260246000fd5b60007fffffffffffffffffffffffffffffffffffffffffffffffffffffffffffffffff8203612c0f57612c0f612baf565b5060010190565b600073ffffffffffffffffffffffffffffffffffffffff808816835280871660208401525084604083015260806060830152612c566080830184866128bf565b979650505050505050565b8183526000602080850194508260005b85811015612caa5773ffffffffffffffffffffffffffffffffffffffff612c978361266e565b1687529582019590820190600101612c71565b509495945050505050565b606081526000612cc9606083018688612c61565b6020830194909452506040015292915050565b73ffffffffffffffffffffffffffffffffffffffff612cfa8261266e565b16825260208101356020830152604081013560408301526000612957606083018361285b565b604081526000612d336040830185612cdc565b90508260208301529392505050565b608081526000612d5660808301888a612c61565b82810360208401528581527f07ffffffffffffffffffffffffffffffffffffffffffffffffffffffffffffff861115612d8e57600080fd5b8560051b80886020840137604084019590955260609092019290925290910160200195945050505050565b67ffffffffffffffff8116811461218957600080fd5b63ffffffff8116811461218957600080fd5b6000610100808352612df581840188612908565b9150508435612e0381612db9565b67ffffffffffffffff808216602085015260208701359150612e2482612db9565b16604083810191909152850135612e3a81612dcf565b63ffffffff808216606085015260608701359150612e5782612dcf565b808216608085015260808701359150612e6f82612dcf565b1660a083015260c082019390935260e0015292915050565b600060208284031215612e9957600080fd5b81356118d281612dcf565b600081356102fa81612dcf565b8135612ebc81612db9565b67ffffffffffffffff811690508154817fffffffffffffffffffffffffffffffffffffffffffffffff000000000000000082161783556020840135612f0081612db9565b6fffffffffffffffff00000000000000008160401b16905080837fffffffffffffffffffffffffffffffff000000000000000000000000000000008416171784556040850135612f4f81612dcf565b73ffffffff000000000000000000000000000000008160801b169050837fffffffffffffffffffffffff000000000000000000000000000000000000000084161793508084831717855560608601359250612fa983612dcf565b77ffffffff00000000000000000000000000000000000000008360a01b167fffffffffffffffff00000000ffffffffffffffffffffffffffffffffffffffff8516831782171785555050505061305161300460808401612ea4565b82547fffffffff00000000ffffffffffffffffffffffffffffffffffffffffffffffff1660c09190911b7bffffffff00000000000000000000000000000000000000000000000016178255565b5050565b818103818111156102fa576102fa612baf565b808201808211156102fa576102fa612baf565b6040808252810183905260006060600585901b830181019083018683805b8881101561311b577fffffffffffffffffffffffffffffffffffffffffffffffffffffffffffffffa087860301845282357fffffffffffffffffffffffffffffffffffffffffffffffffffffffffffffff818b36030181126130f9578283fd5b613105868c8301612cdc565b9550506020938401939290920191600101613099565b50505050602092909201929092529392505050565b600082357fffffffffffffffffffffffffffffffffffffffffffffffffffffffffffffff8183360301811261316457600080fd5b9190910192915050565b67ffffffffffffffff81811683821601908082111561318f5761318f612baf565b5092915050565b63ffffffff81811683821601908082111561318f5761318f612baf565b7f4e487b7100000000000000000000000000000000000000000000000000000000600052602160045260246000fdfe5369676e6572207765696768747320646f6573206e6f74206d656574207468726573686f6c644174206c65617374206f6e65207369676e6174757265206e6f742066726f6d2061206b6e6f776e20636f6e74726f6c6c65724174206c65617374206f6e65207369676e617475726520616c72656164792075736564a26469706673582212207198f4f3fd5afd492daaf1ad10cd900b065a2c8ae104b9c5f659aad460d048d164736f6c63430008120033",
  "linkReferences": {},
  "deployedLinkReferences": {}
}