{
  "_format": "hh-sol-artifact-1",
  "contractName": "Factory",
  "sourceName": "contracts/Factory.sol",
  "abi": [
    {
      "inputs": [
        {
          "internalType": "address",
          "name": "_main",
          "type": "address"
        },
        {
          "internalType": "address",
          "name": "_controller",
          "type": "address"
        },
        {
          "internalType": "bytes32",
          "name": "_salt",
          "type": "bytes32"
        }
      ],
      "name": "deployWithController",
      "outputs": [
        {
          "internalType": "address",
          "name": "_contract",
          "type": "address"
        }
      ],
      "stateMutability": "payable",
      "type": "function"
    },
    {
      "inputs": [
        {
          "internalType": "address",
          "name": "_main",
          "type": "address"
        },
        {
          "internalType": "bytes",
          "name": "_proofSignature",
          "type": "bytes"
        }
      ],
      "name": "deployWithSignedController",
      "outputs": [
        {
          "internalType": "address",
          "name": "_contract",
          "type": "address"
        }
      ],
      "stateMutability": "nonpayable",
      "type": "function"
    }
  ],
  "bytecode": "0x608060405234801561001057600080fd5b5061099d806100206000396000f3fe6080604052600436106100295760003560e01c8063643b0e111461002e578063b5fb364b14610077575b600080fd5b34801561003a57600080fd5b5061004e61004936600461079c565b61008a565b60405173ffffffffffffffffffffffffffffffffffffffff909116815260200160405180910390f35b61004e61008536600461081f565b610218565b6000806100ed7fa24b0a2c93fee5782ab95a89a285186ff4c1359a1133b2e8e5bedb1546214b9285858080601f01602080910402602001604051908101604052809392919081815260200183838082843760009201919091525061034092505050565b6040805173ffffffffffffffffffffffffffffffffffffffff83166020820152919250600091016040516020818303038152906040528051906020012090506000604051806060016040528060288152602001610940602891398773ffffffffffffffffffffffffffffffffffffffff1660405160200161016f92919061087f565b60405160208183030381529060405290508181516020830134f56040517fc4d66de800000000000000000000000000000000000000000000000000000000815273ffffffffffffffffffffffffffffffffffffffff85811660048301529195509085169063c4d66de890602401600060405180830381600087803b1580156101f657600080fd5b505af115801561020a573d6000803e3d6000fd5b505050505050509392505050565b600080604051806060016040528060288152602001610940602891398573ffffffffffffffffffffffffffffffffffffffff1660405160200161025c92919061087f565b60405160208183030381529060405290508281516020830134f591506102b76040518060400160405280601a81526020017f437265617465642077616c6c657420617420616464726573733a000000000000815250836103aa565b6040517fc4d66de800000000000000000000000000000000000000000000000000000000815273ffffffffffffffffffffffffffffffffffffffff858116600483015283169063c4d66de890602401600060405180830381600087803b15801561032057600080fd5b505af1158015610334573d6000803e3d6000fd5b50505050509392505050565b60006103a38261039d856040517f19457468657265756d205369676e6564204d6573736167653a0a3332000000006020820152603c8101829052600090605c01604051602081830303815290604052805190602001209050919050565b9061043f565b9392505050565b61043b82826040516024016103c09291906108a1565b604080517fffffffffffffffffffffffffffffffffffffffffffffffffffffffffffffffe08184030181529190526020810180517bffffffffffffffffffffffffffffffffffffffffffffffffffffffff167f319af33300000000000000000000000000000000000000000000000000000000179052610463565b5050565b600080600061044e8585610484565b9150915061045b816104c9565b509392505050565b80516a636f6e736f6c652e6c6f67602083016000808483855afa5050505050565b60008082516041036104ba5760208301516040840151606085015160001a6104ae87828585610684565b945094505050506104c2565b506000905060025b9250929050565b60008160048111156104dd576104dd610910565b036104e55750565b60018160048111156104f9576104f9610910565b03610565576040517f08c379a000000000000000000000000000000000000000000000000000000000815260206004820152601860248201527f45434453413a20696e76616c6964207369676e6174757265000000000000000060448201526064015b60405180910390fd5b600281600481111561057957610579610910565b036105e0576040517f08c379a000000000000000000000000000000000000000000000000000000000815260206004820152601f60248201527f45434453413a20696e76616c6964207369676e6174757265206c656e67746800604482015260640161055c565b60038160048111156105f4576105f4610910565b03610681576040517f08c379a000000000000000000000000000000000000000000000000000000000815260206004820152602260248201527f45434453413a20696e76616c6964207369676e6174757265202773272076616c60448201527f7565000000000000000000000000000000000000000000000000000000000000606482015260840161055c565b50565b6000807f7fffffffffffffffffffffffffffffff5d576e7357a4501ddfe92f46681b20a08311156106bb575060009050600361076a565b6040805160008082526020820180845289905260ff881692820192909252606081018690526080810185905260019060a0016020604051602081039080840390855afa15801561070f573d6000803e3d6000fd5b50506040517fffffffffffffffffffffffffffffffffffffffffffffffffffffffffffffffe0015191505073ffffffffffffffffffffffffffffffffffffffff81166107635760006001925092505061076a565b9150600090505b94509492505050565b803573ffffffffffffffffffffffffffffffffffffffff8116811461079757600080fd5b919050565b6000806000604084860312156107b157600080fd5b6107ba84610773565b9250602084013567ffffffffffffffff808211156107d757600080fd5b818601915086601f8301126107eb57600080fd5b8135818111156107fa57600080fd5b87602082850101111561080c57600080fd5b6020830194508093505050509250925092565b60008060006060848603121561083457600080fd5b61083d84610773565b925061084b60208501610773565b9150604084013590509250925092565b60005b8381101561087657818101518382015260200161085e565b50506000910152565b6000835161089181846020880161085b565b9190910191825250602001919050565b60408152600083518060408401526108c081606085016020880161085b565b73ffffffffffffffffffffffffffffffffffffffff93909316602083015250601f919091017fffffffffffffffffffffffffffffffffffffffffffffffffffffffffffffffe01601606001919050565b7f4e487b7100000000000000000000000000000000000000000000000000000000600052602160045260246000fdfe603a600e3d39601a805130553df3363d3d373d3d3d363d30545af43d82803e903d91601857fd5bf3a2646970667358221220d204afc018f988d064bd77f2e1ef23756986cb69297ec1ecf1d283fbd0f3cc1f64736f6c63430008120033",
  "linkReferences": {},
  "deployedLinkReferences": {}
}