{
  "_format": "hh-sol-artifact-1",
  "contractName": "Factory",
  "sourceName": "contracts/Factory.sol",
  "abi": [
    {
      "inputs": [
        {
          "internalType": "address",
          "name": "_main",
          "type": "address"
        },
        {
          "internalType": "bytes",
          "name": "_proofSignature",
          "type": "bytes"
        }
      ],
      "name": "deployWithControllerSigned",
      "outputs": [
        {
          "internalType": "address",
          "name": "",
          "type": "address"
        }
      ],
      "stateMutability": "nonpayable",
      "type": "function"
    },
    {
      "inputs": [
        {
          "internalType": "address",
          "name": "_main",
          "type": "address"
        },
        {
          "internalType": "address",
          "name": "_controller",
          "type": "address"
        },
        {
          "internalType": "bytes32",
          "name": "_salt",
          "type": "bytes32"
        }
      ],
      "name": "deployWithControllerUnsigned",
      "outputs": [
        {
          "internalType": "address",
          "name": "",
          "type": "address"
        }
      ],
      "stateMutability": "payable",
      "type": "function"
    }
  ],
  "bytecode": "0x608060405234801561001057600080fd5b50610852806100206000396000f3fe6080604052600436106100295760003560e01c8063517bc6871461002e578063a70856c31461006a575b600080fd5b61004161003c3660046106d4565b61008a565b60405173ffffffffffffffffffffffffffffffffffffffff909116815260200160405180910390f35b34801561007657600080fd5b50610041610085366004610710565b6100eb565b60008082336040516020016100bf92919091825273ffffffffffffffffffffffffffffffffffffffff16602082015260400190565b6040516020818303038152906040528051906020012090506100e28585836101a2565b95945050505050565b60008061014e7f72b6938e8fa1f7805717890f240afe1a4f9f016960eceb74e8e10e8e9b393c7585858080601f01602080910402602001604051908101604052809392919081815260200183838082843760009201919091525061033392505050565b6040805173ffffffffffffffffffffffffffffffffffffffff83166020820152919250600091016040516020818303038152906040528051906020012090506101988683836101a2565b9695505050505050565b6000806040518060600160405280602881526020016107f5602891398573ffffffffffffffffffffffffffffffffffffffff166040516020016101e6929190610793565b60405160208183030381529060405290508281516020830134f5915073ffffffffffffffffffffffffffffffffffffffff82166102aa576040517f08c379a000000000000000000000000000000000000000000000000000000000815260206004820152603660248201527f57616c6c657420616c7265616479206372656174656420666f722070726f766960448201527f6465642073616c74206f72207369676e61747572652e0000000000000000000060648201526084015b60405180910390fd5b6040517fc4d66de800000000000000000000000000000000000000000000000000000000815273ffffffffffffffffffffffffffffffffffffffff858116600483015283169063c4d66de890602401600060405180830381600087803b15801561031357600080fd5b505af1158015610327573d6000803e3d6000fd5b50505050509392505050565b600061039682610390856040517f19457468657265756d205369676e6564204d6573736167653a0a3332000000006020820152603c8101829052600090605c01604051602081830303815290604052805190602001209050919050565b9061039d565b9392505050565b60008060006103ac85856103c1565b915091506103b981610406565b509392505050565b60008082516041036103f75760208301516040840151606085015160001a6103eb878285856105bc565b945094505050506103ff565b506000905060025b9250929050565b600081600481111561041a5761041a6107c5565b036104225750565b6001816004811115610436576104366107c5565b0361049d576040517f08c379a000000000000000000000000000000000000000000000000000000000815260206004820152601860248201527f45434453413a20696e76616c6964207369676e6174757265000000000000000060448201526064016102a1565b60028160048111156104b1576104b16107c5565b03610518576040517f08c379a000000000000000000000000000000000000000000000000000000000815260206004820152601f60248201527f45434453413a20696e76616c6964207369676e6174757265206c656e6774680060448201526064016102a1565b600381600481111561052c5761052c6107c5565b036105b9576040517f08c379a000000000000000000000000000000000000000000000000000000000815260206004820152602260248201527f45434453413a20696e76616c6964207369676e6174757265202773272076616c60448201527f756500000000000000000000000000000000000000000000000000000000000060648201526084016102a1565b50565b6000807f7fffffffffffffffffffffffffffffff5d576e7357a4501ddfe92f46681b20a08311156105f357506000905060036106a2565b6040805160008082526020820180845289905260ff881692820192909252606081018690526080810185905260019060a0016020604051602081039080840390855afa158015610647573d6000803e3d6000fd5b50506040517fffffffffffffffffffffffffffffffffffffffffffffffffffffffffffffffe0015191505073ffffffffffffffffffffffffffffffffffffffff811661069b576000600192509250506106a2565b9150600090505b94509492505050565b803573ffffffffffffffffffffffffffffffffffffffff811681146106cf57600080fd5b919050565b6000806000606084860312156106e957600080fd5b6106f2846106ab565b9250610700602085016106ab565b9150604084013590509250925092565b60008060006040848603121561072557600080fd5b61072e846106ab565b9250602084013567ffffffffffffffff8082111561074b57600080fd5b818601915086601f83011261075f57600080fd5b81358181111561076e57600080fd5b87602082850101111561078057600080fd5b6020830194508093505050509250925092565b6000835160005b818110156107b4576020818701810151858301520161079a565b509190910191825250602001919050565b7f4e487b7100000000000000000000000000000000000000000000000000000000600052602160045260246000fdfe603a600e3d39601a805130553df3363d3d373d3d3d363d30545af43d82803e903d91601857fd5bf3a26469706673582212209994f88c68d06ec1f72d1785073515402c0ea9308cf13c7f3f0e796e1210dc1264736f6c63430008120033",
  "linkReferences": {},
  "deployedLinkReferences": {}
}