{
  "_format": "hh-sol-artifact-1",
  "contractName": "Factory",
  "sourceName": "contracts/Factory.sol",
  "abi": [
    {
      "inputs": [
        {
          "internalType": "address",
          "name": "_main",
          "type": "address"
        },
        {
          "internalType": "bytes",
          "name": "_proofSignature",
          "type": "bytes"
        }
      ],
      "name": "deployWithControllerSigned",
      "outputs": [
        {
          "internalType": "address",
          "name": "",
          "type": "address"
        }
      ],
      "stateMutability": "nonpayable",
      "type": "function"
    },
    {
      "inputs": [
        {
          "internalType": "address",
          "name": "_main",
          "type": "address"
        },
        {
          "internalType": "address",
          "name": "_controller",
          "type": "address"
        },
        {
          "internalType": "bytes32",
          "name": "_salt",
          "type": "bytes32"
        }
      ],
      "name": "deployWithControllerUnsigned",
      "outputs": [
        {
          "internalType": "address",
          "name": "",
          "type": "address"
        }
      ],
      "stateMutability": "payable",
      "type": "function"
    }
  ],
  "bytecode": "0x608060405234801561001057600080fd5b5061085c806100206000396000f3fe6080604052600436106100295760003560e01c8063517bc6871461002e578063a70856c31461006a575b600080fd5b61004161003c3660046106de565b61008a565b60405173ffffffffffffffffffffffffffffffffffffffff909116815260200160405180910390f35b34801561007657600080fd5b5061004161008536600461071a565b6100f5565b600080827f575220a20e884227d63d95906255b06e7a54f8bcdaf45c4c4953008d17979ec56040516020016100c9929190918252602082015260400190565b6040516020818303038152906040528051906020012090506100ec8585836101ac565b95945050505050565b6000806101587f72b6938e8fa1f7805717890f240afe1a4f9f016960eceb74e8e10e8e9b393c7585858080601f01602080910402602001604051908101604052809392919081815260200183838082843760009201919091525061033d92505050565b6040805173ffffffffffffffffffffffffffffffffffffffff83166020820152919250600091016040516020818303038152906040528051906020012090506101a28683836101ac565b9695505050505050565b6000806040518060600160405280602881526020016107ff602891398573ffffffffffffffffffffffffffffffffffffffff166040516020016101f092919061079d565b60405160208183030381529060405290508281516020830134f5915073ffffffffffffffffffffffffffffffffffffffff82166102b4576040517f08c379a000000000000000000000000000000000000000000000000000000000815260206004820152603660248201527f57616c6c657420616c7265616479206372656174656420666f722070726f766960448201527f6465642073616c74206f72207369676e61747572652e0000000000000000000060648201526084015b60405180910390fd5b6040517fc4d66de800000000000000000000000000000000000000000000000000000000815273ffffffffffffffffffffffffffffffffffffffff858116600483015283169063c4d66de890602401600060405180830381600087803b15801561031d57600080fd5b505af1158015610331573d6000803e3d6000fd5b50505050509392505050565b60006103a08261039a856040517f19457468657265756d205369676e6564204d6573736167653a0a3332000000006020820152603c8101829052600090605c01604051602081830303815290604052805190602001209050919050565b906103a7565b9392505050565b60008060006103b685856103cb565b915091506103c381610410565b509392505050565b60008082516041036104015760208301516040840151606085015160001a6103f5878285856105c6565b94509450505050610409565b506000905060025b9250929050565b6000816004811115610424576104246107cf565b0361042c5750565b6001816004811115610440576104406107cf565b036104a7576040517f08c379a000000000000000000000000000000000000000000000000000000000815260206004820152601860248201527f45434453413a20696e76616c6964207369676e6174757265000000000000000060448201526064016102ab565b60028160048111156104bb576104bb6107cf565b03610522576040517f08c379a000000000000000000000000000000000000000000000000000000000815260206004820152601f60248201527f45434453413a20696e76616c6964207369676e6174757265206c656e6774680060448201526064016102ab565b6003816004811115610536576105366107cf565b036105c3576040517f08c379a000000000000000000000000000000000000000000000000000000000815260206004820152602260248201527f45434453413a20696e76616c6964207369676e6174757265202773272076616c60448201527f756500000000000000000000000000000000000000000000000000000000000060648201526084016102ab565b50565b6000807f7fffffffffffffffffffffffffffffff5d576e7357a4501ddfe92f46681b20a08311156105fd57506000905060036106ac565b6040805160008082526020820180845289905260ff881692820192909252606081018690526080810185905260019060a0016020604051602081039080840390855afa158015610651573d6000803e3d6000fd5b50506040517fffffffffffffffffffffffffffffffffffffffffffffffffffffffffffffffe0015191505073ffffffffffffffffffffffffffffffffffffffff81166106a5576000600192509250506106ac565b9150600090505b94509492505050565b803573ffffffffffffffffffffffffffffffffffffffff811681146106d957600080fd5b919050565b6000806000606084860312156106f357600080fd5b6106fc846106b5565b925061070a602085016106b5565b9150604084013590509250925092565b60008060006040848603121561072f57600080fd5b610738846106b5565b9250602084013567ffffffffffffffff8082111561075557600080fd5b818601915086601f83011261076957600080fd5b81358181111561077857600080fd5b87602082850101111561078a57600080fd5b6020830194508093505050509250925092565b6000835160005b818110156107be57602081870181015185830152016107a4565b509190910191825250602001919050565b7f4e487b7100000000000000000000000000000000000000000000000000000000600052602160045260246000fdfe603a600e3d39601a805130553df3363d3d373d3d3d363d30545af43d82803e903d91601857fd5bf3a2646970667358221220541356e206afcba9e063aa3ee6421536ae52b93cd9cd1b8ed7700606fdb06bcd64736f6c63430008120033",
  "linkReferences": {},
  "deployedLinkReferences": {}
}