{
  "_format": "hh-sol-artifact-1",
  "contractName": "Factory",
  "sourceName": "contracts/Factory.sol",
  "abi": [
    {
      "inputs": [
        {
          "internalType": "address",
          "name": "_main",
          "type": "address"
        },
        {
          "internalType": "bytes",
          "name": "_proofSignature",
          "type": "bytes"
        }
      ],
      "name": "deployWithSignedController",
      "outputs": [
        {
          "internalType": "address",
          "name": "_contract",
          "type": "address"
        }
      ],
      "stateMutability": "nonpayable",
      "type": "function"
    },
    {
      "inputs": [
        {
          "internalType": "address",
          "name": "_main",
          "type": "address"
        },
        {
          "internalType": "address",
          "name": "_controller",
          "type": "address"
        },
        {
          "internalType": "bytes32",
          "name": "_salt",
          "type": "bytes32"
        }
      ],
      "name": "deployWithUnsignedController",
      "outputs": [
        {
          "internalType": "address",
          "name": "",
          "type": "address"
        }
      ],
      "stateMutability": "payable",
      "type": "function"
    }
  ],
  "bytecode": "0x608060405234801561001057600080fd5b5061082a806100206000396000f3fe6080604052600436106100295760003560e01c80631d6d7f691461002e578063643b0e111461006a575b600080fd5b61004161003c3660046106ac565b61008a565b60405173ffffffffffffffffffffffffffffffffffffffff909116815260200160405180910390f35b34801561007657600080fd5b506100416100853660046106e8565b6100c3565b60007f243a71c14de3f2756c3f1cce296f71e362d91bbf636f4bb904e6e0ffbe5d866282186100ba85858361017a565b95945050505050565b6000806101267f72b6938e8fa1f7805717890f240afe1a4f9f016960eceb74e8e10e8e9b393c7585858080601f01602080910402602001604051908101604052809392919081815260200183838082843760009201919091525061030b92505050565b6040805173ffffffffffffffffffffffffffffffffffffffff831660208201529192506000910160405160208183030381529060405280519060200120905061017086838361017a565b9695505050505050565b6000806040518060600160405280602881526020016107cd602891398573ffffffffffffffffffffffffffffffffffffffff166040516020016101be92919061076b565b60405160208183030381529060405290508281516020830134f5915073ffffffffffffffffffffffffffffffffffffffff8216610282576040517f08c379a000000000000000000000000000000000000000000000000000000000815260206004820152603660248201527f57616c6c657420616c7265616479206372656174656420666f722070726f766960448201527f6465642073616c74206f72207369676e61747572652e0000000000000000000060648201526084015b60405180910390fd5b6040517fc4d66de800000000000000000000000000000000000000000000000000000000815273ffffffffffffffffffffffffffffffffffffffff858116600483015283169063c4d66de890602401600060405180830381600087803b1580156102eb57600080fd5b505af11580156102ff573d6000803e3d6000fd5b50505050509392505050565b600061036e82610368856040517f19457468657265756d205369676e6564204d6573736167653a0a3332000000006020820152603c8101829052600090605c01604051602081830303815290604052805190602001209050919050565b90610375565b9392505050565b60008060006103848585610399565b91509150610391816103de565b509392505050565b60008082516041036103cf5760208301516040840151606085015160001a6103c387828585610594565b945094505050506103d7565b506000905060025b9250929050565b60008160048111156103f2576103f261079d565b036103fa5750565b600181600481111561040e5761040e61079d565b03610475576040517f08c379a000000000000000000000000000000000000000000000000000000000815260206004820152601860248201527f45434453413a20696e76616c6964207369676e617475726500000000000000006044820152606401610279565b60028160048111156104895761048961079d565b036104f0576040517f08c379a000000000000000000000000000000000000000000000000000000000815260206004820152601f60248201527f45434453413a20696e76616c6964207369676e6174757265206c656e677468006044820152606401610279565b60038160048111156105045761050461079d565b03610591576040517f08c379a000000000000000000000000000000000000000000000000000000000815260206004820152602260248201527f45434453413a20696e76616c6964207369676e6174757265202773272076616c60448201527f75650000000000000000000000000000000000000000000000000000000000006064820152608401610279565b50565b6000807f7fffffffffffffffffffffffffffffff5d576e7357a4501ddfe92f46681b20a08311156105cb575060009050600361067a565b6040805160008082526020820180845289905260ff881692820192909252606081018690526080810185905260019060a0016020604051602081039080840390855afa15801561061f573d6000803e3d6000fd5b50506040517fffffffffffffffffffffffffffffffffffffffffffffffffffffffffffffffe0015191505073ffffffffffffffffffffffffffffffffffffffff81166106735760006001925092505061067a565b9150600090505b94509492505050565b803573ffffffffffffffffffffffffffffffffffffffff811681146106a757600080fd5b919050565b6000806000606084860312156106c157600080fd5b6106ca84610683565b92506106d860208501610683565b9150604084013590509250925092565b6000806000604084860312156106fd57600080fd5b61070684610683565b9250602084013567ffffffffffffffff8082111561072357600080fd5b818601915086601f83011261073757600080fd5b81358181111561074657600080fd5b87602082850101111561075857600080fd5b6020830194508093505050509250925092565b6000835160005b8181101561078c5760208187018101518583015201610772565b509190910191825250602001919050565b7f4e487b7100000000000000000000000000000000000000000000000000000000600052602160045260246000fdfe603a600e3d39601a805130553df3363d3d373d3d3d363d30545af43d82803e903d91601857fd5bf3a26469706673582212201d5b438318f46b2fabcd076a9f5e57fead265bcdafbfb56b82067e156831718a64736f6c63430008120033",
  "linkReferences": {},
  "deployedLinkReferences": {}
}