{
	"contracts/modules/Controllers/Controllers.sol": {
		"Controllers": {
			"abi": [
				{
					"inputs": [
						{
							"internalType": "address[]",
							"name": "_controllers",
							"type": "address[]"
						},
						{
							"internalType": "uint256[]",
							"name": "_weights",
							"type": "uint256[]"
						},
						{
							"internalType": "uint256",
							"name": "_nonce",
							"type": "uint256"
						},
						{
							"internalType": "bytes[]",
							"name": "_signatures",
							"type": "bytes[]"
						}
					],
					"name": "addControllers",
					"outputs": [],
					"stateMutability": "nonpayable",
					"type": "function"
				},
				{
					"inputs": [],
					"name": "controlThreshold",
					"outputs": [
						{
							"internalType": "uint256",
							"name": "",
							"type": "uint256"
						}
					],
					"stateMutability": "view",
					"type": "function"
				},
				{
					"inputs": [
						{
							"internalType": "address",
							"name": "_controller",
							"type": "address"
						}
					],
					"name": "controllerWeight",
					"outputs": [
						{
							"internalType": "uint256",
							"name": "",
							"type": "uint256"
						}
					],
					"stateMutability": "view",
					"type": "function"
				},
				{
					"inputs": [],
					"name": "controllersTotalWeight",
					"outputs": [
						{
							"internalType": "uint256",
							"name": "",
							"type": "uint256"
						}
					],
					"stateMutability": "view",
					"type": "function"
				},
				{
					"inputs": [
						{
							"internalType": "address[]",
							"name": "_controllers",
							"type": "address[]"
						},
						{
							"internalType": "uint256",
							"name": "_nonce",
							"type": "uint256"
						},
						{
							"internalType": "bytes[]",
							"name": "_signatures",
							"type": "bytes[]"
						}
					],
					"name": "removeControllers",
					"outputs": [],
					"stateMutability": "nonpayable",
					"type": "function"
				},
				{
					"inputs": [
						{
							"internalType": "bytes4",
							"name": "interfaceId",
							"type": "bytes4"
						}
					],
					"name": "supportsInterface",
					"outputs": [
						{
							"internalType": "bool",
							"name": "",
							"type": "bool"
						}
					],
					"stateMutability": "view",
					"type": "function"
				},
				{
					"inputs": [
						{
							"internalType": "uint256",
							"name": "_threshold",
							"type": "uint256"
						},
						{
							"internalType": "uint256",
							"name": "_nonce",
							"type": "uint256"
						},
						{
							"internalType": "bytes[]",
							"name": "_signatures",
							"type": "bytes[]"
						}
					],
					"name": "updateControlThreshold",
					"outputs": [],
					"stateMutability": "nonpayable",
					"type": "function"
				},
				{
					"inputs": [
						{
							"internalType": "address",
							"name": "_controller",
							"type": "address"
						},
						{
							"internalType": "uint256",
							"name": "_weight",
							"type": "uint256"
						},
						{
							"internalType": "uint256",
							"name": "_nonce",
							"type": "uint256"
						},
						{
							"internalType": "bytes[]",
							"name": "_signatures",
							"type": "bytes[]"
						}
					],
					"name": "updateControllerWeight",
					"outputs": [],
					"stateMutability": "nonpayable",
					"type": "function"
				}
			],
			"devdoc": {
				"kind": "dev",
				"methods": {
					"supportsInterface(bytes4)": {
						"details": "See {IERC165-supportsInterface}."
					}
				},
				"version": 1
			},
			"evm": {
				"assembly": "    /* \"contracts/modules/Controllers/Controllers.sol\":511:4997  contract Controllers is IControllers, ERC165 {... */\n  mstore(0x40, 0x80)\n  callvalue\n  dup1\n  iszero\n  tag_1\n  jumpi\n  0x00\n  dup1\n  revert\ntag_1:\n  pop\n  dataSize(sub_0)\n  dup1\n  dataOffset(sub_0)\n  0x00\n  codecopy\n  0x00\n  return\nstop\n\nsub_0: assembly {\n        /* \"contracts/modules/Controllers/Controllers.sol\":511:4997  contract Controllers is IControllers, ERC165 {... */\n      mstore(0x40, 0x80)\n      callvalue\n      dup1\n      iszero\n      tag_1\n      jumpi\n      0x00\n      dup1\n      revert\n    tag_1:\n      pop\n      jumpi(tag_2, lt(calldatasize, 0x04))\n      shr(0xe0, calldataload(0x00))\n      dup1\n      0xa7865090\n      gt\n      tag_11\n      jumpi\n      dup1\n      0xa7865090\n      eq\n      tag_7\n      jumpi\n      dup1\n      0xaf915498\n      eq\n      tag_8\n      jumpi\n      dup1\n      0xd0bccea1\n      eq\n      tag_9\n      jumpi\n      dup1\n      0xf04420f1\n      eq\n      tag_10\n      jumpi\n      jump(tag_2)\n    tag_11:\n      dup1\n      0x01ffc9a7\n      eq\n      tag_3\n      jumpi\n      dup1\n      0x06e82383\n      eq\n      tag_4\n      jumpi\n      dup1\n      0x286936bb\n      eq\n      tag_5\n      jumpi\n      dup1\n      0x87f949b4\n      eq\n      tag_6\n      jumpi\n    tag_2:\n      0x00\n      dup1\n      revert\n        /* \"contracts/modules/Controllers/Controllers.sol\":4759:4995  function supportsInterface(bytes4 interfaceId) public view virtual override(ERC165) returns (bool) {... */\n    tag_3:\n      tag_12\n      0x04\n      dup1\n      calldatasize\n      sub\n      dup2\n      add\n      swap1\n      tag_13\n      swap2\n      swap1\n      tag_14\n      jump\t// in\n    tag_13:\n      tag_15\n      jump\t// in\n    tag_12:\n      mload(0x40)\n      tag_16\n      swap2\n      swap1\n      tag_17\n      jump\t// in\n    tag_16:\n      mload(0x40)\n      dup1\n      swap2\n      sub\n      swap1\n      return\n        /* \"contracts/modules/Controllers/Controllers.sol\":3310:3434  function controllersTotalWeight() external view returns (uint256) {... */\n    tag_4:\n      tag_18\n      tag_19\n      jump\t// in\n    tag_18:\n      mload(0x40)\n      tag_20\n      swap2\n      swap1\n      tag_21\n      jump\t// in\n    tag_20:\n      mload(0x40)\n      dup1\n      swap2\n      sub\n      swap1\n      return\n        /* \"contracts/modules/Controllers/Controllers.sol\":1171:1520  function removeControllers(... */\n    tag_5:\n      tag_22\n      0x04\n      dup1\n      calldatasize\n      sub\n      dup2\n      add\n      swap1\n      tag_23\n      swap2\n      swap1\n      tag_24\n      jump\t// in\n    tag_23:\n      tag_25\n      jump\t// in\n    tag_22:\n      stop\n        /* \"contracts/modules/Controllers/Controllers.sol\":1923:2376  function updateControlThreshold(... */\n    tag_6:\n      tag_26\n      0x04\n      dup1\n      calldatasize\n      sub\n      dup2\n      add\n      swap1\n      tag_27\n      swap2\n      swap1\n      tag_28\n      jump\t// in\n    tag_27:\n      tag_29\n      jump\t// in\n    tag_26:\n      stop\n        /* \"contracts/modules/Controllers/Controllers.sol\":3043:3158  function controlThreshold() external view returns (uint256) {... */\n    tag_7:\n      tag_30\n      tag_31\n      jump\t// in\n    tag_30:\n      mload(0x40)\n      tag_32\n      swap2\n      swap1\n      tag_21\n      jump\t// in\n    tag_32:\n      mload(0x40)\n      dup1\n      swap2\n      sub\n      swap1\n      return\n        /* \"contracts/modules/Controllers/Controllers.sol\":560:962  function addControllers(... */\n    tag_8:\n      tag_33\n      0x04\n      dup1\n      calldatasize\n      sub\n      dup2\n      add\n      swap1\n      tag_34\n      swap2\n      swap1\n      tag_35\n      jump\t// in\n    tag_34:\n      tag_36\n      jump\t// in\n    tag_33:\n      stop\n        /* \"contracts/modules/Controllers/Controllers.sol\":2380:3039  function updateControllerWeight(... */\n    tag_9:\n      tag_37\n      0x04\n      dup1\n      calldatasize\n      sub\n      dup2\n      add\n      swap1\n      tag_38\n      swap2\n      swap1\n      tag_39\n      jump\t// in\n    tag_38:\n      tag_40\n      jump\t// in\n    tag_37:\n      stop\n        /* \"contracts/modules/Controllers/Controllers.sol\":3162:3306  function controllerWeight(address _controller) external view returns(uint256) {... */\n    tag_10:\n      tag_41\n      0x04\n      dup1\n      calldatasize\n      sub\n      dup2\n      add\n      swap1\n      tag_42\n      swap2\n      swap1\n      tag_43\n      jump\t// in\n    tag_42:\n      tag_44\n      jump\t// in\n    tag_41:\n      mload(0x40)\n      tag_45\n      swap2\n      swap1\n      tag_21\n      jump\t// in\n    tag_45:\n      mload(0x40)\n      dup1\n      swap2\n      sub\n      swap1\n      return\n        /* \"contracts/modules/Controllers/Controllers.sol\":4759:4995  function supportsInterface(bytes4 interfaceId) public view virtual override(ERC165) returns (bool) {... */\n    tag_15:\n        /* \"contracts/modules/Controllers/Controllers.sol\":4852:4856  bool */\n      0x00\n        /* \"contracts/modules/Controllers/Controllers.sol\":4883:4913  type(IControllers).interfaceId */\n      0x8197b6d400000000000000000000000000000000000000000000000000000000\n        /* \"contracts/modules/Controllers/Controllers.sol\":4868:4913  interfaceId == type(IControllers).interfaceId */\n      not(0xffffffffffffffffffffffffffffffffffffffffffffffffffffffff)\n      and\n        /* \"contracts/modules/Controllers/Controllers.sol\":4868:4879  interfaceId */\n      dup3\n        /* \"contracts/modules/Controllers/Controllers.sol\":4868:4913  interfaceId == type(IControllers).interfaceId */\n      not(0xffffffffffffffffffffffffffffffffffffffffffffffffffffffff)\n      and\n      sub\n        /* \"contracts/modules/Controllers/Controllers.sol\":4864:4941  if (interfaceId == type(IControllers).interfaceId) {... */\n      tag_47\n      jumpi\n        /* \"contracts/modules/Controllers/Controllers.sol\":4930:4934  true */\n      0x01\n        /* \"contracts/modules/Controllers/Controllers.sol\":4923:4934  return true */\n      swap1\n      pop\n      jump(tag_46)\n        /* \"contracts/modules/Controllers/Controllers.sol\":4864:4941  if (interfaceId == type(IControllers).interfaceId) {... */\n    tag_47:\n        /* \"contracts/modules/Controllers/Controllers.sol\":4954:4990  super.supportsInterface(interfaceId) */\n      tag_48\n        /* \"contracts/modules/Controllers/Controllers.sol\":4978:4989  interfaceId */\n      dup3\n        /* \"contracts/modules/Controllers/Controllers.sol\":4954:4977  super.supportsInterface */\n      tag_49\n        /* \"contracts/modules/Controllers/Controllers.sol\":4954:4990  super.supportsInterface(interfaceId) */\n      jump\t// in\n    tag_48:\n        /* \"contracts/modules/Controllers/Controllers.sol\":4947:4990  return super.supportsInterface(interfaceId) */\n      swap1\n      pop\n        /* \"contracts/modules/Controllers/Controllers.sol\":4759:4995  function supportsInterface(bytes4 interfaceId) public view virtual override(ERC165) returns (bool) {... */\n    tag_46:\n      swap2\n      swap1\n      pop\n      jump\t// out\n        /* \"contracts/modules/Controllers/Controllers.sol\":3310:3434  function controllersTotalWeight() external view returns (uint256) {... */\n    tag_19:\n        /* \"contracts/modules/Controllers/Controllers.sol\":3367:3374  uint256 */\n      0x00\n        /* \"contracts/modules/Controllers/Controllers.sol\":3389:3416  ControllersStorage.layout() */\n      tag_51\n        /* \"contracts/modules/Controllers/Controllers.sol\":3389:3414  ControllersStorage.layout */\n      tag_52\n        /* \"contracts/modules/Controllers/Controllers.sol\":3389:3416  ControllersStorage.layout() */\n      jump\t// in\n    tag_51:\n        /* \"contracts/modules/Controllers/Controllers.sol\":3389:3429  ControllersStorage.layout().totalWeights */\n      0x01\n      add\n      sload\n        /* \"contracts/modules/Controllers/Controllers.sol\":3382:3429  return ControllersStorage.layout().totalWeights */\n      swap1\n      pop\n        /* \"contracts/modules/Controllers/Controllers.sol\":3310:3434  function controllersTotalWeight() external view returns (uint256) {... */\n      swap1\n      jump\t// out\n        /* \"contracts/modules/Controllers/Controllers.sol\":1171:1520  function removeControllers(... */\n    tag_25:\n        /* \"contracts/modules/Controllers/Controllers.sol\":1357:1369  _controllers */\n      dup5\n      dup5\n        /* \"contracts/modules/Controllers/Controllers.sol\":1371:1377  _nonce */\n      dup5\n        /* \"contracts/modules/Controllers/Controllers.sol\":1379:1392  block.chainid */\n      chainid\n        /* \"contracts/modules/Controllers/Controllers.sol\":1346:1393  abi.encode(_controllers, _nonce, block.chainid) */\n      add(0x20, mload(0x40))\n      tag_53\n      swap5\n      swap4\n      swap3\n      swap2\n      swap1\n      tag_54\n      jump\t// in\n    tag_53:\n      mload(0x40)\n      0x20\n      dup2\n      dup4\n      sub\n      sub\n      dup2\n      mstore\n      swap1\n      0x40\n      mstore\n        /* \"contracts/modules/Controllers/Controllers.sol\":1336:1394  keccak256(abi.encode(_controllers, _nonce, block.chainid)) */\n      dup1\n      mload\n      swap1\n      0x20\n      add\n      keccak256\n        /* \"contracts/modules/Controllers/Controllers.sol\":1396:1407  _signatures */\n      dup3\n      dup3\n        /* \"contracts/modules/Controllers/Controllers.sol\":4461:4474  bool verified */\n      0x00\n        /* \"contracts/modules/Controllers/Controllers.sol\":4476:4495  string memory error */\n      dup1\n        /* \"contracts/modules/Controllers/Controllers.sol\":4499:4562  verifyControllersThresholdBySignatures(_inputHash, _signatures) */\n      tag_56\n        /* \"contracts/modules/Controllers/Controllers.sol\":4538:4548  _inputHash */\n      dup6\n        /* \"contracts/modules/Controllers/Controllers.sol\":4550:4561  _signatures */\n      dup6\n      dup6\n        /* \"contracts/modules/Controllers/Controllers.sol\":4499:4562  verifyControllersThresholdBySignatures(_inputHash, _signatures) */\n      swap1\n      tag_57\n      swap2\n      swap1\n      tag_58\n      jump\t// in\n    tag_57:\n        /* \"contracts/modules/Controllers/Controllers.sol\":4499:4537  verifyControllersThresholdBySignatures */\n      tag_59\n        /* \"contracts/modules/Controllers/Controllers.sol\":4499:4562  verifyControllersThresholdBySignatures(_inputHash, _signatures) */\n      jump\t// in\n    tag_56:\n        /* \"contracts/modules/Controllers/Controllers.sol\":4460:4562  (bool verified, string memory error) = verifyControllersThresholdBySignatures(_inputHash, _signatures) */\n      swap2\n      pop\n      swap2\n      pop\n        /* \"contracts/modules/Controllers/Controllers.sol\":4576:4584  verified */\n      dup2\n        /* \"contracts/modules/Controllers/Controllers.sol\":4586:4591  error */\n      dup2\n        /* \"contracts/modules/Controllers/Controllers.sol\":4568:4592  require(verified, error) */\n      swap1\n      tag_60\n      jumpi\n      mload(0x40)\n      0x08c379a000000000000000000000000000000000000000000000000000000000\n      dup2\n      mstore\n      0x04\n      add\n      tag_61\n      swap2\n      swap1\n      tag_62\n      jump\t// in\n    tag_61:\n      mload(0x40)\n      dup1\n      swap2\n      sub\n      swap1\n      revert\n    tag_60:\n      pop\n        /* \"contracts/modules/Controllers/Controllers.sol\":4608:4617  uint256 i */\n      0x00\n        /* \"contracts/modules/Controllers/Controllers.sol\":4603:4743  for (uint256 i = 0; i < _signatures.length; i++) {... */\n    tag_63:\n        /* \"contracts/modules/Controllers/Controllers.sol\":4627:4638  _signatures */\n      dup5\n      dup5\n        /* \"contracts/modules/Controllers/Controllers.sol\":4627:4645  _signatures.length */\n      swap1\n      pop\n        /* \"contracts/modules/Controllers/Controllers.sol\":4623:4624  i */\n      dup2\n        /* \"contracts/modules/Controllers/Controllers.sol\":4623:4645  i < _signatures.length */\n      lt\n        /* \"contracts/modules/Controllers/Controllers.sol\":4603:4743  for (uint256 i = 0; i < _signatures.length; i++) {... */\n      iszero\n      tag_64\n      jumpi\n        /* \"contracts/modules/Controllers/Controllers.sol\":4732:4736  true */\n      0x01\n        /* \"contracts/modules/Controllers/Controllers.sol\":4660:4687  ControllersStorage.layout() */\n      tag_66\n        /* \"contracts/modules/Controllers/Controllers.sol\":4660:4685  ControllersStorage.layout */\n      tag_52\n        /* \"contracts/modules/Controllers/Controllers.sol\":4660:4687  ControllersStorage.layout() */\n      jump\t// in\n    tag_66:\n        /* \"contracts/modules/Controllers/Controllers.sol\":4660:4702  ControllersStorage.layout().usedSignatures */\n      0x03\n      add\n        /* \"contracts/modules/Controllers/Controllers.sol\":4660:4729  ControllersStorage.layout().usedSignatures[keccak256(_signatures[i])] */\n      0x00\n        /* \"contracts/modules/Controllers/Controllers.sol\":4713:4724  _signatures */\n      dup8\n      dup8\n        /* \"contracts/modules/Controllers/Controllers.sol\":4725:4726  i */\n      dup6\n        /* \"contracts/modules/Controllers/Controllers.sol\":4713:4727  _signatures[i] */\n      dup2\n      dup2\n      lt\n      tag_67\n      jumpi\n      tag_68\n      tag_69\n      jump\t// in\n    tag_68:\n    tag_67:\n      swap1\n      pop\n      0x20\n      mul\n      dup2\n      add\n      swap1\n      tag_70\n      swap2\n      swap1\n      tag_71\n      jump\t// in\n    tag_70:\n        /* \"contracts/modules/Controllers/Controllers.sol\":4703:4728  keccak256(_signatures[i]) */\n      mload(0x40)\n      tag_72\n      swap3\n      swap2\n      swap1\n      tag_73\n      jump\t// in\n    tag_72:\n      mload(0x40)\n      dup1\n      swap2\n      sub\n      swap1\n      keccak256\n        /* \"contracts/modules/Controllers/Controllers.sol\":4660:4729  ControllersStorage.layout().usedSignatures[keccak256(_signatures[i])] */\n      dup2\n      mstore\n      0x20\n      add\n      swap1\n      dup2\n      mstore\n      0x20\n      add\n      0x00\n      keccak256\n      0x00\n        /* \"contracts/modules/Controllers/Controllers.sol\":4660:4736  ControllersStorage.layout().usedSignatures[keccak256(_signatures[i])] = true */\n      0x0100\n      exp\n      dup2\n      sload\n      dup2\n      0xff\n      mul\n      not\n      and\n      swap1\n      dup4\n      iszero\n      iszero\n      mul\n      or\n      swap1\n      sstore\n      pop\n        /* \"contracts/modules/Controllers/Controllers.sol\":4647:4650  i++ */\n      dup1\n      dup1\n      tag_74\n      swap1\n      tag_75\n      jump\t// in\n    tag_74:\n      swap2\n      pop\n      pop\n        /* \"contracts/modules/Controllers/Controllers.sol\":4603:4743  for (uint256 i = 0; i < _signatures.length; i++) {... */\n      jump(tag_63)\n    tag_64:\n      pop\n        /* \"contracts/modules/Controllers/Controllers.sol\":1422:1431  uint256 i */\n      0x00\n        /* \"contracts/modules/Controllers/Controllers.sol\":1417:1516  for (uint256 i = 0; i < _controllers.length; i++) {... */\n    tag_77:\n        /* \"contracts/modules/Controllers/Controllers.sol\":1441:1453  _controllers */\n      dup11\n      dup11\n        /* \"contracts/modules/Controllers/Controllers.sol\":1441:1460  _controllers.length */\n      swap1\n      pop\n        /* \"contracts/modules/Controllers/Controllers.sol\":1437:1438  i */\n      dup2\n        /* \"contracts/modules/Controllers/Controllers.sol\":1437:1460  i < _controllers.length */\n      lt\n        /* \"contracts/modules/Controllers/Controllers.sol\":1417:1516  for (uint256 i = 0; i < _controllers.length; i++) {... */\n      iszero\n      tag_78\n      jumpi\n        /* \"contracts/modules/Controllers/Controllers.sol\":1475:1509  _removeController(_controllers[i]) */\n      tag_80\n        /* \"contracts/modules/Controllers/Controllers.sol\":1493:1505  _controllers */\n      dup12\n      dup12\n        /* \"contracts/modules/Controllers/Controllers.sol\":1506:1507  i */\n      dup4\n        /* \"contracts/modules/Controllers/Controllers.sol\":1493:1508  _controllers[i] */\n      dup2\n      dup2\n      lt\n      tag_81\n      jumpi\n      tag_82\n      tag_69\n      jump\t// in\n    tag_82:\n    tag_81:\n      swap1\n      pop\n      0x20\n      mul\n      add\n      0x20\n      dup2\n      add\n      swap1\n      tag_83\n      swap2\n      swap1\n      tag_43\n      jump\t// in\n    tag_83:\n        /* \"contracts/modules/Controllers/Controllers.sol\":1475:1492  _removeController */\n      tag_84\n        /* \"contracts/modules/Controllers/Controllers.sol\":1475:1509  _removeController(_controllers[i]) */\n      jump\t// in\n    tag_80:\n        /* \"contracts/modules/Controllers/Controllers.sol\":1462:1465  i++ */\n      dup1\n      dup1\n      tag_85\n      swap1\n      tag_75\n      jump\t// in\n    tag_85:\n      swap2\n      pop\n      pop\n        /* \"contracts/modules/Controllers/Controllers.sol\":1417:1516  for (uint256 i = 0; i < _controllers.length; i++) {... */\n      jump(tag_77)\n    tag_78:\n      pop\n        /* \"contracts/modules/Controllers/Controllers.sol\":4454:4755  {... */\n      pop\n      pop\n        /* \"contracts/modules/Controllers/Controllers.sol\":1171:1520  function removeControllers(... */\n      pop\n      pop\n      pop\n      pop\n      pop\n      pop\n      pop\n      pop\n      jump\t// out\n        /* \"contracts/modules/Controllers/Controllers.sol\":1923:2376  function updateControlThreshold(... */\n    tag_29:\n        /* \"contracts/modules/Controllers/Controllers.sol\":2101:2111  _threshold */\n      dup4\n        /* \"contracts/modules/Controllers/Controllers.sol\":2113:2119  _nonce */\n      dup4\n        /* \"contracts/modules/Controllers/Controllers.sol\":2121:2134  block.chainid */\n      chainid\n        /* \"contracts/modules/Controllers/Controllers.sol\":2090:2135  abi.encode(_threshold, _nonce, block.chainid) */\n      add(0x20, mload(0x40))\n      tag_86\n      swap4\n      swap3\n      swap2\n      swap1\n      tag_87\n      jump\t// in\n    tag_86:\n      mload(0x40)\n      0x20\n      dup2\n      dup4\n      sub\n      sub\n      dup2\n      mstore\n      swap1\n      0x40\n      mstore\n        /* \"contracts/modules/Controllers/Controllers.sol\":2080:2136  keccak256(abi.encode(_threshold, _nonce, block.chainid)) */\n      dup1\n      mload\n      swap1\n      0x20\n      add\n      keccak256\n        /* \"contracts/modules/Controllers/Controllers.sol\":2138:2149  _signatures */\n      dup3\n      dup3\n        /* \"contracts/modules/Controllers/Controllers.sol\":4461:4474  bool verified */\n      0x00\n        /* \"contracts/modules/Controllers/Controllers.sol\":4476:4495  string memory error */\n      dup1\n        /* \"contracts/modules/Controllers/Controllers.sol\":4499:4562  verifyControllersThresholdBySignatures(_inputHash, _signatures) */\n      tag_89\n        /* \"contracts/modules/Controllers/Controllers.sol\":4538:4548  _inputHash */\n      dup6\n        /* \"contracts/modules/Controllers/Controllers.sol\":4550:4561  _signatures */\n      dup6\n      dup6\n        /* \"contracts/modules/Controllers/Controllers.sol\":4499:4562  verifyControllersThresholdBySignatures(_inputHash, _signatures) */\n      swap1\n      tag_90\n      swap2\n      swap1\n      tag_58\n      jump\t// in\n    tag_90:\n        /* \"contracts/modules/Controllers/Controllers.sol\":4499:4537  verifyControllersThresholdBySignatures */\n      tag_59\n        /* \"contracts/modules/Controllers/Controllers.sol\":4499:4562  verifyControllersThresholdBySignatures(_inputHash, _signatures) */\n      jump\t// in\n    tag_89:\n        /* \"contracts/modules/Controllers/Controllers.sol\":4460:4562  (bool verified, string memory error) = verifyControllersThresholdBySignatures(_inputHash, _signatures) */\n      swap2\n      pop\n      swap2\n      pop\n        /* \"contracts/modules/Controllers/Controllers.sol\":4576:4584  verified */\n      dup2\n        /* \"contracts/modules/Controllers/Controllers.sol\":4586:4591  error */\n      dup2\n        /* \"contracts/modules/Controllers/Controllers.sol\":4568:4592  require(verified, error) */\n      swap1\n      tag_91\n      jumpi\n      mload(0x40)\n      0x08c379a000000000000000000000000000000000000000000000000000000000\n      dup2\n      mstore\n      0x04\n      add\n      tag_92\n      swap2\n      swap1\n      tag_62\n      jump\t// in\n    tag_92:\n      mload(0x40)\n      dup1\n      swap2\n      sub\n      swap1\n      revert\n    tag_91:\n      pop\n        /* \"contracts/modules/Controllers/Controllers.sol\":4608:4617  uint256 i */\n      0x00\n        /* \"contracts/modules/Controllers/Controllers.sol\":4603:4743  for (uint256 i = 0; i < _signatures.length; i++) {... */\n    tag_93:\n        /* \"contracts/modules/Controllers/Controllers.sol\":4627:4638  _signatures */\n      dup5\n      dup5\n        /* \"contracts/modules/Controllers/Controllers.sol\":4627:4645  _signatures.length */\n      swap1\n      pop\n        /* \"contracts/modules/Controllers/Controllers.sol\":4623:4624  i */\n      dup2\n        /* \"contracts/modules/Controllers/Controllers.sol\":4623:4645  i < _signatures.length */\n      lt\n        /* \"contracts/modules/Controllers/Controllers.sol\":4603:4743  for (uint256 i = 0; i < _signatures.length; i++) {... */\n      iszero\n      tag_94\n      jumpi\n        /* \"contracts/modules/Controllers/Controllers.sol\":4732:4736  true */\n      0x01\n        /* \"contracts/modules/Controllers/Controllers.sol\":4660:4687  ControllersStorage.layout() */\n      tag_96\n        /* \"contracts/modules/Controllers/Controllers.sol\":4660:4685  ControllersStorage.layout */\n      tag_52\n        /* \"contracts/modules/Controllers/Controllers.sol\":4660:4687  ControllersStorage.layout() */\n      jump\t// in\n    tag_96:\n        /* \"contracts/modules/Controllers/Controllers.sol\":4660:4702  ControllersStorage.layout().usedSignatures */\n      0x03\n      add\n        /* \"contracts/modules/Controllers/Controllers.sol\":4660:4729  ControllersStorage.layout().usedSignatures[keccak256(_signatures[i])] */\n      0x00\n        /* \"contracts/modules/Controllers/Controllers.sol\":4713:4724  _signatures */\n      dup8\n      dup8\n        /* \"contracts/modules/Controllers/Controllers.sol\":4725:4726  i */\n      dup6\n        /* \"contracts/modules/Controllers/Controllers.sol\":4713:4727  _signatures[i] */\n      dup2\n      dup2\n      lt\n      tag_97\n      jumpi\n      tag_98\n      tag_69\n      jump\t// in\n    tag_98:\n    tag_97:\n      swap1\n      pop\n      0x20\n      mul\n      dup2\n      add\n      swap1\n      tag_99\n      swap2\n      swap1\n      tag_71\n      jump\t// in\n    tag_99:\n        /* \"contracts/modules/Controllers/Controllers.sol\":4703:4728  keccak256(_signatures[i]) */\n      mload(0x40)\n      tag_100\n      swap3\n      swap2\n      swap1\n      tag_73\n      jump\t// in\n    tag_100:\n      mload(0x40)\n      dup1\n      swap2\n      sub\n      swap1\n      keccak256\n        /* \"contracts/modules/Controllers/Controllers.sol\":4660:4729  ControllersStorage.layout().usedSignatures[keccak256(_signatures[i])] */\n      dup2\n      mstore\n      0x20\n      add\n      swap1\n      dup2\n      mstore\n      0x20\n      add\n      0x00\n      keccak256\n      0x00\n        /* \"contracts/modules/Controllers/Controllers.sol\":4660:4736  ControllersStorage.layout().usedSignatures[keccak256(_signatures[i])] = true */\n      0x0100\n      exp\n      dup2\n      sload\n      dup2\n      0xff\n      mul\n      not\n      and\n      swap1\n      dup4\n      iszero\n      iszero\n      mul\n      or\n      swap1\n      sstore\n      pop\n        /* \"contracts/modules/Controllers/Controllers.sol\":4647:4650  i++ */\n      dup1\n      dup1\n      tag_101\n      swap1\n      tag_75\n      jump\t// in\n    tag_101:\n      swap2\n      pop\n      pop\n        /* \"contracts/modules/Controllers/Controllers.sol\":4603:4743  for (uint256 i = 0; i < _signatures.length; i++) {... */\n      jump(tag_93)\n    tag_94:\n      pop\n        /* \"contracts/modules/Controllers/Controllers.sol\":2207:2208  0 */\n      0x00\n        /* \"contracts/modules/Controllers/Controllers.sol\":2167:2194  ControllersStorage.layout() */\n      tag_103\n        /* \"contracts/modules/Controllers/Controllers.sol\":2167:2192  ControllersStorage.layout */\n      tag_52\n        /* \"contracts/modules/Controllers/Controllers.sol\":2167:2194  ControllersStorage.layout() */\n      jump\t// in\n    tag_103:\n        /* \"contracts/modules/Controllers/Controllers.sol\":2167:2204  ControllersStorage.layout().threshold */\n      0x00\n      add\n      sload\n        /* \"contracts/modules/Controllers/Controllers.sol\":2167:2208  ControllersStorage.layout().threshold > 0 */\n      gt\n        /* \"contracts/modules/Controllers/Controllers.sol\":2167:2293  ControllersStorage.layout().threshold > 0 && ControllersStorage.layout().threshold <= ControllersStorage.layout().totalWeights */\n      dup1\n      iszero\n      tag_104\n      jumpi\n      pop\n        /* \"contracts/modules/Controllers/Controllers.sol\":2253:2280  ControllersStorage.layout() */\n      tag_105\n        /* \"contracts/modules/Controllers/Controllers.sol\":2253:2278  ControllersStorage.layout */\n      tag_52\n        /* \"contracts/modules/Controllers/Controllers.sol\":2253:2280  ControllersStorage.layout() */\n      jump\t// in\n    tag_105:\n        /* \"contracts/modules/Controllers/Controllers.sol\":2253:2293  ControllersStorage.layout().totalWeights */\n      0x01\n      add\n      sload\n        /* \"contracts/modules/Controllers/Controllers.sol\":2212:2239  ControllersStorage.layout() */\n      tag_106\n        /* \"contracts/modules/Controllers/Controllers.sol\":2212:2237  ControllersStorage.layout */\n      tag_52\n        /* \"contracts/modules/Controllers/Controllers.sol\":2212:2239  ControllersStorage.layout() */\n      jump\t// in\n    tag_106:\n        /* \"contracts/modules/Controllers/Controllers.sol\":2212:2249  ControllersStorage.layout().threshold */\n      0x00\n      add\n      sload\n        /* \"contracts/modules/Controllers/Controllers.sol\":2212:2293  ControllersStorage.layout().threshold <= ControllersStorage.layout().totalWeights */\n      gt\n      iszero\n        /* \"contracts/modules/Controllers/Controllers.sol\":2167:2293  ControllersStorage.layout().threshold > 0 && ControllersStorage.layout().threshold <= ControllersStorage.layout().totalWeights */\n    tag_104:\n        /* \"contracts/modules/Controllers/Controllers.sol\":2159:2315  require(ControllersStorage.layout().threshold > 0 && ControllersStorage.layout().threshold <= ControllersStorage.layout().totalWeights, \"Invalid threshold\") */\n      tag_107\n      jumpi\n      mload(0x40)\n      0x08c379a000000000000000000000000000000000000000000000000000000000\n      dup2\n      mstore\n      0x04\n      add\n      tag_108\n      swap1\n      tag_109\n      jump\t// in\n    tag_108:\n      mload(0x40)\n      dup1\n      swap2\n      sub\n      swap1\n      revert\n    tag_107:\n        /* \"contracts/modules/Controllers/Controllers.sol\":2361:2371  _threshold */\n      dup9\n        /* \"contracts/modules/Controllers/Controllers.sol\":2321:2348  ControllersStorage.layout() */\n      tag_110\n        /* \"contracts/modules/Controllers/Controllers.sol\":2321:2346  ControllersStorage.layout */\n      tag_52\n        /* \"contracts/modules/Controllers/Controllers.sol\":2321:2348  ControllersStorage.layout() */\n      jump\t// in\n    tag_110:\n        /* \"contracts/modules/Controllers/Controllers.sol\":2321:2358  ControllersStorage.layout().threshold */\n      0x00\n      add\n        /* \"contracts/modules/Controllers/Controllers.sol\":2321:2371  ControllersStorage.layout().threshold = _threshold */\n      dup2\n      swap1\n      sstore\n      pop\n        /* \"contracts/modules/Controllers/Controllers.sol\":4454:4755  {... */\n      pop\n      pop\n        /* \"contracts/modules/Controllers/Controllers.sol\":1923:2376  function updateControlThreshold(... */\n      pop\n      pop\n      pop\n      pop\n      pop\n      pop\n      pop\n      jump\t// out\n        /* \"contracts/modules/Controllers/Controllers.sol\":3043:3158  function controlThreshold() external view returns (uint256) {... */\n    tag_31:\n        /* \"contracts/modules/Controllers/Controllers.sol\":3094:3101  uint256 */\n      0x00\n        /* \"contracts/modules/Controllers/Controllers.sol\":3116:3143  ControllersStorage.layout() */\n      tag_112\n        /* \"contracts/modules/Controllers/Controllers.sol\":3116:3141  ControllersStorage.layout */\n      tag_52\n        /* \"contracts/modules/Controllers/Controllers.sol\":3116:3143  ControllersStorage.layout() */\n      jump\t// in\n    tag_112:\n        /* \"contracts/modules/Controllers/Controllers.sol\":3116:3153  ControllersStorage.layout().threshold */\n      0x00\n      add\n      sload\n        /* \"contracts/modules/Controllers/Controllers.sol\":3109:3153  return ControllersStorage.layout().threshold */\n      swap1\n      pop\n        /* \"contracts/modules/Controllers/Controllers.sol\":3043:3158  function controlThreshold() external view returns (uint256) {... */\n      swap1\n      jump\t// out\n        /* \"contracts/modules/Controllers/Controllers.sol\":560:962  function addControllers(... */\n    tag_36:\n        /* \"contracts/modules/Controllers/Controllers.sol\":778:790  _controllers */\n      dup7\n      dup7\n        /* \"contracts/modules/Controllers/Controllers.sol\":792:800  _weights */\n      dup7\n      dup7\n        /* \"contracts/modules/Controllers/Controllers.sol\":802:808  _nonce */\n      dup7\n        /* \"contracts/modules/Controllers/Controllers.sol\":810:823  block.chainid */\n      chainid\n        /* \"contracts/modules/Controllers/Controllers.sol\":767:824  abi.encode(_controllers, _weights, _nonce, block.chainid) */\n      add(0x20, mload(0x40))\n      tag_113\n      swap7\n      swap6\n      swap5\n      swap4\n      swap3\n      swap2\n      swap1\n      tag_114\n      jump\t// in\n    tag_113:\n      mload(0x40)\n      0x20\n      dup2\n      dup4\n      sub\n      sub\n      dup2\n      mstore\n      swap1\n      0x40\n      mstore\n        /* \"contracts/modules/Controllers/Controllers.sol\":757:825  keccak256(abi.encode(_controllers, _weights, _nonce, block.chainid)) */\n      dup1\n      mload\n      swap1\n      0x20\n      add\n      keccak256\n        /* \"contracts/modules/Controllers/Controllers.sol\":827:838  _signatures */\n      dup3\n      dup3\n        /* \"contracts/modules/Controllers/Controllers.sol\":4461:4474  bool verified */\n      0x00\n        /* \"contracts/modules/Controllers/Controllers.sol\":4476:4495  string memory error */\n      dup1\n        /* \"contracts/modules/Controllers/Controllers.sol\":4499:4562  verifyControllersThresholdBySignatures(_inputHash, _signatures) */\n      tag_116\n        /* \"contracts/modules/Controllers/Controllers.sol\":4538:4548  _inputHash */\n      dup6\n        /* \"contracts/modules/Controllers/Controllers.sol\":4550:4561  _signatures */\n      dup6\n      dup6\n        /* \"contracts/modules/Controllers/Controllers.sol\":4499:4562  verifyControllersThresholdBySignatures(_inputHash, _signatures) */\n      swap1\n      tag_117\n      swap2\n      swap1\n      tag_58\n      jump\t// in\n    tag_117:\n        /* \"contracts/modules/Controllers/Controllers.sol\":4499:4537  verifyControllersThresholdBySignatures */\n      tag_59\n        /* \"contracts/modules/Controllers/Controllers.sol\":4499:4562  verifyControllersThresholdBySignatures(_inputHash, _signatures) */\n      jump\t// in\n    tag_116:\n        /* \"contracts/modules/Controllers/Controllers.sol\":4460:4562  (bool verified, string memory error) = verifyControllersThresholdBySignatures(_inputHash, _signatures) */\n      swap2\n      pop\n      swap2\n      pop\n        /* \"contracts/modules/Controllers/Controllers.sol\":4576:4584  verified */\n      dup2\n        /* \"contracts/modules/Controllers/Controllers.sol\":4586:4591  error */\n      dup2\n        /* \"contracts/modules/Controllers/Controllers.sol\":4568:4592  require(verified, error) */\n      swap1\n      tag_118\n      jumpi\n      mload(0x40)\n      0x08c379a000000000000000000000000000000000000000000000000000000000\n      dup2\n      mstore\n      0x04\n      add\n      tag_119\n      swap2\n      swap1\n      tag_62\n      jump\t// in\n    tag_119:\n      mload(0x40)\n      dup1\n      swap2\n      sub\n      swap1\n      revert\n    tag_118:\n      pop\n        /* \"contracts/modules/Controllers/Controllers.sol\":4608:4617  uint256 i */\n      0x00\n        /* \"contracts/modules/Controllers/Controllers.sol\":4603:4743  for (uint256 i = 0; i < _signatures.length; i++) {... */\n    tag_120:\n        /* \"contracts/modules/Controllers/Controllers.sol\":4627:4638  _signatures */\n      dup5\n      dup5\n        /* \"contracts/modules/Controllers/Controllers.sol\":4627:4645  _signatures.length */\n      swap1\n      pop\n        /* \"contracts/modules/Controllers/Controllers.sol\":4623:4624  i */\n      dup2\n        /* \"contracts/modules/Controllers/Controllers.sol\":4623:4645  i < _signatures.length */\n      lt\n        /* \"contracts/modules/Controllers/Controllers.sol\":4603:4743  for (uint256 i = 0; i < _signatures.length; i++) {... */\n      iszero\n      tag_121\n      jumpi\n        /* \"contracts/modules/Controllers/Controllers.sol\":4732:4736  true */\n      0x01\n        /* \"contracts/modules/Controllers/Controllers.sol\":4660:4687  ControllersStorage.layout() */\n      tag_123\n        /* \"contracts/modules/Controllers/Controllers.sol\":4660:4685  ControllersStorage.layout */\n      tag_52\n        /* \"contracts/modules/Controllers/Controllers.sol\":4660:4687  ControllersStorage.layout() */\n      jump\t// in\n    tag_123:\n        /* \"contracts/modules/Controllers/Controllers.sol\":4660:4702  ControllersStorage.layout().usedSignatures */\n      0x03\n      add\n        /* \"contracts/modules/Controllers/Controllers.sol\":4660:4729  ControllersStorage.layout().usedSignatures[keccak256(_signatures[i])] */\n      0x00\n        /* \"contracts/modules/Controllers/Controllers.sol\":4713:4724  _signatures */\n      dup8\n      dup8\n        /* \"contracts/modules/Controllers/Controllers.sol\":4725:4726  i */\n      dup6\n        /* \"contracts/modules/Controllers/Controllers.sol\":4713:4727  _signatures[i] */\n      dup2\n      dup2\n      lt\n      tag_124\n      jumpi\n      tag_125\n      tag_69\n      jump\t// in\n    tag_125:\n    tag_124:\n      swap1\n      pop\n      0x20\n      mul\n      dup2\n      add\n      swap1\n      tag_126\n      swap2\n      swap1\n      tag_71\n      jump\t// in\n    tag_126:\n        /* \"contracts/modules/Controllers/Controllers.sol\":4703:4728  keccak256(_signatures[i]) */\n      mload(0x40)\n      tag_127\n      swap3\n      swap2\n      swap1\n      tag_73\n      jump\t// in\n    tag_127:\n      mload(0x40)\n      dup1\n      swap2\n      sub\n      swap1\n      keccak256\n        /* \"contracts/modules/Controllers/Controllers.sol\":4660:4729  ControllersStorage.layout().usedSignatures[keccak256(_signatures[i])] */\n      dup2\n      mstore\n      0x20\n      add\n      swap1\n      dup2\n      mstore\n      0x20\n      add\n      0x00\n      keccak256\n      0x00\n        /* \"contracts/modules/Controllers/Controllers.sol\":4660:4736  ControllersStorage.layout().usedSignatures[keccak256(_signatures[i])] = true */\n      0x0100\n      exp\n      dup2\n      sload\n      dup2\n      0xff\n      mul\n      not\n      and\n      swap1\n      dup4\n      iszero\n      iszero\n      mul\n      or\n      swap1\n      sstore\n      pop\n        /* \"contracts/modules/Controllers/Controllers.sol\":4647:4650  i++ */\n      dup1\n      dup1\n      tag_128\n      swap1\n      tag_75\n      jump\t// in\n    tag_128:\n      swap2\n      pop\n      pop\n        /* \"contracts/modules/Controllers/Controllers.sol\":4603:4743  for (uint256 i = 0; i < _signatures.length; i++) {... */\n      jump(tag_120)\n    tag_121:\n      pop\n        /* \"contracts/modules/Controllers/Controllers.sol\":854:863  uint256 i */\n      0x00\n        /* \"contracts/modules/Controllers/Controllers.sol\":849:958  for (uint256 i = 0; i < _controllers.length; i++) {... */\n    tag_130:\n        /* \"contracts/modules/Controllers/Controllers.sol\":873:885  _controllers */\n      dup13\n      dup13\n        /* \"contracts/modules/Controllers/Controllers.sol\":873:892  _controllers.length */\n      swap1\n      pop\n        /* \"contracts/modules/Controllers/Controllers.sol\":869:870  i */\n      dup2\n        /* \"contracts/modules/Controllers/Controllers.sol\":869:892  i < _controllers.length */\n      lt\n        /* \"contracts/modules/Controllers/Controllers.sol\":849:958  for (uint256 i = 0; i < _controllers.length; i++) {... */\n      iszero\n      tag_131\n      jumpi\n        /* \"contracts/modules/Controllers/Controllers.sol\":907:951  _addController(_controllers[i], _weights[i]) */\n      tag_133\n        /* \"contracts/modules/Controllers/Controllers.sol\":922:934  _controllers */\n      dup14\n      dup14\n        /* \"contracts/modules/Controllers/Controllers.sol\":935:936  i */\n      dup4\n        /* \"contracts/modules/Controllers/Controllers.sol\":922:937  _controllers[i] */\n      dup2\n      dup2\n      lt\n      tag_134\n      jumpi\n      tag_135\n      tag_69\n      jump\t// in\n    tag_135:\n    tag_134:\n      swap1\n      pop\n      0x20\n      mul\n      add\n      0x20\n      dup2\n      add\n      swap1\n      tag_136\n      swap2\n      swap1\n      tag_43\n      jump\t// in\n    tag_136:\n        /* \"contracts/modules/Controllers/Controllers.sol\":939:947  _weights */\n      dup13\n      dup13\n        /* \"contracts/modules/Controllers/Controllers.sol\":948:949  i */\n      dup5\n        /* \"contracts/modules/Controllers/Controllers.sol\":939:950  _weights[i] */\n      dup2\n      dup2\n      lt\n      tag_137\n      jumpi\n      tag_138\n      tag_69\n      jump\t// in\n    tag_138:\n    tag_137:\n      swap1\n      pop\n      0x20\n      mul\n      add\n      calldataload\n        /* \"contracts/modules/Controllers/Controllers.sol\":907:921  _addController */\n      tag_139\n        /* \"contracts/modules/Controllers/Controllers.sol\":907:951  _addController(_controllers[i], _weights[i]) */\n      jump\t// in\n    tag_133:\n        /* \"contracts/modules/Controllers/Controllers.sol\":894:897  i++ */\n      dup1\n      dup1\n      tag_140\n      swap1\n      tag_75\n      jump\t// in\n    tag_140:\n      swap2\n      pop\n      pop\n        /* \"contracts/modules/Controllers/Controllers.sol\":849:958  for (uint256 i = 0; i < _controllers.length; i++) {... */\n      jump(tag_130)\n    tag_131:\n      pop\n        /* \"contracts/modules/Controllers/Controllers.sol\":4454:4755  {... */\n      pop\n      pop\n        /* \"contracts/modules/Controllers/Controllers.sol\":560:962  function addControllers(... */\n      pop\n      pop\n      pop\n      pop\n      pop\n      pop\n      pop\n      pop\n      pop\n      pop\n      jump\t// out\n        /* \"contracts/modules/Controllers/Controllers.sol\":2380:3039  function updateControllerWeight(... */\n    tag_40:\n        /* \"contracts/modules/Controllers/Controllers.sol\":2580:2591  _controller */\n      dup5\n        /* \"contracts/modules/Controllers/Controllers.sol\":2593:2600  _weight */\n      dup5\n        /* \"contracts/modules/Controllers/Controllers.sol\":2602:2608  _nonce */\n      dup5\n        /* \"contracts/modules/Controllers/Controllers.sol\":2610:2623  block.chainid */\n      chainid\n        /* \"contracts/modules/Controllers/Controllers.sol\":2569:2624  abi.encode(_controller, _weight, _nonce, block.chainid) */\n      add(0x20, mload(0x40))\n      tag_141\n      swap5\n      swap4\n      swap3\n      swap2\n      swap1\n      tag_142\n      jump\t// in\n    tag_141:\n      mload(0x40)\n      0x20\n      dup2\n      dup4\n      sub\n      sub\n      dup2\n      mstore\n      swap1\n      0x40\n      mstore\n        /* \"contracts/modules/Controllers/Controllers.sol\":2559:2625  keccak256(abi.encode(_controller, _weight, _nonce, block.chainid)) */\n      dup1\n      mload\n      swap1\n      0x20\n      add\n      keccak256\n        /* \"contracts/modules/Controllers/Controllers.sol\":2627:2638  _signatures */\n      dup3\n      dup3\n        /* \"contracts/modules/Controllers/Controllers.sol\":4461:4474  bool verified */\n      0x00\n        /* \"contracts/modules/Controllers/Controllers.sol\":4476:4495  string memory error */\n      dup1\n        /* \"contracts/modules/Controllers/Controllers.sol\":4499:4562  verifyControllersThresholdBySignatures(_inputHash, _signatures) */\n      tag_144\n        /* \"contracts/modules/Controllers/Controllers.sol\":4538:4548  _inputHash */\n      dup6\n        /* \"contracts/modules/Controllers/Controllers.sol\":4550:4561  _signatures */\n      dup6\n      dup6\n        /* \"contracts/modules/Controllers/Controllers.sol\":4499:4562  verifyControllersThresholdBySignatures(_inputHash, _signatures) */\n      swap1\n      tag_145\n      swap2\n      swap1\n      tag_58\n      jump\t// in\n    tag_145:\n        /* \"contracts/modules/Controllers/Controllers.sol\":4499:4537  verifyControllersThresholdBySignatures */\n      tag_59\n        /* \"contracts/modules/Controllers/Controllers.sol\":4499:4562  verifyControllersThresholdBySignatures(_inputHash, _signatures) */\n      jump\t// in\n    tag_144:\n        /* \"contracts/modules/Controllers/Controllers.sol\":4460:4562  (bool verified, string memory error) = verifyControllersThresholdBySignatures(_inputHash, _signatures) */\n      swap2\n      pop\n      swap2\n      pop\n        /* \"contracts/modules/Controllers/Controllers.sol\":4576:4584  verified */\n      dup2\n        /* \"contracts/modules/Controllers/Controllers.sol\":4586:4591  error */\n      dup2\n        /* \"contracts/modules/Controllers/Controllers.sol\":4568:4592  require(verified, error) */\n      swap1\n      tag_146\n      jumpi\n      mload(0x40)\n      0x08c379a000000000000000000000000000000000000000000000000000000000\n      dup2\n      mstore\n      0x04\n      add\n      tag_147\n      swap2\n      swap1\n      tag_62\n      jump\t// in\n    tag_147:\n      mload(0x40)\n      dup1\n      swap2\n      sub\n      swap1\n      revert\n    tag_146:\n      pop\n        /* \"contracts/modules/Controllers/Controllers.sol\":4608:4617  uint256 i */\n      0x00\n        /* \"contracts/modules/Controllers/Controllers.sol\":4603:4743  for (uint256 i = 0; i < _signatures.length; i++) {... */\n    tag_148:\n        /* \"contracts/modules/Controllers/Controllers.sol\":4627:4638  _signatures */\n      dup5\n      dup5\n        /* \"contracts/modules/Controllers/Controllers.sol\":4627:4645  _signatures.length */\n      swap1\n      pop\n        /* \"contracts/modules/Controllers/Controllers.sol\":4623:4624  i */\n      dup2\n        /* \"contracts/modules/Controllers/Controllers.sol\":4623:4645  i < _signatures.length */\n      lt\n        /* \"contracts/modules/Controllers/Controllers.sol\":4603:4743  for (uint256 i = 0; i < _signatures.length; i++) {... */\n      iszero\n      tag_149\n      jumpi\n        /* \"contracts/modules/Controllers/Controllers.sol\":4732:4736  true */\n      0x01\n        /* \"contracts/modules/Controllers/Controllers.sol\":4660:4687  ControllersStorage.layout() */\n      tag_151\n        /* \"contracts/modules/Controllers/Controllers.sol\":4660:4685  ControllersStorage.layout */\n      tag_52\n        /* \"contracts/modules/Controllers/Controllers.sol\":4660:4687  ControllersStorage.layout() */\n      jump\t// in\n    tag_151:\n        /* \"contracts/modules/Controllers/Controllers.sol\":4660:4702  ControllersStorage.layout().usedSignatures */\n      0x03\n      add\n        /* \"contracts/modules/Controllers/Controllers.sol\":4660:4729  ControllersStorage.layout().usedSignatures[keccak256(_signatures[i])] */\n      0x00\n        /* \"contracts/modules/Controllers/Controllers.sol\":4713:4724  _signatures */\n      dup8\n      dup8\n        /* \"contracts/modules/Controllers/Controllers.sol\":4725:4726  i */\n      dup6\n        /* \"contracts/modules/Controllers/Controllers.sol\":4713:4727  _signatures[i] */\n      dup2\n      dup2\n      lt\n      tag_152\n      jumpi\n      tag_153\n      tag_69\n      jump\t// in\n    tag_153:\n    tag_152:\n      swap1\n      pop\n      0x20\n      mul\n      dup2\n      add\n      swap1\n      tag_154\n      swap2\n      swap1\n      tag_71\n      jump\t// in\n    tag_154:\n        /* \"contracts/modules/Controllers/Controllers.sol\":4703:4728  keccak256(_signatures[i]) */\n      mload(0x40)\n      tag_155\n      swap3\n      swap2\n      swap1\n      tag_73\n      jump\t// in\n    tag_155:\n      mload(0x40)\n      dup1\n      swap2\n      sub\n      swap1\n      keccak256\n        /* \"contracts/modules/Controllers/Controllers.sol\":4660:4729  ControllersStorage.layout().usedSignatures[keccak256(_signatures[i])] */\n      dup2\n      mstore\n      0x20\n      add\n      swap1\n      dup2\n      mstore\n      0x20\n      add\n      0x00\n      keccak256\n      0x00\n        /* \"contracts/modules/Controllers/Controllers.sol\":4660:4736  ControllersStorage.layout().usedSignatures[keccak256(_signatures[i])] = true */\n      0x0100\n      exp\n      dup2\n      sload\n      dup2\n      0xff\n      mul\n      not\n      and\n      swap1\n      dup4\n      iszero\n      iszero\n      mul\n      or\n      swap1\n      sstore\n      pop\n        /* \"contracts/modules/Controllers/Controllers.sol\":4647:4650  i++ */\n      dup1\n      dup1\n      tag_156\n      swap1\n      tag_75\n      jump\t// in\n    tag_156:\n      swap2\n      pop\n      pop\n        /* \"contracts/modules/Controllers/Controllers.sol\":4603:4743  for (uint256 i = 0; i < _signatures.length; i++) {... */\n      jump(tag_148)\n    tag_149:\n      pop\n        /* \"contracts/modules/Controllers/Controllers.sol\":2786:2793  _weight */\n      dup9\n        /* \"contracts/modules/Controllers/Controllers.sol\":2735:2762  ControllersStorage.layout() */\n      tag_158\n        /* \"contracts/modules/Controllers/Controllers.sol\":2735:2760  ControllersStorage.layout */\n      tag_52\n        /* \"contracts/modules/Controllers/Controllers.sol\":2735:2762  ControllersStorage.layout() */\n      jump\t// in\n    tag_158:\n        /* \"contracts/modules/Controllers/Controllers.sol\":2735:2770  ControllersStorage.layout().weights */\n      0x02\n      add\n        /* \"contracts/modules/Controllers/Controllers.sol\":2735:2783  ControllersStorage.layout().weights[_controller] */\n      0x00\n        /* \"contracts/modules/Controllers/Controllers.sol\":2771:2782  _controller */\n      dup13\n        /* \"contracts/modules/Controllers/Controllers.sol\":2735:2783  ControllersStorage.layout().weights[_controller] */\n      0xffffffffffffffffffffffffffffffffffffffff\n      and\n      0xffffffffffffffffffffffffffffffffffffffff\n      and\n      dup2\n      mstore\n      0x20\n      add\n      swap1\n      dup2\n      mstore\n      0x20\n      add\n      0x00\n      keccak256\n      sload\n        /* \"contracts/modules/Controllers/Controllers.sol\":2692:2719  ControllersStorage.layout() */\n      tag_159\n        /* \"contracts/modules/Controllers/Controllers.sol\":2692:2717  ControllersStorage.layout */\n      tag_52\n        /* \"contracts/modules/Controllers/Controllers.sol\":2692:2719  ControllersStorage.layout() */\n      jump\t// in\n    tag_159:\n        /* \"contracts/modules/Controllers/Controllers.sol\":2692:2732  ControllersStorage.layout().totalWeights */\n      0x01\n      add\n      sload\n        /* \"contracts/modules/Controllers/Controllers.sol\":2692:2783  ControllersStorage.layout().totalWeights - ControllersStorage.layout().weights[_controller] */\n      tag_160\n      swap2\n      swap1\n      tag_161\n      jump\t// in\n    tag_160:\n        /* \"contracts/modules/Controllers/Controllers.sol\":2692:2793  ControllersStorage.layout().totalWeights - ControllersStorage.layout().weights[_controller] + _weight */\n      tag_162\n      swap2\n      swap1\n      tag_163\n      jump\t// in\n    tag_162:\n        /* \"contracts/modules/Controllers/Controllers.sol\":2649:2676  ControllersStorage.layout() */\n      tag_164\n        /* \"contracts/modules/Controllers/Controllers.sol\":2649:2674  ControllersStorage.layout */\n      tag_52\n        /* \"contracts/modules/Controllers/Controllers.sol\":2649:2676  ControllersStorage.layout() */\n      jump\t// in\n    tag_164:\n        /* \"contracts/modules/Controllers/Controllers.sol\":2649:2689  ControllersStorage.layout().totalWeights */\n      0x01\n      add\n        /* \"contracts/modules/Controllers/Controllers.sol\":2649:2793  ControllersStorage.layout().totalWeights = ControllersStorage.layout().totalWeights - ControllersStorage.layout().weights[_controller] + _weight */\n      dup2\n      swap1\n      sstore\n      pop\n        /* \"contracts/modules/Controllers/Controllers.sol\":2850:2851  0 */\n      0x00\n        /* \"contracts/modules/Controllers/Controllers.sol\":2807:2834  ControllersStorage.layout() */\n      tag_165\n        /* \"contracts/modules/Controllers/Controllers.sol\":2807:2832  ControllersStorage.layout */\n      tag_52\n        /* \"contracts/modules/Controllers/Controllers.sol\":2807:2834  ControllersStorage.layout() */\n      jump\t// in\n    tag_165:\n        /* \"contracts/modules/Controllers/Controllers.sol\":2807:2847  ControllersStorage.layout().totalWeights */\n      0x01\n      add\n      sload\n        /* \"contracts/modules/Controllers/Controllers.sol\":2807:2851  ControllersStorage.layout().totalWeights > 0 */\n      gt\n        /* \"contracts/modules/Controllers/Controllers.sol\":2807:2936  ControllersStorage.layout().totalWeights > 0 && ControllersStorage.layout().totalWeights >= ControllersStorage.layout().threshold */\n      dup1\n      iszero\n      tag_166\n      jumpi\n      pop\n        /* \"contracts/modules/Controllers/Controllers.sol\":2899:2926  ControllersStorage.layout() */\n      tag_167\n        /* \"contracts/modules/Controllers/Controllers.sol\":2899:2924  ControllersStorage.layout */\n      tag_52\n        /* \"contracts/modules/Controllers/Controllers.sol\":2899:2926  ControllersStorage.layout() */\n      jump\t// in\n    tag_167:\n        /* \"contracts/modules/Controllers/Controllers.sol\":2899:2936  ControllersStorage.layout().threshold */\n      0x00\n      add\n      sload\n        /* \"contracts/modules/Controllers/Controllers.sol\":2855:2882  ControllersStorage.layout() */\n      tag_168\n        /* \"contracts/modules/Controllers/Controllers.sol\":2855:2880  ControllersStorage.layout */\n      tag_52\n        /* \"contracts/modules/Controllers/Controllers.sol\":2855:2882  ControllersStorage.layout() */\n      jump\t// in\n    tag_168:\n        /* \"contracts/modules/Controllers/Controllers.sol\":2855:2895  ControllersStorage.layout().totalWeights */\n      0x01\n      add\n      sload\n        /* \"contracts/modules/Controllers/Controllers.sol\":2855:2936  ControllersStorage.layout().totalWeights >= ControllersStorage.layout().threshold */\n      lt\n      iszero\n        /* \"contracts/modules/Controllers/Controllers.sol\":2807:2936  ControllersStorage.layout().totalWeights > 0 && ControllersStorage.layout().totalWeights >= ControllersStorage.layout().threshold */\n    tag_166:\n        /* \"contracts/modules/Controllers/Controllers.sol\":2799:2970  require(ControllersStorage.layout().totalWeights > 0 && ControllersStorage.layout().totalWeights >= ControllersStorage.layout().threshold, \"Threshold would be impossible\") */\n      tag_169\n      jumpi\n      mload(0x40)\n      0x08c379a000000000000000000000000000000000000000000000000000000000\n      dup2\n      mstore\n      0x04\n      add\n      tag_170\n      swap1\n      tag_171\n      jump\t// in\n    tag_170:\n      mload(0x40)\n      dup1\n      swap2\n      sub\n      swap1\n      revert\n    tag_169:\n        /* \"contracts/modules/Controllers/Controllers.sol\":3027:3034  _weight */\n      dup9\n        /* \"contracts/modules/Controllers/Controllers.sol\":2976:3003  ControllersStorage.layout() */\n      tag_172\n        /* \"contracts/modules/Controllers/Controllers.sol\":2976:3001  ControllersStorage.layout */\n      tag_52\n        /* \"contracts/modules/Controllers/Controllers.sol\":2976:3003  ControllersStorage.layout() */\n      jump\t// in\n    tag_172:\n        /* \"contracts/modules/Controllers/Controllers.sol\":2976:3011  ControllersStorage.layout().weights */\n      0x02\n      add\n        /* \"contracts/modules/Controllers/Controllers.sol\":2976:3024  ControllersStorage.layout().weights[_controller] */\n      0x00\n        /* \"contracts/modules/Controllers/Controllers.sol\":3012:3023  _controller */\n      dup13\n        /* \"contracts/modules/Controllers/Controllers.sol\":2976:3024  ControllersStorage.layout().weights[_controller] */\n      0xffffffffffffffffffffffffffffffffffffffff\n      and\n      0xffffffffffffffffffffffffffffffffffffffff\n      and\n      dup2\n      mstore\n      0x20\n      add\n      swap1\n      dup2\n      mstore\n      0x20\n      add\n      0x00\n      keccak256\n        /* \"contracts/modules/Controllers/Controllers.sol\":2976:3034  ControllersStorage.layout().weights[_controller] = _weight */\n      dup2\n      swap1\n      sstore\n      pop\n        /* \"contracts/modules/Controllers/Controllers.sol\":4454:4755  {... */\n      pop\n      pop\n        /* \"contracts/modules/Controllers/Controllers.sol\":2380:3039  function updateControllerWeight(... */\n      pop\n      pop\n      pop\n      pop\n      pop\n      pop\n      pop\n      pop\n      jump\t// out\n        /* \"contracts/modules/Controllers/Controllers.sol\":3162:3306  function controllerWeight(address _controller) external view returns(uint256) {... */\n    tag_44:\n        /* \"contracts/modules/Controllers/Controllers.sol\":3231:3238  uint256 */\n      0x00\n        /* \"contracts/modules/Controllers/Controllers.sol\":3253:3280  ControllersStorage.layout() */\n      tag_174\n        /* \"contracts/modules/Controllers/Controllers.sol\":3253:3278  ControllersStorage.layout */\n      tag_52\n        /* \"contracts/modules/Controllers/Controllers.sol\":3253:3280  ControllersStorage.layout() */\n      jump\t// in\n    tag_174:\n        /* \"contracts/modules/Controllers/Controllers.sol\":3253:3288  ControllersStorage.layout().weights */\n      0x02\n      add\n        /* \"contracts/modules/Controllers/Controllers.sol\":3253:3301  ControllersStorage.layout().weights[_controller] */\n      0x00\n        /* \"contracts/modules/Controllers/Controllers.sol\":3289:3300  _controller */\n      dup4\n        /* \"contracts/modules/Controllers/Controllers.sol\":3253:3301  ControllersStorage.layout().weights[_controller] */\n      0xffffffffffffffffffffffffffffffffffffffff\n      and\n      0xffffffffffffffffffffffffffffffffffffffff\n      and\n      dup2\n      mstore\n      0x20\n      add\n      swap1\n      dup2\n      mstore\n      0x20\n      add\n      0x00\n      keccak256\n      sload\n        /* \"contracts/modules/Controllers/Controllers.sol\":3246:3301  return ControllersStorage.layout().weights[_controller] */\n      swap1\n      pop\n        /* \"contracts/modules/Controllers/Controllers.sol\":3162:3306  function controllerWeight(address _controller) external view returns(uint256) {... */\n      swap2\n      swap1\n      pop\n      jump\t// out\n        /* \"@openzeppelin/contracts/utils/introspection/ERC165.sol\":829:984  function supportsInterface(bytes4 interfaceId) public view virtual override returns (bool) {... */\n    tag_49:\n        /* \"@openzeppelin/contracts/utils/introspection/ERC165.sol\":914:918  bool */\n      0x00\n        /* \"@openzeppelin/contracts/utils/introspection/ERC165.sol\":952:977  type(IERC165).interfaceId */\n      0x01ffc9a700000000000000000000000000000000000000000000000000000000\n        /* \"@openzeppelin/contracts/utils/introspection/ERC165.sol\":937:977  interfaceId == type(IERC165).interfaceId */\n      not(0xffffffffffffffffffffffffffffffffffffffffffffffffffffffff)\n      and\n        /* \"@openzeppelin/contracts/utils/introspection/ERC165.sol\":937:948  interfaceId */\n      dup3\n        /* \"@openzeppelin/contracts/utils/introspection/ERC165.sol\":937:977  interfaceId == type(IERC165).interfaceId */\n      not(0xffffffffffffffffffffffffffffffffffffffffffffffffffffffff)\n      and\n      eq\n        /* \"@openzeppelin/contracts/utils/introspection/ERC165.sol\":930:977  return interfaceId == type(IERC165).interfaceId */\n      swap1\n      pop\n        /* \"@openzeppelin/contracts/utils/introspection/ERC165.sol\":829:984  function supportsInterface(bytes4 interfaceId) public view virtual override returns (bool) {... */\n      swap2\n      swap1\n      pop\n      jump\t// out\n        /* \"contracts/modules/Controllers/ControllersStorage.sol\":624:776  function layout() internal pure returns (Layout storage _layout) {... */\n    tag_52:\n        /* \"contracts/modules/Controllers/ControllersStorage.sol\":665:687  Layout storage _layout */\n      0x00\n        /* \"contracts/modules/Controllers/ControllersStorage.sol\":695:707  bytes32 slot */\n      dup1\n        /* \"contracts/modules/Controllers/ControllersStorage.sol\":415:461  keccak256(\"com.trymetafab.wallet.Controllers\") */\n      0x255f4a56bd3ad76424e31ed8855ef9ad14a0ce4e67508c76ff082e5c1466b12f\n        /* \"contracts/modules/Controllers/ControllersStorage.sol\":695:722  bytes32 slot = STORAGE_SLOT */\n      swap1\n      pop\n        /* \"contracts/modules/Controllers/ControllersStorage.sol\":762:766  slot */\n      dup1\n        /* \"contracts/modules/Controllers/ControllersStorage.sol\":746:766  _layout.slot := slot */\n      swap2\n      pop\n        /* \"contracts/modules/Controllers/ControllersStorage.sol\":738:772  {... */\n      pop\n        /* \"contracts/modules/Controllers/ControllersStorage.sol\":624:776  function layout() internal pure returns (Layout storage _layout) {... */\n      swap1\n      jump\t// out\n        /* \"contracts/modules/Controllers/Controllers.sol\":3438:4365  function verifyControllersThresholdBySignatures(... */\n    tag_59:\n        /* \"contracts/modules/Controllers/Controllers.sol\":3585:3589  bool */\n      0x00\n        /* \"contracts/modules/Controllers/Controllers.sol\":3591:3604  string memory */\n      0x60\n        /* \"contracts/modules/Controllers/Controllers.sol\":3615:3636  uint256 signerWeights */\n      0x00\n        /* \"contracts/modules/Controllers/Controllers.sol\":3652:3661  uint256 i */\n      dup1\n        /* \"contracts/modules/Controllers/Controllers.sol\":3647:4201  for (uint256 i = 0; i < _signatures.length; i++) {... */\n    tag_178:\n        /* \"contracts/modules/Controllers/Controllers.sol\":3671:3682  _signatures */\n      dup5\n        /* \"contracts/modules/Controllers/Controllers.sol\":3671:3689  _signatures.length */\n      mload\n        /* \"contracts/modules/Controllers/Controllers.sol\":3667:3668  i */\n      dup2\n        /* \"contracts/modules/Controllers/Controllers.sol\":3667:3689  i < _signatures.length */\n      lt\n        /* \"contracts/modules/Controllers/Controllers.sol\":3647:4201  for (uint256 i = 0; i < _signatures.length; i++) {... */\n      iszero\n      tag_179\n      jumpi\n        /* \"contracts/modules/Controllers/Controllers.sol\":3704:3718  address signer */\n      0x00\n        /* \"contracts/modules/Controllers/Controllers.sol\":3721:3769  Signatures.getSigner(_inputHash, _signatures[i]) */\n      tag_181\n        /* \"contracts/modules/Controllers/Controllers.sol\":3742:3752  _inputHash */\n      dup8\n        /* \"contracts/modules/Controllers/Controllers.sol\":3754:3765  _signatures */\n      dup8\n        /* \"contracts/modules/Controllers/Controllers.sol\":3766:3767  i */\n      dup5\n        /* \"contracts/modules/Controllers/Controllers.sol\":3754:3768  _signatures[i] */\n      dup2\n      mload\n      dup2\n      lt\n      tag_182\n      jumpi\n      tag_183\n      tag_69\n      jump\t// in\n    tag_183:\n    tag_182:\n      0x20\n      mul\n      0x20\n      add\n      add\n      mload\n        /* \"contracts/modules/Controllers/Controllers.sol\":3721:3741  Signatures.getSigner */\n      tag_184\n        /* \"contracts/modules/Controllers/Controllers.sol\":3721:3769  Signatures.getSigner(_inputHash, _signatures[i]) */\n      jump\t// in\n    tag_181:\n        /* \"contracts/modules/Controllers/Controllers.sol\":3704:3769  address signer = Signatures.getSigner(_inputHash, _signatures[i]) */\n      swap1\n      pop\n        /* \"contracts/modules/Controllers/Controllers.sol\":3829:3830  0 */\n      0x00\n        /* \"contracts/modules/Controllers/Controllers.sol\":3782:3809  ControllersStorage.layout() */\n      tag_185\n        /* \"contracts/modules/Controllers/Controllers.sol\":3782:3807  ControllersStorage.layout */\n      tag_52\n        /* \"contracts/modules/Controllers/Controllers.sol\":3782:3809  ControllersStorage.layout() */\n      jump\t// in\n    tag_185:\n        /* \"contracts/modules/Controllers/Controllers.sol\":3782:3817  ControllersStorage.layout().weights */\n      0x02\n      add\n        /* \"contracts/modules/Controllers/Controllers.sol\":3782:3825  ControllersStorage.layout().weights[signer] */\n      0x00\n        /* \"contracts/modules/Controllers/Controllers.sol\":3818:3824  signer */\n      dup4\n        /* \"contracts/modules/Controllers/Controllers.sol\":3782:3825  ControllersStorage.layout().weights[signer] */\n      0xffffffffffffffffffffffffffffffffffffffff\n      and\n      0xffffffffffffffffffffffffffffffffffffffff\n      and\n      dup2\n      mstore\n      0x20\n      add\n      swap1\n      dup2\n      mstore\n      0x20\n      add\n      0x00\n      keccak256\n      sload\n        /* \"contracts/modules/Controllers/Controllers.sol\":3782:3830  ControllersStorage.layout().weights[signer] == 0 */\n      sub\n        /* \"contracts/modules/Controllers/Controllers.sol\":3778:3919  if (ControllersStorage.layout().weights[signer] == 0) {... */\n      tag_186\n      jumpi\n        /* \"contracts/modules/Controllers/Controllers.sol\":3850:3855  false */\n      0x00\n        /* \"contracts/modules/Controllers/Controllers.sol\":3842:3910  return (false, \"At least one signature not from a known controller\") */\n      mload(0x40)\n      dup1\n      0x60\n      add\n      0x40\n      mstore\n      dup1\n      0x32\n      dup2\n      mstore\n      0x20\n      add\n      data_785bc0b145e7feed7ceac2191d963af02addfd5fb4914d9f29f212008f60b7a9\n      0x32\n      swap2\n      codecopy\n      swap5\n      pop\n      swap5\n      pop\n      pop\n      pop\n      pop\n      jump(tag_177)\n        /* \"contracts/modules/Controllers/Controllers.sol\":3778:3919  if (ControllersStorage.layout().weights[signer] == 0) {... */\n    tag_186:\n        /* \"contracts/modules/Controllers/Controllers.sol\":3933:3954  bytes32 signatureHash */\n      0x00\n        /* \"contracts/modules/Controllers/Controllers.sol\":3967:3978  _signatures */\n      dup7\n        /* \"contracts/modules/Controllers/Controllers.sol\":3979:3980  i */\n      dup4\n        /* \"contracts/modules/Controllers/Controllers.sol\":3967:3981  _signatures[i] */\n      dup2\n      mload\n      dup2\n      lt\n      tag_187\n      jumpi\n      tag_188\n      tag_69\n      jump\t// in\n    tag_188:\n    tag_187:\n      0x20\n      mul\n      0x20\n      add\n      add\n      mload\n        /* \"contracts/modules/Controllers/Controllers.sol\":3957:3982  keccak256(_signatures[i]) */\n      dup1\n      mload\n      swap1\n      0x20\n      add\n      keccak256\n        /* \"contracts/modules/Controllers/Controllers.sol\":3933:3982  bytes32 signatureHash = keccak256(_signatures[i]) */\n      swap1\n      pop\n        /* \"contracts/modules/Controllers/Controllers.sol\":3995:4022  ControllersStorage.layout() */\n      tag_189\n        /* \"contracts/modules/Controllers/Controllers.sol\":3995:4020  ControllersStorage.layout */\n      tag_52\n        /* \"contracts/modules/Controllers/Controllers.sol\":3995:4022  ControllersStorage.layout() */\n      jump\t// in\n    tag_189:\n        /* \"contracts/modules/Controllers/Controllers.sol\":3995:4037  ControllersStorage.layout().usedSignatures */\n      0x03\n      add\n        /* \"contracts/modules/Controllers/Controllers.sol\":3995:4052  ControllersStorage.layout().usedSignatures[signatureHash] */\n      0x00\n        /* \"contracts/modules/Controllers/Controllers.sol\":4038:4051  signatureHash */\n      dup3\n        /* \"contracts/modules/Controllers/Controllers.sol\":3995:4052  ControllersStorage.layout().usedSignatures[signatureHash] */\n      dup2\n      mstore\n      0x20\n      add\n      swap1\n      dup2\n      mstore\n      0x20\n      add\n      0x00\n      keccak256\n      0x00\n      swap1\n      sload\n      swap1\n      0x0100\n      exp\n      swap1\n      div\n      0xff\n      and\n        /* \"contracts/modules/Controllers/Controllers.sol\":3991:4126  if (ControllersStorage.layout().usedSignatures[signatureHash]) {... */\n      iszero\n      tag_190\n      jumpi\n        /* \"contracts/modules/Controllers/Controllers.sol\":4072:4077  false */\n      0x00\n        /* \"contracts/modules/Controllers/Controllers.sol\":4064:4117  return (false, \"At least one signature already used\") */\n      mload(0x40)\n      dup1\n      0x60\n      add\n      0x40\n      mstore\n      dup1\n      0x23\n      dup2\n      mstore\n      0x20\n      add\n      data_a16b8e883356b25ba9a3764847759439ed808aa5ab1e4a5a4f8ee72d493c676d\n      0x23\n      swap2\n      codecopy\n      swap6\n      pop\n      swap6\n      pop\n      pop\n      pop\n      pop\n      pop\n      jump(tag_177)\n        /* \"contracts/modules/Controllers/Controllers.sol\":3991:4126  if (ControllersStorage.layout().usedSignatures[signatureHash]) {... */\n    tag_190:\n        /* \"contracts/modules/Controllers/Controllers.sol\":4151:4178  ControllersStorage.layout() */\n      tag_191\n        /* \"contracts/modules/Controllers/Controllers.sol\":4151:4176  ControllersStorage.layout */\n      tag_52\n        /* \"contracts/modules/Controllers/Controllers.sol\":4151:4178  ControllersStorage.layout() */\n      jump\t// in\n    tag_191:\n        /* \"contracts/modules/Controllers/Controllers.sol\":4151:4186  ControllersStorage.layout().weights */\n      0x02\n      add\n        /* \"contracts/modules/Controllers/Controllers.sol\":4151:4194  ControllersStorage.layout().weights[signer] */\n      0x00\n        /* \"contracts/modules/Controllers/Controllers.sol\":4187:4193  signer */\n      dup4\n        /* \"contracts/modules/Controllers/Controllers.sol\":4151:4194  ControllersStorage.layout().weights[signer] */\n      0xffffffffffffffffffffffffffffffffffffffff\n      and\n      0xffffffffffffffffffffffffffffffffffffffff\n      and\n      dup2\n      mstore\n      0x20\n      add\n      swap1\n      dup2\n      mstore\n      0x20\n      add\n      0x00\n      keccak256\n      sload\n        /* \"contracts/modules/Controllers/Controllers.sol\":4134:4194  signerWeights += ControllersStorage.layout().weights[signer] */\n      dup5\n      tag_192\n      swap2\n      swap1\n      tag_163\n      jump\t// in\n    tag_192:\n      swap4\n      pop\n        /* \"contracts/modules/Controllers/Controllers.sol\":3696:4201  {... */\n      pop\n      pop\n        /* \"contracts/modules/Controllers/Controllers.sol\":3691:3694  i++ */\n      dup1\n      dup1\n      tag_193\n      swap1\n      tag_75\n      jump\t// in\n    tag_193:\n      swap2\n      pop\n      pop\n        /* \"contracts/modules/Controllers/Controllers.sol\":3647:4201  for (uint256 i = 0; i < _signatures.length; i++) {... */\n      jump(tag_178)\n    tag_179:\n      pop\n        /* \"contracts/modules/Controllers/Controllers.sol\":4227:4254  ControllersStorage.layout() */\n      tag_194\n        /* \"contracts/modules/Controllers/Controllers.sol\":4227:4252  ControllersStorage.layout */\n      tag_52\n        /* \"contracts/modules/Controllers/Controllers.sol\":4227:4254  ControllersStorage.layout() */\n      jump\t// in\n    tag_194:\n        /* \"contracts/modules/Controllers/Controllers.sol\":4227:4264  ControllersStorage.layout().threshold */\n      0x00\n      add\n      sload\n        /* \"contracts/modules/Controllers/Controllers.sol\":4211:4224  signerWeights */\n      dup2\n        /* \"contracts/modules/Controllers/Controllers.sol\":4211:4264  signerWeights < ControllersStorage.layout().threshold */\n      lt\n        /* \"contracts/modules/Controllers/Controllers.sol\":4207:4337  if (signerWeights < ControllersStorage.layout().threshold) {... */\n      iszero\n      tag_195\n      jumpi\n        /* \"contracts/modules/Controllers/Controllers.sol\":4282:4287  false */\n      0x00\n        /* \"contracts/modules/Controllers/Controllers.sol\":4274:4330  return (false, \"Signer weights does not meet threshold\") */\n      mload(0x40)\n      dup1\n      0x60\n      add\n      0x40\n      mstore\n      dup1\n      0x26\n      dup2\n      mstore\n      0x20\n      add\n      data_72284c72650eb5f3095ffe3e95f497df8ba3ab16a33a5479ff4ed3ce4e760077\n      0x26\n      swap2\n      codecopy\n      swap3\n      pop\n      swap3\n      pop\n      pop\n      jump(tag_177)\n        /* \"contracts/modules/Controllers/Controllers.sol\":4207:4337  if (signerWeights < ControllersStorage.layout().threshold) {... */\n    tag_195:\n        /* \"contracts/modules/Controllers/Controllers.sol\":4351:4355  true */\n      0x01\n        /* \"contracts/modules/Controllers/Controllers.sol\":4343:4360  return (true, \"\") */\n      mload(0x40)\n      dup1\n      0x20\n      add\n      0x40\n      mstore\n      dup1\n      0x00\n      dup2\n      mstore\n      pop\n      swap3\n      pop\n      swap3\n      pop\n      pop\n        /* \"contracts/modules/Controllers/Controllers.sol\":3438:4365  function verifyControllersThresholdBySignatures(... */\n    tag_177:\n      swap3\n      pop\n      swap3\n      swap1\n      pop\n      jump\t// out\n        /* \"contracts/modules/Controllers/Controllers.sol\":1524:1919  function _removeController(address _controller) internal {... */\n    tag_84:\n        /* \"contracts/modules/Controllers/Controllers.sol\":1631:1658  ControllersStorage.layout() */\n      tag_197\n        /* \"contracts/modules/Controllers/Controllers.sol\":1631:1656  ControllersStorage.layout */\n      tag_52\n        /* \"contracts/modules/Controllers/Controllers.sol\":1631:1658  ControllersStorage.layout() */\n      jump\t// in\n    tag_197:\n        /* \"contracts/modules/Controllers/Controllers.sol\":1631:1666  ControllersStorage.layout().weights */\n      0x02\n      add\n        /* \"contracts/modules/Controllers/Controllers.sol\":1631:1679  ControllersStorage.layout().weights[_controller] */\n      0x00\n        /* \"contracts/modules/Controllers/Controllers.sol\":1667:1678  _controller */\n      dup3\n        /* \"contracts/modules/Controllers/Controllers.sol\":1631:1679  ControllersStorage.layout().weights[_controller] */\n      0xffffffffffffffffffffffffffffffffffffffff\n      and\n      0xffffffffffffffffffffffffffffffffffffffff\n      and\n      dup2\n      mstore\n      0x20\n      add\n      swap1\n      dup2\n      mstore\n      0x20\n      add\n      0x00\n      keccak256\n      sload\n        /* \"contracts/modules/Controllers/Controllers.sol\":1587:1614  ControllersStorage.layout() */\n      tag_198\n        /* \"contracts/modules/Controllers/Controllers.sol\":1587:1612  ControllersStorage.layout */\n      tag_52\n        /* \"contracts/modules/Controllers/Controllers.sol\":1587:1614  ControllersStorage.layout() */\n      jump\t// in\n    tag_198:\n        /* \"contracts/modules/Controllers/Controllers.sol\":1587:1627  ControllersStorage.layout().totalWeights */\n      0x01\n      add\n      0x00\n        /* \"contracts/modules/Controllers/Controllers.sol\":1587:1679  ControllersStorage.layout().totalWeights -= ControllersStorage.layout().weights[_controller] */\n      dup3\n      dup3\n      sload\n      tag_199\n      swap2\n      swap1\n      tag_161\n      jump\t// in\n    tag_199:\n      swap3\n      pop\n      pop\n      dup2\n      swap1\n      sstore\n      pop\n        /* \"contracts/modules/Controllers/Controllers.sol\":1736:1737  0 */\n      0x00\n        /* \"contracts/modules/Controllers/Controllers.sol\":1693:1720  ControllersStorage.layout() */\n      tag_200\n        /* \"contracts/modules/Controllers/Controllers.sol\":1693:1718  ControllersStorage.layout */\n      tag_52\n        /* \"contracts/modules/Controllers/Controllers.sol\":1693:1720  ControllersStorage.layout() */\n      jump\t// in\n    tag_200:\n        /* \"contracts/modules/Controllers/Controllers.sol\":1693:1733  ControllersStorage.layout().totalWeights */\n      0x01\n      add\n      sload\n        /* \"contracts/modules/Controllers/Controllers.sol\":1693:1737  ControllersStorage.layout().totalWeights > 0 */\n      gt\n        /* \"contracts/modules/Controllers/Controllers.sol\":1693:1822  ControllersStorage.layout().totalWeights > 0 && ControllersStorage.layout().totalWeights >= ControllersStorage.layout().threshold */\n      dup1\n      iszero\n      tag_201\n      jumpi\n      pop\n        /* \"contracts/modules/Controllers/Controllers.sol\":1785:1812  ControllersStorage.layout() */\n      tag_202\n        /* \"contracts/modules/Controllers/Controllers.sol\":1785:1810  ControllersStorage.layout */\n      tag_52\n        /* \"contracts/modules/Controllers/Controllers.sol\":1785:1812  ControllersStorage.layout() */\n      jump\t// in\n    tag_202:\n        /* \"contracts/modules/Controllers/Controllers.sol\":1785:1822  ControllersStorage.layout().threshold */\n      0x00\n      add\n      sload\n        /* \"contracts/modules/Controllers/Controllers.sol\":1741:1768  ControllersStorage.layout() */\n      tag_203\n        /* \"contracts/modules/Controllers/Controllers.sol\":1741:1766  ControllersStorage.layout */\n      tag_52\n        /* \"contracts/modules/Controllers/Controllers.sol\":1741:1768  ControllersStorage.layout() */\n      jump\t// in\n    tag_203:\n        /* \"contracts/modules/Controllers/Controllers.sol\":1741:1781  ControllersStorage.layout().totalWeights */\n      0x01\n      add\n      sload\n        /* \"contracts/modules/Controllers/Controllers.sol\":1741:1822  ControllersStorage.layout().totalWeights >= ControllersStorage.layout().threshold */\n      lt\n      iszero\n        /* \"contracts/modules/Controllers/Controllers.sol\":1693:1822  ControllersStorage.layout().totalWeights > 0 && ControllersStorage.layout().totalWeights >= ControllersStorage.layout().threshold */\n    tag_201:\n        /* \"contracts/modules/Controllers/Controllers.sol\":1685:1856  require(ControllersStorage.layout().totalWeights > 0 && ControllersStorage.layout().totalWeights >= ControllersStorage.layout().threshold, \"Threshold would be impossible\") */\n      tag_204\n      jumpi\n      mload(0x40)\n      0x08c379a000000000000000000000000000000000000000000000000000000000\n      dup2\n      mstore\n      0x04\n      add\n      tag_205\n      swap1\n      tag_171\n      jump\t// in\n    tag_205:\n      mload(0x40)\n      dup1\n      swap2\n      sub\n      swap1\n      revert\n    tag_204:\n        /* \"contracts/modules/Controllers/Controllers.sol\":1913:1914  0 */\n      0x00\n        /* \"contracts/modules/Controllers/Controllers.sol\":1862:1889  ControllersStorage.layout() */\n      tag_206\n        /* \"contracts/modules/Controllers/Controllers.sol\":1862:1887  ControllersStorage.layout */\n      tag_52\n        /* \"contracts/modules/Controllers/Controllers.sol\":1862:1889  ControllersStorage.layout() */\n      jump\t// in\n    tag_206:\n        /* \"contracts/modules/Controllers/Controllers.sol\":1862:1897  ControllersStorage.layout().weights */\n      0x02\n      add\n        /* \"contracts/modules/Controllers/Controllers.sol\":1862:1910  ControllersStorage.layout().weights[_controller] */\n      0x00\n        /* \"contracts/modules/Controllers/Controllers.sol\":1898:1909  _controller */\n      dup4\n        /* \"contracts/modules/Controllers/Controllers.sol\":1862:1910  ControllersStorage.layout().weights[_controller] */\n      0xffffffffffffffffffffffffffffffffffffffff\n      and\n      0xffffffffffffffffffffffffffffffffffffffff\n      and\n      dup2\n      mstore\n      0x20\n      add\n      swap1\n      dup2\n      mstore\n      0x20\n      add\n      0x00\n      keccak256\n        /* \"contracts/modules/Controllers/Controllers.sol\":1862:1914  ControllersStorage.layout().weights[_controller] = 0 */\n      dup2\n      swap1\n      sstore\n      pop\n        /* \"contracts/modules/Controllers/Controllers.sol\":1524:1919  function _removeController(address _controller) internal {... */\n      pop\n      jump\t// out\n        /* \"contracts/modules/Controllers/Controllers.sol\":966:1167  function _addController(address _controller, uint256 _weight) internal {... */\n    tag_139:\n        /* \"contracts/modules/Controllers/Controllers.sol\":1087:1094  _weight */\n      dup1\n        /* \"contracts/modules/Controllers/Controllers.sol\":1043:1070  ControllersStorage.layout() */\n      tag_208\n        /* \"contracts/modules/Controllers/Controllers.sol\":1043:1068  ControllersStorage.layout */\n      tag_52\n        /* \"contracts/modules/Controllers/Controllers.sol\":1043:1070  ControllersStorage.layout() */\n      jump\t// in\n    tag_208:\n        /* \"contracts/modules/Controllers/Controllers.sol\":1043:1083  ControllersStorage.layout().totalWeights */\n      0x01\n      add\n      0x00\n        /* \"contracts/modules/Controllers/Controllers.sol\":1043:1094  ControllersStorage.layout().totalWeights += _weight */\n      dup3\n      dup3\n      sload\n      tag_209\n      swap2\n      swap1\n      tag_163\n      jump\t// in\n    tag_209:\n      swap3\n      pop\n      pop\n      dup2\n      swap1\n      sstore\n      pop\n        /* \"contracts/modules/Controllers/Controllers.sol\":1151:1158  _weight */\n      dup1\n        /* \"contracts/modules/Controllers/Controllers.sol\":1100:1127  ControllersStorage.layout() */\n      tag_210\n        /* \"contracts/modules/Controllers/Controllers.sol\":1100:1125  ControllersStorage.layout */\n      tag_52\n        /* \"contracts/modules/Controllers/Controllers.sol\":1100:1127  ControllersStorage.layout() */\n      jump\t// in\n    tag_210:\n        /* \"contracts/modules/Controllers/Controllers.sol\":1100:1135  ControllersStorage.layout().weights */\n      0x02\n      add\n        /* \"contracts/modules/Controllers/Controllers.sol\":1100:1148  ControllersStorage.layout().weights[_controller] */\n      0x00\n        /* \"contracts/modules/Controllers/Controllers.sol\":1136:1147  _controller */\n      dup5\n        /* \"contracts/modules/Controllers/Controllers.sol\":1100:1148  ControllersStorage.layout().weights[_controller] */\n      0xffffffffffffffffffffffffffffffffffffffff\n      and\n      0xffffffffffffffffffffffffffffffffffffffff\n      and\n      dup2\n      mstore\n      0x20\n      add\n      swap1\n      dup2\n      mstore\n      0x20\n      add\n      0x00\n      keccak256\n        /* \"contracts/modules/Controllers/Controllers.sol\":1100:1158  ControllersStorage.layout().weights[_controller] = _weight */\n      dup2\n      swap1\n      sstore\n      pop\n        /* \"contracts/modules/Controllers/Controllers.sol\":966:1167  function _addController(address _controller, uint256 _weight) internal {... */\n      pop\n      pop\n      jump\t// out\n        /* \"contracts/utils/Signatures.sol\":187:356  function getSigner(bytes32 _inputHash, bytes memory _signature) internal pure returns (address) {... */\n    tag_184:\n        /* \"contracts/utils/Signatures.sol\":274:281  address */\n      0x00\n        /* \"contracts/utils/Signatures.sol\":296:351  _inputHash.toEthSignedMessageHash().recover(_signature) */\n      tag_212\n        /* \"contracts/utils/Signatures.sol\":340:350  _signature */\n      dup3\n        /* \"contracts/utils/Signatures.sol\":296:331  _inputHash.toEthSignedMessageHash() */\n      tag_213\n        /* \"contracts/utils/Signatures.sol\":296:306  _inputHash */\n      dup6\n        /* \"contracts/utils/Signatures.sol\":296:329  _inputHash.toEthSignedMessageHash */\n      tag_214\n        /* \"contracts/utils/Signatures.sol\":296:331  _inputHash.toEthSignedMessageHash() */\n      jump\t// in\n    tag_213:\n        /* \"contracts/utils/Signatures.sol\":296:339  _inputHash.toEthSignedMessageHash().recover */\n      tag_215\n      swap1\n        /* \"contracts/utils/Signatures.sol\":296:351  _inputHash.toEthSignedMessageHash().recover(_signature) */\n      swap2\n      swap1\n      0xffffffff\n      and\n      jump\t// in\n    tag_212:\n        /* \"contracts/utils/Signatures.sol\":289:351  return _inputHash.toEthSignedMessageHash().recover(_signature) */\n      swap1\n      pop\n        /* \"contracts/utils/Signatures.sol\":187:356  function getSigner(bytes32 _inputHash, bytes memory _signature) internal pure returns (address) {... */\n      swap3\n      swap2\n      pop\n      pop\n      jump\t// out\n        /* \"@openzeppelin/contracts/utils/cryptography/ECDSA.sol\":7256:7521  function toEthSignedMessageHash(bytes32 hash) internal pure returns (bytes32) {... */\n    tag_214:\n        /* \"@openzeppelin/contracts/utils/cryptography/ECDSA.sol\":7325:7332  bytes32 */\n      0x00\n        /* \"@openzeppelin/contracts/utils/cryptography/ECDSA.sol\":7508:7512  hash */\n      dup2\n        /* \"@openzeppelin/contracts/utils/cryptography/ECDSA.sol\":7455:7513  abi.encodePacked(\"\\x19Ethereum Signed Message:\\n32\", hash) */\n      add(0x20, mload(0x40))\n      tag_217\n      swap2\n      swap1\n      tag_218\n      jump\t// in\n    tag_217:\n      mload(0x40)\n      0x20\n      dup2\n      dup4\n      sub\n      sub\n      dup2\n      mstore\n      swap1\n      0x40\n      mstore\n        /* \"@openzeppelin/contracts/utils/cryptography/ECDSA.sol\":7445:7514  keccak256(abi.encodePacked(\"\\x19Ethereum Signed Message:\\n32\", hash)) */\n      dup1\n      mload\n      swap1\n      0x20\n      add\n      keccak256\n        /* \"@openzeppelin/contracts/utils/cryptography/ECDSA.sol\":7438:7514  return keccak256(abi.encodePacked(\"\\x19Ethereum Signed Message:\\n32\", hash)) */\n      swap1\n      pop\n        /* \"@openzeppelin/contracts/utils/cryptography/ECDSA.sol\":7256:7521  function toEthSignedMessageHash(bytes32 hash) internal pure returns (bytes32) {... */\n      swap2\n      swap1\n      pop\n      jump\t// out\n        /* \"@openzeppelin/contracts/utils/cryptography/ECDSA.sol\":3661:3888  function recover(bytes32 hash, bytes memory signature) internal pure returns (address) {... */\n    tag_215:\n        /* \"@openzeppelin/contracts/utils/cryptography/ECDSA.sol\":3739:3746  address */\n      0x00\n        /* \"@openzeppelin/contracts/utils/cryptography/ECDSA.sol\":3759:3776  address recovered */\n      dup1\n        /* \"@openzeppelin/contracts/utils/cryptography/ECDSA.sol\":3778:3796  RecoverError error */\n      0x00\n        /* \"@openzeppelin/contracts/utils/cryptography/ECDSA.sol\":3800:3827  tryRecover(hash, signature) */\n      tag_220\n        /* \"@openzeppelin/contracts/utils/cryptography/ECDSA.sol\":3811:3815  hash */\n      dup6\n        /* \"@openzeppelin/contracts/utils/cryptography/ECDSA.sol\":3817:3826  signature */\n      dup6\n        /* \"@openzeppelin/contracts/utils/cryptography/ECDSA.sol\":3800:3810  tryRecover */\n      tag_221\n        /* \"@openzeppelin/contracts/utils/cryptography/ECDSA.sol\":3800:3827  tryRecover(hash, signature) */\n      jump\t// in\n    tag_220:\n        /* \"@openzeppelin/contracts/utils/cryptography/ECDSA.sol\":3758:3827  (address recovered, RecoverError error) = tryRecover(hash, signature) */\n      swap2\n      pop\n      swap2\n      pop\n        /* \"@openzeppelin/contracts/utils/cryptography/ECDSA.sol\":3837:3855  _throwError(error) */\n      tag_222\n        /* \"@openzeppelin/contracts/utils/cryptography/ECDSA.sol\":3849:3854  error */\n      dup2\n        /* \"@openzeppelin/contracts/utils/cryptography/ECDSA.sol\":3837:3848  _throwError */\n      tag_223\n        /* \"@openzeppelin/contracts/utils/cryptography/ECDSA.sol\":3837:3855  _throwError(error) */\n      jump\t// in\n    tag_222:\n        /* \"@openzeppelin/contracts/utils/cryptography/ECDSA.sol\":3872:3881  recovered */\n      dup2\n        /* \"@openzeppelin/contracts/utils/cryptography/ECDSA.sol\":3865:3881  return recovered */\n      swap3\n      pop\n      pop\n      pop\n        /* \"@openzeppelin/contracts/utils/cryptography/ECDSA.sol\":3661:3888  function recover(bytes32 hash, bytes memory signature) internal pure returns (address) {... */\n      swap3\n      swap2\n      pop\n      pop\n      jump\t// out\n        /* \"@openzeppelin/contracts/utils/cryptography/ECDSA.sol\":2145:2875  function tryRecover(bytes32 hash, bytes memory signature) internal pure returns (address, RecoverError) {... */\n    tag_221:\n        /* \"@openzeppelin/contracts/utils/cryptography/ECDSA.sol\":2226:2233  address */\n      0x00\n        /* \"@openzeppelin/contracts/utils/cryptography/ECDSA.sol\":2235:2247  RecoverError */\n      dup1\n        /* \"@openzeppelin/contracts/utils/cryptography/ECDSA.sol\":2283:2285  65 */\n      0x41\n        /* \"@openzeppelin/contracts/utils/cryptography/ECDSA.sol\":2263:2272  signature */\n      dup4\n        /* \"@openzeppelin/contracts/utils/cryptography/ECDSA.sol\":2263:2279  signature.length */\n      mload\n        /* \"@openzeppelin/contracts/utils/cryptography/ECDSA.sol\":2263:2285  signature.length == 65 */\n      sub\n        /* \"@openzeppelin/contracts/utils/cryptography/ECDSA.sol\":2259:2869  if (signature.length == 65) {... */\n      tag_225\n      jumpi\n        /* \"@openzeppelin/contracts/utils/cryptography/ECDSA.sol\":2301:2310  bytes32 r */\n      0x00\n        /* \"@openzeppelin/contracts/utils/cryptography/ECDSA.sol\":2324:2333  bytes32 s */\n      dup1\n        /* \"@openzeppelin/contracts/utils/cryptography/ECDSA.sol\":2347:2354  uint8 v */\n      0x00\n        /* \"@openzeppelin/contracts/utils/cryptography/ECDSA.sol\":2599:2603  0x20 */\n      0x20\n        /* \"@openzeppelin/contracts/utils/cryptography/ECDSA.sol\":2588:2597  signature */\n      dup7\n        /* \"@openzeppelin/contracts/utils/cryptography/ECDSA.sol\":2584:2604  add(signature, 0x20) */\n      add\n        /* \"@openzeppelin/contracts/utils/cryptography/ECDSA.sol\":2578:2605  mload(add(signature, 0x20)) */\n      mload\n        /* \"@openzeppelin/contracts/utils/cryptography/ECDSA.sol\":2573:2605  r := mload(add(signature, 0x20)) */\n      swap3\n      pop\n        /* \"@openzeppelin/contracts/utils/cryptography/ECDSA.sol\":2648:2652  0x40 */\n      0x40\n        /* \"@openzeppelin/contracts/utils/cryptography/ECDSA.sol\":2637:2646  signature */\n      dup7\n        /* \"@openzeppelin/contracts/utils/cryptography/ECDSA.sol\":2633:2653  add(signature, 0x40) */\n      add\n        /* \"@openzeppelin/contracts/utils/cryptography/ECDSA.sol\":2627:2654  mload(add(signature, 0x40)) */\n      mload\n        /* \"@openzeppelin/contracts/utils/cryptography/ECDSA.sol\":2622:2654  s := mload(add(signature, 0x40)) */\n      swap2\n      pop\n        /* \"@openzeppelin/contracts/utils/cryptography/ECDSA.sol\":2705:2709  0x60 */\n      0x60\n        /* \"@openzeppelin/contracts/utils/cryptography/ECDSA.sol\":2694:2703  signature */\n      dup7\n        /* \"@openzeppelin/contracts/utils/cryptography/ECDSA.sol\":2690:2710  add(signature, 0x60) */\n      add\n        /* \"@openzeppelin/contracts/utils/cryptography/ECDSA.sol\":2684:2711  mload(add(signature, 0x60)) */\n      mload\n        /* \"@openzeppelin/contracts/utils/cryptography/ECDSA.sol\":2681:2682  0 */\n      0x00\n        /* \"@openzeppelin/contracts/utils/cryptography/ECDSA.sol\":2676:2712  byte(0, mload(add(signature, 0x60))) */\n      byte\n        /* \"@openzeppelin/contracts/utils/cryptography/ECDSA.sol\":2671:2712  v := byte(0, mload(add(signature, 0x60))) */\n      swap1\n      pop\n        /* \"@openzeppelin/contracts/utils/cryptography/ECDSA.sol\":2746:2771  tryRecover(hash, v, r, s) */\n      tag_226\n        /* \"@openzeppelin/contracts/utils/cryptography/ECDSA.sol\":2757:2761  hash */\n      dup8\n        /* \"@openzeppelin/contracts/utils/cryptography/ECDSA.sol\":2763:2764  v */\n      dup3\n        /* \"@openzeppelin/contracts/utils/cryptography/ECDSA.sol\":2766:2767  r */\n      dup6\n        /* \"@openzeppelin/contracts/utils/cryptography/ECDSA.sol\":2769:2770  s */\n      dup6\n        /* \"@openzeppelin/contracts/utils/cryptography/ECDSA.sol\":2746:2756  tryRecover */\n      tag_227\n        /* \"@openzeppelin/contracts/utils/cryptography/ECDSA.sol\":2746:2771  tryRecover(hash, v, r, s) */\n      jump\t// in\n    tag_226:\n        /* \"@openzeppelin/contracts/utils/cryptography/ECDSA.sol\":2739:2771  return tryRecover(hash, v, r, s) */\n      swap5\n      pop\n      swap5\n      pop\n      pop\n      pop\n      pop\n      jump(tag_224)\n        /* \"@openzeppelin/contracts/utils/cryptography/ECDSA.sol\":2259:2869  if (signature.length == 65) {... */\n    tag_225:\n        /* \"@openzeppelin/contracts/utils/cryptography/ECDSA.sol\":2818:2819  0 */\n      0x00\n        /* \"@openzeppelin/contracts/utils/cryptography/ECDSA.sol\":2822:2857  RecoverError.InvalidSignatureLength */\n      0x02\n        /* \"@openzeppelin/contracts/utils/cryptography/ECDSA.sol\":2802:2858  return (address(0), RecoverError.InvalidSignatureLength) */\n      swap2\n      pop\n      swap2\n      pop\n        /* \"@openzeppelin/contracts/utils/cryptography/ECDSA.sol\":2145:2875  function tryRecover(bytes32 hash, bytes memory signature) internal pure returns (address, RecoverError) {... */\n    tag_224:\n      swap3\n      pop\n      swap3\n      swap1\n      pop\n      jump\t// out\n        /* \"@openzeppelin/contracts/utils/cryptography/ECDSA.sol\":570:1081  function _throwError(RecoverError error) private pure {... */\n    tag_223:\n        /* \"@openzeppelin/contracts/utils/cryptography/ECDSA.sol\":647:667  RecoverError.NoError */\n      0x00\n        /* \"@openzeppelin/contracts/utils/cryptography/ECDSA.sol\":638:667  error == RecoverError.NoError */\n      0x04\n      dup2\n      gt\n      iszero\n      tag_230\n      jumpi\n      tag_231\n      tag_232\n      jump\t// in\n    tag_231:\n    tag_230:\n        /* \"@openzeppelin/contracts/utils/cryptography/ECDSA.sol\":638:643  error */\n      dup2\n        /* \"@openzeppelin/contracts/utils/cryptography/ECDSA.sol\":638:667  error == RecoverError.NoError */\n      0x04\n      dup2\n      gt\n      iszero\n      tag_233\n      jumpi\n      tag_234\n      tag_232\n      jump\t// in\n    tag_234:\n    tag_233:\n      sub\n        /* \"@openzeppelin/contracts/utils/cryptography/ECDSA.sol\":634:1075  if (error == RecoverError.NoError) {... */\n      iszero\n        /* \"@openzeppelin/contracts/utils/cryptography/ECDSA.sol\":683:690  return; */\n      tag_229\n        /* \"@openzeppelin/contracts/utils/cryptography/ECDSA.sol\":634:1075  if (error == RecoverError.NoError) {... */\n      jumpi\n        /* \"@openzeppelin/contracts/utils/cryptography/ECDSA.sol\":743:772  RecoverError.InvalidSignature */\n      0x01\n        /* \"@openzeppelin/contracts/utils/cryptography/ECDSA.sol\":734:772  error == RecoverError.InvalidSignature */\n      0x04\n      dup2\n      gt\n      iszero\n      tag_237\n      jumpi\n      tag_238\n      tag_232\n      jump\t// in\n    tag_238:\n    tag_237:\n        /* \"@openzeppelin/contracts/utils/cryptography/ECDSA.sol\":734:739  error */\n      dup2\n        /* \"@openzeppelin/contracts/utils/cryptography/ECDSA.sol\":734:772  error == RecoverError.InvalidSignature */\n      0x04\n      dup2\n      gt\n      iszero\n      tag_239\n      jumpi\n      tag_240\n      tag_232\n      jump\t// in\n    tag_240:\n    tag_239:\n      sub\n        /* \"@openzeppelin/contracts/utils/cryptography/ECDSA.sol\":730:1075  if (error == RecoverError.InvalidSignature) {... */\n      tag_241\n      jumpi\n        /* \"@openzeppelin/contracts/utils/cryptography/ECDSA.sol\":788:822  revert(\"ECDSA: invalid signature\") */\n      mload(0x40)\n      0x08c379a000000000000000000000000000000000000000000000000000000000\n      dup2\n      mstore\n      0x04\n      add\n      tag_242\n      swap1\n      tag_243\n      jump\t// in\n    tag_242:\n      mload(0x40)\n      dup1\n      swap2\n      sub\n      swap1\n      revert\n        /* \"@openzeppelin/contracts/utils/cryptography/ECDSA.sol\":730:1075  if (error == RecoverError.InvalidSignature) {... */\n    tag_241:\n        /* \"@openzeppelin/contracts/utils/cryptography/ECDSA.sol\":852:887  RecoverError.InvalidSignatureLength */\n      0x02\n        /* \"@openzeppelin/contracts/utils/cryptography/ECDSA.sol\":843:887  error == RecoverError.InvalidSignatureLength */\n      0x04\n      dup2\n      gt\n      iszero\n      tag_245\n      jumpi\n      tag_246\n      tag_232\n      jump\t// in\n    tag_246:\n    tag_245:\n        /* \"@openzeppelin/contracts/utils/cryptography/ECDSA.sol\":843:848  error */\n      dup2\n        /* \"@openzeppelin/contracts/utils/cryptography/ECDSA.sol\":843:887  error == RecoverError.InvalidSignatureLength */\n      0x04\n      dup2\n      gt\n      iszero\n      tag_247\n      jumpi\n      tag_248\n      tag_232\n      jump\t// in\n    tag_248:\n    tag_247:\n      sub\n        /* \"@openzeppelin/contracts/utils/cryptography/ECDSA.sol\":839:1075  if (error == RecoverError.InvalidSignatureLength) {... */\n      tag_249\n      jumpi\n        /* \"@openzeppelin/contracts/utils/cryptography/ECDSA.sol\":903:944  revert(\"ECDSA: invalid signature length\") */\n      mload(0x40)\n      0x08c379a000000000000000000000000000000000000000000000000000000000\n      dup2\n      mstore\n      0x04\n      add\n      tag_250\n      swap1\n      tag_251\n      jump\t// in\n    tag_250:\n      mload(0x40)\n      dup1\n      swap2\n      sub\n      swap1\n      revert\n        /* \"@openzeppelin/contracts/utils/cryptography/ECDSA.sol\":839:1075  if (error == RecoverError.InvalidSignatureLength) {... */\n    tag_249:\n        /* \"@openzeppelin/contracts/utils/cryptography/ECDSA.sol\":974:1004  RecoverError.InvalidSignatureS */\n      0x03\n        /* \"@openzeppelin/contracts/utils/cryptography/ECDSA.sol\":965:1004  error == RecoverError.InvalidSignatureS */\n      0x04\n      dup2\n      gt\n      iszero\n      tag_253\n      jumpi\n      tag_254\n      tag_232\n      jump\t// in\n    tag_254:\n    tag_253:\n        /* \"@openzeppelin/contracts/utils/cryptography/ECDSA.sol\":965:970  error */\n      dup2\n        /* \"@openzeppelin/contracts/utils/cryptography/ECDSA.sol\":965:1004  error == RecoverError.InvalidSignatureS */\n      0x04\n      dup2\n      gt\n      iszero\n      tag_255\n      jumpi\n      tag_256\n      tag_232\n      jump\t// in\n    tag_256:\n    tag_255:\n      sub\n        /* \"@openzeppelin/contracts/utils/cryptography/ECDSA.sol\":961:1075  if (error == RecoverError.InvalidSignatureS) {... */\n      tag_257\n      jumpi\n        /* \"@openzeppelin/contracts/utils/cryptography/ECDSA.sol\":1020:1064  revert(\"ECDSA: invalid signature 's' value\") */\n      mload(0x40)\n      0x08c379a000000000000000000000000000000000000000000000000000000000\n      dup2\n      mstore\n      0x04\n      add\n      tag_258\n      swap1\n      tag_259\n      jump\t// in\n    tag_258:\n      mload(0x40)\n      dup1\n      swap2\n      sub\n      swap1\n      revert\n        /* \"@openzeppelin/contracts/utils/cryptography/ECDSA.sol\":961:1075  if (error == RecoverError.InvalidSignatureS) {... */\n    tag_257:\n        /* \"@openzeppelin/contracts/utils/cryptography/ECDSA.sol\":570:1081  function _throwError(RecoverError error) private pure {... */\n    tag_229:\n      pop\n      jump\t// out\n        /* \"@openzeppelin/contracts/utils/cryptography/ECDSA.sol\":5069:6563  function tryRecover(... */\n    tag_227:\n        /* \"@openzeppelin/contracts/utils/cryptography/ECDSA.sol\":5195:5202  address */\n      0x00\n        /* \"@openzeppelin/contracts/utils/cryptography/ECDSA.sol\":5204:5216  RecoverError */\n      dup1\n        /* \"@openzeppelin/contracts/utils/cryptography/ECDSA.sol\":6119:6185  0x7FFFFFFFFFFFFFFFFFFFFFFFFFFFFFFF5D576E7357A4501DDFE92F46681B20A0 */\n      0x7fffffffffffffffffffffffffffffff5d576e7357a4501ddfe92f46681b20a0\n        /* \"@openzeppelin/contracts/utils/cryptography/ECDSA.sol\":6114:6115  s */\n      dup4\n        /* \"@openzeppelin/contracts/utils/cryptography/ECDSA.sol\":6106:6116  uint256(s) */\n      0x00\n      shr\n        /* \"@openzeppelin/contracts/utils/cryptography/ECDSA.sol\":6106:6185  uint256(s) > 0x7FFFFFFFFFFFFFFFFFFFFFFFFFFFFFFF5D576E7357A4501DDFE92F46681B20A0 */\n      gt\n        /* \"@openzeppelin/contracts/utils/cryptography/ECDSA.sol\":6102:6263  if (uint256(s) > 0x7FFFFFFFFFFFFFFFFFFFFFFFFFFFFFFF5D576E7357A4501DDFE92F46681B20A0) {... */\n      iszero\n      tag_261\n      jumpi\n        /* \"@openzeppelin/contracts/utils/cryptography/ECDSA.sol\":6217:6218  0 */\n      0x00\n        /* \"@openzeppelin/contracts/utils/cryptography/ECDSA.sol\":6221:6251  RecoverError.InvalidSignatureS */\n      0x03\n        /* \"@openzeppelin/contracts/utils/cryptography/ECDSA.sol\":6201:6252  return (address(0), RecoverError.InvalidSignatureS) */\n      swap2\n      pop\n      swap2\n      pop\n      jump(tag_260)\n        /* \"@openzeppelin/contracts/utils/cryptography/ECDSA.sol\":6102:6263  if (uint256(s) > 0x7FFFFFFFFFFFFFFFFFFFFFFFFFFFFFFF5D576E7357A4501DDFE92F46681B20A0) {... */\n    tag_261:\n        /* \"@openzeppelin/contracts/utils/cryptography/ECDSA.sol\":6357:6371  address signer */\n      0x00\n        /* \"@openzeppelin/contracts/utils/cryptography/ECDSA.sol\":6374:6398  ecrecover(hash, v, r, s) */\n      0x01\n        /* \"@openzeppelin/contracts/utils/cryptography/ECDSA.sol\":6384:6388  hash */\n      dup8\n        /* \"@openzeppelin/contracts/utils/cryptography/ECDSA.sol\":6390:6391  v */\n      dup8\n        /* \"@openzeppelin/contracts/utils/cryptography/ECDSA.sol\":6393:6394  r */\n      dup8\n        /* \"@openzeppelin/contracts/utils/cryptography/ECDSA.sol\":6396:6397  s */\n      dup8\n        /* \"@openzeppelin/contracts/utils/cryptography/ECDSA.sol\":6374:6398  ecrecover(hash, v, r, s) */\n      mload(0x40)\n      0x00\n      dup2\n      mstore\n      0x20\n      add\n      0x40\n      mstore\n      mload(0x40)\n      tag_262\n      swap5\n      swap4\n      swap3\n      swap2\n      swap1\n      tag_263\n      jump\t// in\n    tag_262:\n      0x20\n      mload(0x40)\n      0x20\n      dup2\n      sub\n      swap1\n      dup1\n      dup5\n      sub\n      swap1\n      dup6\n      gas\n      staticcall\n      iszero\n      dup1\n      iszero\n      tag_265\n      jumpi\n      returndatasize\n      0x00\n      dup1\n      returndatacopy\n      revert(0x00, returndatasize)\n    tag_265:\n      pop\n      pop\n      pop\n      mload(sub(mload(0x40), 0x20))\n        /* \"@openzeppelin/contracts/utils/cryptography/ECDSA.sol\":6357:6398  address signer = ecrecover(hash, v, r, s) */\n      swap1\n      pop\n        /* \"@openzeppelin/contracts/utils/cryptography/ECDSA.sol\":6430:6431  0 */\n      0x00\n        /* \"@openzeppelin/contracts/utils/cryptography/ECDSA.sol\":6412:6432  signer == address(0) */\n      0xffffffffffffffffffffffffffffffffffffffff\n      and\n        /* \"@openzeppelin/contracts/utils/cryptography/ECDSA.sol\":6412:6418  signer */\n      dup2\n        /* \"@openzeppelin/contracts/utils/cryptography/ECDSA.sol\":6412:6432  signer == address(0) */\n      0xffffffffffffffffffffffffffffffffffffffff\n      and\n      sub\n        /* \"@openzeppelin/contracts/utils/cryptography/ECDSA.sol\":6408:6509  if (signer == address(0)) {... */\n      tag_266\n      jumpi\n        /* \"@openzeppelin/contracts/utils/cryptography/ECDSA.sol\":6464:6465  0 */\n      0x00\n        /* \"@openzeppelin/contracts/utils/cryptography/ECDSA.sol\":6468:6497  RecoverError.InvalidSignature */\n      0x01\n        /* \"@openzeppelin/contracts/utils/cryptography/ECDSA.sol\":6448:6498  return (address(0), RecoverError.InvalidSignature) */\n      swap3\n      pop\n      swap3\n      pop\n      pop\n      jump(tag_260)\n        /* \"@openzeppelin/contracts/utils/cryptography/ECDSA.sol\":6408:6509  if (signer == address(0)) {... */\n    tag_266:\n        /* \"@openzeppelin/contracts/utils/cryptography/ECDSA.sol\":6527:6533  signer */\n      dup1\n        /* \"@openzeppelin/contracts/utils/cryptography/ECDSA.sol\":6535:6555  RecoverError.NoError */\n      0x00\n        /* \"@openzeppelin/contracts/utils/cryptography/ECDSA.sol\":6519:6556  return (signer, RecoverError.NoError) */\n      swap3\n      pop\n      swap3\n      pop\n      pop\n        /* \"@openzeppelin/contracts/utils/cryptography/ECDSA.sol\":5069:6563  function tryRecover(... */\n    tag_260:\n      swap5\n      pop\n      swap5\n      swap3\n      pop\n      pop\n      pop\n      jump\t// out\n        /* \"#utility.yul\":7:82   */\n    tag_267:\n        /* \"#utility.yul\":40:46   */\n      0x00\n        /* \"#utility.yul\":73:75   */\n      0x40\n        /* \"#utility.yul\":67:76   */\n      mload\n        /* \"#utility.yul\":57:76   */\n      swap1\n      pop\n        /* \"#utility.yul\":7:82   */\n      swap1\n      jump\t// out\n        /* \"#utility.yul\":88:205   */\n    tag_268:\n        /* \"#utility.yul\":197:198   */\n      0x00\n        /* \"#utility.yul\":194:195   */\n      dup1\n        /* \"#utility.yul\":187:199   */\n      revert\n        /* \"#utility.yul\":211:328   */\n    tag_269:\n        /* \"#utility.yul\":320:321   */\n      0x00\n        /* \"#utility.yul\":317:318   */\n      dup1\n        /* \"#utility.yul\":310:322   */\n      revert\n        /* \"#utility.yul\":334:483   */\n    tag_270:\n        /* \"#utility.yul\":370:377   */\n      0x00\n        /* \"#utility.yul\":410:476   */\n      0xffffffff00000000000000000000000000000000000000000000000000000000\n        /* \"#utility.yul\":403:408   */\n      dup3\n        /* \"#utility.yul\":399:477   */\n      and\n        /* \"#utility.yul\":388:477   */\n      swap1\n      pop\n        /* \"#utility.yul\":334:483   */\n      swap2\n      swap1\n      pop\n      jump\t// out\n        /* \"#utility.yul\":489:609   */\n    tag_271:\n        /* \"#utility.yul\":561:584   */\n      tag_347\n        /* \"#utility.yul\":578:583   */\n      dup2\n        /* \"#utility.yul\":561:584   */\n      tag_270\n      jump\t// in\n    tag_347:\n        /* \"#utility.yul\":554:559   */\n      dup2\n        /* \"#utility.yul\":551:585   */\n      eq\n        /* \"#utility.yul\":541:603   */\n      tag_348\n      jumpi\n        /* \"#utility.yul\":599:600   */\n      0x00\n        /* \"#utility.yul\":596:597   */\n      dup1\n        /* \"#utility.yul\":589:601   */\n      revert\n        /* \"#utility.yul\":541:603   */\n    tag_348:\n        /* \"#utility.yul\":489:609   */\n      pop\n      jump\t// out\n        /* \"#utility.yul\":615:752   */\n    tag_272:\n        /* \"#utility.yul\":660:665   */\n      0x00\n        /* \"#utility.yul\":698:704   */\n      dup2\n        /* \"#utility.yul\":685:705   */\n      calldataload\n        /* \"#utility.yul\":676:705   */\n      swap1\n      pop\n        /* \"#utility.yul\":714:746   */\n      tag_350\n        /* \"#utility.yul\":740:745   */\n      dup2\n        /* \"#utility.yul\":714:746   */\n      tag_271\n      jump\t// in\n    tag_350:\n        /* \"#utility.yul\":615:752   */\n      swap3\n      swap2\n      pop\n      pop\n      jump\t// out\n        /* \"#utility.yul\":758:1085   */\n    tag_14:\n        /* \"#utility.yul\":816:822   */\n      0x00\n        /* \"#utility.yul\":865:867   */\n      0x20\n        /* \"#utility.yul\":853:862   */\n      dup3\n        /* \"#utility.yul\":844:851   */\n      dup5\n        /* \"#utility.yul\":840:863   */\n      sub\n        /* \"#utility.yul\":836:868   */\n      slt\n        /* \"#utility.yul\":833:952   */\n      iszero\n      tag_352\n      jumpi\n        /* \"#utility.yul\":871:950   */\n      tag_353\n      tag_268\n      jump\t// in\n    tag_353:\n        /* \"#utility.yul\":833:952   */\n    tag_352:\n        /* \"#utility.yul\":991:992   */\n      0x00\n        /* \"#utility.yul\":1016:1068   */\n      tag_354\n        /* \"#utility.yul\":1060:1067   */\n      dup5\n        /* \"#utility.yul\":1051:1057   */\n      dup3\n        /* \"#utility.yul\":1040:1049   */\n      dup6\n        /* \"#utility.yul\":1036:1058   */\n      add\n        /* \"#utility.yul\":1016:1068   */\n      tag_272\n      jump\t// in\n    tag_354:\n        /* \"#utility.yul\":1006:1068   */\n      swap2\n      pop\n        /* \"#utility.yul\":962:1078   */\n      pop\n        /* \"#utility.yul\":758:1085   */\n      swap3\n      swap2\n      pop\n      pop\n      jump\t// out\n        /* \"#utility.yul\":1091:1181   */\n    tag_273:\n        /* \"#utility.yul\":1125:1132   */\n      0x00\n        /* \"#utility.yul\":1168:1173   */\n      dup2\n        /* \"#utility.yul\":1161:1174   */\n      iszero\n        /* \"#utility.yul\":1154:1175   */\n      iszero\n        /* \"#utility.yul\":1143:1175   */\n      swap1\n      pop\n        /* \"#utility.yul\":1091:1181   */\n      swap2\n      swap1\n      pop\n      jump\t// out\n        /* \"#utility.yul\":1187:1296   */\n    tag_274:\n        /* \"#utility.yul\":1268:1289   */\n      tag_357\n        /* \"#utility.yul\":1283:1288   */\n      dup2\n        /* \"#utility.yul\":1268:1289   */\n      tag_273\n      jump\t// in\n    tag_357:\n        /* \"#utility.yul\":1263:1266   */\n      dup3\n        /* \"#utility.yul\":1256:1290   */\n      mstore\n        /* \"#utility.yul\":1187:1296   */\n      pop\n      pop\n      jump\t// out\n        /* \"#utility.yul\":1302:1512   */\n    tag_17:\n        /* \"#utility.yul\":1389:1393   */\n      0x00\n        /* \"#utility.yul\":1427:1429   */\n      0x20\n        /* \"#utility.yul\":1416:1425   */\n      dup3\n        /* \"#utility.yul\":1412:1430   */\n      add\n        /* \"#utility.yul\":1404:1430   */\n      swap1\n      pop\n        /* \"#utility.yul\":1440:1505   */\n      tag_359\n        /* \"#utility.yul\":1502:1503   */\n      0x00\n        /* \"#utility.yul\":1491:1500   */\n      dup4\n        /* \"#utility.yul\":1487:1504   */\n      add\n        /* \"#utility.yul\":1478:1484   */\n      dup5\n        /* \"#utility.yul\":1440:1505   */\n      tag_274\n      jump\t// in\n    tag_359:\n        /* \"#utility.yul\":1302:1512   */\n      swap3\n      swap2\n      pop\n      pop\n      jump\t// out\n        /* \"#utility.yul\":1518:1595   */\n    tag_275:\n        /* \"#utility.yul\":1555:1562   */\n      0x00\n        /* \"#utility.yul\":1584:1589   */\n      dup2\n        /* \"#utility.yul\":1573:1589   */\n      swap1\n      pop\n        /* \"#utility.yul\":1518:1595   */\n      swap2\n      swap1\n      pop\n      jump\t// out\n        /* \"#utility.yul\":1601:1719   */\n    tag_276:\n        /* \"#utility.yul\":1688:1712   */\n      tag_362\n        /* \"#utility.yul\":1706:1711   */\n      dup2\n        /* \"#utility.yul\":1688:1712   */\n      tag_275\n      jump\t// in\n    tag_362:\n        /* \"#utility.yul\":1683:1686   */\n      dup3\n        /* \"#utility.yul\":1676:1713   */\n      mstore\n        /* \"#utility.yul\":1601:1719   */\n      pop\n      pop\n      jump\t// out\n        /* \"#utility.yul\":1725:1947   */\n    tag_21:\n        /* \"#utility.yul\":1818:1822   */\n      0x00\n        /* \"#utility.yul\":1856:1858   */\n      0x20\n        /* \"#utility.yul\":1845:1854   */\n      dup3\n        /* \"#utility.yul\":1841:1859   */\n      add\n        /* \"#utility.yul\":1833:1859   */\n      swap1\n      pop\n        /* \"#utility.yul\":1869:1940   */\n      tag_364\n        /* \"#utility.yul\":1937:1938   */\n      0x00\n        /* \"#utility.yul\":1926:1935   */\n      dup4\n        /* \"#utility.yul\":1922:1939   */\n      add\n        /* \"#utility.yul\":1913:1919   */\n      dup5\n        /* \"#utility.yul\":1869:1940   */\n      tag_276\n      jump\t// in\n    tag_364:\n        /* \"#utility.yul\":1725:1947   */\n      swap3\n      swap2\n      pop\n      pop\n      jump\t// out\n        /* \"#utility.yul\":1953:2070   */\n    tag_277:\n        /* \"#utility.yul\":2062:2063   */\n      0x00\n        /* \"#utility.yul\":2059:2060   */\n      dup1\n        /* \"#utility.yul\":2052:2064   */\n      revert\n        /* \"#utility.yul\":2076:2193   */\n    tag_278:\n        /* \"#utility.yul\":2185:2186   */\n      0x00\n        /* \"#utility.yul\":2182:2183   */\n      dup1\n        /* \"#utility.yul\":2175:2187   */\n      revert\n        /* \"#utility.yul\":2199:2316   */\n    tag_279:\n        /* \"#utility.yul\":2308:2309   */\n      0x00\n        /* \"#utility.yul\":2305:2306   */\n      dup1\n        /* \"#utility.yul\":2298:2310   */\n      revert\n        /* \"#utility.yul\":2339:2907   */\n    tag_280:\n        /* \"#utility.yul\":2412:2420   */\n      0x00\n        /* \"#utility.yul\":2422:2428   */\n      dup1\n        /* \"#utility.yul\":2472:2475   */\n      dup4\n        /* \"#utility.yul\":2465:2469   */\n      0x1f\n        /* \"#utility.yul\":2457:2463   */\n      dup5\n        /* \"#utility.yul\":2453:2470   */\n      add\n        /* \"#utility.yul\":2449:2476   */\n      slt\n        /* \"#utility.yul\":2439:2561   */\n      tag_369\n      jumpi\n        /* \"#utility.yul\":2480:2559   */\n      tag_370\n      tag_277\n      jump\t// in\n    tag_370:\n        /* \"#utility.yul\":2439:2561   */\n    tag_369:\n        /* \"#utility.yul\":2593:2599   */\n      dup3\n        /* \"#utility.yul\":2580:2600   */\n      calldataload\n        /* \"#utility.yul\":2570:2600   */\n      swap1\n      pop\n        /* \"#utility.yul\":2623:2641   */\n      0xffffffffffffffff\n        /* \"#utility.yul\":2615:2621   */\n      dup2\n        /* \"#utility.yul\":2612:2642   */\n      gt\n        /* \"#utility.yul\":2609:2726   */\n      iszero\n      tag_371\n      jumpi\n        /* \"#utility.yul\":2645:2724   */\n      tag_372\n      tag_278\n      jump\t// in\n    tag_372:\n        /* \"#utility.yul\":2609:2726   */\n    tag_371:\n        /* \"#utility.yul\":2759:2763   */\n      0x20\n        /* \"#utility.yul\":2751:2757   */\n      dup4\n        /* \"#utility.yul\":2747:2764   */\n      add\n        /* \"#utility.yul\":2735:2764   */\n      swap2\n      pop\n        /* \"#utility.yul\":2813:2816   */\n      dup4\n        /* \"#utility.yul\":2805:2809   */\n      0x20\n        /* \"#utility.yul\":2797:2803   */\n      dup3\n        /* \"#utility.yul\":2793:2810   */\n      mul\n        /* \"#utility.yul\":2783:2791   */\n      dup4\n        /* \"#utility.yul\":2779:2811   */\n      add\n        /* \"#utility.yul\":2776:2817   */\n      gt\n        /* \"#utility.yul\":2773:2901   */\n      iszero\n      tag_373\n      jumpi\n        /* \"#utility.yul\":2820:2899   */\n      tag_374\n      tag_279\n      jump\t// in\n    tag_374:\n        /* \"#utility.yul\":2773:2901   */\n    tag_373:\n        /* \"#utility.yul\":2339:2907   */\n      swap3\n      pop\n      swap3\n      swap1\n      pop\n      jump\t// out\n        /* \"#utility.yul\":2913:3035   */\n    tag_281:\n        /* \"#utility.yul\":2986:3010   */\n      tag_376\n        /* \"#utility.yul\":3004:3009   */\n      dup2\n        /* \"#utility.yul\":2986:3010   */\n      tag_275\n      jump\t// in\n    tag_376:\n        /* \"#utility.yul\":2979:2984   */\n      dup2\n        /* \"#utility.yul\":2976:3011   */\n      eq\n        /* \"#utility.yul\":2966:3029   */\n      tag_377\n      jumpi\n        /* \"#utility.yul\":3025:3026   */\n      0x00\n        /* \"#utility.yul\":3022:3023   */\n      dup1\n        /* \"#utility.yul\":3015:3027   */\n      revert\n        /* \"#utility.yul\":2966:3029   */\n    tag_377:\n        /* \"#utility.yul\":2913:3035   */\n      pop\n      jump\t// out\n        /* \"#utility.yul\":3041:3180   */\n    tag_282:\n        /* \"#utility.yul\":3087:3092   */\n      0x00\n        /* \"#utility.yul\":3125:3131   */\n      dup2\n        /* \"#utility.yul\":3112:3132   */\n      calldataload\n        /* \"#utility.yul\":3103:3132   */\n      swap1\n      pop\n        /* \"#utility.yul\":3141:3174   */\n      tag_379\n        /* \"#utility.yul\":3168:3173   */\n      dup2\n        /* \"#utility.yul\":3141:3174   */\n      tag_281\n      jump\t// in\n    tag_379:\n        /* \"#utility.yul\":3041:3180   */\n      swap3\n      swap2\n      pop\n      pop\n      jump\t// out\n        /* \"#utility.yul\":3201:3780   */\n    tag_283:\n        /* \"#utility.yul\":3285:3293   */\n      0x00\n        /* \"#utility.yul\":3295:3301   */\n      dup1\n        /* \"#utility.yul\":3345:3348   */\n      dup4\n        /* \"#utility.yul\":3338:3342   */\n      0x1f\n        /* \"#utility.yul\":3330:3336   */\n      dup5\n        /* \"#utility.yul\":3326:3343   */\n      add\n        /* \"#utility.yul\":3322:3349   */\n      slt\n        /* \"#utility.yul\":3312:3434   */\n      tag_381\n      jumpi\n        /* \"#utility.yul\":3353:3432   */\n      tag_382\n      tag_277\n      jump\t// in\n    tag_382:\n        /* \"#utility.yul\":3312:3434   */\n    tag_381:\n        /* \"#utility.yul\":3466:3472   */\n      dup3\n        /* \"#utility.yul\":3453:3473   */\n      calldataload\n        /* \"#utility.yul\":3443:3473   */\n      swap1\n      pop\n        /* \"#utility.yul\":3496:3514   */\n      0xffffffffffffffff\n        /* \"#utility.yul\":3488:3494   */\n      dup2\n        /* \"#utility.yul\":3485:3515   */\n      gt\n        /* \"#utility.yul\":3482:3599   */\n      iszero\n      tag_383\n      jumpi\n        /* \"#utility.yul\":3518:3597   */\n      tag_384\n      tag_278\n      jump\t// in\n    tag_384:\n        /* \"#utility.yul\":3482:3599   */\n    tag_383:\n        /* \"#utility.yul\":3632:3636   */\n      0x20\n        /* \"#utility.yul\":3624:3630   */\n      dup4\n        /* \"#utility.yul\":3620:3637   */\n      add\n        /* \"#utility.yul\":3608:3637   */\n      swap2\n      pop\n        /* \"#utility.yul\":3686:3689   */\n      dup4\n        /* \"#utility.yul\":3678:3682   */\n      0x20\n        /* \"#utility.yul\":3670:3676   */\n      dup3\n        /* \"#utility.yul\":3666:3683   */\n      mul\n        /* \"#utility.yul\":3656:3664   */\n      dup4\n        /* \"#utility.yul\":3652:3684   */\n      add\n        /* \"#utility.yul\":3649:3690   */\n      gt\n        /* \"#utility.yul\":3646:3774   */\n      iszero\n      tag_385\n      jumpi\n        /* \"#utility.yul\":3693:3772   */\n      tag_386\n      tag_279\n      jump\t// in\n    tag_386:\n        /* \"#utility.yul\":3646:3774   */\n    tag_385:\n        /* \"#utility.yul\":3201:3780   */\n      swap3\n      pop\n      swap3\n      swap1\n      pop\n      jump\t// out\n        /* \"#utility.yul\":3786:4887   */\n    tag_24:\n        /* \"#utility.yul\":3928:3934   */\n      0x00\n        /* \"#utility.yul\":3936:3942   */\n      dup1\n        /* \"#utility.yul\":3944:3950   */\n      0x00\n        /* \"#utility.yul\":3952:3958   */\n      dup1\n        /* \"#utility.yul\":3960:3966   */\n      0x00\n        /* \"#utility.yul\":4009:4011   */\n      0x60\n        /* \"#utility.yul\":3997:4006   */\n      dup7\n        /* \"#utility.yul\":3988:3995   */\n      dup9\n        /* \"#utility.yul\":3984:4007   */\n      sub\n        /* \"#utility.yul\":3980:4012   */\n      slt\n        /* \"#utility.yul\":3977:4096   */\n      iszero\n      tag_388\n      jumpi\n        /* \"#utility.yul\":4015:4094   */\n      tag_389\n      tag_268\n      jump\t// in\n    tag_389:\n        /* \"#utility.yul\":3977:4096   */\n    tag_388:\n        /* \"#utility.yul\":4163:4164   */\n      0x00\n        /* \"#utility.yul\":4152:4161   */\n      dup7\n        /* \"#utility.yul\":4148:4165   */\n      add\n        /* \"#utility.yul\":4135:4166   */\n      calldataload\n        /* \"#utility.yul\":4193:4211   */\n      0xffffffffffffffff\n        /* \"#utility.yul\":4185:4191   */\n      dup2\n        /* \"#utility.yul\":4182:4212   */\n      gt\n        /* \"#utility.yul\":4179:4296   */\n      iszero\n      tag_390\n      jumpi\n        /* \"#utility.yul\":4215:4294   */\n      tag_391\n      tag_269\n      jump\t// in\n    tag_391:\n        /* \"#utility.yul\":4179:4296   */\n    tag_390:\n        /* \"#utility.yul\":4328:4408   */\n      tag_392\n        /* \"#utility.yul\":4400:4407   */\n      dup9\n        /* \"#utility.yul\":4391:4397   */\n      dup3\n        /* \"#utility.yul\":4380:4389   */\n      dup10\n        /* \"#utility.yul\":4376:4398   */\n      add\n        /* \"#utility.yul\":4328:4408   */\n      tag_280\n      jump\t// in\n    tag_392:\n        /* \"#utility.yul\":4310:4408   */\n      swap6\n      pop\n      swap6\n      pop\n        /* \"#utility.yul\":4106:4418   */\n      pop\n        /* \"#utility.yul\":4457:4459   */\n      0x20\n        /* \"#utility.yul\":4483:4536   */\n      tag_393\n        /* \"#utility.yul\":4528:4535   */\n      dup9\n        /* \"#utility.yul\":4519:4525   */\n      dup3\n        /* \"#utility.yul\":4508:4517   */\n      dup10\n        /* \"#utility.yul\":4504:4526   */\n      add\n        /* \"#utility.yul\":4483:4536   */\n      tag_282\n      jump\t// in\n    tag_393:\n        /* \"#utility.yul\":4473:4536   */\n      swap4\n      pop\n        /* \"#utility.yul\":4428:4546   */\n      pop\n        /* \"#utility.yul\":4613:4615   */\n      0x40\n        /* \"#utility.yul\":4602:4611   */\n      dup7\n        /* \"#utility.yul\":4598:4616   */\n      add\n        /* \"#utility.yul\":4585:4617   */\n      calldataload\n        /* \"#utility.yul\":4644:4662   */\n      0xffffffffffffffff\n        /* \"#utility.yul\":4636:4642   */\n      dup2\n        /* \"#utility.yul\":4633:4663   */\n      gt\n        /* \"#utility.yul\":4630:4747   */\n      iszero\n      tag_394\n      jumpi\n        /* \"#utility.yul\":4666:4745   */\n      tag_395\n      tag_269\n      jump\t// in\n    tag_395:\n        /* \"#utility.yul\":4630:4747   */\n    tag_394:\n        /* \"#utility.yul\":4779:4870   */\n      tag_396\n        /* \"#utility.yul\":4862:4869   */\n      dup9\n        /* \"#utility.yul\":4853:4859   */\n      dup3\n        /* \"#utility.yul\":4842:4851   */\n      dup10\n        /* \"#utility.yul\":4838:4860   */\n      add\n        /* \"#utility.yul\":4779:4870   */\n      tag_283\n      jump\t// in\n    tag_396:\n        /* \"#utility.yul\":4761:4870   */\n      swap3\n      pop\n      swap3\n      pop\n        /* \"#utility.yul\":4556:4880   */\n      pop\n        /* \"#utility.yul\":3786:4887   */\n      swap3\n      swap6\n      pop\n      swap3\n      swap6\n      swap1\n      swap4\n      pop\n      jump\t// out\n        /* \"#utility.yul\":4893:5764   */\n    tag_28:\n        /* \"#utility.yul\":5008:5014   */\n      0x00\n        /* \"#utility.yul\":5016:5022   */\n      dup1\n        /* \"#utility.yul\":5024:5030   */\n      0x00\n        /* \"#utility.yul\":5032:5038   */\n      dup1\n        /* \"#utility.yul\":5081:5083   */\n      0x60\n        /* \"#utility.yul\":5069:5078   */\n      dup6\n        /* \"#utility.yul\":5060:5067   */\n      dup8\n        /* \"#utility.yul\":5056:5079   */\n      sub\n        /* \"#utility.yul\":5052:5084   */\n      slt\n        /* \"#utility.yul\":5049:5168   */\n      iszero\n      tag_398\n      jumpi\n        /* \"#utility.yul\":5087:5166   */\n      tag_399\n      tag_268\n      jump\t// in\n    tag_399:\n        /* \"#utility.yul\":5049:5168   */\n    tag_398:\n        /* \"#utility.yul\":5207:5208   */\n      0x00\n        /* \"#utility.yul\":5232:5285   */\n      tag_400\n        /* \"#utility.yul\":5277:5284   */\n      dup8\n        /* \"#utility.yul\":5268:5274   */\n      dup3\n        /* \"#utility.yul\":5257:5266   */\n      dup9\n        /* \"#utility.yul\":5253:5275   */\n      add\n        /* \"#utility.yul\":5232:5285   */\n      tag_282\n      jump\t// in\n    tag_400:\n        /* \"#utility.yul\":5222:5285   */\n      swap5\n      pop\n        /* \"#utility.yul\":5178:5295   */\n      pop\n        /* \"#utility.yul\":5334:5336   */\n      0x20\n        /* \"#utility.yul\":5360:5413   */\n      tag_401\n        /* \"#utility.yul\":5405:5412   */\n      dup8\n        /* \"#utility.yul\":5396:5402   */\n      dup3\n        /* \"#utility.yul\":5385:5394   */\n      dup9\n        /* \"#utility.yul\":5381:5403   */\n      add\n        /* \"#utility.yul\":5360:5413   */\n      tag_282\n      jump\t// in\n    tag_401:\n        /* \"#utility.yul\":5350:5413   */\n      swap4\n      pop\n        /* \"#utility.yul\":5305:5423   */\n      pop\n        /* \"#utility.yul\":5490:5492   */\n      0x40\n        /* \"#utility.yul\":5479:5488   */\n      dup6\n        /* \"#utility.yul\":5475:5493   */\n      add\n        /* \"#utility.yul\":5462:5494   */\n      calldataload\n        /* \"#utility.yul\":5521:5539   */\n      0xffffffffffffffff\n        /* \"#utility.yul\":5513:5519   */\n      dup2\n        /* \"#utility.yul\":5510:5540   */\n      gt\n        /* \"#utility.yul\":5507:5624   */\n      iszero\n      tag_402\n      jumpi\n        /* \"#utility.yul\":5543:5622   */\n      tag_403\n      tag_269\n      jump\t// in\n    tag_403:\n        /* \"#utility.yul\":5507:5624   */\n    tag_402:\n        /* \"#utility.yul\":5656:5747   */\n      tag_404\n        /* \"#utility.yul\":5739:5746   */\n      dup8\n        /* \"#utility.yul\":5730:5736   */\n      dup3\n        /* \"#utility.yul\":5719:5728   */\n      dup9\n        /* \"#utility.yul\":5715:5737   */\n      add\n        /* \"#utility.yul\":5656:5747   */\n      tag_283\n      jump\t// in\n    tag_404:\n        /* \"#utility.yul\":5638:5747   */\n      swap3\n      pop\n      swap3\n      pop\n        /* \"#utility.yul\":5433:5757   */\n      pop\n        /* \"#utility.yul\":4893:5764   */\n      swap3\n      swap6\n      swap2\n      swap5\n      pop\n      swap3\n      pop\n      jump\t// out\n        /* \"#utility.yul\":5787:6355   */\n    tag_284:\n        /* \"#utility.yul\":5860:5868   */\n      0x00\n        /* \"#utility.yul\":5870:5876   */\n      dup1\n        /* \"#utility.yul\":5920:5923   */\n      dup4\n        /* \"#utility.yul\":5913:5917   */\n      0x1f\n        /* \"#utility.yul\":5905:5911   */\n      dup5\n        /* \"#utility.yul\":5901:5918   */\n      add\n        /* \"#utility.yul\":5897:5924   */\n      slt\n        /* \"#utility.yul\":5887:6009   */\n      tag_406\n      jumpi\n        /* \"#utility.yul\":5928:6007   */\n      tag_407\n      tag_277\n      jump\t// in\n    tag_407:\n        /* \"#utility.yul\":5887:6009   */\n    tag_406:\n        /* \"#utility.yul\":6041:6047   */\n      dup3\n        /* \"#utility.yul\":6028:6048   */\n      calldataload\n        /* \"#utility.yul\":6018:6048   */\n      swap1\n      pop\n        /* \"#utility.yul\":6071:6089   */\n      0xffffffffffffffff\n        /* \"#utility.yul\":6063:6069   */\n      dup2\n        /* \"#utility.yul\":6060:6090   */\n      gt\n        /* \"#utility.yul\":6057:6174   */\n      iszero\n      tag_408\n      jumpi\n        /* \"#utility.yul\":6093:6172   */\n      tag_409\n      tag_278\n      jump\t// in\n    tag_409:\n        /* \"#utility.yul\":6057:6174   */\n    tag_408:\n        /* \"#utility.yul\":6207:6211   */\n      0x20\n        /* \"#utility.yul\":6199:6205   */\n      dup4\n        /* \"#utility.yul\":6195:6212   */\n      add\n        /* \"#utility.yul\":6183:6212   */\n      swap2\n      pop\n        /* \"#utility.yul\":6261:6264   */\n      dup4\n        /* \"#utility.yul\":6253:6257   */\n      0x20\n        /* \"#utility.yul\":6245:6251   */\n      dup3\n        /* \"#utility.yul\":6241:6258   */\n      mul\n        /* \"#utility.yul\":6231:6239   */\n      dup4\n        /* \"#utility.yul\":6227:6259   */\n      add\n        /* \"#utility.yul\":6224:6265   */\n      gt\n        /* \"#utility.yul\":6221:6349   */\n      iszero\n      tag_410\n      jumpi\n        /* \"#utility.yul\":6268:6347   */\n      tag_411\n      tag_279\n      jump\t// in\n    tag_411:\n        /* \"#utility.yul\":6221:6349   */\n    tag_410:\n        /* \"#utility.yul\":5787:6355   */\n      swap3\n      pop\n      swap3\n      swap1\n      pop\n      jump\t// out\n        /* \"#utility.yul\":6361:7838   */\n    tag_35:\n        /* \"#utility.yul\":6539:6545   */\n      0x00\n        /* \"#utility.yul\":6547:6553   */\n      dup1\n        /* \"#utility.yul\":6555:6561   */\n      0x00\n        /* \"#utility.yul\":6563:6569   */\n      dup1\n        /* \"#utility.yul\":6571:6577   */\n      0x00\n        /* \"#utility.yul\":6579:6585   */\n      dup1\n        /* \"#utility.yul\":6587:6593   */\n      0x00\n        /* \"#utility.yul\":6636:6639   */\n      0x80\n        /* \"#utility.yul\":6624:6633   */\n      dup9\n        /* \"#utility.yul\":6615:6622   */\n      dup11\n        /* \"#utility.yul\":6611:6634   */\n      sub\n        /* \"#utility.yul\":6607:6640   */\n      slt\n        /* \"#utility.yul\":6604:6724   */\n      iszero\n      tag_413\n      jumpi\n        /* \"#utility.yul\":6643:6722   */\n      tag_414\n      tag_268\n      jump\t// in\n    tag_414:\n        /* \"#utility.yul\":6604:6724   */\n    tag_413:\n        /* \"#utility.yul\":6791:6792   */\n      0x00\n        /* \"#utility.yul\":6780:6789   */\n      dup9\n        /* \"#utility.yul\":6776:6793   */\n      add\n        /* \"#utility.yul\":6763:6794   */\n      calldataload\n        /* \"#utility.yul\":6821:6839   */\n      0xffffffffffffffff\n        /* \"#utility.yul\":6813:6819   */\n      dup2\n        /* \"#utility.yul\":6810:6840   */\n      gt\n        /* \"#utility.yul\":6807:6924   */\n      iszero\n      tag_415\n      jumpi\n        /* \"#utility.yul\":6843:6922   */\n      tag_416\n      tag_269\n      jump\t// in\n    tag_416:\n        /* \"#utility.yul\":6807:6924   */\n    tag_415:\n        /* \"#utility.yul\":6956:7036   */\n      tag_417\n        /* \"#utility.yul\":7028:7035   */\n      dup11\n        /* \"#utility.yul\":7019:7025   */\n      dup3\n        /* \"#utility.yul\":7008:7017   */\n      dup12\n        /* \"#utility.yul\":7004:7026   */\n      add\n        /* \"#utility.yul\":6956:7036   */\n      tag_280\n      jump\t// in\n    tag_417:\n        /* \"#utility.yul\":6938:7036   */\n      swap8\n      pop\n      swap8\n      pop\n        /* \"#utility.yul\":6734:7046   */\n      pop\n        /* \"#utility.yul\":7113:7115   */\n      0x20\n        /* \"#utility.yul\":7102:7111   */\n      dup9\n        /* \"#utility.yul\":7098:7116   */\n      add\n        /* \"#utility.yul\":7085:7117   */\n      calldataload\n        /* \"#utility.yul\":7144:7162   */\n      0xffffffffffffffff\n        /* \"#utility.yul\":7136:7142   */\n      dup2\n        /* \"#utility.yul\":7133:7163   */\n      gt\n        /* \"#utility.yul\":7130:7247   */\n      iszero\n      tag_418\n      jumpi\n        /* \"#utility.yul\":7166:7245   */\n      tag_419\n      tag_269\n      jump\t// in\n    tag_419:\n        /* \"#utility.yul\":7130:7247   */\n    tag_418:\n        /* \"#utility.yul\":7279:7359   */\n      tag_420\n        /* \"#utility.yul\":7351:7358   */\n      dup11\n        /* \"#utility.yul\":7342:7348   */\n      dup3\n        /* \"#utility.yul\":7331:7340   */\n      dup12\n        /* \"#utility.yul\":7327:7349   */\n      add\n        /* \"#utility.yul\":7279:7359   */\n      tag_284\n      jump\t// in\n    tag_420:\n        /* \"#utility.yul\":7261:7359   */\n      swap6\n      pop\n      swap6\n      pop\n        /* \"#utility.yul\":7056:7369   */\n      pop\n        /* \"#utility.yul\":7408:7410   */\n      0x40\n        /* \"#utility.yul\":7434:7487   */\n      tag_421\n        /* \"#utility.yul\":7479:7486   */\n      dup11\n        /* \"#utility.yul\":7470:7476   */\n      dup3\n        /* \"#utility.yul\":7459:7468   */\n      dup12\n        /* \"#utility.yul\":7455:7477   */\n      add\n        /* \"#utility.yul\":7434:7487   */\n      tag_282\n      jump\t// in\n    tag_421:\n        /* \"#utility.yul\":7424:7487   */\n      swap4\n      pop\n        /* \"#utility.yul\":7379:7497   */\n      pop\n        /* \"#utility.yul\":7564:7566   */\n      0x60\n        /* \"#utility.yul\":7553:7562   */\n      dup9\n        /* \"#utility.yul\":7549:7567   */\n      add\n        /* \"#utility.yul\":7536:7568   */\n      calldataload\n        /* \"#utility.yul\":7595:7613   */\n      0xffffffffffffffff\n        /* \"#utility.yul\":7587:7593   */\n      dup2\n        /* \"#utility.yul\":7584:7614   */\n      gt\n        /* \"#utility.yul\":7581:7698   */\n      iszero\n      tag_422\n      jumpi\n        /* \"#utility.yul\":7617:7696   */\n      tag_423\n      tag_269\n      jump\t// in\n    tag_423:\n        /* \"#utility.yul\":7581:7698   */\n    tag_422:\n        /* \"#utility.yul\":7730:7821   */\n      tag_424\n        /* \"#utility.yul\":7813:7820   */\n      dup11\n        /* \"#utility.yul\":7804:7810   */\n      dup3\n        /* \"#utility.yul\":7793:7802   */\n      dup12\n        /* \"#utility.yul\":7789:7811   */\n      add\n        /* \"#utility.yul\":7730:7821   */\n      tag_283\n      jump\t// in\n    tag_424:\n        /* \"#utility.yul\":7712:7821   */\n      swap3\n      pop\n      swap3\n      pop\n        /* \"#utility.yul\":7507:7831   */\n      pop\n        /* \"#utility.yul\":6361:7838   */\n      swap3\n      swap6\n      swap9\n      swap2\n      swap5\n      swap8\n      pop\n      swap3\n      swap6\n      pop\n      jump\t// out\n        /* \"#utility.yul\":7844:7970   */\n    tag_285:\n        /* \"#utility.yul\":7881:7888   */\n      0x00\n        /* \"#utility.yul\":7921:7963   */\n      0xffffffffffffffffffffffffffffffffffffffff\n        /* \"#utility.yul\":7914:7919   */\n      dup3\n        /* \"#utility.yul\":7910:7964   */\n      and\n        /* \"#utility.yul\":7899:7964   */\n      swap1\n      pop\n        /* \"#utility.yul\":7844:7970   */\n      swap2\n      swap1\n      pop\n      jump\t// out\n        /* \"#utility.yul\":7976:8072   */\n    tag_286:\n        /* \"#utility.yul\":8013:8020   */\n      0x00\n        /* \"#utility.yul\":8042:8066   */\n      tag_427\n        /* \"#utility.yul\":8060:8065   */\n      dup3\n        /* \"#utility.yul\":8042:8066   */\n      tag_285\n      jump\t// in\n    tag_427:\n        /* \"#utility.yul\":8031:8066   */\n      swap1\n      pop\n        /* \"#utility.yul\":7976:8072   */\n      swap2\n      swap1\n      pop\n      jump\t// out\n        /* \"#utility.yul\":8078:8200   */\n    tag_287:\n        /* \"#utility.yul\":8151:8175   */\n      tag_429\n        /* \"#utility.yul\":8169:8174   */\n      dup2\n        /* \"#utility.yul\":8151:8175   */\n      tag_286\n      jump\t// in\n    tag_429:\n        /* \"#utility.yul\":8144:8149   */\n      dup2\n        /* \"#utility.yul\":8141:8176   */\n      eq\n        /* \"#utility.yul\":8131:8194   */\n      tag_430\n      jumpi\n        /* \"#utility.yul\":8190:8191   */\n      0x00\n        /* \"#utility.yul\":8187:8188   */\n      dup1\n        /* \"#utility.yul\":8180:8192   */\n      revert\n        /* \"#utility.yul\":8131:8194   */\n    tag_430:\n        /* \"#utility.yul\":8078:8200   */\n      pop\n      jump\t// out\n        /* \"#utility.yul\":8206:8345   */\n    tag_288:\n        /* \"#utility.yul\":8252:8257   */\n      0x00\n        /* \"#utility.yul\":8290:8296   */\n      dup2\n        /* \"#utility.yul\":8277:8297   */\n      calldataload\n        /* \"#utility.yul\":8268:8297   */\n      swap1\n      pop\n        /* \"#utility.yul\":8306:8339   */\n      tag_432\n        /* \"#utility.yul\":8333:8338   */\n      dup2\n        /* \"#utility.yul\":8306:8339   */\n      tag_287\n      jump\t// in\n    tag_432:\n        /* \"#utility.yul\":8206:8345   */\n      swap3\n      swap2\n      pop\n      pop\n      jump\t// out\n        /* \"#utility.yul\":8351:9368   */\n    tag_39:\n        /* \"#utility.yul\":8475:8481   */\n      0x00\n        /* \"#utility.yul\":8483:8489   */\n      dup1\n        /* \"#utility.yul\":8491:8497   */\n      0x00\n        /* \"#utility.yul\":8499:8505   */\n      dup1\n        /* \"#utility.yul\":8507:8513   */\n      0x00\n        /* \"#utility.yul\":8556:8559   */\n      0x80\n        /* \"#utility.yul\":8544:8553   */\n      dup7\n        /* \"#utility.yul\":8535:8542   */\n      dup9\n        /* \"#utility.yul\":8531:8554   */\n      sub\n        /* \"#utility.yul\":8527:8560   */\n      slt\n        /* \"#utility.yul\":8524:8644   */\n      iszero\n      tag_434\n      jumpi\n        /* \"#utility.yul\":8563:8642   */\n      tag_435\n      tag_268\n      jump\t// in\n    tag_435:\n        /* \"#utility.yul\":8524:8644   */\n    tag_434:\n        /* \"#utility.yul\":8683:8684   */\n      0x00\n        /* \"#utility.yul\":8708:8761   */\n      tag_436\n        /* \"#utility.yul\":8753:8760   */\n      dup9\n        /* \"#utility.yul\":8744:8750   */\n      dup3\n        /* \"#utility.yul\":8733:8742   */\n      dup10\n        /* \"#utility.yul\":8729:8751   */\n      add\n        /* \"#utility.yul\":8708:8761   */\n      tag_288\n      jump\t// in\n    tag_436:\n        /* \"#utility.yul\":8698:8761   */\n      swap6\n      pop\n        /* \"#utility.yul\":8654:8771   */\n      pop\n        /* \"#utility.yul\":8810:8812   */\n      0x20\n        /* \"#utility.yul\":8836:8889   */\n      tag_437\n        /* \"#utility.yul\":8881:8888   */\n      dup9\n        /* \"#utility.yul\":8872:8878   */\n      dup3\n        /* \"#utility.yul\":8861:8870   */\n      dup10\n        /* \"#utility.yul\":8857:8879   */\n      add\n        /* \"#utility.yul\":8836:8889   */\n      tag_282\n      jump\t// in\n    tag_437:\n        /* \"#utility.yul\":8826:8889   */\n      swap5\n      pop\n        /* \"#utility.yul\":8781:8899   */\n      pop\n        /* \"#utility.yul\":8938:8940   */\n      0x40\n        /* \"#utility.yul\":8964:9017   */\n      tag_438\n        /* \"#utility.yul\":9009:9016   */\n      dup9\n        /* \"#utility.yul\":9000:9006   */\n      dup3\n        /* \"#utility.yul\":8989:8998   */\n      dup10\n        /* \"#utility.yul\":8985:9007   */\n      add\n        /* \"#utility.yul\":8964:9017   */\n      tag_282\n      jump\t// in\n    tag_438:\n        /* \"#utility.yul\":8954:9017   */\n      swap4\n      pop\n        /* \"#utility.yul\":8909:9027   */\n      pop\n        /* \"#utility.yul\":9094:9096   */\n      0x60\n        /* \"#utility.yul\":9083:9092   */\n      dup7\n        /* \"#utility.yul\":9079:9097   */\n      add\n        /* \"#utility.yul\":9066:9098   */\n      calldataload\n        /* \"#utility.yul\":9125:9143   */\n      0xffffffffffffffff\n        /* \"#utility.yul\":9117:9123   */\n      dup2\n        /* \"#utility.yul\":9114:9144   */\n      gt\n        /* \"#utility.yul\":9111:9228   */\n      iszero\n      tag_439\n      jumpi\n        /* \"#utility.yul\":9147:9226   */\n      tag_440\n      tag_269\n      jump\t// in\n    tag_440:\n        /* \"#utility.yul\":9111:9228   */\n    tag_439:\n        /* \"#utility.yul\":9260:9351   */\n      tag_441\n        /* \"#utility.yul\":9343:9350   */\n      dup9\n        /* \"#utility.yul\":9334:9340   */\n      dup3\n        /* \"#utility.yul\":9323:9332   */\n      dup10\n        /* \"#utility.yul\":9319:9341   */\n      add\n        /* \"#utility.yul\":9260:9351   */\n      tag_283\n      jump\t// in\n    tag_441:\n        /* \"#utility.yul\":9242:9351   */\n      swap3\n      pop\n      swap3\n      pop\n        /* \"#utility.yul\":9037:9361   */\n      pop\n        /* \"#utility.yul\":8351:9368   */\n      swap3\n      swap6\n      pop\n      swap3\n      swap6\n      swap1\n      swap4\n      pop\n      jump\t// out\n        /* \"#utility.yul\":9374:9703   */\n    tag_43:\n        /* \"#utility.yul\":9433:9439   */\n      0x00\n        /* \"#utility.yul\":9482:9484   */\n      0x20\n        /* \"#utility.yul\":9470:9479   */\n      dup3\n        /* \"#utility.yul\":9461:9468   */\n      dup5\n        /* \"#utility.yul\":9457:9480   */\n      sub\n        /* \"#utility.yul\":9453:9485   */\n      slt\n        /* \"#utility.yul\":9450:9569   */\n      iszero\n      tag_443\n      jumpi\n        /* \"#utility.yul\":9488:9567   */\n      tag_444\n      tag_268\n      jump\t// in\n    tag_444:\n        /* \"#utility.yul\":9450:9569   */\n    tag_443:\n        /* \"#utility.yul\":9608:9609   */\n      0x00\n        /* \"#utility.yul\":9633:9686   */\n      tag_445\n        /* \"#utility.yul\":9678:9685   */\n      dup5\n        /* \"#utility.yul\":9669:9675   */\n      dup3\n        /* \"#utility.yul\":9658:9667   */\n      dup6\n        /* \"#utility.yul\":9654:9676   */\n      add\n        /* \"#utility.yul\":9633:9686   */\n      tag_288\n      jump\t// in\n    tag_445:\n        /* \"#utility.yul\":9623:9686   */\n      swap2\n      pop\n        /* \"#utility.yul\":9579:9696   */\n      pop\n        /* \"#utility.yul\":9374:9703   */\n      swap3\n      swap2\n      pop\n      pop\n      jump\t// out\n        /* \"#utility.yul\":9709:9893   */\n    tag_289:\n        /* \"#utility.yul\":9808:9819   */\n      0x00\n        /* \"#utility.yul\":9842:9848   */\n      dup3\n        /* \"#utility.yul\":9837:9840   */\n      dup3\n        /* \"#utility.yul\":9830:9849   */\n      mstore\n        /* \"#utility.yul\":9882:9886   */\n      0x20\n        /* \"#utility.yul\":9877:9880   */\n      dup3\n        /* \"#utility.yul\":9873:9887   */\n      add\n        /* \"#utility.yul\":9858:9887   */\n      swap1\n      pop\n        /* \"#utility.yul\":9709:9893   */\n      swap3\n      swap2\n      pop\n      pop\n      jump\t// out\n        /* \"#utility.yul\":9899:10001   */\n    tag_290:\n        /* \"#utility.yul\":9968:9972   */\n      0x00\n        /* \"#utility.yul\":9991:9994   */\n      dup2\n        /* \"#utility.yul\":9983:9994   */\n      swap1\n      pop\n        /* \"#utility.yul\":9899:10001   */\n      swap2\n      swap1\n      pop\n      jump\t// out\n        /* \"#utility.yul\":10007:10115   */\n    tag_291:\n        /* \"#utility.yul\":10084:10108   */\n      tag_449\n        /* \"#utility.yul\":10102:10107   */\n      dup2\n        /* \"#utility.yul\":10084:10108   */\n      tag_286\n      jump\t// in\n    tag_449:\n        /* \"#utility.yul\":10079:10082   */\n      dup3\n        /* \"#utility.yul\":10072:10109   */\n      mstore\n        /* \"#utility.yul\":10007:10115   */\n      pop\n      pop\n      jump\t// out\n        /* \"#utility.yul\":10121:10300   */\n    tag_292:\n        /* \"#utility.yul\":10190:10200   */\n      0x00\n        /* \"#utility.yul\":10211:10257   */\n      tag_451\n        /* \"#utility.yul\":10253:10256   */\n      dup4\n        /* \"#utility.yul\":10245:10251   */\n      dup4\n        /* \"#utility.yul\":10211:10257   */\n      tag_291\n      jump\t// in\n    tag_451:\n        /* \"#utility.yul\":10289:10293   */\n      0x20\n        /* \"#utility.yul\":10284:10287   */\n      dup4\n        /* \"#utility.yul\":10280:10294   */\n      add\n        /* \"#utility.yul\":10266:10294   */\n      swap1\n      pop\n        /* \"#utility.yul\":10121:10300   */\n      swap3\n      swap2\n      pop\n      pop\n      jump\t// out\n        /* \"#utility.yul\":10306:10428   */\n    tag_293:\n        /* \"#utility.yul\":10358:10363   */\n      0x00\n        /* \"#utility.yul\":10383:10422   */\n      tag_453\n        /* \"#utility.yul\":10418:10420   */\n      0x20\n        /* \"#utility.yul\":10413:10416   */\n      dup5\n        /* \"#utility.yul\":10409:10421   */\n      add\n        /* \"#utility.yul\":10404:10407   */\n      dup5\n        /* \"#utility.yul\":10383:10422   */\n      tag_288\n      jump\t// in\n    tag_453:\n        /* \"#utility.yul\":10374:10422   */\n      swap1\n      pop\n        /* \"#utility.yul\":10306:10428   */\n      swap3\n      swap2\n      pop\n      pop\n      jump\t// out\n        /* \"#utility.yul\":10434:10549   */\n    tag_294:\n        /* \"#utility.yul\":10506:10510   */\n      0x00\n        /* \"#utility.yul\":10538:10542   */\n      0x20\n        /* \"#utility.yul\":10533:10536   */\n      dup3\n        /* \"#utility.yul\":10529:10543   */\n      add\n        /* \"#utility.yul\":10521:10543   */\n      swap1\n      pop\n        /* \"#utility.yul\":10434:10549   */\n      swap2\n      swap1\n      pop\n      jump\t// out\n        /* \"#utility.yul\":10585:11284   */\n    tag_295:\n        /* \"#utility.yul\":10714:10717   */\n      0x00\n        /* \"#utility.yul\":10737:10823   */\n      tag_456\n        /* \"#utility.yul\":10816:10822   */\n      dup4\n        /* \"#utility.yul\":10811:10814   */\n      dup6\n        /* \"#utility.yul\":10737:10823   */\n      tag_289\n      jump\t// in\n    tag_456:\n        /* \"#utility.yul\":10730:10823   */\n      swap4\n      pop\n        /* \"#utility.yul\":10847:10905   */\n      tag_457\n        /* \"#utility.yul\":10899:10904   */\n      dup3\n        /* \"#utility.yul\":10847:10905   */\n      tag_290\n      jump\t// in\n    tag_457:\n        /* \"#utility.yul\":10928:10935   */\n      dup1\n        /* \"#utility.yul\":10959:10960   */\n      0x00\n        /* \"#utility.yul\":10944:11259   */\n    tag_458:\n        /* \"#utility.yul\":10969:10975   */\n      dup6\n        /* \"#utility.yul\":10966:10967   */\n      dup2\n        /* \"#utility.yul\":10963:10976   */\n      lt\n        /* \"#utility.yul\":10944:11259   */\n      iszero\n      tag_460\n      jumpi\n        /* \"#utility.yul\":11039:11081   */\n      tag_461\n        /* \"#utility.yul\":11074:11080   */\n      dup3\n        /* \"#utility.yul\":11065:11072   */\n      dup5\n        /* \"#utility.yul\":11039:11081   */\n      tag_293\n      jump\t// in\n    tag_461:\n        /* \"#utility.yul\":11101:11164   */\n      tag_462\n        /* \"#utility.yul\":11160:11163   */\n      dup9\n        /* \"#utility.yul\":11145:11158   */\n      dup3\n        /* \"#utility.yul\":11101:11164   */\n      tag_292\n      jump\t// in\n    tag_462:\n        /* \"#utility.yul\":11094:11164   */\n      swap8\n      pop\n        /* \"#utility.yul\":11187:11249   */\n      tag_463\n        /* \"#utility.yul\":11242:11248   */\n      dup4\n        /* \"#utility.yul\":11187:11249   */\n      tag_294\n      jump\t// in\n    tag_463:\n        /* \"#utility.yul\":11177:11249   */\n      swap3\n      pop\n        /* \"#utility.yul\":11004:11259   */\n      pop\n        /* \"#utility.yul\":10991:10992   */\n      0x01\n        /* \"#utility.yul\":10988:10989   */\n      dup2\n        /* \"#utility.yul\":10984:10993   */\n      add\n        /* \"#utility.yul\":10979:10993   */\n      swap1\n      pop\n        /* \"#utility.yul\":10944:11259   */\n      jump(tag_458)\n    tag_460:\n        /* \"#utility.yul\":10948:10962   */\n      pop\n        /* \"#utility.yul\":11275:11278   */\n      dup6\n        /* \"#utility.yul\":11268:11278   */\n      swap3\n      pop\n        /* \"#utility.yul\":10719:11284   */\n      pop\n      pop\n        /* \"#utility.yul\":10585:11284   */\n      swap4\n      swap3\n      pop\n      pop\n      pop\n      jump\t// out\n        /* \"#utility.yul\":11290:11903   */\n    tag_54:\n        /* \"#utility.yul\":11499:11503   */\n      0x00\n        /* \"#utility.yul\":11537:11539   */\n      0x60\n        /* \"#utility.yul\":11526:11535   */\n      dup3\n        /* \"#utility.yul\":11522:11540   */\n      add\n        /* \"#utility.yul\":11514:11540   */\n      swap1\n      pop\n        /* \"#utility.yul\":11586:11595   */\n      dup2\n        /* \"#utility.yul\":11580:11584   */\n      dup2\n        /* \"#utility.yul\":11576:11596   */\n      sub\n        /* \"#utility.yul\":11572:11573   */\n      0x00\n        /* \"#utility.yul\":11561:11570   */\n      dup4\n        /* \"#utility.yul\":11557:11574   */\n      add\n        /* \"#utility.yul\":11550:11597   */\n      mstore\n        /* \"#utility.yul\":11614:11732   */\n      tag_465\n        /* \"#utility.yul\":11727:11731   */\n      dup2\n        /* \"#utility.yul\":11718:11724   */\n      dup7\n        /* \"#utility.yul\":11710:11716   */\n      dup9\n        /* \"#utility.yul\":11614:11732   */\n      tag_295\n      jump\t// in\n    tag_465:\n        /* \"#utility.yul\":11606:11732   */\n      swap1\n      pop\n        /* \"#utility.yul\":11742:11814   */\n      tag_466\n        /* \"#utility.yul\":11810:11812   */\n      0x20\n        /* \"#utility.yul\":11799:11808   */\n      dup4\n        /* \"#utility.yul\":11795:11813   */\n      add\n        /* \"#utility.yul\":11786:11792   */\n      dup6\n        /* \"#utility.yul\":11742:11814   */\n      tag_276\n      jump\t// in\n    tag_466:\n        /* \"#utility.yul\":11824:11896   */\n      tag_467\n        /* \"#utility.yul\":11892:11894   */\n      0x40\n        /* \"#utility.yul\":11881:11890   */\n      dup4\n        /* \"#utility.yul\":11877:11895   */\n      add\n        /* \"#utility.yul\":11868:11874   */\n      dup5\n        /* \"#utility.yul\":11824:11896   */\n      tag_276\n      jump\t// in\n    tag_467:\n        /* \"#utility.yul\":11290:11903   */\n      swap6\n      swap5\n      pop\n      pop\n      pop\n      pop\n      pop\n      jump\t// out\n        /* \"#utility.yul\":11909:12011   */\n    tag_296:\n        /* \"#utility.yul\":11950:11956   */\n      0x00\n        /* \"#utility.yul\":12001:12003   */\n      0x1f\n        /* \"#utility.yul\":11997:12004   */\n      not\n        /* \"#utility.yul\":11992:11994   */\n      0x1f\n        /* \"#utility.yul\":11985:11990   */\n      dup4\n        /* \"#utility.yul\":11981:11995   */\n      add\n        /* \"#utility.yul\":11977:12005   */\n      and\n        /* \"#utility.yul\":11967:12005   */\n      swap1\n      pop\n        /* \"#utility.yul\":11909:12011   */\n      swap2\n      swap1\n      pop\n      jump\t// out\n        /* \"#utility.yul\":12017:12197   */\n    tag_297:\n        /* \"#utility.yul\":12065:12142   */\n      0x4e487b7100000000000000000000000000000000000000000000000000000000\n        /* \"#utility.yul\":12062:12063   */\n      0x00\n        /* \"#utility.yul\":12055:12143   */\n      mstore\n        /* \"#utility.yul\":12162:12166   */\n      0x41\n        /* \"#utility.yul\":12159:12160   */\n      0x04\n        /* \"#utility.yul\":12152:12167   */\n      mstore\n        /* \"#utility.yul\":12186:12190   */\n      0x24\n        /* \"#utility.yul\":12183:12184   */\n      0x00\n        /* \"#utility.yul\":12176:12191   */\n      revert\n        /* \"#utility.yul\":12203:12484   */\n    tag_298:\n        /* \"#utility.yul\":12286:12313   */\n      tag_471\n        /* \"#utility.yul\":12308:12312   */\n      dup3\n        /* \"#utility.yul\":12286:12313   */\n      tag_296\n      jump\t// in\n    tag_471:\n        /* \"#utility.yul\":12278:12284   */\n      dup2\n        /* \"#utility.yul\":12274:12314   */\n      add\n        /* \"#utility.yul\":12416:12422   */\n      dup2\n        /* \"#utility.yul\":12404:12414   */\n      dup2\n        /* \"#utility.yul\":12401:12423   */\n      lt\n        /* \"#utility.yul\":12380:12398   */\n      0xffffffffffffffff\n        /* \"#utility.yul\":12368:12378   */\n      dup3\n        /* \"#utility.yul\":12365:12399   */\n      gt\n        /* \"#utility.yul\":12362:12424   */\n      or\n        /* \"#utility.yul\":12359:12447   */\n      iszero\n      tag_472\n      jumpi\n        /* \"#utility.yul\":12427:12445   */\n      tag_473\n      tag_297\n      jump\t// in\n    tag_473:\n        /* \"#utility.yul\":12359:12447   */\n    tag_472:\n        /* \"#utility.yul\":12467:12477   */\n      dup1\n        /* \"#utility.yul\":12463:12465   */\n      0x40\n        /* \"#utility.yul\":12456:12478   */\n      mstore\n        /* \"#utility.yul\":12246:12484   */\n      pop\n        /* \"#utility.yul\":12203:12484   */\n      pop\n      pop\n      jump\t// out\n        /* \"#utility.yul\":12490:12619   */\n    tag_299:\n        /* \"#utility.yul\":12524:12530   */\n      0x00\n        /* \"#utility.yul\":12551:12571   */\n      tag_475\n      tag_267\n      jump\t// in\n    tag_475:\n        /* \"#utility.yul\":12541:12571   */\n      swap1\n      pop\n        /* \"#utility.yul\":12580:12613   */\n      tag_476\n        /* \"#utility.yul\":12608:12612   */\n      dup3\n        /* \"#utility.yul\":12600:12606   */\n      dup3\n        /* \"#utility.yul\":12580:12613   */\n      tag_298\n      jump\t// in\n    tag_476:\n        /* \"#utility.yul\":12490:12619   */\n      swap2\n      swap1\n      pop\n      jump\t// out\n        /* \"#utility.yul\":12625:12945   */\n    tag_300:\n        /* \"#utility.yul\":12711:12715   */\n      0x00\n        /* \"#utility.yul\":12801:12819   */\n      0xffffffffffffffff\n        /* \"#utility.yul\":12793:12799   */\n      dup3\n        /* \"#utility.yul\":12790:12820   */\n      gt\n        /* \"#utility.yul\":12787:12843   */\n      iszero\n      tag_478\n      jumpi\n        /* \"#utility.yul\":12823:12841   */\n      tag_479\n      tag_297\n      jump\t// in\n    tag_479:\n        /* \"#utility.yul\":12787:12843   */\n    tag_478:\n        /* \"#utility.yul\":12873:12877   */\n      0x20\n        /* \"#utility.yul\":12865:12871   */\n      dup3\n        /* \"#utility.yul\":12861:12878   */\n      mul\n        /* \"#utility.yul\":12853:12878   */\n      swap1\n      pop\n        /* \"#utility.yul\":12933:12937   */\n      0x20\n        /* \"#utility.yul\":12927:12931   */\n      dup2\n        /* \"#utility.yul\":12923:12938   */\n      add\n        /* \"#utility.yul\":12915:12938   */\n      swap1\n      pop\n        /* \"#utility.yul\":12625:12945   */\n      swap2\n      swap1\n      pop\n      jump\t// out\n        /* \"#utility.yul\":12951:13068   */\n    tag_301:\n        /* \"#utility.yul\":13060:13061   */\n      0x00\n        /* \"#utility.yul\":13057:13058   */\n      dup1\n        /* \"#utility.yul\":13050:13062   */\n      revert\n        /* \"#utility.yul\":13074:13381   */\n    tag_302:\n        /* \"#utility.yul\":13135:13139   */\n      0x00\n        /* \"#utility.yul\":13225:13243   */\n      0xffffffffffffffff\n        /* \"#utility.yul\":13217:13223   */\n      dup3\n        /* \"#utility.yul\":13214:13244   */\n      gt\n        /* \"#utility.yul\":13211:13267   */\n      iszero\n      tag_482\n      jumpi\n        /* \"#utility.yul\":13247:13265   */\n      tag_483\n      tag_297\n      jump\t// in\n    tag_483:\n        /* \"#utility.yul\":13211:13267   */\n    tag_482:\n        /* \"#utility.yul\":13285:13314   */\n      tag_484\n        /* \"#utility.yul\":13307:13313   */\n      dup3\n        /* \"#utility.yul\":13285:13314   */\n      tag_296\n      jump\t// in\n    tag_484:\n        /* \"#utility.yul\":13277:13314   */\n      swap1\n      pop\n        /* \"#utility.yul\":13369:13373   */\n      0x20\n        /* \"#utility.yul\":13363:13367   */\n      dup2\n        /* \"#utility.yul\":13359:13374   */\n      add\n        /* \"#utility.yul\":13351:13374   */\n      swap1\n      pop\n        /* \"#utility.yul\":13074:13381   */\n      swap2\n      swap1\n      pop\n      jump\t// out\n        /* \"#utility.yul\":13387:13533   */\n    tag_303:\n        /* \"#utility.yul\":13484:13490   */\n      dup3\n        /* \"#utility.yul\":13479:13482   */\n      dup2\n        /* \"#utility.yul\":13474:13477   */\n      dup4\n        /* \"#utility.yul\":13461:13491   */\n      calldatacopy\n        /* \"#utility.yul\":13525:13526   */\n      0x00\n        /* \"#utility.yul\":13516:13522   */\n      dup4\n        /* \"#utility.yul\":13511:13514   */\n      dup4\n        /* \"#utility.yul\":13507:13523   */\n      add\n        /* \"#utility.yul\":13500:13527   */\n      mstore\n        /* \"#utility.yul\":13387:13533   */\n      pop\n      pop\n      pop\n      jump\t// out\n        /* \"#utility.yul\":13539:13962   */\n    tag_304:\n        /* \"#utility.yul\":13616:13621   */\n      0x00\n        /* \"#utility.yul\":13641:13706   */\n      tag_487\n        /* \"#utility.yul\":13657:13705   */\n      tag_488\n        /* \"#utility.yul\":13698:13704   */\n      dup5\n        /* \"#utility.yul\":13657:13705   */\n      tag_302\n      jump\t// in\n    tag_488:\n        /* \"#utility.yul\":13641:13706   */\n      tag_299\n      jump\t// in\n    tag_487:\n        /* \"#utility.yul\":13632:13706   */\n      swap1\n      pop\n        /* \"#utility.yul\":13729:13735   */\n      dup3\n        /* \"#utility.yul\":13722:13727   */\n      dup2\n        /* \"#utility.yul\":13715:13736   */\n      mstore\n        /* \"#utility.yul\":13767:13771   */\n      0x20\n        /* \"#utility.yul\":13760:13765   */\n      dup2\n        /* \"#utility.yul\":13756:13772   */\n      add\n        /* \"#utility.yul\":13805:13808   */\n      dup5\n        /* \"#utility.yul\":13796:13802   */\n      dup5\n        /* \"#utility.yul\":13791:13794   */\n      dup5\n        /* \"#utility.yul\":13787:13803   */\n      add\n        /* \"#utility.yul\":13784:13809   */\n      gt\n        /* \"#utility.yul\":13781:13893   */\n      iszero\n      tag_489\n      jumpi\n        /* \"#utility.yul\":13812:13891   */\n      tag_490\n      tag_301\n      jump\t// in\n    tag_490:\n        /* \"#utility.yul\":13781:13893   */\n    tag_489:\n        /* \"#utility.yul\":13902:13956   */\n      tag_491\n        /* \"#utility.yul\":13949:13955   */\n      dup5\n        /* \"#utility.yul\":13944:13947   */\n      dup3\n        /* \"#utility.yul\":13939:13942   */\n      dup6\n        /* \"#utility.yul\":13902:13956   */\n      tag_303\n      jump\t// in\n    tag_491:\n        /* \"#utility.yul\":13622:13962   */\n      pop\n        /* \"#utility.yul\":13539:13962   */\n      swap4\n      swap3\n      pop\n      pop\n      pop\n      jump\t// out\n        /* \"#utility.yul\":13981:14319   */\n    tag_305:\n        /* \"#utility.yul\":14036:14041   */\n      0x00\n        /* \"#utility.yul\":14085:14088   */\n      dup3\n        /* \"#utility.yul\":14078:14082   */\n      0x1f\n        /* \"#utility.yul\":14070:14076   */\n      dup4\n        /* \"#utility.yul\":14066:14083   */\n      add\n        /* \"#utility.yul\":14062:14089   */\n      slt\n        /* \"#utility.yul\":14052:14174   */\n      tag_493\n      jumpi\n        /* \"#utility.yul\":14093:14172   */\n      tag_494\n      tag_277\n      jump\t// in\n    tag_494:\n        /* \"#utility.yul\":14052:14174   */\n    tag_493:\n        /* \"#utility.yul\":14210:14216   */\n      dup2\n        /* \"#utility.yul\":14197:14217   */\n      calldataload\n        /* \"#utility.yul\":14235:14313   */\n      tag_495\n        /* \"#utility.yul\":14309:14312   */\n      dup5\n        /* \"#utility.yul\":14301:14307   */\n      dup3\n        /* \"#utility.yul\":14294:14298   */\n      0x20\n        /* \"#utility.yul\":14286:14292   */\n      dup7\n        /* \"#utility.yul\":14282:14299   */\n      add\n        /* \"#utility.yul\":14235:14313   */\n      tag_304\n      jump\t// in\n    tag_495:\n        /* \"#utility.yul\":14226:14313   */\n      swap2\n      pop\n        /* \"#utility.yul\":14042:14319   */\n      pop\n        /* \"#utility.yul\":13981:14319   */\n      swap3\n      swap2\n      pop\n      pop\n      jump\t// out\n        /* \"#utility.yul\":14340:15282   */\n    tag_306:\n        /* \"#utility.yul\":14445:14450   */\n      0x00\n        /* \"#utility.yul\":14470:14560   */\n      tag_497\n        /* \"#utility.yul\":14486:14559   */\n      tag_498\n        /* \"#utility.yul\":14552:14558   */\n      dup5\n        /* \"#utility.yul\":14486:14559   */\n      tag_300\n      jump\t// in\n    tag_498:\n        /* \"#utility.yul\":14470:14560   */\n      tag_299\n      jump\t// in\n    tag_497:\n        /* \"#utility.yul\":14461:14560   */\n      swap1\n      pop\n        /* \"#utility.yul\":14580:14585   */\n      dup1\n        /* \"#utility.yul\":14609:14615   */\n      dup4\n        /* \"#utility.yul\":14602:14607   */\n      dup3\n        /* \"#utility.yul\":14595:14616   */\n      mstore\n        /* \"#utility.yul\":14643:14647   */\n      0x20\n        /* \"#utility.yul\":14636:14641   */\n      dup3\n        /* \"#utility.yul\":14632:14648   */\n      add\n        /* \"#utility.yul\":14625:14648   */\n      swap1\n      pop\n        /* \"#utility.yul\":14696:14700   */\n      0x20\n        /* \"#utility.yul\":14688:14694   */\n      dup5\n        /* \"#utility.yul\":14684:14701   */\n      mul\n        /* \"#utility.yul\":14676:14682   */\n      dup4\n        /* \"#utility.yul\":14672:14702   */\n      add\n        /* \"#utility.yul\":14725:14728   */\n      dup6\n        /* \"#utility.yul\":14717:14723   */\n      dup2\n        /* \"#utility.yul\":14714:14729   */\n      gt\n        /* \"#utility.yul\":14711:14833   */\n      iszero\n      tag_499\n      jumpi\n        /* \"#utility.yul\":14744:14823   */\n      tag_500\n      tag_279\n      jump\t// in\n    tag_500:\n        /* \"#utility.yul\":14711:14833   */\n    tag_499:\n        /* \"#utility.yul\":14859:14865   */\n      dup4\n        /* \"#utility.yul\":14842:15276   */\n    tag_501:\n        /* \"#utility.yul\":14876:14882   */\n      dup2\n        /* \"#utility.yul\":14871:14874   */\n      dup2\n        /* \"#utility.yul\":14868:14883   */\n      lt\n        /* \"#utility.yul\":14842:15276   */\n      iszero\n      tag_503\n      jumpi\n        /* \"#utility.yul\":14965:14968   */\n      dup1\n        /* \"#utility.yul\":14952:14969   */\n      calldataload\n        /* \"#utility.yul\":15001:15019   */\n      0xffffffffffffffff\n        /* \"#utility.yul\":14988:14999   */\n      dup2\n        /* \"#utility.yul\":14985:15020   */\n      gt\n        /* \"#utility.yul\":14982:15104   */\n      iszero\n      tag_504\n      jumpi\n        /* \"#utility.yul\":15023:15102   */\n      tag_505\n      tag_277\n      jump\t// in\n    tag_505:\n        /* \"#utility.yul\":14982:15104   */\n    tag_504:\n        /* \"#utility.yul\":15147:15158   */\n      dup1\n        /* \"#utility.yul\":15139:15145   */\n      dup7\n        /* \"#utility.yul\":15135:15159   */\n      add\n        /* \"#utility.yul\":15185:15231   */\n      tag_506\n        /* \"#utility.yul\":15227:15230   */\n      dup10\n        /* \"#utility.yul\":15215:15225   */\n      dup3\n        /* \"#utility.yul\":15185:15231   */\n      tag_305\n      jump\t// in\n    tag_506:\n        /* \"#utility.yul\":15180:15183   */\n      dup6\n        /* \"#utility.yul\":15173:15232   */\n      mstore\n        /* \"#utility.yul\":15261:15265   */\n      0x20\n        /* \"#utility.yul\":15256:15259   */\n      dup6\n        /* \"#utility.yul\":15252:15266   */\n      add\n        /* \"#utility.yul\":15245:15266   */\n      swap5\n      pop\n        /* \"#utility.yul\":14918:15276   */\n      pop\n      pop\n        /* \"#utility.yul\":14902:14906   */\n      0x20\n        /* \"#utility.yul\":14897:14900   */\n      dup2\n        /* \"#utility.yul\":14893:14907   */\n      add\n        /* \"#utility.yul\":14886:14907   */\n      swap1\n      pop\n        /* \"#utility.yul\":14842:15276   */\n      jump(tag_501)\n    tag_503:\n        /* \"#utility.yul\":14846:14867   */\n      pop\n        /* \"#utility.yul\":14451:15282   */\n      pop\n      pop\n        /* \"#utility.yul\":14340:15282   */\n      swap4\n      swap3\n      pop\n      pop\n      pop\n      jump\t// out\n        /* \"#utility.yul\":15288:15632   */\n    tag_58:\n        /* \"#utility.yul\":15424:15433   */\n      0x00\n        /* \"#utility.yul\":15523:15625   */\n      tag_508\n        /* \"#utility.yul\":15610:15624   */\n      calldatasize\n        /* \"#utility.yul\":15602:15608   */\n      dup5\n        /* \"#utility.yul\":15595:15600   */\n      dup5\n        /* \"#utility.yul\":15523:15625   */\n      tag_306\n      jump\t// in\n    tag_508:\n        /* \"#utility.yul\":15501:15625   */\n      swap1\n      pop\n        /* \"#utility.yul\":15288:15632   */\n      swap3\n      swap2\n      pop\n      pop\n      jump\t// out\n        /* \"#utility.yul\":15638:15737   */\n    tag_307:\n        /* \"#utility.yul\":15690:15696   */\n      0x00\n        /* \"#utility.yul\":15724:15729   */\n      dup2\n        /* \"#utility.yul\":15718:15730   */\n      mload\n        /* \"#utility.yul\":15708:15730   */\n      swap1\n      pop\n        /* \"#utility.yul\":15638:15737   */\n      swap2\n      swap1\n      pop\n      jump\t// out\n        /* \"#utility.yul\":15743:15912   */\n    tag_308:\n        /* \"#utility.yul\":15827:15838   */\n      0x00\n        /* \"#utility.yul\":15861:15867   */\n      dup3\n        /* \"#utility.yul\":15856:15859   */\n      dup3\n        /* \"#utility.yul\":15849:15868   */\n      mstore\n        /* \"#utility.yul\":15901:15905   */\n      0x20\n        /* \"#utility.yul\":15896:15899   */\n      dup3\n        /* \"#utility.yul\":15892:15906   */\n      add\n        /* \"#utility.yul\":15877:15906   */\n      swap1\n      pop\n        /* \"#utility.yul\":15743:15912   */\n      swap3\n      swap2\n      pop\n      pop\n      jump\t// out\n        /* \"#utility.yul\":15918:16164   */\n    tag_309:\n        /* \"#utility.yul\":15999:16000   */\n      0x00\n        /* \"#utility.yul\":16009:16122   */\n    tag_512:\n        /* \"#utility.yul\":16023:16029   */\n      dup4\n        /* \"#utility.yul\":16020:16021   */\n      dup2\n        /* \"#utility.yul\":16017:16030   */\n      lt\n        /* \"#utility.yul\":16009:16122   */\n      iszero\n      tag_514\n      jumpi\n        /* \"#utility.yul\":16108:16109   */\n      dup1\n        /* \"#utility.yul\":16103:16106   */\n      dup3\n        /* \"#utility.yul\":16099:16110   */\n      add\n        /* \"#utility.yul\":16093:16111   */\n      mload\n        /* \"#utility.yul\":16089:16090   */\n      dup2\n        /* \"#utility.yul\":16084:16087   */\n      dup5\n        /* \"#utility.yul\":16080:16091   */\n      add\n        /* \"#utility.yul\":16073:16112   */\n      mstore\n        /* \"#utility.yul\":16045:16047   */\n      0x20\n        /* \"#utility.yul\":16042:16043   */\n      dup2\n        /* \"#utility.yul\":16038:16048   */\n      add\n        /* \"#utility.yul\":16033:16048   */\n      swap1\n      pop\n        /* \"#utility.yul\":16009:16122   */\n      jump(tag_512)\n    tag_514:\n        /* \"#utility.yul\":16156:16157   */\n      0x00\n        /* \"#utility.yul\":16147:16153   */\n      dup5\n        /* \"#utility.yul\":16142:16145   */\n      dup5\n        /* \"#utility.yul\":16138:16154   */\n      add\n        /* \"#utility.yul\":16131:16158   */\n      mstore\n        /* \"#utility.yul\":15980:16164   */\n      pop\n        /* \"#utility.yul\":15918:16164   */\n      pop\n      pop\n      pop\n      jump\t// out\n        /* \"#utility.yul\":16170:16547   */\n    tag_310:\n        /* \"#utility.yul\":16258:16261   */\n      0x00\n        /* \"#utility.yul\":16286:16325   */\n      tag_516\n        /* \"#utility.yul\":16319:16324   */\n      dup3\n        /* \"#utility.yul\":16286:16325   */\n      tag_307\n      jump\t// in\n    tag_516:\n        /* \"#utility.yul\":16341:16412   */\n      tag_517\n        /* \"#utility.yul\":16405:16411   */\n      dup2\n        /* \"#utility.yul\":16400:16403   */\n      dup6\n        /* \"#utility.yul\":16341:16412   */\n      tag_308\n      jump\t// in\n    tag_517:\n        /* \"#utility.yul\":16334:16412   */\n      swap4\n      pop\n        /* \"#utility.yul\":16421:16486   */\n      tag_518\n        /* \"#utility.yul\":16479:16485   */\n      dup2\n        /* \"#utility.yul\":16474:16477   */\n      dup6\n        /* \"#utility.yul\":16467:16471   */\n      0x20\n        /* \"#utility.yul\":16460:16465   */\n      dup7\n        /* \"#utility.yul\":16456:16472   */\n      add\n        /* \"#utility.yul\":16421:16486   */\n      tag_309\n      jump\t// in\n    tag_518:\n        /* \"#utility.yul\":16511:16540   */\n      tag_519\n        /* \"#utility.yul\":16533:16539   */\n      dup2\n        /* \"#utility.yul\":16511:16540   */\n      tag_296\n      jump\t// in\n    tag_519:\n        /* \"#utility.yul\":16506:16509   */\n      dup5\n        /* \"#utility.yul\":16502:16541   */\n      add\n        /* \"#utility.yul\":16495:16541   */\n      swap2\n      pop\n        /* \"#utility.yul\":16262:16547   */\n      pop\n        /* \"#utility.yul\":16170:16547   */\n      swap3\n      swap2\n      pop\n      pop\n      jump\t// out\n        /* \"#utility.yul\":16553:16866   */\n    tag_62:\n        /* \"#utility.yul\":16666:16670   */\n      0x00\n        /* \"#utility.yul\":16704:16706   */\n      0x20\n        /* \"#utility.yul\":16693:16702   */\n      dup3\n        /* \"#utility.yul\":16689:16707   */\n      add\n        /* \"#utility.yul\":16681:16707   */\n      swap1\n      pop\n        /* \"#utility.yul\":16753:16762   */\n      dup2\n        /* \"#utility.yul\":16747:16751   */\n      dup2\n        /* \"#utility.yul\":16743:16763   */\n      sub\n        /* \"#utility.yul\":16739:16740   */\n      0x00\n        /* \"#utility.yul\":16728:16737   */\n      dup4\n        /* \"#utility.yul\":16724:16741   */\n      add\n        /* \"#utility.yul\":16717:16764   */\n      mstore\n        /* \"#utility.yul\":16781:16859   */\n      tag_521\n        /* \"#utility.yul\":16854:16858   */\n      dup2\n        /* \"#utility.yul\":16845:16851   */\n      dup5\n        /* \"#utility.yul\":16781:16859   */\n      tag_310\n      jump\t// in\n    tag_521:\n        /* \"#utility.yul\":16773:16859   */\n      swap1\n      pop\n        /* \"#utility.yul\":16553:16866   */\n      swap3\n      swap2\n      pop\n      pop\n      jump\t// out\n        /* \"#utility.yul\":16872:17052   */\n    tag_69:\n        /* \"#utility.yul\":16920:16997   */\n      0x4e487b7100000000000000000000000000000000000000000000000000000000\n        /* \"#utility.yul\":16917:16918   */\n      0x00\n        /* \"#utility.yul\":16910:16998   */\n      mstore\n        /* \"#utility.yul\":17017:17021   */\n      0x32\n        /* \"#utility.yul\":17014:17015   */\n      0x04\n        /* \"#utility.yul\":17007:17022   */\n      mstore\n        /* \"#utility.yul\":17041:17045   */\n      0x24\n        /* \"#utility.yul\":17038:17039   */\n      0x00\n        /* \"#utility.yul\":17031:17046   */\n      revert\n        /* \"#utility.yul\":17058:17175   */\n    tag_311:\n        /* \"#utility.yul\":17167:17168   */\n      0x00\n        /* \"#utility.yul\":17164:17165   */\n      dup1\n        /* \"#utility.yul\":17157:17169   */\n      revert\n        /* \"#utility.yul\":17181:17298   */\n    tag_312:\n        /* \"#utility.yul\":17290:17291   */\n      0x00\n        /* \"#utility.yul\":17287:17288   */\n      dup1\n        /* \"#utility.yul\":17280:17292   */\n      revert\n        /* \"#utility.yul\":17304:17421   */\n    tag_313:\n        /* \"#utility.yul\":17413:17414   */\n      0x00\n        /* \"#utility.yul\":17410:17411   */\n      dup1\n        /* \"#utility.yul\":17403:17415   */\n      revert\n        /* \"#utility.yul\":17427:18151   */\n    tag_71:\n        /* \"#utility.yul\":17504:17508   */\n      0x00\n        /* \"#utility.yul\":17510:17516   */\n      dup1\n        /* \"#utility.yul\":17566:17577   */\n      dup4\n        /* \"#utility.yul\":17553:17578   */\n      calldataload\n        /* \"#utility.yul\":17666:17667   */\n      0x01\n        /* \"#utility.yul\":17660:17664   */\n      0x20\n        /* \"#utility.yul\":17656:17668   */\n      sub\n        /* \"#utility.yul\":17645:17653   */\n      dup5\n        /* \"#utility.yul\":17629:17643   */\n      calldatasize\n        /* \"#utility.yul\":17625:17654   */\n      sub\n        /* \"#utility.yul\":17621:17669   */\n      sub\n        /* \"#utility.yul\":17601:17619   */\n      dup2\n        /* \"#utility.yul\":17597:17670   */\n      slt\n        /* \"#utility.yul\":17587:17755   */\n      tag_527\n      jumpi\n        /* \"#utility.yul\":17674:17753   */\n      tag_528\n      tag_311\n      jump\t// in\n    tag_528:\n        /* \"#utility.yul\":17587:17755   */\n    tag_527:\n        /* \"#utility.yul\":17786:17804   */\n      dup1\n        /* \"#utility.yul\":17776:17784   */\n      dup5\n        /* \"#utility.yul\":17772:17805   */\n      add\n        /* \"#utility.yul\":17764:17805   */\n      swap3\n      pop\n        /* \"#utility.yul\":17838:17842   */\n      dup3\n        /* \"#utility.yul\":17825:17843   */\n      calldataload\n        /* \"#utility.yul\":17815:17843   */\n      swap2\n      pop\n        /* \"#utility.yul\":17866:17884   */\n      0xffffffffffffffff\n        /* \"#utility.yul\":17858:17864   */\n      dup3\n        /* \"#utility.yul\":17855:17885   */\n      gt\n        /* \"#utility.yul\":17852:17969   */\n      iszero\n      tag_529\n      jumpi\n        /* \"#utility.yul\":17888:17967   */\n      tag_530\n      tag_312\n      jump\t// in\n    tag_530:\n        /* \"#utility.yul\":17852:17969   */\n    tag_529:\n        /* \"#utility.yul\":17996:17998   */\n      0x20\n        /* \"#utility.yul\":17990:17994   */\n      dup4\n        /* \"#utility.yul\":17986:17999   */\n      add\n        /* \"#utility.yul\":17978:17999   */\n      swap3\n      pop\n        /* \"#utility.yul\":18053:18057   */\n      0x01\n        /* \"#utility.yul\":18045:18051   */\n      dup3\n        /* \"#utility.yul\":18041:18058   */\n      mul\n        /* \"#utility.yul\":18025:18039   */\n      calldatasize\n        /* \"#utility.yul\":18021:18059   */\n      sub\n        /* \"#utility.yul\":18015:18019   */\n      dup4\n        /* \"#utility.yul\":18011:18060   */\n      sgt\n        /* \"#utility.yul\":18008:18144   */\n      iszero\n      tag_531\n      jumpi\n        /* \"#utility.yul\":18063:18142   */\n      tag_532\n      tag_313\n      jump\t// in\n    tag_532:\n        /* \"#utility.yul\":18008:18144   */\n    tag_531:\n        /* \"#utility.yul\":17517:18151   */\n      pop\n        /* \"#utility.yul\":17427:18151   */\n      swap3\n      pop\n      swap3\n      swap1\n      pop\n      jump\t// out\n        /* \"#utility.yul\":18157:18304   */\n    tag_314:\n        /* \"#utility.yul\":18258:18269   */\n      0x00\n        /* \"#utility.yul\":18295:18298   */\n      dup2\n        /* \"#utility.yul\":18280:18298   */\n      swap1\n      pop\n        /* \"#utility.yul\":18157:18304   */\n      swap3\n      swap2\n      pop\n      pop\n      jump\t// out\n        /* \"#utility.yul\":18332:18659   */\n    tag_315:\n        /* \"#utility.yul\":18446:18449   */\n      0x00\n        /* \"#utility.yul\":18467:18555   */\n      tag_535\n        /* \"#utility.yul\":18548:18554   */\n      dup4\n        /* \"#utility.yul\":18543:18546   */\n      dup6\n        /* \"#utility.yul\":18467:18555   */\n      tag_314\n      jump\t// in\n    tag_535:\n        /* \"#utility.yul\":18460:18555   */\n      swap4\n      pop\n        /* \"#utility.yul\":18565:18621   */\n      tag_536\n        /* \"#utility.yul\":18614:18620   */\n      dup4\n        /* \"#utility.yul\":18609:18612   */\n      dup6\n        /* \"#utility.yul\":18602:18607   */\n      dup5\n        /* \"#utility.yul\":18565:18621   */\n      tag_303\n      jump\t// in\n    tag_536:\n        /* \"#utility.yul\":18646:18652   */\n      dup3\n        /* \"#utility.yul\":18641:18644   */\n      dup5\n        /* \"#utility.yul\":18637:18653   */\n      add\n        /* \"#utility.yul\":18630:18653   */\n      swap1\n      pop\n        /* \"#utility.yul\":18332:18659   */\n      swap4\n      swap3\n      pop\n      pop\n      pop\n      jump\t// out\n        /* \"#utility.yul\":18665:18956   */\n    tag_73:\n        /* \"#utility.yul\":18805:18808   */\n      0x00\n        /* \"#utility.yul\":18827:18930   */\n      tag_538\n        /* \"#utility.yul\":18926:18929   */\n      dup3\n        /* \"#utility.yul\":18917:18923   */\n      dup5\n        /* \"#utility.yul\":18909:18915   */\n      dup7\n        /* \"#utility.yul\":18827:18930   */\n      tag_315\n      jump\t// in\n    tag_538:\n        /* \"#utility.yul\":18820:18930   */\n      swap2\n      pop\n        /* \"#utility.yul\":18947:18950   */\n      dup2\n        /* \"#utility.yul\":18940:18950   */\n      swap1\n      pop\n        /* \"#utility.yul\":18665:18956   */\n      swap4\n      swap3\n      pop\n      pop\n      pop\n      jump\t// out\n        /* \"#utility.yul\":18962:19142   */\n    tag_316:\n        /* \"#utility.yul\":19010:19087   */\n      0x4e487b7100000000000000000000000000000000000000000000000000000000\n        /* \"#utility.yul\":19007:19008   */\n      0x00\n        /* \"#utility.yul\":19000:19088   */\n      mstore\n        /* \"#utility.yul\":19107:19111   */\n      0x11\n        /* \"#utility.yul\":19104:19105   */\n      0x04\n        /* \"#utility.yul\":19097:19112   */\n      mstore\n        /* \"#utility.yul\":19131:19135   */\n      0x24\n        /* \"#utility.yul\":19128:19129   */\n      0x00\n        /* \"#utility.yul\":19121:19136   */\n      revert\n        /* \"#utility.yul\":19148:19381   */\n    tag_75:\n        /* \"#utility.yul\":19187:19190   */\n      0x00\n        /* \"#utility.yul\":19210:19234   */\n      tag_541\n        /* \"#utility.yul\":19228:19233   */\n      dup3\n        /* \"#utility.yul\":19210:19234   */\n      tag_275\n      jump\t// in\n    tag_541:\n        /* \"#utility.yul\":19201:19234   */\n      swap2\n      pop\n        /* \"#utility.yul\":19256:19322   */\n      0xffffffffffffffffffffffffffffffffffffffffffffffffffffffffffffffff\n        /* \"#utility.yul\":19249:19254   */\n      dup3\n        /* \"#utility.yul\":19246:19323   */\n      sub\n        /* \"#utility.yul\":19243:19346   */\n      tag_542\n      jumpi\n        /* \"#utility.yul\":19326:19344   */\n      tag_543\n      tag_316\n      jump\t// in\n    tag_543:\n        /* \"#utility.yul\":19243:19346   */\n    tag_542:\n        /* \"#utility.yul\":19373:19374   */\n      0x01\n        /* \"#utility.yul\":19366:19371   */\n      dup3\n        /* \"#utility.yul\":19362:19375   */\n      add\n        /* \"#utility.yul\":19355:19375   */\n      swap1\n      pop\n        /* \"#utility.yul\":19148:19381   */\n      swap2\n      swap1\n      pop\n      jump\t// out\n        /* \"#utility.yul\":19387:19829   */\n    tag_87:\n        /* \"#utility.yul\":19536:19540   */\n      0x00\n        /* \"#utility.yul\":19574:19576   */\n      0x60\n        /* \"#utility.yul\":19563:19572   */\n      dup3\n        /* \"#utility.yul\":19559:19577   */\n      add\n        /* \"#utility.yul\":19551:19577   */\n      swap1\n      pop\n        /* \"#utility.yul\":19587:19658   */\n      tag_545\n        /* \"#utility.yul\":19655:19656   */\n      0x00\n        /* \"#utility.yul\":19644:19653   */\n      dup4\n        /* \"#utility.yul\":19640:19657   */\n      add\n        /* \"#utility.yul\":19631:19637   */\n      dup7\n        /* \"#utility.yul\":19587:19658   */\n      tag_276\n      jump\t// in\n    tag_545:\n        /* \"#utility.yul\":19668:19740   */\n      tag_546\n        /* \"#utility.yul\":19736:19738   */\n      0x20\n        /* \"#utility.yul\":19725:19734   */\n      dup4\n        /* \"#utility.yul\":19721:19739   */\n      add\n        /* \"#utility.yul\":19712:19718   */\n      dup6\n        /* \"#utility.yul\":19668:19740   */\n      tag_276\n      jump\t// in\n    tag_546:\n        /* \"#utility.yul\":19750:19822   */\n      tag_547\n        /* \"#utility.yul\":19818:19820   */\n      0x40\n        /* \"#utility.yul\":19807:19816   */\n      dup4\n        /* \"#utility.yul\":19803:19821   */\n      add\n        /* \"#utility.yul\":19794:19800   */\n      dup5\n        /* \"#utility.yul\":19750:19822   */\n      tag_276\n      jump\t// in\n    tag_547:\n        /* \"#utility.yul\":19387:19829   */\n      swap5\n      swap4\n      pop\n      pop\n      pop\n      pop\n      jump\t// out\n        /* \"#utility.yul\":19835:20002   */\n    tag_317:\n        /* \"#utility.yul\":19975:19994   */\n      0x496e76616c6964207468726573686f6c64000000000000000000000000000000\n        /* \"#utility.yul\":19971:19972   */\n      0x00\n        /* \"#utility.yul\":19963:19969   */\n      dup3\n        /* \"#utility.yul\":19959:19973   */\n      add\n        /* \"#utility.yul\":19952:19995   */\n      mstore\n        /* \"#utility.yul\":19835:20002   */\n      pop\n      jump\t// out\n        /* \"#utility.yul\":20008:20374   */\n    tag_318:\n        /* \"#utility.yul\":20150:20153   */\n      0x00\n        /* \"#utility.yul\":20171:20238   */\n      tag_550\n        /* \"#utility.yul\":20235:20237   */\n      0x11\n        /* \"#utility.yul\":20230:20233   */\n      dup4\n        /* \"#utility.yul\":20171:20238   */\n      tag_308\n      jump\t// in\n    tag_550:\n        /* \"#utility.yul\":20164:20238   */\n      swap2\n      pop\n        /* \"#utility.yul\":20247:20340   */\n      tag_551\n        /* \"#utility.yul\":20336:20339   */\n      dup3\n        /* \"#utility.yul\":20247:20340   */\n      tag_317\n      jump\t// in\n    tag_551:\n        /* \"#utility.yul\":20365:20367   */\n      0x20\n        /* \"#utility.yul\":20360:20363   */\n      dup3\n        /* \"#utility.yul\":20356:20368   */\n      add\n        /* \"#utility.yul\":20349:20368   */\n      swap1\n      pop\n        /* \"#utility.yul\":20008:20374   */\n      swap2\n      swap1\n      pop\n      jump\t// out\n        /* \"#utility.yul\":20380:20799   */\n    tag_109:\n        /* \"#utility.yul\":20546:20550   */\n      0x00\n        /* \"#utility.yul\":20584:20586   */\n      0x20\n        /* \"#utility.yul\":20573:20582   */\n      dup3\n        /* \"#utility.yul\":20569:20587   */\n      add\n        /* \"#utility.yul\":20561:20587   */\n      swap1\n      pop\n        /* \"#utility.yul\":20633:20642   */\n      dup2\n        /* \"#utility.yul\":20627:20631   */\n      dup2\n        /* \"#utility.yul\":20623:20643   */\n      sub\n        /* \"#utility.yul\":20619:20620   */\n      0x00\n        /* \"#utility.yul\":20608:20617   */\n      dup4\n        /* \"#utility.yul\":20604:20621   */\n      add\n        /* \"#utility.yul\":20597:20644   */\n      mstore\n        /* \"#utility.yul\":20661:20792   */\n      tag_553\n        /* \"#utility.yul\":20787:20791   */\n      dup2\n        /* \"#utility.yul\":20661:20792   */\n      tag_318\n      jump\t// in\n    tag_553:\n        /* \"#utility.yul\":20653:20792   */\n      swap1\n      pop\n        /* \"#utility.yul\":20380:20799   */\n      swap2\n      swap1\n      pop\n      jump\t// out\n        /* \"#utility.yul\":20805:20989   */\n    tag_319:\n        /* \"#utility.yul\":20904:20915   */\n      0x00\n        /* \"#utility.yul\":20938:20944   */\n      dup3\n        /* \"#utility.yul\":20933:20936   */\n      dup3\n        /* \"#utility.yul\":20926:20945   */\n      mstore\n        /* \"#utility.yul\":20978:20982   */\n      0x20\n        /* \"#utility.yul\":20973:20976   */\n      dup3\n        /* \"#utility.yul\":20969:20983   */\n      add\n        /* \"#utility.yul\":20954:20983   */\n      swap1\n      pop\n        /* \"#utility.yul\":20805:20989   */\n      swap3\n      swap2\n      pop\n      pop\n      jump\t// out\n        /* \"#utility.yul\":20995:21112   */\n    tag_320:\n        /* \"#utility.yul\":21104:21105   */\n      0x00\n        /* \"#utility.yul\":21101:21102   */\n      dup1\n        /* \"#utility.yul\":21094:21106   */\n      revert\n        /* \"#utility.yul\":21118:21216   */\n    tag_321:\n        /* \"#utility.yul\":21202:21208   */\n      dup3\n        /* \"#utility.yul\":21197:21200   */\n      dup2\n        /* \"#utility.yul\":21192:21195   */\n      dup4\n        /* \"#utility.yul\":21179:21209   */\n      calldatacopy\n        /* \"#utility.yul\":21118:21216   */\n      pop\n      pop\n      pop\n      jump\t// out\n        /* \"#utility.yul\":21252:21789   */\n    tag_322:\n        /* \"#utility.yul\":21380:21383   */\n      0x00\n        /* \"#utility.yul\":21401:21487   */\n      tag_558\n        /* \"#utility.yul\":21480:21486   */\n      dup4\n        /* \"#utility.yul\":21475:21478   */\n      dup6\n        /* \"#utility.yul\":21401:21487   */\n      tag_319\n      jump\t// in\n    tag_558:\n        /* \"#utility.yul\":21394:21487   */\n      swap4\n      pop\n        /* \"#utility.yul\":21511:21577   */\n      0x07ffffffffffffffffffffffffffffffffffffffffffffffffffffffffffffff\n        /* \"#utility.yul\":21503:21509   */\n      dup4\n        /* \"#utility.yul\":21500:21578   */\n      gt\n        /* \"#utility.yul\":21497:21662   */\n      iszero\n      tag_559\n      jumpi\n        /* \"#utility.yul\":21581:21660   */\n      tag_560\n      tag_320\n      jump\t// in\n    tag_560:\n        /* \"#utility.yul\":21497:21662   */\n    tag_559:\n        /* \"#utility.yul\":21693:21697   */\n      0x20\n        /* \"#utility.yul\":21685:21691   */\n      dup4\n        /* \"#utility.yul\":21681:21698   */\n      mul\n        /* \"#utility.yul\":21671:21698   */\n      swap3\n      pop\n        /* \"#utility.yul\":21708:21751   */\n      tag_561\n        /* \"#utility.yul\":21744:21750   */\n      dup4\n        /* \"#utility.yul\":21739:21742   */\n      dup6\n        /* \"#utility.yul\":21732:21737   */\n      dup5\n        /* \"#utility.yul\":21708:21751   */\n      tag_321\n      jump\t// in\n    tag_561:\n        /* \"#utility.yul\":21776:21782   */\n      dup3\n        /* \"#utility.yul\":21771:21774   */\n      dup5\n        /* \"#utility.yul\":21767:21783   */\n      add\n        /* \"#utility.yul\":21760:21783   */\n      swap1\n      pop\n        /* \"#utility.yul\":21252:21789   */\n      swap4\n      swap3\n      pop\n      pop\n      pop\n      jump\t// out\n        /* \"#utility.yul\":21795:22690   */\n    tag_114:\n        /* \"#utility.yul\":22092:22096   */\n      0x00\n        /* \"#utility.yul\":22130:22133   */\n      0x80\n        /* \"#utility.yul\":22119:22128   */\n      dup3\n        /* \"#utility.yul\":22115:22134   */\n      add\n        /* \"#utility.yul\":22107:22134   */\n      swap1\n      pop\n        /* \"#utility.yul\":22180:22189   */\n      dup2\n        /* \"#utility.yul\":22174:22178   */\n      dup2\n        /* \"#utility.yul\":22170:22190   */\n      sub\n        /* \"#utility.yul\":22166:22167   */\n      0x00\n        /* \"#utility.yul\":22155:22164   */\n      dup4\n        /* \"#utility.yul\":22151:22168   */\n      add\n        /* \"#utility.yul\":22144:22191   */\n      mstore\n        /* \"#utility.yul\":22208:22326   */\n      tag_563\n        /* \"#utility.yul\":22321:22325   */\n      dup2\n        /* \"#utility.yul\":22312:22318   */\n      dup9\n        /* \"#utility.yul\":22304:22310   */\n      dup11\n        /* \"#utility.yul\":22208:22326   */\n      tag_295\n      jump\t// in\n    tag_563:\n        /* \"#utility.yul\":22200:22326   */\n      swap1\n      pop\n        /* \"#utility.yul\":22373:22382   */\n      dup2\n        /* \"#utility.yul\":22367:22371   */\n      dup2\n        /* \"#utility.yul\":22363:22383   */\n      sub\n        /* \"#utility.yul\":22358:22360   */\n      0x20\n        /* \"#utility.yul\":22347:22356   */\n      dup4\n        /* \"#utility.yul\":22343:22361   */\n      add\n        /* \"#utility.yul\":22336:22384   */\n      mstore\n        /* \"#utility.yul\":22401:22519   */\n      tag_564\n        /* \"#utility.yul\":22514:22518   */\n      dup2\n        /* \"#utility.yul\":22505:22511   */\n      dup7\n        /* \"#utility.yul\":22497:22503   */\n      dup9\n        /* \"#utility.yul\":22401:22519   */\n      tag_322\n      jump\t// in\n    tag_564:\n        /* \"#utility.yul\":22393:22519   */\n      swap1\n      pop\n        /* \"#utility.yul\":22529:22601   */\n      tag_565\n        /* \"#utility.yul\":22597:22599   */\n      0x40\n        /* \"#utility.yul\":22586:22595   */\n      dup4\n        /* \"#utility.yul\":22582:22600   */\n      add\n        /* \"#utility.yul\":22573:22579   */\n      dup6\n        /* \"#utility.yul\":22529:22601   */\n      tag_276\n      jump\t// in\n    tag_565:\n        /* \"#utility.yul\":22611:22683   */\n      tag_566\n        /* \"#utility.yul\":22679:22681   */\n      0x60\n        /* \"#utility.yul\":22668:22677   */\n      dup4\n        /* \"#utility.yul\":22664:22682   */\n      add\n        /* \"#utility.yul\":22655:22661   */\n      dup5\n        /* \"#utility.yul\":22611:22683   */\n      tag_276\n      jump\t// in\n    tag_566:\n        /* \"#utility.yul\":21795:22690   */\n      swap8\n      swap7\n      pop\n      pop\n      pop\n      pop\n      pop\n      pop\n      pop\n      jump\t// out\n        /* \"#utility.yul\":22696:22814   */\n    tag_323:\n        /* \"#utility.yul\":22783:22807   */\n      tag_568\n        /* \"#utility.yul\":22801:22806   */\n      dup2\n        /* \"#utility.yul\":22783:22807   */\n      tag_286\n      jump\t// in\n    tag_568:\n        /* \"#utility.yul\":22778:22781   */\n      dup3\n        /* \"#utility.yul\":22771:22808   */\n      mstore\n        /* \"#utility.yul\":22696:22814   */\n      pop\n      pop\n      jump\t// out\n        /* \"#utility.yul\":22820:23373   */\n    tag_142:\n        /* \"#utility.yul\":22997:23001   */\n      0x00\n        /* \"#utility.yul\":23035:23038   */\n      0x80\n        /* \"#utility.yul\":23024:23033   */\n      dup3\n        /* \"#utility.yul\":23020:23039   */\n      add\n        /* \"#utility.yul\":23012:23039   */\n      swap1\n      pop\n        /* \"#utility.yul\":23049:23120   */\n      tag_570\n        /* \"#utility.yul\":23117:23118   */\n      0x00\n        /* \"#utility.yul\":23106:23115   */\n      dup4\n        /* \"#utility.yul\":23102:23119   */\n      add\n        /* \"#utility.yul\":23093:23099   */\n      dup8\n        /* \"#utility.yul\":23049:23120   */\n      tag_323\n      jump\t// in\n    tag_570:\n        /* \"#utility.yul\":23130:23202   */\n      tag_571\n        /* \"#utility.yul\":23198:23200   */\n      0x20\n        /* \"#utility.yul\":23187:23196   */\n      dup4\n        /* \"#utility.yul\":23183:23201   */\n      add\n        /* \"#utility.yul\":23174:23180   */\n      dup7\n        /* \"#utility.yul\":23130:23202   */\n      tag_276\n      jump\t// in\n    tag_571:\n        /* \"#utility.yul\":23212:23284   */\n      tag_572\n        /* \"#utility.yul\":23280:23282   */\n      0x40\n        /* \"#utility.yul\":23269:23278   */\n      dup4\n        /* \"#utility.yul\":23265:23283   */\n      add\n        /* \"#utility.yul\":23256:23262   */\n      dup6\n        /* \"#utility.yul\":23212:23284   */\n      tag_276\n      jump\t// in\n    tag_572:\n        /* \"#utility.yul\":23294:23366   */\n      tag_573\n        /* \"#utility.yul\":23362:23364   */\n      0x60\n        /* \"#utility.yul\":23351:23360   */\n      dup4\n        /* \"#utility.yul\":23347:23365   */\n      add\n        /* \"#utility.yul\":23338:23344   */\n      dup5\n        /* \"#utility.yul\":23294:23366   */\n      tag_276\n      jump\t// in\n    tag_573:\n        /* \"#utility.yul\":22820:23373   */\n      swap6\n      swap5\n      pop\n      pop\n      pop\n      pop\n      pop\n      jump\t// out\n        /* \"#utility.yul\":23379:23573   */\n    tag_161:\n        /* \"#utility.yul\":23419:23423   */\n      0x00\n        /* \"#utility.yul\":23439:23459   */\n      tag_575\n        /* \"#utility.yul\":23457:23458   */\n      dup3\n        /* \"#utility.yul\":23439:23459   */\n      tag_275\n      jump\t// in\n    tag_575:\n        /* \"#utility.yul\":23434:23459   */\n      swap2\n      pop\n        /* \"#utility.yul\":23473:23493   */\n      tag_576\n        /* \"#utility.yul\":23491:23492   */\n      dup4\n        /* \"#utility.yul\":23473:23493   */\n      tag_275\n      jump\t// in\n    tag_576:\n        /* \"#utility.yul\":23468:23493   */\n      swap3\n      pop\n        /* \"#utility.yul\":23517:23518   */\n      dup3\n        /* \"#utility.yul\":23514:23515   */\n      dup3\n        /* \"#utility.yul\":23510:23519   */\n      sub\n        /* \"#utility.yul\":23502:23519   */\n      swap1\n      pop\n        /* \"#utility.yul\":23541:23542   */\n      dup2\n        /* \"#utility.yul\":23535:23539   */\n      dup2\n        /* \"#utility.yul\":23532:23543   */\n      gt\n        /* \"#utility.yul\":23529:23566   */\n      iszero\n      tag_577\n      jumpi\n        /* \"#utility.yul\":23546:23564   */\n      tag_578\n      tag_316\n      jump\t// in\n    tag_578:\n        /* \"#utility.yul\":23529:23566   */\n    tag_577:\n        /* \"#utility.yul\":23379:23573   */\n      swap3\n      swap2\n      pop\n      pop\n      jump\t// out\n        /* \"#utility.yul\":23579:23770   */\n    tag_163:\n        /* \"#utility.yul\":23619:23622   */\n      0x00\n        /* \"#utility.yul\":23638:23658   */\n      tag_580\n        /* \"#utility.yul\":23656:23657   */\n      dup3\n        /* \"#utility.yul\":23638:23658   */\n      tag_275\n      jump\t// in\n    tag_580:\n        /* \"#utility.yul\":23633:23658   */\n      swap2\n      pop\n        /* \"#utility.yul\":23672:23692   */\n      tag_581\n        /* \"#utility.yul\":23690:23691   */\n      dup4\n        /* \"#utility.yul\":23672:23692   */\n      tag_275\n      jump\t// in\n    tag_581:\n        /* \"#utility.yul\":23667:23692   */\n      swap3\n      pop\n        /* \"#utility.yul\":23715:23716   */\n      dup3\n        /* \"#utility.yul\":23712:23713   */\n      dup3\n        /* \"#utility.yul\":23708:23717   */\n      add\n        /* \"#utility.yul\":23701:23717   */\n      swap1\n      pop\n        /* \"#utility.yul\":23736:23739   */\n      dup1\n        /* \"#utility.yul\":23733:23734   */\n      dup3\n        /* \"#utility.yul\":23730:23740   */\n      gt\n        /* \"#utility.yul\":23727:23763   */\n      iszero\n      tag_582\n      jumpi\n        /* \"#utility.yul\":23743:23761   */\n      tag_583\n      tag_316\n      jump\t// in\n    tag_583:\n        /* \"#utility.yul\":23727:23763   */\n    tag_582:\n        /* \"#utility.yul\":23579:23770   */\n      swap3\n      swap2\n      pop\n      pop\n      jump\t// out\n        /* \"#utility.yul\":23776:23955   */\n    tag_324:\n        /* \"#utility.yul\":23916:23947   */\n      0x5468726573686f6c6420776f756c6420626520696d706f737369626c65000000\n        /* \"#utility.yul\":23912:23913   */\n      0x00\n        /* \"#utility.yul\":23904:23910   */\n      dup3\n        /* \"#utility.yul\":23900:23914   */\n      add\n        /* \"#utility.yul\":23893:23948   */\n      mstore\n        /* \"#utility.yul\":23776:23955   */\n      pop\n      jump\t// out\n        /* \"#utility.yul\":23961:24327   */\n    tag_325:\n        /* \"#utility.yul\":24103:24106   */\n      0x00\n        /* \"#utility.yul\":24124:24191   */\n      tag_586\n        /* \"#utility.yul\":24188:24190   */\n      0x1d\n        /* \"#utility.yul\":24183:24186   */\n      dup4\n        /* \"#utility.yul\":24124:24191   */\n      tag_308\n      jump\t// in\n    tag_586:\n        /* \"#utility.yul\":24117:24191   */\n      swap2\n      pop\n        /* \"#utility.yul\":24200:24293   */\n      tag_587\n        /* \"#utility.yul\":24289:24292   */\n      dup3\n        /* \"#utility.yul\":24200:24293   */\n      tag_324\n      jump\t// in\n    tag_587:\n        /* \"#utility.yul\":24318:24320   */\n      0x20\n        /* \"#utility.yul\":24313:24316   */\n      dup3\n        /* \"#utility.yul\":24309:24321   */\n      add\n        /* \"#utility.yul\":24302:24321   */\n      swap1\n      pop\n        /* \"#utility.yul\":23961:24327   */\n      swap2\n      swap1\n      pop\n      jump\t// out\n        /* \"#utility.yul\":24333:24752   */\n    tag_171:\n        /* \"#utility.yul\":24499:24503   */\n      0x00\n        /* \"#utility.yul\":24537:24539   */\n      0x20\n        /* \"#utility.yul\":24526:24535   */\n      dup3\n        /* \"#utility.yul\":24522:24540   */\n      add\n        /* \"#utility.yul\":24514:24540   */\n      swap1\n      pop\n        /* \"#utility.yul\":24586:24595   */\n      dup2\n        /* \"#utility.yul\":24580:24584   */\n      dup2\n        /* \"#utility.yul\":24576:24596   */\n      sub\n        /* \"#utility.yul\":24572:24573   */\n      0x00\n        /* \"#utility.yul\":24561:24570   */\n      dup4\n        /* \"#utility.yul\":24557:24574   */\n      add\n        /* \"#utility.yul\":24550:24597   */\n      mstore\n        /* \"#utility.yul\":24614:24745   */\n      tag_589\n        /* \"#utility.yul\":24740:24744   */\n      dup2\n        /* \"#utility.yul\":24614:24745   */\n      tag_325\n      jump\t// in\n    tag_589:\n        /* \"#utility.yul\":24606:24745   */\n      swap1\n      pop\n        /* \"#utility.yul\":24333:24752   */\n      swap2\n      swap1\n      pop\n      jump\t// out\n        /* \"#utility.yul\":24758:24906   */\n    tag_326:\n        /* \"#utility.yul\":24860:24871   */\n      0x00\n        /* \"#utility.yul\":24897:24900   */\n      dup2\n        /* \"#utility.yul\":24882:24900   */\n      swap1\n      pop\n        /* \"#utility.yul\":24758:24906   */\n      swap3\n      swap2\n      pop\n      pop\n      jump\t// out\n        /* \"#utility.yul\":24912:25126   */\n    tag_327:\n        /* \"#utility.yul\":25052:25118   */\n      0x19457468657265756d205369676e6564204d6573736167653a0a333200000000\n        /* \"#utility.yul\":25048:25049   */\n      0x00\n        /* \"#utility.yul\":25040:25046   */\n      dup3\n        /* \"#utility.yul\":25036:25050   */\n      add\n        /* \"#utility.yul\":25029:25119   */\n      mstore\n        /* \"#utility.yul\":24912:25126   */\n      pop\n      jump\t// out\n        /* \"#utility.yul\":25132:25534   */\n    tag_328:\n        /* \"#utility.yul\":25292:25295   */\n      0x00\n        /* \"#utility.yul\":25313:25398   */\n      tag_593\n        /* \"#utility.yul\":25395:25397   */\n      0x1c\n        /* \"#utility.yul\":25390:25393   */\n      dup4\n        /* \"#utility.yul\":25313:25398   */\n      tag_326\n      jump\t// in\n    tag_593:\n        /* \"#utility.yul\":25306:25398   */\n      swap2\n      pop\n        /* \"#utility.yul\":25407:25500   */\n      tag_594\n        /* \"#utility.yul\":25496:25499   */\n      dup3\n        /* \"#utility.yul\":25407:25500   */\n      tag_327\n      jump\t// in\n    tag_594:\n        /* \"#utility.yul\":25525:25527   */\n      0x1c\n        /* \"#utility.yul\":25520:25523   */\n      dup3\n        /* \"#utility.yul\":25516:25528   */\n      add\n        /* \"#utility.yul\":25509:25528   */\n      swap1\n      pop\n        /* \"#utility.yul\":25132:25534   */\n      swap2\n      swap1\n      pop\n      jump\t// out\n        /* \"#utility.yul\":25540:25617   */\n    tag_329:\n        /* \"#utility.yul\":25577:25584   */\n      0x00\n        /* \"#utility.yul\":25606:25611   */\n      dup2\n        /* \"#utility.yul\":25595:25611   */\n      swap1\n      pop\n        /* \"#utility.yul\":25540:25617   */\n      swap2\n      swap1\n      pop\n      jump\t// out\n        /* \"#utility.yul\":25623:25702   */\n    tag_330:\n        /* \"#utility.yul\":25662:25669   */\n      0x00\n        /* \"#utility.yul\":25691:25696   */\n      dup2\n        /* \"#utility.yul\":25680:25696   */\n      swap1\n      pop\n        /* \"#utility.yul\":25623:25702   */\n      swap2\n      swap1\n      pop\n      jump\t// out\n        /* \"#utility.yul\":25708:25865   */\n    tag_331:\n        /* \"#utility.yul\":25813:25858   */\n      tag_598\n        /* \"#utility.yul\":25833:25857   */\n      tag_599\n        /* \"#utility.yul\":25851:25856   */\n      dup3\n        /* \"#utility.yul\":25833:25857   */\n      tag_329\n      jump\t// in\n    tag_599:\n        /* \"#utility.yul\":25813:25858   */\n      tag_330\n      jump\t// in\n    tag_598:\n        /* \"#utility.yul\":25808:25811   */\n      dup3\n        /* \"#utility.yul\":25801:25859   */\n      mstore\n        /* \"#utility.yul\":25708:25865   */\n      pop\n      pop\n      jump\t// out\n        /* \"#utility.yul\":25871:26393   */\n    tag_218:\n        /* \"#utility.yul\":26084:26087   */\n      0x00\n        /* \"#utility.yul\":26106:26254   */\n      tag_601\n        /* \"#utility.yul\":26250:26253   */\n      dup3\n        /* \"#utility.yul\":26106:26254   */\n      tag_328\n      jump\t// in\n    tag_601:\n        /* \"#utility.yul\":26099:26254   */\n      swap2\n      pop\n        /* \"#utility.yul\":26264:26339   */\n      tag_602\n        /* \"#utility.yul\":26335:26338   */\n      dup3\n        /* \"#utility.yul\":26326:26332   */\n      dup5\n        /* \"#utility.yul\":26264:26339   */\n      tag_331\n      jump\t// in\n    tag_602:\n        /* \"#utility.yul\":26364:26366   */\n      0x20\n        /* \"#utility.yul\":26359:26362   */\n      dup3\n        /* \"#utility.yul\":26355:26367   */\n      add\n        /* \"#utility.yul\":26348:26367   */\n      swap2\n      pop\n        /* \"#utility.yul\":26384:26387   */\n      dup2\n        /* \"#utility.yul\":26377:26387   */\n      swap1\n      pop\n        /* \"#utility.yul\":25871:26393   */\n      swap3\n      swap2\n      pop\n      pop\n      jump\t// out\n        /* \"#utility.yul\":26399:26579   */\n    tag_232:\n        /* \"#utility.yul\":26447:26524   */\n      0x4e487b7100000000000000000000000000000000000000000000000000000000\n        /* \"#utility.yul\":26444:26445   */\n      0x00\n        /* \"#utility.yul\":26437:26525   */\n      mstore\n        /* \"#utility.yul\":26544:26548   */\n      0x21\n        /* \"#utility.yul\":26541:26542   */\n      0x04\n        /* \"#utility.yul\":26534:26549   */\n      mstore\n        /* \"#utility.yul\":26568:26572   */\n      0x24\n        /* \"#utility.yul\":26565:26566   */\n      0x00\n        /* \"#utility.yul\":26558:26573   */\n      revert\n        /* \"#utility.yul\":26585:26759   */\n    tag_332:\n        /* \"#utility.yul\":26725:26751   */\n      0x45434453413a20696e76616c6964207369676e61747572650000000000000000\n        /* \"#utility.yul\":26721:26722   */\n      0x00\n        /* \"#utility.yul\":26713:26719   */\n      dup3\n        /* \"#utility.yul\":26709:26723   */\n      add\n        /* \"#utility.yul\":26702:26752   */\n      mstore\n        /* \"#utility.yul\":26585:26759   */\n      pop\n      jump\t// out\n        /* \"#utility.yul\":26765:27131   */\n    tag_333:\n        /* \"#utility.yul\":26907:26910   */\n      0x00\n        /* \"#utility.yul\":26928:26995   */\n      tag_606\n        /* \"#utility.yul\":26992:26994   */\n      0x18\n        /* \"#utility.yul\":26987:26990   */\n      dup4\n        /* \"#utility.yul\":26928:26995   */\n      tag_308\n      jump\t// in\n    tag_606:\n        /* \"#utility.yul\":26921:26995   */\n      swap2\n      pop\n        /* \"#utility.yul\":27004:27097   */\n      tag_607\n        /* \"#utility.yul\":27093:27096   */\n      dup3\n        /* \"#utility.yul\":27004:27097   */\n      tag_332\n      jump\t// in\n    tag_607:\n        /* \"#utility.yul\":27122:27124   */\n      0x20\n        /* \"#utility.yul\":27117:27120   */\n      dup3\n        /* \"#utility.yul\":27113:27125   */\n      add\n        /* \"#utility.yul\":27106:27125   */\n      swap1\n      pop\n        /* \"#utility.yul\":26765:27131   */\n      swap2\n      swap1\n      pop\n      jump\t// out\n        /* \"#utility.yul\":27137:27556   */\n    tag_243:\n        /* \"#utility.yul\":27303:27307   */\n      0x00\n        /* \"#utility.yul\":27341:27343   */\n      0x20\n        /* \"#utility.yul\":27330:27339   */\n      dup3\n        /* \"#utility.yul\":27326:27344   */\n      add\n        /* \"#utility.yul\":27318:27344   */\n      swap1\n      pop\n        /* \"#utility.yul\":27390:27399   */\n      dup2\n        /* \"#utility.yul\":27384:27388   */\n      dup2\n        /* \"#utility.yul\":27380:27400   */\n      sub\n        /* \"#utility.yul\":27376:27377   */\n      0x00\n        /* \"#utility.yul\":27365:27374   */\n      dup4\n        /* \"#utility.yul\":27361:27378   */\n      add\n        /* \"#utility.yul\":27354:27401   */\n      mstore\n        /* \"#utility.yul\":27418:27549   */\n      tag_609\n        /* \"#utility.yul\":27544:27548   */\n      dup2\n        /* \"#utility.yul\":27418:27549   */\n      tag_333\n      jump\t// in\n    tag_609:\n        /* \"#utility.yul\":27410:27549   */\n      swap1\n      pop\n        /* \"#utility.yul\":27137:27556   */\n      swap2\n      swap1\n      pop\n      jump\t// out\n        /* \"#utility.yul\":27562:27743   */\n    tag_334:\n        /* \"#utility.yul\":27702:27735   */\n      0x45434453413a20696e76616c6964207369676e6174757265206c656e67746800\n        /* \"#utility.yul\":27698:27699   */\n      0x00\n        /* \"#utility.yul\":27690:27696   */\n      dup3\n        /* \"#utility.yul\":27686:27700   */\n      add\n        /* \"#utility.yul\":27679:27736   */\n      mstore\n        /* \"#utility.yul\":27562:27743   */\n      pop\n      jump\t// out\n        /* \"#utility.yul\":27749:28115   */\n    tag_335:\n        /* \"#utility.yul\":27891:27894   */\n      0x00\n        /* \"#utility.yul\":27912:27979   */\n      tag_612\n        /* \"#utility.yul\":27976:27978   */\n      0x1f\n        /* \"#utility.yul\":27971:27974   */\n      dup4\n        /* \"#utility.yul\":27912:27979   */\n      tag_308\n      jump\t// in\n    tag_612:\n        /* \"#utility.yul\":27905:27979   */\n      swap2\n      pop\n        /* \"#utility.yul\":27988:28081   */\n      tag_613\n        /* \"#utility.yul\":28077:28080   */\n      dup3\n        /* \"#utility.yul\":27988:28081   */\n      tag_334\n      jump\t// in\n    tag_613:\n        /* \"#utility.yul\":28106:28108   */\n      0x20\n        /* \"#utility.yul\":28101:28104   */\n      dup3\n        /* \"#utility.yul\":28097:28109   */\n      add\n        /* \"#utility.yul\":28090:28109   */\n      swap1\n      pop\n        /* \"#utility.yul\":27749:28115   */\n      swap2\n      swap1\n      pop\n      jump\t// out\n        /* \"#utility.yul\":28121:28540   */\n    tag_251:\n        /* \"#utility.yul\":28287:28291   */\n      0x00\n        /* \"#utility.yul\":28325:28327   */\n      0x20\n        /* \"#utility.yul\":28314:28323   */\n      dup3\n        /* \"#utility.yul\":28310:28328   */\n      add\n        /* \"#utility.yul\":28302:28328   */\n      swap1\n      pop\n        /* \"#utility.yul\":28374:28383   */\n      dup2\n        /* \"#utility.yul\":28368:28372   */\n      dup2\n        /* \"#utility.yul\":28364:28384   */\n      sub\n        /* \"#utility.yul\":28360:28361   */\n      0x00\n        /* \"#utility.yul\":28349:28358   */\n      dup4\n        /* \"#utility.yul\":28345:28362   */\n      add\n        /* \"#utility.yul\":28338:28385   */\n      mstore\n        /* \"#utility.yul\":28402:28533   */\n      tag_615\n        /* \"#utility.yul\":28528:28532   */\n      dup2\n        /* \"#utility.yul\":28402:28533   */\n      tag_335\n      jump\t// in\n    tag_615:\n        /* \"#utility.yul\":28394:28533   */\n      swap1\n      pop\n        /* \"#utility.yul\":28121:28540   */\n      swap2\n      swap1\n      pop\n      jump\t// out\n        /* \"#utility.yul\":28546:28767   */\n    tag_336:\n        /* \"#utility.yul\":28686:28720   */\n      0x45434453413a20696e76616c6964207369676e6174757265202773272076616c\n        /* \"#utility.yul\":28682:28683   */\n      0x00\n        /* \"#utility.yul\":28674:28680   */\n      dup3\n        /* \"#utility.yul\":28670:28684   */\n      add\n        /* \"#utility.yul\":28663:28721   */\n      mstore\n        /* \"#utility.yul\":28755:28759   */\n      0x7565000000000000000000000000000000000000000000000000000000000000\n        /* \"#utility.yul\":28750:28752   */\n      0x20\n        /* \"#utility.yul\":28742:28748   */\n      dup3\n        /* \"#utility.yul\":28738:28753   */\n      add\n        /* \"#utility.yul\":28731:28760   */\n      mstore\n        /* \"#utility.yul\":28546:28767   */\n      pop\n      jump\t// out\n        /* \"#utility.yul\":28773:29139   */\n    tag_337:\n        /* \"#utility.yul\":28915:28918   */\n      0x00\n        /* \"#utility.yul\":28936:29003   */\n      tag_618\n        /* \"#utility.yul\":29000:29002   */\n      0x22\n        /* \"#utility.yul\":28995:28998   */\n      dup4\n        /* \"#utility.yul\":28936:29003   */\n      tag_308\n      jump\t// in\n    tag_618:\n        /* \"#utility.yul\":28929:29003   */\n      swap2\n      pop\n        /* \"#utility.yul\":29012:29105   */\n      tag_619\n        /* \"#utility.yul\":29101:29104   */\n      dup3\n        /* \"#utility.yul\":29012:29105   */\n      tag_336\n      jump\t// in\n    tag_619:\n        /* \"#utility.yul\":29130:29132   */\n      0x40\n        /* \"#utility.yul\":29125:29128   */\n      dup3\n        /* \"#utility.yul\":29121:29133   */\n      add\n        /* \"#utility.yul\":29114:29133   */\n      swap1\n      pop\n        /* \"#utility.yul\":28773:29139   */\n      swap2\n      swap1\n      pop\n      jump\t// out\n        /* \"#utility.yul\":29145:29564   */\n    tag_259:\n        /* \"#utility.yul\":29311:29315   */\n      0x00\n        /* \"#utility.yul\":29349:29351   */\n      0x20\n        /* \"#utility.yul\":29338:29347   */\n      dup3\n        /* \"#utility.yul\":29334:29352   */\n      add\n        /* \"#utility.yul\":29326:29352   */\n      swap1\n      pop\n        /* \"#utility.yul\":29398:29407   */\n      dup2\n        /* \"#utility.yul\":29392:29396   */\n      dup2\n        /* \"#utility.yul\":29388:29408   */\n      sub\n        /* \"#utility.yul\":29384:29385   */\n      0x00\n        /* \"#utility.yul\":29373:29382   */\n      dup4\n        /* \"#utility.yul\":29369:29386   */\n      add\n        /* \"#utility.yul\":29362:29409   */\n      mstore\n        /* \"#utility.yul\":29426:29557   */\n      tag_621\n        /* \"#utility.yul\":29552:29556   */\n      dup2\n        /* \"#utility.yul\":29426:29557   */\n      tag_337\n      jump\t// in\n    tag_621:\n        /* \"#utility.yul\":29418:29557   */\n      swap1\n      pop\n        /* \"#utility.yul\":29145:29564   */\n      swap2\n      swap1\n      pop\n      jump\t// out\n        /* \"#utility.yul\":29570:29688   */\n    tag_338:\n        /* \"#utility.yul\":29657:29681   */\n      tag_623\n        /* \"#utility.yul\":29675:29680   */\n      dup2\n        /* \"#utility.yul\":29657:29681   */\n      tag_329\n      jump\t// in\n    tag_623:\n        /* \"#utility.yul\":29652:29655   */\n      dup3\n        /* \"#utility.yul\":29645:29682   */\n      mstore\n        /* \"#utility.yul\":29570:29688   */\n      pop\n      pop\n      jump\t// out\n        /* \"#utility.yul\":29694:29780   */\n    tag_339:\n        /* \"#utility.yul\":29729:29736   */\n      0x00\n        /* \"#utility.yul\":29769:29773   */\n      0xff\n        /* \"#utility.yul\":29762:29767   */\n      dup3\n        /* \"#utility.yul\":29758:29774   */\n      and\n        /* \"#utility.yul\":29747:29774   */\n      swap1\n      pop\n        /* \"#utility.yul\":29694:29780   */\n      swap2\n      swap1\n      pop\n      jump\t// out\n        /* \"#utility.yul\":29786:29898   */\n    tag_340:\n        /* \"#utility.yul\":29869:29891   */\n      tag_626\n        /* \"#utility.yul\":29885:29890   */\n      dup2\n        /* \"#utility.yul\":29869:29891   */\n      tag_339\n      jump\t// in\n    tag_626:\n        /* \"#utility.yul\":29864:29867   */\n      dup3\n        /* \"#utility.yul\":29857:29892   */\n      mstore\n        /* \"#utility.yul\":29786:29898   */\n      pop\n      pop\n      jump\t// out\n        /* \"#utility.yul\":29904:30449   */\n    tag_263:\n        /* \"#utility.yul\":30077:30081   */\n      0x00\n        /* \"#utility.yul\":30115:30118   */\n      0x80\n        /* \"#utility.yul\":30104:30113   */\n      dup3\n        /* \"#utility.yul\":30100:30119   */\n      add\n        /* \"#utility.yul\":30092:30119   */\n      swap1\n      pop\n        /* \"#utility.yul\":30129:30200   */\n      tag_628\n        /* \"#utility.yul\":30197:30198   */\n      0x00\n        /* \"#utility.yul\":30186:30195   */\n      dup4\n        /* \"#utility.yul\":30182:30199   */\n      add\n        /* \"#utility.yul\":30173:30179   */\n      dup8\n        /* \"#utility.yul\":30129:30200   */\n      tag_338\n      jump\t// in\n    tag_628:\n        /* \"#utility.yul\":30210:30278   */\n      tag_629\n        /* \"#utility.yul\":30274:30276   */\n      0x20\n        /* \"#utility.yul\":30263:30272   */\n      dup4\n        /* \"#utility.yul\":30259:30277   */\n      add\n        /* \"#utility.yul\":30250:30256   */\n      dup7\n        /* \"#utility.yul\":30210:30278   */\n      tag_340\n      jump\t// in\n    tag_629:\n        /* \"#utility.yul\":30288:30360   */\n      tag_630\n        /* \"#utility.yul\":30356:30358   */\n      0x40\n        /* \"#utility.yul\":30345:30354   */\n      dup4\n        /* \"#utility.yul\":30341:30359   */\n      add\n        /* \"#utility.yul\":30332:30338   */\n      dup6\n        /* \"#utility.yul\":30288:30360   */\n      tag_338\n      jump\t// in\n    tag_630:\n        /* \"#utility.yul\":30370:30442   */\n      tag_631\n        /* \"#utility.yul\":30438:30440   */\n      0x60\n        /* \"#utility.yul\":30427:30436   */\n      dup4\n        /* \"#utility.yul\":30423:30441   */\n      add\n        /* \"#utility.yul\":30414:30420   */\n      dup5\n        /* \"#utility.yul\":30370:30442   */\n      tag_338\n      jump\t// in\n    tag_631:\n        /* \"#utility.yul\":29904:30449   */\n      swap6\n      swap5\n      pop\n      pop\n      pop\n      pop\n      pop\n      jump\t// out\n    stop\n    data_72284c72650eb5f3095ffe3e95f497df8ba3ab16a33a5479ff4ed3ce4e760077 5369676e6572207765696768747320646f6573206e6f74206d656574207468726573686f6c64\n    data_785bc0b145e7feed7ceac2191d963af02addfd5fb4914d9f29f212008f60b7a9 4174206c65617374206f6e65207369676e6174757265206e6f742066726f6d2061206b6e6f776e20636f6e74726f6c6c6572\n    data_a16b8e883356b25ba9a3764847759439ed808aa5ab1e4a5a4f8ee72d493c676d 4174206c65617374206f6e65207369676e617475726520616c72656164792075736564\n\n    auxdata: 0xa264697066735822122023bb711f8ed0fc5ffb1dbd4b290394e06c71d859ce3e9f0871540bd63cacbdca64736f6c63430008120033\n}\n",
				"bytecode": {
					"linkReferences": {},
					"object": "608060405234801561001057600080fd5b50612129806100206000396000f3fe608060405234801561001057600080fd5b50600436106100885760003560e01c8063a78650901161005b578063a786509014610113578063af91549814610131578063d0bccea11461014d578063f04420f11461016957610088565b806301ffc9a71461008d57806306e82383146100bd578063286936bb146100db57806387f949b4146100f7575b600080fd5b6100a760048036038101906100a29190611163565b610199565b6040516100b491906111ab565b60405180910390f35b6100c561021a565b6040516100d291906111df565b60405180910390f35b6100f560048036038101906100f091906112e1565b61022d565b005b610111600480360381019061010c9190611376565b6103ac565b005b61011b610556565b60405161012891906111df565b60405180910390f35b61014b60048036038101906101469190611440565b610569565b005b61016760048036038101906101629190611567565b610708565b005b610183600480360381019061017e91906115ef565b61096b565b60405161019091906111df565b60405180910390f35b60007f8197b6d4000000000000000000000000000000000000000000000000000000007bffffffffffffffffffffffffffffffffffffffffffffffffffffffff1916827bffffffffffffffffffffffffffffffffffffffffffffffffffffffff1916036102095760019050610215565b610212826109bd565b90505b919050565b6000610224610a27565b60010154905090565b8484844660405160200161024494939291906116df565b604051602081830303815290604052805190602001208282600080610275858585906102709190611913565b610a54565b915091508181906102bc576040517f08c379a00000000000000000000000000000000000000000000000000000000081526004016102b391906119a7565b60405180910390fd5b5060005b8484905081101561034d5760016102d5610a27565b60030160008787858181106102ed576102ec6119c9565b5b90506020028101906102ff9190611a07565b60405161030d929190611a9a565b6040518091039020815260200190815260200160002060006101000a81548160ff021916908315150217905550808061034590611ae2565b9150506102c0565b5060005b8a8a905081101561039f5761038c8b8b83818110610372576103716119c9565b5b905060200201602081019061038791906115ef565b610c44565b808061039790611ae2565b915050610351565b5050505050505050505050565b8383466040516020016103c193929190611b2a565b6040516020818303038152906040528051906020012082826000806103f2858585906103ed9190611913565b610a54565b91509150818190610439576040517f08c379a000000000000000000000000000000000000000000000000000000000815260040161043091906119a7565b60405180910390fd5b5060005b848490508110156104ca576001610452610a27565b600301600087878581811061046a576104696119c9565b5b905060200281019061047c9190611a07565b60405161048a929190611a9a565b6040518091039020815260200190815260200160002060006101000a81548160ff02191690831515021790555080806104c290611ae2565b91505061043d565b5060006104d5610a27565b600001541180156104fc57506104e9610a27565b600101546104f5610a27565b6000015411155b61053b576040517f08c379a000000000000000000000000000000000000000000000000000000000815260040161053290611bad565b60405180910390fd5b88610544610a27565b60000181905550505050505050505050565b6000610560610a27565b60000154905090565b86868686864660405160200161058496959493929190611c48565b6040516020818303038152906040528051906020012082826000806105b5858585906105b09190611913565b610a54565b915091508181906105fc576040517f08c379a00000000000000000000000000000000000000000000000000000000081526004016105f391906119a7565b60405180910390fd5b5060005b8484905081101561068d576001610615610a27565b600301600087878581811061062d5761062c6119c9565b5b905060200281019061063f9190611a07565b60405161064d929190611a9a565b6040518091039020815260200190815260200160002060006101000a81548160ff021916908315150217905550808061068590611ae2565b915050610600565b5060005b8c8c90508110156106f9576106e68d8d838181106106b2576106b16119c9565b5b90506020020160208101906106c791906115ef565b8c8c848181106106da576106d96119c9565b5b90506020020135610d6f565b80806106f190611ae2565b915050610691565b50505050505050505050505050565b8484844660405160200161071f9493929190611cae565b6040516020818303038152906040528051906020012082826000806107508585859061074b9190611913565b610a54565b91509150818190610797576040517f08c379a000000000000000000000000000000000000000000000000000000000815260040161078e91906119a7565b60405180910390fd5b5060005b848490508110156108285760016107b0610a27565b60030160008787858181106107c8576107c76119c9565b5b90506020028101906107da9190611a07565b6040516107e8929190611a9a565b6040518091039020815260200190815260200160002060006101000a81548160ff021916908315150217905550808061082090611ae2565b91505061079b565b5088610832610a27565b60020160008c73ffffffffffffffffffffffffffffffffffffffff1673ffffffffffffffffffffffffffffffffffffffff1681526020019081526020016000205461087b610a27565b600101546108899190611cf3565b6108939190611d27565b61089b610a27565b6001018190555060006108ac610a27565b600101541180156108d357506108c0610a27565b600001546108cc610a27565b6001015410155b610912576040517f08c379a000000000000000000000000000000000000000000000000000000000815260040161090990611da7565b60405180910390fd5b8861091b610a27565b60020160008c73ffffffffffffffffffffffffffffffffffffffff1673ffffffffffffffffffffffffffffffffffffffff1681526020019081526020016000208190555050505050505050505050565b6000610975610a27565b60020160008373ffffffffffffffffffffffffffffffffffffffff1673ffffffffffffffffffffffffffffffffffffffff168152602001908152602001600020549050919050565b60007f01ffc9a7000000000000000000000000000000000000000000000000000000007bffffffffffffffffffffffffffffffffffffffffffffffffffffffff1916827bffffffffffffffffffffffffffffffffffffffffffffffffffffffff1916149050919050565b6000807f255f4a56bd3ad76424e31ed8855ef9ad14a0ce4e67508c76ff082e5c1466b12f90508091505090565b600060606000805b8451811015610bec576000610a8b87878481518110610a7e57610a7d6119c9565b5b6020026020010151610de2565b90506000610a97610a27565b60020160008373ffffffffffffffffffffffffffffffffffffffff1673ffffffffffffffffffffffffffffffffffffffff1681526020019081526020016000205403610b0457600060405180606001604052806032815260200161209f6032913994509450505050610c3d565b6000868381518110610b1957610b186119c9565b5b6020026020010151805190602001209050610b32610a27565b600301600082815260200190815260200160002060009054906101000a900460ff1615610b815760006040518060600160405280602381526020016120d1602391399550955050505050610c3d565b610b89610a27565b60020160008373ffffffffffffffffffffffffffffffffffffffff1673ffffffffffffffffffffffffffffffffffffffff1681526020019081526020016000205484610bd59190611d27565b935050508080610be490611ae2565b915050610a5c565b50610bf5610a27565b60000154811015610c25576000604051806060016040528060268152602001612079602691399250925050610c3d565b60016040518060200160405280600081525092509250505b9250929050565b610c4c610a27565b60020160008273ffffffffffffffffffffffffffffffffffffffff1673ffffffffffffffffffffffffffffffffffffffff16815260200190815260200160002054610c95610a27565b6001016000828254610ca79190611cf3565b925050819055506000610cb8610a27565b60010154118015610cdf5750610ccc610a27565b60000154610cd8610a27565b6001015410155b610d1e576040517f08c379a0000000000000000000000000000000000000000000000000000000008152600401610d1590611da7565b60405180910390fd5b6000610d28610a27565b60020160008373ffffffffffffffffffffffffffffffffffffffff1673ffffffffffffffffffffffffffffffffffffffff1681526020019081526020016000208190555050565b80610d78610a27565b6001016000828254610d8a9190611d27565b9250508190555080610d9a610a27565b60020160008473ffffffffffffffffffffffffffffffffffffffff1673ffffffffffffffffffffffffffffffffffffffff168152602001908152602001600020819055505050565b6000610dff82610df185610e07565b610e3790919063ffffffff16565b905092915050565b600081604051602001610e1a9190611e49565b604051602081830303815290604052805190602001209050919050565b6000806000610e468585610e5e565b91509150610e5381610eaf565b819250505092915050565b6000806041835103610e9f5760008060006020860151925060408601519150606086015160001a9050610e9387828585611015565b94509450505050610ea8565b60006002915091505b9250929050565b60006004811115610ec357610ec2611e6f565b5b816004811115610ed657610ed5611e6f565b5b03156110125760016004811115610ef057610eef611e6f565b5b816004811115610f0357610f02611e6f565b5b03610f43576040517f08c379a0000000000000000000000000000000000000000000000000000000008152600401610f3a90611eea565b60405180910390fd5b60026004811115610f5757610f56611e6f565b5b816004811115610f6a57610f69611e6f565b5b03610faa576040517f08c379a0000000000000000000000000000000000000000000000000000000008152600401610fa190611f56565b60405180910390fd5b60036004811115610fbe57610fbd611e6f565b5b816004811115610fd157610fd0611e6f565b5b03611011576040517f08c379a000000000000000000000000000000000000000000000000000000000815260040161100890611fe8565b60405180910390fd5b5b50565b6000807f7fffffffffffffffffffffffffffffff5d576e7357a4501ddfe92f46681b20a08360001c11156110505760006003915091506110ee565b6000600187878787604051600081526020016040526040516110759493929190612033565b6020604051602081039080840390855afa158015611097573d6000803e3d6000fd5b505050602060405103519050600073ffffffffffffffffffffffffffffffffffffffff168173ffffffffffffffffffffffffffffffffffffffff16036110e5576000600192509250506110ee565b80600092509250505b94509492505050565b6000604051905090565b600080fd5b600080fd5b60007fffffffff0000000000000000000000000000000000000000000000000000000082169050919050565b6111408161110b565b811461114b57600080fd5b50565b60008135905061115d81611137565b92915050565b60006020828403121561117957611178611101565b5b60006111878482850161114e565b91505092915050565b60008115159050919050565b6111a581611190565b82525050565b60006020820190506111c0600083018461119c565b92915050565b6000819050919050565b6111d9816111c6565b82525050565b60006020820190506111f460008301846111d0565b92915050565b600080fd5b600080fd5b600080fd5b60008083601f84011261121f5761121e6111fa565b5b8235905067ffffffffffffffff81111561123c5761123b6111ff565b5b60208301915083602082028301111561125857611257611204565b5b9250929050565b611268816111c6565b811461127357600080fd5b50565b6000813590506112858161125f565b92915050565b60008083601f8401126112a1576112a06111fa565b5b8235905067ffffffffffffffff8111156112be576112bd6111ff565b5b6020830191508360208202830111156112da576112d9611204565b5b9250929050565b6000806000806000606086880312156112fd576112fc611101565b5b600086013567ffffffffffffffff81111561131b5761131a611106565b5b61132788828901611209565b9550955050602061133a88828901611276565b935050604086013567ffffffffffffffff81111561135b5761135a611106565b5b6113678882890161128b565b92509250509295509295909350565b600080600080606085870312156113905761138f611101565b5b600061139e87828801611276565b94505060206113af87828801611276565b935050604085013567ffffffffffffffff8111156113d0576113cf611106565b5b6113dc8782880161128b565b925092505092959194509250565b60008083601f840112611400576113ff6111fa565b5b8235905067ffffffffffffffff81111561141d5761141c6111ff565b5b60208301915083602082028301111561143957611438611204565b5b9250929050565b60008060008060008060006080888a03121561145f5761145e611101565b5b600088013567ffffffffffffffff81111561147d5761147c611106565b5b6114898a828b01611209565b9750975050602088013567ffffffffffffffff8111156114ac576114ab611106565b5b6114b88a828b016113ea565b955095505060406114cb8a828b01611276565b935050606088013567ffffffffffffffff8111156114ec576114eb611106565b5b6114f88a828b0161128b565b925092505092959891949750929550565b600073ffffffffffffffffffffffffffffffffffffffff82169050919050565b600061153482611509565b9050919050565b61154481611529565b811461154f57600080fd5b50565b6000813590506115618161153b565b92915050565b60008060008060006080868803121561158357611582611101565b5b600061159188828901611552565b95505060206115a288828901611276565b94505060406115b388828901611276565b935050606086013567ffffffffffffffff8111156115d4576115d3611106565b5b6115e08882890161128b565b92509250509295509295909350565b60006020828403121561160557611604611101565b5b600061161384828501611552565b91505092915050565b600082825260208201905092915050565b6000819050919050565b61164081611529565b82525050565b60006116528383611637565b60208301905092915050565b600061166d6020840184611552565b905092915050565b6000602082019050919050565b600061168e838561161c565b93506116998261162d565b8060005b858110156116d2576116af828461165e565b6116b98882611646565b97506116c483611675565b92505060018101905061169d565b5085925050509392505050565b600060608201905081810360008301526116fa818688611682565b905061170960208301856111d0565b61171660408301846111d0565b95945050505050565b6000601f19601f8301169050919050565b7f4e487b7100000000000000000000000000000000000000000000000000000000600052604160045260246000fd5b6117688261171f565b810181811067ffffffffffffffff8211171561178757611786611730565b5b80604052505050565b600061179a6110f7565b90506117a6828261175f565b919050565b600067ffffffffffffffff8211156117c6576117c5611730565b5b602082029050602081019050919050565b600080fd5b600067ffffffffffffffff8211156117f7576117f6611730565b5b6118008261171f565b9050602081019050919050565b82818337600083830152505050565b600061182f61182a846117dc565b611790565b90508281526020810184848401111561184b5761184a6117d7565b5b61185684828561180d565b509392505050565b600082601f830112611873576118726111fa565b5b813561188384826020860161181c565b91505092915050565b600061189f61189a846117ab565b611790565b905080838252602082019050602084028301858111156118c2576118c1611204565b5b835b8181101561190957803567ffffffffffffffff8111156118e7576118e66111fa565b5b8086016118f4898261185e565b855260208501945050506020810190506118c4565b5050509392505050565b600061192036848461188c565b905092915050565b600081519050919050565b600082825260208201905092915050565b60005b83811015611962578082015181840152602081019050611947565b60008484015250505050565b600061197982611928565b6119838185611933565b9350611993818560208601611944565b61199c8161171f565b840191505092915050565b600060208201905081810360008301526119c1818461196e565b905092915050565b7f4e487b7100000000000000000000000000000000000000000000000000000000600052603260045260246000fd5b600080fd5b600080fd5b600080fd5b60008083356001602003843603038112611a2457611a236119f8565b5b80840192508235915067ffffffffffffffff821115611a4657611a456119fd565b5b602083019250600182023603831315611a6257611a61611a02565b5b509250929050565b600081905092915050565b6000611a818385611a6a565b9350611a8e83858461180d565b82840190509392505050565b6000611aa7828486611a75565b91508190509392505050565b7f4e487b7100000000000000000000000000000000000000000000000000000000600052601160045260246000fd5b6000611aed826111c6565b91507fffffffffffffffffffffffffffffffffffffffffffffffffffffffffffffffff8203611b1f57611b1e611ab3565b5b600182019050919050565b6000606082019050611b3f60008301866111d0565b611b4c60208301856111d0565b611b5960408301846111d0565b949350505050565b7f496e76616c6964207468726573686f6c64000000000000000000000000000000600082015250565b6000611b97601183611933565b9150611ba282611b61565b602082019050919050565b60006020820190508181036000830152611bc681611b8a565b9050919050565b600082825260208201905092915050565b600080fd5b82818337505050565b6000611bf88385611bcd565b93507f07ffffffffffffffffffffffffffffffffffffffffffffffffffffffffffffff831115611c2b57611c2a611bde565b5b602083029250611c3c838584611be3565b82840190509392505050565b60006080820190508181036000830152611c6381888a611682565b90508181036020830152611c78818688611bec565b9050611c8760408301856111d0565b611c9460608301846111d0565b979650505050505050565b611ca881611529565b82525050565b6000608082019050611cc36000830187611c9f565b611cd060208301866111d0565b611cdd60408301856111d0565b611cea60608301846111d0565b95945050505050565b6000611cfe826111c6565b9150611d09836111c6565b9250828203905081811115611d2157611d20611ab3565b5b92915050565b6000611d32826111c6565b9150611d3d836111c6565b9250828201905080821115611d5557611d54611ab3565b5b92915050565b7f5468726573686f6c6420776f756c6420626520696d706f737369626c65000000600082015250565b6000611d91601d83611933565b9150611d9c82611d5b565b602082019050919050565b60006020820190508181036000830152611dc081611d84565b9050919050565b600081905092915050565b7f19457468657265756d205369676e6564204d6573736167653a0a333200000000600082015250565b6000611e08601c83611dc7565b9150611e1382611dd2565b601c82019050919050565b6000819050919050565b6000819050919050565b611e43611e3e82611e1e565b611e28565b82525050565b6000611e5482611dfb565b9150611e608284611e32565b60208201915081905092915050565b7f4e487b7100000000000000000000000000000000000000000000000000000000600052602160045260246000fd5b7f45434453413a20696e76616c6964207369676e61747572650000000000000000600082015250565b6000611ed4601883611933565b9150611edf82611e9e565b602082019050919050565b60006020820190508181036000830152611f0381611ec7565b9050919050565b7f45434453413a20696e76616c6964207369676e6174757265206c656e67746800600082015250565b6000611f40601f83611933565b9150611f4b82611f0a565b602082019050919050565b60006020820190508181036000830152611f6f81611f33565b9050919050565b7f45434453413a20696e76616c6964207369676e6174757265202773272076616c60008201527f7565000000000000000000000000000000000000000000000000000000000000602082015250565b6000611fd2602283611933565b9150611fdd82611f76565b604082019050919050565b6000602082019050818103600083015261200181611fc5565b9050919050565b61201181611e1e565b82525050565b600060ff82169050919050565b61202d81612017565b82525050565b60006080820190506120486000830187612008565b6120556020830186612024565b6120626040830185612008565b61206f6060830184612008565b9594505050505056fe5369676e6572207765696768747320646f6573206e6f74206d656574207468726573686f6c644174206c65617374206f6e65207369676e6174757265206e6f742066726f6d2061206b6e6f776e20636f6e74726f6c6c65724174206c65617374206f6e65207369676e617475726520616c72656164792075736564a264697066735822122023bb711f8ed0fc5ffb1dbd4b290394e06c71d859ce3e9f0871540bd63cacbdca64736f6c63430008120033",
					"opcodes": "PUSH1 0x80 PUSH1 0x40 MSTORE CALLVALUE DUP1 ISZERO PUSH2 0x10 JUMPI PUSH1 0x0 DUP1 REVERT JUMPDEST POP PUSH2 0x2129 DUP1 PUSH2 0x20 PUSH1 0x0 CODECOPY PUSH1 0x0 RETURN INVALID PUSH1 0x80 PUSH1 0x40 MSTORE CALLVALUE DUP1 ISZERO PUSH2 0x10 JUMPI PUSH1 0x0 DUP1 REVERT JUMPDEST POP PUSH1 0x4 CALLDATASIZE LT PUSH2 0x88 JUMPI PUSH1 0x0 CALLDATALOAD PUSH1 0xE0 SHR DUP1 PUSH4 0xA7865090 GT PUSH2 0x5B JUMPI DUP1 PUSH4 0xA7865090 EQ PUSH2 0x113 JUMPI DUP1 PUSH4 0xAF915498 EQ PUSH2 0x131 JUMPI DUP1 PUSH4 0xD0BCCEA1 EQ PUSH2 0x14D JUMPI DUP1 PUSH4 0xF04420F1 EQ PUSH2 0x169 JUMPI PUSH2 0x88 JUMP JUMPDEST DUP1 PUSH4 0x1FFC9A7 EQ PUSH2 0x8D JUMPI DUP1 PUSH4 0x6E82383 EQ PUSH2 0xBD JUMPI DUP1 PUSH4 0x286936BB EQ PUSH2 0xDB JUMPI DUP1 PUSH4 0x87F949B4 EQ PUSH2 0xF7 JUMPI JUMPDEST PUSH1 0x0 DUP1 REVERT JUMPDEST PUSH2 0xA7 PUSH1 0x4 DUP1 CALLDATASIZE SUB DUP2 ADD SWAP1 PUSH2 0xA2 SWAP2 SWAP1 PUSH2 0x1163 JUMP JUMPDEST PUSH2 0x199 JUMP JUMPDEST PUSH1 0x40 MLOAD PUSH2 0xB4 SWAP2 SWAP1 PUSH2 0x11AB JUMP JUMPDEST PUSH1 0x40 MLOAD DUP1 SWAP2 SUB SWAP1 RETURN JUMPDEST PUSH2 0xC5 PUSH2 0x21A JUMP JUMPDEST PUSH1 0x40 MLOAD PUSH2 0xD2 SWAP2 SWAP1 PUSH2 0x11DF JUMP JUMPDEST PUSH1 0x40 MLOAD DUP1 SWAP2 SUB SWAP1 RETURN JUMPDEST PUSH2 0xF5 PUSH1 0x4 DUP1 CALLDATASIZE SUB DUP2 ADD SWAP1 PUSH2 0xF0 SWAP2 SWAP1 PUSH2 0x12E1 JUMP JUMPDEST PUSH2 0x22D JUMP JUMPDEST STOP JUMPDEST PUSH2 0x111 PUSH1 0x4 DUP1 CALLDATASIZE SUB DUP2 ADD SWAP1 PUSH2 0x10C SWAP2 SWAP1 PUSH2 0x1376 JUMP JUMPDEST PUSH2 0x3AC JUMP JUMPDEST STOP JUMPDEST PUSH2 0x11B PUSH2 0x556 JUMP JUMPDEST PUSH1 0x40 MLOAD PUSH2 0x128 SWAP2 SWAP1 PUSH2 0x11DF JUMP JUMPDEST PUSH1 0x40 MLOAD DUP1 SWAP2 SUB SWAP1 RETURN JUMPDEST PUSH2 0x14B PUSH1 0x4 DUP1 CALLDATASIZE SUB DUP2 ADD SWAP1 PUSH2 0x146 SWAP2 SWAP1 PUSH2 0x1440 JUMP JUMPDEST PUSH2 0x569 JUMP JUMPDEST STOP JUMPDEST PUSH2 0x167 PUSH1 0x4 DUP1 CALLDATASIZE SUB DUP2 ADD SWAP1 PUSH2 0x162 SWAP2 SWAP1 PUSH2 0x1567 JUMP JUMPDEST PUSH2 0x708 JUMP JUMPDEST STOP JUMPDEST PUSH2 0x183 PUSH1 0x4 DUP1 CALLDATASIZE SUB DUP2 ADD SWAP1 PUSH2 0x17E SWAP2 SWAP1 PUSH2 0x15EF JUMP JUMPDEST PUSH2 0x96B JUMP JUMPDEST PUSH1 0x40 MLOAD PUSH2 0x190 SWAP2 SWAP1 PUSH2 0x11DF JUMP JUMPDEST PUSH1 0x40 MLOAD DUP1 SWAP2 SUB SWAP1 RETURN JUMPDEST PUSH1 0x0 PUSH32 0x8197B6D400000000000000000000000000000000000000000000000000000000 PUSH28 0xFFFFFFFFFFFFFFFFFFFFFFFFFFFFFFFFFFFFFFFFFFFFFFFFFFFFFFFF NOT AND DUP3 PUSH28 0xFFFFFFFFFFFFFFFFFFFFFFFFFFFFFFFFFFFFFFFFFFFFFFFFFFFFFFFF NOT AND SUB PUSH2 0x209 JUMPI PUSH1 0x1 SWAP1 POP PUSH2 0x215 JUMP JUMPDEST PUSH2 0x212 DUP3 PUSH2 0x9BD JUMP JUMPDEST SWAP1 POP JUMPDEST SWAP2 SWAP1 POP JUMP JUMPDEST PUSH1 0x0 PUSH2 0x224 PUSH2 0xA27 JUMP JUMPDEST PUSH1 0x1 ADD SLOAD SWAP1 POP SWAP1 JUMP JUMPDEST DUP5 DUP5 DUP5 CHAINID PUSH1 0x40 MLOAD PUSH1 0x20 ADD PUSH2 0x244 SWAP5 SWAP4 SWAP3 SWAP2 SWAP1 PUSH2 0x16DF JUMP JUMPDEST PUSH1 0x40 MLOAD PUSH1 0x20 DUP2 DUP4 SUB SUB DUP2 MSTORE SWAP1 PUSH1 0x40 MSTORE DUP1 MLOAD SWAP1 PUSH1 0x20 ADD KECCAK256 DUP3 DUP3 PUSH1 0x0 DUP1 PUSH2 0x275 DUP6 DUP6 DUP6 SWAP1 PUSH2 0x270 SWAP2 SWAP1 PUSH2 0x1913 JUMP JUMPDEST PUSH2 0xA54 JUMP JUMPDEST SWAP2 POP SWAP2 POP DUP2 DUP2 SWAP1 PUSH2 0x2BC JUMPI PUSH1 0x40 MLOAD PUSH32 0x8C379A000000000000000000000000000000000000000000000000000000000 DUP2 MSTORE PUSH1 0x4 ADD PUSH2 0x2B3 SWAP2 SWAP1 PUSH2 0x19A7 JUMP JUMPDEST PUSH1 0x40 MLOAD DUP1 SWAP2 SUB SWAP1 REVERT JUMPDEST POP PUSH1 0x0 JUMPDEST DUP5 DUP5 SWAP1 POP DUP2 LT ISZERO PUSH2 0x34D JUMPI PUSH1 0x1 PUSH2 0x2D5 PUSH2 0xA27 JUMP JUMPDEST PUSH1 0x3 ADD PUSH1 0x0 DUP8 DUP8 DUP6 DUP2 DUP2 LT PUSH2 0x2ED JUMPI PUSH2 0x2EC PUSH2 0x19C9 JUMP JUMPDEST JUMPDEST SWAP1 POP PUSH1 0x20 MUL DUP2 ADD SWAP1 PUSH2 0x2FF SWAP2 SWAP1 PUSH2 0x1A07 JUMP JUMPDEST PUSH1 0x40 MLOAD PUSH2 0x30D SWAP3 SWAP2 SWAP1 PUSH2 0x1A9A JUMP JUMPDEST PUSH1 0x40 MLOAD DUP1 SWAP2 SUB SWAP1 KECCAK256 DUP2 MSTORE PUSH1 0x20 ADD SWAP1 DUP2 MSTORE PUSH1 0x20 ADD PUSH1 0x0 KECCAK256 PUSH1 0x0 PUSH2 0x100 EXP DUP2 SLOAD DUP2 PUSH1 0xFF MUL NOT AND SWAP1 DUP4 ISZERO ISZERO MUL OR SWAP1 SSTORE POP DUP1 DUP1 PUSH2 0x345 SWAP1 PUSH2 0x1AE2 JUMP JUMPDEST SWAP2 POP POP PUSH2 0x2C0 JUMP JUMPDEST POP PUSH1 0x0 JUMPDEST DUP11 DUP11 SWAP1 POP DUP2 LT ISZERO PUSH2 0x39F JUMPI PUSH2 0x38C DUP12 DUP12 DUP4 DUP2 DUP2 LT PUSH2 0x372 JUMPI PUSH2 0x371 PUSH2 0x19C9 JUMP JUMPDEST JUMPDEST SWAP1 POP PUSH1 0x20 MUL ADD PUSH1 0x20 DUP2 ADD SWAP1 PUSH2 0x387 SWAP2 SWAP1 PUSH2 0x15EF JUMP JUMPDEST PUSH2 0xC44 JUMP JUMPDEST DUP1 DUP1 PUSH2 0x397 SWAP1 PUSH2 0x1AE2 JUMP JUMPDEST SWAP2 POP POP PUSH2 0x351 JUMP JUMPDEST POP POP POP POP POP POP POP POP POP POP POP JUMP JUMPDEST DUP4 DUP4 CHAINID PUSH1 0x40 MLOAD PUSH1 0x20 ADD PUSH2 0x3C1 SWAP4 SWAP3 SWAP2 SWAP1 PUSH2 0x1B2A JUMP JUMPDEST PUSH1 0x40 MLOAD PUSH1 0x20 DUP2 DUP4 SUB SUB DUP2 MSTORE SWAP1 PUSH1 0x40 MSTORE DUP1 MLOAD SWAP1 PUSH1 0x20 ADD KECCAK256 DUP3 DUP3 PUSH1 0x0 DUP1 PUSH2 0x3F2 DUP6 DUP6 DUP6 SWAP1 PUSH2 0x3ED SWAP2 SWAP1 PUSH2 0x1913 JUMP JUMPDEST PUSH2 0xA54 JUMP JUMPDEST SWAP2 POP SWAP2 POP DUP2 DUP2 SWAP1 PUSH2 0x439 JUMPI PUSH1 0x40 MLOAD PUSH32 0x8C379A000000000000000000000000000000000000000000000000000000000 DUP2 MSTORE PUSH1 0x4 ADD PUSH2 0x430 SWAP2 SWAP1 PUSH2 0x19A7 JUMP JUMPDEST PUSH1 0x40 MLOAD DUP1 SWAP2 SUB SWAP1 REVERT JUMPDEST POP PUSH1 0x0 JUMPDEST DUP5 DUP5 SWAP1 POP DUP2 LT ISZERO PUSH2 0x4CA JUMPI PUSH1 0x1 PUSH2 0x452 PUSH2 0xA27 JUMP JUMPDEST PUSH1 0x3 ADD PUSH1 0x0 DUP8 DUP8 DUP6 DUP2 DUP2 LT PUSH2 0x46A JUMPI PUSH2 0x469 PUSH2 0x19C9 JUMP JUMPDEST JUMPDEST SWAP1 POP PUSH1 0x20 MUL DUP2 ADD SWAP1 PUSH2 0x47C SWAP2 SWAP1 PUSH2 0x1A07 JUMP JUMPDEST PUSH1 0x40 MLOAD PUSH2 0x48A SWAP3 SWAP2 SWAP1 PUSH2 0x1A9A JUMP JUMPDEST PUSH1 0x40 MLOAD DUP1 SWAP2 SUB SWAP1 KECCAK256 DUP2 MSTORE PUSH1 0x20 ADD SWAP1 DUP2 MSTORE PUSH1 0x20 ADD PUSH1 0x0 KECCAK256 PUSH1 0x0 PUSH2 0x100 EXP DUP2 SLOAD DUP2 PUSH1 0xFF MUL NOT AND SWAP1 DUP4 ISZERO ISZERO MUL OR SWAP1 SSTORE POP DUP1 DUP1 PUSH2 0x4C2 SWAP1 PUSH2 0x1AE2 JUMP JUMPDEST SWAP2 POP POP PUSH2 0x43D JUMP JUMPDEST POP PUSH1 0x0 PUSH2 0x4D5 PUSH2 0xA27 JUMP JUMPDEST PUSH1 0x0 ADD SLOAD GT DUP1 ISZERO PUSH2 0x4FC JUMPI POP PUSH2 0x4E9 PUSH2 0xA27 JUMP JUMPDEST PUSH1 0x1 ADD SLOAD PUSH2 0x4F5 PUSH2 0xA27 JUMP JUMPDEST PUSH1 0x0 ADD SLOAD GT ISZERO JUMPDEST PUSH2 0x53B JUMPI PUSH1 0x40 MLOAD PUSH32 0x8C379A000000000000000000000000000000000000000000000000000000000 DUP2 MSTORE PUSH1 0x4 ADD PUSH2 0x532 SWAP1 PUSH2 0x1BAD JUMP JUMPDEST PUSH1 0x40 MLOAD DUP1 SWAP2 SUB SWAP1 REVERT JUMPDEST DUP9 PUSH2 0x544 PUSH2 0xA27 JUMP JUMPDEST PUSH1 0x0 ADD DUP2 SWAP1 SSTORE POP POP POP POP POP POP POP POP POP POP JUMP JUMPDEST PUSH1 0x0 PUSH2 0x560 PUSH2 0xA27 JUMP JUMPDEST PUSH1 0x0 ADD SLOAD SWAP1 POP SWAP1 JUMP JUMPDEST DUP7 DUP7 DUP7 DUP7 DUP7 CHAINID PUSH1 0x40 MLOAD PUSH1 0x20 ADD PUSH2 0x584 SWAP7 SWAP6 SWAP5 SWAP4 SWAP3 SWAP2 SWAP1 PUSH2 0x1C48 JUMP JUMPDEST PUSH1 0x40 MLOAD PUSH1 0x20 DUP2 DUP4 SUB SUB DUP2 MSTORE SWAP1 PUSH1 0x40 MSTORE DUP1 MLOAD SWAP1 PUSH1 0x20 ADD KECCAK256 DUP3 DUP3 PUSH1 0x0 DUP1 PUSH2 0x5B5 DUP6 DUP6 DUP6 SWAP1 PUSH2 0x5B0 SWAP2 SWAP1 PUSH2 0x1913 JUMP JUMPDEST PUSH2 0xA54 JUMP JUMPDEST SWAP2 POP SWAP2 POP DUP2 DUP2 SWAP1 PUSH2 0x5FC JUMPI PUSH1 0x40 MLOAD PUSH32 0x8C379A000000000000000000000000000000000000000000000000000000000 DUP2 MSTORE PUSH1 0x4 ADD PUSH2 0x5F3 SWAP2 SWAP1 PUSH2 0x19A7 JUMP JUMPDEST PUSH1 0x40 MLOAD DUP1 SWAP2 SUB SWAP1 REVERT JUMPDEST POP PUSH1 0x0 JUMPDEST DUP5 DUP5 SWAP1 POP DUP2 LT ISZERO PUSH2 0x68D JUMPI PUSH1 0x1 PUSH2 0x615 PUSH2 0xA27 JUMP JUMPDEST PUSH1 0x3 ADD PUSH1 0x0 DUP8 DUP8 DUP6 DUP2 DUP2 LT PUSH2 0x62D JUMPI PUSH2 0x62C PUSH2 0x19C9 JUMP JUMPDEST JUMPDEST SWAP1 POP PUSH1 0x20 MUL DUP2 ADD SWAP1 PUSH2 0x63F SWAP2 SWAP1 PUSH2 0x1A07 JUMP JUMPDEST PUSH1 0x40 MLOAD PUSH2 0x64D SWAP3 SWAP2 SWAP1 PUSH2 0x1A9A JUMP JUMPDEST PUSH1 0x40 MLOAD DUP1 SWAP2 SUB SWAP1 KECCAK256 DUP2 MSTORE PUSH1 0x20 ADD SWAP1 DUP2 MSTORE PUSH1 0x20 ADD PUSH1 0x0 KECCAK256 PUSH1 0x0 PUSH2 0x100 EXP DUP2 SLOAD DUP2 PUSH1 0xFF MUL NOT AND SWAP1 DUP4 ISZERO ISZERO MUL OR SWAP1 SSTORE POP DUP1 DUP1 PUSH2 0x685 SWAP1 PUSH2 0x1AE2 JUMP JUMPDEST SWAP2 POP POP PUSH2 0x600 JUMP JUMPDEST POP PUSH1 0x0 JUMPDEST DUP13 DUP13 SWAP1 POP DUP2 LT ISZERO PUSH2 0x6F9 JUMPI PUSH2 0x6E6 DUP14 DUP14 DUP4 DUP2 DUP2 LT PUSH2 0x6B2 JUMPI PUSH2 0x6B1 PUSH2 0x19C9 JUMP JUMPDEST JUMPDEST SWAP1 POP PUSH1 0x20 MUL ADD PUSH1 0x20 DUP2 ADD SWAP1 PUSH2 0x6C7 SWAP2 SWAP1 PUSH2 0x15EF JUMP JUMPDEST DUP13 DUP13 DUP5 DUP2 DUP2 LT PUSH2 0x6DA JUMPI PUSH2 0x6D9 PUSH2 0x19C9 JUMP JUMPDEST JUMPDEST SWAP1 POP PUSH1 0x20 MUL ADD CALLDATALOAD PUSH2 0xD6F JUMP JUMPDEST DUP1 DUP1 PUSH2 0x6F1 SWAP1 PUSH2 0x1AE2 JUMP JUMPDEST SWAP2 POP POP PUSH2 0x691 JUMP JUMPDEST POP POP POP POP POP POP POP POP POP POP POP POP POP JUMP JUMPDEST DUP5 DUP5 DUP5 CHAINID PUSH1 0x40 MLOAD PUSH1 0x20 ADD PUSH2 0x71F SWAP5 SWAP4 SWAP3 SWAP2 SWAP1 PUSH2 0x1CAE JUMP JUMPDEST PUSH1 0x40 MLOAD PUSH1 0x20 DUP2 DUP4 SUB SUB DUP2 MSTORE SWAP1 PUSH1 0x40 MSTORE DUP1 MLOAD SWAP1 PUSH1 0x20 ADD KECCAK256 DUP3 DUP3 PUSH1 0x0 DUP1 PUSH2 0x750 DUP6 DUP6 DUP6 SWAP1 PUSH2 0x74B SWAP2 SWAP1 PUSH2 0x1913 JUMP JUMPDEST PUSH2 0xA54 JUMP JUMPDEST SWAP2 POP SWAP2 POP DUP2 DUP2 SWAP1 PUSH2 0x797 JUMPI PUSH1 0x40 MLOAD PUSH32 0x8C379A000000000000000000000000000000000000000000000000000000000 DUP2 MSTORE PUSH1 0x4 ADD PUSH2 0x78E SWAP2 SWAP1 PUSH2 0x19A7 JUMP JUMPDEST PUSH1 0x40 MLOAD DUP1 SWAP2 SUB SWAP1 REVERT JUMPDEST POP PUSH1 0x0 JUMPDEST DUP5 DUP5 SWAP1 POP DUP2 LT ISZERO PUSH2 0x828 JUMPI PUSH1 0x1 PUSH2 0x7B0 PUSH2 0xA27 JUMP JUMPDEST PUSH1 0x3 ADD PUSH1 0x0 DUP8 DUP8 DUP6 DUP2 DUP2 LT PUSH2 0x7C8 JUMPI PUSH2 0x7C7 PUSH2 0x19C9 JUMP JUMPDEST JUMPDEST SWAP1 POP PUSH1 0x20 MUL DUP2 ADD SWAP1 PUSH2 0x7DA SWAP2 SWAP1 PUSH2 0x1A07 JUMP JUMPDEST PUSH1 0x40 MLOAD PUSH2 0x7E8 SWAP3 SWAP2 SWAP1 PUSH2 0x1A9A JUMP JUMPDEST PUSH1 0x40 MLOAD DUP1 SWAP2 SUB SWAP1 KECCAK256 DUP2 MSTORE PUSH1 0x20 ADD SWAP1 DUP2 MSTORE PUSH1 0x20 ADD PUSH1 0x0 KECCAK256 PUSH1 0x0 PUSH2 0x100 EXP DUP2 SLOAD DUP2 PUSH1 0xFF MUL NOT AND SWAP1 DUP4 ISZERO ISZERO MUL OR SWAP1 SSTORE POP DUP1 DUP1 PUSH2 0x820 SWAP1 PUSH2 0x1AE2 JUMP JUMPDEST SWAP2 POP POP PUSH2 0x79B JUMP JUMPDEST POP DUP9 PUSH2 0x832 PUSH2 0xA27 JUMP JUMPDEST PUSH1 0x2 ADD PUSH1 0x0 DUP13 PUSH20 0xFFFFFFFFFFFFFFFFFFFFFFFFFFFFFFFFFFFFFFFF AND PUSH20 0xFFFFFFFFFFFFFFFFFFFFFFFFFFFFFFFFFFFFFFFF AND DUP2 MSTORE PUSH1 0x20 ADD SWAP1 DUP2 MSTORE PUSH1 0x20 ADD PUSH1 0x0 KECCAK256 SLOAD PUSH2 0x87B PUSH2 0xA27 JUMP JUMPDEST PUSH1 0x1 ADD SLOAD PUSH2 0x889 SWAP2 SWAP1 PUSH2 0x1CF3 JUMP JUMPDEST PUSH2 0x893 SWAP2 SWAP1 PUSH2 0x1D27 JUMP JUMPDEST PUSH2 0x89B PUSH2 0xA27 JUMP JUMPDEST PUSH1 0x1 ADD DUP2 SWAP1 SSTORE POP PUSH1 0x0 PUSH2 0x8AC PUSH2 0xA27 JUMP JUMPDEST PUSH1 0x1 ADD SLOAD GT DUP1 ISZERO PUSH2 0x8D3 JUMPI POP PUSH2 0x8C0 PUSH2 0xA27 JUMP JUMPDEST PUSH1 0x0 ADD SLOAD PUSH2 0x8CC PUSH2 0xA27 JUMP JUMPDEST PUSH1 0x1 ADD SLOAD LT ISZERO JUMPDEST PUSH2 0x912 JUMPI PUSH1 0x40 MLOAD PUSH32 0x8C379A000000000000000000000000000000000000000000000000000000000 DUP2 MSTORE PUSH1 0x4 ADD PUSH2 0x909 SWAP1 PUSH2 0x1DA7 JUMP JUMPDEST PUSH1 0x40 MLOAD DUP1 SWAP2 SUB SWAP1 REVERT JUMPDEST DUP9 PUSH2 0x91B PUSH2 0xA27 JUMP JUMPDEST PUSH1 0x2 ADD PUSH1 0x0 DUP13 PUSH20 0xFFFFFFFFFFFFFFFFFFFFFFFFFFFFFFFFFFFFFFFF AND PUSH20 0xFFFFFFFFFFFFFFFFFFFFFFFFFFFFFFFFFFFFFFFF AND DUP2 MSTORE PUSH1 0x20 ADD SWAP1 DUP2 MSTORE PUSH1 0x20 ADD PUSH1 0x0 KECCAK256 DUP2 SWAP1 SSTORE POP POP POP POP POP POP POP POP POP POP POP JUMP JUMPDEST PUSH1 0x0 PUSH2 0x975 PUSH2 0xA27 JUMP JUMPDEST PUSH1 0x2 ADD PUSH1 0x0 DUP4 PUSH20 0xFFFFFFFFFFFFFFFFFFFFFFFFFFFFFFFFFFFFFFFF AND PUSH20 0xFFFFFFFFFFFFFFFFFFFFFFFFFFFFFFFFFFFFFFFF AND DUP2 MSTORE PUSH1 0x20 ADD SWAP1 DUP2 MSTORE PUSH1 0x20 ADD PUSH1 0x0 KECCAK256 SLOAD SWAP1 POP SWAP2 SWAP1 POP JUMP JUMPDEST PUSH1 0x0 PUSH32 0x1FFC9A700000000000000000000000000000000000000000000000000000000 PUSH28 0xFFFFFFFFFFFFFFFFFFFFFFFFFFFFFFFFFFFFFFFFFFFFFFFFFFFFFFFF NOT AND DUP3 PUSH28 0xFFFFFFFFFFFFFFFFFFFFFFFFFFFFFFFFFFFFFFFFFFFFFFFFFFFFFFFF NOT AND EQ SWAP1 POP SWAP2 SWAP1 POP JUMP JUMPDEST PUSH1 0x0 DUP1 PUSH32 0x255F4A56BD3AD76424E31ED8855EF9AD14A0CE4E67508C76FF082E5C1466B12F SWAP1 POP DUP1 SWAP2 POP POP SWAP1 JUMP JUMPDEST PUSH1 0x0 PUSH1 0x60 PUSH1 0x0 DUP1 JUMPDEST DUP5 MLOAD DUP2 LT ISZERO PUSH2 0xBEC JUMPI PUSH1 0x0 PUSH2 0xA8B DUP8 DUP8 DUP5 DUP2 MLOAD DUP2 LT PUSH2 0xA7E JUMPI PUSH2 0xA7D PUSH2 0x19C9 JUMP JUMPDEST JUMPDEST PUSH1 0x20 MUL PUSH1 0x20 ADD ADD MLOAD PUSH2 0xDE2 JUMP JUMPDEST SWAP1 POP PUSH1 0x0 PUSH2 0xA97 PUSH2 0xA27 JUMP JUMPDEST PUSH1 0x2 ADD PUSH1 0x0 DUP4 PUSH20 0xFFFFFFFFFFFFFFFFFFFFFFFFFFFFFFFFFFFFFFFF AND PUSH20 0xFFFFFFFFFFFFFFFFFFFFFFFFFFFFFFFFFFFFFFFF AND DUP2 MSTORE PUSH1 0x20 ADD SWAP1 DUP2 MSTORE PUSH1 0x20 ADD PUSH1 0x0 KECCAK256 SLOAD SUB PUSH2 0xB04 JUMPI PUSH1 0x0 PUSH1 0x40 MLOAD DUP1 PUSH1 0x60 ADD PUSH1 0x40 MSTORE DUP1 PUSH1 0x32 DUP2 MSTORE PUSH1 0x20 ADD PUSH2 0x209F PUSH1 0x32 SWAP2 CODECOPY SWAP5 POP SWAP5 POP POP POP POP PUSH2 0xC3D JUMP JUMPDEST PUSH1 0x0 DUP7 DUP4 DUP2 MLOAD DUP2 LT PUSH2 0xB19 JUMPI PUSH2 0xB18 PUSH2 0x19C9 JUMP JUMPDEST JUMPDEST PUSH1 0x20 MUL PUSH1 0x20 ADD ADD MLOAD DUP1 MLOAD SWAP1 PUSH1 0x20 ADD KECCAK256 SWAP1 POP PUSH2 0xB32 PUSH2 0xA27 JUMP JUMPDEST PUSH1 0x3 ADD PUSH1 0x0 DUP3 DUP2 MSTORE PUSH1 0x20 ADD SWAP1 DUP2 MSTORE PUSH1 0x20 ADD PUSH1 0x0 KECCAK256 PUSH1 0x0 SWAP1 SLOAD SWAP1 PUSH2 0x100 EXP SWAP1 DIV PUSH1 0xFF AND ISZERO PUSH2 0xB81 JUMPI PUSH1 0x0 PUSH1 0x40 MLOAD DUP1 PUSH1 0x60 ADD PUSH1 0x40 MSTORE DUP1 PUSH1 0x23 DUP2 MSTORE PUSH1 0x20 ADD PUSH2 0x20D1 PUSH1 0x23 SWAP2 CODECOPY SWAP6 POP SWAP6 POP POP POP POP POP PUSH2 0xC3D JUMP JUMPDEST PUSH2 0xB89 PUSH2 0xA27 JUMP JUMPDEST PUSH1 0x2 ADD PUSH1 0x0 DUP4 PUSH20 0xFFFFFFFFFFFFFFFFFFFFFFFFFFFFFFFFFFFFFFFF AND PUSH20 0xFFFFFFFFFFFFFFFFFFFFFFFFFFFFFFFFFFFFFFFF AND DUP2 MSTORE PUSH1 0x20 ADD SWAP1 DUP2 MSTORE PUSH1 0x20 ADD PUSH1 0x0 KECCAK256 SLOAD DUP5 PUSH2 0xBD5 SWAP2 SWAP1 PUSH2 0x1D27 JUMP JUMPDEST SWAP4 POP POP POP DUP1 DUP1 PUSH2 0xBE4 SWAP1 PUSH2 0x1AE2 JUMP JUMPDEST SWAP2 POP POP PUSH2 0xA5C JUMP JUMPDEST POP PUSH2 0xBF5 PUSH2 0xA27 JUMP JUMPDEST PUSH1 0x0 ADD SLOAD DUP2 LT ISZERO PUSH2 0xC25 JUMPI PUSH1 0x0 PUSH1 0x40 MLOAD DUP1 PUSH1 0x60 ADD PUSH1 0x40 MSTORE DUP1 PUSH1 0x26 DUP2 MSTORE PUSH1 0x20 ADD PUSH2 0x2079 PUSH1 0x26 SWAP2 CODECOPY SWAP3 POP SWAP3 POP POP PUSH2 0xC3D JUMP JUMPDEST PUSH1 0x1 PUSH1 0x40 MLOAD DUP1 PUSH1 0x20 ADD PUSH1 0x40 MSTORE DUP1 PUSH1 0x0 DUP2 MSTORE POP SWAP3 POP SWAP3 POP POP JUMPDEST SWAP3 POP SWAP3 SWAP1 POP JUMP JUMPDEST PUSH2 0xC4C PUSH2 0xA27 JUMP JUMPDEST PUSH1 0x2 ADD PUSH1 0x0 DUP3 PUSH20 0xFFFFFFFFFFFFFFFFFFFFFFFFFFFFFFFFFFFFFFFF AND PUSH20 0xFFFFFFFFFFFFFFFFFFFFFFFFFFFFFFFFFFFFFFFF AND DUP2 MSTORE PUSH1 0x20 ADD SWAP1 DUP2 MSTORE PUSH1 0x20 ADD PUSH1 0x0 KECCAK256 SLOAD PUSH2 0xC95 PUSH2 0xA27 JUMP JUMPDEST PUSH1 0x1 ADD PUSH1 0x0 DUP3 DUP3 SLOAD PUSH2 0xCA7 SWAP2 SWAP1 PUSH2 0x1CF3 JUMP JUMPDEST SWAP3 POP POP DUP2 SWAP1 SSTORE POP PUSH1 0x0 PUSH2 0xCB8 PUSH2 0xA27 JUMP JUMPDEST PUSH1 0x1 ADD SLOAD GT DUP1 ISZERO PUSH2 0xCDF JUMPI POP PUSH2 0xCCC PUSH2 0xA27 JUMP JUMPDEST PUSH1 0x0 ADD SLOAD PUSH2 0xCD8 PUSH2 0xA27 JUMP JUMPDEST PUSH1 0x1 ADD SLOAD LT ISZERO JUMPDEST PUSH2 0xD1E JUMPI PUSH1 0x40 MLOAD PUSH32 0x8C379A000000000000000000000000000000000000000000000000000000000 DUP2 MSTORE PUSH1 0x4 ADD PUSH2 0xD15 SWAP1 PUSH2 0x1DA7 JUMP JUMPDEST PUSH1 0x40 MLOAD DUP1 SWAP2 SUB SWAP1 REVERT JUMPDEST PUSH1 0x0 PUSH2 0xD28 PUSH2 0xA27 JUMP JUMPDEST PUSH1 0x2 ADD PUSH1 0x0 DUP4 PUSH20 0xFFFFFFFFFFFFFFFFFFFFFFFFFFFFFFFFFFFFFFFF AND PUSH20 0xFFFFFFFFFFFFFFFFFFFFFFFFFFFFFFFFFFFFFFFF AND DUP2 MSTORE PUSH1 0x20 ADD SWAP1 DUP2 MSTORE PUSH1 0x20 ADD PUSH1 0x0 KECCAK256 DUP2 SWAP1 SSTORE POP POP JUMP JUMPDEST DUP1 PUSH2 0xD78 PUSH2 0xA27 JUMP JUMPDEST PUSH1 0x1 ADD PUSH1 0x0 DUP3 DUP3 SLOAD PUSH2 0xD8A SWAP2 SWAP1 PUSH2 0x1D27 JUMP JUMPDEST SWAP3 POP POP DUP2 SWAP1 SSTORE POP DUP1 PUSH2 0xD9A PUSH2 0xA27 JUMP JUMPDEST PUSH1 0x2 ADD PUSH1 0x0 DUP5 PUSH20 0xFFFFFFFFFFFFFFFFFFFFFFFFFFFFFFFFFFFFFFFF AND PUSH20 0xFFFFFFFFFFFFFFFFFFFFFFFFFFFFFFFFFFFFFFFF AND DUP2 MSTORE PUSH1 0x20 ADD SWAP1 DUP2 MSTORE PUSH1 0x20 ADD PUSH1 0x0 KECCAK256 DUP2 SWAP1 SSTORE POP POP POP JUMP JUMPDEST PUSH1 0x0 PUSH2 0xDFF DUP3 PUSH2 0xDF1 DUP6 PUSH2 0xE07 JUMP JUMPDEST PUSH2 0xE37 SWAP1 SWAP2 SWAP1 PUSH4 0xFFFFFFFF AND JUMP JUMPDEST SWAP1 POP SWAP3 SWAP2 POP POP JUMP JUMPDEST PUSH1 0x0 DUP2 PUSH1 0x40 MLOAD PUSH1 0x20 ADD PUSH2 0xE1A SWAP2 SWAP1 PUSH2 0x1E49 JUMP JUMPDEST PUSH1 0x40 MLOAD PUSH1 0x20 DUP2 DUP4 SUB SUB DUP2 MSTORE SWAP1 PUSH1 0x40 MSTORE DUP1 MLOAD SWAP1 PUSH1 0x20 ADD KECCAK256 SWAP1 POP SWAP2 SWAP1 POP JUMP JUMPDEST PUSH1 0x0 DUP1 PUSH1 0x0 PUSH2 0xE46 DUP6 DUP6 PUSH2 0xE5E JUMP JUMPDEST SWAP2 POP SWAP2 POP PUSH2 0xE53 DUP2 PUSH2 0xEAF JUMP JUMPDEST DUP2 SWAP3 POP POP POP SWAP3 SWAP2 POP POP JUMP JUMPDEST PUSH1 0x0 DUP1 PUSH1 0x41 DUP4 MLOAD SUB PUSH2 0xE9F JUMPI PUSH1 0x0 DUP1 PUSH1 0x0 PUSH1 0x20 DUP7 ADD MLOAD SWAP3 POP PUSH1 0x40 DUP7 ADD MLOAD SWAP2 POP PUSH1 0x60 DUP7 ADD MLOAD PUSH1 0x0 BYTE SWAP1 POP PUSH2 0xE93 DUP8 DUP3 DUP6 DUP6 PUSH2 0x1015 JUMP JUMPDEST SWAP5 POP SWAP5 POP POP POP POP PUSH2 0xEA8 JUMP JUMPDEST PUSH1 0x0 PUSH1 0x2 SWAP2 POP SWAP2 POP JUMPDEST SWAP3 POP SWAP3 SWAP1 POP JUMP JUMPDEST PUSH1 0x0 PUSH1 0x4 DUP2 GT ISZERO PUSH2 0xEC3 JUMPI PUSH2 0xEC2 PUSH2 0x1E6F JUMP JUMPDEST JUMPDEST DUP2 PUSH1 0x4 DUP2 GT ISZERO PUSH2 0xED6 JUMPI PUSH2 0xED5 PUSH2 0x1E6F JUMP JUMPDEST JUMPDEST SUB ISZERO PUSH2 0x1012 JUMPI PUSH1 0x1 PUSH1 0x4 DUP2 GT ISZERO PUSH2 0xEF0 JUMPI PUSH2 0xEEF PUSH2 0x1E6F JUMP JUMPDEST JUMPDEST DUP2 PUSH1 0x4 DUP2 GT ISZERO PUSH2 0xF03 JUMPI PUSH2 0xF02 PUSH2 0x1E6F JUMP JUMPDEST JUMPDEST SUB PUSH2 0xF43 JUMPI PUSH1 0x40 MLOAD PUSH32 0x8C379A000000000000000000000000000000000000000000000000000000000 DUP2 MSTORE PUSH1 0x4 ADD PUSH2 0xF3A SWAP1 PUSH2 0x1EEA JUMP JUMPDEST PUSH1 0x40 MLOAD DUP1 SWAP2 SUB SWAP1 REVERT JUMPDEST PUSH1 0x2 PUSH1 0x4 DUP2 GT ISZERO PUSH2 0xF57 JUMPI PUSH2 0xF56 PUSH2 0x1E6F JUMP JUMPDEST JUMPDEST DUP2 PUSH1 0x4 DUP2 GT ISZERO PUSH2 0xF6A JUMPI PUSH2 0xF69 PUSH2 0x1E6F JUMP JUMPDEST JUMPDEST SUB PUSH2 0xFAA JUMPI PUSH1 0x40 MLOAD PUSH32 0x8C379A000000000000000000000000000000000000000000000000000000000 DUP2 MSTORE PUSH1 0x4 ADD PUSH2 0xFA1 SWAP1 PUSH2 0x1F56 JUMP JUMPDEST PUSH1 0x40 MLOAD DUP1 SWAP2 SUB SWAP1 REVERT JUMPDEST PUSH1 0x3 PUSH1 0x4 DUP2 GT ISZERO PUSH2 0xFBE JUMPI PUSH2 0xFBD PUSH2 0x1E6F JUMP JUMPDEST JUMPDEST DUP2 PUSH1 0x4 DUP2 GT ISZERO PUSH2 0xFD1 JUMPI PUSH2 0xFD0 PUSH2 0x1E6F JUMP JUMPDEST JUMPDEST SUB PUSH2 0x1011 JUMPI PUSH1 0x40 MLOAD PUSH32 0x8C379A000000000000000000000000000000000000000000000000000000000 DUP2 MSTORE PUSH1 0x4 ADD PUSH2 0x1008 SWAP1 PUSH2 0x1FE8 JUMP JUMPDEST PUSH1 0x40 MLOAD DUP1 SWAP2 SUB SWAP1 REVERT JUMPDEST JUMPDEST POP JUMP JUMPDEST PUSH1 0x0 DUP1 PUSH32 0x7FFFFFFFFFFFFFFFFFFFFFFFFFFFFFFF5D576E7357A4501DDFE92F46681B20A0 DUP4 PUSH1 0x0 SHR GT ISZERO PUSH2 0x1050 JUMPI PUSH1 0x0 PUSH1 0x3 SWAP2 POP SWAP2 POP PUSH2 0x10EE JUMP JUMPDEST PUSH1 0x0 PUSH1 0x1 DUP8 DUP8 DUP8 DUP8 PUSH1 0x40 MLOAD PUSH1 0x0 DUP2 MSTORE PUSH1 0x20 ADD PUSH1 0x40 MSTORE PUSH1 0x40 MLOAD PUSH2 0x1075 SWAP5 SWAP4 SWAP3 SWAP2 SWAP1 PUSH2 0x2033 JUMP JUMPDEST PUSH1 0x20 PUSH1 0x40 MLOAD PUSH1 0x20 DUP2 SUB SWAP1 DUP1 DUP5 SUB SWAP1 DUP6 GAS STATICCALL ISZERO DUP1 ISZERO PUSH2 0x1097 JUMPI RETURNDATASIZE PUSH1 0x0 DUP1 RETURNDATACOPY RETURNDATASIZE PUSH1 0x0 REVERT JUMPDEST POP POP POP PUSH1 0x20 PUSH1 0x40 MLOAD SUB MLOAD SWAP1 POP PUSH1 0x0 PUSH20 0xFFFFFFFFFFFFFFFFFFFFFFFFFFFFFFFFFFFFFFFF AND DUP2 PUSH20 0xFFFFFFFFFFFFFFFFFFFFFFFFFFFFFFFFFFFFFFFF AND SUB PUSH2 0x10E5 JUMPI PUSH1 0x0 PUSH1 0x1 SWAP3 POP SWAP3 POP POP PUSH2 0x10EE JUMP JUMPDEST DUP1 PUSH1 0x0 SWAP3 POP SWAP3 POP POP JUMPDEST SWAP5 POP SWAP5 SWAP3 POP POP POP JUMP JUMPDEST PUSH1 0x0 PUSH1 0x40 MLOAD SWAP1 POP SWAP1 JUMP JUMPDEST PUSH1 0x0 DUP1 REVERT JUMPDEST PUSH1 0x0 DUP1 REVERT JUMPDEST PUSH1 0x0 PUSH32 0xFFFFFFFF00000000000000000000000000000000000000000000000000000000 DUP3 AND SWAP1 POP SWAP2 SWAP1 POP JUMP JUMPDEST PUSH2 0x1140 DUP2 PUSH2 0x110B JUMP JUMPDEST DUP2 EQ PUSH2 0x114B JUMPI PUSH1 0x0 DUP1 REVERT JUMPDEST POP JUMP JUMPDEST PUSH1 0x0 DUP2 CALLDATALOAD SWAP1 POP PUSH2 0x115D DUP2 PUSH2 0x1137 JUMP JUMPDEST SWAP3 SWAP2 POP POP JUMP JUMPDEST PUSH1 0x0 PUSH1 0x20 DUP3 DUP5 SUB SLT ISZERO PUSH2 0x1179 JUMPI PUSH2 0x1178 PUSH2 0x1101 JUMP JUMPDEST JUMPDEST PUSH1 0x0 PUSH2 0x1187 DUP5 DUP3 DUP6 ADD PUSH2 0x114E JUMP JUMPDEST SWAP2 POP POP SWAP3 SWAP2 POP POP JUMP JUMPDEST PUSH1 0x0 DUP2 ISZERO ISZERO SWAP1 POP SWAP2 SWAP1 POP JUMP JUMPDEST PUSH2 0x11A5 DUP2 PUSH2 0x1190 JUMP JUMPDEST DUP3 MSTORE POP POP JUMP JUMPDEST PUSH1 0x0 PUSH1 0x20 DUP3 ADD SWAP1 POP PUSH2 0x11C0 PUSH1 0x0 DUP4 ADD DUP5 PUSH2 0x119C JUMP JUMPDEST SWAP3 SWAP2 POP POP JUMP JUMPDEST PUSH1 0x0 DUP2 SWAP1 POP SWAP2 SWAP1 POP JUMP JUMPDEST PUSH2 0x11D9 DUP2 PUSH2 0x11C6 JUMP JUMPDEST DUP3 MSTORE POP POP JUMP JUMPDEST PUSH1 0x0 PUSH1 0x20 DUP3 ADD SWAP1 POP PUSH2 0x11F4 PUSH1 0x0 DUP4 ADD DUP5 PUSH2 0x11D0 JUMP JUMPDEST SWAP3 SWAP2 POP POP JUMP JUMPDEST PUSH1 0x0 DUP1 REVERT JUMPDEST PUSH1 0x0 DUP1 REVERT JUMPDEST PUSH1 0x0 DUP1 REVERT JUMPDEST PUSH1 0x0 DUP1 DUP4 PUSH1 0x1F DUP5 ADD SLT PUSH2 0x121F JUMPI PUSH2 0x121E PUSH2 0x11FA JUMP JUMPDEST JUMPDEST DUP3 CALLDATALOAD SWAP1 POP PUSH8 0xFFFFFFFFFFFFFFFF DUP2 GT ISZERO PUSH2 0x123C JUMPI PUSH2 0x123B PUSH2 0x11FF JUMP JUMPDEST JUMPDEST PUSH1 0x20 DUP4 ADD SWAP2 POP DUP4 PUSH1 0x20 DUP3 MUL DUP4 ADD GT ISZERO PUSH2 0x1258 JUMPI PUSH2 0x1257 PUSH2 0x1204 JUMP JUMPDEST JUMPDEST SWAP3 POP SWAP3 SWAP1 POP JUMP JUMPDEST PUSH2 0x1268 DUP2 PUSH2 0x11C6 JUMP JUMPDEST DUP2 EQ PUSH2 0x1273 JUMPI PUSH1 0x0 DUP1 REVERT JUMPDEST POP JUMP JUMPDEST PUSH1 0x0 DUP2 CALLDATALOAD SWAP1 POP PUSH2 0x1285 DUP2 PUSH2 0x125F JUMP JUMPDEST SWAP3 SWAP2 POP POP JUMP JUMPDEST PUSH1 0x0 DUP1 DUP4 PUSH1 0x1F DUP5 ADD SLT PUSH2 0x12A1 JUMPI PUSH2 0x12A0 PUSH2 0x11FA JUMP JUMPDEST JUMPDEST DUP3 CALLDATALOAD SWAP1 POP PUSH8 0xFFFFFFFFFFFFFFFF DUP2 GT ISZERO PUSH2 0x12BE JUMPI PUSH2 0x12BD PUSH2 0x11FF JUMP JUMPDEST JUMPDEST PUSH1 0x20 DUP4 ADD SWAP2 POP DUP4 PUSH1 0x20 DUP3 MUL DUP4 ADD GT ISZERO PUSH2 0x12DA JUMPI PUSH2 0x12D9 PUSH2 0x1204 JUMP JUMPDEST JUMPDEST SWAP3 POP SWAP3 SWAP1 POP JUMP JUMPDEST PUSH1 0x0 DUP1 PUSH1 0x0 DUP1 PUSH1 0x0 PUSH1 0x60 DUP7 DUP9 SUB SLT ISZERO PUSH2 0x12FD JUMPI PUSH2 0x12FC PUSH2 0x1101 JUMP JUMPDEST JUMPDEST PUSH1 0x0 DUP7 ADD CALLDATALOAD PUSH8 0xFFFFFFFFFFFFFFFF DUP2 GT ISZERO PUSH2 0x131B JUMPI PUSH2 0x131A PUSH2 0x1106 JUMP JUMPDEST JUMPDEST PUSH2 0x1327 DUP9 DUP3 DUP10 ADD PUSH2 0x1209 JUMP JUMPDEST SWAP6 POP SWAP6 POP POP PUSH1 0x20 PUSH2 0x133A DUP9 DUP3 DUP10 ADD PUSH2 0x1276 JUMP JUMPDEST SWAP4 POP POP PUSH1 0x40 DUP7 ADD CALLDATALOAD PUSH8 0xFFFFFFFFFFFFFFFF DUP2 GT ISZERO PUSH2 0x135B JUMPI PUSH2 0x135A PUSH2 0x1106 JUMP JUMPDEST JUMPDEST PUSH2 0x1367 DUP9 DUP3 DUP10 ADD PUSH2 0x128B JUMP JUMPDEST SWAP3 POP SWAP3 POP POP SWAP3 SWAP6 POP SWAP3 SWAP6 SWAP1 SWAP4 POP JUMP JUMPDEST PUSH1 0x0 DUP1 PUSH1 0x0 DUP1 PUSH1 0x60 DUP6 DUP8 SUB SLT ISZERO PUSH2 0x1390 JUMPI PUSH2 0x138F PUSH2 0x1101 JUMP JUMPDEST JUMPDEST PUSH1 0x0 PUSH2 0x139E DUP8 DUP3 DUP9 ADD PUSH2 0x1276 JUMP JUMPDEST SWAP5 POP POP PUSH1 0x20 PUSH2 0x13AF DUP8 DUP3 DUP9 ADD PUSH2 0x1276 JUMP JUMPDEST SWAP4 POP POP PUSH1 0x40 DUP6 ADD CALLDATALOAD PUSH8 0xFFFFFFFFFFFFFFFF DUP2 GT ISZERO PUSH2 0x13D0 JUMPI PUSH2 0x13CF PUSH2 0x1106 JUMP JUMPDEST JUMPDEST PUSH2 0x13DC DUP8 DUP3 DUP9 ADD PUSH2 0x128B JUMP JUMPDEST SWAP3 POP SWAP3 POP POP SWAP3 SWAP6 SWAP2 SWAP5 POP SWAP3 POP JUMP JUMPDEST PUSH1 0x0 DUP1 DUP4 PUSH1 0x1F DUP5 ADD SLT PUSH2 0x1400 JUMPI PUSH2 0x13FF PUSH2 0x11FA JUMP JUMPDEST JUMPDEST DUP3 CALLDATALOAD SWAP1 POP PUSH8 0xFFFFFFFFFFFFFFFF DUP2 GT ISZERO PUSH2 0x141D JUMPI PUSH2 0x141C PUSH2 0x11FF JUMP JUMPDEST JUMPDEST PUSH1 0x20 DUP4 ADD SWAP2 POP DUP4 PUSH1 0x20 DUP3 MUL DUP4 ADD GT ISZERO PUSH2 0x1439 JUMPI PUSH2 0x1438 PUSH2 0x1204 JUMP JUMPDEST JUMPDEST SWAP3 POP SWAP3 SWAP1 POP JUMP JUMPDEST PUSH1 0x0 DUP1 PUSH1 0x0 DUP1 PUSH1 0x0 DUP1 PUSH1 0x0 PUSH1 0x80 DUP9 DUP11 SUB SLT ISZERO PUSH2 0x145F JUMPI PUSH2 0x145E PUSH2 0x1101 JUMP JUMPDEST JUMPDEST PUSH1 0x0 DUP9 ADD CALLDATALOAD PUSH8 0xFFFFFFFFFFFFFFFF DUP2 GT ISZERO PUSH2 0x147D JUMPI PUSH2 0x147C PUSH2 0x1106 JUMP JUMPDEST JUMPDEST PUSH2 0x1489 DUP11 DUP3 DUP12 ADD PUSH2 0x1209 JUMP JUMPDEST SWAP8 POP SWAP8 POP POP PUSH1 0x20 DUP9 ADD CALLDATALOAD PUSH8 0xFFFFFFFFFFFFFFFF DUP2 GT ISZERO PUSH2 0x14AC JUMPI PUSH2 0x14AB PUSH2 0x1106 JUMP JUMPDEST JUMPDEST PUSH2 0x14B8 DUP11 DUP3 DUP12 ADD PUSH2 0x13EA JUMP JUMPDEST SWAP6 POP SWAP6 POP POP PUSH1 0x40 PUSH2 0x14CB DUP11 DUP3 DUP12 ADD PUSH2 0x1276 JUMP JUMPDEST SWAP4 POP POP PUSH1 0x60 DUP9 ADD CALLDATALOAD PUSH8 0xFFFFFFFFFFFFFFFF DUP2 GT ISZERO PUSH2 0x14EC JUMPI PUSH2 0x14EB PUSH2 0x1106 JUMP JUMPDEST JUMPDEST PUSH2 0x14F8 DUP11 DUP3 DUP12 ADD PUSH2 0x128B JUMP JUMPDEST SWAP3 POP SWAP3 POP POP SWAP3 SWAP6 SWAP9 SWAP2 SWAP5 SWAP8 POP SWAP3 SWAP6 POP JUMP JUMPDEST PUSH1 0x0 PUSH20 0xFFFFFFFFFFFFFFFFFFFFFFFFFFFFFFFFFFFFFFFF DUP3 AND SWAP1 POP SWAP2 SWAP1 POP JUMP JUMPDEST PUSH1 0x0 PUSH2 0x1534 DUP3 PUSH2 0x1509 JUMP JUMPDEST SWAP1 POP SWAP2 SWAP1 POP JUMP JUMPDEST PUSH2 0x1544 DUP2 PUSH2 0x1529 JUMP JUMPDEST DUP2 EQ PUSH2 0x154F JUMPI PUSH1 0x0 DUP1 REVERT JUMPDEST POP JUMP JUMPDEST PUSH1 0x0 DUP2 CALLDATALOAD SWAP1 POP PUSH2 0x1561 DUP2 PUSH2 0x153B JUMP JUMPDEST SWAP3 SWAP2 POP POP JUMP JUMPDEST PUSH1 0x0 DUP1 PUSH1 0x0 DUP1 PUSH1 0x0 PUSH1 0x80 DUP7 DUP9 SUB SLT ISZERO PUSH2 0x1583 JUMPI PUSH2 0x1582 PUSH2 0x1101 JUMP JUMPDEST JUMPDEST PUSH1 0x0 PUSH2 0x1591 DUP9 DUP3 DUP10 ADD PUSH2 0x1552 JUMP JUMPDEST SWAP6 POP POP PUSH1 0x20 PUSH2 0x15A2 DUP9 DUP3 DUP10 ADD PUSH2 0x1276 JUMP JUMPDEST SWAP5 POP POP PUSH1 0x40 PUSH2 0x15B3 DUP9 DUP3 DUP10 ADD PUSH2 0x1276 JUMP JUMPDEST SWAP4 POP POP PUSH1 0x60 DUP7 ADD CALLDATALOAD PUSH8 0xFFFFFFFFFFFFFFFF DUP2 GT ISZERO PUSH2 0x15D4 JUMPI PUSH2 0x15D3 PUSH2 0x1106 JUMP JUMPDEST JUMPDEST PUSH2 0x15E0 DUP9 DUP3 DUP10 ADD PUSH2 0x128B JUMP JUMPDEST SWAP3 POP SWAP3 POP POP SWAP3 SWAP6 POP SWAP3 SWAP6 SWAP1 SWAP4 POP JUMP JUMPDEST PUSH1 0x0 PUSH1 0x20 DUP3 DUP5 SUB SLT ISZERO PUSH2 0x1605 JUMPI PUSH2 0x1604 PUSH2 0x1101 JUMP JUMPDEST JUMPDEST PUSH1 0x0 PUSH2 0x1613 DUP5 DUP3 DUP6 ADD PUSH2 0x1552 JUMP JUMPDEST SWAP2 POP POP SWAP3 SWAP2 POP POP JUMP JUMPDEST PUSH1 0x0 DUP3 DUP3 MSTORE PUSH1 0x20 DUP3 ADD SWAP1 POP SWAP3 SWAP2 POP POP JUMP JUMPDEST PUSH1 0x0 DUP2 SWAP1 POP SWAP2 SWAP1 POP JUMP JUMPDEST PUSH2 0x1640 DUP2 PUSH2 0x1529 JUMP JUMPDEST DUP3 MSTORE POP POP JUMP JUMPDEST PUSH1 0x0 PUSH2 0x1652 DUP4 DUP4 PUSH2 0x1637 JUMP JUMPDEST PUSH1 0x20 DUP4 ADD SWAP1 POP SWAP3 SWAP2 POP POP JUMP JUMPDEST PUSH1 0x0 PUSH2 0x166D PUSH1 0x20 DUP5 ADD DUP5 PUSH2 0x1552 JUMP JUMPDEST SWAP1 POP SWAP3 SWAP2 POP POP JUMP JUMPDEST PUSH1 0x0 PUSH1 0x20 DUP3 ADD SWAP1 POP SWAP2 SWAP1 POP JUMP JUMPDEST PUSH1 0x0 PUSH2 0x168E DUP4 DUP6 PUSH2 0x161C JUMP JUMPDEST SWAP4 POP PUSH2 0x1699 DUP3 PUSH2 0x162D JUMP JUMPDEST DUP1 PUSH1 0x0 JUMPDEST DUP6 DUP2 LT ISZERO PUSH2 0x16D2 JUMPI PUSH2 0x16AF DUP3 DUP5 PUSH2 0x165E JUMP JUMPDEST PUSH2 0x16B9 DUP9 DUP3 PUSH2 0x1646 JUMP JUMPDEST SWAP8 POP PUSH2 0x16C4 DUP4 PUSH2 0x1675 JUMP JUMPDEST SWAP3 POP POP PUSH1 0x1 DUP2 ADD SWAP1 POP PUSH2 0x169D JUMP JUMPDEST POP DUP6 SWAP3 POP POP POP SWAP4 SWAP3 POP POP POP JUMP JUMPDEST PUSH1 0x0 PUSH1 0x60 DUP3 ADD SWAP1 POP DUP2 DUP2 SUB PUSH1 0x0 DUP4 ADD MSTORE PUSH2 0x16FA DUP2 DUP7 DUP9 PUSH2 0x1682 JUMP JUMPDEST SWAP1 POP PUSH2 0x1709 PUSH1 0x20 DUP4 ADD DUP6 PUSH2 0x11D0 JUMP JUMPDEST PUSH2 0x1716 PUSH1 0x40 DUP4 ADD DUP5 PUSH2 0x11D0 JUMP JUMPDEST SWAP6 SWAP5 POP POP POP POP POP JUMP JUMPDEST PUSH1 0x0 PUSH1 0x1F NOT PUSH1 0x1F DUP4 ADD AND SWAP1 POP SWAP2 SWAP1 POP JUMP JUMPDEST PUSH32 0x4E487B7100000000000000000000000000000000000000000000000000000000 PUSH1 0x0 MSTORE PUSH1 0x41 PUSH1 0x4 MSTORE PUSH1 0x24 PUSH1 0x0 REVERT JUMPDEST PUSH2 0x1768 DUP3 PUSH2 0x171F JUMP JUMPDEST DUP2 ADD DUP2 DUP2 LT PUSH8 0xFFFFFFFFFFFFFFFF DUP3 GT OR ISZERO PUSH2 0x1787 JUMPI PUSH2 0x1786 PUSH2 0x1730 JUMP JUMPDEST JUMPDEST DUP1 PUSH1 0x40 MSTORE POP POP POP JUMP JUMPDEST PUSH1 0x0 PUSH2 0x179A PUSH2 0x10F7 JUMP JUMPDEST SWAP1 POP PUSH2 0x17A6 DUP3 DUP3 PUSH2 0x175F JUMP JUMPDEST SWAP2 SWAP1 POP JUMP JUMPDEST PUSH1 0x0 PUSH8 0xFFFFFFFFFFFFFFFF DUP3 GT ISZERO PUSH2 0x17C6 JUMPI PUSH2 0x17C5 PUSH2 0x1730 JUMP JUMPDEST JUMPDEST PUSH1 0x20 DUP3 MUL SWAP1 POP PUSH1 0x20 DUP2 ADD SWAP1 POP SWAP2 SWAP1 POP JUMP JUMPDEST PUSH1 0x0 DUP1 REVERT JUMPDEST PUSH1 0x0 PUSH8 0xFFFFFFFFFFFFFFFF DUP3 GT ISZERO PUSH2 0x17F7 JUMPI PUSH2 0x17F6 PUSH2 0x1730 JUMP JUMPDEST JUMPDEST PUSH2 0x1800 DUP3 PUSH2 0x171F JUMP JUMPDEST SWAP1 POP PUSH1 0x20 DUP2 ADD SWAP1 POP SWAP2 SWAP1 POP JUMP JUMPDEST DUP3 DUP2 DUP4 CALLDATACOPY PUSH1 0x0 DUP4 DUP4 ADD MSTORE POP POP POP JUMP JUMPDEST PUSH1 0x0 PUSH2 0x182F PUSH2 0x182A DUP5 PUSH2 0x17DC JUMP JUMPDEST PUSH2 0x1790 JUMP JUMPDEST SWAP1 POP DUP3 DUP2 MSTORE PUSH1 0x20 DUP2 ADD DUP5 DUP5 DUP5 ADD GT ISZERO PUSH2 0x184B JUMPI PUSH2 0x184A PUSH2 0x17D7 JUMP JUMPDEST JUMPDEST PUSH2 0x1856 DUP5 DUP3 DUP6 PUSH2 0x180D JUMP JUMPDEST POP SWAP4 SWAP3 POP POP POP JUMP JUMPDEST PUSH1 0x0 DUP3 PUSH1 0x1F DUP4 ADD SLT PUSH2 0x1873 JUMPI PUSH2 0x1872 PUSH2 0x11FA JUMP JUMPDEST JUMPDEST DUP2 CALLDATALOAD PUSH2 0x1883 DUP5 DUP3 PUSH1 0x20 DUP7 ADD PUSH2 0x181C JUMP JUMPDEST SWAP2 POP POP SWAP3 SWAP2 POP POP JUMP JUMPDEST PUSH1 0x0 PUSH2 0x189F PUSH2 0x189A DUP5 PUSH2 0x17AB JUMP JUMPDEST PUSH2 0x1790 JUMP JUMPDEST SWAP1 POP DUP1 DUP4 DUP3 MSTORE PUSH1 0x20 DUP3 ADD SWAP1 POP PUSH1 0x20 DUP5 MUL DUP4 ADD DUP6 DUP2 GT ISZERO PUSH2 0x18C2 JUMPI PUSH2 0x18C1 PUSH2 0x1204 JUMP JUMPDEST JUMPDEST DUP4 JUMPDEST DUP2 DUP2 LT ISZERO PUSH2 0x1909 JUMPI DUP1 CALLDATALOAD PUSH8 0xFFFFFFFFFFFFFFFF DUP2 GT ISZERO PUSH2 0x18E7 JUMPI PUSH2 0x18E6 PUSH2 0x11FA JUMP JUMPDEST JUMPDEST DUP1 DUP7 ADD PUSH2 0x18F4 DUP10 DUP3 PUSH2 0x185E JUMP JUMPDEST DUP6 MSTORE PUSH1 0x20 DUP6 ADD SWAP5 POP POP POP PUSH1 0x20 DUP2 ADD SWAP1 POP PUSH2 0x18C4 JUMP JUMPDEST POP POP POP SWAP4 SWAP3 POP POP POP JUMP JUMPDEST PUSH1 0x0 PUSH2 0x1920 CALLDATASIZE DUP5 DUP5 PUSH2 0x188C JUMP JUMPDEST SWAP1 POP SWAP3 SWAP2 POP POP JUMP JUMPDEST PUSH1 0x0 DUP2 MLOAD SWAP1 POP SWAP2 SWAP1 POP JUMP JUMPDEST PUSH1 0x0 DUP3 DUP3 MSTORE PUSH1 0x20 DUP3 ADD SWAP1 POP SWAP3 SWAP2 POP POP JUMP JUMPDEST PUSH1 0x0 JUMPDEST DUP4 DUP2 LT ISZERO PUSH2 0x1962 JUMPI DUP1 DUP3 ADD MLOAD DUP2 DUP5 ADD MSTORE PUSH1 0x20 DUP2 ADD SWAP1 POP PUSH2 0x1947 JUMP JUMPDEST PUSH1 0x0 DUP5 DUP5 ADD MSTORE POP POP POP POP JUMP JUMPDEST PUSH1 0x0 PUSH2 0x1979 DUP3 PUSH2 0x1928 JUMP JUMPDEST PUSH2 0x1983 DUP2 DUP6 PUSH2 0x1933 JUMP JUMPDEST SWAP4 POP PUSH2 0x1993 DUP2 DUP6 PUSH1 0x20 DUP7 ADD PUSH2 0x1944 JUMP JUMPDEST PUSH2 0x199C DUP2 PUSH2 0x171F JUMP JUMPDEST DUP5 ADD SWAP2 POP POP SWAP3 SWAP2 POP POP JUMP JUMPDEST PUSH1 0x0 PUSH1 0x20 DUP3 ADD SWAP1 POP DUP2 DUP2 SUB PUSH1 0x0 DUP4 ADD MSTORE PUSH2 0x19C1 DUP2 DUP5 PUSH2 0x196E JUMP JUMPDEST SWAP1 POP SWAP3 SWAP2 POP POP JUMP JUMPDEST PUSH32 0x4E487B7100000000000000000000000000000000000000000000000000000000 PUSH1 0x0 MSTORE PUSH1 0x32 PUSH1 0x4 MSTORE PUSH1 0x24 PUSH1 0x0 REVERT JUMPDEST PUSH1 0x0 DUP1 REVERT JUMPDEST PUSH1 0x0 DUP1 REVERT JUMPDEST PUSH1 0x0 DUP1 REVERT JUMPDEST PUSH1 0x0 DUP1 DUP4 CALLDATALOAD PUSH1 0x1 PUSH1 0x20 SUB DUP5 CALLDATASIZE SUB SUB DUP2 SLT PUSH2 0x1A24 JUMPI PUSH2 0x1A23 PUSH2 0x19F8 JUMP JUMPDEST JUMPDEST DUP1 DUP5 ADD SWAP3 POP DUP3 CALLDATALOAD SWAP2 POP PUSH8 0xFFFFFFFFFFFFFFFF DUP3 GT ISZERO PUSH2 0x1A46 JUMPI PUSH2 0x1A45 PUSH2 0x19FD JUMP JUMPDEST JUMPDEST PUSH1 0x20 DUP4 ADD SWAP3 POP PUSH1 0x1 DUP3 MUL CALLDATASIZE SUB DUP4 SGT ISZERO PUSH2 0x1A62 JUMPI PUSH2 0x1A61 PUSH2 0x1A02 JUMP JUMPDEST JUMPDEST POP SWAP3 POP SWAP3 SWAP1 POP JUMP JUMPDEST PUSH1 0x0 DUP2 SWAP1 POP SWAP3 SWAP2 POP POP JUMP JUMPDEST PUSH1 0x0 PUSH2 0x1A81 DUP4 DUP6 PUSH2 0x1A6A JUMP JUMPDEST SWAP4 POP PUSH2 0x1A8E DUP4 DUP6 DUP5 PUSH2 0x180D JUMP JUMPDEST DUP3 DUP5 ADD SWAP1 POP SWAP4 SWAP3 POP POP POP JUMP JUMPDEST PUSH1 0x0 PUSH2 0x1AA7 DUP3 DUP5 DUP7 PUSH2 0x1A75 JUMP JUMPDEST SWAP2 POP DUP2 SWAP1 POP SWAP4 SWAP3 POP POP POP JUMP JUMPDEST PUSH32 0x4E487B7100000000000000000000000000000000000000000000000000000000 PUSH1 0x0 MSTORE PUSH1 0x11 PUSH1 0x4 MSTORE PUSH1 0x24 PUSH1 0x0 REVERT JUMPDEST PUSH1 0x0 PUSH2 0x1AED DUP3 PUSH2 0x11C6 JUMP JUMPDEST SWAP2 POP PUSH32 0xFFFFFFFFFFFFFFFFFFFFFFFFFFFFFFFFFFFFFFFFFFFFFFFFFFFFFFFFFFFFFFFF DUP3 SUB PUSH2 0x1B1F JUMPI PUSH2 0x1B1E PUSH2 0x1AB3 JUMP JUMPDEST JUMPDEST PUSH1 0x1 DUP3 ADD SWAP1 POP SWAP2 SWAP1 POP JUMP JUMPDEST PUSH1 0x0 PUSH1 0x60 DUP3 ADD SWAP1 POP PUSH2 0x1B3F PUSH1 0x0 DUP4 ADD DUP7 PUSH2 0x11D0 JUMP JUMPDEST PUSH2 0x1B4C PUSH1 0x20 DUP4 ADD DUP6 PUSH2 0x11D0 JUMP JUMPDEST PUSH2 0x1B59 PUSH1 0x40 DUP4 ADD DUP5 PUSH2 0x11D0 JUMP JUMPDEST SWAP5 SWAP4 POP POP POP POP JUMP JUMPDEST PUSH32 0x496E76616C6964207468726573686F6C64000000000000000000000000000000 PUSH1 0x0 DUP3 ADD MSTORE POP JUMP JUMPDEST PUSH1 0x0 PUSH2 0x1B97 PUSH1 0x11 DUP4 PUSH2 0x1933 JUMP JUMPDEST SWAP2 POP PUSH2 0x1BA2 DUP3 PUSH2 0x1B61 JUMP JUMPDEST PUSH1 0x20 DUP3 ADD SWAP1 POP SWAP2 SWAP1 POP JUMP JUMPDEST PUSH1 0x0 PUSH1 0x20 DUP3 ADD SWAP1 POP DUP2 DUP2 SUB PUSH1 0x0 DUP4 ADD MSTORE PUSH2 0x1BC6 DUP2 PUSH2 0x1B8A JUMP JUMPDEST SWAP1 POP SWAP2 SWAP1 POP JUMP JUMPDEST PUSH1 0x0 DUP3 DUP3 MSTORE PUSH1 0x20 DUP3 ADD SWAP1 POP SWAP3 SWAP2 POP POP JUMP JUMPDEST PUSH1 0x0 DUP1 REVERT JUMPDEST DUP3 DUP2 DUP4 CALLDATACOPY POP POP POP JUMP JUMPDEST PUSH1 0x0 PUSH2 0x1BF8 DUP4 DUP6 PUSH2 0x1BCD JUMP JUMPDEST SWAP4 POP PUSH32 0x7FFFFFFFFFFFFFFFFFFFFFFFFFFFFFFFFFFFFFFFFFFFFFFFFFFFFFFFFFFFFFF DUP4 GT ISZERO PUSH2 0x1C2B JUMPI PUSH2 0x1C2A PUSH2 0x1BDE JUMP JUMPDEST JUMPDEST PUSH1 0x20 DUP4 MUL SWAP3 POP PUSH2 0x1C3C DUP4 DUP6 DUP5 PUSH2 0x1BE3 JUMP JUMPDEST DUP3 DUP5 ADD SWAP1 POP SWAP4 SWAP3 POP POP POP JUMP JUMPDEST PUSH1 0x0 PUSH1 0x80 DUP3 ADD SWAP1 POP DUP2 DUP2 SUB PUSH1 0x0 DUP4 ADD MSTORE PUSH2 0x1C63 DUP2 DUP9 DUP11 PUSH2 0x1682 JUMP JUMPDEST SWAP1 POP DUP2 DUP2 SUB PUSH1 0x20 DUP4 ADD MSTORE PUSH2 0x1C78 DUP2 DUP7 DUP9 PUSH2 0x1BEC JUMP JUMPDEST SWAP1 POP PUSH2 0x1C87 PUSH1 0x40 DUP4 ADD DUP6 PUSH2 0x11D0 JUMP JUMPDEST PUSH2 0x1C94 PUSH1 0x60 DUP4 ADD DUP5 PUSH2 0x11D0 JUMP JUMPDEST SWAP8 SWAP7 POP POP POP POP POP POP POP JUMP JUMPDEST PUSH2 0x1CA8 DUP2 PUSH2 0x1529 JUMP JUMPDEST DUP3 MSTORE POP POP JUMP JUMPDEST PUSH1 0x0 PUSH1 0x80 DUP3 ADD SWAP1 POP PUSH2 0x1CC3 PUSH1 0x0 DUP4 ADD DUP8 PUSH2 0x1C9F JUMP JUMPDEST PUSH2 0x1CD0 PUSH1 0x20 DUP4 ADD DUP7 PUSH2 0x11D0 JUMP JUMPDEST PUSH2 0x1CDD PUSH1 0x40 DUP4 ADD DUP6 PUSH2 0x11D0 JUMP JUMPDEST PUSH2 0x1CEA PUSH1 0x60 DUP4 ADD DUP5 PUSH2 0x11D0 JUMP JUMPDEST SWAP6 SWAP5 POP POP POP POP POP JUMP JUMPDEST PUSH1 0x0 PUSH2 0x1CFE DUP3 PUSH2 0x11C6 JUMP JUMPDEST SWAP2 POP PUSH2 0x1D09 DUP4 PUSH2 0x11C6 JUMP JUMPDEST SWAP3 POP DUP3 DUP3 SUB SWAP1 POP DUP2 DUP2 GT ISZERO PUSH2 0x1D21 JUMPI PUSH2 0x1D20 PUSH2 0x1AB3 JUMP JUMPDEST JUMPDEST SWAP3 SWAP2 POP POP JUMP JUMPDEST PUSH1 0x0 PUSH2 0x1D32 DUP3 PUSH2 0x11C6 JUMP JUMPDEST SWAP2 POP PUSH2 0x1D3D DUP4 PUSH2 0x11C6 JUMP JUMPDEST SWAP3 POP DUP3 DUP3 ADD SWAP1 POP DUP1 DUP3 GT ISZERO PUSH2 0x1D55 JUMPI PUSH2 0x1D54 PUSH2 0x1AB3 JUMP JUMPDEST JUMPDEST SWAP3 SWAP2 POP POP JUMP JUMPDEST PUSH32 0x5468726573686F6C6420776F756C6420626520696D706F737369626C65000000 PUSH1 0x0 DUP3 ADD MSTORE POP JUMP JUMPDEST PUSH1 0x0 PUSH2 0x1D91 PUSH1 0x1D DUP4 PUSH2 0x1933 JUMP JUMPDEST SWAP2 POP PUSH2 0x1D9C DUP3 PUSH2 0x1D5B JUMP JUMPDEST PUSH1 0x20 DUP3 ADD SWAP1 POP SWAP2 SWAP1 POP JUMP JUMPDEST PUSH1 0x0 PUSH1 0x20 DUP3 ADD SWAP1 POP DUP2 DUP2 SUB PUSH1 0x0 DUP4 ADD MSTORE PUSH2 0x1DC0 DUP2 PUSH2 0x1D84 JUMP JUMPDEST SWAP1 POP SWAP2 SWAP1 POP JUMP JUMPDEST PUSH1 0x0 DUP2 SWAP1 POP SWAP3 SWAP2 POP POP JUMP JUMPDEST PUSH32 0x19457468657265756D205369676E6564204D6573736167653A0A333200000000 PUSH1 0x0 DUP3 ADD MSTORE POP JUMP JUMPDEST PUSH1 0x0 PUSH2 0x1E08 PUSH1 0x1C DUP4 PUSH2 0x1DC7 JUMP JUMPDEST SWAP2 POP PUSH2 0x1E13 DUP3 PUSH2 0x1DD2 JUMP JUMPDEST PUSH1 0x1C DUP3 ADD SWAP1 POP SWAP2 SWAP1 POP JUMP JUMPDEST PUSH1 0x0 DUP2 SWAP1 POP SWAP2 SWAP1 POP JUMP JUMPDEST PUSH1 0x0 DUP2 SWAP1 POP SWAP2 SWAP1 POP JUMP JUMPDEST PUSH2 0x1E43 PUSH2 0x1E3E DUP3 PUSH2 0x1E1E JUMP JUMPDEST PUSH2 0x1E28 JUMP JUMPDEST DUP3 MSTORE POP POP JUMP JUMPDEST PUSH1 0x0 PUSH2 0x1E54 DUP3 PUSH2 0x1DFB JUMP JUMPDEST SWAP2 POP PUSH2 0x1E60 DUP3 DUP5 PUSH2 0x1E32 JUMP JUMPDEST PUSH1 0x20 DUP3 ADD SWAP2 POP DUP2 SWAP1 POP SWAP3 SWAP2 POP POP JUMP JUMPDEST PUSH32 0x4E487B7100000000000000000000000000000000000000000000000000000000 PUSH1 0x0 MSTORE PUSH1 0x21 PUSH1 0x4 MSTORE PUSH1 0x24 PUSH1 0x0 REVERT JUMPDEST PUSH32 0x45434453413A20696E76616C6964207369676E61747572650000000000000000 PUSH1 0x0 DUP3 ADD MSTORE POP JUMP JUMPDEST PUSH1 0x0 PUSH2 0x1ED4 PUSH1 0x18 DUP4 PUSH2 0x1933 JUMP JUMPDEST SWAP2 POP PUSH2 0x1EDF DUP3 PUSH2 0x1E9E JUMP JUMPDEST PUSH1 0x20 DUP3 ADD SWAP1 POP SWAP2 SWAP1 POP JUMP JUMPDEST PUSH1 0x0 PUSH1 0x20 DUP3 ADD SWAP1 POP DUP2 DUP2 SUB PUSH1 0x0 DUP4 ADD MSTORE PUSH2 0x1F03 DUP2 PUSH2 0x1EC7 JUMP JUMPDEST SWAP1 POP SWAP2 SWAP1 POP JUMP JUMPDEST PUSH32 0x45434453413A20696E76616C6964207369676E6174757265206C656E67746800 PUSH1 0x0 DUP3 ADD MSTORE POP JUMP JUMPDEST PUSH1 0x0 PUSH2 0x1F40 PUSH1 0x1F DUP4 PUSH2 0x1933 JUMP JUMPDEST SWAP2 POP PUSH2 0x1F4B DUP3 PUSH2 0x1F0A JUMP JUMPDEST PUSH1 0x20 DUP3 ADD SWAP1 POP SWAP2 SWAP1 POP JUMP JUMPDEST PUSH1 0x0 PUSH1 0x20 DUP3 ADD SWAP1 POP DUP2 DUP2 SUB PUSH1 0x0 DUP4 ADD MSTORE PUSH2 0x1F6F DUP2 PUSH2 0x1F33 JUMP JUMPDEST SWAP1 POP SWAP2 SWAP1 POP JUMP JUMPDEST PUSH32 0x45434453413A20696E76616C6964207369676E6174757265202773272076616C PUSH1 0x0 DUP3 ADD MSTORE PUSH32 0x7565000000000000000000000000000000000000000000000000000000000000 PUSH1 0x20 DUP3 ADD MSTORE POP JUMP JUMPDEST PUSH1 0x0 PUSH2 0x1FD2 PUSH1 0x22 DUP4 PUSH2 0x1933 JUMP JUMPDEST SWAP2 POP PUSH2 0x1FDD DUP3 PUSH2 0x1F76 JUMP JUMPDEST PUSH1 0x40 DUP3 ADD SWAP1 POP SWAP2 SWAP1 POP JUMP JUMPDEST PUSH1 0x0 PUSH1 0x20 DUP3 ADD SWAP1 POP DUP2 DUP2 SUB PUSH1 0x0 DUP4 ADD MSTORE PUSH2 0x2001 DUP2 PUSH2 0x1FC5 JUMP JUMPDEST SWAP1 POP SWAP2 SWAP1 POP JUMP JUMPDEST PUSH2 0x2011 DUP2 PUSH2 0x1E1E JUMP JUMPDEST DUP3 MSTORE POP POP JUMP JUMPDEST PUSH1 0x0 PUSH1 0xFF DUP3 AND SWAP1 POP SWAP2 SWAP1 POP JUMP JUMPDEST PUSH2 0x202D DUP2 PUSH2 0x2017 JUMP JUMPDEST DUP3 MSTORE POP POP JUMP JUMPDEST PUSH1 0x0 PUSH1 0x80 DUP3 ADD SWAP1 POP PUSH2 0x2048 PUSH1 0x0 DUP4 ADD DUP8 PUSH2 0x2008 JUMP JUMPDEST PUSH2 0x2055 PUSH1 0x20 DUP4 ADD DUP7 PUSH2 0x2024 JUMP JUMPDEST PUSH2 0x2062 PUSH1 0x40 DUP4 ADD DUP6 PUSH2 0x2008 JUMP JUMPDEST PUSH2 0x206F PUSH1 0x60 DUP4 ADD DUP5 PUSH2 0x2008 JUMP JUMPDEST SWAP6 SWAP5 POP POP POP POP POP JUMP INVALID MSTORE8 PUSH10 0x676E6572207765696768 PUSH21 0x7320646F6573206E6F74206D656574207468726573 PUSH9 0x6F6C644174206C6561 PUSH20 0x74206F6E65207369676E6174757265206E6F7420 PUSH7 0x726F6D2061206B PUSH15 0x6F776E20636F6E74726F6C6C657241 PUSH21 0x206C65617374206F6E65207369676E617475726520 PUSH2 0x6C72 PUSH6 0x616479207573 PUSH6 0x64A264697066 PUSH20 0x5822122023BB711F8ED0FC5FFB1DBD4B290394E0 PUSH13 0x71D859CE3E9F0871540BD63CAC 0xBD 0xCA PUSH5 0x736F6C6343 STOP ADDMOD SLT STOP CALLER "
				},
				"gasEstimates": {
					"creation": {
						"codeDepositCost": "1697800",
						"executionCost": "1785",
						"totalCost": "1699585"
					},
					"external": {
						"addControllers(address[],uint256[],uint256,bytes[])": "infinite",
						"controlThreshold()": "2491",
						"controllerWeight(address)": "2961",
						"controllersTotalWeight()": "2514",
						"removeControllers(address[],uint256,bytes[])": "infinite",
						"supportsInterface(bytes4)": "724",
						"updateControlThreshold(uint256,uint256,bytes[])": "infinite",
						"updateControllerWeight(address,uint256,uint256,bytes[])": "infinite"
					},
					"internal": {
						"_addController(address,uint256)": "infinite",
						"_removeController(address)": "infinite",
						"verifyControllersThresholdBySignatures(bytes32,bytes memory[] memory)": "infinite"
					}
				},
				"methodIdentifiers": {
					"addControllers(address[],uint256[],uint256,bytes[])": "af915498",
					"controlThreshold()": "a7865090",
					"controllerWeight(address)": "f04420f1",
					"controllersTotalWeight()": "06e82383",
					"removeControllers(address[],uint256,bytes[])": "286936bb",
					"supportsInterface(bytes4)": "01ffc9a7",
					"updateControlThreshold(uint256,uint256,bytes[])": "87f949b4",
					"updateControllerWeight(address,uint256,uint256,bytes[])": "d0bccea1"
				}
			},
			"storageLayout": {
				"storage": [],
				"types": null
			},
			"userdoc": {
				"kind": "user",
				"methods": {},
				"version": 1
			}
		}
	}
}