{
  "_format": "hh-sol-artifact-1",
  "contractName": "Controllers",
  "sourceName": "contracts/modules/Controllers/Controllers.sol",
  "abi": [
    {
      "inputs": [
        {
          "internalType": "address[]",
          "name": "_controllers",
          "type": "address[]"
        },
        {
          "internalType": "uint256[]",
          "name": "_weights",
          "type": "uint256[]"
        },
        {
          "internalType": "uint256",
          "name": "_nonce",
          "type": "uint256"
        },
        {
          "internalType": "bytes[]",
          "name": "_signatures",
          "type": "bytes[]"
        }
      ],
      "name": "addControllers",
      "outputs": [],
      "stateMutability": "nonpayable",
      "type": "function"
    },
    {
      "inputs": [],
      "name": "controlThreshold",
      "outputs": [
        {
          "internalType": "uint256",
          "name": "",
          "type": "uint256"
        }
      ],
      "stateMutability": "view",
      "type": "function"
    },
    {
      "inputs": [
        {
          "internalType": "address",
          "name": "_controller",
          "type": "address"
        }
      ],
      "name": "controllerWeight",
      "outputs": [
        {
          "internalType": "uint256",
          "name": "",
          "type": "uint256"
        }
      ],
      "stateMutability": "view",
      "type": "function"
    },
    {
      "inputs": [],
      "name": "controllersTotalWeight",
      "outputs": [
        {
          "internalType": "uint256",
          "name": "",
          "type": "uint256"
        }
      ],
      "stateMutability": "view",
      "type": "function"
    },
    {
      "inputs": [
        {
          "internalType": "address[]",
          "name": "_controllers",
          "type": "address[]"
        },
        {
          "internalType": "uint256",
          "name": "_nonce",
          "type": "uint256"
        },
        {
          "internalType": "bytes[]",
          "name": "_signatures",
          "type": "bytes[]"
        }
      ],
      "name": "removeControllers",
      "outputs": [],
      "stateMutability": "nonpayable",
      "type": "function"
    },
    {
      "inputs": [
        {
          "internalType": "bytes4",
          "name": "interfaceId",
          "type": "bytes4"
        }
      ],
      "name": "supportsInterface",
      "outputs": [
        {
          "internalType": "bool",
          "name": "",
          "type": "bool"
        }
      ],
      "stateMutability": "view",
      "type": "function"
    },
    {
      "inputs": [
        {
          "internalType": "uint256",
          "name": "_threshold",
          "type": "uint256"
        },
        {
          "internalType": "uint256",
          "name": "_nonce",
          "type": "uint256"
        },
        {
          "internalType": "bytes[]",
          "name": "_signatures",
          "type": "bytes[]"
        }
      ],
      "name": "updateControlThreshold",
      "outputs": [],
      "stateMutability": "nonpayable",
      "type": "function"
    },
    {
      "inputs": [
        {
          "internalType": "address",
          "name": "_controller",
          "type": "address"
        },
        {
          "internalType": "uint256",
          "name": "_weight",
          "type": "uint256"
        },
        {
          "internalType": "uint256",
          "name": "_nonce",
          "type": "uint256"
        },
        {
          "internalType": "bytes[]",
          "name": "_signatures",
          "type": "bytes[]"
        }
      ],
      "name": "updateControllerWeight",
      "outputs": [],
      "stateMutability": "nonpayable",
      "type": "function"
    }
  ],
  "bytecode": "0x608060405234801561001057600080fd5b50611a78806100206000396000f3fe608060405234801561001057600080fd5b50600436106100885760003560e01c8063a78650901161005b578063a78650901461010e578063af91549814610135578063d0bccea114610148578063f04420f11461015b57600080fd5b806301ffc9a71461008d57806306e82383146100b5578063286936bb146100e657806387f949b4146100fb575b600080fd5b6100a061009b366004611305565b6101b0565b60405190151581526020015b60405180910390f35b7f255f4a56bd3ad76424e31ed8855ef9ad14a0ce4e67508c76ff082e5c1466b130545b6040519081526020016100ac565b6100f96100f436600461138c565b61024f565b005b6100f9610109366004611406565b610410565b7f255f4a56bd3ad76424e31ed8855ef9ad14a0ce4e67508c76ff082e5c1466b12f546100d8565b6100f9610143366004611459565b610674565b6100f9610156366004611526565b610846565b6100d861016936600461157d565b73ffffffffffffffffffffffffffffffffffffffff1660009081527f255f4a56bd3ad76424e31ed8855ef9ad14a0ce4e67508c76ff082e5c1466b131602052604090205490565b60007f7e68492c000000000000000000000000000000000000000000000000000000007fffffffff0000000000000000000000000000000000000000000000000000000083160161020357506001919050565b7f01ffc9a7000000000000000000000000000000000000000000000000000000007fffffffff000000000000000000000000000000000000000000000000000000008316145b92915050565b8484844660405160200161026694939291906115ec565b604080517fffffffffffffffffffffffffffffffffffffffffffffffffffffffffffffffe0818403018152919052805160209091012082826000806102b4856102af8587611691565b610b69565b915091508181906102fb576040517f08c379a00000000000000000000000000000000000000000000000000000000081526004016102f29190611784565b60405180910390fd5b5060005b838110156103b65760017f255f4a56bd3ad76424e31ed8855ef9ad14a0ce4e67508c76ff082e5c1466b132600087878581811061033e5761033e6117f0565b9050602002810190610350919061181f565b60405161035e929190611884565b6040805191829003909120825260208201929092520160002080547fffffffffffffffffffffffffffffffffffffffffffffffffffffffffffffff0016911515919091179055806103ae816118c3565b9150506102ff565b5060005b89811015610403576103f18b8b838181106103d7576103d76117f0565b90506020020160208101906103ec919061157d565b610d74565b806103fb816118c3565b9150506103ba565b5050505050505050505050565b6040805160208101869052908101849052466060820152608001604080517fffffffffffffffffffffffffffffffffffffffffffffffffffffffffffffffe081840301815291905280516020909101208282600080610473856102af8587611691565b915091508181906104b1576040517f08c379a00000000000000000000000000000000000000000000000000000000081526004016102f29190611784565b5060005b8381101561056c5760017f255f4a56bd3ad76424e31ed8855ef9ad14a0ce4e67508c76ff082e5c1466b13260008787858181106104f4576104f46117f0565b9050602002810190610506919061181f565b604051610514929190611884565b6040805191829003909120825260208201929092520160002080547fffffffffffffffffffffffffffffffffffffffffffffffffffffffffffffff001691151591909117905580610564816118c3565b9150506104b5565b5060007f255f4a56bd3ad76424e31ed8855ef9ad14a0ce4e67508c76ff082e5c1466b12f541180156105e057507f255f4a56bd3ad76424e31ed8855ef9ad14a0ce4e67508c76ff082e5c1466b130547f255f4a56bd3ad76424e31ed8855ef9ad14a0ce4e67508c76ff082e5c1466b12f5411155b610646576040517f08c379a000000000000000000000000000000000000000000000000000000000815260206004820152601160248201527f496e76616c6964207468726573686f6c6400000000000000000000000000000060448201526064016102f2565b887f255f4a56bd3ad76424e31ed8855ef9ad14a0ce4e67508c76ff082e5c1466b12f55505050505050505050565b86868686864660405160200161068f969594939291906118fb565b604080517fffffffffffffffffffffffffffffffffffffffffffffffffffffffffffffffe0818403018152919052805160209091012082826000806106d8856102af8587611691565b91509150818190610716576040517f08c379a00000000000000000000000000000000000000000000000000000000081526004016102f29190611784565b5060005b838110156107d15760017f255f4a56bd3ad76424e31ed8855ef9ad14a0ce4e67508c76ff082e5c1466b1326000878785818110610759576107596117f0565b905060200281019061076b919061181f565b604051610779929190611884565b6040805191829003909120825260208201929092520160002080547fffffffffffffffffffffffffffffffffffffffffffffffffffffffffffffff0016911515919091179055806107c9816118c3565b91505061071a565b5060005b8b811015610837576108258d8d838181106107f2576107f26117f0565b9050602002016020810190610807919061157d565b8c8c84818110610819576108196117f0565b90506020020135610f0e565b8061082f816118c3565b9150506107d5565b50505050505050505050505050565b6040805173ffffffffffffffffffffffffffffffffffffffff871660208201529081018590526060810184905246608082015260a001604080517fffffffffffffffffffffffffffffffffffffffffffffffffffffffffffffffe0818403018152919052805160209091012082826000806108c5856102af8587611691565b91509150818190610903576040517f08c379a00000000000000000000000000000000000000000000000000000000081526004016102f29190611784565b5060005b838110156109be5760017f255f4a56bd3ad76424e31ed8855ef9ad14a0ce4e67508c76ff082e5c1466b1326000878785818110610946576109466117f0565b9050602002810190610958919061181f565b604051610966929190611884565b6040805191829003909120825260208201929092520160002080547fffffffffffffffffffffffffffffffffffffffffffffffffffffffffffffff0016911515919091179055806109b6816118c3565b915050610907565b5073ffffffffffffffffffffffffffffffffffffffff8a1660009081527f255f4a56bd3ad76424e31ed8855ef9ad14a0ce4e67508c76ff082e5c1466b13160205260409020547f255f4a56bd3ad76424e31ed8855ef9ad14a0ce4e67508c76ff082e5c1466b130548a91610a3191611972565b610a3b9190611985565b7f255f4a56bd3ad76424e31ed8855ef9ad14a0ce4e67508c76ff082e5c1466b13081905515801590610aaf57507f255f4a56bd3ad76424e31ed8855ef9ad14a0ce4e67508c76ff082e5c1466b12f547f255f4a56bd3ad76424e31ed8855ef9ad14a0ce4e67508c76ff082e5c1466b1305410155b610b15576040517f08c379a000000000000000000000000000000000000000000000000000000000815260206004820152601d60248201527f5468726573686f6c6420776f756c6420626520696d706f737369626c6500000060448201526064016102f2565b5050505073ffffffffffffffffffffffffffffffffffffffff9590951660009081527f255f4a56bd3ad76424e31ed8855ef9ad14a0ce4e67508c76ff082e5c1466b131602052604090209390935550505050565b600060606000805b8451811015610d08576000610b9f87878481518110610b9257610b926117f0565b6020026020010151610f90565b73ffffffffffffffffffffffffffffffffffffffff811660009081527f255f4a56bd3ad76424e31ed8855ef9ad14a0ce4e67508c76ff082e5c1466b131602052604081205491925003610c135760006040518060600160405280603281526020016119ee6032913994509450505050610d6d565b6000868381518110610c2757610c276117f0565b6020026020010151805190602001209050610c5f7f255f4a56bd3ad76424e31ed8855ef9ad14a0ce4e67508c76ff082e5c1466b12f90565b6000828152600391909101602052604090205460ff1615610ca2576000604051806060016040528060238152602001611a20602391399550955050505050610d6d565b73ffffffffffffffffffffffffffffffffffffffff821660009081527f255f4a56bd3ad76424e31ed8855ef9ad14a0ce4e67508c76ff082e5c1466b1316020526040902054610cf19085611985565b935050508080610d00906118c3565b915050610b71565b507f255f4a56bd3ad76424e31ed8855ef9ad14a0ce4e67508c76ff082e5c1466b12f54811015610d575760006040518060600160405280602681526020016119c8602691399250925050610d6d565b5050604080516020810190915260008152600191505b9250929050565b73ffffffffffffffffffffffffffffffffffffffff811660009081527f255f4a56bd3ad76424e31ed8855ef9ad14a0ce4e67508c76ff082e5c1466b13160205260408120547f255f4a56bd3ad76424e31ed8855ef9ad14a0ce4e67508c76ff082e5c1466b130805491929091610deb908490611972565b90915550507f255f4a56bd3ad76424e31ed8855ef9ad14a0ce4e67508c76ff082e5c1466b1305415801590610e6257507f255f4a56bd3ad76424e31ed8855ef9ad14a0ce4e67508c76ff082e5c1466b12f547f255f4a56bd3ad76424e31ed8855ef9ad14a0ce4e67508c76ff082e5c1466b1305410155b610ec8576040517f08c379a000000000000000000000000000000000000000000000000000000000815260206004820152601d60248201527f5468726573686f6c6420776f756c6420626520696d706f737369626c6500000060448201526064016102f2565b73ffffffffffffffffffffffffffffffffffffffff1660009081527f255f4a56bd3ad76424e31ed8855ef9ad14a0ce4e67508c76ff082e5c1466b1316020526040812055565b807f255f4a56bd3ad76424e31ed8855ef9ad14a0ce4e67508c76ff082e5c1466b12f6001016000828254610f429190611985565b909155505073ffffffffffffffffffffffffffffffffffffffff9190911660009081527f255f4a56bd3ad76424e31ed8855ef9ad14a0ce4e67508c76ff082e5c1466b1316020526040902055565b6000610ff382610fed856040517f19457468657265756d205369676e6564204d6573736167653a0a3332000000006020820152603c8101829052600090605c01604051602081830303815290604052805190602001209050919050565b90610ffa565b9392505050565b6000806000611009858561101e565b9150915061101681611060565b509392505050565b60008082516041036110545760208301516040840151606085015160001a61104887828585611216565b94509450505050610d6d565b50600090506002610d6d565b600081600481111561107457611074611998565b0361107c5750565b600181600481111561109057611090611998565b036110f7576040517f08c379a000000000000000000000000000000000000000000000000000000000815260206004820152601860248201527f45434453413a20696e76616c6964207369676e6174757265000000000000000060448201526064016102f2565b600281600481111561110b5761110b611998565b03611172576040517f08c379a000000000000000000000000000000000000000000000000000000000815260206004820152601f60248201527f45434453413a20696e76616c6964207369676e6174757265206c656e6774680060448201526064016102f2565b600381600481111561118657611186611998565b03611213576040517f08c379a000000000000000000000000000000000000000000000000000000000815260206004820152602260248201527f45434453413a20696e76616c6964207369676e6174757265202773272076616c60448201527f756500000000000000000000000000000000000000000000000000000000000060648201526084016102f2565b50565b6000807f7fffffffffffffffffffffffffffffff5d576e7357a4501ddfe92f46681b20a083111561124d57506000905060036112fc565b6040805160008082526020820180845289905260ff881692820192909252606081018690526080810185905260019060a0016020604051602081039080840390855afa1580156112a1573d6000803e3d6000fd5b50506040517fffffffffffffffffffffffffffffffffffffffffffffffffffffffffffffffe0015191505073ffffffffffffffffffffffffffffffffffffffff81166112f5576000600192509250506112fc565b9150600090505b94509492505050565b60006020828403121561131757600080fd5b81357fffffffff0000000000000000000000000000000000000000000000000000000081168114610ff357600080fd5b60008083601f84011261135957600080fd5b50813567ffffffffffffffff81111561137157600080fd5b6020830191508360208260051b8501011115610d6d57600080fd5b6000806000806000606086880312156113a457600080fd5b853567ffffffffffffffff808211156113bc57600080fd5b6113c889838a01611347565b90975095506020880135945060408801359150808211156113e857600080fd5b506113f588828901611347565b969995985093965092949392505050565b6000806000806060858703121561141c57600080fd5b8435935060208501359250604085013567ffffffffffffffff81111561144157600080fd5b61144d87828801611347565b95989497509550505050565b60008060008060008060006080888a03121561147457600080fd5b873567ffffffffffffffff8082111561148c57600080fd5b6114988b838c01611347565b909950975060208a01359150808211156114b157600080fd5b6114bd8b838c01611347565b909750955060408a0135945060608a01359150808211156114dd57600080fd5b506114ea8a828b01611347565b989b979a50959850939692959293505050565b803573ffffffffffffffffffffffffffffffffffffffff8116811461152157600080fd5b919050565b60008060008060006080868803121561153e57600080fd5b611547866114fd565b94506020860135935060408601359250606086013567ffffffffffffffff81111561157157600080fd5b6113f588828901611347565b60006020828403121561158f57600080fd5b610ff3826114fd565b8183526000602080850194508260005b858110156115e15773ffffffffffffffffffffffffffffffffffffffff6115ce836114fd565b16875295820195908201906001016115a8565b509495945050505050565b606081526000611600606083018688611598565b6020830194909452506040015292915050565b7f4e487b7100000000000000000000000000000000000000000000000000000000600052604160045260246000fd5b604051601f82017fffffffffffffffffffffffffffffffffffffffffffffffffffffffffffffffe016810167ffffffffffffffff8111828210171561168957611689611613565b604052919050565b600067ffffffffffffffff808411156116ac576116ac611613565b8360051b60206116bd818301611642565b8681529185019181810190368411156116d557600080fd5b865b84811015611778578035868111156116ef5760008081fd5b8801601f36818301126117025760008081fd5b81358881111561171457611714611613565b611743877fffffffffffffffffffffffffffffffffffffffffffffffffffffffffffffffe08484011601611642565b9150808252368782850101111561175a5760008081fd5b808784018884013760009082018701528452509183019183016116d7565b50979650505050505050565b600060208083528351808285015260005b818110156117b157858101830151858201604001528201611795565b5060006040828601015260407fffffffffffffffffffffffffffffffffffffffffffffffffffffffffffffffe0601f8301168501019250505092915050565b7f4e487b7100000000000000000000000000000000000000000000000000000000600052603260045260246000fd5b60008083357fffffffffffffffffffffffffffffffffffffffffffffffffffffffffffffffe184360301811261185457600080fd5b83018035915067ffffffffffffffff82111561186f57600080fd5b602001915036819003821315610d6d57600080fd5b8183823760009101908152919050565b7f4e487b7100000000000000000000000000000000000000000000000000000000600052601160045260246000fd5b60007fffffffffffffffffffffffffffffffffffffffffffffffffffffffffffffffff82036118f4576118f4611894565b5060010190565b60808152600061190f60808301888a611598565b82810360208401528581527f07ffffffffffffffffffffffffffffffffffffffffffffffffffffffffffffff86111561194757600080fd5b8560051b80886020840137604084019590955260609092019290925290910160200195945050505050565b8181038181111561024957610249611894565b8082018082111561024957610249611894565b7f4e487b7100000000000000000000000000000000000000000000000000000000600052602160045260246000fdfe5369676e6572207765696768747320646f6573206e6f74206d656574207468726573686f6c644174206c65617374206f6e65207369676e6174757265206e6f742066726f6d2061206b6e6f776e20636f6e74726f6c6c65724174206c65617374206f6e65207369676e617475726520616c72656164792075736564a2646970667358221220c5b50fa0830132d245eabe5e277d5761320836f23d204d090aead93dfc0d3c8a64736f6c63430008120033",
  "linkReferences": {},
  "deployedLinkReferences": {}
}