{
	"data": {
		"bytecode": {
			"linkReferences": {},
			"object": "608060405234801561001057600080fd5b50612129806100206000396000f3fe608060405234801561001057600080fd5b50600436106100885760003560e01c8063a78650901161005b578063a786509014610113578063af91549814610131578063d0bccea11461014d578063f04420f11461016957610088565b806301ffc9a71461008d57806306e82383146100bd578063286936bb146100db57806387f949b4146100f7575b600080fd5b6100a760048036038101906100a29190611163565b610199565b6040516100b491906111ab565b60405180910390f35b6100c561021a565b6040516100d291906111df565b60405180910390f35b6100f560048036038101906100f091906112e1565b61022d565b005b610111600480360381019061010c9190611376565b6103ac565b005b61011b610556565b60405161012891906111df565b60405180910390f35b61014b60048036038101906101469190611440565b610569565b005b61016760048036038101906101629190611567565b610708565b005b610183600480360381019061017e91906115ef565b61096b565b60405161019091906111df565b60405180910390f35b60007f8197b6d4000000000000000000000000000000000000000000000000000000007bffffffffffffffffffffffffffffffffffffffffffffffffffffffff1916827bffffffffffffffffffffffffffffffffffffffffffffffffffffffff1916036102095760019050610215565b610212826109bd565b90505b919050565b6000610224610a27565b60010154905090565b8484844660405160200161024494939291906116df565b604051602081830303815290604052805190602001208282600080610275858585906102709190611913565b610a54565b915091508181906102bc576040517f08c379a00000000000000000000000000000000000000000000000000000000081526004016102b391906119a7565b60405180910390fd5b5060005b8484905081101561034d5760016102d5610a27565b60030160008787858181106102ed576102ec6119c9565b5b90506020028101906102ff9190611a07565b60405161030d929190611a9a565b6040518091039020815260200190815260200160002060006101000a81548160ff021916908315150217905550808061034590611ae2565b9150506102c0565b5060005b8a8a905081101561039f5761038c8b8b83818110610372576103716119c9565b5b905060200201602081019061038791906115ef565b610c44565b808061039790611ae2565b915050610351565b5050505050505050505050565b8383466040516020016103c193929190611b2a565b6040516020818303038152906040528051906020012082826000806103f2858585906103ed9190611913565b610a54565b91509150818190610439576040517f08c379a000000000000000000000000000000000000000000000000000000000815260040161043091906119a7565b60405180910390fd5b5060005b848490508110156104ca576001610452610a27565b600301600087878581811061046a576104696119c9565b5b905060200281019061047c9190611a07565b60405161048a929190611a9a565b6040518091039020815260200190815260200160002060006101000a81548160ff02191690831515021790555080806104c290611ae2565b91505061043d565b5060006104d5610a27565b600001541180156104fc57506104e9610a27565b600101546104f5610a27565b6000015411155b61053b576040517f08c379a000000000000000000000000000000000000000000000000000000000815260040161053290611bad565b60405180910390fd5b88610544610a27565b60000181905550505050505050505050565b6000610560610a27565b60000154905090565b86868686864660405160200161058496959493929190611c48565b6040516020818303038152906040528051906020012082826000806105b5858585906105b09190611913565b610a54565b915091508181906105fc576040517f08c379a00000000000000000000000000000000000000000000000000000000081526004016105f391906119a7565b60405180910390fd5b5060005b8484905081101561068d576001610615610a27565b600301600087878581811061062d5761062c6119c9565b5b905060200281019061063f9190611a07565b60405161064d929190611a9a565b6040518091039020815260200190815260200160002060006101000a81548160ff021916908315150217905550808061068590611ae2565b915050610600565b5060005b8c8c90508110156106f9576106e68d8d838181106106b2576106b16119c9565b5b90506020020160208101906106c791906115ef565b8c8c848181106106da576106d96119c9565b5b90506020020135610d6f565b80806106f190611ae2565b915050610691565b50505050505050505050505050565b8484844660405160200161071f9493929190611cae565b6040516020818303038152906040528051906020012082826000806107508585859061074b9190611913565b610a54565b91509150818190610797576040517f08c379a000000000000000000000000000000000000000000000000000000000815260040161078e91906119a7565b60405180910390fd5b5060005b848490508110156108285760016107b0610a27565b60030160008787858181106107c8576107c76119c9565b5b90506020028101906107da9190611a07565b6040516107e8929190611a9a565b6040518091039020815260200190815260200160002060006101000a81548160ff021916908315150217905550808061082090611ae2565b91505061079b565b5088610832610a27565b60020160008c73ffffffffffffffffffffffffffffffffffffffff1673ffffffffffffffffffffffffffffffffffffffff1681526020019081526020016000205461087b610a27565b600101546108899190611cf3565b6108939190611d27565b61089b610a27565b6001018190555060006108ac610a27565b600101541180156108d357506108c0610a27565b600001546108cc610a27565b6001015410155b610912576040517f08c379a000000000000000000000000000000000000000000000000000000000815260040161090990611da7565b60405180910390fd5b8861091b610a27565b60020160008c73ffffffffffffffffffffffffffffffffffffffff1673ffffffffffffffffffffffffffffffffffffffff1681526020019081526020016000208190555050505050505050505050565b6000610975610a27565b60020160008373ffffffffffffffffffffffffffffffffffffffff1673ffffffffffffffffffffffffffffffffffffffff168152602001908152602001600020549050919050565b60007f01ffc9a7000000000000000000000000000000000000000000000000000000007bffffffffffffffffffffffffffffffffffffffffffffffffffffffff1916827bffffffffffffffffffffffffffffffffffffffffffffffffffffffff1916149050919050565b6000807f255f4a56bd3ad76424e31ed8855ef9ad14a0ce4e67508c76ff082e5c1466b12f90508091505090565b600060606000805b8451811015610bec576000610a8b87878481518110610a7e57610a7d6119c9565b5b6020026020010151610de2565b90506000610a97610a27565b60020160008373ffffffffffffffffffffffffffffffffffffffff1673ffffffffffffffffffffffffffffffffffffffff1681526020019081526020016000205403610b0457600060405180606001604052806032815260200161209f6032913994509450505050610c3d565b6000868381518110610b1957610b186119c9565b5b6020026020010151805190602001209050610b32610a27565b600301600082815260200190815260200160002060009054906101000a900460ff1615610b815760006040518060600160405280602381526020016120d1602391399550955050505050610c3d565b610b89610a27565b60020160008373ffffffffffffffffffffffffffffffffffffffff1673ffffffffffffffffffffffffffffffffffffffff1681526020019081526020016000205484610bd59190611d27565b935050508080610be490611ae2565b915050610a5c565b50610bf5610a27565b60000154811015610c25576000604051806060016040528060268152602001612079602691399250925050610c3d565b60016040518060200160405280600081525092509250505b9250929050565b610c4c610a27565b60020160008273ffffffffffffffffffffffffffffffffffffffff1673ffffffffffffffffffffffffffffffffffffffff16815260200190815260200160002054610c95610a27565b6001016000828254610ca79190611cf3565b925050819055506000610cb8610a27565b60010154118015610cdf5750610ccc610a27565b60000154610cd8610a27565b6001015410155b610d1e576040517f08c379a0000000000000000000000000000000000000000000000000000000008152600401610d1590611da7565b60405180910390fd5b6000610d28610a27565b60020160008373ffffffffffffffffffffffffffffffffffffffff1673ffffffffffffffffffffffffffffffffffffffff1681526020019081526020016000208190555050565b80610d78610a27565b6001016000828254610d8a9190611d27565b9250508190555080610d9a610a27565b60020160008473ffffffffffffffffffffffffffffffffffffffff1673ffffffffffffffffffffffffffffffffffffffff168152602001908152602001600020819055505050565b6000610dff82610df185610e07565b610e3790919063ffffffff16565b905092915050565b600081604051602001610e1a9190611e49565b604051602081830303815290604052805190602001209050919050565b6000806000610e468585610e5e565b91509150610e5381610eaf565b819250505092915050565b6000806041835103610e9f5760008060006020860151925060408601519150606086015160001a9050610e9387828585611015565b94509450505050610ea8565b60006002915091505b9250929050565b60006004811115610ec357610ec2611e6f565b5b816004811115610ed657610ed5611e6f565b5b03156110125760016004811115610ef057610eef611e6f565b5b816004811115610f0357610f02611e6f565b5b03610f43576040517f08c379a0000000000000000000000000000000000000000000000000000000008152600401610f3a90611eea565b60405180910390fd5b60026004811115610f5757610f56611e6f565b5b816004811115610f6a57610f69611e6f565b5b03610faa576040517f08c379a0000000000000000000000000000000000000000000000000000000008152600401610fa190611f56565b60405180910390fd5b60036004811115610fbe57610fbd611e6f565b5b816004811115610fd157610fd0611e6f565b5b03611011576040517f08c379a000000000000000000000000000000000000000000000000000000000815260040161100890611fe8565b60405180910390fd5b5b50565b6000807f7fffffffffffffffffffffffffffffff5d576e7357a4501ddfe92f46681b20a08360001c11156110505760006003915091506110ee565b6000600187878787604051600081526020016040526040516110759493929190612033565b6020604051602081039080840390855afa158015611097573d6000803e3d6000fd5b505050602060405103519050600073ffffffffffffffffffffffffffffffffffffffff168173ffffffffffffffffffffffffffffffffffffffff16036110e5576000600192509250506110ee565b80600092509250505b94509492505050565b6000604051905090565b600080fd5b600080fd5b60007fffffffff0000000000000000000000000000000000000000000000000000000082169050919050565b6111408161110b565b811461114b57600080fd5b50565b60008135905061115d81611137565b92915050565b60006020828403121561117957611178611101565b5b60006111878482850161114e565b91505092915050565b60008115159050919050565b6111a581611190565b82525050565b60006020820190506111c0600083018461119c565b92915050565b6000819050919050565b6111d9816111c6565b82525050565b60006020820190506111f460008301846111d0565b92915050565b600080fd5b600080fd5b600080fd5b60008083601f84011261121f5761121e6111fa565b5b8235905067ffffffffffffffff81111561123c5761123b6111ff565b5b60208301915083602082028301111561125857611257611204565b5b9250929050565b611268816111c6565b811461127357600080fd5b50565b6000813590506112858161125f565b92915050565b60008083601f8401126112a1576112a06111fa565b5b8235905067ffffffffffffffff8111156112be576112bd6111ff565b5b6020830191508360208202830111156112da576112d9611204565b5b9250929050565b6000806000806000606086880312156112fd576112fc611101565b5b600086013567ffffffffffffffff81111561131b5761131a611106565b5b61132788828901611209565b9550955050602061133a88828901611276565b935050604086013567ffffffffffffffff81111561135b5761135a611106565b5b6113678882890161128b565b92509250509295509295909350565b600080600080606085870312156113905761138f611101565b5b600061139e87828801611276565b94505060206113af87828801611276565b935050604085013567ffffffffffffffff8111156113d0576113cf611106565b5b6113dc8782880161128b565b925092505092959194509250565b60008083601f840112611400576113ff6111fa565b5b8235905067ffffffffffffffff81111561141d5761141c6111ff565b5b60208301915083602082028301111561143957611438611204565b5b9250929050565b60008060008060008060006080888a03121561145f5761145e611101565b5b600088013567ffffffffffffffff81111561147d5761147c611106565b5b6114898a828b01611209565b9750975050602088013567ffffffffffffffff8111156114ac576114ab611106565b5b6114b88a828b016113ea565b955095505060406114cb8a828b01611276565b935050606088013567ffffffffffffffff8111156114ec576114eb611106565b5b6114f88a828b0161128b565b925092505092959891949750929550565b600073ffffffffffffffffffffffffffffffffffffffff82169050919050565b600061153482611509565b9050919050565b61154481611529565b811461154f57600080fd5b50565b6000813590506115618161153b565b92915050565b60008060008060006080868803121561158357611582611101565b5b600061159188828901611552565b95505060206115a288828901611276565b94505060406115b388828901611276565b935050606086013567ffffffffffffffff8111156115d4576115d3611106565b5b6115e08882890161128b565b92509250509295509295909350565b60006020828403121561160557611604611101565b5b600061161384828501611552565b91505092915050565b600082825260208201905092915050565b6000819050919050565b61164081611529565b82525050565b60006116528383611637565b60208301905092915050565b600061166d6020840184611552565b905092915050565b6000602082019050919050565b600061168e838561161c565b93506116998261162d565b8060005b858110156116d2576116af828461165e565b6116b98882611646565b97506116c483611675565b92505060018101905061169d565b5085925050509392505050565b600060608201905081810360008301526116fa818688611682565b905061170960208301856111d0565b61171660408301846111d0565b95945050505050565b6000601f19601f8301169050919050565b7f4e487b7100000000000000000000000000000000000000000000000000000000600052604160045260246000fd5b6117688261171f565b810181811067ffffffffffffffff8211171561178757611786611730565b5b80604052505050565b600061179a6110f7565b90506117a6828261175f565b919050565b600067ffffffffffffffff8211156117c6576117c5611730565b5b602082029050602081019050919050565b600080fd5b600067ffffffffffffffff8211156117f7576117f6611730565b5b6118008261171f565b9050602081019050919050565b82818337600083830152505050565b600061182f61182a846117dc565b611790565b90508281526020810184848401111561184b5761184a6117d7565b5b61185684828561180d565b509392505050565b600082601f830112611873576118726111fa565b5b813561188384826020860161181c565b91505092915050565b600061189f61189a846117ab565b611790565b905080838252602082019050602084028301858111156118c2576118c1611204565b5b835b8181101561190957803567ffffffffffffffff8111156118e7576118e66111fa565b5b8086016118f4898261185e565b855260208501945050506020810190506118c4565b5050509392505050565b600061192036848461188c565b905092915050565b600081519050919050565b600082825260208201905092915050565b60005b83811015611962578082015181840152602081019050611947565b60008484015250505050565b600061197982611928565b6119838185611933565b9350611993818560208601611944565b61199c8161171f565b840191505092915050565b600060208201905081810360008301526119c1818461196e565b905092915050565b7f4e487b7100000000000000000000000000000000000000000000000000000000600052603260045260246000fd5b600080fd5b600080fd5b600080fd5b60008083356001602003843603038112611a2457611a236119f8565b5b80840192508235915067ffffffffffffffff821115611a4657611a456119fd565b5b602083019250600182023603831315611a6257611a61611a02565b5b509250929050565b600081905092915050565b6000611a818385611a6a565b9350611a8e83858461180d565b82840190509392505050565b6000611aa7828486611a75565b91508190509392505050565b7f4e487b7100000000000000000000000000000000000000000000000000000000600052601160045260246000fd5b6000611aed826111c6565b91507fffffffffffffffffffffffffffffffffffffffffffffffffffffffffffffffff8203611b1f57611b1e611ab3565b5b600182019050919050565b6000606082019050611b3f60008301866111d0565b611b4c60208301856111d0565b611b5960408301846111d0565b949350505050565b7f496e76616c6964207468726573686f6c64000000000000000000000000000000600082015250565b6000611b97601183611933565b9150611ba282611b61565b602082019050919050565b60006020820190508181036000830152611bc681611b8a565b9050919050565b600082825260208201905092915050565b600080fd5b82818337505050565b6000611bf88385611bcd565b93507f07ffffffffffffffffffffffffffffffffffffffffffffffffffffffffffffff831115611c2b57611c2a611bde565b5b602083029250611c3c838584611be3565b82840190509392505050565b60006080820190508181036000830152611c6381888a611682565b90508181036020830152611c78818688611bec565b9050611c8760408301856111d0565b611c9460608301846111d0565b979650505050505050565b611ca881611529565b82525050565b6000608082019050611cc36000830187611c9f565b611cd060208301866111d0565b611cdd60408301856111d0565b611cea60608301846111d0565b95945050505050565b6000611cfe826111c6565b9150611d09836111c6565b9250828203905081811115611d2157611d20611ab3565b5b92915050565b6000611d32826111c6565b9150611d3d836111c6565b9250828201905080821115611d5557611d54611ab3565b5b92915050565b7f5468726573686f6c6420776f756c6420626520696d706f737369626c65000000600082015250565b6000611d91601d83611933565b9150611d9c82611d5b565b602082019050919050565b60006020820190508181036000830152611dc081611d84565b9050919050565b600081905092915050565b7f19457468657265756d205369676e6564204d6573736167653a0a333200000000600082015250565b6000611e08601c83611dc7565b9150611e1382611dd2565b601c82019050919050565b6000819050919050565b6000819050919050565b611e43611e3e82611e1e565b611e28565b82525050565b6000611e5482611dfb565b9150611e608284611e32565b60208201915081905092915050565b7f4e487b7100000000000000000000000000000000000000000000000000000000600052602160045260246000fd5b7f45434453413a20696e76616c6964207369676e61747572650000000000000000600082015250565b6000611ed4601883611933565b9150611edf82611e9e565b602082019050919050565b60006020820190508181036000830152611f0381611ec7565b9050919050565b7f45434453413a20696e76616c6964207369676e6174757265206c656e67746800600082015250565b6000611f40601f83611933565b9150611f4b82611f0a565b602082019050919050565b60006020820190508181036000830152611f6f81611f33565b9050919050565b7f45434453413a20696e76616c6964207369676e6174757265202773272076616c60008201527f7565000000000000000000000000000000000000000000000000000000000000602082015250565b6000611fd2602283611933565b9150611fdd82611f76565b604082019050919050565b6000602082019050818103600083015261200181611fc5565b9050919050565b61201181611e1e565b82525050565b600060ff82169050919050565b61202d81612017565b82525050565b60006080820190506120486000830187612008565b6120556020830186612024565b6120626040830185612008565b61206f6060830184612008565b9594505050505056fe5369676e6572207765696768747320646f6573206e6f74206d656574207468726573686f6c644174206c65617374206f6e65207369676e6174757265206e6f742066726f6d2061206b6e6f776e20636f6e74726f6c6c65724174206c65617374206f6e65207369676e617475726520616c72656164792075736564a264697066735822122023bb711f8ed0fc5ffb1dbd4b290394e06c71d859ce3e9f0871540bd63cacbdca64736f6c63430008120033",
			"opcodes": "PUSH1 0x80 PUSH1 0x40 MSTORE CALLVALUE DUP1 ISZERO PUSH2 0x10 JUMPI PUSH1 0x0 DUP1 REVERT JUMPDEST POP PUSH2 0x2129 DUP1 PUSH2 0x20 PUSH1 0x0 CODECOPY PUSH1 0x0 RETURN INVALID PUSH1 0x80 PUSH1 0x40 MSTORE CALLVALUE DUP1 ISZERO PUSH2 0x10 JUMPI PUSH1 0x0 DUP1 REVERT JUMPDEST POP PUSH1 0x4 CALLDATASIZE LT PUSH2 0x88 JUMPI PUSH1 0x0 CALLDATALOAD PUSH1 0xE0 SHR DUP1 PUSH4 0xA7865090 GT PUSH2 0x5B JUMPI DUP1 PUSH4 0xA7865090 EQ PUSH2 0x113 JUMPI DUP1 PUSH4 0xAF915498 EQ PUSH2 0x131 JUMPI DUP1 PUSH4 0xD0BCCEA1 EQ PUSH2 0x14D JUMPI DUP1 PUSH4 0xF04420F1 EQ PUSH2 0x169 JUMPI PUSH2 0x88 JUMP JUMPDEST DUP1 PUSH4 0x1FFC9A7 EQ PUSH2 0x8D JUMPI DUP1 PUSH4 0x6E82383 EQ PUSH2 0xBD JUMPI DUP1 PUSH4 0x286936BB EQ PUSH2 0xDB JUMPI DUP1 PUSH4 0x87F949B4 EQ PUSH2 0xF7 JUMPI JUMPDEST PUSH1 0x0 DUP1 REVERT JUMPDEST PUSH2 0xA7 PUSH1 0x4 DUP1 CALLDATASIZE SUB DUP2 ADD SWAP1 PUSH2 0xA2 SWAP2 SWAP1 PUSH2 0x1163 JUMP JUMPDEST PUSH2 0x199 JUMP JUMPDEST PUSH1 0x40 MLOAD PUSH2 0xB4 SWAP2 SWAP1 PUSH2 0x11AB JUMP JUMPDEST PUSH1 0x40 MLOAD DUP1 SWAP2 SUB SWAP1 RETURN JUMPDEST PUSH2 0xC5 PUSH2 0x21A JUMP JUMPDEST PUSH1 0x40 MLOAD PUSH2 0xD2 SWAP2 SWAP1 PUSH2 0x11DF JUMP JUMPDEST PUSH1 0x40 MLOAD DUP1 SWAP2 SUB SWAP1 RETURN JUMPDEST PUSH2 0xF5 PUSH1 0x4 DUP1 CALLDATASIZE SUB DUP2 ADD SWAP1 PUSH2 0xF0 SWAP2 SWAP1 PUSH2 0x12E1 JUMP JUMPDEST PUSH2 0x22D JUMP JUMPDEST STOP JUMPDEST PUSH2 0x111 PUSH1 0x4 DUP1 CALLDATASIZE SUB DUP2 ADD SWAP1 PUSH2 0x10C SWAP2 SWAP1 PUSH2 0x1376 JUMP JUMPDEST PUSH2 0x3AC JUMP JUMPDEST STOP JUMPDEST PUSH2 0x11B PUSH2 0x556 JUMP JUMPDEST PUSH1 0x40 MLOAD PUSH2 0x128 SWAP2 SWAP1 PUSH2 0x11DF JUMP JUMPDEST PUSH1 0x40 MLOAD DUP1 SWAP2 SUB SWAP1 RETURN JUMPDEST PUSH2 0x14B PUSH1 0x4 DUP1 CALLDATASIZE SUB DUP2 ADD SWAP1 PUSH2 0x146 SWAP2 SWAP1 PUSH2 0x1440 JUMP JUMPDEST PUSH2 0x569 JUMP JUMPDEST STOP JUMPDEST PUSH2 0x167 PUSH1 0x4 DUP1 CALLDATASIZE SUB DUP2 ADD SWAP1 PUSH2 0x162 SWAP2 SWAP1 PUSH2 0x1567 JUMP JUMPDEST PUSH2 0x708 JUMP JUMPDEST STOP JUMPDEST PUSH2 0x183 PUSH1 0x4 DUP1 CALLDATASIZE SUB DUP2 ADD SWAP1 PUSH2 0x17E SWAP2 SWAP1 PUSH2 0x15EF JUMP JUMPDEST PUSH2 0x96B JUMP JUMPDEST PUSH1 0x40 MLOAD PUSH2 0x190 SWAP2 SWAP1 PUSH2 0x11DF JUMP JUMPDEST PUSH1 0x40 MLOAD DUP1 SWAP2 SUB SWAP1 RETURN JUMPDEST PUSH1 0x0 PUSH32 0x8197B6D400000000000000000000000000000000000000000000000000000000 PUSH28 0xFFFFFFFFFFFFFFFFFFFFFFFFFFFFFFFFFFFFFFFFFFFFFFFFFFFFFFFF NOT AND DUP3 PUSH28 0xFFFFFFFFFFFFFFFFFFFFFFFFFFFFFFFFFFFFFFFFFFFFFFFFFFFFFFFF NOT AND SUB PUSH2 0x209 JUMPI PUSH1 0x1 SWAP1 POP PUSH2 0x215 JUMP JUMPDEST PUSH2 0x212 DUP3 PUSH2 0x9BD JUMP JUMPDEST SWAP1 POP JUMPDEST SWAP2 SWAP1 POP JUMP JUMPDEST PUSH1 0x0 PUSH2 0x224 PUSH2 0xA27 JUMP JUMPDEST PUSH1 0x1 ADD SLOAD SWAP1 POP SWAP1 JUMP JUMPDEST DUP5 DUP5 DUP5 CHAINID PUSH1 0x40 MLOAD PUSH1 0x20 ADD PUSH2 0x244 SWAP5 SWAP4 SWAP3 SWAP2 SWAP1 PUSH2 0x16DF JUMP JUMPDEST PUSH1 0x40 MLOAD PUSH1 0x20 DUP2 DUP4 SUB SUB DUP2 MSTORE SWAP1 PUSH1 0x40 MSTORE DUP1 MLOAD SWAP1 PUSH1 0x20 ADD KECCAK256 DUP3 DUP3 PUSH1 0x0 DUP1 PUSH2 0x275 DUP6 DUP6 DUP6 SWAP1 PUSH2 0x270 SWAP2 SWAP1 PUSH2 0x1913 JUMP JUMPDEST PUSH2 0xA54 JUMP JUMPDEST SWAP2 POP SWAP2 POP DUP2 DUP2 SWAP1 PUSH2 0x2BC JUMPI PUSH1 0x40 MLOAD PUSH32 0x8C379A000000000000000000000000000000000000000000000000000000000 DUP2 MSTORE PUSH1 0x4 ADD PUSH2 0x2B3 SWAP2 SWAP1 PUSH2 0x19A7 JUMP JUMPDEST PUSH1 0x40 MLOAD DUP1 SWAP2 SUB SWAP1 REVERT JUMPDEST POP PUSH1 0x0 JUMPDEST DUP5 DUP5 SWAP1 POP DUP2 LT ISZERO PUSH2 0x34D JUMPI PUSH1 0x1 PUSH2 0x2D5 PUSH2 0xA27 JUMP JUMPDEST PUSH1 0x3 ADD PUSH1 0x0 DUP8 DUP8 DUP6 DUP2 DUP2 LT PUSH2 0x2ED JUMPI PUSH2 0x2EC PUSH2 0x19C9 JUMP JUMPDEST JUMPDEST SWAP1 POP PUSH1 0x20 MUL DUP2 ADD SWAP1 PUSH2 0x2FF SWAP2 SWAP1 PUSH2 0x1A07 JUMP JUMPDEST PUSH1 0x40 MLOAD PUSH2 0x30D SWAP3 SWAP2 SWAP1 PUSH2 0x1A9A JUMP JUMPDEST PUSH1 0x40 MLOAD DUP1 SWAP2 SUB SWAP1 KECCAK256 DUP2 MSTORE PUSH1 0x20 ADD SWAP1 DUP2 MSTORE PUSH1 0x20 ADD PUSH1 0x0 KECCAK256 PUSH1 0x0 PUSH2 0x100 EXP DUP2 SLOAD DUP2 PUSH1 0xFF MUL NOT AND SWAP1 DUP4 ISZERO ISZERO MUL OR SWAP1 SSTORE POP DUP1 DUP1 PUSH2 0x345 SWAP1 PUSH2 0x1AE2 JUMP JUMPDEST SWAP2 POP POP PUSH2 0x2C0 JUMP JUMPDEST POP PUSH1 0x0 JUMPDEST DUP11 DUP11 SWAP1 POP DUP2 LT ISZERO PUSH2 0x39F JUMPI PUSH2 0x38C DUP12 DUP12 DUP4 DUP2 DUP2 LT PUSH2 0x372 JUMPI PUSH2 0x371 PUSH2 0x19C9 JUMP JUMPDEST JUMPDEST SWAP1 POP PUSH1 0x20 MUL ADD PUSH1 0x20 DUP2 ADD SWAP1 PUSH2 0x387 SWAP2 SWAP1 PUSH2 0x15EF JUMP JUMPDEST PUSH2 0xC44 JUMP JUMPDEST DUP1 DUP1 PUSH2 0x397 SWAP1 PUSH2 0x1AE2 JUMP JUMPDEST SWAP2 POP POP PUSH2 0x351 JUMP JUMPDEST POP POP POP POP POP POP POP POP POP POP POP JUMP JUMPDEST DUP4 DUP4 CHAINID PUSH1 0x40 MLOAD PUSH1 0x20 ADD PUSH2 0x3C1 SWAP4 SWAP3 SWAP2 SWAP1 PUSH2 0x1B2A JUMP JUMPDEST PUSH1 0x40 MLOAD PUSH1 0x20 DUP2 DUP4 SUB SUB DUP2 MSTORE SWAP1 PUSH1 0x40 MSTORE DUP1 MLOAD SWAP1 PUSH1 0x20 ADD KECCAK256 DUP3 DUP3 PUSH1 0x0 DUP1 PUSH2 0x3F2 DUP6 DUP6 DUP6 SWAP1 PUSH2 0x3ED SWAP2 SWAP1 PUSH2 0x1913 JUMP JUMPDEST PUSH2 0xA54 JUMP JUMPDEST SWAP2 POP SWAP2 POP DUP2 DUP2 SWAP1 PUSH2 0x439 JUMPI PUSH1 0x40 MLOAD PUSH32 0x8C379A000000000000000000000000000000000000000000000000000000000 DUP2 MSTORE PUSH1 0x4 ADD PUSH2 0x430 SWAP2 SWAP1 PUSH2 0x19A7 JUMP JUMPDEST PUSH1 0x40 MLOAD DUP1 SWAP2 SUB SWAP1 REVERT JUMPDEST POP PUSH1 0x0 JUMPDEST DUP5 DUP5 SWAP1 POP DUP2 LT ISZERO PUSH2 0x4CA JUMPI PUSH1 0x1 PUSH2 0x452 PUSH2 0xA27 JUMP JUMPDEST PUSH1 0x3 ADD PUSH1 0x0 DUP8 DUP8 DUP6 DUP2 DUP2 LT PUSH2 0x46A JUMPI PUSH2 0x469 PUSH2 0x19C9 JUMP JUMPDEST JUMPDEST SWAP1 POP PUSH1 0x20 MUL DUP2 ADD SWAP1 PUSH2 0x47C SWAP2 SWAP1 PUSH2 0x1A07 JUMP JUMPDEST PUSH1 0x40 MLOAD PUSH2 0x48A SWAP3 SWAP2 SWAP1 PUSH2 0x1A9A JUMP JUMPDEST PUSH1 0x40 MLOAD DUP1 SWAP2 SUB SWAP1 KECCAK256 DUP2 MSTORE PUSH1 0x20 ADD SWAP1 DUP2 MSTORE PUSH1 0x20 ADD PUSH1 0x0 KECCAK256 PUSH1 0x0 PUSH2 0x100 EXP DUP2 SLOAD DUP2 PUSH1 0xFF MUL NOT AND SWAP1 DUP4 ISZERO ISZERO MUL OR SWAP1 SSTORE POP DUP1 DUP1 PUSH2 0x4C2 SWAP1 PUSH2 0x1AE2 JUMP JUMPDEST SWAP2 POP POP PUSH2 0x43D JUMP JUMPDEST POP PUSH1 0x0 PUSH2 0x4D5 PUSH2 0xA27 JUMP JUMPDEST PUSH1 0x0 ADD SLOAD GT DUP1 ISZERO PUSH2 0x4FC JUMPI POP PUSH2 0x4E9 PUSH2 0xA27 JUMP JUMPDEST PUSH1 0x1 ADD SLOAD PUSH2 0x4F5 PUSH2 0xA27 JUMP JUMPDEST PUSH1 0x0 ADD SLOAD GT ISZERO JUMPDEST PUSH2 0x53B JUMPI PUSH1 0x40 MLOAD PUSH32 0x8C379A000000000000000000000000000000000000000000000000000000000 DUP2 MSTORE PUSH1 0x4 ADD PUSH2 0x532 SWAP1 PUSH2 0x1BAD JUMP JUMPDEST PUSH1 0x40 MLOAD DUP1 SWAP2 SUB SWAP1 REVERT JUMPDEST DUP9 PUSH2 0x544 PUSH2 0xA27 JUMP JUMPDEST PUSH1 0x0 ADD DUP2 SWAP1 SSTORE POP POP POP POP POP POP POP POP POP POP JUMP JUMPDEST PUSH1 0x0 PUSH2 0x560 PUSH2 0xA27 JUMP JUMPDEST PUSH1 0x0 ADD SLOAD SWAP1 POP SWAP1 JUMP JUMPDEST DUP7 DUP7 DUP7 DUP7 DUP7 CHAINID PUSH1 0x40 MLOAD PUSH1 0x20 ADD PUSH2 0x584 SWAP7 SWAP6 SWAP5 SWAP4 SWAP3 SWAP2 SWAP1 PUSH2 0x1C48 JUMP JUMPDEST PUSH1 0x40 MLOAD PUSH1 0x20 DUP2 DUP4 SUB SUB DUP2 MSTORE SWAP1 PUSH1 0x40 MSTORE DUP1 MLOAD SWAP1 PUSH1 0x20 ADD KECCAK256 DUP3 DUP3 PUSH1 0x0 DUP1 PUSH2 0x5B5 DUP6 DUP6 DUP6 SWAP1 PUSH2 0x5B0 SWAP2 SWAP1 PUSH2 0x1913 JUMP JUMPDEST PUSH2 0xA54 JUMP JUMPDEST SWAP2 POP SWAP2 POP DUP2 DUP2 SWAP1 PUSH2 0x5FC JUMPI PUSH1 0x40 MLOAD PUSH32 0x8C379A000000000000000000000000000000000000000000000000000000000 DUP2 MSTORE PUSH1 0x4 ADD PUSH2 0x5F3 SWAP2 SWAP1 PUSH2 0x19A7 JUMP JUMPDEST PUSH1 0x40 MLOAD DUP1 SWAP2 SUB SWAP1 REVERT JUMPDEST POP PUSH1 0x0 JUMPDEST DUP5 DUP5 SWAP1 POP DUP2 LT ISZERO PUSH2 0x68D JUMPI PUSH1 0x1 PUSH2 0x615 PUSH2 0xA27 JUMP JUMPDEST PUSH1 0x3 ADD PUSH1 0x0 DUP8 DUP8 DUP6 DUP2 DUP2 LT PUSH2 0x62D JUMPI PUSH2 0x62C PUSH2 0x19C9 JUMP JUMPDEST JUMPDEST SWAP1 POP PUSH1 0x20 MUL DUP2 ADD SWAP1 PUSH2 0x63F SWAP2 SWAP1 PUSH2 0x1A07 JUMP JUMPDEST PUSH1 0x40 MLOAD PUSH2 0x64D SWAP3 SWAP2 SWAP1 PUSH2 0x1A9A JUMP JUMPDEST PUSH1 0x40 MLOAD DUP1 SWAP2 SUB SWAP1 KECCAK256 DUP2 MSTORE PUSH1 0x20 ADD SWAP1 DUP2 MSTORE PUSH1 0x20 ADD PUSH1 0x0 KECCAK256 PUSH1 0x0 PUSH2 0x100 EXP DUP2 SLOAD DUP2 PUSH1 0xFF MUL NOT AND SWAP1 DUP4 ISZERO ISZERO MUL OR SWAP1 SSTORE POP DUP1 DUP1 PUSH2 0x685 SWAP1 PUSH2 0x1AE2 JUMP JUMPDEST SWAP2 POP POP PUSH2 0x600 JUMP JUMPDEST POP PUSH1 0x0 JUMPDEST DUP13 DUP13 SWAP1 POP DUP2 LT ISZERO PUSH2 0x6F9 JUMPI PUSH2 0x6E6 DUP14 DUP14 DUP4 DUP2 DUP2 LT PUSH2 0x6B2 JUMPI PUSH2 0x6B1 PUSH2 0x19C9 JUMP JUMPDEST JUMPDEST SWAP1 POP PUSH1 0x20 MUL ADD PUSH1 0x20 DUP2 ADD SWAP1 PUSH2 0x6C7 SWAP2 SWAP1 PUSH2 0x15EF JUMP JUMPDEST DUP13 DUP13 DUP5 DUP2 DUP2 LT PUSH2 0x6DA JUMPI PUSH2 0x6D9 PUSH2 0x19C9 JUMP JUMPDEST JUMPDEST SWAP1 POP PUSH1 0x20 MUL ADD CALLDATALOAD PUSH2 0xD6F JUMP JUMPDEST DUP1 DUP1 PUSH2 0x6F1 SWAP1 PUSH2 0x1AE2 JUMP JUMPDEST SWAP2 POP POP PUSH2 0x691 JUMP JUMPDEST POP POP POP POP POP POP POP POP POP POP POP POP POP JUMP JUMPDEST DUP5 DUP5 DUP5 CHAINID PUSH1 0x40 MLOAD PUSH1 0x20 ADD PUSH2 0x71F SWAP5 SWAP4 SWAP3 SWAP2 SWAP1 PUSH2 0x1CAE JUMP JUMPDEST PUSH1 0x40 MLOAD PUSH1 0x20 DUP2 DUP4 SUB SUB DUP2 MSTORE SWAP1 PUSH1 0x40 MSTORE DUP1 MLOAD SWAP1 PUSH1 0x20 ADD KECCAK256 DUP3 DUP3 PUSH1 0x0 DUP1 PUSH2 0x750 DUP6 DUP6 DUP6 SWAP1 PUSH2 0x74B SWAP2 SWAP1 PUSH2 0x1913 JUMP JUMPDEST PUSH2 0xA54 JUMP JUMPDEST SWAP2 POP SWAP2 POP DUP2 DUP2 SWAP1 PUSH2 0x797 JUMPI PUSH1 0x40 MLOAD PUSH32 0x8C379A000000000000000000000000000000000000000000000000000000000 DUP2 MSTORE PUSH1 0x4 ADD PUSH2 0x78E SWAP2 SWAP1 PUSH2 0x19A7 JUMP JUMPDEST PUSH1 0x40 MLOAD DUP1 SWAP2 SUB SWAP1 REVERT JUMPDEST POP PUSH1 0x0 JUMPDEST DUP5 DUP5 SWAP1 POP DUP2 LT ISZERO PUSH2 0x828 JUMPI PUSH1 0x1 PUSH2 0x7B0 PUSH2 0xA27 JUMP JUMPDEST PUSH1 0x3 ADD PUSH1 0x0 DUP8 DUP8 DUP6 DUP2 DUP2 LT PUSH2 0x7C8 JUMPI PUSH2 0x7C7 PUSH2 0x19C9 JUMP JUMPDEST JUMPDEST SWAP1 POP PUSH1 0x20 MUL DUP2 ADD SWAP1 PUSH2 0x7DA SWAP2 SWAP1 PUSH2 0x1A07 JUMP JUMPDEST PUSH1 0x40 MLOAD PUSH2 0x7E8 SWAP3 SWAP2 SWAP1 PUSH2 0x1A9A JUMP JUMPDEST PUSH1 0x40 MLOAD DUP1 SWAP2 SUB SWAP1 KECCAK256 DUP2 MSTORE PUSH1 0x20 ADD SWAP1 DUP2 MSTORE PUSH1 0x20 ADD PUSH1 0x0 KECCAK256 PUSH1 0x0 PUSH2 0x100 EXP DUP2 SLOAD DUP2 PUSH1 0xFF MUL NOT AND SWAP1 DUP4 ISZERO ISZERO MUL OR SWAP1 SSTORE POP DUP1 DUP1 PUSH2 0x820 SWAP1 PUSH2 0x1AE2 JUMP JUMPDEST SWAP2 POP POP PUSH2 0x79B JUMP JUMPDEST POP DUP9 PUSH2 0x832 PUSH2 0xA27 JUMP JUMPDEST PUSH1 0x2 ADD PUSH1 0x0 DUP13 PUSH20 0xFFFFFFFFFFFFFFFFFFFFFFFFFFFFFFFFFFFFFFFF AND PUSH20 0xFFFFFFFFFFFFFFFFFFFFFFFFFFFFFFFFFFFFFFFF AND DUP2 MSTORE PUSH1 0x20 ADD SWAP1 DUP2 MSTORE PUSH1 0x20 ADD PUSH1 0x0 KECCAK256 SLOAD PUSH2 0x87B PUSH2 0xA27 JUMP JUMPDEST PUSH1 0x1 ADD SLOAD PUSH2 0x889 SWAP2 SWAP1 PUSH2 0x1CF3 JUMP JUMPDEST PUSH2 0x893 SWAP2 SWAP1 PUSH2 0x1D27 JUMP JUMPDEST PUSH2 0x89B PUSH2 0xA27 JUMP JUMPDEST PUSH1 0x1 ADD DUP2 SWAP1 SSTORE POP PUSH1 0x0 PUSH2 0x8AC PUSH2 0xA27 JUMP JUMPDEST PUSH1 0x1 ADD SLOAD GT DUP1 ISZERO PUSH2 0x8D3 JUMPI POP PUSH2 0x8C0 PUSH2 0xA27 JUMP JUMPDEST PUSH1 0x0 ADD SLOAD PUSH2 0x8CC PUSH2 0xA27 JUMP JUMPDEST PUSH1 0x1 ADD SLOAD LT ISZERO JUMPDEST PUSH2 0x912 JUMPI PUSH1 0x40 MLOAD PUSH32 0x8C379A000000000000000000000000000000000000000000000000000000000 DUP2 MSTORE PUSH1 0x4 ADD PUSH2 0x909 SWAP1 PUSH2 0x1DA7 JUMP JUMPDEST PUSH1 0x40 MLOAD DUP1 SWAP2 SUB SWAP1 REVERT JUMPDEST DUP9 PUSH2 0x91B PUSH2 0xA27 JUMP JUMPDEST PUSH1 0x2 ADD PUSH1 0x0 DUP13 PUSH20 0xFFFFFFFFFFFFFFFFFFFFFFFFFFFFFFFFFFFFFFFF AND PUSH20 0xFFFFFFFFFFFFFFFFFFFFFFFFFFFFFFFFFFFFFFFF AND DUP2 MSTORE PUSH1 0x20 ADD SWAP1 DUP2 MSTORE PUSH1 0x20 ADD PUSH1 0x0 KECCAK256 DUP2 SWAP1 SSTORE POP POP POP POP POP POP POP POP POP POP POP JUMP JUMPDEST PUSH1 0x0 PUSH2 0x975 PUSH2 0xA27 JUMP JUMPDEST PUSH1 0x2 ADD PUSH1 0x0 DUP4 PUSH20 0xFFFFFFFFFFFFFFFFFFFFFFFFFFFFFFFFFFFFFFFF AND PUSH20 0xFFFFFFFFFFFFFFFFFFFFFFFFFFFFFFFFFFFFFFFF AND DUP2 MSTORE PUSH1 0x20 ADD SWAP1 DUP2 MSTORE PUSH1 0x20 ADD PUSH1 0x0 KECCAK256 SLOAD SWAP1 POP SWAP2 SWAP1 POP JUMP JUMPDEST PUSH1 0x0 PUSH32 0x1FFC9A700000000000000000000000000000000000000000000000000000000 PUSH28 0xFFFFFFFFFFFFFFFFFFFFFFFFFFFFFFFFFFFFFFFFFFFFFFFFFFFFFFFF NOT AND DUP3 PUSH28 0xFFFFFFFFFFFFFFFFFFFFFFFFFFFFFFFFFFFFFFFFFFFFFFFFFFFFFFFF NOT AND EQ SWAP1 POP SWAP2 SWAP1 POP JUMP JUMPDEST PUSH1 0x0 DUP1 PUSH32 0x255F4A56BD3AD76424E31ED8855EF9AD14A0CE4E67508C76FF082E5C1466B12F SWAP1 POP DUP1 SWAP2 POP POP SWAP1 JUMP JUMPDEST PUSH1 0x0 PUSH1 0x60 PUSH1 0x0 DUP1 JUMPDEST DUP5 MLOAD DUP2 LT ISZERO PUSH2 0xBEC JUMPI PUSH1 0x0 PUSH2 0xA8B DUP8 DUP8 DUP5 DUP2 MLOAD DUP2 LT PUSH2 0xA7E JUMPI PUSH2 0xA7D PUSH2 0x19C9 JUMP JUMPDEST JUMPDEST PUSH1 0x20 MUL PUSH1 0x20 ADD ADD MLOAD PUSH2 0xDE2 JUMP JUMPDEST SWAP1 POP PUSH1 0x0 PUSH2 0xA97 PUSH2 0xA27 JUMP JUMPDEST PUSH1 0x2 ADD PUSH1 0x0 DUP4 PUSH20 0xFFFFFFFFFFFFFFFFFFFFFFFFFFFFFFFFFFFFFFFF AND PUSH20 0xFFFFFFFFFFFFFFFFFFFFFFFFFFFFFFFFFFFFFFFF AND DUP2 MSTORE PUSH1 0x20 ADD SWAP1 DUP2 MSTORE PUSH1 0x20 ADD PUSH1 0x0 KECCAK256 SLOAD SUB PUSH2 0xB04 JUMPI PUSH1 0x0 PUSH1 0x40 MLOAD DUP1 PUSH1 0x60 ADD PUSH1 0x40 MSTORE DUP1 PUSH1 0x32 DUP2 MSTORE PUSH1 0x20 ADD PUSH2 0x209F PUSH1 0x32 SWAP2 CODECOPY SWAP5 POP SWAP5 POP POP POP POP PUSH2 0xC3D JUMP JUMPDEST PUSH1 0x0 DUP7 DUP4 DUP2 MLOAD DUP2 LT PUSH2 0xB19 JUMPI PUSH2 0xB18 PUSH2 0x19C9 JUMP JUMPDEST JUMPDEST PUSH1 0x20 MUL PUSH1 0x20 ADD ADD MLOAD DUP1 MLOAD SWAP1 PUSH1 0x20 ADD KECCAK256 SWAP1 POP PUSH2 0xB32 PUSH2 0xA27 JUMP JUMPDEST PUSH1 0x3 ADD PUSH1 0x0 DUP3 DUP2 MSTORE PUSH1 0x20 ADD SWAP1 DUP2 MSTORE PUSH1 0x20 ADD PUSH1 0x0 KECCAK256 PUSH1 0x0 SWAP1 SLOAD SWAP1 PUSH2 0x100 EXP SWAP1 DIV PUSH1 0xFF AND ISZERO PUSH2 0xB81 JUMPI PUSH1 0x0 PUSH1 0x40 MLOAD DUP1 PUSH1 0x60 ADD PUSH1 0x40 MSTORE DUP1 PUSH1 0x23 DUP2 MSTORE PUSH1 0x20 ADD PUSH2 0x20D1 PUSH1 0x23 SWAP2 CODECOPY SWAP6 POP SWAP6 POP POP POP POP POP PUSH2 0xC3D JUMP JUMPDEST PUSH2 0xB89 PUSH2 0xA27 JUMP JUMPDEST PUSH1 0x2 ADD PUSH1 0x0 DUP4 PUSH20 0xFFFFFFFFFFFFFFFFFFFFFFFFFFFFFFFFFFFFFFFF AND PUSH20 0xFFFFFFFFFFFFFFFFFFFFFFFFFFFFFFFFFFFFFFFF AND DUP2 MSTORE PUSH1 0x20 ADD SWAP1 DUP2 MSTORE PUSH1 0x20 ADD PUSH1 0x0 KECCAK256 SLOAD DUP5 PUSH2 0xBD5 SWAP2 SWAP1 PUSH2 0x1D27 JUMP JUMPDEST SWAP4 POP POP POP DUP1 DUP1 PUSH2 0xBE4 SWAP1 PUSH2 0x1AE2 JUMP JUMPDEST SWAP2 POP POP PUSH2 0xA5C JUMP JUMPDEST POP PUSH2 0xBF5 PUSH2 0xA27 JUMP JUMPDEST PUSH1 0x0 ADD SLOAD DUP2 LT ISZERO PUSH2 0xC25 JUMPI PUSH1 0x0 PUSH1 0x40 MLOAD DUP1 PUSH1 0x60 ADD PUSH1 0x40 MSTORE DUP1 PUSH1 0x26 DUP2 MSTORE PUSH1 0x20 ADD PUSH2 0x2079 PUSH1 0x26 SWAP2 CODECOPY SWAP3 POP SWAP3 POP POP PUSH2 0xC3D JUMP JUMPDEST PUSH1 0x1 PUSH1 0x40 MLOAD DUP1 PUSH1 0x20 ADD PUSH1 0x40 MSTORE DUP1 PUSH1 0x0 DUP2 MSTORE POP SWAP3 POP SWAP3 POP POP JUMPDEST SWAP3 POP SWAP3 SWAP1 POP JUMP JUMPDEST PUSH2 0xC4C PUSH2 0xA27 JUMP JUMPDEST PUSH1 0x2 ADD PUSH1 0x0 DUP3 PUSH20 0xFFFFFFFFFFFFFFFFFFFFFFFFFFFFFFFFFFFFFFFF AND PUSH20 0xFFFFFFFFFFFFFFFFFFFFFFFFFFFFFFFFFFFFFFFF AND DUP2 MSTORE PUSH1 0x20 ADD SWAP1 DUP2 MSTORE PUSH1 0x20 ADD PUSH1 0x0 KECCAK256 SLOAD PUSH2 0xC95 PUSH2 0xA27 JUMP JUMPDEST PUSH1 0x1 ADD PUSH1 0x0 DUP3 DUP3 SLOAD PUSH2 0xCA7 SWAP2 SWAP1 PUSH2 0x1CF3 JUMP JUMPDEST SWAP3 POP POP DUP2 SWAP1 SSTORE POP PUSH1 0x0 PUSH2 0xCB8 PUSH2 0xA27 JUMP JUMPDEST PUSH1 0x1 ADD SLOAD GT DUP1 ISZERO PUSH2 0xCDF JUMPI POP PUSH2 0xCCC PUSH2 0xA27 JUMP JUMPDEST PUSH1 0x0 ADD SLOAD PUSH2 0xCD8 PUSH2 0xA27 JUMP JUMPDEST PUSH1 0x1 ADD SLOAD LT ISZERO JUMPDEST PUSH2 0xD1E JUMPI PUSH1 0x40 MLOAD PUSH32 0x8C379A000000000000000000000000000000000000000000000000000000000 DUP2 MSTORE PUSH1 0x4 ADD PUSH2 0xD15 SWAP1 PUSH2 0x1DA7 JUMP JUMPDEST PUSH1 0x40 MLOAD DUP1 SWAP2 SUB SWAP1 REVERT JUMPDEST PUSH1 0x0 PUSH2 0xD28 PUSH2 0xA27 JUMP JUMPDEST PUSH1 0x2 ADD PUSH1 0x0 DUP4 PUSH20 0xFFFFFFFFFFFFFFFFFFFFFFFFFFFFFFFFFFFFFFFF AND PUSH20 0xFFFFFFFFFFFFFFFFFFFFFFFFFFFFFFFFFFFFFFFF AND DUP2 MSTORE PUSH1 0x20 ADD SWAP1 DUP2 MSTORE PUSH1 0x20 ADD PUSH1 0x0 KECCAK256 DUP2 SWAP1 SSTORE POP POP JUMP JUMPDEST DUP1 PUSH2 0xD78 PUSH2 0xA27 JUMP JUMPDEST PUSH1 0x1 ADD PUSH1 0x0 DUP3 DUP3 SLOAD PUSH2 0xD8A SWAP2 SWAP1 PUSH2 0x1D27 JUMP JUMPDEST SWAP3 POP POP DUP2 SWAP1 SSTORE POP DUP1 PUSH2 0xD9A PUSH2 0xA27 JUMP JUMPDEST PUSH1 0x2 ADD PUSH1 0x0 DUP5 PUSH20 0xFFFFFFFFFFFFFFFFFFFFFFFFFFFFFFFFFFFFFFFF AND PUSH20 0xFFFFFFFFFFFFFFFFFFFFFFFFFFFFFFFFFFFFFFFF AND DUP2 MSTORE PUSH1 0x20 ADD SWAP1 DUP2 MSTORE PUSH1 0x20 ADD PUSH1 0x0 KECCAK256 DUP2 SWAP1 SSTORE POP POP POP JUMP JUMPDEST PUSH1 0x0 PUSH2 0xDFF DUP3 PUSH2 0xDF1 DUP6 PUSH2 0xE07 JUMP JUMPDEST PUSH2 0xE37 SWAP1 SWAP2 SWAP1 PUSH4 0xFFFFFFFF AND JUMP JUMPDEST SWAP1 POP SWAP3 SWAP2 POP POP JUMP JUMPDEST PUSH1 0x0 DUP2 PUSH1 0x40 MLOAD PUSH1 0x20 ADD PUSH2 0xE1A SWAP2 SWAP1 PUSH2 0x1E49 JUMP JUMPDEST PUSH1 0x40 MLOAD PUSH1 0x20 DUP2 DUP4 SUB SUB DUP2 MSTORE SWAP1 PUSH1 0x40 MSTORE DUP1 MLOAD SWAP1 PUSH1 0x20 ADD KECCAK256 SWAP1 POP SWAP2 SWAP1 POP JUMP JUMPDEST PUSH1 0x0 DUP1 PUSH1 0x0 PUSH2 0xE46 DUP6 DUP6 PUSH2 0xE5E JUMP JUMPDEST SWAP2 POP SWAP2 POP PUSH2 0xE53 DUP2 PUSH2 0xEAF JUMP JUMPDEST DUP2 SWAP3 POP POP POP SWAP3 SWAP2 POP POP JUMP JUMPDEST PUSH1 0x0 DUP1 PUSH1 0x41 DUP4 MLOAD SUB PUSH2 0xE9F JUMPI PUSH1 0x0 DUP1 PUSH1 0x0 PUSH1 0x20 DUP7 ADD MLOAD SWAP3 POP PUSH1 0x40 DUP7 ADD MLOAD SWAP2 POP PUSH1 0x60 DUP7 ADD MLOAD PUSH1 0x0 BYTE SWAP1 POP PUSH2 0xE93 DUP8 DUP3 DUP6 DUP6 PUSH2 0x1015 JUMP JUMPDEST SWAP5 POP SWAP5 POP POP POP POP PUSH2 0xEA8 JUMP JUMPDEST PUSH1 0x0 PUSH1 0x2 SWAP2 POP SWAP2 POP JUMPDEST SWAP3 POP SWAP3 SWAP1 POP JUMP JUMPDEST PUSH1 0x0 PUSH1 0x4 DUP2 GT ISZERO PUSH2 0xEC3 JUMPI PUSH2 0xEC2 PUSH2 0x1E6F JUMP JUMPDEST JUMPDEST DUP2 PUSH1 0x4 DUP2 GT ISZERO PUSH2 0xED6 JUMPI PUSH2 0xED5 PUSH2 0x1E6F JUMP JUMPDEST JUMPDEST SUB ISZERO PUSH2 0x1012 JUMPI PUSH1 0x1 PUSH1 0x4 DUP2 GT ISZERO PUSH2 0xEF0 JUMPI PUSH2 0xEEF PUSH2 0x1E6F JUMP JUMPDEST JUMPDEST DUP2 PUSH1 0x4 DUP2 GT ISZERO PUSH2 0xF03 JUMPI PUSH2 0xF02 PUSH2 0x1E6F JUMP JUMPDEST JUMPDEST SUB PUSH2 0xF43 JUMPI PUSH1 0x40 MLOAD PUSH32 0x8C379A000000000000000000000000000000000000000000000000000000000 DUP2 MSTORE PUSH1 0x4 ADD PUSH2 0xF3A SWAP1 PUSH2 0x1EEA JUMP JUMPDEST PUSH1 0x40 MLOAD DUP1 SWAP2 SUB SWAP1 REVERT JUMPDEST PUSH1 0x2 PUSH1 0x4 DUP2 GT ISZERO PUSH2 0xF57 JUMPI PUSH2 0xF56 PUSH2 0x1E6F JUMP JUMPDEST JUMPDEST DUP2 PUSH1 0x4 DUP2 GT ISZERO PUSH2 0xF6A JUMPI PUSH2 0xF69 PUSH2 0x1E6F JUMP JUMPDEST JUMPDEST SUB PUSH2 0xFAA JUMPI PUSH1 0x40 MLOAD PUSH32 0x8C379A000000000000000000000000000000000000000000000000000000000 DUP2 MSTORE PUSH1 0x4 ADD PUSH2 0xFA1 SWAP1 PUSH2 0x1F56 JUMP JUMPDEST PUSH1 0x40 MLOAD DUP1 SWAP2 SUB SWAP1 REVERT JUMPDEST PUSH1 0x3 PUSH1 0x4 DUP2 GT ISZERO PUSH2 0xFBE JUMPI PUSH2 0xFBD PUSH2 0x1E6F JUMP JUMPDEST JUMPDEST DUP2 PUSH1 0x4 DUP2 GT ISZERO PUSH2 0xFD1 JUMPI PUSH2 0xFD0 PUSH2 0x1E6F JUMP JUMPDEST JUMPDEST SUB PUSH2 0x1011 JUMPI PUSH1 0x40 MLOAD PUSH32 0x8C379A000000000000000000000000000000000000000000000000000000000 DUP2 MSTORE PUSH1 0x4 ADD PUSH2 0x1008 SWAP1 PUSH2 0x1FE8 JUMP JUMPDEST PUSH1 0x40 MLOAD DUP1 SWAP2 SUB SWAP1 REVERT JUMPDEST JUMPDEST POP JUMP JUMPDEST PUSH1 0x0 DUP1 PUSH32 0x7FFFFFFFFFFFFFFFFFFFFFFFFFFFFFFF5D576E7357A4501DDFE92F46681B20A0 DUP4 PUSH1 0x0 SHR GT ISZERO PUSH2 0x1050 JUMPI PUSH1 0x0 PUSH1 0x3 SWAP2 POP SWAP2 POP PUSH2 0x10EE JUMP JUMPDEST PUSH1 0x0 PUSH1 0x1 DUP8 DUP8 DUP8 DUP8 PUSH1 0x40 MLOAD PUSH1 0x0 DUP2 MSTORE PUSH1 0x20 ADD PUSH1 0x40 MSTORE PUSH1 0x40 MLOAD PUSH2 0x1075 SWAP5 SWAP4 SWAP3 SWAP2 SWAP1 PUSH2 0x2033 JUMP JUMPDEST PUSH1 0x20 PUSH1 0x40 MLOAD PUSH1 0x20 DUP2 SUB SWAP1 DUP1 DUP5 SUB SWAP1 DUP6 GAS STATICCALL ISZERO DUP1 ISZERO PUSH2 0x1097 JUMPI RETURNDATASIZE PUSH1 0x0 DUP1 RETURNDATACOPY RETURNDATASIZE PUSH1 0x0 REVERT JUMPDEST POP POP POP PUSH1 0x20 PUSH1 0x40 MLOAD SUB MLOAD SWAP1 POP PUSH1 0x0 PUSH20 0xFFFFFFFFFFFFFFFFFFFFFFFFFFFFFFFFFFFFFFFF AND DUP2 PUSH20 0xFFFFFFFFFFFFFFFFFFFFFFFFFFFFFFFFFFFFFFFF AND SUB PUSH2 0x10E5 JUMPI PUSH1 0x0 PUSH1 0x1 SWAP3 POP SWAP3 POP POP PUSH2 0x10EE JUMP JUMPDEST DUP1 PUSH1 0x0 SWAP3 POP SWAP3 POP POP JUMPDEST SWAP5 POP SWAP5 SWAP3 POP POP POP JUMP JUMPDEST PUSH1 0x0 PUSH1 0x40 MLOAD SWAP1 POP SWAP1 JUMP JUMPDEST PUSH1 0x0 DUP1 REVERT JUMPDEST PUSH1 0x0 DUP1 REVERT JUMPDEST PUSH1 0x0 PUSH32 0xFFFFFFFF00000000000000000000000000000000000000000000000000000000 DUP3 AND SWAP1 POP SWAP2 SWAP1 POP JUMP JUMPDEST PUSH2 0x1140 DUP2 PUSH2 0x110B JUMP JUMPDEST DUP2 EQ PUSH2 0x114B JUMPI PUSH1 0x0 DUP1 REVERT JUMPDEST POP JUMP JUMPDEST PUSH1 0x0 DUP2 CALLDATALOAD SWAP1 POP PUSH2 0x115D DUP2 PUSH2 0x1137 JUMP JUMPDEST SWAP3 SWAP2 POP POP JUMP JUMPDEST PUSH1 0x0 PUSH1 0x20 DUP3 DUP5 SUB SLT ISZERO PUSH2 0x1179 JUMPI PUSH2 0x1178 PUSH2 0x1101 JUMP JUMPDEST JUMPDEST PUSH1 0x0 PUSH2 0x1187 DUP5 DUP3 DUP6 ADD PUSH2 0x114E JUMP JUMPDEST SWAP2 POP POP SWAP3 SWAP2 POP POP JUMP JUMPDEST PUSH1 0x0 DUP2 ISZERO ISZERO SWAP1 POP SWAP2 SWAP1 POP JUMP JUMPDEST PUSH2 0x11A5 DUP2 PUSH2 0x1190 JUMP JUMPDEST DUP3 MSTORE POP POP JUMP JUMPDEST PUSH1 0x0 PUSH1 0x20 DUP3 ADD SWAP1 POP PUSH2 0x11C0 PUSH1 0x0 DUP4 ADD DUP5 PUSH2 0x119C JUMP JUMPDEST SWAP3 SWAP2 POP POP JUMP JUMPDEST PUSH1 0x0 DUP2 SWAP1 POP SWAP2 SWAP1 POP JUMP JUMPDEST PUSH2 0x11D9 DUP2 PUSH2 0x11C6 JUMP JUMPDEST DUP3 MSTORE POP POP JUMP JUMPDEST PUSH1 0x0 PUSH1 0x20 DUP3 ADD SWAP1 POP PUSH2 0x11F4 PUSH1 0x0 DUP4 ADD DUP5 PUSH2 0x11D0 JUMP JUMPDEST SWAP3 SWAP2 POP POP JUMP JUMPDEST PUSH1 0x0 DUP1 REVERT JUMPDEST PUSH1 0x0 DUP1 REVERT JUMPDEST PUSH1 0x0 DUP1 REVERT JUMPDEST PUSH1 0x0 DUP1 DUP4 PUSH1 0x1F DUP5 ADD SLT PUSH2 0x121F JUMPI PUSH2 0x121E PUSH2 0x11FA JUMP JUMPDEST JUMPDEST DUP3 CALLDATALOAD SWAP1 POP PUSH8 0xFFFFFFFFFFFFFFFF DUP2 GT ISZERO PUSH2 0x123C JUMPI PUSH2 0x123B PUSH2 0x11FF JUMP JUMPDEST JUMPDEST PUSH1 0x20 DUP4 ADD SWAP2 POP DUP4 PUSH1 0x20 DUP3 MUL DUP4 ADD GT ISZERO PUSH2 0x1258 JUMPI PUSH2 0x1257 PUSH2 0x1204 JUMP JUMPDEST JUMPDEST SWAP3 POP SWAP3 SWAP1 POP JUMP JUMPDEST PUSH2 0x1268 DUP2 PUSH2 0x11C6 JUMP JUMPDEST DUP2 EQ PUSH2 0x1273 JUMPI PUSH1 0x0 DUP1 REVERT JUMPDEST POP JUMP JUMPDEST PUSH1 0x0 DUP2 CALLDATALOAD SWAP1 POP PUSH2 0x1285 DUP2 PUSH2 0x125F JUMP JUMPDEST SWAP3 SWAP2 POP POP JUMP JUMPDEST PUSH1 0x0 DUP1 DUP4 PUSH1 0x1F DUP5 ADD SLT PUSH2 0x12A1 JUMPI PUSH2 0x12A0 PUSH2 0x11FA JUMP JUMPDEST JUMPDEST DUP3 CALLDATALOAD SWAP1 POP PUSH8 0xFFFFFFFFFFFFFFFF DUP2 GT ISZERO PUSH2 0x12BE JUMPI PUSH2 0x12BD PUSH2 0x11FF JUMP JUMPDEST JUMPDEST PUSH1 0x20 DUP4 ADD SWAP2 POP DUP4 PUSH1 0x20 DUP3 MUL DUP4 ADD GT ISZERO PUSH2 0x12DA JUMPI PUSH2 0x12D9 PUSH2 0x1204 JUMP JUMPDEST JUMPDEST SWAP3 POP SWAP3 SWAP1 POP JUMP JUMPDEST PUSH1 0x0 DUP1 PUSH1 0x0 DUP1 PUSH1 0x0 PUSH1 0x60 DUP7 DUP9 SUB SLT ISZERO PUSH2 0x12FD JUMPI PUSH2 0x12FC PUSH2 0x1101 JUMP JUMPDEST JUMPDEST PUSH1 0x0 DUP7 ADD CALLDATALOAD PUSH8 0xFFFFFFFFFFFFFFFF DUP2 GT ISZERO PUSH2 0x131B JUMPI PUSH2 0x131A PUSH2 0x1106 JUMP JUMPDEST JUMPDEST PUSH2 0x1327 DUP9 DUP3 DUP10 ADD PUSH2 0x1209 JUMP JUMPDEST SWAP6 POP SWAP6 POP POP PUSH1 0x20 PUSH2 0x133A DUP9 DUP3 DUP10 ADD PUSH2 0x1276 JUMP JUMPDEST SWAP4 POP POP PUSH1 0x40 DUP7 ADD CALLDATALOAD PUSH8 0xFFFFFFFFFFFFFFFF DUP2 GT ISZERO PUSH2 0x135B JUMPI PUSH2 0x135A PUSH2 0x1106 JUMP JUMPDEST JUMPDEST PUSH2 0x1367 DUP9 DUP3 DUP10 ADD PUSH2 0x128B JUMP JUMPDEST SWAP3 POP SWAP3 POP POP SWAP3 SWAP6 POP SWAP3 SWAP6 SWAP1 SWAP4 POP JUMP JUMPDEST PUSH1 0x0 DUP1 PUSH1 0x0 DUP1 PUSH1 0x60 DUP6 DUP8 SUB SLT ISZERO PUSH2 0x1390 JUMPI PUSH2 0x138F PUSH2 0x1101 JUMP JUMPDEST JUMPDEST PUSH1 0x0 PUSH2 0x139E DUP8 DUP3 DUP9 ADD PUSH2 0x1276 JUMP JUMPDEST SWAP5 POP POP PUSH1 0x20 PUSH2 0x13AF DUP8 DUP3 DUP9 ADD PUSH2 0x1276 JUMP JUMPDEST SWAP4 POP POP PUSH1 0x40 DUP6 ADD CALLDATALOAD PUSH8 0xFFFFFFFFFFFFFFFF DUP2 GT ISZERO PUSH2 0x13D0 JUMPI PUSH2 0x13CF PUSH2 0x1106 JUMP JUMPDEST JUMPDEST PUSH2 0x13DC DUP8 DUP3 DUP9 ADD PUSH2 0x128B JUMP JUMPDEST SWAP3 POP SWAP3 POP POP SWAP3 SWAP6 SWAP2 SWAP5 POP SWAP3 POP JUMP JUMPDEST PUSH1 0x0 DUP1 DUP4 PUSH1 0x1F DUP5 ADD SLT PUSH2 0x1400 JUMPI PUSH2 0x13FF PUSH2 0x11FA JUMP JUMPDEST JUMPDEST DUP3 CALLDATALOAD SWAP1 POP PUSH8 0xFFFFFFFFFFFFFFFF DUP2 GT ISZERO PUSH2 0x141D JUMPI PUSH2 0x141C PUSH2 0x11FF JUMP JUMPDEST JUMPDEST PUSH1 0x20 DUP4 ADD SWAP2 POP DUP4 PUSH1 0x20 DUP3 MUL DUP4 ADD GT ISZERO PUSH2 0x1439 JUMPI PUSH2 0x1438 PUSH2 0x1204 JUMP JUMPDEST JUMPDEST SWAP3 POP SWAP3 SWAP1 POP JUMP JUMPDEST PUSH1 0x0 DUP1 PUSH1 0x0 DUP1 PUSH1 0x0 DUP1 PUSH1 0x0 PUSH1 0x80 DUP9 DUP11 SUB SLT ISZERO PUSH2 0x145F JUMPI PUSH2 0x145E PUSH2 0x1101 JUMP JUMPDEST JUMPDEST PUSH1 0x0 DUP9 ADD CALLDATALOAD PUSH8 0xFFFFFFFFFFFFFFFF DUP2 GT ISZERO PUSH2 0x147D JUMPI PUSH2 0x147C PUSH2 0x1106 JUMP JUMPDEST JUMPDEST PUSH2 0x1489 DUP11 DUP3 DUP12 ADD PUSH2 0x1209 JUMP JUMPDEST SWAP8 POP SWAP8 POP POP PUSH1 0x20 DUP9 ADD CALLDATALOAD PUSH8 0xFFFFFFFFFFFFFFFF DUP2 GT ISZERO PUSH2 0x14AC JUMPI PUSH2 0x14AB PUSH2 0x1106 JUMP JUMPDEST JUMPDEST PUSH2 0x14B8 DUP11 DUP3 DUP12 ADD PUSH2 0x13EA JUMP JUMPDEST SWAP6 POP SWAP6 POP POP PUSH1 0x40 PUSH2 0x14CB DUP11 DUP3 DUP12 ADD PUSH2 0x1276 JUMP JUMPDEST SWAP4 POP POP PUSH1 0x60 DUP9 ADD CALLDATALOAD PUSH8 0xFFFFFFFFFFFFFFFF DUP2 GT ISZERO PUSH2 0x14EC JUMPI PUSH2 0x14EB PUSH2 0x1106 JUMP JUMPDEST JUMPDEST PUSH2 0x14F8 DUP11 DUP3 DUP12 ADD PUSH2 0x128B JUMP JUMPDEST SWAP3 POP SWAP3 POP POP SWAP3 SWAP6 SWAP9 SWAP2 SWAP5 SWAP8 POP SWAP3 SWAP6 POP JUMP JUMPDEST PUSH1 0x0 PUSH20 0xFFFFFFFFFFFFFFFFFFFFFFFFFFFFFFFFFFFFFFFF DUP3 AND SWAP1 POP SWAP2 SWAP1 POP JUMP JUMPDEST PUSH1 0x0 PUSH2 0x1534 DUP3 PUSH2 0x1509 JUMP JUMPDEST SWAP1 POP SWAP2 SWAP1 POP JUMP JUMPDEST PUSH2 0x1544 DUP2 PUSH2 0x1529 JUMP JUMPDEST DUP2 EQ PUSH2 0x154F JUMPI PUSH1 0x0 DUP1 REVERT JUMPDEST POP JUMP JUMPDEST PUSH1 0x0 DUP2 CALLDATALOAD SWAP1 POP PUSH2 0x1561 DUP2 PUSH2 0x153B JUMP JUMPDEST SWAP3 SWAP2 POP POP JUMP JUMPDEST PUSH1 0x0 DUP1 PUSH1 0x0 DUP1 PUSH1 0x0 PUSH1 0x80 DUP7 DUP9 SUB SLT ISZERO PUSH2 0x1583 JUMPI PUSH2 0x1582 PUSH2 0x1101 JUMP JUMPDEST JUMPDEST PUSH1 0x0 PUSH2 0x1591 DUP9 DUP3 DUP10 ADD PUSH2 0x1552 JUMP JUMPDEST SWAP6 POP POP PUSH1 0x20 PUSH2 0x15A2 DUP9 DUP3 DUP10 ADD PUSH2 0x1276 JUMP JUMPDEST SWAP5 POP POP PUSH1 0x40 PUSH2 0x15B3 DUP9 DUP3 DUP10 ADD PUSH2 0x1276 JUMP JUMPDEST SWAP4 POP POP PUSH1 0x60 DUP7 ADD CALLDATALOAD PUSH8 0xFFFFFFFFFFFFFFFF DUP2 GT ISZERO PUSH2 0x15D4 JUMPI PUSH2 0x15D3 PUSH2 0x1106 JUMP JUMPDEST JUMPDEST PUSH2 0x15E0 DUP9 DUP3 DUP10 ADD PUSH2 0x128B JUMP JUMPDEST SWAP3 POP SWAP3 POP POP SWAP3 SWAP6 POP SWAP3 SWAP6 SWAP1 SWAP4 POP JUMP JUMPDEST PUSH1 0x0 PUSH1 0x20 DUP3 DUP5 SUB SLT ISZERO PUSH2 0x1605 JUMPI PUSH2 0x1604 PUSH2 0x1101 JUMP JUMPDEST JUMPDEST PUSH1 0x0 PUSH2 0x1613 DUP5 DUP3 DUP6 ADD PUSH2 0x1552 JUMP JUMPDEST SWAP2 POP POP SWAP3 SWAP2 POP POP JUMP JUMPDEST PUSH1 0x0 DUP3 DUP3 MSTORE PUSH1 0x20 DUP3 ADD SWAP1 POP SWAP3 SWAP2 POP POP JUMP JUMPDEST PUSH1 0x0 DUP2 SWAP1 POP SWAP2 SWAP1 POP JUMP JUMPDEST PUSH2 0x1640 DUP2 PUSH2 0x1529 JUMP JUMPDEST DUP3 MSTORE POP POP JUMP JUMPDEST PUSH1 0x0 PUSH2 0x1652 DUP4 DUP4 PUSH2 0x1637 JUMP JUMPDEST PUSH1 0x20 DUP4 ADD SWAP1 POP SWAP3 SWAP2 POP POP JUMP JUMPDEST PUSH1 0x0 PUSH2 0x166D PUSH1 0x20 DUP5 ADD DUP5 PUSH2 0x1552 JUMP JUMPDEST SWAP1 POP SWAP3 SWAP2 POP POP JUMP JUMPDEST PUSH1 0x0 PUSH1 0x20 DUP3 ADD SWAP1 POP SWAP2 SWAP1 POP JUMP JUMPDEST PUSH1 0x0 PUSH2 0x168E DUP4 DUP6 PUSH2 0x161C JUMP JUMPDEST SWAP4 POP PUSH2 0x1699 DUP3 PUSH2 0x162D JUMP JUMPDEST DUP1 PUSH1 0x0 JUMPDEST DUP6 DUP2 LT ISZERO PUSH2 0x16D2 JUMPI PUSH2 0x16AF DUP3 DUP5 PUSH2 0x165E JUMP JUMPDEST PUSH2 0x16B9 DUP9 DUP3 PUSH2 0x1646 JUMP JUMPDEST SWAP8 POP PUSH2 0x16C4 DUP4 PUSH2 0x1675 JUMP JUMPDEST SWAP3 POP POP PUSH1 0x1 DUP2 ADD SWAP1 POP PUSH2 0x169D JUMP JUMPDEST POP DUP6 SWAP3 POP POP POP SWAP4 SWAP3 POP POP POP JUMP JUMPDEST PUSH1 0x0 PUSH1 0x60 DUP3 ADD SWAP1 POP DUP2 DUP2 SUB PUSH1 0x0 DUP4 ADD MSTORE PUSH2 0x16FA DUP2 DUP7 DUP9 PUSH2 0x1682 JUMP JUMPDEST SWAP1 POP PUSH2 0x1709 PUSH1 0x20 DUP4 ADD DUP6 PUSH2 0x11D0 JUMP JUMPDEST PUSH2 0x1716 PUSH1 0x40 DUP4 ADD DUP5 PUSH2 0x11D0 JUMP JUMPDEST SWAP6 SWAP5 POP POP POP POP POP JUMP JUMPDEST PUSH1 0x0 PUSH1 0x1F NOT PUSH1 0x1F DUP4 ADD AND SWAP1 POP SWAP2 SWAP1 POP JUMP JUMPDEST PUSH32 0x4E487B7100000000000000000000000000000000000000000000000000000000 PUSH1 0x0 MSTORE PUSH1 0x41 PUSH1 0x4 MSTORE PUSH1 0x24 PUSH1 0x0 REVERT JUMPDEST PUSH2 0x1768 DUP3 PUSH2 0x171F JUMP JUMPDEST DUP2 ADD DUP2 DUP2 LT PUSH8 0xFFFFFFFFFFFFFFFF DUP3 GT OR ISZERO PUSH2 0x1787 JUMPI PUSH2 0x1786 PUSH2 0x1730 JUMP JUMPDEST JUMPDEST DUP1 PUSH1 0x40 MSTORE POP POP POP JUMP JUMPDEST PUSH1 0x0 PUSH2 0x179A PUSH2 0x10F7 JUMP JUMPDEST SWAP1 POP PUSH2 0x17A6 DUP3 DUP3 PUSH2 0x175F JUMP JUMPDEST SWAP2 SWAP1 POP JUMP JUMPDEST PUSH1 0x0 PUSH8 0xFFFFFFFFFFFFFFFF DUP3 GT ISZERO PUSH2 0x17C6 JUMPI PUSH2 0x17C5 PUSH2 0x1730 JUMP JUMPDEST JUMPDEST PUSH1 0x20 DUP3 MUL SWAP1 POP PUSH1 0x20 DUP2 ADD SWAP1 POP SWAP2 SWAP1 POP JUMP JUMPDEST PUSH1 0x0 DUP1 REVERT JUMPDEST PUSH1 0x0 PUSH8 0xFFFFFFFFFFFFFFFF DUP3 GT ISZERO PUSH2 0x17F7 JUMPI PUSH2 0x17F6 PUSH2 0x1730 JUMP JUMPDEST JUMPDEST PUSH2 0x1800 DUP3 PUSH2 0x171F JUMP JUMPDEST SWAP1 POP PUSH1 0x20 DUP2 ADD SWAP1 POP SWAP2 SWAP1 POP JUMP JUMPDEST DUP3 DUP2 DUP4 CALLDATACOPY PUSH1 0x0 DUP4 DUP4 ADD MSTORE POP POP POP JUMP JUMPDEST PUSH1 0x0 PUSH2 0x182F PUSH2 0x182A DUP5 PUSH2 0x17DC JUMP JUMPDEST PUSH2 0x1790 JUMP JUMPDEST SWAP1 POP DUP3 DUP2 MSTORE PUSH1 0x20 DUP2 ADD DUP5 DUP5 DUP5 ADD GT ISZERO PUSH2 0x184B JUMPI PUSH2 0x184A PUSH2 0x17D7 JUMP JUMPDEST JUMPDEST PUSH2 0x1856 DUP5 DUP3 DUP6 PUSH2 0x180D JUMP JUMPDEST POP SWAP4 SWAP3 POP POP POP JUMP JUMPDEST PUSH1 0x0 DUP3 PUSH1 0x1F DUP4 ADD SLT PUSH2 0x1873 JUMPI PUSH2 0x1872 PUSH2 0x11FA JUMP JUMPDEST JUMPDEST DUP2 CALLDATALOAD PUSH2 0x1883 DUP5 DUP3 PUSH1 0x20 DUP7 ADD PUSH2 0x181C JUMP JUMPDEST SWAP2 POP POP SWAP3 SWAP2 POP POP JUMP JUMPDEST PUSH1 0x0 PUSH2 0x189F PUSH2 0x189A DUP5 PUSH2 0x17AB JUMP JUMPDEST PUSH2 0x1790 JUMP JUMPDEST SWAP1 POP DUP1 DUP4 DUP3 MSTORE PUSH1 0x20 DUP3 ADD SWAP1 POP PUSH1 0x20 DUP5 MUL DUP4 ADD DUP6 DUP2 GT ISZERO PUSH2 0x18C2 JUMPI PUSH2 0x18C1 PUSH2 0x1204 JUMP JUMPDEST JUMPDEST DUP4 JUMPDEST DUP2 DUP2 LT ISZERO PUSH2 0x1909 JUMPI DUP1 CALLDATALOAD PUSH8 0xFFFFFFFFFFFFFFFF DUP2 GT ISZERO PUSH2 0x18E7 JUMPI PUSH2 0x18E6 PUSH2 0x11FA JUMP JUMPDEST JUMPDEST DUP1 DUP7 ADD PUSH2 0x18F4 DUP10 DUP3 PUSH2 0x185E JUMP JUMPDEST DUP6 MSTORE PUSH1 0x20 DUP6 ADD SWAP5 POP POP POP PUSH1 0x20 DUP2 ADD SWAP1 POP PUSH2 0x18C4 JUMP JUMPDEST POP POP POP SWAP4 SWAP3 POP POP POP JUMP JUMPDEST PUSH1 0x0 PUSH2 0x1920 CALLDATASIZE DUP5 DUP5 PUSH2 0x188C JUMP JUMPDEST SWAP1 POP SWAP3 SWAP2 POP POP JUMP JUMPDEST PUSH1 0x0 DUP2 MLOAD SWAP1 POP SWAP2 SWAP1 POP JUMP JUMPDEST PUSH1 0x0 DUP3 DUP3 MSTORE PUSH1 0x20 DUP3 ADD SWAP1 POP SWAP3 SWAP2 POP POP JUMP JUMPDEST PUSH1 0x0 JUMPDEST DUP4 DUP2 LT ISZERO PUSH2 0x1962 JUMPI DUP1 DUP3 ADD MLOAD DUP2 DUP5 ADD MSTORE PUSH1 0x20 DUP2 ADD SWAP1 POP PUSH2 0x1947 JUMP JUMPDEST PUSH1 0x0 DUP5 DUP5 ADD MSTORE POP POP POP POP JUMP JUMPDEST PUSH1 0x0 PUSH2 0x1979 DUP3 PUSH2 0x1928 JUMP JUMPDEST PUSH2 0x1983 DUP2 DUP6 PUSH2 0x1933 JUMP JUMPDEST SWAP4 POP PUSH2 0x1993 DUP2 DUP6 PUSH1 0x20 DUP7 ADD PUSH2 0x1944 JUMP JUMPDEST PUSH2 0x199C DUP2 PUSH2 0x171F JUMP JUMPDEST DUP5 ADD SWAP2 POP POP SWAP3 SWAP2 POP POP JUMP JUMPDEST PUSH1 0x0 PUSH1 0x20 DUP3 ADD SWAP1 POP DUP2 DUP2 SUB PUSH1 0x0 DUP4 ADD MSTORE PUSH2 0x19C1 DUP2 DUP5 PUSH2 0x196E JUMP JUMPDEST SWAP1 POP SWAP3 SWAP2 POP POP JUMP JUMPDEST PUSH32 0x4E487B7100000000000000000000000000000000000000000000000000000000 PUSH1 0x0 MSTORE PUSH1 0x32 PUSH1 0x4 MSTORE PUSH1 0x24 PUSH1 0x0 REVERT JUMPDEST PUSH1 0x0 DUP1 REVERT JUMPDEST PUSH1 0x0 DUP1 REVERT JUMPDEST PUSH1 0x0 DUP1 REVERT JUMPDEST PUSH1 0x0 DUP1 DUP4 CALLDATALOAD PUSH1 0x1 PUSH1 0x20 SUB DUP5 CALLDATASIZE SUB SUB DUP2 SLT PUSH2 0x1A24 JUMPI PUSH2 0x1A23 PUSH2 0x19F8 JUMP JUMPDEST JUMPDEST DUP1 DUP5 ADD SWAP3 POP DUP3 CALLDATALOAD SWAP2 POP PUSH8 0xFFFFFFFFFFFFFFFF DUP3 GT ISZERO PUSH2 0x1A46 JUMPI PUSH2 0x1A45 PUSH2 0x19FD JUMP JUMPDEST JUMPDEST PUSH1 0x20 DUP4 ADD SWAP3 POP PUSH1 0x1 DUP3 MUL CALLDATASIZE SUB DUP4 SGT ISZERO PUSH2 0x1A62 JUMPI PUSH2 0x1A61 PUSH2 0x1A02 JUMP JUMPDEST JUMPDEST POP SWAP3 POP SWAP3 SWAP1 POP JUMP JUMPDEST PUSH1 0x0 DUP2 SWAP1 POP SWAP3 SWAP2 POP POP JUMP JUMPDEST PUSH1 0x0 PUSH2 0x1A81 DUP4 DUP6 PUSH2 0x1A6A JUMP JUMPDEST SWAP4 POP PUSH2 0x1A8E DUP4 DUP6 DUP5 PUSH2 0x180D JUMP JUMPDEST DUP3 DUP5 ADD SWAP1 POP SWAP4 SWAP3 POP POP POP JUMP JUMPDEST PUSH1 0x0 PUSH2 0x1AA7 DUP3 DUP5 DUP7 PUSH2 0x1A75 JUMP JUMPDEST SWAP2 POP DUP2 SWAP1 POP SWAP4 SWAP3 POP POP POP JUMP JUMPDEST PUSH32 0x4E487B7100000000000000000000000000000000000000000000000000000000 PUSH1 0x0 MSTORE PUSH1 0x11 PUSH1 0x4 MSTORE PUSH1 0x24 PUSH1 0x0 REVERT JUMPDEST PUSH1 0x0 PUSH2 0x1AED DUP3 PUSH2 0x11C6 JUMP JUMPDEST SWAP2 POP PUSH32 0xFFFFFFFFFFFFFFFFFFFFFFFFFFFFFFFFFFFFFFFFFFFFFFFFFFFFFFFFFFFFFFFF DUP3 SUB PUSH2 0x1B1F JUMPI PUSH2 0x1B1E PUSH2 0x1AB3 JUMP JUMPDEST JUMPDEST PUSH1 0x1 DUP3 ADD SWAP1 POP SWAP2 SWAP1 POP JUMP JUMPDEST PUSH1 0x0 PUSH1 0x60 DUP3 ADD SWAP1 POP PUSH2 0x1B3F PUSH1 0x0 DUP4 ADD DUP7 PUSH2 0x11D0 JUMP JUMPDEST PUSH2 0x1B4C PUSH1 0x20 DUP4 ADD DUP6 PUSH2 0x11D0 JUMP JUMPDEST PUSH2 0x1B59 PUSH1 0x40 DUP4 ADD DUP5 PUSH2 0x11D0 JUMP JUMPDEST SWAP5 SWAP4 POP POP POP POP JUMP JUMPDEST PUSH32 0x496E76616C6964207468726573686F6C64000000000000000000000000000000 PUSH1 0x0 DUP3 ADD MSTORE POP JUMP JUMPDEST PUSH1 0x0 PUSH2 0x1B97 PUSH1 0x11 DUP4 PUSH2 0x1933 JUMP JUMPDEST SWAP2 POP PUSH2 0x1BA2 DUP3 PUSH2 0x1B61 JUMP JUMPDEST PUSH1 0x20 DUP3 ADD SWAP1 POP SWAP2 SWAP1 POP JUMP JUMPDEST PUSH1 0x0 PUSH1 0x20 DUP3 ADD SWAP1 POP DUP2 DUP2 SUB PUSH1 0x0 DUP4 ADD MSTORE PUSH2 0x1BC6 DUP2 PUSH2 0x1B8A JUMP JUMPDEST SWAP1 POP SWAP2 SWAP1 POP JUMP JUMPDEST PUSH1 0x0 DUP3 DUP3 MSTORE PUSH1 0x20 DUP3 ADD SWAP1 POP SWAP3 SWAP2 POP POP JUMP JUMPDEST PUSH1 0x0 DUP1 REVERT JUMPDEST DUP3 DUP2 DUP4 CALLDATACOPY POP POP POP JUMP JUMPDEST PUSH1 0x0 PUSH2 0x1BF8 DUP4 DUP6 PUSH2 0x1BCD JUMP JUMPDEST SWAP4 POP PUSH32 0x7FFFFFFFFFFFFFFFFFFFFFFFFFFFFFFFFFFFFFFFFFFFFFFFFFFFFFFFFFFFFFF DUP4 GT ISZERO PUSH2 0x1C2B JUMPI PUSH2 0x1C2A PUSH2 0x1BDE JUMP JUMPDEST JUMPDEST PUSH1 0x20 DUP4 MUL SWAP3 POP PUSH2 0x1C3C DUP4 DUP6 DUP5 PUSH2 0x1BE3 JUMP JUMPDEST DUP3 DUP5 ADD SWAP1 POP SWAP4 SWAP3 POP POP POP JUMP JUMPDEST PUSH1 0x0 PUSH1 0x80 DUP3 ADD SWAP1 POP DUP2 DUP2 SUB PUSH1 0x0 DUP4 ADD MSTORE PUSH2 0x1C63 DUP2 DUP9 DUP11 PUSH2 0x1682 JUMP JUMPDEST SWAP1 POP DUP2 DUP2 SUB PUSH1 0x20 DUP4 ADD MSTORE PUSH2 0x1C78 DUP2 DUP7 DUP9 PUSH2 0x1BEC JUMP JUMPDEST SWAP1 POP PUSH2 0x1C87 PUSH1 0x40 DUP4 ADD DUP6 PUSH2 0x11D0 JUMP JUMPDEST PUSH2 0x1C94 PUSH1 0x60 DUP4 ADD DUP5 PUSH2 0x11D0 JUMP JUMPDEST SWAP8 SWAP7 POP POP POP POP POP POP POP JUMP JUMPDEST PUSH2 0x1CA8 DUP2 PUSH2 0x1529 JUMP JUMPDEST DUP3 MSTORE POP POP JUMP JUMPDEST PUSH1 0x0 PUSH1 0x80 DUP3 ADD SWAP1 POP PUSH2 0x1CC3 PUSH1 0x0 DUP4 ADD DUP8 PUSH2 0x1C9F JUMP JUMPDEST PUSH2 0x1CD0 PUSH1 0x20 DUP4 ADD DUP7 PUSH2 0x11D0 JUMP JUMPDEST PUSH2 0x1CDD PUSH1 0x40 DUP4 ADD DUP6 PUSH2 0x11D0 JUMP JUMPDEST PUSH2 0x1CEA PUSH1 0x60 DUP4 ADD DUP5 PUSH2 0x11D0 JUMP JUMPDEST SWAP6 SWAP5 POP POP POP POP POP JUMP JUMPDEST PUSH1 0x0 PUSH2 0x1CFE DUP3 PUSH2 0x11C6 JUMP JUMPDEST SWAP2 POP PUSH2 0x1D09 DUP4 PUSH2 0x11C6 JUMP JUMPDEST SWAP3 POP DUP3 DUP3 SUB SWAP1 POP DUP2 DUP2 GT ISZERO PUSH2 0x1D21 JUMPI PUSH2 0x1D20 PUSH2 0x1AB3 JUMP JUMPDEST JUMPDEST SWAP3 SWAP2 POP POP JUMP JUMPDEST PUSH1 0x0 PUSH2 0x1D32 DUP3 PUSH2 0x11C6 JUMP JUMPDEST SWAP2 POP PUSH2 0x1D3D DUP4 PUSH2 0x11C6 JUMP JUMPDEST SWAP3 POP DUP3 DUP3 ADD SWAP1 POP DUP1 DUP3 GT ISZERO PUSH2 0x1D55 JUMPI PUSH2 0x1D54 PUSH2 0x1AB3 JUMP JUMPDEST JUMPDEST SWAP3 SWAP2 POP POP JUMP JUMPDEST PUSH32 0x5468726573686F6C6420776F756C6420626520696D706F737369626C65000000 PUSH1 0x0 DUP3 ADD MSTORE POP JUMP JUMPDEST PUSH1 0x0 PUSH2 0x1D91 PUSH1 0x1D DUP4 PUSH2 0x1933 JUMP JUMPDEST SWAP2 POP PUSH2 0x1D9C DUP3 PUSH2 0x1D5B JUMP JUMPDEST PUSH1 0x20 DUP3 ADD SWAP1 POP SWAP2 SWAP1 POP JUMP JUMPDEST PUSH1 0x0 PUSH1 0x20 DUP3 ADD SWAP1 POP DUP2 DUP2 SUB PUSH1 0x0 DUP4 ADD MSTORE PUSH2 0x1DC0 DUP2 PUSH2 0x1D84 JUMP JUMPDEST SWAP1 POP SWAP2 SWAP1 POP JUMP JUMPDEST PUSH1 0x0 DUP2 SWAP1 POP SWAP3 SWAP2 POP POP JUMP JUMPDEST PUSH32 0x19457468657265756D205369676E6564204D6573736167653A0A333200000000 PUSH1 0x0 DUP3 ADD MSTORE POP JUMP JUMPDEST PUSH1 0x0 PUSH2 0x1E08 PUSH1 0x1C DUP4 PUSH2 0x1DC7 JUMP JUMPDEST SWAP2 POP PUSH2 0x1E13 DUP3 PUSH2 0x1DD2 JUMP JUMPDEST PUSH1 0x1C DUP3 ADD SWAP1 POP SWAP2 SWAP1 POP JUMP JUMPDEST PUSH1 0x0 DUP2 SWAP1 POP SWAP2 SWAP1 POP JUMP JUMPDEST PUSH1 0x0 DUP2 SWAP1 POP SWAP2 SWAP1 POP JUMP JUMPDEST PUSH2 0x1E43 PUSH2 0x1E3E DUP3 PUSH2 0x1E1E JUMP JUMPDEST PUSH2 0x1E28 JUMP JUMPDEST DUP3 MSTORE POP POP JUMP JUMPDEST PUSH1 0x0 PUSH2 0x1E54 DUP3 PUSH2 0x1DFB JUMP JUMPDEST SWAP2 POP PUSH2 0x1E60 DUP3 DUP5 PUSH2 0x1E32 JUMP JUMPDEST PUSH1 0x20 DUP3 ADD SWAP2 POP DUP2 SWAP1 POP SWAP3 SWAP2 POP POP JUMP JUMPDEST PUSH32 0x4E487B7100000000000000000000000000000000000000000000000000000000 PUSH1 0x0 MSTORE PUSH1 0x21 PUSH1 0x4 MSTORE PUSH1 0x24 PUSH1 0x0 REVERT JUMPDEST PUSH32 0x45434453413A20696E76616C6964207369676E61747572650000000000000000 PUSH1 0x0 DUP3 ADD MSTORE POP JUMP JUMPDEST PUSH1 0x0 PUSH2 0x1ED4 PUSH1 0x18 DUP4 PUSH2 0x1933 JUMP JUMPDEST SWAP2 POP PUSH2 0x1EDF DUP3 PUSH2 0x1E9E JUMP JUMPDEST PUSH1 0x20 DUP3 ADD SWAP1 POP SWAP2 SWAP1 POP JUMP JUMPDEST PUSH1 0x0 PUSH1 0x20 DUP3 ADD SWAP1 POP DUP2 DUP2 SUB PUSH1 0x0 DUP4 ADD MSTORE PUSH2 0x1F03 DUP2 PUSH2 0x1EC7 JUMP JUMPDEST SWAP1 POP SWAP2 SWAP1 POP JUMP JUMPDEST PUSH32 0x45434453413A20696E76616C6964207369676E6174757265206C656E67746800 PUSH1 0x0 DUP3 ADD MSTORE POP JUMP JUMPDEST PUSH1 0x0 PUSH2 0x1F40 PUSH1 0x1F DUP4 PUSH2 0x1933 JUMP JUMPDEST SWAP2 POP PUSH2 0x1F4B DUP3 PUSH2 0x1F0A JUMP JUMPDEST PUSH1 0x20 DUP3 ADD SWAP1 POP SWAP2 SWAP1 POP JUMP JUMPDEST PUSH1 0x0 PUSH1 0x20 DUP3 ADD SWAP1 POP DUP2 DUP2 SUB PUSH1 0x0 DUP4 ADD MSTORE PUSH2 0x1F6F DUP2 PUSH2 0x1F33 JUMP JUMPDEST SWAP1 POP SWAP2 SWAP1 POP JUMP JUMPDEST PUSH32 0x45434453413A20696E76616C6964207369676E6174757265202773272076616C PUSH1 0x0 DUP3 ADD MSTORE PUSH32 0x7565000000000000000000000000000000000000000000000000000000000000 PUSH1 0x20 DUP3 ADD MSTORE POP JUMP JUMPDEST PUSH1 0x0 PUSH2 0x1FD2 PUSH1 0x22 DUP4 PUSH2 0x1933 JUMP JUMPDEST SWAP2 POP PUSH2 0x1FDD DUP3 PUSH2 0x1F76 JUMP JUMPDEST PUSH1 0x40 DUP3 ADD SWAP1 POP SWAP2 SWAP1 POP JUMP JUMPDEST PUSH1 0x0 PUSH1 0x20 DUP3 ADD SWAP1 POP DUP2 DUP2 SUB PUSH1 0x0 DUP4 ADD MSTORE PUSH2 0x2001 DUP2 PUSH2 0x1FC5 JUMP JUMPDEST SWAP1 POP SWAP2 SWAP1 POP JUMP JUMPDEST PUSH2 0x2011 DUP2 PUSH2 0x1E1E JUMP JUMPDEST DUP3 MSTORE POP POP JUMP JUMPDEST PUSH1 0x0 PUSH1 0xFF DUP3 AND SWAP1 POP SWAP2 SWAP1 POP JUMP JUMPDEST PUSH2 0x202D DUP2 PUSH2 0x2017 JUMP JUMPDEST DUP3 MSTORE POP POP JUMP JUMPDEST PUSH1 0x0 PUSH1 0x80 DUP3 ADD SWAP1 POP PUSH2 0x2048 PUSH1 0x0 DUP4 ADD DUP8 PUSH2 0x2008 JUMP JUMPDEST PUSH2 0x2055 PUSH1 0x20 DUP4 ADD DUP7 PUSH2 0x2024 JUMP JUMPDEST PUSH2 0x2062 PUSH1 0x40 DUP4 ADD DUP6 PUSH2 0x2008 JUMP JUMPDEST PUSH2 0x206F PUSH1 0x60 DUP4 ADD DUP5 PUSH2 0x2008 JUMP JUMPDEST SWAP6 SWAP5 POP POP POP POP POP JUMP INVALID MSTORE8 PUSH10 0x676E6572207765696768 PUSH21 0x7320646F6573206E6F74206D656574207468726573 PUSH9 0x6F6C644174206C6561 PUSH20 0x74206F6E65207369676E6174757265206E6F7420 PUSH7 0x726F6D2061206B PUSH15 0x6F776E20636F6E74726F6C6C657241 PUSH21 0x206C65617374206F6E65207369676E617475726520 PUSH2 0x6C72 PUSH6 0x616479207573 PUSH6 0x64A264697066 PUSH20 0x5822122023BB711F8ED0FC5FFB1DBD4B290394E0 PUSH13 0x71D859CE3E9F0871540BD63CAC 0xBD 0xCA PUSH5 0x736F6C6343 STOP ADDMOD SLT STOP CALLER "
		},
		"gasEstimates": {
			"creation": {
				"codeDepositCost": "1697800",
				"executionCost": "1785",
				"totalCost": "1699585"
			},
			"external": {
				"addControllers(address[],uint256[],uint256,bytes[])": "infinite",
				"controlThreshold()": "2491",
				"controllerWeight(address)": "2961",
				"controllersTotalWeight()": "2514",
				"removeControllers(address[],uint256,bytes[])": "infinite",
				"supportsInterface(bytes4)": "724",
				"updateControlThreshold(uint256,uint256,bytes[])": "infinite",
				"updateControllerWeight(address,uint256,uint256,bytes[])": "infinite"
			},
			"internal": {
				"_addController(address,uint256)": "infinite",
				"_removeController(address)": "infinite",
				"verifyControllersThresholdBySignatures(bytes32,bytes memory[] memory)": "infinite"
			}
		},
		"methodIdentifiers": {
			"addControllers(address[],uint256[],uint256,bytes[])": "af915498",
			"controlThreshold()": "a7865090",
			"controllerWeight(address)": "f04420f1",
			"controllersTotalWeight()": "06e82383",
			"removeControllers(address[],uint256,bytes[])": "286936bb",
			"supportsInterface(bytes4)": "01ffc9a7",
			"updateControlThreshold(uint256,uint256,bytes[])": "87f949b4",
			"updateControllerWeight(address,uint256,uint256,bytes[])": "d0bccea1"
		}
	},
	"abi": [
		{
			"inputs": [
				{
					"internalType": "address[]",
					"name": "_controllers",
					"type": "address[]"
				},
				{
					"internalType": "uint256[]",
					"name": "_weights",
					"type": "uint256[]"
				},
				{
					"internalType": "uint256",
					"name": "_nonce",
					"type": "uint256"
				},
				{
					"internalType": "bytes[]",
					"name": "_signatures",
					"type": "bytes[]"
				}
			],
			"name": "addControllers",
			"outputs": [],
			"stateMutability": "nonpayable",
			"type": "function"
		},
		{
			"inputs": [],
			"name": "controlThreshold",
			"outputs": [
				{
					"internalType": "uint256",
					"name": "",
					"type": "uint256"
				}
			],
			"stateMutability": "view",
			"type": "function"
		},
		{
			"inputs": [
				{
					"internalType": "address",
					"name": "_controller",
					"type": "address"
				}
			],
			"name": "controllerWeight",
			"outputs": [
				{
					"internalType": "uint256",
					"name": "",
					"type": "uint256"
				}
			],
			"stateMutability": "view",
			"type": "function"
		},
		{
			"inputs": [],
			"name": "controllersTotalWeight",
			"outputs": [
				{
					"internalType": "uint256",
					"name": "",
					"type": "uint256"
				}
			],
			"stateMutability": "view",
			"type": "function"
		},
		{
			"inputs": [
				{
					"internalType": "address[]",
					"name": "_controllers",
					"type": "address[]"
				},
				{
					"internalType": "uint256",
					"name": "_nonce",
					"type": "uint256"
				},
				{
					"internalType": "bytes[]",
					"name": "_signatures",
					"type": "bytes[]"
				}
			],
			"name": "removeControllers",
			"outputs": [],
			"stateMutability": "nonpayable",
			"type": "function"
		},
		{
			"inputs": [
				{
					"internalType": "bytes4",
					"name": "interfaceId",
					"type": "bytes4"
				}
			],
			"name": "supportsInterface",
			"outputs": [
				{
					"internalType": "bool",
					"name": "",
					"type": "bool"
				}
			],
			"stateMutability": "view",
			"type": "function"
		},
		{
			"inputs": [
				{
					"internalType": "uint256",
					"name": "_threshold",
					"type": "uint256"
				},
				{
					"internalType": "uint256",
					"name": "_nonce",
					"type": "uint256"
				},
				{
					"internalType": "bytes[]",
					"name": "_signatures",
					"type": "bytes[]"
				}
			],
			"name": "updateControlThreshold",
			"outputs": [],
			"stateMutability": "nonpayable",
			"type": "function"
		},
		{
			"inputs": [
				{
					"internalType": "address",
					"name": "_controller",
					"type": "address"
				},
				{
					"internalType": "uint256",
					"name": "_weight",
					"type": "uint256"
				},
				{
					"internalType": "uint256",
					"name": "_nonce",
					"type": "uint256"
				},
				{
					"internalType": "bytes[]",
					"name": "_signatures",
					"type": "bytes[]"
				}
			],
			"name": "updateControllerWeight",
			"outputs": [],
			"stateMutability": "nonpayable",
			"type": "function"
		}
	]
}