{
	"data": {
		"bytecode": {
			"linkReferences": {},
			"object": "608060405234801561001057600080fd5b5061416b806100206000396000f3fe608060405234801561001057600080fd5b50600436106100ea5760003560e01c806387f949b41161008c578063af91549811610066578063af9154981461025b578063d0bccea114610277578063e57db71e14610293578063f04420f1146102c3576100ea565b806387f949b4146101f1578063a3e8d51e1461020d578063a78650901461023d576100ea565b80631ab08563116100c85780631ab085631461016d578063286936bb146101895780632a365cbd146101a5578063524886d2146101c1576100ea565b806301ffc9a7146100ef57806306e823831461011f5780630d992b2b1461013d575b600080fd5b6101096004803603810190610104919061204a565b6102f3565b6040516101169190612092565b60405180910390f35b610127610374565b60405161013491906120c6565b60405180910390f35b6101576004803603810190610152919061219c565b610387565b604051610164919061236f565b60405180910390f35b610187600480360381019061018291906123e1565b61057b565b005b6101a3600480360381019061019e91906124c7565b6107a3565b005b6101bf60048036038101906101ba919061257b565b610922565b005b6101db60048036038101906101d69190612620565b610b3a565b6040516101e8919061236f565b60405180910390f35b61020b6004803603810190610206919061266d565b610c08565b005b61022760048036038101906102229190612700565b610db2565b60405161023491906127c6565b60405180910390f35b610245610ee8565b60405161025291906120c6565b60405180910390f35b6102756004803603810190610270919061283e565b610efb565b005b610291600480360381019061028c9190612965565b61109a565b005b6102ad60048036038101906102a891906129ed565b6112fd565b6040516102ba91906127c6565b60405180910390f35b6102dd60048036038101906102d89190612a36565b6115fc565b6040516102ea91906120c6565b60405180910390f35b60007f87b3e812000000000000000000000000000000000000000000000000000000007bffffffffffffffffffffffffffffffffffffffffffffffffffffffff1916827bffffffffffffffffffffffffffffffffffffffffffffffffffffffff191603610363576001905061036f565b61036c8261164e565b90505b919050565b600061037e6116cf565b60010154905090565b606084844660405160200161039e93929190612cba565b6040516020818303038152906040528051906020012083836000806103cf858585906103ca9190612ec0565b6116fc565b91509150818190610416576040517f08c379a000000000000000000000000000000000000000000000000000000000815260040161040d9190612f2a565b60405180910390fd5b5060005b848490508110156104a757600161042f6116cf565b600301600087878581811061044757610446612f4c565b5b90506020028101906104599190612f8a565b60405161046792919061301d565b6040518091039020815260200190815260200160002060006101000a81548160ff021916908315150217905550808061049f90613065565b91505061041a565b5060008a8a905067ffffffffffffffff8111156104c7576104c6612cec565b5b6040519080825280602002602001820160405280156104fa57816020015b60608152602001906001900390816104e55790505b50905060005b8b8b9050811015610569576105388c8c8381811061052157610520612f4c565b5b905060200281019061053391906130ad565b6118ec565b82828151811061054b5761054a612f4c565b5b6020026020010181905250808061056190613065565b915050610500565b50809650505050505050949350505050565b8383466040516020016105909392919061315a565b6040516020818303038152906040528051906020012082826000806105c1858585906105bc9190612ec0565b6116fc565b91509150818190610608576040517f08c379a00000000000000000000000000000000000000000000000000000000081526004016105ff9190612f2a565b60405180910390fd5b5060005b848490508110156106995760016106216116cf565b600301600087878581811061063957610638612f4c565b5b905060200281019061064b9190612f8a565b60405161065992919061301d565b6040518091039020815260200190815260200160002060006101000a81548160ff021916908315150217905550808061069190613065565b91505061060c565b506106a261199b565b60000160008a60000160208101906106ba9190612a36565b8b60200160208101906106cd9190612a36565b8c604001358d80606001906106e29190612f8a565b6040516020016106f69594939291906131d4565b604051602081830303815290604052805190602001208152602001908152602001600020600080820160006101000a81549067ffffffffffffffff02191690556000820160086101000a81549067ffffffffffffffff02191690556000820160106101000a81549063ffffffff02191690556000820160146101000a81549063ffffffff02191690556000820160186101000a81549063ffffffff02191690555050505050505050505050565b848484466040516020016107ba94939291906132bf565b6040516020818303038152906040528051906020012082826000806107eb858585906107e69190612ec0565b6116fc565b91509150818190610832576040517f08c379a00000000000000000000000000000000000000000000000000000000081526004016108299190612f2a565b60405180910390fd5b5060005b848490508110156108c357600161084b6116cf565b600301600087878581811061086357610862612f4c565b5b90506020028101906108759190612f8a565b60405161088392919061301d565b6040518091039020815260200190815260200160002060006101000a81548160ff02191690831515021790555080806108bb90613065565b915050610836565b5060005b8a8a9050811015610915576109028b8b838181106108e8576108e7612f4c565b5b90506020020160208101906108fd9190612a36565b6119c8565b808061090d90613065565b9150506108c7565b5050505050505050505050565b848484466040516020016109399493929190613457565b60405160208183030381529060405280519060200120828260008061096a858585906109659190612ec0565b6116fc565b915091508181906109b1576040517f08c379a00000000000000000000000000000000000000000000000000000000081526004016109a89190612f2a565b60405180910390fd5b5060005b84849050811015610a425760016109ca6116cf565b60030160008787858181106109e2576109e1612f4c565b5b90506020028101906109f49190612f8a565b604051610a0292919061301d565b6040518091039020815260200190815260200160002060006101000a81548160ff0219169083151502179055508080610a3a90613065565b9150506109b5565b506000896080016020810190610a5891906134a4565b63ffffffff1611610a9e576040517f08c379a0000000000000000000000000000000000000000000000000000000008152600401610a9590613543565b60405180910390fd5b88610aa761199b565b60000160008c6000016020810190610abf9190612a36565b8d6020016020810190610ad29190612a36565b8e604001358f8060600190610ae79190612f8a565b604051602001610afb9594939291906131d4565b6040516020818303038152906040528051906020012081526020019081526020016000208181610b2b9190613894565b90505050505050505050505050565b606060008383905067ffffffffffffffff811115610b5b57610b5a612cec565b5b604051908082528060200260200182016040528015610b8e57816020015b6060815260200190600190039081610b795790505b50905060005b84849050811015610bfd57610bcc858583818110610bb557610bb4612f4c565b5b9050602002810190610bc791906130ad565b6112fd565b828281518110610bdf57610bde612f4c565b5b60200260200101819052508080610bf590613065565b915050610b94565b508091505092915050565b838346604051602001610c1d939291906138a2565b604051602081830303815290604052805190602001208282600080610c4e85858590610c499190612ec0565b6116fc565b91509150818190610c95576040517f08c379a0000000000000000000000000000000000000000000000000000000008152600401610c8c9190612f2a565b60405180910390fd5b5060005b84849050811015610d26576001610cae6116cf565b6003016000878785818110610cc657610cc5612f4c565b5b9050602002810190610cd89190612f8a565b604051610ce692919061301d565b6040518091039020815260200190815260200160002060006101000a81548160ff0219169083151502179055508080610d1e90613065565b915050610c99565b506000610d316116cf565b60000154118015610d585750610d456116cf565b60010154610d516116cf565b6000015411155b610d97576040517f08c379a0000000000000000000000000000000000000000000000000000000008152600401610d8e90613925565b60405180910390fd5b88610da06116cf565b60000181905550505050505050505050565b60608346604051602001610dc79291906139ca565b604051602081830303815290604052805190602001208383600080610df885858590610df39190612ec0565b6116fc565b91509150818190610e3f576040517f08c379a0000000000000000000000000000000000000000000000000000000008152600401610e369190612f2a565b60405180910390fd5b5060005b84849050811015610ed0576001610e586116cf565b6003016000878785818110610e7057610e6f612f4c565b5b9050602002810190610e829190612f8a565b604051610e9092919061301d565b6040518091039020815260200190815260200160002060006101000a81548160ff0219169083151502179055508080610ec890613065565b915050610e43565b50610eda896118ec565b955050505050509392505050565b6000610ef26116cf565b60000154905090565b868686868646604051602001610f1696959493929190613a75565b604051602081830303815290604052805190602001208282600080610f4785858590610f429190612ec0565b6116fc565b91509150818190610f8e576040517f08c379a0000000000000000000000000000000000000000000000000000000008152600401610f859190612f2a565b60405180910390fd5b5060005b8484905081101561101f576001610fa76116cf565b6003016000878785818110610fbf57610fbe612f4c565b5b9050602002810190610fd19190612f8a565b604051610fdf92919061301d565b6040518091039020815260200190815260200160002060006101000a81548160ff021916908315150217905550808061101790613065565b915050610f92565b5060005b8c8c905081101561108b576110788d8d8381811061104457611043612f4c565b5b90506020020160208101906110599190612a36565b8c8c8481811061106c5761106b612f4c565b5b90506020020135611af3565b808061108390613065565b915050611023565b50505050505050505050505050565b848484466040516020016110b19493929190613acc565b6040516020818303038152906040528051906020012082826000806110e2858585906110dd9190612ec0565b6116fc565b91509150818190611129576040517f08c379a00000000000000000000000000000000000000000000000000000000081526004016111209190612f2a565b60405180910390fd5b5060005b848490508110156111ba5760016111426116cf565b600301600087878581811061115a57611159612f4c565b5b905060200281019061116c9190612f8a565b60405161117a92919061301d565b6040518091039020815260200190815260200160002060006101000a81548160ff02191690831515021790555080806111b290613065565b91505061112d565b50886111c46116cf565b60020160008c73ffffffffffffffffffffffffffffffffffffffff1673ffffffffffffffffffffffffffffffffffffffff1681526020019081526020016000205461120d6116cf565b6001015461121b9190613b11565b6112259190613b45565b61122d6116cf565b60010181905550600061123e6116cf565b6001015411801561126557506112526116cf565b6000015461125e6116cf565b6001015410155b6112a4576040517f08c379a000000000000000000000000000000000000000000000000000000000815260040161129b90613bc5565b60405180910390fd5b886112ad6116cf565b60020160008c73ffffffffffffffffffffffffffffffffffffffff1673ffffffffffffffffffffffffffffffffffffffff1681526020019081526020016000208190555050505050505050505050565b6060600061130b3384611b66565b905060008160000160189054906101000a900463ffffffff1663ffffffff160361133d5761133a600084611b66565b90505b60008160000160189054906101000a900463ffffffff1663ffffffff161161139a576040517f08c379a000000000000000000000000000000000000000000000000000000000815260040161139190613c31565b60405180910390fd5b60008160000160009054906101000a900467ffffffffffffffff1667ffffffffffffffff1614806113ed57508060000160009054906101000a900467ffffffffffffffff1667ffffffffffffffff164210155b61142c576040517f08c379a000000000000000000000000000000000000000000000000000000000815260040161142390613c9d565b60405180910390fd5b60008160000160089054906101000a900467ffffffffffffffff1667ffffffffffffffff161480611477575060008160000160109054906101000a900463ffffffff1663ffffffff16145b806114c957508060000160109054906101000a900463ffffffff1663ffffffff168160000160089054906101000a900467ffffffffffffffff166114bb9190613cbd565b67ffffffffffffffff164210155b611508576040517f08c379a00000000000000000000000000000000000000000000000000000000081526004016114ff90613d45565b60405180910390fd5b8060000160189054906101000a900463ffffffff1663ffffffff168160000160149054906101000a900463ffffffff1663ffffffff161061157e576040517f08c379a000000000000000000000000000000000000000000000000000000000815260040161157590613db1565b60405180910390fd5b60018160000160148282829054906101000a900463ffffffff166115a29190613dd1565b92506101000a81548163ffffffff021916908363ffffffff160217905550428160000160086101000a81548167ffffffffffffffff021916908367ffffffffffffffff1602179055506115f4836118ec565b915050919050565b60006116066116cf565b60020160008373ffffffffffffffffffffffffffffffffffffffff1673ffffffffffffffffffffffffffffffffffffffff168152602001908152602001600020549050919050565b60007fae71fe35000000000000000000000000000000000000000000000000000000007bffffffffffffffffffffffffffffffffffffffffffffffffffffffff1916827bffffffffffffffffffffffffffffffffffffffffffffffffffffffff1916036116be57600190506116ca565b6116c782611bde565b90505b919050565b6000807f255f4a56bd3ad76424e31ed8855ef9ad14a0ce4e67508c76ff082e5c1466b12f90508091505090565b600060606000805b84518110156118945760006117338787848151811061172657611725612f4c565b5b6020026020010151611c5f565b9050600061173f6116cf565b60020160008373ffffffffffffffffffffffffffffffffffffffff1673ffffffffffffffffffffffffffffffffffffffff16815260200190815260200160002054036117ac5760006040518060600160405280603281526020016140e160329139945094505050506118e5565b60008683815181106117c1576117c0612f4c565b5b60200260200101518051906020012090506117da6116cf565b600301600082815260200190815260200160002060009054906101000a900460ff16156118295760006040518060600160405280602381526020016141136023913995509550505050506118e5565b6118316116cf565b60020160008373ffffffffffffffffffffffffffffffffffffffff1673ffffffffffffffffffffffffffffffffffffffff168152602001908152602001600020548461187d9190613b45565b93505050808061188c90613065565b915050611704565b5061189d6116cf565b600001548110156118cd5760006040518060600160405280602681526020016140bb6026913992509250506118e5565b60016040518060200160405280600081525092509250505b9250929050565b60606000808360000160208101906119049190612a36565b73ffffffffffffffffffffffffffffffffffffffff16846020013585806060019061192f9190612f8a565b60405161193d92919061301d565b60006040518083038185875af1925050503d806000811461197a576040519150601f19603f3d011682016040523d82523d6000602084013e61197f565b606091505b50915091508161199157805160208201fd5b8092505050919050565b6000807fa7c6065f73528a079b6bd396854cfc70d8b5a045d4821e6db173081678a5276590508091505090565b6119d06116cf565b60020160008273ffffffffffffffffffffffffffffffffffffffff1673ffffffffffffffffffffffffffffffffffffffff16815260200190815260200160002054611a196116cf565b6001016000828254611a2b9190613b11565b925050819055506000611a3c6116cf565b60010154118015611a635750611a506116cf565b60000154611a5c6116cf565b6001015410155b611aa2576040517f08c379a0000000000000000000000000000000000000000000000000000000008152600401611a9990613bc5565b60405180910390fd5b6000611aac6116cf565b60020160008373ffffffffffffffffffffffffffffffffffffffff1673ffffffffffffffffffffffffffffffffffffffff1681526020019081526020016000208190555050565b80611afc6116cf565b6001016000828254611b0e9190613b45565b9250508190555080611b1e6116cf565b60020160008473ffffffffffffffffffffffffffffffffffffffff1673ffffffffffffffffffffffffffffffffffffffff168152602001908152602001600020819055505050565b6000611b7061199b565b600001600084846000016020810190611b899190612a36565b8560200135868060600190611b9e9190612f8a565b604051602001611bb29594939291906131d4565b604051602081830303815290604052805190602001208152602001908152602001600020905092915050565b60007f8197b6d4000000000000000000000000000000000000000000000000000000007bffffffffffffffffffffffffffffffffffffffffffffffffffffffff1916827bffffffffffffffffffffffffffffffffffffffffffffffffffffffff191603611c4e5760019050611c5a565b611c5782611c84565b90505b919050565b6000611c7c82611c6e85611cee565b611d1e90919063ffffffff16565b905092915050565b60007f01ffc9a7000000000000000000000000000000000000000000000000000000007bffffffffffffffffffffffffffffffffffffffffffffffffffffffff1916827bffffffffffffffffffffffffffffffffffffffffffffffffffffffff1916149050919050565b600081604051602001611d019190613e8b565b604051602081830303815290604052805190602001209050919050565b6000806000611d2d8585611d45565b91509150611d3a81611d96565b819250505092915050565b6000806041835103611d865760008060006020860151925060408601519150606086015160001a9050611d7a87828585611efc565b94509450505050611d8f565b60006002915091505b9250929050565b60006004811115611daa57611da9613eb1565b5b816004811115611dbd57611dbc613eb1565b5b0315611ef95760016004811115611dd757611dd6613eb1565b5b816004811115611dea57611de9613eb1565b5b03611e2a576040517f08c379a0000000000000000000000000000000000000000000000000000000008152600401611e2190613f2c565b60405180910390fd5b60026004811115611e3e57611e3d613eb1565b5b816004811115611e5157611e50613eb1565b5b03611e91576040517f08c379a0000000000000000000000000000000000000000000000000000000008152600401611e8890613f98565b60405180910390fd5b60036004811115611ea557611ea4613eb1565b5b816004811115611eb857611eb7613eb1565b5b03611ef8576040517f08c379a0000000000000000000000000000000000000000000000000000000008152600401611eef9061402a565b60405180910390fd5b5b50565b6000807f7fffffffffffffffffffffffffffffff5d576e7357a4501ddfe92f46681b20a08360001c1115611f37576000600391509150611fd5565b600060018787878760405160008152602001604052604051611f5c9493929190614075565b6020604051602081039080840390855afa158015611f7e573d6000803e3d6000fd5b505050602060405103519050600073ffffffffffffffffffffffffffffffffffffffff168173ffffffffffffffffffffffffffffffffffffffff1603611fcc57600060019250925050611fd5565b80600092509250505b94509492505050565b6000604051905090565b600080fd5b600080fd5b60007fffffffff0000000000000000000000000000000000000000000000000000000082169050919050565b61202781611ff2565b811461203257600080fd5b50565b6000813590506120448161201e565b92915050565b6000602082840312156120605761205f611fe8565b5b600061206e84828501612035565b91505092915050565b60008115159050919050565b61208c81612077565b82525050565b60006020820190506120a76000830184612083565b92915050565b6000819050919050565b6120c0816120ad565b82525050565b60006020820190506120db60008301846120b7565b92915050565b600080fd5b600080fd5b600080fd5b60008083601f840112612106576121056120e1565b5b8235905067ffffffffffffffff811115612123576121226120e6565b5b60208301915083602082028301111561213f5761213e6120eb565b5b9250929050565b60008083601f84011261215c5761215b6120e1565b5b8235905067ffffffffffffffff811115612179576121786120e6565b5b602083019150836020820283011115612195576121946120eb565b5b9250929050565b600080600080604085870312156121b6576121b5611fe8565b5b600085013567ffffffffffffffff8111156121d4576121d3611fed565b5b6121e0878288016120f0565b9450945050602085013567ffffffffffffffff81111561220357612202611fed565b5b61220f87828801612146565b925092505092959194509250565b600081519050919050565b600082825260208201905092915050565b6000819050602082019050919050565b600081519050919050565b600082825260208201905092915050565b60005b83811015612283578082015181840152602081019050612268565b60008484015250505050565b6000601f19601f8301169050919050565b60006122ab82612249565b6122b58185612254565b93506122c5818560208601612265565b6122ce8161228f565b840191505092915050565b60006122e583836122a0565b905092915050565b6000602082019050919050565b60006123058261221d565b61230f8185612228565b93508360208202850161232185612239565b8060005b8581101561235d578484038952815161233e85826122d9565b9450612349836122ed565b925060208a01995050600181019050612325565b50829750879550505050505092915050565b6000602082019050818103600083015261238981846122fa565b905092915050565b600080fd5b6000608082840312156123ac576123ab612391565b5b81905092915050565b6123be816120ad565b81146123c957600080fd5b50565b6000813590506123db816123b5565b92915050565b600080600080606085870312156123fb576123fa611fe8565b5b600085013567ffffffffffffffff81111561241957612418611fed565b5b61242587828801612396565b9450506020612436878288016123cc565b935050604085013567ffffffffffffffff81111561245757612456611fed565b5b61246387828801612146565b925092505092959194509250565b60008083601f840112612487576124866120e1565b5b8235905067ffffffffffffffff8111156124a4576124a36120e6565b5b6020830191508360208202830111156124c0576124bf6120eb565b5b9250929050565b6000806000806000606086880312156124e3576124e2611fe8565b5b600086013567ffffffffffffffff81111561250157612500611fed565b5b61250d88828901612471565b95509550506020612520888289016123cc565b935050604086013567ffffffffffffffff81111561254157612540611fed565b5b61254d88828901612146565b92509250509295509295909350565b600060a0828403121561257257612571612391565b5b81905092915050565b6000806000806000610100868803121561259857612597611fe8565b5b600086013567ffffffffffffffff8111156125b6576125b5611fed565b5b6125c288828901612396565b95505060206125d38882890161255c565b94505060c06125e4888289016123cc565b93505060e086013567ffffffffffffffff81111561260557612604611fed565b5b61261188828901612146565b92509250509295509295909350565b6000806020838503121561263757612636611fe8565b5b600083013567ffffffffffffffff81111561265557612654611fed565b5b612661858286016120f0565b92509250509250929050565b6000806000806060858703121561268757612686611fe8565b5b6000612695878288016123cc565b94505060206126a6878288016123cc565b935050604085013567ffffffffffffffff8111156126c7576126c6611fed565b5b6126d387828801612146565b925092505092959194509250565b6000608082840312156126f7576126f6612391565b5b81905092915050565b60008060006040848603121561271957612718611fe8565b5b600084013567ffffffffffffffff81111561273757612736611fed565b5b612743868287016126e1565b935050602084013567ffffffffffffffff81111561276457612763611fed565b5b61277086828701612146565b92509250509250925092565b600082825260208201905092915050565b600061279882612249565b6127a2818561277c565b93506127b2818560208601612265565b6127bb8161228f565b840191505092915050565b600060208201905081810360008301526127e0818461278d565b905092915050565b60008083601f8401126127fe576127fd6120e1565b5b8235905067ffffffffffffffff81111561281b5761281a6120e6565b5b602083019150836020820283011115612837576128366120eb565b5b9250929050565b60008060008060008060006080888a03121561285d5761285c611fe8565b5b600088013567ffffffffffffffff81111561287b5761287a611fed565b5b6128878a828b01612471565b9750975050602088013567ffffffffffffffff8111156128aa576128a9611fed565b5b6128b68a828b016127e8565b955095505060406128c98a828b016123cc565b935050606088013567ffffffffffffffff8111156128ea576128e9611fed565b5b6128f68a828b01612146565b925092505092959891949750929550565b600073ffffffffffffffffffffffffffffffffffffffff82169050919050565b600061293282612907565b9050919050565b61294281612927565b811461294d57600080fd5b50565b60008135905061295f81612939565b92915050565b60008060008060006080868803121561298157612980611fe8565b5b600061298f88828901612950565b95505060206129a0888289016123cc565b94505060406129b1888289016123cc565b935050606086013567ffffffffffffffff8111156129d2576129d1611fed565b5b6129de88828901612146565b92509250509295509295909350565b600060208284031215612a0357612a02611fe8565b5b600082013567ffffffffffffffff811115612a2157612a20611fed565b5b612a2d848285016126e1565b91505092915050565b600060208284031215612a4c57612a4b611fe8565b5b6000612a5a84828501612950565b91505092915050565b600082825260208201905092915050565b6000819050919050565b6000612a8d6020840184612950565b905092915050565b612a9e81612927565b82525050565b6000612ab360208401846123cc565b905092915050565b612ac4816120ad565b82525050565b600080fd5b600080fd5b600080fd5b60008083356001602003843603038112612af657612af5612ad4565b5b83810192508235915060208301925067ffffffffffffffff821115612b1e57612b1d612aca565b5b600182023603831315612b3457612b33612acf565b5b509250929050565b82818337600083830152505050565b6000612b578385612254565b9350612b64838584612b3c565b612b6d8361228f565b840190509392505050565b600060808301612b8b6000840184612a7e565b612b986000860182612a95565b50612ba66020840184612aa4565b612bb36020860182612abb565b50612bc16040840184612aa4565b612bce6040860182612abb565b50612bdc6060840184612ad9565b8583036060870152612bef838284612b4b565b925050508091505092915050565b6000612c098383612b78565b905092915050565b600082356001608003833603038112612c2d57612c2c612ad4565b5b82810191505092915050565b6000602082019050919050565b6000612c528385612a63565b935083602084028501612c6484612a74565b8060005b87811015612ca8578484038952612c7f8284612c11565b612c898582612bfd565b9450612c9483612c39565b925060208a01995050600181019050612c68565b50829750879450505050509392505050565b60006040820190508181036000830152612cd5818587612c46565b9050612ce460208301846120b7565b949350505050565b7f4e487b7100000000000000000000000000000000000000000000000000000000600052604160045260246000fd5b612d248261228f565b810181811067ffffffffffffffff82111715612d4357612d42612cec565b5b80604052505050565b6000612d56611fde565b9050612d628282612d1b565b919050565b600067ffffffffffffffff821115612d8257612d81612cec565b5b602082029050602081019050919050565b600080fd5b600067ffffffffffffffff821115612db357612db2612cec565b5b612dbc8261228f565b9050602081019050919050565b6000612ddc612dd784612d98565b612d4c565b905082815260208101848484011115612df857612df7612d93565b5b612e03848285612b3c565b509392505050565b600082601f830112612e2057612e1f6120e1565b5b8135612e30848260208601612dc9565b91505092915050565b6000612e4c612e4784612d67565b612d4c565b90508083825260208201905060208402830185811115612e6f57612e6e6120eb565b5b835b81811015612eb657803567ffffffffffffffff811115612e9457612e936120e1565b5b808601612ea18982612e0b565b85526020850194505050602081019050612e71565b5050509392505050565b6000612ecd368484612e39565b905092915050565b600081519050919050565b600082825260208201905092915050565b6000612efc82612ed5565b612f068185612ee0565b9350612f16818560208601612265565b612f1f8161228f565b840191505092915050565b60006020820190508181036000830152612f448184612ef1565b905092915050565b7f4e487b7100000000000000000000000000000000000000000000000000000000600052603260045260246000fd5b600080fd5b600080fd5b600080fd5b60008083356001602003843603038112612fa757612fa6612f7b565b5b80840192508235915067ffffffffffffffff821115612fc957612fc8612f80565b5b602083019250600182023603831315612fe557612fe4612f85565b5b509250929050565b600081905092915050565b60006130048385612fed565b9350613011838584612b3c565b82840190509392505050565b600061302a828486612ff8565b91508190509392505050565b7f4e487b7100000000000000000000000000000000000000000000000000000000600052601160045260246000fd5b6000613070826120ad565b91507fffffffffffffffffffffffffffffffffffffffffffffffffffffffffffffffff82036130a2576130a1613036565b5b600182019050919050565b6000823560016080038336030381126130c9576130c8612f7b565b5b80830191505092915050565b6000608083016130e86000840184612a7e565b6130f56000860182612a95565b506131036020840184612a7e565b6131106020860182612a95565b5061311e6040840184612aa4565b61312b6040860182612abb565b506131396060840184612ad9565b858303606087015261314c838284612b4b565b925050508091505092915050565b6000606082019050818103600083015261317481866130d5565b905061318360208301856120b7565b61319060408301846120b7565b949350505050565b6131a181612927565b82525050565b60006131b3838561277c565b93506131c0838584612b3c565b6131c98361228f565b840190509392505050565b60006080820190506131e96000830188613198565b6131f66020830187613198565b61320360408301866120b7565b81810360608301526132168184866131a7565b90509695505050505050565b600082825260208201905092915050565b6000819050919050565b60006132498383612a95565b60208301905092915050565b6000602082019050919050565b600061326e8385613222565b935061327982613233565b8060005b858110156132b25761328f8284612a7e565b613299888261323d565b97506132a483613255565b92505060018101905061327d565b5085925050509392505050565b600060608201905081810360008301526132da818688613262565b90506132e960208301856120b7565b6132f660408301846120b7565b95945050505050565b600067ffffffffffffffff82169050919050565b61331c816132ff565b811461332757600080fd5b50565b60008135905061333981613313565b92915050565b600061334e602084018461332a565b905092915050565b61335f816132ff565b82525050565b600063ffffffff82169050919050565b61337e81613365565b811461338957600080fd5b50565b60008135905061339b81613375565b92915050565b60006133b0602084018461338c565b905092915050565b6133c181613365565b82525050565b60a082016133d8600083018361333f565b6133e56000850182613356565b506133f3602083018361333f565b6134006020850182613356565b5061340e60408301836133a1565b61341b60408501826133b8565b5061342960608301836133a1565b61343660608501826133b8565b5061344460808301836133a1565b61345160808501826133b8565b50505050565b600061010082019050818103600083015261347281876130d5565b905061348160208301866133c7565b61348e60c08301856120b7565b61349b60e08301846120b7565b95945050505050565b6000602082840312156134ba576134b9611fe8565b5b60006134c88482850161338c565b91505092915050565b7f45786563757465526571756573745065726d697373696f6e2e6d61784578656360008201527f75746573206d757374206e6f7420626520300000000000000000000000000000602082015250565b600061352d603283612ee0565b9150613538826134d1565b604082019050919050565b6000602082019050818103600083015261355c81613520565b9050919050565b6000813561357081613313565b80915050919050565b60008160001b9050919050565b600067ffffffffffffffff61359a84613579565b9350801983169250808416831791505092915050565b6000819050919050565b60006135d56135d06135cb846132ff565b6135b0565b6132ff565b9050919050565b6000819050919050565b6135ef826135ba565b6136026135fb826135dc565b8354613586565b8255505050565b60008160401b9050919050565b60006fffffffffffffffff000000000000000061363284613609565b9350801983169250808416831791505092915050565b613651826135ba565b61366461365d826135dc565b8354613616565b8255505050565b6000813561367881613375565b80915050919050565b60008160801b9050919050565b600073ffffffff000000000000000000000000000000006136ae84613681565b9350801983169250808416831791505092915050565b60006136df6136da6136d584613365565b6135b0565b613365565b9050919050565b6000819050919050565b6136f9826136c4565b61370c613705826136e6565b835461368e565b8255505050565b60008160a01b9050919050565b600077ffffffff000000000000000000000000000000000000000061374484613713565b9350801983169250808416831791505092915050565b613763826136c4565b61377661376f826136e6565b8354613720565b8255505050565b60008160c01b9050919050565b60007bffffffff0000000000000000000000000000000000000000000000006137b28461377d565b9350801983169250808416831791505092915050565b6137d1826136c4565b6137e46137dd826136e6565b835461378a565b8255505050565b6000810160008301806137fd81613563565b905061380981846135e6565b50505060008101602083018061381e81613563565b905061382a8184613648565b50505060008101604083018061383f8161366b565b905061384b81846136f0565b5050506000810160608301806138608161366b565b905061386c818461375a565b5050506000810160808301806138818161366b565b905061388d81846137c8565b5050505050565b61389e82826137eb565b5050565b60006060820190506138b760008301866120b7565b6138c460208301856120b7565b6138d160408301846120b7565b949350505050565b7f496e76616c6964207468726573686f6c64000000000000000000000000000000600082015250565b600061390f601183612ee0565b915061391a826138d9565b602082019050919050565b6000602082019050818103600083015261393e81613902565b9050919050565b6000608083016139586000840184612a7e565b6139656000860182612a95565b506139736020840184612aa4565b6139806020860182612abb565b5061398e6040840184612aa4565b61399b6040860182612abb565b506139a96060840184612ad9565b85830360608701526139bc838284612b4b565b925050508091505092915050565b600060408201905081810360008301526139e48185613945565b90506139f360208301846120b7565b9392505050565b600082825260208201905092915050565b600080fd5b82818337505050565b6000613a2583856139fa565b93507f07ffffffffffffffffffffffffffffffffffffffffffffffffffffffffffffff831115613a5857613a57613a0b565b5b602083029250613a69838584613a10565b82840190509392505050565b60006080820190508181036000830152613a9081888a613262565b90508181036020830152613aa5818688613a19565b9050613ab460408301856120b7565b613ac160608301846120b7565b979650505050505050565b6000608082019050613ae16000830187613198565b613aee60208301866120b7565b613afb60408301856120b7565b613b0860608301846120b7565b95945050505050565b6000613b1c826120ad565b9150613b27836120ad565b9250828203905081811115613b3f57613b3e613036565b5b92915050565b6000613b50826120ad565b9150613b5b836120ad565b9250828201905080821115613b7357613b72613036565b5b92915050565b7f5468726573686f6c6420776f756c6420626520696d706f737369626c65000000600082015250565b6000613baf601d83612ee0565b9150613bba82613b79565b602082019050919050565b60006020820190508181036000830152613bde81613ba2565b9050919050565b7f457865637574696f6e206e6f74207065726d6974746564000000000000000000600082015250565b6000613c1b601783612ee0565b9150613c2682613be5565b602082019050919050565b60006020820190508181036000830152613c4a81613c0e565b9050919050565b7f457865637574696f6e2074696d656c6f636b6564000000000000000000000000600082015250565b6000613c87601483612ee0565b9150613c9282613c51565b602082019050919050565b60006020820190508181036000830152613cb681613c7a565b9050919050565b6000613cc8826132ff565b9150613cd3836132ff565b9250828201905067ffffffffffffffff811115613cf357613cf2613036565b5b92915050565b7f457865637574696f6e20696e74657276616c20756e6d65740000000000000000600082015250565b6000613d2f601883612ee0565b9150613d3a82613cf9565b602082019050919050565b60006020820190508181036000830152613d5e81613d22565b9050919050565b7f4d617820657865637574696f6e73207265616368656400000000000000000000600082015250565b6000613d9b601683612ee0565b9150613da682613d65565b602082019050919050565b60006020820190508181036000830152613dca81613d8e565b9050919050565b6000613ddc82613365565b9150613de783613365565b9250828201905063ffffffff811115613e0357613e02613036565b5b92915050565b600081905092915050565b7f19457468657265756d205369676e6564204d6573736167653a0a333200000000600082015250565b6000613e4a601c83613e09565b9150613e5582613e14565b601c82019050919050565b6000819050919050565b6000819050919050565b613e85613e8082613e60565b613e6a565b82525050565b6000613e9682613e3d565b9150613ea28284613e74565b60208201915081905092915050565b7f4e487b7100000000000000000000000000000000000000000000000000000000600052602160045260246000fd5b7f45434453413a20696e76616c6964207369676e61747572650000000000000000600082015250565b6000613f16601883612ee0565b9150613f2182613ee0565b602082019050919050565b60006020820190508181036000830152613f4581613f09565b9050919050565b7f45434453413a20696e76616c6964207369676e6174757265206c656e67746800600082015250565b6000613f82601f83612ee0565b9150613f8d82613f4c565b602082019050919050565b60006020820190508181036000830152613fb181613f75565b9050919050565b7f45434453413a20696e76616c6964207369676e6174757265202773272076616c60008201527f7565000000000000000000000000000000000000000000000000000000000000602082015250565b6000614014602283612ee0565b915061401f82613fb8565b604082019050919050565b6000602082019050818103600083015261404381614007565b9050919050565b61405381613e60565b82525050565b600060ff82169050919050565b61406f81614059565b82525050565b600060808201905061408a600083018761404a565b6140976020830186614066565b6140a4604083018561404a565b6140b1606083018461404a565b9594505050505056fe5369676e6572207765696768747320646f6573206e6f74206d656574207468726573686f6c644174206c65617374206f6e65207369676e6174757265206e6f742066726f6d2061206b6e6f776e20636f6e74726f6c6c65724174206c65617374206f6e65207369676e617475726520616c72656164792075736564a2646970667358221220f22bd1bbac5616bf9bb69f20945741fdc8e2ec57485ca9c31449acc703a00e3b64736f6c63430008120033",
			"opcodes": "PUSH1 0x80 PUSH1 0x40 MSTORE CALLVALUE DUP1 ISZERO PUSH2 0x10 JUMPI PUSH1 0x0 DUP1 REVERT JUMPDEST POP PUSH2 0x416B DUP1 PUSH2 0x20 PUSH1 0x0 CODECOPY PUSH1 0x0 RETURN INVALID PUSH1 0x80 PUSH1 0x40 MSTORE CALLVALUE DUP1 ISZERO PUSH2 0x10 JUMPI PUSH1 0x0 DUP1 REVERT JUMPDEST POP PUSH1 0x4 CALLDATASIZE LT PUSH2 0xEA JUMPI PUSH1 0x0 CALLDATALOAD PUSH1 0xE0 SHR DUP1 PUSH4 0x87F949B4 GT PUSH2 0x8C JUMPI DUP1 PUSH4 0xAF915498 GT PUSH2 0x66 JUMPI DUP1 PUSH4 0xAF915498 EQ PUSH2 0x25B JUMPI DUP1 PUSH4 0xD0BCCEA1 EQ PUSH2 0x277 JUMPI DUP1 PUSH4 0xE57DB71E EQ PUSH2 0x293 JUMPI DUP1 PUSH4 0xF04420F1 EQ PUSH2 0x2C3 JUMPI PUSH2 0xEA JUMP JUMPDEST DUP1 PUSH4 0x87F949B4 EQ PUSH2 0x1F1 JUMPI DUP1 PUSH4 0xA3E8D51E EQ PUSH2 0x20D JUMPI DUP1 PUSH4 0xA7865090 EQ PUSH2 0x23D JUMPI PUSH2 0xEA JUMP JUMPDEST DUP1 PUSH4 0x1AB08563 GT PUSH2 0xC8 JUMPI DUP1 PUSH4 0x1AB08563 EQ PUSH2 0x16D JUMPI DUP1 PUSH4 0x286936BB EQ PUSH2 0x189 JUMPI DUP1 PUSH4 0x2A365CBD EQ PUSH2 0x1A5 JUMPI DUP1 PUSH4 0x524886D2 EQ PUSH2 0x1C1 JUMPI PUSH2 0xEA JUMP JUMPDEST DUP1 PUSH4 0x1FFC9A7 EQ PUSH2 0xEF JUMPI DUP1 PUSH4 0x6E82383 EQ PUSH2 0x11F JUMPI DUP1 PUSH4 0xD992B2B EQ PUSH2 0x13D JUMPI JUMPDEST PUSH1 0x0 DUP1 REVERT JUMPDEST PUSH2 0x109 PUSH1 0x4 DUP1 CALLDATASIZE SUB DUP2 ADD SWAP1 PUSH2 0x104 SWAP2 SWAP1 PUSH2 0x204A JUMP JUMPDEST PUSH2 0x2F3 JUMP JUMPDEST PUSH1 0x40 MLOAD PUSH2 0x116 SWAP2 SWAP1 PUSH2 0x2092 JUMP JUMPDEST PUSH1 0x40 MLOAD DUP1 SWAP2 SUB SWAP1 RETURN JUMPDEST PUSH2 0x127 PUSH2 0x374 JUMP JUMPDEST PUSH1 0x40 MLOAD PUSH2 0x134 SWAP2 SWAP1 PUSH2 0x20C6 JUMP JUMPDEST PUSH1 0x40 MLOAD DUP1 SWAP2 SUB SWAP1 RETURN JUMPDEST PUSH2 0x157 PUSH1 0x4 DUP1 CALLDATASIZE SUB DUP2 ADD SWAP1 PUSH2 0x152 SWAP2 SWAP1 PUSH2 0x219C JUMP JUMPDEST PUSH2 0x387 JUMP JUMPDEST PUSH1 0x40 MLOAD PUSH2 0x164 SWAP2 SWAP1 PUSH2 0x236F JUMP JUMPDEST PUSH1 0x40 MLOAD DUP1 SWAP2 SUB SWAP1 RETURN JUMPDEST PUSH2 0x187 PUSH1 0x4 DUP1 CALLDATASIZE SUB DUP2 ADD SWAP1 PUSH2 0x182 SWAP2 SWAP1 PUSH2 0x23E1 JUMP JUMPDEST PUSH2 0x57B JUMP JUMPDEST STOP JUMPDEST PUSH2 0x1A3 PUSH1 0x4 DUP1 CALLDATASIZE SUB DUP2 ADD SWAP1 PUSH2 0x19E SWAP2 SWAP1 PUSH2 0x24C7 JUMP JUMPDEST PUSH2 0x7A3 JUMP JUMPDEST STOP JUMPDEST PUSH2 0x1BF PUSH1 0x4 DUP1 CALLDATASIZE SUB DUP2 ADD SWAP1 PUSH2 0x1BA SWAP2 SWAP1 PUSH2 0x257B JUMP JUMPDEST PUSH2 0x922 JUMP JUMPDEST STOP JUMPDEST PUSH2 0x1DB PUSH1 0x4 DUP1 CALLDATASIZE SUB DUP2 ADD SWAP1 PUSH2 0x1D6 SWAP2 SWAP1 PUSH2 0x2620 JUMP JUMPDEST PUSH2 0xB3A JUMP JUMPDEST PUSH1 0x40 MLOAD PUSH2 0x1E8 SWAP2 SWAP1 PUSH2 0x236F JUMP JUMPDEST PUSH1 0x40 MLOAD DUP1 SWAP2 SUB SWAP1 RETURN JUMPDEST PUSH2 0x20B PUSH1 0x4 DUP1 CALLDATASIZE SUB DUP2 ADD SWAP1 PUSH2 0x206 SWAP2 SWAP1 PUSH2 0x266D JUMP JUMPDEST PUSH2 0xC08 JUMP JUMPDEST STOP JUMPDEST PUSH2 0x227 PUSH1 0x4 DUP1 CALLDATASIZE SUB DUP2 ADD SWAP1 PUSH2 0x222 SWAP2 SWAP1 PUSH2 0x2700 JUMP JUMPDEST PUSH2 0xDB2 JUMP JUMPDEST PUSH1 0x40 MLOAD PUSH2 0x234 SWAP2 SWAP1 PUSH2 0x27C6 JUMP JUMPDEST PUSH1 0x40 MLOAD DUP1 SWAP2 SUB SWAP1 RETURN JUMPDEST PUSH2 0x245 PUSH2 0xEE8 JUMP JUMPDEST PUSH1 0x40 MLOAD PUSH2 0x252 SWAP2 SWAP1 PUSH2 0x20C6 JUMP JUMPDEST PUSH1 0x40 MLOAD DUP1 SWAP2 SUB SWAP1 RETURN JUMPDEST PUSH2 0x275 PUSH1 0x4 DUP1 CALLDATASIZE SUB DUP2 ADD SWAP1 PUSH2 0x270 SWAP2 SWAP1 PUSH2 0x283E JUMP JUMPDEST PUSH2 0xEFB JUMP JUMPDEST STOP JUMPDEST PUSH2 0x291 PUSH1 0x4 DUP1 CALLDATASIZE SUB DUP2 ADD SWAP1 PUSH2 0x28C SWAP2 SWAP1 PUSH2 0x2965 JUMP JUMPDEST PUSH2 0x109A JUMP JUMPDEST STOP JUMPDEST PUSH2 0x2AD PUSH1 0x4 DUP1 CALLDATASIZE SUB DUP2 ADD SWAP1 PUSH2 0x2A8 SWAP2 SWAP1 PUSH2 0x29ED JUMP JUMPDEST PUSH2 0x12FD JUMP JUMPDEST PUSH1 0x40 MLOAD PUSH2 0x2BA SWAP2 SWAP1 PUSH2 0x27C6 JUMP JUMPDEST PUSH1 0x40 MLOAD DUP1 SWAP2 SUB SWAP1 RETURN JUMPDEST PUSH2 0x2DD PUSH1 0x4 DUP1 CALLDATASIZE SUB DUP2 ADD SWAP1 PUSH2 0x2D8 SWAP2 SWAP1 PUSH2 0x2A36 JUMP JUMPDEST PUSH2 0x15FC JUMP JUMPDEST PUSH1 0x40 MLOAD PUSH2 0x2EA SWAP2 SWAP1 PUSH2 0x20C6 JUMP JUMPDEST PUSH1 0x40 MLOAD DUP1 SWAP2 SUB SWAP1 RETURN JUMPDEST PUSH1 0x0 PUSH32 0x87B3E81200000000000000000000000000000000000000000000000000000000 PUSH28 0xFFFFFFFFFFFFFFFFFFFFFFFFFFFFFFFFFFFFFFFFFFFFFFFFFFFFFFFF NOT AND DUP3 PUSH28 0xFFFFFFFFFFFFFFFFFFFFFFFFFFFFFFFFFFFFFFFFFFFFFFFFFFFFFFFF NOT AND SUB PUSH2 0x363 JUMPI PUSH1 0x1 SWAP1 POP PUSH2 0x36F JUMP JUMPDEST PUSH2 0x36C DUP3 PUSH2 0x164E JUMP JUMPDEST SWAP1 POP JUMPDEST SWAP2 SWAP1 POP JUMP JUMPDEST PUSH1 0x0 PUSH2 0x37E PUSH2 0x16CF JUMP JUMPDEST PUSH1 0x1 ADD SLOAD SWAP1 POP SWAP1 JUMP JUMPDEST PUSH1 0x60 DUP5 DUP5 CHAINID PUSH1 0x40 MLOAD PUSH1 0x20 ADD PUSH2 0x39E SWAP4 SWAP3 SWAP2 SWAP1 PUSH2 0x2CBA JUMP JUMPDEST PUSH1 0x40 MLOAD PUSH1 0x20 DUP2 DUP4 SUB SUB DUP2 MSTORE SWAP1 PUSH1 0x40 MSTORE DUP1 MLOAD SWAP1 PUSH1 0x20 ADD KECCAK256 DUP4 DUP4 PUSH1 0x0 DUP1 PUSH2 0x3CF DUP6 DUP6 DUP6 SWAP1 PUSH2 0x3CA SWAP2 SWAP1 PUSH2 0x2EC0 JUMP JUMPDEST PUSH2 0x16FC JUMP JUMPDEST SWAP2 POP SWAP2 POP DUP2 DUP2 SWAP1 PUSH2 0x416 JUMPI PUSH1 0x40 MLOAD PUSH32 0x8C379A000000000000000000000000000000000000000000000000000000000 DUP2 MSTORE PUSH1 0x4 ADD PUSH2 0x40D SWAP2 SWAP1 PUSH2 0x2F2A JUMP JUMPDEST PUSH1 0x40 MLOAD DUP1 SWAP2 SUB SWAP1 REVERT JUMPDEST POP PUSH1 0x0 JUMPDEST DUP5 DUP5 SWAP1 POP DUP2 LT ISZERO PUSH2 0x4A7 JUMPI PUSH1 0x1 PUSH2 0x42F PUSH2 0x16CF JUMP JUMPDEST PUSH1 0x3 ADD PUSH1 0x0 DUP8 DUP8 DUP6 DUP2 DUP2 LT PUSH2 0x447 JUMPI PUSH2 0x446 PUSH2 0x2F4C JUMP JUMPDEST JUMPDEST SWAP1 POP PUSH1 0x20 MUL DUP2 ADD SWAP1 PUSH2 0x459 SWAP2 SWAP1 PUSH2 0x2F8A JUMP JUMPDEST PUSH1 0x40 MLOAD PUSH2 0x467 SWAP3 SWAP2 SWAP1 PUSH2 0x301D JUMP JUMPDEST PUSH1 0x40 MLOAD DUP1 SWAP2 SUB SWAP1 KECCAK256 DUP2 MSTORE PUSH1 0x20 ADD SWAP1 DUP2 MSTORE PUSH1 0x20 ADD PUSH1 0x0 KECCAK256 PUSH1 0x0 PUSH2 0x100 EXP DUP2 SLOAD DUP2 PUSH1 0xFF MUL NOT AND SWAP1 DUP4 ISZERO ISZERO MUL OR SWAP1 SSTORE POP DUP1 DUP1 PUSH2 0x49F SWAP1 PUSH2 0x3065 JUMP JUMPDEST SWAP2 POP POP PUSH2 0x41A JUMP JUMPDEST POP PUSH1 0x0 DUP11 DUP11 SWAP1 POP PUSH8 0xFFFFFFFFFFFFFFFF DUP2 GT ISZERO PUSH2 0x4C7 JUMPI PUSH2 0x4C6 PUSH2 0x2CEC JUMP JUMPDEST JUMPDEST PUSH1 0x40 MLOAD SWAP1 DUP1 DUP3 MSTORE DUP1 PUSH1 0x20 MUL PUSH1 0x20 ADD DUP3 ADD PUSH1 0x40 MSTORE DUP1 ISZERO PUSH2 0x4FA JUMPI DUP2 PUSH1 0x20 ADD JUMPDEST PUSH1 0x60 DUP2 MSTORE PUSH1 0x20 ADD SWAP1 PUSH1 0x1 SWAP1 SUB SWAP1 DUP2 PUSH2 0x4E5 JUMPI SWAP1 POP JUMPDEST POP SWAP1 POP PUSH1 0x0 JUMPDEST DUP12 DUP12 SWAP1 POP DUP2 LT ISZERO PUSH2 0x569 JUMPI PUSH2 0x538 DUP13 DUP13 DUP4 DUP2 DUP2 LT PUSH2 0x521 JUMPI PUSH2 0x520 PUSH2 0x2F4C JUMP JUMPDEST JUMPDEST SWAP1 POP PUSH1 0x20 MUL DUP2 ADD SWAP1 PUSH2 0x533 SWAP2 SWAP1 PUSH2 0x30AD JUMP JUMPDEST PUSH2 0x18EC JUMP JUMPDEST DUP3 DUP3 DUP2 MLOAD DUP2 LT PUSH2 0x54B JUMPI PUSH2 0x54A PUSH2 0x2F4C JUMP JUMPDEST JUMPDEST PUSH1 0x20 MUL PUSH1 0x20 ADD ADD DUP2 SWAP1 MSTORE POP DUP1 DUP1 PUSH2 0x561 SWAP1 PUSH2 0x3065 JUMP JUMPDEST SWAP2 POP POP PUSH2 0x500 JUMP JUMPDEST POP DUP1 SWAP7 POP POP POP POP POP POP POP SWAP5 SWAP4 POP POP POP POP JUMP JUMPDEST DUP4 DUP4 CHAINID PUSH1 0x40 MLOAD PUSH1 0x20 ADD PUSH2 0x590 SWAP4 SWAP3 SWAP2 SWAP1 PUSH2 0x315A JUMP JUMPDEST PUSH1 0x40 MLOAD PUSH1 0x20 DUP2 DUP4 SUB SUB DUP2 MSTORE SWAP1 PUSH1 0x40 MSTORE DUP1 MLOAD SWAP1 PUSH1 0x20 ADD KECCAK256 DUP3 DUP3 PUSH1 0x0 DUP1 PUSH2 0x5C1 DUP6 DUP6 DUP6 SWAP1 PUSH2 0x5BC SWAP2 SWAP1 PUSH2 0x2EC0 JUMP JUMPDEST PUSH2 0x16FC JUMP JUMPDEST SWAP2 POP SWAP2 POP DUP2 DUP2 SWAP1 PUSH2 0x608 JUMPI PUSH1 0x40 MLOAD PUSH32 0x8C379A000000000000000000000000000000000000000000000000000000000 DUP2 MSTORE PUSH1 0x4 ADD PUSH2 0x5FF SWAP2 SWAP1 PUSH2 0x2F2A JUMP JUMPDEST PUSH1 0x40 MLOAD DUP1 SWAP2 SUB SWAP1 REVERT JUMPDEST POP PUSH1 0x0 JUMPDEST DUP5 DUP5 SWAP1 POP DUP2 LT ISZERO PUSH2 0x699 JUMPI PUSH1 0x1 PUSH2 0x621 PUSH2 0x16CF JUMP JUMPDEST PUSH1 0x3 ADD PUSH1 0x0 DUP8 DUP8 DUP6 DUP2 DUP2 LT PUSH2 0x639 JUMPI PUSH2 0x638 PUSH2 0x2F4C JUMP JUMPDEST JUMPDEST SWAP1 POP PUSH1 0x20 MUL DUP2 ADD SWAP1 PUSH2 0x64B SWAP2 SWAP1 PUSH2 0x2F8A JUMP JUMPDEST PUSH1 0x40 MLOAD PUSH2 0x659 SWAP3 SWAP2 SWAP1 PUSH2 0x301D JUMP JUMPDEST PUSH1 0x40 MLOAD DUP1 SWAP2 SUB SWAP1 KECCAK256 DUP2 MSTORE PUSH1 0x20 ADD SWAP1 DUP2 MSTORE PUSH1 0x20 ADD PUSH1 0x0 KECCAK256 PUSH1 0x0 PUSH2 0x100 EXP DUP2 SLOAD DUP2 PUSH1 0xFF MUL NOT AND SWAP1 DUP4 ISZERO ISZERO MUL OR SWAP1 SSTORE POP DUP1 DUP1 PUSH2 0x691 SWAP1 PUSH2 0x3065 JUMP JUMPDEST SWAP2 POP POP PUSH2 0x60C JUMP JUMPDEST POP PUSH2 0x6A2 PUSH2 0x199B JUMP JUMPDEST PUSH1 0x0 ADD PUSH1 0x0 DUP11 PUSH1 0x0 ADD PUSH1 0x20 DUP2 ADD SWAP1 PUSH2 0x6BA SWAP2 SWAP1 PUSH2 0x2A36 JUMP JUMPDEST DUP12 PUSH1 0x20 ADD PUSH1 0x20 DUP2 ADD SWAP1 PUSH2 0x6CD SWAP2 SWAP1 PUSH2 0x2A36 JUMP JUMPDEST DUP13 PUSH1 0x40 ADD CALLDATALOAD DUP14 DUP1 PUSH1 0x60 ADD SWAP1 PUSH2 0x6E2 SWAP2 SWAP1 PUSH2 0x2F8A JUMP JUMPDEST PUSH1 0x40 MLOAD PUSH1 0x20 ADD PUSH2 0x6F6 SWAP6 SWAP5 SWAP4 SWAP3 SWAP2 SWAP1 PUSH2 0x31D4 JUMP JUMPDEST PUSH1 0x40 MLOAD PUSH1 0x20 DUP2 DUP4 SUB SUB DUP2 MSTORE SWAP1 PUSH1 0x40 MSTORE DUP1 MLOAD SWAP1 PUSH1 0x20 ADD KECCAK256 DUP2 MSTORE PUSH1 0x20 ADD SWAP1 DUP2 MSTORE PUSH1 0x20 ADD PUSH1 0x0 KECCAK256 PUSH1 0x0 DUP1 DUP3 ADD PUSH1 0x0 PUSH2 0x100 EXP DUP2 SLOAD SWAP1 PUSH8 0xFFFFFFFFFFFFFFFF MUL NOT AND SWAP1 SSTORE PUSH1 0x0 DUP3 ADD PUSH1 0x8 PUSH2 0x100 EXP DUP2 SLOAD SWAP1 PUSH8 0xFFFFFFFFFFFFFFFF MUL NOT AND SWAP1 SSTORE PUSH1 0x0 DUP3 ADD PUSH1 0x10 PUSH2 0x100 EXP DUP2 SLOAD SWAP1 PUSH4 0xFFFFFFFF MUL NOT AND SWAP1 SSTORE PUSH1 0x0 DUP3 ADD PUSH1 0x14 PUSH2 0x100 EXP DUP2 SLOAD SWAP1 PUSH4 0xFFFFFFFF MUL NOT AND SWAP1 SSTORE PUSH1 0x0 DUP3 ADD PUSH1 0x18 PUSH2 0x100 EXP DUP2 SLOAD SWAP1 PUSH4 0xFFFFFFFF MUL NOT AND SWAP1 SSTORE POP POP POP POP POP POP POP POP POP POP POP JUMP JUMPDEST DUP5 DUP5 DUP5 CHAINID PUSH1 0x40 MLOAD PUSH1 0x20 ADD PUSH2 0x7BA SWAP5 SWAP4 SWAP3 SWAP2 SWAP1 PUSH2 0x32BF JUMP JUMPDEST PUSH1 0x40 MLOAD PUSH1 0x20 DUP2 DUP4 SUB SUB DUP2 MSTORE SWAP1 PUSH1 0x40 MSTORE DUP1 MLOAD SWAP1 PUSH1 0x20 ADD KECCAK256 DUP3 DUP3 PUSH1 0x0 DUP1 PUSH2 0x7EB DUP6 DUP6 DUP6 SWAP1 PUSH2 0x7E6 SWAP2 SWAP1 PUSH2 0x2EC0 JUMP JUMPDEST PUSH2 0x16FC JUMP JUMPDEST SWAP2 POP SWAP2 POP DUP2 DUP2 SWAP1 PUSH2 0x832 JUMPI PUSH1 0x40 MLOAD PUSH32 0x8C379A000000000000000000000000000000000000000000000000000000000 DUP2 MSTORE PUSH1 0x4 ADD PUSH2 0x829 SWAP2 SWAP1 PUSH2 0x2F2A JUMP JUMPDEST PUSH1 0x40 MLOAD DUP1 SWAP2 SUB SWAP1 REVERT JUMPDEST POP PUSH1 0x0 JUMPDEST DUP5 DUP5 SWAP1 POP DUP2 LT ISZERO PUSH2 0x8C3 JUMPI PUSH1 0x1 PUSH2 0x84B PUSH2 0x16CF JUMP JUMPDEST PUSH1 0x3 ADD PUSH1 0x0 DUP8 DUP8 DUP6 DUP2 DUP2 LT PUSH2 0x863 JUMPI PUSH2 0x862 PUSH2 0x2F4C JUMP JUMPDEST JUMPDEST SWAP1 POP PUSH1 0x20 MUL DUP2 ADD SWAP1 PUSH2 0x875 SWAP2 SWAP1 PUSH2 0x2F8A JUMP JUMPDEST PUSH1 0x40 MLOAD PUSH2 0x883 SWAP3 SWAP2 SWAP1 PUSH2 0x301D JUMP JUMPDEST PUSH1 0x40 MLOAD DUP1 SWAP2 SUB SWAP1 KECCAK256 DUP2 MSTORE PUSH1 0x20 ADD SWAP1 DUP2 MSTORE PUSH1 0x20 ADD PUSH1 0x0 KECCAK256 PUSH1 0x0 PUSH2 0x100 EXP DUP2 SLOAD DUP2 PUSH1 0xFF MUL NOT AND SWAP1 DUP4 ISZERO ISZERO MUL OR SWAP1 SSTORE POP DUP1 DUP1 PUSH2 0x8BB SWAP1 PUSH2 0x3065 JUMP JUMPDEST SWAP2 POP POP PUSH2 0x836 JUMP JUMPDEST POP PUSH1 0x0 JUMPDEST DUP11 DUP11 SWAP1 POP DUP2 LT ISZERO PUSH2 0x915 JUMPI PUSH2 0x902 DUP12 DUP12 DUP4 DUP2 DUP2 LT PUSH2 0x8E8 JUMPI PUSH2 0x8E7 PUSH2 0x2F4C JUMP JUMPDEST JUMPDEST SWAP1 POP PUSH1 0x20 MUL ADD PUSH1 0x20 DUP2 ADD SWAP1 PUSH2 0x8FD SWAP2 SWAP1 PUSH2 0x2A36 JUMP JUMPDEST PUSH2 0x19C8 JUMP JUMPDEST DUP1 DUP1 PUSH2 0x90D SWAP1 PUSH2 0x3065 JUMP JUMPDEST SWAP2 POP POP PUSH2 0x8C7 JUMP JUMPDEST POP POP POP POP POP POP POP POP POP POP POP JUMP JUMPDEST DUP5 DUP5 DUP5 CHAINID PUSH1 0x40 MLOAD PUSH1 0x20 ADD PUSH2 0x939 SWAP5 SWAP4 SWAP3 SWAP2 SWAP1 PUSH2 0x3457 JUMP JUMPDEST PUSH1 0x40 MLOAD PUSH1 0x20 DUP2 DUP4 SUB SUB DUP2 MSTORE SWAP1 PUSH1 0x40 MSTORE DUP1 MLOAD SWAP1 PUSH1 0x20 ADD KECCAK256 DUP3 DUP3 PUSH1 0x0 DUP1 PUSH2 0x96A DUP6 DUP6 DUP6 SWAP1 PUSH2 0x965 SWAP2 SWAP1 PUSH2 0x2EC0 JUMP JUMPDEST PUSH2 0x16FC JUMP JUMPDEST SWAP2 POP SWAP2 POP DUP2 DUP2 SWAP1 PUSH2 0x9B1 JUMPI PUSH1 0x40 MLOAD PUSH32 0x8C379A000000000000000000000000000000000000000000000000000000000 DUP2 MSTORE PUSH1 0x4 ADD PUSH2 0x9A8 SWAP2 SWAP1 PUSH2 0x2F2A JUMP JUMPDEST PUSH1 0x40 MLOAD DUP1 SWAP2 SUB SWAP1 REVERT JUMPDEST POP PUSH1 0x0 JUMPDEST DUP5 DUP5 SWAP1 POP DUP2 LT ISZERO PUSH2 0xA42 JUMPI PUSH1 0x1 PUSH2 0x9CA PUSH2 0x16CF JUMP JUMPDEST PUSH1 0x3 ADD PUSH1 0x0 DUP8 DUP8 DUP6 DUP2 DUP2 LT PUSH2 0x9E2 JUMPI PUSH2 0x9E1 PUSH2 0x2F4C JUMP JUMPDEST JUMPDEST SWAP1 POP PUSH1 0x20 MUL DUP2 ADD SWAP1 PUSH2 0x9F4 SWAP2 SWAP1 PUSH2 0x2F8A JUMP JUMPDEST PUSH1 0x40 MLOAD PUSH2 0xA02 SWAP3 SWAP2 SWAP1 PUSH2 0x301D JUMP JUMPDEST PUSH1 0x40 MLOAD DUP1 SWAP2 SUB SWAP1 KECCAK256 DUP2 MSTORE PUSH1 0x20 ADD SWAP1 DUP2 MSTORE PUSH1 0x20 ADD PUSH1 0x0 KECCAK256 PUSH1 0x0 PUSH2 0x100 EXP DUP2 SLOAD DUP2 PUSH1 0xFF MUL NOT AND SWAP1 DUP4 ISZERO ISZERO MUL OR SWAP1 SSTORE POP DUP1 DUP1 PUSH2 0xA3A SWAP1 PUSH2 0x3065 JUMP JUMPDEST SWAP2 POP POP PUSH2 0x9B5 JUMP JUMPDEST POP PUSH1 0x0 DUP10 PUSH1 0x80 ADD PUSH1 0x20 DUP2 ADD SWAP1 PUSH2 0xA58 SWAP2 SWAP1 PUSH2 0x34A4 JUMP JUMPDEST PUSH4 0xFFFFFFFF AND GT PUSH2 0xA9E JUMPI PUSH1 0x40 MLOAD PUSH32 0x8C379A000000000000000000000000000000000000000000000000000000000 DUP2 MSTORE PUSH1 0x4 ADD PUSH2 0xA95 SWAP1 PUSH2 0x3543 JUMP JUMPDEST PUSH1 0x40 MLOAD DUP1 SWAP2 SUB SWAP1 REVERT JUMPDEST DUP9 PUSH2 0xAA7 PUSH2 0x199B JUMP JUMPDEST PUSH1 0x0 ADD PUSH1 0x0 DUP13 PUSH1 0x0 ADD PUSH1 0x20 DUP2 ADD SWAP1 PUSH2 0xABF SWAP2 SWAP1 PUSH2 0x2A36 JUMP JUMPDEST DUP14 PUSH1 0x20 ADD PUSH1 0x20 DUP2 ADD SWAP1 PUSH2 0xAD2 SWAP2 SWAP1 PUSH2 0x2A36 JUMP JUMPDEST DUP15 PUSH1 0x40 ADD CALLDATALOAD DUP16 DUP1 PUSH1 0x60 ADD SWAP1 PUSH2 0xAE7 SWAP2 SWAP1 PUSH2 0x2F8A JUMP JUMPDEST PUSH1 0x40 MLOAD PUSH1 0x20 ADD PUSH2 0xAFB SWAP6 SWAP5 SWAP4 SWAP3 SWAP2 SWAP1 PUSH2 0x31D4 JUMP JUMPDEST PUSH1 0x40 MLOAD PUSH1 0x20 DUP2 DUP4 SUB SUB DUP2 MSTORE SWAP1 PUSH1 0x40 MSTORE DUP1 MLOAD SWAP1 PUSH1 0x20 ADD KECCAK256 DUP2 MSTORE PUSH1 0x20 ADD SWAP1 DUP2 MSTORE PUSH1 0x20 ADD PUSH1 0x0 KECCAK256 DUP2 DUP2 PUSH2 0xB2B SWAP2 SWAP1 PUSH2 0x3894 JUMP JUMPDEST SWAP1 POP POP POP POP POP POP POP POP POP POP POP POP JUMP JUMPDEST PUSH1 0x60 PUSH1 0x0 DUP4 DUP4 SWAP1 POP PUSH8 0xFFFFFFFFFFFFFFFF DUP2 GT ISZERO PUSH2 0xB5B JUMPI PUSH2 0xB5A PUSH2 0x2CEC JUMP JUMPDEST JUMPDEST PUSH1 0x40 MLOAD SWAP1 DUP1 DUP3 MSTORE DUP1 PUSH1 0x20 MUL PUSH1 0x20 ADD DUP3 ADD PUSH1 0x40 MSTORE DUP1 ISZERO PUSH2 0xB8E JUMPI DUP2 PUSH1 0x20 ADD JUMPDEST PUSH1 0x60 DUP2 MSTORE PUSH1 0x20 ADD SWAP1 PUSH1 0x1 SWAP1 SUB SWAP1 DUP2 PUSH2 0xB79 JUMPI SWAP1 POP JUMPDEST POP SWAP1 POP PUSH1 0x0 JUMPDEST DUP5 DUP5 SWAP1 POP DUP2 LT ISZERO PUSH2 0xBFD JUMPI PUSH2 0xBCC DUP6 DUP6 DUP4 DUP2 DUP2 LT PUSH2 0xBB5 JUMPI PUSH2 0xBB4 PUSH2 0x2F4C JUMP JUMPDEST JUMPDEST SWAP1 POP PUSH1 0x20 MUL DUP2 ADD SWAP1 PUSH2 0xBC7 SWAP2 SWAP1 PUSH2 0x30AD JUMP JUMPDEST PUSH2 0x12FD JUMP JUMPDEST DUP3 DUP3 DUP2 MLOAD DUP2 LT PUSH2 0xBDF JUMPI PUSH2 0xBDE PUSH2 0x2F4C JUMP JUMPDEST JUMPDEST PUSH1 0x20 MUL PUSH1 0x20 ADD ADD DUP2 SWAP1 MSTORE POP DUP1 DUP1 PUSH2 0xBF5 SWAP1 PUSH2 0x3065 JUMP JUMPDEST SWAP2 POP POP PUSH2 0xB94 JUMP JUMPDEST POP DUP1 SWAP2 POP POP SWAP3 SWAP2 POP POP JUMP JUMPDEST DUP4 DUP4 CHAINID PUSH1 0x40 MLOAD PUSH1 0x20 ADD PUSH2 0xC1D SWAP4 SWAP3 SWAP2 SWAP1 PUSH2 0x38A2 JUMP JUMPDEST PUSH1 0x40 MLOAD PUSH1 0x20 DUP2 DUP4 SUB SUB DUP2 MSTORE SWAP1 PUSH1 0x40 MSTORE DUP1 MLOAD SWAP1 PUSH1 0x20 ADD KECCAK256 DUP3 DUP3 PUSH1 0x0 DUP1 PUSH2 0xC4E DUP6 DUP6 DUP6 SWAP1 PUSH2 0xC49 SWAP2 SWAP1 PUSH2 0x2EC0 JUMP JUMPDEST PUSH2 0x16FC JUMP JUMPDEST SWAP2 POP SWAP2 POP DUP2 DUP2 SWAP1 PUSH2 0xC95 JUMPI PUSH1 0x40 MLOAD PUSH32 0x8C379A000000000000000000000000000000000000000000000000000000000 DUP2 MSTORE PUSH1 0x4 ADD PUSH2 0xC8C SWAP2 SWAP1 PUSH2 0x2F2A JUMP JUMPDEST PUSH1 0x40 MLOAD DUP1 SWAP2 SUB SWAP1 REVERT JUMPDEST POP PUSH1 0x0 JUMPDEST DUP5 DUP5 SWAP1 POP DUP2 LT ISZERO PUSH2 0xD26 JUMPI PUSH1 0x1 PUSH2 0xCAE PUSH2 0x16CF JUMP JUMPDEST PUSH1 0x3 ADD PUSH1 0x0 DUP8 DUP8 DUP6 DUP2 DUP2 LT PUSH2 0xCC6 JUMPI PUSH2 0xCC5 PUSH2 0x2F4C JUMP JUMPDEST JUMPDEST SWAP1 POP PUSH1 0x20 MUL DUP2 ADD SWAP1 PUSH2 0xCD8 SWAP2 SWAP1 PUSH2 0x2F8A JUMP JUMPDEST PUSH1 0x40 MLOAD PUSH2 0xCE6 SWAP3 SWAP2 SWAP1 PUSH2 0x301D JUMP JUMPDEST PUSH1 0x40 MLOAD DUP1 SWAP2 SUB SWAP1 KECCAK256 DUP2 MSTORE PUSH1 0x20 ADD SWAP1 DUP2 MSTORE PUSH1 0x20 ADD PUSH1 0x0 KECCAK256 PUSH1 0x0 PUSH2 0x100 EXP DUP2 SLOAD DUP2 PUSH1 0xFF MUL NOT AND SWAP1 DUP4 ISZERO ISZERO MUL OR SWAP1 SSTORE POP DUP1 DUP1 PUSH2 0xD1E SWAP1 PUSH2 0x3065 JUMP JUMPDEST SWAP2 POP POP PUSH2 0xC99 JUMP JUMPDEST POP PUSH1 0x0 PUSH2 0xD31 PUSH2 0x16CF JUMP JUMPDEST PUSH1 0x0 ADD SLOAD GT DUP1 ISZERO PUSH2 0xD58 JUMPI POP PUSH2 0xD45 PUSH2 0x16CF JUMP JUMPDEST PUSH1 0x1 ADD SLOAD PUSH2 0xD51 PUSH2 0x16CF JUMP JUMPDEST PUSH1 0x0 ADD SLOAD GT ISZERO JUMPDEST PUSH2 0xD97 JUMPI PUSH1 0x40 MLOAD PUSH32 0x8C379A000000000000000000000000000000000000000000000000000000000 DUP2 MSTORE PUSH1 0x4 ADD PUSH2 0xD8E SWAP1 PUSH2 0x3925 JUMP JUMPDEST PUSH1 0x40 MLOAD DUP1 SWAP2 SUB SWAP1 REVERT JUMPDEST DUP9 PUSH2 0xDA0 PUSH2 0x16CF JUMP JUMPDEST PUSH1 0x0 ADD DUP2 SWAP1 SSTORE POP POP POP POP POP POP POP POP POP POP JUMP JUMPDEST PUSH1 0x60 DUP4 CHAINID PUSH1 0x40 MLOAD PUSH1 0x20 ADD PUSH2 0xDC7 SWAP3 SWAP2 SWAP1 PUSH2 0x39CA JUMP JUMPDEST PUSH1 0x40 MLOAD PUSH1 0x20 DUP2 DUP4 SUB SUB DUP2 MSTORE SWAP1 PUSH1 0x40 MSTORE DUP1 MLOAD SWAP1 PUSH1 0x20 ADD KECCAK256 DUP4 DUP4 PUSH1 0x0 DUP1 PUSH2 0xDF8 DUP6 DUP6 DUP6 SWAP1 PUSH2 0xDF3 SWAP2 SWAP1 PUSH2 0x2EC0 JUMP JUMPDEST PUSH2 0x16FC JUMP JUMPDEST SWAP2 POP SWAP2 POP DUP2 DUP2 SWAP1 PUSH2 0xE3F JUMPI PUSH1 0x40 MLOAD PUSH32 0x8C379A000000000000000000000000000000000000000000000000000000000 DUP2 MSTORE PUSH1 0x4 ADD PUSH2 0xE36 SWAP2 SWAP1 PUSH2 0x2F2A JUMP JUMPDEST PUSH1 0x40 MLOAD DUP1 SWAP2 SUB SWAP1 REVERT JUMPDEST POP PUSH1 0x0 JUMPDEST DUP5 DUP5 SWAP1 POP DUP2 LT ISZERO PUSH2 0xED0 JUMPI PUSH1 0x1 PUSH2 0xE58 PUSH2 0x16CF JUMP JUMPDEST PUSH1 0x3 ADD PUSH1 0x0 DUP8 DUP8 DUP6 DUP2 DUP2 LT PUSH2 0xE70 JUMPI PUSH2 0xE6F PUSH2 0x2F4C JUMP JUMPDEST JUMPDEST SWAP1 POP PUSH1 0x20 MUL DUP2 ADD SWAP1 PUSH2 0xE82 SWAP2 SWAP1 PUSH2 0x2F8A JUMP JUMPDEST PUSH1 0x40 MLOAD PUSH2 0xE90 SWAP3 SWAP2 SWAP1 PUSH2 0x301D JUMP JUMPDEST PUSH1 0x40 MLOAD DUP1 SWAP2 SUB SWAP1 KECCAK256 DUP2 MSTORE PUSH1 0x20 ADD SWAP1 DUP2 MSTORE PUSH1 0x20 ADD PUSH1 0x0 KECCAK256 PUSH1 0x0 PUSH2 0x100 EXP DUP2 SLOAD DUP2 PUSH1 0xFF MUL NOT AND SWAP1 DUP4 ISZERO ISZERO MUL OR SWAP1 SSTORE POP DUP1 DUP1 PUSH2 0xEC8 SWAP1 PUSH2 0x3065 JUMP JUMPDEST SWAP2 POP POP PUSH2 0xE43 JUMP JUMPDEST POP PUSH2 0xEDA DUP10 PUSH2 0x18EC JUMP JUMPDEST SWAP6 POP POP POP POP POP POP SWAP4 SWAP3 POP POP POP JUMP JUMPDEST PUSH1 0x0 PUSH2 0xEF2 PUSH2 0x16CF JUMP JUMPDEST PUSH1 0x0 ADD SLOAD SWAP1 POP SWAP1 JUMP JUMPDEST DUP7 DUP7 DUP7 DUP7 DUP7 CHAINID PUSH1 0x40 MLOAD PUSH1 0x20 ADD PUSH2 0xF16 SWAP7 SWAP6 SWAP5 SWAP4 SWAP3 SWAP2 SWAP1 PUSH2 0x3A75 JUMP JUMPDEST PUSH1 0x40 MLOAD PUSH1 0x20 DUP2 DUP4 SUB SUB DUP2 MSTORE SWAP1 PUSH1 0x40 MSTORE DUP1 MLOAD SWAP1 PUSH1 0x20 ADD KECCAK256 DUP3 DUP3 PUSH1 0x0 DUP1 PUSH2 0xF47 DUP6 DUP6 DUP6 SWAP1 PUSH2 0xF42 SWAP2 SWAP1 PUSH2 0x2EC0 JUMP JUMPDEST PUSH2 0x16FC JUMP JUMPDEST SWAP2 POP SWAP2 POP DUP2 DUP2 SWAP1 PUSH2 0xF8E JUMPI PUSH1 0x40 MLOAD PUSH32 0x8C379A000000000000000000000000000000000000000000000000000000000 DUP2 MSTORE PUSH1 0x4 ADD PUSH2 0xF85 SWAP2 SWAP1 PUSH2 0x2F2A JUMP JUMPDEST PUSH1 0x40 MLOAD DUP1 SWAP2 SUB SWAP1 REVERT JUMPDEST POP PUSH1 0x0 JUMPDEST DUP5 DUP5 SWAP1 POP DUP2 LT ISZERO PUSH2 0x101F JUMPI PUSH1 0x1 PUSH2 0xFA7 PUSH2 0x16CF JUMP JUMPDEST PUSH1 0x3 ADD PUSH1 0x0 DUP8 DUP8 DUP6 DUP2 DUP2 LT PUSH2 0xFBF JUMPI PUSH2 0xFBE PUSH2 0x2F4C JUMP JUMPDEST JUMPDEST SWAP1 POP PUSH1 0x20 MUL DUP2 ADD SWAP1 PUSH2 0xFD1 SWAP2 SWAP1 PUSH2 0x2F8A JUMP JUMPDEST PUSH1 0x40 MLOAD PUSH2 0xFDF SWAP3 SWAP2 SWAP1 PUSH2 0x301D JUMP JUMPDEST PUSH1 0x40 MLOAD DUP1 SWAP2 SUB SWAP1 KECCAK256 DUP2 MSTORE PUSH1 0x20 ADD SWAP1 DUP2 MSTORE PUSH1 0x20 ADD PUSH1 0x0 KECCAK256 PUSH1 0x0 PUSH2 0x100 EXP DUP2 SLOAD DUP2 PUSH1 0xFF MUL NOT AND SWAP1 DUP4 ISZERO ISZERO MUL OR SWAP1 SSTORE POP DUP1 DUP1 PUSH2 0x1017 SWAP1 PUSH2 0x3065 JUMP JUMPDEST SWAP2 POP POP PUSH2 0xF92 JUMP JUMPDEST POP PUSH1 0x0 JUMPDEST DUP13 DUP13 SWAP1 POP DUP2 LT ISZERO PUSH2 0x108B JUMPI PUSH2 0x1078 DUP14 DUP14 DUP4 DUP2 DUP2 LT PUSH2 0x1044 JUMPI PUSH2 0x1043 PUSH2 0x2F4C JUMP JUMPDEST JUMPDEST SWAP1 POP PUSH1 0x20 MUL ADD PUSH1 0x20 DUP2 ADD SWAP1 PUSH2 0x1059 SWAP2 SWAP1 PUSH2 0x2A36 JUMP JUMPDEST DUP13 DUP13 DUP5 DUP2 DUP2 LT PUSH2 0x106C JUMPI PUSH2 0x106B PUSH2 0x2F4C JUMP JUMPDEST JUMPDEST SWAP1 POP PUSH1 0x20 MUL ADD CALLDATALOAD PUSH2 0x1AF3 JUMP JUMPDEST DUP1 DUP1 PUSH2 0x1083 SWAP1 PUSH2 0x3065 JUMP JUMPDEST SWAP2 POP POP PUSH2 0x1023 JUMP JUMPDEST POP POP POP POP POP POP POP POP POP POP POP POP POP JUMP JUMPDEST DUP5 DUP5 DUP5 CHAINID PUSH1 0x40 MLOAD PUSH1 0x20 ADD PUSH2 0x10B1 SWAP5 SWAP4 SWAP3 SWAP2 SWAP1 PUSH2 0x3ACC JUMP JUMPDEST PUSH1 0x40 MLOAD PUSH1 0x20 DUP2 DUP4 SUB SUB DUP2 MSTORE SWAP1 PUSH1 0x40 MSTORE DUP1 MLOAD SWAP1 PUSH1 0x20 ADD KECCAK256 DUP3 DUP3 PUSH1 0x0 DUP1 PUSH2 0x10E2 DUP6 DUP6 DUP6 SWAP1 PUSH2 0x10DD SWAP2 SWAP1 PUSH2 0x2EC0 JUMP JUMPDEST PUSH2 0x16FC JUMP JUMPDEST SWAP2 POP SWAP2 POP DUP2 DUP2 SWAP1 PUSH2 0x1129 JUMPI PUSH1 0x40 MLOAD PUSH32 0x8C379A000000000000000000000000000000000000000000000000000000000 DUP2 MSTORE PUSH1 0x4 ADD PUSH2 0x1120 SWAP2 SWAP1 PUSH2 0x2F2A JUMP JUMPDEST PUSH1 0x40 MLOAD DUP1 SWAP2 SUB SWAP1 REVERT JUMPDEST POP PUSH1 0x0 JUMPDEST DUP5 DUP5 SWAP1 POP DUP2 LT ISZERO PUSH2 0x11BA JUMPI PUSH1 0x1 PUSH2 0x1142 PUSH2 0x16CF JUMP JUMPDEST PUSH1 0x3 ADD PUSH1 0x0 DUP8 DUP8 DUP6 DUP2 DUP2 LT PUSH2 0x115A JUMPI PUSH2 0x1159 PUSH2 0x2F4C JUMP JUMPDEST JUMPDEST SWAP1 POP PUSH1 0x20 MUL DUP2 ADD SWAP1 PUSH2 0x116C SWAP2 SWAP1 PUSH2 0x2F8A JUMP JUMPDEST PUSH1 0x40 MLOAD PUSH2 0x117A SWAP3 SWAP2 SWAP1 PUSH2 0x301D JUMP JUMPDEST PUSH1 0x40 MLOAD DUP1 SWAP2 SUB SWAP1 KECCAK256 DUP2 MSTORE PUSH1 0x20 ADD SWAP1 DUP2 MSTORE PUSH1 0x20 ADD PUSH1 0x0 KECCAK256 PUSH1 0x0 PUSH2 0x100 EXP DUP2 SLOAD DUP2 PUSH1 0xFF MUL NOT AND SWAP1 DUP4 ISZERO ISZERO MUL OR SWAP1 SSTORE POP DUP1 DUP1 PUSH2 0x11B2 SWAP1 PUSH2 0x3065 JUMP JUMPDEST SWAP2 POP POP PUSH2 0x112D JUMP JUMPDEST POP DUP9 PUSH2 0x11C4 PUSH2 0x16CF JUMP JUMPDEST PUSH1 0x2 ADD PUSH1 0x0 DUP13 PUSH20 0xFFFFFFFFFFFFFFFFFFFFFFFFFFFFFFFFFFFFFFFF AND PUSH20 0xFFFFFFFFFFFFFFFFFFFFFFFFFFFFFFFFFFFFFFFF AND DUP2 MSTORE PUSH1 0x20 ADD SWAP1 DUP2 MSTORE PUSH1 0x20 ADD PUSH1 0x0 KECCAK256 SLOAD PUSH2 0x120D PUSH2 0x16CF JUMP JUMPDEST PUSH1 0x1 ADD SLOAD PUSH2 0x121B SWAP2 SWAP1 PUSH2 0x3B11 JUMP JUMPDEST PUSH2 0x1225 SWAP2 SWAP1 PUSH2 0x3B45 JUMP JUMPDEST PUSH2 0x122D PUSH2 0x16CF JUMP JUMPDEST PUSH1 0x1 ADD DUP2 SWAP1 SSTORE POP PUSH1 0x0 PUSH2 0x123E PUSH2 0x16CF JUMP JUMPDEST PUSH1 0x1 ADD SLOAD GT DUP1 ISZERO PUSH2 0x1265 JUMPI POP PUSH2 0x1252 PUSH2 0x16CF JUMP JUMPDEST PUSH1 0x0 ADD SLOAD PUSH2 0x125E PUSH2 0x16CF JUMP JUMPDEST PUSH1 0x1 ADD SLOAD LT ISZERO JUMPDEST PUSH2 0x12A4 JUMPI PUSH1 0x40 MLOAD PUSH32 0x8C379A000000000000000000000000000000000000000000000000000000000 DUP2 MSTORE PUSH1 0x4 ADD PUSH2 0x129B SWAP1 PUSH2 0x3BC5 JUMP JUMPDEST PUSH1 0x40 MLOAD DUP1 SWAP2 SUB SWAP1 REVERT JUMPDEST DUP9 PUSH2 0x12AD PUSH2 0x16CF JUMP JUMPDEST PUSH1 0x2 ADD PUSH1 0x0 DUP13 PUSH20 0xFFFFFFFFFFFFFFFFFFFFFFFFFFFFFFFFFFFFFFFF AND PUSH20 0xFFFFFFFFFFFFFFFFFFFFFFFFFFFFFFFFFFFFFFFF AND DUP2 MSTORE PUSH1 0x20 ADD SWAP1 DUP2 MSTORE PUSH1 0x20 ADD PUSH1 0x0 KECCAK256 DUP2 SWAP1 SSTORE POP POP POP POP POP POP POP POP POP POP POP JUMP JUMPDEST PUSH1 0x60 PUSH1 0x0 PUSH2 0x130B CALLER DUP5 PUSH2 0x1B66 JUMP JUMPDEST SWAP1 POP PUSH1 0x0 DUP2 PUSH1 0x0 ADD PUSH1 0x18 SWAP1 SLOAD SWAP1 PUSH2 0x100 EXP SWAP1 DIV PUSH4 0xFFFFFFFF AND PUSH4 0xFFFFFFFF AND SUB PUSH2 0x133D JUMPI PUSH2 0x133A PUSH1 0x0 DUP5 PUSH2 0x1B66 JUMP JUMPDEST SWAP1 POP JUMPDEST PUSH1 0x0 DUP2 PUSH1 0x0 ADD PUSH1 0x18 SWAP1 SLOAD SWAP1 PUSH2 0x100 EXP SWAP1 DIV PUSH4 0xFFFFFFFF AND PUSH4 0xFFFFFFFF AND GT PUSH2 0x139A JUMPI PUSH1 0x40 MLOAD PUSH32 0x8C379A000000000000000000000000000000000000000000000000000000000 DUP2 MSTORE PUSH1 0x4 ADD PUSH2 0x1391 SWAP1 PUSH2 0x3C31 JUMP JUMPDEST PUSH1 0x40 MLOAD DUP1 SWAP2 SUB SWAP1 REVERT JUMPDEST PUSH1 0x0 DUP2 PUSH1 0x0 ADD PUSH1 0x0 SWAP1 SLOAD SWAP1 PUSH2 0x100 EXP SWAP1 DIV PUSH8 0xFFFFFFFFFFFFFFFF AND PUSH8 0xFFFFFFFFFFFFFFFF AND EQ DUP1 PUSH2 0x13ED JUMPI POP DUP1 PUSH1 0x0 ADD PUSH1 0x0 SWAP1 SLOAD SWAP1 PUSH2 0x100 EXP SWAP1 DIV PUSH8 0xFFFFFFFFFFFFFFFF AND PUSH8 0xFFFFFFFFFFFFFFFF AND TIMESTAMP LT ISZERO JUMPDEST PUSH2 0x142C JUMPI PUSH1 0x40 MLOAD PUSH32 0x8C379A000000000000000000000000000000000000000000000000000000000 DUP2 MSTORE PUSH1 0x4 ADD PUSH2 0x1423 SWAP1 PUSH2 0x3C9D JUMP JUMPDEST PUSH1 0x40 MLOAD DUP1 SWAP2 SUB SWAP1 REVERT JUMPDEST PUSH1 0x0 DUP2 PUSH1 0x0 ADD PUSH1 0x8 SWAP1 SLOAD SWAP1 PUSH2 0x100 EXP SWAP1 DIV PUSH8 0xFFFFFFFFFFFFFFFF AND PUSH8 0xFFFFFFFFFFFFFFFF AND EQ DUP1 PUSH2 0x1477 JUMPI POP PUSH1 0x0 DUP2 PUSH1 0x0 ADD PUSH1 0x10 SWAP1 SLOAD SWAP1 PUSH2 0x100 EXP SWAP1 DIV PUSH4 0xFFFFFFFF AND PUSH4 0xFFFFFFFF AND EQ JUMPDEST DUP1 PUSH2 0x14C9 JUMPI POP DUP1 PUSH1 0x0 ADD PUSH1 0x10 SWAP1 SLOAD SWAP1 PUSH2 0x100 EXP SWAP1 DIV PUSH4 0xFFFFFFFF AND PUSH4 0xFFFFFFFF AND DUP2 PUSH1 0x0 ADD PUSH1 0x8 SWAP1 SLOAD SWAP1 PUSH2 0x100 EXP SWAP1 DIV PUSH8 0xFFFFFFFFFFFFFFFF AND PUSH2 0x14BB SWAP2 SWAP1 PUSH2 0x3CBD JUMP JUMPDEST PUSH8 0xFFFFFFFFFFFFFFFF AND TIMESTAMP LT ISZERO JUMPDEST PUSH2 0x1508 JUMPI PUSH1 0x40 MLOAD PUSH32 0x8C379A000000000000000000000000000000000000000000000000000000000 DUP2 MSTORE PUSH1 0x4 ADD PUSH2 0x14FF SWAP1 PUSH2 0x3D45 JUMP JUMPDEST PUSH1 0x40 MLOAD DUP1 SWAP2 SUB SWAP1 REVERT JUMPDEST DUP1 PUSH1 0x0 ADD PUSH1 0x18 SWAP1 SLOAD SWAP1 PUSH2 0x100 EXP SWAP1 DIV PUSH4 0xFFFFFFFF AND PUSH4 0xFFFFFFFF AND DUP2 PUSH1 0x0 ADD PUSH1 0x14 SWAP1 SLOAD SWAP1 PUSH2 0x100 EXP SWAP1 DIV PUSH4 0xFFFFFFFF AND PUSH4 0xFFFFFFFF AND LT PUSH2 0x157E JUMPI PUSH1 0x40 MLOAD PUSH32 0x8C379A000000000000000000000000000000000000000000000000000000000 DUP2 MSTORE PUSH1 0x4 ADD PUSH2 0x1575 SWAP1 PUSH2 0x3DB1 JUMP JUMPDEST PUSH1 0x40 MLOAD DUP1 SWAP2 SUB SWAP1 REVERT JUMPDEST PUSH1 0x1 DUP2 PUSH1 0x0 ADD PUSH1 0x14 DUP3 DUP3 DUP3 SWAP1 SLOAD SWAP1 PUSH2 0x100 EXP SWAP1 DIV PUSH4 0xFFFFFFFF AND PUSH2 0x15A2 SWAP2 SWAP1 PUSH2 0x3DD1 JUMP JUMPDEST SWAP3 POP PUSH2 0x100 EXP DUP2 SLOAD DUP2 PUSH4 0xFFFFFFFF MUL NOT AND SWAP1 DUP4 PUSH4 0xFFFFFFFF AND MUL OR SWAP1 SSTORE POP TIMESTAMP DUP2 PUSH1 0x0 ADD PUSH1 0x8 PUSH2 0x100 EXP DUP2 SLOAD DUP2 PUSH8 0xFFFFFFFFFFFFFFFF MUL NOT AND SWAP1 DUP4 PUSH8 0xFFFFFFFFFFFFFFFF AND MUL OR SWAP1 SSTORE POP PUSH2 0x15F4 DUP4 PUSH2 0x18EC JUMP JUMPDEST SWAP2 POP POP SWAP2 SWAP1 POP JUMP JUMPDEST PUSH1 0x0 PUSH2 0x1606 PUSH2 0x16CF JUMP JUMPDEST PUSH1 0x2 ADD PUSH1 0x0 DUP4 PUSH20 0xFFFFFFFFFFFFFFFFFFFFFFFFFFFFFFFFFFFFFFFF AND PUSH20 0xFFFFFFFFFFFFFFFFFFFFFFFFFFFFFFFFFFFFFFFF AND DUP2 MSTORE PUSH1 0x20 ADD SWAP1 DUP2 MSTORE PUSH1 0x20 ADD PUSH1 0x0 KECCAK256 SLOAD SWAP1 POP SWAP2 SWAP1 POP JUMP JUMPDEST PUSH1 0x0 PUSH32 0xAE71FE3500000000000000000000000000000000000000000000000000000000 PUSH28 0xFFFFFFFFFFFFFFFFFFFFFFFFFFFFFFFFFFFFFFFFFFFFFFFFFFFFFFFF NOT AND DUP3 PUSH28 0xFFFFFFFFFFFFFFFFFFFFFFFFFFFFFFFFFFFFFFFFFFFFFFFFFFFFFFFF NOT AND SUB PUSH2 0x16BE JUMPI PUSH1 0x1 SWAP1 POP PUSH2 0x16CA JUMP JUMPDEST PUSH2 0x16C7 DUP3 PUSH2 0x1BDE JUMP JUMPDEST SWAP1 POP JUMPDEST SWAP2 SWAP1 POP JUMP JUMPDEST PUSH1 0x0 DUP1 PUSH32 0x255F4A56BD3AD76424E31ED8855EF9AD14A0CE4E67508C76FF082E5C1466B12F SWAP1 POP DUP1 SWAP2 POP POP SWAP1 JUMP JUMPDEST PUSH1 0x0 PUSH1 0x60 PUSH1 0x0 DUP1 JUMPDEST DUP5 MLOAD DUP2 LT ISZERO PUSH2 0x1894 JUMPI PUSH1 0x0 PUSH2 0x1733 DUP8 DUP8 DUP5 DUP2 MLOAD DUP2 LT PUSH2 0x1726 JUMPI PUSH2 0x1725 PUSH2 0x2F4C JUMP JUMPDEST JUMPDEST PUSH1 0x20 MUL PUSH1 0x20 ADD ADD MLOAD PUSH2 0x1C5F JUMP JUMPDEST SWAP1 POP PUSH1 0x0 PUSH2 0x173F PUSH2 0x16CF JUMP JUMPDEST PUSH1 0x2 ADD PUSH1 0x0 DUP4 PUSH20 0xFFFFFFFFFFFFFFFFFFFFFFFFFFFFFFFFFFFFFFFF AND PUSH20 0xFFFFFFFFFFFFFFFFFFFFFFFFFFFFFFFFFFFFFFFF AND DUP2 MSTORE PUSH1 0x20 ADD SWAP1 DUP2 MSTORE PUSH1 0x20 ADD PUSH1 0x0 KECCAK256 SLOAD SUB PUSH2 0x17AC JUMPI PUSH1 0x0 PUSH1 0x40 MLOAD DUP1 PUSH1 0x60 ADD PUSH1 0x40 MSTORE DUP1 PUSH1 0x32 DUP2 MSTORE PUSH1 0x20 ADD PUSH2 0x40E1 PUSH1 0x32 SWAP2 CODECOPY SWAP5 POP SWAP5 POP POP POP POP PUSH2 0x18E5 JUMP JUMPDEST PUSH1 0x0 DUP7 DUP4 DUP2 MLOAD DUP2 LT PUSH2 0x17C1 JUMPI PUSH2 0x17C0 PUSH2 0x2F4C JUMP JUMPDEST JUMPDEST PUSH1 0x20 MUL PUSH1 0x20 ADD ADD MLOAD DUP1 MLOAD SWAP1 PUSH1 0x20 ADD KECCAK256 SWAP1 POP PUSH2 0x17DA PUSH2 0x16CF JUMP JUMPDEST PUSH1 0x3 ADD PUSH1 0x0 DUP3 DUP2 MSTORE PUSH1 0x20 ADD SWAP1 DUP2 MSTORE PUSH1 0x20 ADD PUSH1 0x0 KECCAK256 PUSH1 0x0 SWAP1 SLOAD SWAP1 PUSH2 0x100 EXP SWAP1 DIV PUSH1 0xFF AND ISZERO PUSH2 0x1829 JUMPI PUSH1 0x0 PUSH1 0x40 MLOAD DUP1 PUSH1 0x60 ADD PUSH1 0x40 MSTORE DUP1 PUSH1 0x23 DUP2 MSTORE PUSH1 0x20 ADD PUSH2 0x4113 PUSH1 0x23 SWAP2 CODECOPY SWAP6 POP SWAP6 POP POP POP POP POP PUSH2 0x18E5 JUMP JUMPDEST PUSH2 0x1831 PUSH2 0x16CF JUMP JUMPDEST PUSH1 0x2 ADD PUSH1 0x0 DUP4 PUSH20 0xFFFFFFFFFFFFFFFFFFFFFFFFFFFFFFFFFFFFFFFF AND PUSH20 0xFFFFFFFFFFFFFFFFFFFFFFFFFFFFFFFFFFFFFFFF AND DUP2 MSTORE PUSH1 0x20 ADD SWAP1 DUP2 MSTORE PUSH1 0x20 ADD PUSH1 0x0 KECCAK256 SLOAD DUP5 PUSH2 0x187D SWAP2 SWAP1 PUSH2 0x3B45 JUMP JUMPDEST SWAP4 POP POP POP DUP1 DUP1 PUSH2 0x188C SWAP1 PUSH2 0x3065 JUMP JUMPDEST SWAP2 POP POP PUSH2 0x1704 JUMP JUMPDEST POP PUSH2 0x189D PUSH2 0x16CF JUMP JUMPDEST PUSH1 0x0 ADD SLOAD DUP2 LT ISZERO PUSH2 0x18CD JUMPI PUSH1 0x0 PUSH1 0x40 MLOAD DUP1 PUSH1 0x60 ADD PUSH1 0x40 MSTORE DUP1 PUSH1 0x26 DUP2 MSTORE PUSH1 0x20 ADD PUSH2 0x40BB PUSH1 0x26 SWAP2 CODECOPY SWAP3 POP SWAP3 POP POP PUSH2 0x18E5 JUMP JUMPDEST PUSH1 0x1 PUSH1 0x40 MLOAD DUP1 PUSH1 0x20 ADD PUSH1 0x40 MSTORE DUP1 PUSH1 0x0 DUP2 MSTORE POP SWAP3 POP SWAP3 POP POP JUMPDEST SWAP3 POP SWAP3 SWAP1 POP JUMP JUMPDEST PUSH1 0x60 PUSH1 0x0 DUP1 DUP4 PUSH1 0x0 ADD PUSH1 0x20 DUP2 ADD SWAP1 PUSH2 0x1904 SWAP2 SWAP1 PUSH2 0x2A36 JUMP JUMPDEST PUSH20 0xFFFFFFFFFFFFFFFFFFFFFFFFFFFFFFFFFFFFFFFF AND DUP5 PUSH1 0x20 ADD CALLDATALOAD DUP6 DUP1 PUSH1 0x60 ADD SWAP1 PUSH2 0x192F SWAP2 SWAP1 PUSH2 0x2F8A JUMP JUMPDEST PUSH1 0x40 MLOAD PUSH2 0x193D SWAP3 SWAP2 SWAP1 PUSH2 0x301D JUMP JUMPDEST PUSH1 0x0 PUSH1 0x40 MLOAD DUP1 DUP4 SUB DUP2 DUP6 DUP8 GAS CALL SWAP3 POP POP POP RETURNDATASIZE DUP1 PUSH1 0x0 DUP2 EQ PUSH2 0x197A JUMPI PUSH1 0x40 MLOAD SWAP2 POP PUSH1 0x1F NOT PUSH1 0x3F RETURNDATASIZE ADD AND DUP3 ADD PUSH1 0x40 MSTORE RETURNDATASIZE DUP3 MSTORE RETURNDATASIZE PUSH1 0x0 PUSH1 0x20 DUP5 ADD RETURNDATACOPY PUSH2 0x197F JUMP JUMPDEST PUSH1 0x60 SWAP2 POP JUMPDEST POP SWAP2 POP SWAP2 POP DUP2 PUSH2 0x1991 JUMPI DUP1 MLOAD PUSH1 0x20 DUP3 ADD REVERT JUMPDEST DUP1 SWAP3 POP POP POP SWAP2 SWAP1 POP JUMP JUMPDEST PUSH1 0x0 DUP1 PUSH32 0xA7C6065F73528A079B6BD396854CFC70D8B5A045D4821E6DB173081678A52765 SWAP1 POP DUP1 SWAP2 POP POP SWAP1 JUMP JUMPDEST PUSH2 0x19D0 PUSH2 0x16CF JUMP JUMPDEST PUSH1 0x2 ADD PUSH1 0x0 DUP3 PUSH20 0xFFFFFFFFFFFFFFFFFFFFFFFFFFFFFFFFFFFFFFFF AND PUSH20 0xFFFFFFFFFFFFFFFFFFFFFFFFFFFFFFFFFFFFFFFF AND DUP2 MSTORE PUSH1 0x20 ADD SWAP1 DUP2 MSTORE PUSH1 0x20 ADD PUSH1 0x0 KECCAK256 SLOAD PUSH2 0x1A19 PUSH2 0x16CF JUMP JUMPDEST PUSH1 0x1 ADD PUSH1 0x0 DUP3 DUP3 SLOAD PUSH2 0x1A2B SWAP2 SWAP1 PUSH2 0x3B11 JUMP JUMPDEST SWAP3 POP POP DUP2 SWAP1 SSTORE POP PUSH1 0x0 PUSH2 0x1A3C PUSH2 0x16CF JUMP JUMPDEST PUSH1 0x1 ADD SLOAD GT DUP1 ISZERO PUSH2 0x1A63 JUMPI POP PUSH2 0x1A50 PUSH2 0x16CF JUMP JUMPDEST PUSH1 0x0 ADD SLOAD PUSH2 0x1A5C PUSH2 0x16CF JUMP JUMPDEST PUSH1 0x1 ADD SLOAD LT ISZERO JUMPDEST PUSH2 0x1AA2 JUMPI PUSH1 0x40 MLOAD PUSH32 0x8C379A000000000000000000000000000000000000000000000000000000000 DUP2 MSTORE PUSH1 0x4 ADD PUSH2 0x1A99 SWAP1 PUSH2 0x3BC5 JUMP JUMPDEST PUSH1 0x40 MLOAD DUP1 SWAP2 SUB SWAP1 REVERT JUMPDEST PUSH1 0x0 PUSH2 0x1AAC PUSH2 0x16CF JUMP JUMPDEST PUSH1 0x2 ADD PUSH1 0x0 DUP4 PUSH20 0xFFFFFFFFFFFFFFFFFFFFFFFFFFFFFFFFFFFFFFFF AND PUSH20 0xFFFFFFFFFFFFFFFFFFFFFFFFFFFFFFFFFFFFFFFF AND DUP2 MSTORE PUSH1 0x20 ADD SWAP1 DUP2 MSTORE PUSH1 0x20 ADD PUSH1 0x0 KECCAK256 DUP2 SWAP1 SSTORE POP POP JUMP JUMPDEST DUP1 PUSH2 0x1AFC PUSH2 0x16CF JUMP JUMPDEST PUSH1 0x1 ADD PUSH1 0x0 DUP3 DUP3 SLOAD PUSH2 0x1B0E SWAP2 SWAP1 PUSH2 0x3B45 JUMP JUMPDEST SWAP3 POP POP DUP2 SWAP1 SSTORE POP DUP1 PUSH2 0x1B1E PUSH2 0x16CF JUMP JUMPDEST PUSH1 0x2 ADD PUSH1 0x0 DUP5 PUSH20 0xFFFFFFFFFFFFFFFFFFFFFFFFFFFFFFFFFFFFFFFF AND PUSH20 0xFFFFFFFFFFFFFFFFFFFFFFFFFFFFFFFFFFFFFFFF AND DUP2 MSTORE PUSH1 0x20 ADD SWAP1 DUP2 MSTORE PUSH1 0x20 ADD PUSH1 0x0 KECCAK256 DUP2 SWAP1 SSTORE POP POP POP JUMP JUMPDEST PUSH1 0x0 PUSH2 0x1B70 PUSH2 0x199B JUMP JUMPDEST PUSH1 0x0 ADD PUSH1 0x0 DUP5 DUP5 PUSH1 0x0 ADD PUSH1 0x20 DUP2 ADD SWAP1 PUSH2 0x1B89 SWAP2 SWAP1 PUSH2 0x2A36 JUMP JUMPDEST DUP6 PUSH1 0x20 ADD CALLDATALOAD DUP7 DUP1 PUSH1 0x60 ADD SWAP1 PUSH2 0x1B9E SWAP2 SWAP1 PUSH2 0x2F8A JUMP JUMPDEST PUSH1 0x40 MLOAD PUSH1 0x20 ADD PUSH2 0x1BB2 SWAP6 SWAP5 SWAP4 SWAP3 SWAP2 SWAP1 PUSH2 0x31D4 JUMP JUMPDEST PUSH1 0x40 MLOAD PUSH1 0x20 DUP2 DUP4 SUB SUB DUP2 MSTORE SWAP1 PUSH1 0x40 MSTORE DUP1 MLOAD SWAP1 PUSH1 0x20 ADD KECCAK256 DUP2 MSTORE PUSH1 0x20 ADD SWAP1 DUP2 MSTORE PUSH1 0x20 ADD PUSH1 0x0 KECCAK256 SWAP1 POP SWAP3 SWAP2 POP POP JUMP JUMPDEST PUSH1 0x0 PUSH32 0x8197B6D400000000000000000000000000000000000000000000000000000000 PUSH28 0xFFFFFFFFFFFFFFFFFFFFFFFFFFFFFFFFFFFFFFFFFFFFFFFFFFFFFFFF NOT AND DUP3 PUSH28 0xFFFFFFFFFFFFFFFFFFFFFFFFFFFFFFFFFFFFFFFFFFFFFFFFFFFFFFFF NOT AND SUB PUSH2 0x1C4E JUMPI PUSH1 0x1 SWAP1 POP PUSH2 0x1C5A JUMP JUMPDEST PUSH2 0x1C57 DUP3 PUSH2 0x1C84 JUMP JUMPDEST SWAP1 POP JUMPDEST SWAP2 SWAP1 POP JUMP JUMPDEST PUSH1 0x0 PUSH2 0x1C7C DUP3 PUSH2 0x1C6E DUP6 PUSH2 0x1CEE JUMP JUMPDEST PUSH2 0x1D1E SWAP1 SWAP2 SWAP1 PUSH4 0xFFFFFFFF AND JUMP JUMPDEST SWAP1 POP SWAP3 SWAP2 POP POP JUMP JUMPDEST PUSH1 0x0 PUSH32 0x1FFC9A700000000000000000000000000000000000000000000000000000000 PUSH28 0xFFFFFFFFFFFFFFFFFFFFFFFFFFFFFFFFFFFFFFFFFFFFFFFFFFFFFFFF NOT AND DUP3 PUSH28 0xFFFFFFFFFFFFFFFFFFFFFFFFFFFFFFFFFFFFFFFFFFFFFFFFFFFFFFFF NOT AND EQ SWAP1 POP SWAP2 SWAP1 POP JUMP JUMPDEST PUSH1 0x0 DUP2 PUSH1 0x40 MLOAD PUSH1 0x20 ADD PUSH2 0x1D01 SWAP2 SWAP1 PUSH2 0x3E8B JUMP JUMPDEST PUSH1 0x40 MLOAD PUSH1 0x20 DUP2 DUP4 SUB SUB DUP2 MSTORE SWAP1 PUSH1 0x40 MSTORE DUP1 MLOAD SWAP1 PUSH1 0x20 ADD KECCAK256 SWAP1 POP SWAP2 SWAP1 POP JUMP JUMPDEST PUSH1 0x0 DUP1 PUSH1 0x0 PUSH2 0x1D2D DUP6 DUP6 PUSH2 0x1D45 JUMP JUMPDEST SWAP2 POP SWAP2 POP PUSH2 0x1D3A DUP2 PUSH2 0x1D96 JUMP JUMPDEST DUP2 SWAP3 POP POP POP SWAP3 SWAP2 POP POP JUMP JUMPDEST PUSH1 0x0 DUP1 PUSH1 0x41 DUP4 MLOAD SUB PUSH2 0x1D86 JUMPI PUSH1 0x0 DUP1 PUSH1 0x0 PUSH1 0x20 DUP7 ADD MLOAD SWAP3 POP PUSH1 0x40 DUP7 ADD MLOAD SWAP2 POP PUSH1 0x60 DUP7 ADD MLOAD PUSH1 0x0 BYTE SWAP1 POP PUSH2 0x1D7A DUP8 DUP3 DUP6 DUP6 PUSH2 0x1EFC JUMP JUMPDEST SWAP5 POP SWAP5 POP POP POP POP PUSH2 0x1D8F JUMP JUMPDEST PUSH1 0x0 PUSH1 0x2 SWAP2 POP SWAP2 POP JUMPDEST SWAP3 POP SWAP3 SWAP1 POP JUMP JUMPDEST PUSH1 0x0 PUSH1 0x4 DUP2 GT ISZERO PUSH2 0x1DAA JUMPI PUSH2 0x1DA9 PUSH2 0x3EB1 JUMP JUMPDEST JUMPDEST DUP2 PUSH1 0x4 DUP2 GT ISZERO PUSH2 0x1DBD JUMPI PUSH2 0x1DBC PUSH2 0x3EB1 JUMP JUMPDEST JUMPDEST SUB ISZERO PUSH2 0x1EF9 JUMPI PUSH1 0x1 PUSH1 0x4 DUP2 GT ISZERO PUSH2 0x1DD7 JUMPI PUSH2 0x1DD6 PUSH2 0x3EB1 JUMP JUMPDEST JUMPDEST DUP2 PUSH1 0x4 DUP2 GT ISZERO PUSH2 0x1DEA JUMPI PUSH2 0x1DE9 PUSH2 0x3EB1 JUMP JUMPDEST JUMPDEST SUB PUSH2 0x1E2A JUMPI PUSH1 0x40 MLOAD PUSH32 0x8C379A000000000000000000000000000000000000000000000000000000000 DUP2 MSTORE PUSH1 0x4 ADD PUSH2 0x1E21 SWAP1 PUSH2 0x3F2C JUMP JUMPDEST PUSH1 0x40 MLOAD DUP1 SWAP2 SUB SWAP1 REVERT JUMPDEST PUSH1 0x2 PUSH1 0x4 DUP2 GT ISZERO PUSH2 0x1E3E JUMPI PUSH2 0x1E3D PUSH2 0x3EB1 JUMP JUMPDEST JUMPDEST DUP2 PUSH1 0x4 DUP2 GT ISZERO PUSH2 0x1E51 JUMPI PUSH2 0x1E50 PUSH2 0x3EB1 JUMP JUMPDEST JUMPDEST SUB PUSH2 0x1E91 JUMPI PUSH1 0x40 MLOAD PUSH32 0x8C379A000000000000000000000000000000000000000000000000000000000 DUP2 MSTORE PUSH1 0x4 ADD PUSH2 0x1E88 SWAP1 PUSH2 0x3F98 JUMP JUMPDEST PUSH1 0x40 MLOAD DUP1 SWAP2 SUB SWAP1 REVERT JUMPDEST PUSH1 0x3 PUSH1 0x4 DUP2 GT ISZERO PUSH2 0x1EA5 JUMPI PUSH2 0x1EA4 PUSH2 0x3EB1 JUMP JUMPDEST JUMPDEST DUP2 PUSH1 0x4 DUP2 GT ISZERO PUSH2 0x1EB8 JUMPI PUSH2 0x1EB7 PUSH2 0x3EB1 JUMP JUMPDEST JUMPDEST SUB PUSH2 0x1EF8 JUMPI PUSH1 0x40 MLOAD PUSH32 0x8C379A000000000000000000000000000000000000000000000000000000000 DUP2 MSTORE PUSH1 0x4 ADD PUSH2 0x1EEF SWAP1 PUSH2 0x402A JUMP JUMPDEST PUSH1 0x40 MLOAD DUP1 SWAP2 SUB SWAP1 REVERT JUMPDEST JUMPDEST POP JUMP JUMPDEST PUSH1 0x0 DUP1 PUSH32 0x7FFFFFFFFFFFFFFFFFFFFFFFFFFFFFFF5D576E7357A4501DDFE92F46681B20A0 DUP4 PUSH1 0x0 SHR GT ISZERO PUSH2 0x1F37 JUMPI PUSH1 0x0 PUSH1 0x3 SWAP2 POP SWAP2 POP PUSH2 0x1FD5 JUMP JUMPDEST PUSH1 0x0 PUSH1 0x1 DUP8 DUP8 DUP8 DUP8 PUSH1 0x40 MLOAD PUSH1 0x0 DUP2 MSTORE PUSH1 0x20 ADD PUSH1 0x40 MSTORE PUSH1 0x40 MLOAD PUSH2 0x1F5C SWAP5 SWAP4 SWAP3 SWAP2 SWAP1 PUSH2 0x4075 JUMP JUMPDEST PUSH1 0x20 PUSH1 0x40 MLOAD PUSH1 0x20 DUP2 SUB SWAP1 DUP1 DUP5 SUB SWAP1 DUP6 GAS STATICCALL ISZERO DUP1 ISZERO PUSH2 0x1F7E JUMPI RETURNDATASIZE PUSH1 0x0 DUP1 RETURNDATACOPY RETURNDATASIZE PUSH1 0x0 REVERT JUMPDEST POP POP POP PUSH1 0x20 PUSH1 0x40 MLOAD SUB MLOAD SWAP1 POP PUSH1 0x0 PUSH20 0xFFFFFFFFFFFFFFFFFFFFFFFFFFFFFFFFFFFFFFFF AND DUP2 PUSH20 0xFFFFFFFFFFFFFFFFFFFFFFFFFFFFFFFFFFFFFFFF AND SUB PUSH2 0x1FCC JUMPI PUSH1 0x0 PUSH1 0x1 SWAP3 POP SWAP3 POP POP PUSH2 0x1FD5 JUMP JUMPDEST DUP1 PUSH1 0x0 SWAP3 POP SWAP3 POP POP JUMPDEST SWAP5 POP SWAP5 SWAP3 POP POP POP JUMP JUMPDEST PUSH1 0x0 PUSH1 0x40 MLOAD SWAP1 POP SWAP1 JUMP JUMPDEST PUSH1 0x0 DUP1 REVERT JUMPDEST PUSH1 0x0 DUP1 REVERT JUMPDEST PUSH1 0x0 PUSH32 0xFFFFFFFF00000000000000000000000000000000000000000000000000000000 DUP3 AND SWAP1 POP SWAP2 SWAP1 POP JUMP JUMPDEST PUSH2 0x2027 DUP2 PUSH2 0x1FF2 JUMP JUMPDEST DUP2 EQ PUSH2 0x2032 JUMPI PUSH1 0x0 DUP1 REVERT JUMPDEST POP JUMP JUMPDEST PUSH1 0x0 DUP2 CALLDATALOAD SWAP1 POP PUSH2 0x2044 DUP2 PUSH2 0x201E JUMP JUMPDEST SWAP3 SWAP2 POP POP JUMP JUMPDEST PUSH1 0x0 PUSH1 0x20 DUP3 DUP5 SUB SLT ISZERO PUSH2 0x2060 JUMPI PUSH2 0x205F PUSH2 0x1FE8 JUMP JUMPDEST JUMPDEST PUSH1 0x0 PUSH2 0x206E DUP5 DUP3 DUP6 ADD PUSH2 0x2035 JUMP JUMPDEST SWAP2 POP POP SWAP3 SWAP2 POP POP JUMP JUMPDEST PUSH1 0x0 DUP2 ISZERO ISZERO SWAP1 POP SWAP2 SWAP1 POP JUMP JUMPDEST PUSH2 0x208C DUP2 PUSH2 0x2077 JUMP JUMPDEST DUP3 MSTORE POP POP JUMP JUMPDEST PUSH1 0x0 PUSH1 0x20 DUP3 ADD SWAP1 POP PUSH2 0x20A7 PUSH1 0x0 DUP4 ADD DUP5 PUSH2 0x2083 JUMP JUMPDEST SWAP3 SWAP2 POP POP JUMP JUMPDEST PUSH1 0x0 DUP2 SWAP1 POP SWAP2 SWAP1 POP JUMP JUMPDEST PUSH2 0x20C0 DUP2 PUSH2 0x20AD JUMP JUMPDEST DUP3 MSTORE POP POP JUMP JUMPDEST PUSH1 0x0 PUSH1 0x20 DUP3 ADD SWAP1 POP PUSH2 0x20DB PUSH1 0x0 DUP4 ADD DUP5 PUSH2 0x20B7 JUMP JUMPDEST SWAP3 SWAP2 POP POP JUMP JUMPDEST PUSH1 0x0 DUP1 REVERT JUMPDEST PUSH1 0x0 DUP1 REVERT JUMPDEST PUSH1 0x0 DUP1 REVERT JUMPDEST PUSH1 0x0 DUP1 DUP4 PUSH1 0x1F DUP5 ADD SLT PUSH2 0x2106 JUMPI PUSH2 0x2105 PUSH2 0x20E1 JUMP JUMPDEST JUMPDEST DUP3 CALLDATALOAD SWAP1 POP PUSH8 0xFFFFFFFFFFFFFFFF DUP2 GT ISZERO PUSH2 0x2123 JUMPI PUSH2 0x2122 PUSH2 0x20E6 JUMP JUMPDEST JUMPDEST PUSH1 0x20 DUP4 ADD SWAP2 POP DUP4 PUSH1 0x20 DUP3 MUL DUP4 ADD GT ISZERO PUSH2 0x213F JUMPI PUSH2 0x213E PUSH2 0x20EB JUMP JUMPDEST JUMPDEST SWAP3 POP SWAP3 SWAP1 POP JUMP JUMPDEST PUSH1 0x0 DUP1 DUP4 PUSH1 0x1F DUP5 ADD SLT PUSH2 0x215C JUMPI PUSH2 0x215B PUSH2 0x20E1 JUMP JUMPDEST JUMPDEST DUP3 CALLDATALOAD SWAP1 POP PUSH8 0xFFFFFFFFFFFFFFFF DUP2 GT ISZERO PUSH2 0x2179 JUMPI PUSH2 0x2178 PUSH2 0x20E6 JUMP JUMPDEST JUMPDEST PUSH1 0x20 DUP4 ADD SWAP2 POP DUP4 PUSH1 0x20 DUP3 MUL DUP4 ADD GT ISZERO PUSH2 0x2195 JUMPI PUSH2 0x2194 PUSH2 0x20EB JUMP JUMPDEST JUMPDEST SWAP3 POP SWAP3 SWAP1 POP JUMP JUMPDEST PUSH1 0x0 DUP1 PUSH1 0x0 DUP1 PUSH1 0x40 DUP6 DUP8 SUB SLT ISZERO PUSH2 0x21B6 JUMPI PUSH2 0x21B5 PUSH2 0x1FE8 JUMP JUMPDEST JUMPDEST PUSH1 0x0 DUP6 ADD CALLDATALOAD PUSH8 0xFFFFFFFFFFFFFFFF DUP2 GT ISZERO PUSH2 0x21D4 JUMPI PUSH2 0x21D3 PUSH2 0x1FED JUMP JUMPDEST JUMPDEST PUSH2 0x21E0 DUP8 DUP3 DUP9 ADD PUSH2 0x20F0 JUMP JUMPDEST SWAP5 POP SWAP5 POP POP PUSH1 0x20 DUP6 ADD CALLDATALOAD PUSH8 0xFFFFFFFFFFFFFFFF DUP2 GT ISZERO PUSH2 0x2203 JUMPI PUSH2 0x2202 PUSH2 0x1FED JUMP JUMPDEST JUMPDEST PUSH2 0x220F DUP8 DUP3 DUP9 ADD PUSH2 0x2146 JUMP JUMPDEST SWAP3 POP SWAP3 POP POP SWAP3 SWAP6 SWAP2 SWAP5 POP SWAP3 POP JUMP JUMPDEST PUSH1 0x0 DUP2 MLOAD SWAP1 POP SWAP2 SWAP1 POP JUMP JUMPDEST PUSH1 0x0 DUP3 DUP3 MSTORE PUSH1 0x20 DUP3 ADD SWAP1 POP SWAP3 SWAP2 POP POP JUMP JUMPDEST PUSH1 0x0 DUP2 SWAP1 POP PUSH1 0x20 DUP3 ADD SWAP1 POP SWAP2 SWAP1 POP JUMP JUMPDEST PUSH1 0x0 DUP2 MLOAD SWAP1 POP SWAP2 SWAP1 POP JUMP JUMPDEST PUSH1 0x0 DUP3 DUP3 MSTORE PUSH1 0x20 DUP3 ADD SWAP1 POP SWAP3 SWAP2 POP POP JUMP JUMPDEST PUSH1 0x0 JUMPDEST DUP4 DUP2 LT ISZERO PUSH2 0x2283 JUMPI DUP1 DUP3 ADD MLOAD DUP2 DUP5 ADD MSTORE PUSH1 0x20 DUP2 ADD SWAP1 POP PUSH2 0x2268 JUMP JUMPDEST PUSH1 0x0 DUP5 DUP5 ADD MSTORE POP POP POP POP JUMP JUMPDEST PUSH1 0x0 PUSH1 0x1F NOT PUSH1 0x1F DUP4 ADD AND SWAP1 POP SWAP2 SWAP1 POP JUMP JUMPDEST PUSH1 0x0 PUSH2 0x22AB DUP3 PUSH2 0x2249 JUMP JUMPDEST PUSH2 0x22B5 DUP2 DUP6 PUSH2 0x2254 JUMP JUMPDEST SWAP4 POP PUSH2 0x22C5 DUP2 DUP6 PUSH1 0x20 DUP7 ADD PUSH2 0x2265 JUMP JUMPDEST PUSH2 0x22CE DUP2 PUSH2 0x228F JUMP JUMPDEST DUP5 ADD SWAP2 POP POP SWAP3 SWAP2 POP POP JUMP JUMPDEST PUSH1 0x0 PUSH2 0x22E5 DUP4 DUP4 PUSH2 0x22A0 JUMP JUMPDEST SWAP1 POP SWAP3 SWAP2 POP POP JUMP JUMPDEST PUSH1 0x0 PUSH1 0x20 DUP3 ADD SWAP1 POP SWAP2 SWAP1 POP JUMP JUMPDEST PUSH1 0x0 PUSH2 0x2305 DUP3 PUSH2 0x221D JUMP JUMPDEST PUSH2 0x230F DUP2 DUP6 PUSH2 0x2228 JUMP JUMPDEST SWAP4 POP DUP4 PUSH1 0x20 DUP3 MUL DUP6 ADD PUSH2 0x2321 DUP6 PUSH2 0x2239 JUMP JUMPDEST DUP1 PUSH1 0x0 JUMPDEST DUP6 DUP2 LT ISZERO PUSH2 0x235D JUMPI DUP5 DUP5 SUB DUP10 MSTORE DUP2 MLOAD PUSH2 0x233E DUP6 DUP3 PUSH2 0x22D9 JUMP JUMPDEST SWAP5 POP PUSH2 0x2349 DUP4 PUSH2 0x22ED JUMP JUMPDEST SWAP3 POP PUSH1 0x20 DUP11 ADD SWAP10 POP POP PUSH1 0x1 DUP2 ADD SWAP1 POP PUSH2 0x2325 JUMP JUMPDEST POP DUP3 SWAP8 POP DUP8 SWAP6 POP POP POP POP POP POP SWAP3 SWAP2 POP POP JUMP JUMPDEST PUSH1 0x0 PUSH1 0x20 DUP3 ADD SWAP1 POP DUP2 DUP2 SUB PUSH1 0x0 DUP4 ADD MSTORE PUSH2 0x2389 DUP2 DUP5 PUSH2 0x22FA JUMP JUMPDEST SWAP1 POP SWAP3 SWAP2 POP POP JUMP JUMPDEST PUSH1 0x0 DUP1 REVERT JUMPDEST PUSH1 0x0 PUSH1 0x80 DUP3 DUP5 SUB SLT ISZERO PUSH2 0x23AC JUMPI PUSH2 0x23AB PUSH2 0x2391 JUMP JUMPDEST JUMPDEST DUP2 SWAP1 POP SWAP3 SWAP2 POP POP JUMP JUMPDEST PUSH2 0x23BE DUP2 PUSH2 0x20AD JUMP JUMPDEST DUP2 EQ PUSH2 0x23C9 JUMPI PUSH1 0x0 DUP1 REVERT JUMPDEST POP JUMP JUMPDEST PUSH1 0x0 DUP2 CALLDATALOAD SWAP1 POP PUSH2 0x23DB DUP2 PUSH2 0x23B5 JUMP JUMPDEST SWAP3 SWAP2 POP POP JUMP JUMPDEST PUSH1 0x0 DUP1 PUSH1 0x0 DUP1 PUSH1 0x60 DUP6 DUP8 SUB SLT ISZERO PUSH2 0x23FB JUMPI PUSH2 0x23FA PUSH2 0x1FE8 JUMP JUMPDEST JUMPDEST PUSH1 0x0 DUP6 ADD CALLDATALOAD PUSH8 0xFFFFFFFFFFFFFFFF DUP2 GT ISZERO PUSH2 0x2419 JUMPI PUSH2 0x2418 PUSH2 0x1FED JUMP JUMPDEST JUMPDEST PUSH2 0x2425 DUP8 DUP3 DUP9 ADD PUSH2 0x2396 JUMP JUMPDEST SWAP5 POP POP PUSH1 0x20 PUSH2 0x2436 DUP8 DUP3 DUP9 ADD PUSH2 0x23CC JUMP JUMPDEST SWAP4 POP POP PUSH1 0x40 DUP6 ADD CALLDATALOAD PUSH8 0xFFFFFFFFFFFFFFFF DUP2 GT ISZERO PUSH2 0x2457 JUMPI PUSH2 0x2456 PUSH2 0x1FED JUMP JUMPDEST JUMPDEST PUSH2 0x2463 DUP8 DUP3 DUP9 ADD PUSH2 0x2146 JUMP JUMPDEST SWAP3 POP SWAP3 POP POP SWAP3 SWAP6 SWAP2 SWAP5 POP SWAP3 POP JUMP JUMPDEST PUSH1 0x0 DUP1 DUP4 PUSH1 0x1F DUP5 ADD SLT PUSH2 0x2487 JUMPI PUSH2 0x2486 PUSH2 0x20E1 JUMP JUMPDEST JUMPDEST DUP3 CALLDATALOAD SWAP1 POP PUSH8 0xFFFFFFFFFFFFFFFF DUP2 GT ISZERO PUSH2 0x24A4 JUMPI PUSH2 0x24A3 PUSH2 0x20E6 JUMP JUMPDEST JUMPDEST PUSH1 0x20 DUP4 ADD SWAP2 POP DUP4 PUSH1 0x20 DUP3 MUL DUP4 ADD GT ISZERO PUSH2 0x24C0 JUMPI PUSH2 0x24BF PUSH2 0x20EB JUMP JUMPDEST JUMPDEST SWAP3 POP SWAP3 SWAP1 POP JUMP JUMPDEST PUSH1 0x0 DUP1 PUSH1 0x0 DUP1 PUSH1 0x0 PUSH1 0x60 DUP7 DUP9 SUB SLT ISZERO PUSH2 0x24E3 JUMPI PUSH2 0x24E2 PUSH2 0x1FE8 JUMP JUMPDEST JUMPDEST PUSH1 0x0 DUP7 ADD CALLDATALOAD PUSH8 0xFFFFFFFFFFFFFFFF DUP2 GT ISZERO PUSH2 0x2501 JUMPI PUSH2 0x2500 PUSH2 0x1FED JUMP JUMPDEST JUMPDEST PUSH2 0x250D DUP9 DUP3 DUP10 ADD PUSH2 0x2471 JUMP JUMPDEST SWAP6 POP SWAP6 POP POP PUSH1 0x20 PUSH2 0x2520 DUP9 DUP3 DUP10 ADD PUSH2 0x23CC JUMP JUMPDEST SWAP4 POP POP PUSH1 0x40 DUP7 ADD CALLDATALOAD PUSH8 0xFFFFFFFFFFFFFFFF DUP2 GT ISZERO PUSH2 0x2541 JUMPI PUSH2 0x2540 PUSH2 0x1FED JUMP JUMPDEST JUMPDEST PUSH2 0x254D DUP9 DUP3 DUP10 ADD PUSH2 0x2146 JUMP JUMPDEST SWAP3 POP SWAP3 POP POP SWAP3 SWAP6 POP SWAP3 SWAP6 SWAP1 SWAP4 POP JUMP JUMPDEST PUSH1 0x0 PUSH1 0xA0 DUP3 DUP5 SUB SLT ISZERO PUSH2 0x2572 JUMPI PUSH2 0x2571 PUSH2 0x2391 JUMP JUMPDEST JUMPDEST DUP2 SWAP1 POP SWAP3 SWAP2 POP POP JUMP JUMPDEST PUSH1 0x0 DUP1 PUSH1 0x0 DUP1 PUSH1 0x0 PUSH2 0x100 DUP7 DUP9 SUB SLT ISZERO PUSH2 0x2598 JUMPI PUSH2 0x2597 PUSH2 0x1FE8 JUMP JUMPDEST JUMPDEST PUSH1 0x0 DUP7 ADD CALLDATALOAD PUSH8 0xFFFFFFFFFFFFFFFF DUP2 GT ISZERO PUSH2 0x25B6 JUMPI PUSH2 0x25B5 PUSH2 0x1FED JUMP JUMPDEST JUMPDEST PUSH2 0x25C2 DUP9 DUP3 DUP10 ADD PUSH2 0x2396 JUMP JUMPDEST SWAP6 POP POP PUSH1 0x20 PUSH2 0x25D3 DUP9 DUP3 DUP10 ADD PUSH2 0x255C JUMP JUMPDEST SWAP5 POP POP PUSH1 0xC0 PUSH2 0x25E4 DUP9 DUP3 DUP10 ADD PUSH2 0x23CC JUMP JUMPDEST SWAP4 POP POP PUSH1 0xE0 DUP7 ADD CALLDATALOAD PUSH8 0xFFFFFFFFFFFFFFFF DUP2 GT ISZERO PUSH2 0x2605 JUMPI PUSH2 0x2604 PUSH2 0x1FED JUMP JUMPDEST JUMPDEST PUSH2 0x2611 DUP9 DUP3 DUP10 ADD PUSH2 0x2146 JUMP JUMPDEST SWAP3 POP SWAP3 POP POP SWAP3 SWAP6 POP SWAP3 SWAP6 SWAP1 SWAP4 POP JUMP JUMPDEST PUSH1 0x0 DUP1 PUSH1 0x20 DUP4 DUP6 SUB SLT ISZERO PUSH2 0x2637 JUMPI PUSH2 0x2636 PUSH2 0x1FE8 JUMP JUMPDEST JUMPDEST PUSH1 0x0 DUP4 ADD CALLDATALOAD PUSH8 0xFFFFFFFFFFFFFFFF DUP2 GT ISZERO PUSH2 0x2655 JUMPI PUSH2 0x2654 PUSH2 0x1FED JUMP JUMPDEST JUMPDEST PUSH2 0x2661 DUP6 DUP3 DUP7 ADD PUSH2 0x20F0 JUMP JUMPDEST SWAP3 POP SWAP3 POP POP SWAP3 POP SWAP3 SWAP1 POP JUMP JUMPDEST PUSH1 0x0 DUP1 PUSH1 0x0 DUP1 PUSH1 0x60 DUP6 DUP8 SUB SLT ISZERO PUSH2 0x2687 JUMPI PUSH2 0x2686 PUSH2 0x1FE8 JUMP JUMPDEST JUMPDEST PUSH1 0x0 PUSH2 0x2695 DUP8 DUP3 DUP9 ADD PUSH2 0x23CC JUMP JUMPDEST SWAP5 POP POP PUSH1 0x20 PUSH2 0x26A6 DUP8 DUP3 DUP9 ADD PUSH2 0x23CC JUMP JUMPDEST SWAP4 POP POP PUSH1 0x40 DUP6 ADD CALLDATALOAD PUSH8 0xFFFFFFFFFFFFFFFF DUP2 GT ISZERO PUSH2 0x26C7 JUMPI PUSH2 0x26C6 PUSH2 0x1FED JUMP JUMPDEST JUMPDEST PUSH2 0x26D3 DUP8 DUP3 DUP9 ADD PUSH2 0x2146 JUMP JUMPDEST SWAP3 POP SWAP3 POP POP SWAP3 SWAP6 SWAP2 SWAP5 POP SWAP3 POP JUMP JUMPDEST PUSH1 0x0 PUSH1 0x80 DUP3 DUP5 SUB SLT ISZERO PUSH2 0x26F7 JUMPI PUSH2 0x26F6 PUSH2 0x2391 JUMP JUMPDEST JUMPDEST DUP2 SWAP1 POP SWAP3 SWAP2 POP POP JUMP JUMPDEST PUSH1 0x0 DUP1 PUSH1 0x0 PUSH1 0x40 DUP5 DUP7 SUB SLT ISZERO PUSH2 0x2719 JUMPI PUSH2 0x2718 PUSH2 0x1FE8 JUMP JUMPDEST JUMPDEST PUSH1 0x0 DUP5 ADD CALLDATALOAD PUSH8 0xFFFFFFFFFFFFFFFF DUP2 GT ISZERO PUSH2 0x2737 JUMPI PUSH2 0x2736 PUSH2 0x1FED JUMP JUMPDEST JUMPDEST PUSH2 0x2743 DUP7 DUP3 DUP8 ADD PUSH2 0x26E1 JUMP JUMPDEST SWAP4 POP POP PUSH1 0x20 DUP5 ADD CALLDATALOAD PUSH8 0xFFFFFFFFFFFFFFFF DUP2 GT ISZERO PUSH2 0x2764 JUMPI PUSH2 0x2763 PUSH2 0x1FED JUMP JUMPDEST JUMPDEST PUSH2 0x2770 DUP7 DUP3 DUP8 ADD PUSH2 0x2146 JUMP JUMPDEST SWAP3 POP SWAP3 POP POP SWAP3 POP SWAP3 POP SWAP3 JUMP JUMPDEST PUSH1 0x0 DUP3 DUP3 MSTORE PUSH1 0x20 DUP3 ADD SWAP1 POP SWAP3 SWAP2 POP POP JUMP JUMPDEST PUSH1 0x0 PUSH2 0x2798 DUP3 PUSH2 0x2249 JUMP JUMPDEST PUSH2 0x27A2 DUP2 DUP6 PUSH2 0x277C JUMP JUMPDEST SWAP4 POP PUSH2 0x27B2 DUP2 DUP6 PUSH1 0x20 DUP7 ADD PUSH2 0x2265 JUMP JUMPDEST PUSH2 0x27BB DUP2 PUSH2 0x228F JUMP JUMPDEST DUP5 ADD SWAP2 POP POP SWAP3 SWAP2 POP POP JUMP JUMPDEST PUSH1 0x0 PUSH1 0x20 DUP3 ADD SWAP1 POP DUP2 DUP2 SUB PUSH1 0x0 DUP4 ADD MSTORE PUSH2 0x27E0 DUP2 DUP5 PUSH2 0x278D JUMP JUMPDEST SWAP1 POP SWAP3 SWAP2 POP POP JUMP JUMPDEST PUSH1 0x0 DUP1 DUP4 PUSH1 0x1F DUP5 ADD SLT PUSH2 0x27FE JUMPI PUSH2 0x27FD PUSH2 0x20E1 JUMP JUMPDEST JUMPDEST DUP3 CALLDATALOAD SWAP1 POP PUSH8 0xFFFFFFFFFFFFFFFF DUP2 GT ISZERO PUSH2 0x281B JUMPI PUSH2 0x281A PUSH2 0x20E6 JUMP JUMPDEST JUMPDEST PUSH1 0x20 DUP4 ADD SWAP2 POP DUP4 PUSH1 0x20 DUP3 MUL DUP4 ADD GT ISZERO PUSH2 0x2837 JUMPI PUSH2 0x2836 PUSH2 0x20EB JUMP JUMPDEST JUMPDEST SWAP3 POP SWAP3 SWAP1 POP JUMP JUMPDEST PUSH1 0x0 DUP1 PUSH1 0x0 DUP1 PUSH1 0x0 DUP1 PUSH1 0x0 PUSH1 0x80 DUP9 DUP11 SUB SLT ISZERO PUSH2 0x285D JUMPI PUSH2 0x285C PUSH2 0x1FE8 JUMP JUMPDEST JUMPDEST PUSH1 0x0 DUP9 ADD CALLDATALOAD PUSH8 0xFFFFFFFFFFFFFFFF DUP2 GT ISZERO PUSH2 0x287B JUMPI PUSH2 0x287A PUSH2 0x1FED JUMP JUMPDEST JUMPDEST PUSH2 0x2887 DUP11 DUP3 DUP12 ADD PUSH2 0x2471 JUMP JUMPDEST SWAP8 POP SWAP8 POP POP PUSH1 0x20 DUP9 ADD CALLDATALOAD PUSH8 0xFFFFFFFFFFFFFFFF DUP2 GT ISZERO PUSH2 0x28AA JUMPI PUSH2 0x28A9 PUSH2 0x1FED JUMP JUMPDEST JUMPDEST PUSH2 0x28B6 DUP11 DUP3 DUP12 ADD PUSH2 0x27E8 JUMP JUMPDEST SWAP6 POP SWAP6 POP POP PUSH1 0x40 PUSH2 0x28C9 DUP11 DUP3 DUP12 ADD PUSH2 0x23CC JUMP JUMPDEST SWAP4 POP POP PUSH1 0x60 DUP9 ADD CALLDATALOAD PUSH8 0xFFFFFFFFFFFFFFFF DUP2 GT ISZERO PUSH2 0x28EA JUMPI PUSH2 0x28E9 PUSH2 0x1FED JUMP JUMPDEST JUMPDEST PUSH2 0x28F6 DUP11 DUP3 DUP12 ADD PUSH2 0x2146 JUMP JUMPDEST SWAP3 POP SWAP3 POP POP SWAP3 SWAP6 SWAP9 SWAP2 SWAP5 SWAP8 POP SWAP3 SWAP6 POP JUMP JUMPDEST PUSH1 0x0 PUSH20 0xFFFFFFFFFFFFFFFFFFFFFFFFFFFFFFFFFFFFFFFF DUP3 AND SWAP1 POP SWAP2 SWAP1 POP JUMP JUMPDEST PUSH1 0x0 PUSH2 0x2932 DUP3 PUSH2 0x2907 JUMP JUMPDEST SWAP1 POP SWAP2 SWAP1 POP JUMP JUMPDEST PUSH2 0x2942 DUP2 PUSH2 0x2927 JUMP JUMPDEST DUP2 EQ PUSH2 0x294D JUMPI PUSH1 0x0 DUP1 REVERT JUMPDEST POP JUMP JUMPDEST PUSH1 0x0 DUP2 CALLDATALOAD SWAP1 POP PUSH2 0x295F DUP2 PUSH2 0x2939 JUMP JUMPDEST SWAP3 SWAP2 POP POP JUMP JUMPDEST PUSH1 0x0 DUP1 PUSH1 0x0 DUP1 PUSH1 0x0 PUSH1 0x80 DUP7 DUP9 SUB SLT ISZERO PUSH2 0x2981 JUMPI PUSH2 0x2980 PUSH2 0x1FE8 JUMP JUMPDEST JUMPDEST PUSH1 0x0 PUSH2 0x298F DUP9 DUP3 DUP10 ADD PUSH2 0x2950 JUMP JUMPDEST SWAP6 POP POP PUSH1 0x20 PUSH2 0x29A0 DUP9 DUP3 DUP10 ADD PUSH2 0x23CC JUMP JUMPDEST SWAP5 POP POP PUSH1 0x40 PUSH2 0x29B1 DUP9 DUP3 DUP10 ADD PUSH2 0x23CC JUMP JUMPDEST SWAP4 POP POP PUSH1 0x60 DUP7 ADD CALLDATALOAD PUSH8 0xFFFFFFFFFFFFFFFF DUP2 GT ISZERO PUSH2 0x29D2 JUMPI PUSH2 0x29D1 PUSH2 0x1FED JUMP JUMPDEST JUMPDEST PUSH2 0x29DE DUP9 DUP3 DUP10 ADD PUSH2 0x2146 JUMP JUMPDEST SWAP3 POP SWAP3 POP POP SWAP3 SWAP6 POP SWAP3 SWAP6 SWAP1 SWAP4 POP JUMP JUMPDEST PUSH1 0x0 PUSH1 0x20 DUP3 DUP5 SUB SLT ISZERO PUSH2 0x2A03 JUMPI PUSH2 0x2A02 PUSH2 0x1FE8 JUMP JUMPDEST JUMPDEST PUSH1 0x0 DUP3 ADD CALLDATALOAD PUSH8 0xFFFFFFFFFFFFFFFF DUP2 GT ISZERO PUSH2 0x2A21 JUMPI PUSH2 0x2A20 PUSH2 0x1FED JUMP JUMPDEST JUMPDEST PUSH2 0x2A2D DUP5 DUP3 DUP6 ADD PUSH2 0x26E1 JUMP JUMPDEST SWAP2 POP POP SWAP3 SWAP2 POP POP JUMP JUMPDEST PUSH1 0x0 PUSH1 0x20 DUP3 DUP5 SUB SLT ISZERO PUSH2 0x2A4C JUMPI PUSH2 0x2A4B PUSH2 0x1FE8 JUMP JUMPDEST JUMPDEST PUSH1 0x0 PUSH2 0x2A5A DUP5 DUP3 DUP6 ADD PUSH2 0x2950 JUMP JUMPDEST SWAP2 POP POP SWAP3 SWAP2 POP POP JUMP JUMPDEST PUSH1 0x0 DUP3 DUP3 MSTORE PUSH1 0x20 DUP3 ADD SWAP1 POP SWAP3 SWAP2 POP POP JUMP JUMPDEST PUSH1 0x0 DUP2 SWAP1 POP SWAP2 SWAP1 POP JUMP JUMPDEST PUSH1 0x0 PUSH2 0x2A8D PUSH1 0x20 DUP5 ADD DUP5 PUSH2 0x2950 JUMP JUMPDEST SWAP1 POP SWAP3 SWAP2 POP POP JUMP JUMPDEST PUSH2 0x2A9E DUP2 PUSH2 0x2927 JUMP JUMPDEST DUP3 MSTORE POP POP JUMP JUMPDEST PUSH1 0x0 PUSH2 0x2AB3 PUSH1 0x20 DUP5 ADD DUP5 PUSH2 0x23CC JUMP JUMPDEST SWAP1 POP SWAP3 SWAP2 POP POP JUMP JUMPDEST PUSH2 0x2AC4 DUP2 PUSH2 0x20AD JUMP JUMPDEST DUP3 MSTORE POP POP JUMP JUMPDEST PUSH1 0x0 DUP1 REVERT JUMPDEST PUSH1 0x0 DUP1 REVERT JUMPDEST PUSH1 0x0 DUP1 REVERT JUMPDEST PUSH1 0x0 DUP1 DUP4 CALLDATALOAD PUSH1 0x1 PUSH1 0x20 SUB DUP5 CALLDATASIZE SUB SUB DUP2 SLT PUSH2 0x2AF6 JUMPI PUSH2 0x2AF5 PUSH2 0x2AD4 JUMP JUMPDEST JUMPDEST DUP4 DUP2 ADD SWAP3 POP DUP3 CALLDATALOAD SWAP2 POP PUSH1 0x20 DUP4 ADD SWAP3 POP PUSH8 0xFFFFFFFFFFFFFFFF DUP3 GT ISZERO PUSH2 0x2B1E JUMPI PUSH2 0x2B1D PUSH2 0x2ACA JUMP JUMPDEST JUMPDEST PUSH1 0x1 DUP3 MUL CALLDATASIZE SUB DUP4 SGT ISZERO PUSH2 0x2B34 JUMPI PUSH2 0x2B33 PUSH2 0x2ACF JUMP JUMPDEST JUMPDEST POP SWAP3 POP SWAP3 SWAP1 POP JUMP JUMPDEST DUP3 DUP2 DUP4 CALLDATACOPY PUSH1 0x0 DUP4 DUP4 ADD MSTORE POP POP POP JUMP JUMPDEST PUSH1 0x0 PUSH2 0x2B57 DUP4 DUP6 PUSH2 0x2254 JUMP JUMPDEST SWAP4 POP PUSH2 0x2B64 DUP4 DUP6 DUP5 PUSH2 0x2B3C JUMP JUMPDEST PUSH2 0x2B6D DUP4 PUSH2 0x228F JUMP JUMPDEST DUP5 ADD SWAP1 POP SWAP4 SWAP3 POP POP POP JUMP JUMPDEST PUSH1 0x0 PUSH1 0x80 DUP4 ADD PUSH2 0x2B8B PUSH1 0x0 DUP5 ADD DUP5 PUSH2 0x2A7E JUMP JUMPDEST PUSH2 0x2B98 PUSH1 0x0 DUP7 ADD DUP3 PUSH2 0x2A95 JUMP JUMPDEST POP PUSH2 0x2BA6 PUSH1 0x20 DUP5 ADD DUP5 PUSH2 0x2AA4 JUMP JUMPDEST PUSH2 0x2BB3 PUSH1 0x20 DUP7 ADD DUP3 PUSH2 0x2ABB JUMP JUMPDEST POP PUSH2 0x2BC1 PUSH1 0x40 DUP5 ADD DUP5 PUSH2 0x2AA4 JUMP JUMPDEST PUSH2 0x2BCE PUSH1 0x40 DUP7 ADD DUP3 PUSH2 0x2ABB JUMP JUMPDEST POP PUSH2 0x2BDC PUSH1 0x60 DUP5 ADD DUP5 PUSH2 0x2AD9 JUMP JUMPDEST DUP6 DUP4 SUB PUSH1 0x60 DUP8 ADD MSTORE PUSH2 0x2BEF DUP4 DUP3 DUP5 PUSH2 0x2B4B JUMP JUMPDEST SWAP3 POP POP POP DUP1 SWAP2 POP POP SWAP3 SWAP2 POP POP JUMP JUMPDEST PUSH1 0x0 PUSH2 0x2C09 DUP4 DUP4 PUSH2 0x2B78 JUMP JUMPDEST SWAP1 POP SWAP3 SWAP2 POP POP JUMP JUMPDEST PUSH1 0x0 DUP3 CALLDATALOAD PUSH1 0x1 PUSH1 0x80 SUB DUP4 CALLDATASIZE SUB SUB DUP2 SLT PUSH2 0x2C2D JUMPI PUSH2 0x2C2C PUSH2 0x2AD4 JUMP JUMPDEST JUMPDEST DUP3 DUP2 ADD SWAP2 POP POP SWAP3 SWAP2 POP POP JUMP JUMPDEST PUSH1 0x0 PUSH1 0x20 DUP3 ADD SWAP1 POP SWAP2 SWAP1 POP JUMP JUMPDEST PUSH1 0x0 PUSH2 0x2C52 DUP4 DUP6 PUSH2 0x2A63 JUMP JUMPDEST SWAP4 POP DUP4 PUSH1 0x20 DUP5 MUL DUP6 ADD PUSH2 0x2C64 DUP5 PUSH2 0x2A74 JUMP JUMPDEST DUP1 PUSH1 0x0 JUMPDEST DUP8 DUP2 LT ISZERO PUSH2 0x2CA8 JUMPI DUP5 DUP5 SUB DUP10 MSTORE PUSH2 0x2C7F DUP3 DUP5 PUSH2 0x2C11 JUMP JUMPDEST PUSH2 0x2C89 DUP6 DUP3 PUSH2 0x2BFD JUMP JUMPDEST SWAP5 POP PUSH2 0x2C94 DUP4 PUSH2 0x2C39 JUMP JUMPDEST SWAP3 POP PUSH1 0x20 DUP11 ADD SWAP10 POP POP PUSH1 0x1 DUP2 ADD SWAP1 POP PUSH2 0x2C68 JUMP JUMPDEST POP DUP3 SWAP8 POP DUP8 SWAP5 POP POP POP POP POP SWAP4 SWAP3 POP POP POP JUMP JUMPDEST PUSH1 0x0 PUSH1 0x40 DUP3 ADD SWAP1 POP DUP2 DUP2 SUB PUSH1 0x0 DUP4 ADD MSTORE PUSH2 0x2CD5 DUP2 DUP6 DUP8 PUSH2 0x2C46 JUMP JUMPDEST SWAP1 POP PUSH2 0x2CE4 PUSH1 0x20 DUP4 ADD DUP5 PUSH2 0x20B7 JUMP JUMPDEST SWAP5 SWAP4 POP POP POP POP JUMP JUMPDEST PUSH32 0x4E487B7100000000000000000000000000000000000000000000000000000000 PUSH1 0x0 MSTORE PUSH1 0x41 PUSH1 0x4 MSTORE PUSH1 0x24 PUSH1 0x0 REVERT JUMPDEST PUSH2 0x2D24 DUP3 PUSH2 0x228F JUMP JUMPDEST DUP2 ADD DUP2 DUP2 LT PUSH8 0xFFFFFFFFFFFFFFFF DUP3 GT OR ISZERO PUSH2 0x2D43 JUMPI PUSH2 0x2D42 PUSH2 0x2CEC JUMP JUMPDEST JUMPDEST DUP1 PUSH1 0x40 MSTORE POP POP POP JUMP JUMPDEST PUSH1 0x0 PUSH2 0x2D56 PUSH2 0x1FDE JUMP JUMPDEST SWAP1 POP PUSH2 0x2D62 DUP3 DUP3 PUSH2 0x2D1B JUMP JUMPDEST SWAP2 SWAP1 POP JUMP JUMPDEST PUSH1 0x0 PUSH8 0xFFFFFFFFFFFFFFFF DUP3 GT ISZERO PUSH2 0x2D82 JUMPI PUSH2 0x2D81 PUSH2 0x2CEC JUMP JUMPDEST JUMPDEST PUSH1 0x20 DUP3 MUL SWAP1 POP PUSH1 0x20 DUP2 ADD SWAP1 POP SWAP2 SWAP1 POP JUMP JUMPDEST PUSH1 0x0 DUP1 REVERT JUMPDEST PUSH1 0x0 PUSH8 0xFFFFFFFFFFFFFFFF DUP3 GT ISZERO PUSH2 0x2DB3 JUMPI PUSH2 0x2DB2 PUSH2 0x2CEC JUMP JUMPDEST JUMPDEST PUSH2 0x2DBC DUP3 PUSH2 0x228F JUMP JUMPDEST SWAP1 POP PUSH1 0x20 DUP2 ADD SWAP1 POP SWAP2 SWAP1 POP JUMP JUMPDEST PUSH1 0x0 PUSH2 0x2DDC PUSH2 0x2DD7 DUP5 PUSH2 0x2D98 JUMP JUMPDEST PUSH2 0x2D4C JUMP JUMPDEST SWAP1 POP DUP3 DUP2 MSTORE PUSH1 0x20 DUP2 ADD DUP5 DUP5 DUP5 ADD GT ISZERO PUSH2 0x2DF8 JUMPI PUSH2 0x2DF7 PUSH2 0x2D93 JUMP JUMPDEST JUMPDEST PUSH2 0x2E03 DUP5 DUP3 DUP6 PUSH2 0x2B3C JUMP JUMPDEST POP SWAP4 SWAP3 POP POP POP JUMP JUMPDEST PUSH1 0x0 DUP3 PUSH1 0x1F DUP4 ADD SLT PUSH2 0x2E20 JUMPI PUSH2 0x2E1F PUSH2 0x20E1 JUMP JUMPDEST JUMPDEST DUP2 CALLDATALOAD PUSH2 0x2E30 DUP5 DUP3 PUSH1 0x20 DUP7 ADD PUSH2 0x2DC9 JUMP JUMPDEST SWAP2 POP POP SWAP3 SWAP2 POP POP JUMP JUMPDEST PUSH1 0x0 PUSH2 0x2E4C PUSH2 0x2E47 DUP5 PUSH2 0x2D67 JUMP JUMPDEST PUSH2 0x2D4C JUMP JUMPDEST SWAP1 POP DUP1 DUP4 DUP3 MSTORE PUSH1 0x20 DUP3 ADD SWAP1 POP PUSH1 0x20 DUP5 MUL DUP4 ADD DUP6 DUP2 GT ISZERO PUSH2 0x2E6F JUMPI PUSH2 0x2E6E PUSH2 0x20EB JUMP JUMPDEST JUMPDEST DUP4 JUMPDEST DUP2 DUP2 LT ISZERO PUSH2 0x2EB6 JUMPI DUP1 CALLDATALOAD PUSH8 0xFFFFFFFFFFFFFFFF DUP2 GT ISZERO PUSH2 0x2E94 JUMPI PUSH2 0x2E93 PUSH2 0x20E1 JUMP JUMPDEST JUMPDEST DUP1 DUP7 ADD PUSH2 0x2EA1 DUP10 DUP3 PUSH2 0x2E0B JUMP JUMPDEST DUP6 MSTORE PUSH1 0x20 DUP6 ADD SWAP5 POP POP POP PUSH1 0x20 DUP2 ADD SWAP1 POP PUSH2 0x2E71 JUMP JUMPDEST POP POP POP SWAP4 SWAP3 POP POP POP JUMP JUMPDEST PUSH1 0x0 PUSH2 0x2ECD CALLDATASIZE DUP5 DUP5 PUSH2 0x2E39 JUMP JUMPDEST SWAP1 POP SWAP3 SWAP2 POP POP JUMP JUMPDEST PUSH1 0x0 DUP2 MLOAD SWAP1 POP SWAP2 SWAP1 POP JUMP JUMPDEST PUSH1 0x0 DUP3 DUP3 MSTORE PUSH1 0x20 DUP3 ADD SWAP1 POP SWAP3 SWAP2 POP POP JUMP JUMPDEST PUSH1 0x0 PUSH2 0x2EFC DUP3 PUSH2 0x2ED5 JUMP JUMPDEST PUSH2 0x2F06 DUP2 DUP6 PUSH2 0x2EE0 JUMP JUMPDEST SWAP4 POP PUSH2 0x2F16 DUP2 DUP6 PUSH1 0x20 DUP7 ADD PUSH2 0x2265 JUMP JUMPDEST PUSH2 0x2F1F DUP2 PUSH2 0x228F JUMP JUMPDEST DUP5 ADD SWAP2 POP POP SWAP3 SWAP2 POP POP JUMP JUMPDEST PUSH1 0x0 PUSH1 0x20 DUP3 ADD SWAP1 POP DUP2 DUP2 SUB PUSH1 0x0 DUP4 ADD MSTORE PUSH2 0x2F44 DUP2 DUP5 PUSH2 0x2EF1 JUMP JUMPDEST SWAP1 POP SWAP3 SWAP2 POP POP JUMP JUMPDEST PUSH32 0x4E487B7100000000000000000000000000000000000000000000000000000000 PUSH1 0x0 MSTORE PUSH1 0x32 PUSH1 0x4 MSTORE PUSH1 0x24 PUSH1 0x0 REVERT JUMPDEST PUSH1 0x0 DUP1 REVERT JUMPDEST PUSH1 0x0 DUP1 REVERT JUMPDEST PUSH1 0x0 DUP1 REVERT JUMPDEST PUSH1 0x0 DUP1 DUP4 CALLDATALOAD PUSH1 0x1 PUSH1 0x20 SUB DUP5 CALLDATASIZE SUB SUB DUP2 SLT PUSH2 0x2FA7 JUMPI PUSH2 0x2FA6 PUSH2 0x2F7B JUMP JUMPDEST JUMPDEST DUP1 DUP5 ADD SWAP3 POP DUP3 CALLDATALOAD SWAP2 POP PUSH8 0xFFFFFFFFFFFFFFFF DUP3 GT ISZERO PUSH2 0x2FC9 JUMPI PUSH2 0x2FC8 PUSH2 0x2F80 JUMP JUMPDEST JUMPDEST PUSH1 0x20 DUP4 ADD SWAP3 POP PUSH1 0x1 DUP3 MUL CALLDATASIZE SUB DUP4 SGT ISZERO PUSH2 0x2FE5 JUMPI PUSH2 0x2FE4 PUSH2 0x2F85 JUMP JUMPDEST JUMPDEST POP SWAP3 POP SWAP3 SWAP1 POP JUMP JUMPDEST PUSH1 0x0 DUP2 SWAP1 POP SWAP3 SWAP2 POP POP JUMP JUMPDEST PUSH1 0x0 PUSH2 0x3004 DUP4 DUP6 PUSH2 0x2FED JUMP JUMPDEST SWAP4 POP PUSH2 0x3011 DUP4 DUP6 DUP5 PUSH2 0x2B3C JUMP JUMPDEST DUP3 DUP5 ADD SWAP1 POP SWAP4 SWAP3 POP POP POP JUMP JUMPDEST PUSH1 0x0 PUSH2 0x302A DUP3 DUP5 DUP7 PUSH2 0x2FF8 JUMP JUMPDEST SWAP2 POP DUP2 SWAP1 POP SWAP4 SWAP3 POP POP POP JUMP JUMPDEST PUSH32 0x4E487B7100000000000000000000000000000000000000000000000000000000 PUSH1 0x0 MSTORE PUSH1 0x11 PUSH1 0x4 MSTORE PUSH1 0x24 PUSH1 0x0 REVERT JUMPDEST PUSH1 0x0 PUSH2 0x3070 DUP3 PUSH2 0x20AD JUMP JUMPDEST SWAP2 POP PUSH32 0xFFFFFFFFFFFFFFFFFFFFFFFFFFFFFFFFFFFFFFFFFFFFFFFFFFFFFFFFFFFFFFFF DUP3 SUB PUSH2 0x30A2 JUMPI PUSH2 0x30A1 PUSH2 0x3036 JUMP JUMPDEST JUMPDEST PUSH1 0x1 DUP3 ADD SWAP1 POP SWAP2 SWAP1 POP JUMP JUMPDEST PUSH1 0x0 DUP3 CALLDATALOAD PUSH1 0x1 PUSH1 0x80 SUB DUP4 CALLDATASIZE SUB SUB DUP2 SLT PUSH2 0x30C9 JUMPI PUSH2 0x30C8 PUSH2 0x2F7B JUMP JUMPDEST JUMPDEST DUP1 DUP4 ADD SWAP2 POP POP SWAP3 SWAP2 POP POP JUMP JUMPDEST PUSH1 0x0 PUSH1 0x80 DUP4 ADD PUSH2 0x30E8 PUSH1 0x0 DUP5 ADD DUP5 PUSH2 0x2A7E JUMP JUMPDEST PUSH2 0x30F5 PUSH1 0x0 DUP7 ADD DUP3 PUSH2 0x2A95 JUMP JUMPDEST POP PUSH2 0x3103 PUSH1 0x20 DUP5 ADD DUP5 PUSH2 0x2A7E JUMP JUMPDEST PUSH2 0x3110 PUSH1 0x20 DUP7 ADD DUP3 PUSH2 0x2A95 JUMP JUMPDEST POP PUSH2 0x311E PUSH1 0x40 DUP5 ADD DUP5 PUSH2 0x2AA4 JUMP JUMPDEST PUSH2 0x312B PUSH1 0x40 DUP7 ADD DUP3 PUSH2 0x2ABB JUMP JUMPDEST POP PUSH2 0x3139 PUSH1 0x60 DUP5 ADD DUP5 PUSH2 0x2AD9 JUMP JUMPDEST DUP6 DUP4 SUB PUSH1 0x60 DUP8 ADD MSTORE PUSH2 0x314C DUP4 DUP3 DUP5 PUSH2 0x2B4B JUMP JUMPDEST SWAP3 POP POP POP DUP1 SWAP2 POP POP SWAP3 SWAP2 POP POP JUMP JUMPDEST PUSH1 0x0 PUSH1 0x60 DUP3 ADD SWAP1 POP DUP2 DUP2 SUB PUSH1 0x0 DUP4 ADD MSTORE PUSH2 0x3174 DUP2 DUP7 PUSH2 0x30D5 JUMP JUMPDEST SWAP1 POP PUSH2 0x3183 PUSH1 0x20 DUP4 ADD DUP6 PUSH2 0x20B7 JUMP JUMPDEST PUSH2 0x3190 PUSH1 0x40 DUP4 ADD DUP5 PUSH2 0x20B7 JUMP JUMPDEST SWAP5 SWAP4 POP POP POP POP JUMP JUMPDEST PUSH2 0x31A1 DUP2 PUSH2 0x2927 JUMP JUMPDEST DUP3 MSTORE POP POP JUMP JUMPDEST PUSH1 0x0 PUSH2 0x31B3 DUP4 DUP6 PUSH2 0x277C JUMP JUMPDEST SWAP4 POP PUSH2 0x31C0 DUP4 DUP6 DUP5 PUSH2 0x2B3C JUMP JUMPDEST PUSH2 0x31C9 DUP4 PUSH2 0x228F JUMP JUMPDEST DUP5 ADD SWAP1 POP SWAP4 SWAP3 POP POP POP JUMP JUMPDEST PUSH1 0x0 PUSH1 0x80 DUP3 ADD SWAP1 POP PUSH2 0x31E9 PUSH1 0x0 DUP4 ADD DUP9 PUSH2 0x3198 JUMP JUMPDEST PUSH2 0x31F6 PUSH1 0x20 DUP4 ADD DUP8 PUSH2 0x3198 JUMP JUMPDEST PUSH2 0x3203 PUSH1 0x40 DUP4 ADD DUP7 PUSH2 0x20B7 JUMP JUMPDEST DUP2 DUP2 SUB PUSH1 0x60 DUP4 ADD MSTORE PUSH2 0x3216 DUP2 DUP5 DUP7 PUSH2 0x31A7 JUMP JUMPDEST SWAP1 POP SWAP7 SWAP6 POP POP POP POP POP POP JUMP JUMPDEST PUSH1 0x0 DUP3 DUP3 MSTORE PUSH1 0x20 DUP3 ADD SWAP1 POP SWAP3 SWAP2 POP POP JUMP JUMPDEST PUSH1 0x0 DUP2 SWAP1 POP SWAP2 SWAP1 POP JUMP JUMPDEST PUSH1 0x0 PUSH2 0x3249 DUP4 DUP4 PUSH2 0x2A95 JUMP JUMPDEST PUSH1 0x20 DUP4 ADD SWAP1 POP SWAP3 SWAP2 POP POP JUMP JUMPDEST PUSH1 0x0 PUSH1 0x20 DUP3 ADD SWAP1 POP SWAP2 SWAP1 POP JUMP JUMPDEST PUSH1 0x0 PUSH2 0x326E DUP4 DUP6 PUSH2 0x3222 JUMP JUMPDEST SWAP4 POP PUSH2 0x3279 DUP3 PUSH2 0x3233 JUMP JUMPDEST DUP1 PUSH1 0x0 JUMPDEST DUP6 DUP2 LT ISZERO PUSH2 0x32B2 JUMPI PUSH2 0x328F DUP3 DUP5 PUSH2 0x2A7E JUMP JUMPDEST PUSH2 0x3299 DUP9 DUP3 PUSH2 0x323D JUMP JUMPDEST SWAP8 POP PUSH2 0x32A4 DUP4 PUSH2 0x3255 JUMP JUMPDEST SWAP3 POP POP PUSH1 0x1 DUP2 ADD SWAP1 POP PUSH2 0x327D JUMP JUMPDEST POP DUP6 SWAP3 POP POP POP SWAP4 SWAP3 POP POP POP JUMP JUMPDEST PUSH1 0x0 PUSH1 0x60 DUP3 ADD SWAP1 POP DUP2 DUP2 SUB PUSH1 0x0 DUP4 ADD MSTORE PUSH2 0x32DA DUP2 DUP7 DUP9 PUSH2 0x3262 JUMP JUMPDEST SWAP1 POP PUSH2 0x32E9 PUSH1 0x20 DUP4 ADD DUP6 PUSH2 0x20B7 JUMP JUMPDEST PUSH2 0x32F6 PUSH1 0x40 DUP4 ADD DUP5 PUSH2 0x20B7 JUMP JUMPDEST SWAP6 SWAP5 POP POP POP POP POP JUMP JUMPDEST PUSH1 0x0 PUSH8 0xFFFFFFFFFFFFFFFF DUP3 AND SWAP1 POP SWAP2 SWAP1 POP JUMP JUMPDEST PUSH2 0x331C DUP2 PUSH2 0x32FF JUMP JUMPDEST DUP2 EQ PUSH2 0x3327 JUMPI PUSH1 0x0 DUP1 REVERT JUMPDEST POP JUMP JUMPDEST PUSH1 0x0 DUP2 CALLDATALOAD SWAP1 POP PUSH2 0x3339 DUP2 PUSH2 0x3313 JUMP JUMPDEST SWAP3 SWAP2 POP POP JUMP JUMPDEST PUSH1 0x0 PUSH2 0x334E PUSH1 0x20 DUP5 ADD DUP5 PUSH2 0x332A JUMP JUMPDEST SWAP1 POP SWAP3 SWAP2 POP POP JUMP JUMPDEST PUSH2 0x335F DUP2 PUSH2 0x32FF JUMP JUMPDEST DUP3 MSTORE POP POP JUMP JUMPDEST PUSH1 0x0 PUSH4 0xFFFFFFFF DUP3 AND SWAP1 POP SWAP2 SWAP1 POP JUMP JUMPDEST PUSH2 0x337E DUP2 PUSH2 0x3365 JUMP JUMPDEST DUP2 EQ PUSH2 0x3389 JUMPI PUSH1 0x0 DUP1 REVERT JUMPDEST POP JUMP JUMPDEST PUSH1 0x0 DUP2 CALLDATALOAD SWAP1 POP PUSH2 0x339B DUP2 PUSH2 0x3375 JUMP JUMPDEST SWAP3 SWAP2 POP POP JUMP JUMPDEST PUSH1 0x0 PUSH2 0x33B0 PUSH1 0x20 DUP5 ADD DUP5 PUSH2 0x338C JUMP JUMPDEST SWAP1 POP SWAP3 SWAP2 POP POP JUMP JUMPDEST PUSH2 0x33C1 DUP2 PUSH2 0x3365 JUMP JUMPDEST DUP3 MSTORE POP POP JUMP JUMPDEST PUSH1 0xA0 DUP3 ADD PUSH2 0x33D8 PUSH1 0x0 DUP4 ADD DUP4 PUSH2 0x333F JUMP JUMPDEST PUSH2 0x33E5 PUSH1 0x0 DUP6 ADD DUP3 PUSH2 0x3356 JUMP JUMPDEST POP PUSH2 0x33F3 PUSH1 0x20 DUP4 ADD DUP4 PUSH2 0x333F JUMP JUMPDEST PUSH2 0x3400 PUSH1 0x20 DUP6 ADD DUP3 PUSH2 0x3356 JUMP JUMPDEST POP PUSH2 0x340E PUSH1 0x40 DUP4 ADD DUP4 PUSH2 0x33A1 JUMP JUMPDEST PUSH2 0x341B PUSH1 0x40 DUP6 ADD DUP3 PUSH2 0x33B8 JUMP JUMPDEST POP PUSH2 0x3429 PUSH1 0x60 DUP4 ADD DUP4 PUSH2 0x33A1 JUMP JUMPDEST PUSH2 0x3436 PUSH1 0x60 DUP6 ADD DUP3 PUSH2 0x33B8 JUMP JUMPDEST POP PUSH2 0x3444 PUSH1 0x80 DUP4 ADD DUP4 PUSH2 0x33A1 JUMP JUMPDEST PUSH2 0x3451 PUSH1 0x80 DUP6 ADD DUP3 PUSH2 0x33B8 JUMP JUMPDEST POP POP POP POP JUMP JUMPDEST PUSH1 0x0 PUSH2 0x100 DUP3 ADD SWAP1 POP DUP2 DUP2 SUB PUSH1 0x0 DUP4 ADD MSTORE PUSH2 0x3472 DUP2 DUP8 PUSH2 0x30D5 JUMP JUMPDEST SWAP1 POP PUSH2 0x3481 PUSH1 0x20 DUP4 ADD DUP7 PUSH2 0x33C7 JUMP JUMPDEST PUSH2 0x348E PUSH1 0xC0 DUP4 ADD DUP6 PUSH2 0x20B7 JUMP JUMPDEST PUSH2 0x349B PUSH1 0xE0 DUP4 ADD DUP5 PUSH2 0x20B7 JUMP JUMPDEST SWAP6 SWAP5 POP POP POP POP POP JUMP JUMPDEST PUSH1 0x0 PUSH1 0x20 DUP3 DUP5 SUB SLT ISZERO PUSH2 0x34BA JUMPI PUSH2 0x34B9 PUSH2 0x1FE8 JUMP JUMPDEST JUMPDEST PUSH1 0x0 PUSH2 0x34C8 DUP5 DUP3 DUP6 ADD PUSH2 0x338C JUMP JUMPDEST SWAP2 POP POP SWAP3 SWAP2 POP POP JUMP JUMPDEST PUSH32 0x45786563757465526571756573745065726D697373696F6E2E6D617845786563 PUSH1 0x0 DUP3 ADD MSTORE PUSH32 0x75746573206D757374206E6F7420626520300000000000000000000000000000 PUSH1 0x20 DUP3 ADD MSTORE POP JUMP JUMPDEST PUSH1 0x0 PUSH2 0x352D PUSH1 0x32 DUP4 PUSH2 0x2EE0 JUMP JUMPDEST SWAP2 POP PUSH2 0x3538 DUP3 PUSH2 0x34D1 JUMP JUMPDEST PUSH1 0x40 DUP3 ADD SWAP1 POP SWAP2 SWAP1 POP JUMP JUMPDEST PUSH1 0x0 PUSH1 0x20 DUP3 ADD SWAP1 POP DUP2 DUP2 SUB PUSH1 0x0 DUP4 ADD MSTORE PUSH2 0x355C DUP2 PUSH2 0x3520 JUMP JUMPDEST SWAP1 POP SWAP2 SWAP1 POP JUMP JUMPDEST PUSH1 0x0 DUP2 CALLDATALOAD PUSH2 0x3570 DUP2 PUSH2 0x3313 JUMP JUMPDEST DUP1 SWAP2 POP POP SWAP2 SWAP1 POP JUMP JUMPDEST PUSH1 0x0 DUP2 PUSH1 0x0 SHL SWAP1 POP SWAP2 SWAP1 POP JUMP JUMPDEST PUSH1 0x0 PUSH8 0xFFFFFFFFFFFFFFFF PUSH2 0x359A DUP5 PUSH2 0x3579 JUMP JUMPDEST SWAP4 POP DUP1 NOT DUP4 AND SWAP3 POP DUP1 DUP5 AND DUP4 OR SWAP2 POP POP SWAP3 SWAP2 POP POP JUMP JUMPDEST PUSH1 0x0 DUP2 SWAP1 POP SWAP2 SWAP1 POP JUMP JUMPDEST PUSH1 0x0 PUSH2 0x35D5 PUSH2 0x35D0 PUSH2 0x35CB DUP5 PUSH2 0x32FF JUMP JUMPDEST PUSH2 0x35B0 JUMP JUMPDEST PUSH2 0x32FF JUMP JUMPDEST SWAP1 POP SWAP2 SWAP1 POP JUMP JUMPDEST PUSH1 0x0 DUP2 SWAP1 POP SWAP2 SWAP1 POP JUMP JUMPDEST PUSH2 0x35EF DUP3 PUSH2 0x35BA JUMP JUMPDEST PUSH2 0x3602 PUSH2 0x35FB DUP3 PUSH2 0x35DC JUMP JUMPDEST DUP4 SLOAD PUSH2 0x3586 JUMP JUMPDEST DUP3 SSTORE POP POP POP JUMP JUMPDEST PUSH1 0x0 DUP2 PUSH1 0x40 SHL SWAP1 POP SWAP2 SWAP1 POP JUMP JUMPDEST PUSH1 0x0 PUSH16 0xFFFFFFFFFFFFFFFF0000000000000000 PUSH2 0x3632 DUP5 PUSH2 0x3609 JUMP JUMPDEST SWAP4 POP DUP1 NOT DUP4 AND SWAP3 POP DUP1 DUP5 AND DUP4 OR SWAP2 POP POP SWAP3 SWAP2 POP POP JUMP JUMPDEST PUSH2 0x3651 DUP3 PUSH2 0x35BA JUMP JUMPDEST PUSH2 0x3664 PUSH2 0x365D DUP3 PUSH2 0x35DC JUMP JUMPDEST DUP4 SLOAD PUSH2 0x3616 JUMP JUMPDEST DUP3 SSTORE POP POP POP JUMP JUMPDEST PUSH1 0x0 DUP2 CALLDATALOAD PUSH2 0x3678 DUP2 PUSH2 0x3375 JUMP JUMPDEST DUP1 SWAP2 POP POP SWAP2 SWAP1 POP JUMP JUMPDEST PUSH1 0x0 DUP2 PUSH1 0x80 SHL SWAP1 POP SWAP2 SWAP1 POP JUMP JUMPDEST PUSH1 0x0 PUSH20 0xFFFFFFFF00000000000000000000000000000000 PUSH2 0x36AE DUP5 PUSH2 0x3681 JUMP JUMPDEST SWAP4 POP DUP1 NOT DUP4 AND SWAP3 POP DUP1 DUP5 AND DUP4 OR SWAP2 POP POP SWAP3 SWAP2 POP POP JUMP JUMPDEST PUSH1 0x0 PUSH2 0x36DF PUSH2 0x36DA PUSH2 0x36D5 DUP5 PUSH2 0x3365 JUMP JUMPDEST PUSH2 0x35B0 JUMP JUMPDEST PUSH2 0x3365 JUMP JUMPDEST SWAP1 POP SWAP2 SWAP1 POP JUMP JUMPDEST PUSH1 0x0 DUP2 SWAP1 POP SWAP2 SWAP1 POP JUMP JUMPDEST PUSH2 0x36F9 DUP3 PUSH2 0x36C4 JUMP JUMPDEST PUSH2 0x370C PUSH2 0x3705 DUP3 PUSH2 0x36E6 JUMP JUMPDEST DUP4 SLOAD PUSH2 0x368E JUMP JUMPDEST DUP3 SSTORE POP POP POP JUMP JUMPDEST PUSH1 0x0 DUP2 PUSH1 0xA0 SHL SWAP1 POP SWAP2 SWAP1 POP JUMP JUMPDEST PUSH1 0x0 PUSH24 0xFFFFFFFF0000000000000000000000000000000000000000 PUSH2 0x3744 DUP5 PUSH2 0x3713 JUMP JUMPDEST SWAP4 POP DUP1 NOT DUP4 AND SWAP3 POP DUP1 DUP5 AND DUP4 OR SWAP2 POP POP SWAP3 SWAP2 POP POP JUMP JUMPDEST PUSH2 0x3763 DUP3 PUSH2 0x36C4 JUMP JUMPDEST PUSH2 0x3776 PUSH2 0x376F DUP3 PUSH2 0x36E6 JUMP JUMPDEST DUP4 SLOAD PUSH2 0x3720 JUMP JUMPDEST DUP3 SSTORE POP POP POP JUMP JUMPDEST PUSH1 0x0 DUP2 PUSH1 0xC0 SHL SWAP1 POP SWAP2 SWAP1 POP JUMP JUMPDEST PUSH1 0x0 PUSH28 0xFFFFFFFF000000000000000000000000000000000000000000000000 PUSH2 0x37B2 DUP5 PUSH2 0x377D JUMP JUMPDEST SWAP4 POP DUP1 NOT DUP4 AND SWAP3 POP DUP1 DUP5 AND DUP4 OR SWAP2 POP POP SWAP3 SWAP2 POP POP JUMP JUMPDEST PUSH2 0x37D1 DUP3 PUSH2 0x36C4 JUMP JUMPDEST PUSH2 0x37E4 PUSH2 0x37DD DUP3 PUSH2 0x36E6 JUMP JUMPDEST DUP4 SLOAD PUSH2 0x378A JUMP JUMPDEST DUP3 SSTORE POP POP POP JUMP JUMPDEST PUSH1 0x0 DUP2 ADD PUSH1 0x0 DUP4 ADD DUP1 PUSH2 0x37FD DUP2 PUSH2 0x3563 JUMP JUMPDEST SWAP1 POP PUSH2 0x3809 DUP2 DUP5 PUSH2 0x35E6 JUMP JUMPDEST POP POP POP PUSH1 0x0 DUP2 ADD PUSH1 0x20 DUP4 ADD DUP1 PUSH2 0x381E DUP2 PUSH2 0x3563 JUMP JUMPDEST SWAP1 POP PUSH2 0x382A DUP2 DUP5 PUSH2 0x3648 JUMP JUMPDEST POP POP POP PUSH1 0x0 DUP2 ADD PUSH1 0x40 DUP4 ADD DUP1 PUSH2 0x383F DUP2 PUSH2 0x366B JUMP JUMPDEST SWAP1 POP PUSH2 0x384B DUP2 DUP5 PUSH2 0x36F0 JUMP JUMPDEST POP POP POP PUSH1 0x0 DUP2 ADD PUSH1 0x60 DUP4 ADD DUP1 PUSH2 0x3860 DUP2 PUSH2 0x366B JUMP JUMPDEST SWAP1 POP PUSH2 0x386C DUP2 DUP5 PUSH2 0x375A JUMP JUMPDEST POP POP POP PUSH1 0x0 DUP2 ADD PUSH1 0x80 DUP4 ADD DUP1 PUSH2 0x3881 DUP2 PUSH2 0x366B JUMP JUMPDEST SWAP1 POP PUSH2 0x388D DUP2 DUP5 PUSH2 0x37C8 JUMP JUMPDEST POP POP POP POP POP JUMP JUMPDEST PUSH2 0x389E DUP3 DUP3 PUSH2 0x37EB JUMP JUMPDEST POP POP JUMP JUMPDEST PUSH1 0x0 PUSH1 0x60 DUP3 ADD SWAP1 POP PUSH2 0x38B7 PUSH1 0x0 DUP4 ADD DUP7 PUSH2 0x20B7 JUMP JUMPDEST PUSH2 0x38C4 PUSH1 0x20 DUP4 ADD DUP6 PUSH2 0x20B7 JUMP JUMPDEST PUSH2 0x38D1 PUSH1 0x40 DUP4 ADD DUP5 PUSH2 0x20B7 JUMP JUMPDEST SWAP5 SWAP4 POP POP POP POP JUMP JUMPDEST PUSH32 0x496E76616C6964207468726573686F6C64000000000000000000000000000000 PUSH1 0x0 DUP3 ADD MSTORE POP JUMP JUMPDEST PUSH1 0x0 PUSH2 0x390F PUSH1 0x11 DUP4 PUSH2 0x2EE0 JUMP JUMPDEST SWAP2 POP PUSH2 0x391A DUP3 PUSH2 0x38D9 JUMP JUMPDEST PUSH1 0x20 DUP3 ADD SWAP1 POP SWAP2 SWAP1 POP JUMP JUMPDEST PUSH1 0x0 PUSH1 0x20 DUP3 ADD SWAP1 POP DUP2 DUP2 SUB PUSH1 0x0 DUP4 ADD MSTORE PUSH2 0x393E DUP2 PUSH2 0x3902 JUMP JUMPDEST SWAP1 POP SWAP2 SWAP1 POP JUMP JUMPDEST PUSH1 0x0 PUSH1 0x80 DUP4 ADD PUSH2 0x3958 PUSH1 0x0 DUP5 ADD DUP5 PUSH2 0x2A7E JUMP JUMPDEST PUSH2 0x3965 PUSH1 0x0 DUP7 ADD DUP3 PUSH2 0x2A95 JUMP JUMPDEST POP PUSH2 0x3973 PUSH1 0x20 DUP5 ADD DUP5 PUSH2 0x2AA4 JUMP JUMPDEST PUSH2 0x3980 PUSH1 0x20 DUP7 ADD DUP3 PUSH2 0x2ABB JUMP JUMPDEST POP PUSH2 0x398E PUSH1 0x40 DUP5 ADD DUP5 PUSH2 0x2AA4 JUMP JUMPDEST PUSH2 0x399B PUSH1 0x40 DUP7 ADD DUP3 PUSH2 0x2ABB JUMP JUMPDEST POP PUSH2 0x39A9 PUSH1 0x60 DUP5 ADD DUP5 PUSH2 0x2AD9 JUMP JUMPDEST DUP6 DUP4 SUB PUSH1 0x60 DUP8 ADD MSTORE PUSH2 0x39BC DUP4 DUP3 DUP5 PUSH2 0x2B4B JUMP JUMPDEST SWAP3 POP POP POP DUP1 SWAP2 POP POP SWAP3 SWAP2 POP POP JUMP JUMPDEST PUSH1 0x0 PUSH1 0x40 DUP3 ADD SWAP1 POP DUP2 DUP2 SUB PUSH1 0x0 DUP4 ADD MSTORE PUSH2 0x39E4 DUP2 DUP6 PUSH2 0x3945 JUMP JUMPDEST SWAP1 POP PUSH2 0x39F3 PUSH1 0x20 DUP4 ADD DUP5 PUSH2 0x20B7 JUMP JUMPDEST SWAP4 SWAP3 POP POP POP JUMP JUMPDEST PUSH1 0x0 DUP3 DUP3 MSTORE PUSH1 0x20 DUP3 ADD SWAP1 POP SWAP3 SWAP2 POP POP JUMP JUMPDEST PUSH1 0x0 DUP1 REVERT JUMPDEST DUP3 DUP2 DUP4 CALLDATACOPY POP POP POP JUMP JUMPDEST PUSH1 0x0 PUSH2 0x3A25 DUP4 DUP6 PUSH2 0x39FA JUMP JUMPDEST SWAP4 POP PUSH32 0x7FFFFFFFFFFFFFFFFFFFFFFFFFFFFFFFFFFFFFFFFFFFFFFFFFFFFFFFFFFFFFF DUP4 GT ISZERO PUSH2 0x3A58 JUMPI PUSH2 0x3A57 PUSH2 0x3A0B JUMP JUMPDEST JUMPDEST PUSH1 0x20 DUP4 MUL SWAP3 POP PUSH2 0x3A69 DUP4 DUP6 DUP5 PUSH2 0x3A10 JUMP JUMPDEST DUP3 DUP5 ADD SWAP1 POP SWAP4 SWAP3 POP POP POP JUMP JUMPDEST PUSH1 0x0 PUSH1 0x80 DUP3 ADD SWAP1 POP DUP2 DUP2 SUB PUSH1 0x0 DUP4 ADD MSTORE PUSH2 0x3A90 DUP2 DUP9 DUP11 PUSH2 0x3262 JUMP JUMPDEST SWAP1 POP DUP2 DUP2 SUB PUSH1 0x20 DUP4 ADD MSTORE PUSH2 0x3AA5 DUP2 DUP7 DUP9 PUSH2 0x3A19 JUMP JUMPDEST SWAP1 POP PUSH2 0x3AB4 PUSH1 0x40 DUP4 ADD DUP6 PUSH2 0x20B7 JUMP JUMPDEST PUSH2 0x3AC1 PUSH1 0x60 DUP4 ADD DUP5 PUSH2 0x20B7 JUMP JUMPDEST SWAP8 SWAP7 POP POP POP POP POP POP POP JUMP JUMPDEST PUSH1 0x0 PUSH1 0x80 DUP3 ADD SWAP1 POP PUSH2 0x3AE1 PUSH1 0x0 DUP4 ADD DUP8 PUSH2 0x3198 JUMP JUMPDEST PUSH2 0x3AEE PUSH1 0x20 DUP4 ADD DUP7 PUSH2 0x20B7 JUMP JUMPDEST PUSH2 0x3AFB PUSH1 0x40 DUP4 ADD DUP6 PUSH2 0x20B7 JUMP JUMPDEST PUSH2 0x3B08 PUSH1 0x60 DUP4 ADD DUP5 PUSH2 0x20B7 JUMP JUMPDEST SWAP6 SWAP5 POP POP POP POP POP JUMP JUMPDEST PUSH1 0x0 PUSH2 0x3B1C DUP3 PUSH2 0x20AD JUMP JUMPDEST SWAP2 POP PUSH2 0x3B27 DUP4 PUSH2 0x20AD JUMP JUMPDEST SWAP3 POP DUP3 DUP3 SUB SWAP1 POP DUP2 DUP2 GT ISZERO PUSH2 0x3B3F JUMPI PUSH2 0x3B3E PUSH2 0x3036 JUMP JUMPDEST JUMPDEST SWAP3 SWAP2 POP POP JUMP JUMPDEST PUSH1 0x0 PUSH2 0x3B50 DUP3 PUSH2 0x20AD JUMP JUMPDEST SWAP2 POP PUSH2 0x3B5B DUP4 PUSH2 0x20AD JUMP JUMPDEST SWAP3 POP DUP3 DUP3 ADD SWAP1 POP DUP1 DUP3 GT ISZERO PUSH2 0x3B73 JUMPI PUSH2 0x3B72 PUSH2 0x3036 JUMP JUMPDEST JUMPDEST SWAP3 SWAP2 POP POP JUMP JUMPDEST PUSH32 0x5468726573686F6C6420776F756C6420626520696D706F737369626C65000000 PUSH1 0x0 DUP3 ADD MSTORE POP JUMP JUMPDEST PUSH1 0x0 PUSH2 0x3BAF PUSH1 0x1D DUP4 PUSH2 0x2EE0 JUMP JUMPDEST SWAP2 POP PUSH2 0x3BBA DUP3 PUSH2 0x3B79 JUMP JUMPDEST PUSH1 0x20 DUP3 ADD SWAP1 POP SWAP2 SWAP1 POP JUMP JUMPDEST PUSH1 0x0 PUSH1 0x20 DUP3 ADD SWAP1 POP DUP2 DUP2 SUB PUSH1 0x0 DUP4 ADD MSTORE PUSH2 0x3BDE DUP2 PUSH2 0x3BA2 JUMP JUMPDEST SWAP1 POP SWAP2 SWAP1 POP JUMP JUMPDEST PUSH32 0x457865637574696F6E206E6F74207065726D6974746564000000000000000000 PUSH1 0x0 DUP3 ADD MSTORE POP JUMP JUMPDEST PUSH1 0x0 PUSH2 0x3C1B PUSH1 0x17 DUP4 PUSH2 0x2EE0 JUMP JUMPDEST SWAP2 POP PUSH2 0x3C26 DUP3 PUSH2 0x3BE5 JUMP JUMPDEST PUSH1 0x20 DUP3 ADD SWAP1 POP SWAP2 SWAP1 POP JUMP JUMPDEST PUSH1 0x0 PUSH1 0x20 DUP3 ADD SWAP1 POP DUP2 DUP2 SUB PUSH1 0x0 DUP4 ADD MSTORE PUSH2 0x3C4A DUP2 PUSH2 0x3C0E JUMP JUMPDEST SWAP1 POP SWAP2 SWAP1 POP JUMP JUMPDEST PUSH32 0x457865637574696F6E2074696D656C6F636B6564000000000000000000000000 PUSH1 0x0 DUP3 ADD MSTORE POP JUMP JUMPDEST PUSH1 0x0 PUSH2 0x3C87 PUSH1 0x14 DUP4 PUSH2 0x2EE0 JUMP JUMPDEST SWAP2 POP PUSH2 0x3C92 DUP3 PUSH2 0x3C51 JUMP JUMPDEST PUSH1 0x20 DUP3 ADD SWAP1 POP SWAP2 SWAP1 POP JUMP JUMPDEST PUSH1 0x0 PUSH1 0x20 DUP3 ADD SWAP1 POP DUP2 DUP2 SUB PUSH1 0x0 DUP4 ADD MSTORE PUSH2 0x3CB6 DUP2 PUSH2 0x3C7A JUMP JUMPDEST SWAP1 POP SWAP2 SWAP1 POP JUMP JUMPDEST PUSH1 0x0 PUSH2 0x3CC8 DUP3 PUSH2 0x32FF JUMP JUMPDEST SWAP2 POP PUSH2 0x3CD3 DUP4 PUSH2 0x32FF JUMP JUMPDEST SWAP3 POP DUP3 DUP3 ADD SWAP1 POP PUSH8 0xFFFFFFFFFFFFFFFF DUP2 GT ISZERO PUSH2 0x3CF3 JUMPI PUSH2 0x3CF2 PUSH2 0x3036 JUMP JUMPDEST JUMPDEST SWAP3 SWAP2 POP POP JUMP JUMPDEST PUSH32 0x457865637574696F6E20696E74657276616C20756E6D65740000000000000000 PUSH1 0x0 DUP3 ADD MSTORE POP JUMP JUMPDEST PUSH1 0x0 PUSH2 0x3D2F PUSH1 0x18 DUP4 PUSH2 0x2EE0 JUMP JUMPDEST SWAP2 POP PUSH2 0x3D3A DUP3 PUSH2 0x3CF9 JUMP JUMPDEST PUSH1 0x20 DUP3 ADD SWAP1 POP SWAP2 SWAP1 POP JUMP JUMPDEST PUSH1 0x0 PUSH1 0x20 DUP3 ADD SWAP1 POP DUP2 DUP2 SUB PUSH1 0x0 DUP4 ADD MSTORE PUSH2 0x3D5E DUP2 PUSH2 0x3D22 JUMP JUMPDEST SWAP1 POP SWAP2 SWAP1 POP JUMP JUMPDEST PUSH32 0x4D617820657865637574696F6E73207265616368656400000000000000000000 PUSH1 0x0 DUP3 ADD MSTORE POP JUMP JUMPDEST PUSH1 0x0 PUSH2 0x3D9B PUSH1 0x16 DUP4 PUSH2 0x2EE0 JUMP JUMPDEST SWAP2 POP PUSH2 0x3DA6 DUP3 PUSH2 0x3D65 JUMP JUMPDEST PUSH1 0x20 DUP3 ADD SWAP1 POP SWAP2 SWAP1 POP JUMP JUMPDEST PUSH1 0x0 PUSH1 0x20 DUP3 ADD SWAP1 POP DUP2 DUP2 SUB PUSH1 0x0 DUP4 ADD MSTORE PUSH2 0x3DCA DUP2 PUSH2 0x3D8E JUMP JUMPDEST SWAP1 POP SWAP2 SWAP1 POP JUMP JUMPDEST PUSH1 0x0 PUSH2 0x3DDC DUP3 PUSH2 0x3365 JUMP JUMPDEST SWAP2 POP PUSH2 0x3DE7 DUP4 PUSH2 0x3365 JUMP JUMPDEST SWAP3 POP DUP3 DUP3 ADD SWAP1 POP PUSH4 0xFFFFFFFF DUP2 GT ISZERO PUSH2 0x3E03 JUMPI PUSH2 0x3E02 PUSH2 0x3036 JUMP JUMPDEST JUMPDEST SWAP3 SWAP2 POP POP JUMP JUMPDEST PUSH1 0x0 DUP2 SWAP1 POP SWAP3 SWAP2 POP POP JUMP JUMPDEST PUSH32 0x19457468657265756D205369676E6564204D6573736167653A0A333200000000 PUSH1 0x0 DUP3 ADD MSTORE POP JUMP JUMPDEST PUSH1 0x0 PUSH2 0x3E4A PUSH1 0x1C DUP4 PUSH2 0x3E09 JUMP JUMPDEST SWAP2 POP PUSH2 0x3E55 DUP3 PUSH2 0x3E14 JUMP JUMPDEST PUSH1 0x1C DUP3 ADD SWAP1 POP SWAP2 SWAP1 POP JUMP JUMPDEST PUSH1 0x0 DUP2 SWAP1 POP SWAP2 SWAP1 POP JUMP JUMPDEST PUSH1 0x0 DUP2 SWAP1 POP SWAP2 SWAP1 POP JUMP JUMPDEST PUSH2 0x3E85 PUSH2 0x3E80 DUP3 PUSH2 0x3E60 JUMP JUMPDEST PUSH2 0x3E6A JUMP JUMPDEST DUP3 MSTORE POP POP JUMP JUMPDEST PUSH1 0x0 PUSH2 0x3E96 DUP3 PUSH2 0x3E3D JUMP JUMPDEST SWAP2 POP PUSH2 0x3EA2 DUP3 DUP5 PUSH2 0x3E74 JUMP JUMPDEST PUSH1 0x20 DUP3 ADD SWAP2 POP DUP2 SWAP1 POP SWAP3 SWAP2 POP POP JUMP JUMPDEST PUSH32 0x4E487B7100000000000000000000000000000000000000000000000000000000 PUSH1 0x0 MSTORE PUSH1 0x21 PUSH1 0x4 MSTORE PUSH1 0x24 PUSH1 0x0 REVERT JUMPDEST PUSH32 0x45434453413A20696E76616C6964207369676E61747572650000000000000000 PUSH1 0x0 DUP3 ADD MSTORE POP JUMP JUMPDEST PUSH1 0x0 PUSH2 0x3F16 PUSH1 0x18 DUP4 PUSH2 0x2EE0 JUMP JUMPDEST SWAP2 POP PUSH2 0x3F21 DUP3 PUSH2 0x3EE0 JUMP JUMPDEST PUSH1 0x20 DUP3 ADD SWAP1 POP SWAP2 SWAP1 POP JUMP JUMPDEST PUSH1 0x0 PUSH1 0x20 DUP3 ADD SWAP1 POP DUP2 DUP2 SUB PUSH1 0x0 DUP4 ADD MSTORE PUSH2 0x3F45 DUP2 PUSH2 0x3F09 JUMP JUMPDEST SWAP1 POP SWAP2 SWAP1 POP JUMP JUMPDEST PUSH32 0x45434453413A20696E76616C6964207369676E6174757265206C656E67746800 PUSH1 0x0 DUP3 ADD MSTORE POP JUMP JUMPDEST PUSH1 0x0 PUSH2 0x3F82 PUSH1 0x1F DUP4 PUSH2 0x2EE0 JUMP JUMPDEST SWAP2 POP PUSH2 0x3F8D DUP3 PUSH2 0x3F4C JUMP JUMPDEST PUSH1 0x20 DUP3 ADD SWAP1 POP SWAP2 SWAP1 POP JUMP JUMPDEST PUSH1 0x0 PUSH1 0x20 DUP3 ADD SWAP1 POP DUP2 DUP2 SUB PUSH1 0x0 DUP4 ADD MSTORE PUSH2 0x3FB1 DUP2 PUSH2 0x3F75 JUMP JUMPDEST SWAP1 POP SWAP2 SWAP1 POP JUMP JUMPDEST PUSH32 0x45434453413A20696E76616C6964207369676E6174757265202773272076616C PUSH1 0x0 DUP3 ADD MSTORE PUSH32 0x7565000000000000000000000000000000000000000000000000000000000000 PUSH1 0x20 DUP3 ADD MSTORE POP JUMP JUMPDEST PUSH1 0x0 PUSH2 0x4014 PUSH1 0x22 DUP4 PUSH2 0x2EE0 JUMP JUMPDEST SWAP2 POP PUSH2 0x401F DUP3 PUSH2 0x3FB8 JUMP JUMPDEST PUSH1 0x40 DUP3 ADD SWAP1 POP SWAP2 SWAP1 POP JUMP JUMPDEST PUSH1 0x0 PUSH1 0x20 DUP3 ADD SWAP1 POP DUP2 DUP2 SUB PUSH1 0x0 DUP4 ADD MSTORE PUSH2 0x4043 DUP2 PUSH2 0x4007 JUMP JUMPDEST SWAP1 POP SWAP2 SWAP1 POP JUMP JUMPDEST PUSH2 0x4053 DUP2 PUSH2 0x3E60 JUMP JUMPDEST DUP3 MSTORE POP POP JUMP JUMPDEST PUSH1 0x0 PUSH1 0xFF DUP3 AND SWAP1 POP SWAP2 SWAP1 POP JUMP JUMPDEST PUSH2 0x406F DUP2 PUSH2 0x4059 JUMP JUMPDEST DUP3 MSTORE POP POP JUMP JUMPDEST PUSH1 0x0 PUSH1 0x80 DUP3 ADD SWAP1 POP PUSH2 0x408A PUSH1 0x0 DUP4 ADD DUP8 PUSH2 0x404A JUMP JUMPDEST PUSH2 0x4097 PUSH1 0x20 DUP4 ADD DUP7 PUSH2 0x4066 JUMP JUMPDEST PUSH2 0x40A4 PUSH1 0x40 DUP4 ADD DUP6 PUSH2 0x404A JUMP JUMPDEST PUSH2 0x40B1 PUSH1 0x60 DUP4 ADD DUP5 PUSH2 0x404A JUMP JUMPDEST SWAP6 SWAP5 POP POP POP POP POP JUMP INVALID MSTORE8 PUSH10 0x676E6572207765696768 PUSH21 0x7320646F6573206E6F74206D656574207468726573 PUSH9 0x6F6C644174206C6561 PUSH20 0x74206F6E65207369676E6174757265206E6F7420 PUSH7 0x726F6D2061206B PUSH15 0x6F776E20636F6E74726F6C6C657241 PUSH21 0x206C65617374206F6E65207369676E617475726520 PUSH2 0x6C72 PUSH6 0x616479207573 PUSH6 0x64A264697066 PUSH20 0x58221220F22BD1BBAC5616BF9BB69F20945741FD 0xC8 0xE2 0xEC JUMPI BASEFEE 0x5C 0xA9 0xC3 EQ 0x49 0xAC 0xC7 SUB LOG0 0xE EXTCODESIZE PUSH5 0x736F6C6343 STOP ADDMOD SLT STOP CALLER "
		},
		"gasEstimates": {
			"creation": {
				"codeDepositCost": "3349400",
				"executionCost": "3731",
				"totalCost": "3353131"
			},
			"external": {
				"addControllers(address[],uint256[],uint256,bytes[])": "infinite",
				"controlThreshold()": "2558",
				"controllerWeight(address)": "2983",
				"controllersTotalWeight()": "2537",
				"execute((address,uint256,uint256,bytes),bytes[])": "infinite",
				"multiExecute((address,uint256,uint256,bytes)[],bytes[])": "infinite",
				"multiPermittedExecute((address,uint256,uint256,bytes)[])": "infinite",
				"permitExecute((address,address,uint256,bytes),(uint64,uint64,uint32,uint32,uint32),uint256,bytes[])": "infinite",
				"permittedExecute((address,uint256,uint256,bytes))": "infinite",
				"removeControllers(address[],uint256,bytes[])": "infinite",
				"supportsInterface(bytes4)": "917",
				"unpermitExecute((address,address,uint256,bytes),uint256,bytes[])": "infinite",
				"updateControlThreshold(uint256,uint256,bytes[])": "infinite",
				"updateControllerWeight(address,uint256,uint256,bytes[])": "infinite"
			},
			"internal": {
				"getExecuteRequestPermission(address,struct CallsStructs.ExecuteRequest calldata)": "infinite"
			}
		},
		"methodIdentifiers": {
			"addControllers(address[],uint256[],uint256,bytes[])": "af915498",
			"controlThreshold()": "a7865090",
			"controllerWeight(address)": "f04420f1",
			"controllersTotalWeight()": "06e82383",
			"execute((address,uint256,uint256,bytes),bytes[])": "a3e8d51e",
			"multiExecute((address,uint256,uint256,bytes)[],bytes[])": "0d992b2b",
			"multiPermittedExecute((address,uint256,uint256,bytes)[])": "524886d2",
			"permitExecute((address,address,uint256,bytes),(uint64,uint64,uint32,uint32,uint32),uint256,bytes[])": "2a365cbd",
			"permittedExecute((address,uint256,uint256,bytes))": "e57db71e",
			"removeControllers(address[],uint256,bytes[])": "286936bb",
			"supportsInterface(bytes4)": "01ffc9a7",
			"unpermitExecute((address,address,uint256,bytes),uint256,bytes[])": "1ab08563",
			"updateControlThreshold(uint256,uint256,bytes[])": "87f949b4",
			"updateControllerWeight(address,uint256,uint256,bytes[])": "d0bccea1"
		}
	},
	"abi": [
		{
			"inputs": [
				{
					"internalType": "address[]",
					"name": "_controllers",
					"type": "address[]"
				},
				{
					"internalType": "uint256[]",
					"name": "_weights",
					"type": "uint256[]"
				},
				{
					"internalType": "uint256",
					"name": "_nonce",
					"type": "uint256"
				},
				{
					"internalType": "bytes[]",
					"name": "_signatures",
					"type": "bytes[]"
				}
			],
			"name": "addControllers",
			"outputs": [],
			"stateMutability": "nonpayable",
			"type": "function"
		},
		{
			"inputs": [],
			"name": "controlThreshold",
			"outputs": [
				{
					"internalType": "uint256",
					"name": "",
					"type": "uint256"
				}
			],
			"stateMutability": "view",
			"type": "function"
		},
		{
			"inputs": [
				{
					"internalType": "address",
					"name": "_controller",
					"type": "address"
				}
			],
			"name": "controllerWeight",
			"outputs": [
				{
					"internalType": "uint256",
					"name": "",
					"type": "uint256"
				}
			],
			"stateMutability": "view",
			"type": "function"
		},
		{
			"inputs": [],
			"name": "controllersTotalWeight",
			"outputs": [
				{
					"internalType": "uint256",
					"name": "",
					"type": "uint256"
				}
			],
			"stateMutability": "view",
			"type": "function"
		},
		{
			"inputs": [
				{
					"components": [
						{
							"internalType": "address",
							"name": "target",
							"type": "address"
						},
						{
							"internalType": "uint256",
							"name": "value",
							"type": "uint256"
						},
						{
							"internalType": "uint256",
							"name": "nonce",
							"type": "uint256"
						},
						{
							"internalType": "bytes",
							"name": "data",
							"type": "bytes"
						}
					],
					"internalType": "struct CallsStructs.ExecuteRequest",
					"name": "_executeRequest",
					"type": "tuple"
				},
				{
					"internalType": "bytes[]",
					"name": "_signatures",
					"type": "bytes[]"
				}
			],
			"name": "execute",
			"outputs": [
				{
					"internalType": "bytes",
					"name": "",
					"type": "bytes"
				}
			],
			"stateMutability": "nonpayable",
			"type": "function"
		},
		{
			"inputs": [
				{
					"components": [
						{
							"internalType": "address",
							"name": "target",
							"type": "address"
						},
						{
							"internalType": "uint256",
							"name": "value",
							"type": "uint256"
						},
						{
							"internalType": "uint256",
							"name": "nonce",
							"type": "uint256"
						},
						{
							"internalType": "bytes",
							"name": "data",
							"type": "bytes"
						}
					],
					"internalType": "struct CallsStructs.ExecuteRequest[]",
					"name": "_executeRequests",
					"type": "tuple[]"
				},
				{
					"internalType": "bytes[]",
					"name": "_signatures",
					"type": "bytes[]"
				}
			],
			"name": "multiExecute",
			"outputs": [
				{
					"internalType": "bytes[]",
					"name": "",
					"type": "bytes[]"
				}
			],
			"stateMutability": "nonpayable",
			"type": "function"
		},
		{
			"inputs": [
				{
					"components": [
						{
							"internalType": "address",
							"name": "target",
							"type": "address"
						},
						{
							"internalType": "uint256",
							"name": "value",
							"type": "uint256"
						},
						{
							"internalType": "uint256",
							"name": "nonce",
							"type": "uint256"
						},
						{
							"internalType": "bytes",
							"name": "data",
							"type": "bytes"
						}
					],
					"internalType": "struct CallsStructs.ExecuteRequest[]",
					"name": "_executeRequests",
					"type": "tuple[]"
				}
			],
			"name": "multiPermittedExecute",
			"outputs": [
				{
					"internalType": "bytes[]",
					"name": "",
					"type": "bytes[]"
				}
			],
			"stateMutability": "nonpayable",
			"type": "function"
		},
		{
			"inputs": [
				{
					"components": [
						{
							"internalType": "address",
							"name": "executor",
							"type": "address"
						},
						{
							"internalType": "address",
							"name": "target",
							"type": "address"
						},
						{
							"internalType": "uint256",
							"name": "value",
							"type": "uint256"
						},
						{
							"internalType": "bytes",
							"name": "data",
							"type": "bytes"
						}
					],
					"internalType": "struct PermissionedCallsStructs.ExecuteRequestPermitted",
					"name": "_executeRequestPermitted",
					"type": "tuple"
				},
				{
					"components": [
						{
							"internalType": "uint64",
							"name": "unlockTimestamp",
							"type": "uint64"
						},
						{
							"internalType": "uint64",
							"name": "lastExecuteTimestamp",
							"type": "uint64"
						},
						{
							"internalType": "uint32",
							"name": "minExecuteInterval",
							"type": "uint32"
						},
						{
							"internalType": "uint32",
							"name": "executeCount",
							"type": "uint32"
						},
						{
							"internalType": "uint32",
							"name": "maxExecutes",
							"type": "uint32"
						}
					],
					"internalType": "struct PermissionedCallsStructs.ExecuteRequestPermission",
					"name": "_executeRequestPermission",
					"type": "tuple"
				},
				{
					"internalType": "uint256",
					"name": "_nonce",
					"type": "uint256"
				},
				{
					"internalType": "bytes[]",
					"name": "_signatures",
					"type": "bytes[]"
				}
			],
			"name": "permitExecute",
			"outputs": [],
			"stateMutability": "nonpayable",
			"type": "function"
		},
		{
			"inputs": [
				{
					"components": [
						{
							"internalType": "address",
							"name": "target",
							"type": "address"
						},
						{
							"internalType": "uint256",
							"name": "value",
							"type": "uint256"
						},
						{
							"internalType": "uint256",
							"name": "nonce",
							"type": "uint256"
						},
						{
							"internalType": "bytes",
							"name": "data",
							"type": "bytes"
						}
					],
					"internalType": "struct CallsStructs.ExecuteRequest",
					"name": "_executeRequest",
					"type": "tuple"
				}
			],
			"name": "permittedExecute",
			"outputs": [
				{
					"internalType": "bytes",
					"name": "",
					"type": "bytes"
				}
			],
			"stateMutability": "nonpayable",
			"type": "function"
		},
		{
			"inputs": [
				{
					"internalType": "address[]",
					"name": "_controllers",
					"type": "address[]"
				},
				{
					"internalType": "uint256",
					"name": "_nonce",
					"type": "uint256"
				},
				{
					"internalType": "bytes[]",
					"name": "_signatures",
					"type": "bytes[]"
				}
			],
			"name": "removeControllers",
			"outputs": [],
			"stateMutability": "nonpayable",
			"type": "function"
		},
		{
			"inputs": [
				{
					"internalType": "bytes4",
					"name": "interfaceId",
					"type": "bytes4"
				}
			],
			"name": "supportsInterface",
			"outputs": [
				{
					"internalType": "bool",
					"name": "",
					"type": "bool"
				}
			],
			"stateMutability": "view",
			"type": "function"
		},
		{
			"inputs": [
				{
					"components": [
						{
							"internalType": "address",
							"name": "executor",
							"type": "address"
						},
						{
							"internalType": "address",
							"name": "target",
							"type": "address"
						},
						{
							"internalType": "uint256",
							"name": "value",
							"type": "uint256"
						},
						{
							"internalType": "bytes",
							"name": "data",
							"type": "bytes"
						}
					],
					"internalType": "struct PermissionedCallsStructs.ExecuteRequestPermitted",
					"name": "_executeRequestPermitted",
					"type": "tuple"
				},
				{
					"internalType": "uint256",
					"name": "_nonce",
					"type": "uint256"
				},
				{
					"internalType": "bytes[]",
					"name": "_signatures",
					"type": "bytes[]"
				}
			],
			"name": "unpermitExecute",
			"outputs": [],
			"stateMutability": "nonpayable",
			"type": "function"
		},
		{
			"inputs": [
				{
					"internalType": "uint256",
					"name": "_threshold",
					"type": "uint256"
				},
				{
					"internalType": "uint256",
					"name": "_nonce",
					"type": "uint256"
				},
				{
					"internalType": "bytes[]",
					"name": "_signatures",
					"type": "bytes[]"
				}
			],
			"name": "updateControlThreshold",
			"outputs": [],
			"stateMutability": "nonpayable",
			"type": "function"
		},
		{
			"inputs": [
				{
					"internalType": "address",
					"name": "_controller",
					"type": "address"
				},
				{
					"internalType": "uint256",
					"name": "_weight",
					"type": "uint256"
				},
				{
					"internalType": "uint256",
					"name": "_nonce",
					"type": "uint256"
				},
				{
					"internalType": "bytes[]",
					"name": "_signatures",
					"type": "bytes[]"
				}
			],
			"name": "updateControllerWeight",
			"outputs": [],
			"stateMutability": "nonpayable",
			"type": "function"
		}
	]
}