{
	"contracts/modules/Calls/Calls.sol": {
		"Calls": {
			"abi": [
				{
					"inputs": [
						{
							"internalType": "address[]",
							"name": "_controllers",
							"type": "address[]"
						},
						{
							"internalType": "uint256[]",
							"name": "_weights",
							"type": "uint256[]"
						},
						{
							"internalType": "uint256",
							"name": "_nonce",
							"type": "uint256"
						},
						{
							"internalType": "bytes[]",
							"name": "_signatures",
							"type": "bytes[]"
						}
					],
					"name": "addControllers",
					"outputs": [],
					"stateMutability": "nonpayable",
					"type": "function"
				},
				{
					"inputs": [],
					"name": "controlThreshold",
					"outputs": [
						{
							"internalType": "uint256",
							"name": "",
							"type": "uint256"
						}
					],
					"stateMutability": "view",
					"type": "function"
				},
				{
					"inputs": [
						{
							"internalType": "address",
							"name": "_controller",
							"type": "address"
						}
					],
					"name": "controllerWeight",
					"outputs": [
						{
							"internalType": "uint256",
							"name": "",
							"type": "uint256"
						}
					],
					"stateMutability": "view",
					"type": "function"
				},
				{
					"inputs": [],
					"name": "controllersTotalWeight",
					"outputs": [
						{
							"internalType": "uint256",
							"name": "",
							"type": "uint256"
						}
					],
					"stateMutability": "view",
					"type": "function"
				},
				{
					"inputs": [
						{
							"components": [
								{
									"internalType": "address",
									"name": "target",
									"type": "address"
								},
								{
									"internalType": "uint256",
									"name": "value",
									"type": "uint256"
								},
								{
									"internalType": "uint256",
									"name": "nonce",
									"type": "uint256"
								},
								{
									"internalType": "bytes",
									"name": "data",
									"type": "bytes"
								}
							],
							"internalType": "struct CallsStructs.ExecuteRequest",
							"name": "_executeRequest",
							"type": "tuple"
						},
						{
							"internalType": "bytes[]",
							"name": "_signatures",
							"type": "bytes[]"
						}
					],
					"name": "execute",
					"outputs": [
						{
							"internalType": "bytes",
							"name": "",
							"type": "bytes"
						}
					],
					"stateMutability": "nonpayable",
					"type": "function"
				},
				{
					"inputs": [
						{
							"components": [
								{
									"internalType": "address",
									"name": "target",
									"type": "address"
								},
								{
									"internalType": "uint256",
									"name": "value",
									"type": "uint256"
								},
								{
									"internalType": "uint256",
									"name": "nonce",
									"type": "uint256"
								},
								{
									"internalType": "bytes",
									"name": "data",
									"type": "bytes"
								}
							],
							"internalType": "struct CallsStructs.ExecuteRequest[]",
							"name": "_executeRequests",
							"type": "tuple[]"
						},
						{
							"internalType": "bytes[]",
							"name": "_signatures",
							"type": "bytes[]"
						}
					],
					"name": "multiExecute",
					"outputs": [
						{
							"internalType": "bytes[]",
							"name": "",
							"type": "bytes[]"
						}
					],
					"stateMutability": "nonpayable",
					"type": "function"
				},
				{
					"inputs": [
						{
							"internalType": "address[]",
							"name": "_controllers",
							"type": "address[]"
						},
						{
							"internalType": "uint256",
							"name": "_nonce",
							"type": "uint256"
						},
						{
							"internalType": "bytes[]",
							"name": "_signatures",
							"type": "bytes[]"
						}
					],
					"name": "removeControllers",
					"outputs": [],
					"stateMutability": "nonpayable",
					"type": "function"
				},
				{
					"inputs": [
						{
							"internalType": "bytes4",
							"name": "interfaceId",
							"type": "bytes4"
						}
					],
					"name": "supportsInterface",
					"outputs": [
						{
							"internalType": "bool",
							"name": "",
							"type": "bool"
						}
					],
					"stateMutability": "view",
					"type": "function"
				},
				{
					"inputs": [
						{
							"internalType": "uint256",
							"name": "_threshold",
							"type": "uint256"
						},
						{
							"internalType": "uint256",
							"name": "_nonce",
							"type": "uint256"
						},
						{
							"internalType": "bytes[]",
							"name": "_signatures",
							"type": "bytes[]"
						}
					],
					"name": "updateControlThreshold",
					"outputs": [],
					"stateMutability": "nonpayable",
					"type": "function"
				},
				{
					"inputs": [
						{
							"internalType": "address",
							"name": "_controller",
							"type": "address"
						},
						{
							"internalType": "uint256",
							"name": "_weight",
							"type": "uint256"
						},
						{
							"internalType": "uint256",
							"name": "_nonce",
							"type": "uint256"
						},
						{
							"internalType": "bytes[]",
							"name": "_signatures",
							"type": "bytes[]"
						}
					],
					"name": "updateControllerWeight",
					"outputs": [],
					"stateMutability": "nonpayable",
					"type": "function"
				}
			],
			"devdoc": {
				"kind": "dev",
				"methods": {
					"supportsInterface(bytes4)": {
						"details": "See {IERC165-supportsInterface}."
					}
				},
				"version": 1
			},
			"evm": {
				"assembly": "    /* \"contracts/modules/Calls/Calls.sol\":409:1854  contract Calls is ICalls, Controllers {... */\n  mstore(0x40, 0x80)\n  callvalue\n  dup1\n  iszero\n  tag_1\n  jumpi\n  0x00\n  dup1\n  revert\ntag_1:\n  pop\n  dataSize(sub_0)\n  dup1\n  dataOffset(sub_0)\n  0x00\n  codecopy\n  0x00\n  return\nstop\n\nsub_0: assembly {\n        /* \"contracts/modules/Calls/Calls.sol\":409:1854  contract Calls is ICalls, Controllers {... */\n      mstore(0x40, 0x80)\n      callvalue\n      dup1\n      iszero\n      tag_1\n      jumpi\n      0x00\n      dup1\n      revert\n    tag_1:\n      pop\n      jumpi(tag_2, lt(calldatasize, 0x04))\n      shr(0xe0, calldataload(0x00))\n      dup1\n      0xa3e8d51e\n      gt\n      tag_13\n      jumpi\n      dup1\n      0xa3e8d51e\n      eq\n      tag_8\n      jumpi\n      dup1\n      0xa7865090\n      eq\n      tag_9\n      jumpi\n      dup1\n      0xaf915498\n      eq\n      tag_10\n      jumpi\n      dup1\n      0xd0bccea1\n      eq\n      tag_11\n      jumpi\n      dup1\n      0xf04420f1\n      eq\n      tag_12\n      jumpi\n      jump(tag_2)\n    tag_13:\n      dup1\n      0x01ffc9a7\n      eq\n      tag_3\n      jumpi\n      dup1\n      0x06e82383\n      eq\n      tag_4\n      jumpi\n      dup1\n      0x0d992b2b\n      eq\n      tag_5\n      jumpi\n      dup1\n      0x286936bb\n      eq\n      tag_6\n      jumpi\n      dup1\n      0x87f949b4\n      eq\n      tag_7\n      jumpi\n    tag_2:\n      0x00\n      dup1\n      revert\n        /* \"contracts/modules/Calls/Calls.sol\":1617:1852  function supportsInterface(bytes4 interfaceId) public view virtual override(Controllers) returns (bool) {... */\n    tag_3:\n      tag_14\n      0x04\n      dup1\n      calldatasize\n      sub\n      dup2\n      add\n      swap1\n      tag_15\n      swap2\n      swap1\n      tag_16\n      jump\t// in\n    tag_15:\n      tag_17\n      jump\t// in\n    tag_14:\n      mload(0x40)\n      tag_18\n      swap2\n      swap1\n      tag_19\n      jump\t// in\n    tag_18:\n      mload(0x40)\n      dup1\n      swap2\n      sub\n      swap1\n      return\n        /* \"contracts/modules/Controllers/Controllers.sol\":3319:3443  function controllersTotalWeight() external view returns (uint256) {... */\n    tag_4:\n      tag_20\n      tag_21\n      jump\t// in\n    tag_20:\n      mload(0x40)\n      tag_22\n      swap2\n      swap1\n      tag_23\n      jump\t// in\n    tag_22:\n      mload(0x40)\n      dup1\n      swap2\n      sub\n      swap1\n      return\n        /* \"contracts/modules/Calls/Calls.sol\":783:1262  function multiExecute(... */\n    tag_5:\n      tag_24\n      0x04\n      dup1\n      calldatasize\n      sub\n      dup2\n      add\n      swap1\n      tag_25\n      swap2\n      swap1\n      tag_26\n      jump\t// in\n    tag_25:\n      tag_27\n      jump\t// in\n    tag_24:\n      mload(0x40)\n      tag_28\n      swap2\n      swap1\n      tag_29\n      jump\t// in\n    tag_28:\n      mload(0x40)\n      dup1\n      swap2\n      sub\n      swap1\n      return\n        /* \"contracts/modules/Controllers/Controllers.sol\":1180:1529  function removeControllers(... */\n    tag_6:\n      tag_30\n      0x04\n      dup1\n      calldatasize\n      sub\n      dup2\n      add\n      swap1\n      tag_31\n      swap2\n      swap1\n      tag_32\n      jump\t// in\n    tag_31:\n      tag_33\n      jump\t// in\n    tag_30:\n      stop\n        /* \"contracts/modules/Controllers/Controllers.sol\":1932:2385  function updateControlThreshold(... */\n    tag_7:\n      tag_34\n      0x04\n      dup1\n      calldatasize\n      sub\n      dup2\n      add\n      swap1\n      tag_35\n      swap2\n      swap1\n      tag_36\n      jump\t// in\n    tag_35:\n      tag_37\n      jump\t// in\n    tag_34:\n      stop\n        /* \"contracts/modules/Calls/Calls.sol\":451:779  function execute( // todo: should be eip712 sigs?... */\n    tag_8:\n      tag_38\n      0x04\n      dup1\n      calldatasize\n      sub\n      dup2\n      add\n      swap1\n      tag_39\n      swap2\n      swap1\n      tag_40\n      jump\t// in\n    tag_39:\n      tag_41\n      jump\t// in\n    tag_38:\n      mload(0x40)\n      tag_42\n      swap2\n      swap1\n      tag_43\n      jump\t// in\n    tag_42:\n      mload(0x40)\n      dup1\n      swap2\n      sub\n      swap1\n      return\n        /* \"contracts/modules/Controllers/Controllers.sol\":3052:3167  function controlThreshold() external view returns (uint256) {... */\n    tag_9:\n      tag_44\n      tag_45\n      jump\t// in\n    tag_44:\n      mload(0x40)\n      tag_46\n      swap2\n      swap1\n      tag_23\n      jump\t// in\n    tag_46:\n      mload(0x40)\n      dup1\n      swap2\n      sub\n      swap1\n      return\n        /* \"contracts/modules/Controllers/Controllers.sol\":569:971  function addControllers(... */\n    tag_10:\n      tag_47\n      0x04\n      dup1\n      calldatasize\n      sub\n      dup2\n      add\n      swap1\n      tag_48\n      swap2\n      swap1\n      tag_49\n      jump\t// in\n    tag_48:\n      tag_50\n      jump\t// in\n    tag_47:\n      stop\n        /* \"contracts/modules/Controllers/Controllers.sol\":2389:3048  function updateControllerWeight(... */\n    tag_11:\n      tag_51\n      0x04\n      dup1\n      calldatasize\n      sub\n      dup2\n      add\n      swap1\n      tag_52\n      swap2\n      swap1\n      tag_53\n      jump\t// in\n    tag_52:\n      tag_54\n      jump\t// in\n    tag_51:\n      stop\n        /* \"contracts/modules/Controllers/Controllers.sol\":3171:3315  function controllerWeight(address _controller) external view returns(uint256) {... */\n    tag_12:\n      tag_55\n      0x04\n      dup1\n      calldatasize\n      sub\n      dup2\n      add\n      swap1\n      tag_56\n      swap2\n      swap1\n      tag_57\n      jump\t// in\n    tag_56:\n      tag_58\n      jump\t// in\n    tag_55:\n      mload(0x40)\n      tag_59\n      swap2\n      swap1\n      tag_23\n      jump\t// in\n    tag_59:\n      mload(0x40)\n      dup1\n      swap2\n      sub\n      swap1\n      return\n        /* \"contracts/modules/Calls/Calls.sol\":1617:1852  function supportsInterface(bytes4 interfaceId) public view virtual override(Controllers) returns (bool) {... */\n    tag_17:\n        /* \"contracts/modules/Calls/Calls.sol\":1715:1719  bool */\n      0x00\n        /* \"contracts/modules/Calls/Calls.sol\":1746:1770  type(ICalls).interfaceId */\n      0xae71fe3500000000000000000000000000000000000000000000000000000000\n        /* \"contracts/modules/Calls/Calls.sol\":1731:1770  interfaceId == type(ICalls).interfaceId */\n      not(0xffffffffffffffffffffffffffffffffffffffffffffffffffffffff)\n      and\n        /* \"contracts/modules/Calls/Calls.sol\":1731:1742  interfaceId */\n      dup3\n        /* \"contracts/modules/Calls/Calls.sol\":1731:1770  interfaceId == type(ICalls).interfaceId */\n      not(0xffffffffffffffffffffffffffffffffffffffffffffffffffffffff)\n      and\n      sub\n        /* \"contracts/modules/Calls/Calls.sol\":1727:1798  if (interfaceId == type(ICalls).interfaceId) {... */\n      tag_61\n      jumpi\n        /* \"contracts/modules/Calls/Calls.sol\":1787:1791  true */\n      0x01\n        /* \"contracts/modules/Calls/Calls.sol\":1780:1791  return true */\n      swap1\n      pop\n      jump(tag_60)\n        /* \"contracts/modules/Calls/Calls.sol\":1727:1798  if (interfaceId == type(ICalls).interfaceId) {... */\n    tag_61:\n        /* \"contracts/modules/Calls/Calls.sol\":1811:1847  super.supportsInterface(interfaceId) */\n      tag_62\n        /* \"contracts/modules/Calls/Calls.sol\":1835:1846  interfaceId */\n      dup3\n        /* \"contracts/modules/Calls/Calls.sol\":1811:1834  super.supportsInterface */\n      tag_63\n        /* \"contracts/modules/Calls/Calls.sol\":1811:1847  super.supportsInterface(interfaceId) */\n      jump\t// in\n    tag_62:\n        /* \"contracts/modules/Calls/Calls.sol\":1804:1847  return super.supportsInterface(interfaceId) */\n      swap1\n      pop\n        /* \"contracts/modules/Calls/Calls.sol\":1617:1852  function supportsInterface(bytes4 interfaceId) public view virtual override(Controllers) returns (bool) {... */\n    tag_60:\n      swap2\n      swap1\n      pop\n      jump\t// out\n        /* \"contracts/modules/Controllers/Controllers.sol\":3319:3443  function controllersTotalWeight() external view returns (uint256) {... */\n    tag_21:\n        /* \"contracts/modules/Controllers/Controllers.sol\":3376:3383  uint256 */\n      0x00\n        /* \"contracts/modules/Controllers/Controllers.sol\":3398:3425  ControllersStorage.layout() */\n      tag_65\n        /* \"contracts/modules/Controllers/Controllers.sol\":3398:3423  ControllersStorage.layout */\n      tag_66\n        /* \"contracts/modules/Controllers/Controllers.sol\":3398:3425  ControllersStorage.layout() */\n      jump\t// in\n    tag_65:\n        /* \"contracts/modules/Controllers/Controllers.sol\":3398:3438  ControllersStorage.layout().totalWeights */\n      0x01\n      add\n      sload\n        /* \"contracts/modules/Controllers/Controllers.sol\":3391:3438  return ControllersStorage.layout().totalWeights */\n      swap1\n      pop\n        /* \"contracts/modules/Controllers/Controllers.sol\":3319:3443  function controllersTotalWeight() external view returns (uint256) {... */\n      swap1\n      jump\t// out\n        /* \"contracts/modules/Calls/Calls.sol\":783:1262  function multiExecute(... */\n    tag_27:\n        /* \"contracts/modules/Calls/Calls.sol\":1029:1043  bytes[] memory */\n      0x60\n        /* \"contracts/modules/Calls/Calls.sol\":968:984  _executeRequests */\n      dup5\n      dup5\n        /* \"contracts/modules/Calls/Calls.sol\":986:999  block.chainid */\n      chainid\n        /* \"contracts/modules/Calls/Calls.sol\":957:1000  abi.encode(_executeRequests, block.chainid) */\n      add(0x20, mload(0x40))\n      tag_67\n      swap4\n      swap3\n      swap2\n      swap1\n      tag_68\n      jump\t// in\n    tag_67:\n      mload(0x40)\n      0x20\n      dup2\n      dup4\n      sub\n      sub\n      dup2\n      mstore\n      swap1\n      0x40\n      mstore\n        /* \"contracts/modules/Calls/Calls.sol\":947:1001  keccak256(abi.encode(_executeRequests, block.chainid)) */\n      dup1\n      mload\n      swap1\n      0x20\n      add\n      keccak256\n        /* \"contracts/modules/Calls/Calls.sol\":1003:1014  _signatures */\n      dup4\n      dup4\n        /* \"contracts/modules/Controllers/Controllers.sol\":4470:4483  bool verified */\n      0x00\n        /* \"contracts/modules/Controllers/Controllers.sol\":4485:4504  string memory error */\n      dup1\n        /* \"contracts/modules/Controllers/Controllers.sol\":4508:4571  verifyControllersThresholdBySignatures(_inputHash, _signatures) */\n      tag_70\n        /* \"contracts/modules/Controllers/Controllers.sol\":4547:4557  _inputHash */\n      dup6\n        /* \"contracts/modules/Controllers/Controllers.sol\":4559:4570  _signatures */\n      dup6\n      dup6\n        /* \"contracts/modules/Controllers/Controllers.sol\":4508:4571  verifyControllersThresholdBySignatures(_inputHash, _signatures) */\n      swap1\n      tag_71\n      swap2\n      swap1\n      tag_72\n      jump\t// in\n    tag_71:\n        /* \"contracts/modules/Controllers/Controllers.sol\":4508:4546  verifyControllersThresholdBySignatures */\n      tag_73\n        /* \"contracts/modules/Controllers/Controllers.sol\":4508:4571  verifyControllersThresholdBySignatures(_inputHash, _signatures) */\n      jump\t// in\n    tag_70:\n        /* \"contracts/modules/Controllers/Controllers.sol\":4469:4571  (bool verified, string memory error) = verifyControllersThresholdBySignatures(_inputHash, _signatures) */\n      swap2\n      pop\n      swap2\n      pop\n        /* \"contracts/modules/Controllers/Controllers.sol\":4585:4593  verified */\n      dup2\n        /* \"contracts/modules/Controllers/Controllers.sol\":4595:4600  error */\n      dup2\n        /* \"contracts/modules/Controllers/Controllers.sol\":4577:4601  require(verified, error) */\n      swap1\n      tag_74\n      jumpi\n      mload(0x40)\n      0x08c379a000000000000000000000000000000000000000000000000000000000\n      dup2\n      mstore\n      0x04\n      add\n      tag_75\n      swap2\n      swap1\n      tag_76\n      jump\t// in\n    tag_75:\n      mload(0x40)\n      dup1\n      swap2\n      sub\n      swap1\n      revert\n    tag_74:\n      pop\n        /* \"contracts/modules/Controllers/Controllers.sol\":4617:4626  uint256 i */\n      0x00\n        /* \"contracts/modules/Controllers/Controllers.sol\":4612:4752  for (uint256 i = 0; i < _signatures.length; i++) {... */\n    tag_77:\n        /* \"contracts/modules/Controllers/Controllers.sol\":4636:4647  _signatures */\n      dup5\n      dup5\n        /* \"contracts/modules/Controllers/Controllers.sol\":4636:4654  _signatures.length */\n      swap1\n      pop\n        /* \"contracts/modules/Controllers/Controllers.sol\":4632:4633  i */\n      dup2\n        /* \"contracts/modules/Controllers/Controllers.sol\":4632:4654  i < _signatures.length */\n      lt\n        /* \"contracts/modules/Controllers/Controllers.sol\":4612:4752  for (uint256 i = 0; i < _signatures.length; i++) {... */\n      iszero\n      tag_78\n      jumpi\n        /* \"contracts/modules/Controllers/Controllers.sol\":4741:4745  true */\n      0x01\n        /* \"contracts/modules/Controllers/Controllers.sol\":4669:4696  ControllersStorage.layout() */\n      tag_80\n        /* \"contracts/modules/Controllers/Controllers.sol\":4669:4694  ControllersStorage.layout */\n      tag_66\n        /* \"contracts/modules/Controllers/Controllers.sol\":4669:4696  ControllersStorage.layout() */\n      jump\t// in\n    tag_80:\n        /* \"contracts/modules/Controllers/Controllers.sol\":4669:4711  ControllersStorage.layout().usedSignatures */\n      0x03\n      add\n        /* \"contracts/modules/Controllers/Controllers.sol\":4669:4738  ControllersStorage.layout().usedSignatures[keccak256(_signatures[i])] */\n      0x00\n        /* \"contracts/modules/Controllers/Controllers.sol\":4722:4733  _signatures */\n      dup8\n      dup8\n        /* \"contracts/modules/Controllers/Controllers.sol\":4734:4735  i */\n      dup6\n        /* \"contracts/modules/Controllers/Controllers.sol\":4722:4736  _signatures[i] */\n      dup2\n      dup2\n      lt\n      tag_81\n      jumpi\n      tag_82\n      tag_83\n      jump\t// in\n    tag_82:\n    tag_81:\n      swap1\n      pop\n      0x20\n      mul\n      dup2\n      add\n      swap1\n      tag_84\n      swap2\n      swap1\n      tag_85\n      jump\t// in\n    tag_84:\n        /* \"contracts/modules/Controllers/Controllers.sol\":4712:4737  keccak256(_signatures[i]) */\n      mload(0x40)\n      tag_86\n      swap3\n      swap2\n      swap1\n      tag_87\n      jump\t// in\n    tag_86:\n      mload(0x40)\n      dup1\n      swap2\n      sub\n      swap1\n      keccak256\n        /* \"contracts/modules/Controllers/Controllers.sol\":4669:4738  ControllersStorage.layout().usedSignatures[keccak256(_signatures[i])] */\n      dup2\n      mstore\n      0x20\n      add\n      swap1\n      dup2\n      mstore\n      0x20\n      add\n      0x00\n      keccak256\n      0x00\n        /* \"contracts/modules/Controllers/Controllers.sol\":4669:4745  ControllersStorage.layout().usedSignatures[keccak256(_signatures[i])] = true */\n      0x0100\n      exp\n      dup2\n      sload\n      dup2\n      0xff\n      mul\n      not\n      and\n      swap1\n      dup4\n      iszero\n      iszero\n      mul\n      or\n      swap1\n      sstore\n      pop\n        /* \"contracts/modules/Controllers/Controllers.sol\":4656:4659  i++ */\n      dup1\n      dup1\n      tag_88\n      swap1\n      tag_89\n      jump\t// in\n    tag_88:\n      swap2\n      pop\n      pop\n        /* \"contracts/modules/Controllers/Controllers.sol\":4612:4752  for (uint256 i = 0; i < _signatures.length; i++) {... */\n      jump(tag_77)\n    tag_78:\n      pop\n        /* \"contracts/modules/Calls/Calls.sol\":1053:1075  bytes[] memory results */\n      0x00\n        /* \"contracts/modules/Calls/Calls.sol\":1090:1106  _executeRequests */\n      dup11\n      dup11\n        /* \"contracts/modules/Calls/Calls.sol\":1090:1113  _executeRequests.length */\n      swap1\n      pop\n        /* \"contracts/modules/Calls/Calls.sol\":1078:1114  new bytes[](_executeRequests.length) */\n      0xffffffffffffffff\n      dup2\n      gt\n      iszero\n      tag_91\n      jumpi\n      tag_92\n      tag_93\n      jump\t// in\n    tag_92:\n    tag_91:\n      mload(0x40)\n      swap1\n      dup1\n      dup3\n      mstore\n      dup1\n      0x20\n      mul\n      0x20\n      add\n      dup3\n      add\n      0x40\n      mstore\n      dup1\n      iszero\n      tag_94\n      jumpi\n      dup2\n      0x20\n      add\n    tag_95:\n      0x60\n      dup2\n      mstore\n      0x20\n      add\n      swap1\n      0x01\n      swap1\n      sub\n      swap1\n      dup2\n      tag_95\n      jumpi\n      swap1\n      pop\n    tag_94:\n      pop\n        /* \"contracts/modules/Calls/Calls.sol\":1053:1114  bytes[] memory results = new bytes[](_executeRequests.length) */\n      swap1\n      pop\n        /* \"contracts/modules/Calls/Calls.sol\":1134:1143  uint256 i */\n      0x00\n        /* \"contracts/modules/Calls/Calls.sol\":1129:1237  for (uint256 i = 0; i < _executeRequests.length; i++) {... */\n    tag_96:\n        /* \"contracts/modules/Calls/Calls.sol\":1153:1169  _executeRequests */\n      dup12\n      dup12\n        /* \"contracts/modules/Calls/Calls.sol\":1153:1176  _executeRequests.length */\n      swap1\n      pop\n        /* \"contracts/modules/Calls/Calls.sol\":1149:1150  i */\n      dup2\n        /* \"contracts/modules/Calls/Calls.sol\":1149:1176  i < _executeRequests.length */\n      lt\n        /* \"contracts/modules/Calls/Calls.sol\":1129:1237  for (uint256 i = 0; i < _executeRequests.length; i++) {... */\n      iszero\n      tag_97\n      jumpi\n        /* \"contracts/modules/Calls/Calls.sol\":1204:1230  _call(_executeRequests[i]) */\n      tag_99\n        /* \"contracts/modules/Calls/Calls.sol\":1210:1226  _executeRequests */\n      dup13\n      dup13\n        /* \"contracts/modules/Calls/Calls.sol\":1227:1228  i */\n      dup4\n        /* \"contracts/modules/Calls/Calls.sol\":1210:1229  _executeRequests[i] */\n      dup2\n      dup2\n      lt\n      tag_100\n      jumpi\n      tag_101\n      tag_83\n      jump\t// in\n    tag_101:\n    tag_100:\n      swap1\n      pop\n      0x20\n      mul\n      dup2\n      add\n      swap1\n      tag_102\n      swap2\n      swap1\n      tag_103\n      jump\t// in\n    tag_102:\n        /* \"contracts/modules/Calls/Calls.sol\":1204:1209  _call */\n      tag_104\n        /* \"contracts/modules/Calls/Calls.sol\":1204:1230  _call(_executeRequests[i]) */\n      jump\t// in\n    tag_99:\n        /* \"contracts/modules/Calls/Calls.sol\":1191:1198  results */\n      dup3\n        /* \"contracts/modules/Calls/Calls.sol\":1199:1200  i */\n      dup3\n        /* \"contracts/modules/Calls/Calls.sol\":1191:1201  results[i] */\n      dup2\n      mload\n      dup2\n      lt\n      tag_105\n      jumpi\n      tag_106\n      tag_83\n      jump\t// in\n    tag_106:\n    tag_105:\n      0x20\n      mul\n      0x20\n      add\n      add\n        /* \"contracts/modules/Calls/Calls.sol\":1191:1230  results[i] = _call(_executeRequests[i]) */\n      dup2\n      swap1\n      mstore\n      pop\n        /* \"contracts/modules/Calls/Calls.sol\":1178:1181  i++ */\n      dup1\n      dup1\n      tag_107\n      swap1\n      tag_89\n      jump\t// in\n    tag_107:\n      swap2\n      pop\n      pop\n        /* \"contracts/modules/Calls/Calls.sol\":1129:1237  for (uint256 i = 0; i < _executeRequests.length; i++) {... */\n      jump(tag_96)\n    tag_97:\n      pop\n        /* \"contracts/modules/Calls/Calls.sol\":1250:1257  results */\n      dup1\n        /* \"contracts/modules/Calls/Calls.sol\":1243:1257  return results */\n      swap7\n      pop\n      pop\n        /* \"contracts/modules/Controllers/Controllers.sol\":4463:4764  {... */\n      pop\n      pop\n        /* \"contracts/modules/Calls/Calls.sol\":783:1262  function multiExecute(... */\n      pop\n      pop\n      pop\n      swap5\n      swap4\n      pop\n      pop\n      pop\n      pop\n      jump\t// out\n        /* \"contracts/modules/Controllers/Controllers.sol\":1180:1529  function removeControllers(... */\n    tag_33:\n        /* \"contracts/modules/Controllers/Controllers.sol\":1366:1378  _controllers */\n      dup5\n      dup5\n        /* \"contracts/modules/Controllers/Controllers.sol\":1380:1386  _nonce */\n      dup5\n        /* \"contracts/modules/Controllers/Controllers.sol\":1388:1401  block.chainid */\n      chainid\n        /* \"contracts/modules/Controllers/Controllers.sol\":1355:1402  abi.encode(_controllers, _nonce, block.chainid) */\n      add(0x20, mload(0x40))\n      tag_108\n      swap5\n      swap4\n      swap3\n      swap2\n      swap1\n      tag_109\n      jump\t// in\n    tag_108:\n      mload(0x40)\n      0x20\n      dup2\n      dup4\n      sub\n      sub\n      dup2\n      mstore\n      swap1\n      0x40\n      mstore\n        /* \"contracts/modules/Controllers/Controllers.sol\":1345:1403  keccak256(abi.encode(_controllers, _nonce, block.chainid)) */\n      dup1\n      mload\n      swap1\n      0x20\n      add\n      keccak256\n        /* \"contracts/modules/Controllers/Controllers.sol\":1405:1416  _signatures */\n      dup3\n      dup3\n        /* \"contracts/modules/Controllers/Controllers.sol\":4470:4483  bool verified */\n      0x00\n        /* \"contracts/modules/Controllers/Controllers.sol\":4485:4504  string memory error */\n      dup1\n        /* \"contracts/modules/Controllers/Controllers.sol\":4508:4571  verifyControllersThresholdBySignatures(_inputHash, _signatures) */\n      tag_111\n        /* \"contracts/modules/Controllers/Controllers.sol\":4547:4557  _inputHash */\n      dup6\n        /* \"contracts/modules/Controllers/Controllers.sol\":4559:4570  _signatures */\n      dup6\n      dup6\n        /* \"contracts/modules/Controllers/Controllers.sol\":4508:4571  verifyControllersThresholdBySignatures(_inputHash, _signatures) */\n      swap1\n      tag_112\n      swap2\n      swap1\n      tag_72\n      jump\t// in\n    tag_112:\n        /* \"contracts/modules/Controllers/Controllers.sol\":4508:4546  verifyControllersThresholdBySignatures */\n      tag_73\n        /* \"contracts/modules/Controllers/Controllers.sol\":4508:4571  verifyControllersThresholdBySignatures(_inputHash, _signatures) */\n      jump\t// in\n    tag_111:\n        /* \"contracts/modules/Controllers/Controllers.sol\":4469:4571  (bool verified, string memory error) = verifyControllersThresholdBySignatures(_inputHash, _signatures) */\n      swap2\n      pop\n      swap2\n      pop\n        /* \"contracts/modules/Controllers/Controllers.sol\":4585:4593  verified */\n      dup2\n        /* \"contracts/modules/Controllers/Controllers.sol\":4595:4600  error */\n      dup2\n        /* \"contracts/modules/Controllers/Controllers.sol\":4577:4601  require(verified, error) */\n      swap1\n      tag_113\n      jumpi\n      mload(0x40)\n      0x08c379a000000000000000000000000000000000000000000000000000000000\n      dup2\n      mstore\n      0x04\n      add\n      tag_114\n      swap2\n      swap1\n      tag_76\n      jump\t// in\n    tag_114:\n      mload(0x40)\n      dup1\n      swap2\n      sub\n      swap1\n      revert\n    tag_113:\n      pop\n        /* \"contracts/modules/Controllers/Controllers.sol\":4617:4626  uint256 i */\n      0x00\n        /* \"contracts/modules/Controllers/Controllers.sol\":4612:4752  for (uint256 i = 0; i < _signatures.length; i++) {... */\n    tag_115:\n        /* \"contracts/modules/Controllers/Controllers.sol\":4636:4647  _signatures */\n      dup5\n      dup5\n        /* \"contracts/modules/Controllers/Controllers.sol\":4636:4654  _signatures.length */\n      swap1\n      pop\n        /* \"contracts/modules/Controllers/Controllers.sol\":4632:4633  i */\n      dup2\n        /* \"contracts/modules/Controllers/Controllers.sol\":4632:4654  i < _signatures.length */\n      lt\n        /* \"contracts/modules/Controllers/Controllers.sol\":4612:4752  for (uint256 i = 0; i < _signatures.length; i++) {... */\n      iszero\n      tag_116\n      jumpi\n        /* \"contracts/modules/Controllers/Controllers.sol\":4741:4745  true */\n      0x01\n        /* \"contracts/modules/Controllers/Controllers.sol\":4669:4696  ControllersStorage.layout() */\n      tag_118\n        /* \"contracts/modules/Controllers/Controllers.sol\":4669:4694  ControllersStorage.layout */\n      tag_66\n        /* \"contracts/modules/Controllers/Controllers.sol\":4669:4696  ControllersStorage.layout() */\n      jump\t// in\n    tag_118:\n        /* \"contracts/modules/Controllers/Controllers.sol\":4669:4711  ControllersStorage.layout().usedSignatures */\n      0x03\n      add\n        /* \"contracts/modules/Controllers/Controllers.sol\":4669:4738  ControllersStorage.layout().usedSignatures[keccak256(_signatures[i])] */\n      0x00\n        /* \"contracts/modules/Controllers/Controllers.sol\":4722:4733  _signatures */\n      dup8\n      dup8\n        /* \"contracts/modules/Controllers/Controllers.sol\":4734:4735  i */\n      dup6\n        /* \"contracts/modules/Controllers/Controllers.sol\":4722:4736  _signatures[i] */\n      dup2\n      dup2\n      lt\n      tag_119\n      jumpi\n      tag_120\n      tag_83\n      jump\t// in\n    tag_120:\n    tag_119:\n      swap1\n      pop\n      0x20\n      mul\n      dup2\n      add\n      swap1\n      tag_121\n      swap2\n      swap1\n      tag_85\n      jump\t// in\n    tag_121:\n        /* \"contracts/modules/Controllers/Controllers.sol\":4712:4737  keccak256(_signatures[i]) */\n      mload(0x40)\n      tag_122\n      swap3\n      swap2\n      swap1\n      tag_87\n      jump\t// in\n    tag_122:\n      mload(0x40)\n      dup1\n      swap2\n      sub\n      swap1\n      keccak256\n        /* \"contracts/modules/Controllers/Controllers.sol\":4669:4738  ControllersStorage.layout().usedSignatures[keccak256(_signatures[i])] */\n      dup2\n      mstore\n      0x20\n      add\n      swap1\n      dup2\n      mstore\n      0x20\n      add\n      0x00\n      keccak256\n      0x00\n        /* \"contracts/modules/Controllers/Controllers.sol\":4669:4745  ControllersStorage.layout().usedSignatures[keccak256(_signatures[i])] = true */\n      0x0100\n      exp\n      dup2\n      sload\n      dup2\n      0xff\n      mul\n      not\n      and\n      swap1\n      dup4\n      iszero\n      iszero\n      mul\n      or\n      swap1\n      sstore\n      pop\n        /* \"contracts/modules/Controllers/Controllers.sol\":4656:4659  i++ */\n      dup1\n      dup1\n      tag_123\n      swap1\n      tag_89\n      jump\t// in\n    tag_123:\n      swap2\n      pop\n      pop\n        /* \"contracts/modules/Controllers/Controllers.sol\":4612:4752  for (uint256 i = 0; i < _signatures.length; i++) {... */\n      jump(tag_115)\n    tag_116:\n      pop\n        /* \"contracts/modules/Controllers/Controllers.sol\":1431:1440  uint256 i */\n      0x00\n        /* \"contracts/modules/Controllers/Controllers.sol\":1426:1525  for (uint256 i = 0; i < _controllers.length; i++) {... */\n    tag_125:\n        /* \"contracts/modules/Controllers/Controllers.sol\":1450:1462  _controllers */\n      dup11\n      dup11\n        /* \"contracts/modules/Controllers/Controllers.sol\":1450:1469  _controllers.length */\n      swap1\n      pop\n        /* \"contracts/modules/Controllers/Controllers.sol\":1446:1447  i */\n      dup2\n        /* \"contracts/modules/Controllers/Controllers.sol\":1446:1469  i < _controllers.length */\n      lt\n        /* \"contracts/modules/Controllers/Controllers.sol\":1426:1525  for (uint256 i = 0; i < _controllers.length; i++) {... */\n      iszero\n      tag_126\n      jumpi\n        /* \"contracts/modules/Controllers/Controllers.sol\":1484:1518  _removeController(_controllers[i]) */\n      tag_128\n        /* \"contracts/modules/Controllers/Controllers.sol\":1502:1514  _controllers */\n      dup12\n      dup12\n        /* \"contracts/modules/Controllers/Controllers.sol\":1515:1516  i */\n      dup4\n        /* \"contracts/modules/Controllers/Controllers.sol\":1502:1517  _controllers[i] */\n      dup2\n      dup2\n      lt\n      tag_129\n      jumpi\n      tag_130\n      tag_83\n      jump\t// in\n    tag_130:\n    tag_129:\n      swap1\n      pop\n      0x20\n      mul\n      add\n      0x20\n      dup2\n      add\n      swap1\n      tag_131\n      swap2\n      swap1\n      tag_57\n      jump\t// in\n    tag_131:\n        /* \"contracts/modules/Controllers/Controllers.sol\":1484:1501  _removeController */\n      tag_132\n        /* \"contracts/modules/Controllers/Controllers.sol\":1484:1518  _removeController(_controllers[i]) */\n      jump\t// in\n    tag_128:\n        /* \"contracts/modules/Controllers/Controllers.sol\":1471:1474  i++ */\n      dup1\n      dup1\n      tag_133\n      swap1\n      tag_89\n      jump\t// in\n    tag_133:\n      swap2\n      pop\n      pop\n        /* \"contracts/modules/Controllers/Controllers.sol\":1426:1525  for (uint256 i = 0; i < _controllers.length; i++) {... */\n      jump(tag_125)\n    tag_126:\n      pop\n        /* \"contracts/modules/Controllers/Controllers.sol\":4463:4764  {... */\n      pop\n      pop\n        /* \"contracts/modules/Controllers/Controllers.sol\":1180:1529  function removeControllers(... */\n      pop\n      pop\n      pop\n      pop\n      pop\n      pop\n      pop\n      pop\n      jump\t// out\n        /* \"contracts/modules/Controllers/Controllers.sol\":1932:2385  function updateControlThreshold(... */\n    tag_37:\n        /* \"contracts/modules/Controllers/Controllers.sol\":2110:2120  _threshold */\n      dup4\n        /* \"contracts/modules/Controllers/Controllers.sol\":2122:2128  _nonce */\n      dup4\n        /* \"contracts/modules/Controllers/Controllers.sol\":2130:2143  block.chainid */\n      chainid\n        /* \"contracts/modules/Controllers/Controllers.sol\":2099:2144  abi.encode(_threshold, _nonce, block.chainid) */\n      add(0x20, mload(0x40))\n      tag_134\n      swap4\n      swap3\n      swap2\n      swap1\n      tag_135\n      jump\t// in\n    tag_134:\n      mload(0x40)\n      0x20\n      dup2\n      dup4\n      sub\n      sub\n      dup2\n      mstore\n      swap1\n      0x40\n      mstore\n        /* \"contracts/modules/Controllers/Controllers.sol\":2089:2145  keccak256(abi.encode(_threshold, _nonce, block.chainid)) */\n      dup1\n      mload\n      swap1\n      0x20\n      add\n      keccak256\n        /* \"contracts/modules/Controllers/Controllers.sol\":2147:2158  _signatures */\n      dup3\n      dup3\n        /* \"contracts/modules/Controllers/Controllers.sol\":4470:4483  bool verified */\n      0x00\n        /* \"contracts/modules/Controllers/Controllers.sol\":4485:4504  string memory error */\n      dup1\n        /* \"contracts/modules/Controllers/Controllers.sol\":4508:4571  verifyControllersThresholdBySignatures(_inputHash, _signatures) */\n      tag_137\n        /* \"contracts/modules/Controllers/Controllers.sol\":4547:4557  _inputHash */\n      dup6\n        /* \"contracts/modules/Controllers/Controllers.sol\":4559:4570  _signatures */\n      dup6\n      dup6\n        /* \"contracts/modules/Controllers/Controllers.sol\":4508:4571  verifyControllersThresholdBySignatures(_inputHash, _signatures) */\n      swap1\n      tag_138\n      swap2\n      swap1\n      tag_72\n      jump\t// in\n    tag_138:\n        /* \"contracts/modules/Controllers/Controllers.sol\":4508:4546  verifyControllersThresholdBySignatures */\n      tag_73\n        /* \"contracts/modules/Controllers/Controllers.sol\":4508:4571  verifyControllersThresholdBySignatures(_inputHash, _signatures) */\n      jump\t// in\n    tag_137:\n        /* \"contracts/modules/Controllers/Controllers.sol\":4469:4571  (bool verified, string memory error) = verifyControllersThresholdBySignatures(_inputHash, _signatures) */\n      swap2\n      pop\n      swap2\n      pop\n        /* \"contracts/modules/Controllers/Controllers.sol\":4585:4593  verified */\n      dup2\n        /* \"contracts/modules/Controllers/Controllers.sol\":4595:4600  error */\n      dup2\n        /* \"contracts/modules/Controllers/Controllers.sol\":4577:4601  require(verified, error) */\n      swap1\n      tag_139\n      jumpi\n      mload(0x40)\n      0x08c379a000000000000000000000000000000000000000000000000000000000\n      dup2\n      mstore\n      0x04\n      add\n      tag_140\n      swap2\n      swap1\n      tag_76\n      jump\t// in\n    tag_140:\n      mload(0x40)\n      dup1\n      swap2\n      sub\n      swap1\n      revert\n    tag_139:\n      pop\n        /* \"contracts/modules/Controllers/Controllers.sol\":4617:4626  uint256 i */\n      0x00\n        /* \"contracts/modules/Controllers/Controllers.sol\":4612:4752  for (uint256 i = 0; i < _signatures.length; i++) {... */\n    tag_141:\n        /* \"contracts/modules/Controllers/Controllers.sol\":4636:4647  _signatures */\n      dup5\n      dup5\n        /* \"contracts/modules/Controllers/Controllers.sol\":4636:4654  _signatures.length */\n      swap1\n      pop\n        /* \"contracts/modules/Controllers/Controllers.sol\":4632:4633  i */\n      dup2\n        /* \"contracts/modules/Controllers/Controllers.sol\":4632:4654  i < _signatures.length */\n      lt\n        /* \"contracts/modules/Controllers/Controllers.sol\":4612:4752  for (uint256 i = 0; i < _signatures.length; i++) {... */\n      iszero\n      tag_142\n      jumpi\n        /* \"contracts/modules/Controllers/Controllers.sol\":4741:4745  true */\n      0x01\n        /* \"contracts/modules/Controllers/Controllers.sol\":4669:4696  ControllersStorage.layout() */\n      tag_144\n        /* \"contracts/modules/Controllers/Controllers.sol\":4669:4694  ControllersStorage.layout */\n      tag_66\n        /* \"contracts/modules/Controllers/Controllers.sol\":4669:4696  ControllersStorage.layout() */\n      jump\t// in\n    tag_144:\n        /* \"contracts/modules/Controllers/Controllers.sol\":4669:4711  ControllersStorage.layout().usedSignatures */\n      0x03\n      add\n        /* \"contracts/modules/Controllers/Controllers.sol\":4669:4738  ControllersStorage.layout().usedSignatures[keccak256(_signatures[i])] */\n      0x00\n        /* \"contracts/modules/Controllers/Controllers.sol\":4722:4733  _signatures */\n      dup8\n      dup8\n        /* \"contracts/modules/Controllers/Controllers.sol\":4734:4735  i */\n      dup6\n        /* \"contracts/modules/Controllers/Controllers.sol\":4722:4736  _signatures[i] */\n      dup2\n      dup2\n      lt\n      tag_145\n      jumpi\n      tag_146\n      tag_83\n      jump\t// in\n    tag_146:\n    tag_145:\n      swap1\n      pop\n      0x20\n      mul\n      dup2\n      add\n      swap1\n      tag_147\n      swap2\n      swap1\n      tag_85\n      jump\t// in\n    tag_147:\n        /* \"contracts/modules/Controllers/Controllers.sol\":4712:4737  keccak256(_signatures[i]) */\n      mload(0x40)\n      tag_148\n      swap3\n      swap2\n      swap1\n      tag_87\n      jump\t// in\n    tag_148:\n      mload(0x40)\n      dup1\n      swap2\n      sub\n      swap1\n      keccak256\n        /* \"contracts/modules/Controllers/Controllers.sol\":4669:4738  ControllersStorage.layout().usedSignatures[keccak256(_signatures[i])] */\n      dup2\n      mstore\n      0x20\n      add\n      swap1\n      dup2\n      mstore\n      0x20\n      add\n      0x00\n      keccak256\n      0x00\n        /* \"contracts/modules/Controllers/Controllers.sol\":4669:4745  ControllersStorage.layout().usedSignatures[keccak256(_signatures[i])] = true */\n      0x0100\n      exp\n      dup2\n      sload\n      dup2\n      0xff\n      mul\n      not\n      and\n      swap1\n      dup4\n      iszero\n      iszero\n      mul\n      or\n      swap1\n      sstore\n      pop\n        /* \"contracts/modules/Controllers/Controllers.sol\":4656:4659  i++ */\n      dup1\n      dup1\n      tag_149\n      swap1\n      tag_89\n      jump\t// in\n    tag_149:\n      swap2\n      pop\n      pop\n        /* \"contracts/modules/Controllers/Controllers.sol\":4612:4752  for (uint256 i = 0; i < _signatures.length; i++) {... */\n      jump(tag_141)\n    tag_142:\n      pop\n        /* \"contracts/modules/Controllers/Controllers.sol\":2216:2217  0 */\n      0x00\n        /* \"contracts/modules/Controllers/Controllers.sol\":2176:2203  ControllersStorage.layout() */\n      tag_151\n        /* \"contracts/modules/Controllers/Controllers.sol\":2176:2201  ControllersStorage.layout */\n      tag_66\n        /* \"contracts/modules/Controllers/Controllers.sol\":2176:2203  ControllersStorage.layout() */\n      jump\t// in\n    tag_151:\n        /* \"contracts/modules/Controllers/Controllers.sol\":2176:2213  ControllersStorage.layout().threshold */\n      0x00\n      add\n      sload\n        /* \"contracts/modules/Controllers/Controllers.sol\":2176:2217  ControllersStorage.layout().threshold > 0 */\n      gt\n        /* \"contracts/modules/Controllers/Controllers.sol\":2176:2302  ControllersStorage.layout().threshold > 0 && ControllersStorage.layout().threshold <= ControllersStorage.layout().totalWeights */\n      dup1\n      iszero\n      tag_152\n      jumpi\n      pop\n        /* \"contracts/modules/Controllers/Controllers.sol\":2262:2289  ControllersStorage.layout() */\n      tag_153\n        /* \"contracts/modules/Controllers/Controllers.sol\":2262:2287  ControllersStorage.layout */\n      tag_66\n        /* \"contracts/modules/Controllers/Controllers.sol\":2262:2289  ControllersStorage.layout() */\n      jump\t// in\n    tag_153:\n        /* \"contracts/modules/Controllers/Controllers.sol\":2262:2302  ControllersStorage.layout().totalWeights */\n      0x01\n      add\n      sload\n        /* \"contracts/modules/Controllers/Controllers.sol\":2221:2248  ControllersStorage.layout() */\n      tag_154\n        /* \"contracts/modules/Controllers/Controllers.sol\":2221:2246  ControllersStorage.layout */\n      tag_66\n        /* \"contracts/modules/Controllers/Controllers.sol\":2221:2248  ControllersStorage.layout() */\n      jump\t// in\n    tag_154:\n        /* \"contracts/modules/Controllers/Controllers.sol\":2221:2258  ControllersStorage.layout().threshold */\n      0x00\n      add\n      sload\n        /* \"contracts/modules/Controllers/Controllers.sol\":2221:2302  ControllersStorage.layout().threshold <= ControllersStorage.layout().totalWeights */\n      gt\n      iszero\n        /* \"contracts/modules/Controllers/Controllers.sol\":2176:2302  ControllersStorage.layout().threshold > 0 && ControllersStorage.layout().threshold <= ControllersStorage.layout().totalWeights */\n    tag_152:\n        /* \"contracts/modules/Controllers/Controllers.sol\":2168:2324  require(ControllersStorage.layout().threshold > 0 && ControllersStorage.layout().threshold <= ControllersStorage.layout().totalWeights, \"Invalid threshold\") */\n      tag_155\n      jumpi\n      mload(0x40)\n      0x08c379a000000000000000000000000000000000000000000000000000000000\n      dup2\n      mstore\n      0x04\n      add\n      tag_156\n      swap1\n      tag_157\n      jump\t// in\n    tag_156:\n      mload(0x40)\n      dup1\n      swap2\n      sub\n      swap1\n      revert\n    tag_155:\n        /* \"contracts/modules/Controllers/Controllers.sol\":2370:2380  _threshold */\n      dup9\n        /* \"contracts/modules/Controllers/Controllers.sol\":2330:2357  ControllersStorage.layout() */\n      tag_158\n        /* \"contracts/modules/Controllers/Controllers.sol\":2330:2355  ControllersStorage.layout */\n      tag_66\n        /* \"contracts/modules/Controllers/Controllers.sol\":2330:2357  ControllersStorage.layout() */\n      jump\t// in\n    tag_158:\n        /* \"contracts/modules/Controllers/Controllers.sol\":2330:2367  ControllersStorage.layout().threshold */\n      0x00\n      add\n        /* \"contracts/modules/Controllers/Controllers.sol\":2330:2380  ControllersStorage.layout().threshold = _threshold */\n      dup2\n      swap1\n      sstore\n      pop\n        /* \"contracts/modules/Controllers/Controllers.sol\":4463:4764  {... */\n      pop\n      pop\n        /* \"contracts/modules/Controllers/Controllers.sol\":1932:2385  function updateControlThreshold(... */\n      pop\n      pop\n      pop\n      pop\n      pop\n      pop\n      pop\n      jump\t// out\n        /* \"contracts/modules/Calls/Calls.sol\":451:779  function execute( // todo: should be eip712 sigs?... */\n    tag_41:\n        /* \"contracts/modules/Calls/Calls.sol\":722:734  bytes memory */\n      0x60\n        /* \"contracts/modules/Calls/Calls.sol\":661:676  _executeRequest */\n      dup4\n        /* \"contracts/modules/Calls/Calls.sol\":678:691  block.chainid */\n      chainid\n        /* \"contracts/modules/Calls/Calls.sol\":650:692  abi.encode(_executeRequest, block.chainid) */\n      add(0x20, mload(0x40))\n      tag_159\n      swap3\n      swap2\n      swap1\n      tag_160\n      jump\t// in\n    tag_159:\n      mload(0x40)\n      0x20\n      dup2\n      dup4\n      sub\n      sub\n      dup2\n      mstore\n      swap1\n      0x40\n      mstore\n        /* \"contracts/modules/Calls/Calls.sol\":640:693  keccak256(abi.encode(_executeRequest, block.chainid)) */\n      dup1\n      mload\n      swap1\n      0x20\n      add\n      keccak256\n        /* \"contracts/modules/Calls/Calls.sol\":695:706  _signatures */\n      dup4\n      dup4\n        /* \"contracts/modules/Controllers/Controllers.sol\":4470:4483  bool verified */\n      0x00\n        /* \"contracts/modules/Controllers/Controllers.sol\":4485:4504  string memory error */\n      dup1\n        /* \"contracts/modules/Controllers/Controllers.sol\":4508:4571  verifyControllersThresholdBySignatures(_inputHash, _signatures) */\n      tag_162\n        /* \"contracts/modules/Controllers/Controllers.sol\":4547:4557  _inputHash */\n      dup6\n        /* \"contracts/modules/Controllers/Controllers.sol\":4559:4570  _signatures */\n      dup6\n      dup6\n        /* \"contracts/modules/Controllers/Controllers.sol\":4508:4571  verifyControllersThresholdBySignatures(_inputHash, _signatures) */\n      swap1\n      tag_163\n      swap2\n      swap1\n      tag_72\n      jump\t// in\n    tag_163:\n        /* \"contracts/modules/Controllers/Controllers.sol\":4508:4546  verifyControllersThresholdBySignatures */\n      tag_73\n        /* \"contracts/modules/Controllers/Controllers.sol\":4508:4571  verifyControllersThresholdBySignatures(_inputHash, _signatures) */\n      jump\t// in\n    tag_162:\n        /* \"contracts/modules/Controllers/Controllers.sol\":4469:4571  (bool verified, string memory error) = verifyControllersThresholdBySignatures(_inputHash, _signatures) */\n      swap2\n      pop\n      swap2\n      pop\n        /* \"contracts/modules/Controllers/Controllers.sol\":4585:4593  verified */\n      dup2\n        /* \"contracts/modules/Controllers/Controllers.sol\":4595:4600  error */\n      dup2\n        /* \"contracts/modules/Controllers/Controllers.sol\":4577:4601  require(verified, error) */\n      swap1\n      tag_164\n      jumpi\n      mload(0x40)\n      0x08c379a000000000000000000000000000000000000000000000000000000000\n      dup2\n      mstore\n      0x04\n      add\n      tag_165\n      swap2\n      swap1\n      tag_76\n      jump\t// in\n    tag_165:\n      mload(0x40)\n      dup1\n      swap2\n      sub\n      swap1\n      revert\n    tag_164:\n      pop\n        /* \"contracts/modules/Controllers/Controllers.sol\":4617:4626  uint256 i */\n      0x00\n        /* \"contracts/modules/Controllers/Controllers.sol\":4612:4752  for (uint256 i = 0; i < _signatures.length; i++) {... */\n    tag_166:\n        /* \"contracts/modules/Controllers/Controllers.sol\":4636:4647  _signatures */\n      dup5\n      dup5\n        /* \"contracts/modules/Controllers/Controllers.sol\":4636:4654  _signatures.length */\n      swap1\n      pop\n        /* \"contracts/modules/Controllers/Controllers.sol\":4632:4633  i */\n      dup2\n        /* \"contracts/modules/Controllers/Controllers.sol\":4632:4654  i < _signatures.length */\n      lt\n        /* \"contracts/modules/Controllers/Controllers.sol\":4612:4752  for (uint256 i = 0; i < _signatures.length; i++) {... */\n      iszero\n      tag_167\n      jumpi\n        /* \"contracts/modules/Controllers/Controllers.sol\":4741:4745  true */\n      0x01\n        /* \"contracts/modules/Controllers/Controllers.sol\":4669:4696  ControllersStorage.layout() */\n      tag_169\n        /* \"contracts/modules/Controllers/Controllers.sol\":4669:4694  ControllersStorage.layout */\n      tag_66\n        /* \"contracts/modules/Controllers/Controllers.sol\":4669:4696  ControllersStorage.layout() */\n      jump\t// in\n    tag_169:\n        /* \"contracts/modules/Controllers/Controllers.sol\":4669:4711  ControllersStorage.layout().usedSignatures */\n      0x03\n      add\n        /* \"contracts/modules/Controllers/Controllers.sol\":4669:4738  ControllersStorage.layout().usedSignatures[keccak256(_signatures[i])] */\n      0x00\n        /* \"contracts/modules/Controllers/Controllers.sol\":4722:4733  _signatures */\n      dup8\n      dup8\n        /* \"contracts/modules/Controllers/Controllers.sol\":4734:4735  i */\n      dup6\n        /* \"contracts/modules/Controllers/Controllers.sol\":4722:4736  _signatures[i] */\n      dup2\n      dup2\n      lt\n      tag_170\n      jumpi\n      tag_171\n      tag_83\n      jump\t// in\n    tag_171:\n    tag_170:\n      swap1\n      pop\n      0x20\n      mul\n      dup2\n      add\n      swap1\n      tag_172\n      swap2\n      swap1\n      tag_85\n      jump\t// in\n    tag_172:\n        /* \"contracts/modules/Controllers/Controllers.sol\":4712:4737  keccak256(_signatures[i]) */\n      mload(0x40)\n      tag_173\n      swap3\n      swap2\n      swap1\n      tag_87\n      jump\t// in\n    tag_173:\n      mload(0x40)\n      dup1\n      swap2\n      sub\n      swap1\n      keccak256\n        /* \"contracts/modules/Controllers/Controllers.sol\":4669:4738  ControllersStorage.layout().usedSignatures[keccak256(_signatures[i])] */\n      dup2\n      mstore\n      0x20\n      add\n      swap1\n      dup2\n      mstore\n      0x20\n      add\n      0x00\n      keccak256\n      0x00\n        /* \"contracts/modules/Controllers/Controllers.sol\":4669:4745  ControllersStorage.layout().usedSignatures[keccak256(_signatures[i])] = true */\n      0x0100\n      exp\n      dup2\n      sload\n      dup2\n      0xff\n      mul\n      not\n      and\n      swap1\n      dup4\n      iszero\n      iszero\n      mul\n      or\n      swap1\n      sstore\n      pop\n        /* \"contracts/modules/Controllers/Controllers.sol\":4656:4659  i++ */\n      dup1\n      dup1\n      tag_174\n      swap1\n      tag_89\n      jump\t// in\n    tag_174:\n      swap2\n      pop\n      pop\n        /* \"contracts/modules/Controllers/Controllers.sol\":4612:4752  for (uint256 i = 0; i < _signatures.length; i++) {... */\n      jump(tag_166)\n    tag_167:\n      pop\n        /* \"contracts/modules/Calls/Calls.sol\":752:774  _call(_executeRequest) */\n      tag_176\n        /* \"contracts/modules/Calls/Calls.sol\":758:773  _executeRequest */\n      dup10\n        /* \"contracts/modules/Calls/Calls.sol\":752:757  _call */\n      tag_104\n        /* \"contracts/modules/Calls/Calls.sol\":752:774  _call(_executeRequest) */\n      jump\t// in\n    tag_176:\n        /* \"contracts/modules/Calls/Calls.sol\":745:774  return _call(_executeRequest) */\n      swap6\n      pop\n        /* \"contracts/modules/Controllers/Controllers.sol\":4463:4764  {... */\n      pop\n      pop\n        /* \"contracts/modules/Calls/Calls.sol\":451:779  function execute( // todo: should be eip712 sigs?... */\n      pop\n      pop\n      pop\n      swap4\n      swap3\n      pop\n      pop\n      pop\n      jump\t// out\n        /* \"contracts/modules/Controllers/Controllers.sol\":3052:3167  function controlThreshold() external view returns (uint256) {... */\n    tag_45:\n        /* \"contracts/modules/Controllers/Controllers.sol\":3103:3110  uint256 */\n      0x00\n        /* \"contracts/modules/Controllers/Controllers.sol\":3125:3152  ControllersStorage.layout() */\n      tag_178\n        /* \"contracts/modules/Controllers/Controllers.sol\":3125:3150  ControllersStorage.layout */\n      tag_66\n        /* \"contracts/modules/Controllers/Controllers.sol\":3125:3152  ControllersStorage.layout() */\n      jump\t// in\n    tag_178:\n        /* \"contracts/modules/Controllers/Controllers.sol\":3125:3162  ControllersStorage.layout().threshold */\n      0x00\n      add\n      sload\n        /* \"contracts/modules/Controllers/Controllers.sol\":3118:3162  return ControllersStorage.layout().threshold */\n      swap1\n      pop\n        /* \"contracts/modules/Controllers/Controllers.sol\":3052:3167  function controlThreshold() external view returns (uint256) {... */\n      swap1\n      jump\t// out\n        /* \"contracts/modules/Controllers/Controllers.sol\":569:971  function addControllers(... */\n    tag_50:\n        /* \"contracts/modules/Controllers/Controllers.sol\":787:799  _controllers */\n      dup7\n      dup7\n        /* \"contracts/modules/Controllers/Controllers.sol\":801:809  _weights */\n      dup7\n      dup7\n        /* \"contracts/modules/Controllers/Controllers.sol\":811:817  _nonce */\n      dup7\n        /* \"contracts/modules/Controllers/Controllers.sol\":819:832  block.chainid */\n      chainid\n        /* \"contracts/modules/Controllers/Controllers.sol\":776:833  abi.encode(_controllers, _weights, _nonce, block.chainid) */\n      add(0x20, mload(0x40))\n      tag_179\n      swap7\n      swap6\n      swap5\n      swap4\n      swap3\n      swap2\n      swap1\n      tag_180\n      jump\t// in\n    tag_179:\n      mload(0x40)\n      0x20\n      dup2\n      dup4\n      sub\n      sub\n      dup2\n      mstore\n      swap1\n      0x40\n      mstore\n        /* \"contracts/modules/Controllers/Controllers.sol\":766:834  keccak256(abi.encode(_controllers, _weights, _nonce, block.chainid)) */\n      dup1\n      mload\n      swap1\n      0x20\n      add\n      keccak256\n        /* \"contracts/modules/Controllers/Controllers.sol\":836:847  _signatures */\n      dup3\n      dup3\n        /* \"contracts/modules/Controllers/Controllers.sol\":4470:4483  bool verified */\n      0x00\n        /* \"contracts/modules/Controllers/Controllers.sol\":4485:4504  string memory error */\n      dup1\n        /* \"contracts/modules/Controllers/Controllers.sol\":4508:4571  verifyControllersThresholdBySignatures(_inputHash, _signatures) */\n      tag_182\n        /* \"contracts/modules/Controllers/Controllers.sol\":4547:4557  _inputHash */\n      dup6\n        /* \"contracts/modules/Controllers/Controllers.sol\":4559:4570  _signatures */\n      dup6\n      dup6\n        /* \"contracts/modules/Controllers/Controllers.sol\":4508:4571  verifyControllersThresholdBySignatures(_inputHash, _signatures) */\n      swap1\n      tag_183\n      swap2\n      swap1\n      tag_72\n      jump\t// in\n    tag_183:\n        /* \"contracts/modules/Controllers/Controllers.sol\":4508:4546  verifyControllersThresholdBySignatures */\n      tag_73\n        /* \"contracts/modules/Controllers/Controllers.sol\":4508:4571  verifyControllersThresholdBySignatures(_inputHash, _signatures) */\n      jump\t// in\n    tag_182:\n        /* \"contracts/modules/Controllers/Controllers.sol\":4469:4571  (bool verified, string memory error) = verifyControllersThresholdBySignatures(_inputHash, _signatures) */\n      swap2\n      pop\n      swap2\n      pop\n        /* \"contracts/modules/Controllers/Controllers.sol\":4585:4593  verified */\n      dup2\n        /* \"contracts/modules/Controllers/Controllers.sol\":4595:4600  error */\n      dup2\n        /* \"contracts/modules/Controllers/Controllers.sol\":4577:4601  require(verified, error) */\n      swap1\n      tag_184\n      jumpi\n      mload(0x40)\n      0x08c379a000000000000000000000000000000000000000000000000000000000\n      dup2\n      mstore\n      0x04\n      add\n      tag_185\n      swap2\n      swap1\n      tag_76\n      jump\t// in\n    tag_185:\n      mload(0x40)\n      dup1\n      swap2\n      sub\n      swap1\n      revert\n    tag_184:\n      pop\n        /* \"contracts/modules/Controllers/Controllers.sol\":4617:4626  uint256 i */\n      0x00\n        /* \"contracts/modules/Controllers/Controllers.sol\":4612:4752  for (uint256 i = 0; i < _signatures.length; i++) {... */\n    tag_186:\n        /* \"contracts/modules/Controllers/Controllers.sol\":4636:4647  _signatures */\n      dup5\n      dup5\n        /* \"contracts/modules/Controllers/Controllers.sol\":4636:4654  _signatures.length */\n      swap1\n      pop\n        /* \"contracts/modules/Controllers/Controllers.sol\":4632:4633  i */\n      dup2\n        /* \"contracts/modules/Controllers/Controllers.sol\":4632:4654  i < _signatures.length */\n      lt\n        /* \"contracts/modules/Controllers/Controllers.sol\":4612:4752  for (uint256 i = 0; i < _signatures.length; i++) {... */\n      iszero\n      tag_187\n      jumpi\n        /* \"contracts/modules/Controllers/Controllers.sol\":4741:4745  true */\n      0x01\n        /* \"contracts/modules/Controllers/Controllers.sol\":4669:4696  ControllersStorage.layout() */\n      tag_189\n        /* \"contracts/modules/Controllers/Controllers.sol\":4669:4694  ControllersStorage.layout */\n      tag_66\n        /* \"contracts/modules/Controllers/Controllers.sol\":4669:4696  ControllersStorage.layout() */\n      jump\t// in\n    tag_189:\n        /* \"contracts/modules/Controllers/Controllers.sol\":4669:4711  ControllersStorage.layout().usedSignatures */\n      0x03\n      add\n        /* \"contracts/modules/Controllers/Controllers.sol\":4669:4738  ControllersStorage.layout().usedSignatures[keccak256(_signatures[i])] */\n      0x00\n        /* \"contracts/modules/Controllers/Controllers.sol\":4722:4733  _signatures */\n      dup8\n      dup8\n        /* \"contracts/modules/Controllers/Controllers.sol\":4734:4735  i */\n      dup6\n        /* \"contracts/modules/Controllers/Controllers.sol\":4722:4736  _signatures[i] */\n      dup2\n      dup2\n      lt\n      tag_190\n      jumpi\n      tag_191\n      tag_83\n      jump\t// in\n    tag_191:\n    tag_190:\n      swap1\n      pop\n      0x20\n      mul\n      dup2\n      add\n      swap1\n      tag_192\n      swap2\n      swap1\n      tag_85\n      jump\t// in\n    tag_192:\n        /* \"contracts/modules/Controllers/Controllers.sol\":4712:4737  keccak256(_signatures[i]) */\n      mload(0x40)\n      tag_193\n      swap3\n      swap2\n      swap1\n      tag_87\n      jump\t// in\n    tag_193:\n      mload(0x40)\n      dup1\n      swap2\n      sub\n      swap1\n      keccak256\n        /* \"contracts/modules/Controllers/Controllers.sol\":4669:4738  ControllersStorage.layout().usedSignatures[keccak256(_signatures[i])] */\n      dup2\n      mstore\n      0x20\n      add\n      swap1\n      dup2\n      mstore\n      0x20\n      add\n      0x00\n      keccak256\n      0x00\n        /* \"contracts/modules/Controllers/Controllers.sol\":4669:4745  ControllersStorage.layout().usedSignatures[keccak256(_signatures[i])] = true */\n      0x0100\n      exp\n      dup2\n      sload\n      dup2\n      0xff\n      mul\n      not\n      and\n      swap1\n      dup4\n      iszero\n      iszero\n      mul\n      or\n      swap1\n      sstore\n      pop\n        /* \"contracts/modules/Controllers/Controllers.sol\":4656:4659  i++ */\n      dup1\n      dup1\n      tag_194\n      swap1\n      tag_89\n      jump\t// in\n    tag_194:\n      swap2\n      pop\n      pop\n        /* \"contracts/modules/Controllers/Controllers.sol\":4612:4752  for (uint256 i = 0; i < _signatures.length; i++) {... */\n      jump(tag_186)\n    tag_187:\n      pop\n        /* \"contracts/modules/Controllers/Controllers.sol\":863:872  uint256 i */\n      0x00\n        /* \"contracts/modules/Controllers/Controllers.sol\":858:967  for (uint256 i = 0; i < _controllers.length; i++) {... */\n    tag_196:\n        /* \"contracts/modules/Controllers/Controllers.sol\":882:894  _controllers */\n      dup13\n      dup13\n        /* \"contracts/modules/Controllers/Controllers.sol\":882:901  _controllers.length */\n      swap1\n      pop\n        /* \"contracts/modules/Controllers/Controllers.sol\":878:879  i */\n      dup2\n        /* \"contracts/modules/Controllers/Controllers.sol\":878:901  i < _controllers.length */\n      lt\n        /* \"contracts/modules/Controllers/Controllers.sol\":858:967  for (uint256 i = 0; i < _controllers.length; i++) {... */\n      iszero\n      tag_197\n      jumpi\n        /* \"contracts/modules/Controllers/Controllers.sol\":916:960  _addController(_controllers[i], _weights[i]) */\n      tag_199\n        /* \"contracts/modules/Controllers/Controllers.sol\":931:943  _controllers */\n      dup14\n      dup14\n        /* \"contracts/modules/Controllers/Controllers.sol\":944:945  i */\n      dup4\n        /* \"contracts/modules/Controllers/Controllers.sol\":931:946  _controllers[i] */\n      dup2\n      dup2\n      lt\n      tag_200\n      jumpi\n      tag_201\n      tag_83\n      jump\t// in\n    tag_201:\n    tag_200:\n      swap1\n      pop\n      0x20\n      mul\n      add\n      0x20\n      dup2\n      add\n      swap1\n      tag_202\n      swap2\n      swap1\n      tag_57\n      jump\t// in\n    tag_202:\n        /* \"contracts/modules/Controllers/Controllers.sol\":948:956  _weights */\n      dup13\n      dup13\n        /* \"contracts/modules/Controllers/Controllers.sol\":957:958  i */\n      dup5\n        /* \"contracts/modules/Controllers/Controllers.sol\":948:959  _weights[i] */\n      dup2\n      dup2\n      lt\n      tag_203\n      jumpi\n      tag_204\n      tag_83\n      jump\t// in\n    tag_204:\n    tag_203:\n      swap1\n      pop\n      0x20\n      mul\n      add\n      calldataload\n        /* \"contracts/modules/Controllers/Controllers.sol\":916:930  _addController */\n      tag_205\n        /* \"contracts/modules/Controllers/Controllers.sol\":916:960  _addController(_controllers[i], _weights[i]) */\n      jump\t// in\n    tag_199:\n        /* \"contracts/modules/Controllers/Controllers.sol\":903:906  i++ */\n      dup1\n      dup1\n      tag_206\n      swap1\n      tag_89\n      jump\t// in\n    tag_206:\n      swap2\n      pop\n      pop\n        /* \"contracts/modules/Controllers/Controllers.sol\":858:967  for (uint256 i = 0; i < _controllers.length; i++) {... */\n      jump(tag_196)\n    tag_197:\n      pop\n        /* \"contracts/modules/Controllers/Controllers.sol\":4463:4764  {... */\n      pop\n      pop\n        /* \"contracts/modules/Controllers/Controllers.sol\":569:971  function addControllers(... */\n      pop\n      pop\n      pop\n      pop\n      pop\n      pop\n      pop\n      pop\n      pop\n      pop\n      jump\t// out\n        /* \"contracts/modules/Controllers/Controllers.sol\":2389:3048  function updateControllerWeight(... */\n    tag_54:\n        /* \"contracts/modules/Controllers/Controllers.sol\":2589:2600  _controller */\n      dup5\n        /* \"contracts/modules/Controllers/Controllers.sol\":2602:2609  _weight */\n      dup5\n        /* \"contracts/modules/Controllers/Controllers.sol\":2611:2617  _nonce */\n      dup5\n        /* \"contracts/modules/Controllers/Controllers.sol\":2619:2632  block.chainid */\n      chainid\n        /* \"contracts/modules/Controllers/Controllers.sol\":2578:2633  abi.encode(_controller, _weight, _nonce, block.chainid) */\n      add(0x20, mload(0x40))\n      tag_207\n      swap5\n      swap4\n      swap3\n      swap2\n      swap1\n      tag_208\n      jump\t// in\n    tag_207:\n      mload(0x40)\n      0x20\n      dup2\n      dup4\n      sub\n      sub\n      dup2\n      mstore\n      swap1\n      0x40\n      mstore\n        /* \"contracts/modules/Controllers/Controllers.sol\":2568:2634  keccak256(abi.encode(_controller, _weight, _nonce, block.chainid)) */\n      dup1\n      mload\n      swap1\n      0x20\n      add\n      keccak256\n        /* \"contracts/modules/Controllers/Controllers.sol\":2636:2647  _signatures */\n      dup3\n      dup3\n        /* \"contracts/modules/Controllers/Controllers.sol\":4470:4483  bool verified */\n      0x00\n        /* \"contracts/modules/Controllers/Controllers.sol\":4485:4504  string memory error */\n      dup1\n        /* \"contracts/modules/Controllers/Controllers.sol\":4508:4571  verifyControllersThresholdBySignatures(_inputHash, _signatures) */\n      tag_210\n        /* \"contracts/modules/Controllers/Controllers.sol\":4547:4557  _inputHash */\n      dup6\n        /* \"contracts/modules/Controllers/Controllers.sol\":4559:4570  _signatures */\n      dup6\n      dup6\n        /* \"contracts/modules/Controllers/Controllers.sol\":4508:4571  verifyControllersThresholdBySignatures(_inputHash, _signatures) */\n      swap1\n      tag_211\n      swap2\n      swap1\n      tag_72\n      jump\t// in\n    tag_211:\n        /* \"contracts/modules/Controllers/Controllers.sol\":4508:4546  verifyControllersThresholdBySignatures */\n      tag_73\n        /* \"contracts/modules/Controllers/Controllers.sol\":4508:4571  verifyControllersThresholdBySignatures(_inputHash, _signatures) */\n      jump\t// in\n    tag_210:\n        /* \"contracts/modules/Controllers/Controllers.sol\":4469:4571  (bool verified, string memory error) = verifyControllersThresholdBySignatures(_inputHash, _signatures) */\n      swap2\n      pop\n      swap2\n      pop\n        /* \"contracts/modules/Controllers/Controllers.sol\":4585:4593  verified */\n      dup2\n        /* \"contracts/modules/Controllers/Controllers.sol\":4595:4600  error */\n      dup2\n        /* \"contracts/modules/Controllers/Controllers.sol\":4577:4601  require(verified, error) */\n      swap1\n      tag_212\n      jumpi\n      mload(0x40)\n      0x08c379a000000000000000000000000000000000000000000000000000000000\n      dup2\n      mstore\n      0x04\n      add\n      tag_213\n      swap2\n      swap1\n      tag_76\n      jump\t// in\n    tag_213:\n      mload(0x40)\n      dup1\n      swap2\n      sub\n      swap1\n      revert\n    tag_212:\n      pop\n        /* \"contracts/modules/Controllers/Controllers.sol\":4617:4626  uint256 i */\n      0x00\n        /* \"contracts/modules/Controllers/Controllers.sol\":4612:4752  for (uint256 i = 0; i < _signatures.length; i++) {... */\n    tag_214:\n        /* \"contracts/modules/Controllers/Controllers.sol\":4636:4647  _signatures */\n      dup5\n      dup5\n        /* \"contracts/modules/Controllers/Controllers.sol\":4636:4654  _signatures.length */\n      swap1\n      pop\n        /* \"contracts/modules/Controllers/Controllers.sol\":4632:4633  i */\n      dup2\n        /* \"contracts/modules/Controllers/Controllers.sol\":4632:4654  i < _signatures.length */\n      lt\n        /* \"contracts/modules/Controllers/Controllers.sol\":4612:4752  for (uint256 i = 0; i < _signatures.length; i++) {... */\n      iszero\n      tag_215\n      jumpi\n        /* \"contracts/modules/Controllers/Controllers.sol\":4741:4745  true */\n      0x01\n        /* \"contracts/modules/Controllers/Controllers.sol\":4669:4696  ControllersStorage.layout() */\n      tag_217\n        /* \"contracts/modules/Controllers/Controllers.sol\":4669:4694  ControllersStorage.layout */\n      tag_66\n        /* \"contracts/modules/Controllers/Controllers.sol\":4669:4696  ControllersStorage.layout() */\n      jump\t// in\n    tag_217:\n        /* \"contracts/modules/Controllers/Controllers.sol\":4669:4711  ControllersStorage.layout().usedSignatures */\n      0x03\n      add\n        /* \"contracts/modules/Controllers/Controllers.sol\":4669:4738  ControllersStorage.layout().usedSignatures[keccak256(_signatures[i])] */\n      0x00\n        /* \"contracts/modules/Controllers/Controllers.sol\":4722:4733  _signatures */\n      dup8\n      dup8\n        /* \"contracts/modules/Controllers/Controllers.sol\":4734:4735  i */\n      dup6\n        /* \"contracts/modules/Controllers/Controllers.sol\":4722:4736  _signatures[i] */\n      dup2\n      dup2\n      lt\n      tag_218\n      jumpi\n      tag_219\n      tag_83\n      jump\t// in\n    tag_219:\n    tag_218:\n      swap1\n      pop\n      0x20\n      mul\n      dup2\n      add\n      swap1\n      tag_220\n      swap2\n      swap1\n      tag_85\n      jump\t// in\n    tag_220:\n        /* \"contracts/modules/Controllers/Controllers.sol\":4712:4737  keccak256(_signatures[i]) */\n      mload(0x40)\n      tag_221\n      swap3\n      swap2\n      swap1\n      tag_87\n      jump\t// in\n    tag_221:\n      mload(0x40)\n      dup1\n      swap2\n      sub\n      swap1\n      keccak256\n        /* \"contracts/modules/Controllers/Controllers.sol\":4669:4738  ControllersStorage.layout().usedSignatures[keccak256(_signatures[i])] */\n      dup2\n      mstore\n      0x20\n      add\n      swap1\n      dup2\n      mstore\n      0x20\n      add\n      0x00\n      keccak256\n      0x00\n        /* \"contracts/modules/Controllers/Controllers.sol\":4669:4745  ControllersStorage.layout().usedSignatures[keccak256(_signatures[i])] = true */\n      0x0100\n      exp\n      dup2\n      sload\n      dup2\n      0xff\n      mul\n      not\n      and\n      swap1\n      dup4\n      iszero\n      iszero\n      mul\n      or\n      swap1\n      sstore\n      pop\n        /* \"contracts/modules/Controllers/Controllers.sol\":4656:4659  i++ */\n      dup1\n      dup1\n      tag_222\n      swap1\n      tag_89\n      jump\t// in\n    tag_222:\n      swap2\n      pop\n      pop\n        /* \"contracts/modules/Controllers/Controllers.sol\":4612:4752  for (uint256 i = 0; i < _signatures.length; i++) {... */\n      jump(tag_214)\n    tag_215:\n      pop\n        /* \"contracts/modules/Controllers/Controllers.sol\":2795:2802  _weight */\n      dup9\n        /* \"contracts/modules/Controllers/Controllers.sol\":2744:2771  ControllersStorage.layout() */\n      tag_224\n        /* \"contracts/modules/Controllers/Controllers.sol\":2744:2769  ControllersStorage.layout */\n      tag_66\n        /* \"contracts/modules/Controllers/Controllers.sol\":2744:2771  ControllersStorage.layout() */\n      jump\t// in\n    tag_224:\n        /* \"contracts/modules/Controllers/Controllers.sol\":2744:2779  ControllersStorage.layout().weights */\n      0x02\n      add\n        /* \"contracts/modules/Controllers/Controllers.sol\":2744:2792  ControllersStorage.layout().weights[_controller] */\n      0x00\n        /* \"contracts/modules/Controllers/Controllers.sol\":2780:2791  _controller */\n      dup13\n        /* \"contracts/modules/Controllers/Controllers.sol\":2744:2792  ControllersStorage.layout().weights[_controller] */\n      0xffffffffffffffffffffffffffffffffffffffff\n      and\n      0xffffffffffffffffffffffffffffffffffffffff\n      and\n      dup2\n      mstore\n      0x20\n      add\n      swap1\n      dup2\n      mstore\n      0x20\n      add\n      0x00\n      keccak256\n      sload\n        /* \"contracts/modules/Controllers/Controllers.sol\":2701:2728  ControllersStorage.layout() */\n      tag_225\n        /* \"contracts/modules/Controllers/Controllers.sol\":2701:2726  ControllersStorage.layout */\n      tag_66\n        /* \"contracts/modules/Controllers/Controllers.sol\":2701:2728  ControllersStorage.layout() */\n      jump\t// in\n    tag_225:\n        /* \"contracts/modules/Controllers/Controllers.sol\":2701:2741  ControllersStorage.layout().totalWeights */\n      0x01\n      add\n      sload\n        /* \"contracts/modules/Controllers/Controllers.sol\":2701:2792  ControllersStorage.layout().totalWeights - ControllersStorage.layout().weights[_controller] */\n      tag_226\n      swap2\n      swap1\n      tag_227\n      jump\t// in\n    tag_226:\n        /* \"contracts/modules/Controllers/Controllers.sol\":2701:2802  ControllersStorage.layout().totalWeights - ControllersStorage.layout().weights[_controller] + _weight */\n      tag_228\n      swap2\n      swap1\n      tag_229\n      jump\t// in\n    tag_228:\n        /* \"contracts/modules/Controllers/Controllers.sol\":2658:2685  ControllersStorage.layout() */\n      tag_230\n        /* \"contracts/modules/Controllers/Controllers.sol\":2658:2683  ControllersStorage.layout */\n      tag_66\n        /* \"contracts/modules/Controllers/Controllers.sol\":2658:2685  ControllersStorage.layout() */\n      jump\t// in\n    tag_230:\n        /* \"contracts/modules/Controllers/Controllers.sol\":2658:2698  ControllersStorage.layout().totalWeights */\n      0x01\n      add\n        /* \"contracts/modules/Controllers/Controllers.sol\":2658:2802  ControllersStorage.layout().totalWeights = ControllersStorage.layout().totalWeights - ControllersStorage.layout().weights[_controller] + _weight */\n      dup2\n      swap1\n      sstore\n      pop\n        /* \"contracts/modules/Controllers/Controllers.sol\":2859:2860  0 */\n      0x00\n        /* \"contracts/modules/Controllers/Controllers.sol\":2816:2843  ControllersStorage.layout() */\n      tag_231\n        /* \"contracts/modules/Controllers/Controllers.sol\":2816:2841  ControllersStorage.layout */\n      tag_66\n        /* \"contracts/modules/Controllers/Controllers.sol\":2816:2843  ControllersStorage.layout() */\n      jump\t// in\n    tag_231:\n        /* \"contracts/modules/Controllers/Controllers.sol\":2816:2856  ControllersStorage.layout().totalWeights */\n      0x01\n      add\n      sload\n        /* \"contracts/modules/Controllers/Controllers.sol\":2816:2860  ControllersStorage.layout().totalWeights > 0 */\n      gt\n        /* \"contracts/modules/Controllers/Controllers.sol\":2816:2945  ControllersStorage.layout().totalWeights > 0 && ControllersStorage.layout().totalWeights >= ControllersStorage.layout().threshold */\n      dup1\n      iszero\n      tag_232\n      jumpi\n      pop\n        /* \"contracts/modules/Controllers/Controllers.sol\":2908:2935  ControllersStorage.layout() */\n      tag_233\n        /* \"contracts/modules/Controllers/Controllers.sol\":2908:2933  ControllersStorage.layout */\n      tag_66\n        /* \"contracts/modules/Controllers/Controllers.sol\":2908:2935  ControllersStorage.layout() */\n      jump\t// in\n    tag_233:\n        /* \"contracts/modules/Controllers/Controllers.sol\":2908:2945  ControllersStorage.layout().threshold */\n      0x00\n      add\n      sload\n        /* \"contracts/modules/Controllers/Controllers.sol\":2864:2891  ControllersStorage.layout() */\n      tag_234\n        /* \"contracts/modules/Controllers/Controllers.sol\":2864:2889  ControllersStorage.layout */\n      tag_66\n        /* \"contracts/modules/Controllers/Controllers.sol\":2864:2891  ControllersStorage.layout() */\n      jump\t// in\n    tag_234:\n        /* \"contracts/modules/Controllers/Controllers.sol\":2864:2904  ControllersStorage.layout().totalWeights */\n      0x01\n      add\n      sload\n        /* \"contracts/modules/Controllers/Controllers.sol\":2864:2945  ControllersStorage.layout().totalWeights >= ControllersStorage.layout().threshold */\n      lt\n      iszero\n        /* \"contracts/modules/Controllers/Controllers.sol\":2816:2945  ControllersStorage.layout().totalWeights > 0 && ControllersStorage.layout().totalWeights >= ControllersStorage.layout().threshold */\n    tag_232:\n        /* \"contracts/modules/Controllers/Controllers.sol\":2808:2979  require(ControllersStorage.layout().totalWeights > 0 && ControllersStorage.layout().totalWeights >= ControllersStorage.layout().threshold, \"Threshold would be impossible\") */\n      tag_235\n      jumpi\n      mload(0x40)\n      0x08c379a000000000000000000000000000000000000000000000000000000000\n      dup2\n      mstore\n      0x04\n      add\n      tag_236\n      swap1\n      tag_237\n      jump\t// in\n    tag_236:\n      mload(0x40)\n      dup1\n      swap2\n      sub\n      swap1\n      revert\n    tag_235:\n        /* \"contracts/modules/Controllers/Controllers.sol\":3036:3043  _weight */\n      dup9\n        /* \"contracts/modules/Controllers/Controllers.sol\":2985:3012  ControllersStorage.layout() */\n      tag_238\n        /* \"contracts/modules/Controllers/Controllers.sol\":2985:3010  ControllersStorage.layout */\n      tag_66\n        /* \"contracts/modules/Controllers/Controllers.sol\":2985:3012  ControllersStorage.layout() */\n      jump\t// in\n    tag_238:\n        /* \"contracts/modules/Controllers/Controllers.sol\":2985:3020  ControllersStorage.layout().weights */\n      0x02\n      add\n        /* \"contracts/modules/Controllers/Controllers.sol\":2985:3033  ControllersStorage.layout().weights[_controller] */\n      0x00\n        /* \"contracts/modules/Controllers/Controllers.sol\":3021:3032  _controller */\n      dup13\n        /* \"contracts/modules/Controllers/Controllers.sol\":2985:3033  ControllersStorage.layout().weights[_controller] */\n      0xffffffffffffffffffffffffffffffffffffffff\n      and\n      0xffffffffffffffffffffffffffffffffffffffff\n      and\n      dup2\n      mstore\n      0x20\n      add\n      swap1\n      dup2\n      mstore\n      0x20\n      add\n      0x00\n      keccak256\n        /* \"contracts/modules/Controllers/Controllers.sol\":2985:3043  ControllersStorage.layout().weights[_controller] = _weight */\n      dup2\n      swap1\n      sstore\n      pop\n        /* \"contracts/modules/Controllers/Controllers.sol\":4463:4764  {... */\n      pop\n      pop\n        /* \"contracts/modules/Controllers/Controllers.sol\":2389:3048  function updateControllerWeight(... */\n      pop\n      pop\n      pop\n      pop\n      pop\n      pop\n      pop\n      pop\n      jump\t// out\n        /* \"contracts/modules/Controllers/Controllers.sol\":3171:3315  function controllerWeight(address _controller) external view returns(uint256) {... */\n    tag_58:\n        /* \"contracts/modules/Controllers/Controllers.sol\":3240:3247  uint256 */\n      0x00\n        /* \"contracts/modules/Controllers/Controllers.sol\":3262:3289  ControllersStorage.layout() */\n      tag_240\n        /* \"contracts/modules/Controllers/Controllers.sol\":3262:3287  ControllersStorage.layout */\n      tag_66\n        /* \"contracts/modules/Controllers/Controllers.sol\":3262:3289  ControllersStorage.layout() */\n      jump\t// in\n    tag_240:\n        /* \"contracts/modules/Controllers/Controllers.sol\":3262:3297  ControllersStorage.layout().weights */\n      0x02\n      add\n        /* \"contracts/modules/Controllers/Controllers.sol\":3262:3310  ControllersStorage.layout().weights[_controller] */\n      0x00\n        /* \"contracts/modules/Controllers/Controllers.sol\":3298:3309  _controller */\n      dup4\n        /* \"contracts/modules/Controllers/Controllers.sol\":3262:3310  ControllersStorage.layout().weights[_controller] */\n      0xffffffffffffffffffffffffffffffffffffffff\n      and\n      0xffffffffffffffffffffffffffffffffffffffff\n      and\n      dup2\n      mstore\n      0x20\n      add\n      swap1\n      dup2\n      mstore\n      0x20\n      add\n      0x00\n      keccak256\n      sload\n        /* \"contracts/modules/Controllers/Controllers.sol\":3255:3310  return ControllersStorage.layout().weights[_controller] */\n      swap1\n      pop\n        /* \"contracts/modules/Controllers/Controllers.sol\":3171:3315  function controllerWeight(address _controller) external view returns(uint256) {... */\n      swap2\n      swap1\n      pop\n      jump\t// out\n        /* \"contracts/modules/Controllers/Controllers.sol\":4768:5004  function supportsInterface(bytes4 interfaceId) public view virtual override(ERC165) returns (bool) {... */\n    tag_63:\n        /* \"contracts/modules/Controllers/Controllers.sol\":4861:4865  bool */\n      0x00\n        /* \"contracts/modules/Controllers/Controllers.sol\":4892:4922  type(IControllers).interfaceId */\n      0x8197b6d400000000000000000000000000000000000000000000000000000000\n        /* \"contracts/modules/Controllers/Controllers.sol\":4877:4922  interfaceId == type(IControllers).interfaceId */\n      not(0xffffffffffffffffffffffffffffffffffffffffffffffffffffffff)\n      and\n        /* \"contracts/modules/Controllers/Controllers.sol\":4877:4888  interfaceId */\n      dup3\n        /* \"contracts/modules/Controllers/Controllers.sol\":4877:4922  interfaceId == type(IControllers).interfaceId */\n      not(0xffffffffffffffffffffffffffffffffffffffffffffffffffffffff)\n      and\n      sub\n        /* \"contracts/modules/Controllers/Controllers.sol\":4873:4950  if (interfaceId == type(IControllers).interfaceId) {... */\n      tag_242\n      jumpi\n        /* \"contracts/modules/Controllers/Controllers.sol\":4939:4943  true */\n      0x01\n        /* \"contracts/modules/Controllers/Controllers.sol\":4932:4943  return true */\n      swap1\n      pop\n      jump(tag_241)\n        /* \"contracts/modules/Controllers/Controllers.sol\":4873:4950  if (interfaceId == type(IControllers).interfaceId) {... */\n    tag_242:\n        /* \"contracts/modules/Controllers/Controllers.sol\":4963:4999  super.supportsInterface(interfaceId) */\n      tag_243\n        /* \"contracts/modules/Controllers/Controllers.sol\":4987:4998  interfaceId */\n      dup3\n        /* \"contracts/modules/Controllers/Controllers.sol\":4963:4986  super.supportsInterface */\n      tag_244\n        /* \"contracts/modules/Controllers/Controllers.sol\":4963:4999  super.supportsInterface(interfaceId) */\n      jump\t// in\n    tag_243:\n        /* \"contracts/modules/Controllers/Controllers.sol\":4956:4999  return super.supportsInterface(interfaceId) */\n      swap1\n      pop\n        /* \"contracts/modules/Controllers/Controllers.sol\":4768:5004  function supportsInterface(bytes4 interfaceId) public view virtual override(ERC165) returns (bool) {... */\n    tag_241:\n      swap2\n      swap1\n      pop\n      jump\t// out\n        /* \"contracts/modules/Controllers/ControllersStorage.sol\":624:776  function layout() internal pure returns (Layout storage _layout) {... */\n    tag_66:\n        /* \"contracts/modules/Controllers/ControllersStorage.sol\":665:687  Layout storage _layout */\n      0x00\n        /* \"contracts/modules/Controllers/ControllersStorage.sol\":695:707  bytes32 slot */\n      dup1\n        /* \"contracts/modules/Controllers/ControllersStorage.sol\":415:461  keccak256(\"com.trymetafab.wallet.Controllers\") */\n      0x255f4a56bd3ad76424e31ed8855ef9ad14a0ce4e67508c76ff082e5c1466b12f\n        /* \"contracts/modules/Controllers/ControllersStorage.sol\":695:722  bytes32 slot = STORAGE_SLOT */\n      swap1\n      pop\n        /* \"contracts/modules/Controllers/ControllersStorage.sol\":762:766  slot */\n      dup1\n        /* \"contracts/modules/Controllers/ControllersStorage.sol\":746:766  _layout.slot := slot */\n      swap2\n      pop\n        /* \"contracts/modules/Controllers/ControllersStorage.sol\":738:772  {... */\n      pop\n        /* \"contracts/modules/Controllers/ControllersStorage.sol\":624:776  function layout() internal pure returns (Layout storage _layout) {... */\n      swap1\n      jump\t// out\n        /* \"contracts/modules/Controllers/Controllers.sol\":3447:4374  function verifyControllersThresholdBySignatures(... */\n    tag_73:\n        /* \"contracts/modules/Controllers/Controllers.sol\":3594:3598  bool */\n      0x00\n        /* \"contracts/modules/Controllers/Controllers.sol\":3600:3613  string memory */\n      0x60\n        /* \"contracts/modules/Controllers/Controllers.sol\":3624:3645  uint256 signerWeights */\n      0x00\n        /* \"contracts/modules/Controllers/Controllers.sol\":3661:3670  uint256 i */\n      dup1\n        /* \"contracts/modules/Controllers/Controllers.sol\":3656:4210  for (uint256 i = 0; i < _signatures.length; i++) {... */\n    tag_247:\n        /* \"contracts/modules/Controllers/Controllers.sol\":3680:3691  _signatures */\n      dup5\n        /* \"contracts/modules/Controllers/Controllers.sol\":3680:3698  _signatures.length */\n      mload\n        /* \"contracts/modules/Controllers/Controllers.sol\":3676:3677  i */\n      dup2\n        /* \"contracts/modules/Controllers/Controllers.sol\":3676:3698  i < _signatures.length */\n      lt\n        /* \"contracts/modules/Controllers/Controllers.sol\":3656:4210  for (uint256 i = 0; i < _signatures.length; i++) {... */\n      iszero\n      tag_248\n      jumpi\n        /* \"contracts/modules/Controllers/Controllers.sol\":3713:3727  address signer */\n      0x00\n        /* \"contracts/modules/Controllers/Controllers.sol\":3730:3778  Signatures.getSigner(_inputHash, _signatures[i]) */\n      tag_250\n        /* \"contracts/modules/Controllers/Controllers.sol\":3751:3761  _inputHash */\n      dup8\n        /* \"contracts/modules/Controllers/Controllers.sol\":3763:3774  _signatures */\n      dup8\n        /* \"contracts/modules/Controllers/Controllers.sol\":3775:3776  i */\n      dup5\n        /* \"contracts/modules/Controllers/Controllers.sol\":3763:3777  _signatures[i] */\n      dup2\n      mload\n      dup2\n      lt\n      tag_251\n      jumpi\n      tag_252\n      tag_83\n      jump\t// in\n    tag_252:\n    tag_251:\n      0x20\n      mul\n      0x20\n      add\n      add\n      mload\n        /* \"contracts/modules/Controllers/Controllers.sol\":3730:3750  Signatures.getSigner */\n      tag_253\n        /* \"contracts/modules/Controllers/Controllers.sol\":3730:3778  Signatures.getSigner(_inputHash, _signatures[i]) */\n      jump\t// in\n    tag_250:\n        /* \"contracts/modules/Controllers/Controllers.sol\":3713:3778  address signer = Signatures.getSigner(_inputHash, _signatures[i]) */\n      swap1\n      pop\n        /* \"contracts/modules/Controllers/Controllers.sol\":3838:3839  0 */\n      0x00\n        /* \"contracts/modules/Controllers/Controllers.sol\":3791:3818  ControllersStorage.layout() */\n      tag_254\n        /* \"contracts/modules/Controllers/Controllers.sol\":3791:3816  ControllersStorage.layout */\n      tag_66\n        /* \"contracts/modules/Controllers/Controllers.sol\":3791:3818  ControllersStorage.layout() */\n      jump\t// in\n    tag_254:\n        /* \"contracts/modules/Controllers/Controllers.sol\":3791:3826  ControllersStorage.layout().weights */\n      0x02\n      add\n        /* \"contracts/modules/Controllers/Controllers.sol\":3791:3834  ControllersStorage.layout().weights[signer] */\n      0x00\n        /* \"contracts/modules/Controllers/Controllers.sol\":3827:3833  signer */\n      dup4\n        /* \"contracts/modules/Controllers/Controllers.sol\":3791:3834  ControllersStorage.layout().weights[signer] */\n      0xffffffffffffffffffffffffffffffffffffffff\n      and\n      0xffffffffffffffffffffffffffffffffffffffff\n      and\n      dup2\n      mstore\n      0x20\n      add\n      swap1\n      dup2\n      mstore\n      0x20\n      add\n      0x00\n      keccak256\n      sload\n        /* \"contracts/modules/Controllers/Controllers.sol\":3791:3839  ControllersStorage.layout().weights[signer] == 0 */\n      sub\n        /* \"contracts/modules/Controllers/Controllers.sol\":3787:3928  if (ControllersStorage.layout().weights[signer] == 0) {... */\n      tag_255\n      jumpi\n        /* \"contracts/modules/Controllers/Controllers.sol\":3859:3864  false */\n      0x00\n        /* \"contracts/modules/Controllers/Controllers.sol\":3851:3919  return (false, \"At least one signature not from a known controller\") */\n      mload(0x40)\n      dup1\n      0x60\n      add\n      0x40\n      mstore\n      dup1\n      0x32\n      dup2\n      mstore\n      0x20\n      add\n      data_785bc0b145e7feed7ceac2191d963af02addfd5fb4914d9f29f212008f60b7a9\n      0x32\n      swap2\n      codecopy\n      swap5\n      pop\n      swap5\n      pop\n      pop\n      pop\n      pop\n      jump(tag_246)\n        /* \"contracts/modules/Controllers/Controllers.sol\":3787:3928  if (ControllersStorage.layout().weights[signer] == 0) {... */\n    tag_255:\n        /* \"contracts/modules/Controllers/Controllers.sol\":3942:3963  bytes32 signatureHash */\n      0x00\n        /* \"contracts/modules/Controllers/Controllers.sol\":3976:3987  _signatures */\n      dup7\n        /* \"contracts/modules/Controllers/Controllers.sol\":3988:3989  i */\n      dup4\n        /* \"contracts/modules/Controllers/Controllers.sol\":3976:3990  _signatures[i] */\n      dup2\n      mload\n      dup2\n      lt\n      tag_256\n      jumpi\n      tag_257\n      tag_83\n      jump\t// in\n    tag_257:\n    tag_256:\n      0x20\n      mul\n      0x20\n      add\n      add\n      mload\n        /* \"contracts/modules/Controllers/Controllers.sol\":3966:3991  keccak256(_signatures[i]) */\n      dup1\n      mload\n      swap1\n      0x20\n      add\n      keccak256\n        /* \"contracts/modules/Controllers/Controllers.sol\":3942:3991  bytes32 signatureHash = keccak256(_signatures[i]) */\n      swap1\n      pop\n        /* \"contracts/modules/Controllers/Controllers.sol\":4004:4031  ControllersStorage.layout() */\n      tag_258\n        /* \"contracts/modules/Controllers/Controllers.sol\":4004:4029  ControllersStorage.layout */\n      tag_66\n        /* \"contracts/modules/Controllers/Controllers.sol\":4004:4031  ControllersStorage.layout() */\n      jump\t// in\n    tag_258:\n        /* \"contracts/modules/Controllers/Controllers.sol\":4004:4046  ControllersStorage.layout().usedSignatures */\n      0x03\n      add\n        /* \"contracts/modules/Controllers/Controllers.sol\":4004:4061  ControllersStorage.layout().usedSignatures[signatureHash] */\n      0x00\n        /* \"contracts/modules/Controllers/Controllers.sol\":4047:4060  signatureHash */\n      dup3\n        /* \"contracts/modules/Controllers/Controllers.sol\":4004:4061  ControllersStorage.layout().usedSignatures[signatureHash] */\n      dup2\n      mstore\n      0x20\n      add\n      swap1\n      dup2\n      mstore\n      0x20\n      add\n      0x00\n      keccak256\n      0x00\n      swap1\n      sload\n      swap1\n      0x0100\n      exp\n      swap1\n      div\n      0xff\n      and\n        /* \"contracts/modules/Controllers/Controllers.sol\":4000:4135  if (ControllersStorage.layout().usedSignatures[signatureHash]) {... */\n      iszero\n      tag_259\n      jumpi\n        /* \"contracts/modules/Controllers/Controllers.sol\":4081:4086  false */\n      0x00\n        /* \"contracts/modules/Controllers/Controllers.sol\":4073:4126  return (false, \"At least one signature already used\") */\n      mload(0x40)\n      dup1\n      0x60\n      add\n      0x40\n      mstore\n      dup1\n      0x23\n      dup2\n      mstore\n      0x20\n      add\n      data_a16b8e883356b25ba9a3764847759439ed808aa5ab1e4a5a4f8ee72d493c676d\n      0x23\n      swap2\n      codecopy\n      swap6\n      pop\n      swap6\n      pop\n      pop\n      pop\n      pop\n      pop\n      jump(tag_246)\n        /* \"contracts/modules/Controllers/Controllers.sol\":4000:4135  if (ControllersStorage.layout().usedSignatures[signatureHash]) {... */\n    tag_259:\n        /* \"contracts/modules/Controllers/Controllers.sol\":4160:4187  ControllersStorage.layout() */\n      tag_260\n        /* \"contracts/modules/Controllers/Controllers.sol\":4160:4185  ControllersStorage.layout */\n      tag_66\n        /* \"contracts/modules/Controllers/Controllers.sol\":4160:4187  ControllersStorage.layout() */\n      jump\t// in\n    tag_260:\n        /* \"contracts/modules/Controllers/Controllers.sol\":4160:4195  ControllersStorage.layout().weights */\n      0x02\n      add\n        /* \"contracts/modules/Controllers/Controllers.sol\":4160:4203  ControllersStorage.layout().weights[signer] */\n      0x00\n        /* \"contracts/modules/Controllers/Controllers.sol\":4196:4202  signer */\n      dup4\n        /* \"contracts/modules/Controllers/Controllers.sol\":4160:4203  ControllersStorage.layout().weights[signer] */\n      0xffffffffffffffffffffffffffffffffffffffff\n      and\n      0xffffffffffffffffffffffffffffffffffffffff\n      and\n      dup2\n      mstore\n      0x20\n      add\n      swap1\n      dup2\n      mstore\n      0x20\n      add\n      0x00\n      keccak256\n      sload\n        /* \"contracts/modules/Controllers/Controllers.sol\":4143:4203  signerWeights += ControllersStorage.layout().weights[signer] */\n      dup5\n      tag_261\n      swap2\n      swap1\n      tag_229\n      jump\t// in\n    tag_261:\n      swap4\n      pop\n        /* \"contracts/modules/Controllers/Controllers.sol\":3705:4210  {... */\n      pop\n      pop\n        /* \"contracts/modules/Controllers/Controllers.sol\":3700:3703  i++ */\n      dup1\n      dup1\n      tag_262\n      swap1\n      tag_89\n      jump\t// in\n    tag_262:\n      swap2\n      pop\n      pop\n        /* \"contracts/modules/Controllers/Controllers.sol\":3656:4210  for (uint256 i = 0; i < _signatures.length; i++) {... */\n      jump(tag_247)\n    tag_248:\n      pop\n        /* \"contracts/modules/Controllers/Controllers.sol\":4236:4263  ControllersStorage.layout() */\n      tag_263\n        /* \"contracts/modules/Controllers/Controllers.sol\":4236:4261  ControllersStorage.layout */\n      tag_66\n        /* \"contracts/modules/Controllers/Controllers.sol\":4236:4263  ControllersStorage.layout() */\n      jump\t// in\n    tag_263:\n        /* \"contracts/modules/Controllers/Controllers.sol\":4236:4273  ControllersStorage.layout().threshold */\n      0x00\n      add\n      sload\n        /* \"contracts/modules/Controllers/Controllers.sol\":4220:4233  signerWeights */\n      dup2\n        /* \"contracts/modules/Controllers/Controllers.sol\":4220:4273  signerWeights < ControllersStorage.layout().threshold */\n      lt\n        /* \"contracts/modules/Controllers/Controllers.sol\":4216:4346  if (signerWeights < ControllersStorage.layout().threshold) {... */\n      iszero\n      tag_264\n      jumpi\n        /* \"contracts/modules/Controllers/Controllers.sol\":4291:4296  false */\n      0x00\n        /* \"contracts/modules/Controllers/Controllers.sol\":4283:4339  return (false, \"Signer weights does not meet threshold\") */\n      mload(0x40)\n      dup1\n      0x60\n      add\n      0x40\n      mstore\n      dup1\n      0x26\n      dup2\n      mstore\n      0x20\n      add\n      data_72284c72650eb5f3095ffe3e95f497df8ba3ab16a33a5479ff4ed3ce4e760077\n      0x26\n      swap2\n      codecopy\n      swap3\n      pop\n      swap3\n      pop\n      pop\n      jump(tag_246)\n        /* \"contracts/modules/Controllers/Controllers.sol\":4216:4346  if (signerWeights < ControllersStorage.layout().threshold) {... */\n    tag_264:\n        /* \"contracts/modules/Controllers/Controllers.sol\":4360:4364  true */\n      0x01\n        /* \"contracts/modules/Controllers/Controllers.sol\":4352:4369  return (true, \"\") */\n      mload(0x40)\n      dup1\n      0x20\n      add\n      0x40\n      mstore\n      dup1\n      0x00\n      dup2\n      mstore\n      pop\n      swap3\n      pop\n      swap3\n      pop\n      pop\n        /* \"contracts/modules/Controllers/Controllers.sol\":3447:4374  function verifyControllersThresholdBySignatures(... */\n    tag_246:\n      swap3\n      pop\n      swap3\n      swap1\n      pop\n      jump\t// out\n        /* \"contracts/modules/Calls/Calls.sol\":1266:1613  function _call(CallsStructs.ExecuteRequest calldata _executeRequest) internal returns (bytes memory) {... */\n    tag_104:\n        /* \"contracts/modules/Calls/Calls.sol\":1353:1365  bytes memory */\n      0x60\n        /* \"contracts/modules/Calls/Calls.sol\":1374:1386  bool success */\n      0x00\n        /* \"contracts/modules/Calls/Calls.sol\":1388:1407  bytes memory result */\n      dup1\n        /* \"contracts/modules/Calls/Calls.sol\":1411:1426  _executeRequest */\n      dup4\n        /* \"contracts/modules/Calls/Calls.sol\":1411:1433  _executeRequest.target */\n      0x00\n      add\n      0x20\n      dup2\n      add\n      swap1\n      tag_266\n      swap2\n      swap1\n      tag_57\n      jump\t// in\n    tag_266:\n        /* \"contracts/modules/Calls/Calls.sol\":1411:1438  _executeRequest.target.call */\n      0xffffffffffffffffffffffffffffffffffffffff\n      and\n        /* \"contracts/modules/Calls/Calls.sol\":1454:1469  _executeRequest */\n      dup5\n        /* \"contracts/modules/Calls/Calls.sol\":1454:1475  _executeRequest.value */\n      0x20\n      add\n      calldataload\n        /* \"contracts/modules/Calls/Calls.sol\":1482:1497  _executeRequest */\n      dup6\n        /* \"contracts/modules/Calls/Calls.sol\":1482:1502  _executeRequest.data */\n      dup1\n      0x60\n      add\n      swap1\n      tag_267\n      swap2\n      swap1\n      tag_85\n      jump\t// in\n    tag_267:\n        /* \"contracts/modules/Calls/Calls.sol\":1411:1503  _executeRequest.target.call{... */\n      mload(0x40)\n      tag_268\n      swap3\n      swap2\n      swap1\n      tag_87\n      jump\t// in\n    tag_268:\n      0x00\n      mload(0x40)\n      dup1\n      dup4\n      sub\n      dup2\n      dup6\n      dup8\n      gas\n      call\n      swap3\n      pop\n      pop\n      pop\n      returndatasize\n      dup1\n      0x00\n      dup2\n      eq\n      tag_271\n      jumpi\n      mload(0x40)\n      swap2\n      pop\n      and(add(returndatasize, 0x3f), not(0x1f))\n      dup3\n      add\n      0x40\n      mstore\n      returndatasize\n      dup3\n      mstore\n      returndatasize\n      0x00\n      0x20\n      dup5\n      add\n      returndatacopy\n      jump(tag_270)\n    tag_271:\n      0x60\n      swap2\n      pop\n    tag_270:\n      pop\n        /* \"contracts/modules/Calls/Calls.sol\":1373:1503  (bool success, bytes memory result) = _executeRequest.target.call{... */\n      swap2\n      pop\n      swap2\n      pop\n        /* \"contracts/modules/Calls/Calls.sol\":1515:1522  success */\n      dup2\n        /* \"contracts/modules/Calls/Calls.sol\":1510:1589  if (!success) {... */\n      tag_272\n      jumpi\n        /* \"contracts/modules/Calls/Calls.sol\":1573:1579  result */\n      dup1\n        /* \"contracts/modules/Calls/Calls.sol\":1567:1580  mload(result) */\n      mload\n        /* \"contracts/modules/Calls/Calls.sol\":1562:1564  32 */\n      0x20\n        /* \"contracts/modules/Calls/Calls.sol\":1554:1560  result */\n      dup3\n        /* \"contracts/modules/Calls/Calls.sol\":1550:1565  add(result, 32) */\n      add\n        /* \"contracts/modules/Calls/Calls.sol\":1543:1581  revert(add(result, 32), mload(result)) */\n      revert\n        /* \"contracts/modules/Calls/Calls.sol\":1510:1589  if (!success) {... */\n    tag_272:\n        /* \"contracts/modules/Calls/Calls.sol\":1602:1608  result */\n      dup1\n        /* \"contracts/modules/Calls/Calls.sol\":1595:1608  return result */\n      swap3\n      pop\n      pop\n      pop\n        /* \"contracts/modules/Calls/Calls.sol\":1266:1613  function _call(CallsStructs.ExecuteRequest calldata _executeRequest) internal returns (bytes memory) {... */\n      swap2\n      swap1\n      pop\n      jump\t// out\n        /* \"contracts/modules/Controllers/Controllers.sol\":1533:1928  function _removeController(address _controller) internal {... */\n    tag_132:\n        /* \"contracts/modules/Controllers/Controllers.sol\":1640:1667  ControllersStorage.layout() */\n      tag_274\n        /* \"contracts/modules/Controllers/Controllers.sol\":1640:1665  ControllersStorage.layout */\n      tag_66\n        /* \"contracts/modules/Controllers/Controllers.sol\":1640:1667  ControllersStorage.layout() */\n      jump\t// in\n    tag_274:\n        /* \"contracts/modules/Controllers/Controllers.sol\":1640:1675  ControllersStorage.layout().weights */\n      0x02\n      add\n        /* \"contracts/modules/Controllers/Controllers.sol\":1640:1688  ControllersStorage.layout().weights[_controller] */\n      0x00\n        /* \"contracts/modules/Controllers/Controllers.sol\":1676:1687  _controller */\n      dup3\n        /* \"contracts/modules/Controllers/Controllers.sol\":1640:1688  ControllersStorage.layout().weights[_controller] */\n      0xffffffffffffffffffffffffffffffffffffffff\n      and\n      0xffffffffffffffffffffffffffffffffffffffff\n      and\n      dup2\n      mstore\n      0x20\n      add\n      swap1\n      dup2\n      mstore\n      0x20\n      add\n      0x00\n      keccak256\n      sload\n        /* \"contracts/modules/Controllers/Controllers.sol\":1596:1623  ControllersStorage.layout() */\n      tag_275\n        /* \"contracts/modules/Controllers/Controllers.sol\":1596:1621  ControllersStorage.layout */\n      tag_66\n        /* \"contracts/modules/Controllers/Controllers.sol\":1596:1623  ControllersStorage.layout() */\n      jump\t// in\n    tag_275:\n        /* \"contracts/modules/Controllers/Controllers.sol\":1596:1636  ControllersStorage.layout().totalWeights */\n      0x01\n      add\n      0x00\n        /* \"contracts/modules/Controllers/Controllers.sol\":1596:1688  ControllersStorage.layout().totalWeights -= ControllersStorage.layout().weights[_controller] */\n      dup3\n      dup3\n      sload\n      tag_276\n      swap2\n      swap1\n      tag_227\n      jump\t// in\n    tag_276:\n      swap3\n      pop\n      pop\n      dup2\n      swap1\n      sstore\n      pop\n        /* \"contracts/modules/Controllers/Controllers.sol\":1745:1746  0 */\n      0x00\n        /* \"contracts/modules/Controllers/Controllers.sol\":1702:1729  ControllersStorage.layout() */\n      tag_277\n        /* \"contracts/modules/Controllers/Controllers.sol\":1702:1727  ControllersStorage.layout */\n      tag_66\n        /* \"contracts/modules/Controllers/Controllers.sol\":1702:1729  ControllersStorage.layout() */\n      jump\t// in\n    tag_277:\n        /* \"contracts/modules/Controllers/Controllers.sol\":1702:1742  ControllersStorage.layout().totalWeights */\n      0x01\n      add\n      sload\n        /* \"contracts/modules/Controllers/Controllers.sol\":1702:1746  ControllersStorage.layout().totalWeights > 0 */\n      gt\n        /* \"contracts/modules/Controllers/Controllers.sol\":1702:1831  ControllersStorage.layout().totalWeights > 0 && ControllersStorage.layout().totalWeights >= ControllersStorage.layout().threshold */\n      dup1\n      iszero\n      tag_278\n      jumpi\n      pop\n        /* \"contracts/modules/Controllers/Controllers.sol\":1794:1821  ControllersStorage.layout() */\n      tag_279\n        /* \"contracts/modules/Controllers/Controllers.sol\":1794:1819  ControllersStorage.layout */\n      tag_66\n        /* \"contracts/modules/Controllers/Controllers.sol\":1794:1821  ControllersStorage.layout() */\n      jump\t// in\n    tag_279:\n        /* \"contracts/modules/Controllers/Controllers.sol\":1794:1831  ControllersStorage.layout().threshold */\n      0x00\n      add\n      sload\n        /* \"contracts/modules/Controllers/Controllers.sol\":1750:1777  ControllersStorage.layout() */\n      tag_280\n        /* \"contracts/modules/Controllers/Controllers.sol\":1750:1775  ControllersStorage.layout */\n      tag_66\n        /* \"contracts/modules/Controllers/Controllers.sol\":1750:1777  ControllersStorage.layout() */\n      jump\t// in\n    tag_280:\n        /* \"contracts/modules/Controllers/Controllers.sol\":1750:1790  ControllersStorage.layout().totalWeights */\n      0x01\n      add\n      sload\n        /* \"contracts/modules/Controllers/Controllers.sol\":1750:1831  ControllersStorage.layout().totalWeights >= ControllersStorage.layout().threshold */\n      lt\n      iszero\n        /* \"contracts/modules/Controllers/Controllers.sol\":1702:1831  ControllersStorage.layout().totalWeights > 0 && ControllersStorage.layout().totalWeights >= ControllersStorage.layout().threshold */\n    tag_278:\n        /* \"contracts/modules/Controllers/Controllers.sol\":1694:1865  require(ControllersStorage.layout().totalWeights > 0 && ControllersStorage.layout().totalWeights >= ControllersStorage.layout().threshold, \"Threshold would be impossible\") */\n      tag_281\n      jumpi\n      mload(0x40)\n      0x08c379a000000000000000000000000000000000000000000000000000000000\n      dup2\n      mstore\n      0x04\n      add\n      tag_282\n      swap1\n      tag_237\n      jump\t// in\n    tag_282:\n      mload(0x40)\n      dup1\n      swap2\n      sub\n      swap1\n      revert\n    tag_281:\n        /* \"contracts/modules/Controllers/Controllers.sol\":1922:1923  0 */\n      0x00\n        /* \"contracts/modules/Controllers/Controllers.sol\":1871:1898  ControllersStorage.layout() */\n      tag_283\n        /* \"contracts/modules/Controllers/Controllers.sol\":1871:1896  ControllersStorage.layout */\n      tag_66\n        /* \"contracts/modules/Controllers/Controllers.sol\":1871:1898  ControllersStorage.layout() */\n      jump\t// in\n    tag_283:\n        /* \"contracts/modules/Controllers/Controllers.sol\":1871:1906  ControllersStorage.layout().weights */\n      0x02\n      add\n        /* \"contracts/modules/Controllers/Controllers.sol\":1871:1919  ControllersStorage.layout().weights[_controller] */\n      0x00\n        /* \"contracts/modules/Controllers/Controllers.sol\":1907:1918  _controller */\n      dup4\n        /* \"contracts/modules/Controllers/Controllers.sol\":1871:1919  ControllersStorage.layout().weights[_controller] */\n      0xffffffffffffffffffffffffffffffffffffffff\n      and\n      0xffffffffffffffffffffffffffffffffffffffff\n      and\n      dup2\n      mstore\n      0x20\n      add\n      swap1\n      dup2\n      mstore\n      0x20\n      add\n      0x00\n      keccak256\n        /* \"contracts/modules/Controllers/Controllers.sol\":1871:1923  ControllersStorage.layout().weights[_controller] = 0 */\n      dup2\n      swap1\n      sstore\n      pop\n        /* \"contracts/modules/Controllers/Controllers.sol\":1533:1928  function _removeController(address _controller) internal {... */\n      pop\n      jump\t// out\n        /* \"contracts/modules/Controllers/Controllers.sol\":975:1176  function _addController(address _controller, uint256 _weight) internal {... */\n    tag_205:\n        /* \"contracts/modules/Controllers/Controllers.sol\":1096:1103  _weight */\n      dup1\n        /* \"contracts/modules/Controllers/Controllers.sol\":1052:1079  ControllersStorage.layout() */\n      tag_285\n        /* \"contracts/modules/Controllers/Controllers.sol\":1052:1077  ControllersStorage.layout */\n      tag_66\n        /* \"contracts/modules/Controllers/Controllers.sol\":1052:1079  ControllersStorage.layout() */\n      jump\t// in\n    tag_285:\n        /* \"contracts/modules/Controllers/Controllers.sol\":1052:1092  ControllersStorage.layout().totalWeights */\n      0x01\n      add\n      0x00\n        /* \"contracts/modules/Controllers/Controllers.sol\":1052:1103  ControllersStorage.layout().totalWeights += _weight */\n      dup3\n      dup3\n      sload\n      tag_286\n      swap2\n      swap1\n      tag_229\n      jump\t// in\n    tag_286:\n      swap3\n      pop\n      pop\n      dup2\n      swap1\n      sstore\n      pop\n        /* \"contracts/modules/Controllers/Controllers.sol\":1160:1167  _weight */\n      dup1\n        /* \"contracts/modules/Controllers/Controllers.sol\":1109:1136  ControllersStorage.layout() */\n      tag_287\n        /* \"contracts/modules/Controllers/Controllers.sol\":1109:1134  ControllersStorage.layout */\n      tag_66\n        /* \"contracts/modules/Controllers/Controllers.sol\":1109:1136  ControllersStorage.layout() */\n      jump\t// in\n    tag_287:\n        /* \"contracts/modules/Controllers/Controllers.sol\":1109:1144  ControllersStorage.layout().weights */\n      0x02\n      add\n        /* \"contracts/modules/Controllers/Controllers.sol\":1109:1157  ControllersStorage.layout().weights[_controller] */\n      0x00\n        /* \"contracts/modules/Controllers/Controllers.sol\":1145:1156  _controller */\n      dup5\n        /* \"contracts/modules/Controllers/Controllers.sol\":1109:1157  ControllersStorage.layout().weights[_controller] */\n      0xffffffffffffffffffffffffffffffffffffffff\n      and\n      0xffffffffffffffffffffffffffffffffffffffff\n      and\n      dup2\n      mstore\n      0x20\n      add\n      swap1\n      dup2\n      mstore\n      0x20\n      add\n      0x00\n      keccak256\n        /* \"contracts/modules/Controllers/Controllers.sol\":1109:1167  ControllersStorage.layout().weights[_controller] = _weight */\n      dup2\n      swap1\n      sstore\n      pop\n        /* \"contracts/modules/Controllers/Controllers.sol\":975:1176  function _addController(address _controller, uint256 _weight) internal {... */\n      pop\n      pop\n      jump\t// out\n        /* \"@openzeppelin/contracts/utils/introspection/ERC165.sol\":829:984  function supportsInterface(bytes4 interfaceId) public view virtual override returns (bool) {... */\n    tag_244:\n        /* \"@openzeppelin/contracts/utils/introspection/ERC165.sol\":914:918  bool */\n      0x00\n        /* \"@openzeppelin/contracts/utils/introspection/ERC165.sol\":952:977  type(IERC165).interfaceId */\n      0x01ffc9a700000000000000000000000000000000000000000000000000000000\n        /* \"@openzeppelin/contracts/utils/introspection/ERC165.sol\":937:977  interfaceId == type(IERC165).interfaceId */\n      not(0xffffffffffffffffffffffffffffffffffffffffffffffffffffffff)\n      and\n        /* \"@openzeppelin/contracts/utils/introspection/ERC165.sol\":937:948  interfaceId */\n      dup3\n        /* \"@openzeppelin/contracts/utils/introspection/ERC165.sol\":937:977  interfaceId == type(IERC165).interfaceId */\n      not(0xffffffffffffffffffffffffffffffffffffffffffffffffffffffff)\n      and\n      eq\n        /* \"@openzeppelin/contracts/utils/introspection/ERC165.sol\":930:977  return interfaceId == type(IERC165).interfaceId */\n      swap1\n      pop\n        /* \"@openzeppelin/contracts/utils/introspection/ERC165.sol\":829:984  function supportsInterface(bytes4 interfaceId) public view virtual override returns (bool) {... */\n      swap2\n      swap1\n      pop\n      jump\t// out\n        /* \"contracts/utils/Signatures.sol\":187:356  function getSigner(bytes32 _inputHash, bytes memory _signature) internal pure returns (address) {... */\n    tag_253:\n        /* \"contracts/utils/Signatures.sol\":274:281  address */\n      0x00\n        /* \"contracts/utils/Signatures.sol\":296:351  _inputHash.toEthSignedMessageHash().recover(_signature) */\n      tag_290\n        /* \"contracts/utils/Signatures.sol\":340:350  _signature */\n      dup3\n        /* \"contracts/utils/Signatures.sol\":296:331  _inputHash.toEthSignedMessageHash() */\n      tag_291\n        /* \"contracts/utils/Signatures.sol\":296:306  _inputHash */\n      dup6\n        /* \"contracts/utils/Signatures.sol\":296:329  _inputHash.toEthSignedMessageHash */\n      tag_292\n        /* \"contracts/utils/Signatures.sol\":296:331  _inputHash.toEthSignedMessageHash() */\n      jump\t// in\n    tag_291:\n        /* \"contracts/utils/Signatures.sol\":296:339  _inputHash.toEthSignedMessageHash().recover */\n      tag_293\n      swap1\n        /* \"contracts/utils/Signatures.sol\":296:351  _inputHash.toEthSignedMessageHash().recover(_signature) */\n      swap2\n      swap1\n      0xffffffff\n      and\n      jump\t// in\n    tag_290:\n        /* \"contracts/utils/Signatures.sol\":289:351  return _inputHash.toEthSignedMessageHash().recover(_signature) */\n      swap1\n      pop\n        /* \"contracts/utils/Signatures.sol\":187:356  function getSigner(bytes32 _inputHash, bytes memory _signature) internal pure returns (address) {... */\n      swap3\n      swap2\n      pop\n      pop\n      jump\t// out\n        /* \"@openzeppelin/contracts/utils/cryptography/ECDSA.sol\":7256:7521  function toEthSignedMessageHash(bytes32 hash) internal pure returns (bytes32) {... */\n    tag_292:\n        /* \"@openzeppelin/contracts/utils/cryptography/ECDSA.sol\":7325:7332  bytes32 */\n      0x00\n        /* \"@openzeppelin/contracts/utils/cryptography/ECDSA.sol\":7508:7512  hash */\n      dup2\n        /* \"@openzeppelin/contracts/utils/cryptography/ECDSA.sol\":7455:7513  abi.encodePacked(\"\\x19Ethereum Signed Message:\\n32\", hash) */\n      add(0x20, mload(0x40))\n      tag_295\n      swap2\n      swap1\n      tag_296\n      jump\t// in\n    tag_295:\n      mload(0x40)\n      0x20\n      dup2\n      dup4\n      sub\n      sub\n      dup2\n      mstore\n      swap1\n      0x40\n      mstore\n        /* \"@openzeppelin/contracts/utils/cryptography/ECDSA.sol\":7445:7514  keccak256(abi.encodePacked(\"\\x19Ethereum Signed Message:\\n32\", hash)) */\n      dup1\n      mload\n      swap1\n      0x20\n      add\n      keccak256\n        /* \"@openzeppelin/contracts/utils/cryptography/ECDSA.sol\":7438:7514  return keccak256(abi.encodePacked(\"\\x19Ethereum Signed Message:\\n32\", hash)) */\n      swap1\n      pop\n        /* \"@openzeppelin/contracts/utils/cryptography/ECDSA.sol\":7256:7521  function toEthSignedMessageHash(bytes32 hash) internal pure returns (bytes32) {... */\n      swap2\n      swap1\n      pop\n      jump\t// out\n        /* \"@openzeppelin/contracts/utils/cryptography/ECDSA.sol\":3661:3888  function recover(bytes32 hash, bytes memory signature) internal pure returns (address) {... */\n    tag_293:\n        /* \"@openzeppelin/contracts/utils/cryptography/ECDSA.sol\":3739:3746  address */\n      0x00\n        /* \"@openzeppelin/contracts/utils/cryptography/ECDSA.sol\":3759:3776  address recovered */\n      dup1\n        /* \"@openzeppelin/contracts/utils/cryptography/ECDSA.sol\":3778:3796  RecoverError error */\n      0x00\n        /* \"@openzeppelin/contracts/utils/cryptography/ECDSA.sol\":3800:3827  tryRecover(hash, signature) */\n      tag_298\n        /* \"@openzeppelin/contracts/utils/cryptography/ECDSA.sol\":3811:3815  hash */\n      dup6\n        /* \"@openzeppelin/contracts/utils/cryptography/ECDSA.sol\":3817:3826  signature */\n      dup6\n        /* \"@openzeppelin/contracts/utils/cryptography/ECDSA.sol\":3800:3810  tryRecover */\n      tag_299\n        /* \"@openzeppelin/contracts/utils/cryptography/ECDSA.sol\":3800:3827  tryRecover(hash, signature) */\n      jump\t// in\n    tag_298:\n        /* \"@openzeppelin/contracts/utils/cryptography/ECDSA.sol\":3758:3827  (address recovered, RecoverError error) = tryRecover(hash, signature) */\n      swap2\n      pop\n      swap2\n      pop\n        /* \"@openzeppelin/contracts/utils/cryptography/ECDSA.sol\":3837:3855  _throwError(error) */\n      tag_300\n        /* \"@openzeppelin/contracts/utils/cryptography/ECDSA.sol\":3849:3854  error */\n      dup2\n        /* \"@openzeppelin/contracts/utils/cryptography/ECDSA.sol\":3837:3848  _throwError */\n      tag_301\n        /* \"@openzeppelin/contracts/utils/cryptography/ECDSA.sol\":3837:3855  _throwError(error) */\n      jump\t// in\n    tag_300:\n        /* \"@openzeppelin/contracts/utils/cryptography/ECDSA.sol\":3872:3881  recovered */\n      dup2\n        /* \"@openzeppelin/contracts/utils/cryptography/ECDSA.sol\":3865:3881  return recovered */\n      swap3\n      pop\n      pop\n      pop\n        /* \"@openzeppelin/contracts/utils/cryptography/ECDSA.sol\":3661:3888  function recover(bytes32 hash, bytes memory signature) internal pure returns (address) {... */\n      swap3\n      swap2\n      pop\n      pop\n      jump\t// out\n        /* \"@openzeppelin/contracts/utils/cryptography/ECDSA.sol\":2145:2875  function tryRecover(bytes32 hash, bytes memory signature) internal pure returns (address, RecoverError) {... */\n    tag_299:\n        /* \"@openzeppelin/contracts/utils/cryptography/ECDSA.sol\":2226:2233  address */\n      0x00\n        /* \"@openzeppelin/contracts/utils/cryptography/ECDSA.sol\":2235:2247  RecoverError */\n      dup1\n        /* \"@openzeppelin/contracts/utils/cryptography/ECDSA.sol\":2283:2285  65 */\n      0x41\n        /* \"@openzeppelin/contracts/utils/cryptography/ECDSA.sol\":2263:2272  signature */\n      dup4\n        /* \"@openzeppelin/contracts/utils/cryptography/ECDSA.sol\":2263:2279  signature.length */\n      mload\n        /* \"@openzeppelin/contracts/utils/cryptography/ECDSA.sol\":2263:2285  signature.length == 65 */\n      sub\n        /* \"@openzeppelin/contracts/utils/cryptography/ECDSA.sol\":2259:2869  if (signature.length == 65) {... */\n      tag_303\n      jumpi\n        /* \"@openzeppelin/contracts/utils/cryptography/ECDSA.sol\":2301:2310  bytes32 r */\n      0x00\n        /* \"@openzeppelin/contracts/utils/cryptography/ECDSA.sol\":2324:2333  bytes32 s */\n      dup1\n        /* \"@openzeppelin/contracts/utils/cryptography/ECDSA.sol\":2347:2354  uint8 v */\n      0x00\n        /* \"@openzeppelin/contracts/utils/cryptography/ECDSA.sol\":2599:2603  0x20 */\n      0x20\n        /* \"@openzeppelin/contracts/utils/cryptography/ECDSA.sol\":2588:2597  signature */\n      dup7\n        /* \"@openzeppelin/contracts/utils/cryptography/ECDSA.sol\":2584:2604  add(signature, 0x20) */\n      add\n        /* \"@openzeppelin/contracts/utils/cryptography/ECDSA.sol\":2578:2605  mload(add(signature, 0x20)) */\n      mload\n        /* \"@openzeppelin/contracts/utils/cryptography/ECDSA.sol\":2573:2605  r := mload(add(signature, 0x20)) */\n      swap3\n      pop\n        /* \"@openzeppelin/contracts/utils/cryptography/ECDSA.sol\":2648:2652  0x40 */\n      0x40\n        /* \"@openzeppelin/contracts/utils/cryptography/ECDSA.sol\":2637:2646  signature */\n      dup7\n        /* \"@openzeppelin/contracts/utils/cryptography/ECDSA.sol\":2633:2653  add(signature, 0x40) */\n      add\n        /* \"@openzeppelin/contracts/utils/cryptography/ECDSA.sol\":2627:2654  mload(add(signature, 0x40)) */\n      mload\n        /* \"@openzeppelin/contracts/utils/cryptography/ECDSA.sol\":2622:2654  s := mload(add(signature, 0x40)) */\n      swap2\n      pop\n        /* \"@openzeppelin/contracts/utils/cryptography/ECDSA.sol\":2705:2709  0x60 */\n      0x60\n        /* \"@openzeppelin/contracts/utils/cryptography/ECDSA.sol\":2694:2703  signature */\n      dup7\n        /* \"@openzeppelin/contracts/utils/cryptography/ECDSA.sol\":2690:2710  add(signature, 0x60) */\n      add\n        /* \"@openzeppelin/contracts/utils/cryptography/ECDSA.sol\":2684:2711  mload(add(signature, 0x60)) */\n      mload\n        /* \"@openzeppelin/contracts/utils/cryptography/ECDSA.sol\":2681:2682  0 */\n      0x00\n        /* \"@openzeppelin/contracts/utils/cryptography/ECDSA.sol\":2676:2712  byte(0, mload(add(signature, 0x60))) */\n      byte\n        /* \"@openzeppelin/contracts/utils/cryptography/ECDSA.sol\":2671:2712  v := byte(0, mload(add(signature, 0x60))) */\n      swap1\n      pop\n        /* \"@openzeppelin/contracts/utils/cryptography/ECDSA.sol\":2746:2771  tryRecover(hash, v, r, s) */\n      tag_304\n        /* \"@openzeppelin/contracts/utils/cryptography/ECDSA.sol\":2757:2761  hash */\n      dup8\n        /* \"@openzeppelin/contracts/utils/cryptography/ECDSA.sol\":2763:2764  v */\n      dup3\n        /* \"@openzeppelin/contracts/utils/cryptography/ECDSA.sol\":2766:2767  r */\n      dup6\n        /* \"@openzeppelin/contracts/utils/cryptography/ECDSA.sol\":2769:2770  s */\n      dup6\n        /* \"@openzeppelin/contracts/utils/cryptography/ECDSA.sol\":2746:2756  tryRecover */\n      tag_305\n        /* \"@openzeppelin/contracts/utils/cryptography/ECDSA.sol\":2746:2771  tryRecover(hash, v, r, s) */\n      jump\t// in\n    tag_304:\n        /* \"@openzeppelin/contracts/utils/cryptography/ECDSA.sol\":2739:2771  return tryRecover(hash, v, r, s) */\n      swap5\n      pop\n      swap5\n      pop\n      pop\n      pop\n      pop\n      jump(tag_302)\n        /* \"@openzeppelin/contracts/utils/cryptography/ECDSA.sol\":2259:2869  if (signature.length == 65) {... */\n    tag_303:\n        /* \"@openzeppelin/contracts/utils/cryptography/ECDSA.sol\":2818:2819  0 */\n      0x00\n        /* \"@openzeppelin/contracts/utils/cryptography/ECDSA.sol\":2822:2857  RecoverError.InvalidSignatureLength */\n      0x02\n        /* \"@openzeppelin/contracts/utils/cryptography/ECDSA.sol\":2802:2858  return (address(0), RecoverError.InvalidSignatureLength) */\n      swap2\n      pop\n      swap2\n      pop\n        /* \"@openzeppelin/contracts/utils/cryptography/ECDSA.sol\":2145:2875  function tryRecover(bytes32 hash, bytes memory signature) internal pure returns (address, RecoverError) {... */\n    tag_302:\n      swap3\n      pop\n      swap3\n      swap1\n      pop\n      jump\t// out\n        /* \"@openzeppelin/contracts/utils/cryptography/ECDSA.sol\":570:1081  function _throwError(RecoverError error) private pure {... */\n    tag_301:\n        /* \"@openzeppelin/contracts/utils/cryptography/ECDSA.sol\":647:667  RecoverError.NoError */\n      0x00\n        /* \"@openzeppelin/contracts/utils/cryptography/ECDSA.sol\":638:667  error == RecoverError.NoError */\n      0x04\n      dup2\n      gt\n      iszero\n      tag_308\n      jumpi\n      tag_309\n      tag_310\n      jump\t// in\n    tag_309:\n    tag_308:\n        /* \"@openzeppelin/contracts/utils/cryptography/ECDSA.sol\":638:643  error */\n      dup2\n        /* \"@openzeppelin/contracts/utils/cryptography/ECDSA.sol\":638:667  error == RecoverError.NoError */\n      0x04\n      dup2\n      gt\n      iszero\n      tag_311\n      jumpi\n      tag_312\n      tag_310\n      jump\t// in\n    tag_312:\n    tag_311:\n      sub\n        /* \"@openzeppelin/contracts/utils/cryptography/ECDSA.sol\":634:1075  if (error == RecoverError.NoError) {... */\n      iszero\n        /* \"@openzeppelin/contracts/utils/cryptography/ECDSA.sol\":683:690  return; */\n      tag_307\n        /* \"@openzeppelin/contracts/utils/cryptography/ECDSA.sol\":634:1075  if (error == RecoverError.NoError) {... */\n      jumpi\n        /* \"@openzeppelin/contracts/utils/cryptography/ECDSA.sol\":743:772  RecoverError.InvalidSignature */\n      0x01\n        /* \"@openzeppelin/contracts/utils/cryptography/ECDSA.sol\":734:772  error == RecoverError.InvalidSignature */\n      0x04\n      dup2\n      gt\n      iszero\n      tag_315\n      jumpi\n      tag_316\n      tag_310\n      jump\t// in\n    tag_316:\n    tag_315:\n        /* \"@openzeppelin/contracts/utils/cryptography/ECDSA.sol\":734:739  error */\n      dup2\n        /* \"@openzeppelin/contracts/utils/cryptography/ECDSA.sol\":734:772  error == RecoverError.InvalidSignature */\n      0x04\n      dup2\n      gt\n      iszero\n      tag_317\n      jumpi\n      tag_318\n      tag_310\n      jump\t// in\n    tag_318:\n    tag_317:\n      sub\n        /* \"@openzeppelin/contracts/utils/cryptography/ECDSA.sol\":730:1075  if (error == RecoverError.InvalidSignature) {... */\n      tag_319\n      jumpi\n        /* \"@openzeppelin/contracts/utils/cryptography/ECDSA.sol\":788:822  revert(\"ECDSA: invalid signature\") */\n      mload(0x40)\n      0x08c379a000000000000000000000000000000000000000000000000000000000\n      dup2\n      mstore\n      0x04\n      add\n      tag_320\n      swap1\n      tag_321\n      jump\t// in\n    tag_320:\n      mload(0x40)\n      dup1\n      swap2\n      sub\n      swap1\n      revert\n        /* \"@openzeppelin/contracts/utils/cryptography/ECDSA.sol\":730:1075  if (error == RecoverError.InvalidSignature) {... */\n    tag_319:\n        /* \"@openzeppelin/contracts/utils/cryptography/ECDSA.sol\":852:887  RecoverError.InvalidSignatureLength */\n      0x02\n        /* \"@openzeppelin/contracts/utils/cryptography/ECDSA.sol\":843:887  error == RecoverError.InvalidSignatureLength */\n      0x04\n      dup2\n      gt\n      iszero\n      tag_323\n      jumpi\n      tag_324\n      tag_310\n      jump\t// in\n    tag_324:\n    tag_323:\n        /* \"@openzeppelin/contracts/utils/cryptography/ECDSA.sol\":843:848  error */\n      dup2\n        /* \"@openzeppelin/contracts/utils/cryptography/ECDSA.sol\":843:887  error == RecoverError.InvalidSignatureLength */\n      0x04\n      dup2\n      gt\n      iszero\n      tag_325\n      jumpi\n      tag_326\n      tag_310\n      jump\t// in\n    tag_326:\n    tag_325:\n      sub\n        /* \"@openzeppelin/contracts/utils/cryptography/ECDSA.sol\":839:1075  if (error == RecoverError.InvalidSignatureLength) {... */\n      tag_327\n      jumpi\n        /* \"@openzeppelin/contracts/utils/cryptography/ECDSA.sol\":903:944  revert(\"ECDSA: invalid signature length\") */\n      mload(0x40)\n      0x08c379a000000000000000000000000000000000000000000000000000000000\n      dup2\n      mstore\n      0x04\n      add\n      tag_328\n      swap1\n      tag_329\n      jump\t// in\n    tag_328:\n      mload(0x40)\n      dup1\n      swap2\n      sub\n      swap1\n      revert\n        /* \"@openzeppelin/contracts/utils/cryptography/ECDSA.sol\":839:1075  if (error == RecoverError.InvalidSignatureLength) {... */\n    tag_327:\n        /* \"@openzeppelin/contracts/utils/cryptography/ECDSA.sol\":974:1004  RecoverError.InvalidSignatureS */\n      0x03\n        /* \"@openzeppelin/contracts/utils/cryptography/ECDSA.sol\":965:1004  error == RecoverError.InvalidSignatureS */\n      0x04\n      dup2\n      gt\n      iszero\n      tag_331\n      jumpi\n      tag_332\n      tag_310\n      jump\t// in\n    tag_332:\n    tag_331:\n        /* \"@openzeppelin/contracts/utils/cryptography/ECDSA.sol\":965:970  error */\n      dup2\n        /* \"@openzeppelin/contracts/utils/cryptography/ECDSA.sol\":965:1004  error == RecoverError.InvalidSignatureS */\n      0x04\n      dup2\n      gt\n      iszero\n      tag_333\n      jumpi\n      tag_334\n      tag_310\n      jump\t// in\n    tag_334:\n    tag_333:\n      sub\n        /* \"@openzeppelin/contracts/utils/cryptography/ECDSA.sol\":961:1075  if (error == RecoverError.InvalidSignatureS) {... */\n      tag_335\n      jumpi\n        /* \"@openzeppelin/contracts/utils/cryptography/ECDSA.sol\":1020:1064  revert(\"ECDSA: invalid signature 's' value\") */\n      mload(0x40)\n      0x08c379a000000000000000000000000000000000000000000000000000000000\n      dup2\n      mstore\n      0x04\n      add\n      tag_336\n      swap1\n      tag_337\n      jump\t// in\n    tag_336:\n      mload(0x40)\n      dup1\n      swap2\n      sub\n      swap1\n      revert\n        /* \"@openzeppelin/contracts/utils/cryptography/ECDSA.sol\":961:1075  if (error == RecoverError.InvalidSignatureS) {... */\n    tag_335:\n        /* \"@openzeppelin/contracts/utils/cryptography/ECDSA.sol\":570:1081  function _throwError(RecoverError error) private pure {... */\n    tag_307:\n      pop\n      jump\t// out\n        /* \"@openzeppelin/contracts/utils/cryptography/ECDSA.sol\":5069:6563  function tryRecover(... */\n    tag_305:\n        /* \"@openzeppelin/contracts/utils/cryptography/ECDSA.sol\":5195:5202  address */\n      0x00\n        /* \"@openzeppelin/contracts/utils/cryptography/ECDSA.sol\":5204:5216  RecoverError */\n      dup1\n        /* \"@openzeppelin/contracts/utils/cryptography/ECDSA.sol\":6119:6185  0x7FFFFFFFFFFFFFFFFFFFFFFFFFFFFFFF5D576E7357A4501DDFE92F46681B20A0 */\n      0x7fffffffffffffffffffffffffffffff5d576e7357a4501ddfe92f46681b20a0\n        /* \"@openzeppelin/contracts/utils/cryptography/ECDSA.sol\":6114:6115  s */\n      dup4\n        /* \"@openzeppelin/contracts/utils/cryptography/ECDSA.sol\":6106:6116  uint256(s) */\n      0x00\n      shr\n        /* \"@openzeppelin/contracts/utils/cryptography/ECDSA.sol\":6106:6185  uint256(s) > 0x7FFFFFFFFFFFFFFFFFFFFFFFFFFFFFFF5D576E7357A4501DDFE92F46681B20A0 */\n      gt\n        /* \"@openzeppelin/contracts/utils/cryptography/ECDSA.sol\":6102:6263  if (uint256(s) > 0x7FFFFFFFFFFFFFFFFFFFFFFFFFFFFFFF5D576E7357A4501DDFE92F46681B20A0) {... */\n      iszero\n      tag_339\n      jumpi\n        /* \"@openzeppelin/contracts/utils/cryptography/ECDSA.sol\":6217:6218  0 */\n      0x00\n        /* \"@openzeppelin/contracts/utils/cryptography/ECDSA.sol\":6221:6251  RecoverError.InvalidSignatureS */\n      0x03\n        /* \"@openzeppelin/contracts/utils/cryptography/ECDSA.sol\":6201:6252  return (address(0), RecoverError.InvalidSignatureS) */\n      swap2\n      pop\n      swap2\n      pop\n      jump(tag_338)\n        /* \"@openzeppelin/contracts/utils/cryptography/ECDSA.sol\":6102:6263  if (uint256(s) > 0x7FFFFFFFFFFFFFFFFFFFFFFFFFFFFFFF5D576E7357A4501DDFE92F46681B20A0) {... */\n    tag_339:\n        /* \"@openzeppelin/contracts/utils/cryptography/ECDSA.sol\":6357:6371  address signer */\n      0x00\n        /* \"@openzeppelin/contracts/utils/cryptography/ECDSA.sol\":6374:6398  ecrecover(hash, v, r, s) */\n      0x01\n        /* \"@openzeppelin/contracts/utils/cryptography/ECDSA.sol\":6384:6388  hash */\n      dup8\n        /* \"@openzeppelin/contracts/utils/cryptography/ECDSA.sol\":6390:6391  v */\n      dup8\n        /* \"@openzeppelin/contracts/utils/cryptography/ECDSA.sol\":6393:6394  r */\n      dup8\n        /* \"@openzeppelin/contracts/utils/cryptography/ECDSA.sol\":6396:6397  s */\n      dup8\n        /* \"@openzeppelin/contracts/utils/cryptography/ECDSA.sol\":6374:6398  ecrecover(hash, v, r, s) */\n      mload(0x40)\n      0x00\n      dup2\n      mstore\n      0x20\n      add\n      0x40\n      mstore\n      mload(0x40)\n      tag_340\n      swap5\n      swap4\n      swap3\n      swap2\n      swap1\n      tag_341\n      jump\t// in\n    tag_340:\n      0x20\n      mload(0x40)\n      0x20\n      dup2\n      sub\n      swap1\n      dup1\n      dup5\n      sub\n      swap1\n      dup6\n      gas\n      staticcall\n      iszero\n      dup1\n      iszero\n      tag_343\n      jumpi\n      returndatasize\n      0x00\n      dup1\n      returndatacopy\n      revert(0x00, returndatasize)\n    tag_343:\n      pop\n      pop\n      pop\n      mload(sub(mload(0x40), 0x20))\n        /* \"@openzeppelin/contracts/utils/cryptography/ECDSA.sol\":6357:6398  address signer = ecrecover(hash, v, r, s) */\n      swap1\n      pop\n        /* \"@openzeppelin/contracts/utils/cryptography/ECDSA.sol\":6430:6431  0 */\n      0x00\n        /* \"@openzeppelin/contracts/utils/cryptography/ECDSA.sol\":6412:6432  signer == address(0) */\n      0xffffffffffffffffffffffffffffffffffffffff\n      and\n        /* \"@openzeppelin/contracts/utils/cryptography/ECDSA.sol\":6412:6418  signer */\n      dup2\n        /* \"@openzeppelin/contracts/utils/cryptography/ECDSA.sol\":6412:6432  signer == address(0) */\n      0xffffffffffffffffffffffffffffffffffffffff\n      and\n      sub\n        /* \"@openzeppelin/contracts/utils/cryptography/ECDSA.sol\":6408:6509  if (signer == address(0)) {... */\n      tag_344\n      jumpi\n        /* \"@openzeppelin/contracts/utils/cryptography/ECDSA.sol\":6464:6465  0 */\n      0x00\n        /* \"@openzeppelin/contracts/utils/cryptography/ECDSA.sol\":6468:6497  RecoverError.InvalidSignature */\n      0x01\n        /* \"@openzeppelin/contracts/utils/cryptography/ECDSA.sol\":6448:6498  return (address(0), RecoverError.InvalidSignature) */\n      swap3\n      pop\n      swap3\n      pop\n      pop\n      jump(tag_338)\n        /* \"@openzeppelin/contracts/utils/cryptography/ECDSA.sol\":6408:6509  if (signer == address(0)) {... */\n    tag_344:\n        /* \"@openzeppelin/contracts/utils/cryptography/ECDSA.sol\":6527:6533  signer */\n      dup1\n        /* \"@openzeppelin/contracts/utils/cryptography/ECDSA.sol\":6535:6555  RecoverError.NoError */\n      0x00\n        /* \"@openzeppelin/contracts/utils/cryptography/ECDSA.sol\":6519:6556  return (signer, RecoverError.NoError) */\n      swap3\n      pop\n      swap3\n      pop\n      pop\n        /* \"@openzeppelin/contracts/utils/cryptography/ECDSA.sol\":5069:6563  function tryRecover(... */\n    tag_338:\n      swap5\n      pop\n      swap5\n      swap3\n      pop\n      pop\n      pop\n      jump\t// out\n        /* \"#utility.yul\":7:82   */\n    tag_345:\n        /* \"#utility.yul\":40:46   */\n      0x00\n        /* \"#utility.yul\":73:75   */\n      0x40\n        /* \"#utility.yul\":67:76   */\n      mload\n        /* \"#utility.yul\":57:76   */\n      swap1\n      pop\n        /* \"#utility.yul\":7:82   */\n      swap1\n      jump\t// out\n        /* \"#utility.yul\":88:205   */\n    tag_346:\n        /* \"#utility.yul\":197:198   */\n      0x00\n        /* \"#utility.yul\":194:195   */\n      dup1\n        /* \"#utility.yul\":187:199   */\n      revert\n        /* \"#utility.yul\":211:328   */\n    tag_347:\n        /* \"#utility.yul\":320:321   */\n      0x00\n        /* \"#utility.yul\":317:318   */\n      dup1\n        /* \"#utility.yul\":310:322   */\n      revert\n        /* \"#utility.yul\":334:483   */\n    tag_348:\n        /* \"#utility.yul\":370:377   */\n      0x00\n        /* \"#utility.yul\":410:476   */\n      0xffffffff00000000000000000000000000000000000000000000000000000000\n        /* \"#utility.yul\":403:408   */\n      dup3\n        /* \"#utility.yul\":399:477   */\n      and\n        /* \"#utility.yul\":388:477   */\n      swap1\n      pop\n        /* \"#utility.yul\":334:483   */\n      swap2\n      swap1\n      pop\n      jump\t// out\n        /* \"#utility.yul\":489:609   */\n    tag_349:\n        /* \"#utility.yul\":561:584   */\n      tag_453\n        /* \"#utility.yul\":578:583   */\n      dup2\n        /* \"#utility.yul\":561:584   */\n      tag_348\n      jump\t// in\n    tag_453:\n        /* \"#utility.yul\":554:559   */\n      dup2\n        /* \"#utility.yul\":551:585   */\n      eq\n        /* \"#utility.yul\":541:603   */\n      tag_454\n      jumpi\n        /* \"#utility.yul\":599:600   */\n      0x00\n        /* \"#utility.yul\":596:597   */\n      dup1\n        /* \"#utility.yul\":589:601   */\n      revert\n        /* \"#utility.yul\":541:603   */\n    tag_454:\n        /* \"#utility.yul\":489:609   */\n      pop\n      jump\t// out\n        /* \"#utility.yul\":615:752   */\n    tag_350:\n        /* \"#utility.yul\":660:665   */\n      0x00\n        /* \"#utility.yul\":698:704   */\n      dup2\n        /* \"#utility.yul\":685:705   */\n      calldataload\n        /* \"#utility.yul\":676:705   */\n      swap1\n      pop\n        /* \"#utility.yul\":714:746   */\n      tag_456\n        /* \"#utility.yul\":740:745   */\n      dup2\n        /* \"#utility.yul\":714:746   */\n      tag_349\n      jump\t// in\n    tag_456:\n        /* \"#utility.yul\":615:752   */\n      swap3\n      swap2\n      pop\n      pop\n      jump\t// out\n        /* \"#utility.yul\":758:1085   */\n    tag_16:\n        /* \"#utility.yul\":816:822   */\n      0x00\n        /* \"#utility.yul\":865:867   */\n      0x20\n        /* \"#utility.yul\":853:862   */\n      dup3\n        /* \"#utility.yul\":844:851   */\n      dup5\n        /* \"#utility.yul\":840:863   */\n      sub\n        /* \"#utility.yul\":836:868   */\n      slt\n        /* \"#utility.yul\":833:952   */\n      iszero\n      tag_458\n      jumpi\n        /* \"#utility.yul\":871:950   */\n      tag_459\n      tag_346\n      jump\t// in\n    tag_459:\n        /* \"#utility.yul\":833:952   */\n    tag_458:\n        /* \"#utility.yul\":991:992   */\n      0x00\n        /* \"#utility.yul\":1016:1068   */\n      tag_460\n        /* \"#utility.yul\":1060:1067   */\n      dup5\n        /* \"#utility.yul\":1051:1057   */\n      dup3\n        /* \"#utility.yul\":1040:1049   */\n      dup6\n        /* \"#utility.yul\":1036:1058   */\n      add\n        /* \"#utility.yul\":1016:1068   */\n      tag_350\n      jump\t// in\n    tag_460:\n        /* \"#utility.yul\":1006:1068   */\n      swap2\n      pop\n        /* \"#utility.yul\":962:1078   */\n      pop\n        /* \"#utility.yul\":758:1085   */\n      swap3\n      swap2\n      pop\n      pop\n      jump\t// out\n        /* \"#utility.yul\":1091:1181   */\n    tag_351:\n        /* \"#utility.yul\":1125:1132   */\n      0x00\n        /* \"#utility.yul\":1168:1173   */\n      dup2\n        /* \"#utility.yul\":1161:1174   */\n      iszero\n        /* \"#utility.yul\":1154:1175   */\n      iszero\n        /* \"#utility.yul\":1143:1175   */\n      swap1\n      pop\n        /* \"#utility.yul\":1091:1181   */\n      swap2\n      swap1\n      pop\n      jump\t// out\n        /* \"#utility.yul\":1187:1296   */\n    tag_352:\n        /* \"#utility.yul\":1268:1289   */\n      tag_463\n        /* \"#utility.yul\":1283:1288   */\n      dup2\n        /* \"#utility.yul\":1268:1289   */\n      tag_351\n      jump\t// in\n    tag_463:\n        /* \"#utility.yul\":1263:1266   */\n      dup3\n        /* \"#utility.yul\":1256:1290   */\n      mstore\n        /* \"#utility.yul\":1187:1296   */\n      pop\n      pop\n      jump\t// out\n        /* \"#utility.yul\":1302:1512   */\n    tag_19:\n        /* \"#utility.yul\":1389:1393   */\n      0x00\n        /* \"#utility.yul\":1427:1429   */\n      0x20\n        /* \"#utility.yul\":1416:1425   */\n      dup3\n        /* \"#utility.yul\":1412:1430   */\n      add\n        /* \"#utility.yul\":1404:1430   */\n      swap1\n      pop\n        /* \"#utility.yul\":1440:1505   */\n      tag_465\n        /* \"#utility.yul\":1502:1503   */\n      0x00\n        /* \"#utility.yul\":1491:1500   */\n      dup4\n        /* \"#utility.yul\":1487:1504   */\n      add\n        /* \"#utility.yul\":1478:1484   */\n      dup5\n        /* \"#utility.yul\":1440:1505   */\n      tag_352\n      jump\t// in\n    tag_465:\n        /* \"#utility.yul\":1302:1512   */\n      swap3\n      swap2\n      pop\n      pop\n      jump\t// out\n        /* \"#utility.yul\":1518:1595   */\n    tag_353:\n        /* \"#utility.yul\":1555:1562   */\n      0x00\n        /* \"#utility.yul\":1584:1589   */\n      dup2\n        /* \"#utility.yul\":1573:1589   */\n      swap1\n      pop\n        /* \"#utility.yul\":1518:1595   */\n      swap2\n      swap1\n      pop\n      jump\t// out\n        /* \"#utility.yul\":1601:1719   */\n    tag_354:\n        /* \"#utility.yul\":1688:1712   */\n      tag_468\n        /* \"#utility.yul\":1706:1711   */\n      dup2\n        /* \"#utility.yul\":1688:1712   */\n      tag_353\n      jump\t// in\n    tag_468:\n        /* \"#utility.yul\":1683:1686   */\n      dup3\n        /* \"#utility.yul\":1676:1713   */\n      mstore\n        /* \"#utility.yul\":1601:1719   */\n      pop\n      pop\n      jump\t// out\n        /* \"#utility.yul\":1725:1947   */\n    tag_23:\n        /* \"#utility.yul\":1818:1822   */\n      0x00\n        /* \"#utility.yul\":1856:1858   */\n      0x20\n        /* \"#utility.yul\":1845:1854   */\n      dup3\n        /* \"#utility.yul\":1841:1859   */\n      add\n        /* \"#utility.yul\":1833:1859   */\n      swap1\n      pop\n        /* \"#utility.yul\":1869:1940   */\n      tag_470\n        /* \"#utility.yul\":1937:1938   */\n      0x00\n        /* \"#utility.yul\":1926:1935   */\n      dup4\n        /* \"#utility.yul\":1922:1939   */\n      add\n        /* \"#utility.yul\":1913:1919   */\n      dup5\n        /* \"#utility.yul\":1869:1940   */\n      tag_354\n      jump\t// in\n    tag_470:\n        /* \"#utility.yul\":1725:1947   */\n      swap3\n      swap2\n      pop\n      pop\n      jump\t// out\n        /* \"#utility.yul\":1953:2070   */\n    tag_355:\n        /* \"#utility.yul\":2062:2063   */\n      0x00\n        /* \"#utility.yul\":2059:2060   */\n      dup1\n        /* \"#utility.yul\":2052:2064   */\n      revert\n        /* \"#utility.yul\":2076:2193   */\n    tag_356:\n        /* \"#utility.yul\":2185:2186   */\n      0x00\n        /* \"#utility.yul\":2182:2183   */\n      dup1\n        /* \"#utility.yul\":2175:2187   */\n      revert\n        /* \"#utility.yul\":2199:2316   */\n    tag_357:\n        /* \"#utility.yul\":2308:2309   */\n      0x00\n        /* \"#utility.yul\":2305:2306   */\n      dup1\n        /* \"#utility.yul\":2298:2310   */\n      revert\n        /* \"#utility.yul\":2366:2968   */\n    tag_358:\n        /* \"#utility.yul\":2473:2481   */\n      0x00\n        /* \"#utility.yul\":2483:2489   */\n      dup1\n        /* \"#utility.yul\":2533:2536   */\n      dup4\n        /* \"#utility.yul\":2526:2530   */\n      0x1f\n        /* \"#utility.yul\":2518:2524   */\n      dup5\n        /* \"#utility.yul\":2514:2531   */\n      add\n        /* \"#utility.yul\":2510:2537   */\n      slt\n        /* \"#utility.yul\":2500:2622   */\n      tag_475\n      jumpi\n        /* \"#utility.yul\":2541:2620   */\n      tag_476\n      tag_355\n      jump\t// in\n    tag_476:\n        /* \"#utility.yul\":2500:2622   */\n    tag_475:\n        /* \"#utility.yul\":2654:2660   */\n      dup3\n        /* \"#utility.yul\":2641:2661   */\n      calldataload\n        /* \"#utility.yul\":2631:2661   */\n      swap1\n      pop\n        /* \"#utility.yul\":2684:2702   */\n      0xffffffffffffffff\n        /* \"#utility.yul\":2676:2682   */\n      dup2\n        /* \"#utility.yul\":2673:2703   */\n      gt\n        /* \"#utility.yul\":2670:2787   */\n      iszero\n      tag_477\n      jumpi\n        /* \"#utility.yul\":2706:2785   */\n      tag_478\n      tag_356\n      jump\t// in\n    tag_478:\n        /* \"#utility.yul\":2670:2787   */\n    tag_477:\n        /* \"#utility.yul\":2820:2824   */\n      0x20\n        /* \"#utility.yul\":2812:2818   */\n      dup4\n        /* \"#utility.yul\":2808:2825   */\n      add\n        /* \"#utility.yul\":2796:2825   */\n      swap2\n      pop\n        /* \"#utility.yul\":2874:2877   */\n      dup4\n        /* \"#utility.yul\":2866:2870   */\n      0x20\n        /* \"#utility.yul\":2858:2864   */\n      dup3\n        /* \"#utility.yul\":2854:2871   */\n      mul\n        /* \"#utility.yul\":2844:2852   */\n      dup4\n        /* \"#utility.yul\":2840:2872   */\n      add\n        /* \"#utility.yul\":2837:2878   */\n      gt\n        /* \"#utility.yul\":2834:2962   */\n      iszero\n      tag_479\n      jumpi\n        /* \"#utility.yul\":2881:2960   */\n      tag_480\n      tag_357\n      jump\t// in\n    tag_480:\n        /* \"#utility.yul\":2834:2962   */\n    tag_479:\n        /* \"#utility.yul\":2366:2968   */\n      swap3\n      pop\n      swap3\n      swap1\n      pop\n      jump\t// out\n        /* \"#utility.yul\":2989:3568   */\n    tag_359:\n        /* \"#utility.yul\":3073:3081   */\n      0x00\n        /* \"#utility.yul\":3083:3089   */\n      dup1\n        /* \"#utility.yul\":3133:3136   */\n      dup4\n        /* \"#utility.yul\":3126:3130   */\n      0x1f\n        /* \"#utility.yul\":3118:3124   */\n      dup5\n        /* \"#utility.yul\":3114:3131   */\n      add\n        /* \"#utility.yul\":3110:3137   */\n      slt\n        /* \"#utility.yul\":3100:3222   */\n      tag_482\n      jumpi\n        /* \"#utility.yul\":3141:3220   */\n      tag_483\n      tag_355\n      jump\t// in\n    tag_483:\n        /* \"#utility.yul\":3100:3222   */\n    tag_482:\n        /* \"#utility.yul\":3254:3260   */\n      dup3\n        /* \"#utility.yul\":3241:3261   */\n      calldataload\n        /* \"#utility.yul\":3231:3261   */\n      swap1\n      pop\n        /* \"#utility.yul\":3284:3302   */\n      0xffffffffffffffff\n        /* \"#utility.yul\":3276:3282   */\n      dup2\n        /* \"#utility.yul\":3273:3303   */\n      gt\n        /* \"#utility.yul\":3270:3387   */\n      iszero\n      tag_484\n      jumpi\n        /* \"#utility.yul\":3306:3385   */\n      tag_485\n      tag_356\n      jump\t// in\n    tag_485:\n        /* \"#utility.yul\":3270:3387   */\n    tag_484:\n        /* \"#utility.yul\":3420:3424   */\n      0x20\n        /* \"#utility.yul\":3412:3418   */\n      dup4\n        /* \"#utility.yul\":3408:3425   */\n      add\n        /* \"#utility.yul\":3396:3425   */\n      swap2\n      pop\n        /* \"#utility.yul\":3474:3477   */\n      dup4\n        /* \"#utility.yul\":3466:3470   */\n      0x20\n        /* \"#utility.yul\":3458:3464   */\n      dup3\n        /* \"#utility.yul\":3454:3471   */\n      mul\n        /* \"#utility.yul\":3444:3452   */\n      dup4\n        /* \"#utility.yul\":3440:3472   */\n      add\n        /* \"#utility.yul\":3437:3478   */\n      gt\n        /* \"#utility.yul\":3434:3562   */\n      iszero\n      tag_486\n      jumpi\n        /* \"#utility.yul\":3481:3560   */\n      tag_487\n      tag_357\n      jump\t// in\n    tag_487:\n        /* \"#utility.yul\":3434:3562   */\n    tag_486:\n        /* \"#utility.yul\":2989:3568   */\n      swap3\n      pop\n      swap3\n      swap1\n      pop\n      jump\t// out\n        /* \"#utility.yul\":3574:4598   */\n    tag_26:\n        /* \"#utility.yul\":3741:3747   */\n      0x00\n        /* \"#utility.yul\":3749:3755   */\n      dup1\n        /* \"#utility.yul\":3757:3763   */\n      0x00\n        /* \"#utility.yul\":3765:3771   */\n      dup1\n        /* \"#utility.yul\":3814:3816   */\n      0x40\n        /* \"#utility.yul\":3802:3811   */\n      dup6\n        /* \"#utility.yul\":3793:3800   */\n      dup8\n        /* \"#utility.yul\":3789:3812   */\n      sub\n        /* \"#utility.yul\":3785:3817   */\n      slt\n        /* \"#utility.yul\":3782:3901   */\n      iszero\n      tag_489\n      jumpi\n        /* \"#utility.yul\":3820:3899   */\n      tag_490\n      tag_346\n      jump\t// in\n    tag_490:\n        /* \"#utility.yul\":3782:3901   */\n    tag_489:\n        /* \"#utility.yul\":3968:3969   */\n      0x00\n        /* \"#utility.yul\":3957:3966   */\n      dup6\n        /* \"#utility.yul\":3953:3970   */\n      add\n        /* \"#utility.yul\":3940:3971   */\n      calldataload\n        /* \"#utility.yul\":3998:4016   */\n      0xffffffffffffffff\n        /* \"#utility.yul\":3990:3996   */\n      dup2\n        /* \"#utility.yul\":3987:4017   */\n      gt\n        /* \"#utility.yul\":3984:4101   */\n      iszero\n      tag_491\n      jumpi\n        /* \"#utility.yul\":4020:4099   */\n      tag_492\n      tag_347\n      jump\t// in\n    tag_492:\n        /* \"#utility.yul\":3984:4101   */\n    tag_491:\n        /* \"#utility.yul\":4133:4247   */\n      tag_493\n        /* \"#utility.yul\":4239:4246   */\n      dup8\n        /* \"#utility.yul\":4230:4236   */\n      dup3\n        /* \"#utility.yul\":4219:4228   */\n      dup9\n        /* \"#utility.yul\":4215:4237   */\n      add\n        /* \"#utility.yul\":4133:4247   */\n      tag_358\n      jump\t// in\n    tag_493:\n        /* \"#utility.yul\":4115:4247   */\n      swap5\n      pop\n      swap5\n      pop\n        /* \"#utility.yul\":3911:4257   */\n      pop\n        /* \"#utility.yul\":4324:4326   */\n      0x20\n        /* \"#utility.yul\":4313:4322   */\n      dup6\n        /* \"#utility.yul\":4309:4327   */\n      add\n        /* \"#utility.yul\":4296:4328   */\n      calldataload\n        /* \"#utility.yul\":4355:4373   */\n      0xffffffffffffffff\n        /* \"#utility.yul\":4347:4353   */\n      dup2\n        /* \"#utility.yul\":4344:4374   */\n      gt\n        /* \"#utility.yul\":4341:4458   */\n      iszero\n      tag_494\n      jumpi\n        /* \"#utility.yul\":4377:4456   */\n      tag_495\n      tag_347\n      jump\t// in\n    tag_495:\n        /* \"#utility.yul\":4341:4458   */\n    tag_494:\n        /* \"#utility.yul\":4490:4581   */\n      tag_496\n        /* \"#utility.yul\":4573:4580   */\n      dup8\n        /* \"#utility.yul\":4564:4570   */\n      dup3\n        /* \"#utility.yul\":4553:4562   */\n      dup9\n        /* \"#utility.yul\":4549:4571   */\n      add\n        /* \"#utility.yul\":4490:4581   */\n      tag_359\n      jump\t// in\n    tag_496:\n        /* \"#utility.yul\":4472:4581   */\n      swap3\n      pop\n      swap3\n      pop\n        /* \"#utility.yul\":4267:4591   */\n      pop\n        /* \"#utility.yul\":3574:4598   */\n      swap3\n      swap6\n      swap2\n      swap5\n      pop\n      swap3\n      pop\n      jump\t// out\n        /* \"#utility.yul\":4604:4727   */\n    tag_360:\n        /* \"#utility.yul\":4680:4686   */\n      0x00\n        /* \"#utility.yul\":4714:4719   */\n      dup2\n        /* \"#utility.yul\":4708:4720   */\n      mload\n        /* \"#utility.yul\":4698:4720   */\n      swap1\n      pop\n        /* \"#utility.yul\":4604:4727   */\n      swap2\n      swap1\n      pop\n      jump\t// out\n        /* \"#utility.yul\":4733:4926   */\n    tag_361:\n        /* \"#utility.yul\":4841:4852   */\n      0x00\n        /* \"#utility.yul\":4875:4881   */\n      dup3\n        /* \"#utility.yul\":4870:4873   */\n      dup3\n        /* \"#utility.yul\":4863:4882   */\n      mstore\n        /* \"#utility.yul\":4915:4919   */\n      0x20\n        /* \"#utility.yul\":4910:4913   */\n      dup3\n        /* \"#utility.yul\":4906:4920   */\n      add\n        /* \"#utility.yul\":4891:4920   */\n      swap1\n      pop\n        /* \"#utility.yul\":4733:4926   */\n      swap3\n      swap2\n      pop\n      pop\n      jump\t// out\n        /* \"#utility.yul\":4932:5073   */\n    tag_362:\n        /* \"#utility.yul\":5008:5012   */\n      0x00\n        /* \"#utility.yul\":5031:5034   */\n      dup2\n        /* \"#utility.yul\":5023:5034   */\n      swap1\n      pop\n        /* \"#utility.yul\":5061:5065   */\n      0x20\n        /* \"#utility.yul\":5056:5059   */\n      dup3\n        /* \"#utility.yul\":5052:5066   */\n      add\n        /* \"#utility.yul\":5044:5066   */\n      swap1\n      pop\n        /* \"#utility.yul\":4932:5073   */\n      swap2\n      swap1\n      pop\n      jump\t// out\n        /* \"#utility.yul\":5079:5177   */\n    tag_363:\n        /* \"#utility.yul\":5130:5136   */\n      0x00\n        /* \"#utility.yul\":5164:5169   */\n      dup2\n        /* \"#utility.yul\":5158:5170   */\n      mload\n        /* \"#utility.yul\":5148:5170   */\n      swap1\n      pop\n        /* \"#utility.yul\":5079:5177   */\n      swap2\n      swap1\n      pop\n      jump\t// out\n        /* \"#utility.yul\":5183:5341   */\n    tag_364:\n        /* \"#utility.yul\":5256:5267   */\n      0x00\n        /* \"#utility.yul\":5290:5296   */\n      dup3\n        /* \"#utility.yul\":5285:5288   */\n      dup3\n        /* \"#utility.yul\":5278:5297   */\n      mstore\n        /* \"#utility.yul\":5330:5334   */\n      0x20\n        /* \"#utility.yul\":5325:5328   */\n      dup3\n        /* \"#utility.yul\":5321:5335   */\n      add\n        /* \"#utility.yul\":5306:5335   */\n      swap1\n      pop\n        /* \"#utility.yul\":5183:5341   */\n      swap3\n      swap2\n      pop\n      pop\n      jump\t// out\n        /* \"#utility.yul\":5347:5593   */\n    tag_365:\n        /* \"#utility.yul\":5428:5429   */\n      0x00\n        /* \"#utility.yul\":5438:5551   */\n    tag_503:\n        /* \"#utility.yul\":5452:5458   */\n      dup4\n        /* \"#utility.yul\":5449:5450   */\n      dup2\n        /* \"#utility.yul\":5446:5459   */\n      lt\n        /* \"#utility.yul\":5438:5551   */\n      iszero\n      tag_505\n      jumpi\n        /* \"#utility.yul\":5537:5538   */\n      dup1\n        /* \"#utility.yul\":5532:5535   */\n      dup3\n        /* \"#utility.yul\":5528:5539   */\n      add\n        /* \"#utility.yul\":5522:5540   */\n      mload\n        /* \"#utility.yul\":5518:5519   */\n      dup2\n        /* \"#utility.yul\":5513:5516   */\n      dup5\n        /* \"#utility.yul\":5509:5520   */\n      add\n        /* \"#utility.yul\":5502:5541   */\n      mstore\n        /* \"#utility.yul\":5474:5476   */\n      0x20\n        /* \"#utility.yul\":5471:5472   */\n      dup2\n        /* \"#utility.yul\":5467:5477   */\n      add\n        /* \"#utility.yul\":5462:5477   */\n      swap1\n      pop\n        /* \"#utility.yul\":5438:5551   */\n      jump(tag_503)\n    tag_505:\n        /* \"#utility.yul\":5585:5586   */\n      0x00\n        /* \"#utility.yul\":5576:5582   */\n      dup5\n        /* \"#utility.yul\":5571:5574   */\n      dup5\n        /* \"#utility.yul\":5567:5583   */\n      add\n        /* \"#utility.yul\":5560:5587   */\n      mstore\n        /* \"#utility.yul\":5409:5593   */\n      pop\n        /* \"#utility.yul\":5347:5593   */\n      pop\n      pop\n      pop\n      jump\t// out\n        /* \"#utility.yul\":5599:5701   */\n    tag_366:\n        /* \"#utility.yul\":5640:5646   */\n      0x00\n        /* \"#utility.yul\":5691:5693   */\n      0x1f\n        /* \"#utility.yul\":5687:5694   */\n      not\n        /* \"#utility.yul\":5682:5684   */\n      0x1f\n        /* \"#utility.yul\":5675:5680   */\n      dup4\n        /* \"#utility.yul\":5671:5685   */\n      add\n        /* \"#utility.yul\":5667:5695   */\n      and\n        /* \"#utility.yul\":5657:5695   */\n      swap1\n      pop\n        /* \"#utility.yul\":5599:5701   */\n      swap2\n      swap1\n      pop\n      jump\t// out\n        /* \"#utility.yul\":5707:6060   */\n    tag_367:\n        /* \"#utility.yul\":5783:5786   */\n      0x00\n        /* \"#utility.yul\":5811:5849   */\n      tag_508\n        /* \"#utility.yul\":5843:5848   */\n      dup3\n        /* \"#utility.yul\":5811:5849   */\n      tag_363\n      jump\t// in\n    tag_508:\n        /* \"#utility.yul\":5865:5925   */\n      tag_509\n        /* \"#utility.yul\":5918:5924   */\n      dup2\n        /* \"#utility.yul\":5913:5916   */\n      dup6\n        /* \"#utility.yul\":5865:5925   */\n      tag_364\n      jump\t// in\n    tag_509:\n        /* \"#utility.yul\":5858:5925   */\n      swap4\n      pop\n        /* \"#utility.yul\":5934:5999   */\n      tag_510\n        /* \"#utility.yul\":5992:5998   */\n      dup2\n        /* \"#utility.yul\":5987:5990   */\n      dup6\n        /* \"#utility.yul\":5980:5984   */\n      0x20\n        /* \"#utility.yul\":5973:5978   */\n      dup7\n        /* \"#utility.yul\":5969:5985   */\n      add\n        /* \"#utility.yul\":5934:5999   */\n      tag_365\n      jump\t// in\n    tag_510:\n        /* \"#utility.yul\":6024:6053   */\n      tag_511\n        /* \"#utility.yul\":6046:6052   */\n      dup2\n        /* \"#utility.yul\":6024:6053   */\n      tag_366\n      jump\t// in\n    tag_511:\n        /* \"#utility.yul\":6019:6022   */\n      dup5\n        /* \"#utility.yul\":6015:6054   */\n      add\n        /* \"#utility.yul\":6008:6054   */\n      swap2\n      pop\n        /* \"#utility.yul\":5787:6060   */\n      pop\n        /* \"#utility.yul\":5707:6060   */\n      swap3\n      swap2\n      pop\n      pop\n      jump\t// out\n        /* \"#utility.yul\":6066:6258   */\n    tag_368:\n        /* \"#utility.yul\":6153:6163   */\n      0x00\n        /* \"#utility.yul\":6188:6252   */\n      tag_513\n        /* \"#utility.yul\":6248:6251   */\n      dup4\n        /* \"#utility.yul\":6240:6246   */\n      dup4\n        /* \"#utility.yul\":6188:6252   */\n      tag_367\n      jump\t// in\n    tag_513:\n        /* \"#utility.yul\":6174:6252   */\n      swap1\n      pop\n        /* \"#utility.yul\":6066:6258   */\n      swap3\n      swap2\n      pop\n      pop\n      jump\t// out\n        /* \"#utility.yul\":6264:6386   */\n    tag_369:\n        /* \"#utility.yul\":6343:6347   */\n      0x00\n        /* \"#utility.yul\":6375:6379   */\n      0x20\n        /* \"#utility.yul\":6370:6373   */\n      dup3\n        /* \"#utility.yul\":6366:6380   */\n      add\n        /* \"#utility.yul\":6358:6380   */\n      swap1\n      pop\n        /* \"#utility.yul\":6264:6386   */\n      swap2\n      swap1\n      pop\n      jump\t// out\n        /* \"#utility.yul\":6418:7401   */\n    tag_370:\n        /* \"#utility.yul\":6555:6558   */\n      0x00\n        /* \"#utility.yul\":6584:6647   */\n      tag_516\n        /* \"#utility.yul\":6641:6646   */\n      dup3\n        /* \"#utility.yul\":6584:6647   */\n      tag_360\n      jump\t// in\n    tag_516:\n        /* \"#utility.yul\":6663:6758   */\n      tag_517\n        /* \"#utility.yul\":6751:6757   */\n      dup2\n        /* \"#utility.yul\":6746:6749   */\n      dup6\n        /* \"#utility.yul\":6663:6758   */\n      tag_361\n      jump\t// in\n    tag_517:\n        /* \"#utility.yul\":6656:6758   */\n      swap4\n      pop\n        /* \"#utility.yul\":6784:6787   */\n      dup4\n        /* \"#utility.yul\":6829:6833   */\n      0x20\n        /* \"#utility.yul\":6821:6827   */\n      dup3\n        /* \"#utility.yul\":6817:6834   */\n      mul\n        /* \"#utility.yul\":6812:6815   */\n      dup6\n        /* \"#utility.yul\":6808:6835   */\n      add\n        /* \"#utility.yul\":6859:6924   */\n      tag_518\n        /* \"#utility.yul\":6918:6923   */\n      dup6\n        /* \"#utility.yul\":6859:6924   */\n      tag_362\n      jump\t// in\n    tag_518:\n        /* \"#utility.yul\":6947:6954   */\n      dup1\n        /* \"#utility.yul\":6978:6979   */\n      0x00\n        /* \"#utility.yul\":6963:7356   */\n    tag_519:\n        /* \"#utility.yul\":6988:6994   */\n      dup6\n        /* \"#utility.yul\":6985:6986   */\n      dup2\n        /* \"#utility.yul\":6982:6995   */\n      lt\n        /* \"#utility.yul\":6963:7356   */\n      iszero\n      tag_521\n      jumpi\n        /* \"#utility.yul\":7059:7068   */\n      dup5\n        /* \"#utility.yul\":7053:7057   */\n      dup5\n        /* \"#utility.yul\":7049:7069   */\n      sub\n        /* \"#utility.yul\":7044:7047   */\n      dup10\n        /* \"#utility.yul\":7037:7070   */\n      mstore\n        /* \"#utility.yul\":7110:7116   */\n      dup2\n        /* \"#utility.yul\":7104:7117   */\n      mload\n        /* \"#utility.yul\":7138:7220   */\n      tag_522\n        /* \"#utility.yul\":7215:7219   */\n      dup6\n        /* \"#utility.yul\":7200:7213   */\n      dup3\n        /* \"#utility.yul\":7138:7220   */\n      tag_368\n      jump\t// in\n    tag_522:\n        /* \"#utility.yul\":7130:7220   */\n      swap5\n      pop\n        /* \"#utility.yul\":7243:7312   */\n      tag_523\n        /* \"#utility.yul\":7305:7311   */\n      dup4\n        /* \"#utility.yul\":7243:7312   */\n      tag_369\n      jump\t// in\n    tag_523:\n        /* \"#utility.yul\":7233:7312   */\n      swap3\n      pop\n        /* \"#utility.yul\":7341:7345   */\n      0x20\n        /* \"#utility.yul\":7336:7339   */\n      dup11\n        /* \"#utility.yul\":7332:7346   */\n      add\n        /* \"#utility.yul\":7325:7346   */\n      swap10\n      pop\n        /* \"#utility.yul\":7023:7356   */\n      pop\n        /* \"#utility.yul\":7010:7011   */\n      0x01\n        /* \"#utility.yul\":7007:7008   */\n      dup2\n        /* \"#utility.yul\":7003:7012   */\n      add\n        /* \"#utility.yul\":6998:7012   */\n      swap1\n      pop\n        /* \"#utility.yul\":6963:7356   */\n      jump(tag_519)\n    tag_521:\n        /* \"#utility.yul\":6967:6981   */\n      pop\n        /* \"#utility.yul\":7372:7376   */\n      dup3\n        /* \"#utility.yul\":7365:7376   */\n      swap8\n      pop\n        /* \"#utility.yul\":7392:7395   */\n      dup8\n        /* \"#utility.yul\":7385:7395   */\n      swap6\n      pop\n        /* \"#utility.yul\":6560:7401   */\n      pop\n      pop\n      pop\n      pop\n      pop\n        /* \"#utility.yul\":6418:7401   */\n      swap3\n      swap2\n      pop\n      pop\n      jump\t// out\n        /* \"#utility.yul\":7407:7816   */\n    tag_29:\n        /* \"#utility.yul\":7568:7572   */\n      0x00\n        /* \"#utility.yul\":7606:7608   */\n      0x20\n        /* \"#utility.yul\":7595:7604   */\n      dup3\n        /* \"#utility.yul\":7591:7609   */\n      add\n        /* \"#utility.yul\":7583:7609   */\n      swap1\n      pop\n        /* \"#utility.yul\":7655:7664   */\n      dup2\n        /* \"#utility.yul\":7649:7653   */\n      dup2\n        /* \"#utility.yul\":7645:7665   */\n      sub\n        /* \"#utility.yul\":7641:7642   */\n      0x00\n        /* \"#utility.yul\":7630:7639   */\n      dup4\n        /* \"#utility.yul\":7626:7643   */\n      add\n        /* \"#utility.yul\":7619:7666   */\n      mstore\n        /* \"#utility.yul\":7683:7809   */\n      tag_525\n        /* \"#utility.yul\":7804:7808   */\n      dup2\n        /* \"#utility.yul\":7795:7801   */\n      dup5\n        /* \"#utility.yul\":7683:7809   */\n      tag_370\n      jump\t// in\n    tag_525:\n        /* \"#utility.yul\":7675:7809   */\n      swap1\n      pop\n        /* \"#utility.yul\":7407:7816   */\n      swap3\n      swap2\n      pop\n      pop\n      jump\t// out\n        /* \"#utility.yul\":7839:8407   */\n    tag_371:\n        /* \"#utility.yul\":7912:7920   */\n      0x00\n        /* \"#utility.yul\":7922:7928   */\n      dup1\n        /* \"#utility.yul\":7972:7975   */\n      dup4\n        /* \"#utility.yul\":7965:7969   */\n      0x1f\n        /* \"#utility.yul\":7957:7963   */\n      dup5\n        /* \"#utility.yul\":7953:7970   */\n      add\n        /* \"#utility.yul\":7949:7976   */\n      slt\n        /* \"#utility.yul\":7939:8061   */\n      tag_527\n      jumpi\n        /* \"#utility.yul\":7980:8059   */\n      tag_528\n      tag_355\n      jump\t// in\n    tag_528:\n        /* \"#utility.yul\":7939:8061   */\n    tag_527:\n        /* \"#utility.yul\":8093:8099   */\n      dup3\n        /* \"#utility.yul\":8080:8100   */\n      calldataload\n        /* \"#utility.yul\":8070:8100   */\n      swap1\n      pop\n        /* \"#utility.yul\":8123:8141   */\n      0xffffffffffffffff\n        /* \"#utility.yul\":8115:8121   */\n      dup2\n        /* \"#utility.yul\":8112:8142   */\n      gt\n        /* \"#utility.yul\":8109:8226   */\n      iszero\n      tag_529\n      jumpi\n        /* \"#utility.yul\":8145:8224   */\n      tag_530\n      tag_356\n      jump\t// in\n    tag_530:\n        /* \"#utility.yul\":8109:8226   */\n    tag_529:\n        /* \"#utility.yul\":8259:8263   */\n      0x20\n        /* \"#utility.yul\":8251:8257   */\n      dup4\n        /* \"#utility.yul\":8247:8264   */\n      add\n        /* \"#utility.yul\":8235:8264   */\n      swap2\n      pop\n        /* \"#utility.yul\":8313:8316   */\n      dup4\n        /* \"#utility.yul\":8305:8309   */\n      0x20\n        /* \"#utility.yul\":8297:8303   */\n      dup3\n        /* \"#utility.yul\":8293:8310   */\n      mul\n        /* \"#utility.yul\":8283:8291   */\n      dup4\n        /* \"#utility.yul\":8279:8311   */\n      add\n        /* \"#utility.yul\":8276:8317   */\n      gt\n        /* \"#utility.yul\":8273:8401   */\n      iszero\n      tag_531\n      jumpi\n        /* \"#utility.yul\":8320:8399   */\n      tag_532\n      tag_357\n      jump\t// in\n    tag_532:\n        /* \"#utility.yul\":8273:8401   */\n    tag_531:\n        /* \"#utility.yul\":7839:8407   */\n      swap3\n      pop\n      swap3\n      swap1\n      pop\n      jump\t// out\n        /* \"#utility.yul\":8413:8535   */\n    tag_372:\n        /* \"#utility.yul\":8486:8510   */\n      tag_534\n        /* \"#utility.yul\":8504:8509   */\n      dup2\n        /* \"#utility.yul\":8486:8510   */\n      tag_353\n      jump\t// in\n    tag_534:\n        /* \"#utility.yul\":8479:8484   */\n      dup2\n        /* \"#utility.yul\":8476:8511   */\n      eq\n        /* \"#utility.yul\":8466:8529   */\n      tag_535\n      jumpi\n        /* \"#utility.yul\":8525:8526   */\n      0x00\n        /* \"#utility.yul\":8522:8523   */\n      dup1\n        /* \"#utility.yul\":8515:8527   */\n      revert\n        /* \"#utility.yul\":8466:8529   */\n    tag_535:\n        /* \"#utility.yul\":8413:8535   */\n      pop\n      jump\t// out\n        /* \"#utility.yul\":8541:8680   */\n    tag_373:\n        /* \"#utility.yul\":8587:8592   */\n      0x00\n        /* \"#utility.yul\":8625:8631   */\n      dup2\n        /* \"#utility.yul\":8612:8632   */\n      calldataload\n        /* \"#utility.yul\":8603:8632   */\n      swap1\n      pop\n        /* \"#utility.yul\":8641:8674   */\n      tag_537\n        /* \"#utility.yul\":8668:8673   */\n      dup2\n        /* \"#utility.yul\":8641:8674   */\n      tag_372\n      jump\t// in\n    tag_537:\n        /* \"#utility.yul\":8541:8680   */\n      swap3\n      swap2\n      pop\n      pop\n      jump\t// out\n        /* \"#utility.yul\":8686:9787   */\n    tag_32:\n        /* \"#utility.yul\":8828:8834   */\n      0x00\n        /* \"#utility.yul\":8836:8842   */\n      dup1\n        /* \"#utility.yul\":8844:8850   */\n      0x00\n        /* \"#utility.yul\":8852:8858   */\n      dup1\n        /* \"#utility.yul\":8860:8866   */\n      0x00\n        /* \"#utility.yul\":8909:8911   */\n      0x60\n        /* \"#utility.yul\":8897:8906   */\n      dup7\n        /* \"#utility.yul\":8888:8895   */\n      dup9\n        /* \"#utility.yul\":8884:8907   */\n      sub\n        /* \"#utility.yul\":8880:8912   */\n      slt\n        /* \"#utility.yul\":8877:8996   */\n      iszero\n      tag_539\n      jumpi\n        /* \"#utility.yul\":8915:8994   */\n      tag_540\n      tag_346\n      jump\t// in\n    tag_540:\n        /* \"#utility.yul\":8877:8996   */\n    tag_539:\n        /* \"#utility.yul\":9063:9064   */\n      0x00\n        /* \"#utility.yul\":9052:9061   */\n      dup7\n        /* \"#utility.yul\":9048:9065   */\n      add\n        /* \"#utility.yul\":9035:9066   */\n      calldataload\n        /* \"#utility.yul\":9093:9111   */\n      0xffffffffffffffff\n        /* \"#utility.yul\":9085:9091   */\n      dup2\n        /* \"#utility.yul\":9082:9112   */\n      gt\n        /* \"#utility.yul\":9079:9196   */\n      iszero\n      tag_541\n      jumpi\n        /* \"#utility.yul\":9115:9194   */\n      tag_542\n      tag_347\n      jump\t// in\n    tag_542:\n        /* \"#utility.yul\":9079:9196   */\n    tag_541:\n        /* \"#utility.yul\":9228:9308   */\n      tag_543\n        /* \"#utility.yul\":9300:9307   */\n      dup9\n        /* \"#utility.yul\":9291:9297   */\n      dup3\n        /* \"#utility.yul\":9280:9289   */\n      dup10\n        /* \"#utility.yul\":9276:9298   */\n      add\n        /* \"#utility.yul\":9228:9308   */\n      tag_371\n      jump\t// in\n    tag_543:\n        /* \"#utility.yul\":9210:9308   */\n      swap6\n      pop\n      swap6\n      pop\n        /* \"#utility.yul\":9006:9318   */\n      pop\n        /* \"#utility.yul\":9357:9359   */\n      0x20\n        /* \"#utility.yul\":9383:9436   */\n      tag_544\n        /* \"#utility.yul\":9428:9435   */\n      dup9\n        /* \"#utility.yul\":9419:9425   */\n      dup3\n        /* \"#utility.yul\":9408:9417   */\n      dup10\n        /* \"#utility.yul\":9404:9426   */\n      add\n        /* \"#utility.yul\":9383:9436   */\n      tag_373\n      jump\t// in\n    tag_544:\n        /* \"#utility.yul\":9373:9436   */\n      swap4\n      pop\n        /* \"#utility.yul\":9328:9446   */\n      pop\n        /* \"#utility.yul\":9513:9515   */\n      0x40\n        /* \"#utility.yul\":9502:9511   */\n      dup7\n        /* \"#utility.yul\":9498:9516   */\n      add\n        /* \"#utility.yul\":9485:9517   */\n      calldataload\n        /* \"#utility.yul\":9544:9562   */\n      0xffffffffffffffff\n        /* \"#utility.yul\":9536:9542   */\n      dup2\n        /* \"#utility.yul\":9533:9563   */\n      gt\n        /* \"#utility.yul\":9530:9647   */\n      iszero\n      tag_545\n      jumpi\n        /* \"#utility.yul\":9566:9645   */\n      tag_546\n      tag_347\n      jump\t// in\n    tag_546:\n        /* \"#utility.yul\":9530:9647   */\n    tag_545:\n        /* \"#utility.yul\":9679:9770   */\n      tag_547\n        /* \"#utility.yul\":9762:9769   */\n      dup9\n        /* \"#utility.yul\":9753:9759   */\n      dup3\n        /* \"#utility.yul\":9742:9751   */\n      dup10\n        /* \"#utility.yul\":9738:9760   */\n      add\n        /* \"#utility.yul\":9679:9770   */\n      tag_359\n      jump\t// in\n    tag_547:\n        /* \"#utility.yul\":9661:9770   */\n      swap3\n      pop\n      swap3\n      pop\n        /* \"#utility.yul\":9456:9780   */\n      pop\n        /* \"#utility.yul\":8686:9787   */\n      swap3\n      swap6\n      pop\n      swap3\n      swap6\n      swap1\n      swap4\n      pop\n      jump\t// out\n        /* \"#utility.yul\":9793:10664   */\n    tag_36:\n        /* \"#utility.yul\":9908:9914   */\n      0x00\n        /* \"#utility.yul\":9916:9922   */\n      dup1\n        /* \"#utility.yul\":9924:9930   */\n      0x00\n        /* \"#utility.yul\":9932:9938   */\n      dup1\n        /* \"#utility.yul\":9981:9983   */\n      0x60\n        /* \"#utility.yul\":9969:9978   */\n      dup6\n        /* \"#utility.yul\":9960:9967   */\n      dup8\n        /* \"#utility.yul\":9956:9979   */\n      sub\n        /* \"#utility.yul\":9952:9984   */\n      slt\n        /* \"#utility.yul\":9949:10068   */\n      iszero\n      tag_549\n      jumpi\n        /* \"#utility.yul\":9987:10066   */\n      tag_550\n      tag_346\n      jump\t// in\n    tag_550:\n        /* \"#utility.yul\":9949:10068   */\n    tag_549:\n        /* \"#utility.yul\":10107:10108   */\n      0x00\n        /* \"#utility.yul\":10132:10185   */\n      tag_551\n        /* \"#utility.yul\":10177:10184   */\n      dup8\n        /* \"#utility.yul\":10168:10174   */\n      dup3\n        /* \"#utility.yul\":10157:10166   */\n      dup9\n        /* \"#utility.yul\":10153:10175   */\n      add\n        /* \"#utility.yul\":10132:10185   */\n      tag_373\n      jump\t// in\n    tag_551:\n        /* \"#utility.yul\":10122:10185   */\n      swap5\n      pop\n        /* \"#utility.yul\":10078:10195   */\n      pop\n        /* \"#utility.yul\":10234:10236   */\n      0x20\n        /* \"#utility.yul\":10260:10313   */\n      tag_552\n        /* \"#utility.yul\":10305:10312   */\n      dup8\n        /* \"#utility.yul\":10296:10302   */\n      dup3\n        /* \"#utility.yul\":10285:10294   */\n      dup9\n        /* \"#utility.yul\":10281:10303   */\n      add\n        /* \"#utility.yul\":10260:10313   */\n      tag_373\n      jump\t// in\n    tag_552:\n        /* \"#utility.yul\":10250:10313   */\n      swap4\n      pop\n        /* \"#utility.yul\":10205:10323   */\n      pop\n        /* \"#utility.yul\":10390:10392   */\n      0x40\n        /* \"#utility.yul\":10379:10388   */\n      dup6\n        /* \"#utility.yul\":10375:10393   */\n      add\n        /* \"#utility.yul\":10362:10394   */\n      calldataload\n        /* \"#utility.yul\":10421:10439   */\n      0xffffffffffffffff\n        /* \"#utility.yul\":10413:10419   */\n      dup2\n        /* \"#utility.yul\":10410:10440   */\n      gt\n        /* \"#utility.yul\":10407:10524   */\n      iszero\n      tag_553\n      jumpi\n        /* \"#utility.yul\":10443:10522   */\n      tag_554\n      tag_347\n      jump\t// in\n    tag_554:\n        /* \"#utility.yul\":10407:10524   */\n    tag_553:\n        /* \"#utility.yul\":10556:10647   */\n      tag_555\n        /* \"#utility.yul\":10639:10646   */\n      dup8\n        /* \"#utility.yul\":10630:10636   */\n      dup3\n        /* \"#utility.yul\":10619:10628   */\n      dup9\n        /* \"#utility.yul\":10615:10637   */\n      add\n        /* \"#utility.yul\":10556:10647   */\n      tag_359\n      jump\t// in\n    tag_555:\n        /* \"#utility.yul\":10538:10647   */\n      swap3\n      pop\n      swap3\n      pop\n        /* \"#utility.yul\":10333:10657   */\n      pop\n        /* \"#utility.yul\":9793:10664   */\n      swap3\n      swap6\n      swap2\n      swap5\n      pop\n      swap3\n      pop\n      jump\t// out\n        /* \"#utility.yul\":10670:10787   */\n    tag_374:\n        /* \"#utility.yul\":10779:10780   */\n      0x00\n        /* \"#utility.yul\":10776:10777   */\n      dup1\n        /* \"#utility.yul\":10769:10781   */\n      revert\n        /* \"#utility.yul\":10835:11074   */\n    tag_375:\n        /* \"#utility.yul\":10915:10920   */\n      0x00\n        /* \"#utility.yul\":10956:10959   */\n      0x80\n        /* \"#utility.yul\":10947:10953   */\n      dup3\n        /* \"#utility.yul\":10942:10945   */\n      dup5\n        /* \"#utility.yul\":10938:10954   */\n      sub\n        /* \"#utility.yul\":10934:10960   */\n      slt\n        /* \"#utility.yul\":10931:11044   */\n      iszero\n      tag_558\n      jumpi\n        /* \"#utility.yul\":10963:11042   */\n      tag_559\n      tag_374\n      jump\t// in\n    tag_559:\n        /* \"#utility.yul\":10931:11044   */\n    tag_558:\n        /* \"#utility.yul\":11062:11068   */\n      dup2\n        /* \"#utility.yul\":11053:11068   */\n      swap1\n      pop\n        /* \"#utility.yul\":10835:11074   */\n      swap3\n      swap2\n      pop\n      pop\n      jump\t// out\n        /* \"#utility.yul\":11080:12034   */\n    tag_40:\n        /* \"#utility.yul\":11220:11226   */\n      0x00\n        /* \"#utility.yul\":11228:11234   */\n      dup1\n        /* \"#utility.yul\":11236:11242   */\n      0x00\n        /* \"#utility.yul\":11285:11287   */\n      0x40\n        /* \"#utility.yul\":11273:11282   */\n      dup5\n        /* \"#utility.yul\":11264:11271   */\n      dup7\n        /* \"#utility.yul\":11260:11283   */\n      sub\n        /* \"#utility.yul\":11256:11288   */\n      slt\n        /* \"#utility.yul\":11253:11372   */\n      iszero\n      tag_561\n      jumpi\n        /* \"#utility.yul\":11291:11370   */\n      tag_562\n      tag_346\n      jump\t// in\n    tag_562:\n        /* \"#utility.yul\":11253:11372   */\n    tag_561:\n        /* \"#utility.yul\":11439:11440   */\n      0x00\n        /* \"#utility.yul\":11428:11437   */\n      dup5\n        /* \"#utility.yul\":11424:11441   */\n      add\n        /* \"#utility.yul\":11411:11442   */\n      calldataload\n        /* \"#utility.yul\":11469:11487   */\n      0xffffffffffffffff\n        /* \"#utility.yul\":11461:11467   */\n      dup2\n        /* \"#utility.yul\":11458:11488   */\n      gt\n        /* \"#utility.yul\":11455:11572   */\n      iszero\n      tag_563\n      jumpi\n        /* \"#utility.yul\":11491:11570   */\n      tag_564\n      tag_347\n      jump\t// in\n    tag_564:\n        /* \"#utility.yul\":11455:11572   */\n    tag_563:\n        /* \"#utility.yul\":11596:11683   */\n      tag_565\n        /* \"#utility.yul\":11675:11682   */\n      dup7\n        /* \"#utility.yul\":11666:11672   */\n      dup3\n        /* \"#utility.yul\":11655:11664   */\n      dup8\n        /* \"#utility.yul\":11651:11673   */\n      add\n        /* \"#utility.yul\":11596:11683   */\n      tag_375\n      jump\t// in\n    tag_565:\n        /* \"#utility.yul\":11586:11683   */\n      swap4\n      pop\n        /* \"#utility.yul\":11382:11693   */\n      pop\n        /* \"#utility.yul\":11760:11762   */\n      0x20\n        /* \"#utility.yul\":11749:11758   */\n      dup5\n        /* \"#utility.yul\":11745:11763   */\n      add\n        /* \"#utility.yul\":11732:11764   */\n      calldataload\n        /* \"#utility.yul\":11791:11809   */\n      0xffffffffffffffff\n        /* \"#utility.yul\":11783:11789   */\n      dup2\n        /* \"#utility.yul\":11780:11810   */\n      gt\n        /* \"#utility.yul\":11777:11894   */\n      iszero\n      tag_566\n      jumpi\n        /* \"#utility.yul\":11813:11892   */\n      tag_567\n      tag_347\n      jump\t// in\n    tag_567:\n        /* \"#utility.yul\":11777:11894   */\n    tag_566:\n        /* \"#utility.yul\":11926:12017   */\n      tag_568\n        /* \"#utility.yul\":12009:12016   */\n      dup7\n        /* \"#utility.yul\":12000:12006   */\n      dup3\n        /* \"#utility.yul\":11989:11998   */\n      dup8\n        /* \"#utility.yul\":11985:12007   */\n      add\n        /* \"#utility.yul\":11926:12017   */\n      tag_359\n      jump\t// in\n    tag_568:\n        /* \"#utility.yul\":11908:12017   */\n      swap3\n      pop\n      swap3\n      pop\n        /* \"#utility.yul\":11703:12027   */\n      pop\n        /* \"#utility.yul\":11080:12034   */\n      swap3\n      pop\n      swap3\n      pop\n      swap3\n      jump\t// out\n        /* \"#utility.yul\":12040:12208   */\n    tag_376:\n        /* \"#utility.yul\":12123:12134   */\n      0x00\n        /* \"#utility.yul\":12157:12163   */\n      dup3\n        /* \"#utility.yul\":12152:12155   */\n      dup3\n        /* \"#utility.yul\":12145:12164   */\n      mstore\n        /* \"#utility.yul\":12197:12201   */\n      0x20\n        /* \"#utility.yul\":12192:12195   */\n      dup3\n        /* \"#utility.yul\":12188:12202   */\n      add\n        /* \"#utility.yul\":12173:12202   */\n      swap1\n      pop\n        /* \"#utility.yul\":12040:12208   */\n      swap3\n      swap2\n      pop\n      pop\n      jump\t// out\n        /* \"#utility.yul\":12214:12587   */\n    tag_377:\n        /* \"#utility.yul\":12300:12303   */\n      0x00\n        /* \"#utility.yul\":12328:12366   */\n      tag_571\n        /* \"#utility.yul\":12360:12365   */\n      dup3\n        /* \"#utility.yul\":12328:12366   */\n      tag_363\n      jump\t// in\n    tag_571:\n        /* \"#utility.yul\":12382:12452   */\n      tag_572\n        /* \"#utility.yul\":12445:12451   */\n      dup2\n        /* \"#utility.yul\":12440:12443   */\n      dup6\n        /* \"#utility.yul\":12382:12452   */\n      tag_376\n      jump\t// in\n    tag_572:\n        /* \"#utility.yul\":12375:12452   */\n      swap4\n      pop\n        /* \"#utility.yul\":12461:12526   */\n      tag_573\n        /* \"#utility.yul\":12519:12525   */\n      dup2\n        /* \"#utility.yul\":12514:12517   */\n      dup6\n        /* \"#utility.yul\":12507:12511   */\n      0x20\n        /* \"#utility.yul\":12500:12505   */\n      dup7\n        /* \"#utility.yul\":12496:12512   */\n      add\n        /* \"#utility.yul\":12461:12526   */\n      tag_365\n      jump\t// in\n    tag_573:\n        /* \"#utility.yul\":12551:12580   */\n      tag_574\n        /* \"#utility.yul\":12573:12579   */\n      dup2\n        /* \"#utility.yul\":12551:12580   */\n      tag_366\n      jump\t// in\n    tag_574:\n        /* \"#utility.yul\":12546:12549   */\n      dup5\n        /* \"#utility.yul\":12542:12581   */\n      add\n        /* \"#utility.yul\":12535:12581   */\n      swap2\n      pop\n        /* \"#utility.yul\":12304:12587   */\n      pop\n        /* \"#utility.yul\":12214:12587   */\n      swap3\n      swap2\n      pop\n      pop\n      jump\t// out\n        /* \"#utility.yul\":12593:12902   */\n    tag_43:\n        /* \"#utility.yul\":12704:12708   */\n      0x00\n        /* \"#utility.yul\":12742:12744   */\n      0x20\n        /* \"#utility.yul\":12731:12740   */\n      dup3\n        /* \"#utility.yul\":12727:12745   */\n      add\n        /* \"#utility.yul\":12719:12745   */\n      swap1\n      pop\n        /* \"#utility.yul\":12791:12800   */\n      dup2\n        /* \"#utility.yul\":12785:12789   */\n      dup2\n        /* \"#utility.yul\":12781:12801   */\n      sub\n        /* \"#utility.yul\":12777:12778   */\n      0x00\n        /* \"#utility.yul\":12766:12775   */\n      dup4\n        /* \"#utility.yul\":12762:12779   */\n      add\n        /* \"#utility.yul\":12755:12802   */\n      mstore\n        /* \"#utility.yul\":12819:12895   */\n      tag_576\n        /* \"#utility.yul\":12890:12894   */\n      dup2\n        /* \"#utility.yul\":12881:12887   */\n      dup5\n        /* \"#utility.yul\":12819:12895   */\n      tag_377\n      jump\t// in\n    tag_576:\n        /* \"#utility.yul\":12811:12895   */\n      swap1\n      pop\n        /* \"#utility.yul\":12593:12902   */\n      swap3\n      swap2\n      pop\n      pop\n      jump\t// out\n        /* \"#utility.yul\":12925:13493   */\n    tag_378:\n        /* \"#utility.yul\":12998:13006   */\n      0x00\n        /* \"#utility.yul\":13008:13014   */\n      dup1\n        /* \"#utility.yul\":13058:13061   */\n      dup4\n        /* \"#utility.yul\":13051:13055   */\n      0x1f\n        /* \"#utility.yul\":13043:13049   */\n      dup5\n        /* \"#utility.yul\":13039:13056   */\n      add\n        /* \"#utility.yul\":13035:13062   */\n      slt\n        /* \"#utility.yul\":13025:13147   */\n      tag_578\n      jumpi\n        /* \"#utility.yul\":13066:13145   */\n      tag_579\n      tag_355\n      jump\t// in\n    tag_579:\n        /* \"#utility.yul\":13025:13147   */\n    tag_578:\n        /* \"#utility.yul\":13179:13185   */\n      dup3\n        /* \"#utility.yul\":13166:13186   */\n      calldataload\n        /* \"#utility.yul\":13156:13186   */\n      swap1\n      pop\n        /* \"#utility.yul\":13209:13227   */\n      0xffffffffffffffff\n        /* \"#utility.yul\":13201:13207   */\n      dup2\n        /* \"#utility.yul\":13198:13228   */\n      gt\n        /* \"#utility.yul\":13195:13312   */\n      iszero\n      tag_580\n      jumpi\n        /* \"#utility.yul\":13231:13310   */\n      tag_581\n      tag_356\n      jump\t// in\n    tag_581:\n        /* \"#utility.yul\":13195:13312   */\n    tag_580:\n        /* \"#utility.yul\":13345:13349   */\n      0x20\n        /* \"#utility.yul\":13337:13343   */\n      dup4\n        /* \"#utility.yul\":13333:13350   */\n      add\n        /* \"#utility.yul\":13321:13350   */\n      swap2\n      pop\n        /* \"#utility.yul\":13399:13402   */\n      dup4\n        /* \"#utility.yul\":13391:13395   */\n      0x20\n        /* \"#utility.yul\":13383:13389   */\n      dup3\n        /* \"#utility.yul\":13379:13396   */\n      mul\n        /* \"#utility.yul\":13369:13377   */\n      dup4\n        /* \"#utility.yul\":13365:13397   */\n      add\n        /* \"#utility.yul\":13362:13403   */\n      gt\n        /* \"#utility.yul\":13359:13487   */\n      iszero\n      tag_582\n      jumpi\n        /* \"#utility.yul\":13406:13485   */\n      tag_583\n      tag_357\n      jump\t// in\n    tag_583:\n        /* \"#utility.yul\":13359:13487   */\n    tag_582:\n        /* \"#utility.yul\":12925:13493   */\n      swap3\n      pop\n      swap3\n      swap1\n      pop\n      jump\t// out\n        /* \"#utility.yul\":13499:14976   */\n    tag_49:\n        /* \"#utility.yul\":13677:13683   */\n      0x00\n        /* \"#utility.yul\":13685:13691   */\n      dup1\n        /* \"#utility.yul\":13693:13699   */\n      0x00\n        /* \"#utility.yul\":13701:13707   */\n      dup1\n        /* \"#utility.yul\":13709:13715   */\n      0x00\n        /* \"#utility.yul\":13717:13723   */\n      dup1\n        /* \"#utility.yul\":13725:13731   */\n      0x00\n        /* \"#utility.yul\":13774:13777   */\n      0x80\n        /* \"#utility.yul\":13762:13771   */\n      dup9\n        /* \"#utility.yul\":13753:13760   */\n      dup11\n        /* \"#utility.yul\":13749:13772   */\n      sub\n        /* \"#utility.yul\":13745:13778   */\n      slt\n        /* \"#utility.yul\":13742:13862   */\n      iszero\n      tag_585\n      jumpi\n        /* \"#utility.yul\":13781:13860   */\n      tag_586\n      tag_346\n      jump\t// in\n    tag_586:\n        /* \"#utility.yul\":13742:13862   */\n    tag_585:\n        /* \"#utility.yul\":13929:13930   */\n      0x00\n        /* \"#utility.yul\":13918:13927   */\n      dup9\n        /* \"#utility.yul\":13914:13931   */\n      add\n        /* \"#utility.yul\":13901:13932   */\n      calldataload\n        /* \"#utility.yul\":13959:13977   */\n      0xffffffffffffffff\n        /* \"#utility.yul\":13951:13957   */\n      dup2\n        /* \"#utility.yul\":13948:13978   */\n      gt\n        /* \"#utility.yul\":13945:14062   */\n      iszero\n      tag_587\n      jumpi\n        /* \"#utility.yul\":13981:14060   */\n      tag_588\n      tag_347\n      jump\t// in\n    tag_588:\n        /* \"#utility.yul\":13945:14062   */\n    tag_587:\n        /* \"#utility.yul\":14094:14174   */\n      tag_589\n        /* \"#utility.yul\":14166:14173   */\n      dup11\n        /* \"#utility.yul\":14157:14163   */\n      dup3\n        /* \"#utility.yul\":14146:14155   */\n      dup12\n        /* \"#utility.yul\":14142:14164   */\n      add\n        /* \"#utility.yul\":14094:14174   */\n      tag_371\n      jump\t// in\n    tag_589:\n        /* \"#utility.yul\":14076:14174   */\n      swap8\n      pop\n      swap8\n      pop\n        /* \"#utility.yul\":13872:14184   */\n      pop\n        /* \"#utility.yul\":14251:14253   */\n      0x20\n        /* \"#utility.yul\":14240:14249   */\n      dup9\n        /* \"#utility.yul\":14236:14254   */\n      add\n        /* \"#utility.yul\":14223:14255   */\n      calldataload\n        /* \"#utility.yul\":14282:14300   */\n      0xffffffffffffffff\n        /* \"#utility.yul\":14274:14280   */\n      dup2\n        /* \"#utility.yul\":14271:14301   */\n      gt\n        /* \"#utility.yul\":14268:14385   */\n      iszero\n      tag_590\n      jumpi\n        /* \"#utility.yul\":14304:14383   */\n      tag_591\n      tag_347\n      jump\t// in\n    tag_591:\n        /* \"#utility.yul\":14268:14385   */\n    tag_590:\n        /* \"#utility.yul\":14417:14497   */\n      tag_592\n        /* \"#utility.yul\":14489:14496   */\n      dup11\n        /* \"#utility.yul\":14480:14486   */\n      dup3\n        /* \"#utility.yul\":14469:14478   */\n      dup12\n        /* \"#utility.yul\":14465:14487   */\n      add\n        /* \"#utility.yul\":14417:14497   */\n      tag_378\n      jump\t// in\n    tag_592:\n        /* \"#utility.yul\":14399:14497   */\n      swap6\n      pop\n      swap6\n      pop\n        /* \"#utility.yul\":14194:14507   */\n      pop\n        /* \"#utility.yul\":14546:14548   */\n      0x40\n        /* \"#utility.yul\":14572:14625   */\n      tag_593\n        /* \"#utility.yul\":14617:14624   */\n      dup11\n        /* \"#utility.yul\":14608:14614   */\n      dup3\n        /* \"#utility.yul\":14597:14606   */\n      dup12\n        /* \"#utility.yul\":14593:14615   */\n      add\n        /* \"#utility.yul\":14572:14625   */\n      tag_373\n      jump\t// in\n    tag_593:\n        /* \"#utility.yul\":14562:14625   */\n      swap4\n      pop\n        /* \"#utility.yul\":14517:14635   */\n      pop\n        /* \"#utility.yul\":14702:14704   */\n      0x60\n        /* \"#utility.yul\":14691:14700   */\n      dup9\n        /* \"#utility.yul\":14687:14705   */\n      add\n        /* \"#utility.yul\":14674:14706   */\n      calldataload\n        /* \"#utility.yul\":14733:14751   */\n      0xffffffffffffffff\n        /* \"#utility.yul\":14725:14731   */\n      dup2\n        /* \"#utility.yul\":14722:14752   */\n      gt\n        /* \"#utility.yul\":14719:14836   */\n      iszero\n      tag_594\n      jumpi\n        /* \"#utility.yul\":14755:14834   */\n      tag_595\n      tag_347\n      jump\t// in\n    tag_595:\n        /* \"#utility.yul\":14719:14836   */\n    tag_594:\n        /* \"#utility.yul\":14868:14959   */\n      tag_596\n        /* \"#utility.yul\":14951:14958   */\n      dup11\n        /* \"#utility.yul\":14942:14948   */\n      dup3\n        /* \"#utility.yul\":14931:14940   */\n      dup12\n        /* \"#utility.yul\":14927:14949   */\n      add\n        /* \"#utility.yul\":14868:14959   */\n      tag_359\n      jump\t// in\n    tag_596:\n        /* \"#utility.yul\":14850:14959   */\n      swap3\n      pop\n      swap3\n      pop\n        /* \"#utility.yul\":14645:14969   */\n      pop\n        /* \"#utility.yul\":13499:14976   */\n      swap3\n      swap6\n      swap9\n      swap2\n      swap5\n      swap8\n      pop\n      swap3\n      swap6\n      pop\n      jump\t// out\n        /* \"#utility.yul\":14982:15108   */\n    tag_379:\n        /* \"#utility.yul\":15019:15026   */\n      0x00\n        /* \"#utility.yul\":15059:15101   */\n      0xffffffffffffffffffffffffffffffffffffffff\n        /* \"#utility.yul\":15052:15057   */\n      dup3\n        /* \"#utility.yul\":15048:15102   */\n      and\n        /* \"#utility.yul\":15037:15102   */\n      swap1\n      pop\n        /* \"#utility.yul\":14982:15108   */\n      swap2\n      swap1\n      pop\n      jump\t// out\n        /* \"#utility.yul\":15114:15210   */\n    tag_380:\n        /* \"#utility.yul\":15151:15158   */\n      0x00\n        /* \"#utility.yul\":15180:15204   */\n      tag_599\n        /* \"#utility.yul\":15198:15203   */\n      dup3\n        /* \"#utility.yul\":15180:15204   */\n      tag_379\n      jump\t// in\n    tag_599:\n        /* \"#utility.yul\":15169:15204   */\n      swap1\n      pop\n        /* \"#utility.yul\":15114:15210   */\n      swap2\n      swap1\n      pop\n      jump\t// out\n        /* \"#utility.yul\":15216:15338   */\n    tag_381:\n        /* \"#utility.yul\":15289:15313   */\n      tag_601\n        /* \"#utility.yul\":15307:15312   */\n      dup2\n        /* \"#utility.yul\":15289:15313   */\n      tag_380\n      jump\t// in\n    tag_601:\n        /* \"#utility.yul\":15282:15287   */\n      dup2\n        /* \"#utility.yul\":15279:15314   */\n      eq\n        /* \"#utility.yul\":15269:15332   */\n      tag_602\n      jumpi\n        /* \"#utility.yul\":15328:15329   */\n      0x00\n        /* \"#utility.yul\":15325:15326   */\n      dup1\n        /* \"#utility.yul\":15318:15330   */\n      revert\n        /* \"#utility.yul\":15269:15332   */\n    tag_602:\n        /* \"#utility.yul\":15216:15338   */\n      pop\n      jump\t// out\n        /* \"#utility.yul\":15344:15483   */\n    tag_382:\n        /* \"#utility.yul\":15390:15395   */\n      0x00\n        /* \"#utility.yul\":15428:15434   */\n      dup2\n        /* \"#utility.yul\":15415:15435   */\n      calldataload\n        /* \"#utility.yul\":15406:15435   */\n      swap1\n      pop\n        /* \"#utility.yul\":15444:15477   */\n      tag_604\n        /* \"#utility.yul\":15471:15476   */\n      dup2\n        /* \"#utility.yul\":15444:15477   */\n      tag_381\n      jump\t// in\n    tag_604:\n        /* \"#utility.yul\":15344:15483   */\n      swap3\n      swap2\n      pop\n      pop\n      jump\t// out\n        /* \"#utility.yul\":15489:16506   */\n    tag_53:\n        /* \"#utility.yul\":15613:15619   */\n      0x00\n        /* \"#utility.yul\":15621:15627   */\n      dup1\n        /* \"#utility.yul\":15629:15635   */\n      0x00\n        /* \"#utility.yul\":15637:15643   */\n      dup1\n        /* \"#utility.yul\":15645:15651   */\n      0x00\n        /* \"#utility.yul\":15694:15697   */\n      0x80\n        /* \"#utility.yul\":15682:15691   */\n      dup7\n        /* \"#utility.yul\":15673:15680   */\n      dup9\n        /* \"#utility.yul\":15669:15692   */\n      sub\n        /* \"#utility.yul\":15665:15698   */\n      slt\n        /* \"#utility.yul\":15662:15782   */\n      iszero\n      tag_606\n      jumpi\n        /* \"#utility.yul\":15701:15780   */\n      tag_607\n      tag_346\n      jump\t// in\n    tag_607:\n        /* \"#utility.yul\":15662:15782   */\n    tag_606:\n        /* \"#utility.yul\":15821:15822   */\n      0x00\n        /* \"#utility.yul\":15846:15899   */\n      tag_608\n        /* \"#utility.yul\":15891:15898   */\n      dup9\n        /* \"#utility.yul\":15882:15888   */\n      dup3\n        /* \"#utility.yul\":15871:15880   */\n      dup10\n        /* \"#utility.yul\":15867:15889   */\n      add\n        /* \"#utility.yul\":15846:15899   */\n      tag_382\n      jump\t// in\n    tag_608:\n        /* \"#utility.yul\":15836:15899   */\n      swap6\n      pop\n        /* \"#utility.yul\":15792:15909   */\n      pop\n        /* \"#utility.yul\":15948:15950   */\n      0x20\n        /* \"#utility.yul\":15974:16027   */\n      tag_609\n        /* \"#utility.yul\":16019:16026   */\n      dup9\n        /* \"#utility.yul\":16010:16016   */\n      dup3\n        /* \"#utility.yul\":15999:16008   */\n      dup10\n        /* \"#utility.yul\":15995:16017   */\n      add\n        /* \"#utility.yul\":15974:16027   */\n      tag_373\n      jump\t// in\n    tag_609:\n        /* \"#utility.yul\":15964:16027   */\n      swap5\n      pop\n        /* \"#utility.yul\":15919:16037   */\n      pop\n        /* \"#utility.yul\":16076:16078   */\n      0x40\n        /* \"#utility.yul\":16102:16155   */\n      tag_610\n        /* \"#utility.yul\":16147:16154   */\n      dup9\n        /* \"#utility.yul\":16138:16144   */\n      dup3\n        /* \"#utility.yul\":16127:16136   */\n      dup10\n        /* \"#utility.yul\":16123:16145   */\n      add\n        /* \"#utility.yul\":16102:16155   */\n      tag_373\n      jump\t// in\n    tag_610:\n        /* \"#utility.yul\":16092:16155   */\n      swap4\n      pop\n        /* \"#utility.yul\":16047:16165   */\n      pop\n        /* \"#utility.yul\":16232:16234   */\n      0x60\n        /* \"#utility.yul\":16221:16230   */\n      dup7\n        /* \"#utility.yul\":16217:16235   */\n      add\n        /* \"#utility.yul\":16204:16236   */\n      calldataload\n        /* \"#utility.yul\":16263:16281   */\n      0xffffffffffffffff\n        /* \"#utility.yul\":16255:16261   */\n      dup2\n        /* \"#utility.yul\":16252:16282   */\n      gt\n        /* \"#utility.yul\":16249:16366   */\n      iszero\n      tag_611\n      jumpi\n        /* \"#utility.yul\":16285:16364   */\n      tag_612\n      tag_347\n      jump\t// in\n    tag_612:\n        /* \"#utility.yul\":16249:16366   */\n    tag_611:\n        /* \"#utility.yul\":16398:16489   */\n      tag_613\n        /* \"#utility.yul\":16481:16488   */\n      dup9\n        /* \"#utility.yul\":16472:16478   */\n      dup3\n        /* \"#utility.yul\":16461:16470   */\n      dup10\n        /* \"#utility.yul\":16457:16479   */\n      add\n        /* \"#utility.yul\":16398:16489   */\n      tag_359\n      jump\t// in\n    tag_613:\n        /* \"#utility.yul\":16380:16489   */\n      swap3\n      pop\n      swap3\n      pop\n        /* \"#utility.yul\":16175:16499   */\n      pop\n        /* \"#utility.yul\":15489:16506   */\n      swap3\n      swap6\n      pop\n      swap3\n      swap6\n      swap1\n      swap4\n      pop\n      jump\t// out\n        /* \"#utility.yul\":16512:16841   */\n    tag_57:\n        /* \"#utility.yul\":16571:16577   */\n      0x00\n        /* \"#utility.yul\":16620:16622   */\n      0x20\n        /* \"#utility.yul\":16608:16617   */\n      dup3\n        /* \"#utility.yul\":16599:16606   */\n      dup5\n        /* \"#utility.yul\":16595:16618   */\n      sub\n        /* \"#utility.yul\":16591:16623   */\n      slt\n        /* \"#utility.yul\":16588:16707   */\n      iszero\n      tag_615\n      jumpi\n        /* \"#utility.yul\":16626:16705   */\n      tag_616\n      tag_346\n      jump\t// in\n    tag_616:\n        /* \"#utility.yul\":16588:16707   */\n    tag_615:\n        /* \"#utility.yul\":16746:16747   */\n      0x00\n        /* \"#utility.yul\":16771:16824   */\n      tag_617\n        /* \"#utility.yul\":16816:16823   */\n      dup5\n        /* \"#utility.yul\":16807:16813   */\n      dup3\n        /* \"#utility.yul\":16796:16805   */\n      dup6\n        /* \"#utility.yul\":16792:16814   */\n      add\n        /* \"#utility.yul\":16771:16824   */\n      tag_382\n      jump\t// in\n    tag_617:\n        /* \"#utility.yul\":16761:16824   */\n      swap2\n      pop\n        /* \"#utility.yul\":16717:16834   */\n      pop\n        /* \"#utility.yul\":16512:16841   */\n      swap3\n      swap2\n      pop\n      pop\n      jump\t// out\n        /* \"#utility.yul\":16847:17063   */\n    tag_383:\n        /* \"#utility.yul\":16978:16989   */\n      0x00\n        /* \"#utility.yul\":17012:17018   */\n      dup3\n        /* \"#utility.yul\":17007:17010   */\n      dup3\n        /* \"#utility.yul\":17000:17019   */\n      mstore\n        /* \"#utility.yul\":17052:17056   */\n      0x20\n        /* \"#utility.yul\":17047:17050   */\n      dup3\n        /* \"#utility.yul\":17043:17057   */\n      add\n        /* \"#utility.yul\":17028:17057   */\n      swap1\n      pop\n        /* \"#utility.yul\":16847:17063   */\n      swap3\n      swap2\n      pop\n      pop\n      jump\t// out\n        /* \"#utility.yul\":17069:17205   */\n    tag_384:\n        /* \"#utility.yul\":17172:17176   */\n      0x00\n        /* \"#utility.yul\":17195:17198   */\n      dup2\n        /* \"#utility.yul\":17187:17198   */\n      swap1\n      pop\n        /* \"#utility.yul\":17069:17205   */\n      swap2\n      swap1\n      pop\n      jump\t// out\n        /* \"#utility.yul\":17211:17333   */\n    tag_385:\n        /* \"#utility.yul\":17263:17268   */\n      0x00\n        /* \"#utility.yul\":17288:17327   */\n      tag_621\n        /* \"#utility.yul\":17323:17325   */\n      0x20\n        /* \"#utility.yul\":17318:17321   */\n      dup5\n        /* \"#utility.yul\":17314:17326   */\n      add\n        /* \"#utility.yul\":17309:17312   */\n      dup5\n        /* \"#utility.yul\":17288:17327   */\n      tag_382\n      jump\t// in\n    tag_621:\n        /* \"#utility.yul\":17279:17327   */\n      swap1\n      pop\n        /* \"#utility.yul\":17211:17333   */\n      swap3\n      swap2\n      pop\n      pop\n      jump\t// out\n        /* \"#utility.yul\":17339:17447   */\n    tag_386:\n        /* \"#utility.yul\":17416:17440   */\n      tag_623\n        /* \"#utility.yul\":17434:17439   */\n      dup2\n        /* \"#utility.yul\":17416:17440   */\n      tag_380\n      jump\t// in\n    tag_623:\n        /* \"#utility.yul\":17411:17414   */\n      dup3\n        /* \"#utility.yul\":17404:17441   */\n      mstore\n        /* \"#utility.yul\":17339:17447   */\n      pop\n      pop\n      jump\t// out\n        /* \"#utility.yul\":17453:17575   */\n    tag_387:\n        /* \"#utility.yul\":17505:17510   */\n      0x00\n        /* \"#utility.yul\":17530:17569   */\n      tag_625\n        /* \"#utility.yul\":17565:17567   */\n      0x20\n        /* \"#utility.yul\":17560:17563   */\n      dup5\n        /* \"#utility.yul\":17556:17568   */\n      add\n        /* \"#utility.yul\":17551:17554   */\n      dup5\n        /* \"#utility.yul\":17530:17569   */\n      tag_373\n      jump\t// in\n    tag_625:\n        /* \"#utility.yul\":17521:17569   */\n      swap1\n      pop\n        /* \"#utility.yul\":17453:17575   */\n      swap3\n      swap2\n      pop\n      pop\n      jump\t// out\n        /* \"#utility.yul\":17581:17689   */\n    tag_388:\n        /* \"#utility.yul\":17658:17682   */\n      tag_627\n        /* \"#utility.yul\":17676:17681   */\n      dup2\n        /* \"#utility.yul\":17658:17682   */\n      tag_353\n      jump\t// in\n    tag_627:\n        /* \"#utility.yul\":17653:17656   */\n      dup3\n        /* \"#utility.yul\":17646:17683   */\n      mstore\n        /* \"#utility.yul\":17581:17689   */\n      pop\n      pop\n      jump\t// out\n        /* \"#utility.yul\":17695:17812   */\n    tag_389:\n        /* \"#utility.yul\":17804:17805   */\n      0x00\n        /* \"#utility.yul\":17801:17802   */\n      dup1\n        /* \"#utility.yul\":17794:17806   */\n      revert\n        /* \"#utility.yul\":17818:17935   */\n    tag_390:\n        /* \"#utility.yul\":17927:17928   */\n      0x00\n        /* \"#utility.yul\":17924:17925   */\n      dup1\n        /* \"#utility.yul\":17917:17929   */\n      revert\n        /* \"#utility.yul\":17941:18058   */\n    tag_391:\n        /* \"#utility.yul\":18050:18051   */\n      0x00\n        /* \"#utility.yul\":18047:18048   */\n      dup1\n        /* \"#utility.yul\":18040:18052   */\n      revert\n        /* \"#utility.yul\":18064:18775   */\n    tag_392:\n        /* \"#utility.yul\":18128:18133   */\n      0x00\n        /* \"#utility.yul\":18135:18141   */\n      dup1\n        /* \"#utility.yul\":18191:18194   */\n      dup4\n        /* \"#utility.yul\":18178:18195   */\n      calldataload\n        /* \"#utility.yul\":18283:18284   */\n      0x01\n        /* \"#utility.yul\":18277:18281   */\n      0x20\n        /* \"#utility.yul\":18273:18285   */\n      sub\n        /* \"#utility.yul\":18262:18270   */\n      dup5\n        /* \"#utility.yul\":18246:18260   */\n      calldatasize\n        /* \"#utility.yul\":18242:18271   */\n      sub\n        /* \"#utility.yul\":18238:18286   */\n      sub\n        /* \"#utility.yul\":18218:18236   */\n      dup2\n        /* \"#utility.yul\":18214:18287   */\n      slt\n        /* \"#utility.yul\":18204:18372   */\n      tag_632\n      jumpi\n        /* \"#utility.yul\":18291:18370   */\n      tag_633\n      tag_391\n      jump\t// in\n    tag_633:\n        /* \"#utility.yul\":18204:18372   */\n    tag_632:\n        /* \"#utility.yul\":18414:18422   */\n      dup4\n        /* \"#utility.yul\":18394:18412   */\n      dup2\n        /* \"#utility.yul\":18390:18423   */\n      add\n        /* \"#utility.yul\":18381:18423   */\n      swap3\n      pop\n        /* \"#utility.yul\":18456:18461   */\n      dup3\n        /* \"#utility.yul\":18443:18462   */\n      calldataload\n        /* \"#utility.yul\":18433:18462   */\n      swap2\n      pop\n        /* \"#utility.yul\":18491:18495   */\n      0x20\n        /* \"#utility.yul\":18484:18489   */\n      dup4\n        /* \"#utility.yul\":18480:18496   */\n      add\n        /* \"#utility.yul\":18471:18496   */\n      swap3\n      pop\n        /* \"#utility.yul\":18519:18537   */\n      0xffffffffffffffff\n        /* \"#utility.yul\":18511:18517   */\n      dup3\n        /* \"#utility.yul\":18508:18538   */\n      gt\n        /* \"#utility.yul\":18505:18622   */\n      iszero\n      tag_634\n      jumpi\n        /* \"#utility.yul\":18541:18620   */\n      tag_635\n      tag_389\n      jump\t// in\n    tag_635:\n        /* \"#utility.yul\":18505:18622   */\n    tag_634:\n        /* \"#utility.yul\":18677:18681   */\n      0x01\n        /* \"#utility.yul\":18669:18675   */\n      dup3\n        /* \"#utility.yul\":18665:18682   */\n      mul\n        /* \"#utility.yul\":18649:18663   */\n      calldatasize\n        /* \"#utility.yul\":18645:18683   */\n      sub\n        /* \"#utility.yul\":18638:18643   */\n      dup4\n        /* \"#utility.yul\":18634:18684   */\n      sgt\n        /* \"#utility.yul\":18631:18768   */\n      iszero\n      tag_636\n      jumpi\n        /* \"#utility.yul\":18687:18766   */\n      tag_637\n      tag_390\n      jump\t// in\n    tag_637:\n        /* \"#utility.yul\":18631:18768   */\n    tag_636:\n        /* \"#utility.yul\":18142:18775   */\n      pop\n        /* \"#utility.yul\":18064:18775   */\n      swap3\n      pop\n      swap3\n      swap1\n      pop\n      jump\t// out\n        /* \"#utility.yul\":18781:18927   */\n    tag_393:\n        /* \"#utility.yul\":18878:18884   */\n      dup3\n        /* \"#utility.yul\":18873:18876   */\n      dup2\n        /* \"#utility.yul\":18868:18871   */\n      dup4\n        /* \"#utility.yul\":18855:18885   */\n      calldatacopy\n        /* \"#utility.yul\":18919:18920   */\n      0x00\n        /* \"#utility.yul\":18910:18916   */\n      dup4\n        /* \"#utility.yul\":18905:18908   */\n      dup4\n        /* \"#utility.yul\":18901:18917   */\n      add\n        /* \"#utility.yul\":18894:18921   */\n      mstore\n        /* \"#utility.yul\":18781:18927   */\n      pop\n      pop\n      pop\n      jump\t// out\n        /* \"#utility.yul\":18955:19249   */\n    tag_394:\n        /* \"#utility.yul\":19041:19044   */\n      0x00\n        /* \"#utility.yul\":19062:19122   */\n      tag_640\n        /* \"#utility.yul\":19115:19121   */\n      dup4\n        /* \"#utility.yul\":19110:19113   */\n      dup6\n        /* \"#utility.yul\":19062:19122   */\n      tag_364\n      jump\t// in\n    tag_640:\n        /* \"#utility.yul\":19055:19122   */\n      swap4\n      pop\n        /* \"#utility.yul\":19132:19188   */\n      tag_641\n        /* \"#utility.yul\":19181:19187   */\n      dup4\n        /* \"#utility.yul\":19176:19179   */\n      dup6\n        /* \"#utility.yul\":19169:19174   */\n      dup5\n        /* \"#utility.yul\":19132:19188   */\n      tag_393\n      jump\t// in\n    tag_641:\n        /* \"#utility.yul\":19213:19242   */\n      tag_642\n        /* \"#utility.yul\":19235:19241   */\n      dup4\n        /* \"#utility.yul\":19213:19242   */\n      tag_366\n      jump\t// in\n    tag_642:\n        /* \"#utility.yul\":19208:19211   */\n      dup5\n        /* \"#utility.yul\":19204:19243   */\n      add\n        /* \"#utility.yul\":19197:19243   */\n      swap1\n      pop\n        /* \"#utility.yul\":18955:19249   */\n      swap4\n      swap3\n      pop\n      pop\n      pop\n      jump\t// out\n        /* \"#utility.yul\":19335:20446   */\n    tag_395:\n        /* \"#utility.yul\":19460:19463   */\n      0x00\n        /* \"#utility.yul\":19496:19500   */\n      0x80\n        /* \"#utility.yul\":19491:19494   */\n      dup4\n        /* \"#utility.yul\":19487:19501   */\n      add\n        /* \"#utility.yul\":19568:19618   */\n      tag_644\n        /* \"#utility.yul\":19612:19616   */\n      0x00\n        /* \"#utility.yul\":19605:19610   */\n      dup5\n        /* \"#utility.yul\":19601:19617   */\n      add\n        /* \"#utility.yul\":19594:19599   */\n      dup5\n        /* \"#utility.yul\":19568:19618   */\n      tag_385\n      jump\t// in\n    tag_644:\n        /* \"#utility.yul\":19631:19694   */\n      tag_645\n        /* \"#utility.yul\":19688:19692   */\n      0x00\n        /* \"#utility.yul\":19683:19686   */\n      dup7\n        /* \"#utility.yul\":19679:19693   */\n      add\n        /* \"#utility.yul\":19665:19677   */\n      dup3\n        /* \"#utility.yul\":19631:19694   */\n      tag_386\n      jump\t// in\n    tag_645:\n        /* \"#utility.yul\":19511:19704   */\n      pop\n        /* \"#utility.yul\":19770:19820   */\n      tag_646\n        /* \"#utility.yul\":19814:19818   */\n      0x20\n        /* \"#utility.yul\":19807:19812   */\n      dup5\n        /* \"#utility.yul\":19803:19819   */\n      add\n        /* \"#utility.yul\":19796:19801   */\n      dup5\n        /* \"#utility.yul\":19770:19820   */\n      tag_387\n      jump\t// in\n    tag_646:\n        /* \"#utility.yul\":19833:19896   */\n      tag_647\n        /* \"#utility.yul\":19890:19894   */\n      0x20\n        /* \"#utility.yul\":19885:19888   */\n      dup7\n        /* \"#utility.yul\":19881:19895   */\n      add\n        /* \"#utility.yul\":19867:19879   */\n      dup3\n        /* \"#utility.yul\":19833:19896   */\n      tag_388\n      jump\t// in\n    tag_647:\n        /* \"#utility.yul\":19714:19906   */\n      pop\n        /* \"#utility.yul\":19972:20022   */\n      tag_648\n        /* \"#utility.yul\":20016:20020   */\n      0x40\n        /* \"#utility.yul\":20009:20014   */\n      dup5\n        /* \"#utility.yul\":20005:20021   */\n      add\n        /* \"#utility.yul\":19998:20003   */\n      dup5\n        /* \"#utility.yul\":19972:20022   */\n      tag_387\n      jump\t// in\n    tag_648:\n        /* \"#utility.yul\":20035:20098   */\n      tag_649\n        /* \"#utility.yul\":20092:20096   */\n      0x40\n        /* \"#utility.yul\":20087:20090   */\n      dup7\n        /* \"#utility.yul\":20083:20097   */\n      add\n        /* \"#utility.yul\":20069:20081   */\n      dup3\n        /* \"#utility.yul\":20035:20098   */\n      tag_388\n      jump\t// in\n    tag_649:\n        /* \"#utility.yul\":19916:20108   */\n      pop\n        /* \"#utility.yul\":20187:20248   */\n      tag_650\n        /* \"#utility.yul\":20242:20246   */\n      0x60\n        /* \"#utility.yul\":20235:20240   */\n      dup5\n        /* \"#utility.yul\":20231:20247   */\n      add\n        /* \"#utility.yul\":20224:20229   */\n      dup5\n        /* \"#utility.yul\":20187:20248   */\n      tag_392\n      jump\t// in\n    tag_650:\n        /* \"#utility.yul\":20295:20298   */\n      dup6\n        /* \"#utility.yul\":20289:20293   */\n      dup4\n        /* \"#utility.yul\":20285:20299   */\n      sub\n        /* \"#utility.yul\":20278:20282   */\n      0x60\n        /* \"#utility.yul\":20273:20276   */\n      dup8\n        /* \"#utility.yul\":20269:20283   */\n      add\n        /* \"#utility.yul\":20262:20300   */\n      mstore\n        /* \"#utility.yul\":20321:20408   */\n      tag_651\n        /* \"#utility.yul\":20403:20407   */\n      dup4\n        /* \"#utility.yul\":20389:20401   */\n      dup3\n        /* \"#utility.yul\":20375:20387   */\n      dup5\n        /* \"#utility.yul\":20321:20408   */\n      tag_394\n      jump\t// in\n    tag_651:\n        /* \"#utility.yul\":20313:20408   */\n      swap3\n      pop\n        /* \"#utility.yul\":20118:20419   */\n      pop\n      pop\n        /* \"#utility.yul\":20436:20440   */\n      dup1\n        /* \"#utility.yul\":20429:20440   */\n      swap2\n      pop\n        /* \"#utility.yul\":19465:20446   */\n      pop\n        /* \"#utility.yul\":19335:20446   */\n      swap3\n      swap2\n      pop\n      pop\n      jump\t// out\n        /* \"#utility.yul\":20452:20740   */\n    tag_396:\n        /* \"#utility.yul\":20587:20597   */\n      0x00\n        /* \"#utility.yul\":20622:20734   */\n      tag_653\n        /* \"#utility.yul\":20730:20733   */\n      dup4\n        /* \"#utility.yul\":20722:20728   */\n      dup4\n        /* \"#utility.yul\":20622:20734   */\n      tag_395\n      jump\t// in\n    tag_653:\n        /* \"#utility.yul\":20608:20734   */\n      swap1\n      pop\n        /* \"#utility.yul\":20452:20740   */\n      swap3\n      swap2\n      pop\n      pop\n      jump\t// out\n        /* \"#utility.yul\":20746:21127   */\n    tag_397:\n        /* \"#utility.yul\":20833:20838   */\n      0x00\n        /* \"#utility.yul\":20888:20891   */\n      dup3\n        /* \"#utility.yul\":20875:20892   */\n      calldataload\n        /* \"#utility.yul\":20980:20981   */\n      0x01\n        /* \"#utility.yul\":20974:20978   */\n      0x80\n        /* \"#utility.yul\":20970:20982   */\n      sub\n        /* \"#utility.yul\":20959:20967   */\n      dup4\n        /* \"#utility.yul\":20943:20957   */\n      calldatasize\n        /* \"#utility.yul\":20939:20968   */\n      sub\n        /* \"#utility.yul\":20935:20983   */\n      sub\n        /* \"#utility.yul\":20915:20933   */\n      dup2\n        /* \"#utility.yul\":20911:20984   */\n      slt\n        /* \"#utility.yul\":20901:21069   */\n      tag_655\n      jumpi\n        /* \"#utility.yul\":20988:21067   */\n      tag_656\n      tag_391\n      jump\t// in\n    tag_656:\n        /* \"#utility.yul\":20901:21069   */\n    tag_655:\n        /* \"#utility.yul\":21111:21119   */\n      dup3\n        /* \"#utility.yul\":21091:21109   */\n      dup2\n        /* \"#utility.yul\":21087:21120   */\n      add\n        /* \"#utility.yul\":21078:21120   */\n      swap2\n      pop\n        /* \"#utility.yul\":20839:21127   */\n      pop\n        /* \"#utility.yul\":20746:21127   */\n      swap3\n      swap2\n      pop\n      pop\n      jump\t// out\n        /* \"#utility.yul\":21133:21282   */\n    tag_398:\n        /* \"#utility.yul\":21239:21243   */\n      0x00\n        /* \"#utility.yul\":21271:21275   */\n      0x20\n        /* \"#utility.yul\":21266:21269   */\n      dup3\n        /* \"#utility.yul\":21262:21276   */\n      add\n        /* \"#utility.yul\":21254:21276   */\n      swap1\n      pop\n        /* \"#utility.yul\":21133:21282   */\n      swap2\n      swap1\n      pop\n      jump\t// out\n        /* \"#utility.yul\":21372:22516   */\n    tag_399:\n        /* \"#utility.yul\":21567:21570   */\n      0x00\n        /* \"#utility.yul\":21590:21708   */\n      tag_659\n        /* \"#utility.yul\":21701:21707   */\n      dup4\n        /* \"#utility.yul\":21696:21699   */\n      dup6\n        /* \"#utility.yul\":21590:21708   */\n      tag_383\n      jump\t// in\n    tag_659:\n        /* \"#utility.yul\":21583:21708   */\n      swap4\n      pop\n        /* \"#utility.yul\":21734:21737   */\n      dup4\n        /* \"#utility.yul\":21779:21783   */\n      0x20\n        /* \"#utility.yul\":21771:21777   */\n      dup5\n        /* \"#utility.yul\":21767:21784   */\n      mul\n        /* \"#utility.yul\":21762:21765   */\n      dup6\n        /* \"#utility.yul\":21758:21785   */\n      add\n        /* \"#utility.yul\":21809:21901   */\n      tag_660\n        /* \"#utility.yul\":21895:21900   */\n      dup5\n        /* \"#utility.yul\":21809:21901   */\n      tag_384\n      jump\t// in\n    tag_660:\n        /* \"#utility.yul\":21924:21931   */\n      dup1\n        /* \"#utility.yul\":21955:21956   */\n      0x00\n        /* \"#utility.yul\":21940:22471   */\n    tag_661:\n        /* \"#utility.yul\":21965:21971   */\n      dup8\n        /* \"#utility.yul\":21962:21963   */\n      dup2\n        /* \"#utility.yul\":21959:21972   */\n      lt\n        /* \"#utility.yul\":21940:22471   */\n      iszero\n      tag_663\n      jumpi\n        /* \"#utility.yul\":22036:22045   */\n      dup5\n        /* \"#utility.yul\":22030:22034   */\n      dup5\n        /* \"#utility.yul\":22026:22046   */\n      sub\n        /* \"#utility.yul\":22021:22024   */\n      dup10\n        /* \"#utility.yul\":22014:22047   */\n      mstore\n        /* \"#utility.yul\":22081:22157   */\n      tag_664\n        /* \"#utility.yul\":22150:22156   */\n      dup3\n        /* \"#utility.yul\":22141:22148   */\n      dup5\n        /* \"#utility.yul\":22081:22157   */\n      tag_397\n      jump\t// in\n    tag_664:\n        /* \"#utility.yul\":22178:22308   */\n      tag_665\n        /* \"#utility.yul\":22303:22307   */\n      dup6\n        /* \"#utility.yul\":22288:22301   */\n      dup3\n        /* \"#utility.yul\":22178:22308   */\n      tag_396\n      jump\t// in\n    tag_665:\n        /* \"#utility.yul\":22170:22308   */\n      swap5\n      pop\n        /* \"#utility.yul\":22331:22427   */\n      tag_666\n        /* \"#utility.yul\":22420:22426   */\n      dup4\n        /* \"#utility.yul\":22331:22427   */\n      tag_398\n      jump\t// in\n    tag_666:\n        /* \"#utility.yul\":22321:22427   */\n      swap3\n      pop\n        /* \"#utility.yul\":22456:22460   */\n      0x20\n        /* \"#utility.yul\":22451:22454   */\n      dup11\n        /* \"#utility.yul\":22447:22461   */\n      add\n        /* \"#utility.yul\":22440:22461   */\n      swap10\n      pop\n        /* \"#utility.yul\":22000:22471   */\n      pop\n        /* \"#utility.yul\":21987:21988   */\n      0x01\n        /* \"#utility.yul\":21984:21985   */\n      dup2\n        /* \"#utility.yul\":21980:21989   */\n      add\n        /* \"#utility.yul\":21975:21989   */\n      swap1\n      pop\n        /* \"#utility.yul\":21940:22471   */\n      jump(tag_661)\n    tag_663:\n        /* \"#utility.yul\":21944:21958   */\n      pop\n        /* \"#utility.yul\":22487:22491   */\n      dup3\n        /* \"#utility.yul\":22480:22491   */\n      swap8\n      pop\n        /* \"#utility.yul\":22507:22510   */\n      dup8\n        /* \"#utility.yul\":22500:22510   */\n      swap5\n      pop\n        /* \"#utility.yul\":21572:22516   */\n      pop\n      pop\n      pop\n      pop\n        /* \"#utility.yul\":21372:22516   */\n      swap4\n      swap3\n      pop\n      pop\n      pop\n      jump\t// out\n        /* \"#utility.yul\":22522:23157   */\n    tag_68:\n        /* \"#utility.yul\":22769:22773   */\n      0x00\n        /* \"#utility.yul\":22807:22809   */\n      0x40\n        /* \"#utility.yul\":22796:22805   */\n      dup3\n        /* \"#utility.yul\":22792:22810   */\n      add\n        /* \"#utility.yul\":22784:22810   */\n      swap1\n      pop\n        /* \"#utility.yul\":22856:22865   */\n      dup2\n        /* \"#utility.yul\":22850:22854   */\n      dup2\n        /* \"#utility.yul\":22846:22866   */\n      sub\n        /* \"#utility.yul\":22842:22843   */\n      0x00\n        /* \"#utility.yul\":22831:22840   */\n      dup4\n        /* \"#utility.yul\":22827:22844   */\n      add\n        /* \"#utility.yul\":22820:22867   */\n      mstore\n        /* \"#utility.yul\":22884:23068   */\n      tag_668\n        /* \"#utility.yul\":23063:23067   */\n      dup2\n        /* \"#utility.yul\":23054:23060   */\n      dup6\n        /* \"#utility.yul\":23046:23052   */\n      dup8\n        /* \"#utility.yul\":22884:23068   */\n      tag_399\n      jump\t// in\n    tag_668:\n        /* \"#utility.yul\":22876:23068   */\n      swap1\n      pop\n        /* \"#utility.yul\":23078:23150   */\n      tag_669\n        /* \"#utility.yul\":23146:23148   */\n      0x20\n        /* \"#utility.yul\":23135:23144   */\n      dup4\n        /* \"#utility.yul\":23131:23149   */\n      add\n        /* \"#utility.yul\":23122:23128   */\n      dup5\n        /* \"#utility.yul\":23078:23150   */\n      tag_354\n      jump\t// in\n    tag_669:\n        /* \"#utility.yul\":22522:23157   */\n      swap5\n      swap4\n      pop\n      pop\n      pop\n      pop\n      jump\t// out\n        /* \"#utility.yul\":23163:23343   */\n    tag_93:\n        /* \"#utility.yul\":23211:23288   */\n      0x4e487b7100000000000000000000000000000000000000000000000000000000\n        /* \"#utility.yul\":23208:23209   */\n      0x00\n        /* \"#utility.yul\":23201:23289   */\n      mstore\n        /* \"#utility.yul\":23308:23312   */\n      0x41\n        /* \"#utility.yul\":23305:23306   */\n      0x04\n        /* \"#utility.yul\":23298:23313   */\n      mstore\n        /* \"#utility.yul\":23332:23336   */\n      0x24\n        /* \"#utility.yul\":23329:23330   */\n      0x00\n        /* \"#utility.yul\":23322:23337   */\n      revert\n        /* \"#utility.yul\":23349:23630   */\n    tag_400:\n        /* \"#utility.yul\":23432:23459   */\n      tag_672\n        /* \"#utility.yul\":23454:23458   */\n      dup3\n        /* \"#utility.yul\":23432:23459   */\n      tag_366\n      jump\t// in\n    tag_672:\n        /* \"#utility.yul\":23424:23430   */\n      dup2\n        /* \"#utility.yul\":23420:23460   */\n      add\n        /* \"#utility.yul\":23562:23568   */\n      dup2\n        /* \"#utility.yul\":23550:23560   */\n      dup2\n        /* \"#utility.yul\":23547:23569   */\n      lt\n        /* \"#utility.yul\":23526:23544   */\n      0xffffffffffffffff\n        /* \"#utility.yul\":23514:23524   */\n      dup3\n        /* \"#utility.yul\":23511:23545   */\n      gt\n        /* \"#utility.yul\":23508:23570   */\n      or\n        /* \"#utility.yul\":23505:23593   */\n      iszero\n      tag_673\n      jumpi\n        /* \"#utility.yul\":23573:23591   */\n      tag_674\n      tag_93\n      jump\t// in\n    tag_674:\n        /* \"#utility.yul\":23505:23593   */\n    tag_673:\n        /* \"#utility.yul\":23613:23623   */\n      dup1\n        /* \"#utility.yul\":23609:23611   */\n      0x40\n        /* \"#utility.yul\":23602:23624   */\n      mstore\n        /* \"#utility.yul\":23392:23630   */\n      pop\n        /* \"#utility.yul\":23349:23630   */\n      pop\n      pop\n      jump\t// out\n        /* \"#utility.yul\":23636:23765   */\n    tag_401:\n        /* \"#utility.yul\":23670:23676   */\n      0x00\n        /* \"#utility.yul\":23697:23717   */\n      tag_676\n      tag_345\n      jump\t// in\n    tag_676:\n        /* \"#utility.yul\":23687:23717   */\n      swap1\n      pop\n        /* \"#utility.yul\":23726:23759   */\n      tag_677\n        /* \"#utility.yul\":23754:23758   */\n      dup3\n        /* \"#utility.yul\":23746:23752   */\n      dup3\n        /* \"#utility.yul\":23726:23759   */\n      tag_400\n      jump\t// in\n    tag_677:\n        /* \"#utility.yul\":23636:23765   */\n      swap2\n      swap1\n      pop\n      jump\t// out\n        /* \"#utility.yul\":23771:24091   */\n    tag_402:\n        /* \"#utility.yul\":23857:23861   */\n      0x00\n        /* \"#utility.yul\":23947:23965   */\n      0xffffffffffffffff\n        /* \"#utility.yul\":23939:23945   */\n      dup3\n        /* \"#utility.yul\":23936:23966   */\n      gt\n        /* \"#utility.yul\":23933:23989   */\n      iszero\n      tag_679\n      jumpi\n        /* \"#utility.yul\":23969:23987   */\n      tag_680\n      tag_93\n      jump\t// in\n    tag_680:\n        /* \"#utility.yul\":23933:23989   */\n    tag_679:\n        /* \"#utility.yul\":24019:24023   */\n      0x20\n        /* \"#utility.yul\":24011:24017   */\n      dup3\n        /* \"#utility.yul\":24007:24024   */\n      mul\n        /* \"#utility.yul\":23999:24024   */\n      swap1\n      pop\n        /* \"#utility.yul\":24079:24083   */\n      0x20\n        /* \"#utility.yul\":24073:24077   */\n      dup2\n        /* \"#utility.yul\":24069:24084   */\n      add\n        /* \"#utility.yul\":24061:24084   */\n      swap1\n      pop\n        /* \"#utility.yul\":23771:24091   */\n      swap2\n      swap1\n      pop\n      jump\t// out\n        /* \"#utility.yul\":24097:24214   */\n    tag_403:\n        /* \"#utility.yul\":24206:24207   */\n      0x00\n        /* \"#utility.yul\":24203:24204   */\n      dup1\n        /* \"#utility.yul\":24196:24208   */\n      revert\n        /* \"#utility.yul\":24220:24527   */\n    tag_404:\n        /* \"#utility.yul\":24281:24285   */\n      0x00\n        /* \"#utility.yul\":24371:24389   */\n      0xffffffffffffffff\n        /* \"#utility.yul\":24363:24369   */\n      dup3\n        /* \"#utility.yul\":24360:24390   */\n      gt\n        /* \"#utility.yul\":24357:24413   */\n      iszero\n      tag_683\n      jumpi\n        /* \"#utility.yul\":24393:24411   */\n      tag_684\n      tag_93\n      jump\t// in\n    tag_684:\n        /* \"#utility.yul\":24357:24413   */\n    tag_683:\n        /* \"#utility.yul\":24431:24460   */\n      tag_685\n        /* \"#utility.yul\":24453:24459   */\n      dup3\n        /* \"#utility.yul\":24431:24460   */\n      tag_366\n      jump\t// in\n    tag_685:\n        /* \"#utility.yul\":24423:24460   */\n      swap1\n      pop\n        /* \"#utility.yul\":24515:24519   */\n      0x20\n        /* \"#utility.yul\":24509:24513   */\n      dup2\n        /* \"#utility.yul\":24505:24520   */\n      add\n        /* \"#utility.yul\":24497:24520   */\n      swap1\n      pop\n        /* \"#utility.yul\":24220:24527   */\n      swap2\n      swap1\n      pop\n      jump\t// out\n        /* \"#utility.yul\":24533:24956   */\n    tag_405:\n        /* \"#utility.yul\":24610:24615   */\n      0x00\n        /* \"#utility.yul\":24635:24700   */\n      tag_687\n        /* \"#utility.yul\":24651:24699   */\n      tag_688\n        /* \"#utility.yul\":24692:24698   */\n      dup5\n        /* \"#utility.yul\":24651:24699   */\n      tag_404\n      jump\t// in\n    tag_688:\n        /* \"#utility.yul\":24635:24700   */\n      tag_401\n      jump\t// in\n    tag_687:\n        /* \"#utility.yul\":24626:24700   */\n      swap1\n      pop\n        /* \"#utility.yul\":24723:24729   */\n      dup3\n        /* \"#utility.yul\":24716:24721   */\n      dup2\n        /* \"#utility.yul\":24709:24730   */\n      mstore\n        /* \"#utility.yul\":24761:24765   */\n      0x20\n        /* \"#utility.yul\":24754:24759   */\n      dup2\n        /* \"#utility.yul\":24750:24766   */\n      add\n        /* \"#utility.yul\":24799:24802   */\n      dup5\n        /* \"#utility.yul\":24790:24796   */\n      dup5\n        /* \"#utility.yul\":24785:24788   */\n      dup5\n        /* \"#utility.yul\":24781:24797   */\n      add\n        /* \"#utility.yul\":24778:24803   */\n      gt\n        /* \"#utility.yul\":24775:24887   */\n      iszero\n      tag_689\n      jumpi\n        /* \"#utility.yul\":24806:24885   */\n      tag_690\n      tag_403\n      jump\t// in\n    tag_690:\n        /* \"#utility.yul\":24775:24887   */\n    tag_689:\n        /* \"#utility.yul\":24896:24950   */\n      tag_691\n        /* \"#utility.yul\":24943:24949   */\n      dup5\n        /* \"#utility.yul\":24938:24941   */\n      dup3\n        /* \"#utility.yul\":24933:24936   */\n      dup6\n        /* \"#utility.yul\":24896:24950   */\n      tag_393\n      jump\t// in\n    tag_691:\n        /* \"#utility.yul\":24616:24956   */\n      pop\n        /* \"#utility.yul\":24533:24956   */\n      swap4\n      swap3\n      pop\n      pop\n      pop\n      jump\t// out\n        /* \"#utility.yul\":24975:25313   */\n    tag_406:\n        /* \"#utility.yul\":25030:25035   */\n      0x00\n        /* \"#utility.yul\":25079:25082   */\n      dup3\n        /* \"#utility.yul\":25072:25076   */\n      0x1f\n        /* \"#utility.yul\":25064:25070   */\n      dup4\n        /* \"#utility.yul\":25060:25077   */\n      add\n        /* \"#utility.yul\":25056:25083   */\n      slt\n        /* \"#utility.yul\":25046:25168   */\n      tag_693\n      jumpi\n        /* \"#utility.yul\":25087:25166   */\n      tag_694\n      tag_355\n      jump\t// in\n    tag_694:\n        /* \"#utility.yul\":25046:25168   */\n    tag_693:\n        /* \"#utility.yul\":25204:25210   */\n      dup2\n        /* \"#utility.yul\":25191:25211   */\n      calldataload\n        /* \"#utility.yul\":25229:25307   */\n      tag_695\n        /* \"#utility.yul\":25303:25306   */\n      dup5\n        /* \"#utility.yul\":25295:25301   */\n      dup3\n        /* \"#utility.yul\":25288:25292   */\n      0x20\n        /* \"#utility.yul\":25280:25286   */\n      dup7\n        /* \"#utility.yul\":25276:25293   */\n      add\n        /* \"#utility.yul\":25229:25307   */\n      tag_405\n      jump\t// in\n    tag_695:\n        /* \"#utility.yul\":25220:25307   */\n      swap2\n      pop\n        /* \"#utility.yul\":25036:25313   */\n      pop\n        /* \"#utility.yul\":24975:25313   */\n      swap3\n      swap2\n      pop\n      pop\n      jump\t// out\n        /* \"#utility.yul\":25334:26276   */\n    tag_407:\n        /* \"#utility.yul\":25439:25444   */\n      0x00\n        /* \"#utility.yul\":25464:25554   */\n      tag_697\n        /* \"#utility.yul\":25480:25553   */\n      tag_698\n        /* \"#utility.yul\":25546:25552   */\n      dup5\n        /* \"#utility.yul\":25480:25553   */\n      tag_402\n      jump\t// in\n    tag_698:\n        /* \"#utility.yul\":25464:25554   */\n      tag_401\n      jump\t// in\n    tag_697:\n        /* \"#utility.yul\":25455:25554   */\n      swap1\n      pop\n        /* \"#utility.yul\":25574:25579   */\n      dup1\n        /* \"#utility.yul\":25603:25609   */\n      dup4\n        /* \"#utility.yul\":25596:25601   */\n      dup3\n        /* \"#utility.yul\":25589:25610   */\n      mstore\n        /* \"#utility.yul\":25637:25641   */\n      0x20\n        /* \"#utility.yul\":25630:25635   */\n      dup3\n        /* \"#utility.yul\":25626:25642   */\n      add\n        /* \"#utility.yul\":25619:25642   */\n      swap1\n      pop\n        /* \"#utility.yul\":25690:25694   */\n      0x20\n        /* \"#utility.yul\":25682:25688   */\n      dup5\n        /* \"#utility.yul\":25678:25695   */\n      mul\n        /* \"#utility.yul\":25670:25676   */\n      dup4\n        /* \"#utility.yul\":25666:25696   */\n      add\n        /* \"#utility.yul\":25719:25722   */\n      dup6\n        /* \"#utility.yul\":25711:25717   */\n      dup2\n        /* \"#utility.yul\":25708:25723   */\n      gt\n        /* \"#utility.yul\":25705:25827   */\n      iszero\n      tag_699\n      jumpi\n        /* \"#utility.yul\":25738:25817   */\n      tag_700\n      tag_357\n      jump\t// in\n    tag_700:\n        /* \"#utility.yul\":25705:25827   */\n    tag_699:\n        /* \"#utility.yul\":25853:25859   */\n      dup4\n        /* \"#utility.yul\":25836:26270   */\n    tag_701:\n        /* \"#utility.yul\":25870:25876   */\n      dup2\n        /* \"#utility.yul\":25865:25868   */\n      dup2\n        /* \"#utility.yul\":25862:25877   */\n      lt\n        /* \"#utility.yul\":25836:26270   */\n      iszero\n      tag_703\n      jumpi\n        /* \"#utility.yul\":25959:25962   */\n      dup1\n        /* \"#utility.yul\":25946:25963   */\n      calldataload\n        /* \"#utility.yul\":25995:26013   */\n      0xffffffffffffffff\n        /* \"#utility.yul\":25982:25993   */\n      dup2\n        /* \"#utility.yul\":25979:26014   */\n      gt\n        /* \"#utility.yul\":25976:26098   */\n      iszero\n      tag_704\n      jumpi\n        /* \"#utility.yul\":26017:26096   */\n      tag_705\n      tag_355\n      jump\t// in\n    tag_705:\n        /* \"#utility.yul\":25976:26098   */\n    tag_704:\n        /* \"#utility.yul\":26141:26152   */\n      dup1\n        /* \"#utility.yul\":26133:26139   */\n      dup7\n        /* \"#utility.yul\":26129:26153   */\n      add\n        /* \"#utility.yul\":26179:26225   */\n      tag_706\n        /* \"#utility.yul\":26221:26224   */\n      dup10\n        /* \"#utility.yul\":26209:26219   */\n      dup3\n        /* \"#utility.yul\":26179:26225   */\n      tag_406\n      jump\t// in\n    tag_706:\n        /* \"#utility.yul\":26174:26177   */\n      dup6\n        /* \"#utility.yul\":26167:26226   */\n      mstore\n        /* \"#utility.yul\":26255:26259   */\n      0x20\n        /* \"#utility.yul\":26250:26253   */\n      dup6\n        /* \"#utility.yul\":26246:26260   */\n      add\n        /* \"#utility.yul\":26239:26260   */\n      swap5\n      pop\n        /* \"#utility.yul\":25912:26270   */\n      pop\n      pop\n        /* \"#utility.yul\":25896:25900   */\n      0x20\n        /* \"#utility.yul\":25891:25894   */\n      dup2\n        /* \"#utility.yul\":25887:25901   */\n      add\n        /* \"#utility.yul\":25880:25901   */\n      swap1\n      pop\n        /* \"#utility.yul\":25836:26270   */\n      jump(tag_701)\n    tag_703:\n        /* \"#utility.yul\":25840:25861   */\n      pop\n        /* \"#utility.yul\":25445:26276   */\n      pop\n      pop\n        /* \"#utility.yul\":25334:26276   */\n      swap4\n      swap3\n      pop\n      pop\n      pop\n      jump\t// out\n        /* \"#utility.yul\":26282:26626   */\n    tag_72:\n        /* \"#utility.yul\":26418:26427   */\n      0x00\n        /* \"#utility.yul\":26517:26619   */\n      tag_708\n        /* \"#utility.yul\":26604:26618   */\n      calldatasize\n        /* \"#utility.yul\":26596:26602   */\n      dup5\n        /* \"#utility.yul\":26589:26594   */\n      dup5\n        /* \"#utility.yul\":26517:26619   */\n      tag_407\n      jump\t// in\n    tag_708:\n        /* \"#utility.yul\":26495:26619   */\n      swap1\n      pop\n        /* \"#utility.yul\":26282:26626   */\n      swap3\n      swap2\n      pop\n      pop\n      jump\t// out\n        /* \"#utility.yul\":26632:26731   */\n    tag_408:\n        /* \"#utility.yul\":26684:26690   */\n      0x00\n        /* \"#utility.yul\":26718:26723   */\n      dup2\n        /* \"#utility.yul\":26712:26724   */\n      mload\n        /* \"#utility.yul\":26702:26724   */\n      swap1\n      pop\n        /* \"#utility.yul\":26632:26731   */\n      swap2\n      swap1\n      pop\n      jump\t// out\n        /* \"#utility.yul\":26737:26906   */\n    tag_409:\n        /* \"#utility.yul\":26821:26832   */\n      0x00\n        /* \"#utility.yul\":26855:26861   */\n      dup3\n        /* \"#utility.yul\":26850:26853   */\n      dup3\n        /* \"#utility.yul\":26843:26862   */\n      mstore\n        /* \"#utility.yul\":26895:26899   */\n      0x20\n        /* \"#utility.yul\":26890:26893   */\n      dup3\n        /* \"#utility.yul\":26886:26900   */\n      add\n        /* \"#utility.yul\":26871:26900   */\n      swap1\n      pop\n        /* \"#utility.yul\":26737:26906   */\n      swap3\n      swap2\n      pop\n      pop\n      jump\t// out\n        /* \"#utility.yul\":26912:27289   */\n    tag_410:\n        /* \"#utility.yul\":27000:27003   */\n      0x00\n        /* \"#utility.yul\":27028:27067   */\n      tag_712\n        /* \"#utility.yul\":27061:27066   */\n      dup3\n        /* \"#utility.yul\":27028:27067   */\n      tag_408\n      jump\t// in\n    tag_712:\n        /* \"#utility.yul\":27083:27154   */\n      tag_713\n        /* \"#utility.yul\":27147:27153   */\n      dup2\n        /* \"#utility.yul\":27142:27145   */\n      dup6\n        /* \"#utility.yul\":27083:27154   */\n      tag_409\n      jump\t// in\n    tag_713:\n        /* \"#utility.yul\":27076:27154   */\n      swap4\n      pop\n        /* \"#utility.yul\":27163:27228   */\n      tag_714\n        /* \"#utility.yul\":27221:27227   */\n      dup2\n        /* \"#utility.yul\":27216:27219   */\n      dup6\n        /* \"#utility.yul\":27209:27213   */\n      0x20\n        /* \"#utility.yul\":27202:27207   */\n      dup7\n        /* \"#utility.yul\":27198:27214   */\n      add\n        /* \"#utility.yul\":27163:27228   */\n      tag_365\n      jump\t// in\n    tag_714:\n        /* \"#utility.yul\":27253:27282   */\n      tag_715\n        /* \"#utility.yul\":27275:27281   */\n      dup2\n        /* \"#utility.yul\":27253:27282   */\n      tag_366\n      jump\t// in\n    tag_715:\n        /* \"#utility.yul\":27248:27251   */\n      dup5\n        /* \"#utility.yul\":27244:27283   */\n      add\n        /* \"#utility.yul\":27237:27283   */\n      swap2\n      pop\n        /* \"#utility.yul\":27004:27289   */\n      pop\n        /* \"#utility.yul\":26912:27289   */\n      swap3\n      swap2\n      pop\n      pop\n      jump\t// out\n        /* \"#utility.yul\":27295:27608   */\n    tag_76:\n        /* \"#utility.yul\":27408:27412   */\n      0x00\n        /* \"#utility.yul\":27446:27448   */\n      0x20\n        /* \"#utility.yul\":27435:27444   */\n      dup3\n        /* \"#utility.yul\":27431:27449   */\n      add\n        /* \"#utility.yul\":27423:27449   */\n      swap1\n      pop\n        /* \"#utility.yul\":27495:27504   */\n      dup2\n        /* \"#utility.yul\":27489:27493   */\n      dup2\n        /* \"#utility.yul\":27485:27505   */\n      sub\n        /* \"#utility.yul\":27481:27482   */\n      0x00\n        /* \"#utility.yul\":27470:27479   */\n      dup4\n        /* \"#utility.yul\":27466:27483   */\n      add\n        /* \"#utility.yul\":27459:27506   */\n      mstore\n        /* \"#utility.yul\":27523:27601   */\n      tag_717\n        /* \"#utility.yul\":27596:27600   */\n      dup2\n        /* \"#utility.yul\":27587:27593   */\n      dup5\n        /* \"#utility.yul\":27523:27601   */\n      tag_410\n      jump\t// in\n    tag_717:\n        /* \"#utility.yul\":27515:27601   */\n      swap1\n      pop\n        /* \"#utility.yul\":27295:27608   */\n      swap3\n      swap2\n      pop\n      pop\n      jump\t// out\n        /* \"#utility.yul\":27614:27794   */\n    tag_83:\n        /* \"#utility.yul\":27662:27739   */\n      0x4e487b7100000000000000000000000000000000000000000000000000000000\n        /* \"#utility.yul\":27659:27660   */\n      0x00\n        /* \"#utility.yul\":27652:27740   */\n      mstore\n        /* \"#utility.yul\":27759:27763   */\n      0x32\n        /* \"#utility.yul\":27756:27757   */\n      0x04\n        /* \"#utility.yul\":27749:27764   */\n      mstore\n        /* \"#utility.yul\":27783:27787   */\n      0x24\n        /* \"#utility.yul\":27780:27781   */\n      0x00\n        /* \"#utility.yul\":27773:27788   */\n      revert\n        /* \"#utility.yul\":27800:27917   */\n    tag_411:\n        /* \"#utility.yul\":27909:27910   */\n      0x00\n        /* \"#utility.yul\":27906:27907   */\n      dup1\n        /* \"#utility.yul\":27899:27911   */\n      revert\n        /* \"#utility.yul\":27923:28040   */\n    tag_412:\n        /* \"#utility.yul\":28032:28033   */\n      0x00\n        /* \"#utility.yul\":28029:28030   */\n      dup1\n        /* \"#utility.yul\":28022:28034   */\n      revert\n        /* \"#utility.yul\":28046:28163   */\n    tag_413:\n        /* \"#utility.yul\":28155:28156   */\n      0x00\n        /* \"#utility.yul\":28152:28153   */\n      dup1\n        /* \"#utility.yul\":28145:28157   */\n      revert\n        /* \"#utility.yul\":28169:28893   */\n    tag_85:\n        /* \"#utility.yul\":28246:28250   */\n      0x00\n        /* \"#utility.yul\":28252:28258   */\n      dup1\n        /* \"#utility.yul\":28308:28319   */\n      dup4\n        /* \"#utility.yul\":28295:28320   */\n      calldataload\n        /* \"#utility.yul\":28408:28409   */\n      0x01\n        /* \"#utility.yul\":28402:28406   */\n      0x20\n        /* \"#utility.yul\":28398:28410   */\n      sub\n        /* \"#utility.yul\":28387:28395   */\n      dup5\n        /* \"#utility.yul\":28371:28385   */\n      calldatasize\n        /* \"#utility.yul\":28367:28396   */\n      sub\n        /* \"#utility.yul\":28363:28411   */\n      sub\n        /* \"#utility.yul\":28343:28361   */\n      dup2\n        /* \"#utility.yul\":28339:28412   */\n      slt\n        /* \"#utility.yul\":28329:28497   */\n      tag_723\n      jumpi\n        /* \"#utility.yul\":28416:28495   */\n      tag_724\n      tag_411\n      jump\t// in\n    tag_724:\n        /* \"#utility.yul\":28329:28497   */\n    tag_723:\n        /* \"#utility.yul\":28528:28546   */\n      dup1\n        /* \"#utility.yul\":28518:28526   */\n      dup5\n        /* \"#utility.yul\":28514:28547   */\n      add\n        /* \"#utility.yul\":28506:28547   */\n      swap3\n      pop\n        /* \"#utility.yul\":28580:28584   */\n      dup3\n        /* \"#utility.yul\":28567:28585   */\n      calldataload\n        /* \"#utility.yul\":28557:28585   */\n      swap2\n      pop\n        /* \"#utility.yul\":28608:28626   */\n      0xffffffffffffffff\n        /* \"#utility.yul\":28600:28606   */\n      dup3\n        /* \"#utility.yul\":28597:28627   */\n      gt\n        /* \"#utility.yul\":28594:28711   */\n      iszero\n      tag_725\n      jumpi\n        /* \"#utility.yul\":28630:28709   */\n      tag_726\n      tag_412\n      jump\t// in\n    tag_726:\n        /* \"#utility.yul\":28594:28711   */\n    tag_725:\n        /* \"#utility.yul\":28738:28740   */\n      0x20\n        /* \"#utility.yul\":28732:28736   */\n      dup4\n        /* \"#utility.yul\":28728:28741   */\n      add\n        /* \"#utility.yul\":28720:28741   */\n      swap3\n      pop\n        /* \"#utility.yul\":28795:28799   */\n      0x01\n        /* \"#utility.yul\":28787:28793   */\n      dup3\n        /* \"#utility.yul\":28783:28800   */\n      mul\n        /* \"#utility.yul\":28767:28781   */\n      calldatasize\n        /* \"#utility.yul\":28763:28801   */\n      sub\n        /* \"#utility.yul\":28757:28761   */\n      dup4\n        /* \"#utility.yul\":28753:28802   */\n      sgt\n        /* \"#utility.yul\":28750:28886   */\n      iszero\n      tag_727\n      jumpi\n        /* \"#utility.yul\":28805:28884   */\n      tag_728\n      tag_413\n      jump\t// in\n    tag_728:\n        /* \"#utility.yul\":28750:28886   */\n    tag_727:\n        /* \"#utility.yul\":28259:28893   */\n      pop\n        /* \"#utility.yul\":28169:28893   */\n      swap3\n      pop\n      swap3\n      swap1\n      pop\n      jump\t// out\n        /* \"#utility.yul\":28899:29046   */\n    tag_414:\n        /* \"#utility.yul\":29000:29011   */\n      0x00\n        /* \"#utility.yul\":29037:29040   */\n      dup2\n        /* \"#utility.yul\":29022:29040   */\n      swap1\n      pop\n        /* \"#utility.yul\":28899:29046   */\n      swap3\n      swap2\n      pop\n      pop\n      jump\t// out\n        /* \"#utility.yul\":29074:29401   */\n    tag_415:\n        /* \"#utility.yul\":29188:29191   */\n      0x00\n        /* \"#utility.yul\":29209:29297   */\n      tag_731\n        /* \"#utility.yul\":29290:29296   */\n      dup4\n        /* \"#utility.yul\":29285:29288   */\n      dup6\n        /* \"#utility.yul\":29209:29297   */\n      tag_414\n      jump\t// in\n    tag_731:\n        /* \"#utility.yul\":29202:29297   */\n      swap4\n      pop\n        /* \"#utility.yul\":29307:29363   */\n      tag_732\n        /* \"#utility.yul\":29356:29362   */\n      dup4\n        /* \"#utility.yul\":29351:29354   */\n      dup6\n        /* \"#utility.yul\":29344:29349   */\n      dup5\n        /* \"#utility.yul\":29307:29363   */\n      tag_393\n      jump\t// in\n    tag_732:\n        /* \"#utility.yul\":29388:29394   */\n      dup3\n        /* \"#utility.yul\":29383:29386   */\n      dup5\n        /* \"#utility.yul\":29379:29395   */\n      add\n        /* \"#utility.yul\":29372:29395   */\n      swap1\n      pop\n        /* \"#utility.yul\":29074:29401   */\n      swap4\n      swap3\n      pop\n      pop\n      pop\n      jump\t// out\n        /* \"#utility.yul\":29407:29698   */\n    tag_87:\n        /* \"#utility.yul\":29547:29550   */\n      0x00\n        /* \"#utility.yul\":29569:29672   */\n      tag_734\n        /* \"#utility.yul\":29668:29671   */\n      dup3\n        /* \"#utility.yul\":29659:29665   */\n      dup5\n        /* \"#utility.yul\":29651:29657   */\n      dup7\n        /* \"#utility.yul\":29569:29672   */\n      tag_415\n      jump\t// in\n    tag_734:\n        /* \"#utility.yul\":29562:29672   */\n      swap2\n      pop\n        /* \"#utility.yul\":29689:29692   */\n      dup2\n        /* \"#utility.yul\":29682:29692   */\n      swap1\n      pop\n        /* \"#utility.yul\":29407:29698   */\n      swap4\n      swap3\n      pop\n      pop\n      pop\n      jump\t// out\n        /* \"#utility.yul\":29704:29884   */\n    tag_416:\n        /* \"#utility.yul\":29752:29829   */\n      0x4e487b7100000000000000000000000000000000000000000000000000000000\n        /* \"#utility.yul\":29749:29750   */\n      0x00\n        /* \"#utility.yul\":29742:29830   */\n      mstore\n        /* \"#utility.yul\":29849:29853   */\n      0x11\n        /* \"#utility.yul\":29846:29847   */\n      0x04\n        /* \"#utility.yul\":29839:29854   */\n      mstore\n        /* \"#utility.yul\":29873:29877   */\n      0x24\n        /* \"#utility.yul\":29870:29871   */\n      0x00\n        /* \"#utility.yul\":29863:29878   */\n      revert\n        /* \"#utility.yul\":29890:30123   */\n    tag_89:\n        /* \"#utility.yul\":29929:29932   */\n      0x00\n        /* \"#utility.yul\":29952:29976   */\n      tag_737\n        /* \"#utility.yul\":29970:29975   */\n      dup3\n        /* \"#utility.yul\":29952:29976   */\n      tag_353\n      jump\t// in\n    tag_737:\n        /* \"#utility.yul\":29943:29976   */\n      swap2\n      pop\n        /* \"#utility.yul\":29998:30064   */\n      0xffffffffffffffffffffffffffffffffffffffffffffffffffffffffffffffff\n        /* \"#utility.yul\":29991:29996   */\n      dup3\n        /* \"#utility.yul\":29988:30065   */\n      sub\n        /* \"#utility.yul\":29985:30088   */\n      tag_738\n      jumpi\n        /* \"#utility.yul\":30068:30086   */\n      tag_739\n      tag_416\n      jump\t// in\n    tag_739:\n        /* \"#utility.yul\":29985:30088   */\n    tag_738:\n        /* \"#utility.yul\":30115:30116   */\n      0x01\n        /* \"#utility.yul\":30108:30113   */\n      dup3\n        /* \"#utility.yul\":30104:30117   */\n      add\n        /* \"#utility.yul\":30097:30117   */\n      swap1\n      pop\n        /* \"#utility.yul\":29890:30123   */\n      swap2\n      swap1\n      pop\n      jump\t// out\n        /* \"#utility.yul\":30129:30529   */\n    tag_103:\n        /* \"#utility.yul\":30229:30233   */\n      0x00\n        /* \"#utility.yul\":30283:30294   */\n      dup3\n        /* \"#utility.yul\":30270:30295   */\n      calldataload\n        /* \"#utility.yul\":30383:30384   */\n      0x01\n        /* \"#utility.yul\":30377:30381   */\n      0x80\n        /* \"#utility.yul\":30373:30385   */\n      sub\n        /* \"#utility.yul\":30362:30370   */\n      dup4\n        /* \"#utility.yul\":30346:30360   */\n      calldatasize\n        /* \"#utility.yul\":30342:30371   */\n      sub\n        /* \"#utility.yul\":30338:30386   */\n      sub\n        /* \"#utility.yul\":30318:30336   */\n      dup2\n        /* \"#utility.yul\":30314:30387   */\n      slt\n        /* \"#utility.yul\":30304:30472   */\n      tag_741\n      jumpi\n        /* \"#utility.yul\":30391:30470   */\n      tag_742\n      tag_411\n      jump\t// in\n    tag_742:\n        /* \"#utility.yul\":30304:30472   */\n    tag_741:\n        /* \"#utility.yul\":30503:30521   */\n      dup1\n        /* \"#utility.yul\":30493:30501   */\n      dup4\n        /* \"#utility.yul\":30489:30522   */\n      add\n        /* \"#utility.yul\":30481:30522   */\n      swap2\n      pop\n        /* \"#utility.yul\":30234:30529   */\n      pop\n        /* \"#utility.yul\":30129:30529   */\n      swap3\n      swap2\n      pop\n      pop\n      jump\t// out\n        /* \"#utility.yul\":30535:30719   */\n    tag_417:\n        /* \"#utility.yul\":30634:30645   */\n      0x00\n        /* \"#utility.yul\":30668:30674   */\n      dup3\n        /* \"#utility.yul\":30663:30666   */\n      dup3\n        /* \"#utility.yul\":30656:30675   */\n      mstore\n        /* \"#utility.yul\":30708:30712   */\n      0x20\n        /* \"#utility.yul\":30703:30706   */\n      dup3\n        /* \"#utility.yul\":30699:30713   */\n      add\n        /* \"#utility.yul\":30684:30713   */\n      swap1\n      pop\n        /* \"#utility.yul\":30535:30719   */\n      swap3\n      swap2\n      pop\n      pop\n      jump\t// out\n        /* \"#utility.yul\":30725:30827   */\n    tag_418:\n        /* \"#utility.yul\":30794:30798   */\n      0x00\n        /* \"#utility.yul\":30817:30820   */\n      dup2\n        /* \"#utility.yul\":30809:30820   */\n      swap1\n      pop\n        /* \"#utility.yul\":30725:30827   */\n      swap2\n      swap1\n      pop\n      jump\t// out\n        /* \"#utility.yul\":30833:31012   */\n    tag_419:\n        /* \"#utility.yul\":30902:30912   */\n      0x00\n        /* \"#utility.yul\":30923:30969   */\n      tag_746\n        /* \"#utility.yul\":30965:30968   */\n      dup4\n        /* \"#utility.yul\":30957:30963   */\n      dup4\n        /* \"#utility.yul\":30923:30969   */\n      tag_386\n      jump\t// in\n    tag_746:\n        /* \"#utility.yul\":31001:31005   */\n      0x20\n        /* \"#utility.yul\":30996:30999   */\n      dup4\n        /* \"#utility.yul\":30992:31006   */\n      add\n        /* \"#utility.yul\":30978:31006   */\n      swap1\n      pop\n        /* \"#utility.yul\":30833:31012   */\n      swap3\n      swap2\n      pop\n      pop\n      jump\t// out\n        /* \"#utility.yul\":31018:31133   */\n    tag_420:\n        /* \"#utility.yul\":31090:31094   */\n      0x00\n        /* \"#utility.yul\":31122:31126   */\n      0x20\n        /* \"#utility.yul\":31117:31120   */\n      dup3\n        /* \"#utility.yul\":31113:31127   */\n      add\n        /* \"#utility.yul\":31105:31127   */\n      swap1\n      pop\n        /* \"#utility.yul\":31018:31133   */\n      swap2\n      swap1\n      pop\n      jump\t// out\n        /* \"#utility.yul\":31169:31868   */\n    tag_421:\n        /* \"#utility.yul\":31298:31301   */\n      0x00\n        /* \"#utility.yul\":31321:31407   */\n      tag_749\n        /* \"#utility.yul\":31400:31406   */\n      dup4\n        /* \"#utility.yul\":31395:31398   */\n      dup6\n        /* \"#utility.yul\":31321:31407   */\n      tag_417\n      jump\t// in\n    tag_749:\n        /* \"#utility.yul\":31314:31407   */\n      swap4\n      pop\n        /* \"#utility.yul\":31431:31489   */\n      tag_750\n        /* \"#utility.yul\":31483:31488   */\n      dup3\n        /* \"#utility.yul\":31431:31489   */\n      tag_418\n      jump\t// in\n    tag_750:\n        /* \"#utility.yul\":31512:31519   */\n      dup1\n        /* \"#utility.yul\":31543:31544   */\n      0x00\n        /* \"#utility.yul\":31528:31843   */\n    tag_751:\n        /* \"#utility.yul\":31553:31559   */\n      dup6\n        /* \"#utility.yul\":31550:31551   */\n      dup2\n        /* \"#utility.yul\":31547:31560   */\n      lt\n        /* \"#utility.yul\":31528:31843   */\n      iszero\n      tag_753\n      jumpi\n        /* \"#utility.yul\":31623:31665   */\n      tag_754\n        /* \"#utility.yul\":31658:31664   */\n      dup3\n        /* \"#utility.yul\":31649:31656   */\n      dup5\n        /* \"#utility.yul\":31623:31665   */\n      tag_385\n      jump\t// in\n    tag_754:\n        /* \"#utility.yul\":31685:31748   */\n      tag_755\n        /* \"#utility.yul\":31744:31747   */\n      dup9\n        /* \"#utility.yul\":31729:31742   */\n      dup3\n        /* \"#utility.yul\":31685:31748   */\n      tag_419\n      jump\t// in\n    tag_755:\n        /* \"#utility.yul\":31678:31748   */\n      swap8\n      pop\n        /* \"#utility.yul\":31771:31833   */\n      tag_756\n        /* \"#utility.yul\":31826:31832   */\n      dup4\n        /* \"#utility.yul\":31771:31833   */\n      tag_420\n      jump\t// in\n    tag_756:\n        /* \"#utility.yul\":31761:31833   */\n      swap3\n      pop\n        /* \"#utility.yul\":31588:31843   */\n      pop\n        /* \"#utility.yul\":31575:31576   */\n      0x01\n        /* \"#utility.yul\":31572:31573   */\n      dup2\n        /* \"#utility.yul\":31568:31577   */\n      add\n        /* \"#utility.yul\":31563:31577   */\n      swap1\n      pop\n        /* \"#utility.yul\":31528:31843   */\n      jump(tag_751)\n    tag_753:\n        /* \"#utility.yul\":31532:31546   */\n      pop\n        /* \"#utility.yul\":31859:31862   */\n      dup6\n        /* \"#utility.yul\":31852:31862   */\n      swap3\n      pop\n        /* \"#utility.yul\":31303:31868   */\n      pop\n      pop\n        /* \"#utility.yul\":31169:31868   */\n      swap4\n      swap3\n      pop\n      pop\n      pop\n      jump\t// out\n        /* \"#utility.yul\":31874:32487   */\n    tag_109:\n        /* \"#utility.yul\":32083:32087   */\n      0x00\n        /* \"#utility.yul\":32121:32123   */\n      0x60\n        /* \"#utility.yul\":32110:32119   */\n      dup3\n        /* \"#utility.yul\":32106:32124   */\n      add\n        /* \"#utility.yul\":32098:32124   */\n      swap1\n      pop\n        /* \"#utility.yul\":32170:32179   */\n      dup2\n        /* \"#utility.yul\":32164:32168   */\n      dup2\n        /* \"#utility.yul\":32160:32180   */\n      sub\n        /* \"#utility.yul\":32156:32157   */\n      0x00\n        /* \"#utility.yul\":32145:32154   */\n      dup4\n        /* \"#utility.yul\":32141:32158   */\n      add\n        /* \"#utility.yul\":32134:32181   */\n      mstore\n        /* \"#utility.yul\":32198:32316   */\n      tag_758\n        /* \"#utility.yul\":32311:32315   */\n      dup2\n        /* \"#utility.yul\":32302:32308   */\n      dup7\n        /* \"#utility.yul\":32294:32300   */\n      dup9\n        /* \"#utility.yul\":32198:32316   */\n      tag_421\n      jump\t// in\n    tag_758:\n        /* \"#utility.yul\":32190:32316   */\n      swap1\n      pop\n        /* \"#utility.yul\":32326:32398   */\n      tag_759\n        /* \"#utility.yul\":32394:32396   */\n      0x20\n        /* \"#utility.yul\":32383:32392   */\n      dup4\n        /* \"#utility.yul\":32379:32397   */\n      add\n        /* \"#utility.yul\":32370:32376   */\n      dup6\n        /* \"#utility.yul\":32326:32398   */\n      tag_354\n      jump\t// in\n    tag_759:\n        /* \"#utility.yul\":32408:32480   */\n      tag_760\n        /* \"#utility.yul\":32476:32478   */\n      0x40\n        /* \"#utility.yul\":32465:32474   */\n      dup4\n        /* \"#utility.yul\":32461:32479   */\n      add\n        /* \"#utility.yul\":32452:32458   */\n      dup5\n        /* \"#utility.yul\":32408:32480   */\n      tag_354\n      jump\t// in\n    tag_760:\n        /* \"#utility.yul\":31874:32487   */\n      swap6\n      swap5\n      pop\n      pop\n      pop\n      pop\n      pop\n      jump\t// out\n        /* \"#utility.yul\":32493:32935   */\n    tag_135:\n        /* \"#utility.yul\":32642:32646   */\n      0x00\n        /* \"#utility.yul\":32680:32682   */\n      0x60\n        /* \"#utility.yul\":32669:32678   */\n      dup3\n        /* \"#utility.yul\":32665:32683   */\n      add\n        /* \"#utility.yul\":32657:32683   */\n      swap1\n      pop\n        /* \"#utility.yul\":32693:32764   */\n      tag_762\n        /* \"#utility.yul\":32761:32762   */\n      0x00\n        /* \"#utility.yul\":32750:32759   */\n      dup4\n        /* \"#utility.yul\":32746:32763   */\n      add\n        /* \"#utility.yul\":32737:32743   */\n      dup7\n        /* \"#utility.yul\":32693:32764   */\n      tag_354\n      jump\t// in\n    tag_762:\n        /* \"#utility.yul\":32774:32846   */\n      tag_763\n        /* \"#utility.yul\":32842:32844   */\n      0x20\n        /* \"#utility.yul\":32831:32840   */\n      dup4\n        /* \"#utility.yul\":32827:32845   */\n      add\n        /* \"#utility.yul\":32818:32824   */\n      dup6\n        /* \"#utility.yul\":32774:32846   */\n      tag_354\n      jump\t// in\n    tag_763:\n        /* \"#utility.yul\":32856:32928   */\n      tag_764\n        /* \"#utility.yul\":32924:32926   */\n      0x40\n        /* \"#utility.yul\":32913:32922   */\n      dup4\n        /* \"#utility.yul\":32909:32927   */\n      add\n        /* \"#utility.yul\":32900:32906   */\n      dup5\n        /* \"#utility.yul\":32856:32928   */\n      tag_354\n      jump\t// in\n    tag_764:\n        /* \"#utility.yul\":32493:32935   */\n      swap5\n      swap4\n      pop\n      pop\n      pop\n      pop\n      jump\t// out\n        /* \"#utility.yul\":32941:33108   */\n    tag_422:\n        /* \"#utility.yul\":33081:33100   */\n      0x496e76616c6964207468726573686f6c64000000000000000000000000000000\n        /* \"#utility.yul\":33077:33078   */\n      0x00\n        /* \"#utility.yul\":33069:33075   */\n      dup3\n        /* \"#utility.yul\":33065:33079   */\n      add\n        /* \"#utility.yul\":33058:33101   */\n      mstore\n        /* \"#utility.yul\":32941:33108   */\n      pop\n      jump\t// out\n        /* \"#utility.yul\":33114:33480   */\n    tag_423:\n        /* \"#utility.yul\":33256:33259   */\n      0x00\n        /* \"#utility.yul\":33277:33344   */\n      tag_767\n        /* \"#utility.yul\":33341:33343   */\n      0x11\n        /* \"#utility.yul\":33336:33339   */\n      dup4\n        /* \"#utility.yul\":33277:33344   */\n      tag_409\n      jump\t// in\n    tag_767:\n        /* \"#utility.yul\":33270:33344   */\n      swap2\n      pop\n        /* \"#utility.yul\":33353:33446   */\n      tag_768\n        /* \"#utility.yul\":33442:33445   */\n      dup3\n        /* \"#utility.yul\":33353:33446   */\n      tag_422\n      jump\t// in\n    tag_768:\n        /* \"#utility.yul\":33471:33473   */\n      0x20\n        /* \"#utility.yul\":33466:33469   */\n      dup3\n        /* \"#utility.yul\":33462:33474   */\n      add\n        /* \"#utility.yul\":33455:33474   */\n      swap1\n      pop\n        /* \"#utility.yul\":33114:33480   */\n      swap2\n      swap1\n      pop\n      jump\t// out\n        /* \"#utility.yul\":33486:33905   */\n    tag_157:\n        /* \"#utility.yul\":33652:33656   */\n      0x00\n        /* \"#utility.yul\":33690:33692   */\n      0x20\n        /* \"#utility.yul\":33679:33688   */\n      dup3\n        /* \"#utility.yul\":33675:33693   */\n      add\n        /* \"#utility.yul\":33667:33693   */\n      swap1\n      pop\n        /* \"#utility.yul\":33739:33748   */\n      dup2\n        /* \"#utility.yul\":33733:33737   */\n      dup2\n        /* \"#utility.yul\":33729:33749   */\n      sub\n        /* \"#utility.yul\":33725:33726   */\n      0x00\n        /* \"#utility.yul\":33714:33723   */\n      dup4\n        /* \"#utility.yul\":33710:33727   */\n      add\n        /* \"#utility.yul\":33703:33750   */\n      mstore\n        /* \"#utility.yul\":33767:33898   */\n      tag_770\n        /* \"#utility.yul\":33893:33897   */\n      dup2\n        /* \"#utility.yul\":33767:33898   */\n      tag_423\n      jump\t// in\n    tag_770:\n        /* \"#utility.yul\":33759:33898   */\n      swap1\n      pop\n        /* \"#utility.yul\":33486:33905   */\n      swap2\n      swap1\n      pop\n      jump\t// out\n        /* \"#utility.yul\":33991:35112   */\n    tag_424:\n        /* \"#utility.yul\":34126:34129   */\n      0x00\n        /* \"#utility.yul\":34162:34166   */\n      0x80\n        /* \"#utility.yul\":34157:34160   */\n      dup4\n        /* \"#utility.yul\":34153:34167   */\n      add\n        /* \"#utility.yul\":34234:34284   */\n      tag_772\n        /* \"#utility.yul\":34278:34282   */\n      0x00\n        /* \"#utility.yul\":34271:34276   */\n      dup5\n        /* \"#utility.yul\":34267:34283   */\n      add\n        /* \"#utility.yul\":34260:34265   */\n      dup5\n        /* \"#utility.yul\":34234:34284   */\n      tag_385\n      jump\t// in\n    tag_772:\n        /* \"#utility.yul\":34297:34360   */\n      tag_773\n        /* \"#utility.yul\":34354:34358   */\n      0x00\n        /* \"#utility.yul\":34349:34352   */\n      dup7\n        /* \"#utility.yul\":34345:34359   */\n      add\n        /* \"#utility.yul\":34331:34343   */\n      dup3\n        /* \"#utility.yul\":34297:34360   */\n      tag_386\n      jump\t// in\n    tag_773:\n        /* \"#utility.yul\":34177:34370   */\n      pop\n        /* \"#utility.yul\":34436:34486   */\n      tag_774\n        /* \"#utility.yul\":34480:34484   */\n      0x20\n        /* \"#utility.yul\":34473:34478   */\n      dup5\n        /* \"#utility.yul\":34469:34485   */\n      add\n        /* \"#utility.yul\":34462:34467   */\n      dup5\n        /* \"#utility.yul\":34436:34486   */\n      tag_387\n      jump\t// in\n    tag_774:\n        /* \"#utility.yul\":34499:34562   */\n      tag_775\n        /* \"#utility.yul\":34556:34560   */\n      0x20\n        /* \"#utility.yul\":34551:34554   */\n      dup7\n        /* \"#utility.yul\":34547:34561   */\n      add\n        /* \"#utility.yul\":34533:34545   */\n      dup3\n        /* \"#utility.yul\":34499:34562   */\n      tag_388\n      jump\t// in\n    tag_775:\n        /* \"#utility.yul\":34380:34572   */\n      pop\n        /* \"#utility.yul\":34638:34688   */\n      tag_776\n        /* \"#utility.yul\":34682:34686   */\n      0x40\n        /* \"#utility.yul\":34675:34680   */\n      dup5\n        /* \"#utility.yul\":34671:34687   */\n      add\n        /* \"#utility.yul\":34664:34669   */\n      dup5\n        /* \"#utility.yul\":34638:34688   */\n      tag_387\n      jump\t// in\n    tag_776:\n        /* \"#utility.yul\":34701:34764   */\n      tag_777\n        /* \"#utility.yul\":34758:34762   */\n      0x40\n        /* \"#utility.yul\":34753:34756   */\n      dup7\n        /* \"#utility.yul\":34749:34763   */\n      add\n        /* \"#utility.yul\":34735:34747   */\n      dup3\n        /* \"#utility.yul\":34701:34764   */\n      tag_388\n      jump\t// in\n    tag_777:\n        /* \"#utility.yul\":34582:34774   */\n      pop\n        /* \"#utility.yul\":34853:34914   */\n      tag_778\n        /* \"#utility.yul\":34908:34912   */\n      0x60\n        /* \"#utility.yul\":34901:34906   */\n      dup5\n        /* \"#utility.yul\":34897:34913   */\n      add\n        /* \"#utility.yul\":34890:34895   */\n      dup5\n        /* \"#utility.yul\":34853:34914   */\n      tag_392\n      jump\t// in\n    tag_778:\n        /* \"#utility.yul\":34961:34964   */\n      dup6\n        /* \"#utility.yul\":34955:34959   */\n      dup4\n        /* \"#utility.yul\":34951:34965   */\n      sub\n        /* \"#utility.yul\":34944:34948   */\n      0x60\n        /* \"#utility.yul\":34939:34942   */\n      dup8\n        /* \"#utility.yul\":34935:34949   */\n      add\n        /* \"#utility.yul\":34928:34966   */\n      mstore\n        /* \"#utility.yul\":34987:35074   */\n      tag_779\n        /* \"#utility.yul\":35069:35073   */\n      dup4\n        /* \"#utility.yul\":35055:35067   */\n      dup3\n        /* \"#utility.yul\":35041:35053   */\n      dup5\n        /* \"#utility.yul\":34987:35074   */\n      tag_394\n      jump\t// in\n    tag_779:\n        /* \"#utility.yul\":34979:35074   */\n      swap3\n      pop\n        /* \"#utility.yul\":34784:35085   */\n      pop\n      pop\n        /* \"#utility.yul\":35102:35106   */\n      dup1\n        /* \"#utility.yul\":35095:35106   */\n      swap2\n      pop\n        /* \"#utility.yul\":34131:35112   */\n      pop\n        /* \"#utility.yul\":33991:35112   */\n      swap3\n      swap2\n      pop\n      pop\n      jump\t// out\n        /* \"#utility.yul\":35118:35633   */\n    tag_160:\n        /* \"#utility.yul\":35305:35309   */\n      0x00\n        /* \"#utility.yul\":35343:35345   */\n      0x40\n        /* \"#utility.yul\":35332:35341   */\n      dup3\n        /* \"#utility.yul\":35328:35346   */\n      add\n        /* \"#utility.yul\":35320:35346   */\n      swap1\n      pop\n        /* \"#utility.yul\":35392:35401   */\n      dup2\n        /* \"#utility.yul\":35386:35390   */\n      dup2\n        /* \"#utility.yul\":35382:35402   */\n      sub\n        /* \"#utility.yul\":35378:35379   */\n      0x00\n        /* \"#utility.yul\":35367:35376   */\n      dup4\n        /* \"#utility.yul\":35363:35380   */\n      add\n        /* \"#utility.yul\":35356:35403   */\n      mstore\n        /* \"#utility.yul\":35420:35544   */\n      tag_781\n        /* \"#utility.yul\":35539:35543   */\n      dup2\n        /* \"#utility.yul\":35530:35536   */\n      dup6\n        /* \"#utility.yul\":35420:35544   */\n      tag_424\n      jump\t// in\n    tag_781:\n        /* \"#utility.yul\":35412:35544   */\n      swap1\n      pop\n        /* \"#utility.yul\":35554:35626   */\n      tag_782\n        /* \"#utility.yul\":35622:35624   */\n      0x20\n        /* \"#utility.yul\":35611:35620   */\n      dup4\n        /* \"#utility.yul\":35607:35625   */\n      add\n        /* \"#utility.yul\":35598:35604   */\n      dup5\n        /* \"#utility.yul\":35554:35626   */\n      tag_354\n      jump\t// in\n    tag_782:\n        /* \"#utility.yul\":35118:35633   */\n      swap4\n      swap3\n      pop\n      pop\n      pop\n      jump\t// out\n        /* \"#utility.yul\":35639:35823   */\n    tag_425:\n        /* \"#utility.yul\":35738:35749   */\n      0x00\n        /* \"#utility.yul\":35772:35778   */\n      dup3\n        /* \"#utility.yul\":35767:35770   */\n      dup3\n        /* \"#utility.yul\":35760:35779   */\n      mstore\n        /* \"#utility.yul\":35812:35816   */\n      0x20\n        /* \"#utility.yul\":35807:35810   */\n      dup3\n        /* \"#utility.yul\":35803:35817   */\n      add\n        /* \"#utility.yul\":35788:35817   */\n      swap1\n      pop\n        /* \"#utility.yul\":35639:35823   */\n      swap3\n      swap2\n      pop\n      pop\n      jump\t// out\n        /* \"#utility.yul\":35829:35946   */\n    tag_426:\n        /* \"#utility.yul\":35938:35939   */\n      0x00\n        /* \"#utility.yul\":35935:35936   */\n      dup1\n        /* \"#utility.yul\":35928:35940   */\n      revert\n        /* \"#utility.yul\":35952:36050   */\n    tag_427:\n        /* \"#utility.yul\":36036:36042   */\n      dup3\n        /* \"#utility.yul\":36031:36034   */\n      dup2\n        /* \"#utility.yul\":36026:36029   */\n      dup4\n        /* \"#utility.yul\":36013:36043   */\n      calldatacopy\n        /* \"#utility.yul\":35952:36050   */\n      pop\n      pop\n      pop\n      jump\t// out\n        /* \"#utility.yul\":36086:36623   */\n    tag_428:\n        /* \"#utility.yul\":36214:36217   */\n      0x00\n        /* \"#utility.yul\":36235:36321   */\n      tag_787\n        /* \"#utility.yul\":36314:36320   */\n      dup4\n        /* \"#utility.yul\":36309:36312   */\n      dup6\n        /* \"#utility.yul\":36235:36321   */\n      tag_425\n      jump\t// in\n    tag_787:\n        /* \"#utility.yul\":36228:36321   */\n      swap4\n      pop\n        /* \"#utility.yul\":36345:36411   */\n      0x07ffffffffffffffffffffffffffffffffffffffffffffffffffffffffffffff\n        /* \"#utility.yul\":36337:36343   */\n      dup4\n        /* \"#utility.yul\":36334:36412   */\n      gt\n        /* \"#utility.yul\":36331:36496   */\n      iszero\n      tag_788\n      jumpi\n        /* \"#utility.yul\":36415:36494   */\n      tag_789\n      tag_426\n      jump\t// in\n    tag_789:\n        /* \"#utility.yul\":36331:36496   */\n    tag_788:\n        /* \"#utility.yul\":36527:36531   */\n      0x20\n        /* \"#utility.yul\":36519:36525   */\n      dup4\n        /* \"#utility.yul\":36515:36532   */\n      mul\n        /* \"#utility.yul\":36505:36532   */\n      swap3\n      pop\n        /* \"#utility.yul\":36542:36585   */\n      tag_790\n        /* \"#utility.yul\":36578:36584   */\n      dup4\n        /* \"#utility.yul\":36573:36576   */\n      dup6\n        /* \"#utility.yul\":36566:36571   */\n      dup5\n        /* \"#utility.yul\":36542:36585   */\n      tag_427\n      jump\t// in\n    tag_790:\n        /* \"#utility.yul\":36610:36616   */\n      dup3\n        /* \"#utility.yul\":36605:36608   */\n      dup5\n        /* \"#utility.yul\":36601:36617   */\n      add\n        /* \"#utility.yul\":36594:36617   */\n      swap1\n      pop\n        /* \"#utility.yul\":36086:36623   */\n      swap4\n      swap3\n      pop\n      pop\n      pop\n      jump\t// out\n        /* \"#utility.yul\":36629:37524   */\n    tag_180:\n        /* \"#utility.yul\":36926:36930   */\n      0x00\n        /* \"#utility.yul\":36964:36967   */\n      0x80\n        /* \"#utility.yul\":36953:36962   */\n      dup3\n        /* \"#utility.yul\":36949:36968   */\n      add\n        /* \"#utility.yul\":36941:36968   */\n      swap1\n      pop\n        /* \"#utility.yul\":37014:37023   */\n      dup2\n        /* \"#utility.yul\":37008:37012   */\n      dup2\n        /* \"#utility.yul\":37004:37024   */\n      sub\n        /* \"#utility.yul\":37000:37001   */\n      0x00\n        /* \"#utility.yul\":36989:36998   */\n      dup4\n        /* \"#utility.yul\":36985:37002   */\n      add\n        /* \"#utility.yul\":36978:37025   */\n      mstore\n        /* \"#utility.yul\":37042:37160   */\n      tag_792\n        /* \"#utility.yul\":37155:37159   */\n      dup2\n        /* \"#utility.yul\":37146:37152   */\n      dup9\n        /* \"#utility.yul\":37138:37144   */\n      dup11\n        /* \"#utility.yul\":37042:37160   */\n      tag_421\n      jump\t// in\n    tag_792:\n        /* \"#utility.yul\":37034:37160   */\n      swap1\n      pop\n        /* \"#utility.yul\":37207:37216   */\n      dup2\n        /* \"#utility.yul\":37201:37205   */\n      dup2\n        /* \"#utility.yul\":37197:37217   */\n      sub\n        /* \"#utility.yul\":37192:37194   */\n      0x20\n        /* \"#utility.yul\":37181:37190   */\n      dup4\n        /* \"#utility.yul\":37177:37195   */\n      add\n        /* \"#utility.yul\":37170:37218   */\n      mstore\n        /* \"#utility.yul\":37235:37353   */\n      tag_793\n        /* \"#utility.yul\":37348:37352   */\n      dup2\n        /* \"#utility.yul\":37339:37345   */\n      dup7\n        /* \"#utility.yul\":37331:37337   */\n      dup9\n        /* \"#utility.yul\":37235:37353   */\n      tag_428\n      jump\t// in\n    tag_793:\n        /* \"#utility.yul\":37227:37353   */\n      swap1\n      pop\n        /* \"#utility.yul\":37363:37435   */\n      tag_794\n        /* \"#utility.yul\":37431:37433   */\n      0x40\n        /* \"#utility.yul\":37420:37429   */\n      dup4\n        /* \"#utility.yul\":37416:37434   */\n      add\n        /* \"#utility.yul\":37407:37413   */\n      dup6\n        /* \"#utility.yul\":37363:37435   */\n      tag_354\n      jump\t// in\n    tag_794:\n        /* \"#utility.yul\":37445:37517   */\n      tag_795\n        /* \"#utility.yul\":37513:37515   */\n      0x60\n        /* \"#utility.yul\":37502:37511   */\n      dup4\n        /* \"#utility.yul\":37498:37516   */\n      add\n        /* \"#utility.yul\":37489:37495   */\n      dup5\n        /* \"#utility.yul\":37445:37517   */\n      tag_354\n      jump\t// in\n    tag_795:\n        /* \"#utility.yul\":36629:37524   */\n      swap8\n      swap7\n      pop\n      pop\n      pop\n      pop\n      pop\n      pop\n      pop\n      jump\t// out\n        /* \"#utility.yul\":37530:37648   */\n    tag_429:\n        /* \"#utility.yul\":37617:37641   */\n      tag_797\n        /* \"#utility.yul\":37635:37640   */\n      dup2\n        /* \"#utility.yul\":37617:37641   */\n      tag_380\n      jump\t// in\n    tag_797:\n        /* \"#utility.yul\":37612:37615   */\n      dup3\n        /* \"#utility.yul\":37605:37642   */\n      mstore\n        /* \"#utility.yul\":37530:37648   */\n      pop\n      pop\n      jump\t// out\n        /* \"#utility.yul\":37654:38207   */\n    tag_208:\n        /* \"#utility.yul\":37831:37835   */\n      0x00\n        /* \"#utility.yul\":37869:37872   */\n      0x80\n        /* \"#utility.yul\":37858:37867   */\n      dup3\n        /* \"#utility.yul\":37854:37873   */\n      add\n        /* \"#utility.yul\":37846:37873   */\n      swap1\n      pop\n        /* \"#utility.yul\":37883:37954   */\n      tag_799\n        /* \"#utility.yul\":37951:37952   */\n      0x00\n        /* \"#utility.yul\":37940:37949   */\n      dup4\n        /* \"#utility.yul\":37936:37953   */\n      add\n        /* \"#utility.yul\":37927:37933   */\n      dup8\n        /* \"#utility.yul\":37883:37954   */\n      tag_429\n      jump\t// in\n    tag_799:\n        /* \"#utility.yul\":37964:38036   */\n      tag_800\n        /* \"#utility.yul\":38032:38034   */\n      0x20\n        /* \"#utility.yul\":38021:38030   */\n      dup4\n        /* \"#utility.yul\":38017:38035   */\n      add\n        /* \"#utility.yul\":38008:38014   */\n      dup7\n        /* \"#utility.yul\":37964:38036   */\n      tag_354\n      jump\t// in\n    tag_800:\n        /* \"#utility.yul\":38046:38118   */\n      tag_801\n        /* \"#utility.yul\":38114:38116   */\n      0x40\n        /* \"#utility.yul\":38103:38112   */\n      dup4\n        /* \"#utility.yul\":38099:38117   */\n      add\n        /* \"#utility.yul\":38090:38096   */\n      dup6\n        /* \"#utility.yul\":38046:38118   */\n      tag_354\n      jump\t// in\n    tag_801:\n        /* \"#utility.yul\":38128:38200   */\n      tag_802\n        /* \"#utility.yul\":38196:38198   */\n      0x60\n        /* \"#utility.yul\":38185:38194   */\n      dup4\n        /* \"#utility.yul\":38181:38199   */\n      add\n        /* \"#utility.yul\":38172:38178   */\n      dup5\n        /* \"#utility.yul\":38128:38200   */\n      tag_354\n      jump\t// in\n    tag_802:\n        /* \"#utility.yul\":37654:38207   */\n      swap6\n      swap5\n      pop\n      pop\n      pop\n      pop\n      pop\n      jump\t// out\n        /* \"#utility.yul\":38213:38407   */\n    tag_227:\n        /* \"#utility.yul\":38253:38257   */\n      0x00\n        /* \"#utility.yul\":38273:38293   */\n      tag_804\n        /* \"#utility.yul\":38291:38292   */\n      dup3\n        /* \"#utility.yul\":38273:38293   */\n      tag_353\n      jump\t// in\n    tag_804:\n        /* \"#utility.yul\":38268:38293   */\n      swap2\n      pop\n        /* \"#utility.yul\":38307:38327   */\n      tag_805\n        /* \"#utility.yul\":38325:38326   */\n      dup4\n        /* \"#utility.yul\":38307:38327   */\n      tag_353\n      jump\t// in\n    tag_805:\n        /* \"#utility.yul\":38302:38327   */\n      swap3\n      pop\n        /* \"#utility.yul\":38351:38352   */\n      dup3\n        /* \"#utility.yul\":38348:38349   */\n      dup3\n        /* \"#utility.yul\":38344:38353   */\n      sub\n        /* \"#utility.yul\":38336:38353   */\n      swap1\n      pop\n        /* \"#utility.yul\":38375:38376   */\n      dup2\n        /* \"#utility.yul\":38369:38373   */\n      dup2\n        /* \"#utility.yul\":38366:38377   */\n      gt\n        /* \"#utility.yul\":38363:38400   */\n      iszero\n      tag_806\n      jumpi\n        /* \"#utility.yul\":38380:38398   */\n      tag_807\n      tag_416\n      jump\t// in\n    tag_807:\n        /* \"#utility.yul\":38363:38400   */\n    tag_806:\n        /* \"#utility.yul\":38213:38407   */\n      swap3\n      swap2\n      pop\n      pop\n      jump\t// out\n        /* \"#utility.yul\":38413:38604   */\n    tag_229:\n        /* \"#utility.yul\":38453:38456   */\n      0x00\n        /* \"#utility.yul\":38472:38492   */\n      tag_809\n        /* \"#utility.yul\":38490:38491   */\n      dup3\n        /* \"#utility.yul\":38472:38492   */\n      tag_353\n      jump\t// in\n    tag_809:\n        /* \"#utility.yul\":38467:38492   */\n      swap2\n      pop\n        /* \"#utility.yul\":38506:38526   */\n      tag_810\n        /* \"#utility.yul\":38524:38525   */\n      dup4\n        /* \"#utility.yul\":38506:38526   */\n      tag_353\n      jump\t// in\n    tag_810:\n        /* \"#utility.yul\":38501:38526   */\n      swap3\n      pop\n        /* \"#utility.yul\":38549:38550   */\n      dup3\n        /* \"#utility.yul\":38546:38547   */\n      dup3\n        /* \"#utility.yul\":38542:38551   */\n      add\n        /* \"#utility.yul\":38535:38551   */\n      swap1\n      pop\n        /* \"#utility.yul\":38570:38573   */\n      dup1\n        /* \"#utility.yul\":38567:38568   */\n      dup3\n        /* \"#utility.yul\":38564:38574   */\n      gt\n        /* \"#utility.yul\":38561:38597   */\n      iszero\n      tag_811\n      jumpi\n        /* \"#utility.yul\":38577:38595   */\n      tag_812\n      tag_416\n      jump\t// in\n    tag_812:\n        /* \"#utility.yul\":38561:38597   */\n    tag_811:\n        /* \"#utility.yul\":38413:38604   */\n      swap3\n      swap2\n      pop\n      pop\n      jump\t// out\n        /* \"#utility.yul\":38610:38789   */\n    tag_430:\n        /* \"#utility.yul\":38750:38781   */\n      0x5468726573686f6c6420776f756c6420626520696d706f737369626c65000000\n        /* \"#utility.yul\":38746:38747   */\n      0x00\n        /* \"#utility.yul\":38738:38744   */\n      dup3\n        /* \"#utility.yul\":38734:38748   */\n      add\n        /* \"#utility.yul\":38727:38782   */\n      mstore\n        /* \"#utility.yul\":38610:38789   */\n      pop\n      jump\t// out\n        /* \"#utility.yul\":38795:39161   */\n    tag_431:\n        /* \"#utility.yul\":38937:38940   */\n      0x00\n        /* \"#utility.yul\":38958:39025   */\n      tag_815\n        /* \"#utility.yul\":39022:39024   */\n      0x1d\n        /* \"#utility.yul\":39017:39020   */\n      dup4\n        /* \"#utility.yul\":38958:39025   */\n      tag_409\n      jump\t// in\n    tag_815:\n        /* \"#utility.yul\":38951:39025   */\n      swap2\n      pop\n        /* \"#utility.yul\":39034:39127   */\n      tag_816\n        /* \"#utility.yul\":39123:39126   */\n      dup3\n        /* \"#utility.yul\":39034:39127   */\n      tag_430\n      jump\t// in\n    tag_816:\n        /* \"#utility.yul\":39152:39154   */\n      0x20\n        /* \"#utility.yul\":39147:39150   */\n      dup3\n        /* \"#utility.yul\":39143:39155   */\n      add\n        /* \"#utility.yul\":39136:39155   */\n      swap1\n      pop\n        /* \"#utility.yul\":38795:39161   */\n      swap2\n      swap1\n      pop\n      jump\t// out\n        /* \"#utility.yul\":39167:39586   */\n    tag_237:\n        /* \"#utility.yul\":39333:39337   */\n      0x00\n        /* \"#utility.yul\":39371:39373   */\n      0x20\n        /* \"#utility.yul\":39360:39369   */\n      dup3\n        /* \"#utility.yul\":39356:39374   */\n      add\n        /* \"#utility.yul\":39348:39374   */\n      swap1\n      pop\n        /* \"#utility.yul\":39420:39429   */\n      dup2\n        /* \"#utility.yul\":39414:39418   */\n      dup2\n        /* \"#utility.yul\":39410:39430   */\n      sub\n        /* \"#utility.yul\":39406:39407   */\n      0x00\n        /* \"#utility.yul\":39395:39404   */\n      dup4\n        /* \"#utility.yul\":39391:39408   */\n      add\n        /* \"#utility.yul\":39384:39431   */\n      mstore\n        /* \"#utility.yul\":39448:39579   */\n      tag_818\n        /* \"#utility.yul\":39574:39578   */\n      dup2\n        /* \"#utility.yul\":39448:39579   */\n      tag_431\n      jump\t// in\n    tag_818:\n        /* \"#utility.yul\":39440:39579   */\n      swap1\n      pop\n        /* \"#utility.yul\":39167:39586   */\n      swap2\n      swap1\n      pop\n      jump\t// out\n        /* \"#utility.yul\":39592:39740   */\n    tag_432:\n        /* \"#utility.yul\":39694:39705   */\n      0x00\n        /* \"#utility.yul\":39731:39734   */\n      dup2\n        /* \"#utility.yul\":39716:39734   */\n      swap1\n      pop\n        /* \"#utility.yul\":39592:39740   */\n      swap3\n      swap2\n      pop\n      pop\n      jump\t// out\n        /* \"#utility.yul\":39746:39960   */\n    tag_433:\n        /* \"#utility.yul\":39886:39952   */\n      0x19457468657265756d205369676e6564204d6573736167653a0a333200000000\n        /* \"#utility.yul\":39882:39883   */\n      0x00\n        /* \"#utility.yul\":39874:39880   */\n      dup3\n        /* \"#utility.yul\":39870:39884   */\n      add\n        /* \"#utility.yul\":39863:39953   */\n      mstore\n        /* \"#utility.yul\":39746:39960   */\n      pop\n      jump\t// out\n        /* \"#utility.yul\":39966:40368   */\n    tag_434:\n        /* \"#utility.yul\":40126:40129   */\n      0x00\n        /* \"#utility.yul\":40147:40232   */\n      tag_822\n        /* \"#utility.yul\":40229:40231   */\n      0x1c\n        /* \"#utility.yul\":40224:40227   */\n      dup4\n        /* \"#utility.yul\":40147:40232   */\n      tag_432\n      jump\t// in\n    tag_822:\n        /* \"#utility.yul\":40140:40232   */\n      swap2\n      pop\n        /* \"#utility.yul\":40241:40334   */\n      tag_823\n        /* \"#utility.yul\":40330:40333   */\n      dup3\n        /* \"#utility.yul\":40241:40334   */\n      tag_433\n      jump\t// in\n    tag_823:\n        /* \"#utility.yul\":40359:40361   */\n      0x1c\n        /* \"#utility.yul\":40354:40357   */\n      dup3\n        /* \"#utility.yul\":40350:40362   */\n      add\n        /* \"#utility.yul\":40343:40362   */\n      swap1\n      pop\n        /* \"#utility.yul\":39966:40368   */\n      swap2\n      swap1\n      pop\n      jump\t// out\n        /* \"#utility.yul\":40374:40451   */\n    tag_435:\n        /* \"#utility.yul\":40411:40418   */\n      0x00\n        /* \"#utility.yul\":40440:40445   */\n      dup2\n        /* \"#utility.yul\":40429:40445   */\n      swap1\n      pop\n        /* \"#utility.yul\":40374:40451   */\n      swap2\n      swap1\n      pop\n      jump\t// out\n        /* \"#utility.yul\":40457:40536   */\n    tag_436:\n        /* \"#utility.yul\":40496:40503   */\n      0x00\n        /* \"#utility.yul\":40525:40530   */\n      dup2\n        /* \"#utility.yul\":40514:40530   */\n      swap1\n      pop\n        /* \"#utility.yul\":40457:40536   */\n      swap2\n      swap1\n      pop\n      jump\t// out\n        /* \"#utility.yul\":40542:40699   */\n    tag_437:\n        /* \"#utility.yul\":40647:40692   */\n      tag_827\n        /* \"#utility.yul\":40667:40691   */\n      tag_828\n        /* \"#utility.yul\":40685:40690   */\n      dup3\n        /* \"#utility.yul\":40667:40691   */\n      tag_435\n      jump\t// in\n    tag_828:\n        /* \"#utility.yul\":40647:40692   */\n      tag_436\n      jump\t// in\n    tag_827:\n        /* \"#utility.yul\":40642:40645   */\n      dup3\n        /* \"#utility.yul\":40635:40693   */\n      mstore\n        /* \"#utility.yul\":40542:40699   */\n      pop\n      pop\n      jump\t// out\n        /* \"#utility.yul\":40705:41227   */\n    tag_296:\n        /* \"#utility.yul\":40918:40921   */\n      0x00\n        /* \"#utility.yul\":40940:41088   */\n      tag_830\n        /* \"#utility.yul\":41084:41087   */\n      dup3\n        /* \"#utility.yul\":40940:41088   */\n      tag_434\n      jump\t// in\n    tag_830:\n        /* \"#utility.yul\":40933:41088   */\n      swap2\n      pop\n        /* \"#utility.yul\":41098:41173   */\n      tag_831\n        /* \"#utility.yul\":41169:41172   */\n      dup3\n        /* \"#utility.yul\":41160:41166   */\n      dup5\n        /* \"#utility.yul\":41098:41173   */\n      tag_437\n      jump\t// in\n    tag_831:\n        /* \"#utility.yul\":41198:41200   */\n      0x20\n        /* \"#utility.yul\":41193:41196   */\n      dup3\n        /* \"#utility.yul\":41189:41201   */\n      add\n        /* \"#utility.yul\":41182:41201   */\n      swap2\n      pop\n        /* \"#utility.yul\":41218:41221   */\n      dup2\n        /* \"#utility.yul\":41211:41221   */\n      swap1\n      pop\n        /* \"#utility.yul\":40705:41227   */\n      swap3\n      swap2\n      pop\n      pop\n      jump\t// out\n        /* \"#utility.yul\":41233:41413   */\n    tag_310:\n        /* \"#utility.yul\":41281:41358   */\n      0x4e487b7100000000000000000000000000000000000000000000000000000000\n        /* \"#utility.yul\":41278:41279   */\n      0x00\n        /* \"#utility.yul\":41271:41359   */\n      mstore\n        /* \"#utility.yul\":41378:41382   */\n      0x21\n        /* \"#utility.yul\":41375:41376   */\n      0x04\n        /* \"#utility.yul\":41368:41383   */\n      mstore\n        /* \"#utility.yul\":41402:41406   */\n      0x24\n        /* \"#utility.yul\":41399:41400   */\n      0x00\n        /* \"#utility.yul\":41392:41407   */\n      revert\n        /* \"#utility.yul\":41419:41593   */\n    tag_438:\n        /* \"#utility.yul\":41559:41585   */\n      0x45434453413a20696e76616c6964207369676e61747572650000000000000000\n        /* \"#utility.yul\":41555:41556   */\n      0x00\n        /* \"#utility.yul\":41547:41553   */\n      dup3\n        /* \"#utility.yul\":41543:41557   */\n      add\n        /* \"#utility.yul\":41536:41586   */\n      mstore\n        /* \"#utility.yul\":41419:41593   */\n      pop\n      jump\t// out\n        /* \"#utility.yul\":41599:41965   */\n    tag_439:\n        /* \"#utility.yul\":41741:41744   */\n      0x00\n        /* \"#utility.yul\":41762:41829   */\n      tag_835\n        /* \"#utility.yul\":41826:41828   */\n      0x18\n        /* \"#utility.yul\":41821:41824   */\n      dup4\n        /* \"#utility.yul\":41762:41829   */\n      tag_409\n      jump\t// in\n    tag_835:\n        /* \"#utility.yul\":41755:41829   */\n      swap2\n      pop\n        /* \"#utility.yul\":41838:41931   */\n      tag_836\n        /* \"#utility.yul\":41927:41930   */\n      dup3\n        /* \"#utility.yul\":41838:41931   */\n      tag_438\n      jump\t// in\n    tag_836:\n        /* \"#utility.yul\":41956:41958   */\n      0x20\n        /* \"#utility.yul\":41951:41954   */\n      dup3\n        /* \"#utility.yul\":41947:41959   */\n      add\n        /* \"#utility.yul\":41940:41959   */\n      swap1\n      pop\n        /* \"#utility.yul\":41599:41965   */\n      swap2\n      swap1\n      pop\n      jump\t// out\n        /* \"#utility.yul\":41971:42390   */\n    tag_321:\n        /* \"#utility.yul\":42137:42141   */\n      0x00\n        /* \"#utility.yul\":42175:42177   */\n      0x20\n        /* \"#utility.yul\":42164:42173   */\n      dup3\n        /* \"#utility.yul\":42160:42178   */\n      add\n        /* \"#utility.yul\":42152:42178   */\n      swap1\n      pop\n        /* \"#utility.yul\":42224:42233   */\n      dup2\n        /* \"#utility.yul\":42218:42222   */\n      dup2\n        /* \"#utility.yul\":42214:42234   */\n      sub\n        /* \"#utility.yul\":42210:42211   */\n      0x00\n        /* \"#utility.yul\":42199:42208   */\n      dup4\n        /* \"#utility.yul\":42195:42212   */\n      add\n        /* \"#utility.yul\":42188:42235   */\n      mstore\n        /* \"#utility.yul\":42252:42383   */\n      tag_838\n        /* \"#utility.yul\":42378:42382   */\n      dup2\n        /* \"#utility.yul\":42252:42383   */\n      tag_439\n      jump\t// in\n    tag_838:\n        /* \"#utility.yul\":42244:42383   */\n      swap1\n      pop\n        /* \"#utility.yul\":41971:42390   */\n      swap2\n      swap1\n      pop\n      jump\t// out\n        /* \"#utility.yul\":42396:42577   */\n    tag_440:\n        /* \"#utility.yul\":42536:42569   */\n      0x45434453413a20696e76616c6964207369676e6174757265206c656e67746800\n        /* \"#utility.yul\":42532:42533   */\n      0x00\n        /* \"#utility.yul\":42524:42530   */\n      dup3\n        /* \"#utility.yul\":42520:42534   */\n      add\n        /* \"#utility.yul\":42513:42570   */\n      mstore\n        /* \"#utility.yul\":42396:42577   */\n      pop\n      jump\t// out\n        /* \"#utility.yul\":42583:42949   */\n    tag_441:\n        /* \"#utility.yul\":42725:42728   */\n      0x00\n        /* \"#utility.yul\":42746:42813   */\n      tag_841\n        /* \"#utility.yul\":42810:42812   */\n      0x1f\n        /* \"#utility.yul\":42805:42808   */\n      dup4\n        /* \"#utility.yul\":42746:42813   */\n      tag_409\n      jump\t// in\n    tag_841:\n        /* \"#utility.yul\":42739:42813   */\n      swap2\n      pop\n        /* \"#utility.yul\":42822:42915   */\n      tag_842\n        /* \"#utility.yul\":42911:42914   */\n      dup3\n        /* \"#utility.yul\":42822:42915   */\n      tag_440\n      jump\t// in\n    tag_842:\n        /* \"#utility.yul\":42940:42942   */\n      0x20\n        /* \"#utility.yul\":42935:42938   */\n      dup3\n        /* \"#utility.yul\":42931:42943   */\n      add\n        /* \"#utility.yul\":42924:42943   */\n      swap1\n      pop\n        /* \"#utility.yul\":42583:42949   */\n      swap2\n      swap1\n      pop\n      jump\t// out\n        /* \"#utility.yul\":42955:43374   */\n    tag_329:\n        /* \"#utility.yul\":43121:43125   */\n      0x00\n        /* \"#utility.yul\":43159:43161   */\n      0x20\n        /* \"#utility.yul\":43148:43157   */\n      dup3\n        /* \"#utility.yul\":43144:43162   */\n      add\n        /* \"#utility.yul\":43136:43162   */\n      swap1\n      pop\n        /* \"#utility.yul\":43208:43217   */\n      dup2\n        /* \"#utility.yul\":43202:43206   */\n      dup2\n        /* \"#utility.yul\":43198:43218   */\n      sub\n        /* \"#utility.yul\":43194:43195   */\n      0x00\n        /* \"#utility.yul\":43183:43192   */\n      dup4\n        /* \"#utility.yul\":43179:43196   */\n      add\n        /* \"#utility.yul\":43172:43219   */\n      mstore\n        /* \"#utility.yul\":43236:43367   */\n      tag_844\n        /* \"#utility.yul\":43362:43366   */\n      dup2\n        /* \"#utility.yul\":43236:43367   */\n      tag_441\n      jump\t// in\n    tag_844:\n        /* \"#utility.yul\":43228:43367   */\n      swap1\n      pop\n        /* \"#utility.yul\":42955:43374   */\n      swap2\n      swap1\n      pop\n      jump\t// out\n        /* \"#utility.yul\":43380:43601   */\n    tag_442:\n        /* \"#utility.yul\":43520:43554   */\n      0x45434453413a20696e76616c6964207369676e6174757265202773272076616c\n        /* \"#utility.yul\":43516:43517   */\n      0x00\n        /* \"#utility.yul\":43508:43514   */\n      dup3\n        /* \"#utility.yul\":43504:43518   */\n      add\n        /* \"#utility.yul\":43497:43555   */\n      mstore\n        /* \"#utility.yul\":43589:43593   */\n      0x7565000000000000000000000000000000000000000000000000000000000000\n        /* \"#utility.yul\":43584:43586   */\n      0x20\n        /* \"#utility.yul\":43576:43582   */\n      dup3\n        /* \"#utility.yul\":43572:43587   */\n      add\n        /* \"#utility.yul\":43565:43594   */\n      mstore\n        /* \"#utility.yul\":43380:43601   */\n      pop\n      jump\t// out\n        /* \"#utility.yul\":43607:43973   */\n    tag_443:\n        /* \"#utility.yul\":43749:43752   */\n      0x00\n        /* \"#utility.yul\":43770:43837   */\n      tag_847\n        /* \"#utility.yul\":43834:43836   */\n      0x22\n        /* \"#utility.yul\":43829:43832   */\n      dup4\n        /* \"#utility.yul\":43770:43837   */\n      tag_409\n      jump\t// in\n    tag_847:\n        /* \"#utility.yul\":43763:43837   */\n      swap2\n      pop\n        /* \"#utility.yul\":43846:43939   */\n      tag_848\n        /* \"#utility.yul\":43935:43938   */\n      dup3\n        /* \"#utility.yul\":43846:43939   */\n      tag_442\n      jump\t// in\n    tag_848:\n        /* \"#utility.yul\":43964:43966   */\n      0x40\n        /* \"#utility.yul\":43959:43962   */\n      dup3\n        /* \"#utility.yul\":43955:43967   */\n      add\n        /* \"#utility.yul\":43948:43967   */\n      swap1\n      pop\n        /* \"#utility.yul\":43607:43973   */\n      swap2\n      swap1\n      pop\n      jump\t// out\n        /* \"#utility.yul\":43979:44398   */\n    tag_337:\n        /* \"#utility.yul\":44145:44149   */\n      0x00\n        /* \"#utility.yul\":44183:44185   */\n      0x20\n        /* \"#utility.yul\":44172:44181   */\n      dup3\n        /* \"#utility.yul\":44168:44186   */\n      add\n        /* \"#utility.yul\":44160:44186   */\n      swap1\n      pop\n        /* \"#utility.yul\":44232:44241   */\n      dup2\n        /* \"#utility.yul\":44226:44230   */\n      dup2\n        /* \"#utility.yul\":44222:44242   */\n      sub\n        /* \"#utility.yul\":44218:44219   */\n      0x00\n        /* \"#utility.yul\":44207:44216   */\n      dup4\n        /* \"#utility.yul\":44203:44220   */\n      add\n        /* \"#utility.yul\":44196:44243   */\n      mstore\n        /* \"#utility.yul\":44260:44391   */\n      tag_850\n        /* \"#utility.yul\":44386:44390   */\n      dup2\n        /* \"#utility.yul\":44260:44391   */\n      tag_443\n      jump\t// in\n    tag_850:\n        /* \"#utility.yul\":44252:44391   */\n      swap1\n      pop\n        /* \"#utility.yul\":43979:44398   */\n      swap2\n      swap1\n      pop\n      jump\t// out\n        /* \"#utility.yul\":44404:44522   */\n    tag_444:\n        /* \"#utility.yul\":44491:44515   */\n      tag_852\n        /* \"#utility.yul\":44509:44514   */\n      dup2\n        /* \"#utility.yul\":44491:44515   */\n      tag_435\n      jump\t// in\n    tag_852:\n        /* \"#utility.yul\":44486:44489   */\n      dup3\n        /* \"#utility.yul\":44479:44516   */\n      mstore\n        /* \"#utility.yul\":44404:44522   */\n      pop\n      pop\n      jump\t// out\n        /* \"#utility.yul\":44528:44614   */\n    tag_445:\n        /* \"#utility.yul\":44563:44570   */\n      0x00\n        /* \"#utility.yul\":44603:44607   */\n      0xff\n        /* \"#utility.yul\":44596:44601   */\n      dup3\n        /* \"#utility.yul\":44592:44608   */\n      and\n        /* \"#utility.yul\":44581:44608   */\n      swap1\n      pop\n        /* \"#utility.yul\":44528:44614   */\n      swap2\n      swap1\n      pop\n      jump\t// out\n        /* \"#utility.yul\":44620:44732   */\n    tag_446:\n        /* \"#utility.yul\":44703:44725   */\n      tag_855\n        /* \"#utility.yul\":44719:44724   */\n      dup2\n        /* \"#utility.yul\":44703:44725   */\n      tag_445\n      jump\t// in\n    tag_855:\n        /* \"#utility.yul\":44698:44701   */\n      dup3\n        /* \"#utility.yul\":44691:44726   */\n      mstore\n        /* \"#utility.yul\":44620:44732   */\n      pop\n      pop\n      jump\t// out\n        /* \"#utility.yul\":44738:45283   */\n    tag_341:\n        /* \"#utility.yul\":44911:44915   */\n      0x00\n        /* \"#utility.yul\":44949:44952   */\n      0x80\n        /* \"#utility.yul\":44938:44947   */\n      dup3\n        /* \"#utility.yul\":44934:44953   */\n      add\n        /* \"#utility.yul\":44926:44953   */\n      swap1\n      pop\n        /* \"#utility.yul\":44963:45034   */\n      tag_857\n        /* \"#utility.yul\":45031:45032   */\n      0x00\n        /* \"#utility.yul\":45020:45029   */\n      dup4\n        /* \"#utility.yul\":45016:45033   */\n      add\n        /* \"#utility.yul\":45007:45013   */\n      dup8\n        /* \"#utility.yul\":44963:45034   */\n      tag_444\n      jump\t// in\n    tag_857:\n        /* \"#utility.yul\":45044:45112   */\n      tag_858\n        /* \"#utility.yul\":45108:45110   */\n      0x20\n        /* \"#utility.yul\":45097:45106   */\n      dup4\n        /* \"#utility.yul\":45093:45111   */\n      add\n        /* \"#utility.yul\":45084:45090   */\n      dup7\n        /* \"#utility.yul\":45044:45112   */\n      tag_446\n      jump\t// in\n    tag_858:\n        /* \"#utility.yul\":45122:45194   */\n      tag_859\n        /* \"#utility.yul\":45190:45192   */\n      0x40\n        /* \"#utility.yul\":45179:45188   */\n      dup4\n        /* \"#utility.yul\":45175:45193   */\n      add\n        /* \"#utility.yul\":45166:45172   */\n      dup6\n        /* \"#utility.yul\":45122:45194   */\n      tag_444\n      jump\t// in\n    tag_859:\n        /* \"#utility.yul\":45204:45276   */\n      tag_860\n        /* \"#utility.yul\":45272:45274   */\n      0x60\n        /* \"#utility.yul\":45261:45270   */\n      dup4\n        /* \"#utility.yul\":45257:45275   */\n      add\n        /* \"#utility.yul\":45248:45254   */\n      dup5\n        /* \"#utility.yul\":45204:45276   */\n      tag_444\n      jump\t// in\n    tag_860:\n        /* \"#utility.yul\":44738:45283   */\n      swap6\n      swap5\n      pop\n      pop\n      pop\n      pop\n      pop\n      jump\t// out\n    stop\n    data_72284c72650eb5f3095ffe3e95f497df8ba3ab16a33a5479ff4ed3ce4e760077 5369676e6572207765696768747320646f6573206e6f74206d656574207468726573686f6c64\n    data_785bc0b145e7feed7ceac2191d963af02addfd5fb4914d9f29f212008f60b7a9 4174206c65617374206f6e65207369676e6174757265206e6f742066726f6d2061206b6e6f776e20636f6e74726f6c6c6572\n    data_a16b8e883356b25ba9a3764847759439ed808aa5ab1e4a5a4f8ee72d493c676d 4174206c65617374206f6e65207369676e617475726520616c72656164792075736564\n\n    auxdata: 0xa26469706673582212201cddf2f5d55fe3cdaabfb3f0e87f5969d9e493d6dd6cb13bd419d57393f2327864736f6c63430008120033\n}\n",
				"bytecode": {
					"linkReferences": {},
					"object": "608060405234801561001057600080fd5b50612c46806100206000396000f3fe608060405234801561001057600080fd5b506004361061009e5760003560e01c8063a3e8d51e11610066578063a3e8d51e14610159578063a786509014610189578063af915498146101a7578063d0bccea1146101c3578063f04420f1146101df5761009e565b806301ffc9a7146100a357806306e82383146100d35780630d992b2b146100f1578063286936bb1461012157806387f949b41461013d575b600080fd5b6100bd60048036038101906100b89190611633565b61020f565b6040516100ca919061167b565b60405180910390f35b6100db610290565b6040516100e891906116af565b60405180910390f35b61010b60048036038101906101069190611785565b6102a3565b6040516101189190611958565b60405180910390f35b61013b600480360381019061013691906119fc565b610497565b005b61015760048036038101906101529190611a91565b610616565b005b610173600480360381019061016e9190611b29565b6107c0565b6040516101809190611bef565b60405180910390f35b6101916108f6565b60405161019e91906116af565b60405180910390f35b6101c160048036038101906101bc9190611c67565b610909565b005b6101dd60048036038101906101d89190611d8e565b610aa8565b005b6101f960048036038101906101f49190611e16565b610d0b565b60405161020691906116af565b60405180910390f35b60007fae71fe35000000000000000000000000000000000000000000000000000000007bffffffffffffffffffffffffffffffffffffffffffffffffffffffff1916827bffffffffffffffffffffffffffffffffffffffffffffffffffffffff19160361027f576001905061028b565b61028882610d5d565b90505b919050565b600061029a610dde565b60010154905090565b60608484466040516020016102ba9392919061209a565b6040516020818303038152906040528051906020012083836000806102eb858585906102e691906122a0565b610e0b565b91509150818190610332576040517f08c379a0000000000000000000000000000000000000000000000000000000008152600401610329919061230a565b60405180910390fd5b5060005b848490508110156103c357600161034b610dde565b60030160008787858181106103635761036261232c565b5b9050602002810190610375919061236a565b6040516103839291906123fd565b6040518091039020815260200190815260200160002060006101000a81548160ff02191690831515021790555080806103bb90612445565b915050610336565b5060008a8a905067ffffffffffffffff8111156103e3576103e26120cc565b5b60405190808252806020026020018201604052801561041657816020015b60608152602001906001900390816104015790505b50905060005b8b8b9050811015610485576104548c8c8381811061043d5761043c61232c565b5b905060200281019061044f919061248d565b610ffb565b8282815181106104675761046661232c565b5b6020026020010181905250808061047d90612445565b91505061041c565b50809650505050505050949350505050565b848484466040516020016104ae9493929190612552565b6040516020818303038152906040528051906020012082826000806104df858585906104da91906122a0565b610e0b565b91509150818190610526576040517f08c379a000000000000000000000000000000000000000000000000000000000815260040161051d919061230a565b60405180910390fd5b5060005b848490508110156105b757600161053f610dde565b60030160008787858181106105575761055661232c565b5b9050602002810190610569919061236a565b6040516105779291906123fd565b6040518091039020815260200190815260200160002060006101000a81548160ff02191690831515021790555080806105af90612445565b91505061052a565b5060005b8a8a9050811015610609576105f68b8b838181106105dc576105db61232c565b5b90506020020160208101906105f19190611e16565b6110aa565b808061060190612445565b9150506105bb565b5050505050505050505050565b83834660405160200161062b93929190612592565b60405160208183030381529060405280519060200120828260008061065c8585859061065791906122a0565b610e0b565b915091508181906106a3576040517f08c379a000000000000000000000000000000000000000000000000000000000815260040161069a919061230a565b60405180910390fd5b5060005b848490508110156107345760016106bc610dde565b60030160008787858181106106d4576106d361232c565b5b90506020028101906106e6919061236a565b6040516106f49291906123fd565b6040518091039020815260200190815260200160002060006101000a81548160ff021916908315150217905550808061072c90612445565b9150506106a7565b50600061073f610dde565b600001541180156107665750610753610dde565b6001015461075f610dde565b6000015411155b6107a5576040517f08c379a000000000000000000000000000000000000000000000000000000000815260040161079c90612615565b60405180910390fd5b886107ae610dde565b60000181905550505050505050505050565b606083466040516020016107d59291906126ba565b6040516020818303038152906040528051906020012083836000806108068585859061080191906122a0565b610e0b565b9150915081819061084d576040517f08c379a0000000000000000000000000000000000000000000000000000000008152600401610844919061230a565b60405180910390fd5b5060005b848490508110156108de576001610866610dde565b600301600087878581811061087e5761087d61232c565b5b9050602002810190610890919061236a565b60405161089e9291906123fd565b6040518091039020815260200190815260200160002060006101000a81548160ff02191690831515021790555080806108d690612445565b915050610851565b506108e889610ffb565b955050505050509392505050565b6000610900610dde565b60000154905090565b86868686864660405160200161092496959493929190612765565b6040516020818303038152906040528051906020012082826000806109558585859061095091906122a0565b610e0b565b9150915081819061099c576040517f08c379a0000000000000000000000000000000000000000000000000000000008152600401610993919061230a565b60405180910390fd5b5060005b84849050811015610a2d5760016109b5610dde565b60030160008787858181106109cd576109cc61232c565b5b90506020028101906109df919061236a565b6040516109ed9291906123fd565b6040518091039020815260200190815260200160002060006101000a81548160ff0219169083151502179055508080610a2590612445565b9150506109a0565b5060005b8c8c9050811015610a9957610a868d8d83818110610a5257610a5161232c565b5b9050602002016020810190610a679190611e16565b8c8c84818110610a7a57610a7961232c565b5b905060200201356111d5565b8080610a9190612445565b915050610a31565b50505050505050505050505050565b84848446604051602001610abf94939291906127cb565b604051602081830303815290604052805190602001208282600080610af085858590610aeb91906122a0565b610e0b565b91509150818190610b37576040517f08c379a0000000000000000000000000000000000000000000000000000000008152600401610b2e919061230a565b60405180910390fd5b5060005b84849050811015610bc8576001610b50610dde565b6003016000878785818110610b6857610b6761232c565b5b9050602002810190610b7a919061236a565b604051610b889291906123fd565b6040518091039020815260200190815260200160002060006101000a81548160ff0219169083151502179055508080610bc090612445565b915050610b3b565b5088610bd2610dde565b60020160008c73ffffffffffffffffffffffffffffffffffffffff1673ffffffffffffffffffffffffffffffffffffffff16815260200190815260200160002054610c1b610dde565b60010154610c299190612810565b610c339190612844565b610c3b610dde565b600101819055506000610c4c610dde565b60010154118015610c735750610c60610dde565b60000154610c6c610dde565b6001015410155b610cb2576040517f08c379a0000000000000000000000000000000000000000000000000000000008152600401610ca9906128c4565b60405180910390fd5b88610cbb610dde565b60020160008c73ffffffffffffffffffffffffffffffffffffffff1673ffffffffffffffffffffffffffffffffffffffff1681526020019081526020016000208190555050505050505050505050565b6000610d15610dde565b60020160008373ffffffffffffffffffffffffffffffffffffffff1673ffffffffffffffffffffffffffffffffffffffff168152602001908152602001600020549050919050565b60007f8197b6d4000000000000000000000000000000000000000000000000000000007bffffffffffffffffffffffffffffffffffffffffffffffffffffffff1916827bffffffffffffffffffffffffffffffffffffffffffffffffffffffff191603610dcd5760019050610dd9565b610dd682611248565b90505b919050565b6000807f255f4a56bd3ad76424e31ed8855ef9ad14a0ce4e67508c76ff082e5c1466b12f90508091505090565b600060606000805b8451811015610fa3576000610e4287878481518110610e3557610e3461232c565b5b60200260200101516112b2565b90506000610e4e610dde565b60020160008373ffffffffffffffffffffffffffffffffffffffff1673ffffffffffffffffffffffffffffffffffffffff1681526020019081526020016000205403610ebb576000604051806060016040528060328152602001612bbc6032913994509450505050610ff4565b6000868381518110610ed057610ecf61232c565b5b6020026020010151805190602001209050610ee9610dde565b600301600082815260200190815260200160002060009054906101000a900460ff1615610f38576000604051806060016040528060238152602001612bee602391399550955050505050610ff4565b610f40610dde565b60020160008373ffffffffffffffffffffffffffffffffffffffff1673ffffffffffffffffffffffffffffffffffffffff1681526020019081526020016000205484610f8c9190612844565b935050508080610f9b90612445565b915050610e13565b50610fac610dde565b60000154811015610fdc576000604051806060016040528060268152602001612b96602691399250925050610ff4565b60016040518060200160405280600081525092509250505b9250929050565b60606000808360000160208101906110139190611e16565b73ffffffffffffffffffffffffffffffffffffffff16846020013585806060019061103e919061236a565b60405161104c9291906123fd565b60006040518083038185875af1925050503d8060008114611089576040519150601f19603f3d011682016040523d82523d6000602084013e61108e565b606091505b5091509150816110a057805160208201fd5b8092505050919050565b6110b2610dde565b60020160008273ffffffffffffffffffffffffffffffffffffffff1673ffffffffffffffffffffffffffffffffffffffff168152602001908152602001600020546110fb610dde565b600101600082825461110d9190612810565b92505081905550600061111e610dde565b600101541180156111455750611132610dde565b6000015461113e610dde565b6001015410155b611184576040517f08c379a000000000000000000000000000000000000000000000000000000000815260040161117b906128c4565b60405180910390fd5b600061118e610dde565b60020160008373ffffffffffffffffffffffffffffffffffffffff1673ffffffffffffffffffffffffffffffffffffffff1681526020019081526020016000208190555050565b806111de610dde565b60010160008282546111f09190612844565b9250508190555080611200610dde565b60020160008473ffffffffffffffffffffffffffffffffffffffff1673ffffffffffffffffffffffffffffffffffffffff168152602001908152602001600020819055505050565b60007f01ffc9a7000000000000000000000000000000000000000000000000000000007bffffffffffffffffffffffffffffffffffffffffffffffffffffffff1916827bffffffffffffffffffffffffffffffffffffffffffffffffffffffff1916149050919050565b60006112cf826112c1856112d7565b61130790919063ffffffff16565b905092915050565b6000816040516020016112ea9190612966565b604051602081830303815290604052805190602001209050919050565b6000806000611316858561132e565b915091506113238161137f565b819250505092915050565b600080604183510361136f5760008060006020860151925060408601519150606086015160001a9050611363878285856114e5565b94509450505050611378565b60006002915091505b9250929050565b600060048111156113935761139261298c565b5b8160048111156113a6576113a561298c565b5b03156114e257600160048111156113c0576113bf61298c565b5b8160048111156113d3576113d261298c565b5b03611413576040517f08c379a000000000000000000000000000000000000000000000000000000000815260040161140a90612a07565b60405180910390fd5b600260048111156114275761142661298c565b5b81600481111561143a5761143961298c565b5b0361147a576040517f08c379a000000000000000000000000000000000000000000000000000000000815260040161147190612a73565b60405180910390fd5b6003600481111561148e5761148d61298c565b5b8160048111156114a1576114a061298c565b5b036114e1576040517f08c379a00000000000000000000000000000000000000000000000000000000081526004016114d890612b05565b60405180910390fd5b5b50565b6000807f7fffffffffffffffffffffffffffffff5d576e7357a4501ddfe92f46681b20a08360001c11156115205760006003915091506115be565b6000600187878787604051600081526020016040526040516115459493929190612b50565b6020604051602081039080840390855afa158015611567573d6000803e3d6000fd5b505050602060405103519050600073ffffffffffffffffffffffffffffffffffffffff168173ffffffffffffffffffffffffffffffffffffffff16036115b5576000600192509250506115be565b80600092509250505b94509492505050565b6000604051905090565b600080fd5b600080fd5b60007fffffffff0000000000000000000000000000000000000000000000000000000082169050919050565b611610816115db565b811461161b57600080fd5b50565b60008135905061162d81611607565b92915050565b600060208284031215611649576116486115d1565b5b60006116578482850161161e565b91505092915050565b60008115159050919050565b61167581611660565b82525050565b6000602082019050611690600083018461166c565b92915050565b6000819050919050565b6116a981611696565b82525050565b60006020820190506116c460008301846116a0565b92915050565b600080fd5b600080fd5b600080fd5b60008083601f8401126116ef576116ee6116ca565b5b8235905067ffffffffffffffff81111561170c5761170b6116cf565b5b602083019150836020820283011115611728576117276116d4565b5b9250929050565b60008083601f840112611745576117446116ca565b5b8235905067ffffffffffffffff811115611762576117616116cf565b5b60208301915083602082028301111561177e5761177d6116d4565b5b9250929050565b6000806000806040858703121561179f5761179e6115d1565b5b600085013567ffffffffffffffff8111156117bd576117bc6115d6565b5b6117c9878288016116d9565b9450945050602085013567ffffffffffffffff8111156117ec576117eb6115d6565b5b6117f88782880161172f565b925092505092959194509250565b600081519050919050565b600082825260208201905092915050565b6000819050602082019050919050565b600081519050919050565b600082825260208201905092915050565b60005b8381101561186c578082015181840152602081019050611851565b60008484015250505050565b6000601f19601f8301169050919050565b600061189482611832565b61189e818561183d565b93506118ae81856020860161184e565b6118b781611878565b840191505092915050565b60006118ce8383611889565b905092915050565b6000602082019050919050565b60006118ee82611806565b6118f88185611811565b93508360208202850161190a85611822565b8060005b85811015611946578484038952815161192785826118c2565b9450611932836118d6565b925060208a0199505060018101905061190e565b50829750879550505050505092915050565b6000602082019050818103600083015261197281846118e3565b905092915050565b60008083601f8401126119905761198f6116ca565b5b8235905067ffffffffffffffff8111156119ad576119ac6116cf565b5b6020830191508360208202830111156119c9576119c86116d4565b5b9250929050565b6119d981611696565b81146119e457600080fd5b50565b6000813590506119f6816119d0565b92915050565b600080600080600060608688031215611a1857611a176115d1565b5b600086013567ffffffffffffffff811115611a3657611a356115d6565b5b611a428882890161197a565b95509550506020611a55888289016119e7565b935050604086013567ffffffffffffffff811115611a7657611a756115d6565b5b611a828882890161172f565b92509250509295509295909350565b60008060008060608587031215611aab57611aaa6115d1565b5b6000611ab9878288016119e7565b9450506020611aca878288016119e7565b935050604085013567ffffffffffffffff811115611aeb57611aea6115d6565b5b611af78782880161172f565b925092505092959194509250565b600080fd5b600060808284031215611b2057611b1f611b05565b5b81905092915050565b600080600060408486031215611b4257611b416115d1565b5b600084013567ffffffffffffffff811115611b6057611b5f6115d6565b5b611b6c86828701611b0a565b935050602084013567ffffffffffffffff811115611b8d57611b8c6115d6565b5b611b998682870161172f565b92509250509250925092565b600082825260208201905092915050565b6000611bc182611832565b611bcb8185611ba5565b9350611bdb81856020860161184e565b611be481611878565b840191505092915050565b60006020820190508181036000830152611c098184611bb6565b905092915050565b60008083601f840112611c2757611c266116ca565b5b8235905067ffffffffffffffff811115611c4457611c436116cf565b5b602083019150836020820283011115611c6057611c5f6116d4565b5b9250929050565b60008060008060008060006080888a031215611c8657611c856115d1565b5b600088013567ffffffffffffffff811115611ca457611ca36115d6565b5b611cb08a828b0161197a565b9750975050602088013567ffffffffffffffff811115611cd357611cd26115d6565b5b611cdf8a828b01611c11565b95509550506040611cf28a828b016119e7565b935050606088013567ffffffffffffffff811115611d1357611d126115d6565b5b611d1f8a828b0161172f565b925092505092959891949750929550565b600073ffffffffffffffffffffffffffffffffffffffff82169050919050565b6000611d5b82611d30565b9050919050565b611d6b81611d50565b8114611d7657600080fd5b50565b600081359050611d8881611d62565b92915050565b600080600080600060808688031215611daa57611da96115d1565b5b6000611db888828901611d79565b9550506020611dc9888289016119e7565b9450506040611dda888289016119e7565b935050606086013567ffffffffffffffff811115611dfb57611dfa6115d6565b5b611e078882890161172f565b92509250509295509295909350565b600060208284031215611e2c57611e2b6115d1565b5b6000611e3a84828501611d79565b91505092915050565b600082825260208201905092915050565b6000819050919050565b6000611e6d6020840184611d79565b905092915050565b611e7e81611d50565b82525050565b6000611e9360208401846119e7565b905092915050565b611ea481611696565b82525050565b600080fd5b600080fd5b600080fd5b60008083356001602003843603038112611ed657611ed5611eb4565b5b83810192508235915060208301925067ffffffffffffffff821115611efe57611efd611eaa565b5b600182023603831315611f1457611f13611eaf565b5b509250929050565b82818337600083830152505050565b6000611f37838561183d565b9350611f44838584611f1c565b611f4d83611878565b840190509392505050565b600060808301611f6b6000840184611e5e565b611f786000860182611e75565b50611f866020840184611e84565b611f936020860182611e9b565b50611fa16040840184611e84565b611fae6040860182611e9b565b50611fbc6060840184611eb9565b8583036060870152611fcf838284611f2b565b925050508091505092915050565b6000611fe98383611f58565b905092915050565b60008235600160800383360303811261200d5761200c611eb4565b5b82810191505092915050565b6000602082019050919050565b60006120328385611e43565b93508360208402850161204484611e54565b8060005b8781101561208857848403895261205f8284611ff1565b6120698582611fdd565b945061207483612019565b925060208a01995050600181019050612048565b50829750879450505050509392505050565b600060408201905081810360008301526120b5818587612026565b90506120c460208301846116a0565b949350505050565b7f4e487b7100000000000000000000000000000000000000000000000000000000600052604160045260246000fd5b61210482611878565b810181811067ffffffffffffffff82111715612123576121226120cc565b5b80604052505050565b60006121366115c7565b905061214282826120fb565b919050565b600067ffffffffffffffff821115612162576121616120cc565b5b602082029050602081019050919050565b600080fd5b600067ffffffffffffffff821115612193576121926120cc565b5b61219c82611878565b9050602081019050919050565b60006121bc6121b784612178565b61212c565b9050828152602081018484840111156121d8576121d7612173565b5b6121e3848285611f1c565b509392505050565b600082601f830112612200576121ff6116ca565b5b81356122108482602086016121a9565b91505092915050565b600061222c61222784612147565b61212c565b9050808382526020820190506020840283018581111561224f5761224e6116d4565b5b835b8181101561229657803567ffffffffffffffff811115612274576122736116ca565b5b80860161228189826121eb565b85526020850194505050602081019050612251565b5050509392505050565b60006122ad368484612219565b905092915050565b600081519050919050565b600082825260208201905092915050565b60006122dc826122b5565b6122e681856122c0565b93506122f681856020860161184e565b6122ff81611878565b840191505092915050565b6000602082019050818103600083015261232481846122d1565b905092915050565b7f4e487b7100000000000000000000000000000000000000000000000000000000600052603260045260246000fd5b600080fd5b600080fd5b600080fd5b600080833560016020038436030381126123875761238661235b565b5b80840192508235915067ffffffffffffffff8211156123a9576123a8612360565b5b6020830192506001820236038313156123c5576123c4612365565b5b509250929050565b600081905092915050565b60006123e483856123cd565b93506123f1838584611f1c565b82840190509392505050565b600061240a8284866123d8565b91508190509392505050565b7f4e487b7100000000000000000000000000000000000000000000000000000000600052601160045260246000fd5b600061245082611696565b91507fffffffffffffffffffffffffffffffffffffffffffffffffffffffffffffffff820361248257612481612416565b5b600182019050919050565b6000823560016080038336030381126124a9576124a861235b565b5b80830191505092915050565b600082825260208201905092915050565b6000819050919050565b60006124dc8383611e75565b60208301905092915050565b6000602082019050919050565b600061250183856124b5565b935061250c826124c6565b8060005b85811015612545576125228284611e5e565b61252c88826124d0565b9750612537836124e8565b925050600181019050612510565b5085925050509392505050565b6000606082019050818103600083015261256d8186886124f5565b905061257c60208301856116a0565b61258960408301846116a0565b95945050505050565b60006060820190506125a760008301866116a0565b6125b460208301856116a0565b6125c160408301846116a0565b949350505050565b7f496e76616c6964207468726573686f6c64000000000000000000000000000000600082015250565b60006125ff6011836122c0565b915061260a826125c9565b602082019050919050565b6000602082019050818103600083015261262e816125f2565b9050919050565b6000608083016126486000840184611e5e565b6126556000860182611e75565b506126636020840184611e84565b6126706020860182611e9b565b5061267e6040840184611e84565b61268b6040860182611e9b565b506126996060840184611eb9565b85830360608701526126ac838284611f2b565b925050508091505092915050565b600060408201905081810360008301526126d48185612635565b90506126e360208301846116a0565b9392505050565b600082825260208201905092915050565b600080fd5b82818337505050565b600061271583856126ea565b93507f07ffffffffffffffffffffffffffffffffffffffffffffffffffffffffffffff831115612748576127476126fb565b5b602083029250612759838584612700565b82840190509392505050565b6000608082019050818103600083015261278081888a6124f5565b90508181036020830152612795818688612709565b90506127a460408301856116a0565b6127b160608301846116a0565b979650505050505050565b6127c581611d50565b82525050565b60006080820190506127e060008301876127bc565b6127ed60208301866116a0565b6127fa60408301856116a0565b61280760608301846116a0565b95945050505050565b600061281b82611696565b915061282683611696565b925082820390508181111561283e5761283d612416565b5b92915050565b600061284f82611696565b915061285a83611696565b925082820190508082111561287257612871612416565b5b92915050565b7f5468726573686f6c6420776f756c6420626520696d706f737369626c65000000600082015250565b60006128ae601d836122c0565b91506128b982612878565b602082019050919050565b600060208201905081810360008301526128dd816128a1565b9050919050565b600081905092915050565b7f19457468657265756d205369676e6564204d6573736167653a0a333200000000600082015250565b6000612925601c836128e4565b9150612930826128ef565b601c82019050919050565b6000819050919050565b6000819050919050565b61296061295b8261293b565b612945565b82525050565b600061297182612918565b915061297d828461294f565b60208201915081905092915050565b7f4e487b7100000000000000000000000000000000000000000000000000000000600052602160045260246000fd5b7f45434453413a20696e76616c6964207369676e61747572650000000000000000600082015250565b60006129f16018836122c0565b91506129fc826129bb565b602082019050919050565b60006020820190508181036000830152612a20816129e4565b9050919050565b7f45434453413a20696e76616c6964207369676e6174757265206c656e67746800600082015250565b6000612a5d601f836122c0565b9150612a6882612a27565b602082019050919050565b60006020820190508181036000830152612a8c81612a50565b9050919050565b7f45434453413a20696e76616c6964207369676e6174757265202773272076616c60008201527f7565000000000000000000000000000000000000000000000000000000000000602082015250565b6000612aef6022836122c0565b9150612afa82612a93565b604082019050919050565b60006020820190508181036000830152612b1e81612ae2565b9050919050565b612b2e8161293b565b82525050565b600060ff82169050919050565b612b4a81612b34565b82525050565b6000608082019050612b656000830187612b25565b612b726020830186612b41565b612b7f6040830185612b25565b612b8c6060830184612b25565b9594505050505056fe5369676e6572207765696768747320646f6573206e6f74206d656574207468726573686f6c644174206c65617374206f6e65207369676e6174757265206e6f742066726f6d2061206b6e6f776e20636f6e74726f6c6c65724174206c65617374206f6e65207369676e617475726520616c72656164792075736564a26469706673582212201cddf2f5d55fe3cdaabfb3f0e87f5969d9e493d6dd6cb13bd419d57393f2327864736f6c63430008120033",
					"opcodes": "PUSH1 0x80 PUSH1 0x40 MSTORE CALLVALUE DUP1 ISZERO PUSH2 0x10 JUMPI PUSH1 0x0 DUP1 REVERT JUMPDEST POP PUSH2 0x2C46 DUP1 PUSH2 0x20 PUSH1 0x0 CODECOPY PUSH1 0x0 RETURN INVALID PUSH1 0x80 PUSH1 0x40 MSTORE CALLVALUE DUP1 ISZERO PUSH2 0x10 JUMPI PUSH1 0x0 DUP1 REVERT JUMPDEST POP PUSH1 0x4 CALLDATASIZE LT PUSH2 0x9E JUMPI PUSH1 0x0 CALLDATALOAD PUSH1 0xE0 SHR DUP1 PUSH4 0xA3E8D51E GT PUSH2 0x66 JUMPI DUP1 PUSH4 0xA3E8D51E EQ PUSH2 0x159 JUMPI DUP1 PUSH4 0xA7865090 EQ PUSH2 0x189 JUMPI DUP1 PUSH4 0xAF915498 EQ PUSH2 0x1A7 JUMPI DUP1 PUSH4 0xD0BCCEA1 EQ PUSH2 0x1C3 JUMPI DUP1 PUSH4 0xF04420F1 EQ PUSH2 0x1DF JUMPI PUSH2 0x9E JUMP JUMPDEST DUP1 PUSH4 0x1FFC9A7 EQ PUSH2 0xA3 JUMPI DUP1 PUSH4 0x6E82383 EQ PUSH2 0xD3 JUMPI DUP1 PUSH4 0xD992B2B EQ PUSH2 0xF1 JUMPI DUP1 PUSH4 0x286936BB EQ PUSH2 0x121 JUMPI DUP1 PUSH4 0x87F949B4 EQ PUSH2 0x13D JUMPI JUMPDEST PUSH1 0x0 DUP1 REVERT JUMPDEST PUSH2 0xBD PUSH1 0x4 DUP1 CALLDATASIZE SUB DUP2 ADD SWAP1 PUSH2 0xB8 SWAP2 SWAP1 PUSH2 0x1633 JUMP JUMPDEST PUSH2 0x20F JUMP JUMPDEST PUSH1 0x40 MLOAD PUSH2 0xCA SWAP2 SWAP1 PUSH2 0x167B JUMP JUMPDEST PUSH1 0x40 MLOAD DUP1 SWAP2 SUB SWAP1 RETURN JUMPDEST PUSH2 0xDB PUSH2 0x290 JUMP JUMPDEST PUSH1 0x40 MLOAD PUSH2 0xE8 SWAP2 SWAP1 PUSH2 0x16AF JUMP JUMPDEST PUSH1 0x40 MLOAD DUP1 SWAP2 SUB SWAP1 RETURN JUMPDEST PUSH2 0x10B PUSH1 0x4 DUP1 CALLDATASIZE SUB DUP2 ADD SWAP1 PUSH2 0x106 SWAP2 SWAP1 PUSH2 0x1785 JUMP JUMPDEST PUSH2 0x2A3 JUMP JUMPDEST PUSH1 0x40 MLOAD PUSH2 0x118 SWAP2 SWAP1 PUSH2 0x1958 JUMP JUMPDEST PUSH1 0x40 MLOAD DUP1 SWAP2 SUB SWAP1 RETURN JUMPDEST PUSH2 0x13B PUSH1 0x4 DUP1 CALLDATASIZE SUB DUP2 ADD SWAP1 PUSH2 0x136 SWAP2 SWAP1 PUSH2 0x19FC JUMP JUMPDEST PUSH2 0x497 JUMP JUMPDEST STOP JUMPDEST PUSH2 0x157 PUSH1 0x4 DUP1 CALLDATASIZE SUB DUP2 ADD SWAP1 PUSH2 0x152 SWAP2 SWAP1 PUSH2 0x1A91 JUMP JUMPDEST PUSH2 0x616 JUMP JUMPDEST STOP JUMPDEST PUSH2 0x173 PUSH1 0x4 DUP1 CALLDATASIZE SUB DUP2 ADD SWAP1 PUSH2 0x16E SWAP2 SWAP1 PUSH2 0x1B29 JUMP JUMPDEST PUSH2 0x7C0 JUMP JUMPDEST PUSH1 0x40 MLOAD PUSH2 0x180 SWAP2 SWAP1 PUSH2 0x1BEF JUMP JUMPDEST PUSH1 0x40 MLOAD DUP1 SWAP2 SUB SWAP1 RETURN JUMPDEST PUSH2 0x191 PUSH2 0x8F6 JUMP JUMPDEST PUSH1 0x40 MLOAD PUSH2 0x19E SWAP2 SWAP1 PUSH2 0x16AF JUMP JUMPDEST PUSH1 0x40 MLOAD DUP1 SWAP2 SUB SWAP1 RETURN JUMPDEST PUSH2 0x1C1 PUSH1 0x4 DUP1 CALLDATASIZE SUB DUP2 ADD SWAP1 PUSH2 0x1BC SWAP2 SWAP1 PUSH2 0x1C67 JUMP JUMPDEST PUSH2 0x909 JUMP JUMPDEST STOP JUMPDEST PUSH2 0x1DD PUSH1 0x4 DUP1 CALLDATASIZE SUB DUP2 ADD SWAP1 PUSH2 0x1D8 SWAP2 SWAP1 PUSH2 0x1D8E JUMP JUMPDEST PUSH2 0xAA8 JUMP JUMPDEST STOP JUMPDEST PUSH2 0x1F9 PUSH1 0x4 DUP1 CALLDATASIZE SUB DUP2 ADD SWAP1 PUSH2 0x1F4 SWAP2 SWAP1 PUSH2 0x1E16 JUMP JUMPDEST PUSH2 0xD0B JUMP JUMPDEST PUSH1 0x40 MLOAD PUSH2 0x206 SWAP2 SWAP1 PUSH2 0x16AF JUMP JUMPDEST PUSH1 0x40 MLOAD DUP1 SWAP2 SUB SWAP1 RETURN JUMPDEST PUSH1 0x0 PUSH32 0xAE71FE3500000000000000000000000000000000000000000000000000000000 PUSH28 0xFFFFFFFFFFFFFFFFFFFFFFFFFFFFFFFFFFFFFFFFFFFFFFFFFFFFFFFF NOT AND DUP3 PUSH28 0xFFFFFFFFFFFFFFFFFFFFFFFFFFFFFFFFFFFFFFFFFFFFFFFFFFFFFFFF NOT AND SUB PUSH2 0x27F JUMPI PUSH1 0x1 SWAP1 POP PUSH2 0x28B JUMP JUMPDEST PUSH2 0x288 DUP3 PUSH2 0xD5D JUMP JUMPDEST SWAP1 POP JUMPDEST SWAP2 SWAP1 POP JUMP JUMPDEST PUSH1 0x0 PUSH2 0x29A PUSH2 0xDDE JUMP JUMPDEST PUSH1 0x1 ADD SLOAD SWAP1 POP SWAP1 JUMP JUMPDEST PUSH1 0x60 DUP5 DUP5 CHAINID PUSH1 0x40 MLOAD PUSH1 0x20 ADD PUSH2 0x2BA SWAP4 SWAP3 SWAP2 SWAP1 PUSH2 0x209A JUMP JUMPDEST PUSH1 0x40 MLOAD PUSH1 0x20 DUP2 DUP4 SUB SUB DUP2 MSTORE SWAP1 PUSH1 0x40 MSTORE DUP1 MLOAD SWAP1 PUSH1 0x20 ADD KECCAK256 DUP4 DUP4 PUSH1 0x0 DUP1 PUSH2 0x2EB DUP6 DUP6 DUP6 SWAP1 PUSH2 0x2E6 SWAP2 SWAP1 PUSH2 0x22A0 JUMP JUMPDEST PUSH2 0xE0B JUMP JUMPDEST SWAP2 POP SWAP2 POP DUP2 DUP2 SWAP1 PUSH2 0x332 JUMPI PUSH1 0x40 MLOAD PUSH32 0x8C379A000000000000000000000000000000000000000000000000000000000 DUP2 MSTORE PUSH1 0x4 ADD PUSH2 0x329 SWAP2 SWAP1 PUSH2 0x230A JUMP JUMPDEST PUSH1 0x40 MLOAD DUP1 SWAP2 SUB SWAP1 REVERT JUMPDEST POP PUSH1 0x0 JUMPDEST DUP5 DUP5 SWAP1 POP DUP2 LT ISZERO PUSH2 0x3C3 JUMPI PUSH1 0x1 PUSH2 0x34B PUSH2 0xDDE JUMP JUMPDEST PUSH1 0x3 ADD PUSH1 0x0 DUP8 DUP8 DUP6 DUP2 DUP2 LT PUSH2 0x363 JUMPI PUSH2 0x362 PUSH2 0x232C JUMP JUMPDEST JUMPDEST SWAP1 POP PUSH1 0x20 MUL DUP2 ADD SWAP1 PUSH2 0x375 SWAP2 SWAP1 PUSH2 0x236A JUMP JUMPDEST PUSH1 0x40 MLOAD PUSH2 0x383 SWAP3 SWAP2 SWAP1 PUSH2 0x23FD JUMP JUMPDEST PUSH1 0x40 MLOAD DUP1 SWAP2 SUB SWAP1 KECCAK256 DUP2 MSTORE PUSH1 0x20 ADD SWAP1 DUP2 MSTORE PUSH1 0x20 ADD PUSH1 0x0 KECCAK256 PUSH1 0x0 PUSH2 0x100 EXP DUP2 SLOAD DUP2 PUSH1 0xFF MUL NOT AND SWAP1 DUP4 ISZERO ISZERO MUL OR SWAP1 SSTORE POP DUP1 DUP1 PUSH2 0x3BB SWAP1 PUSH2 0x2445 JUMP JUMPDEST SWAP2 POP POP PUSH2 0x336 JUMP JUMPDEST POP PUSH1 0x0 DUP11 DUP11 SWAP1 POP PUSH8 0xFFFFFFFFFFFFFFFF DUP2 GT ISZERO PUSH2 0x3E3 JUMPI PUSH2 0x3E2 PUSH2 0x20CC JUMP JUMPDEST JUMPDEST PUSH1 0x40 MLOAD SWAP1 DUP1 DUP3 MSTORE DUP1 PUSH1 0x20 MUL PUSH1 0x20 ADD DUP3 ADD PUSH1 0x40 MSTORE DUP1 ISZERO PUSH2 0x416 JUMPI DUP2 PUSH1 0x20 ADD JUMPDEST PUSH1 0x60 DUP2 MSTORE PUSH1 0x20 ADD SWAP1 PUSH1 0x1 SWAP1 SUB SWAP1 DUP2 PUSH2 0x401 JUMPI SWAP1 POP JUMPDEST POP SWAP1 POP PUSH1 0x0 JUMPDEST DUP12 DUP12 SWAP1 POP DUP2 LT ISZERO PUSH2 0x485 JUMPI PUSH2 0x454 DUP13 DUP13 DUP4 DUP2 DUP2 LT PUSH2 0x43D JUMPI PUSH2 0x43C PUSH2 0x232C JUMP JUMPDEST JUMPDEST SWAP1 POP PUSH1 0x20 MUL DUP2 ADD SWAP1 PUSH2 0x44F SWAP2 SWAP1 PUSH2 0x248D JUMP JUMPDEST PUSH2 0xFFB JUMP JUMPDEST DUP3 DUP3 DUP2 MLOAD DUP2 LT PUSH2 0x467 JUMPI PUSH2 0x466 PUSH2 0x232C JUMP JUMPDEST JUMPDEST PUSH1 0x20 MUL PUSH1 0x20 ADD ADD DUP2 SWAP1 MSTORE POP DUP1 DUP1 PUSH2 0x47D SWAP1 PUSH2 0x2445 JUMP JUMPDEST SWAP2 POP POP PUSH2 0x41C JUMP JUMPDEST POP DUP1 SWAP7 POP POP POP POP POP POP POP SWAP5 SWAP4 POP POP POP POP JUMP JUMPDEST DUP5 DUP5 DUP5 CHAINID PUSH1 0x40 MLOAD PUSH1 0x20 ADD PUSH2 0x4AE SWAP5 SWAP4 SWAP3 SWAP2 SWAP1 PUSH2 0x2552 JUMP JUMPDEST PUSH1 0x40 MLOAD PUSH1 0x20 DUP2 DUP4 SUB SUB DUP2 MSTORE SWAP1 PUSH1 0x40 MSTORE DUP1 MLOAD SWAP1 PUSH1 0x20 ADD KECCAK256 DUP3 DUP3 PUSH1 0x0 DUP1 PUSH2 0x4DF DUP6 DUP6 DUP6 SWAP1 PUSH2 0x4DA SWAP2 SWAP1 PUSH2 0x22A0 JUMP JUMPDEST PUSH2 0xE0B JUMP JUMPDEST SWAP2 POP SWAP2 POP DUP2 DUP2 SWAP1 PUSH2 0x526 JUMPI PUSH1 0x40 MLOAD PUSH32 0x8C379A000000000000000000000000000000000000000000000000000000000 DUP2 MSTORE PUSH1 0x4 ADD PUSH2 0x51D SWAP2 SWAP1 PUSH2 0x230A JUMP JUMPDEST PUSH1 0x40 MLOAD DUP1 SWAP2 SUB SWAP1 REVERT JUMPDEST POP PUSH1 0x0 JUMPDEST DUP5 DUP5 SWAP1 POP DUP2 LT ISZERO PUSH2 0x5B7 JUMPI PUSH1 0x1 PUSH2 0x53F PUSH2 0xDDE JUMP JUMPDEST PUSH1 0x3 ADD PUSH1 0x0 DUP8 DUP8 DUP6 DUP2 DUP2 LT PUSH2 0x557 JUMPI PUSH2 0x556 PUSH2 0x232C JUMP JUMPDEST JUMPDEST SWAP1 POP PUSH1 0x20 MUL DUP2 ADD SWAP1 PUSH2 0x569 SWAP2 SWAP1 PUSH2 0x236A JUMP JUMPDEST PUSH1 0x40 MLOAD PUSH2 0x577 SWAP3 SWAP2 SWAP1 PUSH2 0x23FD JUMP JUMPDEST PUSH1 0x40 MLOAD DUP1 SWAP2 SUB SWAP1 KECCAK256 DUP2 MSTORE PUSH1 0x20 ADD SWAP1 DUP2 MSTORE PUSH1 0x20 ADD PUSH1 0x0 KECCAK256 PUSH1 0x0 PUSH2 0x100 EXP DUP2 SLOAD DUP2 PUSH1 0xFF MUL NOT AND SWAP1 DUP4 ISZERO ISZERO MUL OR SWAP1 SSTORE POP DUP1 DUP1 PUSH2 0x5AF SWAP1 PUSH2 0x2445 JUMP JUMPDEST SWAP2 POP POP PUSH2 0x52A JUMP JUMPDEST POP PUSH1 0x0 JUMPDEST DUP11 DUP11 SWAP1 POP DUP2 LT ISZERO PUSH2 0x609 JUMPI PUSH2 0x5F6 DUP12 DUP12 DUP4 DUP2 DUP2 LT PUSH2 0x5DC JUMPI PUSH2 0x5DB PUSH2 0x232C JUMP JUMPDEST JUMPDEST SWAP1 POP PUSH1 0x20 MUL ADD PUSH1 0x20 DUP2 ADD SWAP1 PUSH2 0x5F1 SWAP2 SWAP1 PUSH2 0x1E16 JUMP JUMPDEST PUSH2 0x10AA JUMP JUMPDEST DUP1 DUP1 PUSH2 0x601 SWAP1 PUSH2 0x2445 JUMP JUMPDEST SWAP2 POP POP PUSH2 0x5BB JUMP JUMPDEST POP POP POP POP POP POP POP POP POP POP POP JUMP JUMPDEST DUP4 DUP4 CHAINID PUSH1 0x40 MLOAD PUSH1 0x20 ADD PUSH2 0x62B SWAP4 SWAP3 SWAP2 SWAP1 PUSH2 0x2592 JUMP JUMPDEST PUSH1 0x40 MLOAD PUSH1 0x20 DUP2 DUP4 SUB SUB DUP2 MSTORE SWAP1 PUSH1 0x40 MSTORE DUP1 MLOAD SWAP1 PUSH1 0x20 ADD KECCAK256 DUP3 DUP3 PUSH1 0x0 DUP1 PUSH2 0x65C DUP6 DUP6 DUP6 SWAP1 PUSH2 0x657 SWAP2 SWAP1 PUSH2 0x22A0 JUMP JUMPDEST PUSH2 0xE0B JUMP JUMPDEST SWAP2 POP SWAP2 POP DUP2 DUP2 SWAP1 PUSH2 0x6A3 JUMPI PUSH1 0x40 MLOAD PUSH32 0x8C379A000000000000000000000000000000000000000000000000000000000 DUP2 MSTORE PUSH1 0x4 ADD PUSH2 0x69A SWAP2 SWAP1 PUSH2 0x230A JUMP JUMPDEST PUSH1 0x40 MLOAD DUP1 SWAP2 SUB SWAP1 REVERT JUMPDEST POP PUSH1 0x0 JUMPDEST DUP5 DUP5 SWAP1 POP DUP2 LT ISZERO PUSH2 0x734 JUMPI PUSH1 0x1 PUSH2 0x6BC PUSH2 0xDDE JUMP JUMPDEST PUSH1 0x3 ADD PUSH1 0x0 DUP8 DUP8 DUP6 DUP2 DUP2 LT PUSH2 0x6D4 JUMPI PUSH2 0x6D3 PUSH2 0x232C JUMP JUMPDEST JUMPDEST SWAP1 POP PUSH1 0x20 MUL DUP2 ADD SWAP1 PUSH2 0x6E6 SWAP2 SWAP1 PUSH2 0x236A JUMP JUMPDEST PUSH1 0x40 MLOAD PUSH2 0x6F4 SWAP3 SWAP2 SWAP1 PUSH2 0x23FD JUMP JUMPDEST PUSH1 0x40 MLOAD DUP1 SWAP2 SUB SWAP1 KECCAK256 DUP2 MSTORE PUSH1 0x20 ADD SWAP1 DUP2 MSTORE PUSH1 0x20 ADD PUSH1 0x0 KECCAK256 PUSH1 0x0 PUSH2 0x100 EXP DUP2 SLOAD DUP2 PUSH1 0xFF MUL NOT AND SWAP1 DUP4 ISZERO ISZERO MUL OR SWAP1 SSTORE POP DUP1 DUP1 PUSH2 0x72C SWAP1 PUSH2 0x2445 JUMP JUMPDEST SWAP2 POP POP PUSH2 0x6A7 JUMP JUMPDEST POP PUSH1 0x0 PUSH2 0x73F PUSH2 0xDDE JUMP JUMPDEST PUSH1 0x0 ADD SLOAD GT DUP1 ISZERO PUSH2 0x766 JUMPI POP PUSH2 0x753 PUSH2 0xDDE JUMP JUMPDEST PUSH1 0x1 ADD SLOAD PUSH2 0x75F PUSH2 0xDDE JUMP JUMPDEST PUSH1 0x0 ADD SLOAD GT ISZERO JUMPDEST PUSH2 0x7A5 JUMPI PUSH1 0x40 MLOAD PUSH32 0x8C379A000000000000000000000000000000000000000000000000000000000 DUP2 MSTORE PUSH1 0x4 ADD PUSH2 0x79C SWAP1 PUSH2 0x2615 JUMP JUMPDEST PUSH1 0x40 MLOAD DUP1 SWAP2 SUB SWAP1 REVERT JUMPDEST DUP9 PUSH2 0x7AE PUSH2 0xDDE JUMP JUMPDEST PUSH1 0x0 ADD DUP2 SWAP1 SSTORE POP POP POP POP POP POP POP POP POP POP JUMP JUMPDEST PUSH1 0x60 DUP4 CHAINID PUSH1 0x40 MLOAD PUSH1 0x20 ADD PUSH2 0x7D5 SWAP3 SWAP2 SWAP1 PUSH2 0x26BA JUMP JUMPDEST PUSH1 0x40 MLOAD PUSH1 0x20 DUP2 DUP4 SUB SUB DUP2 MSTORE SWAP1 PUSH1 0x40 MSTORE DUP1 MLOAD SWAP1 PUSH1 0x20 ADD KECCAK256 DUP4 DUP4 PUSH1 0x0 DUP1 PUSH2 0x806 DUP6 DUP6 DUP6 SWAP1 PUSH2 0x801 SWAP2 SWAP1 PUSH2 0x22A0 JUMP JUMPDEST PUSH2 0xE0B JUMP JUMPDEST SWAP2 POP SWAP2 POP DUP2 DUP2 SWAP1 PUSH2 0x84D JUMPI PUSH1 0x40 MLOAD PUSH32 0x8C379A000000000000000000000000000000000000000000000000000000000 DUP2 MSTORE PUSH1 0x4 ADD PUSH2 0x844 SWAP2 SWAP1 PUSH2 0x230A JUMP JUMPDEST PUSH1 0x40 MLOAD DUP1 SWAP2 SUB SWAP1 REVERT JUMPDEST POP PUSH1 0x0 JUMPDEST DUP5 DUP5 SWAP1 POP DUP2 LT ISZERO PUSH2 0x8DE JUMPI PUSH1 0x1 PUSH2 0x866 PUSH2 0xDDE JUMP JUMPDEST PUSH1 0x3 ADD PUSH1 0x0 DUP8 DUP8 DUP6 DUP2 DUP2 LT PUSH2 0x87E JUMPI PUSH2 0x87D PUSH2 0x232C JUMP JUMPDEST JUMPDEST SWAP1 POP PUSH1 0x20 MUL DUP2 ADD SWAP1 PUSH2 0x890 SWAP2 SWAP1 PUSH2 0x236A JUMP JUMPDEST PUSH1 0x40 MLOAD PUSH2 0x89E SWAP3 SWAP2 SWAP1 PUSH2 0x23FD JUMP JUMPDEST PUSH1 0x40 MLOAD DUP1 SWAP2 SUB SWAP1 KECCAK256 DUP2 MSTORE PUSH1 0x20 ADD SWAP1 DUP2 MSTORE PUSH1 0x20 ADD PUSH1 0x0 KECCAK256 PUSH1 0x0 PUSH2 0x100 EXP DUP2 SLOAD DUP2 PUSH1 0xFF MUL NOT AND SWAP1 DUP4 ISZERO ISZERO MUL OR SWAP1 SSTORE POP DUP1 DUP1 PUSH2 0x8D6 SWAP1 PUSH2 0x2445 JUMP JUMPDEST SWAP2 POP POP PUSH2 0x851 JUMP JUMPDEST POP PUSH2 0x8E8 DUP10 PUSH2 0xFFB JUMP JUMPDEST SWAP6 POP POP POP POP POP POP SWAP4 SWAP3 POP POP POP JUMP JUMPDEST PUSH1 0x0 PUSH2 0x900 PUSH2 0xDDE JUMP JUMPDEST PUSH1 0x0 ADD SLOAD SWAP1 POP SWAP1 JUMP JUMPDEST DUP7 DUP7 DUP7 DUP7 DUP7 CHAINID PUSH1 0x40 MLOAD PUSH1 0x20 ADD PUSH2 0x924 SWAP7 SWAP6 SWAP5 SWAP4 SWAP3 SWAP2 SWAP1 PUSH2 0x2765 JUMP JUMPDEST PUSH1 0x40 MLOAD PUSH1 0x20 DUP2 DUP4 SUB SUB DUP2 MSTORE SWAP1 PUSH1 0x40 MSTORE DUP1 MLOAD SWAP1 PUSH1 0x20 ADD KECCAK256 DUP3 DUP3 PUSH1 0x0 DUP1 PUSH2 0x955 DUP6 DUP6 DUP6 SWAP1 PUSH2 0x950 SWAP2 SWAP1 PUSH2 0x22A0 JUMP JUMPDEST PUSH2 0xE0B JUMP JUMPDEST SWAP2 POP SWAP2 POP DUP2 DUP2 SWAP1 PUSH2 0x99C JUMPI PUSH1 0x40 MLOAD PUSH32 0x8C379A000000000000000000000000000000000000000000000000000000000 DUP2 MSTORE PUSH1 0x4 ADD PUSH2 0x993 SWAP2 SWAP1 PUSH2 0x230A JUMP JUMPDEST PUSH1 0x40 MLOAD DUP1 SWAP2 SUB SWAP1 REVERT JUMPDEST POP PUSH1 0x0 JUMPDEST DUP5 DUP5 SWAP1 POP DUP2 LT ISZERO PUSH2 0xA2D JUMPI PUSH1 0x1 PUSH2 0x9B5 PUSH2 0xDDE JUMP JUMPDEST PUSH1 0x3 ADD PUSH1 0x0 DUP8 DUP8 DUP6 DUP2 DUP2 LT PUSH2 0x9CD JUMPI PUSH2 0x9CC PUSH2 0x232C JUMP JUMPDEST JUMPDEST SWAP1 POP PUSH1 0x20 MUL DUP2 ADD SWAP1 PUSH2 0x9DF SWAP2 SWAP1 PUSH2 0x236A JUMP JUMPDEST PUSH1 0x40 MLOAD PUSH2 0x9ED SWAP3 SWAP2 SWAP1 PUSH2 0x23FD JUMP JUMPDEST PUSH1 0x40 MLOAD DUP1 SWAP2 SUB SWAP1 KECCAK256 DUP2 MSTORE PUSH1 0x20 ADD SWAP1 DUP2 MSTORE PUSH1 0x20 ADD PUSH1 0x0 KECCAK256 PUSH1 0x0 PUSH2 0x100 EXP DUP2 SLOAD DUP2 PUSH1 0xFF MUL NOT AND SWAP1 DUP4 ISZERO ISZERO MUL OR SWAP1 SSTORE POP DUP1 DUP1 PUSH2 0xA25 SWAP1 PUSH2 0x2445 JUMP JUMPDEST SWAP2 POP POP PUSH2 0x9A0 JUMP JUMPDEST POP PUSH1 0x0 JUMPDEST DUP13 DUP13 SWAP1 POP DUP2 LT ISZERO PUSH2 0xA99 JUMPI PUSH2 0xA86 DUP14 DUP14 DUP4 DUP2 DUP2 LT PUSH2 0xA52 JUMPI PUSH2 0xA51 PUSH2 0x232C JUMP JUMPDEST JUMPDEST SWAP1 POP PUSH1 0x20 MUL ADD PUSH1 0x20 DUP2 ADD SWAP1 PUSH2 0xA67 SWAP2 SWAP1 PUSH2 0x1E16 JUMP JUMPDEST DUP13 DUP13 DUP5 DUP2 DUP2 LT PUSH2 0xA7A JUMPI PUSH2 0xA79 PUSH2 0x232C JUMP JUMPDEST JUMPDEST SWAP1 POP PUSH1 0x20 MUL ADD CALLDATALOAD PUSH2 0x11D5 JUMP JUMPDEST DUP1 DUP1 PUSH2 0xA91 SWAP1 PUSH2 0x2445 JUMP JUMPDEST SWAP2 POP POP PUSH2 0xA31 JUMP JUMPDEST POP POP POP POP POP POP POP POP POP POP POP POP POP JUMP JUMPDEST DUP5 DUP5 DUP5 CHAINID PUSH1 0x40 MLOAD PUSH1 0x20 ADD PUSH2 0xABF SWAP5 SWAP4 SWAP3 SWAP2 SWAP1 PUSH2 0x27CB JUMP JUMPDEST PUSH1 0x40 MLOAD PUSH1 0x20 DUP2 DUP4 SUB SUB DUP2 MSTORE SWAP1 PUSH1 0x40 MSTORE DUP1 MLOAD SWAP1 PUSH1 0x20 ADD KECCAK256 DUP3 DUP3 PUSH1 0x0 DUP1 PUSH2 0xAF0 DUP6 DUP6 DUP6 SWAP1 PUSH2 0xAEB SWAP2 SWAP1 PUSH2 0x22A0 JUMP JUMPDEST PUSH2 0xE0B JUMP JUMPDEST SWAP2 POP SWAP2 POP DUP2 DUP2 SWAP1 PUSH2 0xB37 JUMPI PUSH1 0x40 MLOAD PUSH32 0x8C379A000000000000000000000000000000000000000000000000000000000 DUP2 MSTORE PUSH1 0x4 ADD PUSH2 0xB2E SWAP2 SWAP1 PUSH2 0x230A JUMP JUMPDEST PUSH1 0x40 MLOAD DUP1 SWAP2 SUB SWAP1 REVERT JUMPDEST POP PUSH1 0x0 JUMPDEST DUP5 DUP5 SWAP1 POP DUP2 LT ISZERO PUSH2 0xBC8 JUMPI PUSH1 0x1 PUSH2 0xB50 PUSH2 0xDDE JUMP JUMPDEST PUSH1 0x3 ADD PUSH1 0x0 DUP8 DUP8 DUP6 DUP2 DUP2 LT PUSH2 0xB68 JUMPI PUSH2 0xB67 PUSH2 0x232C JUMP JUMPDEST JUMPDEST SWAP1 POP PUSH1 0x20 MUL DUP2 ADD SWAP1 PUSH2 0xB7A SWAP2 SWAP1 PUSH2 0x236A JUMP JUMPDEST PUSH1 0x40 MLOAD PUSH2 0xB88 SWAP3 SWAP2 SWAP1 PUSH2 0x23FD JUMP JUMPDEST PUSH1 0x40 MLOAD DUP1 SWAP2 SUB SWAP1 KECCAK256 DUP2 MSTORE PUSH1 0x20 ADD SWAP1 DUP2 MSTORE PUSH1 0x20 ADD PUSH1 0x0 KECCAK256 PUSH1 0x0 PUSH2 0x100 EXP DUP2 SLOAD DUP2 PUSH1 0xFF MUL NOT AND SWAP1 DUP4 ISZERO ISZERO MUL OR SWAP1 SSTORE POP DUP1 DUP1 PUSH2 0xBC0 SWAP1 PUSH2 0x2445 JUMP JUMPDEST SWAP2 POP POP PUSH2 0xB3B JUMP JUMPDEST POP DUP9 PUSH2 0xBD2 PUSH2 0xDDE JUMP JUMPDEST PUSH1 0x2 ADD PUSH1 0x0 DUP13 PUSH20 0xFFFFFFFFFFFFFFFFFFFFFFFFFFFFFFFFFFFFFFFF AND PUSH20 0xFFFFFFFFFFFFFFFFFFFFFFFFFFFFFFFFFFFFFFFF AND DUP2 MSTORE PUSH1 0x20 ADD SWAP1 DUP2 MSTORE PUSH1 0x20 ADD PUSH1 0x0 KECCAK256 SLOAD PUSH2 0xC1B PUSH2 0xDDE JUMP JUMPDEST PUSH1 0x1 ADD SLOAD PUSH2 0xC29 SWAP2 SWAP1 PUSH2 0x2810 JUMP JUMPDEST PUSH2 0xC33 SWAP2 SWAP1 PUSH2 0x2844 JUMP JUMPDEST PUSH2 0xC3B PUSH2 0xDDE JUMP JUMPDEST PUSH1 0x1 ADD DUP2 SWAP1 SSTORE POP PUSH1 0x0 PUSH2 0xC4C PUSH2 0xDDE JUMP JUMPDEST PUSH1 0x1 ADD SLOAD GT DUP1 ISZERO PUSH2 0xC73 JUMPI POP PUSH2 0xC60 PUSH2 0xDDE JUMP JUMPDEST PUSH1 0x0 ADD SLOAD PUSH2 0xC6C PUSH2 0xDDE JUMP JUMPDEST PUSH1 0x1 ADD SLOAD LT ISZERO JUMPDEST PUSH2 0xCB2 JUMPI PUSH1 0x40 MLOAD PUSH32 0x8C379A000000000000000000000000000000000000000000000000000000000 DUP2 MSTORE PUSH1 0x4 ADD PUSH2 0xCA9 SWAP1 PUSH2 0x28C4 JUMP JUMPDEST PUSH1 0x40 MLOAD DUP1 SWAP2 SUB SWAP1 REVERT JUMPDEST DUP9 PUSH2 0xCBB PUSH2 0xDDE JUMP JUMPDEST PUSH1 0x2 ADD PUSH1 0x0 DUP13 PUSH20 0xFFFFFFFFFFFFFFFFFFFFFFFFFFFFFFFFFFFFFFFF AND PUSH20 0xFFFFFFFFFFFFFFFFFFFFFFFFFFFFFFFFFFFFFFFF AND DUP2 MSTORE PUSH1 0x20 ADD SWAP1 DUP2 MSTORE PUSH1 0x20 ADD PUSH1 0x0 KECCAK256 DUP2 SWAP1 SSTORE POP POP POP POP POP POP POP POP POP POP POP JUMP JUMPDEST PUSH1 0x0 PUSH2 0xD15 PUSH2 0xDDE JUMP JUMPDEST PUSH1 0x2 ADD PUSH1 0x0 DUP4 PUSH20 0xFFFFFFFFFFFFFFFFFFFFFFFFFFFFFFFFFFFFFFFF AND PUSH20 0xFFFFFFFFFFFFFFFFFFFFFFFFFFFFFFFFFFFFFFFF AND DUP2 MSTORE PUSH1 0x20 ADD SWAP1 DUP2 MSTORE PUSH1 0x20 ADD PUSH1 0x0 KECCAK256 SLOAD SWAP1 POP SWAP2 SWAP1 POP JUMP JUMPDEST PUSH1 0x0 PUSH32 0x8197B6D400000000000000000000000000000000000000000000000000000000 PUSH28 0xFFFFFFFFFFFFFFFFFFFFFFFFFFFFFFFFFFFFFFFFFFFFFFFFFFFFFFFF NOT AND DUP3 PUSH28 0xFFFFFFFFFFFFFFFFFFFFFFFFFFFFFFFFFFFFFFFFFFFFFFFFFFFFFFFF NOT AND SUB PUSH2 0xDCD JUMPI PUSH1 0x1 SWAP1 POP PUSH2 0xDD9 JUMP JUMPDEST PUSH2 0xDD6 DUP3 PUSH2 0x1248 JUMP JUMPDEST SWAP1 POP JUMPDEST SWAP2 SWAP1 POP JUMP JUMPDEST PUSH1 0x0 DUP1 PUSH32 0x255F4A56BD3AD76424E31ED8855EF9AD14A0CE4E67508C76FF082E5C1466B12F SWAP1 POP DUP1 SWAP2 POP POP SWAP1 JUMP JUMPDEST PUSH1 0x0 PUSH1 0x60 PUSH1 0x0 DUP1 JUMPDEST DUP5 MLOAD DUP2 LT ISZERO PUSH2 0xFA3 JUMPI PUSH1 0x0 PUSH2 0xE42 DUP8 DUP8 DUP5 DUP2 MLOAD DUP2 LT PUSH2 0xE35 JUMPI PUSH2 0xE34 PUSH2 0x232C JUMP JUMPDEST JUMPDEST PUSH1 0x20 MUL PUSH1 0x20 ADD ADD MLOAD PUSH2 0x12B2 JUMP JUMPDEST SWAP1 POP PUSH1 0x0 PUSH2 0xE4E PUSH2 0xDDE JUMP JUMPDEST PUSH1 0x2 ADD PUSH1 0x0 DUP4 PUSH20 0xFFFFFFFFFFFFFFFFFFFFFFFFFFFFFFFFFFFFFFFF AND PUSH20 0xFFFFFFFFFFFFFFFFFFFFFFFFFFFFFFFFFFFFFFFF AND DUP2 MSTORE PUSH1 0x20 ADD SWAP1 DUP2 MSTORE PUSH1 0x20 ADD PUSH1 0x0 KECCAK256 SLOAD SUB PUSH2 0xEBB JUMPI PUSH1 0x0 PUSH1 0x40 MLOAD DUP1 PUSH1 0x60 ADD PUSH1 0x40 MSTORE DUP1 PUSH1 0x32 DUP2 MSTORE PUSH1 0x20 ADD PUSH2 0x2BBC PUSH1 0x32 SWAP2 CODECOPY SWAP5 POP SWAP5 POP POP POP POP PUSH2 0xFF4 JUMP JUMPDEST PUSH1 0x0 DUP7 DUP4 DUP2 MLOAD DUP2 LT PUSH2 0xED0 JUMPI PUSH2 0xECF PUSH2 0x232C JUMP JUMPDEST JUMPDEST PUSH1 0x20 MUL PUSH1 0x20 ADD ADD MLOAD DUP1 MLOAD SWAP1 PUSH1 0x20 ADD KECCAK256 SWAP1 POP PUSH2 0xEE9 PUSH2 0xDDE JUMP JUMPDEST PUSH1 0x3 ADD PUSH1 0x0 DUP3 DUP2 MSTORE PUSH1 0x20 ADD SWAP1 DUP2 MSTORE PUSH1 0x20 ADD PUSH1 0x0 KECCAK256 PUSH1 0x0 SWAP1 SLOAD SWAP1 PUSH2 0x100 EXP SWAP1 DIV PUSH1 0xFF AND ISZERO PUSH2 0xF38 JUMPI PUSH1 0x0 PUSH1 0x40 MLOAD DUP1 PUSH1 0x60 ADD PUSH1 0x40 MSTORE DUP1 PUSH1 0x23 DUP2 MSTORE PUSH1 0x20 ADD PUSH2 0x2BEE PUSH1 0x23 SWAP2 CODECOPY SWAP6 POP SWAP6 POP POP POP POP POP PUSH2 0xFF4 JUMP JUMPDEST PUSH2 0xF40 PUSH2 0xDDE JUMP JUMPDEST PUSH1 0x2 ADD PUSH1 0x0 DUP4 PUSH20 0xFFFFFFFFFFFFFFFFFFFFFFFFFFFFFFFFFFFFFFFF AND PUSH20 0xFFFFFFFFFFFFFFFFFFFFFFFFFFFFFFFFFFFFFFFF AND DUP2 MSTORE PUSH1 0x20 ADD SWAP1 DUP2 MSTORE PUSH1 0x20 ADD PUSH1 0x0 KECCAK256 SLOAD DUP5 PUSH2 0xF8C SWAP2 SWAP1 PUSH2 0x2844 JUMP JUMPDEST SWAP4 POP POP POP DUP1 DUP1 PUSH2 0xF9B SWAP1 PUSH2 0x2445 JUMP JUMPDEST SWAP2 POP POP PUSH2 0xE13 JUMP JUMPDEST POP PUSH2 0xFAC PUSH2 0xDDE JUMP JUMPDEST PUSH1 0x0 ADD SLOAD DUP2 LT ISZERO PUSH2 0xFDC JUMPI PUSH1 0x0 PUSH1 0x40 MLOAD DUP1 PUSH1 0x60 ADD PUSH1 0x40 MSTORE DUP1 PUSH1 0x26 DUP2 MSTORE PUSH1 0x20 ADD PUSH2 0x2B96 PUSH1 0x26 SWAP2 CODECOPY SWAP3 POP SWAP3 POP POP PUSH2 0xFF4 JUMP JUMPDEST PUSH1 0x1 PUSH1 0x40 MLOAD DUP1 PUSH1 0x20 ADD PUSH1 0x40 MSTORE DUP1 PUSH1 0x0 DUP2 MSTORE POP SWAP3 POP SWAP3 POP POP JUMPDEST SWAP3 POP SWAP3 SWAP1 POP JUMP JUMPDEST PUSH1 0x60 PUSH1 0x0 DUP1 DUP4 PUSH1 0x0 ADD PUSH1 0x20 DUP2 ADD SWAP1 PUSH2 0x1013 SWAP2 SWAP1 PUSH2 0x1E16 JUMP JUMPDEST PUSH20 0xFFFFFFFFFFFFFFFFFFFFFFFFFFFFFFFFFFFFFFFF AND DUP5 PUSH1 0x20 ADD CALLDATALOAD DUP6 DUP1 PUSH1 0x60 ADD SWAP1 PUSH2 0x103E SWAP2 SWAP1 PUSH2 0x236A JUMP JUMPDEST PUSH1 0x40 MLOAD PUSH2 0x104C SWAP3 SWAP2 SWAP1 PUSH2 0x23FD JUMP JUMPDEST PUSH1 0x0 PUSH1 0x40 MLOAD DUP1 DUP4 SUB DUP2 DUP6 DUP8 GAS CALL SWAP3 POP POP POP RETURNDATASIZE DUP1 PUSH1 0x0 DUP2 EQ PUSH2 0x1089 JUMPI PUSH1 0x40 MLOAD SWAP2 POP PUSH1 0x1F NOT PUSH1 0x3F RETURNDATASIZE ADD AND DUP3 ADD PUSH1 0x40 MSTORE RETURNDATASIZE DUP3 MSTORE RETURNDATASIZE PUSH1 0x0 PUSH1 0x20 DUP5 ADD RETURNDATACOPY PUSH2 0x108E JUMP JUMPDEST PUSH1 0x60 SWAP2 POP JUMPDEST POP SWAP2 POP SWAP2 POP DUP2 PUSH2 0x10A0 JUMPI DUP1 MLOAD PUSH1 0x20 DUP3 ADD REVERT JUMPDEST DUP1 SWAP3 POP POP POP SWAP2 SWAP1 POP JUMP JUMPDEST PUSH2 0x10B2 PUSH2 0xDDE JUMP JUMPDEST PUSH1 0x2 ADD PUSH1 0x0 DUP3 PUSH20 0xFFFFFFFFFFFFFFFFFFFFFFFFFFFFFFFFFFFFFFFF AND PUSH20 0xFFFFFFFFFFFFFFFFFFFFFFFFFFFFFFFFFFFFFFFF AND DUP2 MSTORE PUSH1 0x20 ADD SWAP1 DUP2 MSTORE PUSH1 0x20 ADD PUSH1 0x0 KECCAK256 SLOAD PUSH2 0x10FB PUSH2 0xDDE JUMP JUMPDEST PUSH1 0x1 ADD PUSH1 0x0 DUP3 DUP3 SLOAD PUSH2 0x110D SWAP2 SWAP1 PUSH2 0x2810 JUMP JUMPDEST SWAP3 POP POP DUP2 SWAP1 SSTORE POP PUSH1 0x0 PUSH2 0x111E PUSH2 0xDDE JUMP JUMPDEST PUSH1 0x1 ADD SLOAD GT DUP1 ISZERO PUSH2 0x1145 JUMPI POP PUSH2 0x1132 PUSH2 0xDDE JUMP JUMPDEST PUSH1 0x0 ADD SLOAD PUSH2 0x113E PUSH2 0xDDE JUMP JUMPDEST PUSH1 0x1 ADD SLOAD LT ISZERO JUMPDEST PUSH2 0x1184 JUMPI PUSH1 0x40 MLOAD PUSH32 0x8C379A000000000000000000000000000000000000000000000000000000000 DUP2 MSTORE PUSH1 0x4 ADD PUSH2 0x117B SWAP1 PUSH2 0x28C4 JUMP JUMPDEST PUSH1 0x40 MLOAD DUP1 SWAP2 SUB SWAP1 REVERT JUMPDEST PUSH1 0x0 PUSH2 0x118E PUSH2 0xDDE JUMP JUMPDEST PUSH1 0x2 ADD PUSH1 0x0 DUP4 PUSH20 0xFFFFFFFFFFFFFFFFFFFFFFFFFFFFFFFFFFFFFFFF AND PUSH20 0xFFFFFFFFFFFFFFFFFFFFFFFFFFFFFFFFFFFFFFFF AND DUP2 MSTORE PUSH1 0x20 ADD SWAP1 DUP2 MSTORE PUSH1 0x20 ADD PUSH1 0x0 KECCAK256 DUP2 SWAP1 SSTORE POP POP JUMP JUMPDEST DUP1 PUSH2 0x11DE PUSH2 0xDDE JUMP JUMPDEST PUSH1 0x1 ADD PUSH1 0x0 DUP3 DUP3 SLOAD PUSH2 0x11F0 SWAP2 SWAP1 PUSH2 0x2844 JUMP JUMPDEST SWAP3 POP POP DUP2 SWAP1 SSTORE POP DUP1 PUSH2 0x1200 PUSH2 0xDDE JUMP JUMPDEST PUSH1 0x2 ADD PUSH1 0x0 DUP5 PUSH20 0xFFFFFFFFFFFFFFFFFFFFFFFFFFFFFFFFFFFFFFFF AND PUSH20 0xFFFFFFFFFFFFFFFFFFFFFFFFFFFFFFFFFFFFFFFF AND DUP2 MSTORE PUSH1 0x20 ADD SWAP1 DUP2 MSTORE PUSH1 0x20 ADD PUSH1 0x0 KECCAK256 DUP2 SWAP1 SSTORE POP POP POP JUMP JUMPDEST PUSH1 0x0 PUSH32 0x1FFC9A700000000000000000000000000000000000000000000000000000000 PUSH28 0xFFFFFFFFFFFFFFFFFFFFFFFFFFFFFFFFFFFFFFFFFFFFFFFFFFFFFFFF NOT AND DUP3 PUSH28 0xFFFFFFFFFFFFFFFFFFFFFFFFFFFFFFFFFFFFFFFFFFFFFFFFFFFFFFFF NOT AND EQ SWAP1 POP SWAP2 SWAP1 POP JUMP JUMPDEST PUSH1 0x0 PUSH2 0x12CF DUP3 PUSH2 0x12C1 DUP6 PUSH2 0x12D7 JUMP JUMPDEST PUSH2 0x1307 SWAP1 SWAP2 SWAP1 PUSH4 0xFFFFFFFF AND JUMP JUMPDEST SWAP1 POP SWAP3 SWAP2 POP POP JUMP JUMPDEST PUSH1 0x0 DUP2 PUSH1 0x40 MLOAD PUSH1 0x20 ADD PUSH2 0x12EA SWAP2 SWAP1 PUSH2 0x2966 JUMP JUMPDEST PUSH1 0x40 MLOAD PUSH1 0x20 DUP2 DUP4 SUB SUB DUP2 MSTORE SWAP1 PUSH1 0x40 MSTORE DUP1 MLOAD SWAP1 PUSH1 0x20 ADD KECCAK256 SWAP1 POP SWAP2 SWAP1 POP JUMP JUMPDEST PUSH1 0x0 DUP1 PUSH1 0x0 PUSH2 0x1316 DUP6 DUP6 PUSH2 0x132E JUMP JUMPDEST SWAP2 POP SWAP2 POP PUSH2 0x1323 DUP2 PUSH2 0x137F JUMP JUMPDEST DUP2 SWAP3 POP POP POP SWAP3 SWAP2 POP POP JUMP JUMPDEST PUSH1 0x0 DUP1 PUSH1 0x41 DUP4 MLOAD SUB PUSH2 0x136F JUMPI PUSH1 0x0 DUP1 PUSH1 0x0 PUSH1 0x20 DUP7 ADD MLOAD SWAP3 POP PUSH1 0x40 DUP7 ADD MLOAD SWAP2 POP PUSH1 0x60 DUP7 ADD MLOAD PUSH1 0x0 BYTE SWAP1 POP PUSH2 0x1363 DUP8 DUP3 DUP6 DUP6 PUSH2 0x14E5 JUMP JUMPDEST SWAP5 POP SWAP5 POP POP POP POP PUSH2 0x1378 JUMP JUMPDEST PUSH1 0x0 PUSH1 0x2 SWAP2 POP SWAP2 POP JUMPDEST SWAP3 POP SWAP3 SWAP1 POP JUMP JUMPDEST PUSH1 0x0 PUSH1 0x4 DUP2 GT ISZERO PUSH2 0x1393 JUMPI PUSH2 0x1392 PUSH2 0x298C JUMP JUMPDEST JUMPDEST DUP2 PUSH1 0x4 DUP2 GT ISZERO PUSH2 0x13A6 JUMPI PUSH2 0x13A5 PUSH2 0x298C JUMP JUMPDEST JUMPDEST SUB ISZERO PUSH2 0x14E2 JUMPI PUSH1 0x1 PUSH1 0x4 DUP2 GT ISZERO PUSH2 0x13C0 JUMPI PUSH2 0x13BF PUSH2 0x298C JUMP JUMPDEST JUMPDEST DUP2 PUSH1 0x4 DUP2 GT ISZERO PUSH2 0x13D3 JUMPI PUSH2 0x13D2 PUSH2 0x298C JUMP JUMPDEST JUMPDEST SUB PUSH2 0x1413 JUMPI PUSH1 0x40 MLOAD PUSH32 0x8C379A000000000000000000000000000000000000000000000000000000000 DUP2 MSTORE PUSH1 0x4 ADD PUSH2 0x140A SWAP1 PUSH2 0x2A07 JUMP JUMPDEST PUSH1 0x40 MLOAD DUP1 SWAP2 SUB SWAP1 REVERT JUMPDEST PUSH1 0x2 PUSH1 0x4 DUP2 GT ISZERO PUSH2 0x1427 JUMPI PUSH2 0x1426 PUSH2 0x298C JUMP JUMPDEST JUMPDEST DUP2 PUSH1 0x4 DUP2 GT ISZERO PUSH2 0x143A JUMPI PUSH2 0x1439 PUSH2 0x298C JUMP JUMPDEST JUMPDEST SUB PUSH2 0x147A JUMPI PUSH1 0x40 MLOAD PUSH32 0x8C379A000000000000000000000000000000000000000000000000000000000 DUP2 MSTORE PUSH1 0x4 ADD PUSH2 0x1471 SWAP1 PUSH2 0x2A73 JUMP JUMPDEST PUSH1 0x40 MLOAD DUP1 SWAP2 SUB SWAP1 REVERT JUMPDEST PUSH1 0x3 PUSH1 0x4 DUP2 GT ISZERO PUSH2 0x148E JUMPI PUSH2 0x148D PUSH2 0x298C JUMP JUMPDEST JUMPDEST DUP2 PUSH1 0x4 DUP2 GT ISZERO PUSH2 0x14A1 JUMPI PUSH2 0x14A0 PUSH2 0x298C JUMP JUMPDEST JUMPDEST SUB PUSH2 0x14E1 JUMPI PUSH1 0x40 MLOAD PUSH32 0x8C379A000000000000000000000000000000000000000000000000000000000 DUP2 MSTORE PUSH1 0x4 ADD PUSH2 0x14D8 SWAP1 PUSH2 0x2B05 JUMP JUMPDEST PUSH1 0x40 MLOAD DUP1 SWAP2 SUB SWAP1 REVERT JUMPDEST JUMPDEST POP JUMP JUMPDEST PUSH1 0x0 DUP1 PUSH32 0x7FFFFFFFFFFFFFFFFFFFFFFFFFFFFFFF5D576E7357A4501DDFE92F46681B20A0 DUP4 PUSH1 0x0 SHR GT ISZERO PUSH2 0x1520 JUMPI PUSH1 0x0 PUSH1 0x3 SWAP2 POP SWAP2 POP PUSH2 0x15BE JUMP JUMPDEST PUSH1 0x0 PUSH1 0x1 DUP8 DUP8 DUP8 DUP8 PUSH1 0x40 MLOAD PUSH1 0x0 DUP2 MSTORE PUSH1 0x20 ADD PUSH1 0x40 MSTORE PUSH1 0x40 MLOAD PUSH2 0x1545 SWAP5 SWAP4 SWAP3 SWAP2 SWAP1 PUSH2 0x2B50 JUMP JUMPDEST PUSH1 0x20 PUSH1 0x40 MLOAD PUSH1 0x20 DUP2 SUB SWAP1 DUP1 DUP5 SUB SWAP1 DUP6 GAS STATICCALL ISZERO DUP1 ISZERO PUSH2 0x1567 JUMPI RETURNDATASIZE PUSH1 0x0 DUP1 RETURNDATACOPY RETURNDATASIZE PUSH1 0x0 REVERT JUMPDEST POP POP POP PUSH1 0x20 PUSH1 0x40 MLOAD SUB MLOAD SWAP1 POP PUSH1 0x0 PUSH20 0xFFFFFFFFFFFFFFFFFFFFFFFFFFFFFFFFFFFFFFFF AND DUP2 PUSH20 0xFFFFFFFFFFFFFFFFFFFFFFFFFFFFFFFFFFFFFFFF AND SUB PUSH2 0x15B5 JUMPI PUSH1 0x0 PUSH1 0x1 SWAP3 POP SWAP3 POP POP PUSH2 0x15BE JUMP JUMPDEST DUP1 PUSH1 0x0 SWAP3 POP SWAP3 POP POP JUMPDEST SWAP5 POP SWAP5 SWAP3 POP POP POP JUMP JUMPDEST PUSH1 0x0 PUSH1 0x40 MLOAD SWAP1 POP SWAP1 JUMP JUMPDEST PUSH1 0x0 DUP1 REVERT JUMPDEST PUSH1 0x0 DUP1 REVERT JUMPDEST PUSH1 0x0 PUSH32 0xFFFFFFFF00000000000000000000000000000000000000000000000000000000 DUP3 AND SWAP1 POP SWAP2 SWAP1 POP JUMP JUMPDEST PUSH2 0x1610 DUP2 PUSH2 0x15DB JUMP JUMPDEST DUP2 EQ PUSH2 0x161B JUMPI PUSH1 0x0 DUP1 REVERT JUMPDEST POP JUMP JUMPDEST PUSH1 0x0 DUP2 CALLDATALOAD SWAP1 POP PUSH2 0x162D DUP2 PUSH2 0x1607 JUMP JUMPDEST SWAP3 SWAP2 POP POP JUMP JUMPDEST PUSH1 0x0 PUSH1 0x20 DUP3 DUP5 SUB SLT ISZERO PUSH2 0x1649 JUMPI PUSH2 0x1648 PUSH2 0x15D1 JUMP JUMPDEST JUMPDEST PUSH1 0x0 PUSH2 0x1657 DUP5 DUP3 DUP6 ADD PUSH2 0x161E JUMP JUMPDEST SWAP2 POP POP SWAP3 SWAP2 POP POP JUMP JUMPDEST PUSH1 0x0 DUP2 ISZERO ISZERO SWAP1 POP SWAP2 SWAP1 POP JUMP JUMPDEST PUSH2 0x1675 DUP2 PUSH2 0x1660 JUMP JUMPDEST DUP3 MSTORE POP POP JUMP JUMPDEST PUSH1 0x0 PUSH1 0x20 DUP3 ADD SWAP1 POP PUSH2 0x1690 PUSH1 0x0 DUP4 ADD DUP5 PUSH2 0x166C JUMP JUMPDEST SWAP3 SWAP2 POP POP JUMP JUMPDEST PUSH1 0x0 DUP2 SWAP1 POP SWAP2 SWAP1 POP JUMP JUMPDEST PUSH2 0x16A9 DUP2 PUSH2 0x1696 JUMP JUMPDEST DUP3 MSTORE POP POP JUMP JUMPDEST PUSH1 0x0 PUSH1 0x20 DUP3 ADD SWAP1 POP PUSH2 0x16C4 PUSH1 0x0 DUP4 ADD DUP5 PUSH2 0x16A0 JUMP JUMPDEST SWAP3 SWAP2 POP POP JUMP JUMPDEST PUSH1 0x0 DUP1 REVERT JUMPDEST PUSH1 0x0 DUP1 REVERT JUMPDEST PUSH1 0x0 DUP1 REVERT JUMPDEST PUSH1 0x0 DUP1 DUP4 PUSH1 0x1F DUP5 ADD SLT PUSH2 0x16EF JUMPI PUSH2 0x16EE PUSH2 0x16CA JUMP JUMPDEST JUMPDEST DUP3 CALLDATALOAD SWAP1 POP PUSH8 0xFFFFFFFFFFFFFFFF DUP2 GT ISZERO PUSH2 0x170C JUMPI PUSH2 0x170B PUSH2 0x16CF JUMP JUMPDEST JUMPDEST PUSH1 0x20 DUP4 ADD SWAP2 POP DUP4 PUSH1 0x20 DUP3 MUL DUP4 ADD GT ISZERO PUSH2 0x1728 JUMPI PUSH2 0x1727 PUSH2 0x16D4 JUMP JUMPDEST JUMPDEST SWAP3 POP SWAP3 SWAP1 POP JUMP JUMPDEST PUSH1 0x0 DUP1 DUP4 PUSH1 0x1F DUP5 ADD SLT PUSH2 0x1745 JUMPI PUSH2 0x1744 PUSH2 0x16CA JUMP JUMPDEST JUMPDEST DUP3 CALLDATALOAD SWAP1 POP PUSH8 0xFFFFFFFFFFFFFFFF DUP2 GT ISZERO PUSH2 0x1762 JUMPI PUSH2 0x1761 PUSH2 0x16CF JUMP JUMPDEST JUMPDEST PUSH1 0x20 DUP4 ADD SWAP2 POP DUP4 PUSH1 0x20 DUP3 MUL DUP4 ADD GT ISZERO PUSH2 0x177E JUMPI PUSH2 0x177D PUSH2 0x16D4 JUMP JUMPDEST JUMPDEST SWAP3 POP SWAP3 SWAP1 POP JUMP JUMPDEST PUSH1 0x0 DUP1 PUSH1 0x0 DUP1 PUSH1 0x40 DUP6 DUP8 SUB SLT ISZERO PUSH2 0x179F JUMPI PUSH2 0x179E PUSH2 0x15D1 JUMP JUMPDEST JUMPDEST PUSH1 0x0 DUP6 ADD CALLDATALOAD PUSH8 0xFFFFFFFFFFFFFFFF DUP2 GT ISZERO PUSH2 0x17BD JUMPI PUSH2 0x17BC PUSH2 0x15D6 JUMP JUMPDEST JUMPDEST PUSH2 0x17C9 DUP8 DUP3 DUP9 ADD PUSH2 0x16D9 JUMP JUMPDEST SWAP5 POP SWAP5 POP POP PUSH1 0x20 DUP6 ADD CALLDATALOAD PUSH8 0xFFFFFFFFFFFFFFFF DUP2 GT ISZERO PUSH2 0x17EC JUMPI PUSH2 0x17EB PUSH2 0x15D6 JUMP JUMPDEST JUMPDEST PUSH2 0x17F8 DUP8 DUP3 DUP9 ADD PUSH2 0x172F JUMP JUMPDEST SWAP3 POP SWAP3 POP POP SWAP3 SWAP6 SWAP2 SWAP5 POP SWAP3 POP JUMP JUMPDEST PUSH1 0x0 DUP2 MLOAD SWAP1 POP SWAP2 SWAP1 POP JUMP JUMPDEST PUSH1 0x0 DUP3 DUP3 MSTORE PUSH1 0x20 DUP3 ADD SWAP1 POP SWAP3 SWAP2 POP POP JUMP JUMPDEST PUSH1 0x0 DUP2 SWAP1 POP PUSH1 0x20 DUP3 ADD SWAP1 POP SWAP2 SWAP1 POP JUMP JUMPDEST PUSH1 0x0 DUP2 MLOAD SWAP1 POP SWAP2 SWAP1 POP JUMP JUMPDEST PUSH1 0x0 DUP3 DUP3 MSTORE PUSH1 0x20 DUP3 ADD SWAP1 POP SWAP3 SWAP2 POP POP JUMP JUMPDEST PUSH1 0x0 JUMPDEST DUP4 DUP2 LT ISZERO PUSH2 0x186C JUMPI DUP1 DUP3 ADD MLOAD DUP2 DUP5 ADD MSTORE PUSH1 0x20 DUP2 ADD SWAP1 POP PUSH2 0x1851 JUMP JUMPDEST PUSH1 0x0 DUP5 DUP5 ADD MSTORE POP POP POP POP JUMP JUMPDEST PUSH1 0x0 PUSH1 0x1F NOT PUSH1 0x1F DUP4 ADD AND SWAP1 POP SWAP2 SWAP1 POP JUMP JUMPDEST PUSH1 0x0 PUSH2 0x1894 DUP3 PUSH2 0x1832 JUMP JUMPDEST PUSH2 0x189E DUP2 DUP6 PUSH2 0x183D JUMP JUMPDEST SWAP4 POP PUSH2 0x18AE DUP2 DUP6 PUSH1 0x20 DUP7 ADD PUSH2 0x184E JUMP JUMPDEST PUSH2 0x18B7 DUP2 PUSH2 0x1878 JUMP JUMPDEST DUP5 ADD SWAP2 POP POP SWAP3 SWAP2 POP POP JUMP JUMPDEST PUSH1 0x0 PUSH2 0x18CE DUP4 DUP4 PUSH2 0x1889 JUMP JUMPDEST SWAP1 POP SWAP3 SWAP2 POP POP JUMP JUMPDEST PUSH1 0x0 PUSH1 0x20 DUP3 ADD SWAP1 POP SWAP2 SWAP1 POP JUMP JUMPDEST PUSH1 0x0 PUSH2 0x18EE DUP3 PUSH2 0x1806 JUMP JUMPDEST PUSH2 0x18F8 DUP2 DUP6 PUSH2 0x1811 JUMP JUMPDEST SWAP4 POP DUP4 PUSH1 0x20 DUP3 MUL DUP6 ADD PUSH2 0x190A DUP6 PUSH2 0x1822 JUMP JUMPDEST DUP1 PUSH1 0x0 JUMPDEST DUP6 DUP2 LT ISZERO PUSH2 0x1946 JUMPI DUP5 DUP5 SUB DUP10 MSTORE DUP2 MLOAD PUSH2 0x1927 DUP6 DUP3 PUSH2 0x18C2 JUMP JUMPDEST SWAP5 POP PUSH2 0x1932 DUP4 PUSH2 0x18D6 JUMP JUMPDEST SWAP3 POP PUSH1 0x20 DUP11 ADD SWAP10 POP POP PUSH1 0x1 DUP2 ADD SWAP1 POP PUSH2 0x190E JUMP JUMPDEST POP DUP3 SWAP8 POP DUP8 SWAP6 POP POP POP POP POP POP SWAP3 SWAP2 POP POP JUMP JUMPDEST PUSH1 0x0 PUSH1 0x20 DUP3 ADD SWAP1 POP DUP2 DUP2 SUB PUSH1 0x0 DUP4 ADD MSTORE PUSH2 0x1972 DUP2 DUP5 PUSH2 0x18E3 JUMP JUMPDEST SWAP1 POP SWAP3 SWAP2 POP POP JUMP JUMPDEST PUSH1 0x0 DUP1 DUP4 PUSH1 0x1F DUP5 ADD SLT PUSH2 0x1990 JUMPI PUSH2 0x198F PUSH2 0x16CA JUMP JUMPDEST JUMPDEST DUP3 CALLDATALOAD SWAP1 POP PUSH8 0xFFFFFFFFFFFFFFFF DUP2 GT ISZERO PUSH2 0x19AD JUMPI PUSH2 0x19AC PUSH2 0x16CF JUMP JUMPDEST JUMPDEST PUSH1 0x20 DUP4 ADD SWAP2 POP DUP4 PUSH1 0x20 DUP3 MUL DUP4 ADD GT ISZERO PUSH2 0x19C9 JUMPI PUSH2 0x19C8 PUSH2 0x16D4 JUMP JUMPDEST JUMPDEST SWAP3 POP SWAP3 SWAP1 POP JUMP JUMPDEST PUSH2 0x19D9 DUP2 PUSH2 0x1696 JUMP JUMPDEST DUP2 EQ PUSH2 0x19E4 JUMPI PUSH1 0x0 DUP1 REVERT JUMPDEST POP JUMP JUMPDEST PUSH1 0x0 DUP2 CALLDATALOAD SWAP1 POP PUSH2 0x19F6 DUP2 PUSH2 0x19D0 JUMP JUMPDEST SWAP3 SWAP2 POP POP JUMP JUMPDEST PUSH1 0x0 DUP1 PUSH1 0x0 DUP1 PUSH1 0x0 PUSH1 0x60 DUP7 DUP9 SUB SLT ISZERO PUSH2 0x1A18 JUMPI PUSH2 0x1A17 PUSH2 0x15D1 JUMP JUMPDEST JUMPDEST PUSH1 0x0 DUP7 ADD CALLDATALOAD PUSH8 0xFFFFFFFFFFFFFFFF DUP2 GT ISZERO PUSH2 0x1A36 JUMPI PUSH2 0x1A35 PUSH2 0x15D6 JUMP JUMPDEST JUMPDEST PUSH2 0x1A42 DUP9 DUP3 DUP10 ADD PUSH2 0x197A JUMP JUMPDEST SWAP6 POP SWAP6 POP POP PUSH1 0x20 PUSH2 0x1A55 DUP9 DUP3 DUP10 ADD PUSH2 0x19E7 JUMP JUMPDEST SWAP4 POP POP PUSH1 0x40 DUP7 ADD CALLDATALOAD PUSH8 0xFFFFFFFFFFFFFFFF DUP2 GT ISZERO PUSH2 0x1A76 JUMPI PUSH2 0x1A75 PUSH2 0x15D6 JUMP JUMPDEST JUMPDEST PUSH2 0x1A82 DUP9 DUP3 DUP10 ADD PUSH2 0x172F JUMP JUMPDEST SWAP3 POP SWAP3 POP POP SWAP3 SWAP6 POP SWAP3 SWAP6 SWAP1 SWAP4 POP JUMP JUMPDEST PUSH1 0x0 DUP1 PUSH1 0x0 DUP1 PUSH1 0x60 DUP6 DUP8 SUB SLT ISZERO PUSH2 0x1AAB JUMPI PUSH2 0x1AAA PUSH2 0x15D1 JUMP JUMPDEST JUMPDEST PUSH1 0x0 PUSH2 0x1AB9 DUP8 DUP3 DUP9 ADD PUSH2 0x19E7 JUMP JUMPDEST SWAP5 POP POP PUSH1 0x20 PUSH2 0x1ACA DUP8 DUP3 DUP9 ADD PUSH2 0x19E7 JUMP JUMPDEST SWAP4 POP POP PUSH1 0x40 DUP6 ADD CALLDATALOAD PUSH8 0xFFFFFFFFFFFFFFFF DUP2 GT ISZERO PUSH2 0x1AEB JUMPI PUSH2 0x1AEA PUSH2 0x15D6 JUMP JUMPDEST JUMPDEST PUSH2 0x1AF7 DUP8 DUP3 DUP9 ADD PUSH2 0x172F JUMP JUMPDEST SWAP3 POP SWAP3 POP POP SWAP3 SWAP6 SWAP2 SWAP5 POP SWAP3 POP JUMP JUMPDEST PUSH1 0x0 DUP1 REVERT JUMPDEST PUSH1 0x0 PUSH1 0x80 DUP3 DUP5 SUB SLT ISZERO PUSH2 0x1B20 JUMPI PUSH2 0x1B1F PUSH2 0x1B05 JUMP JUMPDEST JUMPDEST DUP2 SWAP1 POP SWAP3 SWAP2 POP POP JUMP JUMPDEST PUSH1 0x0 DUP1 PUSH1 0x0 PUSH1 0x40 DUP5 DUP7 SUB SLT ISZERO PUSH2 0x1B42 JUMPI PUSH2 0x1B41 PUSH2 0x15D1 JUMP JUMPDEST JUMPDEST PUSH1 0x0 DUP5 ADD CALLDATALOAD PUSH8 0xFFFFFFFFFFFFFFFF DUP2 GT ISZERO PUSH2 0x1B60 JUMPI PUSH2 0x1B5F PUSH2 0x15D6 JUMP JUMPDEST JUMPDEST PUSH2 0x1B6C DUP7 DUP3 DUP8 ADD PUSH2 0x1B0A JUMP JUMPDEST SWAP4 POP POP PUSH1 0x20 DUP5 ADD CALLDATALOAD PUSH8 0xFFFFFFFFFFFFFFFF DUP2 GT ISZERO PUSH2 0x1B8D JUMPI PUSH2 0x1B8C PUSH2 0x15D6 JUMP JUMPDEST JUMPDEST PUSH2 0x1B99 DUP7 DUP3 DUP8 ADD PUSH2 0x172F JUMP JUMPDEST SWAP3 POP SWAP3 POP POP SWAP3 POP SWAP3 POP SWAP3 JUMP JUMPDEST PUSH1 0x0 DUP3 DUP3 MSTORE PUSH1 0x20 DUP3 ADD SWAP1 POP SWAP3 SWAP2 POP POP JUMP JUMPDEST PUSH1 0x0 PUSH2 0x1BC1 DUP3 PUSH2 0x1832 JUMP JUMPDEST PUSH2 0x1BCB DUP2 DUP6 PUSH2 0x1BA5 JUMP JUMPDEST SWAP4 POP PUSH2 0x1BDB DUP2 DUP6 PUSH1 0x20 DUP7 ADD PUSH2 0x184E JUMP JUMPDEST PUSH2 0x1BE4 DUP2 PUSH2 0x1878 JUMP JUMPDEST DUP5 ADD SWAP2 POP POP SWAP3 SWAP2 POP POP JUMP JUMPDEST PUSH1 0x0 PUSH1 0x20 DUP3 ADD SWAP1 POP DUP2 DUP2 SUB PUSH1 0x0 DUP4 ADD MSTORE PUSH2 0x1C09 DUP2 DUP5 PUSH2 0x1BB6 JUMP JUMPDEST SWAP1 POP SWAP3 SWAP2 POP POP JUMP JUMPDEST PUSH1 0x0 DUP1 DUP4 PUSH1 0x1F DUP5 ADD SLT PUSH2 0x1C27 JUMPI PUSH2 0x1C26 PUSH2 0x16CA JUMP JUMPDEST JUMPDEST DUP3 CALLDATALOAD SWAP1 POP PUSH8 0xFFFFFFFFFFFFFFFF DUP2 GT ISZERO PUSH2 0x1C44 JUMPI PUSH2 0x1C43 PUSH2 0x16CF JUMP JUMPDEST JUMPDEST PUSH1 0x20 DUP4 ADD SWAP2 POP DUP4 PUSH1 0x20 DUP3 MUL DUP4 ADD GT ISZERO PUSH2 0x1C60 JUMPI PUSH2 0x1C5F PUSH2 0x16D4 JUMP JUMPDEST JUMPDEST SWAP3 POP SWAP3 SWAP1 POP JUMP JUMPDEST PUSH1 0x0 DUP1 PUSH1 0x0 DUP1 PUSH1 0x0 DUP1 PUSH1 0x0 PUSH1 0x80 DUP9 DUP11 SUB SLT ISZERO PUSH2 0x1C86 JUMPI PUSH2 0x1C85 PUSH2 0x15D1 JUMP JUMPDEST JUMPDEST PUSH1 0x0 DUP9 ADD CALLDATALOAD PUSH8 0xFFFFFFFFFFFFFFFF DUP2 GT ISZERO PUSH2 0x1CA4 JUMPI PUSH2 0x1CA3 PUSH2 0x15D6 JUMP JUMPDEST JUMPDEST PUSH2 0x1CB0 DUP11 DUP3 DUP12 ADD PUSH2 0x197A JUMP JUMPDEST SWAP8 POP SWAP8 POP POP PUSH1 0x20 DUP9 ADD CALLDATALOAD PUSH8 0xFFFFFFFFFFFFFFFF DUP2 GT ISZERO PUSH2 0x1CD3 JUMPI PUSH2 0x1CD2 PUSH2 0x15D6 JUMP JUMPDEST JUMPDEST PUSH2 0x1CDF DUP11 DUP3 DUP12 ADD PUSH2 0x1C11 JUMP JUMPDEST SWAP6 POP SWAP6 POP POP PUSH1 0x40 PUSH2 0x1CF2 DUP11 DUP3 DUP12 ADD PUSH2 0x19E7 JUMP JUMPDEST SWAP4 POP POP PUSH1 0x60 DUP9 ADD CALLDATALOAD PUSH8 0xFFFFFFFFFFFFFFFF DUP2 GT ISZERO PUSH2 0x1D13 JUMPI PUSH2 0x1D12 PUSH2 0x15D6 JUMP JUMPDEST JUMPDEST PUSH2 0x1D1F DUP11 DUP3 DUP12 ADD PUSH2 0x172F JUMP JUMPDEST SWAP3 POP SWAP3 POP POP SWAP3 SWAP6 SWAP9 SWAP2 SWAP5 SWAP8 POP SWAP3 SWAP6 POP JUMP JUMPDEST PUSH1 0x0 PUSH20 0xFFFFFFFFFFFFFFFFFFFFFFFFFFFFFFFFFFFFFFFF DUP3 AND SWAP1 POP SWAP2 SWAP1 POP JUMP JUMPDEST PUSH1 0x0 PUSH2 0x1D5B DUP3 PUSH2 0x1D30 JUMP JUMPDEST SWAP1 POP SWAP2 SWAP1 POP JUMP JUMPDEST PUSH2 0x1D6B DUP2 PUSH2 0x1D50 JUMP JUMPDEST DUP2 EQ PUSH2 0x1D76 JUMPI PUSH1 0x0 DUP1 REVERT JUMPDEST POP JUMP JUMPDEST PUSH1 0x0 DUP2 CALLDATALOAD SWAP1 POP PUSH2 0x1D88 DUP2 PUSH2 0x1D62 JUMP JUMPDEST SWAP3 SWAP2 POP POP JUMP JUMPDEST PUSH1 0x0 DUP1 PUSH1 0x0 DUP1 PUSH1 0x0 PUSH1 0x80 DUP7 DUP9 SUB SLT ISZERO PUSH2 0x1DAA JUMPI PUSH2 0x1DA9 PUSH2 0x15D1 JUMP JUMPDEST JUMPDEST PUSH1 0x0 PUSH2 0x1DB8 DUP9 DUP3 DUP10 ADD PUSH2 0x1D79 JUMP JUMPDEST SWAP6 POP POP PUSH1 0x20 PUSH2 0x1DC9 DUP9 DUP3 DUP10 ADD PUSH2 0x19E7 JUMP JUMPDEST SWAP5 POP POP PUSH1 0x40 PUSH2 0x1DDA DUP9 DUP3 DUP10 ADD PUSH2 0x19E7 JUMP JUMPDEST SWAP4 POP POP PUSH1 0x60 DUP7 ADD CALLDATALOAD PUSH8 0xFFFFFFFFFFFFFFFF DUP2 GT ISZERO PUSH2 0x1DFB JUMPI PUSH2 0x1DFA PUSH2 0x15D6 JUMP JUMPDEST JUMPDEST PUSH2 0x1E07 DUP9 DUP3 DUP10 ADD PUSH2 0x172F JUMP JUMPDEST SWAP3 POP SWAP3 POP POP SWAP3 SWAP6 POP SWAP3 SWAP6 SWAP1 SWAP4 POP JUMP JUMPDEST PUSH1 0x0 PUSH1 0x20 DUP3 DUP5 SUB SLT ISZERO PUSH2 0x1E2C JUMPI PUSH2 0x1E2B PUSH2 0x15D1 JUMP JUMPDEST JUMPDEST PUSH1 0x0 PUSH2 0x1E3A DUP5 DUP3 DUP6 ADD PUSH2 0x1D79 JUMP JUMPDEST SWAP2 POP POP SWAP3 SWAP2 POP POP JUMP JUMPDEST PUSH1 0x0 DUP3 DUP3 MSTORE PUSH1 0x20 DUP3 ADD SWAP1 POP SWAP3 SWAP2 POP POP JUMP JUMPDEST PUSH1 0x0 DUP2 SWAP1 POP SWAP2 SWAP1 POP JUMP JUMPDEST PUSH1 0x0 PUSH2 0x1E6D PUSH1 0x20 DUP5 ADD DUP5 PUSH2 0x1D79 JUMP JUMPDEST SWAP1 POP SWAP3 SWAP2 POP POP JUMP JUMPDEST PUSH2 0x1E7E DUP2 PUSH2 0x1D50 JUMP JUMPDEST DUP3 MSTORE POP POP JUMP JUMPDEST PUSH1 0x0 PUSH2 0x1E93 PUSH1 0x20 DUP5 ADD DUP5 PUSH2 0x19E7 JUMP JUMPDEST SWAP1 POP SWAP3 SWAP2 POP POP JUMP JUMPDEST PUSH2 0x1EA4 DUP2 PUSH2 0x1696 JUMP JUMPDEST DUP3 MSTORE POP POP JUMP JUMPDEST PUSH1 0x0 DUP1 REVERT JUMPDEST PUSH1 0x0 DUP1 REVERT JUMPDEST PUSH1 0x0 DUP1 REVERT JUMPDEST PUSH1 0x0 DUP1 DUP4 CALLDATALOAD PUSH1 0x1 PUSH1 0x20 SUB DUP5 CALLDATASIZE SUB SUB DUP2 SLT PUSH2 0x1ED6 JUMPI PUSH2 0x1ED5 PUSH2 0x1EB4 JUMP JUMPDEST JUMPDEST DUP4 DUP2 ADD SWAP3 POP DUP3 CALLDATALOAD SWAP2 POP PUSH1 0x20 DUP4 ADD SWAP3 POP PUSH8 0xFFFFFFFFFFFFFFFF DUP3 GT ISZERO PUSH2 0x1EFE JUMPI PUSH2 0x1EFD PUSH2 0x1EAA JUMP JUMPDEST JUMPDEST PUSH1 0x1 DUP3 MUL CALLDATASIZE SUB DUP4 SGT ISZERO PUSH2 0x1F14 JUMPI PUSH2 0x1F13 PUSH2 0x1EAF JUMP JUMPDEST JUMPDEST POP SWAP3 POP SWAP3 SWAP1 POP JUMP JUMPDEST DUP3 DUP2 DUP4 CALLDATACOPY PUSH1 0x0 DUP4 DUP4 ADD MSTORE POP POP POP JUMP JUMPDEST PUSH1 0x0 PUSH2 0x1F37 DUP4 DUP6 PUSH2 0x183D JUMP JUMPDEST SWAP4 POP PUSH2 0x1F44 DUP4 DUP6 DUP5 PUSH2 0x1F1C JUMP JUMPDEST PUSH2 0x1F4D DUP4 PUSH2 0x1878 JUMP JUMPDEST DUP5 ADD SWAP1 POP SWAP4 SWAP3 POP POP POP JUMP JUMPDEST PUSH1 0x0 PUSH1 0x80 DUP4 ADD PUSH2 0x1F6B PUSH1 0x0 DUP5 ADD DUP5 PUSH2 0x1E5E JUMP JUMPDEST PUSH2 0x1F78 PUSH1 0x0 DUP7 ADD DUP3 PUSH2 0x1E75 JUMP JUMPDEST POP PUSH2 0x1F86 PUSH1 0x20 DUP5 ADD DUP5 PUSH2 0x1E84 JUMP JUMPDEST PUSH2 0x1F93 PUSH1 0x20 DUP7 ADD DUP3 PUSH2 0x1E9B JUMP JUMPDEST POP PUSH2 0x1FA1 PUSH1 0x40 DUP5 ADD DUP5 PUSH2 0x1E84 JUMP JUMPDEST PUSH2 0x1FAE PUSH1 0x40 DUP7 ADD DUP3 PUSH2 0x1E9B JUMP JUMPDEST POP PUSH2 0x1FBC PUSH1 0x60 DUP5 ADD DUP5 PUSH2 0x1EB9 JUMP JUMPDEST DUP6 DUP4 SUB PUSH1 0x60 DUP8 ADD MSTORE PUSH2 0x1FCF DUP4 DUP3 DUP5 PUSH2 0x1F2B JUMP JUMPDEST SWAP3 POP POP POP DUP1 SWAP2 POP POP SWAP3 SWAP2 POP POP JUMP JUMPDEST PUSH1 0x0 PUSH2 0x1FE9 DUP4 DUP4 PUSH2 0x1F58 JUMP JUMPDEST SWAP1 POP SWAP3 SWAP2 POP POP JUMP JUMPDEST PUSH1 0x0 DUP3 CALLDATALOAD PUSH1 0x1 PUSH1 0x80 SUB DUP4 CALLDATASIZE SUB SUB DUP2 SLT PUSH2 0x200D JUMPI PUSH2 0x200C PUSH2 0x1EB4 JUMP JUMPDEST JUMPDEST DUP3 DUP2 ADD SWAP2 POP POP SWAP3 SWAP2 POP POP JUMP JUMPDEST PUSH1 0x0 PUSH1 0x20 DUP3 ADD SWAP1 POP SWAP2 SWAP1 POP JUMP JUMPDEST PUSH1 0x0 PUSH2 0x2032 DUP4 DUP6 PUSH2 0x1E43 JUMP JUMPDEST SWAP4 POP DUP4 PUSH1 0x20 DUP5 MUL DUP6 ADD PUSH2 0x2044 DUP5 PUSH2 0x1E54 JUMP JUMPDEST DUP1 PUSH1 0x0 JUMPDEST DUP8 DUP2 LT ISZERO PUSH2 0x2088 JUMPI DUP5 DUP5 SUB DUP10 MSTORE PUSH2 0x205F DUP3 DUP5 PUSH2 0x1FF1 JUMP JUMPDEST PUSH2 0x2069 DUP6 DUP3 PUSH2 0x1FDD JUMP JUMPDEST SWAP5 POP PUSH2 0x2074 DUP4 PUSH2 0x2019 JUMP JUMPDEST SWAP3 POP PUSH1 0x20 DUP11 ADD SWAP10 POP POP PUSH1 0x1 DUP2 ADD SWAP1 POP PUSH2 0x2048 JUMP JUMPDEST POP DUP3 SWAP8 POP DUP8 SWAP5 POP POP POP POP POP SWAP4 SWAP3 POP POP POP JUMP JUMPDEST PUSH1 0x0 PUSH1 0x40 DUP3 ADD SWAP1 POP DUP2 DUP2 SUB PUSH1 0x0 DUP4 ADD MSTORE PUSH2 0x20B5 DUP2 DUP6 DUP8 PUSH2 0x2026 JUMP JUMPDEST SWAP1 POP PUSH2 0x20C4 PUSH1 0x20 DUP4 ADD DUP5 PUSH2 0x16A0 JUMP JUMPDEST SWAP5 SWAP4 POP POP POP POP JUMP JUMPDEST PUSH32 0x4E487B7100000000000000000000000000000000000000000000000000000000 PUSH1 0x0 MSTORE PUSH1 0x41 PUSH1 0x4 MSTORE PUSH1 0x24 PUSH1 0x0 REVERT JUMPDEST PUSH2 0x2104 DUP3 PUSH2 0x1878 JUMP JUMPDEST DUP2 ADD DUP2 DUP2 LT PUSH8 0xFFFFFFFFFFFFFFFF DUP3 GT OR ISZERO PUSH2 0x2123 JUMPI PUSH2 0x2122 PUSH2 0x20CC JUMP JUMPDEST JUMPDEST DUP1 PUSH1 0x40 MSTORE POP POP POP JUMP JUMPDEST PUSH1 0x0 PUSH2 0x2136 PUSH2 0x15C7 JUMP JUMPDEST SWAP1 POP PUSH2 0x2142 DUP3 DUP3 PUSH2 0x20FB JUMP JUMPDEST SWAP2 SWAP1 POP JUMP JUMPDEST PUSH1 0x0 PUSH8 0xFFFFFFFFFFFFFFFF DUP3 GT ISZERO PUSH2 0x2162 JUMPI PUSH2 0x2161 PUSH2 0x20CC JUMP JUMPDEST JUMPDEST PUSH1 0x20 DUP3 MUL SWAP1 POP PUSH1 0x20 DUP2 ADD SWAP1 POP SWAP2 SWAP1 POP JUMP JUMPDEST PUSH1 0x0 DUP1 REVERT JUMPDEST PUSH1 0x0 PUSH8 0xFFFFFFFFFFFFFFFF DUP3 GT ISZERO PUSH2 0x2193 JUMPI PUSH2 0x2192 PUSH2 0x20CC JUMP JUMPDEST JUMPDEST PUSH2 0x219C DUP3 PUSH2 0x1878 JUMP JUMPDEST SWAP1 POP PUSH1 0x20 DUP2 ADD SWAP1 POP SWAP2 SWAP1 POP JUMP JUMPDEST PUSH1 0x0 PUSH2 0x21BC PUSH2 0x21B7 DUP5 PUSH2 0x2178 JUMP JUMPDEST PUSH2 0x212C JUMP JUMPDEST SWAP1 POP DUP3 DUP2 MSTORE PUSH1 0x20 DUP2 ADD DUP5 DUP5 DUP5 ADD GT ISZERO PUSH2 0x21D8 JUMPI PUSH2 0x21D7 PUSH2 0x2173 JUMP JUMPDEST JUMPDEST PUSH2 0x21E3 DUP5 DUP3 DUP6 PUSH2 0x1F1C JUMP JUMPDEST POP SWAP4 SWAP3 POP POP POP JUMP JUMPDEST PUSH1 0x0 DUP3 PUSH1 0x1F DUP4 ADD SLT PUSH2 0x2200 JUMPI PUSH2 0x21FF PUSH2 0x16CA JUMP JUMPDEST JUMPDEST DUP2 CALLDATALOAD PUSH2 0x2210 DUP5 DUP3 PUSH1 0x20 DUP7 ADD PUSH2 0x21A9 JUMP JUMPDEST SWAP2 POP POP SWAP3 SWAP2 POP POP JUMP JUMPDEST PUSH1 0x0 PUSH2 0x222C PUSH2 0x2227 DUP5 PUSH2 0x2147 JUMP JUMPDEST PUSH2 0x212C JUMP JUMPDEST SWAP1 POP DUP1 DUP4 DUP3 MSTORE PUSH1 0x20 DUP3 ADD SWAP1 POP PUSH1 0x20 DUP5 MUL DUP4 ADD DUP6 DUP2 GT ISZERO PUSH2 0x224F JUMPI PUSH2 0x224E PUSH2 0x16D4 JUMP JUMPDEST JUMPDEST DUP4 JUMPDEST DUP2 DUP2 LT ISZERO PUSH2 0x2296 JUMPI DUP1 CALLDATALOAD PUSH8 0xFFFFFFFFFFFFFFFF DUP2 GT ISZERO PUSH2 0x2274 JUMPI PUSH2 0x2273 PUSH2 0x16CA JUMP JUMPDEST JUMPDEST DUP1 DUP7 ADD PUSH2 0x2281 DUP10 DUP3 PUSH2 0x21EB JUMP JUMPDEST DUP6 MSTORE PUSH1 0x20 DUP6 ADD SWAP5 POP POP POP PUSH1 0x20 DUP2 ADD SWAP1 POP PUSH2 0x2251 JUMP JUMPDEST POP POP POP SWAP4 SWAP3 POP POP POP JUMP JUMPDEST PUSH1 0x0 PUSH2 0x22AD CALLDATASIZE DUP5 DUP5 PUSH2 0x2219 JUMP JUMPDEST SWAP1 POP SWAP3 SWAP2 POP POP JUMP JUMPDEST PUSH1 0x0 DUP2 MLOAD SWAP1 POP SWAP2 SWAP1 POP JUMP JUMPDEST PUSH1 0x0 DUP3 DUP3 MSTORE PUSH1 0x20 DUP3 ADD SWAP1 POP SWAP3 SWAP2 POP POP JUMP JUMPDEST PUSH1 0x0 PUSH2 0x22DC DUP3 PUSH2 0x22B5 JUMP JUMPDEST PUSH2 0x22E6 DUP2 DUP6 PUSH2 0x22C0 JUMP JUMPDEST SWAP4 POP PUSH2 0x22F6 DUP2 DUP6 PUSH1 0x20 DUP7 ADD PUSH2 0x184E JUMP JUMPDEST PUSH2 0x22FF DUP2 PUSH2 0x1878 JUMP JUMPDEST DUP5 ADD SWAP2 POP POP SWAP3 SWAP2 POP POP JUMP JUMPDEST PUSH1 0x0 PUSH1 0x20 DUP3 ADD SWAP1 POP DUP2 DUP2 SUB PUSH1 0x0 DUP4 ADD MSTORE PUSH2 0x2324 DUP2 DUP5 PUSH2 0x22D1 JUMP JUMPDEST SWAP1 POP SWAP3 SWAP2 POP POP JUMP JUMPDEST PUSH32 0x4E487B7100000000000000000000000000000000000000000000000000000000 PUSH1 0x0 MSTORE PUSH1 0x32 PUSH1 0x4 MSTORE PUSH1 0x24 PUSH1 0x0 REVERT JUMPDEST PUSH1 0x0 DUP1 REVERT JUMPDEST PUSH1 0x0 DUP1 REVERT JUMPDEST PUSH1 0x0 DUP1 REVERT JUMPDEST PUSH1 0x0 DUP1 DUP4 CALLDATALOAD PUSH1 0x1 PUSH1 0x20 SUB DUP5 CALLDATASIZE SUB SUB DUP2 SLT PUSH2 0x2387 JUMPI PUSH2 0x2386 PUSH2 0x235B JUMP JUMPDEST JUMPDEST DUP1 DUP5 ADD SWAP3 POP DUP3 CALLDATALOAD SWAP2 POP PUSH8 0xFFFFFFFFFFFFFFFF DUP3 GT ISZERO PUSH2 0x23A9 JUMPI PUSH2 0x23A8 PUSH2 0x2360 JUMP JUMPDEST JUMPDEST PUSH1 0x20 DUP4 ADD SWAP3 POP PUSH1 0x1 DUP3 MUL CALLDATASIZE SUB DUP4 SGT ISZERO PUSH2 0x23C5 JUMPI PUSH2 0x23C4 PUSH2 0x2365 JUMP JUMPDEST JUMPDEST POP SWAP3 POP SWAP3 SWAP1 POP JUMP JUMPDEST PUSH1 0x0 DUP2 SWAP1 POP SWAP3 SWAP2 POP POP JUMP JUMPDEST PUSH1 0x0 PUSH2 0x23E4 DUP4 DUP6 PUSH2 0x23CD JUMP JUMPDEST SWAP4 POP PUSH2 0x23F1 DUP4 DUP6 DUP5 PUSH2 0x1F1C JUMP JUMPDEST DUP3 DUP5 ADD SWAP1 POP SWAP4 SWAP3 POP POP POP JUMP JUMPDEST PUSH1 0x0 PUSH2 0x240A DUP3 DUP5 DUP7 PUSH2 0x23D8 JUMP JUMPDEST SWAP2 POP DUP2 SWAP1 POP SWAP4 SWAP3 POP POP POP JUMP JUMPDEST PUSH32 0x4E487B7100000000000000000000000000000000000000000000000000000000 PUSH1 0x0 MSTORE PUSH1 0x11 PUSH1 0x4 MSTORE PUSH1 0x24 PUSH1 0x0 REVERT JUMPDEST PUSH1 0x0 PUSH2 0x2450 DUP3 PUSH2 0x1696 JUMP JUMPDEST SWAP2 POP PUSH32 0xFFFFFFFFFFFFFFFFFFFFFFFFFFFFFFFFFFFFFFFFFFFFFFFFFFFFFFFFFFFFFFFF DUP3 SUB PUSH2 0x2482 JUMPI PUSH2 0x2481 PUSH2 0x2416 JUMP JUMPDEST JUMPDEST PUSH1 0x1 DUP3 ADD SWAP1 POP SWAP2 SWAP1 POP JUMP JUMPDEST PUSH1 0x0 DUP3 CALLDATALOAD PUSH1 0x1 PUSH1 0x80 SUB DUP4 CALLDATASIZE SUB SUB DUP2 SLT PUSH2 0x24A9 JUMPI PUSH2 0x24A8 PUSH2 0x235B JUMP JUMPDEST JUMPDEST DUP1 DUP4 ADD SWAP2 POP POP SWAP3 SWAP2 POP POP JUMP JUMPDEST PUSH1 0x0 DUP3 DUP3 MSTORE PUSH1 0x20 DUP3 ADD SWAP1 POP SWAP3 SWAP2 POP POP JUMP JUMPDEST PUSH1 0x0 DUP2 SWAP1 POP SWAP2 SWAP1 POP JUMP JUMPDEST PUSH1 0x0 PUSH2 0x24DC DUP4 DUP4 PUSH2 0x1E75 JUMP JUMPDEST PUSH1 0x20 DUP4 ADD SWAP1 POP SWAP3 SWAP2 POP POP JUMP JUMPDEST PUSH1 0x0 PUSH1 0x20 DUP3 ADD SWAP1 POP SWAP2 SWAP1 POP JUMP JUMPDEST PUSH1 0x0 PUSH2 0x2501 DUP4 DUP6 PUSH2 0x24B5 JUMP JUMPDEST SWAP4 POP PUSH2 0x250C DUP3 PUSH2 0x24C6 JUMP JUMPDEST DUP1 PUSH1 0x0 JUMPDEST DUP6 DUP2 LT ISZERO PUSH2 0x2545 JUMPI PUSH2 0x2522 DUP3 DUP5 PUSH2 0x1E5E JUMP JUMPDEST PUSH2 0x252C DUP9 DUP3 PUSH2 0x24D0 JUMP JUMPDEST SWAP8 POP PUSH2 0x2537 DUP4 PUSH2 0x24E8 JUMP JUMPDEST SWAP3 POP POP PUSH1 0x1 DUP2 ADD SWAP1 POP PUSH2 0x2510 JUMP JUMPDEST POP DUP6 SWAP3 POP POP POP SWAP4 SWAP3 POP POP POP JUMP JUMPDEST PUSH1 0x0 PUSH1 0x60 DUP3 ADD SWAP1 POP DUP2 DUP2 SUB PUSH1 0x0 DUP4 ADD MSTORE PUSH2 0x256D DUP2 DUP7 DUP9 PUSH2 0x24F5 JUMP JUMPDEST SWAP1 POP PUSH2 0x257C PUSH1 0x20 DUP4 ADD DUP6 PUSH2 0x16A0 JUMP JUMPDEST PUSH2 0x2589 PUSH1 0x40 DUP4 ADD DUP5 PUSH2 0x16A0 JUMP JUMPDEST SWAP6 SWAP5 POP POP POP POP POP JUMP JUMPDEST PUSH1 0x0 PUSH1 0x60 DUP3 ADD SWAP1 POP PUSH2 0x25A7 PUSH1 0x0 DUP4 ADD DUP7 PUSH2 0x16A0 JUMP JUMPDEST PUSH2 0x25B4 PUSH1 0x20 DUP4 ADD DUP6 PUSH2 0x16A0 JUMP JUMPDEST PUSH2 0x25C1 PUSH1 0x40 DUP4 ADD DUP5 PUSH2 0x16A0 JUMP JUMPDEST SWAP5 SWAP4 POP POP POP POP JUMP JUMPDEST PUSH32 0x496E76616C6964207468726573686F6C64000000000000000000000000000000 PUSH1 0x0 DUP3 ADD MSTORE POP JUMP JUMPDEST PUSH1 0x0 PUSH2 0x25FF PUSH1 0x11 DUP4 PUSH2 0x22C0 JUMP JUMPDEST SWAP2 POP PUSH2 0x260A DUP3 PUSH2 0x25C9 JUMP JUMPDEST PUSH1 0x20 DUP3 ADD SWAP1 POP SWAP2 SWAP1 POP JUMP JUMPDEST PUSH1 0x0 PUSH1 0x20 DUP3 ADD SWAP1 POP DUP2 DUP2 SUB PUSH1 0x0 DUP4 ADD MSTORE PUSH2 0x262E DUP2 PUSH2 0x25F2 JUMP JUMPDEST SWAP1 POP SWAP2 SWAP1 POP JUMP JUMPDEST PUSH1 0x0 PUSH1 0x80 DUP4 ADD PUSH2 0x2648 PUSH1 0x0 DUP5 ADD DUP5 PUSH2 0x1E5E JUMP JUMPDEST PUSH2 0x2655 PUSH1 0x0 DUP7 ADD DUP3 PUSH2 0x1E75 JUMP JUMPDEST POP PUSH2 0x2663 PUSH1 0x20 DUP5 ADD DUP5 PUSH2 0x1E84 JUMP JUMPDEST PUSH2 0x2670 PUSH1 0x20 DUP7 ADD DUP3 PUSH2 0x1E9B JUMP JUMPDEST POP PUSH2 0x267E PUSH1 0x40 DUP5 ADD DUP5 PUSH2 0x1E84 JUMP JUMPDEST PUSH2 0x268B PUSH1 0x40 DUP7 ADD DUP3 PUSH2 0x1E9B JUMP JUMPDEST POP PUSH2 0x2699 PUSH1 0x60 DUP5 ADD DUP5 PUSH2 0x1EB9 JUMP JUMPDEST DUP6 DUP4 SUB PUSH1 0x60 DUP8 ADD MSTORE PUSH2 0x26AC DUP4 DUP3 DUP5 PUSH2 0x1F2B JUMP JUMPDEST SWAP3 POP POP POP DUP1 SWAP2 POP POP SWAP3 SWAP2 POP POP JUMP JUMPDEST PUSH1 0x0 PUSH1 0x40 DUP3 ADD SWAP1 POP DUP2 DUP2 SUB PUSH1 0x0 DUP4 ADD MSTORE PUSH2 0x26D4 DUP2 DUP6 PUSH2 0x2635 JUMP JUMPDEST SWAP1 POP PUSH2 0x26E3 PUSH1 0x20 DUP4 ADD DUP5 PUSH2 0x16A0 JUMP JUMPDEST SWAP4 SWAP3 POP POP POP JUMP JUMPDEST PUSH1 0x0 DUP3 DUP3 MSTORE PUSH1 0x20 DUP3 ADD SWAP1 POP SWAP3 SWAP2 POP POP JUMP JUMPDEST PUSH1 0x0 DUP1 REVERT JUMPDEST DUP3 DUP2 DUP4 CALLDATACOPY POP POP POP JUMP JUMPDEST PUSH1 0x0 PUSH2 0x2715 DUP4 DUP6 PUSH2 0x26EA JUMP JUMPDEST SWAP4 POP PUSH32 0x7FFFFFFFFFFFFFFFFFFFFFFFFFFFFFFFFFFFFFFFFFFFFFFFFFFFFFFFFFFFFFF DUP4 GT ISZERO PUSH2 0x2748 JUMPI PUSH2 0x2747 PUSH2 0x26FB JUMP JUMPDEST JUMPDEST PUSH1 0x20 DUP4 MUL SWAP3 POP PUSH2 0x2759 DUP4 DUP6 DUP5 PUSH2 0x2700 JUMP JUMPDEST DUP3 DUP5 ADD SWAP1 POP SWAP4 SWAP3 POP POP POP JUMP JUMPDEST PUSH1 0x0 PUSH1 0x80 DUP3 ADD SWAP1 POP DUP2 DUP2 SUB PUSH1 0x0 DUP4 ADD MSTORE PUSH2 0x2780 DUP2 DUP9 DUP11 PUSH2 0x24F5 JUMP JUMPDEST SWAP1 POP DUP2 DUP2 SUB PUSH1 0x20 DUP4 ADD MSTORE PUSH2 0x2795 DUP2 DUP7 DUP9 PUSH2 0x2709 JUMP JUMPDEST SWAP1 POP PUSH2 0x27A4 PUSH1 0x40 DUP4 ADD DUP6 PUSH2 0x16A0 JUMP JUMPDEST PUSH2 0x27B1 PUSH1 0x60 DUP4 ADD DUP5 PUSH2 0x16A0 JUMP JUMPDEST SWAP8 SWAP7 POP POP POP POP POP POP POP JUMP JUMPDEST PUSH2 0x27C5 DUP2 PUSH2 0x1D50 JUMP JUMPDEST DUP3 MSTORE POP POP JUMP JUMPDEST PUSH1 0x0 PUSH1 0x80 DUP3 ADD SWAP1 POP PUSH2 0x27E0 PUSH1 0x0 DUP4 ADD DUP8 PUSH2 0x27BC JUMP JUMPDEST PUSH2 0x27ED PUSH1 0x20 DUP4 ADD DUP7 PUSH2 0x16A0 JUMP JUMPDEST PUSH2 0x27FA PUSH1 0x40 DUP4 ADD DUP6 PUSH2 0x16A0 JUMP JUMPDEST PUSH2 0x2807 PUSH1 0x60 DUP4 ADD DUP5 PUSH2 0x16A0 JUMP JUMPDEST SWAP6 SWAP5 POP POP POP POP POP JUMP JUMPDEST PUSH1 0x0 PUSH2 0x281B DUP3 PUSH2 0x1696 JUMP JUMPDEST SWAP2 POP PUSH2 0x2826 DUP4 PUSH2 0x1696 JUMP JUMPDEST SWAP3 POP DUP3 DUP3 SUB SWAP1 POP DUP2 DUP2 GT ISZERO PUSH2 0x283E JUMPI PUSH2 0x283D PUSH2 0x2416 JUMP JUMPDEST JUMPDEST SWAP3 SWAP2 POP POP JUMP JUMPDEST PUSH1 0x0 PUSH2 0x284F DUP3 PUSH2 0x1696 JUMP JUMPDEST SWAP2 POP PUSH2 0x285A DUP4 PUSH2 0x1696 JUMP JUMPDEST SWAP3 POP DUP3 DUP3 ADD SWAP1 POP DUP1 DUP3 GT ISZERO PUSH2 0x2872 JUMPI PUSH2 0x2871 PUSH2 0x2416 JUMP JUMPDEST JUMPDEST SWAP3 SWAP2 POP POP JUMP JUMPDEST PUSH32 0x5468726573686F6C6420776F756C6420626520696D706F737369626C65000000 PUSH1 0x0 DUP3 ADD MSTORE POP JUMP JUMPDEST PUSH1 0x0 PUSH2 0x28AE PUSH1 0x1D DUP4 PUSH2 0x22C0 JUMP JUMPDEST SWAP2 POP PUSH2 0x28B9 DUP3 PUSH2 0x2878 JUMP JUMPDEST PUSH1 0x20 DUP3 ADD SWAP1 POP SWAP2 SWAP1 POP JUMP JUMPDEST PUSH1 0x0 PUSH1 0x20 DUP3 ADD SWAP1 POP DUP2 DUP2 SUB PUSH1 0x0 DUP4 ADD MSTORE PUSH2 0x28DD DUP2 PUSH2 0x28A1 JUMP JUMPDEST SWAP1 POP SWAP2 SWAP1 POP JUMP JUMPDEST PUSH1 0x0 DUP2 SWAP1 POP SWAP3 SWAP2 POP POP JUMP JUMPDEST PUSH32 0x19457468657265756D205369676E6564204D6573736167653A0A333200000000 PUSH1 0x0 DUP3 ADD MSTORE POP JUMP JUMPDEST PUSH1 0x0 PUSH2 0x2925 PUSH1 0x1C DUP4 PUSH2 0x28E4 JUMP JUMPDEST SWAP2 POP PUSH2 0x2930 DUP3 PUSH2 0x28EF JUMP JUMPDEST PUSH1 0x1C DUP3 ADD SWAP1 POP SWAP2 SWAP1 POP JUMP JUMPDEST PUSH1 0x0 DUP2 SWAP1 POP SWAP2 SWAP1 POP JUMP JUMPDEST PUSH1 0x0 DUP2 SWAP1 POP SWAP2 SWAP1 POP JUMP JUMPDEST PUSH2 0x2960 PUSH2 0x295B DUP3 PUSH2 0x293B JUMP JUMPDEST PUSH2 0x2945 JUMP JUMPDEST DUP3 MSTORE POP POP JUMP JUMPDEST PUSH1 0x0 PUSH2 0x2971 DUP3 PUSH2 0x2918 JUMP JUMPDEST SWAP2 POP PUSH2 0x297D DUP3 DUP5 PUSH2 0x294F JUMP JUMPDEST PUSH1 0x20 DUP3 ADD SWAP2 POP DUP2 SWAP1 POP SWAP3 SWAP2 POP POP JUMP JUMPDEST PUSH32 0x4E487B7100000000000000000000000000000000000000000000000000000000 PUSH1 0x0 MSTORE PUSH1 0x21 PUSH1 0x4 MSTORE PUSH1 0x24 PUSH1 0x0 REVERT JUMPDEST PUSH32 0x45434453413A20696E76616C6964207369676E61747572650000000000000000 PUSH1 0x0 DUP3 ADD MSTORE POP JUMP JUMPDEST PUSH1 0x0 PUSH2 0x29F1 PUSH1 0x18 DUP4 PUSH2 0x22C0 JUMP JUMPDEST SWAP2 POP PUSH2 0x29FC DUP3 PUSH2 0x29BB JUMP JUMPDEST PUSH1 0x20 DUP3 ADD SWAP1 POP SWAP2 SWAP1 POP JUMP JUMPDEST PUSH1 0x0 PUSH1 0x20 DUP3 ADD SWAP1 POP DUP2 DUP2 SUB PUSH1 0x0 DUP4 ADD MSTORE PUSH2 0x2A20 DUP2 PUSH2 0x29E4 JUMP JUMPDEST SWAP1 POP SWAP2 SWAP1 POP JUMP JUMPDEST PUSH32 0x45434453413A20696E76616C6964207369676E6174757265206C656E67746800 PUSH1 0x0 DUP3 ADD MSTORE POP JUMP JUMPDEST PUSH1 0x0 PUSH2 0x2A5D PUSH1 0x1F DUP4 PUSH2 0x22C0 JUMP JUMPDEST SWAP2 POP PUSH2 0x2A68 DUP3 PUSH2 0x2A27 JUMP JUMPDEST PUSH1 0x20 DUP3 ADD SWAP1 POP SWAP2 SWAP1 POP JUMP JUMPDEST PUSH1 0x0 PUSH1 0x20 DUP3 ADD SWAP1 POP DUP2 DUP2 SUB PUSH1 0x0 DUP4 ADD MSTORE PUSH2 0x2A8C DUP2 PUSH2 0x2A50 JUMP JUMPDEST SWAP1 POP SWAP2 SWAP1 POP JUMP JUMPDEST PUSH32 0x45434453413A20696E76616C6964207369676E6174757265202773272076616C PUSH1 0x0 DUP3 ADD MSTORE PUSH32 0x7565000000000000000000000000000000000000000000000000000000000000 PUSH1 0x20 DUP3 ADD MSTORE POP JUMP JUMPDEST PUSH1 0x0 PUSH2 0x2AEF PUSH1 0x22 DUP4 PUSH2 0x22C0 JUMP JUMPDEST SWAP2 POP PUSH2 0x2AFA DUP3 PUSH2 0x2A93 JUMP JUMPDEST PUSH1 0x40 DUP3 ADD SWAP1 POP SWAP2 SWAP1 POP JUMP JUMPDEST PUSH1 0x0 PUSH1 0x20 DUP3 ADD SWAP1 POP DUP2 DUP2 SUB PUSH1 0x0 DUP4 ADD MSTORE PUSH2 0x2B1E DUP2 PUSH2 0x2AE2 JUMP JUMPDEST SWAP1 POP SWAP2 SWAP1 POP JUMP JUMPDEST PUSH2 0x2B2E DUP2 PUSH2 0x293B JUMP JUMPDEST DUP3 MSTORE POP POP JUMP JUMPDEST PUSH1 0x0 PUSH1 0xFF DUP3 AND SWAP1 POP SWAP2 SWAP1 POP JUMP JUMPDEST PUSH2 0x2B4A DUP2 PUSH2 0x2B34 JUMP JUMPDEST DUP3 MSTORE POP POP JUMP JUMPDEST PUSH1 0x0 PUSH1 0x80 DUP3 ADD SWAP1 POP PUSH2 0x2B65 PUSH1 0x0 DUP4 ADD DUP8 PUSH2 0x2B25 JUMP JUMPDEST PUSH2 0x2B72 PUSH1 0x20 DUP4 ADD DUP7 PUSH2 0x2B41 JUMP JUMPDEST PUSH2 0x2B7F PUSH1 0x40 DUP4 ADD DUP6 PUSH2 0x2B25 JUMP JUMPDEST PUSH2 0x2B8C PUSH1 0x60 DUP4 ADD DUP5 PUSH2 0x2B25 JUMP JUMPDEST SWAP6 SWAP5 POP POP POP POP POP JUMP INVALID MSTORE8 PUSH10 0x676E6572207765696768 PUSH21 0x7320646F6573206E6F74206D656574207468726573 PUSH9 0x6F6C644174206C6561 PUSH20 0x74206F6E65207369676E6174757265206E6F7420 PUSH7 0x726F6D2061206B PUSH15 0x6F776E20636F6E74726F6C6C657241 PUSH21 0x206C65617374206F6E65207369676E617475726520 PUSH2 0x6C72 PUSH6 0x616479207573 PUSH6 0x64A264697066 PUSH20 0x582212201CDDF2F5D55FE3CDAABFB3F0E87F5969 0xD9 0xE4 SWAP4 0xD6 0xDD PUSH13 0xB13BD419D57393F2327864736F PUSH13 0x63430008120033000000000000 "
				},
				"gasEstimates": {
					"creation": {
						"codeDepositCost": "2266800",
						"executionCost": "2427",
						"totalCost": "2269227"
					},
					"external": {
						"addControllers(address[],uint256[],uint256,bytes[])": "infinite",
						"controlThreshold()": "2513",
						"controllerWeight(address)": "2983",
						"controllersTotalWeight()": "2514",
						"execute((address,uint256,uint256,bytes),bytes[])": "infinite",
						"multiExecute((address,uint256,uint256,bytes)[],bytes[])": "infinite",
						"removeControllers(address[],uint256,bytes[])": "infinite",
						"supportsInterface(bytes4)": "809",
						"updateControlThreshold(uint256,uint256,bytes[])": "infinite",
						"updateControllerWeight(address,uint256,uint256,bytes[])": "infinite"
					},
					"internal": {
						"_call(struct CallsStructs.ExecuteRequest calldata)": "infinite"
					}
				},
				"methodIdentifiers": {
					"addControllers(address[],uint256[],uint256,bytes[])": "af915498",
					"controlThreshold()": "a7865090",
					"controllerWeight(address)": "f04420f1",
					"controllersTotalWeight()": "06e82383",
					"execute((address,uint256,uint256,bytes),bytes[])": "a3e8d51e",
					"multiExecute((address,uint256,uint256,bytes)[],bytes[])": "0d992b2b",
					"removeControllers(address[],uint256,bytes[])": "286936bb",
					"supportsInterface(bytes4)": "01ffc9a7",
					"updateControlThreshold(uint256,uint256,bytes[])": "87f949b4",
					"updateControllerWeight(address,uint256,uint256,bytes[])": "d0bccea1"
				}
			},
			"storageLayout": {
				"storage": [],
				"types": null
			},
			"userdoc": {
				"kind": "user",
				"methods": {},
				"version": 1
			}
		}
	}
}