{
  "_format": "hh-sol-artifact-1",
  "contractName": "WalletProxyFactory",
  "sourceName": "contracts/WalletProxyFactory.sol",
  "abi": [
    {
      "inputs": [
        {
          "internalType": "address",
          "name": "_walletImpl",
          "type": "address"
        }
      ],
      "stateMutability": "nonpayable",
      "type": "constructor"
    },
    {
      "inputs": [],
      "name": "ECDSAInvalidSignature",
      "type": "error"
    },
    {
      "inputs": [
        {
          "internalType": "uint256",
          "name": "length",
          "type": "uint256"
        }
      ],
      "name": "ECDSAInvalidSignatureLength",
      "type": "error"
    },
    {
      "inputs": [
        {
          "internalType": "bytes32",
          "name": "s",
          "type": "bytes32"
        }
      ],
      "name": "ECDSAInvalidSignatureS",
      "type": "error"
    },
    {
      "inputs": [],
      "name": "WalletImplInvalid",
      "type": "error"
    },
    {
      "inputs": [],
      "name": "WalletProxyDeployFailed",
      "type": "error"
    },
    {
      "anonymous": false,
      "inputs": [
        {
          "indexed": true,
          "internalType": "address",
          "name": "contractAddress",
          "type": "address"
        },
        {
          "indexed": true,
          "internalType": "bool",
          "name": "wasSigned",
          "type": "bool"
        }
      ],
      "name": "ContractDeployed",
      "type": "event"
    },
    {
      "inputs": [
        {
          "internalType": "bytes32",
          "name": "_salt",
          "type": "bytes32"
        }
      ],
      "name": "calculateExpectedAddress",
      "outputs": [
        {
          "internalType": "address",
          "name": "expectedAddress_",
          "type": "address"
        }
      ],
      "stateMutability": "view",
      "type": "function"
    },
    {
      "inputs": [
        {
          "internalType": "address",
          "name": "_user",
          "type": "address"
        },
        {
          "internalType": "bytes32",
          "name": "_userSalt",
          "type": "bytes32"
        }
      ],
      "name": "calculateExpectedAddress",
      "outputs": [
        {
          "internalType": "address",
          "name": "expectedAddress_",
          "type": "address"
        }
      ],
      "stateMutability": "view",
      "type": "function"
    },
    {
      "inputs": [
        {
          "internalType": "bytes32",
          "name": "_userSalt",
          "type": "bytes32"
        }
      ],
      "name": "createProxy",
      "outputs": [
        {
          "internalType": "address",
          "name": "createdContract_",
          "type": "address"
        }
      ],
      "stateMutability": "nonpayable",
      "type": "function"
    },
    {
      "inputs": [
        {
          "internalType": "bytes",
          "name": "_proofSignature",
          "type": "bytes"
        }
      ],
      "name": "createProxyFromSignature",
      "outputs": [
        {
          "internalType": "address",
          "name": "createdContract_",
          "type": "address"
        }
      ],
      "stateMutability": "nonpayable",
      "type": "function"
    },
    {
      "inputs": [
        {
          "internalType": "address",
          "name": "_user",
          "type": "address"
        },
        {
          "internalType": "bytes32",
          "name": "_userSalt",
          "type": "bytes32"
        }
      ],
      "name": "getSalt",
      "outputs": [
        {
          "internalType": "bytes32",
          "name": "",
          "type": "bytes32"
        }
      ],
      "stateMutability": "pure",
      "type": "function"
    },
    {
      "inputs": [],
      "name": "latestWalletImplementation",
      "outputs": [
        {
          "internalType": "address",
          "name": "",
          "type": "address"
        }
      ],
      "stateMutability": "view",
      "type": "function"
    },
    {
      "inputs": [],
      "name": "proxyHash",
      "outputs": [
        {
          "internalType": "bytes32",
          "name": "",
          "type": "bytes32"
        }
      ],
      "stateMutability": "view",
      "type": "function"
    }
  ],
  "bytecode": "0x608060405234801561001057600080fd5b50604051610c62380380610c6283398101604081905261002f9161007b565b6001600160a01b038116610056576040516303b4f93f60e21b815260040160405180910390fd5b600080546001600160a01b0319166001600160a01b03929092169190911790556100ab565b60006020828403121561008d57600080fd5b81516001600160a01b03811681146100a457600080fd5b9392505050565b610ba8806100ba6000396000f3fe60806040523480156200001157600080fd5b5060043610620000765760003560e01c806301434451146200007b57806329a5c5cf14620000a7578063396a5f9514620000be578063809cee2f14620000d5578063a6e8e0ec14620000ee578063b3e3bf421462000105578063e75b2141146200011c575b600080fd5b6000546200008f906001600160a01b031681565b6040516200009e9190620006df565b60405180910390f35b6200008f620000b8366004620006f3565b62000133565b6200008f620000cf366004620006f3565b620001eb565b620000df6200022c565b6040519081526020016200009e565b6200008f620000ff3660046200070d565b6200025b565b620000df6200011636600462000784565b6200039e565b6200008f6200012d36600462000784565b620003db565b60006200014b6200014533846200039e565b620003f4565b60405163189acdbd60e31b81529091506001600160a01b0382169063c4d66de8906200017c903390600401620006df565b600060405180830381600087803b1580156200019757600080fd5b505af1158015620001ac573d6000803e3d6000fd5b5050604051600092506001600160a01b03841691507f78b2dce31d0df81e0f2f624cfdaf9233b611e38fa6fc50e108f28ce6cb42a240908390a3919050565b60006200022682604051806020016200020490620006d1565b6020820181038252601f19601f82011660405250805190602001203062000456565b92915050565b6040516200023d60208201620006d1565b6020820181038252601f19601f820116604052508051906020012081565b600080620002c07f80bbec9d9b62e91e41120983ff97f411021f82963b0c06c5eef9357ab7bafe1e85858080601f0160208091040260200160405190810160405280939291908181526020018383808284376000920191909152506200048092505050565b9050600081604051602001620002d79190620006df565b604051602081830303815290604052805190602001209050620002fa81620003f4565b60405163189acdbd60e31b81529093506001600160a01b0384169063c4d66de8906200032b908590600401620006df565b600060405180830381600087803b1580156200034657600080fd5b505af11580156200035b573d6000803e3d6000fd5b5050604051600192506001600160a01b03861691507f78b2dce31d0df81e0f2f624cfdaf9233b611e38fa6fc50e108f28ce6cb42a24090600090a3505092915050565b604080516001600160a01b038416602082015290810182905260009060600160405160208183030381529060405280519060200120905092915050565b6000620003ed620000cf84846200039e565b9392505050565b6000816040516200040590620006d1565b8190604051809103906000f590508015801562000426573d6000803e3d6000fd5b5090506001600160a01b038116620004515760405163dc03922760e01b815260040160405180910390fd5b919050565b6000604051836040820152846020820152828152600b8101905060ff815360559020949350505050565b7f19457468657265756d205369676e6564204d6573736167653a0a3332000000006000908152601c839052603c8120620003ed9083600080600080620004c78686620004e3565b925092509250620004d9828262000534565b5090949350505050565b60008060008351604103620005215760208401516040850151606086015160001a620005128882858562000607565b9550955095505050506200052d565b50508151600091506002905b9250925092565b60008260038111156200054b576200054b620007be565b0362000555575050565b60018260038111156200056c576200056c620007be565b036200058b5760405163f645eedf60e01b815260040160405180910390fd5b6002826003811115620005a257620005a2620007be565b03620005c95760405163fce698f760e01b8152600481018290526024015b60405180910390fd5b6003826003811115620005e057620005e0620007be565b0362000603576040516335e2f38360e21b815260048101829052602401620005c0565b5050565b600080806fa2a8918ca85bafe22016d0b997e4df60600160ff1b038411156200063a5750600091506003905082620006c7565b604080516000808252602082018084528a905260ff891692820192909252606081018790526080810186905260019060a0016020604051602081039080840390855afa1580156200068f573d6000803e3d6000fd5b5050604051601f1901519150506001600160a01b038116620006bd57506000925060019150829050620006c7565b9250600091508190505b9450945094915050565b61039e80620007d583390190565b6001600160a01b0391909116815260200190565b6000602082840312156200070657600080fd5b5035919050565b600080602083850312156200072157600080fd5b823567ffffffffffffffff808211156200073a57600080fd5b818501915085601f8301126200074f57600080fd5b8135818111156200075f57600080fd5b8660208285010111156200077257600080fd5b60209290920196919550909350505050565b600080604083850312156200079857600080fd5b82356001600160a01b0381168114620007b057600080fd5b946020939093013593505050565b634e487b7160e01b600052602160045260246000fdfe608060405234801561001057600080fd5b50336001600160a01b031663014344516040518163ffffffff1660e01b8152600401602060405180830381865afa15801561004f573d6000803e3d6000fd5b505050506040513d601f19601f82011682018060405250810190610073919061028e565b60408051602081019091526000815261008c8282610093565b50506102e6565b61009c826100f2565b6040516001600160a01b038316907fbc7cd75a20ee27fd9adebab32041f755214dbc6bffa90cc0225b39da2e5c2d3b90600090a28051156100e6576100e1828261016e565b505050565b6100ee6101e5565b5050565b806001600160a01b03163b60000361012d57604051634c9c8ce360e01b81526001600160a01b03821660048201526024015b60405180910390fd5b7f360894a13ba1a3210667c828492db98dca3e2076cc3735a920a3ca505d382bbc80546001600160a01b0319166001600160a01b0392909216919091179055565b6060600080846001600160a01b03168460405161018b91906102b7565b600060405180830381855af49150503d80600081146101c6576040519150601f19603f3d011682016040523d82523d6000602084013e6101cb565b606091505b5090925090506101dc858383610206565b95945050505050565b34156102045760405163b398979f60e01b815260040160405180910390fd5b565b60608261021b5761021682610265565b61025e565b815115801561023257506001600160a01b0384163b155b1561025b57604051639996b31560e01b81526001600160a01b0385166004820152602401610124565b50805b9392505050565b8051156102755780518082602001fd5b604051630a12f52160e11b815260040160405180910390fd5b6000602082840312156102a057600080fd5b81516001600160a01b038116811461025e57600080fd5b6000825160005b818110156102d857602081860181015185830152016102be565b506000920191825250919050565b60aa806102f46000396000f3fe6080604052600a600c565b005b60186014601a565b6051565b565b6000604c7f360894a13ba1a3210667c828492db98dca3e2076cc3735a920a3ca505d382bbc546001600160a01b031690565b905090565b3660008037600080366000845af43d6000803e808015606f573d6000f35b3d6000fdfea26469706673582212205f5900297d02e3c3285325e4b0567982e202e881b278fb0c90bc8886e4a4a19664736f6c63430008170033a2646970667358221220fee4a5708af1c6ecfa0103e38bddbc5bafcb8b44d74ca898d51a83a652f4827764736f6c63430008170033",
  "linkReferences": {},
  "deployedLinkReferences": {}
}