{
  "_format": "hh-sol-artifact-1",
  "contractName": "Upgrades",
  "sourceName": "contracts/modules/Upgrades/Upgrades.sol",
  "abi": [
    {
      "inputs": [
        {
          "internalType": "address[]",
          "name": "_controllers",
          "type": "address[]"
        },
        {
          "internalType": "uint256[]",
          "name": "_weights",
          "type": "uint256[]"
        },
        {
          "internalType": "uint256",
          "name": "_nonce",
          "type": "uint256"
        },
        {
          "internalType": "bytes[]",
          "name": "_signatures",
          "type": "bytes[]"
        }
      ],
      "name": "addControllers",
      "outputs": [],
      "stateMutability": "nonpayable",
      "type": "function"
    },
    {
      "inputs": [],
      "name": "controlThreshold",
      "outputs": [
        {
          "internalType": "uint256",
          "name": "",
          "type": "uint256"
        }
      ],
      "stateMutability": "view",
      "type": "function"
    },
    {
      "inputs": [
        {
          "internalType": "address",
          "name": "_controller",
          "type": "address"
        }
      ],
      "name": "controllerWeight",
      "outputs": [
        {
          "internalType": "uint256",
          "name": "",
          "type": "uint256"
        }
      ],
      "stateMutability": "view",
      "type": "function"
    },
    {
      "inputs": [],
      "name": "controllersTotalWeight",
      "outputs": [
        {
          "internalType": "uint256",
          "name": "",
          "type": "uint256"
        }
      ],
      "stateMutability": "view",
      "type": "function"
    },
    {
      "inputs": [
        {
          "internalType": "address[]",
          "name": "_controllers",
          "type": "address[]"
        },
        {
          "internalType": "uint256",
          "name": "_nonce",
          "type": "uint256"
        },
        {
          "internalType": "bytes[]",
          "name": "_signatures",
          "type": "bytes[]"
        }
      ],
      "name": "removeControllers",
      "outputs": [],
      "stateMutability": "nonpayable",
      "type": "function"
    },
    {
      "inputs": [
        {
          "internalType": "bytes4",
          "name": "interfaceId",
          "type": "bytes4"
        }
      ],
      "name": "supportsInterface",
      "outputs": [
        {
          "internalType": "bool",
          "name": "",
          "type": "bool"
        }
      ],
      "stateMutability": "view",
      "type": "function"
    },
    {
      "inputs": [],
      "name": "supportsUpgrades",
      "outputs": [
        {
          "internalType": "bool",
          "name": "",
          "type": "bool"
        }
      ],
      "stateMutability": "pure",
      "type": "function"
    },
    {
      "inputs": [
        {
          "internalType": "uint256",
          "name": "_threshold",
          "type": "uint256"
        },
        {
          "internalType": "uint256",
          "name": "_nonce",
          "type": "uint256"
        },
        {
          "internalType": "bytes[]",
          "name": "_signatures",
          "type": "bytes[]"
        }
      ],
      "name": "updateControlThreshold",
      "outputs": [],
      "stateMutability": "nonpayable",
      "type": "function"
    },
    {
      "inputs": [
        {
          "internalType": "address",
          "name": "_controller",
          "type": "address"
        },
        {
          "internalType": "uint256",
          "name": "_weight",
          "type": "uint256"
        },
        {
          "internalType": "uint256",
          "name": "_nonce",
          "type": "uint256"
        },
        {
          "internalType": "bytes[]",
          "name": "_signatures",
          "type": "bytes[]"
        }
      ],
      "name": "updateControllerWeight",
      "outputs": [],
      "stateMutability": "nonpayable",
      "type": "function"
    },
    {
      "inputs": [
        {
          "internalType": "address",
          "name": "_implementation",
          "type": "address"
        },
        {
          "internalType": "uint256",
          "name": "_nonce",
          "type": "uint256"
        },
        {
          "internalType": "bytes[]",
          "name": "_signatures",
          "type": "bytes[]"
        }
      ],
      "name": "upgrade",
      "outputs": [],
      "stateMutability": "nonpayable",
      "type": "function"
    }
  ],
  "bytecode": "0x608060405234801561001057600080fd5b50611de1806100206000396000f3fe608060405234801561001057600080fd5b50600436106100be5760003560e01c8063a786509011610076578063d0bccea11161005b578063d0bccea114610191578063f04420f1146101a4578063fec5c09a146101f957600080fd5b8063a786509014610157578063af9154981461017e57600080fd5b8063286936bb116100a7578063286936bb1461011c57806387f949b41461013157806394c4395b1461014457600080fd5b806301ffc9a7146100c357806306e82383146100eb575b600080fd5b6100d66100d136600461160a565b610200565b60405190151581526020015b60405180910390f35b7f255f4a56bd3ad76424e31ed8855ef9ad14a0ce4e67508c76ff082e5c1466b130545b6040519081526020016100e2565b61012f61012a366004611691565b610262565b005b61012f61013f36600461170b565b610423565b61012f610152366004611787565b610687565b7f255f4a56bd3ad76424e31ed8855ef9ad14a0ce4e67508c76ff082e5c1466b12f5461010e565b61012f61018c3660046117c9565b6108dc565b61012f61019f36600461186d565b610aae565b61010e6101b23660046118c4565b73ffffffffffffffffffffffffffffffffffffffff1660009081527f255f4a56bd3ad76424e31ed8855ef9ad14a0ce4e67508c76ff082e5c1466b131602052604090205490565b60016100d6565b60007f95fe063f000000000000000000000000000000000000000000000000000000007fffffffff0000000000000000000000000000000000000000000000000000000083160161025357506001919050565b61025c82610dd1565b92915050565b848484466040516020016102799493929190611933565b604080517fffffffffffffffffffffffffffffffffffffffffffffffffffffffffffffffe0818403018152919052805160209091012082826000806102c7856102c285876119d8565b610e6e565b9150915081819061030e576040517f08c379a00000000000000000000000000000000000000000000000000000000081526004016103059190611acb565b60405180910390fd5b5060005b838110156103c95760017f255f4a56bd3ad76424e31ed8855ef9ad14a0ce4e67508c76ff082e5c1466b132600087878581811061035157610351611b37565b90506020028101906103639190611b66565b604051610371929190611bcb565b6040805191829003909120825260208201929092520160002080547fffffffffffffffffffffffffffffffffffffffffffffffffffffffffffffff0016911515919091179055806103c181611c0a565b915050610312565b5060005b89811015610416576104048b8b838181106103ea576103ea611b37565b90506020020160208101906103ff91906118c4565b611079565b8061040e81611c0a565b9150506103cd565b5050505050505050505050565b6040805160208101869052908101849052466060820152608001604080517fffffffffffffffffffffffffffffffffffffffffffffffffffffffffffffffe081840301815291905280516020909101208282600080610486856102c285876119d8565b915091508181906104c4576040517f08c379a00000000000000000000000000000000000000000000000000000000081526004016103059190611acb565b5060005b8381101561057f5760017f255f4a56bd3ad76424e31ed8855ef9ad14a0ce4e67508c76ff082e5c1466b132600087878581811061050757610507611b37565b90506020028101906105199190611b66565b604051610527929190611bcb565b6040805191829003909120825260208201929092520160002080547fffffffffffffffffffffffffffffffffffffffffffffffffffffffffffffff00169115159190911790558061057781611c0a565b9150506104c8565b5060007f255f4a56bd3ad76424e31ed8855ef9ad14a0ce4e67508c76ff082e5c1466b12f541180156105f357507f255f4a56bd3ad76424e31ed8855ef9ad14a0ce4e67508c76ff082e5c1466b130547f255f4a56bd3ad76424e31ed8855ef9ad14a0ce4e67508c76ff082e5c1466b12f5411155b610659576040517f08c379a000000000000000000000000000000000000000000000000000000000815260206004820152601160248201527f496e76616c6964207468726573686f6c640000000000000000000000000000006044820152606401610305565b887f255f4a56bd3ad76424e31ed8855ef9ad14a0ce4e67508c76ff082e5c1466b12f55505050505050505050565b6040805173ffffffffffffffffffffffffffffffffffffffff86166020820152908101849052466060820152608001604080517fffffffffffffffffffffffffffffffffffffffffffffffffffffffffffffffe0818403018152919052805160209091012082826000806106ff856102c285876119d8565b9150915081819061073d576040517f08c379a00000000000000000000000000000000000000000000000000000000081526004016103059190611acb565b5060005b838110156107f85760017f255f4a56bd3ad76424e31ed8855ef9ad14a0ce4e67508c76ff082e5c1466b132600087878581811061078057610780611b37565b90506020028101906107929190611b66565b6040516107a0929190611bcb565b6040805191829003909120825260208201929092520160002080547fffffffffffffffffffffffffffffffffffffffffffffffffffffffffffffff0016911515919091179055806107f081611c0a565b915050610741565b508873ffffffffffffffffffffffffffffffffffffffff1663fec5c09a6040518163ffffffff1660e01b8152600401602060405180830381865afa158015610844573d6000803e3d6000fd5b505050506040513d601f19601f820116820180604052508101906108689190611c42565b6108ce576040517f08c379a000000000000000000000000000000000000000000000000000000000815260206004820152601660248201527f496e76616c696420696d706c656d656e746174696f6e000000000000000000006044820152606401610305565b883055505050505050505050565b8686868686466040516020016108f796959493929190611c64565b604080517fffffffffffffffffffffffffffffffffffffffffffffffffffffffffffffffe081840301815291905280516020909101208282600080610940856102c285876119d8565b9150915081819061097e576040517f08c379a00000000000000000000000000000000000000000000000000000000081526004016103059190611acb565b5060005b83811015610a395760017f255f4a56bd3ad76424e31ed8855ef9ad14a0ce4e67508c76ff082e5c1466b13260008787858181106109c1576109c1611b37565b90506020028101906109d39190611b66565b6040516109e1929190611bcb565b6040805191829003909120825260208201929092520160002080547fffffffffffffffffffffffffffffffffffffffffffffffffffffffffffffff001691151591909117905580610a3181611c0a565b915050610982565b5060005b8b811015610a9f57610a8d8d8d83818110610a5a57610a5a611b37565b9050602002016020810190610a6f91906118c4565b8c8c84818110610a8157610a81611b37565b90506020020135611213565b80610a9781611c0a565b915050610a3d565b50505050505050505050505050565b6040805173ffffffffffffffffffffffffffffffffffffffff871660208201529081018590526060810184905246608082015260a001604080517fffffffffffffffffffffffffffffffffffffffffffffffffffffffffffffffe081840301815291905280516020909101208282600080610b2d856102c285876119d8565b91509150818190610b6b576040517f08c379a00000000000000000000000000000000000000000000000000000000081526004016103059190611acb565b5060005b83811015610c265760017f255f4a56bd3ad76424e31ed8855ef9ad14a0ce4e67508c76ff082e5c1466b1326000878785818110610bae57610bae611b37565b9050602002810190610bc09190611b66565b604051610bce929190611bcb565b6040805191829003909120825260208201929092520160002080547fffffffffffffffffffffffffffffffffffffffffffffffffffffffffffffff001691151591909117905580610c1e81611c0a565b915050610b6f565b5073ffffffffffffffffffffffffffffffffffffffff8a1660009081527f255f4a56bd3ad76424e31ed8855ef9ad14a0ce4e67508c76ff082e5c1466b13160205260409020547f255f4a56bd3ad76424e31ed8855ef9ad14a0ce4e67508c76ff082e5c1466b130548a91610c9991611cdb565b610ca39190611cee565b7f255f4a56bd3ad76424e31ed8855ef9ad14a0ce4e67508c76ff082e5c1466b13081905515801590610d1757507f255f4a56bd3ad76424e31ed8855ef9ad14a0ce4e67508c76ff082e5c1466b12f547f255f4a56bd3ad76424e31ed8855ef9ad14a0ce4e67508c76ff082e5c1466b1305410155b610d7d576040517f08c379a000000000000000000000000000000000000000000000000000000000815260206004820152601d60248201527f5468726573686f6c6420776f756c6420626520696d706f737369626c650000006044820152606401610305565b5050505073ffffffffffffffffffffffffffffffffffffffff9590951660009081527f255f4a56bd3ad76424e31ed8855ef9ad14a0ce4e67508c76ff082e5c1466b131602052604090209390935550505050565b60007f7e68492c000000000000000000000000000000000000000000000000000000007fffffffff00000000000000000000000000000000000000000000000000000000831601610e2457506001919050565b7f01ffc9a7000000000000000000000000000000000000000000000000000000007fffffffff0000000000000000000000000000000000000000000000000000000083161461025c565b600060606000805b845181101561100d576000610ea487878481518110610e9757610e97611b37565b6020026020010151611295565b73ffffffffffffffffffffffffffffffffffffffff811660009081527f255f4a56bd3ad76424e31ed8855ef9ad14a0ce4e67508c76ff082e5c1466b131602052604081205491925003610f18576000604051806060016040528060328152602001611d576032913994509450505050611072565b6000868381518110610f2c57610f2c611b37565b6020026020010151805190602001209050610f647f255f4a56bd3ad76424e31ed8855ef9ad14a0ce4e67508c76ff082e5c1466b12f90565b6000828152600391909101602052604090205460ff1615610fa7576000604051806060016040528060238152602001611d89602391399550955050505050611072565b73ffffffffffffffffffffffffffffffffffffffff821660009081527f255f4a56bd3ad76424e31ed8855ef9ad14a0ce4e67508c76ff082e5c1466b1316020526040902054610ff69085611cee565b93505050808061100590611c0a565b915050610e76565b507f255f4a56bd3ad76424e31ed8855ef9ad14a0ce4e67508c76ff082e5c1466b12f5481101561105c576000604051806060016040528060268152602001611d31602691399250925050611072565b5050604080516020810190915260008152600191505b9250929050565b73ffffffffffffffffffffffffffffffffffffffff811660009081527f255f4a56bd3ad76424e31ed8855ef9ad14a0ce4e67508c76ff082e5c1466b13160205260408120547f255f4a56bd3ad76424e31ed8855ef9ad14a0ce4e67508c76ff082e5c1466b1308054919290916110f0908490611cdb565b90915550507f255f4a56bd3ad76424e31ed8855ef9ad14a0ce4e67508c76ff082e5c1466b130541580159061116757507f255f4a56bd3ad76424e31ed8855ef9ad14a0ce4e67508c76ff082e5c1466b12f547f255f4a56bd3ad76424e31ed8855ef9ad14a0ce4e67508c76ff082e5c1466b1305410155b6111cd576040517f08c379a000000000000000000000000000000000000000000000000000000000815260206004820152601d60248201527f5468726573686f6c6420776f756c6420626520696d706f737369626c650000006044820152606401610305565b73ffffffffffffffffffffffffffffffffffffffff1660009081527f255f4a56bd3ad76424e31ed8855ef9ad14a0ce4e67508c76ff082e5c1466b1316020526040812055565b807f255f4a56bd3ad76424e31ed8855ef9ad14a0ce4e67508c76ff082e5c1466b12f60010160008282546112479190611cee565b909155505073ffffffffffffffffffffffffffffffffffffffff9190911660009081527f255f4a56bd3ad76424e31ed8855ef9ad14a0ce4e67508c76ff082e5c1466b1316020526040902055565b60006112f8826112f2856040517f19457468657265756d205369676e6564204d6573736167653a0a3332000000006020820152603c8101829052600090605c01604051602081830303815290604052805190602001209050919050565b906112ff565b9392505050565b600080600061130e8585611323565b9150915061131b81611365565b509392505050565b60008082516041036113595760208301516040840151606085015160001a61134d8782858561151b565b94509450505050611072565b50600090506002611072565b600081600481111561137957611379611d01565b036113815750565b600181600481111561139557611395611d01565b036113fc576040517f08c379a000000000000000000000000000000000000000000000000000000000815260206004820152601860248201527f45434453413a20696e76616c6964207369676e617475726500000000000000006044820152606401610305565b600281600481111561141057611410611d01565b03611477576040517f08c379a000000000000000000000000000000000000000000000000000000000815260206004820152601f60248201527f45434453413a20696e76616c6964207369676e6174757265206c656e677468006044820152606401610305565b600381600481111561148b5761148b611d01565b03611518576040517f08c379a000000000000000000000000000000000000000000000000000000000815260206004820152602260248201527f45434453413a20696e76616c6964207369676e6174757265202773272076616c60448201527f75650000000000000000000000000000000000000000000000000000000000006064820152608401610305565b50565b6000807f7fffffffffffffffffffffffffffffff5d576e7357a4501ddfe92f46681b20a08311156115525750600090506003611601565b6040805160008082526020820180845289905260ff881692820192909252606081018690526080810185905260019060a0016020604051602081039080840390855afa1580156115a6573d6000803e3d6000fd5b50506040517fffffffffffffffffffffffffffffffffffffffffffffffffffffffffffffffe0015191505073ffffffffffffffffffffffffffffffffffffffff81166115fa57600060019250925050611601565b9150600090505b94509492505050565b60006020828403121561161c57600080fd5b81357fffffffff00000000000000000000000000000000000000000000000000000000811681146112f857600080fd5b60008083601f84011261165e57600080fd5b50813567ffffffffffffffff81111561167657600080fd5b6020830191508360208260051b850101111561107257600080fd5b6000806000806000606086880312156116a957600080fd5b853567ffffffffffffffff808211156116c157600080fd5b6116cd89838a0161164c565b90975095506020880135945060408801359150808211156116ed57600080fd5b506116fa8882890161164c565b969995985093965092949392505050565b6000806000806060858703121561172157600080fd5b8435935060208501359250604085013567ffffffffffffffff81111561174657600080fd5b6117528782880161164c565b95989497509550505050565b803573ffffffffffffffffffffffffffffffffffffffff8116811461178257600080fd5b919050565b6000806000806060858703121561179d57600080fd5b6117a68561175e565b935060208501359250604085013567ffffffffffffffff81111561174657600080fd5b60008060008060008060006080888a0312156117e457600080fd5b873567ffffffffffffffff808211156117fc57600080fd5b6118088b838c0161164c565b909950975060208a013591508082111561182157600080fd5b61182d8b838c0161164c565b909750955060408a0135945060608a013591508082111561184d57600080fd5b5061185a8a828b0161164c565b989b979a50959850939692959293505050565b60008060008060006080868803121561188557600080fd5b61188e8661175e565b94506020860135935060408601359250606086013567ffffffffffffffff8111156118b857600080fd5b6116fa8882890161164c565b6000602082840312156118d657600080fd5b6112f88261175e565b8183526000602080850194508260005b858110156119285773ffffffffffffffffffffffffffffffffffffffff6119158361175e565b16875295820195908201906001016118ef565b509495945050505050565b6060815260006119476060830186886118df565b6020830194909452506040015292915050565b7f4e487b7100000000000000000000000000000000000000000000000000000000600052604160045260246000fd5b604051601f82017fffffffffffffffffffffffffffffffffffffffffffffffffffffffffffffffe016810167ffffffffffffffff811182821017156119d0576119d061195a565b604052919050565b600067ffffffffffffffff808411156119f3576119f361195a565b8360051b6020611a04818301611989565b868152918501918181019036841115611a1c57600080fd5b865b84811015611abf57803586811115611a365760008081fd5b8801601f3681830112611a495760008081fd5b813588811115611a5b57611a5b61195a565b611a8a877fffffffffffffffffffffffffffffffffffffffffffffffffffffffffffffffe08484011601611989565b91508082523687828501011115611aa15760008081fd5b80878401888401376000908201870152845250918301918301611a1e565b50979650505050505050565b600060208083528351808285015260005b81811015611af857858101830151858201604001528201611adc565b5060006040828601015260407fffffffffffffffffffffffffffffffffffffffffffffffffffffffffffffffe0601f8301168501019250505092915050565b7f4e487b7100000000000000000000000000000000000000000000000000000000600052603260045260246000fd5b60008083357fffffffffffffffffffffffffffffffffffffffffffffffffffffffffffffffe1843603018112611b9b57600080fd5b83018035915067ffffffffffffffff821115611bb657600080fd5b60200191503681900382131561107257600080fd5b8183823760009101908152919050565b7f4e487b7100000000000000000000000000000000000000000000000000000000600052601160045260246000fd5b60007fffffffffffffffffffffffffffffffffffffffffffffffffffffffffffffffff8203611c3b57611c3b611bdb565b5060010190565b600060208284031215611c5457600080fd5b815180151581146112f857600080fd5b608081526000611c7860808301888a6118df565b82810360208401528581527f07ffffffffffffffffffffffffffffffffffffffffffffffffffffffffffffff861115611cb057600080fd5b8560051b80886020840137604084019590955260609092019290925290910160200195945050505050565b8181038181111561025c5761025c611bdb565b8082018082111561025c5761025c611bdb565b7f4e487b7100000000000000000000000000000000000000000000000000000000600052602160045260246000fdfe5369676e6572207765696768747320646f6573206e6f74206d656574207468726573686f6c644174206c65617374206f6e65207369676e6174757265206e6f742066726f6d2061206b6e6f776e20636f6e74726f6c6c65724174206c65617374206f6e65207369676e617475726520616c72656164792075736564a2646970667358221220403bd0c6c65c0cf0201a9282ca4970a2cca3443c35549db0f02c308504a58e6b64736f6c63430008120033",
  "linkReferences": {},
  "deployedLinkReferences": {}
}