{
  "_format": "hh-sol-artifact-1",
  "contractName": "Upgrades",
  "sourceName": "contracts/modules/Upgrades/Upgrades.sol",
  "abi": [
    {
      "inputs": [
        {
          "internalType": "address[]",
          "name": "_controllers",
          "type": "address[]"
        },
        {
          "internalType": "uint256[]",
          "name": "_weights",
          "type": "uint256[]"
        },
        {
          "internalType": "uint256",
          "name": "_nonce",
          "type": "uint256"
        },
        {
          "internalType": "bytes[]",
          "name": "_signatures",
          "type": "bytes[]"
        }
      ],
      "name": "addControllers",
      "outputs": [],
      "stateMutability": "nonpayable",
      "type": "function"
    },
    {
      "inputs": [],
      "name": "controlThreshold",
      "outputs": [
        {
          "internalType": "uint256",
          "name": "",
          "type": "uint256"
        }
      ],
      "stateMutability": "view",
      "type": "function"
    },
    {
      "inputs": [
        {
          "internalType": "address",
          "name": "_controller",
          "type": "address"
        }
      ],
      "name": "controllerWeight",
      "outputs": [
        {
          "internalType": "uint256",
          "name": "",
          "type": "uint256"
        }
      ],
      "stateMutability": "view",
      "type": "function"
    },
    {
      "inputs": [],
      "name": "controllersTotalWeight",
      "outputs": [
        {
          "internalType": "uint256",
          "name": "",
          "type": "uint256"
        }
      ],
      "stateMutability": "view",
      "type": "function"
    },
    {
      "inputs": [
        {
          "internalType": "address[]",
          "name": "_controllers",
          "type": "address[]"
        },
        {
          "internalType": "uint256",
          "name": "_nonce",
          "type": "uint256"
        },
        {
          "internalType": "bytes[]",
          "name": "_signatures",
          "type": "bytes[]"
        }
      ],
      "name": "removeControllers",
      "outputs": [],
      "stateMutability": "nonpayable",
      "type": "function"
    },
    {
      "inputs": [],
      "name": "supportsUpgrades",
      "outputs": [
        {
          "internalType": "bool",
          "name": "",
          "type": "bool"
        }
      ],
      "stateMutability": "pure",
      "type": "function"
    },
    {
      "inputs": [
        {
          "internalType": "uint256",
          "name": "_threshold",
          "type": "uint256"
        },
        {
          "internalType": "uint256",
          "name": "_nonce",
          "type": "uint256"
        },
        {
          "internalType": "bytes[]",
          "name": "_signatures",
          "type": "bytes[]"
        }
      ],
      "name": "updateControlThreshold",
      "outputs": [],
      "stateMutability": "nonpayable",
      "type": "function"
    },
    {
      "inputs": [
        {
          "internalType": "address",
          "name": "_controller",
          "type": "address"
        },
        {
          "internalType": "uint256",
          "name": "_weight",
          "type": "uint256"
        },
        {
          "internalType": "uint256",
          "name": "_nonce",
          "type": "uint256"
        },
        {
          "internalType": "bytes[]",
          "name": "_signatures",
          "type": "bytes[]"
        }
      ],
      "name": "updateControllerWeight",
      "outputs": [],
      "stateMutability": "nonpayable",
      "type": "function"
    },
    {
      "inputs": [
        {
          "internalType": "address",
          "name": "_implementation",
          "type": "address"
        },
        {
          "internalType": "uint256",
          "name": "_nonce",
          "type": "uint256"
        },
        {
          "internalType": "bytes[]",
          "name": "_signatures",
          "type": "bytes[]"
        }
      ],
      "name": "upgrade",
      "outputs": [],
      "stateMutability": "nonpayable",
      "type": "function"
    }
  ],
  "bytecode": "0x608060405234801561001057600080fd5b50611c73806100206000396000f3fe608060405234801561001057600080fd5b50600436106100a35760003560e01c8063a786509011610076578063d0bccea11161005b578063d0bccea114610153578063f04420f114610166578063fec5c09a146101bb57600080fd5b8063a786509014610119578063af9154981461014057600080fd5b806306e82383146100a8578063286936bb146100de57806387f949b4146100f357806394c4395b14610106575b600080fd5b7f255f4a56bd3ad76424e31ed8855ef9ad14a0ce4e67508c76ff082e5c1466b130545b6040519081526020015b60405180910390f35b6100f16100ec36600461151c565b6101ca565b005b6100f1610101366004611596565b61038b565b6100f1610114366004611612565b6105ef565b7f255f4a56bd3ad76424e31ed8855ef9ad14a0ce4e67508c76ff082e5c1466b12f546100cb565b6100f161014e366004611654565b610844565b6100f16101613660046116f8565b610a16565b6100cb61017436600461174f565b73ffffffffffffffffffffffffffffffffffffffff1660009081527f255f4a56bd3ad76424e31ed8855ef9ad14a0ce4e67508c76ff082e5c1466b131602052604090205490565b604051600181526020016100d5565b848484466040516020016101e194939291906117be565b604080517fffffffffffffffffffffffffffffffffffffffffffffffffffffffffffffffe08184030181529190528051602090910120828260008061022f8561022a8587611863565b610d39565b91509150818190610276576040517f08c379a000000000000000000000000000000000000000000000000000000000815260040161026d9190611956565b60405180910390fd5b5060005b838110156103315760017f255f4a56bd3ad76424e31ed8855ef9ad14a0ce4e67508c76ff082e5c1466b13260008787858181106102b9576102b96119c2565b90506020028101906102cb91906119f1565b6040516102d9929190611a56565b6040805191829003909120825260208201929092520160002080547fffffffffffffffffffffffffffffffffffffffffffffffffffffffffffffff00169115159190911790558061032981611a95565b91505061027a565b5060005b8981101561037e5761036c8b8b83818110610352576103526119c2565b9050602002016020810190610367919061174f565b610f44565b8061037681611a95565b915050610335565b5050505050505050505050565b6040805160208101869052908101849052466060820152608001604080517fffffffffffffffffffffffffffffffffffffffffffffffffffffffffffffffe0818403018152919052805160209091012082826000806103ee8561022a8587611863565b9150915081819061042c576040517f08c379a000000000000000000000000000000000000000000000000000000000815260040161026d9190611956565b5060005b838110156104e75760017f255f4a56bd3ad76424e31ed8855ef9ad14a0ce4e67508c76ff082e5c1466b132600087878581811061046f5761046f6119c2565b905060200281019061048191906119f1565b60405161048f929190611a56565b6040805191829003909120825260208201929092520160002080547fffffffffffffffffffffffffffffffffffffffffffffffffffffffffffffff0016911515919091179055806104df81611a95565b915050610430565b5060007f255f4a56bd3ad76424e31ed8855ef9ad14a0ce4e67508c76ff082e5c1466b12f5411801561055b57507f255f4a56bd3ad76424e31ed8855ef9ad14a0ce4e67508c76ff082e5c1466b130547f255f4a56bd3ad76424e31ed8855ef9ad14a0ce4e67508c76ff082e5c1466b12f5411155b6105c1576040517f08c379a000000000000000000000000000000000000000000000000000000000815260206004820152601160248201527f496e76616c6964207468726573686f6c64000000000000000000000000000000604482015260640161026d565b887f255f4a56bd3ad76424e31ed8855ef9ad14a0ce4e67508c76ff082e5c1466b12f55505050505050505050565b6040805173ffffffffffffffffffffffffffffffffffffffff86166020820152908101849052466060820152608001604080517fffffffffffffffffffffffffffffffffffffffffffffffffffffffffffffffe0818403018152919052805160209091012082826000806106678561022a8587611863565b915091508181906106a5576040517f08c379a000000000000000000000000000000000000000000000000000000000815260040161026d9190611956565b5060005b838110156107605760017f255f4a56bd3ad76424e31ed8855ef9ad14a0ce4e67508c76ff082e5c1466b13260008787858181106106e8576106e86119c2565b90506020028101906106fa91906119f1565b604051610708929190611a56565b6040805191829003909120825260208201929092520160002080547fffffffffffffffffffffffffffffffffffffffffffffffffffffffffffffff00169115159190911790558061075881611a95565b9150506106a9565b508873ffffffffffffffffffffffffffffffffffffffff1663fec5c09a6040518163ffffffff1660e01b8152600401602060405180830381865afa1580156107ac573d6000803e3d6000fd5b505050506040513d601f19601f820116820180604052508101906107d09190611acd565b610836576040517f08c379a000000000000000000000000000000000000000000000000000000000815260206004820152601660248201527f496e76616c696420696d706c656d656e746174696f6e00000000000000000000604482015260640161026d565b883055505050505050505050565b86868686864660405160200161085f96959493929190611af6565b604080517fffffffffffffffffffffffffffffffffffffffffffffffffffffffffffffffe0818403018152919052805160209091012082826000806108a88561022a8587611863565b915091508181906108e6576040517f08c379a000000000000000000000000000000000000000000000000000000000815260040161026d9190611956565b5060005b838110156109a15760017f255f4a56bd3ad76424e31ed8855ef9ad14a0ce4e67508c76ff082e5c1466b1326000878785818110610929576109296119c2565b905060200281019061093b91906119f1565b604051610949929190611a56565b6040805191829003909120825260208201929092520160002080547fffffffffffffffffffffffffffffffffffffffffffffffffffffffffffffff00169115159190911790558061099981611a95565b9150506108ea565b5060005b8b811015610a07576109f58d8d838181106109c2576109c26119c2565b90506020020160208101906109d7919061174f565b8c8c848181106109e9576109e96119c2565b905060200201356110de565b806109ff81611a95565b9150506109a5565b50505050505050505050505050565b6040805173ffffffffffffffffffffffffffffffffffffffff871660208201529081018590526060810184905246608082015260a001604080517fffffffffffffffffffffffffffffffffffffffffffffffffffffffffffffffe081840301815291905280516020909101208282600080610a958561022a8587611863565b91509150818190610ad3576040517f08c379a000000000000000000000000000000000000000000000000000000000815260040161026d9190611956565b5060005b83811015610b8e5760017f255f4a56bd3ad76424e31ed8855ef9ad14a0ce4e67508c76ff082e5c1466b1326000878785818110610b1657610b166119c2565b9050602002810190610b2891906119f1565b604051610b36929190611a56565b6040805191829003909120825260208201929092520160002080547fffffffffffffffffffffffffffffffffffffffffffffffffffffffffffffff001691151591909117905580610b8681611a95565b915050610ad7565b5073ffffffffffffffffffffffffffffffffffffffff8a1660009081527f255f4a56bd3ad76424e31ed8855ef9ad14a0ce4e67508c76ff082e5c1466b13160205260409020547f255f4a56bd3ad76424e31ed8855ef9ad14a0ce4e67508c76ff082e5c1466b130548a91610c0191611b6d565b610c0b9190611b80565b7f255f4a56bd3ad76424e31ed8855ef9ad14a0ce4e67508c76ff082e5c1466b13081905515801590610c7f57507f255f4a56bd3ad76424e31ed8855ef9ad14a0ce4e67508c76ff082e5c1466b12f547f255f4a56bd3ad76424e31ed8855ef9ad14a0ce4e67508c76ff082e5c1466b1305410155b610ce5576040517f08c379a000000000000000000000000000000000000000000000000000000000815260206004820152601d60248201527f5468726573686f6c6420776f756c6420626520696d706f737369626c65000000604482015260640161026d565b5050505073ffffffffffffffffffffffffffffffffffffffff9590951660009081527f255f4a56bd3ad76424e31ed8855ef9ad14a0ce4e67508c76ff082e5c1466b131602052604090209390935550505050565b600060606000805b8451811015610ed8576000610d6f87878481518110610d6257610d626119c2565b6020026020010151611160565b73ffffffffffffffffffffffffffffffffffffffff811660009081527f255f4a56bd3ad76424e31ed8855ef9ad14a0ce4e67508c76ff082e5c1466b131602052604081205491925003610de3576000604051806060016040528060328152602001611be96032913994509450505050610f3d565b6000868381518110610df757610df76119c2565b6020026020010151805190602001209050610e2f7f255f4a56bd3ad76424e31ed8855ef9ad14a0ce4e67508c76ff082e5c1466b12f90565b6000828152600391909101602052604090205460ff1615610e72576000604051806060016040528060238152602001611c1b602391399550955050505050610f3d565b73ffffffffffffffffffffffffffffffffffffffff821660009081527f255f4a56bd3ad76424e31ed8855ef9ad14a0ce4e67508c76ff082e5c1466b1316020526040902054610ec19085611b80565b935050508080610ed090611a95565b915050610d41565b507f255f4a56bd3ad76424e31ed8855ef9ad14a0ce4e67508c76ff082e5c1466b12f54811015610f27576000604051806060016040528060268152602001611bc3602691399250925050610f3d565b5050604080516020810190915260008152600191505b9250929050565b73ffffffffffffffffffffffffffffffffffffffff811660009081527f255f4a56bd3ad76424e31ed8855ef9ad14a0ce4e67508c76ff082e5c1466b13160205260408120547f255f4a56bd3ad76424e31ed8855ef9ad14a0ce4e67508c76ff082e5c1466b130805491929091610fbb908490611b6d565b90915550507f255f4a56bd3ad76424e31ed8855ef9ad14a0ce4e67508c76ff082e5c1466b130541580159061103257507f255f4a56bd3ad76424e31ed8855ef9ad14a0ce4e67508c76ff082e5c1466b12f547f255f4a56bd3ad76424e31ed8855ef9ad14a0ce4e67508c76ff082e5c1466b1305410155b611098576040517f08c379a000000000000000000000000000000000000000000000000000000000815260206004820152601d60248201527f5468726573686f6c6420776f756c6420626520696d706f737369626c65000000604482015260640161026d565b73ffffffffffffffffffffffffffffffffffffffff1660009081527f255f4a56bd3ad76424e31ed8855ef9ad14a0ce4e67508c76ff082e5c1466b1316020526040812055565b807f255f4a56bd3ad76424e31ed8855ef9ad14a0ce4e67508c76ff082e5c1466b12f60010160008282546111129190611b80565b909155505073ffffffffffffffffffffffffffffffffffffffff9190911660009081527f255f4a56bd3ad76424e31ed8855ef9ad14a0ce4e67508c76ff082e5c1466b1316020526040902055565b60006111c3826111bd856040517f19457468657265756d205369676e6564204d6573736167653a0a3332000000006020820152603c8101829052600090605c01604051602081830303815290604052805190602001209050919050565b906111cc565b90505b92915050565b60008060006111db85856111f0565b915091506111e881611232565b509392505050565b60008082516041036112265760208301516040840151606085015160001a61121a878285856113e8565b94509450505050610f3d565b50600090506002610f3d565b600081600481111561124657611246611b93565b0361124e5750565b600181600481111561126257611262611b93565b036112c9576040517f08c379a000000000000000000000000000000000000000000000000000000000815260206004820152601860248201527f45434453413a20696e76616c6964207369676e61747572650000000000000000604482015260640161026d565b60028160048111156112dd576112dd611b93565b03611344576040517f08c379a000000000000000000000000000000000000000000000000000000000815260206004820152601f60248201527f45434453413a20696e76616c6964207369676e6174757265206c656e67746800604482015260640161026d565b600381600481111561135857611358611b93565b036113e5576040517f08c379a000000000000000000000000000000000000000000000000000000000815260206004820152602260248201527f45434453413a20696e76616c6964207369676e6174757265202773272076616c60448201527f7565000000000000000000000000000000000000000000000000000000000000606482015260840161026d565b50565b6000807f7fffffffffffffffffffffffffffffff5d576e7357a4501ddfe92f46681b20a083111561141f57506000905060036114ce565b6040805160008082526020820180845289905260ff881692820192909252606081018690526080810185905260019060a0016020604051602081039080840390855afa158015611473573d6000803e3d6000fd5b50506040517fffffffffffffffffffffffffffffffffffffffffffffffffffffffffffffffe0015191505073ffffffffffffffffffffffffffffffffffffffff81166114c7576000600192509250506114ce565b9150600090505b94509492505050565b60008083601f8401126114e957600080fd5b50813567ffffffffffffffff81111561150157600080fd5b6020830191508360208260051b8501011115610f3d57600080fd5b60008060008060006060868803121561153457600080fd5b853567ffffffffffffffff8082111561154c57600080fd5b61155889838a016114d7565b909750955060208801359450604088013591508082111561157857600080fd5b50611585888289016114d7565b969995985093965092949392505050565b600080600080606085870312156115ac57600080fd5b8435935060208501359250604085013567ffffffffffffffff8111156115d157600080fd5b6115dd878288016114d7565b95989497509550505050565b803573ffffffffffffffffffffffffffffffffffffffff8116811461160d57600080fd5b919050565b6000806000806060858703121561162857600080fd5b611631856115e9565b935060208501359250604085013567ffffffffffffffff8111156115d157600080fd5b60008060008060008060006080888a03121561166f57600080fd5b873567ffffffffffffffff8082111561168757600080fd5b6116938b838c016114d7565b909950975060208a01359150808211156116ac57600080fd5b6116b88b838c016114d7565b909750955060408a0135945060608a01359150808211156116d857600080fd5b506116e58a828b016114d7565b989b979a50959850939692959293505050565b60008060008060006080868803121561171057600080fd5b611719866115e9565b94506020860135935060408601359250606086013567ffffffffffffffff81111561174357600080fd5b611585888289016114d7565b60006020828403121561176157600080fd5b6111c3826115e9565b8183526000602080850194508260005b858110156117b35773ffffffffffffffffffffffffffffffffffffffff6117a0836115e9565b168752958201959082019060010161177a565b509495945050505050565b6060815260006117d260608301868861176a565b6020830194909452506040015292915050565b7f4e487b7100000000000000000000000000000000000000000000000000000000600052604160045260246000fd5b604051601f82017fffffffffffffffffffffffffffffffffffffffffffffffffffffffffffffffe016810167ffffffffffffffff8111828210171561185b5761185b6117e5565b604052919050565b600067ffffffffffffffff8084111561187e5761187e6117e5565b8360051b602061188f818301611814565b8681529185019181810190368411156118a757600080fd5b865b8481101561194a578035868111156118c15760008081fd5b8801601f36818301126118d45760008081fd5b8135888111156118e6576118e66117e5565b611915877fffffffffffffffffffffffffffffffffffffffffffffffffffffffffffffffe08484011601611814565b9150808252368782850101111561192c5760008081fd5b808784018884013760009082018701528452509183019183016118a9565b50979650505050505050565b600060208083528351808285015260005b8181101561198357858101830151858201604001528201611967565b5060006040828601015260407fffffffffffffffffffffffffffffffffffffffffffffffffffffffffffffffe0601f8301168501019250505092915050565b7f4e487b7100000000000000000000000000000000000000000000000000000000600052603260045260246000fd5b60008083357fffffffffffffffffffffffffffffffffffffffffffffffffffffffffffffffe1843603018112611a2657600080fd5b83018035915067ffffffffffffffff821115611a4157600080fd5b602001915036819003821315610f3d57600080fd5b8183823760009101908152919050565b7f4e487b7100000000000000000000000000000000000000000000000000000000600052601160045260246000fd5b60007fffffffffffffffffffffffffffffffffffffffffffffffffffffffffffffffff8203611ac657611ac6611a66565b5060010190565b600060208284031215611adf57600080fd5b81518015158114611aef57600080fd5b9392505050565b608081526000611b0a60808301888a61176a565b82810360208401528581527f07ffffffffffffffffffffffffffffffffffffffffffffffffffffffffffffff861115611b4257600080fd5b8560051b80886020840137604084019590955260609092019290925290910160200195945050505050565b818103818111156111c6576111c6611a66565b808201808211156111c6576111c6611a66565b7f4e487b7100000000000000000000000000000000000000000000000000000000600052602160045260246000fdfe5369676e6572207765696768747320646f6573206e6f74206d656574207468726573686f6c644174206c65617374206f6e65207369676e6174757265206e6f742066726f6d2061206b6e6f776e20636f6e74726f6c6c65724174206c65617374206f6e65207369676e617475726520616c72656164792075736564a2646970667358221220a74d33ba1502fd7498b4fd3fccef70c9a0f75eb2ad28ed6c48cabec78b8da96264736f6c63430008120033",
  "linkReferences": {},
  "deployedLinkReferences": {}
}